{
	"@course/meta-node/solidity/mine/solidity_lesson/study_code/2.1数据类型基础/AddressType.sol": {
		"AddressType": {
			"abi": [
				{
					"stateMutability": "payable",
					"type": "fallback"
				},
				{
					"inputs": [
						{
							"internalType": "address",
							"name": "addr",
							"type": "address"
						}
					],
					"name": "getBalance",
					"outputs": [
						{
							"internalType": "uint256",
							"name": "",
							"type": "uint256"
						}
					],
					"stateMutability": "view",
					"type": "function"
				},
				{
					"inputs": [],
					"name": "getCurrentContractAddress",
					"outputs": [
						{
							"internalType": "address",
							"name": "",
							"type": "address"
						}
					],
					"stateMutability": "view",
					"type": "function"
				},
				{
					"inputs": [],
					"name": "getCurrentContractbalance",
					"outputs": [
						{
							"internalType": "uint256",
							"name": "",
							"type": "uint256"
						}
					],
					"stateMutability": "view",
					"type": "function"
				},
				{
					"inputs": [],
					"name": "getSpecialAddresses",
					"outputs": [
						{
							"internalType": "address",
							"name": "",
							"type": "address"
						},
						{
							"internalType": "address",
							"name": "",
							"type": "address"
						},
						{
							"internalType": "address",
							"name": "",
							"type": "address"
						}
					],
					"stateMutability": "view",
					"type": "function"
				},
				{
					"inputs": [
						{
							"internalType": "address",
							"name": "addr",
							"type": "address"
						}
					],
					"name": "isZeroAddress",
					"outputs": [
						{
							"internalType": "bool",
							"name": "",
							"type": "bool"
						}
					],
					"stateMutability": "pure",
					"type": "function"
				},
				{
					"stateMutability": "payable",
					"type": "receive"
				}
			],
			"devdoc": {
				"kind": "dev",
				"methods": {},
				"version": 1
			},
			"evm": {
				"assembly": "    /* \"@course/meta-node/solidity/mine/solidity_lesson/study_code/2.1\\xe6\\x95\\xb0\\xe6\\x8d\\xae\\xe7\\xb1\\xbb\\xe5\\x9e\\x8b\\xe5\\x9f\\xba\\xe7\\xa1\\x80/AddressType.sol\":57:890  contract AddressType {... */\n  mstore(0x40, 0x80)\n  callvalue\n  dup1\n  iszero\n  tag_1\n  jumpi\n  revert(0x00, 0x00)\ntag_1:\n  pop\n  dataSize(sub_0)\n  dup1\n  dataOffset(sub_0)\n  0x00\n  codecopy\n  0x00\n  return\nstop\n\nsub_0: assembly {\n        /* \"@course/meta-node/solidity/mine/solidity_lesson/study_code/2.1\\xe6\\x95\\xb0\\xe6\\x8d\\xae\\xe7\\xb1\\xbb\\xe5\\x9e\\x8b\\xe5\\x9f\\xba\\xe7\\xa1\\x80/AddressType.sol\":57:890  contract AddressType {... */\n      mstore(0x40, 0x80)\n      jumpi(tag_1, lt(calldatasize, 0x04))\n      shr(0xe0, calldataload(0x00))\n      dup1\n      0x18664315\n      eq\n      tag_3\n      jumpi\n      dup1\n      0x7ab46b25\n      eq\n      tag_4\n      jumpi\n      dup1\n      0xa7ecd0ad\n      eq\n      tag_5\n      jumpi\n      dup1\n      0xc6fd1020\n      eq\n      tag_6\n      jumpi\n      dup1\n      0xf8b2cb4f\n      eq\n      tag_7\n      jumpi\n      jump(tag_2)\n    tag_1:\n    tag_2:\n      stop\n        /* \"@course/meta-node/solidity/mine/solidity_lesson/study_code/2.1\\xe6\\x95\\xb0\\xe6\\x8d\\xae\\xe7\\xb1\\xbb\\xe5\\x9e\\x8b\\xe5\\x9f\\xba\\xe7\\xa1\\x80/AddressType.sol\":607:713  function isZeroAddress(address addr) public pure returns (bool) {... */\n    tag_3:\n      callvalue\n      dup1\n      iszero\n      tag_12\n      jumpi\n      revert(0x00, 0x00)\n    tag_12:\n      pop\n      tag_13\n      0x04\n      dup1\n      calldatasize\n      sub\n      dup2\n      add\n      swap1\n      tag_14\n      swap2\n      swap1\n      tag_15\n      jump\t// in\n    tag_14:\n      tag_16\n      jump\t// in\n    tag_13:\n      mload(0x40)\n      tag_17\n      swap2\n      swap1\n      tag_18\n      jump\t// in\n    tag_17:\n      mload(0x40)\n      dup1\n      swap2\n      sub\n      swap1\n      return\n        /* \"@course/meta-node/solidity/mine/solidity_lesson/study_code/2.1\\xe6\\x95\\xb0\\xe6\\x8d\\xae\\xe7\\xb1\\xbb\\xe5\\x9e\\x8b\\xe5\\x9f\\xba\\xe7\\xa1\\x80/AddressType.sol\":410:519  function getCurrentContractbalance() public view returns (uint) {... */\n    tag_4:\n      callvalue\n      dup1\n      iszero\n      tag_19\n      jumpi\n      revert(0x00, 0x00)\n    tag_19:\n      pop\n      tag_20\n      tag_21\n      jump\t// in\n    tag_20:\n      mload(0x40)\n      tag_22\n      swap2\n      swap1\n      tag_23\n      jump\t// in\n    tag_22:\n      mload(0x40)\n      dup1\n      swap2\n      sub\n      swap1\n      return\n        /* \"@course/meta-node/solidity/mine/solidity_lesson/study_code/2.1\\xe6\\x95\\xb0\\xe6\\x8d\\xae\\xe7\\xb1\\xbb\\xe5\\x9e\\x8b\\xe5\\x9f\\xba\\xe7\\xa1\\x80/AddressType.sol\":719:888  function getSpecialAddresses()... */\n    tag_5:\n      callvalue\n      dup1\n      iszero\n      tag_24\n      jumpi\n      revert(0x00, 0x00)\n    tag_24:\n      pop\n      tag_25\n      tag_26\n      jump\t// in\n    tag_25:\n      mload(0x40)\n      tag_27\n      swap4\n      swap3\n      swap2\n      swap1\n      tag_28\n      jump\t// in\n    tag_27:\n      mload(0x40)\n      dup1\n      swap2\n      sub\n      swap1\n      return\n        /* \"@course/meta-node/solidity/mine/solidity_lesson/study_code/2.1\\xe6\\x95\\xb0\\xe6\\x8d\\xae\\xe7\\xb1\\xbb\\xe5\\x9e\\x8b\\xe5\\x9f\\xba\\xe7\\xa1\\x80/AddressType.sol\":300:404  function getCurrentContractAddress() public view returns (address) {... */\n    tag_6:\n      callvalue\n      dup1\n      iszero\n      tag_29\n      jumpi\n      revert(0x00, 0x00)\n    tag_29:\n      pop\n      tag_30\n      tag_31\n      jump\t// in\n    tag_30:\n      mload(0x40)\n      tag_32\n      swap2\n      swap1\n      tag_33\n      jump\t// in\n    tag_32:\n      mload(0x40)\n      dup1\n      swap2\n      sub\n      swap1\n      return\n        /* \"@course/meta-node/solidity/mine/solidity_lesson/study_code/2.1\\xe6\\x95\\xb0\\xe6\\x8d\\xae\\xe7\\xb1\\xbb\\xe5\\x9e\\x8b\\xe5\\x9f\\xba\\xe7\\xa1\\x80/AddressType.sol\":155:294  function getBalance(address addr) public view returns (uint) {... */\n    tag_7:\n      callvalue\n      dup1\n      iszero\n      tag_34\n      jumpi\n      revert(0x00, 0x00)\n    tag_34:\n      pop\n      tag_35\n      0x04\n      dup1\n      calldatasize\n      sub\n      dup2\n      add\n      swap1\n      tag_36\n      swap2\n      swap1\n      tag_15\n      jump\t// in\n    tag_36:\n      tag_37\n      jump\t// in\n    tag_35:\n      mload(0x40)\n      tag_38\n      swap2\n      swap1\n      tag_23\n      jump\t// in\n    tag_38:\n      mload(0x40)\n      dup1\n      swap2\n      sub\n      swap1\n      return\n        /* \"@course/meta-node/solidity/mine/solidity_lesson/study_code/2.1\\xe6\\x95\\xb0\\xe6\\x8d\\xae\\xe7\\xb1\\xbb\\xe5\\x9e\\x8b\\xe5\\x9f\\xba\\xe7\\xa1\\x80/AddressType.sol\":607:713  function isZeroAddress(address addr) public pure returns (bool) {... */\n    tag_16:\n        /* \"@course/meta-node/solidity/mine/solidity_lesson/study_code/2.1\\xe6\\x95\\xb0\\xe6\\x8d\\xae\\xe7\\xb1\\xbb\\xe5\\x9e\\x8b\\xe5\\x9f\\xba\\xe7\\xa1\\x80/AddressType.sol\":665:669  bool */\n      0x00\n        /* \"@course/meta-node/solidity/mine/solidity_lesson/study_code/2.1\\xe6\\x95\\xb0\\xe6\\x8d\\xae\\xe7\\xb1\\xbb\\xe5\\x9e\\x8b\\xe5\\x9f\\xba\\xe7\\xa1\\x80/AddressType.sol\":704:705  0 */\n      0x00\n        /* \"@course/meta-node/solidity/mine/solidity_lesson/study_code/2.1\\xe6\\x95\\xb0\\xe6\\x8d\\xae\\xe7\\xb1\\xbb\\xe5\\x9e\\x8b\\xe5\\x9f\\xba\\xe7\\xa1\\x80/AddressType.sol\":688:706  addr == address(0) */\n      0xffffffffffffffffffffffffffffffffffffffff\n      and\n        /* \"@course/meta-node/solidity/mine/solidity_lesson/study_code/2.1\\xe6\\x95\\xb0\\xe6\\x8d\\xae\\xe7\\xb1\\xbb\\xe5\\x9e\\x8b\\xe5\\x9f\\xba\\xe7\\xa1\\x80/AddressType.sol\":688:692  addr */\n      dup3\n        /* \"@course/meta-node/solidity/mine/solidity_lesson/study_code/2.1\\xe6\\x95\\xb0\\xe6\\x8d\\xae\\xe7\\xb1\\xbb\\xe5\\x9e\\x8b\\xe5\\x9f\\xba\\xe7\\xa1\\x80/AddressType.sol\":688:706  addr == address(0) */\n      0xffffffffffffffffffffffffffffffffffffffff\n      and\n      eq\n        /* \"@course/meta-node/solidity/mine/solidity_lesson/study_code/2.1\\xe6\\x95\\xb0\\xe6\\x8d\\xae\\xe7\\xb1\\xbb\\xe5\\x9e\\x8b\\xe5\\x9f\\xba\\xe7\\xa1\\x80/AddressType.sol\":681:706  return addr == address(0) */\n      swap1\n      pop\n        /* \"@course/meta-node/solidity/mine/solidity_lesson/study_code/2.1\\xe6\\x95\\xb0\\xe6\\x8d\\xae\\xe7\\xb1\\xbb\\xe5\\x9e\\x8b\\xe5\\x9f\\xba\\xe7\\xa1\\x80/AddressType.sol\":607:713  function isZeroAddress(address addr) public pure returns (bool) {... */\n      swap2\n      swap1\n      pop\n      jump\t// out\n        /* \"@course/meta-node/solidity/mine/solidity_lesson/study_code/2.1\\xe6\\x95\\xb0\\xe6\\x8d\\xae\\xe7\\xb1\\xbb\\xe5\\x9e\\x8b\\xe5\\x9f\\xba\\xe7\\xa1\\x80/AddressType.sol\":410:519  function getCurrentContractbalance() public view returns (uint) {... */\n    tag_21:\n        /* \"@course/meta-node/solidity/mine/solidity_lesson/study_code/2.1\\xe6\\x95\\xb0\\xe6\\x8d\\xae\\xe7\\xb1\\xbb\\xe5\\x9e\\x8b\\xe5\\x9f\\xba\\xe7\\xa1\\x80/AddressType.sol\":468:472  uint */\n      0x00\n        /* \"@course/meta-node/solidity/mine/solidity_lesson/study_code/2.1\\xe6\\x95\\xb0\\xe6\\x8d\\xae\\xe7\\xb1\\xbb\\xe5\\x9e\\x8b\\xe5\\x9f\\xba\\xe7\\xa1\\x80/AddressType.sol\":491:512  address(this).balance */\n      selfbalance\n        /* \"@course/meta-node/solidity/mine/solidity_lesson/study_code/2.1\\xe6\\x95\\xb0\\xe6\\x8d\\xae\\xe7\\xb1\\xbb\\xe5\\x9e\\x8b\\xe5\\x9f\\xba\\xe7\\xa1\\x80/AddressType.sol\":484:512  return address(this).balance */\n      swap1\n      pop\n        /* \"@course/meta-node/solidity/mine/solidity_lesson/study_code/2.1\\xe6\\x95\\xb0\\xe6\\x8d\\xae\\xe7\\xb1\\xbb\\xe5\\x9e\\x8b\\xe5\\x9f\\xba\\xe7\\xa1\\x80/AddressType.sol\":410:519  function getCurrentContractbalance() public view returns (uint) {... */\n      swap1\n      jump\t// out\n        /* \"@course/meta-node/solidity/mine/solidity_lesson/study_code/2.1\\xe6\\x95\\xb0\\xe6\\x8d\\xae\\xe7\\xb1\\xbb\\xe5\\x9e\\x8b\\xe5\\x9f\\xba\\xe7\\xa1\\x80/AddressType.sol\":719:888  function getSpecialAddresses()... */\n    tag_26:\n        /* \"@course/meta-node/solidity/mine/solidity_lesson/study_code/2.1\\xe6\\x95\\xb0\\xe6\\x8d\\xae\\xe7\\xb1\\xbb\\xe5\\x9e\\x8b\\xe5\\x9f\\xba\\xe7\\xa1\\x80/AddressType.sol\":795:802  address */\n      0x00\n        /* \"@course/meta-node/solidity/mine/solidity_lesson/study_code/2.1\\xe6\\x95\\xb0\\xe6\\x8d\\xae\\xe7\\xb1\\xbb\\xe5\\x9e\\x8b\\xe5\\x9f\\xba\\xe7\\xa1\\x80/AddressType.sol\":804:811  address */\n      0x00\n        /* \"@course/meta-node/solidity/mine/solidity_lesson/study_code/2.1\\xe6\\x95\\xb0\\xe6\\x8d\\xae\\xe7\\xb1\\xbb\\xe5\\x9e\\x8b\\xe5\\x9f\\xba\\xe7\\xa1\\x80/AddressType.sol\":813:820  address */\n      0x00\n        /* \"@course/meta-node/solidity/mine/solidity_lesson/study_code/2.1\\xe6\\x95\\xb0\\xe6\\x8d\\xae\\xe7\\xb1\\xbb\\xe5\\x9e\\x8b\\xe5\\x9f\\xba\\xe7\\xa1\\x80/AddressType.sol\":852:856  this */\n      address\n        /* \"@course/meta-node/solidity/mine/solidity_lesson/study_code/2.1\\xe6\\x95\\xb0\\xe6\\x8d\\xae\\xe7\\xb1\\xbb\\xe5\\x9e\\x8b\\xe5\\x9f\\xba\\xe7\\xa1\\x80/AddressType.sol\":859:869  msg.sender */\n      caller\n        /* \"@course/meta-node/solidity/mine/solidity_lesson/study_code/2.1\\xe6\\x95\\xb0\\xe6\\x8d\\xae\\xe7\\xb1\\xbb\\xe5\\x9e\\x8b\\xe5\\x9f\\xba\\xe7\\xa1\\x80/AddressType.sol\":871:880  tx.origin */\n      origin\n        /* \"@course/meta-node/solidity/mine/solidity_lesson/study_code/2.1\\xe6\\x95\\xb0\\xe6\\x8d\\xae\\xe7\\xb1\\xbb\\xe5\\x9e\\x8b\\xe5\\x9f\\xba\\xe7\\xa1\\x80/AddressType.sol\":836:881  return (address(this), msg.sender, tx.origin) */\n      swap3\n      pop\n      swap3\n      pop\n      swap3\n      pop\n        /* \"@course/meta-node/solidity/mine/solidity_lesson/study_code/2.1\\xe6\\x95\\xb0\\xe6\\x8d\\xae\\xe7\\xb1\\xbb\\xe5\\x9e\\x8b\\xe5\\x9f\\xba\\xe7\\xa1\\x80/AddressType.sol\":719:888  function getSpecialAddresses()... */\n      swap1\n      swap2\n      swap3\n      jump\t// out\n        /* \"@course/meta-node/solidity/mine/solidity_lesson/study_code/2.1\\xe6\\x95\\xb0\\xe6\\x8d\\xae\\xe7\\xb1\\xbb\\xe5\\x9e\\x8b\\xe5\\x9f\\xba\\xe7\\xa1\\x80/AddressType.sol\":300:404  function getCurrentContractAddress() public view returns (address) {... */\n    tag_31:\n        /* \"@course/meta-node/solidity/mine/solidity_lesson/study_code/2.1\\xe6\\x95\\xb0\\xe6\\x8d\\xae\\xe7\\xb1\\xbb\\xe5\\x9e\\x8b\\xe5\\x9f\\xba\\xe7\\xa1\\x80/AddressType.sol\":358:365  address */\n      0x00\n        /* \"@course/meta-node/solidity/mine/solidity_lesson/study_code/2.1\\xe6\\x95\\xb0\\xe6\\x8d\\xae\\xe7\\xb1\\xbb\\xe5\\x9e\\x8b\\xe5\\x9f\\xba\\xe7\\xa1\\x80/AddressType.sol\":392:396  this */\n      address\n        /* \"@course/meta-node/solidity/mine/solidity_lesson/study_code/2.1\\xe6\\x95\\xb0\\xe6\\x8d\\xae\\xe7\\xb1\\xbb\\xe5\\x9e\\x8b\\xe5\\x9f\\xba\\xe7\\xa1\\x80/AddressType.sol\":377:397  return address(this) */\n      swap1\n      pop\n        /* \"@course/meta-node/solidity/mine/solidity_lesson/study_code/2.1\\xe6\\x95\\xb0\\xe6\\x8d\\xae\\xe7\\xb1\\xbb\\xe5\\x9e\\x8b\\xe5\\x9f\\xba\\xe7\\xa1\\x80/AddressType.sol\":300:404  function getCurrentContractAddress() public view returns (address) {... */\n      swap1\n      jump\t// out\n        /* \"@course/meta-node/solidity/mine/solidity_lesson/study_code/2.1\\xe6\\x95\\xb0\\xe6\\x8d\\xae\\xe7\\xb1\\xbb\\xe5\\x9e\\x8b\\xe5\\x9f\\xba\\xe7\\xa1\\x80/AddressType.sol\":155:294  function getBalance(address addr) public view returns (uint) {... */\n    tag_37:\n        /* \"@course/meta-node/solidity/mine/solidity_lesson/study_code/2.1\\xe6\\x95\\xb0\\xe6\\x8d\\xae\\xe7\\xb1\\xbb\\xe5\\x9e\\x8b\\xe5\\x9f\\xba\\xe7\\xa1\\x80/AddressType.sol\":210:214  uint */\n      0x00\n        /* \"@course/meta-node/solidity/mine/solidity_lesson/study_code/2.1\\xe6\\x95\\xb0\\xe6\\x8d\\xae\\xe7\\xb1\\xbb\\xe5\\x9e\\x8b\\xe5\\x9f\\xba\\xe7\\xa1\\x80/AddressType.sol\":275:279  addr */\n      dup2\n        /* \"@course/meta-node/solidity/mine/solidity_lesson/study_code/2.1\\xe6\\x95\\xb0\\xe6\\x8d\\xae\\xe7\\xb1\\xbb\\xe5\\x9e\\x8b\\xe5\\x9f\\xba\\xe7\\xa1\\x80/AddressType.sol\":275:287  addr.balance */\n      0xffffffffffffffffffffffffffffffffffffffff\n      and\n      balance\n        /* \"@course/meta-node/solidity/mine/solidity_lesson/study_code/2.1\\xe6\\x95\\xb0\\xe6\\x8d\\xae\\xe7\\xb1\\xbb\\xe5\\x9e\\x8b\\xe5\\x9f\\xba\\xe7\\xa1\\x80/AddressType.sol\":268:287  return addr.balance */\n      swap1\n      pop\n        /* \"@course/meta-node/solidity/mine/solidity_lesson/study_code/2.1\\xe6\\x95\\xb0\\xe6\\x8d\\xae\\xe7\\xb1\\xbb\\xe5\\x9e\\x8b\\xe5\\x9f\\xba\\xe7\\xa1\\x80/AddressType.sol\":155:294  function getBalance(address addr) public view returns (uint) {... */\n      swap2\n      swap1\n      pop\n      jump\t// out\n        /* \"#utility.yul\":88:205   */\n    tag_45:\n        /* \"#utility.yul\":197:198   */\n      0x00\n        /* \"#utility.yul\":194:195   */\n      0x00\n        /* \"#utility.yul\":187:199   */\n      revert\n        /* \"#utility.yul\":334:460   */\n    tag_47:\n        /* \"#utility.yul\":371:378   */\n      0x00\n        /* \"#utility.yul\":411:453   */\n      0xffffffffffffffffffffffffffffffffffffffff\n        /* \"#utility.yul\":404:409   */\n      dup3\n        /* \"#utility.yul\":400:454   */\n      and\n        /* \"#utility.yul\":389:454   */\n      swap1\n      pop\n        /* \"#utility.yul\":334:460   */\n      swap2\n      swap1\n      pop\n      jump\t// out\n        /* \"#utility.yul\":466:562   */\n    tag_48:\n        /* \"#utility.yul\":503:510   */\n      0x00\n        /* \"#utility.yul\":532:556   */\n      tag_62\n        /* \"#utility.yul\":550:555   */\n      dup3\n        /* \"#utility.yul\":532:556   */\n      tag_47\n      jump\t// in\n    tag_62:\n        /* \"#utility.yul\":521:556   */\n      swap1\n      pop\n        /* \"#utility.yul\":466:562   */\n      swap2\n      swap1\n      pop\n      jump\t// out\n        /* \"#utility.yul\":568:690   */\n    tag_49:\n        /* \"#utility.yul\":641:665   */\n      tag_64\n        /* \"#utility.yul\":659:664   */\n      dup2\n        /* \"#utility.yul\":641:665   */\n      tag_48\n      jump\t// in\n    tag_64:\n        /* \"#utility.yul\":634:639   */\n      dup2\n        /* \"#utility.yul\":631:666   */\n      eq\n        /* \"#utility.yul\":621:684   */\n      tag_65\n      jumpi\n        /* \"#utility.yul\":680:681   */\n      0x00\n        /* \"#utility.yul\":677:678   */\n      0x00\n        /* \"#utility.yul\":670:682   */\n      revert\n        /* \"#utility.yul\":621:684   */\n    tag_65:\n        /* \"#utility.yul\":568:690   */\n      pop\n      jump\t// out\n        /* \"#utility.yul\":696:835   */\n    tag_50:\n        /* \"#utility.yul\":742:747   */\n      0x00\n        /* \"#utility.yul\":780:786   */\n      dup2\n        /* \"#utility.yul\":767:787   */\n      calldataload\n        /* \"#utility.yul\":758:787   */\n      swap1\n      pop\n        /* \"#utility.yul\":796:829   */\n      tag_67\n        /* \"#utility.yul\":823:828   */\n      dup2\n        /* \"#utility.yul\":796:829   */\n      tag_49\n      jump\t// in\n    tag_67:\n        /* \"#utility.yul\":696:835   */\n      swap3\n      swap2\n      pop\n      pop\n      jump\t// out\n        /* \"#utility.yul\":841:1170   */\n    tag_15:\n        /* \"#utility.yul\":900:906   */\n      0x00\n        /* \"#utility.yul\":949:951   */\n      0x20\n        /* \"#utility.yul\":937:946   */\n      dup3\n        /* \"#utility.yul\":928:935   */\n      dup5\n        /* \"#utility.yul\":924:947   */\n      sub\n        /* \"#utility.yul\":920:952   */\n      slt\n        /* \"#utility.yul\":917:1036   */\n      iszero\n      tag_69\n      jumpi\n        /* \"#utility.yul\":955:1034   */\n      tag_70\n      tag_45\n      jump\t// in\n    tag_70:\n        /* \"#utility.yul\":917:1036   */\n    tag_69:\n        /* \"#utility.yul\":1075:1076   */\n      0x00\n        /* \"#utility.yul\":1100:1153   */\n      tag_71\n        /* \"#utility.yul\":1145:1152   */\n      dup5\n        /* \"#utility.yul\":1136:1142   */\n      dup3\n        /* \"#utility.yul\":1125:1134   */\n      dup6\n        /* \"#utility.yul\":1121:1143   */\n      add\n        /* \"#utility.yul\":1100:1153   */\n      tag_50\n      jump\t// in\n    tag_71:\n        /* \"#utility.yul\":1090:1153   */\n      swap2\n      pop\n        /* \"#utility.yul\":1046:1163   */\n      pop\n        /* \"#utility.yul\":841:1170   */\n      swap3\n      swap2\n      pop\n      pop\n      jump\t// out\n        /* \"#utility.yul\":1176:1266   */\n    tag_51:\n        /* \"#utility.yul\":1210:1217   */\n      0x00\n        /* \"#utility.yul\":1253:1258   */\n      dup2\n        /* \"#utility.yul\":1246:1259   */\n      iszero\n        /* \"#utility.yul\":1239:1260   */\n      iszero\n        /* \"#utility.yul\":1228:1260   */\n      swap1\n      pop\n        /* \"#utility.yul\":1176:1266   */\n      swap2\n      swap1\n      pop\n      jump\t// out\n        /* \"#utility.yul\":1272:1381   */\n    tag_52:\n        /* \"#utility.yul\":1353:1374   */\n      tag_74\n        /* \"#utility.yul\":1368:1373   */\n      dup2\n        /* \"#utility.yul\":1353:1374   */\n      tag_51\n      jump\t// in\n    tag_74:\n        /* \"#utility.yul\":1348:1351   */\n      dup3\n        /* \"#utility.yul\":1341:1375   */\n      mstore\n        /* \"#utility.yul\":1272:1381   */\n      pop\n      pop\n      jump\t// out\n        /* \"#utility.yul\":1387:1597   */\n    tag_18:\n        /* \"#utility.yul\":1474:1478   */\n      0x00\n        /* \"#utility.yul\":1512:1514   */\n      0x20\n        /* \"#utility.yul\":1501:1510   */\n      dup3\n        /* \"#utility.yul\":1497:1515   */\n      add\n        /* \"#utility.yul\":1489:1515   */\n      swap1\n      pop\n        /* \"#utility.yul\":1525:1590   */\n      tag_76\n        /* \"#utility.yul\":1587:1588   */\n      0x00\n        /* \"#utility.yul\":1576:1585   */\n      dup4\n        /* \"#utility.yul\":1572:1589   */\n      add\n        /* \"#utility.yul\":1563:1569   */\n      dup5\n        /* \"#utility.yul\":1525:1590   */\n      tag_52\n      jump\t// in\n    tag_76:\n        /* \"#utility.yul\":1387:1597   */\n      swap3\n      swap2\n      pop\n      pop\n      jump\t// out\n        /* \"#utility.yul\":1603:1680   */\n    tag_53:\n        /* \"#utility.yul\":1640:1647   */\n      0x00\n        /* \"#utility.yul\":1669:1674   */\n      dup2\n        /* \"#utility.yul\":1658:1674   */\n      swap1\n      pop\n        /* \"#utility.yul\":1603:1680   */\n      swap2\n      swap1\n      pop\n      jump\t// out\n        /* \"#utility.yul\":1686:1804   */\n    tag_54:\n        /* \"#utility.yul\":1773:1797   */\n      tag_79\n        /* \"#utility.yul\":1791:1796   */\n      dup2\n        /* \"#utility.yul\":1773:1797   */\n      tag_53\n      jump\t// in\n    tag_79:\n        /* \"#utility.yul\":1768:1771   */\n      dup3\n        /* \"#utility.yul\":1761:1798   */\n      mstore\n        /* \"#utility.yul\":1686:1804   */\n      pop\n      pop\n      jump\t// out\n        /* \"#utility.yul\":1810:2032   */\n    tag_23:\n        /* \"#utility.yul\":1903:1907   */\n      0x00\n        /* \"#utility.yul\":1941:1943   */\n      0x20\n        /* \"#utility.yul\":1930:1939   */\n      dup3\n        /* \"#utility.yul\":1926:1944   */\n      add\n        /* \"#utility.yul\":1918:1944   */\n      swap1\n      pop\n        /* \"#utility.yul\":1954:2025   */\n      tag_81\n        /* \"#utility.yul\":2022:2023   */\n      0x00\n        /* \"#utility.yul\":2011:2020   */\n      dup4\n        /* \"#utility.yul\":2007:2024   */\n      add\n        /* \"#utility.yul\":1998:2004   */\n      dup5\n        /* \"#utility.yul\":1954:2025   */\n      tag_54\n      jump\t// in\n    tag_81:\n        /* \"#utility.yul\":1810:2032   */\n      swap3\n      swap2\n      pop\n      pop\n      jump\t// out\n        /* \"#utility.yul\":2038:2156   */\n    tag_55:\n        /* \"#utility.yul\":2125:2149   */\n      tag_83\n        /* \"#utility.yul\":2143:2148   */\n      dup2\n        /* \"#utility.yul\":2125:2149   */\n      tag_48\n      jump\t// in\n    tag_83:\n        /* \"#utility.yul\":2120:2123   */\n      dup3\n        /* \"#utility.yul\":2113:2150   */\n      mstore\n        /* \"#utility.yul\":2038:2156   */\n      pop\n      pop\n      jump\t// out\n        /* \"#utility.yul\":2162:2604   */\n    tag_28:\n        /* \"#utility.yul\":2311:2315   */\n      0x00\n        /* \"#utility.yul\":2349:2351   */\n      0x60\n        /* \"#utility.yul\":2338:2347   */\n      dup3\n        /* \"#utility.yul\":2334:2352   */\n      add\n        /* \"#utility.yul\":2326:2352   */\n      swap1\n      pop\n        /* \"#utility.yul\":2362:2433   */\n      tag_85\n        /* \"#utility.yul\":2430:2431   */\n      0x00\n        /* \"#utility.yul\":2419:2428   */\n      dup4\n        /* \"#utility.yul\":2415:2432   */\n      add\n        /* \"#utility.yul\":2406:2412   */\n      dup7\n        /* \"#utility.yul\":2362:2433   */\n      tag_55\n      jump\t// in\n    tag_85:\n        /* \"#utility.yul\":2443:2515   */\n      tag_86\n        /* \"#utility.yul\":2511:2513   */\n      0x20\n        /* \"#utility.yul\":2500:2509   */\n      dup4\n        /* \"#utility.yul\":2496:2514   */\n      add\n        /* \"#utility.yul\":2487:2493   */\n      dup6\n        /* \"#utility.yul\":2443:2515   */\n      tag_55\n      jump\t// in\n    tag_86:\n        /* \"#utility.yul\":2525:2597   */\n      tag_87\n        /* \"#utility.yul\":2593:2595   */\n      0x40\n        /* \"#utility.yul\":2582:2591   */\n      dup4\n        /* \"#utility.yul\":2578:2596   */\n      add\n        /* \"#utility.yul\":2569:2575   */\n      dup5\n        /* \"#utility.yul\":2525:2597   */\n      tag_55\n      jump\t// in\n    tag_87:\n        /* \"#utility.yul\":2162:2604   */\n      swap5\n      swap4\n      pop\n      pop\n      pop\n      pop\n      jump\t// out\n        /* \"#utility.yul\":2610:2832   */\n    tag_33:\n        /* \"#utility.yul\":2703:2707   */\n      0x00\n        /* \"#utility.yul\":2741:2743   */\n      0x20\n        /* \"#utility.yul\":2730:2739   */\n      dup3\n        /* \"#utility.yul\":2726:2744   */\n      add\n        /* \"#utility.yul\":2718:2744   */\n      swap1\n      pop\n        /* \"#utility.yul\":2754:2825   */\n      tag_89\n        /* \"#utility.yul\":2822:2823   */\n      0x00\n        /* \"#utility.yul\":2811:2820   */\n      dup4\n        /* \"#utility.yul\":2807:2824   */\n      add\n        /* \"#utility.yul\":2798:2804   */\n      dup5\n        /* \"#utility.yul\":2754:2825   */\n      tag_55\n      jump\t// in\n    tag_89:\n        /* \"#utility.yul\":2610:2832   */\n      swap3\n      swap2\n      pop\n      pop\n      jump\t// out\n\n    auxdata: 0xa2646970667358221220b674d3e10b51c8a46612d2b4a2d6a8167da2f01b4f0219477e47dbdad931a03d64736f6c634300081e0033\n}\n",
				"bytecode": {
					"linkReferences": {},
					"object": "6080604052348015600e575f5ffd5b5061033e8061001c5f395ff3fe60806040526004361061004d575f3560e01c806318664315146100505780637ab46b251461008c578063a7ecd0ad146100b6578063c6fd1020146100e2578063f8b2cb4f1461010c5761004e565b5b005b34801561005b575f5ffd5b506100766004803603810190610071919061021c565b610148565b6040516100839190610261565b60405180910390f35b348015610097575f5ffd5b506100a061017f565b6040516100ad9190610292565b60405180910390f35b3480156100c1575f5ffd5b506100ca610186565b6040516100d9939291906102ba565b60405180910390f35b3480156100ed575f5ffd5b506100f6610197565b60405161010391906102ef565b60405180910390f35b348015610117575f5ffd5b50610132600480360381019061012d919061021c565b61019e565b60405161013f9190610292565b60405180910390f35b5f5f73ffffffffffffffffffffffffffffffffffffffff168273ffffffffffffffffffffffffffffffffffffffff16149050919050565b5f47905090565b5f5f5f303332925092509250909192565b5f30905090565b5f8173ffffffffffffffffffffffffffffffffffffffff16319050919050565b5f5ffd5b5f73ffffffffffffffffffffffffffffffffffffffff82169050919050565b5f6101eb826101c2565b9050919050565b6101fb816101e1565b8114610205575f5ffd5b50565b5f81359050610216816101f2565b92915050565b5f60208284031215610231576102306101be565b5b5f61023e84828501610208565b91505092915050565b5f8115159050919050565b61025b81610247565b82525050565b5f6020820190506102745f830184610252565b92915050565b5f819050919050565b61028c8161027a565b82525050565b5f6020820190506102a55f830184610283565b92915050565b6102b4816101e1565b82525050565b5f6060820190506102cd5f8301866102ab565b6102da60208301856102ab565b6102e760408301846102ab565b949350505050565b5f6020820190506103025f8301846102ab565b9291505056fea2646970667358221220b674d3e10b51c8a46612d2b4a2d6a8167da2f01b4f0219477e47dbdad931a03d64736f6c634300081e0033",
					"opcodes": "PUSH1 0x80 PUSH1 0x40 MSTORE CALLVALUE DUP1 ISZERO PUSH1 0xE JUMPI PUSH0 PUSH0 REVERT JUMPDEST POP PUSH2 0x33E DUP1 PUSH2 0x1C PUSH0 CODECOPY PUSH0 RETURN INVALID PUSH1 0x80 PUSH1 0x40 MSTORE PUSH1 0x4 CALLDATASIZE LT PUSH2 0x4D JUMPI PUSH0 CALLDATALOAD PUSH1 0xE0 SHR DUP1 PUSH4 0x18664315 EQ PUSH2 0x50 JUMPI DUP1 PUSH4 0x7AB46B25 EQ PUSH2 0x8C JUMPI DUP1 PUSH4 0xA7ECD0AD EQ PUSH2 0xB6 JUMPI DUP1 PUSH4 0xC6FD1020 EQ PUSH2 0xE2 JUMPI DUP1 PUSH4 0xF8B2CB4F EQ PUSH2 0x10C JUMPI PUSH2 0x4E JUMP JUMPDEST JUMPDEST STOP JUMPDEST CALLVALUE DUP1 ISZERO PUSH2 0x5B JUMPI PUSH0 PUSH0 REVERT JUMPDEST POP PUSH2 0x76 PUSH1 0x4 DUP1 CALLDATASIZE SUB DUP2 ADD SWAP1 PUSH2 0x71 SWAP2 SWAP1 PUSH2 0x21C JUMP JUMPDEST PUSH2 0x148 JUMP JUMPDEST PUSH1 0x40 MLOAD PUSH2 0x83 SWAP2 SWAP1 PUSH2 0x261 JUMP JUMPDEST PUSH1 0x40 MLOAD DUP1 SWAP2 SUB SWAP1 RETURN JUMPDEST CALLVALUE DUP1 ISZERO PUSH2 0x97 JUMPI PUSH0 PUSH0 REVERT JUMPDEST POP PUSH2 0xA0 PUSH2 0x17F JUMP JUMPDEST PUSH1 0x40 MLOAD PUSH2 0xAD SWAP2 SWAP1 PUSH2 0x292 JUMP JUMPDEST PUSH1 0x40 MLOAD DUP1 SWAP2 SUB SWAP1 RETURN JUMPDEST CALLVALUE DUP1 ISZERO PUSH2 0xC1 JUMPI PUSH0 PUSH0 REVERT JUMPDEST POP PUSH2 0xCA PUSH2 0x186 JUMP JUMPDEST PUSH1 0x40 MLOAD PUSH2 0xD9 SWAP4 SWAP3 SWAP2 SWAP1 PUSH2 0x2BA JUMP JUMPDEST PUSH1 0x40 MLOAD DUP1 SWAP2 SUB SWAP1 RETURN JUMPDEST CALLVALUE DUP1 ISZERO PUSH2 0xED JUMPI PUSH0 PUSH0 REVERT JUMPDEST POP PUSH2 0xF6 PUSH2 0x197 JUMP JUMPDEST PUSH1 0x40 MLOAD PUSH2 0x103 SWAP2 SWAP1 PUSH2 0x2EF JUMP JUMPDEST PUSH1 0x40 MLOAD DUP1 SWAP2 SUB SWAP1 RETURN JUMPDEST CALLVALUE DUP1 ISZERO PUSH2 0x117 JUMPI PUSH0 PUSH0 REVERT JUMPDEST POP PUSH2 0x132 PUSH1 0x4 DUP1 CALLDATASIZE SUB DUP2 ADD SWAP1 PUSH2 0x12D SWAP2 SWAP1 PUSH2 0x21C JUMP JUMPDEST PUSH2 0x19E JUMP JUMPDEST PUSH1 0x40 MLOAD PUSH2 0x13F SWAP2 SWAP1 PUSH2 0x292 JUMP JUMPDEST PUSH1 0x40 MLOAD DUP1 SWAP2 SUB SWAP1 RETURN JUMPDEST PUSH0 PUSH0 PUSH20 0xFFFFFFFFFFFFFFFFFFFFFFFFFFFFFFFFFFFFFFFF AND DUP3 PUSH20 0xFFFFFFFFFFFFFFFFFFFFFFFFFFFFFFFFFFFFFFFF AND EQ SWAP1 POP SWAP2 SWAP1 POP JUMP JUMPDEST PUSH0 SELFBALANCE SWAP1 POP SWAP1 JUMP JUMPDEST PUSH0 PUSH0 PUSH0 ADDRESS CALLER ORIGIN SWAP3 POP SWAP3 POP SWAP3 POP SWAP1 SWAP2 SWAP3 JUMP JUMPDEST PUSH0 ADDRESS SWAP1 POP SWAP1 JUMP JUMPDEST PUSH0 DUP2 PUSH20 0xFFFFFFFFFFFFFFFFFFFFFFFFFFFFFFFFFFFFFFFF AND BALANCE SWAP1 POP SWAP2 SWAP1 POP JUMP JUMPDEST PUSH0 PUSH0 REVERT JUMPDEST PUSH0 PUSH20 0xFFFFFFFFFFFFFFFFFFFFFFFFFFFFFFFFFFFFFFFF DUP3 AND SWAP1 POP SWAP2 SWAP1 POP JUMP JUMPDEST PUSH0 PUSH2 0x1EB DUP3 PUSH2 0x1C2 JUMP JUMPDEST SWAP1 POP SWAP2 SWAP1 POP JUMP JUMPDEST PUSH2 0x1FB DUP2 PUSH2 0x1E1 JUMP JUMPDEST DUP2 EQ PUSH2 0x205 JUMPI PUSH0 PUSH0 REVERT JUMPDEST POP JUMP JUMPDEST PUSH0 DUP2 CALLDATALOAD SWAP1 POP PUSH2 0x216 DUP2 PUSH2 0x1F2 JUMP JUMPDEST SWAP3 SWAP2 POP POP JUMP JUMPDEST PUSH0 PUSH1 0x20 DUP3 DUP5 SUB SLT ISZERO PUSH2 0x231 JUMPI PUSH2 0x230 PUSH2 0x1BE JUMP JUMPDEST JUMPDEST PUSH0 PUSH2 0x23E DUP5 DUP3 DUP6 ADD PUSH2 0x208 JUMP JUMPDEST SWAP2 POP POP SWAP3 SWAP2 POP POP JUMP JUMPDEST PUSH0 DUP2 ISZERO ISZERO SWAP1 POP SWAP2 SWAP1 POP JUMP JUMPDEST PUSH2 0x25B DUP2 PUSH2 0x247 JUMP JUMPDEST DUP3 MSTORE POP POP JUMP JUMPDEST PUSH0 PUSH1 0x20 DUP3 ADD SWAP1 POP PUSH2 0x274 PUSH0 DUP4 ADD DUP5 PUSH2 0x252 JUMP JUMPDEST SWAP3 SWAP2 POP POP JUMP JUMPDEST PUSH0 DUP2 SWAP1 POP SWAP2 SWAP1 POP JUMP JUMPDEST PUSH2 0x28C DUP2 PUSH2 0x27A JUMP JUMPDEST DUP3 MSTORE POP POP JUMP JUMPDEST PUSH0 PUSH1 0x20 DUP3 ADD SWAP1 POP PUSH2 0x2A5 PUSH0 DUP4 ADD DUP5 PUSH2 0x283 JUMP JUMPDEST SWAP3 SWAP2 POP POP JUMP JUMPDEST PUSH2 0x2B4 DUP2 PUSH2 0x1E1 JUMP JUMPDEST DUP3 MSTORE POP POP JUMP JUMPDEST PUSH0 PUSH1 0x60 DUP3 ADD SWAP1 POP PUSH2 0x2CD PUSH0 DUP4 ADD DUP7 PUSH2 0x2AB JUMP JUMPDEST PUSH2 0x2DA PUSH1 0x20 DUP4 ADD DUP6 PUSH2 0x2AB JUMP JUMPDEST PUSH2 0x2E7 PUSH1 0x40 DUP4 ADD DUP5 PUSH2 0x2AB JUMP JUMPDEST SWAP5 SWAP4 POP POP POP POP JUMP JUMPDEST PUSH0 PUSH1 0x20 DUP3 ADD SWAP1 POP PUSH2 0x302 PUSH0 DUP4 ADD DUP5 PUSH2 0x2AB JUMP JUMPDEST SWAP3 SWAP2 POP POP JUMP INVALID LOG2 PUSH5 0x6970667358 0x22 SLT KECCAK256 0xB6 PUSH21 0xD3E10B51C8A46612D2B4A2D6A8167DA2F01B4F0219 SELFBALANCE PUSH31 0x47DBDAD931A03D64736F6C634300081E003300000000000000000000000000 "
				},
				"gasEstimates": {
					"creation": {
						"codeDepositCost": "166000",
						"executionCost": "206",
						"totalCost": "166206"
					},
					"external": {
						"": "172",
						"getBalance(address)": "3313",
						"getCurrentContractAddress()": "423",
						"getCurrentContractbalance()": "334",
						"getSpecialAddresses()": "infinite",
						"isZeroAddress(address)": "642"
					}
				},
				"methodIdentifiers": {
					"getBalance(address)": "f8b2cb4f",
					"getCurrentContractAddress()": "c6fd1020",
					"getCurrentContractbalance()": "7ab46b25",
					"getSpecialAddresses()": "a7ecd0ad",
					"isZeroAddress(address)": "18664315"
				}
			},
			"storageLayout": {
				"storage": [],
				"types": null
			},
			"userdoc": {
				"kind": "user",
				"methods": {},
				"version": 1
			}
		}
	}
}