{
	"@course/meta-node/solidity/mine/solidity_lesson/study_code/2.1数据类型基础/AddressType.sol": {
		"SenderVsOriginExample": {
			"abi": [
				{
					"inputs": [
						{
							"internalType": "address",
							"name": "addr",
							"type": "address"
						}
					],
					"stateMutability": "nonpayable",
					"type": "constructor"
				},
				{
					"inputs": [],
					"name": "getSpecialAddresses",
					"outputs": [
						{
							"internalType": "address",
							"name": "",
							"type": "address"
						},
						{
							"internalType": "address",
							"name": "",
							"type": "address"
						},
						{
							"internalType": "address",
							"name": "",
							"type": "address"
						}
					],
					"stateMutability": "view",
					"type": "function"
				}
			],
			"devdoc": {
				"kind": "dev",
				"methods": {},
				"version": 1
			},
			"evm": {
				"assembly": "    /* \"@course/meta-node/solidity/mine/solidity_lesson/study_code/2.1\\xe6\\x95\\xb0\\xe6\\x8d\\xae\\xe7\\xb1\\xbb\\xe5\\x9e\\x8b\\xe5\\x9f\\xba\\xe7\\xa1\\x80/AddressType.sol\":1453:1843  contract SenderVsOriginExample {... */\n  mstore(0x40, 0xa0)\n    /* \"@course/meta-node/solidity/mine/solidity_lesson/study_code/2.1\\xe6\\x95\\xb0\\xe6\\x8d\\xae\\xe7\\xb1\\xbb\\xe5\\x9e\\x8b\\xe5\\x9f\\xba\\xe7\\xa1\\x80/AddressType.sol\":1542:1621  constructor(address addr) {... */\n  callvalue\n  dup1\n  iszero\n  tag_1\n  jumpi\n  revert(0x00, 0x00)\ntag_1:\n  pop\n  mload(0x40)\n  sub(codesize, bytecodeSize)\n  dup1\n  bytecodeSize\n  dup4\n  codecopy\n  dup2\n  dup2\n  add\n  0x40\n  mstore\n  dup2\n  add\n  swap1\n  tag_2\n  swap2\n  swap1\n  tag_3\n  jump\t// in\ntag_2:\n    /* \"@course/meta-node/solidity/mine/solidity_lesson/study_code/2.1\\xe6\\x95\\xb0\\xe6\\x8d\\xae\\xe7\\xb1\\xbb\\xe5\\x9e\\x8b\\xe5\\x9f\\xba\\xe7\\xa1\\x80/AddressType.sol\":1609:1613  addr */\n  dup1\n    /* \"@course/meta-node/solidity/mine/solidity_lesson/study_code/2.1\\xe6\\x95\\xb0\\xe6\\x8d\\xae\\xe7\\xb1\\xbb\\xe5\\x9e\\x8b\\xe5\\x9f\\xba\\xe7\\xa1\\x80/AddressType.sol\":1578:1614  sub = SenderVsOriginExampleSub(addr) */\n  0xffffffffffffffffffffffffffffffffffffffff\n  and\n  0x80\n  dup2\n  0xffffffffffffffffffffffffffffffffffffffff\n  and\n  dup2\n  mstore\n  pop\n  pop\n    /* \"@course/meta-node/solidity/mine/solidity_lesson/study_code/2.1\\xe6\\x95\\xb0\\xe6\\x8d\\xae\\xe7\\xb1\\xbb\\xe5\\x9e\\x8b\\xe5\\x9f\\xba\\xe7\\xa1\\x80/AddressType.sol\":1542:1621  constructor(address addr) {... */\n  pop\n    /* \"@course/meta-node/solidity/mine/solidity_lesson/study_code/2.1\\xe6\\x95\\xb0\\xe6\\x8d\\xae\\xe7\\xb1\\xbb\\xe5\\x9e\\x8b\\xe5\\x9f\\xba\\xe7\\xa1\\x80/AddressType.sol\":1453:1843  contract SenderVsOriginExample {... */\n  jump(tag_6)\n    /* \"#utility.yul\":88:205   */\ntag_8:\n    /* \"#utility.yul\":197:198   */\n  0x00\n    /* \"#utility.yul\":194:195   */\n  0x00\n    /* \"#utility.yul\":187:199   */\n  revert\n    /* \"#utility.yul\":334:460   */\ntag_10:\n    /* \"#utility.yul\":371:378   */\n  0x00\n    /* \"#utility.yul\":411:453   */\n  0xffffffffffffffffffffffffffffffffffffffff\n    /* \"#utility.yul\":404:409   */\n  dup3\n    /* \"#utility.yul\":400:454   */\n  and\n    /* \"#utility.yul\":389:454   */\n  swap1\n  pop\n    /* \"#utility.yul\":334:460   */\n  swap2\n  swap1\n  pop\n  jump\t// out\n    /* \"#utility.yul\":466:562   */\ntag_11:\n    /* \"#utility.yul\":503:510   */\n  0x00\n    /* \"#utility.yul\":532:556   */\n  tag_20\n    /* \"#utility.yul\":550:555   */\n  dup3\n    /* \"#utility.yul\":532:556   */\n  tag_10\n  jump\t// in\ntag_20:\n    /* \"#utility.yul\":521:556   */\n  swap1\n  pop\n    /* \"#utility.yul\":466:562   */\n  swap2\n  swap1\n  pop\n  jump\t// out\n    /* \"#utility.yul\":568:690   */\ntag_12:\n    /* \"#utility.yul\":641:665   */\n  tag_22\n    /* \"#utility.yul\":659:664   */\n  dup2\n    /* \"#utility.yul\":641:665   */\n  tag_11\n  jump\t// in\ntag_22:\n    /* \"#utility.yul\":634:639   */\n  dup2\n    /* \"#utility.yul\":631:666   */\n  eq\n    /* \"#utility.yul\":621:684   */\n  tag_23\n  jumpi\n    /* \"#utility.yul\":680:681   */\n  0x00\n    /* \"#utility.yul\":677:678   */\n  0x00\n    /* \"#utility.yul\":670:682   */\n  revert\n    /* \"#utility.yul\":621:684   */\ntag_23:\n    /* \"#utility.yul\":568:690   */\n  pop\n  jump\t// out\n    /* \"#utility.yul\":696:839   */\ntag_13:\n    /* \"#utility.yul\":753:758   */\n  0x00\n    /* \"#utility.yul\":784:790   */\n  dup2\n    /* \"#utility.yul\":778:791   */\n  mload\n    /* \"#utility.yul\":769:791   */\n  swap1\n  pop\n    /* \"#utility.yul\":800:833   */\n  tag_25\n    /* \"#utility.yul\":827:832   */\n  dup2\n    /* \"#utility.yul\":800:833   */\n  tag_12\n  jump\t// in\ntag_25:\n    /* \"#utility.yul\":696:839   */\n  swap3\n  swap2\n  pop\n  pop\n  jump\t// out\n    /* \"#utility.yul\":845:1196   */\ntag_3:\n    /* \"#utility.yul\":915:921   */\n  0x00\n    /* \"#utility.yul\":964:966   */\n  0x20\n    /* \"#utility.yul\":952:961   */\n  dup3\n    /* \"#utility.yul\":943:950   */\n  dup5\n    /* \"#utility.yul\":939:962   */\n  sub\n    /* \"#utility.yul\":935:967   */\n  slt\n    /* \"#utility.yul\":932:1051   */\n  iszero\n  tag_27\n  jumpi\n    /* \"#utility.yul\":970:1049   */\n  tag_28\n  tag_8\n  jump\t// in\ntag_28:\n    /* \"#utility.yul\":932:1051   */\ntag_27:\n    /* \"#utility.yul\":1090:1091   */\n  0x00\n    /* \"#utility.yul\":1115:1179   */\n  tag_29\n    /* \"#utility.yul\":1171:1178   */\n  dup5\n    /* \"#utility.yul\":1162:1168   */\n  dup3\n    /* \"#utility.yul\":1151:1160   */\n  dup6\n    /* \"#utility.yul\":1147:1169   */\n  add\n    /* \"#utility.yul\":1115:1179   */\n  tag_13\n  jump\t// in\ntag_29:\n    /* \"#utility.yul\":1105:1179   */\n  swap2\n  pop\n    /* \"#utility.yul\":1061:1189   */\n  pop\n    /* \"#utility.yul\":845:1196   */\n  swap3\n  swap2\n  pop\n  pop\n  jump\t// out\n    /* \"@course/meta-node/solidity/mine/solidity_lesson/study_code/2.1\\xe6\\x95\\xb0\\xe6\\x8d\\xae\\xe7\\xb1\\xbb\\xe5\\x9e\\x8b\\xe5\\x9f\\xba\\xe7\\xa1\\x80/AddressType.sol\":1453:1843  contract SenderVsOriginExample {... */\ntag_6:\n  mload(0x80)\n  codecopy(0x00, dataOffset(sub_0), dataSize(sub_0))\n  0x00\n  assignImmutable(\"0xf3e73e27cf4cda7ebc973aa432f8a54a97200c0745d43e1bc9c2879ffe79cc53\")\n  return(0x00, dataSize(sub_0))\nstop\n\nsub_0: assembly {\n        /* \"@course/meta-node/solidity/mine/solidity_lesson/study_code/2.1\\xe6\\x95\\xb0\\xe6\\x8d\\xae\\xe7\\xb1\\xbb\\xe5\\x9e\\x8b\\xe5\\x9f\\xba\\xe7\\xa1\\x80/AddressType.sol\":1453:1843  contract SenderVsOriginExample {... */\n      mstore(0x40, 0x80)\n      callvalue\n      dup1\n      iszero\n      tag_1\n      jumpi\n      revert(0x00, 0x00)\n    tag_1:\n      pop\n      jumpi(tag_2, lt(calldatasize, 0x04))\n      shr(0xe0, calldataload(0x00))\n      dup1\n      0xa7ecd0ad\n      eq\n      tag_3\n      jumpi\n    tag_2:\n      revert(0x00, 0x00)\n        /* \"@course/meta-node/solidity/mine/solidity_lesson/study_code/2.1\\xe6\\x95\\xb0\\xe6\\x8d\\xae\\xe7\\xb1\\xbb\\xe5\\x9e\\x8b\\xe5\\x9f\\xba\\xe7\\xa1\\x80/AddressType.sol\":1626:1841  function getSpecialAddresses()... */\n    tag_3:\n      tag_4\n      tag_5\n      jump\t// in\n    tag_4:\n      mload(0x40)\n      tag_6\n      swap4\n      swap3\n      swap2\n      swap1\n      tag_7\n      jump\t// in\n    tag_6:\n      mload(0x40)\n      dup1\n      swap2\n      sub\n      swap1\n      return\n    tag_5:\n        /* \"@course/meta-node/solidity/mine/solidity_lesson/study_code/2.1\\xe6\\x95\\xb0\\xe6\\x8d\\xae\\xe7\\xb1\\xbb\\xe5\\x9e\\x8b\\xe5\\x9f\\xba\\xe7\\xa1\\x80/AddressType.sol\":1702:1709  address */\n      0x00\n        /* \"@course/meta-node/solidity/mine/solidity_lesson/study_code/2.1\\xe6\\x95\\xb0\\xe6\\x8d\\xae\\xe7\\xb1\\xbb\\xe5\\x9e\\x8b\\xe5\\x9f\\xba\\xe7\\xa1\\x80/AddressType.sol\":1711:1718  address */\n      0x00\n        /* \"@course/meta-node/solidity/mine/solidity_lesson/study_code/2.1\\xe6\\x95\\xb0\\xe6\\x8d\\xae\\xe7\\xb1\\xbb\\xe5\\x9e\\x8b\\xe5\\x9f\\xba\\xe7\\xa1\\x80/AddressType.sol\":1720:1727  address */\n      0x00\n        /* \"@course/meta-node/solidity/mine/solidity_lesson/study_code/2.1\\xe6\\x95\\xb0\\xe6\\x8d\\xae\\xe7\\xb1\\xbb\\xe5\\x9e\\x8b\\xe5\\x9f\\xba\\xe7\\xa1\\x80/AddressType.sol\":1775:1776  0 */\n      0x00\n        /* \"@course/meta-node/solidity/mine/solidity_lesson/study_code/2.1\\xe6\\x95\\xb0\\xe6\\x8d\\xae\\xe7\\xb1\\xbb\\xe5\\x9e\\x8b\\xe5\\x9f\\xba\\xe7\\xa1\\x80/AddressType.sol\":1751:1777  address(sub) != address(0) */\n      0xffffffffffffffffffffffffffffffffffffffff\n      and\n        /* \"@course/meta-node/solidity/mine/solidity_lesson/study_code/2.1\\xe6\\x95\\xb0\\xe6\\x8d\\xae\\xe7\\xb1\\xbb\\xe5\\x9e\\x8b\\xe5\\x9f\\xba\\xe7\\xa1\\x80/AddressType.sol\":1759:1762  sub */\n      immutable(\"0xf3e73e27cf4cda7ebc973aa432f8a54a97200c0745d43e1bc9c2879ffe79cc53\")\n        /* \"@course/meta-node/solidity/mine/solidity_lesson/study_code/2.1\\xe6\\x95\\xb0\\xe6\\x8d\\xae\\xe7\\xb1\\xbb\\xe5\\x9e\\x8b\\xe5\\x9f\\xba\\xe7\\xa1\\x80/AddressType.sol\":1751:1777  address(sub) != address(0) */\n      0xffffffffffffffffffffffffffffffffffffffff\n      and\n      sub\n        /* \"@course/meta-node/solidity/mine/solidity_lesson/study_code/2.1\\xe6\\x95\\xb0\\xe6\\x8d\\xae\\xe7\\xb1\\xbb\\xe5\\x9e\\x8b\\xe5\\x9f\\xba\\xe7\\xa1\\x80/AddressType.sol\":1743:1792  require(address(sub) != address(0), \"empty sub!\") */\n      tag_9\n      jumpi\n      mload(0x40)\n      0x08c379a000000000000000000000000000000000000000000000000000000000\n      dup2\n      mstore\n      0x04\n      add\n      tag_10\n      swap1\n      tag_11\n      jump\t// in\n    tag_10:\n      mload(0x40)\n      dup1\n      swap2\n      sub\n      swap1\n      revert\n    tag_9:\n        /* \"@course/meta-node/solidity/mine/solidity_lesson/study_code/2.1\\xe6\\x95\\xb0\\xe6\\x8d\\xae\\xe7\\xb1\\xbb\\xe5\\x9e\\x8b\\xe5\\x9f\\xba\\xe7\\xa1\\x80/AddressType.sol\":1809:1812  sub */\n      immutable(\"0xf3e73e27cf4cda7ebc973aa432f8a54a97200c0745d43e1bc9c2879ffe79cc53\")\n        /* \"@course/meta-node/solidity/mine/solidity_lesson/study_code/2.1\\xe6\\x95\\xb0\\xe6\\x8d\\xae\\xe7\\xb1\\xbb\\xe5\\x9e\\x8b\\xe5\\x9f\\xba\\xe7\\xa1\\x80/AddressType.sol\":1809:1832  sub.getSpecialAddresses */\n      0xffffffffffffffffffffffffffffffffffffffff\n      and\n      0xa7ecd0ad\n        /* \"@course/meta-node/solidity/mine/solidity_lesson/study_code/2.1\\xe6\\x95\\xb0\\xe6\\x8d\\xae\\xe7\\xb1\\xbb\\xe5\\x9e\\x8b\\xe5\\x9f\\xba\\xe7\\xa1\\x80/AddressType.sol\":1809:1834  sub.getSpecialAddresses() */\n      mload(0x40)\n      dup2\n      0xffffffff\n      and\n      0xe0\n      shl\n      dup2\n      mstore\n      0x04\n      add\n      0x60\n      mload(0x40)\n      dup1\n      dup4\n      sub\n      dup2\n      dup7\n      gas\n      staticcall\n      iszero\n      dup1\n      iszero\n      tag_13\n      jumpi\n      returndatacopy(0x00, 0x00, returndatasize)\n      revert(0x00, returndatasize)\n    tag_13:\n      pop\n      pop\n      pop\n      pop\n      mload(0x40)\n      returndatasize\n      not(0x1f)\n      0x1f\n      dup3\n      add\n      and\n      dup3\n      add\n      dup1\n      0x40\n      mstore\n      pop\n      dup2\n      add\n      swap1\n      tag_14\n      swap2\n      swap1\n      tag_15\n      jump\t// in\n    tag_14:\n        /* \"@course/meta-node/solidity/mine/solidity_lesson/study_code/2.1\\xe6\\x95\\xb0\\xe6\\x8d\\xae\\xe7\\xb1\\xbb\\xe5\\x9e\\x8b\\xe5\\x9f\\xba\\xe7\\xa1\\x80/AddressType.sol\":1802:1834  return sub.getSpecialAddresses() */\n      swap3\n      pop\n      swap3\n      pop\n      swap3\n      pop\n        /* \"@course/meta-node/solidity/mine/solidity_lesson/study_code/2.1\\xe6\\x95\\xb0\\xe6\\x8d\\xae\\xe7\\xb1\\xbb\\xe5\\x9e\\x8b\\xe5\\x9f\\xba\\xe7\\xa1\\x80/AddressType.sol\":1626:1841  function getSpecialAddresses()... */\n      swap1\n      swap2\n      swap3\n      jump\t// out\n        /* \"#utility.yul\":7:133   */\n    tag_16:\n        /* \"#utility.yul\":44:51   */\n      0x00\n        /* \"#utility.yul\":84:126   */\n      0xffffffffffffffffffffffffffffffffffffffff\n        /* \"#utility.yul\":77:82   */\n      dup3\n        /* \"#utility.yul\":73:127   */\n      and\n        /* \"#utility.yul\":62:127   */\n      swap1\n      pop\n        /* \"#utility.yul\":7:133   */\n      swap2\n      swap1\n      pop\n      jump\t// out\n        /* \"#utility.yul\":139:235   */\n    tag_17:\n        /* \"#utility.yul\":176:183   */\n      0x00\n        /* \"#utility.yul\":205:229   */\n      tag_30\n        /* \"#utility.yul\":223:228   */\n      dup3\n        /* \"#utility.yul\":205:229   */\n      tag_16\n      jump\t// in\n    tag_30:\n        /* \"#utility.yul\":194:229   */\n      swap1\n      pop\n        /* \"#utility.yul\":139:235   */\n      swap2\n      swap1\n      pop\n      jump\t// out\n        /* \"#utility.yul\":241:359   */\n    tag_18:\n        /* \"#utility.yul\":328:352   */\n      tag_32\n        /* \"#utility.yul\":346:351   */\n      dup2\n        /* \"#utility.yul\":328:352   */\n      tag_17\n      jump\t// in\n    tag_32:\n        /* \"#utility.yul\":323:326   */\n      dup3\n        /* \"#utility.yul\":316:353   */\n      mstore\n        /* \"#utility.yul\":241:359   */\n      pop\n      pop\n      jump\t// out\n        /* \"#utility.yul\":365:807   */\n    tag_7:\n        /* \"#utility.yul\":514:518   */\n      0x00\n        /* \"#utility.yul\":552:554   */\n      0x60\n        /* \"#utility.yul\":541:550   */\n      dup3\n        /* \"#utility.yul\":537:555   */\n      add\n        /* \"#utility.yul\":529:555   */\n      swap1\n      pop\n        /* \"#utility.yul\":565:636   */\n      tag_34\n        /* \"#utility.yul\":633:634   */\n      0x00\n        /* \"#utility.yul\":622:631   */\n      dup4\n        /* \"#utility.yul\":618:635   */\n      add\n        /* \"#utility.yul\":609:615   */\n      dup7\n        /* \"#utility.yul\":565:636   */\n      tag_18\n      jump\t// in\n    tag_34:\n        /* \"#utility.yul\":646:718   */\n      tag_35\n        /* \"#utility.yul\":714:716   */\n      0x20\n        /* \"#utility.yul\":703:712   */\n      dup4\n        /* \"#utility.yul\":699:717   */\n      add\n        /* \"#utility.yul\":690:696   */\n      dup6\n        /* \"#utility.yul\":646:718   */\n      tag_18\n      jump\t// in\n    tag_35:\n        /* \"#utility.yul\":728:800   */\n      tag_36\n        /* \"#utility.yul\":796:798   */\n      0x40\n        /* \"#utility.yul\":785:794   */\n      dup4\n        /* \"#utility.yul\":781:799   */\n      add\n        /* \"#utility.yul\":772:778   */\n      dup5\n        /* \"#utility.yul\":728:800   */\n      tag_18\n      jump\t// in\n    tag_36:\n        /* \"#utility.yul\":365:807   */\n      swap5\n      swap4\n      pop\n      pop\n      pop\n      pop\n      jump\t// out\n        /* \"#utility.yul\":813:982   */\n    tag_19:\n        /* \"#utility.yul\":897:908   */\n      0x00\n        /* \"#utility.yul\":931:937   */\n      dup3\n        /* \"#utility.yul\":926:929   */\n      dup3\n        /* \"#utility.yul\":919:938   */\n      mstore\n        /* \"#utility.yul\":971:975   */\n      0x20\n        /* \"#utility.yul\":966:969   */\n      dup3\n        /* \"#utility.yul\":962:976   */\n      add\n        /* \"#utility.yul\":947:976   */\n      swap1\n      pop\n        /* \"#utility.yul\":813:982   */\n      swap3\n      swap2\n      pop\n      pop\n      jump\t// out\n        /* \"#utility.yul\":988:1148   */\n    tag_20:\n        /* \"#utility.yul\":1128:1140   */\n      0x656d707479207375622100000000000000000000000000000000000000000000\n        /* \"#utility.yul\":1124:1125   */\n      0x00\n        /* \"#utility.yul\":1116:1122   */\n      dup3\n        /* \"#utility.yul\":1112:1126   */\n      add\n        /* \"#utility.yul\":1105:1141   */\n      mstore\n        /* \"#utility.yul\":988:1148   */\n      pop\n      jump\t// out\n        /* \"#utility.yul\":1154:1520   */\n    tag_21:\n        /* \"#utility.yul\":1296:1299   */\n      0x00\n        /* \"#utility.yul\":1317:1384   */\n      tag_40\n        /* \"#utility.yul\":1381:1383   */\n      0x0a\n        /* \"#utility.yul\":1376:1379   */\n      dup4\n        /* \"#utility.yul\":1317:1384   */\n      tag_19\n      jump\t// in\n    tag_40:\n        /* \"#utility.yul\":1310:1384   */\n      swap2\n      pop\n        /* \"#utility.yul\":1393:1486   */\n      tag_41\n        /* \"#utility.yul\":1482:1485   */\n      dup3\n        /* \"#utility.yul\":1393:1486   */\n      tag_20\n      jump\t// in\n    tag_41:\n        /* \"#utility.yul\":1511:1513   */\n      0x20\n        /* \"#utility.yul\":1506:1509   */\n      dup3\n        /* \"#utility.yul\":1502:1514   */\n      add\n        /* \"#utility.yul\":1495:1514   */\n      swap1\n      pop\n        /* \"#utility.yul\":1154:1520   */\n      swap2\n      swap1\n      pop\n      jump\t// out\n        /* \"#utility.yul\":1526:1945   */\n    tag_11:\n        /* \"#utility.yul\":1692:1696   */\n      0x00\n        /* \"#utility.yul\":1730:1732   */\n      0x20\n        /* \"#utility.yul\":1719:1728   */\n      dup3\n        /* \"#utility.yul\":1715:1733   */\n      add\n        /* \"#utility.yul\":1707:1733   */\n      swap1\n      pop\n        /* \"#utility.yul\":1779:1788   */\n      dup2\n        /* \"#utility.yul\":1773:1777   */\n      dup2\n        /* \"#utility.yul\":1769:1789   */\n      sub\n        /* \"#utility.yul\":1765:1766   */\n      0x00\n        /* \"#utility.yul\":1754:1763   */\n      dup4\n        /* \"#utility.yul\":1750:1767   */\n      add\n        /* \"#utility.yul\":1743:1790   */\n      mstore\n        /* \"#utility.yul\":1807:1938   */\n      tag_43\n        /* \"#utility.yul\":1933:1937   */\n      dup2\n        /* \"#utility.yul\":1807:1938   */\n      tag_21\n      jump\t// in\n    tag_43:\n        /* \"#utility.yul\":1799:1938   */\n      swap1\n      pop\n        /* \"#utility.yul\":1526:1945   */\n      swap2\n      swap1\n      pop\n      jump\t// out\n        /* \"#utility.yul\":2032:2149   */\n    tag_23:\n        /* \"#utility.yul\":2141:2142   */\n      0x00\n        /* \"#utility.yul\":2138:2139   */\n      0x00\n        /* \"#utility.yul\":2131:2143   */\n      revert\n        /* \"#utility.yul\":2278:2400   */\n    tag_25:\n        /* \"#utility.yul\":2351:2375   */\n      tag_48\n        /* \"#utility.yul\":2369:2374   */\n      dup2\n        /* \"#utility.yul\":2351:2375   */\n      tag_17\n      jump\t// in\n    tag_48:\n        /* \"#utility.yul\":2344:2349   */\n      dup2\n        /* \"#utility.yul\":2341:2376   */\n      eq\n        /* \"#utility.yul\":2331:2394   */\n      tag_49\n      jumpi\n        /* \"#utility.yul\":2390:2391   */\n      0x00\n        /* \"#utility.yul\":2387:2388   */\n      0x00\n        /* \"#utility.yul\":2380:2392   */\n      revert\n        /* \"#utility.yul\":2331:2394   */\n    tag_49:\n        /* \"#utility.yul\":2278:2400   */\n      pop\n      jump\t// out\n        /* \"#utility.yul\":2406:2549   */\n    tag_26:\n        /* \"#utility.yul\":2463:2468   */\n      0x00\n        /* \"#utility.yul\":2494:2500   */\n      dup2\n        /* \"#utility.yul\":2488:2501   */\n      mload\n        /* \"#utility.yul\":2479:2501   */\n      swap1\n      pop\n        /* \"#utility.yul\":2510:2543   */\n      tag_51\n        /* \"#utility.yul\":2537:2542   */\n      dup2\n        /* \"#utility.yul\":2510:2543   */\n      tag_25\n      jump\t// in\n    tag_51:\n        /* \"#utility.yul\":2406:2549   */\n      swap3\n      swap2\n      pop\n      pop\n      jump\t// out\n        /* \"#utility.yul\":2555:3218   */\n    tag_15:\n        /* \"#utility.yul\":2643:2649   */\n      0x00\n        /* \"#utility.yul\":2651:2657   */\n      0x00\n        /* \"#utility.yul\":2659:2665   */\n      0x00\n        /* \"#utility.yul\":2708:2710   */\n      0x60\n        /* \"#utility.yul\":2696:2705   */\n      dup5\n        /* \"#utility.yul\":2687:2694   */\n      dup7\n        /* \"#utility.yul\":2683:2706   */\n      sub\n        /* \"#utility.yul\":2679:2711   */\n      slt\n        /* \"#utility.yul\":2676:2795   */\n      iszero\n      tag_53\n      jumpi\n        /* \"#utility.yul\":2714:2793   */\n      tag_54\n      tag_23\n      jump\t// in\n    tag_54:\n        /* \"#utility.yul\":2676:2795   */\n    tag_53:\n        /* \"#utility.yul\":2834:2835   */\n      0x00\n        /* \"#utility.yul\":2859:2923   */\n      tag_55\n        /* \"#utility.yul\":2915:2922   */\n      dup7\n        /* \"#utility.yul\":2906:2912   */\n      dup3\n        /* \"#utility.yul\":2895:2904   */\n      dup8\n        /* \"#utility.yul\":2891:2913   */\n      add\n        /* \"#utility.yul\":2859:2923   */\n      tag_26\n      jump\t// in\n    tag_55:\n        /* \"#utility.yul\":2849:2923   */\n      swap4\n      pop\n        /* \"#utility.yul\":2805:2933   */\n      pop\n        /* \"#utility.yul\":2972:2974   */\n      0x20\n        /* \"#utility.yul\":2998:3062   */\n      tag_56\n        /* \"#utility.yul\":3054:3061   */\n      dup7\n        /* \"#utility.yul\":3045:3051   */\n      dup3\n        /* \"#utility.yul\":3034:3043   */\n      dup8\n        /* \"#utility.yul\":3030:3052   */\n      add\n        /* \"#utility.yul\":2998:3062   */\n      tag_26\n      jump\t// in\n    tag_56:\n        /* \"#utility.yul\":2988:3062   */\n      swap3\n      pop\n        /* \"#utility.yul\":2943:3072   */\n      pop\n        /* \"#utility.yul\":3111:3113   */\n      0x40\n        /* \"#utility.yul\":3137:3201   */\n      tag_57\n        /* \"#utility.yul\":3193:3200   */\n      dup7\n        /* \"#utility.yul\":3184:3190   */\n      dup3\n        /* \"#utility.yul\":3173:3182   */\n      dup8\n        /* \"#utility.yul\":3169:3191   */\n      add\n        /* \"#utility.yul\":3137:3201   */\n      tag_26\n      jump\t// in\n    tag_57:\n        /* \"#utility.yul\":3127:3201   */\n      swap2\n      pop\n        /* \"#utility.yul\":3082:3211   */\n      pop\n        /* \"#utility.yul\":2555:3218   */\n      swap3\n      pop\n      swap3\n      pop\n      swap3\n      jump\t// out\n\n    auxdata: 0xa2646970667358221220bbf3a4b6da45129e6945d84b2e70803debbbe1044da2565ae8c0f37e3ff2345d64736f6c634300081e0033\n}\n",
				"bytecode": {
					"linkReferences": {},
					"object": "60a060405234801561000f575f5ffd5b50604051610427380380610427833981810160405281019061003191906100c9565b8073ffffffffffffffffffffffffffffffffffffffff1660808173ffffffffffffffffffffffffffffffffffffffff1681525050506100f4565b5f5ffd5b5f73ffffffffffffffffffffffffffffffffffffffff82169050919050565b5f6100988261006f565b9050919050565b6100a88161008e565b81146100b2575f5ffd5b50565b5f815190506100c38161009f565b92915050565b5f602082840312156100de576100dd61006b565b5b5f6100eb848285016100b5565b91505092915050565b6080516103166101115f395f81816069015260e001526103165ff3fe608060405234801561000f575f5ffd5b5060043610610029575f3560e01c8063a7ecd0ad1461002d575b5f5ffd5b61003561004d565b604051610044939291906101b5565b60405180910390f35b5f5f5f5f73ffffffffffffffffffffffffffffffffffffffff167f000000000000000000000000000000000000000000000000000000000000000073ffffffffffffffffffffffffffffffffffffffff16036100de576040517f08c379a00000000000000000000000000000000000000000000000000000000081526004016100d590610244565b60405180910390fd5b7f000000000000000000000000000000000000000000000000000000000000000073ffffffffffffffffffffffffffffffffffffffff1663a7ecd0ad6040518163ffffffff1660e01b8152600401606060405180830381865afa158015610147573d5f5f3e3d5ffd5b505050506040513d601f19601f8201168201806040525081019061016b9190610290565b925092509250909192565b5f73ffffffffffffffffffffffffffffffffffffffff82169050919050565b5f61019f82610176565b9050919050565b6101af81610195565b82525050565b5f6060820190506101c85f8301866101a6565b6101d560208301856101a6565b6101e260408301846101a6565b949350505050565b5f82825260208201905092915050565b7f656d7074792073756221000000000000000000000000000000000000000000005f82015250565b5f61022e600a836101ea565b9150610239826101fa565b602082019050919050565b5f6020820190508181035f83015261025b81610222565b9050919050565b5f5ffd5b61026f81610195565b8114610279575f5ffd5b50565b5f8151905061028a81610266565b92915050565b5f5f5f606084860312156102a7576102a6610262565b5b5f6102b48682870161027c565b93505060206102c58682870161027c565b92505060406102d68682870161027c565b915050925092509256fea2646970667358221220bbf3a4b6da45129e6945d84b2e70803debbbe1044da2565ae8c0f37e3ff2345d64736f6c634300081e0033",
					"opcodes": "PUSH1 0xA0 PUSH1 0x40 MSTORE CALLVALUE DUP1 ISZERO PUSH2 0xF JUMPI PUSH0 PUSH0 REVERT JUMPDEST POP PUSH1 0x40 MLOAD PUSH2 0x427 CODESIZE SUB DUP1 PUSH2 0x427 DUP4 CODECOPY DUP2 DUP2 ADD PUSH1 0x40 MSTORE DUP2 ADD SWAP1 PUSH2 0x31 SWAP2 SWAP1 PUSH2 0xC9 JUMP JUMPDEST DUP1 PUSH20 0xFFFFFFFFFFFFFFFFFFFFFFFFFFFFFFFFFFFFFFFF AND PUSH1 0x80 DUP2 PUSH20 0xFFFFFFFFFFFFFFFFFFFFFFFFFFFFFFFFFFFFFFFF AND DUP2 MSTORE POP POP POP PUSH2 0xF4 JUMP JUMPDEST PUSH0 PUSH0 REVERT JUMPDEST PUSH0 PUSH20 0xFFFFFFFFFFFFFFFFFFFFFFFFFFFFFFFFFFFFFFFF DUP3 AND SWAP1 POP SWAP2 SWAP1 POP JUMP JUMPDEST PUSH0 PUSH2 0x98 DUP3 PUSH2 0x6F JUMP JUMPDEST SWAP1 POP SWAP2 SWAP1 POP JUMP JUMPDEST PUSH2 0xA8 DUP2 PUSH2 0x8E JUMP JUMPDEST DUP2 EQ PUSH2 0xB2 JUMPI PUSH0 PUSH0 REVERT JUMPDEST POP JUMP JUMPDEST PUSH0 DUP2 MLOAD SWAP1 POP PUSH2 0xC3 DUP2 PUSH2 0x9F JUMP JUMPDEST SWAP3 SWAP2 POP POP JUMP JUMPDEST PUSH0 PUSH1 0x20 DUP3 DUP5 SUB SLT ISZERO PUSH2 0xDE JUMPI PUSH2 0xDD PUSH2 0x6B JUMP JUMPDEST JUMPDEST PUSH0 PUSH2 0xEB DUP5 DUP3 DUP6 ADD PUSH2 0xB5 JUMP JUMPDEST SWAP2 POP POP SWAP3 SWAP2 POP POP JUMP JUMPDEST PUSH1 0x80 MLOAD PUSH2 0x316 PUSH2 0x111 PUSH0 CODECOPY PUSH0 DUP2 DUP2 PUSH1 0x69 ADD MSTORE PUSH1 0xE0 ADD MSTORE PUSH2 0x316 PUSH0 RETURN INVALID PUSH1 0x80 PUSH1 0x40 MSTORE CALLVALUE DUP1 ISZERO PUSH2 0xF JUMPI PUSH0 PUSH0 REVERT JUMPDEST POP PUSH1 0x4 CALLDATASIZE LT PUSH2 0x29 JUMPI PUSH0 CALLDATALOAD PUSH1 0xE0 SHR DUP1 PUSH4 0xA7ECD0AD EQ PUSH2 0x2D JUMPI JUMPDEST PUSH0 PUSH0 REVERT JUMPDEST PUSH2 0x35 PUSH2 0x4D JUMP JUMPDEST PUSH1 0x40 MLOAD PUSH2 0x44 SWAP4 SWAP3 SWAP2 SWAP1 PUSH2 0x1B5 JUMP JUMPDEST PUSH1 0x40 MLOAD DUP1 SWAP2 SUB SWAP1 RETURN JUMPDEST PUSH0 PUSH0 PUSH0 PUSH0 PUSH20 0xFFFFFFFFFFFFFFFFFFFFFFFFFFFFFFFFFFFFFFFF AND PUSH32 0x0 PUSH20 0xFFFFFFFFFFFFFFFFFFFFFFFFFFFFFFFFFFFFFFFF AND SUB PUSH2 0xDE JUMPI PUSH1 0x40 MLOAD PUSH32 0x8C379A000000000000000000000000000000000000000000000000000000000 DUP2 MSTORE PUSH1 0x4 ADD PUSH2 0xD5 SWAP1 PUSH2 0x244 JUMP JUMPDEST PUSH1 0x40 MLOAD DUP1 SWAP2 SUB SWAP1 REVERT JUMPDEST PUSH32 0x0 PUSH20 0xFFFFFFFFFFFFFFFFFFFFFFFFFFFFFFFFFFFFFFFF AND PUSH4 0xA7ECD0AD PUSH1 0x40 MLOAD DUP2 PUSH4 0xFFFFFFFF AND PUSH1 0xE0 SHL DUP2 MSTORE PUSH1 0x4 ADD PUSH1 0x60 PUSH1 0x40 MLOAD DUP1 DUP4 SUB DUP2 DUP7 GAS STATICCALL ISZERO DUP1 ISZERO PUSH2 0x147 JUMPI RETURNDATASIZE PUSH0 PUSH0 RETURNDATACOPY RETURNDATASIZE PUSH0 REVERT JUMPDEST POP POP POP POP PUSH1 0x40 MLOAD RETURNDATASIZE PUSH1 0x1F NOT PUSH1 0x1F DUP3 ADD AND DUP3 ADD DUP1 PUSH1 0x40 MSTORE POP DUP2 ADD SWAP1 PUSH2 0x16B SWAP2 SWAP1 PUSH2 0x290 JUMP JUMPDEST SWAP3 POP SWAP3 POP SWAP3 POP SWAP1 SWAP2 SWAP3 JUMP JUMPDEST PUSH0 PUSH20 0xFFFFFFFFFFFFFFFFFFFFFFFFFFFFFFFFFFFFFFFF DUP3 AND SWAP1 POP SWAP2 SWAP1 POP JUMP JUMPDEST PUSH0 PUSH2 0x19F DUP3 PUSH2 0x176 JUMP JUMPDEST SWAP1 POP SWAP2 SWAP1 POP JUMP JUMPDEST PUSH2 0x1AF DUP2 PUSH2 0x195 JUMP JUMPDEST DUP3 MSTORE POP POP JUMP JUMPDEST PUSH0 PUSH1 0x60 DUP3 ADD SWAP1 POP PUSH2 0x1C8 PUSH0 DUP4 ADD DUP7 PUSH2 0x1A6 JUMP JUMPDEST PUSH2 0x1D5 PUSH1 0x20 DUP4 ADD DUP6 PUSH2 0x1A6 JUMP JUMPDEST PUSH2 0x1E2 PUSH1 0x40 DUP4 ADD DUP5 PUSH2 0x1A6 JUMP JUMPDEST SWAP5 SWAP4 POP POP POP POP JUMP JUMPDEST PUSH0 DUP3 DUP3 MSTORE PUSH1 0x20 DUP3 ADD SWAP1 POP SWAP3 SWAP2 POP POP JUMP JUMPDEST PUSH32 0x656D707479207375622100000000000000000000000000000000000000000000 PUSH0 DUP3 ADD MSTORE POP JUMP JUMPDEST PUSH0 PUSH2 0x22E PUSH1 0xA DUP4 PUSH2 0x1EA JUMP JUMPDEST SWAP2 POP PUSH2 0x239 DUP3 PUSH2 0x1FA JUMP JUMPDEST PUSH1 0x20 DUP3 ADD SWAP1 POP SWAP2 SWAP1 POP JUMP JUMPDEST PUSH0 PUSH1 0x20 DUP3 ADD SWAP1 POP DUP2 DUP2 SUB PUSH0 DUP4 ADD MSTORE PUSH2 0x25B DUP2 PUSH2 0x222 JUMP JUMPDEST SWAP1 POP SWAP2 SWAP1 POP JUMP JUMPDEST PUSH0 PUSH0 REVERT JUMPDEST PUSH2 0x26F DUP2 PUSH2 0x195 JUMP JUMPDEST DUP2 EQ PUSH2 0x279 JUMPI PUSH0 PUSH0 REVERT JUMPDEST POP JUMP JUMPDEST PUSH0 DUP2 MLOAD SWAP1 POP PUSH2 0x28A DUP2 PUSH2 0x266 JUMP JUMPDEST SWAP3 SWAP2 POP POP JUMP JUMPDEST PUSH0 PUSH0 PUSH0 PUSH1 0x60 DUP5 DUP7 SUB SLT ISZERO PUSH2 0x2A7 JUMPI PUSH2 0x2A6 PUSH2 0x262 JUMP JUMPDEST JUMPDEST PUSH0 PUSH2 0x2B4 DUP7 DUP3 DUP8 ADD PUSH2 0x27C JUMP JUMPDEST SWAP4 POP POP PUSH1 0x20 PUSH2 0x2C5 DUP7 DUP3 DUP8 ADD PUSH2 0x27C JUMP JUMPDEST SWAP3 POP POP PUSH1 0x40 PUSH2 0x2D6 DUP7 DUP3 DUP8 ADD PUSH2 0x27C JUMP JUMPDEST SWAP2 POP POP SWAP3 POP SWAP3 POP SWAP3 JUMP INVALID LOG2 PUSH5 0x6970667358 0x22 SLT KECCAK256 0xBB RETURN LOG4 0xB6 0xDA GASLIMIT SLT SWAP15 PUSH10 0x45D84B2E70803DEBBBE1 DIV 0x4D LOG2 JUMP GAS 0xE8 0xC0 RETURN PUSH31 0x3FF2345D64736F6C634300081E003300000000000000000000000000000000 "
				},
				"gasEstimates": {
					"creation": {
						"codeDepositCost": "158000",
						"executionCost": "infinite",
						"totalCost": "infinite"
					},
					"external": {
						"getSpecialAddresses()": "infinite"
					}
				},
				"methodIdentifiers": {
					"getSpecialAddresses()": "a7ecd0ad"
				}
			},
			"storageLayout": {
				"storage": [],
				"types": null
			},
			"userdoc": {
				"kind": "user",
				"methods": {},
				"version": 1
			}
		}
	}
}