{
	"@course/meta-node/solidity/mine/solidity_lesson/study_code/2.1数据类型基础/ValuesTypes.sol": {
		"GasComparison": {
			"abi": [
				{
					"inputs": [],
					"name": "value128",
					"outputs": [
						{
							"internalType": "uint128",
							"name": "",
							"type": "uint128"
						}
					],
					"stateMutability": "view",
					"type": "function"
				},
				{
					"inputs": [],
					"name": "value256",
					"outputs": [
						{
							"internalType": "uint256",
							"name": "",
							"type": "uint256"
						}
					],
					"stateMutability": "view",
					"type": "function"
				},
				{
					"inputs": [],
					"name": "value8",
					"outputs": [
						{
							"internalType": "uint8",
							"name": "",
							"type": "uint8"
						}
					],
					"stateMutability": "view",
					"type": "function"
				}
			],
			"devdoc": {
				"kind": "dev",
				"methods": {},
				"version": 1
			},
			"evm": {
				"assembly": "    /* \"@course/meta-node/solidity/mine/solidity_lesson/study_code/2.1\\xe6\\x95\\xb0\\xe6\\x8d\\xae\\xe7\\xb1\\xbb\\xe5\\x9e\\x8b\\xe5\\x9f\\xba\\xe7\\xa1\\x80/ValuesTypes.sol\":1369:1561  contract GasComparison {... */\n  mstore(0x40, 0x80)\n  callvalue\n  dup1\n  iszero\n  tag_1\n  jumpi\n  revert(0x00, 0x00)\ntag_1:\n  pop\n  dataSize(sub_0)\n  dup1\n  dataOffset(sub_0)\n  0x00\n  codecopy\n  0x00\n  return\nstop\n\nsub_0: assembly {\n        /* \"@course/meta-node/solidity/mine/solidity_lesson/study_code/2.1\\xe6\\x95\\xb0\\xe6\\x8d\\xae\\xe7\\xb1\\xbb\\xe5\\x9e\\x8b\\xe5\\x9f\\xba\\xe7\\xa1\\x80/ValuesTypes.sol\":1369:1561  contract GasComparison {... */\n      mstore(0x40, 0x80)\n      callvalue\n      dup1\n      iszero\n      tag_1\n      jumpi\n      revert(0x00, 0x00)\n    tag_1:\n      pop\n      jumpi(tag_2, lt(calldatasize, 0x04))\n      shr(0xe0, calldataload(0x00))\n      dup1\n      0x0e6433d1\n      eq\n      tag_3\n      jumpi\n      dup1\n      0x2d61bb42\n      eq\n      tag_4\n      jumpi\n      dup1\n      0x44e63c1a\n      eq\n      tag_5\n      jumpi\n    tag_2:\n      revert(0x00, 0x00)\n        /* \"@course/meta-node/solidity/mine/solidity_lesson/study_code/2.1\\xe6\\x95\\xb0\\xe6\\x8d\\xae\\xe7\\xb1\\xbb\\xe5\\x9e\\x8b\\xe5\\x9f\\xba\\xe7\\xa1\\x80/ValuesTypes.sol\":1505:1524  uint8 public value8 */\n    tag_3:\n      tag_6\n      tag_7\n      jump\t// in\n    tag_6:\n      mload(0x40)\n      tag_8\n      swap2\n      swap1\n      tag_9\n      jump\t// in\n    tag_8:\n      mload(0x40)\n      dup1\n      swap2\n      sub\n      swap1\n      return\n        /* \"@course/meta-node/solidity/mine/solidity_lesson/study_code/2.1\\xe6\\x95\\xb0\\xe6\\x8d\\xae\\xe7\\xb1\\xbb\\xe5\\x9e\\x8b\\xe5\\x9f\\xba\\xe7\\xa1\\x80/ValuesTypes.sol\":1399:1422  uint256 public value256 */\n    tag_4:\n      tag_10\n      tag_11\n      jump\t// in\n    tag_10:\n      mload(0x40)\n      tag_12\n      swap2\n      swap1\n      tag_13\n      jump\t// in\n    tag_12:\n      mload(0x40)\n      dup1\n      swap2\n      sub\n      swap1\n      return\n        /* \"@course/meta-node/solidity/mine/solidity_lesson/study_code/2.1\\xe6\\x95\\xb0\\xe6\\x8d\\xae\\xe7\\xb1\\xbb\\xe5\\x9e\\x8b\\xe5\\x9f\\xba\\xe7\\xa1\\x80/ValuesTypes.sol\":1446:1469  uint128 public value128 */\n    tag_5:\n      tag_14\n      tag_15\n      jump\t// in\n    tag_14:\n      mload(0x40)\n      tag_16\n      swap2\n      swap1\n      tag_17\n      jump\t// in\n    tag_16:\n      mload(0x40)\n      dup1\n      swap2\n      sub\n      swap1\n      return\n        /* \"@course/meta-node/solidity/mine/solidity_lesson/study_code/2.1\\xe6\\x95\\xb0\\xe6\\x8d\\xae\\xe7\\xb1\\xbb\\xe5\\x9e\\x8b\\xe5\\x9f\\xba\\xe7\\xa1\\x80/ValuesTypes.sol\":1505:1524  uint8 public value8 */\n    tag_7:\n      0x01\n      0x10\n      swap1\n      sload\n      swap1\n      0x0100\n      exp\n      swap1\n      div\n      0xff\n      and\n      dup2\n      jump\t// out\n        /* \"@course/meta-node/solidity/mine/solidity_lesson/study_code/2.1\\xe6\\x95\\xb0\\xe6\\x8d\\xae\\xe7\\xb1\\xbb\\xe5\\x9e\\x8b\\xe5\\x9f\\xba\\xe7\\xa1\\x80/ValuesTypes.sol\":1399:1422  uint256 public value256 */\n    tag_11:\n      sload(0x00)\n      dup2\n      jump\t// out\n        /* \"@course/meta-node/solidity/mine/solidity_lesson/study_code/2.1\\xe6\\x95\\xb0\\xe6\\x8d\\xae\\xe7\\xb1\\xbb\\xe5\\x9e\\x8b\\xe5\\x9f\\xba\\xe7\\xa1\\x80/ValuesTypes.sol\":1446:1469  uint128 public value128 */\n    tag_15:\n      0x01\n      0x00\n      swap1\n      sload\n      swap1\n      0x0100\n      exp\n      swap1\n      div\n      0xffffffffffffffffffffffffffffffff\n      and\n      dup2\n      jump\t// out\n        /* \"#utility.yul\":7:93   */\n    tag_18:\n        /* \"#utility.yul\":42:49   */\n      0x00\n        /* \"#utility.yul\":82:86   */\n      0xff\n        /* \"#utility.yul\":75:80   */\n      dup3\n        /* \"#utility.yul\":71:87   */\n      and\n        /* \"#utility.yul\":60:87   */\n      swap1\n      pop\n        /* \"#utility.yul\":7:93   */\n      swap2\n      swap1\n      pop\n      jump\t// out\n        /* \"#utility.yul\":99:211   */\n    tag_19:\n        /* \"#utility.yul\":182:204   */\n      tag_27\n        /* \"#utility.yul\":198:203   */\n      dup2\n        /* \"#utility.yul\":182:204   */\n      tag_18\n      jump\t// in\n    tag_27:\n        /* \"#utility.yul\":177:180   */\n      dup3\n        /* \"#utility.yul\":170:205   */\n      mstore\n        /* \"#utility.yul\":99:211   */\n      pop\n      pop\n      jump\t// out\n        /* \"#utility.yul\":217:431   */\n    tag_9:\n        /* \"#utility.yul\":306:310   */\n      0x00\n        /* \"#utility.yul\":344:346   */\n      0x20\n        /* \"#utility.yul\":333:342   */\n      dup3\n        /* \"#utility.yul\":329:347   */\n      add\n        /* \"#utility.yul\":321:347   */\n      swap1\n      pop\n        /* \"#utility.yul\":357:424   */\n      tag_29\n        /* \"#utility.yul\":421:422   */\n      0x00\n        /* \"#utility.yul\":410:419   */\n      dup4\n        /* \"#utility.yul\":406:423   */\n      add\n        /* \"#utility.yul\":397:403   */\n      dup5\n        /* \"#utility.yul\":357:424   */\n      tag_19\n      jump\t// in\n    tag_29:\n        /* \"#utility.yul\":217:431   */\n      swap3\n      swap2\n      pop\n      pop\n      jump\t// out\n        /* \"#utility.yul\":437:514   */\n    tag_20:\n        /* \"#utility.yul\":474:481   */\n      0x00\n        /* \"#utility.yul\":503:508   */\n      dup2\n        /* \"#utility.yul\":492:508   */\n      swap1\n      pop\n        /* \"#utility.yul\":437:514   */\n      swap2\n      swap1\n      pop\n      jump\t// out\n        /* \"#utility.yul\":520:638   */\n    tag_21:\n        /* \"#utility.yul\":607:631   */\n      tag_32\n        /* \"#utility.yul\":625:630   */\n      dup2\n        /* \"#utility.yul\":607:631   */\n      tag_20\n      jump\t// in\n    tag_32:\n        /* \"#utility.yul\":602:605   */\n      dup3\n        /* \"#utility.yul\":595:632   */\n      mstore\n        /* \"#utility.yul\":520:638   */\n      pop\n      pop\n      jump\t// out\n        /* \"#utility.yul\":644:866   */\n    tag_13:\n        /* \"#utility.yul\":737:741   */\n      0x00\n        /* \"#utility.yul\":775:777   */\n      0x20\n        /* \"#utility.yul\":764:773   */\n      dup3\n        /* \"#utility.yul\":760:778   */\n      add\n        /* \"#utility.yul\":752:778   */\n      swap1\n      pop\n        /* \"#utility.yul\":788:859   */\n      tag_34\n        /* \"#utility.yul\":856:857   */\n      0x00\n        /* \"#utility.yul\":845:854   */\n      dup4\n        /* \"#utility.yul\":841:858   */\n      add\n        /* \"#utility.yul\":832:838   */\n      dup5\n        /* \"#utility.yul\":788:859   */\n      tag_21\n      jump\t// in\n    tag_34:\n        /* \"#utility.yul\":644:866   */\n      swap3\n      swap2\n      pop\n      pop\n      jump\t// out\n        /* \"#utility.yul\":872:990   */\n    tag_22:\n        /* \"#utility.yul\":909:916   */\n      0x00\n        /* \"#utility.yul\":949:983   */\n      0xffffffffffffffffffffffffffffffff\n        /* \"#utility.yul\":942:947   */\n      dup3\n        /* \"#utility.yul\":938:984   */\n      and\n        /* \"#utility.yul\":927:984   */\n      swap1\n      pop\n        /* \"#utility.yul\":872:990   */\n      swap2\n      swap1\n      pop\n      jump\t// out\n        /* \"#utility.yul\":996:1114   */\n    tag_23:\n        /* \"#utility.yul\":1083:1107   */\n      tag_37\n        /* \"#utility.yul\":1101:1106   */\n      dup2\n        /* \"#utility.yul\":1083:1107   */\n      tag_22\n      jump\t// in\n    tag_37:\n        /* \"#utility.yul\":1078:1081   */\n      dup3\n        /* \"#utility.yul\":1071:1108   */\n      mstore\n        /* \"#utility.yul\":996:1114   */\n      pop\n      pop\n      jump\t// out\n        /* \"#utility.yul\":1120:1342   */\n    tag_17:\n        /* \"#utility.yul\":1213:1217   */\n      0x00\n        /* \"#utility.yul\":1251:1253   */\n      0x20\n        /* \"#utility.yul\":1240:1249   */\n      dup3\n        /* \"#utility.yul\":1236:1254   */\n      add\n        /* \"#utility.yul\":1228:1254   */\n      swap1\n      pop\n        /* \"#utility.yul\":1264:1335   */\n      tag_39\n        /* \"#utility.yul\":1332:1333   */\n      0x00\n        /* \"#utility.yul\":1321:1330   */\n      dup4\n        /* \"#utility.yul\":1317:1334   */\n      add\n        /* \"#utility.yul\":1308:1314   */\n      dup5\n        /* \"#utility.yul\":1264:1335   */\n      tag_23\n      jump\t// in\n    tag_39:\n        /* \"#utility.yul\":1120:1342   */\n      swap3\n      swap2\n      pop\n      pop\n      jump\t// out\n\n    auxdata: 0xa264697066735822122022a36e2332d483a55784dc3119b11ae797616c842383b55854901bbd8d26ef8d64736f6c634300081e0033\n}\n",
				"bytecode": {
					"linkReferences": {},
					"object": "6080604052348015600e575f5ffd5b506101b48061001c5f395ff3fe608060405234801561000f575f5ffd5b506004361061003f575f3560e01c80630e6433d1146100435780632d61bb421461006157806344e63c1a1461007f575b5f5ffd5b61004b61009d565b60405161005891906100f1565b60405180910390f35b6100696100b0565b6040516100769190610122565b60405180910390f35b6100876100b5565b6040516100949190610165565b60405180910390f35b600160109054906101000a900460ff1681565b5f5481565b60015f9054906101000a90046fffffffffffffffffffffffffffffffff1681565b5f60ff82169050919050565b6100eb816100d6565b82525050565b5f6020820190506101045f8301846100e2565b92915050565b5f819050919050565b61011c8161010a565b82525050565b5f6020820190506101355f830184610113565b92915050565b5f6fffffffffffffffffffffffffffffffff82169050919050565b61015f8161013b565b82525050565b5f6020820190506101785f830184610156565b9291505056fea264697066735822122022a36e2332d483a55784dc3119b11ae797616c842383b55854901bbd8d26ef8d64736f6c634300081e0033",
					"opcodes": "PUSH1 0x80 PUSH1 0x40 MSTORE CALLVALUE DUP1 ISZERO PUSH1 0xE JUMPI PUSH0 PUSH0 REVERT JUMPDEST POP PUSH2 0x1B4 DUP1 PUSH2 0x1C PUSH0 CODECOPY PUSH0 RETURN INVALID PUSH1 0x80 PUSH1 0x40 MSTORE CALLVALUE DUP1 ISZERO PUSH2 0xF JUMPI PUSH0 PUSH0 REVERT JUMPDEST POP PUSH1 0x4 CALLDATASIZE LT PUSH2 0x3F JUMPI PUSH0 CALLDATALOAD PUSH1 0xE0 SHR DUP1 PUSH4 0xE6433D1 EQ PUSH2 0x43 JUMPI DUP1 PUSH4 0x2D61BB42 EQ PUSH2 0x61 JUMPI DUP1 PUSH4 0x44E63C1A EQ PUSH2 0x7F JUMPI JUMPDEST PUSH0 PUSH0 REVERT JUMPDEST PUSH2 0x4B PUSH2 0x9D JUMP JUMPDEST PUSH1 0x40 MLOAD PUSH2 0x58 SWAP2 SWAP1 PUSH2 0xF1 JUMP JUMPDEST PUSH1 0x40 MLOAD DUP1 SWAP2 SUB SWAP1 RETURN JUMPDEST PUSH2 0x69 PUSH2 0xB0 JUMP JUMPDEST PUSH1 0x40 MLOAD PUSH2 0x76 SWAP2 SWAP1 PUSH2 0x122 JUMP JUMPDEST PUSH1 0x40 MLOAD DUP1 SWAP2 SUB SWAP1 RETURN JUMPDEST PUSH2 0x87 PUSH2 0xB5 JUMP JUMPDEST PUSH1 0x40 MLOAD PUSH2 0x94 SWAP2 SWAP1 PUSH2 0x165 JUMP JUMPDEST PUSH1 0x40 MLOAD DUP1 SWAP2 SUB SWAP1 RETURN JUMPDEST PUSH1 0x1 PUSH1 0x10 SWAP1 SLOAD SWAP1 PUSH2 0x100 EXP SWAP1 DIV PUSH1 0xFF AND DUP2 JUMP JUMPDEST PUSH0 SLOAD DUP2 JUMP JUMPDEST PUSH1 0x1 PUSH0 SWAP1 SLOAD SWAP1 PUSH2 0x100 EXP SWAP1 DIV PUSH16 0xFFFFFFFFFFFFFFFFFFFFFFFFFFFFFFFF AND DUP2 JUMP JUMPDEST PUSH0 PUSH1 0xFF DUP3 AND SWAP1 POP SWAP2 SWAP1 POP JUMP JUMPDEST PUSH2 0xEB DUP2 PUSH2 0xD6 JUMP JUMPDEST DUP3 MSTORE POP POP JUMP JUMPDEST PUSH0 PUSH1 0x20 DUP3 ADD SWAP1 POP PUSH2 0x104 PUSH0 DUP4 ADD DUP5 PUSH2 0xE2 JUMP JUMPDEST SWAP3 SWAP2 POP POP JUMP JUMPDEST PUSH0 DUP2 SWAP1 POP SWAP2 SWAP1 POP JUMP JUMPDEST PUSH2 0x11C DUP2 PUSH2 0x10A JUMP JUMPDEST DUP3 MSTORE POP POP JUMP JUMPDEST PUSH0 PUSH1 0x20 DUP3 ADD SWAP1 POP PUSH2 0x135 PUSH0 DUP4 ADD DUP5 PUSH2 0x113 JUMP JUMPDEST SWAP3 SWAP2 POP POP JUMP JUMPDEST PUSH0 PUSH16 0xFFFFFFFFFFFFFFFFFFFFFFFFFFFFFFFF DUP3 AND SWAP1 POP SWAP2 SWAP1 POP JUMP JUMPDEST PUSH2 0x15F DUP2 PUSH2 0x13B JUMP JUMPDEST DUP3 MSTORE POP POP JUMP JUMPDEST PUSH0 PUSH1 0x20 DUP3 ADD SWAP1 POP PUSH2 0x178 PUSH0 DUP4 ADD DUP5 PUSH2 0x156 JUMP JUMPDEST SWAP3 SWAP2 POP POP JUMP INVALID LOG2 PUSH5 0x6970667358 0x22 SLT KECCAK256 0x22 LOG3 PUSH15 0x2332D483A55784DC3119B11AE79761 PUSH13 0x842383B55854901BBD8D26EF8D PUSH5 0x736F6C6343 STOP ADDMOD 0x1E STOP CALLER "
				},
				"gasEstimates": {
					"creation": {
						"codeDepositCost": "87200",
						"executionCost": "133",
						"totalCost": "87333"
					},
					"external": {
						"value128()": "2488",
						"value256()": "2424",
						"value8()": "2495"
					}
				},
				"methodIdentifiers": {
					"value128()": "44e63c1a",
					"value256()": "2d61bb42",
					"value8()": "0e6433d1"
				}
			},
			"storageLayout": {
				"storage": [
					{
						"astId": 100,
						"contract": "@course/meta-node/solidity/mine/solidity_lesson/study_code/2.1数据类型基础/ValuesTypes.sol:GasComparison",
						"label": "value256",
						"offset": 0,
						"slot": "0",
						"type": "t_uint256"
					},
					{
						"astId": 102,
						"contract": "@course/meta-node/solidity/mine/solidity_lesson/study_code/2.1数据类型基础/ValuesTypes.sol:GasComparison",
						"label": "value128",
						"offset": 0,
						"slot": "1",
						"type": "t_uint128"
					},
					{
						"astId": 104,
						"contract": "@course/meta-node/solidity/mine/solidity_lesson/study_code/2.1数据类型基础/ValuesTypes.sol:GasComparison",
						"label": "value8",
						"offset": 16,
						"slot": "1",
						"type": "t_uint8"
					}
				],
				"types": {
					"t_uint128": {
						"encoding": "inplace",
						"label": "uint128",
						"numberOfBytes": "16"
					},
					"t_uint256": {
						"encoding": "inplace",
						"label": "uint256",
						"numberOfBytes": "32"
					},
					"t_uint8": {
						"encoding": "inplace",
						"label": "uint8",
						"numberOfBytes": "1"
					}
				}
			},
			"userdoc": {
				"kind": "user",
				"methods": {},
				"version": 1
			}
		}
	}
}