{
	"@course/meta-node/solidity/mine/solidity_lesson/study_code/2.1数据类型基础/ValuesTypes.sol": {
		"ValueTypes": {
			"abi": [
				{
					"inputs": [],
					"name": "getTypes",
					"outputs": [
						{
							"internalType": "bool",
							"name": "",
							"type": "bool"
						},
						{
							"internalType": "int256",
							"name": "",
							"type": "int256"
						},
						{
							"internalType": "int8",
							"name": "",
							"type": "int8"
						},
						{
							"internalType": "int8",
							"name": "",
							"type": "int8"
						},
						{
							"internalType": "int16",
							"name": "",
							"type": "int16"
						},
						{
							"internalType": "int16",
							"name": "",
							"type": "int16"
						}
					],
					"stateMutability": "pure",
					"type": "function"
				},
				{
					"inputs": [],
					"name": "getUintTypes",
					"outputs": [
						{
							"internalType": "int256",
							"name": "",
							"type": "int256"
						},
						{
							"internalType": "int256",
							"name": "",
							"type": "int256"
						},
						{
							"internalType": "uint256",
							"name": "",
							"type": "uint256"
						},
						{
							"internalType": "uint256",
							"name": "",
							"type": "uint256"
						}
					],
					"stateMutability": "pure",
					"type": "function"
				}
			],
			"devdoc": {
				"kind": "dev",
				"methods": {},
				"version": 1
			},
			"evm": {
				"assembly": "    /* \"@course/meta-node/solidity/mine/solidity_lesson/study_code/2.1\\xe6\\x95\\xb0\\xe6\\x8d\\xae\\xe7\\xb1\\xbb\\xe5\\x9e\\x8b\\xe5\\x9f\\xba\\xe7\\xa1\\x80/ValuesTypes.sol\":606:1365  contract ValueTypes {... */\n  mstore(0x40, 0x80)\n  callvalue\n  dup1\n  iszero\n  tag_1\n  jumpi\n  revert(0x00, 0x00)\ntag_1:\n  pop\n  dataSize(sub_0)\n  dup1\n  dataOffset(sub_0)\n  0x00\n  codecopy\n  0x00\n  return\nstop\n\nsub_0: assembly {\n        /* \"@course/meta-node/solidity/mine/solidity_lesson/study_code/2.1\\xe6\\x95\\xb0\\xe6\\x8d\\xae\\xe7\\xb1\\xbb\\xe5\\x9e\\x8b\\xe5\\x9f\\xba\\xe7\\xa1\\x80/ValuesTypes.sol\":606:1365  contract ValueTypes {... */\n      mstore(0x40, 0x80)\n      callvalue\n      dup1\n      iszero\n      tag_1\n      jumpi\n      revert(0x00, 0x00)\n    tag_1:\n      pop\n      jumpi(tag_2, lt(calldatasize, 0x04))\n      shr(0xe0, calldataload(0x00))\n      dup1\n      0x30165abf\n      eq\n      tag_3\n      jumpi\n      dup1\n      0xb4579d60\n      eq\n      tag_4\n      jumpi\n    tag_2:\n      revert(0x00, 0x00)\n        /* \"@course/meta-node/solidity/mine/solidity_lesson/study_code/2.1\\xe6\\x95\\xb0\\xe6\\x8d\\xae\\xe7\\xb1\\xbb\\xe5\\x9e\\x8b\\xe5\\x9f\\xba\\xe7\\xa1\\x80/ValuesTypes.sol\":1093:1362  function getUintTypes() public pure returns (int256, int256, uint256, uint256) {... */\n    tag_3:\n      tag_5\n      tag_6\n      jump\t// in\n    tag_5:\n      mload(0x40)\n      tag_7\n      swap5\n      swap4\n      swap3\n      swap2\n      swap1\n      tag_8\n      jump\t// in\n    tag_7:\n      mload(0x40)\n      dup1\n      swap2\n      sub\n      swap1\n      return\n        /* \"@course/meta-node/solidity/mine/solidity_lesson/study_code/2.1\\xe6\\x95\\xb0\\xe6\\x8d\\xae\\xe7\\xb1\\xbb\\xe5\\x9e\\x8b\\xe5\\x9f\\xba\\xe7\\xa1\\x80/ValuesTypes.sol\":633:1085  function getTypes() public pure returns (bool, int, int8, int8, int16, int16) { // 返回参数不能太多会报错的... */\n    tag_4:\n      tag_9\n      tag_10\n      jump\t// in\n    tag_9:\n      mload(0x40)\n      tag_11\n      swap7\n      swap6\n      swap5\n      swap4\n      swap3\n      swap2\n      swap1\n      tag_12\n      jump\t// in\n    tag_11:\n      mload(0x40)\n      dup1\n      swap2\n      sub\n      swap1\n      return\n        /* \"@course/meta-node/solidity/mine/solidity_lesson/study_code/2.1\\xe6\\x95\\xb0\\xe6\\x8d\\xae\\xe7\\xb1\\xbb\\xe5\\x9e\\x8b\\xe5\\x9f\\xba\\xe7\\xa1\\x80/ValuesTypes.sol\":1093:1362  function getUintTypes() public pure returns (int256, int256, uint256, uint256) {... */\n    tag_6:\n        /* \"@course/meta-node/solidity/mine/solidity_lesson/study_code/2.1\\xe6\\x95\\xb0\\xe6\\x8d\\xae\\xe7\\xb1\\xbb\\xe5\\x9e\\x8b\\xe5\\x9f\\xba\\xe7\\xa1\\x80/ValuesTypes.sol\":1138:1144  int256 */\n      0x00\n        /* \"@course/meta-node/solidity/mine/solidity_lesson/study_code/2.1\\xe6\\x95\\xb0\\xe6\\x8d\\xae\\xe7\\xb1\\xbb\\xe5\\x9e\\x8b\\xe5\\x9f\\xba\\xe7\\xa1\\x80/ValuesTypes.sol\":1146:1152  int256 */\n      0x00\n        /* \"@course/meta-node/solidity/mine/solidity_lesson/study_code/2.1\\xe6\\x95\\xb0\\xe6\\x8d\\xae\\xe7\\xb1\\xbb\\xe5\\x9e\\x8b\\xe5\\x9f\\xba\\xe7\\xa1\\x80/ValuesTypes.sol\":1154:1161  uint256 */\n      0x00\n        /* \"@course/meta-node/solidity/mine/solidity_lesson/study_code/2.1\\xe6\\x95\\xb0\\xe6\\x8d\\xae\\xe7\\xb1\\xbb\\xe5\\x9e\\x8b\\xe5\\x9f\\xba\\xe7\\xa1\\x80/ValuesTypes.sol\":1163:1170  uint256 */\n      0x00\n        /* \"@course/meta-node/solidity/mine/solidity_lesson/study_code/2.1\\xe6\\x95\\xb0\\xe6\\x8d\\xae\\xe7\\xb1\\xbb\\xe5\\x9e\\x8b\\xe5\\x9f\\xba\\xe7\\xa1\\x80/ValuesTypes.sol\":1183:1195  int256 i256b */\n      0x00\n        /* \"@course/meta-node/solidity/mine/solidity_lesson/study_code/2.1\\xe6\\x95\\xb0\\xe6\\x8d\\xae\\xe7\\xb1\\xbb\\xe5\\x9e\\x8b\\xe5\\x9f\\xba\\xe7\\xa1\\x80/ValuesTypes.sol\":1198:1205  -2**255 */\n      0x8000000000000000000000000000000000000000000000000000000000000000\n        /* \"@course/meta-node/solidity/mine/solidity_lesson/study_code/2.1\\xe6\\x95\\xb0\\xe6\\x8d\\xae\\xe7\\xb1\\xbb\\xe5\\x9e\\x8b\\xe5\\x9f\\xba\\xe7\\xa1\\x80/ValuesTypes.sol\":1183:1205  int256 i256b = -2**255 */\n      swap1\n      pop\n        /* \"@course/meta-node/solidity/mine/solidity_lesson/study_code/2.1\\xe6\\x95\\xb0\\xe6\\x8d\\xae\\xe7\\xb1\\xbb\\xe5\\x9e\\x8b\\xe5\\x9f\\xba\\xe7\\xa1\\x80/ValuesTypes.sol\":1216:1228  int256 i256e */\n      0x00\n        /* \"@course/meta-node/solidity/mine/solidity_lesson/study_code/2.1\\xe6\\x95\\xb0\\xe6\\x8d\\xae\\xe7\\xb1\\xbb\\xe5\\x9e\\x8b\\xe5\\x9f\\xba\\xe7\\xa1\\x80/ValuesTypes.sol\":1231:1239  2**255-1 */\n      0x7fffffffffffffffffffffffffffffffffffffffffffffffffffffffffffffff\n        /* \"@course/meta-node/solidity/mine/solidity_lesson/study_code/2.1\\xe6\\x95\\xb0\\xe6\\x8d\\xae\\xe7\\xb1\\xbb\\xe5\\x9e\\x8b\\xe5\\x9f\\xba\\xe7\\xa1\\x80/ValuesTypes.sol\":1216:1239  int256 i256e = 2**255-1 */\n      swap1\n      pop\n        /* \"@course/meta-node/solidity/mine/solidity_lesson/study_code/2.1\\xe6\\x95\\xb0\\xe6\\x8d\\xae\\xe7\\xb1\\xbb\\xe5\\x9e\\x8b\\xe5\\x9f\\xba\\xe7\\xa1\\x80/ValuesTypes.sol\":1250:1264  uint256 ui256b */\n      0x00\n        /* \"@course/meta-node/solidity/mine/solidity_lesson/study_code/2.1\\xe6\\x95\\xb0\\xe6\\x8d\\xae\\xe7\\xb1\\xbb\\xe5\\x9e\\x8b\\xe5\\x9f\\xba\\xe7\\xa1\\x80/ValuesTypes.sol\":1267:1268  0 */\n      0x00\n        /* \"@course/meta-node/solidity/mine/solidity_lesson/study_code/2.1\\xe6\\x95\\xb0\\xe6\\x8d\\xae\\xe7\\xb1\\xbb\\xe5\\x9e\\x8b\\xe5\\x9f\\xba\\xe7\\xa1\\x80/ValuesTypes.sol\":1250:1268  uint256 ui256b = 0 */\n      swap1\n      pop\n        /* \"@course/meta-node/solidity/mine/solidity_lesson/study_code/2.1\\xe6\\x95\\xb0\\xe6\\x8d\\xae\\xe7\\xb1\\xbb\\xe5\\x9e\\x8b\\xe5\\x9f\\xba\\xe7\\xa1\\x80/ValuesTypes.sol\":1279:1293  uint256 ui256e */\n      0x00\n        /* \"@course/meta-node/solidity/mine/solidity_lesson/study_code/2.1\\xe6\\x95\\xb0\\xe6\\x8d\\xae\\xe7\\xb1\\xbb\\xe5\\x9e\\x8b\\xe5\\x9f\\xba\\xe7\\xa1\\x80/ValuesTypes.sol\":1296:1306  (2**255)-1 */\n      0x7fffffffffffffffffffffffffffffffffffffffffffffffffffffffffffffff\n        /* \"@course/meta-node/solidity/mine/solidity_lesson/study_code/2.1\\xe6\\x95\\xb0\\xe6\\x8d\\xae\\xe7\\xb1\\xbb\\xe5\\x9e\\x8b\\xe5\\x9f\\xba\\xe7\\xa1\\x80/ValuesTypes.sol\":1279:1306  uint256 ui256e = (2**255)-1 */\n      swap1\n      pop\n        /* \"@course/meta-node/solidity/mine/solidity_lesson/study_code/2.1\\xe6\\x95\\xb0\\xe6\\x8d\\xae\\xe7\\xb1\\xbb\\xe5\\x9e\\x8b\\xe5\\x9f\\xba\\xe7\\xa1\\x80/ValuesTypes.sol\":1325:1330  i256b */\n      dup4\n        /* \"@course/meta-node/solidity/mine/solidity_lesson/study_code/2.1\\xe6\\x95\\xb0\\xe6\\x8d\\xae\\xe7\\xb1\\xbb\\xe5\\x9e\\x8b\\xe5\\x9f\\xba\\xe7\\xa1\\x80/ValuesTypes.sol\":1332:1337  i256e */\n      dup4\n        /* \"@course/meta-node/solidity/mine/solidity_lesson/study_code/2.1\\xe6\\x95\\xb0\\xe6\\x8d\\xae\\xe7\\xb1\\xbb\\xe5\\x9e\\x8b\\xe5\\x9f\\xba\\xe7\\xa1\\x80/ValuesTypes.sol\":1339:1345  ui256b */\n      dup4\n        /* \"@course/meta-node/solidity/mine/solidity_lesson/study_code/2.1\\xe6\\x95\\xb0\\xe6\\x8d\\xae\\xe7\\xb1\\xbb\\xe5\\x9e\\x8b\\xe5\\x9f\\xba\\xe7\\xa1\\x80/ValuesTypes.sol\":1347:1353  ui256e */\n      dup4\n        /* \"@course/meta-node/solidity/mine/solidity_lesson/study_code/2.1\\xe6\\x95\\xb0\\xe6\\x8d\\xae\\xe7\\xb1\\xbb\\xe5\\x9e\\x8b\\xe5\\x9f\\xba\\xe7\\xa1\\x80/ValuesTypes.sol\":1317:1354  return (i256b, i256e, ui256b, ui256e) */\n      swap8\n      pop\n      swap8\n      pop\n      swap8\n      pop\n      swap8\n      pop\n      pop\n      pop\n      pop\n      pop\n        /* \"@course/meta-node/solidity/mine/solidity_lesson/study_code/2.1\\xe6\\x95\\xb0\\xe6\\x8d\\xae\\xe7\\xb1\\xbb\\xe5\\x9e\\x8b\\xe5\\x9f\\xba\\xe7\\xa1\\x80/ValuesTypes.sol\":1093:1362  function getUintTypes() public pure returns (int256, int256, uint256, uint256) {... */\n      swap1\n      swap2\n      swap3\n      swap4\n      jump\t// out\n        /* \"@course/meta-node/solidity/mine/solidity_lesson/study_code/2.1\\xe6\\x95\\xb0\\xe6\\x8d\\xae\\xe7\\xb1\\xbb\\xe5\\x9e\\x8b\\xe5\\x9f\\xba\\xe7\\xa1\\x80/ValuesTypes.sol\":633:1085  function getTypes() public pure returns (bool, int, int8, int8, int16, int16) { // 返回参数不能太多会报错的... */\n    tag_10:\n        /* \"@course/meta-node/solidity/mine/solidity_lesson/study_code/2.1\\xe6\\x95\\xb0\\xe6\\x8d\\xae\\xe7\\xb1\\xbb\\xe5\\x9e\\x8b\\xe5\\x9f\\xba\\xe7\\xa1\\x80/ValuesTypes.sol\":674:678  bool */\n      0x00\n        /* \"@course/meta-node/solidity/mine/solidity_lesson/study_code/2.1\\xe6\\x95\\xb0\\xe6\\x8d\\xae\\xe7\\xb1\\xbb\\xe5\\x9e\\x8b\\xe5\\x9f\\xba\\xe7\\xa1\\x80/ValuesTypes.sol\":680:683  int */\n      0x00\n        /* \"@course/meta-node/solidity/mine/solidity_lesson/study_code/2.1\\xe6\\x95\\xb0\\xe6\\x8d\\xae\\xe7\\xb1\\xbb\\xe5\\x9e\\x8b\\xe5\\x9f\\xba\\xe7\\xa1\\x80/ValuesTypes.sol\":685:689  int8 */\n      0x00\n        /* \"@course/meta-node/solidity/mine/solidity_lesson/study_code/2.1\\xe6\\x95\\xb0\\xe6\\x8d\\xae\\xe7\\xb1\\xbb\\xe5\\x9e\\x8b\\xe5\\x9f\\xba\\xe7\\xa1\\x80/ValuesTypes.sol\":691:695  int8 */\n      0x00\n        /* \"@course/meta-node/solidity/mine/solidity_lesson/study_code/2.1\\xe6\\x95\\xb0\\xe6\\x8d\\xae\\xe7\\xb1\\xbb\\xe5\\x9e\\x8b\\xe5\\x9f\\xba\\xe7\\xa1\\x80/ValuesTypes.sol\":697:702  int16 */\n      0x00\n        /* \"@course/meta-node/solidity/mine/solidity_lesson/study_code/2.1\\xe6\\x95\\xb0\\xe6\\x8d\\xae\\xe7\\xb1\\xbb\\xe5\\x9e\\x8b\\xe5\\x9f\\xba\\xe7\\xa1\\x80/ValuesTypes.sol\":704:709  int16 */\n      0x00\n        /* \"@course/meta-node/solidity/mine/solidity_lesson/study_code/2.1\\xe6\\x95\\xb0\\xe6\\x8d\\xae\\xe7\\xb1\\xbb\\xe5\\x9e\\x8b\\xe5\\x9f\\xba\\xe7\\xa1\\x80/ValuesTypes.sol\":887:893  bool b */\n      0x00\n        /* \"@course/meta-node/solidity/mine/solidity_lesson/study_code/2.1\\xe6\\x95\\xb0\\xe6\\x8d\\xae\\xe7\\xb1\\xbb\\xe5\\x9e\\x8b\\xe5\\x9f\\xba\\xe7\\xa1\\x80/ValuesTypes.sol\":896:901  false */\n      0x00\n        /* \"@course/meta-node/solidity/mine/solidity_lesson/study_code/2.1\\xe6\\x95\\xb0\\xe6\\x8d\\xae\\xe7\\xb1\\xbb\\xe5\\x9e\\x8b\\xe5\\x9f\\xba\\xe7\\xa1\\x80/ValuesTypes.sol\":887:901  bool b = false */\n      swap1\n      pop\n        /* \"@course/meta-node/solidity/mine/solidity_lesson/study_code/2.1\\xe6\\x95\\xb0\\xe6\\x8d\\xae\\xe7\\xb1\\xbb\\xe5\\x9e\\x8b\\xe5\\x9f\\xba\\xe7\\xa1\\x80/ValuesTypes.sol\":912:917  int i */\n      0x00\n        /* \"@course/meta-node/solidity/mine/solidity_lesson/study_code/2.1\\xe6\\x95\\xb0\\xe6\\x8d\\xae\\xe7\\xb1\\xbb\\xe5\\x9e\\x8b\\xe5\\x9f\\xba\\xe7\\xa1\\x80/ValuesTypes.sol\":920:921  1 */\n      0x01\n        /* \"@course/meta-node/solidity/mine/solidity_lesson/study_code/2.1\\xe6\\x95\\xb0\\xe6\\x8d\\xae\\xe7\\xb1\\xbb\\xe5\\x9e\\x8b\\xe5\\x9f\\xba\\xe7\\xa1\\x80/ValuesTypes.sol\":912:921  int i = 1 */\n      swap1\n      pop\n        /* \"@course/meta-node/solidity/mine/solidity_lesson/study_code/2.1\\xe6\\x95\\xb0\\xe6\\x8d\\xae\\xe7\\xb1\\xbb\\xe5\\x9e\\x8b\\xe5\\x9f\\xba\\xe7\\xa1\\x80/ValuesTypes.sol\":932:940  int8 i8b */\n      0x00\n        /* \"@course/meta-node/solidity/mine/solidity_lesson/study_code/2.1\\xe6\\x95\\xb0\\xe6\\x8d\\xae\\xe7\\xb1\\xbb\\xe5\\x9e\\x8b\\xe5\\x9f\\xba\\xe7\\xa1\\x80/ValuesTypes.sol\":943:947  -128 */\n      0xffffffffffffffffffffffffffffffffffffffffffffffffffffffffffffff80\n        /* \"@course/meta-node/solidity/mine/solidity_lesson/study_code/2.1\\xe6\\x95\\xb0\\xe6\\x8d\\xae\\xe7\\xb1\\xbb\\xe5\\x9e\\x8b\\xe5\\x9f\\xba\\xe7\\xa1\\x80/ValuesTypes.sol\":932:947  int8 i8b = -128 */\n      swap1\n      pop\n        /* \"@course/meta-node/solidity/mine/solidity_lesson/study_code/2.1\\xe6\\x95\\xb0\\xe6\\x8d\\xae\\xe7\\xb1\\xbb\\xe5\\x9e\\x8b\\xe5\\x9f\\xba\\xe7\\xa1\\x80/ValuesTypes.sol\":958:966  int8 i8e */\n      0x00\n        /* \"@course/meta-node/solidity/mine/solidity_lesson/study_code/2.1\\xe6\\x95\\xb0\\xe6\\x8d\\xae\\xe7\\xb1\\xbb\\xe5\\x9e\\x8b\\xe5\\x9f\\xba\\xe7\\xa1\\x80/ValuesTypes.sol\":969:972  127 */\n      0x7f\n        /* \"@course/meta-node/solidity/mine/solidity_lesson/study_code/2.1\\xe6\\x95\\xb0\\xe6\\x8d\\xae\\xe7\\xb1\\xbb\\xe5\\x9e\\x8b\\xe5\\x9f\\xba\\xe7\\xa1\\x80/ValuesTypes.sol\":958:972  int8 i8e = 127 */\n      swap1\n      pop\n        /* \"@course/meta-node/solidity/mine/solidity_lesson/study_code/2.1\\xe6\\x95\\xb0\\xe6\\x8d\\xae\\xe7\\xb1\\xbb\\xe5\\x9e\\x8b\\xe5\\x9f\\xba\\xe7\\xa1\\x80/ValuesTypes.sol\":983:993  int16 i16b */\n      0x00\n        /* \"@course/meta-node/solidity/mine/solidity_lesson/study_code/2.1\\xe6\\x95\\xb0\\xe6\\x8d\\xae\\xe7\\xb1\\xbb\\xe5\\x9e\\x8b\\xe5\\x9f\\xba\\xe7\\xa1\\x80/ValuesTypes.sol\":996:1002  -32768 */\n      0xffffffffffffffffffffffffffffffffffffffffffffffffffffffffffff8000\n        /* \"@course/meta-node/solidity/mine/solidity_lesson/study_code/2.1\\xe6\\x95\\xb0\\xe6\\x8d\\xae\\xe7\\xb1\\xbb\\xe5\\x9e\\x8b\\xe5\\x9f\\xba\\xe7\\xa1\\x80/ValuesTypes.sol\":983:1002  int16 i16b = -32768 */\n      swap1\n      pop\n        /* \"@course/meta-node/solidity/mine/solidity_lesson/study_code/2.1\\xe6\\x95\\xb0\\xe6\\x8d\\xae\\xe7\\xb1\\xbb\\xe5\\x9e\\x8b\\xe5\\x9f\\xba\\xe7\\xa1\\x80/ValuesTypes.sol\":1013:1023  int16 i16e */\n      0x00\n        /* \"@course/meta-node/solidity/mine/solidity_lesson/study_code/2.1\\xe6\\x95\\xb0\\xe6\\x8d\\xae\\xe7\\xb1\\xbb\\xe5\\x9e\\x8b\\xe5\\x9f\\xba\\xe7\\xa1\\x80/ValuesTypes.sol\":1026:1031  32767 */\n      0x7fff\n        /* \"@course/meta-node/solidity/mine/solidity_lesson/study_code/2.1\\xe6\\x95\\xb0\\xe6\\x8d\\xae\\xe7\\xb1\\xbb\\xe5\\x9e\\x8b\\xe5\\x9f\\xba\\xe7\\xa1\\x80/ValuesTypes.sol\":1013:1031  int16 i16e = 32767 */\n      swap1\n      pop\n        /* \"@course/meta-node/solidity/mine/solidity_lesson/study_code/2.1\\xe6\\x95\\xb0\\xe6\\x8d\\xae\\xe7\\xb1\\xbb\\xe5\\x9e\\x8b\\xe5\\x9f\\xba\\xe7\\xa1\\x80/ValuesTypes.sol\":1050:1051  b */\n      dup6\n        /* \"@course/meta-node/solidity/mine/solidity_lesson/study_code/2.1\\xe6\\x95\\xb0\\xe6\\x8d\\xae\\xe7\\xb1\\xbb\\xe5\\x9e\\x8b\\xe5\\x9f\\xba\\xe7\\xa1\\x80/ValuesTypes.sol\":1053:1054  i */\n      dup6\n        /* \"@course/meta-node/solidity/mine/solidity_lesson/study_code/2.1\\xe6\\x95\\xb0\\xe6\\x8d\\xae\\xe7\\xb1\\xbb\\xe5\\x9e\\x8b\\xe5\\x9f\\xba\\xe7\\xa1\\x80/ValuesTypes.sol\":1056:1059  i8b */\n      dup6\n        /* \"@course/meta-node/solidity/mine/solidity_lesson/study_code/2.1\\xe6\\x95\\xb0\\xe6\\x8d\\xae\\xe7\\xb1\\xbb\\xe5\\x9e\\x8b\\xe5\\x9f\\xba\\xe7\\xa1\\x80/ValuesTypes.sol\":1061:1064  i8e */\n      dup6\n        /* \"@course/meta-node/solidity/mine/solidity_lesson/study_code/2.1\\xe6\\x95\\xb0\\xe6\\x8d\\xae\\xe7\\xb1\\xbb\\xe5\\x9e\\x8b\\xe5\\x9f\\xba\\xe7\\xa1\\x80/ValuesTypes.sol\":1066:1070  i16b */\n      dup6\n        /* \"@course/meta-node/solidity/mine/solidity_lesson/study_code/2.1\\xe6\\x95\\xb0\\xe6\\x8d\\xae\\xe7\\xb1\\xbb\\xe5\\x9e\\x8b\\xe5\\x9f\\xba\\xe7\\xa1\\x80/ValuesTypes.sol\":1072:1076  i16e */\n      dup6\n        /* \"@course/meta-node/solidity/mine/solidity_lesson/study_code/2.1\\xe6\\x95\\xb0\\xe6\\x8d\\xae\\xe7\\xb1\\xbb\\xe5\\x9e\\x8b\\xe5\\x9f\\xba\\xe7\\xa1\\x80/ValuesTypes.sol\":1042:1077  return (b, i, i8b, i8e, i16b, i16e) */\n      swap12\n      pop\n      swap12\n      pop\n      swap12\n      pop\n      swap12\n      pop\n      swap12\n      pop\n      swap12\n      pop\n      pop\n      pop\n      pop\n      pop\n      pop\n      pop\n        /* \"@course/meta-node/solidity/mine/solidity_lesson/study_code/2.1\\xe6\\x95\\xb0\\xe6\\x8d\\xae\\xe7\\xb1\\xbb\\xe5\\x9e\\x8b\\xe5\\x9f\\xba\\xe7\\xa1\\x80/ValuesTypes.sol\":633:1085  function getTypes() public pure returns (bool, int, int8, int8, int16, int16) { // 返回参数不能太多会报错的... */\n      swap1\n      swap2\n      swap3\n      swap4\n      swap5\n      swap6\n      jump\t// out\n        /* \"#utility.yul\":7:83   */\n    tag_15:\n        /* \"#utility.yul\":43:50   */\n      0x00\n        /* \"#utility.yul\":72:77   */\n      dup2\n        /* \"#utility.yul\":61:77   */\n      swap1\n      pop\n        /* \"#utility.yul\":7:83   */\n      swap2\n      swap1\n      pop\n      jump\t// out\n        /* \"#utility.yul\":89:204   */\n    tag_16:\n        /* \"#utility.yul\":174:197   */\n      tag_28\n        /* \"#utility.yul\":191:196   */\n      dup2\n        /* \"#utility.yul\":174:197   */\n      tag_15\n      jump\t// in\n    tag_28:\n        /* \"#utility.yul\":169:172   */\n      dup3\n        /* \"#utility.yul\":162:198   */\n      mstore\n        /* \"#utility.yul\":89:204   */\n      pop\n      pop\n      jump\t// out\n        /* \"#utility.yul\":210:287   */\n    tag_17:\n        /* \"#utility.yul\":247:254   */\n      0x00\n        /* \"#utility.yul\":276:281   */\n      dup2\n        /* \"#utility.yul\":265:281   */\n      swap1\n      pop\n        /* \"#utility.yul\":210:287   */\n      swap2\n      swap1\n      pop\n      jump\t// out\n        /* \"#utility.yul\":293:411   */\n    tag_18:\n        /* \"#utility.yul\":380:404   */\n      tag_31\n        /* \"#utility.yul\":398:403   */\n      dup2\n        /* \"#utility.yul\":380:404   */\n      tag_17\n      jump\t// in\n    tag_31:\n        /* \"#utility.yul\":375:378   */\n      dup3\n        /* \"#utility.yul\":368:405   */\n      mstore\n        /* \"#utility.yul\":293:411   */\n      pop\n      pop\n      jump\t// out\n        /* \"#utility.yul\":417:962   */\n    tag_8:\n        /* \"#utility.yul\":590:594   */\n      0x00\n        /* \"#utility.yul\":628:631   */\n      0x80\n        /* \"#utility.yul\":617:626   */\n      dup3\n        /* \"#utility.yul\":613:632   */\n      add\n        /* \"#utility.yul\":605:632   */\n      swap1\n      pop\n        /* \"#utility.yul\":642:711   */\n      tag_33\n        /* \"#utility.yul\":708:709   */\n      0x00\n        /* \"#utility.yul\":697:706   */\n      dup4\n        /* \"#utility.yul\":693:710   */\n      add\n        /* \"#utility.yul\":684:690   */\n      dup8\n        /* \"#utility.yul\":642:711   */\n      tag_16\n      jump\t// in\n    tag_33:\n        /* \"#utility.yul\":721:791   */\n      tag_34\n        /* \"#utility.yul\":787:789   */\n      0x20\n        /* \"#utility.yul\":776:785   */\n      dup4\n        /* \"#utility.yul\":772:790   */\n      add\n        /* \"#utility.yul\":763:769   */\n      dup7\n        /* \"#utility.yul\":721:791   */\n      tag_16\n      jump\t// in\n    tag_34:\n        /* \"#utility.yul\":801:873   */\n      tag_35\n        /* \"#utility.yul\":869:871   */\n      0x40\n        /* \"#utility.yul\":858:867   */\n      dup4\n        /* \"#utility.yul\":854:872   */\n      add\n        /* \"#utility.yul\":845:851   */\n      dup6\n        /* \"#utility.yul\":801:873   */\n      tag_18\n      jump\t// in\n    tag_35:\n        /* \"#utility.yul\":883:955   */\n      tag_36\n        /* \"#utility.yul\":951:953   */\n      0x60\n        /* \"#utility.yul\":940:949   */\n      dup4\n        /* \"#utility.yul\":936:954   */\n      add\n        /* \"#utility.yul\":927:933   */\n      dup5\n        /* \"#utility.yul\":883:955   */\n      tag_18\n      jump\t// in\n    tag_36:\n        /* \"#utility.yul\":417:962   */\n      swap6\n      swap5\n      pop\n      pop\n      pop\n      pop\n      pop\n      jump\t// out\n        /* \"#utility.yul\":968:1058   */\n    tag_19:\n        /* \"#utility.yul\":1002:1009   */\n      0x00\n        /* \"#utility.yul\":1045:1050   */\n      dup2\n        /* \"#utility.yul\":1038:1051   */\n      iszero\n        /* \"#utility.yul\":1031:1052   */\n      iszero\n        /* \"#utility.yul\":1020:1052   */\n      swap1\n      pop\n        /* \"#utility.yul\":968:1058   */\n      swap2\n      swap1\n      pop\n      jump\t// out\n        /* \"#utility.yul\":1064:1173   */\n    tag_20:\n        /* \"#utility.yul\":1145:1166   */\n      tag_39\n        /* \"#utility.yul\":1160:1165   */\n      dup2\n        /* \"#utility.yul\":1145:1166   */\n      tag_19\n      jump\t// in\n    tag_39:\n        /* \"#utility.yul\":1140:1143   */\n      dup3\n        /* \"#utility.yul\":1133:1167   */\n      mstore\n        /* \"#utility.yul\":1064:1173   */\n      pop\n      pop\n      jump\t// out\n        /* \"#utility.yul\":1179:1268   */\n    tag_21:\n        /* \"#utility.yul\":1213:1220   */\n      0x00\n        /* \"#utility.yul\":1256:1261   */\n      dup2\n        /* \"#utility.yul\":1253:1254   */\n      0x00\n        /* \"#utility.yul\":1242:1262   */\n      signextend\n        /* \"#utility.yul\":1231:1262   */\n      swap1\n      pop\n        /* \"#utility.yul\":1179:1268   */\n      swap2\n      swap1\n      pop\n      jump\t// out\n        /* \"#utility.yul\":1274:1383   */\n    tag_22:\n        /* \"#utility.yul\":1355:1376   */\n      tag_42\n        /* \"#utility.yul\":1370:1375   */\n      dup2\n        /* \"#utility.yul\":1355:1376   */\n      tag_21\n      jump\t// in\n    tag_42:\n        /* \"#utility.yul\":1350:1353   */\n      dup3\n        /* \"#utility.yul\":1343:1377   */\n      mstore\n        /* \"#utility.yul\":1274:1383   */\n      pop\n      pop\n      jump\t// out\n        /* \"#utility.yul\":1389:1479   */\n    tag_23:\n        /* \"#utility.yul\":1424:1431   */\n      0x00\n        /* \"#utility.yul\":1467:1472   */\n      dup2\n        /* \"#utility.yul\":1464:1465   */\n      0x01\n        /* \"#utility.yul\":1453:1473   */\n      signextend\n        /* \"#utility.yul\":1442:1473   */\n      swap1\n      pop\n        /* \"#utility.yul\":1389:1479   */\n      swap2\n      swap1\n      pop\n      jump\t// out\n        /* \"#utility.yul\":1485:1597   */\n    tag_24:\n        /* \"#utility.yul\":1568:1590   */\n      tag_45\n        /* \"#utility.yul\":1584:1589   */\n      dup2\n        /* \"#utility.yul\":1568:1590   */\n      tag_23\n      jump\t// in\n    tag_45:\n        /* \"#utility.yul\":1563:1566   */\n      dup3\n        /* \"#utility.yul\":1556:1591   */\n      mstore\n        /* \"#utility.yul\":1485:1597   */\n      pop\n      pop\n      jump\t// out\n        /* \"#utility.yul\":1603:2322   */\n    tag_12:\n        /* \"#utility.yul\":1808:1812   */\n      0x00\n        /* \"#utility.yul\":1846:1849   */\n      0xc0\n        /* \"#utility.yul\":1835:1844   */\n      dup3\n        /* \"#utility.yul\":1831:1850   */\n      add\n        /* \"#utility.yul\":1823:1850   */\n      swap1\n      pop\n        /* \"#utility.yul\":1860:1925   */\n      tag_47\n        /* \"#utility.yul\":1922:1923   */\n      0x00\n        /* \"#utility.yul\":1911:1920   */\n      dup4\n        /* \"#utility.yul\":1907:1924   */\n      add\n        /* \"#utility.yul\":1898:1904   */\n      dup10\n        /* \"#utility.yul\":1860:1925   */\n      tag_20\n      jump\t// in\n    tag_47:\n        /* \"#utility.yul\":1935:2005   */\n      tag_48\n        /* \"#utility.yul\":2001:2003   */\n      0x20\n        /* \"#utility.yul\":1990:1999   */\n      dup4\n        /* \"#utility.yul\":1986:2004   */\n      add\n        /* \"#utility.yul\":1977:1983   */\n      dup9\n        /* \"#utility.yul\":1935:2005   */\n      tag_16\n      jump\t// in\n    tag_48:\n        /* \"#utility.yul\":2015:2081   */\n      tag_49\n        /* \"#utility.yul\":2077:2079   */\n      0x40\n        /* \"#utility.yul\":2066:2075   */\n      dup4\n        /* \"#utility.yul\":2062:2080   */\n      add\n        /* \"#utility.yul\":2053:2059   */\n      dup8\n        /* \"#utility.yul\":2015:2081   */\n      tag_22\n      jump\t// in\n    tag_49:\n        /* \"#utility.yul\":2091:2157   */\n      tag_50\n        /* \"#utility.yul\":2153:2155   */\n      0x60\n        /* \"#utility.yul\":2142:2151   */\n      dup4\n        /* \"#utility.yul\":2138:2156   */\n      add\n        /* \"#utility.yul\":2129:2135   */\n      dup7\n        /* \"#utility.yul\":2091:2157   */\n      tag_22\n      jump\t// in\n    tag_50:\n        /* \"#utility.yul\":2167:2236   */\n      tag_51\n        /* \"#utility.yul\":2231:2234   */\n      0x80\n        /* \"#utility.yul\":2220:2229   */\n      dup4\n        /* \"#utility.yul\":2216:2235   */\n      add\n        /* \"#utility.yul\":2207:2213   */\n      dup6\n        /* \"#utility.yul\":2167:2236   */\n      tag_24\n      jump\t// in\n    tag_51:\n        /* \"#utility.yul\":2246:2315   */\n      tag_52\n        /* \"#utility.yul\":2310:2313   */\n      0xa0\n        /* \"#utility.yul\":2299:2308   */\n      dup4\n        /* \"#utility.yul\":2295:2314   */\n      add\n        /* \"#utility.yul\":2286:2292   */\n      dup5\n        /* \"#utility.yul\":2246:2315   */\n      tag_24\n      jump\t// in\n    tag_52:\n        /* \"#utility.yul\":1603:2322   */\n      swap8\n      swap7\n      pop\n      pop\n      pop\n      pop\n      pop\n      pop\n      pop\n      jump\t// out\n\n    auxdata: 0xa2646970667358221220079deb9b0ba0539694f23291d5bc18ae934647dd76793b34eea2b44ed85938eb64736f6c634300081e0033\n}\n",
				"bytecode": {
					"linkReferences": {},
					"object": "6080604052348015600e575f5ffd5b506102df8061001c5f395ff3fe608060405234801561000f575f5ffd5b5060043610610034575f3560e01c806330165abf14610038578063b4579d6014610059575b5f5ffd5b61004061007c565b60405161005094939291906101b8565b60405180910390f35b610061610106565b6040516100739695949392919061024a565b60405180910390f35b5f5f5f5f5f7f800000000000000000000000000000000000000000000000000000000000000090505f7f7fffffffffffffffffffffffffffffffffffffffffffffffffffffffffffffff90505f5f90505f7f7fffffffffffffffffffffffffffffffffffffffffffffffffffffffffffffff90508383838397509750975097505050505090919293565b5f5f5f5f5f5f5f5f90505f600190505f7fffffffffffffffffffffffffffffffffffffffffffffffffffffffffffffff8090505f607f90505f7fffffffffffffffffffffffffffffffffffffffffffffffffffffffffffff800090505f617fff90508585858585859b509b509b509b509b509b50505050505050909192939495565b5f819050919050565b61019a81610188565b82525050565b5f819050919050565b6101b2816101a0565b82525050565b5f6080820190506101cb5f830187610191565b6101d86020830186610191565b6101e560408301856101a9565b6101f260608301846101a9565b95945050505050565b5f8115159050919050565b61020f816101fb565b82525050565b5f815f0b9050919050565b61022981610215565b82525050565b5f8160010b9050919050565b6102448161022f565b82525050565b5f60c08201905061025d5f830189610206565b61026a6020830188610191565b6102776040830187610220565b6102846060830186610220565b610291608083018561023b565b61029e60a083018461023b565b97965050505050505056fea2646970667358221220079deb9b0ba0539694f23291d5bc18ae934647dd76793b34eea2b44ed85938eb64736f6c634300081e0033",
					"opcodes": "PUSH1 0x80 PUSH1 0x40 MSTORE CALLVALUE DUP1 ISZERO PUSH1 0xE JUMPI PUSH0 PUSH0 REVERT JUMPDEST POP PUSH2 0x2DF DUP1 PUSH2 0x1C PUSH0 CODECOPY PUSH0 RETURN INVALID PUSH1 0x80 PUSH1 0x40 MSTORE CALLVALUE DUP1 ISZERO PUSH2 0xF JUMPI PUSH0 PUSH0 REVERT JUMPDEST POP PUSH1 0x4 CALLDATASIZE LT PUSH2 0x34 JUMPI PUSH0 CALLDATALOAD PUSH1 0xE0 SHR DUP1 PUSH4 0x30165ABF EQ PUSH2 0x38 JUMPI DUP1 PUSH4 0xB4579D60 EQ PUSH2 0x59 JUMPI JUMPDEST PUSH0 PUSH0 REVERT JUMPDEST PUSH2 0x40 PUSH2 0x7C JUMP JUMPDEST PUSH1 0x40 MLOAD PUSH2 0x50 SWAP5 SWAP4 SWAP3 SWAP2 SWAP1 PUSH2 0x1B8 JUMP JUMPDEST PUSH1 0x40 MLOAD DUP1 SWAP2 SUB SWAP1 RETURN JUMPDEST PUSH2 0x61 PUSH2 0x106 JUMP JUMPDEST PUSH1 0x40 MLOAD PUSH2 0x73 SWAP7 SWAP6 SWAP5 SWAP4 SWAP3 SWAP2 SWAP1 PUSH2 0x24A JUMP JUMPDEST PUSH1 0x40 MLOAD DUP1 SWAP2 SUB SWAP1 RETURN JUMPDEST PUSH0 PUSH0 PUSH0 PUSH0 PUSH0 PUSH32 0x8000000000000000000000000000000000000000000000000000000000000000 SWAP1 POP PUSH0 PUSH32 0x7FFFFFFFFFFFFFFFFFFFFFFFFFFFFFFFFFFFFFFFFFFFFFFFFFFFFFFFFFFFFFFF SWAP1 POP PUSH0 PUSH0 SWAP1 POP PUSH0 PUSH32 0x7FFFFFFFFFFFFFFFFFFFFFFFFFFFFFFFFFFFFFFFFFFFFFFFFFFFFFFFFFFFFFFF SWAP1 POP DUP4 DUP4 DUP4 DUP4 SWAP8 POP SWAP8 POP SWAP8 POP SWAP8 POP POP POP POP POP SWAP1 SWAP2 SWAP3 SWAP4 JUMP JUMPDEST PUSH0 PUSH0 PUSH0 PUSH0 PUSH0 PUSH0 PUSH0 PUSH0 SWAP1 POP PUSH0 PUSH1 0x1 SWAP1 POP PUSH0 PUSH32 0xFFFFFFFFFFFFFFFFFFFFFFFFFFFFFFFFFFFFFFFFFFFFFFFFFFFFFFFFFFFFFF80 SWAP1 POP PUSH0 PUSH1 0x7F SWAP1 POP PUSH0 PUSH32 0xFFFFFFFFFFFFFFFFFFFFFFFFFFFFFFFFFFFFFFFFFFFFFFFFFFFFFFFFFFFF8000 SWAP1 POP PUSH0 PUSH2 0x7FFF SWAP1 POP DUP6 DUP6 DUP6 DUP6 DUP6 DUP6 SWAP12 POP SWAP12 POP SWAP12 POP SWAP12 POP SWAP12 POP SWAP12 POP POP POP POP POP POP POP SWAP1 SWAP2 SWAP3 SWAP4 SWAP5 SWAP6 JUMP JUMPDEST PUSH0 DUP2 SWAP1 POP SWAP2 SWAP1 POP JUMP JUMPDEST PUSH2 0x19A DUP2 PUSH2 0x188 JUMP JUMPDEST DUP3 MSTORE POP POP JUMP JUMPDEST PUSH0 DUP2 SWAP1 POP SWAP2 SWAP1 POP JUMP JUMPDEST PUSH2 0x1B2 DUP2 PUSH2 0x1A0 JUMP JUMPDEST DUP3 MSTORE POP POP JUMP JUMPDEST PUSH0 PUSH1 0x80 DUP3 ADD SWAP1 POP PUSH2 0x1CB PUSH0 DUP4 ADD DUP8 PUSH2 0x191 JUMP JUMPDEST PUSH2 0x1D8 PUSH1 0x20 DUP4 ADD DUP7 PUSH2 0x191 JUMP JUMPDEST PUSH2 0x1E5 PUSH1 0x40 DUP4 ADD DUP6 PUSH2 0x1A9 JUMP JUMPDEST PUSH2 0x1F2 PUSH1 0x60 DUP4 ADD DUP5 PUSH2 0x1A9 JUMP JUMPDEST SWAP6 SWAP5 POP POP POP POP POP JUMP JUMPDEST PUSH0 DUP2 ISZERO ISZERO SWAP1 POP SWAP2 SWAP1 POP JUMP JUMPDEST PUSH2 0x20F DUP2 PUSH2 0x1FB JUMP JUMPDEST DUP3 MSTORE POP POP JUMP JUMPDEST PUSH0 DUP2 PUSH0 SIGNEXTEND SWAP1 POP SWAP2 SWAP1 POP JUMP JUMPDEST PUSH2 0x229 DUP2 PUSH2 0x215 JUMP JUMPDEST DUP3 MSTORE POP POP JUMP JUMPDEST PUSH0 DUP2 PUSH1 0x1 SIGNEXTEND SWAP1 POP SWAP2 SWAP1 POP JUMP JUMPDEST PUSH2 0x244 DUP2 PUSH2 0x22F JUMP JUMPDEST DUP3 MSTORE POP POP JUMP JUMPDEST PUSH0 PUSH1 0xC0 DUP3 ADD SWAP1 POP PUSH2 0x25D PUSH0 DUP4 ADD DUP10 PUSH2 0x206 JUMP JUMPDEST PUSH2 0x26A PUSH1 0x20 DUP4 ADD DUP9 PUSH2 0x191 JUMP JUMPDEST PUSH2 0x277 PUSH1 0x40 DUP4 ADD DUP8 PUSH2 0x220 JUMP JUMPDEST PUSH2 0x284 PUSH1 0x60 DUP4 ADD DUP7 PUSH2 0x220 JUMP JUMPDEST PUSH2 0x291 PUSH1 0x80 DUP4 ADD DUP6 PUSH2 0x23B JUMP JUMPDEST PUSH2 0x29E PUSH1 0xA0 DUP4 ADD DUP5 PUSH2 0x23B JUMP JUMPDEST SWAP8 SWAP7 POP POP POP POP POP POP POP JUMP INVALID LOG2 PUSH5 0x6970667358 0x22 SLT KECCAK256 SMOD SWAP14 0xEB SWAP12 SIGNEXTEND LOG0 MSTORE8 SWAP7 SWAP5 CALLCODE ORIGIN SWAP2 0xD5 0xBC XOR 0xAE SWAP4 CHAINID SELFBALANCE 0xDD PUSH23 0x793B34EEA2B44ED85938EB64736F6C634300081E003300 "
				},
				"gasEstimates": {
					"creation": {
						"codeDepositCost": "147000",
						"executionCost": "188",
						"totalCost": "147188"
					},
					"external": {
						"getTypes()": "infinite",
						"getUintTypes()": "infinite"
					}
				},
				"methodIdentifiers": {
					"getTypes()": "b4579d60",
					"getUintTypes()": "30165abf"
				}
			},
			"storageLayout": {
				"storage": [],
				"types": null
			},
			"userdoc": {
				"kind": "user",
				"methods": {},
				"version": 1
			}
		}
	}
}