{
	"@course/meta-node/solidity/mine/solidity_lesson/hardhat-demo2/contracts/test/TestInitializable.sol": {
		"SimpleUpgradeable": {
			"abi": [
				{
					"inputs": [
						{
							"internalType": "address",
							"name": "target",
							"type": "address"
						}
					],
					"name": "AddressEmptyCode",
					"type": "error"
				},
				{
					"inputs": [
						{
							"internalType": "address",
							"name": "implementation",
							"type": "address"
						}
					],
					"name": "ERC1967InvalidImplementation",
					"type": "error"
				},
				{
					"inputs": [],
					"name": "ERC1967NonPayable",
					"type": "error"
				},
				{
					"inputs": [],
					"name": "FailedCall",
					"type": "error"
				},
				{
					"inputs": [],
					"name": "InvalidInitialization",
					"type": "error"
				},
				{
					"inputs": [],
					"name": "NotInitializing",
					"type": "error"
				},
				{
					"inputs": [
						{
							"internalType": "address",
							"name": "owner",
							"type": "address"
						}
					],
					"name": "OwnableInvalidOwner",
					"type": "error"
				},
				{
					"inputs": [
						{
							"internalType": "address",
							"name": "account",
							"type": "address"
						}
					],
					"name": "OwnableUnauthorizedAccount",
					"type": "error"
				},
				{
					"inputs": [],
					"name": "UUPSUnauthorizedCallContext",
					"type": "error"
				},
				{
					"inputs": [
						{
							"internalType": "bytes32",
							"name": "slot",
							"type": "bytes32"
						}
					],
					"name": "UUPSUnsupportedProxiableUUID",
					"type": "error"
				},
				{
					"anonymous": false,
					"inputs": [
						{
							"indexed": false,
							"internalType": "uint64",
							"name": "version",
							"type": "uint64"
						}
					],
					"name": "Initialized",
					"type": "event"
				},
				{
					"anonymous": false,
					"inputs": [
						{
							"indexed": true,
							"internalType": "address",
							"name": "previousOwner",
							"type": "address"
						},
						{
							"indexed": true,
							"internalType": "address",
							"name": "newOwner",
							"type": "address"
						}
					],
					"name": "OwnershipTransferred",
					"type": "event"
				},
				{
					"anonymous": false,
					"inputs": [
						{
							"indexed": true,
							"internalType": "address",
							"name": "implementation",
							"type": "address"
						}
					],
					"name": "Upgraded",
					"type": "event"
				},
				{
					"inputs": [],
					"name": "UPGRADE_INTERFACE_VERSION",
					"outputs": [
						{
							"internalType": "string",
							"name": "",
							"type": "string"
						}
					],
					"stateMutability": "view",
					"type": "function"
				},
				{
					"inputs": [],
					"name": "creator",
					"outputs": [
						{
							"internalType": "address",
							"name": "",
							"type": "address"
						}
					],
					"stateMutability": "view",
					"type": "function"
				},
				{
					"inputs": [
						{
							"internalType": "uint256",
							"name": "_initialValue",
							"type": "uint256"
						},
						{
							"internalType": "string",
							"name": "_initialMessage",
							"type": "string"
						}
					],
					"name": "initialize",
					"outputs": [],
					"stateMutability": "nonpayable",
					"type": "function"
				},
				{
					"inputs": [],
					"name": "message",
					"outputs": [
						{
							"internalType": "string",
							"name": "",
							"type": "string"
						}
					],
					"stateMutability": "view",
					"type": "function"
				},
				{
					"inputs": [],
					"name": "owner",
					"outputs": [
						{
							"internalType": "address",
							"name": "",
							"type": "address"
						}
					],
					"stateMutability": "view",
					"type": "function"
				},
				{
					"inputs": [],
					"name": "proxiableUUID",
					"outputs": [
						{
							"internalType": "bytes32",
							"name": "",
							"type": "bytes32"
						}
					],
					"stateMutability": "view",
					"type": "function"
				},
				{
					"inputs": [],
					"name": "renounceOwnership",
					"outputs": [],
					"stateMutability": "nonpayable",
					"type": "function"
				},
				{
					"inputs": [
						{
							"internalType": "string",
							"name": "_newMessage",
							"type": "string"
						}
					],
					"name": "setMessage",
					"outputs": [],
					"stateMutability": "nonpayable",
					"type": "function"
				},
				{
					"inputs": [
						{
							"internalType": "uint256",
							"name": "_newValue",
							"type": "uint256"
						}
					],
					"name": "setValue",
					"outputs": [],
					"stateMutability": "nonpayable",
					"type": "function"
				},
				{
					"inputs": [
						{
							"internalType": "address",
							"name": "newOwner",
							"type": "address"
						}
					],
					"name": "transferOwnership",
					"outputs": [],
					"stateMutability": "nonpayable",
					"type": "function"
				},
				{
					"inputs": [
						{
							"internalType": "address",
							"name": "newImplementation",
							"type": "address"
						},
						{
							"internalType": "bytes",
							"name": "data",
							"type": "bytes"
						}
					],
					"name": "upgradeToAndCall",
					"outputs": [],
					"stateMutability": "payable",
					"type": "function"
				},
				{
					"inputs": [],
					"name": "value",
					"outputs": [
						{
							"internalType": "uint256",
							"name": "",
							"type": "uint256"
						}
					],
					"stateMutability": "view",
					"type": "function"
				}
			],
			"devdoc": {
				"errors": {
					"AddressEmptyCode(address)": [
						{
							"details": "There's no code at `target` (it is not a contract)."
						}
					],
					"ERC1967InvalidImplementation(address)": [
						{
							"details": "The `implementation` of the proxy is invalid."
						}
					],
					"ERC1967NonPayable()": [
						{
							"details": "An upgrade function sees `msg.value > 0` that may be lost."
						}
					],
					"FailedCall()": [
						{
							"details": "A call to an address target failed. The target may have reverted."
						}
					],
					"InvalidInitialization()": [
						{
							"details": "The contract is already initialized."
						}
					],
					"NotInitializing()": [
						{
							"details": "The contract is not initializing."
						}
					],
					"OwnableInvalidOwner(address)": [
						{
							"details": "The owner is not a valid owner account. (eg. `address(0)`)"
						}
					],
					"OwnableUnauthorizedAccount(address)": [
						{
							"details": "The caller account is not authorized to perform an operation."
						}
					],
					"UUPSUnauthorizedCallContext()": [
						{
							"details": "The call is from an unauthorized context."
						}
					],
					"UUPSUnsupportedProxiableUUID(bytes32)": [
						{
							"details": "The storage `slot` is unsupported as a UUID."
						}
					]
				},
				"events": {
					"Initialized(uint64)": {
						"details": "Triggered when the contract has been initialized or reinitialized."
					},
					"Upgraded(address)": {
						"details": "Emitted when the implementation is upgraded."
					}
				},
				"kind": "dev",
				"methods": {
					"owner()": {
						"details": "Returns the address of the current owner."
					},
					"proxiableUUID()": {
						"details": "Implementation of the ERC-1822 {proxiableUUID} function. This returns the storage slot used by the implementation. It is used to validate the implementation's compatibility when performing an upgrade. IMPORTANT: A proxy pointing at a proxiable contract should not be considered proxiable itself, because this risks bricking a proxy that upgrades to it, by delegating to itself until out of gas. Thus it is critical that this function revert if invoked through a proxy. This is guaranteed by the `notDelegated` modifier."
					},
					"renounceOwnership()": {
						"details": "Leaves the contract without owner. It will not be possible to call `onlyOwner` functions. Can only be called by the current owner. NOTE: Renouncing ownership will leave the contract without an owner, thereby disabling any functionality that is only available to the owner."
					},
					"transferOwnership(address)": {
						"details": "Transfers ownership of the contract to a new account (`newOwner`). Can only be called by the current owner."
					},
					"upgradeToAndCall(address,bytes)": {
						"custom:oz-upgrades-unsafe-allow-reachable": "delegatecall",
						"details": "Upgrade the implementation of the proxy to `newImplementation`, and subsequently execute the function call encoded in `data`. Calls {_authorizeUpgrade}. Emits an {Upgraded} event."
					}
				},
				"version": 1
			},
			"evm": {
				"assembly": "    /* \"@course/meta-node/solidity/mine/solidity_lesson/hardhat-demo2/contracts/test/TestInitializable.sol\":295:1215  contract SimpleUpgradeable is Initializable, UUPSUpgradeable, OwnableUpgradeable {... */\n  mstore(0x40, 0xa0)\n    /* \"@openzeppelin/contracts-upgradeable/proxy/utils/UUPSUpgradeable.sol\":1171:1175  this */\n  address\n    /* \"@openzeppelin/contracts-upgradeable/proxy/utils/UUPSUpgradeable.sol\":1128:1176  address private immutable __self = address(this) */\n  0xffffffffffffffffffffffffffffffffffffffff\n  and\n  0x80\n  swap1\n  0xffffffffffffffffffffffffffffffffffffffff\n  and\n  dup2\n  mstore\n  pop\n    /* \"@course/meta-node/solidity/mine/solidity_lesson/hardhat-demo2/contracts/test/TestInitializable.sol\":295:1215  contract SimpleUpgradeable is Initializable, UUPSUpgradeable, OwnableUpgradeable {... */\n  callvalue\n  dup1\n  iszero\n  tag_1\n  jumpi\n  revert(0x00, 0x00)\ntag_1:\n  pop\n  mload(0x80)\n  codecopy(0x00, dataOffset(sub_0), dataSize(sub_0))\n  0x00\n  assignImmutable(\"0x70d51cd1373c3547db09959deae795a3b26b0e92b69bc03e792eef55a00cf3e5\")\n  return(0x00, dataSize(sub_0))\nstop\n\nsub_0: assembly {\n        /* \"@course/meta-node/solidity/mine/solidity_lesson/hardhat-demo2/contracts/test/TestInitializable.sol\":295:1215  contract SimpleUpgradeable is Initializable, UUPSUpgradeable, OwnableUpgradeable {... */\n      mstore(0x40, 0x80)\n      jumpi(tag_1, lt(calldatasize, 0x04))\n      shr(0xe0, calldataload(0x00))\n      dup1\n      0x6e9d13ab\n      gt\n      tag_14\n      jumpi\n      dup1\n      0x6e9d13ab\n      eq\n      tag_8\n      jumpi\n      dup1\n      0x715018a6\n      eq\n      tag_9\n      jumpi\n      dup1\n      0x8da5cb5b\n      eq\n      tag_10\n      jumpi\n      dup1\n      0xad3cb1cc\n      eq\n      tag_11\n      jumpi\n      dup1\n      0xe21f37ce\n      eq\n      tag_12\n      jumpi\n      dup1\n      0xf2fde38b\n      eq\n      tag_13\n      jumpi\n      jump(tag_1)\n    tag_14:\n      dup1\n      0x02d05d3f\n      eq\n      tag_2\n      jumpi\n      dup1\n      0x368b8772\n      eq\n      tag_3\n      jumpi\n      dup1\n      0x3fa4f245\n      eq\n      tag_4\n      jumpi\n      dup1\n      0x4f1ef286\n      eq\n      tag_5\n      jumpi\n      dup1\n      0x52d1902d\n      eq\n      tag_6\n      jumpi\n      dup1\n      0x55241077\n      eq\n      tag_7\n      jumpi\n    tag_1:\n      revert(0x00, 0x00)\n        /* \"@course/meta-node/solidity/mine/solidity_lesson/hardhat-demo2/contracts/test/TestInitializable.sol\":438:460  address public creator */\n    tag_2:\n      callvalue\n      dup1\n      iszero\n      tag_15\n      jumpi\n      revert(0x00, 0x00)\n    tag_15:\n      pop\n      tag_16\n      tag_17\n      jump\t// in\n    tag_16:\n      mload(0x40)\n      tag_18\n      swap2\n      swap1\n      tag_19\n      jump\t// in\n    tag_18:\n      mload(0x40)\n      dup1\n      swap2\n      sub\n      swap1\n      return\n        /* \"@course/meta-node/solidity/mine/solidity_lesson/hardhat-demo2/contracts/test/TestInitializable.sol\":970:1064  function setMessage(string memory _newMessage) public {... */\n    tag_3:\n      callvalue\n      dup1\n      iszero\n      tag_20\n      jumpi\n      revert(0x00, 0x00)\n    tag_20:\n      pop\n      tag_21\n      0x04\n      dup1\n      calldatasize\n      sub\n      dup2\n      add\n      swap1\n      tag_22\n      swap2\n      swap1\n      tag_23\n      jump\t// in\n    tag_22:\n      tag_24\n      jump\t// in\n    tag_21:\n      stop\n        /* \"@course/meta-node/solidity/mine/solidity_lesson/hardhat-demo2/contracts/test/TestInitializable.sol\":383:403  uint256 public value */\n    tag_4:\n      callvalue\n      dup1\n      iszero\n      tag_25\n      jumpi\n      revert(0x00, 0x00)\n    tag_25:\n      pop\n      tag_26\n      tag_27\n      jump\t// in\n    tag_26:\n      mload(0x40)\n      tag_28\n      swap2\n      swap1\n      tag_29\n      jump\t// in\n    tag_28:\n      mload(0x40)\n      dup1\n      swap2\n      sub\n      swap1\n      return\n        /* \"@openzeppelin/contracts-upgradeable/proxy/utils/UUPSUpgradeable.sol\":4161:4375  function upgradeToAndCall(address newImplementation, bytes memory data) public payable virtual onlyProxy {... */\n    tag_5:\n      tag_30\n      0x04\n      dup1\n      calldatasize\n      sub\n      dup2\n      add\n      swap1\n      tag_31\n      swap2\n      swap1\n      tag_32\n      jump\t// in\n    tag_31:\n      tag_33\n      jump\t// in\n    tag_30:\n      stop\n        /* \"@openzeppelin/contracts-upgradeable/proxy/utils/UUPSUpgradeable.sol\":3708:3842  function proxiableUUID() external view virtual notDelegated returns (bytes32) {... */\n    tag_6:\n      callvalue\n      dup1\n      iszero\n      tag_34\n      jumpi\n      revert(0x00, 0x00)\n    tag_34:\n      pop\n      tag_35\n      tag_36\n      jump\t// in\n    tag_35:\n      mload(0x40)\n      tag_37\n      swap2\n      swap1\n      tag_38\n      jump\t// in\n    tag_37:\n      mload(0x40)\n      dup1\n      swap2\n      sub\n      swap1\n      return\n        /* \"@course/meta-node/solidity/mine/solidity_lesson/hardhat-demo2/contracts/test/TestInitializable.sol\":878:958  function setValue(uint256 _newValue) public {... */\n    tag_7:\n      callvalue\n      dup1\n      iszero\n      tag_39\n      jumpi\n      revert(0x00, 0x00)\n    tag_39:\n      pop\n      tag_40\n      0x04\n      dup1\n      calldatasize\n      sub\n      dup2\n      add\n      swap1\n      tag_41\n      swap2\n      swap1\n      tag_42\n      jump\t// in\n    tag_41:\n      tag_43\n      jump\t// in\n    tag_40:\n      stop\n        /* \"@course/meta-node/solidity/mine/solidity_lesson/hardhat-demo2/contracts/test/TestInitializable.sol\":528:866  function initialize(uint256 _initialValue, string memory _initialMessage) public initializer {... */\n    tag_8:\n      callvalue\n      dup1\n      iszero\n      tag_44\n      jumpi\n      revert(0x00, 0x00)\n    tag_44:\n      pop\n      tag_45\n      0x04\n      dup1\n      calldatasize\n      sub\n      dup2\n      add\n      swap1\n      tag_46\n      swap2\n      swap1\n      tag_47\n      jump\t// in\n    tag_46:\n      tag_48\n      jump\t// in\n    tag_45:\n      stop\n        /* \"@openzeppelin/contracts-upgradeable/access/OwnableUpgradeable.sol\":3155:3256  function renounceOwnership() public virtual onlyOwner {... */\n    tag_9:\n      callvalue\n      dup1\n      iszero\n      tag_49\n      jumpi\n      revert(0x00, 0x00)\n    tag_49:\n      pop\n      tag_50\n      tag_51\n      jump\t// in\n    tag_50:\n      stop\n        /* \"@openzeppelin/contracts-upgradeable/access/OwnableUpgradeable.sol\":2441:2585  function owner() public view virtual returns (address) {... */\n    tag_10:\n      callvalue\n      dup1\n      iszero\n      tag_52\n      jumpi\n      revert(0x00, 0x00)\n    tag_52:\n      pop\n      tag_53\n      tag_54\n      jump\t// in\n    tag_53:\n      mload(0x40)\n      tag_55\n      swap2\n      swap1\n      tag_19\n      jump\t// in\n    tag_55:\n      mload(0x40)\n      dup1\n      swap2\n      sub\n      swap1\n      return\n        /* \"@openzeppelin/contracts-upgradeable/proxy/utils/UUPSUpgradeable.sol\":1819:1877  string public constant UPGRADE_INTERFACE_VERSION = \"5.0.0\" */\n    tag_11:\n      callvalue\n      dup1\n      iszero\n      tag_56\n      jumpi\n      revert(0x00, 0x00)\n    tag_56:\n      pop\n      tag_57\n      tag_58\n      jump\t// in\n    tag_57:\n      mload(0x40)\n      tag_59\n      swap2\n      swap1\n      tag_60\n      jump\t// in\n    tag_59:\n      mload(0x40)\n      dup1\n      swap2\n      sub\n      swap1\n      return\n        /* \"@course/meta-node/solidity/mine/solidity_lesson/hardhat-demo2/contracts/test/TestInitializable.sol\":410:431  string public message */\n    tag_12:\n      callvalue\n      dup1\n      iszero\n      tag_61\n      jumpi\n      revert(0x00, 0x00)\n    tag_61:\n      pop\n      tag_62\n      tag_63\n      jump\t// in\n    tag_62:\n      mload(0x40)\n      tag_64\n      swap2\n      swap1\n      tag_60\n      jump\t// in\n    tag_64:\n      mload(0x40)\n      dup1\n      swap2\n      sub\n      swap1\n      return\n        /* \"@openzeppelin/contracts-upgradeable/access/OwnableUpgradeable.sol\":3405:3620  function transferOwnership(address newOwner) public virtual onlyOwner {... */\n    tag_13:\n      callvalue\n      dup1\n      iszero\n      tag_65\n      jumpi\n      revert(0x00, 0x00)\n    tag_65:\n      pop\n      tag_66\n      0x04\n      dup1\n      calldatasize\n      sub\n      dup2\n      add\n      swap1\n      tag_67\n      swap2\n      swap1\n      tag_68\n      jump\t// in\n    tag_67:\n      tag_69\n      jump\t// in\n    tag_66:\n      stop\n        /* \"@course/meta-node/solidity/mine/solidity_lesson/hardhat-demo2/contracts/test/TestInitializable.sol\":438:460  address public creator */\n    tag_17:\n      0x02\n      0x00\n      swap1\n      sload\n      swap1\n      0x0100\n      exp\n      swap1\n      div\n      0xffffffffffffffffffffffffffffffffffffffff\n      and\n      dup2\n      jump\t// out\n        /* \"@course/meta-node/solidity/mine/solidity_lesson/hardhat-demo2/contracts/test/TestInitializable.sol\":970:1064  function setMessage(string memory _newMessage) public {... */\n    tag_24:\n        /* \"@course/meta-node/solidity/mine/solidity_lesson/hardhat-demo2/contracts/test/TestInitializable.sol\":1045:1056  _newMessage */\n      dup1\n        /* \"@course/meta-node/solidity/mine/solidity_lesson/hardhat-demo2/contracts/test/TestInitializable.sol\":1035:1042  message */\n      0x01\n        /* \"@course/meta-node/solidity/mine/solidity_lesson/hardhat-demo2/contracts/test/TestInitializable.sol\":1035:1056  message = _newMessage */\n      swap1\n      dup2\n      tag_71\n      swap2\n      swap1\n      tag_72\n      jump\t// in\n    tag_71:\n      pop\n        /* \"@course/meta-node/solidity/mine/solidity_lesson/hardhat-demo2/contracts/test/TestInitializable.sol\":970:1064  function setMessage(string memory _newMessage) public {... */\n      pop\n      jump\t// out\n        /* \"@course/meta-node/solidity/mine/solidity_lesson/hardhat-demo2/contracts/test/TestInitializable.sol\":383:403  uint256 public value */\n    tag_27:\n      sload(0x00)\n      dup2\n      jump\t// out\n        /* \"@openzeppelin/contracts-upgradeable/proxy/utils/UUPSUpgradeable.sol\":4161:4375  function upgradeToAndCall(address newImplementation, bytes memory data) public payable virtual onlyProxy {... */\n    tag_33:\n        /* \"@openzeppelin/contracts-upgradeable/proxy/utils/UUPSUpgradeable.sol\":2655:2668  _checkProxy() */\n      tag_74\n        /* \"@openzeppelin/contracts-upgradeable/proxy/utils/UUPSUpgradeable.sol\":2655:2666  _checkProxy */\n      tag_75\n        /* \"@openzeppelin/contracts-upgradeable/proxy/utils/UUPSUpgradeable.sol\":2655:2668  _checkProxy() */\n      jump\t// in\n    tag_74:\n        /* \"@openzeppelin/contracts-upgradeable/proxy/utils/UUPSUpgradeable.sol\":4276:4312  _authorizeUpgrade(newImplementation) */\n      tag_77\n        /* \"@openzeppelin/contracts-upgradeable/proxy/utils/UUPSUpgradeable.sol\":4294:4311  newImplementation */\n      dup3\n        /* \"@openzeppelin/contracts-upgradeable/proxy/utils/UUPSUpgradeable.sol\":4276:4293  _authorizeUpgrade */\n      tag_78\n        /* \"@openzeppelin/contracts-upgradeable/proxy/utils/UUPSUpgradeable.sol\":4276:4312  _authorizeUpgrade(newImplementation) */\n      jump\t// in\n    tag_77:\n        /* \"@openzeppelin/contracts-upgradeable/proxy/utils/UUPSUpgradeable.sol\":4322:4368  _upgradeToAndCallUUPS(newImplementation, data) */\n      tag_79\n        /* \"@openzeppelin/contracts-upgradeable/proxy/utils/UUPSUpgradeable.sol\":4344:4361  newImplementation */\n      dup3\n        /* \"@openzeppelin/contracts-upgradeable/proxy/utils/UUPSUpgradeable.sol\":4363:4367  data */\n      dup3\n        /* \"@openzeppelin/contracts-upgradeable/proxy/utils/UUPSUpgradeable.sol\":4322:4343  _upgradeToAndCallUUPS */\n      tag_80\n        /* \"@openzeppelin/contracts-upgradeable/proxy/utils/UUPSUpgradeable.sol\":4322:4368  _upgradeToAndCallUUPS(newImplementation, data) */\n      jump\t// in\n    tag_79:\n        /* \"@openzeppelin/contracts-upgradeable/proxy/utils/UUPSUpgradeable.sol\":4161:4375  function upgradeToAndCall(address newImplementation, bytes memory data) public payable virtual onlyProxy {... */\n      pop\n      pop\n      jump\t// out\n        /* \"@openzeppelin/contracts-upgradeable/proxy/utils/UUPSUpgradeable.sol\":3708:3842  function proxiableUUID() external view virtual notDelegated returns (bytes32) {... */\n    tag_36:\n        /* \"@openzeppelin/contracts-upgradeable/proxy/utils/UUPSUpgradeable.sol\":3777:3784  bytes32 */\n      0x00\n        /* \"@openzeppelin/contracts-upgradeable/proxy/utils/UUPSUpgradeable.sol\":2926:2946  _checkNotDelegated() */\n      tag_82\n        /* \"@openzeppelin/contracts-upgradeable/proxy/utils/UUPSUpgradeable.sol\":2926:2944  _checkNotDelegated */\n      tag_83\n        /* \"@openzeppelin/contracts-upgradeable/proxy/utils/UUPSUpgradeable.sol\":2926:2946  _checkNotDelegated() */\n      jump\t// in\n    tag_82:\n        /* \"@openzeppelin/contracts/proxy/ERC1967/ERC1967Utils.sol\":811:877  0x360894a13ba1a3210667c828492db98dca3e2076cc3735a920a3ca505d382bbc */\n      0x360894a13ba1a3210667c828492db98dca3e2076cc3735a920a3ca505d382bbc\n        /* \"@openzeppelin/contracts-upgradeable/proxy/utils/UUPSUpgradeable.sol\":3803:3835  ERC1967Utils.IMPLEMENTATION_SLOT */\n      0x00\n      shl\n        /* \"@openzeppelin/contracts-upgradeable/proxy/utils/UUPSUpgradeable.sol\":3796:3835  return ERC1967Utils.IMPLEMENTATION_SLOT */\n      swap1\n      pop\n        /* \"@openzeppelin/contracts-upgradeable/proxy/utils/UUPSUpgradeable.sol\":3708:3842  function proxiableUUID() external view virtual notDelegated returns (bytes32) {... */\n      swap1\n      jump\t// out\n        /* \"@course/meta-node/solidity/mine/solidity_lesson/hardhat-demo2/contracts/test/TestInitializable.sol\":878:958  function setValue(uint256 _newValue) public {... */\n    tag_43:\n        /* \"@course/meta-node/solidity/mine/solidity_lesson/hardhat-demo2/contracts/test/TestInitializable.sol\":941:950  _newValue */\n      dup1\n        /* \"@course/meta-node/solidity/mine/solidity_lesson/hardhat-demo2/contracts/test/TestInitializable.sol\":933:938  value */\n      0x00\n        /* \"@course/meta-node/solidity/mine/solidity_lesson/hardhat-demo2/contracts/test/TestInitializable.sol\":933:950  value = _newValue */\n      dup2\n      swap1\n      sstore\n      pop\n        /* \"@course/meta-node/solidity/mine/solidity_lesson/hardhat-demo2/contracts/test/TestInitializable.sol\":878:958  function setValue(uint256 _newValue) public {... */\n      pop\n      jump\t// out\n        /* \"@course/meta-node/solidity/mine/solidity_lesson/hardhat-demo2/contracts/test/TestInitializable.sol\":528:866  function initialize(uint256 _initialValue, string memory _initialMessage) public initializer {... */\n    tag_48:\n        /* \"@openzeppelin/contracts-upgradeable/proxy/utils/Initializable.sol\":4158:4188  InitializableStorage storage $ */\n      0x00\n        /* \"@openzeppelin/contracts-upgradeable/proxy/utils/Initializable.sol\":4191:4217  _getInitializableStorage() */\n      tag_87\n        /* \"@openzeppelin/contracts-upgradeable/proxy/utils/Initializable.sol\":4191:4215  _getInitializableStorage */\n      tag_88\n        /* \"@openzeppelin/contracts-upgradeable/proxy/utils/Initializable.sol\":4191:4217  _getInitializableStorage() */\n      jump\t// in\n    tag_87:\n        /* \"@openzeppelin/contracts-upgradeable/proxy/utils/Initializable.sol\":4158:4217  InitializableStorage storage $ = _getInitializableStorage() */\n      swap1\n      pop\n        /* \"@openzeppelin/contracts-upgradeable/proxy/utils/Initializable.sol\":4279:4298  bool isTopLevelCall */\n      0x00\n        /* \"@openzeppelin/contracts-upgradeable/proxy/utils/Initializable.sol\":4302:4303  $ */\n      dup2\n        /* \"@openzeppelin/contracts-upgradeable/proxy/utils/Initializable.sol\":4302:4317  $._initializing */\n      0x00\n      add\n      0x08\n      swap1\n      sload\n      swap1\n      0x0100\n      exp\n      swap1\n      div\n      0xff\n      and\n        /* \"@openzeppelin/contracts-upgradeable/proxy/utils/Initializable.sol\":4301:4317  !$._initializing */\n      iszero\n        /* \"@openzeppelin/contracts-upgradeable/proxy/utils/Initializable.sol\":4279:4317  bool isTopLevelCall = !$._initializing */\n      swap1\n      pop\n        /* \"@openzeppelin/contracts-upgradeable/proxy/utils/Initializable.sol\":4327:4345  uint64 initialized */\n      0x00\n        /* \"@openzeppelin/contracts-upgradeable/proxy/utils/Initializable.sol\":4348:4349  $ */\n      dup3\n        /* \"@openzeppelin/contracts-upgradeable/proxy/utils/Initializable.sol\":4348:4362  $._initialized */\n      0x00\n      add\n      0x00\n      swap1\n      sload\n      swap1\n      0x0100\n      exp\n      swap1\n      div\n      0xffffffffffffffff\n      and\n        /* \"@openzeppelin/contracts-upgradeable/proxy/utils/Initializable.sol\":4327:4362  uint64 initialized = $._initialized */\n      swap1\n      pop\n        /* \"@openzeppelin/contracts-upgradeable/proxy/utils/Initializable.sol\":4704:4721  bool initialSetup */\n      0x00\n        /* \"@openzeppelin/contracts-upgradeable/proxy/utils/Initializable.sol\":4739:4740  0 */\n      0x00\n        /* \"@openzeppelin/contracts-upgradeable/proxy/utils/Initializable.sol\":4724:4735  initialized */\n      dup3\n        /* \"@openzeppelin/contracts-upgradeable/proxy/utils/Initializable.sol\":4724:4740  initialized == 0 */\n      0xffffffffffffffff\n      and\n      eq\n        /* \"@openzeppelin/contracts-upgradeable/proxy/utils/Initializable.sol\":4724:4758  initialized == 0 && isTopLevelCall */\n      dup1\n      iszero\n      tag_89\n      jumpi\n      pop\n        /* \"@openzeppelin/contracts-upgradeable/proxy/utils/Initializable.sol\":4744:4758  isTopLevelCall */\n      dup3\n        /* \"@openzeppelin/contracts-upgradeable/proxy/utils/Initializable.sol\":4724:4758  initialized == 0 && isTopLevelCall */\n    tag_89:\n        /* \"@openzeppelin/contracts-upgradeable/proxy/utils/Initializable.sol\":4704:4758  bool initialSetup = initialized == 0 && isTopLevelCall */\n      swap1\n      pop\n        /* \"@openzeppelin/contracts-upgradeable/proxy/utils/Initializable.sol\":4768:4785  bool construction */\n      0x00\n        /* \"@openzeppelin/contracts-upgradeable/proxy/utils/Initializable.sol\":4803:4804  1 */\n      0x01\n        /* \"@openzeppelin/contracts-upgradeable/proxy/utils/Initializable.sol\":4788:4799  initialized */\n      dup4\n        /* \"@openzeppelin/contracts-upgradeable/proxy/utils/Initializable.sol\":4788:4804  initialized == 1 */\n      0xffffffffffffffff\n      and\n      eq\n        /* \"@openzeppelin/contracts-upgradeable/proxy/utils/Initializable.sol\":4788:4838  initialized == 1 && address(this).code.length == 0 */\n      dup1\n      iszero\n      tag_90\n      jumpi\n      pop\n        /* \"@openzeppelin/contracts-upgradeable/proxy/utils/Initializable.sol\":4837:4838  0 */\n      0x00\n        /* \"@openzeppelin/contracts-upgradeable/proxy/utils/Initializable.sol\":4816:4820  this */\n      address\n        /* \"@openzeppelin/contracts-upgradeable/proxy/utils/Initializable.sol\":4808:4833  address(this).code.length */\n      0xffffffffffffffffffffffffffffffffffffffff\n      and\n      extcodesize\n        /* \"@openzeppelin/contracts-upgradeable/proxy/utils/Initializable.sol\":4808:4838  address(this).code.length == 0 */\n      eq\n        /* \"@openzeppelin/contracts-upgradeable/proxy/utils/Initializable.sol\":4788:4838  initialized == 1 && address(this).code.length == 0 */\n    tag_90:\n        /* \"@openzeppelin/contracts-upgradeable/proxy/utils/Initializable.sol\":4768:4838  bool construction = initialized == 1 && address(this).code.length == 0 */\n      swap1\n      pop\n        /* \"@openzeppelin/contracts-upgradeable/proxy/utils/Initializable.sol\":4854:4866  initialSetup */\n      dup2\n        /* \"@openzeppelin/contracts-upgradeable/proxy/utils/Initializable.sol\":4853:4866  !initialSetup */\n      iszero\n        /* \"@openzeppelin/contracts-upgradeable/proxy/utils/Initializable.sol\":4853:4883  !initialSetup && !construction */\n      dup1\n      iszero\n      tag_91\n      jumpi\n      pop\n        /* \"@openzeppelin/contracts-upgradeable/proxy/utils/Initializable.sol\":4871:4883  construction */\n      dup1\n        /* \"@openzeppelin/contracts-upgradeable/proxy/utils/Initializable.sol\":4870:4883  !construction */\n      iszero\n        /* \"@openzeppelin/contracts-upgradeable/proxy/utils/Initializable.sol\":4853:4883  !initialSetup && !construction */\n    tag_91:\n        /* \"@openzeppelin/contracts-upgradeable/proxy/utils/Initializable.sol\":4849:4940  if (!initialSetup && !construction) {... */\n      iszero\n      tag_92\n      jumpi\n        /* \"@openzeppelin/contracts-upgradeable/proxy/utils/Initializable.sol\":4906:4929  InvalidInitialization() */\n      mload(0x40)\n      0xf92ee8a900000000000000000000000000000000000000000000000000000000\n      dup2\n      mstore\n      0x04\n      add\n      mload(0x40)\n      dup1\n      swap2\n      sub\n      swap1\n      revert\n        /* \"@openzeppelin/contracts-upgradeable/proxy/utils/Initializable.sol\":4849:4940  if (!initialSetup && !construction) {... */\n    tag_92:\n        /* \"@openzeppelin/contracts-upgradeable/proxy/utils/Initializable.sol\":4966:4967  1 */\n      0x01\n        /* \"@openzeppelin/contracts-upgradeable/proxy/utils/Initializable.sol\":4949:4950  $ */\n      dup6\n        /* \"@openzeppelin/contracts-upgradeable/proxy/utils/Initializable.sol\":4949:4963  $._initialized */\n      0x00\n      add\n      0x00\n        /* \"@openzeppelin/contracts-upgradeable/proxy/utils/Initializable.sol\":4949:4967  $._initialized = 1 */\n      0x0100\n      exp\n      dup2\n      sload\n      dup2\n      0xffffffffffffffff\n      mul\n      not\n      and\n      swap1\n      dup4\n      0xffffffffffffffff\n      and\n      mul\n      or\n      swap1\n      sstore\n      pop\n        /* \"@openzeppelin/contracts-upgradeable/proxy/utils/Initializable.sol\":4981:4995  isTopLevelCall */\n      dup4\n        /* \"@openzeppelin/contracts-upgradeable/proxy/utils/Initializable.sol\":4977:5044  if (isTopLevelCall) {... */\n      iszero\n      tag_93\n      jumpi\n        /* \"@openzeppelin/contracts-upgradeable/proxy/utils/Initializable.sol\":5029:5033  true */\n      0x01\n        /* \"@openzeppelin/contracts-upgradeable/proxy/utils/Initializable.sol\":5011:5012  $ */\n      dup6\n        /* \"@openzeppelin/contracts-upgradeable/proxy/utils/Initializable.sol\":5011:5026  $._initializing */\n      0x00\n      add\n      0x08\n        /* \"@openzeppelin/contracts-upgradeable/proxy/utils/Initializable.sol\":5011:5033  $._initializing = true */\n      0x0100\n      exp\n      dup2\n      sload\n      dup2\n      0xff\n      mul\n      not\n      and\n      swap1\n      dup4\n      iszero\n      iszero\n      mul\n      or\n      swap1\n      sstore\n      pop\n        /* \"@openzeppelin/contracts-upgradeable/proxy/utils/Initializable.sol\":4977:5044  if (isTopLevelCall) {... */\n    tag_93:\n        /* \"@course/meta-node/solidity/mine/solidity_lesson/hardhat-demo2/contracts/test/TestInitializable.sol\":663:686  __Ownable_init(creator) */\n      tag_95\n        /* \"@course/meta-node/solidity/mine/solidity_lesson/hardhat-demo2/contracts/test/TestInitializable.sol\":678:685  creator */\n      0x02\n      0x00\n      swap1\n      sload\n      swap1\n      0x0100\n      exp\n      swap1\n      div\n      0xffffffffffffffffffffffffffffffffffffffff\n      and\n        /* \"@course/meta-node/solidity/mine/solidity_lesson/hardhat-demo2/contracts/test/TestInitializable.sol\":663:677  __Ownable_init */\n      tag_96\n        /* \"@course/meta-node/solidity/mine/solidity_lesson/hardhat-demo2/contracts/test/TestInitializable.sol\":663:686  __Ownable_init(creator) */\n      jump\t// in\n    tag_95:\n        /* \"@course/meta-node/solidity/mine/solidity_lesson/hardhat-demo2/contracts/test/TestInitializable.sol\":697:721  __UUPSUpgradeable_init() */\n      tag_97\n        /* \"@course/meta-node/solidity/mine/solidity_lesson/hardhat-demo2/contracts/test/TestInitializable.sol\":697:719  __UUPSUpgradeable_init */\n      tag_98\n        /* \"@course/meta-node/solidity/mine/solidity_lesson/hardhat-demo2/contracts/test/TestInitializable.sol\":697:721  __UUPSUpgradeable_init() */\n      jump\t// in\n    tag_97:\n        /* \"@course/meta-node/solidity/mine/solidity_lesson/hardhat-demo2/contracts/test/TestInitializable.sol\":778:791  _initialValue */\n      dup7\n        /* \"@course/meta-node/solidity/mine/solidity_lesson/hardhat-demo2/contracts/test/TestInitializable.sol\":770:775  value */\n      0x00\n        /* \"@course/meta-node/solidity/mine/solidity_lesson/hardhat-demo2/contracts/test/TestInitializable.sol\":770:791  value = _initialValue */\n      dup2\n      swap1\n      sstore\n      pop\n        /* \"@course/meta-node/solidity/mine/solidity_lesson/hardhat-demo2/contracts/test/TestInitializable.sol\":812:827  _initialMessage */\n      dup6\n        /* \"@course/meta-node/solidity/mine/solidity_lesson/hardhat-demo2/contracts/test/TestInitializable.sol\":802:809  message */\n      0x01\n        /* \"@course/meta-node/solidity/mine/solidity_lesson/hardhat-demo2/contracts/test/TestInitializable.sol\":802:827  message = _initialMessage */\n      swap1\n      dup2\n      tag_99\n      swap2\n      swap1\n      tag_72\n      jump\t// in\n    tag_99:\n      pop\n        /* \"@course/meta-node/solidity/mine/solidity_lesson/hardhat-demo2/contracts/test/TestInitializable.sol\":848:858  msg.sender */\n      caller\n        /* \"@course/meta-node/solidity/mine/solidity_lesson/hardhat-demo2/contracts/test/TestInitializable.sol\":838:845  creator */\n      0x02\n      0x00\n        /* \"@course/meta-node/solidity/mine/solidity_lesson/hardhat-demo2/contracts/test/TestInitializable.sol\":838:858  creator = msg.sender */\n      0x0100\n      exp\n      dup2\n      sload\n      dup2\n      0xffffffffffffffffffffffffffffffffffffffff\n      mul\n      not\n      and\n      swap1\n      dup4\n      0xffffffffffffffffffffffffffffffffffffffff\n      and\n      mul\n      or\n      swap1\n      sstore\n      pop\n        /* \"@openzeppelin/contracts-upgradeable/proxy/utils/Initializable.sol\":5068:5082  isTopLevelCall */\n      dup4\n        /* \"@openzeppelin/contracts-upgradeable/proxy/utils/Initializable.sol\":5064:5165  if (isTopLevelCall) {... */\n      iszero\n      tag_100\n      jumpi\n        /* \"@openzeppelin/contracts-upgradeable/proxy/utils/Initializable.sol\":5116:5121  false */\n      0x00\n        /* \"@openzeppelin/contracts-upgradeable/proxy/utils/Initializable.sol\":5098:5099  $ */\n      dup6\n        /* \"@openzeppelin/contracts-upgradeable/proxy/utils/Initializable.sol\":5098:5113  $._initializing */\n      0x00\n      add\n      0x08\n        /* \"@openzeppelin/contracts-upgradeable/proxy/utils/Initializable.sol\":5098:5121  $._initializing = false */\n      0x0100\n      exp\n      dup2\n      sload\n      dup2\n      0xff\n      mul\n      not\n      and\n      swap1\n      dup4\n      iszero\n      iszero\n      mul\n      or\n      swap1\n      sstore\n      pop\n        /* \"@openzeppelin/contracts-upgradeable/proxy/utils/Initializable.sol\":5140:5154  Initialized(1) */\n      0xc7f505b2f371ae2175ee4913f4499e1f2633a7b5936321eed1cdaeb6115181d2\n        /* \"@openzeppelin/contracts-upgradeable/proxy/utils/Initializable.sol\":5152:5153  1 */\n      0x01\n        /* \"@openzeppelin/contracts-upgradeable/proxy/utils/Initializable.sol\":5140:5154  Initialized(1) */\n      mload(0x40)\n      tag_101\n      swap2\n      swap1\n      tag_102\n      jump\t// in\n    tag_101:\n      mload(0x40)\n      dup1\n      swap2\n      sub\n      swap1\n      log1\n        /* \"@openzeppelin/contracts-upgradeable/proxy/utils/Initializable.sol\":5064:5165  if (isTopLevelCall) {... */\n    tag_100:\n        /* \"@openzeppelin/contracts-upgradeable/proxy/utils/Initializable.sol\":4092:5171  {... */\n      pop\n      pop\n      pop\n      pop\n      pop\n        /* \"@course/meta-node/solidity/mine/solidity_lesson/hardhat-demo2/contracts/test/TestInitializable.sol\":528:866  function initialize(uint256 _initialValue, string memory _initialMessage) public initializer {... */\n      pop\n      pop\n      jump\t// out\n        /* \"@openzeppelin/contracts-upgradeable/access/OwnableUpgradeable.sol\":3155:3256  function renounceOwnership() public virtual onlyOwner {... */\n    tag_51:\n        /* \"@openzeppelin/contracts-upgradeable/access/OwnableUpgradeable.sol\":2334:2347  _checkOwner() */\n      tag_104\n        /* \"@openzeppelin/contracts-upgradeable/access/OwnableUpgradeable.sol\":2334:2345  _checkOwner */\n      tag_105\n        /* \"@openzeppelin/contracts-upgradeable/access/OwnableUpgradeable.sol\":2334:2347  _checkOwner() */\n      jump\t// in\n    tag_104:\n        /* \"@openzeppelin/contracts-upgradeable/access/OwnableUpgradeable.sol\":3219:3249  _transferOwnership(address(0)) */\n      tag_107\n        /* \"@openzeppelin/contracts-upgradeable/access/OwnableUpgradeable.sol\":3246:3247  0 */\n      0x00\n        /* \"@openzeppelin/contracts-upgradeable/access/OwnableUpgradeable.sol\":3219:3237  _transferOwnership */\n      tag_108\n        /* \"@openzeppelin/contracts-upgradeable/access/OwnableUpgradeable.sol\":3219:3249  _transferOwnership(address(0)) */\n      jump\t// in\n    tag_107:\n        /* \"@openzeppelin/contracts-upgradeable/access/OwnableUpgradeable.sol\":3155:3256  function renounceOwnership() public virtual onlyOwner {... */\n      jump\t// out\n        /* \"@openzeppelin/contracts-upgradeable/access/OwnableUpgradeable.sol\":2441:2585  function owner() public view virtual returns (address) {... */\n    tag_54:\n        /* \"@openzeppelin/contracts-upgradeable/access/OwnableUpgradeable.sol\":2487:2494  address */\n      0x00\n        /* \"@openzeppelin/contracts-upgradeable/access/OwnableUpgradeable.sol\":2506:2530  OwnableStorage storage $ */\n      0x00\n        /* \"@openzeppelin/contracts-upgradeable/access/OwnableUpgradeable.sol\":2533:2553  _getOwnableStorage() */\n      tag_110\n        /* \"@openzeppelin/contracts-upgradeable/access/OwnableUpgradeable.sol\":2533:2551  _getOwnableStorage */\n      tag_111\n        /* \"@openzeppelin/contracts-upgradeable/access/OwnableUpgradeable.sol\":2533:2553  _getOwnableStorage() */\n      jump\t// in\n    tag_110:\n        /* \"@openzeppelin/contracts-upgradeable/access/OwnableUpgradeable.sol\":2506:2553  OwnableStorage storage $ = _getOwnableStorage() */\n      swap1\n      pop\n        /* \"@openzeppelin/contracts-upgradeable/access/OwnableUpgradeable.sol\":2570:2571  $ */\n      dup1\n        /* \"@openzeppelin/contracts-upgradeable/access/OwnableUpgradeable.sol\":2570:2578  $._owner */\n      0x00\n      add\n      0x00\n      swap1\n      sload\n      swap1\n      0x0100\n      exp\n      swap1\n      div\n      0xffffffffffffffffffffffffffffffffffffffff\n      and\n        /* \"@openzeppelin/contracts-upgradeable/access/OwnableUpgradeable.sol\":2563:2578  return $._owner */\n      swap2\n      pop\n      pop\n        /* \"@openzeppelin/contracts-upgradeable/access/OwnableUpgradeable.sol\":2441:2585  function owner() public view virtual returns (address) {... */\n      swap1\n      jump\t// out\n        /* \"@openzeppelin/contracts-upgradeable/proxy/utils/UUPSUpgradeable.sol\":1819:1877  string public constant UPGRADE_INTERFACE_VERSION = \"5.0.0\" */\n    tag_58:\n      mload(0x40)\n      dup1\n      0x40\n      add\n      0x40\n      mstore\n      dup1\n      0x05\n      dup2\n      mstore\n      0x20\n      add\n      0x352e302e30000000000000000000000000000000000000000000000000000000\n      dup2\n      mstore\n      pop\n      dup2\n      jump\t// out\n        /* \"@course/meta-node/solidity/mine/solidity_lesson/hardhat-demo2/contracts/test/TestInitializable.sol\":410:431  string public message */\n    tag_63:\n      0x01\n      dup1\n      sload\n      tag_112\n      swap1\n      tag_113\n      jump\t// in\n    tag_112:\n      dup1\n      0x1f\n      add\n      0x20\n      dup1\n      swap2\n      div\n      mul\n      0x20\n      add\n      mload(0x40)\n      swap1\n      dup2\n      add\n      0x40\n      mstore\n      dup1\n      swap3\n      swap2\n      swap1\n      dup2\n      dup2\n      mstore\n      0x20\n      add\n      dup3\n      dup1\n      sload\n      tag_114\n      swap1\n      tag_113\n      jump\t// in\n    tag_114:\n      dup1\n      iszero\n      tag_115\n      jumpi\n      dup1\n      0x1f\n      lt\n      tag_116\n      jumpi\n      0x0100\n      dup1\n      dup4\n      sload\n      div\n      mul\n      dup4\n      mstore\n      swap2\n      0x20\n      add\n      swap2\n      jump(tag_115)\n    tag_116:\n      dup3\n      add\n      swap2\n      swap1\n      0x00\n      mstore\n      keccak256(0x00, 0x20)\n      swap1\n    tag_117:\n      dup2\n      sload\n      dup2\n      mstore\n      swap1\n      0x01\n      add\n      swap1\n      0x20\n      add\n      dup1\n      dup4\n      gt\n      tag_117\n      jumpi\n      dup3\n      swap1\n      sub\n      0x1f\n      and\n      dup3\n      add\n      swap2\n    tag_115:\n      pop\n      pop\n      pop\n      pop\n      pop\n      dup2\n      jump\t// out\n        /* \"@openzeppelin/contracts-upgradeable/access/OwnableUpgradeable.sol\":3405:3620  function transferOwnership(address newOwner) public virtual onlyOwner {... */\n    tag_69:\n        /* \"@openzeppelin/contracts-upgradeable/access/OwnableUpgradeable.sol\":2334:2347  _checkOwner() */\n      tag_119\n        /* \"@openzeppelin/contracts-upgradeable/access/OwnableUpgradeable.sol\":2334:2345  _checkOwner */\n      tag_105\n        /* \"@openzeppelin/contracts-upgradeable/access/OwnableUpgradeable.sol\":2334:2347  _checkOwner() */\n      jump\t// in\n    tag_119:\n        /* \"@openzeppelin/contracts-upgradeable/access/OwnableUpgradeable.sol\":3509:3510  0 */\n      0x00\n        /* \"@openzeppelin/contracts-upgradeable/access/OwnableUpgradeable.sol\":3489:3511  newOwner == address(0) */\n      0xffffffffffffffffffffffffffffffffffffffff\n      and\n        /* \"@openzeppelin/contracts-upgradeable/access/OwnableUpgradeable.sol\":3489:3497  newOwner */\n      dup2\n        /* \"@openzeppelin/contracts-upgradeable/access/OwnableUpgradeable.sol\":3489:3511  newOwner == address(0) */\n      0xffffffffffffffffffffffffffffffffffffffff\n      and\n      sub\n        /* \"@openzeppelin/contracts-upgradeable/access/OwnableUpgradeable.sol\":3485:3576  if (newOwner == address(0)) {... */\n      tag_121\n      jumpi\n        /* \"@openzeppelin/contracts-upgradeable/access/OwnableUpgradeable.sol\":3562:3563  0 */\n      0x00\n        /* \"@openzeppelin/contracts-upgradeable/access/OwnableUpgradeable.sol\":3534:3565  OwnableInvalidOwner(address(0)) */\n      mload(0x40)\n      0x1e4fbdf700000000000000000000000000000000000000000000000000000000\n      dup2\n      mstore\n      0x04\n      add\n      tag_122\n      swap2\n      swap1\n      tag_19\n      jump\t// in\n    tag_122:\n      mload(0x40)\n      dup1\n      swap2\n      sub\n      swap1\n      revert\n        /* \"@openzeppelin/contracts-upgradeable/access/OwnableUpgradeable.sol\":3485:3576  if (newOwner == address(0)) {... */\n    tag_121:\n        /* \"@openzeppelin/contracts-upgradeable/access/OwnableUpgradeable.sol\":3585:3613  _transferOwnership(newOwner) */\n      tag_123\n        /* \"@openzeppelin/contracts-upgradeable/access/OwnableUpgradeable.sol\":3604:3612  newOwner */\n      dup2\n        /* \"@openzeppelin/contracts-upgradeable/access/OwnableUpgradeable.sol\":3585:3603  _transferOwnership */\n      tag_108\n        /* \"@openzeppelin/contracts-upgradeable/access/OwnableUpgradeable.sol\":3585:3613  _transferOwnership(newOwner) */\n      jump\t// in\n    tag_123:\n        /* \"@openzeppelin/contracts-upgradeable/access/OwnableUpgradeable.sol\":3405:3620  function transferOwnership(address newOwner) public virtual onlyOwner {... */\n      pop\n      jump\t// out\n        /* \"@openzeppelin/contracts-upgradeable/proxy/utils/UUPSUpgradeable.sol\":4578:4890  function _checkProxy() internal view virtual {... */\n    tag_75:\n        /* \"@openzeppelin/contracts-upgradeable/proxy/utils/UUPSUpgradeable.sol\":4667:4673  __self */\n      immutable(\"0x70d51cd1373c3547db09959deae795a3b26b0e92b69bc03e792eef55a00cf3e5\")\n        /* \"@openzeppelin/contracts-upgradeable/proxy/utils/UUPSUpgradeable.sol\":4650:4673  address(this) == __self */\n      0xffffffffffffffffffffffffffffffffffffffff\n      and\n        /* \"@openzeppelin/contracts-upgradeable/proxy/utils/UUPSUpgradeable.sol\":4658:4662  this */\n      address\n        /* \"@openzeppelin/contracts-upgradeable/proxy/utils/UUPSUpgradeable.sol\":4650:4673  address(this) == __self */\n      0xffffffffffffffffffffffffffffffffffffffff\n      and\n      eq\n        /* \"@openzeppelin/contracts-upgradeable/proxy/utils/UUPSUpgradeable.sol\":4650:4770  address(this) == __self || // Must be called through delegatecall... */\n      dup1\n      tag_125\n      jumpi\n      pop\n        /* \"@openzeppelin/contracts-upgradeable/proxy/utils/UUPSUpgradeable.sol\":4764:4770  __self */\n      immutable(\"0x70d51cd1373c3547db09959deae795a3b26b0e92b69bc03e792eef55a00cf3e5\")\n        /* \"@openzeppelin/contracts-upgradeable/proxy/utils/UUPSUpgradeable.sol\":4728:4770  ERC1967Utils.getImplementation() != __self */\n      0xffffffffffffffffffffffffffffffffffffffff\n      and\n        /* \"@openzeppelin/contracts-upgradeable/proxy/utils/UUPSUpgradeable.sol\":4728:4760  ERC1967Utils.getImplementation() */\n      tag_126\n        /* \"@openzeppelin/contracts-upgradeable/proxy/utils/UUPSUpgradeable.sol\":4728:4758  ERC1967Utils.getImplementation */\n      tag_127\n        /* \"@openzeppelin/contracts-upgradeable/proxy/utils/UUPSUpgradeable.sol\":4728:4760  ERC1967Utils.getImplementation() */\n      jump\t// in\n    tag_126:\n        /* \"@openzeppelin/contracts-upgradeable/proxy/utils/UUPSUpgradeable.sol\":4728:4770  ERC1967Utils.getImplementation() != __self */\n      0xffffffffffffffffffffffffffffffffffffffff\n      and\n      eq\n      iszero\n        /* \"@openzeppelin/contracts-upgradeable/proxy/utils/UUPSUpgradeable.sol\":4650:4770  address(this) == __self || // Must be called through delegatecall... */\n    tag_125:\n        /* \"@openzeppelin/contracts-upgradeable/proxy/utils/UUPSUpgradeable.sol\":4633:4884  if (... */\n      iszero\n      tag_128\n      jumpi\n        /* \"@openzeppelin/contracts-upgradeable/proxy/utils/UUPSUpgradeable.sol\":4844:4873  UUPSUnauthorizedCallContext() */\n      mload(0x40)\n      0xe07c8dba00000000000000000000000000000000000000000000000000000000\n      dup2\n      mstore\n      0x04\n      add\n      mload(0x40)\n      dup1\n      swap2\n      sub\n      swap1\n      revert\n        /* \"@openzeppelin/contracts-upgradeable/proxy/utils/UUPSUpgradeable.sol\":4633:4884  if (... */\n    tag_128:\n        /* \"@openzeppelin/contracts-upgradeable/proxy/utils/UUPSUpgradeable.sol\":4578:4890  function _checkProxy() internal view virtual {... */\n      jump\t// out\n        /* \"@course/meta-node/solidity/mine/solidity_lesson/hardhat-demo2/contracts/test/TestInitializable.sol\":1076:1212  function _authorizeUpgrade(address newImplementation) internal override onlyOwner {... */\n    tag_78:\n        /* \"@openzeppelin/contracts-upgradeable/access/OwnableUpgradeable.sol\":2334:2347  _checkOwner() */\n      tag_130\n        /* \"@openzeppelin/contracts-upgradeable/access/OwnableUpgradeable.sol\":2334:2345  _checkOwner */\n      tag_105\n        /* \"@openzeppelin/contracts-upgradeable/access/OwnableUpgradeable.sol\":2334:2347  _checkOwner() */\n      jump\t// in\n    tag_130:\n        /* \"@course/meta-node/solidity/mine/solidity_lesson/hardhat-demo2/contracts/test/TestInitializable.sol\":1076:1212  function _authorizeUpgrade(address newImplementation) internal override onlyOwner {... */\n      pop\n      jump\t// out\n        /* \"@openzeppelin/contracts-upgradeable/proxy/utils/UUPSUpgradeable.sol\":6032:6570  function _upgradeToAndCallUUPS(address newImplementation, bytes memory data) private {... */\n    tag_80:\n        /* \"@openzeppelin/contracts-upgradeable/proxy/utils/UUPSUpgradeable.sol\":6149:6166  newImplementation */\n      dup2\n        /* \"@openzeppelin/contracts-upgradeable/proxy/utils/UUPSUpgradeable.sol\":6131:6181  IERC1822Proxiable(newImplementation).proxiableUUID */\n      0xffffffffffffffffffffffffffffffffffffffff\n      and\n      0x52d1902d\n        /* \"@openzeppelin/contracts-upgradeable/proxy/utils/UUPSUpgradeable.sol\":6131:6183  IERC1822Proxiable(newImplementation).proxiableUUID() */\n      mload(0x40)\n      dup2\n      0xffffffff\n      and\n      0xe0\n      shl\n      dup2\n      mstore\n      0x04\n      add\n      0x20\n      mload(0x40)\n      dup1\n      dup4\n      sub\n      dup2\n      dup7\n      gas\n      staticcall\n      swap3\n      pop\n      pop\n      pop\n      dup1\n      iszero\n      tag_133\n      jumpi\n      pop\n      mload(0x40)\n      returndatasize\n      not(0x1f)\n      0x1f\n      dup3\n      add\n      and\n      dup3\n      add\n      dup1\n      0x40\n      mstore\n      pop\n      dup2\n      add\n      swap1\n      tag_134\n      swap2\n      swap1\n      tag_135\n      jump\t// in\n    tag_134:\n      0x01\n    tag_133:\n        /* \"@openzeppelin/contracts-upgradeable/proxy/utils/UUPSUpgradeable.sol\":6127:6564  try IERC1822Proxiable(newImplementation).proxiableUUID() returns (bytes32 slot) {... */\n      tag_136\n      jumpi\n        /* \"@openzeppelin/contracts-upgradeable/proxy/utils/UUPSUpgradeable.sol\":6535:6552  newImplementation */\n      dup2\n        /* \"@openzeppelin/contracts-upgradeable/proxy/utils/UUPSUpgradeable.sol\":6493:6553  ERC1967Utils.ERC1967InvalidImplementation(newImplementation) */\n      mload(0x40)\n      0x4c9c8ce300000000000000000000000000000000000000000000000000000000\n      dup2\n      mstore\n      0x04\n      add\n      tag_140\n      swap2\n      swap1\n      tag_19\n      jump\t// in\n    tag_140:\n      mload(0x40)\n      dup1\n      swap2\n      sub\n      swap1\n      revert\n        /* \"@openzeppelin/contracts-upgradeable/proxy/utils/UUPSUpgradeable.sol\":6127:6564  try IERC1822Proxiable(newImplementation).proxiableUUID() returns (bytes32 slot) {... */\n    tag_136:\n        /* \"@openzeppelin/contracts/proxy/ERC1967/ERC1967Utils.sol\":811:877  0x360894a13ba1a3210667c828492db98dca3e2076cc3735a920a3ca505d382bbc */\n      0x360894a13ba1a3210667c828492db98dca3e2076cc3735a920a3ca505d382bbc\n        /* \"@openzeppelin/contracts-upgradeable/proxy/utils/UUPSUpgradeable.sol\":6233:6265  ERC1967Utils.IMPLEMENTATION_SLOT */\n      0x00\n      shl\n        /* \"@openzeppelin/contracts-upgradeable/proxy/utils/UUPSUpgradeable.sol\":6225:6229  slot */\n      dup2\n        /* \"@openzeppelin/contracts-upgradeable/proxy/utils/UUPSUpgradeable.sol\":6225:6265  slot != ERC1967Utils.IMPLEMENTATION_SLOT */\n      eq\n        /* \"@openzeppelin/contracts-upgradeable/proxy/utils/UUPSUpgradeable.sol\":6221:6341  if (slot != ERC1967Utils.IMPLEMENTATION_SLOT) {... */\n      tag_142\n      jumpi\n        /* \"@openzeppelin/contracts-upgradeable/proxy/utils/UUPSUpgradeable.sol\":6321:6325  slot */\n      dup1\n        /* \"@openzeppelin/contracts-upgradeable/proxy/utils/UUPSUpgradeable.sol\":6292:6326  UUPSUnsupportedProxiableUUID(slot) */\n      mload(0x40)\n      0xaa1d49a400000000000000000000000000000000000000000000000000000000\n      dup2\n      mstore\n      0x04\n      add\n      tag_143\n      swap2\n      swap1\n      tag_38\n      jump\t// in\n    tag_143:\n      mload(0x40)\n      dup1\n      swap2\n      sub\n      swap1\n      revert\n        /* \"@openzeppelin/contracts-upgradeable/proxy/utils/UUPSUpgradeable.sol\":6221:6341  if (slot != ERC1967Utils.IMPLEMENTATION_SLOT) {... */\n    tag_142:\n        /* \"@openzeppelin/contracts-upgradeable/proxy/utils/UUPSUpgradeable.sol\":6354:6408  ERC1967Utils.upgradeToAndCall(newImplementation, data) */\n      tag_144\n        /* \"@openzeppelin/contracts-upgradeable/proxy/utils/UUPSUpgradeable.sol\":6384:6401  newImplementation */\n      dup4\n        /* \"@openzeppelin/contracts-upgradeable/proxy/utils/UUPSUpgradeable.sol\":6403:6407  data */\n      dup4\n        /* \"@openzeppelin/contracts-upgradeable/proxy/utils/UUPSUpgradeable.sol\":6354:6383  ERC1967Utils.upgradeToAndCall */\n      tag_145\n        /* \"@openzeppelin/contracts-upgradeable/proxy/utils/UUPSUpgradeable.sol\":6354:6408  ERC1967Utils.upgradeToAndCall(newImplementation, data) */\n      jump\t// in\n    tag_144:\n        /* \"@openzeppelin/contracts-upgradeable/proxy/utils/UUPSUpgradeable.sol\":6184:6419  returns (bytes32 slot) {... */\n      pop\n        /* \"@openzeppelin/contracts-upgradeable/proxy/utils/UUPSUpgradeable.sol\":6032:6570  function _upgradeToAndCallUUPS(address newImplementation, bytes memory data) private {... */\n      pop\n      pop\n      jump\t// out\n        /* \"@openzeppelin/contracts-upgradeable/proxy/utils/UUPSUpgradeable.sol\":5007:5220  function _checkNotDelegated() internal view virtual {... */\n    tag_83:\n        /* \"@openzeppelin/contracts-upgradeable/proxy/utils/UUPSUpgradeable.sol\":5090:5096  __self */\n      immutable(\"0x70d51cd1373c3547db09959deae795a3b26b0e92b69bc03e792eef55a00cf3e5\")\n        /* \"@openzeppelin/contracts-upgradeable/proxy/utils/UUPSUpgradeable.sol\":5073:5096  address(this) != __self */\n      0xffffffffffffffffffffffffffffffffffffffff\n      and\n        /* \"@openzeppelin/contracts-upgradeable/proxy/utils/UUPSUpgradeable.sol\":5081:5085  this */\n      address\n        /* \"@openzeppelin/contracts-upgradeable/proxy/utils/UUPSUpgradeable.sol\":5073:5096  address(this) != __self */\n      0xffffffffffffffffffffffffffffffffffffffff\n      and\n      eq\n        /* \"@openzeppelin/contracts-upgradeable/proxy/utils/UUPSUpgradeable.sol\":5069:5214  if (address(this) != __self) {... */\n      tag_147\n      jumpi\n        /* \"@openzeppelin/contracts-upgradeable/proxy/utils/UUPSUpgradeable.sol\":5174:5203  UUPSUnauthorizedCallContext() */\n      mload(0x40)\n      0xe07c8dba00000000000000000000000000000000000000000000000000000000\n      dup2\n      mstore\n      0x04\n      add\n      mload(0x40)\n      dup1\n      swap2\n      sub\n      swap1\n      revert\n        /* \"@openzeppelin/contracts-upgradeable/proxy/utils/UUPSUpgradeable.sol\":5069:5214  if (address(this) != __self) {... */\n    tag_147:\n        /* \"@openzeppelin/contracts-upgradeable/proxy/utils/UUPSUpgradeable.sol\":5007:5220  function _checkNotDelegated() internal view virtual {... */\n      jump\t// out\n        /* \"@openzeppelin/contracts-upgradeable/proxy/utils/Initializable.sol\":9071:9276  function _getInitializableStorage() private pure returns (InitializableStorage storage $) {... */\n    tag_88:\n        /* \"@openzeppelin/contracts-upgradeable/proxy/utils/Initializable.sol\":9129:9159  InitializableStorage storage $ */\n      0x00\n        /* \"@openzeppelin/contracts-upgradeable/proxy/utils/Initializable.sol\":9171:9183  bytes32 slot */\n      0x00\n        /* \"@openzeppelin/contracts-upgradeable/proxy/utils/Initializable.sol\":9186:9213  _initializableStorageSlot() */\n      tag_149\n        /* \"@openzeppelin/contracts-upgradeable/proxy/utils/Initializable.sol\":9186:9211  _initializableStorageSlot */\n      tag_150\n        /* \"@openzeppelin/contracts-upgradeable/proxy/utils/Initializable.sol\":9186:9213  _initializableStorageSlot() */\n      jump\t// in\n    tag_149:\n        /* \"@openzeppelin/contracts-upgradeable/proxy/utils/Initializable.sol\":9171:9213  bytes32 slot = _initializableStorageSlot() */\n      swap1\n      pop\n        /* \"@openzeppelin/contracts-upgradeable/proxy/utils/Initializable.sol\":9256:9260  slot */\n      dup1\n        /* \"@openzeppelin/contracts-upgradeable/proxy/utils/Initializable.sol\":9246:9260  $.slot := slot */\n      swap2\n      pop\n        /* \"@openzeppelin/contracts-upgradeable/proxy/utils/Initializable.sol\":9232:9270  {... */\n      pop\n        /* \"@openzeppelin/contracts-upgradeable/proxy/utils/Initializable.sol\":9071:9276  function _getInitializableStorage() private pure returns (InitializableStorage storage $) {... */\n      swap1\n      jump\t// out\n        /* \"@openzeppelin/contracts-upgradeable/access/OwnableUpgradeable.sol\":1847:1974  function __Ownable_init(address initialOwner) internal onlyInitializing {... */\n    tag_96:\n        /* \"@openzeppelin/contracts-upgradeable/proxy/utils/Initializable.sol\":6929:6949  _checkInitializing() */\n      tag_152\n        /* \"@openzeppelin/contracts-upgradeable/proxy/utils/Initializable.sol\":6929:6947  _checkInitializing */\n      tag_153\n        /* \"@openzeppelin/contracts-upgradeable/proxy/utils/Initializable.sol\":6929:6949  _checkInitializing() */\n      jump\t// in\n    tag_152:\n        /* \"@openzeppelin/contracts-upgradeable/access/OwnableUpgradeable.sol\":1929:1967  __Ownable_init_unchained(initialOwner) */\n      tag_155\n        /* \"@openzeppelin/contracts-upgradeable/access/OwnableUpgradeable.sol\":1954:1966  initialOwner */\n      dup2\n        /* \"@openzeppelin/contracts-upgradeable/access/OwnableUpgradeable.sol\":1929:1953  __Ownable_init_unchained */\n      tag_156\n        /* \"@openzeppelin/contracts-upgradeable/access/OwnableUpgradeable.sol\":1929:1967  __Ownable_init_unchained(initialOwner) */\n      jump\t// in\n    tag_155:\n        /* \"@openzeppelin/contracts-upgradeable/access/OwnableUpgradeable.sol\":1847:1974  function __Ownable_init(address initialOwner) internal onlyInitializing {... */\n      pop\n      jump\t// out\n        /* \"@openzeppelin/contracts-upgradeable/proxy/utils/UUPSUpgradeable.sol\":2970:3037  function __UUPSUpgradeable_init() internal onlyInitializing {... */\n    tag_98:\n        /* \"@openzeppelin/contracts-upgradeable/proxy/utils/Initializable.sol\":6929:6949  _checkInitializing() */\n      tag_158\n        /* \"@openzeppelin/contracts-upgradeable/proxy/utils/Initializable.sol\":6929:6947  _checkInitializing */\n      tag_153\n        /* \"@openzeppelin/contracts-upgradeable/proxy/utils/Initializable.sol\":6929:6949  _checkInitializing() */\n      jump\t// in\n    tag_158:\n        /* \"@openzeppelin/contracts-upgradeable/proxy/utils/UUPSUpgradeable.sol\":2970:3037  function __UUPSUpgradeable_init() internal onlyInitializing {... */\n      jump\t// out\n        /* \"@openzeppelin/contracts-upgradeable/access/OwnableUpgradeable.sol\":2658:2820  function _checkOwner() internal view virtual {... */\n    tag_105:\n        /* \"@openzeppelin/contracts-upgradeable/access/OwnableUpgradeable.sol\":2728:2740  _msgSender() */\n      tag_161\n        /* \"@openzeppelin/contracts-upgradeable/access/OwnableUpgradeable.sol\":2728:2738  _msgSender */\n      tag_162\n        /* \"@openzeppelin/contracts-upgradeable/access/OwnableUpgradeable.sol\":2728:2740  _msgSender() */\n      jump\t// in\n    tag_161:\n        /* \"@openzeppelin/contracts-upgradeable/access/OwnableUpgradeable.sol\":2717:2740  owner() != _msgSender() */\n      0xffffffffffffffffffffffffffffffffffffffff\n      and\n        /* \"@openzeppelin/contracts-upgradeable/access/OwnableUpgradeable.sol\":2717:2724  owner() */\n      tag_163\n        /* \"@openzeppelin/contracts-upgradeable/access/OwnableUpgradeable.sol\":2717:2722  owner */\n      tag_54\n        /* \"@openzeppelin/contracts-upgradeable/access/OwnableUpgradeable.sol\":2717:2724  owner() */\n      jump\t// in\n    tag_163:\n        /* \"@openzeppelin/contracts-upgradeable/access/OwnableUpgradeable.sol\":2717:2740  owner() != _msgSender() */\n      0xffffffffffffffffffffffffffffffffffffffff\n      and\n      eq\n        /* \"@openzeppelin/contracts-upgradeable/access/OwnableUpgradeable.sol\":2713:2814  if (owner() != _msgSender()) {... */\n      tag_164\n      jumpi\n        /* \"@openzeppelin/contracts-upgradeable/access/OwnableUpgradeable.sol\":2790:2802  _msgSender() */\n      tag_165\n        /* \"@openzeppelin/contracts-upgradeable/access/OwnableUpgradeable.sol\":2790:2800  _msgSender */\n      tag_162\n        /* \"@openzeppelin/contracts-upgradeable/access/OwnableUpgradeable.sol\":2790:2802  _msgSender() */\n      jump\t// in\n    tag_165:\n        /* \"@openzeppelin/contracts-upgradeable/access/OwnableUpgradeable.sol\":2763:2803  OwnableUnauthorizedAccount(_msgSender()) */\n      mload(0x40)\n      0x118cdaa700000000000000000000000000000000000000000000000000000000\n      dup2\n      mstore\n      0x04\n      add\n      tag_166\n      swap2\n      swap1\n      tag_19\n      jump\t// in\n    tag_166:\n      mload(0x40)\n      dup1\n      swap2\n      sub\n      swap1\n      revert\n        /* \"@openzeppelin/contracts-upgradeable/access/OwnableUpgradeable.sol\":2713:2814  if (owner() != _msgSender()) {... */\n    tag_164:\n        /* \"@openzeppelin/contracts-upgradeable/access/OwnableUpgradeable.sol\":2658:2820  function _checkOwner() internal view virtual {... */\n      jump\t// out\n        /* \"@openzeppelin/contracts-upgradeable/access/OwnableUpgradeable.sol\":3774:4022  function _transferOwnership(address newOwner) internal virtual {... */\n    tag_108:\n        /* \"@openzeppelin/contracts-upgradeable/access/OwnableUpgradeable.sol\":3847:3871  OwnableStorage storage $ */\n      0x00\n        /* \"@openzeppelin/contracts-upgradeable/access/OwnableUpgradeable.sol\":3874:3894  _getOwnableStorage() */\n      tag_168\n        /* \"@openzeppelin/contracts-upgradeable/access/OwnableUpgradeable.sol\":3874:3892  _getOwnableStorage */\n      tag_111\n        /* \"@openzeppelin/contracts-upgradeable/access/OwnableUpgradeable.sol\":3874:3894  _getOwnableStorage() */\n      jump\t// in\n    tag_168:\n        /* \"@openzeppelin/contracts-upgradeable/access/OwnableUpgradeable.sol\":3847:3894  OwnableStorage storage $ = _getOwnableStorage() */\n      swap1\n      pop\n        /* \"@openzeppelin/contracts-upgradeable/access/OwnableUpgradeable.sol\":3904:3920  address oldOwner */\n      0x00\n        /* \"@openzeppelin/contracts-upgradeable/access/OwnableUpgradeable.sol\":3923:3924  $ */\n      dup2\n        /* \"@openzeppelin/contracts-upgradeable/access/OwnableUpgradeable.sol\":3923:3931  $._owner */\n      0x00\n      add\n      0x00\n      swap1\n      sload\n      swap1\n      0x0100\n      exp\n      swap1\n      div\n      0xffffffffffffffffffffffffffffffffffffffff\n      and\n        /* \"@openzeppelin/contracts-upgradeable/access/OwnableUpgradeable.sol\":3904:3931  address oldOwner = $._owner */\n      swap1\n      pop\n        /* \"@openzeppelin/contracts-upgradeable/access/OwnableUpgradeable.sol\":3952:3960  newOwner */\n      dup3\n        /* \"@openzeppelin/contracts-upgradeable/access/OwnableUpgradeable.sol\":3941:3942  $ */\n      dup3\n        /* \"@openzeppelin/contracts-upgradeable/access/OwnableUpgradeable.sol\":3941:3949  $._owner */\n      0x00\n      add\n      0x00\n        /* \"@openzeppelin/contracts-upgradeable/access/OwnableUpgradeable.sol\":3941:3960  $._owner = newOwner */\n      0x0100\n      exp\n      dup2\n      sload\n      dup2\n      0xffffffffffffffffffffffffffffffffffffffff\n      mul\n      not\n      and\n      swap1\n      dup4\n      0xffffffffffffffffffffffffffffffffffffffff\n      and\n      mul\n      or\n      swap1\n      sstore\n      pop\n        /* \"@openzeppelin/contracts-upgradeable/access/OwnableUpgradeable.sol\":4006:4014  newOwner */\n      dup3\n        /* \"@openzeppelin/contracts-upgradeable/access/OwnableUpgradeable.sol\":3975:4015  OwnershipTransferred(oldOwner, newOwner) */\n      0xffffffffffffffffffffffffffffffffffffffff\n      and\n        /* \"@openzeppelin/contracts-upgradeable/access/OwnableUpgradeable.sol\":3996:4004  oldOwner */\n      dup2\n        /* \"@openzeppelin/contracts-upgradeable/access/OwnableUpgradeable.sol\":3975:4015  OwnershipTransferred(oldOwner, newOwner) */\n      0xffffffffffffffffffffffffffffffffffffffff\n      and\n      0x8be0079c531659141344cd1fd0a4f28419497f9722a3daafe3b4186f6b6457e0\n      mload(0x40)\n      mload(0x40)\n      dup1\n      swap2\n      sub\n      swap1\n      log3\n        /* \"@openzeppelin/contracts-upgradeable/access/OwnableUpgradeable.sol\":3837:4022  {... */\n      pop\n      pop\n        /* \"@openzeppelin/contracts-upgradeable/access/OwnableUpgradeable.sol\":3774:4022  function _transferOwnership(address newOwner) internal virtual {... */\n      pop\n      jump\t// out\n        /* \"@openzeppelin/contracts-upgradeable/access/OwnableUpgradeable.sol\":1192:1351  function _getOwnableStorage() private pure returns (OwnableStorage storage $) {... */\n    tag_111:\n        /* \"@openzeppelin/contracts-upgradeable/access/OwnableUpgradeable.sol\":1244:1268  OwnableStorage storage $ */\n      0x00\n        /* \"@openzeppelin/contracts-upgradeable/access/OwnableUpgradeable.sol\":1313:1335  OwnableStorageLocation */\n      0x9016d09d72d40fdae2fd8ceac6b6234c7706214fd39c1cd1e609a0528c199300\n        /* \"@openzeppelin/contracts-upgradeable/access/OwnableUpgradeable.sol\":1303:1335  $.slot := OwnableStorageLocation */\n      swap1\n      pop\n        /* \"@openzeppelin/contracts-upgradeable/access/OwnableUpgradeable.sol\":1192:1351  function _getOwnableStorage() private pure returns (OwnableStorage storage $) {... */\n      swap1\n      jump\t// out\n        /* \"@openzeppelin/contracts/proxy/ERC1967/ERC1967Utils.sol\":1441:1579  function getImplementation() internal view returns (address) {... */\n    tag_127:\n        /* \"@openzeppelin/contracts/proxy/ERC1967/ERC1967Utils.sol\":1493:1500  address */\n      0x00\n        /* \"@openzeppelin/contracts/proxy/ERC1967/ERC1967Utils.sol\":1519:1566  StorageSlot.getAddressSlot(IMPLEMENTATION_SLOT) */\n      tag_171\n        /* \"@openzeppelin/contracts/proxy/ERC1967/ERC1967Utils.sol\":811:877  0x360894a13ba1a3210667c828492db98dca3e2076cc3735a920a3ca505d382bbc */\n      0x360894a13ba1a3210667c828492db98dca3e2076cc3735a920a3ca505d382bbc\n        /* \"@openzeppelin/contracts/proxy/ERC1967/ERC1967Utils.sol\":1546:1565  IMPLEMENTATION_SLOT */\n      0x00\n      shl\n        /* \"@openzeppelin/contracts/proxy/ERC1967/ERC1967Utils.sol\":1519:1545  StorageSlot.getAddressSlot */\n      tag_172\n        /* \"@openzeppelin/contracts/proxy/ERC1967/ERC1967Utils.sol\":1519:1566  StorageSlot.getAddressSlot(IMPLEMENTATION_SLOT) */\n      jump\t// in\n    tag_171:\n        /* \"@openzeppelin/contracts/proxy/ERC1967/ERC1967Utils.sol\":1519:1572  StorageSlot.getAddressSlot(IMPLEMENTATION_SLOT).value */\n      0x00\n      add\n      0x00\n      swap1\n      sload\n      swap1\n      0x0100\n      exp\n      swap1\n      div\n      0xffffffffffffffffffffffffffffffffffffffff\n      and\n        /* \"@openzeppelin/contracts/proxy/ERC1967/ERC1967Utils.sol\":1512:1572  return StorageSlot.getAddressSlot(IMPLEMENTATION_SLOT).value */\n      swap1\n      pop\n        /* \"@openzeppelin/contracts/proxy/ERC1967/ERC1967Utils.sol\":1441:1579  function getImplementation() internal view returns (address) {... */\n      swap1\n      jump\t// out\n        /* \"@openzeppelin/contracts/proxy/ERC1967/ERC1967Utils.sol\":2264:2608  function upgradeToAndCall(address newImplementation, bytes memory data) internal {... */\n    tag_145:\n        /* \"@openzeppelin/contracts/proxy/ERC1967/ERC1967Utils.sol\":2355:2392  _setImplementation(newImplementation) */\n      tag_174\n        /* \"@openzeppelin/contracts/proxy/ERC1967/ERC1967Utils.sol\":2374:2391  newImplementation */\n      dup3\n        /* \"@openzeppelin/contracts/proxy/ERC1967/ERC1967Utils.sol\":2355:2373  _setImplementation */\n      tag_175\n        /* \"@openzeppelin/contracts/proxy/ERC1967/ERC1967Utils.sol\":2355:2392  _setImplementation(newImplementation) */\n      jump\t// in\n    tag_174:\n        /* \"@openzeppelin/contracts/proxy/ERC1967/ERC1967Utils.sol\":2425:2442  newImplementation */\n      dup2\n        /* \"@openzeppelin/contracts/proxy/ERC1967/ERC1967Utils.sol\":2407:2443  IERC1967.Upgraded(newImplementation) */\n      0xffffffffffffffffffffffffffffffffffffffff\n      and\n      0xbc7cd75a20ee27fd9adebab32041f755214dbc6bffa90cc0225b39da2e5c2d3b\n      mload(0x40)\n      mload(0x40)\n      dup1\n      swap2\n      sub\n      swap1\n      log2\n        /* \"@openzeppelin/contracts/proxy/ERC1967/ERC1967Utils.sol\":2472:2473  0 */\n      0x00\n        /* \"@openzeppelin/contracts/proxy/ERC1967/ERC1967Utils.sol\":2458:2462  data */\n      dup2\n        /* \"@openzeppelin/contracts/proxy/ERC1967/ERC1967Utils.sol\":2458:2469  data.length */\n      mload\n        /* \"@openzeppelin/contracts/proxy/ERC1967/ERC1967Utils.sol\":2458:2473  data.length > 0 */\n      gt\n        /* \"@openzeppelin/contracts/proxy/ERC1967/ERC1967Utils.sol\":2454:2602  if (data.length > 0) {... */\n      iszero\n      tag_176\n      jumpi\n        /* \"@openzeppelin/contracts/proxy/ERC1967/ERC1967Utils.sol\":2489:2542  Address.functionDelegateCall(newImplementation, data) */\n      tag_177\n        /* \"@openzeppelin/contracts/proxy/ERC1967/ERC1967Utils.sol\":2518:2535  newImplementation */\n      dup3\n        /* \"@openzeppelin/contracts/proxy/ERC1967/ERC1967Utils.sol\":2537:2541  data */\n      dup3\n        /* \"@openzeppelin/contracts/proxy/ERC1967/ERC1967Utils.sol\":2489:2517  Address.functionDelegateCall */\n      tag_178\n        /* \"@openzeppelin/contracts/proxy/ERC1967/ERC1967Utils.sol\":2489:2542  Address.functionDelegateCall(newImplementation, data) */\n      jump\t// in\n    tag_177:\n      pop\n        /* \"@openzeppelin/contracts/proxy/ERC1967/ERC1967Utils.sol\":2454:2602  if (data.length > 0) {... */\n      jump(tag_179)\n    tag_176:\n        /* \"@openzeppelin/contracts/proxy/ERC1967/ERC1967Utils.sol\":2573:2591  _checkNonPayable() */\n      tag_180\n        /* \"@openzeppelin/contracts/proxy/ERC1967/ERC1967Utils.sol\":2573:2589  _checkNonPayable */\n      tag_181\n        /* \"@openzeppelin/contracts/proxy/ERC1967/ERC1967Utils.sol\":2573:2591  _checkNonPayable() */\n      jump\t// in\n    tag_180:\n        /* \"@openzeppelin/contracts/proxy/ERC1967/ERC1967Utils.sol\":2454:2602  if (data.length > 0) {... */\n    tag_179:\n        /* \"@openzeppelin/contracts/proxy/ERC1967/ERC1967Utils.sol\":2264:2608  function upgradeToAndCall(address newImplementation, bytes memory data) internal {... */\n      pop\n      pop\n      jump\t// out\n        /* \"@openzeppelin/contracts-upgradeable/proxy/utils/Initializable.sol\":8819:8941  function _initializableStorageSlot() internal pure virtual returns (bytes32) {... */\n    tag_150:\n        /* \"@openzeppelin/contracts-upgradeable/proxy/utils/Initializable.sol\":8887:8894  bytes32 */\n      0x00\n        /* \"@openzeppelin/contracts-upgradeable/proxy/utils/Initializable.sol\":3147:3213  0xf0c57e16840df040f15088dc2f81fe391c3923bec73e23a9662efc9c229c6a00 */\n      0xf0c57e16840df040f15088dc2f81fe391c3923bec73e23a9662efc9c229c6a00\n        /* \"@openzeppelin/contracts-upgradeable/proxy/utils/Initializable.sol\":8913:8934  INITIALIZABLE_STORAGE */\n      0x00\n      shl\n        /* \"@openzeppelin/contracts-upgradeable/proxy/utils/Initializable.sol\":8906:8934  return INITIALIZABLE_STORAGE */\n      swap1\n      pop\n        /* \"@openzeppelin/contracts-upgradeable/proxy/utils/Initializable.sol\":8819:8941  function _initializableStorageSlot() internal pure virtual returns (bytes32) {... */\n      swap1\n      jump\t// out\n        /* \"@openzeppelin/contracts-upgradeable/proxy/utils/Initializable.sol\":7082:7223  function _checkInitializing() internal view virtual {... */\n    tag_153:\n        /* \"@openzeppelin/contracts-upgradeable/proxy/utils/Initializable.sol\":7149:7166  _isInitializing() */\n      tag_184\n        /* \"@openzeppelin/contracts-upgradeable/proxy/utils/Initializable.sol\":7149:7164  _isInitializing */\n      tag_185\n        /* \"@openzeppelin/contracts-upgradeable/proxy/utils/Initializable.sol\":7149:7166  _isInitializing() */\n      jump\t// in\n    tag_184:\n        /* \"@openzeppelin/contracts-upgradeable/proxy/utils/Initializable.sol\":7144:7217  if (!_isInitializing()) {... */\n      tag_186\n      jumpi\n        /* \"@openzeppelin/contracts-upgradeable/proxy/utils/Initializable.sol\":7189:7206  NotInitializing() */\n      mload(0x40)\n      0xd7e6bcf800000000000000000000000000000000000000000000000000000000\n      dup2\n      mstore\n      0x04\n      add\n      mload(0x40)\n      dup1\n      swap2\n      sub\n      swap1\n      revert\n        /* \"@openzeppelin/contracts-upgradeable/proxy/utils/Initializable.sol\":7144:7217  if (!_isInitializing()) {... */\n    tag_186:\n        /* \"@openzeppelin/contracts-upgradeable/proxy/utils/Initializable.sol\":7082:7223  function _checkInitializing() internal view virtual {... */\n      jump\t// out\n        /* \"@openzeppelin/contracts-upgradeable/access/OwnableUpgradeable.sol\":1980:2215  function __Ownable_init_unchained(address initialOwner) internal onlyInitializing {... */\n    tag_156:\n        /* \"@openzeppelin/contracts-upgradeable/proxy/utils/Initializable.sol\":6929:6949  _checkInitializing() */\n      tag_188\n        /* \"@openzeppelin/contracts-upgradeable/proxy/utils/Initializable.sol\":6929:6947  _checkInitializing */\n      tag_153\n        /* \"@openzeppelin/contracts-upgradeable/proxy/utils/Initializable.sol\":6929:6949  _checkInitializing() */\n      jump\t// in\n    tag_188:\n        /* \"@openzeppelin/contracts-upgradeable/access/OwnableUpgradeable.sol\":2100:2101  0 */\n      0x00\n        /* \"@openzeppelin/contracts-upgradeable/access/OwnableUpgradeable.sol\":2076:2102  initialOwner == address(0) */\n      0xffffffffffffffffffffffffffffffffffffffff\n      and\n        /* \"@openzeppelin/contracts-upgradeable/access/OwnableUpgradeable.sol\":2076:2088  initialOwner */\n      dup2\n        /* \"@openzeppelin/contracts-upgradeable/access/OwnableUpgradeable.sol\":2076:2102  initialOwner == address(0) */\n      0xffffffffffffffffffffffffffffffffffffffff\n      and\n      sub\n        /* \"@openzeppelin/contracts-upgradeable/access/OwnableUpgradeable.sol\":2072:2167  if (initialOwner == address(0)) {... */\n      tag_190\n      jumpi\n        /* \"@openzeppelin/contracts-upgradeable/access/OwnableUpgradeable.sol\":2153:2154  0 */\n      0x00\n        /* \"@openzeppelin/contracts-upgradeable/access/OwnableUpgradeable.sol\":2125:2156  OwnableInvalidOwner(address(0)) */\n      mload(0x40)\n      0x1e4fbdf700000000000000000000000000000000000000000000000000000000\n      dup2\n      mstore\n      0x04\n      add\n      tag_191\n      swap2\n      swap1\n      tag_19\n      jump\t// in\n    tag_191:\n      mload(0x40)\n      dup1\n      swap2\n      sub\n      swap1\n      revert\n        /* \"@openzeppelin/contracts-upgradeable/access/OwnableUpgradeable.sol\":2072:2167  if (initialOwner == address(0)) {... */\n    tag_190:\n        /* \"@openzeppelin/contracts-upgradeable/access/OwnableUpgradeable.sol\":2176:2208  _transferOwnership(initialOwner) */\n      tag_192\n        /* \"@openzeppelin/contracts-upgradeable/access/OwnableUpgradeable.sol\":2195:2207  initialOwner */\n      dup2\n        /* \"@openzeppelin/contracts-upgradeable/access/OwnableUpgradeable.sol\":2176:2194  _transferOwnership */\n      tag_108\n        /* \"@openzeppelin/contracts-upgradeable/access/OwnableUpgradeable.sol\":2176:2208  _transferOwnership(initialOwner) */\n      jump\t// in\n    tag_192:\n        /* \"@openzeppelin/contracts-upgradeable/access/OwnableUpgradeable.sol\":1980:2215  function __Ownable_init_unchained(address initialOwner) internal onlyInitializing {... */\n      pop\n      jump\t// out\n        /* \"@openzeppelin/contracts-upgradeable/utils/ContextUpgradeable.sol\":887:983  function _msgSender() internal view virtual returns (address) {... */\n    tag_162:\n        /* \"@openzeppelin/contracts-upgradeable/utils/ContextUpgradeable.sol\":940:947  address */\n      0x00\n        /* \"@openzeppelin/contracts-upgradeable/utils/ContextUpgradeable.sol\":966:976  msg.sender */\n      caller\n        /* \"@openzeppelin/contracts-upgradeable/utils/ContextUpgradeable.sol\":959:976  return msg.sender */\n      swap1\n      pop\n        /* \"@openzeppelin/contracts-upgradeable/utils/ContextUpgradeable.sol\":887:983  function _msgSender() internal view virtual returns (address) {... */\n      swap1\n      jump\t// out\n        /* \"@openzeppelin/contracts/utils/StorageSlot.sol\":1899:2062  function getAddressSlot(bytes32 slot) internal pure returns (AddressSlot storage r) {... */\n    tag_172:\n        /* \"@openzeppelin/contracts/utils/StorageSlot.sol\":1960:1981  AddressSlot storage r */\n      0x00\n        /* \"@openzeppelin/contracts/utils/StorageSlot.sol\":2042:2046  slot */\n      dup2\n        /* \"@openzeppelin/contracts/utils/StorageSlot.sol\":2032:2046  r.slot := slot */\n      swap1\n      pop\n        /* \"@openzeppelin/contracts/utils/StorageSlot.sol\":1899:2062  function getAddressSlot(bytes32 slot) internal pure returns (AddressSlot storage r) {... */\n      swap2\n      swap1\n      pop\n      jump\t// out\n        /* \"@openzeppelin/contracts/proxy/ERC1967/ERC1967Utils.sol\":1671:1952  function _setImplementation(address newImplementation) private {... */\n    tag_175:\n        /* \"@openzeppelin/contracts/proxy/ERC1967/ERC1967Utils.sol\":1781:1782  0 */\n      0x00\n        /* \"@openzeppelin/contracts/proxy/ERC1967/ERC1967Utils.sol\":1748:1765  newImplementation */\n      dup2\n        /* \"@openzeppelin/contracts/proxy/ERC1967/ERC1967Utils.sol\":1748:1777  newImplementation.code.length */\n      0xffffffffffffffffffffffffffffffffffffffff\n      and\n      extcodesize\n        /* \"@openzeppelin/contracts/proxy/ERC1967/ERC1967Utils.sol\":1748:1782  newImplementation.code.length == 0 */\n      sub\n        /* \"@openzeppelin/contracts/proxy/ERC1967/ERC1967Utils.sol\":1744:1863  if (newImplementation.code.length == 0) {... */\n      tag_196\n      jumpi\n        /* \"@openzeppelin/contracts/proxy/ERC1967/ERC1967Utils.sol\":1834:1851  newImplementation */\n      dup1\n        /* \"@openzeppelin/contracts/proxy/ERC1967/ERC1967Utils.sol\":1805:1852  ERC1967InvalidImplementation(newImplementation) */\n      mload(0x40)\n      0x4c9c8ce300000000000000000000000000000000000000000000000000000000\n      dup2\n      mstore\n      0x04\n      add\n      tag_197\n      swap2\n      swap1\n      tag_19\n      jump\t// in\n    tag_197:\n      mload(0x40)\n      dup1\n      swap2\n      sub\n      swap1\n      revert\n        /* \"@openzeppelin/contracts/proxy/ERC1967/ERC1967Utils.sol\":1744:1863  if (newImplementation.code.length == 0) {... */\n    tag_196:\n        /* \"@openzeppelin/contracts/proxy/ERC1967/ERC1967Utils.sol\":1928:1945  newImplementation */\n      dup1\n        /* \"@openzeppelin/contracts/proxy/ERC1967/ERC1967Utils.sol\":1872:1919  StorageSlot.getAddressSlot(IMPLEMENTATION_SLOT) */\n      tag_198\n        /* \"@openzeppelin/contracts/proxy/ERC1967/ERC1967Utils.sol\":811:877  0x360894a13ba1a3210667c828492db98dca3e2076cc3735a920a3ca505d382bbc */\n      0x360894a13ba1a3210667c828492db98dca3e2076cc3735a920a3ca505d382bbc\n        /* \"@openzeppelin/contracts/proxy/ERC1967/ERC1967Utils.sol\":1899:1918  IMPLEMENTATION_SLOT */\n      0x00\n      shl\n        /* \"@openzeppelin/contracts/proxy/ERC1967/ERC1967Utils.sol\":1872:1898  StorageSlot.getAddressSlot */\n      tag_172\n        /* \"@openzeppelin/contracts/proxy/ERC1967/ERC1967Utils.sol\":1872:1919  StorageSlot.getAddressSlot(IMPLEMENTATION_SLOT) */\n      jump\t// in\n    tag_198:\n        /* \"@openzeppelin/contracts/proxy/ERC1967/ERC1967Utils.sol\":1872:1925  StorageSlot.getAddressSlot(IMPLEMENTATION_SLOT).value */\n      0x00\n      add\n      0x00\n        /* \"@openzeppelin/contracts/proxy/ERC1967/ERC1967Utils.sol\":1872:1945  StorageSlot.getAddressSlot(IMPLEMENTATION_SLOT).value = newImplementation */\n      0x0100\n      exp\n      dup2\n      sload\n      dup2\n      0xffffffffffffffffffffffffffffffffffffffff\n      mul\n      not\n      and\n      swap1\n      dup4\n      0xffffffffffffffffffffffffffffffffffffffff\n      and\n      mul\n      or\n      swap1\n      sstore\n      pop\n        /* \"@openzeppelin/contracts/proxy/ERC1967/ERC1967Utils.sol\":1671:1952  function _setImplementation(address newImplementation) private {... */\n      pop\n      jump\t// out\n        /* \"@openzeppelin/contracts/utils/Address.sol\":3916:4169  function functionDelegateCall(address target, bytes memory data) internal returns (bytes memory) {... */\n    tag_178:\n        /* \"@openzeppelin/contracts/utils/Address.sol\":3999:4011  bytes memory */\n      0x60\n        /* \"@openzeppelin/contracts/utils/Address.sol\":4024:4036  bool success */\n      0x00\n        /* \"@openzeppelin/contracts/utils/Address.sol\":4038:4061  bytes memory returndata */\n      0x00\n        /* \"@openzeppelin/contracts/utils/Address.sol\":4065:4071  target */\n      dup5\n        /* \"@openzeppelin/contracts/utils/Address.sol\":4065:4084  target.delegatecall */\n      0xffffffffffffffffffffffffffffffffffffffff\n      and\n        /* \"@openzeppelin/contracts/utils/Address.sol\":4085:4089  data */\n      dup5\n        /* \"@openzeppelin/contracts/utils/Address.sol\":4065:4090  target.delegatecall(data) */\n      mload(0x40)\n      tag_200\n      swap2\n      swap1\n      tag_201\n      jump\t// in\n    tag_200:\n      0x00\n      mload(0x40)\n      dup1\n      dup4\n      sub\n      dup2\n      dup6\n      gas\n      delegatecall\n      swap2\n      pop\n      pop\n      returndatasize\n      dup1\n      0x00\n      dup2\n      eq\n      tag_204\n      jumpi\n      mload(0x40)\n      swap2\n      pop\n      and(add(returndatasize, 0x3f), not(0x1f))\n      dup3\n      add\n      0x40\n      mstore\n      returndatasize\n      dup3\n      mstore\n      returndatasize\n      0x00\n      0x20\n      dup5\n      add\n      returndatacopy\n      jump(tag_203)\n    tag_204:\n      0x60\n      swap2\n      pop\n    tag_203:\n      pop\n        /* \"@openzeppelin/contracts/utils/Address.sol\":4023:4090  (bool success, bytes memory returndata) = target.delegatecall(data) */\n      swap2\n      pop\n      swap2\n      pop\n        /* \"@openzeppelin/contracts/utils/Address.sol\":4107:4162  verifyCallResultFromTarget(target, success, returndata) */\n      tag_205\n        /* \"@openzeppelin/contracts/utils/Address.sol\":4134:4140  target */\n      dup6\n        /* \"@openzeppelin/contracts/utils/Address.sol\":4142:4149  success */\n      dup4\n        /* \"@openzeppelin/contracts/utils/Address.sol\":4151:4161  returndata */\n      dup4\n        /* \"@openzeppelin/contracts/utils/Address.sol\":4107:4133  verifyCallResultFromTarget */\n      tag_206\n        /* \"@openzeppelin/contracts/utils/Address.sol\":4107:4162  verifyCallResultFromTarget(target, success, returndata) */\n      jump\t// in\n    tag_205:\n        /* \"@openzeppelin/contracts/utils/Address.sol\":4100:4162  return verifyCallResultFromTarget(target, success, returndata) */\n      swap3\n      pop\n      pop\n      pop\n        /* \"@openzeppelin/contracts/utils/Address.sol\":3916:4169  function functionDelegateCall(address target, bytes memory data) internal returns (bytes memory) {... */\n      swap3\n      swap2\n      pop\n      pop\n      jump\t// out\n        /* \"@openzeppelin/contracts/proxy/ERC1967/ERC1967Utils.sol\":6113:6235  function _checkNonPayable() private {... */\n    tag_181:\n        /* \"@openzeppelin/contracts/proxy/ERC1967/ERC1967Utils.sol\":6175:6176  0 */\n      0x00\n        /* \"@openzeppelin/contracts/proxy/ERC1967/ERC1967Utils.sol\":6163:6172  msg.value */\n      callvalue\n        /* \"@openzeppelin/contracts/proxy/ERC1967/ERC1967Utils.sol\":6163:6176  msg.value > 0 */\n      gt\n        /* \"@openzeppelin/contracts/proxy/ERC1967/ERC1967Utils.sol\":6159:6229  if (msg.value > 0) {... */\n      iszero\n      tag_208\n      jumpi\n        /* \"@openzeppelin/contracts/proxy/ERC1967/ERC1967Utils.sol\":6199:6218  ERC1967NonPayable() */\n      mload(0x40)\n      0xb398979f00000000000000000000000000000000000000000000000000000000\n      dup2\n      mstore\n      0x04\n      add\n      mload(0x40)\n      dup1\n      swap2\n      sub\n      swap1\n      revert\n        /* \"@openzeppelin/contracts/proxy/ERC1967/ERC1967Utils.sol\":6159:6229  if (msg.value > 0) {... */\n    tag_208:\n        /* \"@openzeppelin/contracts/proxy/ERC1967/ERC1967Utils.sol\":6113:6235  function _checkNonPayable() private {... */\n      jump\t// out\n        /* \"@openzeppelin/contracts-upgradeable/proxy/utils/Initializable.sol\":8485:8605  function _isInitializing() internal view returns (bool) {... */\n    tag_185:\n        /* \"@openzeppelin/contracts-upgradeable/proxy/utils/Initializable.sol\":8535:8539  bool */\n      0x00\n        /* \"@openzeppelin/contracts-upgradeable/proxy/utils/Initializable.sol\":8558:8584  _getInitializableStorage() */\n      tag_210\n        /* \"@openzeppelin/contracts-upgradeable/proxy/utils/Initializable.sol\":8558:8582  _getInitializableStorage */\n      tag_88\n        /* \"@openzeppelin/contracts-upgradeable/proxy/utils/Initializable.sol\":8558:8584  _getInitializableStorage() */\n      jump\t// in\n    tag_210:\n        /* \"@openzeppelin/contracts-upgradeable/proxy/utils/Initializable.sol\":8558:8598  _getInitializableStorage()._initializing */\n      0x00\n      add\n      0x08\n      swap1\n      sload\n      swap1\n      0x0100\n      exp\n      swap1\n      div\n      0xff\n      and\n        /* \"@openzeppelin/contracts-upgradeable/proxy/utils/Initializable.sol\":8551:8598  return _getInitializableStorage()._initializing */\n      swap1\n      pop\n        /* \"@openzeppelin/contracts-upgradeable/proxy/utils/Initializable.sol\":8485:8605  function _isInitializing() internal view returns (bool) {... */\n      swap1\n      jump\t// out\n        /* \"@openzeppelin/contracts/utils/Address.sol\":4437:5019  function verifyCallResultFromTarget(... */\n    tag_206:\n        /* \"@openzeppelin/contracts/utils/Address.sol\":4581:4593  bytes memory */\n      0x60\n        /* \"@openzeppelin/contracts/utils/Address.sol\":4610:4617  success */\n      dup3\n        /* \"@openzeppelin/contracts/utils/Address.sol\":4605:5013  if (!success) {... */\n      tag_212\n      jumpi\n        /* \"@openzeppelin/contracts/utils/Address.sol\":4633:4652  _revert(returndata) */\n      tag_213\n        /* \"@openzeppelin/contracts/utils/Address.sol\":4641:4651  returndata */\n      dup3\n        /* \"@openzeppelin/contracts/utils/Address.sol\":4633:4640  _revert */\n      tag_214\n        /* \"@openzeppelin/contracts/utils/Address.sol\":4633:4652  _revert(returndata) */\n      jump\t// in\n    tag_213:\n        /* \"@openzeppelin/contracts/utils/Address.sol\":4605:5013  if (!success) {... */\n      jump(tag_215)\n    tag_212:\n        /* \"@openzeppelin/contracts/utils/Address.sol\":4878:4879  0 */\n      0x00\n        /* \"@openzeppelin/contracts/utils/Address.sol\":4857:4867  returndata */\n      dup3\n        /* \"@openzeppelin/contracts/utils/Address.sol\":4857:4874  returndata.length */\n      mload\n        /* \"@openzeppelin/contracts/utils/Address.sol\":4857:4879  returndata.length == 0 */\n      eq\n        /* \"@openzeppelin/contracts/utils/Address.sol\":4857:4906  returndata.length == 0 && target.code.length == 0 */\n      dup1\n      iszero\n      tag_216\n      jumpi\n      pop\n        /* \"@openzeppelin/contracts/utils/Address.sol\":4905:4906  0 */\n      0x00\n        /* \"@openzeppelin/contracts/utils/Address.sol\":4883:4889  target */\n      dup5\n        /* \"@openzeppelin/contracts/utils/Address.sol\":4883:4901  target.code.length */\n      0xffffffffffffffffffffffffffffffffffffffff\n      and\n      extcodesize\n        /* \"@openzeppelin/contracts/utils/Address.sol\":4883:4906  target.code.length == 0 */\n      eq\n        /* \"@openzeppelin/contracts/utils/Address.sol\":4857:4906  returndata.length == 0 && target.code.length == 0 */\n    tag_216:\n        /* \"@openzeppelin/contracts/utils/Address.sol\":4853:4972  if (returndata.length == 0 && target.code.length == 0) {... */\n      iszero\n      tag_217\n      jumpi\n        /* \"@openzeppelin/contracts/utils/Address.sol\":4950:4956  target */\n      dup4\n        /* \"@openzeppelin/contracts/utils/Address.sol\":4933:4957  AddressEmptyCode(target) */\n      mload(0x40)\n      0x9996b31500000000000000000000000000000000000000000000000000000000\n      dup2\n      mstore\n      0x04\n      add\n      tag_218\n      swap2\n      swap1\n      tag_19\n      jump\t// in\n    tag_218:\n      mload(0x40)\n      dup1\n      swap2\n      sub\n      swap1\n      revert\n        /* \"@openzeppelin/contracts/utils/Address.sol\":4853:4972  if (returndata.length == 0 && target.code.length == 0) {... */\n    tag_217:\n        /* \"@openzeppelin/contracts/utils/Address.sol\":4992:5002  returndata */\n      dup2\n        /* \"@openzeppelin/contracts/utils/Address.sol\":4985:5002  return returndata */\n      swap1\n      pop\n      jump(tag_211)\n        /* \"@openzeppelin/contracts/utils/Address.sol\":4605:5013  if (!success) {... */\n    tag_215:\n        /* \"@openzeppelin/contracts/utils/Address.sol\":4437:5019  function verifyCallResultFromTarget(... */\n    tag_211:\n      swap4\n      swap3\n      pop\n      pop\n      pop\n      jump\t// out\n        /* \"@openzeppelin/contracts/utils/Address.sol\":5559:5993  function _revert(bytes memory returndata) private pure {... */\n    tag_214:\n        /* \"@openzeppelin/contracts/utils/Address.sol\":5710:5711  0 */\n      0x00\n        /* \"@openzeppelin/contracts/utils/Address.sol\":5690:5700  returndata */\n      dup2\n        /* \"@openzeppelin/contracts/utils/Address.sol\":5690:5707  returndata.length */\n      mload\n        /* \"@openzeppelin/contracts/utils/Address.sol\":5690:5711  returndata.length > 0 */\n      gt\n        /* \"@openzeppelin/contracts/utils/Address.sol\":5686:5987  if (returndata.length > 0) {... */\n      iszero\n      tag_220\n      jumpi\n        /* \"@openzeppelin/contracts/utils/Address.sol\":5894:5904  returndata */\n      dup1\n        /* \"@openzeppelin/contracts/utils/Address.sol\":5888:5905  mload(returndata) */\n      mload\n        /* \"@openzeppelin/contracts/utils/Address.sol\":5881:5885  0x20 */\n      0x20\n        /* \"@openzeppelin/contracts/utils/Address.sol\":5869:5879  returndata */\n      dup3\n        /* \"@openzeppelin/contracts/utils/Address.sol\":5865:5886  add(returndata, 0x20) */\n      add\n        /* \"@openzeppelin/contracts/utils/Address.sol\":5858:5906  revert(add(returndata, 0x20), mload(returndata)) */\n      revert\n        /* \"@openzeppelin/contracts/utils/Address.sol\":5686:5987  if (returndata.length > 0) {... */\n    tag_220:\n        /* \"@openzeppelin/contracts/utils/Address.sol\":5957:5976  Errors.FailedCall() */\n      mload(0x40)\n      0xd6bda27500000000000000000000000000000000000000000000000000000000\n      dup2\n      mstore\n      0x04\n      add\n      mload(0x40)\n      dup1\n      swap2\n      sub\n      swap1\n      revert\n        /* \"#utility.yul\":7:133   */\n    tag_222:\n        /* \"#utility.yul\":44:51   */\n      0x00\n        /* \"#utility.yul\":84:126   */\n      0xffffffffffffffffffffffffffffffffffffffff\n        /* \"#utility.yul\":77:82   */\n      dup3\n        /* \"#utility.yul\":73:127   */\n      and\n        /* \"#utility.yul\":62:127   */\n      swap1\n      pop\n        /* \"#utility.yul\":7:133   */\n      swap2\n      swap1\n      pop\n      jump\t// out\n        /* \"#utility.yul\":139:235   */\n    tag_223:\n        /* \"#utility.yul\":176:183   */\n      0x00\n        /* \"#utility.yul\":205:229   */\n      tag_281\n        /* \"#utility.yul\":223:228   */\n      dup3\n        /* \"#utility.yul\":205:229   */\n      tag_222\n      jump\t// in\n    tag_281:\n        /* \"#utility.yul\":194:229   */\n      swap1\n      pop\n        /* \"#utility.yul\":139:235   */\n      swap2\n      swap1\n      pop\n      jump\t// out\n        /* \"#utility.yul\":241:359   */\n    tag_224:\n        /* \"#utility.yul\":328:352   */\n      tag_283\n        /* \"#utility.yul\":346:351   */\n      dup2\n        /* \"#utility.yul\":328:352   */\n      tag_223\n      jump\t// in\n    tag_283:\n        /* \"#utility.yul\":323:326   */\n      dup3\n        /* \"#utility.yul\":316:353   */\n      mstore\n        /* \"#utility.yul\":241:359   */\n      pop\n      pop\n      jump\t// out\n        /* \"#utility.yul\":365:587   */\n    tag_19:\n        /* \"#utility.yul\":458:462   */\n      0x00\n        /* \"#utility.yul\":496:498   */\n      0x20\n        /* \"#utility.yul\":485:494   */\n      dup3\n        /* \"#utility.yul\":481:499   */\n      add\n        /* \"#utility.yul\":473:499   */\n      swap1\n      pop\n        /* \"#utility.yul\":509:580   */\n      tag_285\n        /* \"#utility.yul\":577:578   */\n      0x00\n        /* \"#utility.yul\":566:575   */\n      dup4\n        /* \"#utility.yul\":562:579   */\n      add\n        /* \"#utility.yul\":553:559   */\n      dup5\n        /* \"#utility.yul\":509:580   */\n      tag_224\n      jump\t// in\n    tag_285:\n        /* \"#utility.yul\":365:587   */\n      swap3\n      swap2\n      pop\n      pop\n      jump\t// out\n        /* \"#utility.yul\":593:668   */\n    tag_225:\n        /* \"#utility.yul\":626:632   */\n      0x00\n        /* \"#utility.yul\":659:661   */\n      0x40\n        /* \"#utility.yul\":653:662   */\n      mload\n        /* \"#utility.yul\":643:662   */\n      swap1\n      pop\n        /* \"#utility.yul\":593:668   */\n      swap1\n      jump\t// out\n        /* \"#utility.yul\":674:791   */\n    tag_226:\n        /* \"#utility.yul\":783:784   */\n      0x00\n        /* \"#utility.yul\":780:781   */\n      0x00\n        /* \"#utility.yul\":773:785   */\n      revert\n        /* \"#utility.yul\":797:914   */\n    tag_227:\n        /* \"#utility.yul\":906:907   */\n      0x00\n        /* \"#utility.yul\":903:904   */\n      0x00\n        /* \"#utility.yul\":896:908   */\n      revert\n        /* \"#utility.yul\":920:1037   */\n    tag_228:\n        /* \"#utility.yul\":1029:1030   */\n      0x00\n        /* \"#utility.yul\":1026:1027   */\n      0x00\n        /* \"#utility.yul\":1019:1031   */\n      revert\n        /* \"#utility.yul\":1043:1160   */\n    tag_229:\n        /* \"#utility.yul\":1152:1153   */\n      0x00\n        /* \"#utility.yul\":1149:1150   */\n      0x00\n        /* \"#utility.yul\":1142:1154   */\n      revert\n        /* \"#utility.yul\":1166:1268   */\n    tag_230:\n        /* \"#utility.yul\":1207:1213   */\n      0x00\n        /* \"#utility.yul\":1258:1260   */\n      0x1f\n        /* \"#utility.yul\":1254:1261   */\n      not\n        /* \"#utility.yul\":1249:1251   */\n      0x1f\n        /* \"#utility.yul\":1242:1247   */\n      dup4\n        /* \"#utility.yul\":1238:1252   */\n      add\n        /* \"#utility.yul\":1234:1262   */\n      and\n        /* \"#utility.yul\":1224:1262   */\n      swap1\n      pop\n        /* \"#utility.yul\":1166:1268   */\n      swap2\n      swap1\n      pop\n      jump\t// out\n        /* \"#utility.yul\":1274:1454   */\n    tag_231:\n        /* \"#utility.yul\":1322:1399   */\n      0x4e487b7100000000000000000000000000000000000000000000000000000000\n        /* \"#utility.yul\":1319:1320   */\n      0x00\n        /* \"#utility.yul\":1312:1400   */\n      mstore\n        /* \"#utility.yul\":1419:1423   */\n      0x41\n        /* \"#utility.yul\":1416:1417   */\n      0x04\n        /* \"#utility.yul\":1409:1424   */\n      mstore\n        /* \"#utility.yul\":1443:1447   */\n      0x24\n        /* \"#utility.yul\":1440:1441   */\n      0x00\n        /* \"#utility.yul\":1433:1448   */\n      revert\n        /* \"#utility.yul\":1460:1741   */\n    tag_232:\n        /* \"#utility.yul\":1543:1570   */\n      tag_294\n        /* \"#utility.yul\":1565:1569   */\n      dup3\n        /* \"#utility.yul\":1543:1570   */\n      tag_230\n      jump\t// in\n    tag_294:\n        /* \"#utility.yul\":1535:1541   */\n      dup2\n        /* \"#utility.yul\":1531:1571   */\n      add\n        /* \"#utility.yul\":1673:1679   */\n      dup2\n        /* \"#utility.yul\":1661:1671   */\n      dup2\n        /* \"#utility.yul\":1658:1680   */\n      lt\n        /* \"#utility.yul\":1637:1655   */\n      0xffffffffffffffff\n        /* \"#utility.yul\":1625:1635   */\n      dup3\n        /* \"#utility.yul\":1622:1656   */\n      gt\n        /* \"#utility.yul\":1619:1681   */\n      or\n        /* \"#utility.yul\":1616:1704   */\n      iszero\n      tag_295\n      jumpi\n        /* \"#utility.yul\":1684:1702   */\n      tag_296\n      tag_231\n      jump\t// in\n    tag_296:\n        /* \"#utility.yul\":1616:1704   */\n    tag_295:\n        /* \"#utility.yul\":1724:1734   */\n      dup1\n        /* \"#utility.yul\":1720:1722   */\n      0x40\n        /* \"#utility.yul\":1713:1735   */\n      mstore\n        /* \"#utility.yul\":1503:1741   */\n      pop\n        /* \"#utility.yul\":1460:1741   */\n      pop\n      pop\n      jump\t// out\n        /* \"#utility.yul\":1747:1876   */\n    tag_233:\n        /* \"#utility.yul\":1781:1787   */\n      0x00\n        /* \"#utility.yul\":1808:1828   */\n      tag_298\n      tag_225\n      jump\t// in\n    tag_298:\n        /* \"#utility.yul\":1798:1828   */\n      swap1\n      pop\n        /* \"#utility.yul\":1837:1870   */\n      tag_299\n        /* \"#utility.yul\":1865:1869   */\n      dup3\n        /* \"#utility.yul\":1857:1863   */\n      dup3\n        /* \"#utility.yul\":1837:1870   */\n      tag_232\n      jump\t// in\n    tag_299:\n        /* \"#utility.yul\":1747:1876   */\n      swap2\n      swap1\n      pop\n      jump\t// out\n        /* \"#utility.yul\":1882:2190   */\n    tag_234:\n        /* \"#utility.yul\":1944:1948   */\n      0x00\n        /* \"#utility.yul\":2034:2052   */\n      0xffffffffffffffff\n        /* \"#utility.yul\":2026:2032   */\n      dup3\n        /* \"#utility.yul\":2023:2053   */\n      gt\n        /* \"#utility.yul\":2020:2076   */\n      iszero\n      tag_301\n      jumpi\n        /* \"#utility.yul\":2056:2074   */\n      tag_302\n      tag_231\n      jump\t// in\n    tag_302:\n        /* \"#utility.yul\":2020:2076   */\n    tag_301:\n        /* \"#utility.yul\":2094:2123   */\n      tag_303\n        /* \"#utility.yul\":2116:2122   */\n      dup3\n        /* \"#utility.yul\":2094:2123   */\n      tag_230\n      jump\t// in\n    tag_303:\n        /* \"#utility.yul\":2086:2123   */\n      swap1\n      pop\n        /* \"#utility.yul\":2178:2182   */\n      0x20\n        /* \"#utility.yul\":2172:2176   */\n      dup2\n        /* \"#utility.yul\":2168:2183   */\n      add\n        /* \"#utility.yul\":2160:2183   */\n      swap1\n      pop\n        /* \"#utility.yul\":1882:2190   */\n      swap2\n      swap1\n      pop\n      jump\t// out\n        /* \"#utility.yul\":2196:2344   */\n    tag_235:\n        /* \"#utility.yul\":2294:2300   */\n      dup3\n        /* \"#utility.yul\":2289:2292   */\n      dup2\n        /* \"#utility.yul\":2284:2287   */\n      dup4\n        /* \"#utility.yul\":2271:2301   */\n      calldatacopy\n        /* \"#utility.yul\":2335:2336   */\n      0x00\n        /* \"#utility.yul\":2326:2332   */\n      dup4\n        /* \"#utility.yul\":2321:2324   */\n      dup4\n        /* \"#utility.yul\":2317:2333   */\n      add\n        /* \"#utility.yul\":2310:2337   */\n      mstore\n        /* \"#utility.yul\":2196:2344   */\n      pop\n      pop\n      pop\n      jump\t// out\n        /* \"#utility.yul\":2350:2775   */\n    tag_236:\n        /* \"#utility.yul\":2428:2433   */\n      0x00\n        /* \"#utility.yul\":2453:2519   */\n      tag_306\n        /* \"#utility.yul\":2469:2518   */\n      tag_307\n        /* \"#utility.yul\":2511:2517   */\n      dup5\n        /* \"#utility.yul\":2469:2518   */\n      tag_234\n      jump\t// in\n    tag_307:\n        /* \"#utility.yul\":2453:2519   */\n      tag_233\n      jump\t// in\n    tag_306:\n        /* \"#utility.yul\":2444:2519   */\n      swap1\n      pop\n        /* \"#utility.yul\":2542:2548   */\n      dup3\n        /* \"#utility.yul\":2535:2540   */\n      dup2\n        /* \"#utility.yul\":2528:2549   */\n      mstore\n        /* \"#utility.yul\":2580:2584   */\n      0x20\n        /* \"#utility.yul\":2573:2578   */\n      dup2\n        /* \"#utility.yul\":2569:2585   */\n      add\n        /* \"#utility.yul\":2618:2621   */\n      dup5\n        /* \"#utility.yul\":2609:2615   */\n      dup5\n        /* \"#utility.yul\":2604:2607   */\n      dup5\n        /* \"#utility.yul\":2600:2616   */\n      add\n        /* \"#utility.yul\":2597:2622   */\n      gt\n        /* \"#utility.yul\":2594:2706   */\n      iszero\n      tag_308\n      jumpi\n        /* \"#utility.yul\":2625:2704   */\n      tag_309\n      tag_229\n      jump\t// in\n    tag_309:\n        /* \"#utility.yul\":2594:2706   */\n    tag_308:\n        /* \"#utility.yul\":2715:2769   */\n      tag_310\n        /* \"#utility.yul\":2762:2768   */\n      dup5\n        /* \"#utility.yul\":2757:2760   */\n      dup3\n        /* \"#utility.yul\":2752:2755   */\n      dup6\n        /* \"#utility.yul\":2715:2769   */\n      tag_235\n      jump\t// in\n    tag_310:\n        /* \"#utility.yul\":2434:2775   */\n      pop\n        /* \"#utility.yul\":2350:2775   */\n      swap4\n      swap3\n      pop\n      pop\n      pop\n      jump\t// out\n        /* \"#utility.yul\":2795:3135   */\n    tag_237:\n        /* \"#utility.yul\":2851:2856   */\n      0x00\n        /* \"#utility.yul\":2900:2903   */\n      dup3\n        /* \"#utility.yul\":2893:2897   */\n      0x1f\n        /* \"#utility.yul\":2885:2891   */\n      dup4\n        /* \"#utility.yul\":2881:2898   */\n      add\n        /* \"#utility.yul\":2877:2904   */\n      slt\n        /* \"#utility.yul\":2867:2989   */\n      tag_312\n      jumpi\n        /* \"#utility.yul\":2908:2987   */\n      tag_313\n      tag_228\n      jump\t// in\n    tag_313:\n        /* \"#utility.yul\":2867:2989   */\n    tag_312:\n        /* \"#utility.yul\":3025:3031   */\n      dup2\n        /* \"#utility.yul\":3012:3032   */\n      calldataload\n        /* \"#utility.yul\":3050:3129   */\n      tag_314\n        /* \"#utility.yul\":3125:3128   */\n      dup5\n        /* \"#utility.yul\":3117:3123   */\n      dup3\n        /* \"#utility.yul\":3110:3114   */\n      0x20\n        /* \"#utility.yul\":3102:3108   */\n      dup7\n        /* \"#utility.yul\":3098:3115   */\n      add\n        /* \"#utility.yul\":3050:3129   */\n      tag_236\n      jump\t// in\n    tag_314:\n        /* \"#utility.yul\":3041:3129   */\n      swap2\n      pop\n        /* \"#utility.yul\":2857:3135   */\n      pop\n        /* \"#utility.yul\":2795:3135   */\n      swap3\n      swap2\n      pop\n      pop\n      jump\t// out\n        /* \"#utility.yul\":3141:3650   */\n    tag_23:\n        /* \"#utility.yul\":3210:3216   */\n      0x00\n        /* \"#utility.yul\":3259:3261   */\n      0x20\n        /* \"#utility.yul\":3247:3256   */\n      dup3\n        /* \"#utility.yul\":3238:3245   */\n      dup5\n        /* \"#utility.yul\":3234:3257   */\n      sub\n        /* \"#utility.yul\":3230:3262   */\n      slt\n        /* \"#utility.yul\":3227:3346   */\n      iszero\n      tag_316\n      jumpi\n        /* \"#utility.yul\":3265:3344   */\n      tag_317\n      tag_226\n      jump\t// in\n    tag_317:\n        /* \"#utility.yul\":3227:3346   */\n    tag_316:\n        /* \"#utility.yul\":3413:3414   */\n      0x00\n        /* \"#utility.yul\":3402:3411   */\n      dup3\n        /* \"#utility.yul\":3398:3415   */\n      add\n        /* \"#utility.yul\":3385:3416   */\n      calldataload\n        /* \"#utility.yul\":3443:3461   */\n      0xffffffffffffffff\n        /* \"#utility.yul\":3435:3441   */\n      dup2\n        /* \"#utility.yul\":3432:3462   */\n      gt\n        /* \"#utility.yul\":3429:3546   */\n      iszero\n      tag_318\n      jumpi\n        /* \"#utility.yul\":3465:3544   */\n      tag_319\n      tag_227\n      jump\t// in\n    tag_319:\n        /* \"#utility.yul\":3429:3546   */\n    tag_318:\n        /* \"#utility.yul\":3570:3633   */\n      tag_320\n        /* \"#utility.yul\":3625:3632   */\n      dup5\n        /* \"#utility.yul\":3616:3622   */\n      dup3\n        /* \"#utility.yul\":3605:3614   */\n      dup6\n        /* \"#utility.yul\":3601:3623   */\n      add\n        /* \"#utility.yul\":3570:3633   */\n      tag_237\n      jump\t// in\n    tag_320:\n        /* \"#utility.yul\":3560:3633   */\n      swap2\n      pop\n        /* \"#utility.yul\":3356:3643   */\n      pop\n        /* \"#utility.yul\":3141:3650   */\n      swap3\n      swap2\n      pop\n      pop\n      jump\t// out\n        /* \"#utility.yul\":3656:3733   */\n    tag_238:\n        /* \"#utility.yul\":3693:3700   */\n      0x00\n        /* \"#utility.yul\":3722:3727   */\n      dup2\n        /* \"#utility.yul\":3711:3727   */\n      swap1\n      pop\n        /* \"#utility.yul\":3656:3733   */\n      swap2\n      swap1\n      pop\n      jump\t// out\n        /* \"#utility.yul\":3739:3857   */\n    tag_239:\n        /* \"#utility.yul\":3826:3850   */\n      tag_323\n        /* \"#utility.yul\":3844:3849   */\n      dup2\n        /* \"#utility.yul\":3826:3850   */\n      tag_238\n      jump\t// in\n    tag_323:\n        /* \"#utility.yul\":3821:3824   */\n      dup3\n        /* \"#utility.yul\":3814:3851   */\n      mstore\n        /* \"#utility.yul\":3739:3857   */\n      pop\n      pop\n      jump\t// out\n        /* \"#utility.yul\":3863:4085   */\n    tag_29:\n        /* \"#utility.yul\":3956:3960   */\n      0x00\n        /* \"#utility.yul\":3994:3996   */\n      0x20\n        /* \"#utility.yul\":3983:3992   */\n      dup3\n        /* \"#utility.yul\":3979:3997   */\n      add\n        /* \"#utility.yul\":3971:3997   */\n      swap1\n      pop\n        /* \"#utility.yul\":4007:4078   */\n      tag_325\n        /* \"#utility.yul\":4075:4076   */\n      0x00\n        /* \"#utility.yul\":4064:4073   */\n      dup4\n        /* \"#utility.yul\":4060:4077   */\n      add\n        /* \"#utility.yul\":4051:4057   */\n      dup5\n        /* \"#utility.yul\":4007:4078   */\n      tag_239\n      jump\t// in\n    tag_325:\n        /* \"#utility.yul\":3863:4085   */\n      swap3\n      swap2\n      pop\n      pop\n      jump\t// out\n        /* \"#utility.yul\":4091:4213   */\n    tag_240:\n        /* \"#utility.yul\":4164:4188   */\n      tag_327\n        /* \"#utility.yul\":4182:4187   */\n      dup2\n        /* \"#utility.yul\":4164:4188   */\n      tag_223\n      jump\t// in\n    tag_327:\n        /* \"#utility.yul\":4157:4162   */\n      dup2\n        /* \"#utility.yul\":4154:4189   */\n      eq\n        /* \"#utility.yul\":4144:4207   */\n      tag_328\n      jumpi\n        /* \"#utility.yul\":4203:4204   */\n      0x00\n        /* \"#utility.yul\":4200:4201   */\n      0x00\n        /* \"#utility.yul\":4193:4205   */\n      revert\n        /* \"#utility.yul\":4144:4207   */\n    tag_328:\n        /* \"#utility.yul\":4091:4213   */\n      pop\n      jump\t// out\n        /* \"#utility.yul\":4219:4358   */\n    tag_241:\n        /* \"#utility.yul\":4265:4270   */\n      0x00\n        /* \"#utility.yul\":4303:4309   */\n      dup2\n        /* \"#utility.yul\":4290:4310   */\n      calldataload\n        /* \"#utility.yul\":4281:4310   */\n      swap1\n      pop\n        /* \"#utility.yul\":4319:4352   */\n      tag_330\n        /* \"#utility.yul\":4346:4351   */\n      dup2\n        /* \"#utility.yul\":4319:4352   */\n      tag_240\n      jump\t// in\n    tag_330:\n        /* \"#utility.yul\":4219:4358   */\n      swap3\n      swap2\n      pop\n      pop\n      jump\t// out\n        /* \"#utility.yul\":4364:4671   */\n    tag_242:\n        /* \"#utility.yul\":4425:4429   */\n      0x00\n        /* \"#utility.yul\":4515:4533   */\n      0xffffffffffffffff\n        /* \"#utility.yul\":4507:4513   */\n      dup3\n        /* \"#utility.yul\":4504:4534   */\n      gt\n        /* \"#utility.yul\":4501:4557   */\n      iszero\n      tag_332\n      jumpi\n        /* \"#utility.yul\":4537:4555   */\n      tag_333\n      tag_231\n      jump\t// in\n    tag_333:\n        /* \"#utility.yul\":4501:4557   */\n    tag_332:\n        /* \"#utility.yul\":4575:4604   */\n      tag_334\n        /* \"#utility.yul\":4597:4603   */\n      dup3\n        /* \"#utility.yul\":4575:4604   */\n      tag_230\n      jump\t// in\n    tag_334:\n        /* \"#utility.yul\":4567:4604   */\n      swap1\n      pop\n        /* \"#utility.yul\":4659:4663   */\n      0x20\n        /* \"#utility.yul\":4653:4657   */\n      dup2\n        /* \"#utility.yul\":4649:4664   */\n      add\n        /* \"#utility.yul\":4641:4664   */\n      swap1\n      pop\n        /* \"#utility.yul\":4364:4671   */\n      swap2\n      swap1\n      pop\n      jump\t// out\n        /* \"#utility.yul\":4677:5100   */\n    tag_243:\n        /* \"#utility.yul\":4754:4759   */\n      0x00\n        /* \"#utility.yul\":4779:4844   */\n      tag_336\n        /* \"#utility.yul\":4795:4843   */\n      tag_337\n        /* \"#utility.yul\":4836:4842   */\n      dup5\n        /* \"#utility.yul\":4795:4843   */\n      tag_242\n      jump\t// in\n    tag_337:\n        /* \"#utility.yul\":4779:4844   */\n      tag_233\n      jump\t// in\n    tag_336:\n        /* \"#utility.yul\":4770:4844   */\n      swap1\n      pop\n        /* \"#utility.yul\":4867:4873   */\n      dup3\n        /* \"#utility.yul\":4860:4865   */\n      dup2\n        /* \"#utility.yul\":4853:4874   */\n      mstore\n        /* \"#utility.yul\":4905:4909   */\n      0x20\n        /* \"#utility.yul\":4898:4903   */\n      dup2\n        /* \"#utility.yul\":4894:4910   */\n      add\n        /* \"#utility.yul\":4943:4946   */\n      dup5\n        /* \"#utility.yul\":4934:4940   */\n      dup5\n        /* \"#utility.yul\":4929:4932   */\n      dup5\n        /* \"#utility.yul\":4925:4941   */\n      add\n        /* \"#utility.yul\":4922:4947   */\n      gt\n        /* \"#utility.yul\":4919:5031   */\n      iszero\n      tag_338\n      jumpi\n        /* \"#utility.yul\":4950:5029   */\n      tag_339\n      tag_229\n      jump\t// in\n    tag_339:\n        /* \"#utility.yul\":4919:5031   */\n    tag_338:\n        /* \"#utility.yul\":5040:5094   */\n      tag_340\n        /* \"#utility.yul\":5087:5093   */\n      dup5\n        /* \"#utility.yul\":5082:5085   */\n      dup3\n        /* \"#utility.yul\":5077:5080   */\n      dup6\n        /* \"#utility.yul\":5040:5094   */\n      tag_235\n      jump\t// in\n    tag_340:\n        /* \"#utility.yul\":4760:5100   */\n      pop\n        /* \"#utility.yul\":4677:5100   */\n      swap4\n      swap3\n      pop\n      pop\n      pop\n      jump\t// out\n        /* \"#utility.yul\":5119:5457   */\n    tag_244:\n        /* \"#utility.yul\":5174:5179   */\n      0x00\n        /* \"#utility.yul\":5223:5226   */\n      dup3\n        /* \"#utility.yul\":5216:5220   */\n      0x1f\n        /* \"#utility.yul\":5208:5214   */\n      dup4\n        /* \"#utility.yul\":5204:5221   */\n      add\n        /* \"#utility.yul\":5200:5227   */\n      slt\n        /* \"#utility.yul\":5190:5312   */\n      tag_342\n      jumpi\n        /* \"#utility.yul\":5231:5310   */\n      tag_343\n      tag_228\n      jump\t// in\n    tag_343:\n        /* \"#utility.yul\":5190:5312   */\n    tag_342:\n        /* \"#utility.yul\":5348:5354   */\n      dup2\n        /* \"#utility.yul\":5335:5355   */\n      calldataload\n        /* \"#utility.yul\":5373:5451   */\n      tag_344\n        /* \"#utility.yul\":5447:5450   */\n      dup5\n        /* \"#utility.yul\":5439:5445   */\n      dup3\n        /* \"#utility.yul\":5432:5436   */\n      0x20\n        /* \"#utility.yul\":5424:5430   */\n      dup7\n        /* \"#utility.yul\":5420:5437   */\n      add\n        /* \"#utility.yul\":5373:5451   */\n      tag_243\n      jump\t// in\n    tag_344:\n        /* \"#utility.yul\":5364:5451   */\n      swap2\n      pop\n        /* \"#utility.yul\":5180:5457   */\n      pop\n        /* \"#utility.yul\":5119:5457   */\n      swap3\n      swap2\n      pop\n      pop\n      jump\t// out\n        /* \"#utility.yul\":5463:6115   */\n    tag_32:\n        /* \"#utility.yul\":5540:5546   */\n      0x00\n        /* \"#utility.yul\":5548:5554   */\n      0x00\n        /* \"#utility.yul\":5597:5599   */\n      0x40\n        /* \"#utility.yul\":5585:5594   */\n      dup4\n        /* \"#utility.yul\":5576:5583   */\n      dup6\n        /* \"#utility.yul\":5572:5595   */\n      sub\n        /* \"#utility.yul\":5568:5600   */\n      slt\n        /* \"#utility.yul\":5565:5684   */\n      iszero\n      tag_346\n      jumpi\n        /* \"#utility.yul\":5603:5682   */\n      tag_347\n      tag_226\n      jump\t// in\n    tag_347:\n        /* \"#utility.yul\":5565:5684   */\n    tag_346:\n        /* \"#utility.yul\":5723:5724   */\n      0x00\n        /* \"#utility.yul\":5748:5801   */\n      tag_348\n        /* \"#utility.yul\":5793:5800   */\n      dup6\n        /* \"#utility.yul\":5784:5790   */\n      dup3\n        /* \"#utility.yul\":5773:5782   */\n      dup7\n        /* \"#utility.yul\":5769:5791   */\n      add\n        /* \"#utility.yul\":5748:5801   */\n      tag_241\n      jump\t// in\n    tag_348:\n        /* \"#utility.yul\":5738:5801   */\n      swap3\n      pop\n        /* \"#utility.yul\":5694:5811   */\n      pop\n        /* \"#utility.yul\":5878:5880   */\n      0x20\n        /* \"#utility.yul\":5867:5876   */\n      dup4\n        /* \"#utility.yul\":5863:5881   */\n      add\n        /* \"#utility.yul\":5850:5882   */\n      calldataload\n        /* \"#utility.yul\":5909:5927   */\n      0xffffffffffffffff\n        /* \"#utility.yul\":5901:5907   */\n      dup2\n        /* \"#utility.yul\":5898:5928   */\n      gt\n        /* \"#utility.yul\":5895:6012   */\n      iszero\n      tag_349\n      jumpi\n        /* \"#utility.yul\":5931:6010   */\n      tag_350\n      tag_227\n      jump\t// in\n    tag_350:\n        /* \"#utility.yul\":5895:6012   */\n    tag_349:\n        /* \"#utility.yul\":6036:6098   */\n      tag_351\n        /* \"#utility.yul\":6090:6097   */\n      dup6\n        /* \"#utility.yul\":6081:6087   */\n      dup3\n        /* \"#utility.yul\":6070:6079   */\n      dup7\n        /* \"#utility.yul\":6066:6088   */\n      add\n        /* \"#utility.yul\":6036:6098   */\n      tag_244\n      jump\t// in\n    tag_351:\n        /* \"#utility.yul\":6026:6098   */\n      swap2\n      pop\n        /* \"#utility.yul\":5821:6108   */\n      pop\n        /* \"#utility.yul\":5463:6115   */\n      swap3\n      pop\n      swap3\n      swap1\n      pop\n      jump\t// out\n        /* \"#utility.yul\":6121:6198   */\n    tag_245:\n        /* \"#utility.yul\":6158:6165   */\n      0x00\n        /* \"#utility.yul\":6187:6192   */\n      dup2\n        /* \"#utility.yul\":6176:6192   */\n      swap1\n      pop\n        /* \"#utility.yul\":6121:6198   */\n      swap2\n      swap1\n      pop\n      jump\t// out\n        /* \"#utility.yul\":6204:6322   */\n    tag_246:\n        /* \"#utility.yul\":6291:6315   */\n      tag_354\n        /* \"#utility.yul\":6309:6314   */\n      dup2\n        /* \"#utility.yul\":6291:6315   */\n      tag_245\n      jump\t// in\n    tag_354:\n        /* \"#utility.yul\":6286:6289   */\n      dup3\n        /* \"#utility.yul\":6279:6316   */\n      mstore\n        /* \"#utility.yul\":6204:6322   */\n      pop\n      pop\n      jump\t// out\n        /* \"#utility.yul\":6328:6550   */\n    tag_38:\n        /* \"#utility.yul\":6421:6425   */\n      0x00\n        /* \"#utility.yul\":6459:6461   */\n      0x20\n        /* \"#utility.yul\":6448:6457   */\n      dup3\n        /* \"#utility.yul\":6444:6462   */\n      add\n        /* \"#utility.yul\":6436:6462   */\n      swap1\n      pop\n        /* \"#utility.yul\":6472:6543   */\n      tag_356\n        /* \"#utility.yul\":6540:6541   */\n      0x00\n        /* \"#utility.yul\":6529:6538   */\n      dup4\n        /* \"#utility.yul\":6525:6542   */\n      add\n        /* \"#utility.yul\":6516:6522   */\n      dup5\n        /* \"#utility.yul\":6472:6543   */\n      tag_246\n      jump\t// in\n    tag_356:\n        /* \"#utility.yul\":6328:6550   */\n      swap3\n      swap2\n      pop\n      pop\n      jump\t// out\n        /* \"#utility.yul\":6556:6678   */\n    tag_247:\n        /* \"#utility.yul\":6629:6653   */\n      tag_358\n        /* \"#utility.yul\":6647:6652   */\n      dup2\n        /* \"#utility.yul\":6629:6653   */\n      tag_238\n      jump\t// in\n    tag_358:\n        /* \"#utility.yul\":6622:6627   */\n      dup2\n        /* \"#utility.yul\":6619:6654   */\n      eq\n        /* \"#utility.yul\":6609:6672   */\n      tag_359\n      jumpi\n        /* \"#utility.yul\":6668:6669   */\n      0x00\n        /* \"#utility.yul\":6665:6666   */\n      0x00\n        /* \"#utility.yul\":6658:6670   */\n      revert\n        /* \"#utility.yul\":6609:6672   */\n    tag_359:\n        /* \"#utility.yul\":6556:6678   */\n      pop\n      jump\t// out\n        /* \"#utility.yul\":6684:6823   */\n    tag_248:\n        /* \"#utility.yul\":6730:6735   */\n      0x00\n        /* \"#utility.yul\":6768:6774   */\n      dup2\n        /* \"#utility.yul\":6755:6775   */\n      calldataload\n        /* \"#utility.yul\":6746:6775   */\n      swap1\n      pop\n        /* \"#utility.yul\":6784:6817   */\n      tag_361\n        /* \"#utility.yul\":6811:6816   */\n      dup2\n        /* \"#utility.yul\":6784:6817   */\n      tag_247\n      jump\t// in\n    tag_361:\n        /* \"#utility.yul\":6684:6823   */\n      swap3\n      swap2\n      pop\n      pop\n      jump\t// out\n        /* \"#utility.yul\":6829:7158   */\n    tag_42:\n        /* \"#utility.yul\":6888:6894   */\n      0x00\n        /* \"#utility.yul\":6937:6939   */\n      0x20\n        /* \"#utility.yul\":6925:6934   */\n      dup3\n        /* \"#utility.yul\":6916:6923   */\n      dup5\n        /* \"#utility.yul\":6912:6935   */\n      sub\n        /* \"#utility.yul\":6908:6940   */\n      slt\n        /* \"#utility.yul\":6905:7024   */\n      iszero\n      tag_363\n      jumpi\n        /* \"#utility.yul\":6943:7022   */\n      tag_364\n      tag_226\n      jump\t// in\n    tag_364:\n        /* \"#utility.yul\":6905:7024   */\n    tag_363:\n        /* \"#utility.yul\":7063:7064   */\n      0x00\n        /* \"#utility.yul\":7088:7141   */\n      tag_365\n        /* \"#utility.yul\":7133:7140   */\n      dup5\n        /* \"#utility.yul\":7124:7130   */\n      dup3\n        /* \"#utility.yul\":7113:7122   */\n      dup6\n        /* \"#utility.yul\":7109:7131   */\n      add\n        /* \"#utility.yul\":7088:7141   */\n      tag_248\n      jump\t// in\n    tag_365:\n        /* \"#utility.yul\":7078:7141   */\n      swap2\n      pop\n        /* \"#utility.yul\":7034:7151   */\n      pop\n        /* \"#utility.yul\":6829:7158   */\n      swap3\n      swap2\n      pop\n      pop\n      jump\t// out\n        /* \"#utility.yul\":7164:7818   */\n    tag_47:\n        /* \"#utility.yul\":7242:7248   */\n      0x00\n        /* \"#utility.yul\":7250:7256   */\n      0x00\n        /* \"#utility.yul\":7299:7301   */\n      0x40\n        /* \"#utility.yul\":7287:7296   */\n      dup4\n        /* \"#utility.yul\":7278:7285   */\n      dup6\n        /* \"#utility.yul\":7274:7297   */\n      sub\n        /* \"#utility.yul\":7270:7302   */\n      slt\n        /* \"#utility.yul\":7267:7386   */\n      iszero\n      tag_367\n      jumpi\n        /* \"#utility.yul\":7305:7384   */\n      tag_368\n      tag_226\n      jump\t// in\n    tag_368:\n        /* \"#utility.yul\":7267:7386   */\n    tag_367:\n        /* \"#utility.yul\":7425:7426   */\n      0x00\n        /* \"#utility.yul\":7450:7503   */\n      tag_369\n        /* \"#utility.yul\":7495:7502   */\n      dup6\n        /* \"#utility.yul\":7486:7492   */\n      dup3\n        /* \"#utility.yul\":7475:7484   */\n      dup7\n        /* \"#utility.yul\":7471:7493   */\n      add\n        /* \"#utility.yul\":7450:7503   */\n      tag_248\n      jump\t// in\n    tag_369:\n        /* \"#utility.yul\":7440:7503   */\n      swap3\n      pop\n        /* \"#utility.yul\":7396:7513   */\n      pop\n        /* \"#utility.yul\":7580:7582   */\n      0x20\n        /* \"#utility.yul\":7569:7578   */\n      dup4\n        /* \"#utility.yul\":7565:7583   */\n      add\n        /* \"#utility.yul\":7552:7584   */\n      calldataload\n        /* \"#utility.yul\":7611:7629   */\n      0xffffffffffffffff\n        /* \"#utility.yul\":7603:7609   */\n      dup2\n        /* \"#utility.yul\":7600:7630   */\n      gt\n        /* \"#utility.yul\":7597:7714   */\n      iszero\n      tag_370\n      jumpi\n        /* \"#utility.yul\":7633:7712   */\n      tag_371\n      tag_227\n      jump\t// in\n    tag_371:\n        /* \"#utility.yul\":7597:7714   */\n    tag_370:\n        /* \"#utility.yul\":7738:7801   */\n      tag_372\n        /* \"#utility.yul\":7793:7800   */\n      dup6\n        /* \"#utility.yul\":7784:7790   */\n      dup3\n        /* \"#utility.yul\":7773:7782   */\n      dup7\n        /* \"#utility.yul\":7769:7791   */\n      add\n        /* \"#utility.yul\":7738:7801   */\n      tag_237\n      jump\t// in\n    tag_372:\n        /* \"#utility.yul\":7728:7801   */\n      swap2\n      pop\n        /* \"#utility.yul\":7523:7811   */\n      pop\n        /* \"#utility.yul\":7164:7818   */\n      swap3\n      pop\n      swap3\n      swap1\n      pop\n      jump\t// out\n        /* \"#utility.yul\":7824:7923   */\n    tag_249:\n        /* \"#utility.yul\":7876:7882   */\n      0x00\n        /* \"#utility.yul\":7910:7915   */\n      dup2\n        /* \"#utility.yul\":7904:7916   */\n      mload\n        /* \"#utility.yul\":7894:7916   */\n      swap1\n      pop\n        /* \"#utility.yul\":7824:7923   */\n      swap2\n      swap1\n      pop\n      jump\t// out\n        /* \"#utility.yul\":7929:8098   */\n    tag_250:\n        /* \"#utility.yul\":8013:8024   */\n      0x00\n        /* \"#utility.yul\":8047:8053   */\n      dup3\n        /* \"#utility.yul\":8042:8045   */\n      dup3\n        /* \"#utility.yul\":8035:8054   */\n      mstore\n        /* \"#utility.yul\":8087:8091   */\n      0x20\n        /* \"#utility.yul\":8082:8085   */\n      dup3\n        /* \"#utility.yul\":8078:8092   */\n      add\n        /* \"#utility.yul\":8063:8092   */\n      swap1\n      pop\n        /* \"#utility.yul\":7929:8098   */\n      swap3\n      swap2\n      pop\n      pop\n      jump\t// out\n        /* \"#utility.yul\":8104:8243   */\n    tag_251:\n        /* \"#utility.yul\":8193:8199   */\n      dup3\n        /* \"#utility.yul\":8188:8191   */\n      dup2\n        /* \"#utility.yul\":8183:8186   */\n      dup4\n        /* \"#utility.yul\":8177:8200   */\n      mcopy\n        /* \"#utility.yul\":8234:8235   */\n      0x00\n        /* \"#utility.yul\":8225:8231   */\n      dup4\n        /* \"#utility.yul\":8220:8223   */\n      dup4\n        /* \"#utility.yul\":8216:8232   */\n      add\n        /* \"#utility.yul\":8209:8236   */\n      mstore\n        /* \"#utility.yul\":8104:8243   */\n      pop\n      pop\n      pop\n      jump\t// out\n        /* \"#utility.yul\":8249:8626   */\n    tag_252:\n        /* \"#utility.yul\":8337:8340   */\n      0x00\n        /* \"#utility.yul\":8365:8404   */\n      tag_377\n        /* \"#utility.yul\":8398:8403   */\n      dup3\n        /* \"#utility.yul\":8365:8404   */\n      tag_249\n      jump\t// in\n    tag_377:\n        /* \"#utility.yul\":8420:8491   */\n      tag_378\n        /* \"#utility.yul\":8484:8490   */\n      dup2\n        /* \"#utility.yul\":8479:8482   */\n      dup6\n        /* \"#utility.yul\":8420:8491   */\n      tag_250\n      jump\t// in\n    tag_378:\n        /* \"#utility.yul\":8413:8491   */\n      swap4\n      pop\n        /* \"#utility.yul\":8500:8565   */\n      tag_379\n        /* \"#utility.yul\":8558:8564   */\n      dup2\n        /* \"#utility.yul\":8553:8556   */\n      dup6\n        /* \"#utility.yul\":8546:8550   */\n      0x20\n        /* \"#utility.yul\":8539:8544   */\n      dup7\n        /* \"#utility.yul\":8535:8551   */\n      add\n        /* \"#utility.yul\":8500:8565   */\n      tag_251\n      jump\t// in\n    tag_379:\n        /* \"#utility.yul\":8590:8619   */\n      tag_380\n        /* \"#utility.yul\":8612:8618   */\n      dup2\n        /* \"#utility.yul\":8590:8619   */\n      tag_230\n      jump\t// in\n    tag_380:\n        /* \"#utility.yul\":8585:8588   */\n      dup5\n        /* \"#utility.yul\":8581:8620   */\n      add\n        /* \"#utility.yul\":8574:8620   */\n      swap2\n      pop\n        /* \"#utility.yul\":8341:8626   */\n      pop\n        /* \"#utility.yul\":8249:8626   */\n      swap3\n      swap2\n      pop\n      pop\n      jump\t// out\n        /* \"#utility.yul\":8632:8945   */\n    tag_60:\n        /* \"#utility.yul\":8745:8749   */\n      0x00\n        /* \"#utility.yul\":8783:8785   */\n      0x20\n        /* \"#utility.yul\":8772:8781   */\n      dup3\n        /* \"#utility.yul\":8768:8786   */\n      add\n        /* \"#utility.yul\":8760:8786   */\n      swap1\n      pop\n        /* \"#utility.yul\":8832:8841   */\n      dup2\n        /* \"#utility.yul\":8826:8830   */\n      dup2\n        /* \"#utility.yul\":8822:8842   */\n      sub\n        /* \"#utility.yul\":8818:8819   */\n      0x00\n        /* \"#utility.yul\":8807:8816   */\n      dup4\n        /* \"#utility.yul\":8803:8820   */\n      add\n        /* \"#utility.yul\":8796:8843   */\n      mstore\n        /* \"#utility.yul\":8860:8938   */\n      tag_382\n        /* \"#utility.yul\":8933:8937   */\n      dup2\n        /* \"#utility.yul\":8924:8930   */\n      dup5\n        /* \"#utility.yul\":8860:8938   */\n      tag_252\n      jump\t// in\n    tag_382:\n        /* \"#utility.yul\":8852:8938   */\n      swap1\n      pop\n        /* \"#utility.yul\":8632:8945   */\n      swap3\n      swap2\n      pop\n      pop\n      jump\t// out\n        /* \"#utility.yul\":8951:9280   */\n    tag_68:\n        /* \"#utility.yul\":9010:9016   */\n      0x00\n        /* \"#utility.yul\":9059:9061   */\n      0x20\n        /* \"#utility.yul\":9047:9056   */\n      dup3\n        /* \"#utility.yul\":9038:9045   */\n      dup5\n        /* \"#utility.yul\":9034:9057   */\n      sub\n        /* \"#utility.yul\":9030:9062   */\n      slt\n        /* \"#utility.yul\":9027:9146   */\n      iszero\n      tag_384\n      jumpi\n        /* \"#utility.yul\":9065:9144   */\n      tag_385\n      tag_226\n      jump\t// in\n    tag_385:\n        /* \"#utility.yul\":9027:9146   */\n    tag_384:\n        /* \"#utility.yul\":9185:9186   */\n      0x00\n        /* \"#utility.yul\":9210:9263   */\n      tag_386\n        /* \"#utility.yul\":9255:9262   */\n      dup5\n        /* \"#utility.yul\":9246:9252   */\n      dup3\n        /* \"#utility.yul\":9235:9244   */\n      dup6\n        /* \"#utility.yul\":9231:9253   */\n      add\n        /* \"#utility.yul\":9210:9263   */\n      tag_241\n      jump\t// in\n    tag_386:\n        /* \"#utility.yul\":9200:9263   */\n      swap2\n      pop\n        /* \"#utility.yul\":9156:9273   */\n      pop\n        /* \"#utility.yul\":8951:9280   */\n      swap3\n      swap2\n      pop\n      pop\n      jump\t// out\n        /* \"#utility.yul\":9286:9466   */\n    tag_253:\n        /* \"#utility.yul\":9334:9411   */\n      0x4e487b7100000000000000000000000000000000000000000000000000000000\n        /* \"#utility.yul\":9331:9332   */\n      0x00\n        /* \"#utility.yul\":9324:9412   */\n      mstore\n        /* \"#utility.yul\":9431:9435   */\n      0x22\n        /* \"#utility.yul\":9428:9429   */\n      0x04\n        /* \"#utility.yul\":9421:9436   */\n      mstore\n        /* \"#utility.yul\":9455:9459   */\n      0x24\n        /* \"#utility.yul\":9452:9453   */\n      0x00\n        /* \"#utility.yul\":9445:9460   */\n      revert\n        /* \"#utility.yul\":9472:9792   */\n    tag_113:\n        /* \"#utility.yul\":9516:9522   */\n      0x00\n        /* \"#utility.yul\":9553:9554   */\n      0x02\n        /* \"#utility.yul\":9547:9551   */\n      dup3\n        /* \"#utility.yul\":9543:9555   */\n      div\n        /* \"#utility.yul\":9533:9555   */\n      swap1\n      pop\n        /* \"#utility.yul\":9600:9601   */\n      0x01\n        /* \"#utility.yul\":9594:9598   */\n      dup3\n        /* \"#utility.yul\":9590:9602   */\n      and\n        /* \"#utility.yul\":9621:9639   */\n      dup1\n        /* \"#utility.yul\":9611:9692   */\n      tag_389\n      jumpi\n        /* \"#utility.yul\":9677:9681   */\n      0x7f\n        /* \"#utility.yul\":9669:9675   */\n      dup3\n        /* \"#utility.yul\":9665:9682   */\n      and\n        /* \"#utility.yul\":9655:9682   */\n      swap2\n      pop\n        /* \"#utility.yul\":9611:9692   */\n    tag_389:\n        /* \"#utility.yul\":9739:9741   */\n      0x20\n        /* \"#utility.yul\":9731:9737   */\n      dup3\n        /* \"#utility.yul\":9728:9742   */\n      lt\n        /* \"#utility.yul\":9708:9726   */\n      dup2\n        /* \"#utility.yul\":9705:9743   */\n      sub\n        /* \"#utility.yul\":9702:9786   */\n      tag_390\n      jumpi\n        /* \"#utility.yul\":9758:9776   */\n      tag_391\n      tag_253\n      jump\t// in\n    tag_391:\n        /* \"#utility.yul\":9702:9786   */\n    tag_390:\n        /* \"#utility.yul\":9523:9792   */\n      pop\n        /* \"#utility.yul\":9472:9792   */\n      swap2\n      swap1\n      pop\n      jump\t// out\n        /* \"#utility.yul\":9798:9939   */\n    tag_254:\n        /* \"#utility.yul\":9847:9851   */\n      0x00\n        /* \"#utility.yul\":9870:9873   */\n      dup2\n        /* \"#utility.yul\":9862:9873   */\n      swap1\n      pop\n        /* \"#utility.yul\":9893:9896   */\n      dup2\n        /* \"#utility.yul\":9890:9891   */\n      0x00\n        /* \"#utility.yul\":9883:9897   */\n      mstore\n        /* \"#utility.yul\":9927:9931   */\n      0x20\n        /* \"#utility.yul\":9924:9925   */\n      0x00\n        /* \"#utility.yul\":9914:9932   */\n      keccak256\n        /* \"#utility.yul\":9906:9932   */\n      swap1\n      pop\n        /* \"#utility.yul\":9798:9939   */\n      swap2\n      swap1\n      pop\n      jump\t// out\n        /* \"#utility.yul\":9945:10038   */\n    tag_255:\n        /* \"#utility.yul\":9982:9988   */\n      0x00\n        /* \"#utility.yul\":10029:10031   */\n      0x20\n        /* \"#utility.yul\":10024:10026   */\n      0x1f\n        /* \"#utility.yul\":10017:10022   */\n      dup4\n        /* \"#utility.yul\":10013:10027   */\n      add\n        /* \"#utility.yul\":10009:10032   */\n      div\n        /* \"#utility.yul\":9999:10032   */\n      swap1\n      pop\n        /* \"#utility.yul\":9945:10038   */\n      swap2\n      swap1\n      pop\n      jump\t// out\n        /* \"#utility.yul\":10044:10151   */\n    tag_256:\n        /* \"#utility.yul\":10088:10096   */\n      0x00\n        /* \"#utility.yul\":10138:10143   */\n      dup3\n        /* \"#utility.yul\":10132:10136   */\n      dup3\n        /* \"#utility.yul\":10128:10144   */\n      shl\n        /* \"#utility.yul\":10107:10144   */\n      swap1\n      pop\n        /* \"#utility.yul\":10044:10151   */\n      swap3\n      swap2\n      pop\n      pop\n      jump\t// out\n        /* \"#utility.yul\":10157:10550   */\n    tag_257:\n        /* \"#utility.yul\":10226:10232   */\n      0x00\n        /* \"#utility.yul\":10276:10277   */\n      0x08\n        /* \"#utility.yul\":10264:10274   */\n      dup4\n        /* \"#utility.yul\":10260:10278   */\n      mul\n        /* \"#utility.yul\":10299:10396   */\n      tag_396\n        /* \"#utility.yul\":10329:10395   */\n      0xffffffffffffffffffffffffffffffffffffffffffffffffffffffffffffffff\n        /* \"#utility.yul\":10318:10327   */\n      dup3\n        /* \"#utility.yul\":10299:10396   */\n      tag_256\n      jump\t// in\n    tag_396:\n        /* \"#utility.yul\":10417:10456   */\n      tag_397\n        /* \"#utility.yul\":10447:10455   */\n      dup7\n        /* \"#utility.yul\":10436:10445   */\n      dup4\n        /* \"#utility.yul\":10417:10456   */\n      tag_256\n      jump\t// in\n    tag_397:\n        /* \"#utility.yul\":10405:10456   */\n      swap6\n      pop\n        /* \"#utility.yul\":10489:10493   */\n      dup1\n        /* \"#utility.yul\":10485:10494   */\n      not\n        /* \"#utility.yul\":10478:10483   */\n      dup5\n        /* \"#utility.yul\":10474:10495   */\n      and\n        /* \"#utility.yul\":10465:10495   */\n      swap4\n      pop\n        /* \"#utility.yul\":10538:10542   */\n      dup1\n        /* \"#utility.yul\":10528:10536   */\n      dup7\n        /* \"#utility.yul\":10524:10543   */\n      and\n        /* \"#utility.yul\":10517:10522   */\n      dup5\n        /* \"#utility.yul\":10514:10544   */\n      or\n        /* \"#utility.yul\":10504:10544   */\n      swap3\n      pop\n        /* \"#utility.yul\":10233:10550   */\n      pop\n      pop\n        /* \"#utility.yul\":10157:10550   */\n      swap4\n      swap3\n      pop\n      pop\n      pop\n      jump\t// out\n        /* \"#utility.yul\":10556:10616   */\n    tag_258:\n        /* \"#utility.yul\":10584:10587   */\n      0x00\n        /* \"#utility.yul\":10605:10610   */\n      dup2\n        /* \"#utility.yul\":10598:10610   */\n      swap1\n      pop\n        /* \"#utility.yul\":10556:10616   */\n      swap2\n      swap1\n      pop\n      jump\t// out\n        /* \"#utility.yul\":10622:10764   */\n    tag_259:\n        /* \"#utility.yul\":10672:10681   */\n      0x00\n        /* \"#utility.yul\":10705:10758   */\n      tag_400\n        /* \"#utility.yul\":10723:10757   */\n      tag_401\n        /* \"#utility.yul\":10732:10756   */\n      tag_402\n        /* \"#utility.yul\":10750:10755   */\n      dup5\n        /* \"#utility.yul\":10732:10756   */\n      tag_238\n      jump\t// in\n    tag_402:\n        /* \"#utility.yul\":10723:10757   */\n      tag_258\n      jump\t// in\n    tag_401:\n        /* \"#utility.yul\":10705:10758   */\n      tag_238\n      jump\t// in\n    tag_400:\n        /* \"#utility.yul\":10692:10758   */\n      swap1\n      pop\n        /* \"#utility.yul\":10622:10764   */\n      swap2\n      swap1\n      pop\n      jump\t// out\n        /* \"#utility.yul\":10770:10845   */\n    tag_260:\n        /* \"#utility.yul\":10813:10816   */\n      0x00\n        /* \"#utility.yul\":10834:10839   */\n      dup2\n        /* \"#utility.yul\":10827:10839   */\n      swap1\n      pop\n        /* \"#utility.yul\":10770:10845   */\n      swap2\n      swap1\n      pop\n      jump\t// out\n        /* \"#utility.yul\":10851:11120   */\n    tag_261:\n        /* \"#utility.yul\":10961:11000   */\n      tag_405\n        /* \"#utility.yul\":10992:10999   */\n      dup4\n        /* \"#utility.yul\":10961:11000   */\n      tag_259\n      jump\t// in\n    tag_405:\n        /* \"#utility.yul\":11022:11113   */\n      tag_406\n        /* \"#utility.yul\":11071:11112   */\n      tag_407\n        /* \"#utility.yul\":11095:11111   */\n      dup3\n        /* \"#utility.yul\":11071:11112   */\n      tag_260\n      jump\t// in\n    tag_407:\n        /* \"#utility.yul\":11063:11069   */\n      dup5\n        /* \"#utility.yul\":11056:11060   */\n      dup5\n        /* \"#utility.yul\":11050:11061   */\n      sload\n        /* \"#utility.yul\":11022:11113   */\n      tag_257\n      jump\t// in\n    tag_406:\n        /* \"#utility.yul\":11016:11020   */\n      dup3\n        /* \"#utility.yul\":11009:11114   */\n      sstore\n        /* \"#utility.yul\":10927:11120   */\n      pop\n        /* \"#utility.yul\":10851:11120   */\n      pop\n      pop\n      pop\n      jump\t// out\n        /* \"#utility.yul\":11126:11199   */\n    tag_262:\n        /* \"#utility.yul\":11171:11174   */\n      0x00\n        /* \"#utility.yul\":11192:11193   */\n      0x00\n        /* \"#utility.yul\":11185:11193   */\n      swap1\n      pop\n        /* \"#utility.yul\":11126:11199   */\n      swap1\n      jump\t// out\n        /* \"#utility.yul\":11205:11394   */\n    tag_263:\n        /* \"#utility.yul\":11282:11314   */\n      tag_410\n      tag_262\n      jump\t// in\n    tag_410:\n        /* \"#utility.yul\":11323:11388   */\n      tag_411\n        /* \"#utility.yul\":11381:11387   */\n      dup2\n        /* \"#utility.yul\":11373:11379   */\n      dup5\n        /* \"#utility.yul\":11367:11371   */\n      dup5\n        /* \"#utility.yul\":11323:11388   */\n      tag_261\n      jump\t// in\n    tag_411:\n        /* \"#utility.yul\":11258:11394   */\n      pop\n        /* \"#utility.yul\":11205:11394   */\n      pop\n      pop\n      jump\t// out\n        /* \"#utility.yul\":11400:11586   */\n    tag_264:\n        /* \"#utility.yul\":11460:11580   */\n    tag_413:\n        /* \"#utility.yul\":11477:11480   */\n      dup2\n        /* \"#utility.yul\":11470:11475   */\n      dup2\n        /* \"#utility.yul\":11467:11481   */\n      lt\n        /* \"#utility.yul\":11460:11580   */\n      iszero\n      tag_415\n      jumpi\n        /* \"#utility.yul\":11531:11570   */\n      tag_416\n        /* \"#utility.yul\":11568:11569   */\n      0x00\n        /* \"#utility.yul\":11561:11566   */\n      dup3\n        /* \"#utility.yul\":11531:11570   */\n      tag_263\n      jump\t// in\n    tag_416:\n        /* \"#utility.yul\":11504:11505   */\n      0x01\n        /* \"#utility.yul\":11497:11502   */\n      dup2\n        /* \"#utility.yul\":11493:11506   */\n      add\n        /* \"#utility.yul\":11484:11506   */\n      swap1\n      pop\n        /* \"#utility.yul\":11460:11580   */\n      jump(tag_413)\n    tag_415:\n        /* \"#utility.yul\":11400:11586   */\n      pop\n      pop\n      jump\t// out\n        /* \"#utility.yul\":11592:12135   */\n    tag_265:\n        /* \"#utility.yul\":11693:11695   */\n      0x1f\n        /* \"#utility.yul\":11688:11691   */\n      dup3\n        /* \"#utility.yul\":11685:11696   */\n      gt\n        /* \"#utility.yul\":11682:12128   */\n      iszero\n      tag_418\n      jumpi\n        /* \"#utility.yul\":11727:11765   */\n      tag_419\n        /* \"#utility.yul\":11759:11764   */\n      dup2\n        /* \"#utility.yul\":11727:11765   */\n      tag_254\n      jump\t// in\n    tag_419:\n        /* \"#utility.yul\":11811:11840   */\n      tag_420\n        /* \"#utility.yul\":11829:11839   */\n      dup5\n        /* \"#utility.yul\":11811:11840   */\n      tag_255\n      jump\t// in\n    tag_420:\n        /* \"#utility.yul\":11801:11809   */\n      dup2\n        /* \"#utility.yul\":11797:11841   */\n      add\n        /* \"#utility.yul\":11994:11996   */\n      0x20\n        /* \"#utility.yul\":11982:11992   */\n      dup6\n        /* \"#utility.yul\":11979:11997   */\n      lt\n        /* \"#utility.yul\":11976:12025   */\n      iszero\n      tag_421\n      jumpi\n        /* \"#utility.yul\":12015:12023   */\n      dup2\n        /* \"#utility.yul\":12000:12023   */\n      swap1\n      pop\n        /* \"#utility.yul\":11976:12025   */\n    tag_421:\n        /* \"#utility.yul\":12038:12118   */\n      tag_422\n        /* \"#utility.yul\":12094:12116   */\n      tag_423\n        /* \"#utility.yul\":12112:12115   */\n      dup6\n        /* \"#utility.yul\":12094:12116   */\n      tag_255\n      jump\t// in\n    tag_423:\n        /* \"#utility.yul\":12084:12092   */\n      dup4\n        /* \"#utility.yul\":12080:12117   */\n      add\n        /* \"#utility.yul\":12067:12078   */\n      dup3\n        /* \"#utility.yul\":12038:12118   */\n      tag_264\n      jump\t// in\n    tag_422:\n        /* \"#utility.yul\":11697:12128   */\n      pop\n      pop\n        /* \"#utility.yul\":11682:12128   */\n    tag_418:\n        /* \"#utility.yul\":11592:12135   */\n      pop\n      pop\n      pop\n      jump\t// out\n        /* \"#utility.yul\":12141:12258   */\n    tag_266:\n        /* \"#utility.yul\":12195:12203   */\n      0x00\n        /* \"#utility.yul\":12245:12250   */\n      dup3\n        /* \"#utility.yul\":12239:12243   */\n      dup3\n        /* \"#utility.yul\":12235:12251   */\n      shr\n        /* \"#utility.yul\":12214:12251   */\n      swap1\n      pop\n        /* \"#utility.yul\":12141:12258   */\n      swap3\n      swap2\n      pop\n      pop\n      jump\t// out\n        /* \"#utility.yul\":12264:12433   */\n    tag_267:\n        /* \"#utility.yul\":12308:12314   */\n      0x00\n        /* \"#utility.yul\":12341:12392   */\n      tag_426\n        /* \"#utility.yul\":12389:12390   */\n      0x00\n        /* \"#utility.yul\":12385:12391   */\n      not\n        /* \"#utility.yul\":12377:12382   */\n      dup5\n        /* \"#utility.yul\":12374:12375   */\n      0x08\n        /* \"#utility.yul\":12370:12383   */\n      mul\n        /* \"#utility.yul\":12341:12392   */\n      tag_266\n      jump\t// in\n    tag_426:\n        /* \"#utility.yul\":12337:12393   */\n      not\n        /* \"#utility.yul\":12422:12426   */\n      dup1\n        /* \"#utility.yul\":12416:12420   */\n      dup4\n        /* \"#utility.yul\":12412:12427   */\n      and\n        /* \"#utility.yul\":12402:12427   */\n      swap2\n      pop\n        /* \"#utility.yul\":12315:12433   */\n      pop\n        /* \"#utility.yul\":12264:12433   */\n      swap3\n      swap2\n      pop\n      pop\n      jump\t// out\n        /* \"#utility.yul\":12438:12733   */\n    tag_268:\n        /* \"#utility.yul\":12514:12518   */\n      0x00\n        /* \"#utility.yul\":12660:12689   */\n      tag_428\n        /* \"#utility.yul\":12685:12688   */\n      dup4\n        /* \"#utility.yul\":12679:12683   */\n      dup4\n        /* \"#utility.yul\":12660:12689   */\n      tag_267\n      jump\t// in\n    tag_428:\n        /* \"#utility.yul\":12652:12689   */\n      swap2\n      pop\n        /* \"#utility.yul\":12722:12725   */\n      dup3\n        /* \"#utility.yul\":12719:12720   */\n      0x02\n        /* \"#utility.yul\":12715:12726   */\n      mul\n        /* \"#utility.yul\":12709:12713   */\n      dup3\n        /* \"#utility.yul\":12706:12727   */\n      or\n        /* \"#utility.yul\":12698:12727   */\n      swap1\n      pop\n        /* \"#utility.yul\":12438:12733   */\n      swap3\n      swap2\n      pop\n      pop\n      jump\t// out\n        /* \"#utility.yul\":12738:14133   */\n    tag_72:\n        /* \"#utility.yul\":12855:12892   */\n      tag_430\n        /* \"#utility.yul\":12888:12891   */\n      dup3\n        /* \"#utility.yul\":12855:12892   */\n      tag_249\n      jump\t// in\n    tag_430:\n        /* \"#utility.yul\":12957:12975   */\n      0xffffffffffffffff\n        /* \"#utility.yul\":12949:12955   */\n      dup2\n        /* \"#utility.yul\":12946:12976   */\n      gt\n        /* \"#utility.yul\":12943:12999   */\n      iszero\n      tag_431\n      jumpi\n        /* \"#utility.yul\":12979:12997   */\n      tag_432\n      tag_231\n      jump\t// in\n    tag_432:\n        /* \"#utility.yul\":12943:12999   */\n    tag_431:\n        /* \"#utility.yul\":13023:13061   */\n      tag_433\n        /* \"#utility.yul\":13055:13059   */\n      dup3\n        /* \"#utility.yul\":13049:13060   */\n      sload\n        /* \"#utility.yul\":13023:13061   */\n      tag_113\n      jump\t// in\n    tag_433:\n        /* \"#utility.yul\":13108:13175   */\n      tag_434\n        /* \"#utility.yul\":13168:13174   */\n      dup3\n        /* \"#utility.yul\":13160:13166   */\n      dup3\n        /* \"#utility.yul\":13154:13158   */\n      dup6\n        /* \"#utility.yul\":13108:13175   */\n      tag_265\n      jump\t// in\n    tag_434:\n        /* \"#utility.yul\":13202:13203   */\n      0x00\n        /* \"#utility.yul\":13226:13230   */\n      0x20\n        /* \"#utility.yul\":13213:13230   */\n      swap1\n      pop\n        /* \"#utility.yul\":13258:13260   */\n      0x1f\n        /* \"#utility.yul\":13250:13256   */\n      dup4\n        /* \"#utility.yul\":13247:13261   */\n      gt\n        /* \"#utility.yul\":13275:13276   */\n      0x01\n        /* \"#utility.yul\":13270:13888   */\n      dup2\n      eq\n      tag_436\n      jumpi\n        /* \"#utility.yul\":13932:13933   */\n      0x00\n        /* \"#utility.yul\":13949:13955   */\n      dup5\n        /* \"#utility.yul\":13946:14023   */\n      iszero\n      tag_437\n      jumpi\n        /* \"#utility.yul\":13998:14007   */\n      dup3\n        /* \"#utility.yul\":13993:13996   */\n      dup8\n        /* \"#utility.yul\":13989:14008   */\n      add\n        /* \"#utility.yul\":13983:14009   */\n      mload\n        /* \"#utility.yul\":13974:14009   */\n      swap1\n      pop\n        /* \"#utility.yul\":13946:14023   */\n    tag_437:\n        /* \"#utility.yul\":14049:14116   */\n      tag_438\n        /* \"#utility.yul\":14109:14115   */\n      dup6\n        /* \"#utility.yul\":14102:14107   */\n      dup3\n        /* \"#utility.yul\":14049:14116   */\n      tag_268\n      jump\t// in\n    tag_438:\n        /* \"#utility.yul\":14043:14047   */\n      dup7\n        /* \"#utility.yul\":14036:14117   */\n      sstore\n        /* \"#utility.yul\":13905:14127   */\n      pop\n        /* \"#utility.yul\":13240:14127   */\n      jump(tag_435)\n        /* \"#utility.yul\":13270:13888   */\n    tag_436:\n        /* \"#utility.yul\":13322:13326   */\n      0x1f\n        /* \"#utility.yul\":13318:13327   */\n      not\n        /* \"#utility.yul\":13310:13316   */\n      dup5\n        /* \"#utility.yul\":13306:13328   */\n      and\n        /* \"#utility.yul\":13356:13393   */\n      tag_439\n        /* \"#utility.yul\":13388:13392   */\n      dup7\n        /* \"#utility.yul\":13356:13393   */\n      tag_254\n      jump\t// in\n    tag_439:\n        /* \"#utility.yul\":13415:13416   */\n      0x00\n        /* \"#utility.yul\":13429:13637   */\n    tag_440:\n        /* \"#utility.yul\":13443:13450   */\n      dup3\n        /* \"#utility.yul\":13440:13441   */\n      dup2\n        /* \"#utility.yul\":13437:13451   */\n      lt\n        /* \"#utility.yul\":13429:13637   */\n      iszero\n      tag_442\n      jumpi\n        /* \"#utility.yul\":13522:13531   */\n      dup5\n        /* \"#utility.yul\":13517:13520   */\n      dup10\n        /* \"#utility.yul\":13513:13532   */\n      add\n        /* \"#utility.yul\":13507:13533   */\n      mload\n        /* \"#utility.yul\":13499:13505   */\n      dup3\n        /* \"#utility.yul\":13492:13534   */\n      sstore\n        /* \"#utility.yul\":13573:13574   */\n      0x01\n        /* \"#utility.yul\":13565:13571   */\n      dup3\n        /* \"#utility.yul\":13561:13575   */\n      add\n        /* \"#utility.yul\":13551:13575   */\n      swap2\n      pop\n        /* \"#utility.yul\":13620:13622   */\n      0x20\n        /* \"#utility.yul\":13609:13618   */\n      dup6\n        /* \"#utility.yul\":13605:13623   */\n      add\n        /* \"#utility.yul\":13592:13623   */\n      swap5\n      pop\n        /* \"#utility.yul\":13466:13470   */\n      0x20\n        /* \"#utility.yul\":13463:13464   */\n      dup2\n        /* \"#utility.yul\":13459:13471   */\n      add\n        /* \"#utility.yul\":13454:13471   */\n      swap1\n      pop\n        /* \"#utility.yul\":13429:13637   */\n      jump(tag_440)\n    tag_442:\n        /* \"#utility.yul\":13665:13671   */\n      dup7\n        /* \"#utility.yul\":13656:13663   */\n      dup4\n        /* \"#utility.yul\":13653:13672   */\n      lt\n        /* \"#utility.yul\":13650:13829   */\n      iszero\n      tag_443\n      jumpi\n        /* \"#utility.yul\":13723:13732   */\n      dup5\n        /* \"#utility.yul\":13718:13721   */\n      dup10\n        /* \"#utility.yul\":13714:13733   */\n      add\n        /* \"#utility.yul\":13708:13734   */\n      mload\n        /* \"#utility.yul\":13766:13814   */\n      tag_444\n        /* \"#utility.yul\":13808:13812   */\n      0x1f\n        /* \"#utility.yul\":13800:13806   */\n      dup10\n        /* \"#utility.yul\":13796:13813   */\n      and\n        /* \"#utility.yul\":13785:13794   */\n      dup3\n        /* \"#utility.yul\":13766:13814   */\n      tag_267\n      jump\t// in\n    tag_444:\n        /* \"#utility.yul\":13758:13764   */\n      dup4\n        /* \"#utility.yul\":13751:13815   */\n      sstore\n        /* \"#utility.yul\":13673:13829   */\n      pop\n        /* \"#utility.yul\":13650:13829   */\n    tag_443:\n        /* \"#utility.yul\":13875:13876   */\n      0x01\n        /* \"#utility.yul\":13871:13872   */\n      0x02\n        /* \"#utility.yul\":13863:13869   */\n      dup9\n        /* \"#utility.yul\":13859:13873   */\n      mul\n        /* \"#utility.yul\":13855:13877   */\n      add\n        /* \"#utility.yul\":13849:13853   */\n      dup9\n        /* \"#utility.yul\":13842:13878   */\n      sstore\n        /* \"#utility.yul\":13277:13888   */\n      pop\n      pop\n      pop\n        /* \"#utility.yul\":13240:14127   */\n    tag_435:\n      pop\n        /* \"#utility.yul\":12830:14133   */\n      pop\n      pop\n      pop\n        /* \"#utility.yul\":12738:14133   */\n      pop\n      pop\n      jump\t// out\n        /* \"#utility.yul\":14139:14224   */\n    tag_269:\n        /* \"#utility.yul\":14184:14191   */\n      0x00\n        /* \"#utility.yul\":14213:14218   */\n      dup2\n        /* \"#utility.yul\":14202:14218   */\n      swap1\n      pop\n        /* \"#utility.yul\":14139:14224   */\n      swap2\n      swap1\n      pop\n      jump\t// out\n        /* \"#utility.yul\":14230:14331   */\n    tag_270:\n        /* \"#utility.yul\":14266:14273   */\n      0x00\n        /* \"#utility.yul\":14306:14324   */\n      0xffffffffffffffff\n        /* \"#utility.yul\":14299:14304   */\n      dup3\n        /* \"#utility.yul\":14295:14325   */\n      and\n        /* \"#utility.yul\":14284:14325   */\n      swap1\n      pop\n        /* \"#utility.yul\":14230:14331   */\n      swap2\n      swap1\n      pop\n      jump\t// out\n        /* \"#utility.yul\":14337:14493   */\n    tag_271:\n        /* \"#utility.yul\":14394:14403   */\n      0x00\n        /* \"#utility.yul\":14427:14487   */\n      tag_448\n        /* \"#utility.yul\":14444:14486   */\n      tag_449\n        /* \"#utility.yul\":14453:14485   */\n      tag_450\n        /* \"#utility.yul\":14479:14484   */\n      dup5\n        /* \"#utility.yul\":14453:14485   */\n      tag_269\n      jump\t// in\n    tag_450:\n        /* \"#utility.yul\":14444:14486   */\n      tag_258\n      jump\t// in\n    tag_449:\n        /* \"#utility.yul\":14427:14487   */\n      tag_270\n      jump\t// in\n    tag_448:\n        /* \"#utility.yul\":14414:14487   */\n      swap1\n      pop\n        /* \"#utility.yul\":14337:14493   */\n      swap2\n      swap1\n      pop\n      jump\t// out\n        /* \"#utility.yul\":14499:14644   */\n    tag_272:\n        /* \"#utility.yul\":14593:14637   */\n      tag_452\n        /* \"#utility.yul\":14631:14636   */\n      dup2\n        /* \"#utility.yul\":14593:14637   */\n      tag_271\n      jump\t// in\n    tag_452:\n        /* \"#utility.yul\":14588:14591   */\n      dup3\n        /* \"#utility.yul\":14581:14638   */\n      mstore\n        /* \"#utility.yul\":14499:14644   */\n      pop\n      pop\n      jump\t// out\n        /* \"#utility.yul\":14650:14886   */\n    tag_102:\n        /* \"#utility.yul\":14750:14754   */\n      0x00\n        /* \"#utility.yul\":14788:14790   */\n      0x20\n        /* \"#utility.yul\":14777:14786   */\n      dup3\n        /* \"#utility.yul\":14773:14791   */\n      add\n        /* \"#utility.yul\":14765:14791   */\n      swap1\n      pop\n        /* \"#utility.yul\":14801:14879   */\n      tag_454\n        /* \"#utility.yul\":14876:14877   */\n      0x00\n        /* \"#utility.yul\":14865:14874   */\n      dup4\n        /* \"#utility.yul\":14861:14878   */\n      add\n        /* \"#utility.yul\":14852:14858   */\n      dup5\n        /* \"#utility.yul\":14801:14879   */\n      tag_272\n      jump\t// in\n    tag_454:\n        /* \"#utility.yul\":14650:14886   */\n      swap3\n      swap2\n      pop\n      pop\n      jump\t// out\n        /* \"#utility.yul\":14892:15014   */\n    tag_273:\n        /* \"#utility.yul\":14965:14989   */\n      tag_456\n        /* \"#utility.yul\":14983:14988   */\n      dup2\n        /* \"#utility.yul\":14965:14989   */\n      tag_245\n      jump\t// in\n    tag_456:\n        /* \"#utility.yul\":14958:14963   */\n      dup2\n        /* \"#utility.yul\":14955:14990   */\n      eq\n        /* \"#utility.yul\":14945:15008   */\n      tag_457\n      jumpi\n        /* \"#utility.yul\":15004:15005   */\n      0x00\n        /* \"#utility.yul\":15001:15002   */\n      0x00\n        /* \"#utility.yul\":14994:15006   */\n      revert\n        /* \"#utility.yul\":14945:15008   */\n    tag_457:\n        /* \"#utility.yul\":14892:15014   */\n      pop\n      jump\t// out\n        /* \"#utility.yul\":15020:15163   */\n    tag_274:\n        /* \"#utility.yul\":15077:15082   */\n      0x00\n        /* \"#utility.yul\":15108:15114   */\n      dup2\n        /* \"#utility.yul\":15102:15115   */\n      mload\n        /* \"#utility.yul\":15093:15115   */\n      swap1\n      pop\n        /* \"#utility.yul\":15124:15157   */\n      tag_459\n        /* \"#utility.yul\":15151:15156   */\n      dup2\n        /* \"#utility.yul\":15124:15157   */\n      tag_273\n      jump\t// in\n    tag_459:\n        /* \"#utility.yul\":15020:15163   */\n      swap3\n      swap2\n      pop\n      pop\n      jump\t// out\n        /* \"#utility.yul\":15169:15520   */\n    tag_135:\n        /* \"#utility.yul\":15239:15245   */\n      0x00\n        /* \"#utility.yul\":15288:15290   */\n      0x20\n        /* \"#utility.yul\":15276:15285   */\n      dup3\n        /* \"#utility.yul\":15267:15274   */\n      dup5\n        /* \"#utility.yul\":15263:15286   */\n      sub\n        /* \"#utility.yul\":15259:15291   */\n      slt\n        /* \"#utility.yul\":15256:15375   */\n      iszero\n      tag_461\n      jumpi\n        /* \"#utility.yul\":15294:15373   */\n      tag_462\n      tag_226\n      jump\t// in\n    tag_462:\n        /* \"#utility.yul\":15256:15375   */\n    tag_461:\n        /* \"#utility.yul\":15414:15415   */\n      0x00\n        /* \"#utility.yul\":15439:15503   */\n      tag_463\n        /* \"#utility.yul\":15495:15502   */\n      dup5\n        /* \"#utility.yul\":15486:15492   */\n      dup3\n        /* \"#utility.yul\":15475:15484   */\n      dup6\n        /* \"#utility.yul\":15471:15493   */\n      add\n        /* \"#utility.yul\":15439:15503   */\n      tag_274\n      jump\t// in\n    tag_463:\n        /* \"#utility.yul\":15429:15503   */\n      swap2\n      pop\n        /* \"#utility.yul\":15385:15513   */\n      pop\n        /* \"#utility.yul\":15169:15520   */\n      swap3\n      swap2\n      pop\n      pop\n      jump\t// out\n        /* \"#utility.yul\":15526:15624   */\n    tag_275:\n        /* \"#utility.yul\":15577:15583   */\n      0x00\n        /* \"#utility.yul\":15611:15616   */\n      dup2\n        /* \"#utility.yul\":15605:15617   */\n      mload\n        /* \"#utility.yul\":15595:15617   */\n      swap1\n      pop\n        /* \"#utility.yul\":15526:15624   */\n      swap2\n      swap1\n      pop\n      jump\t// out\n        /* \"#utility.yul\":15630:15777   */\n    tag_276:\n        /* \"#utility.yul\":15731:15742   */\n      0x00\n        /* \"#utility.yul\":15768:15771   */\n      dup2\n        /* \"#utility.yul\":15753:15771   */\n      swap1\n      pop\n        /* \"#utility.yul\":15630:15777   */\n      swap3\n      swap2\n      pop\n      pop\n      jump\t// out\n        /* \"#utility.yul\":15783:16169   */\n    tag_277:\n        /* \"#utility.yul\":15887:15890   */\n      0x00\n        /* \"#utility.yul\":15915:15953   */\n      tag_467\n        /* \"#utility.yul\":15947:15952   */\n      dup3\n        /* \"#utility.yul\":15915:15953   */\n      tag_275\n      jump\t// in\n    tag_467:\n        /* \"#utility.yul\":15969:16057   */\n      tag_468\n        /* \"#utility.yul\":16050:16056   */\n      dup2\n        /* \"#utility.yul\":16045:16048   */\n      dup6\n        /* \"#utility.yul\":15969:16057   */\n      tag_276\n      jump\t// in\n    tag_468:\n        /* \"#utility.yul\":15962:16057   */\n      swap4\n      pop\n        /* \"#utility.yul\":16066:16131   */\n      tag_469\n        /* \"#utility.yul\":16124:16130   */\n      dup2\n        /* \"#utility.yul\":16119:16122   */\n      dup6\n        /* \"#utility.yul\":16112:16116   */\n      0x20\n        /* \"#utility.yul\":16105:16110   */\n      dup7\n        /* \"#utility.yul\":16101:16117   */\n      add\n        /* \"#utility.yul\":16066:16131   */\n      tag_251\n      jump\t// in\n    tag_469:\n        /* \"#utility.yul\":16156:16162   */\n      dup1\n        /* \"#utility.yul\":16151:16154   */\n      dup5\n        /* \"#utility.yul\":16147:16163   */\n      add\n        /* \"#utility.yul\":16140:16163   */\n      swap2\n      pop\n        /* \"#utility.yul\":15891:16169   */\n      pop\n        /* \"#utility.yul\":15783:16169   */\n      swap3\n      swap2\n      pop\n      pop\n      jump\t// out\n        /* \"#utility.yul\":16175:16446   */\n    tag_201:\n        /* \"#utility.yul\":16305:16308   */\n      0x00\n        /* \"#utility.yul\":16327:16420   */\n      tag_471\n        /* \"#utility.yul\":16416:16419   */\n      dup3\n        /* \"#utility.yul\":16407:16413   */\n      dup5\n        /* \"#utility.yul\":16327:16420   */\n      tag_277\n      jump\t// in\n    tag_471:\n        /* \"#utility.yul\":16320:16420   */\n      swap2\n      pop\n        /* \"#utility.yul\":16437:16440   */\n      dup2\n        /* \"#utility.yul\":16430:16440   */\n      swap1\n      pop\n        /* \"#utility.yul\":16175:16446   */\n      swap3\n      swap2\n      pop\n      pop\n      jump\t// out\n\n    auxdata: 0xa2646970667358221220569c3b8ff219b46bf8c53453511cd4f7917ff9d18baff88e7b588c38e9279d9764736f6c634300081e0033\n}\n",
				"bytecode": {
					"linkReferences": {},
					"object": "60a06040523073ffffffffffffffffffffffffffffffffffffffff1660809073ffffffffffffffffffffffffffffffffffffffff168152503480156041575f5ffd5b506080516117fb6100685f395f81816106a2015281816106f701526108b101526117fb5ff3fe6080604052600436106100a6575f3560e01c80636e9d13ab116100635780636e9d13ab14610194578063715018a6146101bc5780638da5cb5b146101d2578063ad3cb1cc146101fc578063e21f37ce14610226578063f2fde38b14610250576100a6565b806302d05d3f146100aa578063368b8772146100d45780633fa4f245146100fc5780634f1ef2861461012657806352d1902d14610142578063552410771461016c575b5f5ffd5b3480156100b5575f5ffd5b506100be610278565b6040516100cb9190610f5a565b60405180910390f35b3480156100df575f5ffd5b506100fa60048036038101906100f591906110c0565b61029d565b005b348015610107575f5ffd5b506101106102b0565b60405161011d919061111f565b60405180910390f35b610140600480360381019061013b9190611200565b6102b5565b005b34801561014d575f5ffd5b506101566102d4565b6040516101639190611272565b60405180910390f35b348015610177575f5ffd5b50610192600480360381019061018d91906112b5565b610305565b005b34801561019f575f5ffd5b506101ba60048036038101906101b591906112e0565b61030e565b005b3480156101c7575f5ffd5b506101d061050f565b005b3480156101dd575f5ffd5b506101e6610522565b6040516101f39190610f5a565b60405180910390f35b348015610207575f5ffd5b50610210610557565b60405161021d919061139a565b60405180910390f35b348015610231575f5ffd5b5061023a610590565b604051610247919061139a565b60405180910390f35b34801561025b575f5ffd5b50610276600480360381019061027191906113ba565b61061c565b005b60025f9054906101000a900473ffffffffffffffffffffffffffffffffffffffff1681565b80600190816102ac91906115e2565b5050565b5f5481565b6102bd6106a0565b6102c682610786565b6102d08282610791565b5050565b5f6102dd6108af565b7f360894a13ba1a3210667c828492db98dca3e2076cc3735a920a3ca505d382bbc5f1b905090565b805f8190555050565b5f610317610936565b90505f815f0160089054906101000a900460ff161590505f825f015f9054906101000a900467ffffffffffffffff1690505f5f8267ffffffffffffffff1614801561035f5750825b90505f60018367ffffffffffffffff1614801561039257505f3073ffffffffffffffffffffffffffffffffffffffff163b145b9050811580156103a0575080155b156103d7576040517ff92ee8a900000000000000000000000000000000000000000000000000000000815260040160405180910390fd5b6001855f015f6101000a81548167ffffffffffffffff021916908367ffffffffffffffff1602179055508315610424576001855f0160086101000a81548160ff0219169083151502179055505b61044e60025f9054906101000a900473ffffffffffffffffffffffffffffffffffffffff16610949565b61045661095d565b865f81905550856001908161046b91906115e2565b503360025f6101000a81548173ffffffffffffffffffffffffffffffffffffffff021916908373ffffffffffffffffffffffffffffffffffffffff1602179055508315610506575f855f0160086101000a81548160ff0219169083151502179055507fc7f505b2f371ae2175ee4913f4499e1f2633a7b5936321eed1cdaeb6115181d260016040516104fd91906116fd565b60405180910390a15b50505050505050565b610517610967565b6105205f6109ee565b565b5f5f61052c610abf565b9050805f015f9054906101000a900473ffffffffffffffffffffffffffffffffffffffff1691505090565b6040518060400160405280600581526020017f352e302e3000000000000000000000000000000000000000000000000000000081525081565b6001805461059d90611412565b80601f01602080910402602001604051908101604052809291908181526020018280546105c990611412565b80156106145780601f106105eb57610100808354040283529160200191610614565b820191905f5260205f20905b8154815290600101906020018083116105f757829003601f168201915b505050505081565b610624610967565b5f73ffffffffffffffffffffffffffffffffffffffff168173ffffffffffffffffffffffffffffffffffffffff1603610694575f6040517f1e4fbdf700000000000000000000000000000000000000000000000000000000815260040161068b9190610f5a565b60405180910390fd5b61069d816109ee565b50565b7f000000000000000000000000000000000000000000000000000000000000000073ffffffffffffffffffffffffffffffffffffffff163073ffffffffffffffffffffffffffffffffffffffff16148061074d57507f000000000000000000000000000000000000000000000000000000000000000073ffffffffffffffffffffffffffffffffffffffff16610734610ae6565b73ffffffffffffffffffffffffffffffffffffffff1614155b15610784576040517fe07c8dba00000000000000000000000000000000000000000000000000000000815260040160405180910390fd5b565b61078e610967565b50565b8173ffffffffffffffffffffffffffffffffffffffff166352d1902d6040518163ffffffff1660e01b8152600401602060405180830381865afa9250505080156107f957506040513d601f19601f820116820180604052508101906107f69190611740565b60015b61083a57816040517f4c9c8ce30000000000000000000000000000000000000000000000000000000081526004016108319190610f5a565b60405180910390fd5b7f360894a13ba1a3210667c828492db98dca3e2076cc3735a920a3ca505d382bbc5f1b81146108a057806040517faa1d49a40000000000000000000000000000000000000000000000000000000081526004016108979190611272565b60405180910390fd5b6108aa8383610b39565b505050565b7f000000000000000000000000000000000000000000000000000000000000000073ffffffffffffffffffffffffffffffffffffffff163073ffffffffffffffffffffffffffffffffffffffff1614610934576040517fe07c8dba00000000000000000000000000000000000000000000000000000000815260040160405180910390fd5b565b5f5f610940610bab565b90508091505090565b610951610bd4565b61095a81610c14565b50565b610965610bd4565b565b61096f610c98565b73ffffffffffffffffffffffffffffffffffffffff1661098d610522565b73ffffffffffffffffffffffffffffffffffffffff16146109ec576109b0610c98565b6040517f118cdaa70000000000000000000000000000000000000000000000000000000081526004016109e39190610f5a565b60405180910390fd5b565b5f6109f7610abf565b90505f815f015f9054906101000a900473ffffffffffffffffffffffffffffffffffffffff16905082825f015f6101000a81548173ffffffffffffffffffffffffffffffffffffffff021916908373ffffffffffffffffffffffffffffffffffffffff1602179055508273ffffffffffffffffffffffffffffffffffffffff168173ffffffffffffffffffffffffffffffffffffffff167f8be0079c531659141344cd1fd0a4f28419497f9722a3daafe3b4186f6b6457e060405160405180910390a3505050565b5f7f9016d09d72d40fdae2fd8ceac6b6234c7706214fd39c1cd1e609a0528c199300905090565b5f610b127f360894a13ba1a3210667c828492db98dca3e2076cc3735a920a3ca505d382bbc5f1b610c9f565b5f015f9054906101000a900473ffffffffffffffffffffffffffffffffffffffff16905090565b610b4282610ca8565b8173ffffffffffffffffffffffffffffffffffffffff167fbc7cd75a20ee27fd9adebab32041f755214dbc6bffa90cc0225b39da2e5c2d3b60405160405180910390a25f81511115610b9e57610b988282610d71565b50610ba7565b610ba6610df1565b5b5050565b5f7ff0c57e16840df040f15088dc2f81fe391c3923bec73e23a9662efc9c229c6a005f1b905090565b610bdc610e2d565b610c12576040517fd7e6bcf800000000000000000000000000000000000000000000000000000000815260040160405180910390fd5b565b610c1c610bd4565b5f73ffffffffffffffffffffffffffffffffffffffff168173ffffffffffffffffffffffffffffffffffffffff1603610c8c575f6040517f1e4fbdf7000000000000000000000000000000000000000000000000000000008152600401610c839190610f5a565b60405180910390fd5b610c95816109ee565b50565b5f33905090565b5f819050919050565b5f8173ffffffffffffffffffffffffffffffffffffffff163b03610d0357806040517f4c9c8ce3000000000000000000000000000000000000000000000000000000008152600401610cfa9190610f5a565b60405180910390fd5b80610d2f7f360894a13ba1a3210667c828492db98dca3e2076cc3735a920a3ca505d382bbc5f1b610c9f565b5f015f6101000a81548173ffffffffffffffffffffffffffffffffffffffff021916908373ffffffffffffffffffffffffffffffffffffffff16021790555050565b60605f5f8473ffffffffffffffffffffffffffffffffffffffff1684604051610d9a91906117af565b5f60405180830381855af49150503d805f8114610dd2576040519150601f19603f3d011682016040523d82523d5f602084013e610dd7565b606091505b5091509150610de7858383610e4b565b9250505092915050565b5f341115610e2b576040517fb398979f00000000000000000000000000000000000000000000000000000000815260040160405180910390fd5b565b5f610e36610936565b5f0160089054906101000a900460ff16905090565b606082610e6057610e5b82610ed8565b610ed0565b5f8251148015610e8657505f8473ffffffffffffffffffffffffffffffffffffffff163b145b15610ec857836040517f9996b315000000000000000000000000000000000000000000000000000000008152600401610ebf9190610f5a565b60405180910390fd5b819050610ed1565b5b9392505050565b5f81511115610ee957805160208201fd5b6040517fd6bda27500000000000000000000000000000000000000000000000000000000815260040160405180910390fd5b5f73ffffffffffffffffffffffffffffffffffffffff82169050919050565b5f610f4482610f1b565b9050919050565b610f5481610f3a565b82525050565b5f602082019050610f6d5f830184610f4b565b92915050565b5f604051905090565b5f5ffd5b5f5ffd5b5f5ffd5b5f5ffd5b5f601f19601f8301169050919050565b7f4e487b71000000000000000000000000000000000000000000000000000000005f52604160045260245ffd5b610fd282610f8c565b810181811067ffffffffffffffff82111715610ff157610ff0610f9c565b5b80604052505050565b5f611003610f73565b905061100f8282610fc9565b919050565b5f67ffffffffffffffff82111561102e5761102d610f9c565b5b61103782610f8c565b9050602081019050919050565b828183375f83830152505050565b5f61106461105f84611014565b610ffa565b9050828152602081018484840111156110805761107f610f88565b5b61108b848285611044565b509392505050565b5f82601f8301126110a7576110a6610f84565b5b81356110b7848260208601611052565b91505092915050565b5f602082840312156110d5576110d4610f7c565b5b5f82013567ffffffffffffffff8111156110f2576110f1610f80565b5b6110fe84828501611093565b91505092915050565b5f819050919050565b61111981611107565b82525050565b5f6020820190506111325f830184611110565b92915050565b61114181610f3a565b811461114b575f5ffd5b50565b5f8135905061115c81611138565b92915050565b5f67ffffffffffffffff82111561117c5761117b610f9c565b5b61118582610f8c565b9050602081019050919050565b5f6111a461119f84611162565b610ffa565b9050828152602081018484840111156111c0576111bf610f88565b5b6111cb848285611044565b509392505050565b5f82601f8301126111e7576111e6610f84565b5b81356111f7848260208601611192565b91505092915050565b5f5f6040838503121561121657611215610f7c565b5b5f6112238582860161114e565b925050602083013567ffffffffffffffff81111561124457611243610f80565b5b611250858286016111d3565b9150509250929050565b5f819050919050565b61126c8161125a565b82525050565b5f6020820190506112855f830184611263565b92915050565b61129481611107565b811461129e575f5ffd5b50565b5f813590506112af8161128b565b92915050565b5f602082840312156112ca576112c9610f7c565b5b5f6112d7848285016112a1565b91505092915050565b5f5f604083850312156112f6576112f5610f7c565b5b5f611303858286016112a1565b925050602083013567ffffffffffffffff81111561132457611323610f80565b5b61133085828601611093565b9150509250929050565b5f81519050919050565b5f82825260208201905092915050565b8281835e5f83830152505050565b5f61136c8261133a565b6113768185611344565b9350611386818560208601611354565b61138f81610f8c565b840191505092915050565b5f6020820190508181035f8301526113b28184611362565b905092915050565b5f602082840312156113cf576113ce610f7c565b5b5f6113dc8482850161114e565b91505092915050565b7f4e487b71000000000000000000000000000000000000000000000000000000005f52602260045260245ffd5b5f600282049050600182168061142957607f821691505b60208210810361143c5761143b6113e5565b5b50919050565b5f819050815f5260205f209050919050565b5f6020601f8301049050919050565b5f82821b905092915050565b5f6008830261149e7fffffffffffffffffffffffffffffffffffffffffffffffffffffffffffffffff82611463565b6114a88683611463565b95508019841693508086168417925050509392505050565b5f819050919050565b5f6114e36114de6114d984611107565b6114c0565b611107565b9050919050565b5f819050919050565b6114fc836114c9565b611510611508826114ea565b84845461146f565b825550505050565b5f5f905090565b611527611518565b6115328184846114f3565b505050565b5b818110156115555761154a5f8261151f565b600181019050611538565b5050565b601f82111561159a5761156b81611442565b61157484611454565b81016020851015611583578190505b61159761158f85611454565b830182611537565b50505b505050565b5f82821c905092915050565b5f6115ba5f198460080261159f565b1980831691505092915050565b5f6115d283836115ab565b9150826002028217905092915050565b6115eb8261133a565b67ffffffffffffffff81111561160457611603610f9c565b5b61160e8254611412565b611619828285611559565b5f60209050601f83116001811461164a575f8415611638578287015190505b61164285826115c7565b8655506116a9565b601f19841661165886611442565b5f5b8281101561167f5784890151825560018201915060208501945060208101905061165a565b8683101561169c5784890151611698601f8916826115ab565b8355505b6001600288020188555050505b505050505050565b5f819050919050565b5f67ffffffffffffffff82169050919050565b5f6116e76116e26116dd846116b1565b6114c0565b6116ba565b9050919050565b6116f7816116cd565b82525050565b5f6020820190506117105f8301846116ee565b92915050565b61171f8161125a565b8114611729575f5ffd5b50565b5f8151905061173a81611716565b92915050565b5f6020828403121561175557611754610f7c565b5b5f6117628482850161172c565b91505092915050565b5f81519050919050565b5f81905092915050565b5f6117898261176b565b6117938185611775565b93506117a3818560208601611354565b80840191505092915050565b5f6117ba828461177f565b91508190509291505056fea2646970667358221220569c3b8ff219b46bf8c53453511cd4f7917ff9d18baff88e7b588c38e9279d9764736f6c634300081e0033",
					"opcodes": "PUSH1 0xA0 PUSH1 0x40 MSTORE ADDRESS PUSH20 0xFFFFFFFFFFFFFFFFFFFFFFFFFFFFFFFFFFFFFFFF AND PUSH1 0x80 SWAP1 PUSH20 0xFFFFFFFFFFFFFFFFFFFFFFFFFFFFFFFFFFFFFFFF AND DUP2 MSTORE POP CALLVALUE DUP1 ISZERO PUSH1 0x41 JUMPI PUSH0 PUSH0 REVERT JUMPDEST POP PUSH1 0x80 MLOAD PUSH2 0x17FB PUSH2 0x68 PUSH0 CODECOPY PUSH0 DUP2 DUP2 PUSH2 0x6A2 ADD MSTORE DUP2 DUP2 PUSH2 0x6F7 ADD MSTORE PUSH2 0x8B1 ADD MSTORE PUSH2 0x17FB PUSH0 RETURN INVALID PUSH1 0x80 PUSH1 0x40 MSTORE PUSH1 0x4 CALLDATASIZE LT PUSH2 0xA6 JUMPI PUSH0 CALLDATALOAD PUSH1 0xE0 SHR DUP1 PUSH4 0x6E9D13AB GT PUSH2 0x63 JUMPI DUP1 PUSH4 0x6E9D13AB EQ PUSH2 0x194 JUMPI DUP1 PUSH4 0x715018A6 EQ PUSH2 0x1BC JUMPI DUP1 PUSH4 0x8DA5CB5B EQ PUSH2 0x1D2 JUMPI DUP1 PUSH4 0xAD3CB1CC EQ PUSH2 0x1FC JUMPI DUP1 PUSH4 0xE21F37CE EQ PUSH2 0x226 JUMPI DUP1 PUSH4 0xF2FDE38B EQ PUSH2 0x250 JUMPI PUSH2 0xA6 JUMP JUMPDEST DUP1 PUSH4 0x2D05D3F EQ PUSH2 0xAA JUMPI DUP1 PUSH4 0x368B8772 EQ PUSH2 0xD4 JUMPI DUP1 PUSH4 0x3FA4F245 EQ PUSH2 0xFC JUMPI DUP1 PUSH4 0x4F1EF286 EQ PUSH2 0x126 JUMPI DUP1 PUSH4 0x52D1902D EQ PUSH2 0x142 JUMPI DUP1 PUSH4 0x55241077 EQ PUSH2 0x16C JUMPI JUMPDEST PUSH0 PUSH0 REVERT JUMPDEST CALLVALUE DUP1 ISZERO PUSH2 0xB5 JUMPI PUSH0 PUSH0 REVERT JUMPDEST POP PUSH2 0xBE PUSH2 0x278 JUMP JUMPDEST PUSH1 0x40 MLOAD PUSH2 0xCB SWAP2 SWAP1 PUSH2 0xF5A JUMP JUMPDEST PUSH1 0x40 MLOAD DUP1 SWAP2 SUB SWAP1 RETURN JUMPDEST CALLVALUE DUP1 ISZERO PUSH2 0xDF JUMPI PUSH0 PUSH0 REVERT JUMPDEST POP PUSH2 0xFA PUSH1 0x4 DUP1 CALLDATASIZE SUB DUP2 ADD SWAP1 PUSH2 0xF5 SWAP2 SWAP1 PUSH2 0x10C0 JUMP JUMPDEST PUSH2 0x29D JUMP JUMPDEST STOP JUMPDEST CALLVALUE DUP1 ISZERO PUSH2 0x107 JUMPI PUSH0 PUSH0 REVERT JUMPDEST POP PUSH2 0x110 PUSH2 0x2B0 JUMP JUMPDEST PUSH1 0x40 MLOAD PUSH2 0x11D SWAP2 SWAP1 PUSH2 0x111F JUMP JUMPDEST PUSH1 0x40 MLOAD DUP1 SWAP2 SUB SWAP1 RETURN JUMPDEST PUSH2 0x140 PUSH1 0x4 DUP1 CALLDATASIZE SUB DUP2 ADD SWAP1 PUSH2 0x13B SWAP2 SWAP1 PUSH2 0x1200 JUMP JUMPDEST PUSH2 0x2B5 JUMP JUMPDEST STOP JUMPDEST CALLVALUE DUP1 ISZERO PUSH2 0x14D JUMPI PUSH0 PUSH0 REVERT JUMPDEST POP PUSH2 0x156 PUSH2 0x2D4 JUMP JUMPDEST PUSH1 0x40 MLOAD PUSH2 0x163 SWAP2 SWAP1 PUSH2 0x1272 JUMP JUMPDEST PUSH1 0x40 MLOAD DUP1 SWAP2 SUB SWAP1 RETURN JUMPDEST CALLVALUE DUP1 ISZERO PUSH2 0x177 JUMPI PUSH0 PUSH0 REVERT JUMPDEST POP PUSH2 0x192 PUSH1 0x4 DUP1 CALLDATASIZE SUB DUP2 ADD SWAP1 PUSH2 0x18D SWAP2 SWAP1 PUSH2 0x12B5 JUMP JUMPDEST PUSH2 0x305 JUMP JUMPDEST STOP JUMPDEST CALLVALUE DUP1 ISZERO PUSH2 0x19F JUMPI PUSH0 PUSH0 REVERT JUMPDEST POP PUSH2 0x1BA PUSH1 0x4 DUP1 CALLDATASIZE SUB DUP2 ADD SWAP1 PUSH2 0x1B5 SWAP2 SWAP1 PUSH2 0x12E0 JUMP JUMPDEST PUSH2 0x30E JUMP JUMPDEST STOP JUMPDEST CALLVALUE DUP1 ISZERO PUSH2 0x1C7 JUMPI PUSH0 PUSH0 REVERT JUMPDEST POP PUSH2 0x1D0 PUSH2 0x50F JUMP JUMPDEST STOP JUMPDEST CALLVALUE DUP1 ISZERO PUSH2 0x1DD JUMPI PUSH0 PUSH0 REVERT JUMPDEST POP PUSH2 0x1E6 PUSH2 0x522 JUMP JUMPDEST PUSH1 0x40 MLOAD PUSH2 0x1F3 SWAP2 SWAP1 PUSH2 0xF5A JUMP JUMPDEST PUSH1 0x40 MLOAD DUP1 SWAP2 SUB SWAP1 RETURN JUMPDEST CALLVALUE DUP1 ISZERO PUSH2 0x207 JUMPI PUSH0 PUSH0 REVERT JUMPDEST POP PUSH2 0x210 PUSH2 0x557 JUMP JUMPDEST PUSH1 0x40 MLOAD PUSH2 0x21D SWAP2 SWAP1 PUSH2 0x139A JUMP JUMPDEST PUSH1 0x40 MLOAD DUP1 SWAP2 SUB SWAP1 RETURN JUMPDEST CALLVALUE DUP1 ISZERO PUSH2 0x231 JUMPI PUSH0 PUSH0 REVERT JUMPDEST POP PUSH2 0x23A PUSH2 0x590 JUMP JUMPDEST PUSH1 0x40 MLOAD PUSH2 0x247 SWAP2 SWAP1 PUSH2 0x139A JUMP JUMPDEST PUSH1 0x40 MLOAD DUP1 SWAP2 SUB SWAP1 RETURN JUMPDEST CALLVALUE DUP1 ISZERO PUSH2 0x25B JUMPI PUSH0 PUSH0 REVERT JUMPDEST POP PUSH2 0x276 PUSH1 0x4 DUP1 CALLDATASIZE SUB DUP2 ADD SWAP1 PUSH2 0x271 SWAP2 SWAP1 PUSH2 0x13BA JUMP JUMPDEST PUSH2 0x61C JUMP JUMPDEST STOP JUMPDEST PUSH1 0x2 PUSH0 SWAP1 SLOAD SWAP1 PUSH2 0x100 EXP SWAP1 DIV PUSH20 0xFFFFFFFFFFFFFFFFFFFFFFFFFFFFFFFFFFFFFFFF AND DUP2 JUMP JUMPDEST DUP1 PUSH1 0x1 SWAP1 DUP2 PUSH2 0x2AC SWAP2 SWAP1 PUSH2 0x15E2 JUMP JUMPDEST POP POP JUMP JUMPDEST PUSH0 SLOAD DUP2 JUMP JUMPDEST PUSH2 0x2BD PUSH2 0x6A0 JUMP JUMPDEST PUSH2 0x2C6 DUP3 PUSH2 0x786 JUMP JUMPDEST PUSH2 0x2D0 DUP3 DUP3 PUSH2 0x791 JUMP JUMPDEST POP POP JUMP JUMPDEST PUSH0 PUSH2 0x2DD PUSH2 0x8AF JUMP JUMPDEST PUSH32 0x360894A13BA1A3210667C828492DB98DCA3E2076CC3735A920A3CA505D382BBC PUSH0 SHL SWAP1 POP SWAP1 JUMP JUMPDEST DUP1 PUSH0 DUP2 SWAP1 SSTORE POP POP JUMP JUMPDEST PUSH0 PUSH2 0x317 PUSH2 0x936 JUMP JUMPDEST SWAP1 POP PUSH0 DUP2 PUSH0 ADD PUSH1 0x8 SWAP1 SLOAD SWAP1 PUSH2 0x100 EXP SWAP1 DIV PUSH1 0xFF AND ISZERO SWAP1 POP PUSH0 DUP3 PUSH0 ADD PUSH0 SWAP1 SLOAD SWAP1 PUSH2 0x100 EXP SWAP1 DIV PUSH8 0xFFFFFFFFFFFFFFFF AND SWAP1 POP PUSH0 PUSH0 DUP3 PUSH8 0xFFFFFFFFFFFFFFFF AND EQ DUP1 ISZERO PUSH2 0x35F JUMPI POP DUP3 JUMPDEST SWAP1 POP PUSH0 PUSH1 0x1 DUP4 PUSH8 0xFFFFFFFFFFFFFFFF AND EQ DUP1 ISZERO PUSH2 0x392 JUMPI POP PUSH0 ADDRESS PUSH20 0xFFFFFFFFFFFFFFFFFFFFFFFFFFFFFFFFFFFFFFFF AND EXTCODESIZE EQ JUMPDEST SWAP1 POP DUP2 ISZERO DUP1 ISZERO PUSH2 0x3A0 JUMPI POP DUP1 ISZERO JUMPDEST ISZERO PUSH2 0x3D7 JUMPI PUSH1 0x40 MLOAD PUSH32 0xF92EE8A900000000000000000000000000000000000000000000000000000000 DUP2 MSTORE PUSH1 0x4 ADD PUSH1 0x40 MLOAD DUP1 SWAP2 SUB SWAP1 REVERT JUMPDEST PUSH1 0x1 DUP6 PUSH0 ADD PUSH0 PUSH2 0x100 EXP DUP2 SLOAD DUP2 PUSH8 0xFFFFFFFFFFFFFFFF MUL NOT AND SWAP1 DUP4 PUSH8 0xFFFFFFFFFFFFFFFF AND MUL OR SWAP1 SSTORE POP DUP4 ISZERO PUSH2 0x424 JUMPI PUSH1 0x1 DUP6 PUSH0 ADD PUSH1 0x8 PUSH2 0x100 EXP DUP2 SLOAD DUP2 PUSH1 0xFF MUL NOT AND SWAP1 DUP4 ISZERO ISZERO MUL OR SWAP1 SSTORE POP JUMPDEST PUSH2 0x44E PUSH1 0x2 PUSH0 SWAP1 SLOAD SWAP1 PUSH2 0x100 EXP SWAP1 DIV PUSH20 0xFFFFFFFFFFFFFFFFFFFFFFFFFFFFFFFFFFFFFFFF AND PUSH2 0x949 JUMP JUMPDEST PUSH2 0x456 PUSH2 0x95D JUMP JUMPDEST DUP7 PUSH0 DUP2 SWAP1 SSTORE POP DUP6 PUSH1 0x1 SWAP1 DUP2 PUSH2 0x46B SWAP2 SWAP1 PUSH2 0x15E2 JUMP JUMPDEST POP CALLER PUSH1 0x2 PUSH0 PUSH2 0x100 EXP DUP2 SLOAD DUP2 PUSH20 0xFFFFFFFFFFFFFFFFFFFFFFFFFFFFFFFFFFFFFFFF MUL NOT AND SWAP1 DUP4 PUSH20 0xFFFFFFFFFFFFFFFFFFFFFFFFFFFFFFFFFFFFFFFF AND MUL OR SWAP1 SSTORE POP DUP4 ISZERO PUSH2 0x506 JUMPI PUSH0 DUP6 PUSH0 ADD PUSH1 0x8 PUSH2 0x100 EXP DUP2 SLOAD DUP2 PUSH1 0xFF MUL NOT AND SWAP1 DUP4 ISZERO ISZERO MUL OR SWAP1 SSTORE POP PUSH32 0xC7F505B2F371AE2175EE4913F4499E1F2633A7B5936321EED1CDAEB6115181D2 PUSH1 0x1 PUSH1 0x40 MLOAD PUSH2 0x4FD SWAP2 SWAP1 PUSH2 0x16FD JUMP JUMPDEST PUSH1 0x40 MLOAD DUP1 SWAP2 SUB SWAP1 LOG1 JUMPDEST POP POP POP POP POP POP POP JUMP JUMPDEST PUSH2 0x517 PUSH2 0x967 JUMP JUMPDEST PUSH2 0x520 PUSH0 PUSH2 0x9EE JUMP JUMPDEST JUMP JUMPDEST PUSH0 PUSH0 PUSH2 0x52C PUSH2 0xABF JUMP JUMPDEST SWAP1 POP DUP1 PUSH0 ADD PUSH0 SWAP1 SLOAD SWAP1 PUSH2 0x100 EXP SWAP1 DIV PUSH20 0xFFFFFFFFFFFFFFFFFFFFFFFFFFFFFFFFFFFFFFFF AND SWAP2 POP POP SWAP1 JUMP JUMPDEST PUSH1 0x40 MLOAD DUP1 PUSH1 0x40 ADD PUSH1 0x40 MSTORE DUP1 PUSH1 0x5 DUP2 MSTORE PUSH1 0x20 ADD PUSH32 0x352E302E30000000000000000000000000000000000000000000000000000000 DUP2 MSTORE POP DUP2 JUMP JUMPDEST PUSH1 0x1 DUP1 SLOAD PUSH2 0x59D SWAP1 PUSH2 0x1412 JUMP JUMPDEST DUP1 PUSH1 0x1F ADD PUSH1 0x20 DUP1 SWAP2 DIV MUL PUSH1 0x20 ADD PUSH1 0x40 MLOAD SWAP1 DUP2 ADD PUSH1 0x40 MSTORE DUP1 SWAP3 SWAP2 SWAP1 DUP2 DUP2 MSTORE PUSH1 0x20 ADD DUP3 DUP1 SLOAD PUSH2 0x5C9 SWAP1 PUSH2 0x1412 JUMP JUMPDEST DUP1 ISZERO PUSH2 0x614 JUMPI DUP1 PUSH1 0x1F LT PUSH2 0x5EB JUMPI PUSH2 0x100 DUP1 DUP4 SLOAD DIV MUL DUP4 MSTORE SWAP2 PUSH1 0x20 ADD SWAP2 PUSH2 0x614 JUMP JUMPDEST DUP3 ADD SWAP2 SWAP1 PUSH0 MSTORE PUSH1 0x20 PUSH0 KECCAK256 SWAP1 JUMPDEST DUP2 SLOAD DUP2 MSTORE SWAP1 PUSH1 0x1 ADD SWAP1 PUSH1 0x20 ADD DUP1 DUP4 GT PUSH2 0x5F7 JUMPI DUP3 SWAP1 SUB PUSH1 0x1F AND DUP3 ADD SWAP2 JUMPDEST POP POP POP POP POP DUP2 JUMP JUMPDEST PUSH2 0x624 PUSH2 0x967 JUMP JUMPDEST PUSH0 PUSH20 0xFFFFFFFFFFFFFFFFFFFFFFFFFFFFFFFFFFFFFFFF AND DUP2 PUSH20 0xFFFFFFFFFFFFFFFFFFFFFFFFFFFFFFFFFFFFFFFF AND SUB PUSH2 0x694 JUMPI PUSH0 PUSH1 0x40 MLOAD PUSH32 0x1E4FBDF700000000000000000000000000000000000000000000000000000000 DUP2 MSTORE PUSH1 0x4 ADD PUSH2 0x68B SWAP2 SWAP1 PUSH2 0xF5A JUMP JUMPDEST PUSH1 0x40 MLOAD DUP1 SWAP2 SUB SWAP1 REVERT JUMPDEST PUSH2 0x69D DUP2 PUSH2 0x9EE JUMP JUMPDEST POP JUMP JUMPDEST PUSH32 0x0 PUSH20 0xFFFFFFFFFFFFFFFFFFFFFFFFFFFFFFFFFFFFFFFF AND ADDRESS PUSH20 0xFFFFFFFFFFFFFFFFFFFFFFFFFFFFFFFFFFFFFFFF AND EQ DUP1 PUSH2 0x74D JUMPI POP PUSH32 0x0 PUSH20 0xFFFFFFFFFFFFFFFFFFFFFFFFFFFFFFFFFFFFFFFF AND PUSH2 0x734 PUSH2 0xAE6 JUMP JUMPDEST PUSH20 0xFFFFFFFFFFFFFFFFFFFFFFFFFFFFFFFFFFFFFFFF AND EQ ISZERO JUMPDEST ISZERO PUSH2 0x784 JUMPI PUSH1 0x40 MLOAD PUSH32 0xE07C8DBA00000000000000000000000000000000000000000000000000000000 DUP2 MSTORE PUSH1 0x4 ADD PUSH1 0x40 MLOAD DUP1 SWAP2 SUB SWAP1 REVERT JUMPDEST JUMP JUMPDEST PUSH2 0x78E PUSH2 0x967 JUMP JUMPDEST POP JUMP JUMPDEST DUP2 PUSH20 0xFFFFFFFFFFFFFFFFFFFFFFFFFFFFFFFFFFFFFFFF AND PUSH4 0x52D1902D PUSH1 0x40 MLOAD DUP2 PUSH4 0xFFFFFFFF AND PUSH1 0xE0 SHL DUP2 MSTORE PUSH1 0x4 ADD PUSH1 0x20 PUSH1 0x40 MLOAD DUP1 DUP4 SUB DUP2 DUP7 GAS STATICCALL SWAP3 POP POP POP DUP1 ISZERO PUSH2 0x7F9 JUMPI POP PUSH1 0x40 MLOAD RETURNDATASIZE PUSH1 0x1F NOT PUSH1 0x1F DUP3 ADD AND DUP3 ADD DUP1 PUSH1 0x40 MSTORE POP DUP2 ADD SWAP1 PUSH2 0x7F6 SWAP2 SWAP1 PUSH2 0x1740 JUMP JUMPDEST PUSH1 0x1 JUMPDEST PUSH2 0x83A JUMPI DUP2 PUSH1 0x40 MLOAD PUSH32 0x4C9C8CE300000000000000000000000000000000000000000000000000000000 DUP2 MSTORE PUSH1 0x4 ADD PUSH2 0x831 SWAP2 SWAP1 PUSH2 0xF5A JUMP JUMPDEST PUSH1 0x40 MLOAD DUP1 SWAP2 SUB SWAP1 REVERT JUMPDEST PUSH32 0x360894A13BA1A3210667C828492DB98DCA3E2076CC3735A920A3CA505D382BBC PUSH0 SHL DUP2 EQ PUSH2 0x8A0 JUMPI DUP1 PUSH1 0x40 MLOAD PUSH32 0xAA1D49A400000000000000000000000000000000000000000000000000000000 DUP2 MSTORE PUSH1 0x4 ADD PUSH2 0x897 SWAP2 SWAP1 PUSH2 0x1272 JUMP JUMPDEST PUSH1 0x40 MLOAD DUP1 SWAP2 SUB SWAP1 REVERT JUMPDEST PUSH2 0x8AA DUP4 DUP4 PUSH2 0xB39 JUMP JUMPDEST POP POP POP JUMP JUMPDEST PUSH32 0x0 PUSH20 0xFFFFFFFFFFFFFFFFFFFFFFFFFFFFFFFFFFFFFFFF AND ADDRESS PUSH20 0xFFFFFFFFFFFFFFFFFFFFFFFFFFFFFFFFFFFFFFFF AND EQ PUSH2 0x934 JUMPI PUSH1 0x40 MLOAD PUSH32 0xE07C8DBA00000000000000000000000000000000000000000000000000000000 DUP2 MSTORE PUSH1 0x4 ADD PUSH1 0x40 MLOAD DUP1 SWAP2 SUB SWAP1 REVERT JUMPDEST JUMP JUMPDEST PUSH0 PUSH0 PUSH2 0x940 PUSH2 0xBAB JUMP JUMPDEST SWAP1 POP DUP1 SWAP2 POP POP SWAP1 JUMP JUMPDEST PUSH2 0x951 PUSH2 0xBD4 JUMP JUMPDEST PUSH2 0x95A DUP2 PUSH2 0xC14 JUMP JUMPDEST POP JUMP JUMPDEST PUSH2 0x965 PUSH2 0xBD4 JUMP JUMPDEST JUMP JUMPDEST PUSH2 0x96F PUSH2 0xC98 JUMP JUMPDEST PUSH20 0xFFFFFFFFFFFFFFFFFFFFFFFFFFFFFFFFFFFFFFFF AND PUSH2 0x98D PUSH2 0x522 JUMP JUMPDEST PUSH20 0xFFFFFFFFFFFFFFFFFFFFFFFFFFFFFFFFFFFFFFFF AND EQ PUSH2 0x9EC JUMPI PUSH2 0x9B0 PUSH2 0xC98 JUMP JUMPDEST PUSH1 0x40 MLOAD PUSH32 0x118CDAA700000000000000000000000000000000000000000000000000000000 DUP2 MSTORE PUSH1 0x4 ADD PUSH2 0x9E3 SWAP2 SWAP1 PUSH2 0xF5A JUMP JUMPDEST PUSH1 0x40 MLOAD DUP1 SWAP2 SUB SWAP1 REVERT JUMPDEST JUMP JUMPDEST PUSH0 PUSH2 0x9F7 PUSH2 0xABF JUMP JUMPDEST SWAP1 POP PUSH0 DUP2 PUSH0 ADD PUSH0 SWAP1 SLOAD SWAP1 PUSH2 0x100 EXP SWAP1 DIV PUSH20 0xFFFFFFFFFFFFFFFFFFFFFFFFFFFFFFFFFFFFFFFF AND SWAP1 POP DUP3 DUP3 PUSH0 ADD PUSH0 PUSH2 0x100 EXP DUP2 SLOAD DUP2 PUSH20 0xFFFFFFFFFFFFFFFFFFFFFFFFFFFFFFFFFFFFFFFF MUL NOT AND SWAP1 DUP4 PUSH20 0xFFFFFFFFFFFFFFFFFFFFFFFFFFFFFFFFFFFFFFFF AND MUL OR SWAP1 SSTORE POP DUP3 PUSH20 0xFFFFFFFFFFFFFFFFFFFFFFFFFFFFFFFFFFFFFFFF AND DUP2 PUSH20 0xFFFFFFFFFFFFFFFFFFFFFFFFFFFFFFFFFFFFFFFF AND PUSH32 0x8BE0079C531659141344CD1FD0A4F28419497F9722A3DAAFE3B4186F6B6457E0 PUSH1 0x40 MLOAD PUSH1 0x40 MLOAD DUP1 SWAP2 SUB SWAP1 LOG3 POP POP POP JUMP JUMPDEST PUSH0 PUSH32 0x9016D09D72D40FDAE2FD8CEAC6B6234C7706214FD39C1CD1E609A0528C199300 SWAP1 POP SWAP1 JUMP JUMPDEST PUSH0 PUSH2 0xB12 PUSH32 0x360894A13BA1A3210667C828492DB98DCA3E2076CC3735A920A3CA505D382BBC PUSH0 SHL PUSH2 0xC9F JUMP JUMPDEST PUSH0 ADD PUSH0 SWAP1 SLOAD SWAP1 PUSH2 0x100 EXP SWAP1 DIV PUSH20 0xFFFFFFFFFFFFFFFFFFFFFFFFFFFFFFFFFFFFFFFF AND SWAP1 POP SWAP1 JUMP JUMPDEST PUSH2 0xB42 DUP3 PUSH2 0xCA8 JUMP JUMPDEST DUP2 PUSH20 0xFFFFFFFFFFFFFFFFFFFFFFFFFFFFFFFFFFFFFFFF AND PUSH32 0xBC7CD75A20EE27FD9ADEBAB32041F755214DBC6BFFA90CC0225B39DA2E5C2D3B PUSH1 0x40 MLOAD PUSH1 0x40 MLOAD DUP1 SWAP2 SUB SWAP1 LOG2 PUSH0 DUP2 MLOAD GT ISZERO PUSH2 0xB9E JUMPI PUSH2 0xB98 DUP3 DUP3 PUSH2 0xD71 JUMP JUMPDEST POP PUSH2 0xBA7 JUMP JUMPDEST PUSH2 0xBA6 PUSH2 0xDF1 JUMP JUMPDEST JUMPDEST POP POP JUMP JUMPDEST PUSH0 PUSH32 0xF0C57E16840DF040F15088DC2F81FE391C3923BEC73E23A9662EFC9C229C6A00 PUSH0 SHL SWAP1 POP SWAP1 JUMP JUMPDEST PUSH2 0xBDC PUSH2 0xE2D JUMP JUMPDEST PUSH2 0xC12 JUMPI PUSH1 0x40 MLOAD PUSH32 0xD7E6BCF800000000000000000000000000000000000000000000000000000000 DUP2 MSTORE PUSH1 0x4 ADD PUSH1 0x40 MLOAD DUP1 SWAP2 SUB SWAP1 REVERT JUMPDEST JUMP JUMPDEST PUSH2 0xC1C PUSH2 0xBD4 JUMP JUMPDEST PUSH0 PUSH20 0xFFFFFFFFFFFFFFFFFFFFFFFFFFFFFFFFFFFFFFFF AND DUP2 PUSH20 0xFFFFFFFFFFFFFFFFFFFFFFFFFFFFFFFFFFFFFFFF AND SUB PUSH2 0xC8C JUMPI PUSH0 PUSH1 0x40 MLOAD PUSH32 0x1E4FBDF700000000000000000000000000000000000000000000000000000000 DUP2 MSTORE PUSH1 0x4 ADD PUSH2 0xC83 SWAP2 SWAP1 PUSH2 0xF5A JUMP JUMPDEST PUSH1 0x40 MLOAD DUP1 SWAP2 SUB SWAP1 REVERT JUMPDEST PUSH2 0xC95 DUP2 PUSH2 0x9EE JUMP JUMPDEST POP JUMP JUMPDEST PUSH0 CALLER SWAP1 POP SWAP1 JUMP JUMPDEST PUSH0 DUP2 SWAP1 POP SWAP2 SWAP1 POP JUMP JUMPDEST PUSH0 DUP2 PUSH20 0xFFFFFFFFFFFFFFFFFFFFFFFFFFFFFFFFFFFFFFFF AND EXTCODESIZE SUB PUSH2 0xD03 JUMPI DUP1 PUSH1 0x40 MLOAD PUSH32 0x4C9C8CE300000000000000000000000000000000000000000000000000000000 DUP2 MSTORE PUSH1 0x4 ADD PUSH2 0xCFA SWAP2 SWAP1 PUSH2 0xF5A JUMP JUMPDEST PUSH1 0x40 MLOAD DUP1 SWAP2 SUB SWAP1 REVERT JUMPDEST DUP1 PUSH2 0xD2F PUSH32 0x360894A13BA1A3210667C828492DB98DCA3E2076CC3735A920A3CA505D382BBC PUSH0 SHL PUSH2 0xC9F JUMP JUMPDEST PUSH0 ADD PUSH0 PUSH2 0x100 EXP DUP2 SLOAD DUP2 PUSH20 0xFFFFFFFFFFFFFFFFFFFFFFFFFFFFFFFFFFFFFFFF MUL NOT AND SWAP1 DUP4 PUSH20 0xFFFFFFFFFFFFFFFFFFFFFFFFFFFFFFFFFFFFFFFF AND MUL OR SWAP1 SSTORE POP POP JUMP JUMPDEST PUSH1 0x60 PUSH0 PUSH0 DUP5 PUSH20 0xFFFFFFFFFFFFFFFFFFFFFFFFFFFFFFFFFFFFFFFF AND DUP5 PUSH1 0x40 MLOAD PUSH2 0xD9A SWAP2 SWAP1 PUSH2 0x17AF JUMP JUMPDEST PUSH0 PUSH1 0x40 MLOAD DUP1 DUP4 SUB DUP2 DUP6 GAS DELEGATECALL SWAP2 POP POP RETURNDATASIZE DUP1 PUSH0 DUP2 EQ PUSH2 0xDD2 JUMPI PUSH1 0x40 MLOAD SWAP2 POP PUSH1 0x1F NOT PUSH1 0x3F RETURNDATASIZE ADD AND DUP3 ADD PUSH1 0x40 MSTORE RETURNDATASIZE DUP3 MSTORE RETURNDATASIZE PUSH0 PUSH1 0x20 DUP5 ADD RETURNDATACOPY PUSH2 0xDD7 JUMP JUMPDEST PUSH1 0x60 SWAP2 POP JUMPDEST POP SWAP2 POP SWAP2 POP PUSH2 0xDE7 DUP6 DUP4 DUP4 PUSH2 0xE4B JUMP JUMPDEST SWAP3 POP POP POP SWAP3 SWAP2 POP POP JUMP JUMPDEST PUSH0 CALLVALUE GT ISZERO PUSH2 0xE2B JUMPI PUSH1 0x40 MLOAD PUSH32 0xB398979F00000000000000000000000000000000000000000000000000000000 DUP2 MSTORE PUSH1 0x4 ADD PUSH1 0x40 MLOAD DUP1 SWAP2 SUB SWAP1 REVERT JUMPDEST JUMP JUMPDEST PUSH0 PUSH2 0xE36 PUSH2 0x936 JUMP JUMPDEST PUSH0 ADD PUSH1 0x8 SWAP1 SLOAD SWAP1 PUSH2 0x100 EXP SWAP1 DIV PUSH1 0xFF AND SWAP1 POP SWAP1 JUMP JUMPDEST PUSH1 0x60 DUP3 PUSH2 0xE60 JUMPI PUSH2 0xE5B DUP3 PUSH2 0xED8 JUMP JUMPDEST PUSH2 0xED0 JUMP JUMPDEST PUSH0 DUP3 MLOAD EQ DUP1 ISZERO PUSH2 0xE86 JUMPI POP PUSH0 DUP5 PUSH20 0xFFFFFFFFFFFFFFFFFFFFFFFFFFFFFFFFFFFFFFFF AND EXTCODESIZE EQ JUMPDEST ISZERO PUSH2 0xEC8 JUMPI DUP4 PUSH1 0x40 MLOAD PUSH32 0x9996B31500000000000000000000000000000000000000000000000000000000 DUP2 MSTORE PUSH1 0x4 ADD PUSH2 0xEBF SWAP2 SWAP1 PUSH2 0xF5A JUMP JUMPDEST PUSH1 0x40 MLOAD DUP1 SWAP2 SUB SWAP1 REVERT JUMPDEST DUP2 SWAP1 POP PUSH2 0xED1 JUMP JUMPDEST JUMPDEST SWAP4 SWAP3 POP POP POP JUMP JUMPDEST PUSH0 DUP2 MLOAD GT ISZERO PUSH2 0xEE9 JUMPI DUP1 MLOAD PUSH1 0x20 DUP3 ADD REVERT JUMPDEST PUSH1 0x40 MLOAD PUSH32 0xD6BDA27500000000000000000000000000000000000000000000000000000000 DUP2 MSTORE PUSH1 0x4 ADD PUSH1 0x40 MLOAD DUP1 SWAP2 SUB SWAP1 REVERT JUMPDEST PUSH0 PUSH20 0xFFFFFFFFFFFFFFFFFFFFFFFFFFFFFFFFFFFFFFFF DUP3 AND SWAP1 POP SWAP2 SWAP1 POP JUMP JUMPDEST PUSH0 PUSH2 0xF44 DUP3 PUSH2 0xF1B JUMP JUMPDEST SWAP1 POP SWAP2 SWAP1 POP JUMP JUMPDEST PUSH2 0xF54 DUP2 PUSH2 0xF3A JUMP JUMPDEST DUP3 MSTORE POP POP JUMP JUMPDEST PUSH0 PUSH1 0x20 DUP3 ADD SWAP1 POP PUSH2 0xF6D PUSH0 DUP4 ADD DUP5 PUSH2 0xF4B JUMP JUMPDEST SWAP3 SWAP2 POP POP JUMP JUMPDEST PUSH0 PUSH1 0x40 MLOAD SWAP1 POP SWAP1 JUMP JUMPDEST PUSH0 PUSH0 REVERT JUMPDEST PUSH0 PUSH0 REVERT JUMPDEST PUSH0 PUSH0 REVERT JUMPDEST PUSH0 PUSH0 REVERT JUMPDEST PUSH0 PUSH1 0x1F NOT PUSH1 0x1F DUP4 ADD AND SWAP1 POP SWAP2 SWAP1 POP JUMP JUMPDEST PUSH32 0x4E487B7100000000000000000000000000000000000000000000000000000000 PUSH0 MSTORE PUSH1 0x41 PUSH1 0x4 MSTORE PUSH1 0x24 PUSH0 REVERT JUMPDEST PUSH2 0xFD2 DUP3 PUSH2 0xF8C JUMP JUMPDEST DUP2 ADD DUP2 DUP2 LT PUSH8 0xFFFFFFFFFFFFFFFF DUP3 GT OR ISZERO PUSH2 0xFF1 JUMPI PUSH2 0xFF0 PUSH2 0xF9C JUMP JUMPDEST JUMPDEST DUP1 PUSH1 0x40 MSTORE POP POP POP JUMP JUMPDEST PUSH0 PUSH2 0x1003 PUSH2 0xF73 JUMP JUMPDEST SWAP1 POP PUSH2 0x100F DUP3 DUP3 PUSH2 0xFC9 JUMP JUMPDEST SWAP2 SWAP1 POP JUMP JUMPDEST PUSH0 PUSH8 0xFFFFFFFFFFFFFFFF DUP3 GT ISZERO PUSH2 0x102E JUMPI PUSH2 0x102D PUSH2 0xF9C JUMP JUMPDEST JUMPDEST PUSH2 0x1037 DUP3 PUSH2 0xF8C JUMP JUMPDEST SWAP1 POP PUSH1 0x20 DUP2 ADD SWAP1 POP SWAP2 SWAP1 POP JUMP JUMPDEST DUP3 DUP2 DUP4 CALLDATACOPY PUSH0 DUP4 DUP4 ADD MSTORE POP POP POP JUMP JUMPDEST PUSH0 PUSH2 0x1064 PUSH2 0x105F DUP5 PUSH2 0x1014 JUMP JUMPDEST PUSH2 0xFFA JUMP JUMPDEST SWAP1 POP DUP3 DUP2 MSTORE PUSH1 0x20 DUP2 ADD DUP5 DUP5 DUP5 ADD GT ISZERO PUSH2 0x1080 JUMPI PUSH2 0x107F PUSH2 0xF88 JUMP JUMPDEST JUMPDEST PUSH2 0x108B DUP5 DUP3 DUP6 PUSH2 0x1044 JUMP JUMPDEST POP SWAP4 SWAP3 POP POP POP JUMP JUMPDEST PUSH0 DUP3 PUSH1 0x1F DUP4 ADD SLT PUSH2 0x10A7 JUMPI PUSH2 0x10A6 PUSH2 0xF84 JUMP JUMPDEST JUMPDEST DUP2 CALLDATALOAD PUSH2 0x10B7 DUP5 DUP3 PUSH1 0x20 DUP7 ADD PUSH2 0x1052 JUMP JUMPDEST SWAP2 POP POP SWAP3 SWAP2 POP POP JUMP JUMPDEST PUSH0 PUSH1 0x20 DUP3 DUP5 SUB SLT ISZERO PUSH2 0x10D5 JUMPI PUSH2 0x10D4 PUSH2 0xF7C JUMP JUMPDEST JUMPDEST PUSH0 DUP3 ADD CALLDATALOAD PUSH8 0xFFFFFFFFFFFFFFFF DUP2 GT ISZERO PUSH2 0x10F2 JUMPI PUSH2 0x10F1 PUSH2 0xF80 JUMP JUMPDEST JUMPDEST PUSH2 0x10FE DUP5 DUP3 DUP6 ADD PUSH2 0x1093 JUMP JUMPDEST SWAP2 POP POP SWAP3 SWAP2 POP POP JUMP JUMPDEST PUSH0 DUP2 SWAP1 POP SWAP2 SWAP1 POP JUMP JUMPDEST PUSH2 0x1119 DUP2 PUSH2 0x1107 JUMP JUMPDEST DUP3 MSTORE POP POP JUMP JUMPDEST PUSH0 PUSH1 0x20 DUP3 ADD SWAP1 POP PUSH2 0x1132 PUSH0 DUP4 ADD DUP5 PUSH2 0x1110 JUMP JUMPDEST SWAP3 SWAP2 POP POP JUMP JUMPDEST PUSH2 0x1141 DUP2 PUSH2 0xF3A JUMP JUMPDEST DUP2 EQ PUSH2 0x114B JUMPI PUSH0 PUSH0 REVERT JUMPDEST POP JUMP JUMPDEST PUSH0 DUP2 CALLDATALOAD SWAP1 POP PUSH2 0x115C DUP2 PUSH2 0x1138 JUMP JUMPDEST SWAP3 SWAP2 POP POP JUMP JUMPDEST PUSH0 PUSH8 0xFFFFFFFFFFFFFFFF DUP3 GT ISZERO PUSH2 0x117C JUMPI PUSH2 0x117B PUSH2 0xF9C JUMP JUMPDEST JUMPDEST PUSH2 0x1185 DUP3 PUSH2 0xF8C JUMP JUMPDEST SWAP1 POP PUSH1 0x20 DUP2 ADD SWAP1 POP SWAP2 SWAP1 POP JUMP JUMPDEST PUSH0 PUSH2 0x11A4 PUSH2 0x119F DUP5 PUSH2 0x1162 JUMP JUMPDEST PUSH2 0xFFA JUMP JUMPDEST SWAP1 POP DUP3 DUP2 MSTORE PUSH1 0x20 DUP2 ADD DUP5 DUP5 DUP5 ADD GT ISZERO PUSH2 0x11C0 JUMPI PUSH2 0x11BF PUSH2 0xF88 JUMP JUMPDEST JUMPDEST PUSH2 0x11CB DUP5 DUP3 DUP6 PUSH2 0x1044 JUMP JUMPDEST POP SWAP4 SWAP3 POP POP POP JUMP JUMPDEST PUSH0 DUP3 PUSH1 0x1F DUP4 ADD SLT PUSH2 0x11E7 JUMPI PUSH2 0x11E6 PUSH2 0xF84 JUMP JUMPDEST JUMPDEST DUP2 CALLDATALOAD PUSH2 0x11F7 DUP5 DUP3 PUSH1 0x20 DUP7 ADD PUSH2 0x1192 JUMP JUMPDEST SWAP2 POP POP SWAP3 SWAP2 POP POP JUMP JUMPDEST PUSH0 PUSH0 PUSH1 0x40 DUP4 DUP6 SUB SLT ISZERO PUSH2 0x1216 JUMPI PUSH2 0x1215 PUSH2 0xF7C JUMP JUMPDEST JUMPDEST PUSH0 PUSH2 0x1223 DUP6 DUP3 DUP7 ADD PUSH2 0x114E JUMP JUMPDEST SWAP3 POP POP PUSH1 0x20 DUP4 ADD CALLDATALOAD PUSH8 0xFFFFFFFFFFFFFFFF DUP2 GT ISZERO PUSH2 0x1244 JUMPI PUSH2 0x1243 PUSH2 0xF80 JUMP JUMPDEST JUMPDEST PUSH2 0x1250 DUP6 DUP3 DUP7 ADD PUSH2 0x11D3 JUMP JUMPDEST SWAP2 POP POP SWAP3 POP SWAP3 SWAP1 POP JUMP JUMPDEST PUSH0 DUP2 SWAP1 POP SWAP2 SWAP1 POP JUMP JUMPDEST PUSH2 0x126C DUP2 PUSH2 0x125A JUMP JUMPDEST DUP3 MSTORE POP POP JUMP JUMPDEST PUSH0 PUSH1 0x20 DUP3 ADD SWAP1 POP PUSH2 0x1285 PUSH0 DUP4 ADD DUP5 PUSH2 0x1263 JUMP JUMPDEST SWAP3 SWAP2 POP POP JUMP JUMPDEST PUSH2 0x1294 DUP2 PUSH2 0x1107 JUMP JUMPDEST DUP2 EQ PUSH2 0x129E JUMPI PUSH0 PUSH0 REVERT JUMPDEST POP JUMP JUMPDEST PUSH0 DUP2 CALLDATALOAD SWAP1 POP PUSH2 0x12AF DUP2 PUSH2 0x128B JUMP JUMPDEST SWAP3 SWAP2 POP POP JUMP JUMPDEST PUSH0 PUSH1 0x20 DUP3 DUP5 SUB SLT ISZERO PUSH2 0x12CA JUMPI PUSH2 0x12C9 PUSH2 0xF7C JUMP JUMPDEST JUMPDEST PUSH0 PUSH2 0x12D7 DUP5 DUP3 DUP6 ADD PUSH2 0x12A1 JUMP JUMPDEST SWAP2 POP POP SWAP3 SWAP2 POP POP JUMP JUMPDEST PUSH0 PUSH0 PUSH1 0x40 DUP4 DUP6 SUB SLT ISZERO PUSH2 0x12F6 JUMPI PUSH2 0x12F5 PUSH2 0xF7C JUMP JUMPDEST JUMPDEST PUSH0 PUSH2 0x1303 DUP6 DUP3 DUP7 ADD PUSH2 0x12A1 JUMP JUMPDEST SWAP3 POP POP PUSH1 0x20 DUP4 ADD CALLDATALOAD PUSH8 0xFFFFFFFFFFFFFFFF DUP2 GT ISZERO PUSH2 0x1324 JUMPI PUSH2 0x1323 PUSH2 0xF80 JUMP JUMPDEST JUMPDEST PUSH2 0x1330 DUP6 DUP3 DUP7 ADD PUSH2 0x1093 JUMP JUMPDEST SWAP2 POP POP SWAP3 POP SWAP3 SWAP1 POP JUMP JUMPDEST PUSH0 DUP2 MLOAD SWAP1 POP SWAP2 SWAP1 POP JUMP JUMPDEST PUSH0 DUP3 DUP3 MSTORE PUSH1 0x20 DUP3 ADD SWAP1 POP SWAP3 SWAP2 POP POP JUMP JUMPDEST DUP3 DUP2 DUP4 MCOPY PUSH0 DUP4 DUP4 ADD MSTORE POP POP POP JUMP JUMPDEST PUSH0 PUSH2 0x136C DUP3 PUSH2 0x133A JUMP JUMPDEST PUSH2 0x1376 DUP2 DUP6 PUSH2 0x1344 JUMP JUMPDEST SWAP4 POP PUSH2 0x1386 DUP2 DUP6 PUSH1 0x20 DUP7 ADD PUSH2 0x1354 JUMP JUMPDEST PUSH2 0x138F DUP2 PUSH2 0xF8C JUMP JUMPDEST DUP5 ADD SWAP2 POP POP SWAP3 SWAP2 POP POP JUMP JUMPDEST PUSH0 PUSH1 0x20 DUP3 ADD SWAP1 POP DUP2 DUP2 SUB PUSH0 DUP4 ADD MSTORE PUSH2 0x13B2 DUP2 DUP5 PUSH2 0x1362 JUMP JUMPDEST SWAP1 POP SWAP3 SWAP2 POP POP JUMP JUMPDEST PUSH0 PUSH1 0x20 DUP3 DUP5 SUB SLT ISZERO PUSH2 0x13CF JUMPI PUSH2 0x13CE PUSH2 0xF7C JUMP JUMPDEST JUMPDEST PUSH0 PUSH2 0x13DC DUP5 DUP3 DUP6 ADD PUSH2 0x114E JUMP JUMPDEST SWAP2 POP POP SWAP3 SWAP2 POP POP JUMP JUMPDEST PUSH32 0x4E487B7100000000000000000000000000000000000000000000000000000000 PUSH0 MSTORE PUSH1 0x22 PUSH1 0x4 MSTORE PUSH1 0x24 PUSH0 REVERT JUMPDEST PUSH0 PUSH1 0x2 DUP3 DIV SWAP1 POP PUSH1 0x1 DUP3 AND DUP1 PUSH2 0x1429 JUMPI PUSH1 0x7F DUP3 AND SWAP2 POP JUMPDEST PUSH1 0x20 DUP3 LT DUP2 SUB PUSH2 0x143C JUMPI PUSH2 0x143B PUSH2 0x13E5 JUMP JUMPDEST JUMPDEST POP SWAP2 SWAP1 POP JUMP JUMPDEST PUSH0 DUP2 SWAP1 POP DUP2 PUSH0 MSTORE PUSH1 0x20 PUSH0 KECCAK256 SWAP1 POP SWAP2 SWAP1 POP JUMP JUMPDEST PUSH0 PUSH1 0x20 PUSH1 0x1F DUP4 ADD DIV SWAP1 POP SWAP2 SWAP1 POP JUMP JUMPDEST PUSH0 DUP3 DUP3 SHL SWAP1 POP SWAP3 SWAP2 POP POP JUMP JUMPDEST PUSH0 PUSH1 0x8 DUP4 MUL PUSH2 0x149E PUSH32 0xFFFFFFFFFFFFFFFFFFFFFFFFFFFFFFFFFFFFFFFFFFFFFFFFFFFFFFFFFFFFFFFF DUP3 PUSH2 0x1463 JUMP JUMPDEST PUSH2 0x14A8 DUP7 DUP4 PUSH2 0x1463 JUMP JUMPDEST SWAP6 POP DUP1 NOT DUP5 AND SWAP4 POP DUP1 DUP7 AND DUP5 OR SWAP3 POP POP POP SWAP4 SWAP3 POP POP POP JUMP JUMPDEST PUSH0 DUP2 SWAP1 POP SWAP2 SWAP1 POP JUMP JUMPDEST PUSH0 PUSH2 0x14E3 PUSH2 0x14DE PUSH2 0x14D9 DUP5 PUSH2 0x1107 JUMP JUMPDEST PUSH2 0x14C0 JUMP JUMPDEST PUSH2 0x1107 JUMP JUMPDEST SWAP1 POP SWAP2 SWAP1 POP JUMP JUMPDEST PUSH0 DUP2 SWAP1 POP SWAP2 SWAP1 POP JUMP JUMPDEST PUSH2 0x14FC DUP4 PUSH2 0x14C9 JUMP JUMPDEST PUSH2 0x1510 PUSH2 0x1508 DUP3 PUSH2 0x14EA JUMP JUMPDEST DUP5 DUP5 SLOAD PUSH2 0x146F JUMP JUMPDEST DUP3 SSTORE POP POP POP POP JUMP JUMPDEST PUSH0 PUSH0 SWAP1 POP SWAP1 JUMP JUMPDEST PUSH2 0x1527 PUSH2 0x1518 JUMP JUMPDEST PUSH2 0x1532 DUP2 DUP5 DUP5 PUSH2 0x14F3 JUMP JUMPDEST POP POP POP JUMP JUMPDEST JUMPDEST DUP2 DUP2 LT ISZERO PUSH2 0x1555 JUMPI PUSH2 0x154A PUSH0 DUP3 PUSH2 0x151F JUMP JUMPDEST PUSH1 0x1 DUP2 ADD SWAP1 POP PUSH2 0x1538 JUMP JUMPDEST POP POP JUMP JUMPDEST PUSH1 0x1F DUP3 GT ISZERO PUSH2 0x159A JUMPI PUSH2 0x156B DUP2 PUSH2 0x1442 JUMP JUMPDEST PUSH2 0x1574 DUP5 PUSH2 0x1454 JUMP JUMPDEST DUP2 ADD PUSH1 0x20 DUP6 LT ISZERO PUSH2 0x1583 JUMPI DUP2 SWAP1 POP JUMPDEST PUSH2 0x1597 PUSH2 0x158F DUP6 PUSH2 0x1454 JUMP JUMPDEST DUP4 ADD DUP3 PUSH2 0x1537 JUMP JUMPDEST POP POP JUMPDEST POP POP POP JUMP JUMPDEST PUSH0 DUP3 DUP3 SHR SWAP1 POP SWAP3 SWAP2 POP POP JUMP JUMPDEST PUSH0 PUSH2 0x15BA PUSH0 NOT DUP5 PUSH1 0x8 MUL PUSH2 0x159F JUMP JUMPDEST NOT DUP1 DUP4 AND SWAP2 POP POP SWAP3 SWAP2 POP POP JUMP JUMPDEST PUSH0 PUSH2 0x15D2 DUP4 DUP4 PUSH2 0x15AB JUMP JUMPDEST SWAP2 POP DUP3 PUSH1 0x2 MUL DUP3 OR SWAP1 POP SWAP3 SWAP2 POP POP JUMP JUMPDEST PUSH2 0x15EB DUP3 PUSH2 0x133A JUMP JUMPDEST PUSH8 0xFFFFFFFFFFFFFFFF DUP2 GT ISZERO PUSH2 0x1604 JUMPI PUSH2 0x1603 PUSH2 0xF9C JUMP JUMPDEST JUMPDEST PUSH2 0x160E DUP3 SLOAD PUSH2 0x1412 JUMP JUMPDEST PUSH2 0x1619 DUP3 DUP3 DUP6 PUSH2 0x1559 JUMP JUMPDEST PUSH0 PUSH1 0x20 SWAP1 POP PUSH1 0x1F DUP4 GT PUSH1 0x1 DUP2 EQ PUSH2 0x164A JUMPI PUSH0 DUP5 ISZERO PUSH2 0x1638 JUMPI DUP3 DUP8 ADD MLOAD SWAP1 POP JUMPDEST PUSH2 0x1642 DUP6 DUP3 PUSH2 0x15C7 JUMP JUMPDEST DUP7 SSTORE POP PUSH2 0x16A9 JUMP JUMPDEST PUSH1 0x1F NOT DUP5 AND PUSH2 0x1658 DUP7 PUSH2 0x1442 JUMP JUMPDEST PUSH0 JUMPDEST DUP3 DUP2 LT ISZERO PUSH2 0x167F JUMPI DUP5 DUP10 ADD MLOAD DUP3 SSTORE PUSH1 0x1 DUP3 ADD SWAP2 POP PUSH1 0x20 DUP6 ADD SWAP5 POP PUSH1 0x20 DUP2 ADD SWAP1 POP PUSH2 0x165A JUMP JUMPDEST DUP7 DUP4 LT ISZERO PUSH2 0x169C JUMPI DUP5 DUP10 ADD MLOAD PUSH2 0x1698 PUSH1 0x1F DUP10 AND DUP3 PUSH2 0x15AB JUMP JUMPDEST DUP4 SSTORE POP JUMPDEST PUSH1 0x1 PUSH1 0x2 DUP9 MUL ADD DUP9 SSTORE POP POP POP JUMPDEST POP POP POP POP POP POP JUMP JUMPDEST PUSH0 DUP2 SWAP1 POP SWAP2 SWAP1 POP JUMP JUMPDEST PUSH0 PUSH8 0xFFFFFFFFFFFFFFFF DUP3 AND SWAP1 POP SWAP2 SWAP1 POP JUMP JUMPDEST PUSH0 PUSH2 0x16E7 PUSH2 0x16E2 PUSH2 0x16DD DUP5 PUSH2 0x16B1 JUMP JUMPDEST PUSH2 0x14C0 JUMP JUMPDEST PUSH2 0x16BA JUMP JUMPDEST SWAP1 POP SWAP2 SWAP1 POP JUMP JUMPDEST PUSH2 0x16F7 DUP2 PUSH2 0x16CD JUMP JUMPDEST DUP3 MSTORE POP POP JUMP JUMPDEST PUSH0 PUSH1 0x20 DUP3 ADD SWAP1 POP PUSH2 0x1710 PUSH0 DUP4 ADD DUP5 PUSH2 0x16EE JUMP JUMPDEST SWAP3 SWAP2 POP POP JUMP JUMPDEST PUSH2 0x171F DUP2 PUSH2 0x125A JUMP JUMPDEST DUP2 EQ PUSH2 0x1729 JUMPI PUSH0 PUSH0 REVERT JUMPDEST POP JUMP JUMPDEST PUSH0 DUP2 MLOAD SWAP1 POP PUSH2 0x173A DUP2 PUSH2 0x1716 JUMP JUMPDEST SWAP3 SWAP2 POP POP JUMP JUMPDEST PUSH0 PUSH1 0x20 DUP3 DUP5 SUB SLT ISZERO PUSH2 0x1755 JUMPI PUSH2 0x1754 PUSH2 0xF7C JUMP JUMPDEST JUMPDEST PUSH0 PUSH2 0x1762 DUP5 DUP3 DUP6 ADD PUSH2 0x172C JUMP JUMPDEST SWAP2 POP POP SWAP3 SWAP2 POP POP JUMP JUMPDEST PUSH0 DUP2 MLOAD SWAP1 POP SWAP2 SWAP1 POP JUMP JUMPDEST PUSH0 DUP2 SWAP1 POP SWAP3 SWAP2 POP POP JUMP JUMPDEST PUSH0 PUSH2 0x1789 DUP3 PUSH2 0x176B JUMP JUMPDEST PUSH2 0x1793 DUP2 DUP6 PUSH2 0x1775 JUMP JUMPDEST SWAP4 POP PUSH2 0x17A3 DUP2 DUP6 PUSH1 0x20 DUP7 ADD PUSH2 0x1354 JUMP JUMPDEST DUP1 DUP5 ADD SWAP2 POP POP SWAP3 SWAP2 POP POP JUMP JUMPDEST PUSH0 PUSH2 0x17BA DUP3 DUP5 PUSH2 0x177F JUMP JUMPDEST SWAP2 POP DUP2 SWAP1 POP SWAP3 SWAP2 POP POP JUMP INVALID LOG2 PUSH5 0x6970667358 0x22 SLT KECCAK256 JUMP SWAP13 EXTCODESIZE DUP16 CALLCODE NOT 0xB4 PUSH12 0xF8C53453511CD4F7917FF9D1 DUP12 0xAF EXTCALL DUP15 PUSH28 0x588C38E9279D9764736F6C634300081E003300000000000000000000 "
				},
				"gasEstimates": {
					"creation": {
						"codeDepositCost": "1227800",
						"executionCost": "infinite",
						"totalCost": "infinite"
					},
					"external": {
						"UPGRADE_INTERFACE_VERSION()": "infinite",
						"creator()": "2509",
						"initialize(uint256,string)": "infinite",
						"message()": "infinite",
						"owner()": "2610",
						"proxiableUUID()": "infinite",
						"renounceOwnership()": "infinite",
						"setMessage(string)": "infinite",
						"setValue(uint256)": "22625",
						"transferOwnership(address)": "infinite",
						"upgradeToAndCall(address,bytes)": "infinite",
						"value()": "2469"
					},
					"internal": {
						"_authorizeUpgrade(address)": "infinite"
					}
				},
				"methodIdentifiers": {
					"UPGRADE_INTERFACE_VERSION()": "ad3cb1cc",
					"creator()": "02d05d3f",
					"initialize(uint256,string)": "6e9d13ab",
					"message()": "e21f37ce",
					"owner()": "8da5cb5b",
					"proxiableUUID()": "52d1902d",
					"renounceOwnership()": "715018a6",
					"setMessage(string)": "368b8772",
					"setValue(uint256)": "55241077",
					"transferOwnership(address)": "f2fde38b",
					"upgradeToAndCall(address,bytes)": "4f1ef286",
					"value()": "3fa4f245"
				}
			},
			"storageLayout": {
				"storage": [
					{
						"astId": 12,
						"contract": "@course/meta-node/solidity/mine/solidity_lesson/hardhat-demo2/contracts/test/TestInitializable.sol:SimpleUpgradeable",
						"label": "value",
						"offset": 0,
						"slot": "0",
						"type": "t_uint256"
					},
					{
						"astId": 14,
						"contract": "@course/meta-node/solidity/mine/solidity_lesson/hardhat-demo2/contracts/test/TestInitializable.sol:SimpleUpgradeable",
						"label": "message",
						"offset": 0,
						"slot": "1",
						"type": "t_string_storage"
					},
					{
						"astId": 16,
						"contract": "@course/meta-node/solidity/mine/solidity_lesson/hardhat-demo2/contracts/test/TestInitializable.sol:SimpleUpgradeable",
						"label": "creator",
						"offset": 0,
						"slot": "2",
						"type": "t_address"
					}
				],
				"types": {
					"t_address": {
						"encoding": "inplace",
						"label": "address",
						"numberOfBytes": "20"
					},
					"t_string_storage": {
						"encoding": "bytes",
						"label": "string",
						"numberOfBytes": "32"
					},
					"t_uint256": {
						"encoding": "inplace",
						"label": "uint256",
						"numberOfBytes": "32"
					}
				}
			},
			"userdoc": {
				"kind": "user",
				"methods": {},
				"version": 1
			}
		}
	}
}