{
	"@course/meta-node/solidity/mine/solidity_lesson/study_code/2.1数据类型基础/TypeConvert.sol": {
		"TypeConvert": {
			"abi": [
				{
					"inputs": [],
					"name": "explicitConvert",
					"outputs": [
						{
							"internalType": "uint8",
							"name": "",
							"type": "uint8"
						}
					],
					"stateMutability": "pure",
					"type": "function"
				}
			],
			"devdoc": {
				"kind": "dev",
				"methods": {},
				"version": 1
			},
			"evm": {
				"assembly": "    /* \"@course/meta-node/solidity/mine/solidity_lesson/study_code/2.1\\xe6\\x95\\xb0\\xe6\\x8d\\xae\\xe7\\xb1\\xbb\\xe5\\x9e\\x8b\\xe5\\x9f\\xba\\xe7\\xa1\\x80/TypeConvert.sol\":60:361  contract TypeConvert {... */\n  mstore(0x40, 0x80)\n  callvalue\n  dup1\n  iszero\n  tag_1\n  jumpi\n  revert(0x00, 0x00)\ntag_1:\n  pop\n  dataSize(sub_0)\n  dup1\n  dataOffset(sub_0)\n  0x00\n  codecopy\n  0x00\n  return\nstop\n\nsub_0: assembly {\n        /* \"@course/meta-node/solidity/mine/solidity_lesson/study_code/2.1\\xe6\\x95\\xb0\\xe6\\x8d\\xae\\xe7\\xb1\\xbb\\xe5\\x9e\\x8b\\xe5\\x9f\\xba\\xe7\\xa1\\x80/TypeConvert.sol\":60:361  contract TypeConvert {... */\n      mstore(0x40, 0x80)\n      callvalue\n      dup1\n      iszero\n      tag_1\n      jumpi\n      revert(0x00, 0x00)\n    tag_1:\n      pop\n      jumpi(tag_2, lt(calldatasize, 0x04))\n      shr(0xe0, calldataload(0x00))\n      dup1\n      0x8212a292\n      eq\n      tag_3\n      jumpi\n    tag_2:\n      revert(0x00, 0x00)\n        /* \"@course/meta-node/solidity/mine/solidity_lesson/study_code/2.1\\xe6\\x95\\xb0\\xe6\\x8d\\xae\\xe7\\xb1\\xbb\\xe5\\x9e\\x8b\\xe5\\x9f\\xba\\xe7\\xa1\\x80/TypeConvert.sol\":88:358  function explicitConvert() public pure returns (uint8) {... */\n    tag_3:\n      tag_4\n      tag_5\n      jump\t// in\n    tag_4:\n      mload(0x40)\n      tag_6\n      swap2\n      swap1\n      tag_7\n      jump\t// in\n    tag_6:\n      mload(0x40)\n      dup1\n      swap2\n      sub\n      swap1\n      return\n    tag_5:\n        /* \"@course/meta-node/solidity/mine/solidity_lesson/study_code/2.1\\xe6\\x95\\xb0\\xe6\\x8d\\xae\\xe7\\xb1\\xbb\\xe5\\x9e\\x8b\\xe5\\x9f\\xba\\xe7\\xa1\\x80/TypeConvert.sol\":136:141  uint8 */\n      0x00\n        /* \"@course/meta-node/solidity/mine/solidity_lesson/study_code/2.1\\xe6\\x95\\xb0\\xe6\\x8d\\xae\\xe7\\xb1\\xbb\\xe5\\x9e\\x8b\\xe5\\x9f\\xba\\xe7\\xa1\\x80/TypeConvert.sol\":154:165  uint256 big */\n      0x00\n        /* \"@course/meta-node/solidity/mine/solidity_lesson/study_code/2.1\\xe6\\x95\\xb0\\xe6\\x8d\\xae\\xe7\\xb1\\xbb\\xe5\\x9e\\x8b\\xe5\\x9f\\xba\\xe7\\xa1\\x80/TypeConvert.sol\":168:171  300 */\n      0x012c\n        /* \"@course/meta-node/solidity/mine/solidity_lesson/study_code/2.1\\xe6\\x95\\xb0\\xe6\\x8d\\xae\\xe7\\xb1\\xbb\\xe5\\x9e\\x8b\\xe5\\x9f\\xba\\xe7\\xa1\\x80/TypeConvert.sol\":154:171  uint256 big = 300 */\n      swap1\n      pop\n        /* \"@course/meta-node/solidity/mine/solidity_lesson/study_code/2.1\\xe6\\x95\\xb0\\xe6\\x8d\\xae\\xe7\\xb1\\xbb\\xe5\\x9e\\x8b\\xe5\\x9f\\xba\\xe7\\xa1\\x80/TypeConvert.sol\":182:193  uint8 small */\n      0x00\n        /* \"@course/meta-node/solidity/mine/solidity_lesson/study_code/2.1\\xe6\\x95\\xb0\\xe6\\x8d\\xae\\xe7\\xb1\\xbb\\xe5\\x9e\\x8b\\xe5\\x9f\\xba\\xe7\\xa1\\x80/TypeConvert.sol\":202:205  big */\n      dup2\n        /* \"@course/meta-node/solidity/mine/solidity_lesson/study_code/2.1\\xe6\\x95\\xb0\\xe6\\x8d\\xae\\xe7\\xb1\\xbb\\xe5\\x9e\\x8b\\xe5\\x9f\\xba\\xe7\\xa1\\x80/TypeConvert.sol\":182:206  uint8 small = uint8(big) */\n      swap1\n      pop\n        /* \"@course/meta-node/solidity/mine/solidity_lesson/study_code/2.1\\xe6\\x95\\xb0\\xe6\\x8d\\xae\\xe7\\xb1\\xbb\\xe5\\x9e\\x8b\\xe5\\x9f\\xba\\xe7\\xa1\\x80/TypeConvert.sol\":339:344  small */\n      dup1\n        /* \"@course/meta-node/solidity/mine/solidity_lesson/study_code/2.1\\xe6\\x95\\xb0\\xe6\\x8d\\xae\\xe7\\xb1\\xbb\\xe5\\x9e\\x8b\\xe5\\x9f\\xba\\xe7\\xa1\\x80/TypeConvert.sol\":332:344  return small */\n      swap3\n      pop\n      pop\n      pop\n        /* \"@course/meta-node/solidity/mine/solidity_lesson/study_code/2.1\\xe6\\x95\\xb0\\xe6\\x8d\\xae\\xe7\\xb1\\xbb\\xe5\\x9e\\x8b\\xe5\\x9f\\xba\\xe7\\xa1\\x80/TypeConvert.sol\":88:358  function explicitConvert() public pure returns (uint8) {... */\n      swap1\n      jump\t// out\n        /* \"#utility.yul\":7:93   */\n    tag_9:\n        /* \"#utility.yul\":42:49   */\n      0x00\n        /* \"#utility.yul\":82:86   */\n      0xff\n        /* \"#utility.yul\":75:80   */\n      dup3\n        /* \"#utility.yul\":71:87   */\n      and\n        /* \"#utility.yul\":60:87   */\n      swap1\n      pop\n        /* \"#utility.yul\":7:93   */\n      swap2\n      swap1\n      pop\n      jump\t// out\n        /* \"#utility.yul\":99:211   */\n    tag_10:\n        /* \"#utility.yul\":182:204   */\n      tag_14\n        /* \"#utility.yul\":198:203   */\n      dup2\n        /* \"#utility.yul\":182:204   */\n      tag_9\n      jump\t// in\n    tag_14:\n        /* \"#utility.yul\":177:180   */\n      dup3\n        /* \"#utility.yul\":170:205   */\n      mstore\n        /* \"#utility.yul\":99:211   */\n      pop\n      pop\n      jump\t// out\n        /* \"#utility.yul\":217:431   */\n    tag_7:\n        /* \"#utility.yul\":306:310   */\n      0x00\n        /* \"#utility.yul\":344:346   */\n      0x20\n        /* \"#utility.yul\":333:342   */\n      dup3\n        /* \"#utility.yul\":329:347   */\n      add\n        /* \"#utility.yul\":321:347   */\n      swap1\n      pop\n        /* \"#utility.yul\":357:424   */\n      tag_16\n        /* \"#utility.yul\":421:422   */\n      0x00\n        /* \"#utility.yul\":410:419   */\n      dup4\n        /* \"#utility.yul\":406:423   */\n      add\n        /* \"#utility.yul\":397:403   */\n      dup5\n        /* \"#utility.yul\":357:424   */\n      tag_10\n      jump\t// in\n    tag_16:\n        /* \"#utility.yul\":217:431   */\n      swap3\n      swap2\n      pop\n      pop\n      jump\t// out\n\n    auxdata: 0xa26469706673582212206724e9507fa6399080d82075a46acd196212126a25f2f16c589e66ebeeb6ef7164736f6c634300081e0033\n}\n",
				"bytecode": {
					"linkReferences": {},
					"object": "6080604052348015600e575f5ffd5b5060bd80601a5f395ff3fe6080604052348015600e575f5ffd5b50600436106026575f3560e01c80638212a29214602a575b5f5ffd5b60306044565b604051603b91906070565b60405180910390f35b5f5f61012c90505f819050809250505090565b5f60ff82169050919050565b606a816057565b82525050565b5f60208201905060815f8301846063565b9291505056fea26469706673582212206724e9507fa6399080d82075a46acd196212126a25f2f16c589e66ebeeb6ef7164736f6c634300081e0033",
					"opcodes": "PUSH1 0x80 PUSH1 0x40 MSTORE CALLVALUE DUP1 ISZERO PUSH1 0xE JUMPI PUSH0 PUSH0 REVERT JUMPDEST POP PUSH1 0xBD DUP1 PUSH1 0x1A PUSH0 CODECOPY PUSH0 RETURN INVALID PUSH1 0x80 PUSH1 0x40 MSTORE CALLVALUE DUP1 ISZERO PUSH1 0xE JUMPI PUSH0 PUSH0 REVERT JUMPDEST POP PUSH1 0x4 CALLDATASIZE LT PUSH1 0x26 JUMPI PUSH0 CALLDATALOAD PUSH1 0xE0 SHR DUP1 PUSH4 0x8212A292 EQ PUSH1 0x2A JUMPI JUMPDEST PUSH0 PUSH0 REVERT JUMPDEST PUSH1 0x30 PUSH1 0x44 JUMP JUMPDEST PUSH1 0x40 MLOAD PUSH1 0x3B SWAP2 SWAP1 PUSH1 0x70 JUMP JUMPDEST PUSH1 0x40 MLOAD DUP1 SWAP2 SUB SWAP1 RETURN JUMPDEST PUSH0 PUSH0 PUSH2 0x12C SWAP1 POP PUSH0 DUP2 SWAP1 POP DUP1 SWAP3 POP POP POP SWAP1 JUMP JUMPDEST PUSH0 PUSH1 0xFF DUP3 AND SWAP1 POP SWAP2 SWAP1 POP JUMP JUMPDEST PUSH1 0x6A DUP2 PUSH1 0x57 JUMP JUMPDEST DUP3 MSTORE POP POP JUMP JUMPDEST PUSH0 PUSH1 0x20 DUP3 ADD SWAP1 POP PUSH1 0x81 PUSH0 DUP4 ADD DUP5 PUSH1 0x63 JUMP JUMPDEST SWAP3 SWAP2 POP POP JUMP INVALID LOG2 PUSH5 0x6970667358 0x22 SLT KECCAK256 PUSH8 0x24E9507FA6399080 0xD8 KECCAK256 PUSH22 0xA46ACD196212126A25F2F16C589E66EBEEB6EF716473 PUSH16 0x6C634300081E00330000000000000000 "
				},
				"gasEstimates": {
					"creation": {
						"codeDepositCost": "37800",
						"executionCost": "85",
						"totalCost": "37885"
					},
					"external": {
						"explicitConvert()": "340"
					}
				},
				"methodIdentifiers": {
					"explicitConvert()": "8212a292"
				}
			},
			"storageLayout": {
				"storage": [],
				"types": null
			},
			"userdoc": {
				"kind": "user",
				"methods": {},
				"version": 1
			}
		}
	}
}