{
	"@course/meta-node/solidity/mine/solidity_lesson/study_code/1.2/CallOptimization.sol": {
		"CallOptimization": {
			"abi": [
				{
					"inputs": [
						{
							"internalType": "uint256",
							"name": "a",
							"type": "uint256"
						},
						{
							"internalType": "uint256",
							"name": "b",
							"type": "uint256"
						}
					],
					"name": "calculateExternal",
					"outputs": [
						{
							"internalType": "uint256",
							"name": "",
							"type": "uint256"
						}
					],
					"stateMutability": "pure",
					"type": "function"
				},
				{
					"inputs": [
						{
							"internalType": "uint256",
							"name": "x",
							"type": "uint256"
						}
					],
					"name": "processOptimized",
					"outputs": [
						{
							"internalType": "uint256",
							"name": "",
							"type": "uint256"
						}
					],
					"stateMutability": "pure",
					"type": "function"
				},
				{
					"inputs": [
						{
							"internalType": "uint256",
							"name": "x",
							"type": "uint256"
						}
					],
					"name": "processUnoptimized",
					"outputs": [
						{
							"internalType": "uint256",
							"name": "",
							"type": "uint256"
						}
					],
					"stateMutability": "view",
					"type": "function"
				}
			],
			"devdoc": {
				"kind": "dev",
				"methods": {},
				"version": 1
			},
			"evm": {
				"assembly": "    /* \"@course/meta-node/solidity/mine/solidity_lesson/study_code/1.2/CallOptimization.sol\":60:907  contract CallOptimization {... */\n  mstore(0x40, 0x80)\n  callvalue\n  dup1\n  iszero\n  tag_1\n  jumpi\n  revert(0x00, 0x00)\ntag_1:\n  pop\n  dataSize(sub_0)\n  dup1\n  dataOffset(sub_0)\n  0x00\n  codecopy\n  0x00\n  return\nstop\n\nsub_0: assembly {\n        /* \"@course/meta-node/solidity/mine/solidity_lesson/study_code/1.2/CallOptimization.sol\":60:907  contract CallOptimization {... */\n      mstore(0x40, 0x80)\n      callvalue\n      dup1\n      iszero\n      tag_1\n      jumpi\n      revert(0x00, 0x00)\n    tag_1:\n      pop\n      jumpi(tag_2, lt(calldatasize, 0x04))\n      shr(0xe0, calldataload(0x00))\n      dup1\n      0x14dedb2c\n      eq\n      tag_3\n      jumpi\n      dup1\n      0x450b5db9\n      eq\n      tag_4\n      jumpi\n      dup1\n      0x57f4f553\n      eq\n      tag_5\n      jumpi\n    tag_2:\n      revert(0x00, 0x00)\n        /* \"@course/meta-node/solidity/mine/solidity_lesson/study_code/1.2/CallOptimization.sol\":127:255  function calculateExternal(uint256 a, uint256 b) ... */\n    tag_3:\n      tag_6\n      0x04\n      dup1\n      calldatasize\n      sub\n      dup2\n      add\n      swap1\n      tag_7\n      swap2\n      swap1\n      tag_8\n      jump\t// in\n    tag_7:\n      tag_9\n      jump\t// in\n    tag_6:\n      mload(0x40)\n      tag_10\n      swap2\n      swap1\n      tag_11\n      jump\t// in\n    tag_10:\n      mload(0x40)\n      dup1\n      swap2\n      sub\n      swap1\n      return\n        /* \"@course/meta-node/solidity/mine/solidity_lesson/study_code/1.2/CallOptimization.sol\":496:690  function processUnoptimized(uint256 x) external view returns (uint256) {... */\n    tag_4:\n      tag_12\n      0x04\n      dup1\n      calldatasize\n      sub\n      dup2\n      add\n      swap1\n      tag_13\n      swap2\n      swap1\n      tag_14\n      jump\t// in\n    tag_13:\n      tag_15\n      jump\t// in\n    tag_12:\n      mload(0x40)\n      tag_16\n      swap2\n      swap1\n      tag_11\n      jump\t// in\n    tag_16:\n      mload(0x40)\n      dup1\n      swap2\n      sub\n      swap1\n      return\n        /* \"@course/meta-node/solidity/mine/solidity_lesson/study_code/1.2/CallOptimization.sol\":742:872  function processOptimized(uint256 x) external pure returns (uint256) {... */\n    tag_5:\n      tag_17\n      0x04\n      dup1\n      calldatasize\n      sub\n      dup2\n      add\n      swap1\n      tag_18\n      swap2\n      swap1\n      tag_14\n      jump\t// in\n    tag_18:\n      tag_19\n      jump\t// in\n    tag_17:\n      mload(0x40)\n      tag_20\n      swap2\n      swap1\n      tag_11\n      jump\t// in\n    tag_20:\n      mload(0x40)\n      dup1\n      swap2\n      sub\n      swap1\n      return\n        /* \"@course/meta-node/solidity/mine/solidity_lesson/study_code/1.2/CallOptimization.sol\":127:255  function calculateExternal(uint256 a, uint256 b) ... */\n    tag_9:\n        /* \"@course/meta-node/solidity/mine/solidity_lesson/study_code/1.2/CallOptimization.sol\":209:216  uint256 */\n      0x00\n        /* \"@course/meta-node/solidity/mine/solidity_lesson/study_code/1.2/CallOptimization.sol\":244:247  100 */\n      0x64\n        /* \"@course/meta-node/solidity/mine/solidity_lesson/study_code/1.2/CallOptimization.sol\":240:241  b */\n      dup3\n        /* \"@course/meta-node/solidity/mine/solidity_lesson/study_code/1.2/CallOptimization.sol\":236:237  a */\n      dup5\n        /* \"@course/meta-node/solidity/mine/solidity_lesson/study_code/1.2/CallOptimization.sol\":236:241  a * b */\n      tag_22\n      swap2\n      swap1\n      tag_23\n      jump\t// in\n    tag_22:\n        /* \"@course/meta-node/solidity/mine/solidity_lesson/study_code/1.2/CallOptimization.sol\":236:247  a * b + 100 */\n      tag_24\n      swap2\n      swap1\n      tag_25\n      jump\t// in\n    tag_24:\n        /* \"@course/meta-node/solidity/mine/solidity_lesson/study_code/1.2/CallOptimization.sol\":229:247  return a * b + 100 */\n      swap1\n      pop\n        /* \"@course/meta-node/solidity/mine/solidity_lesson/study_code/1.2/CallOptimization.sol\":127:255  function calculateExternal(uint256 a, uint256 b) ... */\n      swap3\n      swap2\n      pop\n      pop\n      jump\t// out\n        /* \"@course/meta-node/solidity/mine/solidity_lesson/study_code/1.2/CallOptimization.sol\":496:690  function processUnoptimized(uint256 x) external view returns (uint256) {... */\n    tag_15:\n        /* \"@course/meta-node/solidity/mine/solidity_lesson/study_code/1.2/CallOptimization.sol\":558:565  uint256 */\n      0x00\n        /* \"@course/meta-node/solidity/mine/solidity_lesson/study_code/1.2/CallOptimization.sol\":641:645  this */\n      address\n        /* \"@course/meta-node/solidity/mine/solidity_lesson/study_code/1.2/CallOptimization.sol\":641:663  this.calculateExternal */\n      0xffffffffffffffffffffffffffffffffffffffff\n      and\n      0x14dedb2c\n        /* \"@course/meta-node/solidity/mine/solidity_lesson/study_code/1.2/CallOptimization.sol\":664:665  x */\n      dup4\n        /* \"@course/meta-node/solidity/mine/solidity_lesson/study_code/1.2/CallOptimization.sol\":667:668  2 */\n      0x02\n        /* \"@course/meta-node/solidity/mine/solidity_lesson/study_code/1.2/CallOptimization.sol\":641:669  this.calculateExternal(x, 2) */\n      mload(0x40)\n      dup4\n      0xffffffff\n      and\n      0xe0\n      shl\n      dup2\n      mstore\n      0x04\n      add\n      tag_27\n      swap3\n      swap2\n      swap1\n      tag_28\n      jump\t// in\n    tag_27:\n      0x20\n      mload(0x40)\n      dup1\n      dup4\n      sub\n      dup2\n      dup7\n      gas\n      staticcall\n      iszero\n      dup1\n      iszero\n      tag_30\n      jumpi\n      returndatacopy(0x00, 0x00, returndatasize)\n      revert(0x00, returndatasize)\n    tag_30:\n      pop\n      pop\n      pop\n      pop\n      mload(0x40)\n      returndatasize\n      not(0x1f)\n      0x1f\n      dup3\n      add\n      and\n      dup3\n      add\n      dup1\n      0x40\n      mstore\n      pop\n      dup2\n      add\n      swap1\n      tag_31\n      swap2\n      swap1\n      tag_32\n      jump\t// in\n    tag_31:\n        /* \"@course/meta-node/solidity/mine/solidity_lesson/study_code/1.2/CallOptimization.sol\":634:669  return this.calculateExternal(x, 2) */\n      swap1\n      pop\n        /* \"@course/meta-node/solidity/mine/solidity_lesson/study_code/1.2/CallOptimization.sol\":496:690  function processUnoptimized(uint256 x) external view returns (uint256) {... */\n      swap2\n      swap1\n      pop\n      jump\t// out\n        /* \"@course/meta-node/solidity/mine/solidity_lesson/study_code/1.2/CallOptimization.sol\":742:872  function processOptimized(uint256 x) external pure returns (uint256) {... */\n    tag_19:\n        /* \"@course/meta-node/solidity/mine/solidity_lesson/study_code/1.2/CallOptimization.sol\":802:809  uint256 */\n      0x00\n        /* \"@course/meta-node/solidity/mine/solidity_lesson/study_code/1.2/CallOptimization.sol\":829:852  calculateInternal(x, 2) */\n      tag_34\n        /* \"@course/meta-node/solidity/mine/solidity_lesson/study_code/1.2/CallOptimization.sol\":847:848  x */\n      dup3\n        /* \"@course/meta-node/solidity/mine/solidity_lesson/study_code/1.2/CallOptimization.sol\":850:851  2 */\n      0x02\n        /* \"@course/meta-node/solidity/mine/solidity_lesson/study_code/1.2/CallOptimization.sol\":829:846  calculateInternal */\n      tag_35\n        /* \"@course/meta-node/solidity/mine/solidity_lesson/study_code/1.2/CallOptimization.sol\":829:852  calculateInternal(x, 2) */\n      jump\t// in\n    tag_34:\n        /* \"@course/meta-node/solidity/mine/solidity_lesson/study_code/1.2/CallOptimization.sol\":822:852  return calculateInternal(x, 2) */\n      swap1\n      pop\n        /* \"@course/meta-node/solidity/mine/solidity_lesson/study_code/1.2/CallOptimization.sol\":742:872  function processOptimized(uint256 x) external pure returns (uint256) {... */\n      swap2\n      swap1\n      pop\n      jump\t// out\n        /* \"@course/meta-node/solidity/mine/solidity_lesson/study_code/1.2/CallOptimization.sol\":301:429  function calculateInternal(uint256 a, uint256 b) ... */\n    tag_35:\n        /* \"@course/meta-node/solidity/mine/solidity_lesson/study_code/1.2/CallOptimization.sol\":383:390  uint256 */\n      0x00\n        /* \"@course/meta-node/solidity/mine/solidity_lesson/study_code/1.2/CallOptimization.sol\":418:421  100 */\n      0x64\n        /* \"@course/meta-node/solidity/mine/solidity_lesson/study_code/1.2/CallOptimization.sol\":414:415  b */\n      dup3\n        /* \"@course/meta-node/solidity/mine/solidity_lesson/study_code/1.2/CallOptimization.sol\":410:411  a */\n      dup5\n        /* \"@course/meta-node/solidity/mine/solidity_lesson/study_code/1.2/CallOptimization.sol\":410:415  a * b */\n      tag_37\n      swap2\n      swap1\n      tag_23\n      jump\t// in\n    tag_37:\n        /* \"@course/meta-node/solidity/mine/solidity_lesson/study_code/1.2/CallOptimization.sol\":410:421  a * b + 100 */\n      tag_38\n      swap2\n      swap1\n      tag_25\n      jump\t// in\n    tag_38:\n        /* \"@course/meta-node/solidity/mine/solidity_lesson/study_code/1.2/CallOptimization.sol\":403:421  return a * b + 100 */\n      swap1\n      pop\n        /* \"@course/meta-node/solidity/mine/solidity_lesson/study_code/1.2/CallOptimization.sol\":301:429  function calculateInternal(uint256 a, uint256 b) ... */\n      swap3\n      swap2\n      pop\n      pop\n      jump\t// out\n        /* \"#utility.yul\":88:205   */\n    tag_40:\n        /* \"#utility.yul\":197:198   */\n      0x00\n        /* \"#utility.yul\":194:195   */\n      0x00\n        /* \"#utility.yul\":187:199   */\n      revert\n        /* \"#utility.yul\":334:411   */\n    tag_42:\n        /* \"#utility.yul\":371:378   */\n      0x00\n        /* \"#utility.yul\":400:405   */\n      dup2\n        /* \"#utility.yul\":389:405   */\n      swap1\n      pop\n        /* \"#utility.yul\":334:411   */\n      swap2\n      swap1\n      pop\n      jump\t// out\n        /* \"#utility.yul\":417:539   */\n    tag_43:\n        /* \"#utility.yul\":490:514   */\n      tag_58\n        /* \"#utility.yul\":508:513   */\n      dup2\n        /* \"#utility.yul\":490:514   */\n      tag_42\n      jump\t// in\n    tag_58:\n        /* \"#utility.yul\":483:488   */\n      dup2\n        /* \"#utility.yul\":480:515   */\n      eq\n        /* \"#utility.yul\":470:533   */\n      tag_59\n      jumpi\n        /* \"#utility.yul\":529:530   */\n      0x00\n        /* \"#utility.yul\":526:527   */\n      0x00\n        /* \"#utility.yul\":519:531   */\n      revert\n        /* \"#utility.yul\":470:533   */\n    tag_59:\n        /* \"#utility.yul\":417:539   */\n      pop\n      jump\t// out\n        /* \"#utility.yul\":545:684   */\n    tag_44:\n        /* \"#utility.yul\":591:596   */\n      0x00\n        /* \"#utility.yul\":629:635   */\n      dup2\n        /* \"#utility.yul\":616:636   */\n      calldataload\n        /* \"#utility.yul\":607:636   */\n      swap1\n      pop\n        /* \"#utility.yul\":645:678   */\n      tag_61\n        /* \"#utility.yul\":672:677   */\n      dup2\n        /* \"#utility.yul\":645:678   */\n      tag_43\n      jump\t// in\n    tag_61:\n        /* \"#utility.yul\":545:684   */\n      swap3\n      swap2\n      pop\n      pop\n      jump\t// out\n        /* \"#utility.yul\":690:1164   */\n    tag_8:\n        /* \"#utility.yul\":758:764   */\n      0x00\n        /* \"#utility.yul\":766:772   */\n      0x00\n        /* \"#utility.yul\":815:817   */\n      0x40\n        /* \"#utility.yul\":803:812   */\n      dup4\n        /* \"#utility.yul\":794:801   */\n      dup6\n        /* \"#utility.yul\":790:813   */\n      sub\n        /* \"#utility.yul\":786:818   */\n      slt\n        /* \"#utility.yul\":783:902   */\n      iszero\n      tag_63\n      jumpi\n        /* \"#utility.yul\":821:900   */\n      tag_64\n      tag_40\n      jump\t// in\n    tag_64:\n        /* \"#utility.yul\":783:902   */\n    tag_63:\n        /* \"#utility.yul\":941:942   */\n      0x00\n        /* \"#utility.yul\":966:1019   */\n      tag_65\n        /* \"#utility.yul\":1011:1018   */\n      dup6\n        /* \"#utility.yul\":1002:1008   */\n      dup3\n        /* \"#utility.yul\":991:1000   */\n      dup7\n        /* \"#utility.yul\":987:1009   */\n      add\n        /* \"#utility.yul\":966:1019   */\n      tag_44\n      jump\t// in\n    tag_65:\n        /* \"#utility.yul\":956:1019   */\n      swap3\n      pop\n        /* \"#utility.yul\":912:1029   */\n      pop\n        /* \"#utility.yul\":1068:1070   */\n      0x20\n        /* \"#utility.yul\":1094:1147   */\n      tag_66\n        /* \"#utility.yul\":1139:1146   */\n      dup6\n        /* \"#utility.yul\":1130:1136   */\n      dup3\n        /* \"#utility.yul\":1119:1128   */\n      dup7\n        /* \"#utility.yul\":1115:1137   */\n      add\n        /* \"#utility.yul\":1094:1147   */\n      tag_44\n      jump\t// in\n    tag_66:\n        /* \"#utility.yul\":1084:1147   */\n      swap2\n      pop\n        /* \"#utility.yul\":1039:1157   */\n      pop\n        /* \"#utility.yul\":690:1164   */\n      swap3\n      pop\n      swap3\n      swap1\n      pop\n      jump\t// out\n        /* \"#utility.yul\":1170:1288   */\n    tag_45:\n        /* \"#utility.yul\":1257:1281   */\n      tag_68\n        /* \"#utility.yul\":1275:1280   */\n      dup2\n        /* \"#utility.yul\":1257:1281   */\n      tag_42\n      jump\t// in\n    tag_68:\n        /* \"#utility.yul\":1252:1255   */\n      dup3\n        /* \"#utility.yul\":1245:1282   */\n      mstore\n        /* \"#utility.yul\":1170:1288   */\n      pop\n      pop\n      jump\t// out\n        /* \"#utility.yul\":1294:1516   */\n    tag_11:\n        /* \"#utility.yul\":1387:1391   */\n      0x00\n        /* \"#utility.yul\":1425:1427   */\n      0x20\n        /* \"#utility.yul\":1414:1423   */\n      dup3\n        /* \"#utility.yul\":1410:1428   */\n      add\n        /* \"#utility.yul\":1402:1428   */\n      swap1\n      pop\n        /* \"#utility.yul\":1438:1509   */\n      tag_70\n        /* \"#utility.yul\":1506:1507   */\n      0x00\n        /* \"#utility.yul\":1495:1504   */\n      dup4\n        /* \"#utility.yul\":1491:1508   */\n      add\n        /* \"#utility.yul\":1482:1488   */\n      dup5\n        /* \"#utility.yul\":1438:1509   */\n      tag_45\n      jump\t// in\n    tag_70:\n        /* \"#utility.yul\":1294:1516   */\n      swap3\n      swap2\n      pop\n      pop\n      jump\t// out\n        /* \"#utility.yul\":1522:1851   */\n    tag_14:\n        /* \"#utility.yul\":1581:1587   */\n      0x00\n        /* \"#utility.yul\":1630:1632   */\n      0x20\n        /* \"#utility.yul\":1618:1627   */\n      dup3\n        /* \"#utility.yul\":1609:1616   */\n      dup5\n        /* \"#utility.yul\":1605:1628   */\n      sub\n        /* \"#utility.yul\":1601:1633   */\n      slt\n        /* \"#utility.yul\":1598:1717   */\n      iszero\n      tag_72\n      jumpi\n        /* \"#utility.yul\":1636:1715   */\n      tag_73\n      tag_40\n      jump\t// in\n    tag_73:\n        /* \"#utility.yul\":1598:1717   */\n    tag_72:\n        /* \"#utility.yul\":1756:1757   */\n      0x00\n        /* \"#utility.yul\":1781:1834   */\n      tag_74\n        /* \"#utility.yul\":1826:1833   */\n      dup5\n        /* \"#utility.yul\":1817:1823   */\n      dup3\n        /* \"#utility.yul\":1806:1815   */\n      dup6\n        /* \"#utility.yul\":1802:1824   */\n      add\n        /* \"#utility.yul\":1781:1834   */\n      tag_44\n      jump\t// in\n    tag_74:\n        /* \"#utility.yul\":1771:1834   */\n      swap2\n      pop\n        /* \"#utility.yul\":1727:1844   */\n      pop\n        /* \"#utility.yul\":1522:1851   */\n      swap3\n      swap2\n      pop\n      pop\n      jump\t// out\n        /* \"#utility.yul\":1857:2037   */\n    tag_46:\n        /* \"#utility.yul\":1905:1982   */\n      0x4e487b7100000000000000000000000000000000000000000000000000000000\n        /* \"#utility.yul\":1902:1903   */\n      0x00\n        /* \"#utility.yul\":1895:1983   */\n      mstore\n        /* \"#utility.yul\":2002:2006   */\n      0x11\n        /* \"#utility.yul\":1999:2000   */\n      0x04\n        /* \"#utility.yul\":1992:2007   */\n      mstore\n        /* \"#utility.yul\":2026:2030   */\n      0x24\n        /* \"#utility.yul\":2023:2024   */\n      0x00\n        /* \"#utility.yul\":2016:2031   */\n      revert\n        /* \"#utility.yul\":2043:2453   */\n    tag_23:\n        /* \"#utility.yul\":2083:2090   */\n      0x00\n        /* \"#utility.yul\":2106:2126   */\n      tag_77\n        /* \"#utility.yul\":2124:2125   */\n      dup3\n        /* \"#utility.yul\":2106:2126   */\n      tag_42\n      jump\t// in\n    tag_77:\n        /* \"#utility.yul\":2101:2126   */\n      swap2\n      pop\n        /* \"#utility.yul\":2140:2160   */\n      tag_78\n        /* \"#utility.yul\":2158:2159   */\n      dup4\n        /* \"#utility.yul\":2140:2160   */\n      tag_42\n      jump\t// in\n    tag_78:\n        /* \"#utility.yul\":2135:2160   */\n      swap3\n      pop\n        /* \"#utility.yul\":2195:2196   */\n      dup3\n        /* \"#utility.yul\":2192:2193   */\n      dup3\n        /* \"#utility.yul\":2188:2197   */\n      mul\n        /* \"#utility.yul\":2217:2247   */\n      tag_79\n        /* \"#utility.yul\":2235:2246   */\n      dup2\n        /* \"#utility.yul\":2217:2247   */\n      tag_42\n      jump\t// in\n    tag_79:\n        /* \"#utility.yul\":2206:2247   */\n      swap2\n      pop\n        /* \"#utility.yul\":2396:2397   */\n      dup3\n        /* \"#utility.yul\":2387:2394   */\n      dup3\n        /* \"#utility.yul\":2383:2398   */\n      div\n        /* \"#utility.yul\":2380:2381   */\n      dup5\n        /* \"#utility.yul\":2377:2399   */\n      eq\n        /* \"#utility.yul\":2357:2358   */\n      dup4\n        /* \"#utility.yul\":2350:2359   */\n      iszero\n        /* \"#utility.yul\":2330:2413   */\n      or\n        /* \"#utility.yul\":2307:2446   */\n      tag_80\n      jumpi\n        /* \"#utility.yul\":2426:2444   */\n      tag_81\n      tag_46\n      jump\t// in\n    tag_81:\n        /* \"#utility.yul\":2307:2446   */\n    tag_80:\n        /* \"#utility.yul\":2091:2453   */\n      pop\n        /* \"#utility.yul\":2043:2453   */\n      swap3\n      swap2\n      pop\n      pop\n      jump\t// out\n        /* \"#utility.yul\":2459:2650   */\n    tag_25:\n        /* \"#utility.yul\":2499:2502   */\n      0x00\n        /* \"#utility.yul\":2518:2538   */\n      tag_83\n        /* \"#utility.yul\":2536:2537   */\n      dup3\n        /* \"#utility.yul\":2518:2538   */\n      tag_42\n      jump\t// in\n    tag_83:\n        /* \"#utility.yul\":2513:2538   */\n      swap2\n      pop\n        /* \"#utility.yul\":2552:2572   */\n      tag_84\n        /* \"#utility.yul\":2570:2571   */\n      dup4\n        /* \"#utility.yul\":2552:2572   */\n      tag_42\n      jump\t// in\n    tag_84:\n        /* \"#utility.yul\":2547:2572   */\n      swap3\n      pop\n        /* \"#utility.yul\":2595:2596   */\n      dup3\n        /* \"#utility.yul\":2592:2593   */\n      dup3\n        /* \"#utility.yul\":2588:2597   */\n      add\n        /* \"#utility.yul\":2581:2597   */\n      swap1\n      pop\n        /* \"#utility.yul\":2616:2619   */\n      dup1\n        /* \"#utility.yul\":2613:2614   */\n      dup3\n        /* \"#utility.yul\":2610:2620   */\n      gt\n        /* \"#utility.yul\":2607:2643   */\n      iszero\n      tag_85\n      jumpi\n        /* \"#utility.yul\":2623:2641   */\n      tag_86\n      tag_46\n      jump\t// in\n    tag_86:\n        /* \"#utility.yul\":2607:2643   */\n    tag_85:\n        /* \"#utility.yul\":2459:2650   */\n      swap3\n      swap2\n      pop\n      pop\n      jump\t// out\n        /* \"#utility.yul\":2656:2741   */\n    tag_47:\n        /* \"#utility.yul\":2701:2708   */\n      0x00\n        /* \"#utility.yul\":2730:2735   */\n      dup2\n        /* \"#utility.yul\":2719:2735   */\n      swap1\n      pop\n        /* \"#utility.yul\":2656:2741   */\n      swap2\n      swap1\n      pop\n      jump\t// out\n        /* \"#utility.yul\":2747:2807   */\n    tag_48:\n        /* \"#utility.yul\":2775:2778   */\n      0x00\n        /* \"#utility.yul\":2796:2801   */\n      dup2\n        /* \"#utility.yul\":2789:2801   */\n      swap1\n      pop\n        /* \"#utility.yul\":2747:2807   */\n      swap2\n      swap1\n      pop\n      jump\t// out\n        /* \"#utility.yul\":2813:2971   */\n    tag_49:\n        /* \"#utility.yul\":2871:2880   */\n      0x00\n        /* \"#utility.yul\":2904:2965   */\n      tag_90\n        /* \"#utility.yul\":2922:2964   */\n      tag_91\n        /* \"#utility.yul\":2931:2963   */\n      tag_92\n        /* \"#utility.yul\":2957:2962   */\n      dup5\n        /* \"#utility.yul\":2931:2963   */\n      tag_47\n      jump\t// in\n    tag_92:\n        /* \"#utility.yul\":2922:2964   */\n      tag_48\n      jump\t// in\n    tag_91:\n        /* \"#utility.yul\":2904:2965   */\n      tag_42\n      jump\t// in\n    tag_90:\n        /* \"#utility.yul\":2891:2965   */\n      swap1\n      pop\n        /* \"#utility.yul\":2813:2971   */\n      swap2\n      swap1\n      pop\n      jump\t// out\n        /* \"#utility.yul\":2977:3124   */\n    tag_50:\n        /* \"#utility.yul\":3072:3117   */\n      tag_94\n        /* \"#utility.yul\":3111:3116   */\n      dup2\n        /* \"#utility.yul\":3072:3117   */\n      tag_49\n      jump\t// in\n    tag_94:\n        /* \"#utility.yul\":3067:3070   */\n      dup3\n        /* \"#utility.yul\":3060:3118   */\n      mstore\n        /* \"#utility.yul\":2977:3124   */\n      pop\n      pop\n      jump\t// out\n        /* \"#utility.yul\":3130:3478   */\n    tag_28:\n        /* \"#utility.yul\":3259:3263   */\n      0x00\n        /* \"#utility.yul\":3297:3299   */\n      0x40\n        /* \"#utility.yul\":3286:3295   */\n      dup3\n        /* \"#utility.yul\":3282:3300   */\n      add\n        /* \"#utility.yul\":3274:3300   */\n      swap1\n      pop\n        /* \"#utility.yul\":3310:3381   */\n      tag_96\n        /* \"#utility.yul\":3378:3379   */\n      0x00\n        /* \"#utility.yul\":3367:3376   */\n      dup4\n        /* \"#utility.yul\":3363:3380   */\n      add\n        /* \"#utility.yul\":3354:3360   */\n      dup6\n        /* \"#utility.yul\":3310:3381   */\n      tag_45\n      jump\t// in\n    tag_96:\n        /* \"#utility.yul\":3391:3471   */\n      tag_97\n        /* \"#utility.yul\":3467:3469   */\n      0x20\n        /* \"#utility.yul\":3456:3465   */\n      dup4\n        /* \"#utility.yul\":3452:3470   */\n      add\n        /* \"#utility.yul\":3443:3449   */\n      dup5\n        /* \"#utility.yul\":3391:3471   */\n      tag_50\n      jump\t// in\n    tag_97:\n        /* \"#utility.yul\":3130:3478   */\n      swap4\n      swap3\n      pop\n      pop\n      pop\n      jump\t// out\n        /* \"#utility.yul\":3484:3627   */\n    tag_51:\n        /* \"#utility.yul\":3541:3546   */\n      0x00\n        /* \"#utility.yul\":3572:3578   */\n      dup2\n        /* \"#utility.yul\":3566:3579   */\n      mload\n        /* \"#utility.yul\":3557:3579   */\n      swap1\n      pop\n        /* \"#utility.yul\":3588:3621   */\n      tag_99\n        /* \"#utility.yul\":3615:3620   */\n      dup2\n        /* \"#utility.yul\":3588:3621   */\n      tag_43\n      jump\t// in\n    tag_99:\n        /* \"#utility.yul\":3484:3627   */\n      swap3\n      swap2\n      pop\n      pop\n      jump\t// out\n        /* \"#utility.yul\":3633:3984   */\n    tag_32:\n        /* \"#utility.yul\":3703:3709   */\n      0x00\n        /* \"#utility.yul\":3752:3754   */\n      0x20\n        /* \"#utility.yul\":3740:3749   */\n      dup3\n        /* \"#utility.yul\":3731:3738   */\n      dup5\n        /* \"#utility.yul\":3727:3750   */\n      sub\n        /* \"#utility.yul\":3723:3755   */\n      slt\n        /* \"#utility.yul\":3720:3839   */\n      iszero\n      tag_101\n      jumpi\n        /* \"#utility.yul\":3758:3837   */\n      tag_102\n      tag_40\n      jump\t// in\n    tag_102:\n        /* \"#utility.yul\":3720:3839   */\n    tag_101:\n        /* \"#utility.yul\":3878:3879   */\n      0x00\n        /* \"#utility.yul\":3903:3967   */\n      tag_103\n        /* \"#utility.yul\":3959:3966   */\n      dup5\n        /* \"#utility.yul\":3950:3956   */\n      dup3\n        /* \"#utility.yul\":3939:3948   */\n      dup6\n        /* \"#utility.yul\":3935:3957   */\n      add\n        /* \"#utility.yul\":3903:3967   */\n      tag_51\n      jump\t// in\n    tag_103:\n        /* \"#utility.yul\":3893:3967   */\n      swap2\n      pop\n        /* \"#utility.yul\":3849:3977   */\n      pop\n        /* \"#utility.yul\":3633:3984   */\n      swap3\n      swap2\n      pop\n      pop\n      jump\t// out\n\n    auxdata: 0xa2646970667358221220984a76213b65d468992b9f9b43dc71b3204d8a61a8d35fbd3c833940b4128d6864736f6c634300081e0033\n}\n",
				"bytecode": {
					"linkReferences": {},
					"object": "6080604052348015600e575f5ffd5b506103f28061001c5f395ff3fe608060405234801561000f575f5ffd5b506004361061003f575f3560e01c806314dedb2c14610043578063450b5db91461007357806357f4f553146100a3575b5f5ffd5b61005d600480360381019061005891906101e2565b6100d3565b60405161006a919061022f565b60405180910390f35b61008d60048036038101906100889190610248565b6100f4565b60405161009a919061022f565b60405180910390f35b6100bd60048036038101906100b89190610248565b610177565b6040516100ca919061022f565b60405180910390f35b5f606482846100e291906102a0565b6100ec91906102e1565b905092915050565b5f3073ffffffffffffffffffffffffffffffffffffffff166314dedb2c8360026040518363ffffffff1660e01b8152600401610131929190610356565b602060405180830381865afa15801561014c573d5f5f3e3d5ffd5b505050506040513d601f19601f820116820180604052508101906101709190610391565b9050919050565b5f61018382600261018a565b9050919050565b5f6064828461019991906102a0565b6101a391906102e1565b905092915050565b5f5ffd5b5f819050919050565b6101c1816101af565b81146101cb575f5ffd5b50565b5f813590506101dc816101b8565b92915050565b5f5f604083850312156101f8576101f76101ab565b5b5f610205858286016101ce565b9250506020610216858286016101ce565b9150509250929050565b610229816101af565b82525050565b5f6020820190506102425f830184610220565b92915050565b5f6020828403121561025d5761025c6101ab565b5b5f61026a848285016101ce565b91505092915050565b7f4e487b71000000000000000000000000000000000000000000000000000000005f52601160045260245ffd5b5f6102aa826101af565b91506102b5836101af565b92508282026102c3816101af565b915082820484148315176102da576102d9610273565b5b5092915050565b5f6102eb826101af565b91506102f6836101af565b925082820190508082111561030e5761030d610273565b5b92915050565b5f819050919050565b5f819050919050565b5f61034061033b61033684610314565b61031d565b6101af565b9050919050565b61035081610326565b82525050565b5f6040820190506103695f830185610220565b6103766020830184610347565b9392505050565b5f8151905061038b816101b8565b92915050565b5f602082840312156103a6576103a56101ab565b5b5f6103b38482850161037d565b9150509291505056fea2646970667358221220984a76213b65d468992b9f9b43dc71b3204d8a61a8d35fbd3c833940b4128d6864736f6c634300081e0033",
					"opcodes": "PUSH1 0x80 PUSH1 0x40 MSTORE CALLVALUE DUP1 ISZERO PUSH1 0xE JUMPI PUSH0 PUSH0 REVERT JUMPDEST POP PUSH2 0x3F2 DUP1 PUSH2 0x1C PUSH0 CODECOPY PUSH0 RETURN INVALID PUSH1 0x80 PUSH1 0x40 MSTORE CALLVALUE DUP1 ISZERO PUSH2 0xF JUMPI PUSH0 PUSH0 REVERT JUMPDEST POP PUSH1 0x4 CALLDATASIZE LT PUSH2 0x3F JUMPI PUSH0 CALLDATALOAD PUSH1 0xE0 SHR DUP1 PUSH4 0x14DEDB2C EQ PUSH2 0x43 JUMPI DUP1 PUSH4 0x450B5DB9 EQ PUSH2 0x73 JUMPI DUP1 PUSH4 0x57F4F553 EQ PUSH2 0xA3 JUMPI JUMPDEST PUSH0 PUSH0 REVERT JUMPDEST PUSH2 0x5D PUSH1 0x4 DUP1 CALLDATASIZE SUB DUP2 ADD SWAP1 PUSH2 0x58 SWAP2 SWAP1 PUSH2 0x1E2 JUMP JUMPDEST PUSH2 0xD3 JUMP JUMPDEST PUSH1 0x40 MLOAD PUSH2 0x6A SWAP2 SWAP1 PUSH2 0x22F JUMP JUMPDEST PUSH1 0x40 MLOAD DUP1 SWAP2 SUB SWAP1 RETURN JUMPDEST PUSH2 0x8D PUSH1 0x4 DUP1 CALLDATASIZE SUB DUP2 ADD SWAP1 PUSH2 0x88 SWAP2 SWAP1 PUSH2 0x248 JUMP JUMPDEST PUSH2 0xF4 JUMP JUMPDEST PUSH1 0x40 MLOAD PUSH2 0x9A SWAP2 SWAP1 PUSH2 0x22F JUMP JUMPDEST PUSH1 0x40 MLOAD DUP1 SWAP2 SUB SWAP1 RETURN JUMPDEST PUSH2 0xBD PUSH1 0x4 DUP1 CALLDATASIZE SUB DUP2 ADD SWAP1 PUSH2 0xB8 SWAP2 SWAP1 PUSH2 0x248 JUMP JUMPDEST PUSH2 0x177 JUMP JUMPDEST PUSH1 0x40 MLOAD PUSH2 0xCA SWAP2 SWAP1 PUSH2 0x22F JUMP JUMPDEST PUSH1 0x40 MLOAD DUP1 SWAP2 SUB SWAP1 RETURN JUMPDEST PUSH0 PUSH1 0x64 DUP3 DUP5 PUSH2 0xE2 SWAP2 SWAP1 PUSH2 0x2A0 JUMP JUMPDEST PUSH2 0xEC SWAP2 SWAP1 PUSH2 0x2E1 JUMP JUMPDEST SWAP1 POP SWAP3 SWAP2 POP POP JUMP JUMPDEST PUSH0 ADDRESS PUSH20 0xFFFFFFFFFFFFFFFFFFFFFFFFFFFFFFFFFFFFFFFF AND PUSH4 0x14DEDB2C DUP4 PUSH1 0x2 PUSH1 0x40 MLOAD DUP4 PUSH4 0xFFFFFFFF AND PUSH1 0xE0 SHL DUP2 MSTORE PUSH1 0x4 ADD PUSH2 0x131 SWAP3 SWAP2 SWAP1 PUSH2 0x356 JUMP JUMPDEST PUSH1 0x20 PUSH1 0x40 MLOAD DUP1 DUP4 SUB DUP2 DUP7 GAS STATICCALL ISZERO DUP1 ISZERO PUSH2 0x14C JUMPI RETURNDATASIZE PUSH0 PUSH0 RETURNDATACOPY RETURNDATASIZE PUSH0 REVERT JUMPDEST POP POP POP POP PUSH1 0x40 MLOAD RETURNDATASIZE PUSH1 0x1F NOT PUSH1 0x1F DUP3 ADD AND DUP3 ADD DUP1 PUSH1 0x40 MSTORE POP DUP2 ADD SWAP1 PUSH2 0x170 SWAP2 SWAP1 PUSH2 0x391 JUMP JUMPDEST SWAP1 POP SWAP2 SWAP1 POP JUMP JUMPDEST PUSH0 PUSH2 0x183 DUP3 PUSH1 0x2 PUSH2 0x18A JUMP JUMPDEST SWAP1 POP SWAP2 SWAP1 POP JUMP JUMPDEST PUSH0 PUSH1 0x64 DUP3 DUP5 PUSH2 0x199 SWAP2 SWAP1 PUSH2 0x2A0 JUMP JUMPDEST PUSH2 0x1A3 SWAP2 SWAP1 PUSH2 0x2E1 JUMP JUMPDEST SWAP1 POP SWAP3 SWAP2 POP POP JUMP JUMPDEST PUSH0 PUSH0 REVERT JUMPDEST PUSH0 DUP2 SWAP1 POP SWAP2 SWAP1 POP JUMP JUMPDEST PUSH2 0x1C1 DUP2 PUSH2 0x1AF JUMP JUMPDEST DUP2 EQ PUSH2 0x1CB JUMPI PUSH0 PUSH0 REVERT JUMPDEST POP JUMP JUMPDEST PUSH0 DUP2 CALLDATALOAD SWAP1 POP PUSH2 0x1DC DUP2 PUSH2 0x1B8 JUMP JUMPDEST SWAP3 SWAP2 POP POP JUMP JUMPDEST PUSH0 PUSH0 PUSH1 0x40 DUP4 DUP6 SUB SLT ISZERO PUSH2 0x1F8 JUMPI PUSH2 0x1F7 PUSH2 0x1AB JUMP JUMPDEST JUMPDEST PUSH0 PUSH2 0x205 DUP6 DUP3 DUP7 ADD PUSH2 0x1CE JUMP JUMPDEST SWAP3 POP POP PUSH1 0x20 PUSH2 0x216 DUP6 DUP3 DUP7 ADD PUSH2 0x1CE JUMP JUMPDEST SWAP2 POP POP SWAP3 POP SWAP3 SWAP1 POP JUMP JUMPDEST PUSH2 0x229 DUP2 PUSH2 0x1AF JUMP JUMPDEST DUP3 MSTORE POP POP JUMP JUMPDEST PUSH0 PUSH1 0x20 DUP3 ADD SWAP1 POP PUSH2 0x242 PUSH0 DUP4 ADD DUP5 PUSH2 0x220 JUMP JUMPDEST SWAP3 SWAP2 POP POP JUMP JUMPDEST PUSH0 PUSH1 0x20 DUP3 DUP5 SUB SLT ISZERO PUSH2 0x25D JUMPI PUSH2 0x25C PUSH2 0x1AB JUMP JUMPDEST JUMPDEST PUSH0 PUSH2 0x26A DUP5 DUP3 DUP6 ADD PUSH2 0x1CE JUMP JUMPDEST SWAP2 POP POP SWAP3 SWAP2 POP POP JUMP JUMPDEST PUSH32 0x4E487B7100000000000000000000000000000000000000000000000000000000 PUSH0 MSTORE PUSH1 0x11 PUSH1 0x4 MSTORE PUSH1 0x24 PUSH0 REVERT JUMPDEST PUSH0 PUSH2 0x2AA DUP3 PUSH2 0x1AF JUMP JUMPDEST SWAP2 POP PUSH2 0x2B5 DUP4 PUSH2 0x1AF JUMP JUMPDEST SWAP3 POP DUP3 DUP3 MUL PUSH2 0x2C3 DUP2 PUSH2 0x1AF JUMP JUMPDEST SWAP2 POP DUP3 DUP3 DIV DUP5 EQ DUP4 ISZERO OR PUSH2 0x2DA JUMPI PUSH2 0x2D9 PUSH2 0x273 JUMP JUMPDEST JUMPDEST POP SWAP3 SWAP2 POP POP JUMP JUMPDEST PUSH0 PUSH2 0x2EB DUP3 PUSH2 0x1AF JUMP JUMPDEST SWAP2 POP PUSH2 0x2F6 DUP4 PUSH2 0x1AF JUMP JUMPDEST SWAP3 POP DUP3 DUP3 ADD SWAP1 POP DUP1 DUP3 GT ISZERO PUSH2 0x30E JUMPI PUSH2 0x30D PUSH2 0x273 JUMP JUMPDEST JUMPDEST SWAP3 SWAP2 POP POP JUMP JUMPDEST PUSH0 DUP2 SWAP1 POP SWAP2 SWAP1 POP JUMP JUMPDEST PUSH0 DUP2 SWAP1 POP SWAP2 SWAP1 POP JUMP JUMPDEST PUSH0 PUSH2 0x340 PUSH2 0x33B PUSH2 0x336 DUP5 PUSH2 0x314 JUMP JUMPDEST PUSH2 0x31D JUMP JUMPDEST PUSH2 0x1AF JUMP JUMPDEST SWAP1 POP SWAP2 SWAP1 POP JUMP JUMPDEST PUSH2 0x350 DUP2 PUSH2 0x326 JUMP JUMPDEST DUP3 MSTORE POP POP JUMP JUMPDEST PUSH0 PUSH1 0x40 DUP3 ADD SWAP1 POP PUSH2 0x369 PUSH0 DUP4 ADD DUP6 PUSH2 0x220 JUMP JUMPDEST PUSH2 0x376 PUSH1 0x20 DUP4 ADD DUP5 PUSH2 0x347 JUMP JUMPDEST SWAP4 SWAP3 POP POP POP JUMP JUMPDEST PUSH0 DUP2 MLOAD SWAP1 POP PUSH2 0x38B DUP2 PUSH2 0x1B8 JUMP JUMPDEST SWAP3 SWAP2 POP POP JUMP JUMPDEST PUSH0 PUSH1 0x20 DUP3 DUP5 SUB SLT ISZERO PUSH2 0x3A6 JUMPI PUSH2 0x3A5 PUSH2 0x1AB JUMP JUMPDEST JUMPDEST PUSH0 PUSH2 0x3B3 DUP5 DUP3 DUP6 ADD PUSH2 0x37D JUMP JUMPDEST SWAP2 POP POP SWAP3 SWAP2 POP POP JUMP INVALID LOG2 PUSH5 0x6970667358 0x22 SLT KECCAK256 SWAP9 BLOBBASEFEE PUSH23 0x213B65D468992B9F9B43DC71B3204D8A61A8D35FBD3C83 CODECOPY BLOCKHASH 0xB4 SLT DUP14 PUSH9 0x64736F6C634300081E STOP CALLER "
				},
				"gasEstimates": {
					"creation": {
						"codeDepositCost": "202000",
						"executionCost": "243",
						"totalCost": "202243"
					},
					"external": {
						"calculateExternal(uint256,uint256)": "infinite",
						"processOptimized(uint256)": "infinite",
						"processUnoptimized(uint256)": "infinite"
					},
					"internal": {
						"calculateInternal(uint256,uint256)": "infinite"
					}
				},
				"methodIdentifiers": {
					"calculateExternal(uint256,uint256)": "14dedb2c",
					"processOptimized(uint256)": "57f4f553",
					"processUnoptimized(uint256)": "450b5db9"
				}
			},
			"storageLayout": {
				"storage": [],
				"types": null
			},
			"userdoc": {
				"kind": "user",
				"methods": {},
				"version": 1
			}
		}
	}
}