{
	"@course/meta-node/solidity/mine/solidity_lesson/study_code/2.1数据类型基础/IntegerOperations.sol": {
		"IntegerOperations": {
			"abi": [
				{
					"inputs": [],
					"name": "arithmeticOperations",
					"outputs": [
						{
							"internalType": "uint256",
							"name": "",
							"type": "uint256"
						},
						{
							"internalType": "uint256",
							"name": "",
							"type": "uint256"
						},
						{
							"internalType": "uint256",
							"name": "",
							"type": "uint256"
						},
						{
							"internalType": "uint256",
							"name": "",
							"type": "uint256"
						},
						{
							"internalType": "uint256",
							"name": "",
							"type": "uint256"
						},
						{
							"internalType": "uint256",
							"name": "",
							"type": "uint256"
						}
					],
					"stateMutability": "pure",
					"type": "function"
				},
				{
					"inputs": [],
					"name": "divideWithPrecision",
					"outputs": [
						{
							"internalType": "uint256",
							"name": "",
							"type": "uint256"
						}
					],
					"stateMutability": "pure",
					"type": "function"
				},
				{
					"inputs": [],
					"name": "division",
					"outputs": [
						{
							"internalType": "uint256",
							"name": "",
							"type": "uint256"
						}
					],
					"stateMutability": "pure",
					"type": "function"
				}
			],
			"devdoc": {
				"kind": "dev",
				"methods": {},
				"version": 1
			},
			"evm": {
				"assembly": "    /* \"@course/meta-node/solidity/mine/solidity_lesson/study_code/2.1\\xe6\\x95\\xb0\\xe6\\x8d\\xae\\xe7\\xb1\\xbb\\xe5\\x9e\\x8b\\xe5\\x9f\\xba\\xe7\\xa1\\x80/IntegerOperations.sol\":57:879  contract IntegerOperations {... */\n  mstore(0x40, 0x80)\n  callvalue\n  dup1\n  iszero\n  tag_1\n  jumpi\n  revert(0x00, 0x00)\ntag_1:\n  pop\n  dataSize(sub_0)\n  dup1\n  dataOffset(sub_0)\n  0x00\n  codecopy\n  0x00\n  return\nstop\n\nsub_0: assembly {\n        /* \"@course/meta-node/solidity/mine/solidity_lesson/study_code/2.1\\xe6\\x95\\xb0\\xe6\\x8d\\xae\\xe7\\xb1\\xbb\\xe5\\x9e\\x8b\\xe5\\x9f\\xba\\xe7\\xa1\\x80/IntegerOperations.sol\":57:879  contract IntegerOperations {... */\n      mstore(0x40, 0x80)\n      callvalue\n      dup1\n      iszero\n      tag_1\n      jumpi\n      revert(0x00, 0x00)\n    tag_1:\n      pop\n      jumpi(tag_2, lt(calldatasize, 0x04))\n      shr(0xe0, calldataload(0x00))\n      dup1\n      0x3129daba\n      eq\n      tag_3\n      jumpi\n      dup1\n      0x3205f5fc\n      eq\n      tag_4\n      jumpi\n      dup1\n      0x91515d8f\n      eq\n      tag_5\n      jumpi\n    tag_2:\n      revert(0x00, 0x00)\n        /* \"@course/meta-node/solidity/mine/solidity_lesson/study_code/2.1\\xe6\\x95\\xb0\\xe6\\x8d\\xae\\xe7\\xb1\\xbb\\xe5\\x9e\\x8b\\xe5\\x9f\\xba\\xe7\\xa1\\x80/IntegerOperations.sol\":90:544  function arithmeticOperations()... */\n    tag_3:\n      tag_6\n      tag_7\n      jump\t// in\n    tag_6:\n      mload(0x40)\n      tag_8\n      swap7\n      swap6\n      swap5\n      swap4\n      swap3\n      swap2\n      swap1\n      tag_9\n      jump\t// in\n    tag_8:\n      mload(0x40)\n      dup1\n      swap2\n      sub\n      swap1\n      return\n        /* \"@course/meta-node/solidity/mine/solidity_lesson/study_code/2.1\\xe6\\x95\\xb0\\xe6\\x8d\\xae\\xe7\\xb1\\xbb\\xe5\\x9e\\x8b\\xe5\\x9f\\xba\\xe7\\xa1\\x80/IntegerOperations.sol\":550:675  function division() public pure returns (uint) {... */\n    tag_4:\n      tag_10\n      tag_11\n      jump\t// in\n    tag_10:\n      mload(0x40)\n      tag_12\n      swap2\n      swap1\n      tag_13\n      jump\t// in\n    tag_12:\n      mload(0x40)\n      dup1\n      swap2\n      sub\n      swap1\n      return\n        /* \"@course/meta-node/solidity/mine/solidity_lesson/study_code/2.1\\xe6\\x95\\xb0\\xe6\\x8d\\xae\\xe7\\xb1\\xbb\\xe5\\x9e\\x8b\\xe5\\x9f\\xba\\xe7\\xa1\\x80/IntegerOperations.sol\":681:877  function divideWithPrecision() public pure returns (uint) {... */\n    tag_5:\n      tag_14\n      tag_15\n      jump\t// in\n    tag_14:\n      mload(0x40)\n      tag_16\n      swap2\n      swap1\n      tag_13\n      jump\t// in\n    tag_16:\n      mload(0x40)\n      dup1\n      swap2\n      sub\n      swap1\n      return\n        /* \"@course/meta-node/solidity/mine/solidity_lesson/study_code/2.1\\xe6\\x95\\xb0\\xe6\\x8d\\xae\\xe7\\xb1\\xbb\\xe5\\x9e\\x8b\\xe5\\x9f\\xba\\xe7\\xa1\\x80/IntegerOperations.sol\":90:544  function arithmeticOperations()... */\n    tag_7:\n        /* \"@course/meta-node/solidity/mine/solidity_lesson/study_code/2.1\\xe6\\x95\\xb0\\xe6\\x8d\\xae\\xe7\\xb1\\xbb\\xe5\\x9e\\x8b\\xe5\\x9f\\xba\\xe7\\xa1\\x80/IntegerOperations.sol\":167:171  uint */\n      0x00\n        /* \"@course/meta-node/solidity/mine/solidity_lesson/study_code/2.1\\xe6\\x95\\xb0\\xe6\\x8d\\xae\\xe7\\xb1\\xbb\\xe5\\x9e\\x8b\\xe5\\x9f\\xba\\xe7\\xa1\\x80/IntegerOperations.sol\":173:177  uint */\n      0x00\n        /* \"@course/meta-node/solidity/mine/solidity_lesson/study_code/2.1\\xe6\\x95\\xb0\\xe6\\x8d\\xae\\xe7\\xb1\\xbb\\xe5\\x9e\\x8b\\xe5\\x9f\\xba\\xe7\\xa1\\x80/IntegerOperations.sol\":179:183  uint */\n      0x00\n        /* \"@course/meta-node/solidity/mine/solidity_lesson/study_code/2.1\\xe6\\x95\\xb0\\xe6\\x8d\\xae\\xe7\\xb1\\xbb\\xe5\\x9e\\x8b\\xe5\\x9f\\xba\\xe7\\xa1\\x80/IntegerOperations.sol\":185:189  uint */\n      0x00\n        /* \"@course/meta-node/solidity/mine/solidity_lesson/study_code/2.1\\xe6\\x95\\xb0\\xe6\\x8d\\xae\\xe7\\xb1\\xbb\\xe5\\x9e\\x8b\\xe5\\x9f\\xba\\xe7\\xa1\\x80/IntegerOperations.sol\":191:195  uint */\n      0x00\n        /* \"@course/meta-node/solidity/mine/solidity_lesson/study_code/2.1\\xe6\\x95\\xb0\\xe6\\x8d\\xae\\xe7\\xb1\\xbb\\xe5\\x9e\\x8b\\xe5\\x9f\\xba\\xe7\\xa1\\x80/IntegerOperations.sol\":197:201  uint */\n      0x00\n        /* \"@course/meta-node/solidity/mine/solidity_lesson/study_code/2.1\\xe6\\x95\\xb0\\xe6\\x8d\\xae\\xe7\\xb1\\xbb\\xe5\\x9e\\x8b\\xe5\\x9f\\xba\\xe7\\xa1\\x80/IntegerOperations.sol\":217:223  uint a */\n      0x00\n        /* \"@course/meta-node/solidity/mine/solidity_lesson/study_code/2.1\\xe6\\x95\\xb0\\xe6\\x8d\\xae\\xe7\\xb1\\xbb\\xe5\\x9e\\x8b\\xe5\\x9f\\xba\\xe7\\xa1\\x80/IntegerOperations.sol\":226:228  10 */\n      0x0a\n        /* \"@course/meta-node/solidity/mine/solidity_lesson/study_code/2.1\\xe6\\x95\\xb0\\xe6\\x8d\\xae\\xe7\\xb1\\xbb\\xe5\\x9e\\x8b\\xe5\\x9f\\xba\\xe7\\xa1\\x80/IntegerOperations.sol\":217:228  uint a = 10 */\n      swap1\n      pop\n        /* \"@course/meta-node/solidity/mine/solidity_lesson/study_code/2.1\\xe6\\x95\\xb0\\xe6\\x8d\\xae\\xe7\\xb1\\xbb\\xe5\\x9e\\x8b\\xe5\\x9f\\xba\\xe7\\xa1\\x80/IntegerOperations.sol\":238:244  uint b */\n      0x00\n        /* \"@course/meta-node/solidity/mine/solidity_lesson/study_code/2.1\\xe6\\x95\\xb0\\xe6\\x8d\\xae\\xe7\\xb1\\xbb\\xe5\\x9e\\x8b\\xe5\\x9f\\xba\\xe7\\xa1\\x80/IntegerOperations.sol\":247:248  3 */\n      0x03\n        /* \"@course/meta-node/solidity/mine/solidity_lesson/study_code/2.1\\xe6\\x95\\xb0\\xe6\\x8d\\xae\\xe7\\xb1\\xbb\\xe5\\x9e\\x8b\\xe5\\x9f\\xba\\xe7\\xa1\\x80/IntegerOperations.sol\":238:248  uint b = 3 */\n      swap1\n      pop\n        /* \"@course/meta-node/solidity/mine/solidity_lesson/study_code/2.1\\xe6\\x95\\xb0\\xe6\\x8d\\xae\\xe7\\xb1\\xbb\\xe5\\x9e\\x8b\\xe5\\x9f\\xba\\xe7\\xa1\\x80/IntegerOperations.sol\":284:285  b */\n      dup1\n        /* \"@course/meta-node/solidity/mine/solidity_lesson/study_code/2.1\\xe6\\x95\\xb0\\xe6\\x8d\\xae\\xe7\\xb1\\xbb\\xe5\\x9e\\x8b\\xe5\\x9f\\xba\\xe7\\xa1\\x80/IntegerOperations.sol\":280:281  a */\n      dup3\n        /* \"@course/meta-node/solidity/mine/solidity_lesson/study_code/2.1\\xe6\\x95\\xb0\\xe6\\x8d\\xae\\xe7\\xb1\\xbb\\xe5\\x9e\\x8b\\xe5\\x9f\\xba\\xe7\\xa1\\x80/IntegerOperations.sol\":280:285  a + b */\n      tag_18\n      swap2\n      swap1\n      tag_19\n      jump\t// in\n    tag_18:\n        /* \"@course/meta-node/solidity/mine/solidity_lesson/study_code/2.1\\xe6\\x95\\xb0\\xe6\\x8d\\xae\\xe7\\xb1\\xbb\\xe5\\x9e\\x8b\\xe5\\x9f\\xba\\xe7\\xa1\\x80/IntegerOperations.sol\":318:319  b */\n      dup2\n        /* \"@course/meta-node/solidity/mine/solidity_lesson/study_code/2.1\\xe6\\x95\\xb0\\xe6\\x8d\\xae\\xe7\\xb1\\xbb\\xe5\\x9e\\x8b\\xe5\\x9f\\xba\\xe7\\xa1\\x80/IntegerOperations.sol\":314:315  a */\n      dup4\n        /* \"@course/meta-node/solidity/mine/solidity_lesson/study_code/2.1\\xe6\\x95\\xb0\\xe6\\x8d\\xae\\xe7\\xb1\\xbb\\xe5\\x9e\\x8b\\xe5\\x9f\\xba\\xe7\\xa1\\x80/IntegerOperations.sol\":314:319  a - b */\n      tag_20\n      swap2\n      swap1\n      tag_21\n      jump\t// in\n    tag_20:\n        /* \"@course/meta-node/solidity/mine/solidity_lesson/study_code/2.1\\xe6\\x95\\xb0\\xe6\\x8d\\xae\\xe7\\xb1\\xbb\\xe5\\x9e\\x8b\\xe5\\x9f\\xba\\xe7\\xa1\\x80/IntegerOperations.sol\":351:352  b */\n      dup3\n        /* \"@course/meta-node/solidity/mine/solidity_lesson/study_code/2.1\\xe6\\x95\\xb0\\xe6\\x8d\\xae\\xe7\\xb1\\xbb\\xe5\\x9e\\x8b\\xe5\\x9f\\xba\\xe7\\xa1\\x80/IntegerOperations.sol\":347:348  a */\n      dup5\n        /* \"@course/meta-node/solidity/mine/solidity_lesson/study_code/2.1\\xe6\\x95\\xb0\\xe6\\x8d\\xae\\xe7\\xb1\\xbb\\xe5\\x9e\\x8b\\xe5\\x9f\\xba\\xe7\\xa1\\x80/IntegerOperations.sol\":347:352  a * b */\n      tag_22\n      swap2\n      swap1\n      tag_23\n      jump\t// in\n    tag_22:\n        /* \"@course/meta-node/solidity/mine/solidity_lesson/study_code/2.1\\xe6\\x95\\xb0\\xe6\\x8d\\xae\\xe7\\xb1\\xbb\\xe5\\x9e\\x8b\\xe5\\x9f\\xba\\xe7\\xa1\\x80/IntegerOperations.sol\":385:386  b */\n      dup4\n        /* \"@course/meta-node/solidity/mine/solidity_lesson/study_code/2.1\\xe6\\x95\\xb0\\xe6\\x8d\\xae\\xe7\\xb1\\xbb\\xe5\\x9e\\x8b\\xe5\\x9f\\xba\\xe7\\xa1\\x80/IntegerOperations.sol\":381:382  a */\n      dup6\n        /* \"@course/meta-node/solidity/mine/solidity_lesson/study_code/2.1\\xe6\\x95\\xb0\\xe6\\x8d\\xae\\xe7\\xb1\\xbb\\xe5\\x9e\\x8b\\xe5\\x9f\\xba\\xe7\\xa1\\x80/IntegerOperations.sol\":381:386  a / b */\n      tag_24\n      swap2\n      swap1\n      tag_25\n      jump\t// in\n    tag_24:\n        /* \"@course/meta-node/solidity/mine/solidity_lesson/study_code/2.1\\xe6\\x95\\xb0\\xe6\\x8d\\xae\\xe7\\xb1\\xbb\\xe5\\x9e\\x8b\\xe5\\x9f\\xba\\xe7\\xa1\\x80/IntegerOperations.sol\":448:449  b */\n      dup5\n        /* \"@course/meta-node/solidity/mine/solidity_lesson/study_code/2.1\\xe6\\x95\\xb0\\xe6\\x8d\\xae\\xe7\\xb1\\xbb\\xe5\\x9e\\x8b\\xe5\\x9f\\xba\\xe7\\xa1\\x80/IntegerOperations.sol\":444:445  a */\n      dup7\n        /* \"@course/meta-node/solidity/mine/solidity_lesson/study_code/2.1\\xe6\\x95\\xb0\\xe6\\x8d\\xae\\xe7\\xb1\\xbb\\xe5\\x9e\\x8b\\xe5\\x9f\\xba\\xe7\\xa1\\x80/IntegerOperations.sol\":444:449  a % b */\n      tag_26\n      swap2\n      swap1\n      tag_27\n      jump\t// in\n    tag_26:\n        /* \"@course/meta-node/solidity/mine/solidity_lesson/study_code/2.1\\xe6\\x95\\xb0\\xe6\\x8d\\xae\\xe7\\xb1\\xbb\\xe5\\x9e\\x8b\\xe5\\x9f\\xba\\xe7\\xa1\\x80/IntegerOperations.sol\":491:492  b */\n      dup6\n        /* \"@course/meta-node/solidity/mine/solidity_lesson/study_code/2.1\\xe6\\x95\\xb0\\xe6\\x8d\\xae\\xe7\\xb1\\xbb\\xe5\\x9e\\x8b\\xe5\\x9f\\xba\\xe7\\xa1\\x80/IntegerOperations.sol\":486:487  a */\n      dup8\n        /* \"@course/meta-node/solidity/mine/solidity_lesson/study_code/2.1\\xe6\\x95\\xb0\\xe6\\x8d\\xae\\xe7\\xb1\\xbb\\xe5\\x9e\\x8b\\xe5\\x9f\\xba\\xe7\\xa1\\x80/IntegerOperations.sol\":486:492  a ** b */\n      tag_28\n      swap2\n      swap1\n      tag_29\n      jump\t// in\n    tag_28:\n        /* \"@course/meta-node/solidity/mine/solidity_lesson/study_code/2.1\\xe6\\x95\\xb0\\xe6\\x8d\\xae\\xe7\\xb1\\xbb\\xe5\\x9e\\x8b\\xe5\\x9f\\xba\\xe7\\xa1\\x80/IntegerOperations.sol\":259:537  return (... */\n      swap8\n      pop\n      swap8\n      pop\n      swap8\n      pop\n      swap8\n      pop\n      swap8\n      pop\n      swap8\n      pop\n      pop\n      pop\n        /* \"@course/meta-node/solidity/mine/solidity_lesson/study_code/2.1\\xe6\\x95\\xb0\\xe6\\x8d\\xae\\xe7\\xb1\\xbb\\xe5\\x9e\\x8b\\xe5\\x9f\\xba\\xe7\\xa1\\x80/IntegerOperations.sol\":90:544  function arithmeticOperations()... */\n      swap1\n      swap2\n      swap3\n      swap4\n      swap5\n      swap6\n      jump\t// out\n        /* \"@course/meta-node/solidity/mine/solidity_lesson/study_code/2.1\\xe6\\x95\\xb0\\xe6\\x8d\\xae\\xe7\\xb1\\xbb\\xe5\\x9e\\x8b\\xe5\\x9f\\xba\\xe7\\xa1\\x80/IntegerOperations.sol\":550:675  function division() public pure returns (uint) {... */\n    tag_11:\n        /* \"@course/meta-node/solidity/mine/solidity_lesson/study_code/2.1\\xe6\\x95\\xb0\\xe6\\x8d\\xae\\xe7\\xb1\\xbb\\xe5\\x9e\\x8b\\xe5\\x9f\\xba\\xe7\\xa1\\x80/IntegerOperations.sol\":591:595  uint */\n      0x00\n        /* \"@course/meta-node/solidity/mine/solidity_lesson/study_code/2.1\\xe6\\x95\\xb0\\xe6\\x8d\\xae\\xe7\\xb1\\xbb\\xe5\\x9e\\x8b\\xe5\\x9f\\xba\\xe7\\xa1\\x80/IntegerOperations.sol\":607:613  uint a */\n      0x00\n        /* \"@course/meta-node/solidity/mine/solidity_lesson/study_code/2.1\\xe6\\x95\\xb0\\xe6\\x8d\\xae\\xe7\\xb1\\xbb\\xe5\\x9e\\x8b\\xe5\\x9f\\xba\\xe7\\xa1\\x80/IntegerOperations.sol\":616:618  10 */\n      0x0a\n        /* \"@course/meta-node/solidity/mine/solidity_lesson/study_code/2.1\\xe6\\x95\\xb0\\xe6\\x8d\\xae\\xe7\\xb1\\xbb\\xe5\\x9e\\x8b\\xe5\\x9f\\xba\\xe7\\xa1\\x80/IntegerOperations.sol\":607:618  uint a = 10 */\n      swap1\n      pop\n        /* \"@course/meta-node/solidity/mine/solidity_lesson/study_code/2.1\\xe6\\x95\\xb0\\xe6\\x8d\\xae\\xe7\\xb1\\xbb\\xe5\\x9e\\x8b\\xe5\\x9f\\xba\\xe7\\xa1\\x80/IntegerOperations.sol\":628:634  uint b */\n      0x00\n        /* \"@course/meta-node/solidity/mine/solidity_lesson/study_code/2.1\\xe6\\x95\\xb0\\xe6\\x8d\\xae\\xe7\\xb1\\xbb\\xe5\\x9e\\x8b\\xe5\\x9f\\xba\\xe7\\xa1\\x80/IntegerOperations.sol\":637:638  3 */\n      0x03\n        /* \"@course/meta-node/solidity/mine/solidity_lesson/study_code/2.1\\xe6\\x95\\xb0\\xe6\\x8d\\xae\\xe7\\xb1\\xbb\\xe5\\x9e\\x8b\\xe5\\x9f\\xba\\xe7\\xa1\\x80/IntegerOperations.sol\":628:638  uint b = 3 */\n      swap1\n      pop\n        /* \"@course/meta-node/solidity/mine/solidity_lesson/study_code/2.1\\xe6\\x95\\xb0\\xe6\\x8d\\xae\\xe7\\xb1\\xbb\\xe5\\x9e\\x8b\\xe5\\x9f\\xba\\xe7\\xa1\\x80/IntegerOperations.sol\":661:662  b */\n      dup1\n        /* \"@course/meta-node/solidity/mine/solidity_lesson/study_code/2.1\\xe6\\x95\\xb0\\xe6\\x8d\\xae\\xe7\\xb1\\xbb\\xe5\\x9e\\x8b\\xe5\\x9f\\xba\\xe7\\xa1\\x80/IntegerOperations.sol\":657:658  a */\n      dup3\n        /* \"@course/meta-node/solidity/mine/solidity_lesson/study_code/2.1\\xe6\\x95\\xb0\\xe6\\x8d\\xae\\xe7\\xb1\\xbb\\xe5\\x9e\\x8b\\xe5\\x9f\\xba\\xe7\\xa1\\x80/IntegerOperations.sol\":657:662  a / b */\n      tag_31\n      swap2\n      swap1\n      tag_25\n      jump\t// in\n    tag_31:\n        /* \"@course/meta-node/solidity/mine/solidity_lesson/study_code/2.1\\xe6\\x95\\xb0\\xe6\\x8d\\xae\\xe7\\xb1\\xbb\\xe5\\x9e\\x8b\\xe5\\x9f\\xba\\xe7\\xa1\\x80/IntegerOperations.sol\":649:663  return (a / b) */\n      swap3\n      pop\n      pop\n      pop\n        /* \"@course/meta-node/solidity/mine/solidity_lesson/study_code/2.1\\xe6\\x95\\xb0\\xe6\\x8d\\xae\\xe7\\xb1\\xbb\\xe5\\x9e\\x8b\\xe5\\x9f\\xba\\xe7\\xa1\\x80/IntegerOperations.sol\":550:675  function division() public pure returns (uint) {... */\n      swap1\n      jump\t// out\n        /* \"@course/meta-node/solidity/mine/solidity_lesson/study_code/2.1\\xe6\\x95\\xb0\\xe6\\x8d\\xae\\xe7\\xb1\\xbb\\xe5\\x9e\\x8b\\xe5\\x9f\\xba\\xe7\\xa1\\x80/IntegerOperations.sol\":681:877  function divideWithPrecision() public pure returns (uint) {... */\n    tag_15:\n        /* \"@course/meta-node/solidity/mine/solidity_lesson/study_code/2.1\\xe6\\x95\\xb0\\xe6\\x8d\\xae\\xe7\\xb1\\xbb\\xe5\\x9e\\x8b\\xe5\\x9f\\xba\\xe7\\xa1\\x80/IntegerOperations.sol\":733:737  uint */\n      0x00\n        /* \"@course/meta-node/solidity/mine/solidity_lesson/study_code/2.1\\xe6\\x95\\xb0\\xe6\\x8d\\xae\\xe7\\xb1\\xbb\\xe5\\x9e\\x8b\\xe5\\x9f\\xba\\xe7\\xa1\\x80/IntegerOperations.sol\":749:755  uint a */\n      0x00\n        /* \"@course/meta-node/solidity/mine/solidity_lesson/study_code/2.1\\xe6\\x95\\xb0\\xe6\\x8d\\xae\\xe7\\xb1\\xbb\\xe5\\x9e\\x8b\\xe5\\x9f\\xba\\xe7\\xa1\\x80/IntegerOperations.sol\":758:760  10 */\n      0x0a\n        /* \"@course/meta-node/solidity/mine/solidity_lesson/study_code/2.1\\xe6\\x95\\xb0\\xe6\\x8d\\xae\\xe7\\xb1\\xbb\\xe5\\x9e\\x8b\\xe5\\x9f\\xba\\xe7\\xa1\\x80/IntegerOperations.sol\":749:760  uint a = 10 */\n      swap1\n      pop\n        /* \"@course/meta-node/solidity/mine/solidity_lesson/study_code/2.1\\xe6\\x95\\xb0\\xe6\\x8d\\xae\\xe7\\xb1\\xbb\\xe5\\x9e\\x8b\\xe5\\x9f\\xba\\xe7\\xa1\\x80/IntegerOperations.sol\":770:776  uint b */\n      0x00\n        /* \"@course/meta-node/solidity/mine/solidity_lesson/study_code/2.1\\xe6\\x95\\xb0\\xe6\\x8d\\xae\\xe7\\xb1\\xbb\\xe5\\x9e\\x8b\\xe5\\x9f\\xba\\xe7\\xa1\\x80/IntegerOperations.sol\":779:780  3 */\n      0x03\n        /* \"@course/meta-node/solidity/mine/solidity_lesson/study_code/2.1\\xe6\\x95\\xb0\\xe6\\x8d\\xae\\xe7\\xb1\\xbb\\xe5\\x9e\\x8b\\xe5\\x9f\\xba\\xe7\\xa1\\x80/IntegerOperations.sol\":770:780  uint b = 3 */\n      swap1\n      pop\n        /* \"@course/meta-node/solidity/mine/solidity_lesson/study_code/2.1\\xe6\\x95\\xb0\\xe6\\x8d\\xae\\xe7\\xb1\\xbb\\xe5\\x9e\\x8b\\xe5\\x9f\\xba\\xe7\\xa1\\x80/IntegerOperations.sol\":810:811  b */\n      dup1\n        /* \"@course/meta-node/solidity/mine/solidity_lesson/study_code/2.1\\xe6\\x95\\xb0\\xe6\\x8d\\xae\\xe7\\xb1\\xbb\\xe5\\x9e\\x8b\\xe5\\x9f\\xba\\xe7\\xa1\\x80/IntegerOperations.sol\":803:807  1000 */\n      0x03e8\n        /* \"@course/meta-node/solidity/mine/solidity_lesson/study_code/2.1\\xe6\\x95\\xb0\\xe6\\x8d\\xae\\xe7\\xb1\\xbb\\xe5\\x9e\\x8b\\xe5\\x9f\\xba\\xe7\\xa1\\x80/IntegerOperations.sol\":799:800  a */\n      dup4\n        /* \"@course/meta-node/solidity/mine/solidity_lesson/study_code/2.1\\xe6\\x95\\xb0\\xe6\\x8d\\xae\\xe7\\xb1\\xbb\\xe5\\x9e\\x8b\\xe5\\x9f\\xba\\xe7\\xa1\\x80/IntegerOperations.sol\":799:807  a * 1000 */\n      tag_33\n      swap2\n      swap1\n      tag_23\n      jump\t// in\n    tag_33:\n        /* \"@course/meta-node/solidity/mine/solidity_lesson/study_code/2.1\\xe6\\x95\\xb0\\xe6\\x8d\\xae\\xe7\\xb1\\xbb\\xe5\\x9e\\x8b\\xe5\\x9f\\xba\\xe7\\xa1\\x80/IntegerOperations.sol\":799:811  a * 1000 / b */\n      tag_34\n      swap2\n      swap1\n      tag_25\n      jump\t// in\n    tag_34:\n        /* \"@course/meta-node/solidity/mine/solidity_lesson/study_code/2.1\\xe6\\x95\\xb0\\xe6\\x8d\\xae\\xe7\\xb1\\xbb\\xe5\\x9e\\x8b\\xe5\\x9f\\xba\\xe7\\xa1\\x80/IntegerOperations.sol\":791:812  return (a * 1000 / b) */\n      swap3\n      pop\n      pop\n      pop\n        /* \"@course/meta-node/solidity/mine/solidity_lesson/study_code/2.1\\xe6\\x95\\xb0\\xe6\\x8d\\xae\\xe7\\xb1\\xbb\\xe5\\x9e\\x8b\\xe5\\x9f\\xba\\xe7\\xa1\\x80/IntegerOperations.sol\":681:877  function divideWithPrecision() public pure returns (uint) {... */\n      swap1\n      jump\t// out\n        /* \"#utility.yul\":7:84   */\n    tag_35:\n        /* \"#utility.yul\":44:51   */\n      0x00\n        /* \"#utility.yul\":73:78   */\n      dup2\n        /* \"#utility.yul\":62:78   */\n      swap1\n      pop\n        /* \"#utility.yul\":7:84   */\n      swap2\n      swap1\n      pop\n      jump\t// out\n        /* \"#utility.yul\":90:208   */\n    tag_36:\n        /* \"#utility.yul\":177:201   */\n      tag_45\n        /* \"#utility.yul\":195:200   */\n      dup2\n        /* \"#utility.yul\":177:201   */\n      tag_35\n      jump\t// in\n    tag_45:\n        /* \"#utility.yul\":172:175   */\n      dup3\n        /* \"#utility.yul\":165:202   */\n      mstore\n        /* \"#utility.yul\":90:208   */\n      pop\n      pop\n      jump\t// out\n        /* \"#utility.yul\":214:989   */\n    tag_9:\n        /* \"#utility.yul\":447:451   */\n      0x00\n        /* \"#utility.yul\":485:488   */\n      0xc0\n        /* \"#utility.yul\":474:483   */\n      dup3\n        /* \"#utility.yul\":470:489   */\n      add\n        /* \"#utility.yul\":462:489   */\n      swap1\n      pop\n        /* \"#utility.yul\":499:570   */\n      tag_47\n        /* \"#utility.yul\":567:568   */\n      0x00\n        /* \"#utility.yul\":556:565   */\n      dup4\n        /* \"#utility.yul\":552:569   */\n      add\n        /* \"#utility.yul\":543:549   */\n      dup10\n        /* \"#utility.yul\":499:570   */\n      tag_36\n      jump\t// in\n    tag_47:\n        /* \"#utility.yul\":580:652   */\n      tag_48\n        /* \"#utility.yul\":648:650   */\n      0x20\n        /* \"#utility.yul\":637:646   */\n      dup4\n        /* \"#utility.yul\":633:651   */\n      add\n        /* \"#utility.yul\":624:630   */\n      dup9\n        /* \"#utility.yul\":580:652   */\n      tag_36\n      jump\t// in\n    tag_48:\n        /* \"#utility.yul\":662:734   */\n      tag_49\n        /* \"#utility.yul\":730:732   */\n      0x40\n        /* \"#utility.yul\":719:728   */\n      dup4\n        /* \"#utility.yul\":715:733   */\n      add\n        /* \"#utility.yul\":706:712   */\n      dup8\n        /* \"#utility.yul\":662:734   */\n      tag_36\n      jump\t// in\n    tag_49:\n        /* \"#utility.yul\":744:816   */\n      tag_50\n        /* \"#utility.yul\":812:814   */\n      0x60\n        /* \"#utility.yul\":801:810   */\n      dup4\n        /* \"#utility.yul\":797:815   */\n      add\n        /* \"#utility.yul\":788:794   */\n      dup7\n        /* \"#utility.yul\":744:816   */\n      tag_36\n      jump\t// in\n    tag_50:\n        /* \"#utility.yul\":826:899   */\n      tag_51\n        /* \"#utility.yul\":894:897   */\n      0x80\n        /* \"#utility.yul\":883:892   */\n      dup4\n        /* \"#utility.yul\":879:898   */\n      add\n        /* \"#utility.yul\":870:876   */\n      dup6\n        /* \"#utility.yul\":826:899   */\n      tag_36\n      jump\t// in\n    tag_51:\n        /* \"#utility.yul\":909:982   */\n      tag_52\n        /* \"#utility.yul\":977:980   */\n      0xa0\n        /* \"#utility.yul\":966:975   */\n      dup4\n        /* \"#utility.yul\":962:981   */\n      add\n        /* \"#utility.yul\":953:959   */\n      dup5\n        /* \"#utility.yul\":909:982   */\n      tag_36\n      jump\t// in\n    tag_52:\n        /* \"#utility.yul\":214:989   */\n      swap8\n      swap7\n      pop\n      pop\n      pop\n      pop\n      pop\n      pop\n      pop\n      jump\t// out\n        /* \"#utility.yul\":995:1217   */\n    tag_13:\n        /* \"#utility.yul\":1088:1092   */\n      0x00\n        /* \"#utility.yul\":1126:1128   */\n      0x20\n        /* \"#utility.yul\":1115:1124   */\n      dup3\n        /* \"#utility.yul\":1111:1129   */\n      add\n        /* \"#utility.yul\":1103:1129   */\n      swap1\n      pop\n        /* \"#utility.yul\":1139:1210   */\n      tag_54\n        /* \"#utility.yul\":1207:1208   */\n      0x00\n        /* \"#utility.yul\":1196:1205   */\n      dup4\n        /* \"#utility.yul\":1192:1209   */\n      add\n        /* \"#utility.yul\":1183:1189   */\n      dup5\n        /* \"#utility.yul\":1139:1210   */\n      tag_36\n      jump\t// in\n    tag_54:\n        /* \"#utility.yul\":995:1217   */\n      swap3\n      swap2\n      pop\n      pop\n      jump\t// out\n        /* \"#utility.yul\":1223:1403   */\n    tag_37:\n        /* \"#utility.yul\":1271:1348   */\n      0x4e487b7100000000000000000000000000000000000000000000000000000000\n        /* \"#utility.yul\":1268:1269   */\n      0x00\n        /* \"#utility.yul\":1261:1349   */\n      mstore\n        /* \"#utility.yul\":1368:1372   */\n      0x11\n        /* \"#utility.yul\":1365:1366   */\n      0x04\n        /* \"#utility.yul\":1358:1373   */\n      mstore\n        /* \"#utility.yul\":1392:1396   */\n      0x24\n        /* \"#utility.yul\":1389:1390   */\n      0x00\n        /* \"#utility.yul\":1382:1397   */\n      revert\n        /* \"#utility.yul\":1409:1600   */\n    tag_19:\n        /* \"#utility.yul\":1449:1452   */\n      0x00\n        /* \"#utility.yul\":1468:1488   */\n      tag_57\n        /* \"#utility.yul\":1486:1487   */\n      dup3\n        /* \"#utility.yul\":1468:1488   */\n      tag_35\n      jump\t// in\n    tag_57:\n        /* \"#utility.yul\":1463:1488   */\n      swap2\n      pop\n        /* \"#utility.yul\":1502:1522   */\n      tag_58\n        /* \"#utility.yul\":1520:1521   */\n      dup4\n        /* \"#utility.yul\":1502:1522   */\n      tag_35\n      jump\t// in\n    tag_58:\n        /* \"#utility.yul\":1497:1522   */\n      swap3\n      pop\n        /* \"#utility.yul\":1545:1546   */\n      dup3\n        /* \"#utility.yul\":1542:1543   */\n      dup3\n        /* \"#utility.yul\":1538:1547   */\n      add\n        /* \"#utility.yul\":1531:1547   */\n      swap1\n      pop\n        /* \"#utility.yul\":1566:1569   */\n      dup1\n        /* \"#utility.yul\":1563:1564   */\n      dup3\n        /* \"#utility.yul\":1560:1570   */\n      gt\n        /* \"#utility.yul\":1557:1593   */\n      iszero\n      tag_59\n      jumpi\n        /* \"#utility.yul\":1573:1591   */\n      tag_60\n      tag_37\n      jump\t// in\n    tag_60:\n        /* \"#utility.yul\":1557:1593   */\n    tag_59:\n        /* \"#utility.yul\":1409:1600   */\n      swap3\n      swap2\n      pop\n      pop\n      jump\t// out\n        /* \"#utility.yul\":1606:1800   */\n    tag_21:\n        /* \"#utility.yul\":1646:1650   */\n      0x00\n        /* \"#utility.yul\":1666:1686   */\n      tag_62\n        /* \"#utility.yul\":1684:1685   */\n      dup3\n        /* \"#utility.yul\":1666:1686   */\n      tag_35\n      jump\t// in\n    tag_62:\n        /* \"#utility.yul\":1661:1686   */\n      swap2\n      pop\n        /* \"#utility.yul\":1700:1720   */\n      tag_63\n        /* \"#utility.yul\":1718:1719   */\n      dup4\n        /* \"#utility.yul\":1700:1720   */\n      tag_35\n      jump\t// in\n    tag_63:\n        /* \"#utility.yul\":1695:1720   */\n      swap3\n      pop\n        /* \"#utility.yul\":1744:1745   */\n      dup3\n        /* \"#utility.yul\":1741:1742   */\n      dup3\n        /* \"#utility.yul\":1737:1746   */\n      sub\n        /* \"#utility.yul\":1729:1746   */\n      swap1\n      pop\n        /* \"#utility.yul\":1768:1769   */\n      dup2\n        /* \"#utility.yul\":1762:1766   */\n      dup2\n        /* \"#utility.yul\":1759:1770   */\n      gt\n        /* \"#utility.yul\":1756:1793   */\n      iszero\n      tag_64\n      jumpi\n        /* \"#utility.yul\":1773:1791   */\n      tag_65\n      tag_37\n      jump\t// in\n    tag_65:\n        /* \"#utility.yul\":1756:1793   */\n    tag_64:\n        /* \"#utility.yul\":1606:1800   */\n      swap3\n      swap2\n      pop\n      pop\n      jump\t// out\n        /* \"#utility.yul\":1806:2216   */\n    tag_23:\n        /* \"#utility.yul\":1846:1853   */\n      0x00\n        /* \"#utility.yul\":1869:1889   */\n      tag_67\n        /* \"#utility.yul\":1887:1888   */\n      dup3\n        /* \"#utility.yul\":1869:1889   */\n      tag_35\n      jump\t// in\n    tag_67:\n        /* \"#utility.yul\":1864:1889   */\n      swap2\n      pop\n        /* \"#utility.yul\":1903:1923   */\n      tag_68\n        /* \"#utility.yul\":1921:1922   */\n      dup4\n        /* \"#utility.yul\":1903:1923   */\n      tag_35\n      jump\t// in\n    tag_68:\n        /* \"#utility.yul\":1898:1923   */\n      swap3\n      pop\n        /* \"#utility.yul\":1958:1959   */\n      dup3\n        /* \"#utility.yul\":1955:1956   */\n      dup3\n        /* \"#utility.yul\":1951:1960   */\n      mul\n        /* \"#utility.yul\":1980:2010   */\n      tag_69\n        /* \"#utility.yul\":1998:2009   */\n      dup2\n        /* \"#utility.yul\":1980:2010   */\n      tag_35\n      jump\t// in\n    tag_69:\n        /* \"#utility.yul\":1969:2010   */\n      swap2\n      pop\n        /* \"#utility.yul\":2159:2160   */\n      dup3\n        /* \"#utility.yul\":2150:2157   */\n      dup3\n        /* \"#utility.yul\":2146:2161   */\n      div\n        /* \"#utility.yul\":2143:2144   */\n      dup5\n        /* \"#utility.yul\":2140:2162   */\n      eq\n        /* \"#utility.yul\":2120:2121   */\n      dup4\n        /* \"#utility.yul\":2113:2122   */\n      iszero\n        /* \"#utility.yul\":2093:2176   */\n      or\n        /* \"#utility.yul\":2070:2209   */\n      tag_70\n      jumpi\n        /* \"#utility.yul\":2189:2207   */\n      tag_71\n      tag_37\n      jump\t// in\n    tag_71:\n        /* \"#utility.yul\":2070:2209   */\n    tag_70:\n        /* \"#utility.yul\":1854:2216   */\n      pop\n        /* \"#utility.yul\":1806:2216   */\n      swap3\n      swap2\n      pop\n      pop\n      jump\t// out\n        /* \"#utility.yul\":2222:2402   */\n    tag_38:\n        /* \"#utility.yul\":2270:2347   */\n      0x4e487b7100000000000000000000000000000000000000000000000000000000\n        /* \"#utility.yul\":2267:2268   */\n      0x00\n        /* \"#utility.yul\":2260:2348   */\n      mstore\n        /* \"#utility.yul\":2367:2371   */\n      0x12\n        /* \"#utility.yul\":2364:2365   */\n      0x04\n        /* \"#utility.yul\":2357:2372   */\n      mstore\n        /* \"#utility.yul\":2391:2395   */\n      0x24\n        /* \"#utility.yul\":2388:2389   */\n      0x00\n        /* \"#utility.yul\":2381:2396   */\n      revert\n        /* \"#utility.yul\":2408:2593   */\n    tag_25:\n        /* \"#utility.yul\":2448:2449   */\n      0x00\n        /* \"#utility.yul\":2465:2485   */\n      tag_74\n        /* \"#utility.yul\":2483:2484   */\n      dup3\n        /* \"#utility.yul\":2465:2485   */\n      tag_35\n      jump\t// in\n    tag_74:\n        /* \"#utility.yul\":2460:2485   */\n      swap2\n      pop\n        /* \"#utility.yul\":2499:2519   */\n      tag_75\n        /* \"#utility.yul\":2517:2518   */\n      dup4\n        /* \"#utility.yul\":2499:2519   */\n      tag_35\n      jump\t// in\n    tag_75:\n        /* \"#utility.yul\":2494:2519   */\n      swap3\n      pop\n        /* \"#utility.yul\":2538:2539   */\n      dup3\n        /* \"#utility.yul\":2528:2563   */\n      tag_76\n      jumpi\n        /* \"#utility.yul\":2543:2561   */\n      tag_77\n      tag_38\n      jump\t// in\n    tag_77:\n        /* \"#utility.yul\":2528:2563   */\n    tag_76:\n        /* \"#utility.yul\":2585:2586   */\n      dup3\n        /* \"#utility.yul\":2582:2583   */\n      dup3\n        /* \"#utility.yul\":2578:2587   */\n      div\n        /* \"#utility.yul\":2573:2587   */\n      swap1\n      pop\n        /* \"#utility.yul\":2408:2593   */\n      swap3\n      swap2\n      pop\n      pop\n      jump\t// out\n        /* \"#utility.yul\":2599:2775   */\n    tag_27:\n        /* \"#utility.yul\":2631:2632   */\n      0x00\n        /* \"#utility.yul\":2648:2668   */\n      tag_79\n        /* \"#utility.yul\":2666:2667   */\n      dup3\n        /* \"#utility.yul\":2648:2668   */\n      tag_35\n      jump\t// in\n    tag_79:\n        /* \"#utility.yul\":2643:2668   */\n      swap2\n      pop\n        /* \"#utility.yul\":2682:2702   */\n      tag_80\n        /* \"#utility.yul\":2700:2701   */\n      dup4\n        /* \"#utility.yul\":2682:2702   */\n      tag_35\n      jump\t// in\n    tag_80:\n        /* \"#utility.yul\":2677:2702   */\n      swap3\n      pop\n        /* \"#utility.yul\":2721:2722   */\n      dup3\n        /* \"#utility.yul\":2711:2746   */\n      tag_81\n      jumpi\n        /* \"#utility.yul\":2726:2744   */\n      tag_82\n      tag_38\n      jump\t// in\n    tag_82:\n        /* \"#utility.yul\":2711:2746   */\n    tag_81:\n        /* \"#utility.yul\":2767:2768   */\n      dup3\n        /* \"#utility.yul\":2764:2765   */\n      dup3\n        /* \"#utility.yul\":2760:2769   */\n      mod\n        /* \"#utility.yul\":2755:2769   */\n      swap1\n      pop\n        /* \"#utility.yul\":2599:2775   */\n      swap3\n      swap2\n      pop\n      pop\n      jump\t// out\n        /* \"#utility.yul\":2781:2883   */\n    tag_39:\n        /* \"#utility.yul\":2823:2831   */\n      0x00\n        /* \"#utility.yul\":2870:2875   */\n      dup2\n        /* \"#utility.yul\":2867:2868   */\n      0x01\n        /* \"#utility.yul\":2863:2876   */\n      shr\n        /* \"#utility.yul\":2842:2876   */\n      swap1\n      pop\n        /* \"#utility.yul\":2781:2883   */\n      swap2\n      swap1\n      pop\n      jump\t// out\n        /* \"#utility.yul\":2889:3737   */\n    tag_40:\n        /* \"#utility.yul\":2950:2955   */\n      0x00\n        /* \"#utility.yul\":2957:2961   */\n      0x00\n        /* \"#utility.yul\":2981:2987   */\n      dup3\n        /* \"#utility.yul\":2972:2987   */\n      swap2\n      pop\n        /* \"#utility.yul\":3005:3010   */\n      dup4\n        /* \"#utility.yul\":2996:3010   */\n      swap1\n      pop\n        /* \"#utility.yul\":3019:3731   */\n    tag_85:\n        /* \"#utility.yul\":3040:3041   */\n      0x01\n        /* \"#utility.yul\":3030:3038   */\n      dup6\n        /* \"#utility.yul\":3027:3042   */\n      gt\n        /* \"#utility.yul\":3019:3731   */\n      iszero\n      tag_87\n      jumpi\n        /* \"#utility.yul\":3135:3139   */\n      dup1\n        /* \"#utility.yul\":3130:3133   */\n      dup7\n        /* \"#utility.yul\":3126:3140   */\n      div\n        /* \"#utility.yul\":3120:3124   */\n      dup2\n        /* \"#utility.yul\":3117:3141   */\n      gt\n        /* \"#utility.yul\":3114:3164   */\n      iszero\n      tag_88\n      jumpi\n        /* \"#utility.yul\":3144:3162   */\n      tag_89\n      tag_37\n      jump\t// in\n    tag_89:\n        /* \"#utility.yul\":3114:3164   */\n    tag_88:\n        /* \"#utility.yul\":3194:3195   */\n      0x01\n        /* \"#utility.yul\":3184:3192   */\n      dup6\n        /* \"#utility.yul\":3180:3196   */\n      and\n        /* \"#utility.yul\":3177:3628   */\n      iszero\n      tag_90\n      jumpi\n        /* \"#utility.yul\":3609:3613   */\n      dup1\n        /* \"#utility.yul\":3602:3607   */\n      dup3\n        /* \"#utility.yul\":3598:3614   */\n      mul\n        /* \"#utility.yul\":3589:3614   */\n      swap2\n      pop\n        /* \"#utility.yul\":3177:3628   */\n    tag_90:\n        /* \"#utility.yul\":3659:3663   */\n      dup1\n        /* \"#utility.yul\":3653:3657   */\n      dup2\n        /* \"#utility.yul\":3649:3664   */\n      mul\n        /* \"#utility.yul\":3641:3664   */\n      swap1\n      pop\n        /* \"#utility.yul\":3689:3721   */\n      tag_91\n        /* \"#utility.yul\":3712:3720   */\n      dup6\n        /* \"#utility.yul\":3689:3721   */\n      tag_39\n      jump\t// in\n    tag_91:\n        /* \"#utility.yul\":3677:3721   */\n      swap5\n      pop\n        /* \"#utility.yul\":3019:3731   */\n      jump(tag_85)\n    tag_87:\n        /* \"#utility.yul\":2889:3737   */\n      swap5\n      pop\n      swap5\n      swap3\n      pop\n      pop\n      pop\n      jump\t// out\n        /* \"#utility.yul\":3743:4816   */\n    tag_41:\n        /* \"#utility.yul\":3797:3802   */\n      0x00\n        /* \"#utility.yul\":3988:3996   */\n      dup3\n        /* \"#utility.yul\":3978:4018   */\n      tag_93\n      jumpi\n        /* \"#utility.yul\":4009:4010   */\n      0x01\n        /* \"#utility.yul\":4000:4010   */\n      swap1\n      pop\n        /* \"#utility.yul\":4011:4016   */\n      jump(tag_92)\n        /* \"#utility.yul\":3978:4018   */\n    tag_93:\n        /* \"#utility.yul\":4037:4041   */\n      dup2\n        /* \"#utility.yul\":4027:4063   */\n      tag_94\n      jumpi\n        /* \"#utility.yul\":4054:4055   */\n      0x00\n        /* \"#utility.yul\":4045:4055   */\n      swap1\n      pop\n        /* \"#utility.yul\":4056:4061   */\n      jump(tag_92)\n        /* \"#utility.yul\":4027:4063   */\n    tag_94:\n        /* \"#utility.yul\":4123:4127   */\n      dup2\n        /* \"#utility.yul\":4171:4172   */\n      0x01\n        /* \"#utility.yul\":4166:4193   */\n      dup2\n      eq\n      tag_96\n      jumpi\n        /* \"#utility.yul\":4207:4208   */\n      0x02\n        /* \"#utility.yul\":4202:4393   */\n      dup2\n      eq\n      tag_97\n      jumpi\n        /* \"#utility.yul\":4116:4393   */\n      jump(tag_95)\n        /* \"#utility.yul\":4166:4193   */\n    tag_96:\n        /* \"#utility.yul\":4184:4185   */\n      0x01\n        /* \"#utility.yul\":4175:4185   */\n      swap2\n      pop\n        /* \"#utility.yul\":4186:4191   */\n      pop\n      jump(tag_92)\n        /* \"#utility.yul\":4202:4393   */\n    tag_97:\n        /* \"#utility.yul\":4247:4250   */\n      0xff\n        /* \"#utility.yul\":4237:4245   */\n      dup5\n        /* \"#utility.yul\":4234:4251   */\n      gt\n        /* \"#utility.yul\":4231:4274   */\n      iszero\n      tag_98\n      jumpi\n        /* \"#utility.yul\":4254:4272   */\n      tag_99\n      tag_37\n      jump\t// in\n    tag_99:\n        /* \"#utility.yul\":4231:4274   */\n    tag_98:\n        /* \"#utility.yul\":4303:4311   */\n      dup4\n        /* \"#utility.yul\":4300:4301   */\n      0x02\n        /* \"#utility.yul\":4296:4312   */\n      exp\n        /* \"#utility.yul\":4287:4312   */\n      swap2\n      pop\n        /* \"#utility.yul\":4338:4341   */\n      dup5\n        /* \"#utility.yul\":4331:4336   */\n      dup3\n        /* \"#utility.yul\":4328:4342   */\n      gt\n        /* \"#utility.yul\":4325:4365   */\n      iszero\n      tag_100\n      jumpi\n        /* \"#utility.yul\":4345:4363   */\n      tag_101\n      tag_37\n      jump\t// in\n    tag_101:\n        /* \"#utility.yul\":4325:4365   */\n    tag_100:\n        /* \"#utility.yul\":4378:4383   */\n      pop\n      jump(tag_92)\n        /* \"#utility.yul\":4116:4393   */\n    tag_95:\n      pop\n        /* \"#utility.yul\":4502:4504   */\n      0x20\n        /* \"#utility.yul\":4492:4500   */\n      dup4\n        /* \"#utility.yul\":4489:4505   */\n      lt\n        /* \"#utility.yul\":4483:4486   */\n      0x0133\n        /* \"#utility.yul\":4477:4481   */\n      dup4\n        /* \"#utility.yul\":4474:4487   */\n      lt\n        /* \"#utility.yul\":4470:4506   */\n      and\n        /* \"#utility.yul\":4452:4454   */\n      0x4e\n        /* \"#utility.yul\":4442:4450   */\n      dup5\n        /* \"#utility.yul\":4439:4455   */\n      lt\n        /* \"#utility.yul\":4434:4436   */\n      0x0b\n        /* \"#utility.yul\":4428:4432   */\n      dup5\n        /* \"#utility.yul\":4425:4437   */\n      lt\n        /* \"#utility.yul\":4421:4456   */\n      and\n        /* \"#utility.yul\":4405:4516   */\n      or\n        /* \"#utility.yul\":4402:4648   */\n      iszero\n      tag_102\n      jumpi\n        /* \"#utility.yul\":4558:4566   */\n      dup3\n        /* \"#utility.yul\":4552:4556   */\n      dup3\n        /* \"#utility.yul\":4548:4567   */\n      exp\n        /* \"#utility.yul\":4539:4567   */\n      swap1\n      pop\n        /* \"#utility.yul\":4593:4596   */\n      dup4\n        /* \"#utility.yul\":4586:4591   */\n      dup2\n        /* \"#utility.yul\":4583:4597   */\n      gt\n        /* \"#utility.yul\":4580:4620   */\n      iszero\n      tag_103\n      jumpi\n        /* \"#utility.yul\":4600:4618   */\n      tag_104\n      tag_37\n      jump\t// in\n    tag_104:\n        /* \"#utility.yul\":4580:4620   */\n    tag_103:\n        /* \"#utility.yul\":4633:4638   */\n      jump(tag_92)\n        /* \"#utility.yul\":4402:4648   */\n    tag_102:\n        /* \"#utility.yul\":4673:4715   */\n      tag_105\n        /* \"#utility.yul\":4711:4714   */\n      dup5\n        /* \"#utility.yul\":4701:4709   */\n      dup5\n        /* \"#utility.yul\":4695:4699   */\n      dup5\n        /* \"#utility.yul\":4692:4693   */\n      0x01\n        /* \"#utility.yul\":4673:4715   */\n      tag_40\n      jump\t// in\n    tag_105:\n        /* \"#utility.yul\":4658:4715   */\n      swap3\n      pop\n      swap1\n      pop\n        /* \"#utility.yul\":4747:4751   */\n      dup2\n        /* \"#utility.yul\":4742:4745   */\n      dup5\n        /* \"#utility.yul\":4738:4752   */\n      div\n        /* \"#utility.yul\":4731:4736   */\n      dup2\n        /* \"#utility.yul\":4728:4753   */\n      gt\n        /* \"#utility.yul\":4725:4776   */\n      iszero\n      tag_106\n      jumpi\n        /* \"#utility.yul\":4756:4774   */\n      tag_107\n      tag_37\n      jump\t// in\n    tag_107:\n        /* \"#utility.yul\":4725:4776   */\n    tag_106:\n        /* \"#utility.yul\":4805:4809   */\n      dup2\n        /* \"#utility.yul\":4798:4803   */\n      dup2\n        /* \"#utility.yul\":4794:4810   */\n      mul\n        /* \"#utility.yul\":4785:4810   */\n      swap1\n      pop\n        /* \"#utility.yul\":3743:4816   */\n    tag_92:\n      swap4\n      swap3\n      pop\n      pop\n      pop\n      jump\t// out\n        /* \"#utility.yul\":4822:5107   */\n    tag_29:\n        /* \"#utility.yul\":4882:4887   */\n      0x00\n        /* \"#utility.yul\":4906:4929   */\n      tag_109\n        /* \"#utility.yul\":4924:4928   */\n      dup3\n        /* \"#utility.yul\":4906:4929   */\n      tag_35\n      jump\t// in\n    tag_109:\n        /* \"#utility.yul\":4898:4929   */\n      swap2\n      pop\n        /* \"#utility.yul\":4950:4977   */\n      tag_110\n        /* \"#utility.yul\":4968:4976   */\n      dup4\n        /* \"#utility.yul\":4950:4977   */\n      tag_35\n      jump\t// in\n    tag_110:\n        /* \"#utility.yul\":4938:4977   */\n      swap3\n      pop\n        /* \"#utility.yul\":4996:5100   */\n      tag_111\n        /* \"#utility.yul\":5033:5099   */\n      0xffffffffffffffffffffffffffffffffffffffffffffffffffffffffffffffff\n        /* \"#utility.yul\":5023:5031   */\n      dup5\n        /* \"#utility.yul\":5017:5021   */\n      dup5\n        /* \"#utility.yul\":4996:5100   */\n      tag_41\n      jump\t// in\n    tag_111:\n        /* \"#utility.yul\":4987:5100   */\n      swap1\n      pop\n        /* \"#utility.yul\":4822:5107   */\n      swap3\n      swap2\n      pop\n      pop\n      jump\t// out\n\n    auxdata: 0xa2646970667358221220c084d1a24c332e9bc85a8ed3d69e5b4a2e7c335651cf859c5bb2c45dc065eafe64736f6c634300081e0033\n}\n",
				"bytecode": {
					"linkReferences": {},
					"object": "6080604052348015600e575f5ffd5b506104f98061001c5f395ff3fe608060405234801561000f575f5ffd5b506004361061003f575f3560e01c80633129daba146100435780633205f5fc1461006657806391515d8f14610084575b5f5ffd5b61004b6100a2565b60405161005d96959493929190610171565b60405180910390f35b61006e610110565b60405161007b91906101d0565b60405180910390f35b61008c61012e565b60405161009991906101d0565b60405180910390f35b5f5f5f5f5f5f5f600a90505f6003905080826100be9190610216565b81836100ca9190610249565b82846100d6919061027c565b83856100e291906102ea565b84866100ee919061031a565b85876100fa9190610479565b9750975097509750975097505050909192939495565b5f5f600a90505f60039050808261012791906102ea565b9250505090565b5f5f600a90505f60039050806103e883610148919061027c565b61015291906102ea565b9250505090565b5f819050919050565b61016b81610159565b82525050565b5f60c0820190506101845f830189610162565b6101916020830188610162565b61019e6040830187610162565b6101ab6060830186610162565b6101b86080830185610162565b6101c560a0830184610162565b979650505050505050565b5f6020820190506101e35f830184610162565b92915050565b7f4e487b71000000000000000000000000000000000000000000000000000000005f52601160045260245ffd5b5f61022082610159565b915061022b83610159565b9250828201905080821115610243576102426101e9565b5b92915050565b5f61025382610159565b915061025e83610159565b9250828203905081811115610276576102756101e9565b5b92915050565b5f61028682610159565b915061029183610159565b925082820261029f81610159565b915082820484148315176102b6576102b56101e9565b5b5092915050565b7f4e487b71000000000000000000000000000000000000000000000000000000005f52601260045260245ffd5b5f6102f482610159565b91506102ff83610159565b92508261030f5761030e6102bd565b5b828204905092915050565b5f61032482610159565b915061032f83610159565b92508261033f5761033e6102bd565b5b828206905092915050565b5f8160011c9050919050565b5f5f8291508390505b600185111561039f5780860481111561037b5761037a6101e9565b5b600185161561038a5780820291505b80810290506103988561034a565b945061035f565b94509492505050565b5f826103b75760019050610472565b816103c4575f9050610472565b81600181146103da57600281146103e457610413565b6001915050610472565b60ff8411156103f6576103f56101e9565b5b8360020a91508482111561040d5761040c6101e9565b5b50610472565b5060208310610133831016604e8410600b84101617156104485782820a905083811115610443576104426101e9565b5b610472565b6104558484846001610356565b9250905081840481111561046c5761046b6101e9565b5b81810290505b9392505050565b5f61048382610159565b915061048e83610159565b92506104bb7fffffffffffffffffffffffffffffffffffffffffffffffffffffffffffffffff84846103a8565b90509291505056fea2646970667358221220c084d1a24c332e9bc85a8ed3d69e5b4a2e7c335651cf859c5bb2c45dc065eafe64736f6c634300081e0033",
					"opcodes": "PUSH1 0x80 PUSH1 0x40 MSTORE CALLVALUE DUP1 ISZERO PUSH1 0xE JUMPI PUSH0 PUSH0 REVERT JUMPDEST POP PUSH2 0x4F9 DUP1 PUSH2 0x1C PUSH0 CODECOPY PUSH0 RETURN INVALID PUSH1 0x80 PUSH1 0x40 MSTORE CALLVALUE DUP1 ISZERO PUSH2 0xF JUMPI PUSH0 PUSH0 REVERT JUMPDEST POP PUSH1 0x4 CALLDATASIZE LT PUSH2 0x3F JUMPI PUSH0 CALLDATALOAD PUSH1 0xE0 SHR DUP1 PUSH4 0x3129DABA EQ PUSH2 0x43 JUMPI DUP1 PUSH4 0x3205F5FC EQ PUSH2 0x66 JUMPI DUP1 PUSH4 0x91515D8F EQ PUSH2 0x84 JUMPI JUMPDEST PUSH0 PUSH0 REVERT JUMPDEST PUSH2 0x4B PUSH2 0xA2 JUMP JUMPDEST PUSH1 0x40 MLOAD PUSH2 0x5D SWAP7 SWAP6 SWAP5 SWAP4 SWAP3 SWAP2 SWAP1 PUSH2 0x171 JUMP JUMPDEST PUSH1 0x40 MLOAD DUP1 SWAP2 SUB SWAP1 RETURN JUMPDEST PUSH2 0x6E PUSH2 0x110 JUMP JUMPDEST PUSH1 0x40 MLOAD PUSH2 0x7B SWAP2 SWAP1 PUSH2 0x1D0 JUMP JUMPDEST PUSH1 0x40 MLOAD DUP1 SWAP2 SUB SWAP1 RETURN JUMPDEST PUSH2 0x8C PUSH2 0x12E JUMP JUMPDEST PUSH1 0x40 MLOAD PUSH2 0x99 SWAP2 SWAP1 PUSH2 0x1D0 JUMP JUMPDEST PUSH1 0x40 MLOAD DUP1 SWAP2 SUB SWAP1 RETURN JUMPDEST PUSH0 PUSH0 PUSH0 PUSH0 PUSH0 PUSH0 PUSH0 PUSH1 0xA SWAP1 POP PUSH0 PUSH1 0x3 SWAP1 POP DUP1 DUP3 PUSH2 0xBE SWAP2 SWAP1 PUSH2 0x216 JUMP JUMPDEST DUP2 DUP4 PUSH2 0xCA SWAP2 SWAP1 PUSH2 0x249 JUMP JUMPDEST DUP3 DUP5 PUSH2 0xD6 SWAP2 SWAP1 PUSH2 0x27C JUMP JUMPDEST DUP4 DUP6 PUSH2 0xE2 SWAP2 SWAP1 PUSH2 0x2EA JUMP JUMPDEST DUP5 DUP7 PUSH2 0xEE SWAP2 SWAP1 PUSH2 0x31A JUMP JUMPDEST DUP6 DUP8 PUSH2 0xFA SWAP2 SWAP1 PUSH2 0x479 JUMP JUMPDEST SWAP8 POP SWAP8 POP SWAP8 POP SWAP8 POP SWAP8 POP SWAP8 POP POP POP SWAP1 SWAP2 SWAP3 SWAP4 SWAP5 SWAP6 JUMP JUMPDEST PUSH0 PUSH0 PUSH1 0xA SWAP1 POP PUSH0 PUSH1 0x3 SWAP1 POP DUP1 DUP3 PUSH2 0x127 SWAP2 SWAP1 PUSH2 0x2EA JUMP JUMPDEST SWAP3 POP POP POP SWAP1 JUMP JUMPDEST PUSH0 PUSH0 PUSH1 0xA SWAP1 POP PUSH0 PUSH1 0x3 SWAP1 POP DUP1 PUSH2 0x3E8 DUP4 PUSH2 0x148 SWAP2 SWAP1 PUSH2 0x27C JUMP JUMPDEST PUSH2 0x152 SWAP2 SWAP1 PUSH2 0x2EA JUMP JUMPDEST SWAP3 POP POP POP SWAP1 JUMP JUMPDEST PUSH0 DUP2 SWAP1 POP SWAP2 SWAP1 POP JUMP JUMPDEST PUSH2 0x16B DUP2 PUSH2 0x159 JUMP JUMPDEST DUP3 MSTORE POP POP JUMP JUMPDEST PUSH0 PUSH1 0xC0 DUP3 ADD SWAP1 POP PUSH2 0x184 PUSH0 DUP4 ADD DUP10 PUSH2 0x162 JUMP JUMPDEST PUSH2 0x191 PUSH1 0x20 DUP4 ADD DUP9 PUSH2 0x162 JUMP JUMPDEST PUSH2 0x19E PUSH1 0x40 DUP4 ADD DUP8 PUSH2 0x162 JUMP JUMPDEST PUSH2 0x1AB PUSH1 0x60 DUP4 ADD DUP7 PUSH2 0x162 JUMP JUMPDEST PUSH2 0x1B8 PUSH1 0x80 DUP4 ADD DUP6 PUSH2 0x162 JUMP JUMPDEST PUSH2 0x1C5 PUSH1 0xA0 DUP4 ADD DUP5 PUSH2 0x162 JUMP JUMPDEST SWAP8 SWAP7 POP POP POP POP POP POP POP JUMP JUMPDEST PUSH0 PUSH1 0x20 DUP3 ADD SWAP1 POP PUSH2 0x1E3 PUSH0 DUP4 ADD DUP5 PUSH2 0x162 JUMP JUMPDEST SWAP3 SWAP2 POP POP JUMP JUMPDEST PUSH32 0x4E487B7100000000000000000000000000000000000000000000000000000000 PUSH0 MSTORE PUSH1 0x11 PUSH1 0x4 MSTORE PUSH1 0x24 PUSH0 REVERT JUMPDEST PUSH0 PUSH2 0x220 DUP3 PUSH2 0x159 JUMP JUMPDEST SWAP2 POP PUSH2 0x22B DUP4 PUSH2 0x159 JUMP JUMPDEST SWAP3 POP DUP3 DUP3 ADD SWAP1 POP DUP1 DUP3 GT ISZERO PUSH2 0x243 JUMPI PUSH2 0x242 PUSH2 0x1E9 JUMP JUMPDEST JUMPDEST SWAP3 SWAP2 POP POP JUMP JUMPDEST PUSH0 PUSH2 0x253 DUP3 PUSH2 0x159 JUMP JUMPDEST SWAP2 POP PUSH2 0x25E DUP4 PUSH2 0x159 JUMP JUMPDEST SWAP3 POP DUP3 DUP3 SUB SWAP1 POP DUP2 DUP2 GT ISZERO PUSH2 0x276 JUMPI PUSH2 0x275 PUSH2 0x1E9 JUMP JUMPDEST JUMPDEST SWAP3 SWAP2 POP POP JUMP JUMPDEST PUSH0 PUSH2 0x286 DUP3 PUSH2 0x159 JUMP JUMPDEST SWAP2 POP PUSH2 0x291 DUP4 PUSH2 0x159 JUMP JUMPDEST SWAP3 POP DUP3 DUP3 MUL PUSH2 0x29F DUP2 PUSH2 0x159 JUMP JUMPDEST SWAP2 POP DUP3 DUP3 DIV DUP5 EQ DUP4 ISZERO OR PUSH2 0x2B6 JUMPI PUSH2 0x2B5 PUSH2 0x1E9 JUMP JUMPDEST JUMPDEST POP SWAP3 SWAP2 POP POP JUMP JUMPDEST PUSH32 0x4E487B7100000000000000000000000000000000000000000000000000000000 PUSH0 MSTORE PUSH1 0x12 PUSH1 0x4 MSTORE PUSH1 0x24 PUSH0 REVERT JUMPDEST PUSH0 PUSH2 0x2F4 DUP3 PUSH2 0x159 JUMP JUMPDEST SWAP2 POP PUSH2 0x2FF DUP4 PUSH2 0x159 JUMP JUMPDEST SWAP3 POP DUP3 PUSH2 0x30F JUMPI PUSH2 0x30E PUSH2 0x2BD JUMP JUMPDEST JUMPDEST DUP3 DUP3 DIV SWAP1 POP SWAP3 SWAP2 POP POP JUMP JUMPDEST PUSH0 PUSH2 0x324 DUP3 PUSH2 0x159 JUMP JUMPDEST SWAP2 POP PUSH2 0x32F DUP4 PUSH2 0x159 JUMP JUMPDEST SWAP3 POP DUP3 PUSH2 0x33F JUMPI PUSH2 0x33E PUSH2 0x2BD JUMP JUMPDEST JUMPDEST DUP3 DUP3 MOD SWAP1 POP SWAP3 SWAP2 POP POP JUMP JUMPDEST PUSH0 DUP2 PUSH1 0x1 SHR SWAP1 POP SWAP2 SWAP1 POP JUMP JUMPDEST PUSH0 PUSH0 DUP3 SWAP2 POP DUP4 SWAP1 POP JUMPDEST PUSH1 0x1 DUP6 GT ISZERO PUSH2 0x39F JUMPI DUP1 DUP7 DIV DUP2 GT ISZERO PUSH2 0x37B JUMPI PUSH2 0x37A PUSH2 0x1E9 JUMP JUMPDEST JUMPDEST PUSH1 0x1 DUP6 AND ISZERO PUSH2 0x38A JUMPI DUP1 DUP3 MUL SWAP2 POP JUMPDEST DUP1 DUP2 MUL SWAP1 POP PUSH2 0x398 DUP6 PUSH2 0x34A JUMP JUMPDEST SWAP5 POP PUSH2 0x35F JUMP JUMPDEST SWAP5 POP SWAP5 SWAP3 POP POP POP JUMP JUMPDEST PUSH0 DUP3 PUSH2 0x3B7 JUMPI PUSH1 0x1 SWAP1 POP PUSH2 0x472 JUMP JUMPDEST DUP2 PUSH2 0x3C4 JUMPI PUSH0 SWAP1 POP PUSH2 0x472 JUMP JUMPDEST DUP2 PUSH1 0x1 DUP2 EQ PUSH2 0x3DA JUMPI PUSH1 0x2 DUP2 EQ PUSH2 0x3E4 JUMPI PUSH2 0x413 JUMP JUMPDEST PUSH1 0x1 SWAP2 POP POP PUSH2 0x472 JUMP JUMPDEST PUSH1 0xFF DUP5 GT ISZERO PUSH2 0x3F6 JUMPI PUSH2 0x3F5 PUSH2 0x1E9 JUMP JUMPDEST JUMPDEST DUP4 PUSH1 0x2 EXP SWAP2 POP DUP5 DUP3 GT ISZERO PUSH2 0x40D JUMPI PUSH2 0x40C PUSH2 0x1E9 JUMP JUMPDEST JUMPDEST POP PUSH2 0x472 JUMP JUMPDEST POP PUSH1 0x20 DUP4 LT PUSH2 0x133 DUP4 LT AND PUSH1 0x4E DUP5 LT PUSH1 0xB DUP5 LT AND OR ISZERO PUSH2 0x448 JUMPI DUP3 DUP3 EXP SWAP1 POP DUP4 DUP2 GT ISZERO PUSH2 0x443 JUMPI PUSH2 0x442 PUSH2 0x1E9 JUMP JUMPDEST JUMPDEST PUSH2 0x472 JUMP JUMPDEST PUSH2 0x455 DUP5 DUP5 DUP5 PUSH1 0x1 PUSH2 0x356 JUMP JUMPDEST SWAP3 POP SWAP1 POP DUP2 DUP5 DIV DUP2 GT ISZERO PUSH2 0x46C JUMPI PUSH2 0x46B PUSH2 0x1E9 JUMP JUMPDEST JUMPDEST DUP2 DUP2 MUL SWAP1 POP JUMPDEST SWAP4 SWAP3 POP POP POP JUMP JUMPDEST PUSH0 PUSH2 0x483 DUP3 PUSH2 0x159 JUMP JUMPDEST SWAP2 POP PUSH2 0x48E DUP4 PUSH2 0x159 JUMP JUMPDEST SWAP3 POP PUSH2 0x4BB PUSH32 0xFFFFFFFFFFFFFFFFFFFFFFFFFFFFFFFFFFFFFFFFFFFFFFFFFFFFFFFFFFFFFFFF DUP5 DUP5 PUSH2 0x3A8 JUMP JUMPDEST SWAP1 POP SWAP3 SWAP2 POP POP JUMP INVALID LOG2 PUSH5 0x6970667358 0x22 SLT KECCAK256 0xC0 DUP5 DATALOADN 0xA24C CALLER 0x2E SWAP12 0xC8 GAS DUP15 0xD3 0xD6 SWAP15 JUMPDEST BLOBBASEFEE 0x2E PUSH29 0x335651CF859C5BB2C45DC065EAFE64736F6C634300081E003300000000 "
				},
				"gasEstimates": {
					"creation": {
						"codeDepositCost": "254600",
						"executionCost": "292",
						"totalCost": "254892"
					},
					"external": {
						"arithmeticOperations()": "infinite",
						"divideWithPrecision()": "infinite",
						"division()": "infinite"
					}
				},
				"methodIdentifiers": {
					"arithmeticOperations()": "3129daba",
					"divideWithPrecision()": "91515d8f",
					"division()": "3205f5fc"
				}
			},
			"storageLayout": {
				"storage": [],
				"types": null
			},
			"userdoc": {
				"kind": "user",
				"methods": {},
				"version": 1
			}
		}
	}
}