{
	"@course/meta-node/solidity/mine/solidity_lesson/study_code/1.2/RefactoringPattern.sol": {
		"RefactoringPattern": {
			"abi": [
				{
					"inputs": [],
					"name": "doubleValue",
					"outputs": [],
					"stateMutability": "nonpayable",
					"type": "function"
				},
				{
					"inputs": [],
					"name": "resetValue",
					"outputs": [],
					"stateMutability": "nonpayable",
					"type": "function"
				},
				{
					"inputs": [
						{
							"internalType": "uint256",
							"name": "newValue",
							"type": "uint256"
						}
					],
					"name": "setValue",
					"outputs": [],
					"stateMutability": "nonpayable",
					"type": "function"
				},
				{
					"inputs": [],
					"name": "value",
					"outputs": [
						{
							"internalType": "uint256",
							"name": "",
							"type": "uint256"
						}
					],
					"stateMutability": "view",
					"type": "function"
				}
			],
			"devdoc": {
				"kind": "dev",
				"methods": {},
				"version": 1
			},
			"evm": {
				"assembly": "    /* \"@course/meta-node/solidity/mine/solidity_lesson/study_code/1.2/RefactoringPattern.sol\":60:718  contract RefactoringPattern {... */\n  mstore(0x40, 0x80)\n  callvalue\n  dup1\n  iszero\n  tag_1\n  jumpi\n  revert(0x00, 0x00)\ntag_1:\n  pop\n  dataSize(sub_0)\n  dup1\n  dataOffset(sub_0)\n  0x00\n  codecopy\n  0x00\n  return\nstop\n\nsub_0: assembly {\n        /* \"@course/meta-node/solidity/mine/solidity_lesson/study_code/1.2/RefactoringPattern.sol\":60:718  contract RefactoringPattern {... */\n      mstore(0x40, 0x80)\n      callvalue\n      dup1\n      iszero\n      tag_1\n      jumpi\n      revert(0x00, 0x00)\n    tag_1:\n      pop\n      jumpi(tag_2, lt(calldatasize, 0x04))\n      shr(0xe0, calldataload(0x00))\n      dup1\n      0x16e9fe81\n      eq\n      tag_3\n      jumpi\n      dup1\n      0x3fa4f245\n      eq\n      tag_4\n      jumpi\n      dup1\n      0x55241077\n      eq\n      tag_5\n      jumpi\n      dup1\n      0xe3778184\n      eq\n      tag_6\n      jumpi\n    tag_2:\n      revert(0x00, 0x00)\n        /* \"@course/meta-node/solidity/mine/solidity_lesson/study_code/1.2/RefactoringPattern.sol\":627:715  function resetValue() external {... */\n    tag_3:\n      tag_7\n      tag_8\n      jump\t// in\n    tag_7:\n      stop\n        /* \"@course/meta-node/solidity/mine/solidity_lesson/study_code/1.2/RefactoringPattern.sol\":95:115  uint256 public value */\n    tag_4:\n      tag_9\n      tag_10\n      jump\t// in\n    tag_9:\n      mload(0x40)\n      tag_11\n      swap2\n      swap1\n      tag_12\n      jump\t// in\n    tag_11:\n      mload(0x40)\n      dup1\n      swap2\n      sub\n      swap1\n      return\n        /* \"@course/meta-node/solidity/mine/solidity_lesson/study_code/1.2/RefactoringPattern.sol\":370:453  function setValue(uint256 newValue) external {... */\n    tag_5:\n      tag_13\n      0x04\n      dup1\n      calldatasize\n      sub\n      dup2\n      add\n      swap1\n      tag_14\n      swap2\n      swap1\n      tag_15\n      jump\t// in\n    tag_14:\n      tag_16\n      jump\t// in\n    tag_13:\n      stop\n        /* \"@course/meta-node/solidity/mine/solidity_lesson/study_code/1.2/RefactoringPattern.sol\":518:615  function doubleValue() external {... */\n    tag_6:\n      tag_17\n      tag_18\n      jump\t// in\n    tag_17:\n      stop\n        /* \"@course/meta-node/solidity/mine/solidity_lesson/study_code/1.2/RefactoringPattern.sol\":627:715  function resetValue() external {... */\n    tag_8:\n        /* \"@course/meta-node/solidity/mine/solidity_lesson/study_code/1.2/RefactoringPattern.sol\":669:681  _setValue(1) */\n      tag_20\n        /* \"@course/meta-node/solidity/mine/solidity_lesson/study_code/1.2/RefactoringPattern.sol\":679:680  1 */\n      0x01\n        /* \"@course/meta-node/solidity/mine/solidity_lesson/study_code/1.2/RefactoringPattern.sol\":669:678  _setValue */\n      tag_21\n        /* \"@course/meta-node/solidity/mine/solidity_lesson/study_code/1.2/RefactoringPattern.sol\":669:681  _setValue(1) */\n      jump\t// in\n    tag_20:\n        /* \"@course/meta-node/solidity/mine/solidity_lesson/study_code/1.2/RefactoringPattern.sol\":627:715  function resetValue() external {... */\n      jump\t// out\n        /* \"@course/meta-node/solidity/mine/solidity_lesson/study_code/1.2/RefactoringPattern.sol\":95:115  uint256 public value */\n    tag_10:\n      sload(0x00)\n      dup2\n      jump\t// out\n        /* \"@course/meta-node/solidity/mine/solidity_lesson/study_code/1.2/RefactoringPattern.sol\":370:453  function setValue(uint256 newValue) external {... */\n    tag_16:\n        /* \"@course/meta-node/solidity/mine/solidity_lesson/study_code/1.2/RefactoringPattern.sol\":426:445  _setValue(newValue) */\n      tag_23\n        /* \"@course/meta-node/solidity/mine/solidity_lesson/study_code/1.2/RefactoringPattern.sol\":436:444  newValue */\n      dup2\n        /* \"@course/meta-node/solidity/mine/solidity_lesson/study_code/1.2/RefactoringPattern.sol\":426:435  _setValue */\n      tag_21\n        /* \"@course/meta-node/solidity/mine/solidity_lesson/study_code/1.2/RefactoringPattern.sol\":426:445  _setValue(newValue) */\n      jump\t// in\n    tag_23:\n        /* \"@course/meta-node/solidity/mine/solidity_lesson/study_code/1.2/RefactoringPattern.sol\":370:453  function setValue(uint256 newValue) external {... */\n      pop\n      jump\t// out\n        /* \"@course/meta-node/solidity/mine/solidity_lesson/study_code/1.2/RefactoringPattern.sol\":518:615  function doubleValue() external {... */\n    tag_18:\n        /* \"@course/meta-node/solidity/mine/solidity_lesson/study_code/1.2/RefactoringPattern.sol\":561:581  _setValue(value * 2) */\n      tag_25\n        /* \"@course/meta-node/solidity/mine/solidity_lesson/study_code/1.2/RefactoringPattern.sol\":579:580  2 */\n      0x02\n        /* \"@course/meta-node/solidity/mine/solidity_lesson/study_code/1.2/RefactoringPattern.sol\":571:576  value */\n      sload(0x00)\n        /* \"@course/meta-node/solidity/mine/solidity_lesson/study_code/1.2/RefactoringPattern.sol\":571:580  value * 2 */\n      tag_26\n      swap2\n      swap1\n      tag_27\n      jump\t// in\n    tag_26:\n        /* \"@course/meta-node/solidity/mine/solidity_lesson/study_code/1.2/RefactoringPattern.sol\":561:570  _setValue */\n      tag_21\n        /* \"@course/meta-node/solidity/mine/solidity_lesson/study_code/1.2/RefactoringPattern.sol\":561:581  _setValue(value * 2) */\n      jump\t// in\n    tag_25:\n        /* \"@course/meta-node/solidity/mine/solidity_lesson/study_code/1.2/RefactoringPattern.sol\":518:615  function doubleValue() external {... */\n      jump\t// out\n        /* \"@course/meta-node/solidity/mine/solidity_lesson/study_code/1.2/RefactoringPattern.sol\":190:320  function _setValue(uint256 newValue) internal {... */\n    tag_21:\n        /* \"@course/meta-node/solidity/mine/solidity_lesson/study_code/1.2/RefactoringPattern.sol\":266:267  0 */\n      0x00\n        /* \"@course/meta-node/solidity/mine/solidity_lesson/study_code/1.2/RefactoringPattern.sol\":255:263  newValue */\n      dup2\n        /* \"@course/meta-node/solidity/mine/solidity_lesson/study_code/1.2/RefactoringPattern.sol\":255:267  newValue > 0 */\n      gt\n        /* \"@course/meta-node/solidity/mine/solidity_lesson/study_code/1.2/RefactoringPattern.sol\":247:285  require(newValue > 0, \"Invalid value\") */\n      tag_29\n      jumpi\n      mload(0x40)\n      0x08c379a000000000000000000000000000000000000000000000000000000000\n      dup2\n      mstore\n      0x04\n      add\n      tag_30\n      swap1\n      tag_31\n      jump\t// in\n    tag_30:\n      mload(0x40)\n      dup1\n      swap2\n      sub\n      swap1\n      revert\n    tag_29:\n        /* \"@course/meta-node/solidity/mine/solidity_lesson/study_code/1.2/RefactoringPattern.sol\":304:312  newValue */\n      dup1\n        /* \"@course/meta-node/solidity/mine/solidity_lesson/study_code/1.2/RefactoringPattern.sol\":296:301  value */\n      0x00\n        /* \"@course/meta-node/solidity/mine/solidity_lesson/study_code/1.2/RefactoringPattern.sol\":296:312  value = newValue */\n      dup2\n      swap1\n      sstore\n      pop\n        /* \"@course/meta-node/solidity/mine/solidity_lesson/study_code/1.2/RefactoringPattern.sol\":190:320  function _setValue(uint256 newValue) internal {... */\n      pop\n      jump\t// out\n        /* \"#utility.yul\":7:84   */\n    tag_32:\n        /* \"#utility.yul\":44:51   */\n      0x00\n        /* \"#utility.yul\":73:78   */\n      dup2\n        /* \"#utility.yul\":62:78   */\n      swap1\n      pop\n        /* \"#utility.yul\":7:84   */\n      swap2\n      swap1\n      pop\n      jump\t// out\n        /* \"#utility.yul\":90:208   */\n    tag_33:\n        /* \"#utility.yul\":177:201   */\n      tag_46\n        /* \"#utility.yul\":195:200   */\n      dup2\n        /* \"#utility.yul\":177:201   */\n      tag_32\n      jump\t// in\n    tag_46:\n        /* \"#utility.yul\":172:175   */\n      dup3\n        /* \"#utility.yul\":165:202   */\n      mstore\n        /* \"#utility.yul\":90:208   */\n      pop\n      pop\n      jump\t// out\n        /* \"#utility.yul\":214:436   */\n    tag_12:\n        /* \"#utility.yul\":307:311   */\n      0x00\n        /* \"#utility.yul\":345:347   */\n      0x20\n        /* \"#utility.yul\":334:343   */\n      dup3\n        /* \"#utility.yul\":330:348   */\n      add\n        /* \"#utility.yul\":322:348   */\n      swap1\n      pop\n        /* \"#utility.yul\":358:429   */\n      tag_48\n        /* \"#utility.yul\":426:427   */\n      0x00\n        /* \"#utility.yul\":415:424   */\n      dup4\n        /* \"#utility.yul\":411:428   */\n      add\n        /* \"#utility.yul\":402:408   */\n      dup5\n        /* \"#utility.yul\":358:429   */\n      tag_33\n      jump\t// in\n    tag_48:\n        /* \"#utility.yul\":214:436   */\n      swap3\n      swap2\n      pop\n      pop\n      jump\t// out\n        /* \"#utility.yul\":523:640   */\n    tag_35:\n        /* \"#utility.yul\":632:633   */\n      0x00\n        /* \"#utility.yul\":629:630   */\n      0x00\n        /* \"#utility.yul\":622:634   */\n      revert\n        /* \"#utility.yul\":769:891   */\n    tag_37:\n        /* \"#utility.yul\":842:866   */\n      tag_53\n        /* \"#utility.yul\":860:865   */\n      dup2\n        /* \"#utility.yul\":842:866   */\n      tag_32\n      jump\t// in\n    tag_53:\n        /* \"#utility.yul\":835:840   */\n      dup2\n        /* \"#utility.yul\":832:867   */\n      eq\n        /* \"#utility.yul\":822:885   */\n      tag_54\n      jumpi\n        /* \"#utility.yul\":881:882   */\n      0x00\n        /* \"#utility.yul\":878:879   */\n      0x00\n        /* \"#utility.yul\":871:883   */\n      revert\n        /* \"#utility.yul\":822:885   */\n    tag_54:\n        /* \"#utility.yul\":769:891   */\n      pop\n      jump\t// out\n        /* \"#utility.yul\":897:1036   */\n    tag_38:\n        /* \"#utility.yul\":943:948   */\n      0x00\n        /* \"#utility.yul\":981:987   */\n      dup2\n        /* \"#utility.yul\":968:988   */\n      calldataload\n        /* \"#utility.yul\":959:988   */\n      swap1\n      pop\n        /* \"#utility.yul\":997:1030   */\n      tag_56\n        /* \"#utility.yul\":1024:1029   */\n      dup2\n        /* \"#utility.yul\":997:1030   */\n      tag_37\n      jump\t// in\n    tag_56:\n        /* \"#utility.yul\":897:1036   */\n      swap3\n      swap2\n      pop\n      pop\n      jump\t// out\n        /* \"#utility.yul\":1042:1371   */\n    tag_15:\n        /* \"#utility.yul\":1101:1107   */\n      0x00\n        /* \"#utility.yul\":1150:1152   */\n      0x20\n        /* \"#utility.yul\":1138:1147   */\n      dup3\n        /* \"#utility.yul\":1129:1136   */\n      dup5\n        /* \"#utility.yul\":1125:1148   */\n      sub\n        /* \"#utility.yul\":1121:1153   */\n      slt\n        /* \"#utility.yul\":1118:1237   */\n      iszero\n      tag_58\n      jumpi\n        /* \"#utility.yul\":1156:1235   */\n      tag_59\n      tag_35\n      jump\t// in\n    tag_59:\n        /* \"#utility.yul\":1118:1237   */\n    tag_58:\n        /* \"#utility.yul\":1276:1277   */\n      0x00\n        /* \"#utility.yul\":1301:1354   */\n      tag_60\n        /* \"#utility.yul\":1346:1353   */\n      dup5\n        /* \"#utility.yul\":1337:1343   */\n      dup3\n        /* \"#utility.yul\":1326:1335   */\n      dup6\n        /* \"#utility.yul\":1322:1344   */\n      add\n        /* \"#utility.yul\":1301:1354   */\n      tag_38\n      jump\t// in\n    tag_60:\n        /* \"#utility.yul\":1291:1354   */\n      swap2\n      pop\n        /* \"#utility.yul\":1247:1364   */\n      pop\n        /* \"#utility.yul\":1042:1371   */\n      swap3\n      swap2\n      pop\n      pop\n      jump\t// out\n        /* \"#utility.yul\":1377:1557   */\n    tag_39:\n        /* \"#utility.yul\":1425:1502   */\n      0x4e487b7100000000000000000000000000000000000000000000000000000000\n        /* \"#utility.yul\":1422:1423   */\n      0x00\n        /* \"#utility.yul\":1415:1503   */\n      mstore\n        /* \"#utility.yul\":1522:1526   */\n      0x11\n        /* \"#utility.yul\":1519:1520   */\n      0x04\n        /* \"#utility.yul\":1512:1527   */\n      mstore\n        /* \"#utility.yul\":1546:1550   */\n      0x24\n        /* \"#utility.yul\":1543:1544   */\n      0x00\n        /* \"#utility.yul\":1536:1551   */\n      revert\n        /* \"#utility.yul\":1563:1973   */\n    tag_27:\n        /* \"#utility.yul\":1603:1610   */\n      0x00\n        /* \"#utility.yul\":1626:1646   */\n      tag_63\n        /* \"#utility.yul\":1644:1645   */\n      dup3\n        /* \"#utility.yul\":1626:1646   */\n      tag_32\n      jump\t// in\n    tag_63:\n        /* \"#utility.yul\":1621:1646   */\n      swap2\n      pop\n        /* \"#utility.yul\":1660:1680   */\n      tag_64\n        /* \"#utility.yul\":1678:1679   */\n      dup4\n        /* \"#utility.yul\":1660:1680   */\n      tag_32\n      jump\t// in\n    tag_64:\n        /* \"#utility.yul\":1655:1680   */\n      swap3\n      pop\n        /* \"#utility.yul\":1715:1716   */\n      dup3\n        /* \"#utility.yul\":1712:1713   */\n      dup3\n        /* \"#utility.yul\":1708:1717   */\n      mul\n        /* \"#utility.yul\":1737:1767   */\n      tag_65\n        /* \"#utility.yul\":1755:1766   */\n      dup2\n        /* \"#utility.yul\":1737:1767   */\n      tag_32\n      jump\t// in\n    tag_65:\n        /* \"#utility.yul\":1726:1767   */\n      swap2\n      pop\n        /* \"#utility.yul\":1916:1917   */\n      dup3\n        /* \"#utility.yul\":1907:1914   */\n      dup3\n        /* \"#utility.yul\":1903:1918   */\n      div\n        /* \"#utility.yul\":1900:1901   */\n      dup5\n        /* \"#utility.yul\":1897:1919   */\n      eq\n        /* \"#utility.yul\":1877:1878   */\n      dup4\n        /* \"#utility.yul\":1870:1879   */\n      iszero\n        /* \"#utility.yul\":1850:1933   */\n      or\n        /* \"#utility.yul\":1827:1966   */\n      tag_66\n      jumpi\n        /* \"#utility.yul\":1946:1964   */\n      tag_67\n      tag_39\n      jump\t// in\n    tag_67:\n        /* \"#utility.yul\":1827:1966   */\n    tag_66:\n        /* \"#utility.yul\":1611:1973   */\n      pop\n        /* \"#utility.yul\":1563:1973   */\n      swap3\n      swap2\n      pop\n      pop\n      jump\t// out\n        /* \"#utility.yul\":1979:2148   */\n    tag_40:\n        /* \"#utility.yul\":2063:2074   */\n      0x00\n        /* \"#utility.yul\":2097:2103   */\n      dup3\n        /* \"#utility.yul\":2092:2095   */\n      dup3\n        /* \"#utility.yul\":2085:2104   */\n      mstore\n        /* \"#utility.yul\":2137:2141   */\n      0x20\n        /* \"#utility.yul\":2132:2135   */\n      dup3\n        /* \"#utility.yul\":2128:2142   */\n      add\n        /* \"#utility.yul\":2113:2142   */\n      swap1\n      pop\n        /* \"#utility.yul\":1979:2148   */\n      swap3\n      swap2\n      pop\n      pop\n      jump\t// out\n        /* \"#utility.yul\":2154:2317   */\n    tag_41:\n        /* \"#utility.yul\":2294:2309   */\n      0x496e76616c69642076616c756500000000000000000000000000000000000000\n        /* \"#utility.yul\":2290:2291   */\n      0x00\n        /* \"#utility.yul\":2282:2288   */\n      dup3\n        /* \"#utility.yul\":2278:2292   */\n      add\n        /* \"#utility.yul\":2271:2310   */\n      mstore\n        /* \"#utility.yul\":2154:2317   */\n      pop\n      jump\t// out\n        /* \"#utility.yul\":2323:2689   */\n    tag_42:\n        /* \"#utility.yul\":2465:2468   */\n      0x00\n        /* \"#utility.yul\":2486:2553   */\n      tag_71\n        /* \"#utility.yul\":2550:2552   */\n      0x0d\n        /* \"#utility.yul\":2545:2548   */\n      dup4\n        /* \"#utility.yul\":2486:2553   */\n      tag_40\n      jump\t// in\n    tag_71:\n        /* \"#utility.yul\":2479:2553   */\n      swap2\n      pop\n        /* \"#utility.yul\":2562:2655   */\n      tag_72\n        /* \"#utility.yul\":2651:2654   */\n      dup3\n        /* \"#utility.yul\":2562:2655   */\n      tag_41\n      jump\t// in\n    tag_72:\n        /* \"#utility.yul\":2680:2682   */\n      0x20\n        /* \"#utility.yul\":2675:2678   */\n      dup3\n        /* \"#utility.yul\":2671:2683   */\n      add\n        /* \"#utility.yul\":2664:2683   */\n      swap1\n      pop\n        /* \"#utility.yul\":2323:2689   */\n      swap2\n      swap1\n      pop\n      jump\t// out\n        /* \"#utility.yul\":2695:3114   */\n    tag_31:\n        /* \"#utility.yul\":2861:2865   */\n      0x00\n        /* \"#utility.yul\":2899:2901   */\n      0x20\n        /* \"#utility.yul\":2888:2897   */\n      dup3\n        /* \"#utility.yul\":2884:2902   */\n      add\n        /* \"#utility.yul\":2876:2902   */\n      swap1\n      pop\n        /* \"#utility.yul\":2948:2957   */\n      dup2\n        /* \"#utility.yul\":2942:2946   */\n      dup2\n        /* \"#utility.yul\":2938:2958   */\n      sub\n        /* \"#utility.yul\":2934:2935   */\n      0x00\n        /* \"#utility.yul\":2923:2932   */\n      dup4\n        /* \"#utility.yul\":2919:2936   */\n      add\n        /* \"#utility.yul\":2912:2959   */\n      mstore\n        /* \"#utility.yul\":2976:3107   */\n      tag_74\n        /* \"#utility.yul\":3102:3106   */\n      dup2\n        /* \"#utility.yul\":2976:3107   */\n      tag_42\n      jump\t// in\n    tag_74:\n        /* \"#utility.yul\":2968:3107   */\n      swap1\n      pop\n        /* \"#utility.yul\":2695:3114   */\n      swap2\n      swap1\n      pop\n      jump\t// out\n\n    auxdata: 0xa2646970667358221220c988b611cca4f51abbe67b5d1c94a107505017bdd32a871f1b6b70cd70bbfbfb64736f6c634300081e0033\n}\n",
				"bytecode": {
					"linkReferences": {},
					"object": "6080604052348015600e575f5ffd5b506102c28061001c5f395ff3fe608060405234801561000f575f5ffd5b506004361061004a575f3560e01c806316e9fe811461004e5780633fa4f245146100585780635524107714610076578063e377818414610092575b5f5ffd5b61005661009c565b005b6100606100a8565b60405161006d9190610134565b60405180910390f35b610090600480360381019061008b919061017b565b6100ad565b005b61009a6100b9565b005b6100a660016100d1565b565b5f5481565b6100b6816100d1565b50565b6100cf60025f546100ca91906101d3565b6100d1565b565b5f8111610113576040517f08c379a000000000000000000000000000000000000000000000000000000000815260040161010a9061026e565b60405180910390fd5b805f8190555050565b5f819050919050565b61012e8161011c565b82525050565b5f6020820190506101475f830184610125565b92915050565b5f5ffd5b61015a8161011c565b8114610164575f5ffd5b50565b5f8135905061017581610151565b92915050565b5f602082840312156101905761018f61014d565b5b5f61019d84828501610167565b91505092915050565b7f4e487b71000000000000000000000000000000000000000000000000000000005f52601160045260245ffd5b5f6101dd8261011c565b91506101e88361011c565b92508282026101f68161011c565b9150828204841483151761020d5761020c6101a6565b5b5092915050565b5f82825260208201905092915050565b7f496e76616c69642076616c7565000000000000000000000000000000000000005f82015250565b5f610258600d83610214565b915061026382610224565b602082019050919050565b5f6020820190508181035f8301526102858161024c565b905091905056fea2646970667358221220c988b611cca4f51abbe67b5d1c94a107505017bdd32a871f1b6b70cd70bbfbfb64736f6c634300081e0033",
					"opcodes": "PUSH1 0x80 PUSH1 0x40 MSTORE CALLVALUE DUP1 ISZERO PUSH1 0xE JUMPI PUSH0 PUSH0 REVERT JUMPDEST POP PUSH2 0x2C2 DUP1 PUSH2 0x1C PUSH0 CODECOPY PUSH0 RETURN INVALID PUSH1 0x80 PUSH1 0x40 MSTORE CALLVALUE DUP1 ISZERO PUSH2 0xF JUMPI PUSH0 PUSH0 REVERT JUMPDEST POP PUSH1 0x4 CALLDATASIZE LT PUSH2 0x4A JUMPI PUSH0 CALLDATALOAD PUSH1 0xE0 SHR DUP1 PUSH4 0x16E9FE81 EQ PUSH2 0x4E JUMPI DUP1 PUSH4 0x3FA4F245 EQ PUSH2 0x58 JUMPI DUP1 PUSH4 0x55241077 EQ PUSH2 0x76 JUMPI DUP1 PUSH4 0xE3778184 EQ PUSH2 0x92 JUMPI JUMPDEST PUSH0 PUSH0 REVERT JUMPDEST PUSH2 0x56 PUSH2 0x9C JUMP JUMPDEST STOP JUMPDEST PUSH2 0x60 PUSH2 0xA8 JUMP JUMPDEST PUSH1 0x40 MLOAD PUSH2 0x6D SWAP2 SWAP1 PUSH2 0x134 JUMP JUMPDEST PUSH1 0x40 MLOAD DUP1 SWAP2 SUB SWAP1 RETURN JUMPDEST PUSH2 0x90 PUSH1 0x4 DUP1 CALLDATASIZE SUB DUP2 ADD SWAP1 PUSH2 0x8B SWAP2 SWAP1 PUSH2 0x17B JUMP JUMPDEST PUSH2 0xAD JUMP JUMPDEST STOP JUMPDEST PUSH2 0x9A PUSH2 0xB9 JUMP JUMPDEST STOP JUMPDEST PUSH2 0xA6 PUSH1 0x1 PUSH2 0xD1 JUMP JUMPDEST JUMP JUMPDEST PUSH0 SLOAD DUP2 JUMP JUMPDEST PUSH2 0xB6 DUP2 PUSH2 0xD1 JUMP JUMPDEST POP JUMP JUMPDEST PUSH2 0xCF PUSH1 0x2 PUSH0 SLOAD PUSH2 0xCA SWAP2 SWAP1 PUSH2 0x1D3 JUMP JUMPDEST PUSH2 0xD1 JUMP JUMPDEST JUMP JUMPDEST PUSH0 DUP2 GT PUSH2 0x113 JUMPI PUSH1 0x40 MLOAD PUSH32 0x8C379A000000000000000000000000000000000000000000000000000000000 DUP2 MSTORE PUSH1 0x4 ADD PUSH2 0x10A SWAP1 PUSH2 0x26E JUMP JUMPDEST PUSH1 0x40 MLOAD DUP1 SWAP2 SUB SWAP1 REVERT JUMPDEST DUP1 PUSH0 DUP2 SWAP1 SSTORE POP POP JUMP JUMPDEST PUSH0 DUP2 SWAP1 POP SWAP2 SWAP1 POP JUMP JUMPDEST PUSH2 0x12E DUP2 PUSH2 0x11C JUMP JUMPDEST DUP3 MSTORE POP POP JUMP JUMPDEST PUSH0 PUSH1 0x20 DUP3 ADD SWAP1 POP PUSH2 0x147 PUSH0 DUP4 ADD DUP5 PUSH2 0x125 JUMP JUMPDEST SWAP3 SWAP2 POP POP JUMP JUMPDEST PUSH0 PUSH0 REVERT JUMPDEST PUSH2 0x15A DUP2 PUSH2 0x11C JUMP JUMPDEST DUP2 EQ PUSH2 0x164 JUMPI PUSH0 PUSH0 REVERT JUMPDEST POP JUMP JUMPDEST PUSH0 DUP2 CALLDATALOAD SWAP1 POP PUSH2 0x175 DUP2 PUSH2 0x151 JUMP JUMPDEST SWAP3 SWAP2 POP POP JUMP JUMPDEST PUSH0 PUSH1 0x20 DUP3 DUP5 SUB SLT ISZERO PUSH2 0x190 JUMPI PUSH2 0x18F PUSH2 0x14D JUMP JUMPDEST JUMPDEST PUSH0 PUSH2 0x19D DUP5 DUP3 DUP6 ADD PUSH2 0x167 JUMP JUMPDEST SWAP2 POP POP SWAP3 SWAP2 POP POP JUMP JUMPDEST PUSH32 0x4E487B7100000000000000000000000000000000000000000000000000000000 PUSH0 MSTORE PUSH1 0x11 PUSH1 0x4 MSTORE PUSH1 0x24 PUSH0 REVERT JUMPDEST PUSH0 PUSH2 0x1DD DUP3 PUSH2 0x11C JUMP JUMPDEST SWAP2 POP PUSH2 0x1E8 DUP4 PUSH2 0x11C JUMP JUMPDEST SWAP3 POP DUP3 DUP3 MUL PUSH2 0x1F6 DUP2 PUSH2 0x11C JUMP JUMPDEST SWAP2 POP DUP3 DUP3 DIV DUP5 EQ DUP4 ISZERO OR PUSH2 0x20D JUMPI PUSH2 0x20C PUSH2 0x1A6 JUMP JUMPDEST JUMPDEST POP SWAP3 SWAP2 POP POP JUMP JUMPDEST PUSH0 DUP3 DUP3 MSTORE PUSH1 0x20 DUP3 ADD SWAP1 POP SWAP3 SWAP2 POP POP JUMP JUMPDEST PUSH32 0x496E76616C69642076616C756500000000000000000000000000000000000000 PUSH0 DUP3 ADD MSTORE POP JUMP JUMPDEST PUSH0 PUSH2 0x258 PUSH1 0xD DUP4 PUSH2 0x214 JUMP JUMPDEST SWAP2 POP PUSH2 0x263 DUP3 PUSH2 0x224 JUMP JUMPDEST PUSH1 0x20 DUP3 ADD SWAP1 POP SWAP2 SWAP1 POP JUMP JUMPDEST PUSH0 PUSH1 0x20 DUP3 ADD SWAP1 POP DUP2 DUP2 SUB PUSH0 DUP4 ADD MSTORE PUSH2 0x285 DUP2 PUSH2 0x24C JUMP JUMPDEST SWAP1 POP SWAP2 SWAP1 POP JUMP INVALID LOG2 PUSH5 0x6970667358 0x22 SLT KECCAK256 0xC9 DUP9 0xB6 GT 0xCC LOG4 CREATE2 BYTE 0xBB DUPN 0x7B TSTORE SHR SWAP5 LOG1 SMOD POP POP OR 0xBD 0xD3 0x2A DUP8 0x1F SHL PUSH12 0x70CD70BBFBFB64736F6C6343 STOP ADDMOD 0x1E STOP CALLER "
				},
				"gasEstimates": {
					"creation": {
						"codeDepositCost": "141200",
						"executionCost": "188",
						"totalCost": "141388"
					},
					"external": {
						"doubleValue()": "infinite",
						"resetValue()": "22285",
						"setValue(uint256)": "22587",
						"value()": "2424"
					},
					"internal": {
						"_setValue(uint256)": "infinite"
					}
				},
				"methodIdentifiers": {
					"doubleValue()": "e3778184",
					"resetValue()": "16e9fe81",
					"setValue(uint256)": "55241077",
					"value()": "3fa4f245"
				}
			},
			"storageLayout": {
				"storage": [
					{
						"astId": 3,
						"contract": "@course/meta-node/solidity/mine/solidity_lesson/study_code/1.2/RefactoringPattern.sol:RefactoringPattern",
						"label": "value",
						"offset": 0,
						"slot": "0",
						"type": "t_uint256"
					}
				],
				"types": {
					"t_uint256": {
						"encoding": "inplace",
						"label": "uint256",
						"numberOfBytes": "32"
					}
				}
			},
			"userdoc": {
				"kind": "user",
				"methods": {},
				"version": 1
			}
		}
	}
}