{
	"@course/meta-node/solidity/mine/solidity_lesson/hardhat-demo2/contracts/test/TestProxy.sol": {
		"Logic2": {
			"abi": [
				{
					"inputs": [],
					"name": "getVal",
					"outputs": [
						{
							"internalType": "uint256",
							"name": "",
							"type": "uint256"
						}
					],
					"stateMutability": "view",
					"type": "function"
				},
				{
					"inputs": [
						{
							"internalType": "uint256",
							"name": "_val",
							"type": "uint256"
						}
					],
					"name": "setVal",
					"outputs": [],
					"stateMutability": "nonpayable",
					"type": "function"
				}
			],
			"devdoc": {
				"kind": "dev",
				"methods": {},
				"version": 1
			},
			"evm": {
				"assembly": "    /* \"@course/meta-node/solidity/mine/solidity_lesson/hardhat-demo2/contracts/test/TestProxy.sol\":259:458  contract Logic2 {... */\n  mstore(0x40, 0x80)\n  callvalue\n  dup1\n  iszero\n  tag_1\n  jumpi\n  revert(0x00, 0x00)\ntag_1:\n  pop\n  dataSize(sub_0)\n  dup1\n  dataOffset(sub_0)\n  0x00\n  codecopy\n  0x00\n  return\nstop\n\nsub_0: assembly {\n        /* \"@course/meta-node/solidity/mine/solidity_lesson/hardhat-demo2/contracts/test/TestProxy.sol\":259:458  contract Logic2 {... */\n      mstore(0x40, 0x80)\n      callvalue\n      dup1\n      iszero\n      tag_1\n      jumpi\n      revert(0x00, 0x00)\n    tag_1:\n      pop\n      jumpi(tag_2, lt(calldatasize, 0x04))\n      shr(0xe0, calldataload(0x00))\n      dup1\n      0x3d4197f0\n      eq\n      tag_3\n      jumpi\n      dup1\n      0xe1cb0e52\n      eq\n      tag_4\n      jumpi\n    tag_2:\n      revert(0x00, 0x00)\n        /* \"@course/meta-node/solidity/mine/solidity_lesson/hardhat-demo2/contracts/test/TestProxy.sol\":307:375  function setVal(uint256 _val) public {... */\n    tag_3:\n      tag_5\n      0x04\n      dup1\n      calldatasize\n      sub\n      dup2\n      add\n      swap1\n      tag_6\n      swap2\n      swap1\n      tag_7\n      jump\t// in\n    tag_6:\n      tag_8\n      jump\t// in\n    tag_5:\n      stop\n        /* \"@course/meta-node/solidity/mine/solidity_lesson/hardhat-demo2/contracts/test/TestProxy.sol\":381:456  function getVal() public view returns (uint256) {... */\n    tag_4:\n      tag_9\n      tag_10\n      jump\t// in\n    tag_9:\n      mload(0x40)\n      tag_11\n      swap2\n      swap1\n      tag_12\n      jump\t// in\n    tag_11:\n      mload(0x40)\n      dup1\n      swap2\n      sub\n      swap1\n      return\n        /* \"@course/meta-node/solidity/mine/solidity_lesson/hardhat-demo2/contracts/test/TestProxy.sol\":307:375  function setVal(uint256 _val) public {... */\n    tag_8:\n        /* \"@course/meta-node/solidity/mine/solidity_lesson/hardhat-demo2/contracts/test/TestProxy.sol\":367:368  2 */\n      0x02\n        /* \"@course/meta-node/solidity/mine/solidity_lesson/hardhat-demo2/contracts/test/TestProxy.sol\":360:364  _val */\n      dup2\n        /* \"@course/meta-node/solidity/mine/solidity_lesson/hardhat-demo2/contracts/test/TestProxy.sol\":360:368  _val + 2 */\n      tag_14\n      swap2\n      swap1\n      tag_15\n      jump\t// in\n    tag_14:\n        /* \"@course/meta-node/solidity/mine/solidity_lesson/hardhat-demo2/contracts/test/TestProxy.sol\":354:357  val */\n      0x00\n        /* \"@course/meta-node/solidity/mine/solidity_lesson/hardhat-demo2/contracts/test/TestProxy.sol\":354:368  val = _val + 2 */\n      dup2\n      swap1\n      sstore\n      pop\n        /* \"@course/meta-node/solidity/mine/solidity_lesson/hardhat-demo2/contracts/test/TestProxy.sol\":307:375  function setVal(uint256 _val) public {... */\n      pop\n      jump\t// out\n        /* \"@course/meta-node/solidity/mine/solidity_lesson/hardhat-demo2/contracts/test/TestProxy.sol\":381:456  function getVal() public view returns (uint256) {... */\n    tag_10:\n        /* \"@course/meta-node/solidity/mine/solidity_lesson/hardhat-demo2/contracts/test/TestProxy.sol\":420:427  uint256 */\n      0x00\n        /* \"@course/meta-node/solidity/mine/solidity_lesson/hardhat-demo2/contracts/test/TestProxy.sol\":446:449  val */\n      sload(0x00)\n        /* \"@course/meta-node/solidity/mine/solidity_lesson/hardhat-demo2/contracts/test/TestProxy.sol\":439:449  return val */\n      swap1\n      pop\n        /* \"@course/meta-node/solidity/mine/solidity_lesson/hardhat-demo2/contracts/test/TestProxy.sol\":381:456  function getVal() public view returns (uint256) {... */\n      swap1\n      jump\t// out\n        /* \"#utility.yul\":88:205   */\n    tag_18:\n        /* \"#utility.yul\":197:198   */\n      0x00\n        /* \"#utility.yul\":194:195   */\n      0x00\n        /* \"#utility.yul\":187:199   */\n      revert\n        /* \"#utility.yul\":334:411   */\n    tag_20:\n        /* \"#utility.yul\":371:378   */\n      0x00\n        /* \"#utility.yul\":400:405   */\n      dup2\n        /* \"#utility.yul\":389:405   */\n      swap1\n      pop\n        /* \"#utility.yul\":334:411   */\n      swap2\n      swap1\n      pop\n      jump\t// out\n        /* \"#utility.yul\":417:539   */\n    tag_21:\n        /* \"#utility.yul\":490:514   */\n      tag_31\n        /* \"#utility.yul\":508:513   */\n      dup2\n        /* \"#utility.yul\":490:514   */\n      tag_20\n      jump\t// in\n    tag_31:\n        /* \"#utility.yul\":483:488   */\n      dup2\n        /* \"#utility.yul\":480:515   */\n      eq\n        /* \"#utility.yul\":470:533   */\n      tag_32\n      jumpi\n        /* \"#utility.yul\":529:530   */\n      0x00\n        /* \"#utility.yul\":526:527   */\n      0x00\n        /* \"#utility.yul\":519:531   */\n      revert\n        /* \"#utility.yul\":470:533   */\n    tag_32:\n        /* \"#utility.yul\":417:539   */\n      pop\n      jump\t// out\n        /* \"#utility.yul\":545:684   */\n    tag_22:\n        /* \"#utility.yul\":591:596   */\n      0x00\n        /* \"#utility.yul\":629:635   */\n      dup2\n        /* \"#utility.yul\":616:636   */\n      calldataload\n        /* \"#utility.yul\":607:636   */\n      swap1\n      pop\n        /* \"#utility.yul\":645:678   */\n      tag_34\n        /* \"#utility.yul\":672:677   */\n      dup2\n        /* \"#utility.yul\":645:678   */\n      tag_21\n      jump\t// in\n    tag_34:\n        /* \"#utility.yul\":545:684   */\n      swap3\n      swap2\n      pop\n      pop\n      jump\t// out\n        /* \"#utility.yul\":690:1019   */\n    tag_7:\n        /* \"#utility.yul\":749:755   */\n      0x00\n        /* \"#utility.yul\":798:800   */\n      0x20\n        /* \"#utility.yul\":786:795   */\n      dup3\n        /* \"#utility.yul\":777:784   */\n      dup5\n        /* \"#utility.yul\":773:796   */\n      sub\n        /* \"#utility.yul\":769:801   */\n      slt\n        /* \"#utility.yul\":766:885   */\n      iszero\n      tag_36\n      jumpi\n        /* \"#utility.yul\":804:883   */\n      tag_37\n      tag_18\n      jump\t// in\n    tag_37:\n        /* \"#utility.yul\":766:885   */\n    tag_36:\n        /* \"#utility.yul\":924:925   */\n      0x00\n        /* \"#utility.yul\":949:1002   */\n      tag_38\n        /* \"#utility.yul\":994:1001   */\n      dup5\n        /* \"#utility.yul\":985:991   */\n      dup3\n        /* \"#utility.yul\":974:983   */\n      dup6\n        /* \"#utility.yul\":970:992   */\n      add\n        /* \"#utility.yul\":949:1002   */\n      tag_22\n      jump\t// in\n    tag_38:\n        /* \"#utility.yul\":939:1002   */\n      swap2\n      pop\n        /* \"#utility.yul\":895:1012   */\n      pop\n        /* \"#utility.yul\":690:1019   */\n      swap3\n      swap2\n      pop\n      pop\n      jump\t// out\n        /* \"#utility.yul\":1025:1143   */\n    tag_23:\n        /* \"#utility.yul\":1112:1136   */\n      tag_40\n        /* \"#utility.yul\":1130:1135   */\n      dup2\n        /* \"#utility.yul\":1112:1136   */\n      tag_20\n      jump\t// in\n    tag_40:\n        /* \"#utility.yul\":1107:1110   */\n      dup3\n        /* \"#utility.yul\":1100:1137   */\n      mstore\n        /* \"#utility.yul\":1025:1143   */\n      pop\n      pop\n      jump\t// out\n        /* \"#utility.yul\":1149:1371   */\n    tag_12:\n        /* \"#utility.yul\":1242:1246   */\n      0x00\n        /* \"#utility.yul\":1280:1282   */\n      0x20\n        /* \"#utility.yul\":1269:1278   */\n      dup3\n        /* \"#utility.yul\":1265:1283   */\n      add\n        /* \"#utility.yul\":1257:1283   */\n      swap1\n      pop\n        /* \"#utility.yul\":1293:1364   */\n      tag_42\n        /* \"#utility.yul\":1361:1362   */\n      0x00\n        /* \"#utility.yul\":1350:1359   */\n      dup4\n        /* \"#utility.yul\":1346:1363   */\n      add\n        /* \"#utility.yul\":1337:1343   */\n      dup5\n        /* \"#utility.yul\":1293:1364   */\n      tag_23\n      jump\t// in\n    tag_42:\n        /* \"#utility.yul\":1149:1371   */\n      swap3\n      swap2\n      pop\n      pop\n      jump\t// out\n        /* \"#utility.yul\":1377:1557   */\n    tag_24:\n        /* \"#utility.yul\":1425:1502   */\n      0x4e487b7100000000000000000000000000000000000000000000000000000000\n        /* \"#utility.yul\":1422:1423   */\n      0x00\n        /* \"#utility.yul\":1415:1503   */\n      mstore\n        /* \"#utility.yul\":1522:1526   */\n      0x11\n        /* \"#utility.yul\":1519:1520   */\n      0x04\n        /* \"#utility.yul\":1512:1527   */\n      mstore\n        /* \"#utility.yul\":1546:1550   */\n      0x24\n        /* \"#utility.yul\":1543:1544   */\n      0x00\n        /* \"#utility.yul\":1536:1551   */\n      revert\n        /* \"#utility.yul\":1563:1754   */\n    tag_15:\n        /* \"#utility.yul\":1603:1606   */\n      0x00\n        /* \"#utility.yul\":1622:1642   */\n      tag_45\n        /* \"#utility.yul\":1640:1641   */\n      dup3\n        /* \"#utility.yul\":1622:1642   */\n      tag_20\n      jump\t// in\n    tag_45:\n        /* \"#utility.yul\":1617:1642   */\n      swap2\n      pop\n        /* \"#utility.yul\":1656:1676   */\n      tag_46\n        /* \"#utility.yul\":1674:1675   */\n      dup4\n        /* \"#utility.yul\":1656:1676   */\n      tag_20\n      jump\t// in\n    tag_46:\n        /* \"#utility.yul\":1651:1676   */\n      swap3\n      pop\n        /* \"#utility.yul\":1699:1700   */\n      dup3\n        /* \"#utility.yul\":1696:1697   */\n      dup3\n        /* \"#utility.yul\":1692:1701   */\n      add\n        /* \"#utility.yul\":1685:1701   */\n      swap1\n      pop\n        /* \"#utility.yul\":1720:1723   */\n      dup1\n        /* \"#utility.yul\":1717:1718   */\n      dup3\n        /* \"#utility.yul\":1714:1724   */\n      gt\n        /* \"#utility.yul\":1711:1747   */\n      iszero\n      tag_47\n      jumpi\n        /* \"#utility.yul\":1727:1745   */\n      tag_48\n      tag_24\n      jump\t// in\n    tag_48:\n        /* \"#utility.yul\":1711:1747   */\n    tag_47:\n        /* \"#utility.yul\":1563:1754   */\n      swap3\n      swap2\n      pop\n      pop\n      jump\t// out\n\n    auxdata: 0xa264697066735822122038c0c96e77a5c45ae56a17aa2f995f8a7fd08a6dfb14e6ca0737cad35a78884264736f6c634300081e0033\n}\n",
				"bytecode": {
					"linkReferences": {},
					"object": "6080604052348015600e575f5ffd5b506101af8061001c5f395ff3fe608060405234801561000f575f5ffd5b5060043610610034575f3560e01c80633d4197f014610038578063e1cb0e5214610054575b5f5ffd5b610052600480360381019061004d91906100c6565b610072565b005b61005c610087565b6040516100699190610100565b60405180910390f35b60028161007f9190610146565b5f8190555050565b5f5f54905090565b5f5ffd5b5f819050919050565b6100a581610093565b81146100af575f5ffd5b50565b5f813590506100c08161009c565b92915050565b5f602082840312156100db576100da61008f565b5b5f6100e8848285016100b2565b91505092915050565b6100fa81610093565b82525050565b5f6020820190506101135f8301846100f1565b92915050565b7f4e487b71000000000000000000000000000000000000000000000000000000005f52601160045260245ffd5b5f61015082610093565b915061015b83610093565b925082820190508082111561017357610172610119565b5b9291505056fea264697066735822122038c0c96e77a5c45ae56a17aa2f995f8a7fd08a6dfb14e6ca0737cad35a78884264736f6c634300081e0033",
					"opcodes": "PUSH1 0x80 PUSH1 0x40 MSTORE CALLVALUE DUP1 ISZERO PUSH1 0xE JUMPI PUSH0 PUSH0 REVERT JUMPDEST POP PUSH2 0x1AF DUP1 PUSH2 0x1C PUSH0 CODECOPY PUSH0 RETURN INVALID PUSH1 0x80 PUSH1 0x40 MSTORE CALLVALUE DUP1 ISZERO PUSH2 0xF JUMPI PUSH0 PUSH0 REVERT JUMPDEST POP PUSH1 0x4 CALLDATASIZE LT PUSH2 0x34 JUMPI PUSH0 CALLDATALOAD PUSH1 0xE0 SHR DUP1 PUSH4 0x3D4197F0 EQ PUSH2 0x38 JUMPI DUP1 PUSH4 0xE1CB0E52 EQ PUSH2 0x54 JUMPI JUMPDEST PUSH0 PUSH0 REVERT JUMPDEST PUSH2 0x52 PUSH1 0x4 DUP1 CALLDATASIZE SUB DUP2 ADD SWAP1 PUSH2 0x4D SWAP2 SWAP1 PUSH2 0xC6 JUMP JUMPDEST PUSH2 0x72 JUMP JUMPDEST STOP JUMPDEST PUSH2 0x5C PUSH2 0x87 JUMP JUMPDEST PUSH1 0x40 MLOAD PUSH2 0x69 SWAP2 SWAP1 PUSH2 0x100 JUMP JUMPDEST PUSH1 0x40 MLOAD DUP1 SWAP2 SUB SWAP1 RETURN JUMPDEST PUSH1 0x2 DUP2 PUSH2 0x7F SWAP2 SWAP1 PUSH2 0x146 JUMP JUMPDEST PUSH0 DUP2 SWAP1 SSTORE POP POP JUMP JUMPDEST PUSH0 PUSH0 SLOAD SWAP1 POP SWAP1 JUMP JUMPDEST PUSH0 PUSH0 REVERT JUMPDEST PUSH0 DUP2 SWAP1 POP SWAP2 SWAP1 POP JUMP JUMPDEST PUSH2 0xA5 DUP2 PUSH2 0x93 JUMP JUMPDEST DUP2 EQ PUSH2 0xAF JUMPI PUSH0 PUSH0 REVERT JUMPDEST POP JUMP JUMPDEST PUSH0 DUP2 CALLDATALOAD SWAP1 POP PUSH2 0xC0 DUP2 PUSH2 0x9C JUMP JUMPDEST SWAP3 SWAP2 POP POP JUMP JUMPDEST PUSH0 PUSH1 0x20 DUP3 DUP5 SUB SLT ISZERO PUSH2 0xDB JUMPI PUSH2 0xDA PUSH2 0x8F JUMP JUMPDEST JUMPDEST PUSH0 PUSH2 0xE8 DUP5 DUP3 DUP6 ADD PUSH2 0xB2 JUMP JUMPDEST SWAP2 POP POP SWAP3 SWAP2 POP POP JUMP JUMPDEST PUSH2 0xFA DUP2 PUSH2 0x93 JUMP JUMPDEST DUP3 MSTORE POP POP JUMP JUMPDEST PUSH0 PUSH1 0x20 DUP3 ADD SWAP1 POP PUSH2 0x113 PUSH0 DUP4 ADD DUP5 PUSH2 0xF1 JUMP JUMPDEST SWAP3 SWAP2 POP POP JUMP JUMPDEST PUSH32 0x4E487B7100000000000000000000000000000000000000000000000000000000 PUSH0 MSTORE PUSH1 0x11 PUSH1 0x4 MSTORE PUSH1 0x24 PUSH0 REVERT JUMPDEST PUSH0 PUSH2 0x150 DUP3 PUSH2 0x93 JUMP JUMPDEST SWAP2 POP PUSH2 0x15B DUP4 PUSH2 0x93 JUMP JUMPDEST SWAP3 POP DUP3 DUP3 ADD SWAP1 POP DUP1 DUP3 GT ISZERO PUSH2 0x173 JUMPI PUSH2 0x172 PUSH2 0x119 JUMP JUMPDEST JUMPDEST SWAP3 SWAP2 POP POP JUMP INVALID LOG2 PUSH5 0x6970667358 0x22 SLT KECCAK256 CODESIZE 0xC0 0xC9 PUSH15 0x77A5C45AE56A17AA2F995F8A7FD08A PUSH14 0xFB14E6CA0737CAD35A7888426473 PUSH16 0x6C634300081E00330000000000000000 "
				},
				"gasEstimates": {
					"creation": {
						"codeDepositCost": "86200",
						"executionCost": "133",
						"totalCost": "86333"
					},
					"external": {
						"getVal()": "2431",
						"setVal(uint256)": "infinite"
					}
				},
				"methodIdentifiers": {
					"getVal()": "e1cb0e52",
					"setVal(uint256)": "3d4197f0"
				}
			},
			"storageLayout": {
				"storage": [
					{
						"astId": 26,
						"contract": "@course/meta-node/solidity/mine/solidity_lesson/hardhat-demo2/contracts/test/TestProxy.sol:Logic2",
						"label": "val",
						"offset": 0,
						"slot": "0",
						"type": "t_uint256"
					}
				],
				"types": {
					"t_uint256": {
						"encoding": "inplace",
						"label": "uint256",
						"numberOfBytes": "32"
					}
				}
			},
			"userdoc": {
				"kind": "user",
				"methods": {},
				"version": 1
			}
		}
	}
}