{
	"@course/meta-node/solidity/mine/solidity_lesson/hardhat-demo2/contracts/test/TestProxy.sol": {
		"Proxy": {
			"abi": [
				{
					"inputs": [],
					"name": "getLogic",
					"outputs": [
						{
							"internalType": "address",
							"name": "",
							"type": "address"
						}
					],
					"stateMutability": "view",
					"type": "function"
				},
				{
					"inputs": [],
					"name": "getVal",
					"outputs": [
						{
							"internalType": "uint256",
							"name": "",
							"type": "uint256"
						}
					],
					"stateMutability": "nonpayable",
					"type": "function"
				},
				{
					"inputs": [],
					"name": "logic",
					"outputs": [
						{
							"internalType": "contract ILogic",
							"name": "",
							"type": "address"
						}
					],
					"stateMutability": "view",
					"type": "function"
				},
				{
					"inputs": [
						{
							"internalType": "address",
							"name": "_loginAddr",
							"type": "address"
						}
					],
					"name": "setLogic",
					"outputs": [],
					"stateMutability": "nonpayable",
					"type": "function"
				},
				{
					"inputs": [
						{
							"internalType": "uint256",
							"name": "_val",
							"type": "uint256"
						}
					],
					"name": "setVal",
					"outputs": [],
					"stateMutability": "nonpayable",
					"type": "function"
				}
			],
			"devdoc": {
				"kind": "dev",
				"methods": {},
				"version": 1
			},
			"evm": {
				"assembly": "    /* \"@course/meta-node/solidity/mine/solidity_lesson/hardhat-demo2/contracts/test/TestProxy.sol\":576:970  contract Proxy {... */\n  mstore(0x40, 0x80)\n  callvalue\n  dup1\n  iszero\n  tag_1\n  jumpi\n  revert(0x00, 0x00)\ntag_1:\n  pop\n  dataSize(sub_0)\n  dup1\n  dataOffset(sub_0)\n  0x00\n  codecopy\n  0x00\n  return\nstop\n\nsub_0: assembly {\n        /* \"@course/meta-node/solidity/mine/solidity_lesson/hardhat-demo2/contracts/test/TestProxy.sol\":576:970  contract Proxy {... */\n      mstore(0x40, 0x80)\n      callvalue\n      dup1\n      iszero\n      tag_1\n      jumpi\n      revert(0x00, 0x00)\n    tag_1:\n      pop\n      jumpi(tag_2, lt(calldatasize, 0x04))\n      shr(0xe0, calldataload(0x00))\n      dup1\n      0x3d4197f0\n      eq\n      tag_3\n      jumpi\n      dup1\n      0x71857000\n      eq\n      tag_4\n      jumpi\n      dup1\n      0xba8c65ae\n      eq\n      tag_5\n      jumpi\n      dup1\n      0xd7dfa0dd\n      eq\n      tag_6\n      jumpi\n      dup1\n      0xe1cb0e52\n      eq\n      tag_7\n      jumpi\n    tag_2:\n      revert(0x00, 0x00)\n        /* \"@course/meta-node/solidity/mine/solidity_lesson/hardhat-demo2/contracts/test/TestProxy.sol\":809:881  function setVal(uint256 _val) public {... */\n    tag_3:\n      tag_8\n      0x04\n      dup1\n      calldatasize\n      sub\n      dup2\n      add\n      swap1\n      tag_9\n      swap2\n      swap1\n      tag_10\n      jump\t// in\n    tag_9:\n      tag_11\n      jump\t// in\n    tag_8:\n      stop\n        /* \"@course/meta-node/solidity/mine/solidity_lesson/hardhat-demo2/contracts/test/TestProxy.sol\":622:710  function setLogic(address _loginAddr) public {... */\n    tag_4:\n      tag_12\n      0x04\n      dup1\n      calldatasize\n      sub\n      dup2\n      add\n      swap1\n      tag_13\n      swap2\n      swap1\n      tag_14\n      jump\t// in\n    tag_13:\n      tag_15\n      jump\t// in\n    tag_12:\n      stop\n        /* \"@course/meta-node/solidity/mine/solidity_lesson/hardhat-demo2/contracts/test/TestProxy.sol\":715:803  function getLogic() public view returns (address) {... */\n    tag_5:\n      tag_16\n      tag_17\n      jump\t// in\n    tag_16:\n      mload(0x40)\n      tag_18\n      swap2\n      swap1\n      tag_19\n      jump\t// in\n    tag_18:\n      mload(0x40)\n      dup1\n      swap2\n      sub\n      swap1\n      return\n        /* \"@course/meta-node/solidity/mine/solidity_lesson/hardhat-demo2/contracts/test/TestProxy.sol\":597:616  ILogic public logic */\n    tag_6:\n      tag_20\n      tag_21\n      jump\t// in\n    tag_20:\n      mload(0x40)\n      tag_22\n      swap2\n      swap1\n      tag_23\n      jump\t// in\n    tag_22:\n      mload(0x40)\n      dup1\n      swap2\n      sub\n      swap1\n      return\n        /* \"@course/meta-node/solidity/mine/solidity_lesson/hardhat-demo2/contracts/test/TestProxy.sol\":887:968  function getVal() public returns (uint256) {... */\n    tag_7:\n      tag_24\n      tag_25\n      jump\t// in\n    tag_24:\n      mload(0x40)\n      tag_26\n      swap2\n      swap1\n      tag_27\n      jump\t// in\n    tag_26:\n      mload(0x40)\n      dup1\n      swap2\n      sub\n      swap1\n      return\n        /* \"@course/meta-node/solidity/mine/solidity_lesson/hardhat-demo2/contracts/test/TestProxy.sol\":809:881  function setVal(uint256 _val) public {... */\n    tag_11:\n        /* \"@course/meta-node/solidity/mine/solidity_lesson/hardhat-demo2/contracts/test/TestProxy.sol\":856:861  logic */\n      0x00\n      0x00\n      swap1\n      sload\n      swap1\n      0x0100\n      exp\n      swap1\n      div\n      0xffffffffffffffffffffffffffffffffffffffff\n      and\n        /* \"@course/meta-node/solidity/mine/solidity_lesson/hardhat-demo2/contracts/test/TestProxy.sol\":856:868  logic.setVal */\n      0xffffffffffffffffffffffffffffffffffffffff\n      and\n      0x3d4197f0\n        /* \"@course/meta-node/solidity/mine/solidity_lesson/hardhat-demo2/contracts/test/TestProxy.sol\":869:873  _val */\n      dup3\n        /* \"@course/meta-node/solidity/mine/solidity_lesson/hardhat-demo2/contracts/test/TestProxy.sol\":856:874  logic.setVal(_val) */\n      mload(0x40)\n      dup3\n      0xffffffff\n      and\n      0xe0\n      shl\n      dup2\n      mstore\n      0x04\n      add\n      tag_29\n      swap2\n      swap1\n      tag_27\n      jump\t// in\n    tag_29:\n      0x00\n      mload(0x40)\n      dup1\n      dup4\n      sub\n      dup2\n      0x00\n      dup8\n      dup1\n      extcodesize\n      iszero\n      dup1\n      iszero\n      tag_30\n      jumpi\n      revert(0x00, 0x00)\n    tag_30:\n      pop\n      gas\n      call\n      iszero\n      dup1\n      iszero\n      tag_32\n      jumpi\n      returndatacopy(0x00, 0x00, returndatasize)\n      revert(0x00, returndatasize)\n    tag_32:\n      pop\n      pop\n      pop\n      pop\n        /* \"@course/meta-node/solidity/mine/solidity_lesson/hardhat-demo2/contracts/test/TestProxy.sol\":809:881  function setVal(uint256 _val) public {... */\n      pop\n      jump\t// out\n        /* \"@course/meta-node/solidity/mine/solidity_lesson/hardhat-demo2/contracts/test/TestProxy.sol\":622:710  function setLogic(address _loginAddr) public {... */\n    tag_15:\n        /* \"@course/meta-node/solidity/mine/solidity_lesson/hardhat-demo2/contracts/test/TestProxy.sol\":692:702  _loginAddr */\n      dup1\n        /* \"@course/meta-node/solidity/mine/solidity_lesson/hardhat-demo2/contracts/test/TestProxy.sol\":677:682  logic */\n      0x00\n      0x00\n        /* \"@course/meta-node/solidity/mine/solidity_lesson/hardhat-demo2/contracts/test/TestProxy.sol\":677:703  logic = ILogic(_loginAddr) */\n      0x0100\n      exp\n      dup2\n      sload\n      dup2\n      0xffffffffffffffffffffffffffffffffffffffff\n      mul\n      not\n      and\n      swap1\n      dup4\n      0xffffffffffffffffffffffffffffffffffffffff\n      and\n      mul\n      or\n      swap1\n      sstore\n      pop\n        /* \"@course/meta-node/solidity/mine/solidity_lesson/hardhat-demo2/contracts/test/TestProxy.sol\":622:710  function setLogic(address _loginAddr) public {... */\n      pop\n      jump\t// out\n        /* \"@course/meta-node/solidity/mine/solidity_lesson/hardhat-demo2/contracts/test/TestProxy.sol\":715:803  function getLogic() public view returns (address) {... */\n    tag_17:\n        /* \"@course/meta-node/solidity/mine/solidity_lesson/hardhat-demo2/contracts/test/TestProxy.sol\":756:763  address */\n      0x00\n        /* \"@course/meta-node/solidity/mine/solidity_lesson/hardhat-demo2/contracts/test/TestProxy.sol\":790:795  logic */\n      0x00\n      0x00\n      swap1\n      sload\n      swap1\n      0x0100\n      exp\n      swap1\n      div\n      0xffffffffffffffffffffffffffffffffffffffff\n      and\n        /* \"@course/meta-node/solidity/mine/solidity_lesson/hardhat-demo2/contracts/test/TestProxy.sol\":775:796  return address(logic) */\n      swap1\n      pop\n        /* \"@course/meta-node/solidity/mine/solidity_lesson/hardhat-demo2/contracts/test/TestProxy.sol\":715:803  function getLogic() public view returns (address) {... */\n      swap1\n      jump\t// out\n        /* \"@course/meta-node/solidity/mine/solidity_lesson/hardhat-demo2/contracts/test/TestProxy.sol\":597:616  ILogic public logic */\n    tag_21:\n      0x00\n      0x00\n      swap1\n      sload\n      swap1\n      0x0100\n      exp\n      swap1\n      div\n      0xffffffffffffffffffffffffffffffffffffffff\n      and\n      dup2\n      jump\t// out\n        /* \"@course/meta-node/solidity/mine/solidity_lesson/hardhat-demo2/contracts/test/TestProxy.sol\":887:968  function getVal() public returns (uint256) {... */\n    tag_25:\n        /* \"@course/meta-node/solidity/mine/solidity_lesson/hardhat-demo2/contracts/test/TestProxy.sol\":921:928  uint256 */\n      0x00\n        /* \"@course/meta-node/solidity/mine/solidity_lesson/hardhat-demo2/contracts/test/TestProxy.sol\":947:952  logic */\n      0x00\n      0x00\n      swap1\n      sload\n      swap1\n      0x0100\n      exp\n      swap1\n      div\n      0xffffffffffffffffffffffffffffffffffffffff\n      and\n        /* \"@course/meta-node/solidity/mine/solidity_lesson/hardhat-demo2/contracts/test/TestProxy.sol\":947:959  logic.getVal */\n      0xffffffffffffffffffffffffffffffffffffffff\n      and\n      0xe1cb0e52\n        /* \"@course/meta-node/solidity/mine/solidity_lesson/hardhat-demo2/contracts/test/TestProxy.sol\":947:961  logic.getVal() */\n      mload(0x40)\n      dup2\n      0xffffffff\n      and\n      0xe0\n      shl\n      dup2\n      mstore\n      0x04\n      add\n      0x20\n      mload(0x40)\n      dup1\n      dup4\n      sub\n      dup2\n      0x00\n      dup8\n      gas\n      call\n      iszero\n      dup1\n      iszero\n      tag_37\n      jumpi\n      returndatacopy(0x00, 0x00, returndatasize)\n      revert(0x00, returndatasize)\n    tag_37:\n      pop\n      pop\n      pop\n      pop\n      mload(0x40)\n      returndatasize\n      not(0x1f)\n      0x1f\n      dup3\n      add\n      and\n      dup3\n      add\n      dup1\n      0x40\n      mstore\n      pop\n      dup2\n      add\n      swap1\n      tag_38\n      swap2\n      swap1\n      tag_39\n      jump\t// in\n    tag_38:\n        /* \"@course/meta-node/solidity/mine/solidity_lesson/hardhat-demo2/contracts/test/TestProxy.sol\":940:961  return logic.getVal() */\n      swap1\n      pop\n        /* \"@course/meta-node/solidity/mine/solidity_lesson/hardhat-demo2/contracts/test/TestProxy.sol\":887:968  function getVal() public returns (uint256) {... */\n      swap1\n      jump\t// out\n        /* \"#utility.yul\":88:205   */\n    tag_41:\n        /* \"#utility.yul\":197:198   */\n      0x00\n        /* \"#utility.yul\":194:195   */\n      0x00\n        /* \"#utility.yul\":187:199   */\n      revert\n        /* \"#utility.yul\":334:411   */\n    tag_43:\n        /* \"#utility.yul\":371:378   */\n      0x00\n        /* \"#utility.yul\":400:405   */\n      dup2\n        /* \"#utility.yul\":389:405   */\n      swap1\n      pop\n        /* \"#utility.yul\":334:411   */\n      swap2\n      swap1\n      pop\n      jump\t// out\n        /* \"#utility.yul\":417:539   */\n    tag_44:\n        /* \"#utility.yul\":490:514   */\n      tag_64\n        /* \"#utility.yul\":508:513   */\n      dup2\n        /* \"#utility.yul\":490:514   */\n      tag_43\n      jump\t// in\n    tag_64:\n        /* \"#utility.yul\":483:488   */\n      dup2\n        /* \"#utility.yul\":480:515   */\n      eq\n        /* \"#utility.yul\":470:533   */\n      tag_65\n      jumpi\n        /* \"#utility.yul\":529:530   */\n      0x00\n        /* \"#utility.yul\":526:527   */\n      0x00\n        /* \"#utility.yul\":519:531   */\n      revert\n        /* \"#utility.yul\":470:533   */\n    tag_65:\n        /* \"#utility.yul\":417:539   */\n      pop\n      jump\t// out\n        /* \"#utility.yul\":545:684   */\n    tag_45:\n        /* \"#utility.yul\":591:596   */\n      0x00\n        /* \"#utility.yul\":629:635   */\n      dup2\n        /* \"#utility.yul\":616:636   */\n      calldataload\n        /* \"#utility.yul\":607:636   */\n      swap1\n      pop\n        /* \"#utility.yul\":645:678   */\n      tag_67\n        /* \"#utility.yul\":672:677   */\n      dup2\n        /* \"#utility.yul\":645:678   */\n      tag_44\n      jump\t// in\n    tag_67:\n        /* \"#utility.yul\":545:684   */\n      swap3\n      swap2\n      pop\n      pop\n      jump\t// out\n        /* \"#utility.yul\":690:1019   */\n    tag_10:\n        /* \"#utility.yul\":749:755   */\n      0x00\n        /* \"#utility.yul\":798:800   */\n      0x20\n        /* \"#utility.yul\":786:795   */\n      dup3\n        /* \"#utility.yul\":777:784   */\n      dup5\n        /* \"#utility.yul\":773:796   */\n      sub\n        /* \"#utility.yul\":769:801   */\n      slt\n        /* \"#utility.yul\":766:885   */\n      iszero\n      tag_69\n      jumpi\n        /* \"#utility.yul\":804:883   */\n      tag_70\n      tag_41\n      jump\t// in\n    tag_70:\n        /* \"#utility.yul\":766:885   */\n    tag_69:\n        /* \"#utility.yul\":924:925   */\n      0x00\n        /* \"#utility.yul\":949:1002   */\n      tag_71\n        /* \"#utility.yul\":994:1001   */\n      dup5\n        /* \"#utility.yul\":985:991   */\n      dup3\n        /* \"#utility.yul\":974:983   */\n      dup6\n        /* \"#utility.yul\":970:992   */\n      add\n        /* \"#utility.yul\":949:1002   */\n      tag_45\n      jump\t// in\n    tag_71:\n        /* \"#utility.yul\":939:1002   */\n      swap2\n      pop\n        /* \"#utility.yul\":895:1012   */\n      pop\n        /* \"#utility.yul\":690:1019   */\n      swap3\n      swap2\n      pop\n      pop\n      jump\t// out\n        /* \"#utility.yul\":1025:1151   */\n    tag_46:\n        /* \"#utility.yul\":1062:1069   */\n      0x00\n        /* \"#utility.yul\":1102:1144   */\n      0xffffffffffffffffffffffffffffffffffffffff\n        /* \"#utility.yul\":1095:1100   */\n      dup3\n        /* \"#utility.yul\":1091:1145   */\n      and\n        /* \"#utility.yul\":1080:1145   */\n      swap1\n      pop\n        /* \"#utility.yul\":1025:1151   */\n      swap2\n      swap1\n      pop\n      jump\t// out\n        /* \"#utility.yul\":1157:1253   */\n    tag_47:\n        /* \"#utility.yul\":1194:1201   */\n      0x00\n        /* \"#utility.yul\":1223:1247   */\n      tag_74\n        /* \"#utility.yul\":1241:1246   */\n      dup3\n        /* \"#utility.yul\":1223:1247   */\n      tag_46\n      jump\t// in\n    tag_74:\n        /* \"#utility.yul\":1212:1247   */\n      swap1\n      pop\n        /* \"#utility.yul\":1157:1253   */\n      swap2\n      swap1\n      pop\n      jump\t// out\n        /* \"#utility.yul\":1259:1381   */\n    tag_48:\n        /* \"#utility.yul\":1332:1356   */\n      tag_76\n        /* \"#utility.yul\":1350:1355   */\n      dup2\n        /* \"#utility.yul\":1332:1356   */\n      tag_47\n      jump\t// in\n    tag_76:\n        /* \"#utility.yul\":1325:1330   */\n      dup2\n        /* \"#utility.yul\":1322:1357   */\n      eq\n        /* \"#utility.yul\":1312:1375   */\n      tag_77\n      jumpi\n        /* \"#utility.yul\":1371:1372   */\n      0x00\n        /* \"#utility.yul\":1368:1369   */\n      0x00\n        /* \"#utility.yul\":1361:1373   */\n      revert\n        /* \"#utility.yul\":1312:1375   */\n    tag_77:\n        /* \"#utility.yul\":1259:1381   */\n      pop\n      jump\t// out\n        /* \"#utility.yul\":1387:1526   */\n    tag_49:\n        /* \"#utility.yul\":1433:1438   */\n      0x00\n        /* \"#utility.yul\":1471:1477   */\n      dup2\n        /* \"#utility.yul\":1458:1478   */\n      calldataload\n        /* \"#utility.yul\":1449:1478   */\n      swap1\n      pop\n        /* \"#utility.yul\":1487:1520   */\n      tag_79\n        /* \"#utility.yul\":1514:1519   */\n      dup2\n        /* \"#utility.yul\":1487:1520   */\n      tag_48\n      jump\t// in\n    tag_79:\n        /* \"#utility.yul\":1387:1526   */\n      swap3\n      swap2\n      pop\n      pop\n      jump\t// out\n        /* \"#utility.yul\":1532:1861   */\n    tag_14:\n        /* \"#utility.yul\":1591:1597   */\n      0x00\n        /* \"#utility.yul\":1640:1642   */\n      0x20\n        /* \"#utility.yul\":1628:1637   */\n      dup3\n        /* \"#utility.yul\":1619:1626   */\n      dup5\n        /* \"#utility.yul\":1615:1638   */\n      sub\n        /* \"#utility.yul\":1611:1643   */\n      slt\n        /* \"#utility.yul\":1608:1727   */\n      iszero\n      tag_81\n      jumpi\n        /* \"#utility.yul\":1646:1725   */\n      tag_82\n      tag_41\n      jump\t// in\n    tag_82:\n        /* \"#utility.yul\":1608:1727   */\n    tag_81:\n        /* \"#utility.yul\":1766:1767   */\n      0x00\n        /* \"#utility.yul\":1791:1844   */\n      tag_83\n        /* \"#utility.yul\":1836:1843   */\n      dup5\n        /* \"#utility.yul\":1827:1833   */\n      dup3\n        /* \"#utility.yul\":1816:1825   */\n      dup6\n        /* \"#utility.yul\":1812:1834   */\n      add\n        /* \"#utility.yul\":1791:1844   */\n      tag_49\n      jump\t// in\n    tag_83:\n        /* \"#utility.yul\":1781:1844   */\n      swap2\n      pop\n        /* \"#utility.yul\":1737:1854   */\n      pop\n        /* \"#utility.yul\":1532:1861   */\n      swap3\n      swap2\n      pop\n      pop\n      jump\t// out\n        /* \"#utility.yul\":1867:1985   */\n    tag_50:\n        /* \"#utility.yul\":1954:1978   */\n      tag_85\n        /* \"#utility.yul\":1972:1977   */\n      dup2\n        /* \"#utility.yul\":1954:1978   */\n      tag_47\n      jump\t// in\n    tag_85:\n        /* \"#utility.yul\":1949:1952   */\n      dup3\n        /* \"#utility.yul\":1942:1979   */\n      mstore\n        /* \"#utility.yul\":1867:1985   */\n      pop\n      pop\n      jump\t// out\n        /* \"#utility.yul\":1991:2213   */\n    tag_19:\n        /* \"#utility.yul\":2084:2088   */\n      0x00\n        /* \"#utility.yul\":2122:2124   */\n      0x20\n        /* \"#utility.yul\":2111:2120   */\n      dup3\n        /* \"#utility.yul\":2107:2125   */\n      add\n        /* \"#utility.yul\":2099:2125   */\n      swap1\n      pop\n        /* \"#utility.yul\":2135:2206   */\n      tag_87\n        /* \"#utility.yul\":2203:2204   */\n      0x00\n        /* \"#utility.yul\":2192:2201   */\n      dup4\n        /* \"#utility.yul\":2188:2205   */\n      add\n        /* \"#utility.yul\":2179:2185   */\n      dup5\n        /* \"#utility.yul\":2135:2206   */\n      tag_50\n      jump\t// in\n    tag_87:\n        /* \"#utility.yul\":1991:2213   */\n      swap3\n      swap2\n      pop\n      pop\n      jump\t// out\n        /* \"#utility.yul\":2219:2279   */\n    tag_51:\n        /* \"#utility.yul\":2247:2250   */\n      0x00\n        /* \"#utility.yul\":2268:2273   */\n      dup2\n        /* \"#utility.yul\":2261:2273   */\n      swap1\n      pop\n        /* \"#utility.yul\":2219:2279   */\n      swap2\n      swap1\n      pop\n      jump\t// out\n        /* \"#utility.yul\":2285:2427   */\n    tag_52:\n        /* \"#utility.yul\":2335:2344   */\n      0x00\n        /* \"#utility.yul\":2368:2421   */\n      tag_90\n        /* \"#utility.yul\":2386:2420   */\n      tag_91\n        /* \"#utility.yul\":2395:2419   */\n      tag_92\n        /* \"#utility.yul\":2413:2418   */\n      dup5\n        /* \"#utility.yul\":2395:2419   */\n      tag_46\n      jump\t// in\n    tag_92:\n        /* \"#utility.yul\":2386:2420   */\n      tag_51\n      jump\t// in\n    tag_91:\n        /* \"#utility.yul\":2368:2421   */\n      tag_46\n      jump\t// in\n    tag_90:\n        /* \"#utility.yul\":2355:2421   */\n      swap1\n      pop\n        /* \"#utility.yul\":2285:2427   */\n      swap2\n      swap1\n      pop\n      jump\t// out\n        /* \"#utility.yul\":2433:2559   */\n    tag_53:\n        /* \"#utility.yul\":2483:2492   */\n      0x00\n        /* \"#utility.yul\":2516:2553   */\n      tag_94\n        /* \"#utility.yul\":2547:2552   */\n      dup3\n        /* \"#utility.yul\":2516:2553   */\n      tag_52\n      jump\t// in\n    tag_94:\n        /* \"#utility.yul\":2503:2553   */\n      swap1\n      pop\n        /* \"#utility.yul\":2433:2559   */\n      swap2\n      swap1\n      pop\n      jump\t// out\n        /* \"#utility.yul\":2565:2704   */\n    tag_54:\n        /* \"#utility.yul\":2628:2637   */\n      0x00\n        /* \"#utility.yul\":2661:2698   */\n      tag_96\n        /* \"#utility.yul\":2692:2697   */\n      dup3\n        /* \"#utility.yul\":2661:2698   */\n      tag_53\n      jump\t// in\n    tag_96:\n        /* \"#utility.yul\":2648:2698   */\n      swap1\n      pop\n        /* \"#utility.yul\":2565:2704   */\n      swap2\n      swap1\n      pop\n      jump\t// out\n        /* \"#utility.yul\":2710:2867   */\n    tag_55:\n        /* \"#utility.yul\":2810:2860   */\n      tag_98\n        /* \"#utility.yul\":2854:2859   */\n      dup2\n        /* \"#utility.yul\":2810:2860   */\n      tag_54\n      jump\t// in\n    tag_98:\n        /* \"#utility.yul\":2805:2808   */\n      dup3\n        /* \"#utility.yul\":2798:2861   */\n      mstore\n        /* \"#utility.yul\":2710:2867   */\n      pop\n      pop\n      jump\t// out\n        /* \"#utility.yul\":2873:3121   */\n    tag_23:\n        /* \"#utility.yul\":2979:2983   */\n      0x00\n        /* \"#utility.yul\":3017:3019   */\n      0x20\n        /* \"#utility.yul\":3006:3015   */\n      dup3\n        /* \"#utility.yul\":3002:3020   */\n      add\n        /* \"#utility.yul\":2994:3020   */\n      swap1\n      pop\n        /* \"#utility.yul\":3030:3114   */\n      tag_100\n        /* \"#utility.yul\":3111:3112   */\n      0x00\n        /* \"#utility.yul\":3100:3109   */\n      dup4\n        /* \"#utility.yul\":3096:3113   */\n      add\n        /* \"#utility.yul\":3087:3093   */\n      dup5\n        /* \"#utility.yul\":3030:3114   */\n      tag_55\n      jump\t// in\n    tag_100:\n        /* \"#utility.yul\":2873:3121   */\n      swap3\n      swap2\n      pop\n      pop\n      jump\t// out\n        /* \"#utility.yul\":3127:3245   */\n    tag_56:\n        /* \"#utility.yul\":3214:3238   */\n      tag_102\n        /* \"#utility.yul\":3232:3237   */\n      dup2\n        /* \"#utility.yul\":3214:3238   */\n      tag_43\n      jump\t// in\n    tag_102:\n        /* \"#utility.yul\":3209:3212   */\n      dup3\n        /* \"#utility.yul\":3202:3239   */\n      mstore\n        /* \"#utility.yul\":3127:3245   */\n      pop\n      pop\n      jump\t// out\n        /* \"#utility.yul\":3251:3473   */\n    tag_27:\n        /* \"#utility.yul\":3344:3348   */\n      0x00\n        /* \"#utility.yul\":3382:3384   */\n      0x20\n        /* \"#utility.yul\":3371:3380   */\n      dup3\n        /* \"#utility.yul\":3367:3385   */\n      add\n        /* \"#utility.yul\":3359:3385   */\n      swap1\n      pop\n        /* \"#utility.yul\":3395:3466   */\n      tag_104\n        /* \"#utility.yul\":3463:3464   */\n      0x00\n        /* \"#utility.yul\":3452:3461   */\n      dup4\n        /* \"#utility.yul\":3448:3465   */\n      add\n        /* \"#utility.yul\":3439:3445   */\n      dup5\n        /* \"#utility.yul\":3395:3466   */\n      tag_56\n      jump\t// in\n    tag_104:\n        /* \"#utility.yul\":3251:3473   */\n      swap3\n      swap2\n      pop\n      pop\n      jump\t// out\n        /* \"#utility.yul\":3479:3622   */\n    tag_57:\n        /* \"#utility.yul\":3536:3541   */\n      0x00\n        /* \"#utility.yul\":3567:3573   */\n      dup2\n        /* \"#utility.yul\":3561:3574   */\n      mload\n        /* \"#utility.yul\":3552:3574   */\n      swap1\n      pop\n        /* \"#utility.yul\":3583:3616   */\n      tag_106\n        /* \"#utility.yul\":3610:3615   */\n      dup2\n        /* \"#utility.yul\":3583:3616   */\n      tag_44\n      jump\t// in\n    tag_106:\n        /* \"#utility.yul\":3479:3622   */\n      swap3\n      swap2\n      pop\n      pop\n      jump\t// out\n        /* \"#utility.yul\":3628:3979   */\n    tag_39:\n        /* \"#utility.yul\":3698:3704   */\n      0x00\n        /* \"#utility.yul\":3747:3749   */\n      0x20\n        /* \"#utility.yul\":3735:3744   */\n      dup3\n        /* \"#utility.yul\":3726:3733   */\n      dup5\n        /* \"#utility.yul\":3722:3745   */\n      sub\n        /* \"#utility.yul\":3718:3750   */\n      slt\n        /* \"#utility.yul\":3715:3834   */\n      iszero\n      tag_108\n      jumpi\n        /* \"#utility.yul\":3753:3832   */\n      tag_109\n      tag_41\n      jump\t// in\n    tag_109:\n        /* \"#utility.yul\":3715:3834   */\n    tag_108:\n        /* \"#utility.yul\":3873:3874   */\n      0x00\n        /* \"#utility.yul\":3898:3962   */\n      tag_110\n        /* \"#utility.yul\":3954:3961   */\n      dup5\n        /* \"#utility.yul\":3945:3951   */\n      dup3\n        /* \"#utility.yul\":3934:3943   */\n      dup6\n        /* \"#utility.yul\":3930:3952   */\n      add\n        /* \"#utility.yul\":3898:3962   */\n      tag_57\n      jump\t// in\n    tag_110:\n        /* \"#utility.yul\":3888:3962   */\n      swap2\n      pop\n        /* \"#utility.yul\":3844:3972   */\n      pop\n        /* \"#utility.yul\":3628:3979   */\n      swap3\n      swap2\n      pop\n      pop\n      jump\t// out\n\n    auxdata: 0xa2646970667358221220175b2f488c3ae0ac2ca3e20dc288f743124e4b17cf9c558a209bcb46b0c6902264736f6c634300081e0033\n}\n",
				"bytecode": {
					"linkReferences": {},
					"object": "6080604052348015600e575f5ffd5b506104b58061001c5f395ff3fe608060405234801561000f575f5ffd5b5060043610610055575f3560e01c80633d4197f0146100595780637185700014610075578063ba8c65ae14610091578063d7dfa0dd146100af578063e1cb0e52146100cd575b5f5ffd5b610073600480360381019061006e91906102cc565b6100eb565b005b61008f600480360381019061008a9190610351565b610174565b005b6100996101b6565b6040516100a6919061038b565b60405180910390f35b6100b76101dd565b6040516100c491906103ff565b60405180910390f35b6100d5610201565b6040516100e29190610427565b60405180910390f35b5f5f9054906101000a900473ffffffffffffffffffffffffffffffffffffffff1673ffffffffffffffffffffffffffffffffffffffff16633d4197f0826040518263ffffffff1660e01b81526004016101449190610427565b5f604051808303815f87803b15801561015b575f5ffd5b505af115801561016d573d5f5f3e3d5ffd5b5050505050565b805f5f6101000a81548173ffffffffffffffffffffffffffffffffffffffff021916908373ffffffffffffffffffffffffffffffffffffffff16021790555050565b5f5f5f9054906101000a900473ffffffffffffffffffffffffffffffffffffffff16905090565b5f5f9054906101000a900473ffffffffffffffffffffffffffffffffffffffff1681565b5f5f5f9054906101000a900473ffffffffffffffffffffffffffffffffffffffff1673ffffffffffffffffffffffffffffffffffffffff1663e1cb0e526040518163ffffffff1660e01b81526004016020604051808303815f875af115801561026c573d5f5f3e3d5ffd5b505050506040513d601f19601f820116820180604052508101906102909190610454565b905090565b5f5ffd5b5f819050919050565b6102ab81610299565b81146102b5575f5ffd5b50565b5f813590506102c6816102a2565b92915050565b5f602082840312156102e1576102e0610295565b5b5f6102ee848285016102b8565b91505092915050565b5f73ffffffffffffffffffffffffffffffffffffffff82169050919050565b5f610320826102f7565b9050919050565b61033081610316565b811461033a575f5ffd5b50565b5f8135905061034b81610327565b92915050565b5f6020828403121561036657610365610295565b5b5f6103738482850161033d565b91505092915050565b61038581610316565b82525050565b5f60208201905061039e5f83018461037c565b92915050565b5f819050919050565b5f6103c76103c26103bd846102f7565b6103a4565b6102f7565b9050919050565b5f6103d8826103ad565b9050919050565b5f6103e9826103ce565b9050919050565b6103f9816103df565b82525050565b5f6020820190506104125f8301846103f0565b92915050565b61042181610299565b82525050565b5f60208201905061043a5f830184610418565b92915050565b5f8151905061044e816102a2565b92915050565b5f6020828403121561046957610468610295565b5b5f61047684828501610440565b9150509291505056fea2646970667358221220175b2f488c3ae0ac2ca3e20dc288f743124e4b17cf9c558a209bcb46b0c6902264736f6c634300081e0033",
					"opcodes": "PUSH1 0x80 PUSH1 0x40 MSTORE CALLVALUE DUP1 ISZERO PUSH1 0xE JUMPI PUSH0 PUSH0 REVERT JUMPDEST POP PUSH2 0x4B5 DUP1 PUSH2 0x1C PUSH0 CODECOPY PUSH0 RETURN INVALID PUSH1 0x80 PUSH1 0x40 MSTORE CALLVALUE DUP1 ISZERO PUSH2 0xF JUMPI PUSH0 PUSH0 REVERT JUMPDEST POP PUSH1 0x4 CALLDATASIZE LT PUSH2 0x55 JUMPI PUSH0 CALLDATALOAD PUSH1 0xE0 SHR DUP1 PUSH4 0x3D4197F0 EQ PUSH2 0x59 JUMPI DUP1 PUSH4 0x71857000 EQ PUSH2 0x75 JUMPI DUP1 PUSH4 0xBA8C65AE EQ PUSH2 0x91 JUMPI DUP1 PUSH4 0xD7DFA0DD EQ PUSH2 0xAF JUMPI DUP1 PUSH4 0xE1CB0E52 EQ PUSH2 0xCD JUMPI JUMPDEST PUSH0 PUSH0 REVERT JUMPDEST PUSH2 0x73 PUSH1 0x4 DUP1 CALLDATASIZE SUB DUP2 ADD SWAP1 PUSH2 0x6E SWAP2 SWAP1 PUSH2 0x2CC JUMP JUMPDEST PUSH2 0xEB JUMP JUMPDEST STOP JUMPDEST PUSH2 0x8F PUSH1 0x4 DUP1 CALLDATASIZE SUB DUP2 ADD SWAP1 PUSH2 0x8A SWAP2 SWAP1 PUSH2 0x351 JUMP JUMPDEST PUSH2 0x174 JUMP JUMPDEST STOP JUMPDEST PUSH2 0x99 PUSH2 0x1B6 JUMP JUMPDEST PUSH1 0x40 MLOAD PUSH2 0xA6 SWAP2 SWAP1 PUSH2 0x38B JUMP JUMPDEST PUSH1 0x40 MLOAD DUP1 SWAP2 SUB SWAP1 RETURN JUMPDEST PUSH2 0xB7 PUSH2 0x1DD JUMP JUMPDEST PUSH1 0x40 MLOAD PUSH2 0xC4 SWAP2 SWAP1 PUSH2 0x3FF JUMP JUMPDEST PUSH1 0x40 MLOAD DUP1 SWAP2 SUB SWAP1 RETURN JUMPDEST PUSH2 0xD5 PUSH2 0x201 JUMP JUMPDEST PUSH1 0x40 MLOAD PUSH2 0xE2 SWAP2 SWAP1 PUSH2 0x427 JUMP JUMPDEST PUSH1 0x40 MLOAD DUP1 SWAP2 SUB SWAP1 RETURN JUMPDEST PUSH0 PUSH0 SWAP1 SLOAD SWAP1 PUSH2 0x100 EXP SWAP1 DIV PUSH20 0xFFFFFFFFFFFFFFFFFFFFFFFFFFFFFFFFFFFFFFFF AND PUSH20 0xFFFFFFFFFFFFFFFFFFFFFFFFFFFFFFFFFFFFFFFF AND PUSH4 0x3D4197F0 DUP3 PUSH1 0x40 MLOAD DUP3 PUSH4 0xFFFFFFFF AND PUSH1 0xE0 SHL DUP2 MSTORE PUSH1 0x4 ADD PUSH2 0x144 SWAP2 SWAP1 PUSH2 0x427 JUMP JUMPDEST PUSH0 PUSH1 0x40 MLOAD DUP1 DUP4 SUB DUP2 PUSH0 DUP8 DUP1 EXTCODESIZE ISZERO DUP1 ISZERO PUSH2 0x15B JUMPI PUSH0 PUSH0 REVERT JUMPDEST POP GAS CALL ISZERO DUP1 ISZERO PUSH2 0x16D JUMPI RETURNDATASIZE PUSH0 PUSH0 RETURNDATACOPY RETURNDATASIZE PUSH0 REVERT JUMPDEST POP POP POP POP POP JUMP JUMPDEST DUP1 PUSH0 PUSH0 PUSH2 0x100 EXP DUP2 SLOAD DUP2 PUSH20 0xFFFFFFFFFFFFFFFFFFFFFFFFFFFFFFFFFFFFFFFF MUL NOT AND SWAP1 DUP4 PUSH20 0xFFFFFFFFFFFFFFFFFFFFFFFFFFFFFFFFFFFFFFFF AND MUL OR SWAP1 SSTORE POP POP JUMP JUMPDEST PUSH0 PUSH0 PUSH0 SWAP1 SLOAD SWAP1 PUSH2 0x100 EXP SWAP1 DIV PUSH20 0xFFFFFFFFFFFFFFFFFFFFFFFFFFFFFFFFFFFFFFFF AND SWAP1 POP SWAP1 JUMP JUMPDEST PUSH0 PUSH0 SWAP1 SLOAD SWAP1 PUSH2 0x100 EXP SWAP1 DIV PUSH20 0xFFFFFFFFFFFFFFFFFFFFFFFFFFFFFFFFFFFFFFFF AND DUP2 JUMP JUMPDEST PUSH0 PUSH0 PUSH0 SWAP1 SLOAD SWAP1 PUSH2 0x100 EXP SWAP1 DIV PUSH20 0xFFFFFFFFFFFFFFFFFFFFFFFFFFFFFFFFFFFFFFFF AND PUSH20 0xFFFFFFFFFFFFFFFFFFFFFFFFFFFFFFFFFFFFFFFF AND PUSH4 0xE1CB0E52 PUSH1 0x40 MLOAD DUP2 PUSH4 0xFFFFFFFF AND PUSH1 0xE0 SHL DUP2 MSTORE PUSH1 0x4 ADD PUSH1 0x20 PUSH1 0x40 MLOAD DUP1 DUP4 SUB DUP2 PUSH0 DUP8 GAS CALL ISZERO DUP1 ISZERO PUSH2 0x26C JUMPI RETURNDATASIZE PUSH0 PUSH0 RETURNDATACOPY RETURNDATASIZE PUSH0 REVERT JUMPDEST POP POP POP POP PUSH1 0x40 MLOAD RETURNDATASIZE PUSH1 0x1F NOT PUSH1 0x1F DUP3 ADD AND DUP3 ADD DUP1 PUSH1 0x40 MSTORE POP DUP2 ADD SWAP1 PUSH2 0x290 SWAP2 SWAP1 PUSH2 0x454 JUMP JUMPDEST SWAP1 POP SWAP1 JUMP JUMPDEST PUSH0 PUSH0 REVERT JUMPDEST PUSH0 DUP2 SWAP1 POP SWAP2 SWAP1 POP JUMP JUMPDEST PUSH2 0x2AB DUP2 PUSH2 0x299 JUMP JUMPDEST DUP2 EQ PUSH2 0x2B5 JUMPI PUSH0 PUSH0 REVERT JUMPDEST POP JUMP JUMPDEST PUSH0 DUP2 CALLDATALOAD SWAP1 POP PUSH2 0x2C6 DUP2 PUSH2 0x2A2 JUMP JUMPDEST SWAP3 SWAP2 POP POP JUMP JUMPDEST PUSH0 PUSH1 0x20 DUP3 DUP5 SUB SLT ISZERO PUSH2 0x2E1 JUMPI PUSH2 0x2E0 PUSH2 0x295 JUMP JUMPDEST JUMPDEST PUSH0 PUSH2 0x2EE DUP5 DUP3 DUP6 ADD PUSH2 0x2B8 JUMP JUMPDEST SWAP2 POP POP SWAP3 SWAP2 POP POP JUMP JUMPDEST PUSH0 PUSH20 0xFFFFFFFFFFFFFFFFFFFFFFFFFFFFFFFFFFFFFFFF DUP3 AND SWAP1 POP SWAP2 SWAP1 POP JUMP JUMPDEST PUSH0 PUSH2 0x320 DUP3 PUSH2 0x2F7 JUMP JUMPDEST SWAP1 POP SWAP2 SWAP1 POP JUMP JUMPDEST PUSH2 0x330 DUP2 PUSH2 0x316 JUMP JUMPDEST DUP2 EQ PUSH2 0x33A JUMPI PUSH0 PUSH0 REVERT JUMPDEST POP JUMP JUMPDEST PUSH0 DUP2 CALLDATALOAD SWAP1 POP PUSH2 0x34B DUP2 PUSH2 0x327 JUMP JUMPDEST SWAP3 SWAP2 POP POP JUMP JUMPDEST PUSH0 PUSH1 0x20 DUP3 DUP5 SUB SLT ISZERO PUSH2 0x366 JUMPI PUSH2 0x365 PUSH2 0x295 JUMP JUMPDEST JUMPDEST PUSH0 PUSH2 0x373 DUP5 DUP3 DUP6 ADD PUSH2 0x33D JUMP JUMPDEST SWAP2 POP POP SWAP3 SWAP2 POP POP JUMP JUMPDEST PUSH2 0x385 DUP2 PUSH2 0x316 JUMP JUMPDEST DUP3 MSTORE POP POP JUMP JUMPDEST PUSH0 PUSH1 0x20 DUP3 ADD SWAP1 POP PUSH2 0x39E PUSH0 DUP4 ADD DUP5 PUSH2 0x37C JUMP JUMPDEST SWAP3 SWAP2 POP POP JUMP JUMPDEST PUSH0 DUP2 SWAP1 POP SWAP2 SWAP1 POP JUMP JUMPDEST PUSH0 PUSH2 0x3C7 PUSH2 0x3C2 PUSH2 0x3BD DUP5 PUSH2 0x2F7 JUMP JUMPDEST PUSH2 0x3A4 JUMP JUMPDEST PUSH2 0x2F7 JUMP JUMPDEST SWAP1 POP SWAP2 SWAP1 POP JUMP JUMPDEST PUSH0 PUSH2 0x3D8 DUP3 PUSH2 0x3AD JUMP JUMPDEST SWAP1 POP SWAP2 SWAP1 POP JUMP JUMPDEST PUSH0 PUSH2 0x3E9 DUP3 PUSH2 0x3CE JUMP JUMPDEST SWAP1 POP SWAP2 SWAP1 POP JUMP JUMPDEST PUSH2 0x3F9 DUP2 PUSH2 0x3DF JUMP JUMPDEST DUP3 MSTORE POP POP JUMP JUMPDEST PUSH0 PUSH1 0x20 DUP3 ADD SWAP1 POP PUSH2 0x412 PUSH0 DUP4 ADD DUP5 PUSH2 0x3F0 JUMP JUMPDEST SWAP3 SWAP2 POP POP JUMP JUMPDEST PUSH2 0x421 DUP2 PUSH2 0x299 JUMP JUMPDEST DUP3 MSTORE POP POP JUMP JUMPDEST PUSH0 PUSH1 0x20 DUP3 ADD SWAP1 POP PUSH2 0x43A PUSH0 DUP4 ADD DUP5 PUSH2 0x418 JUMP JUMPDEST SWAP3 SWAP2 POP POP JUMP JUMPDEST PUSH0 DUP2 MLOAD SWAP1 POP PUSH2 0x44E DUP2 PUSH2 0x2A2 JUMP JUMPDEST SWAP3 SWAP2 POP POP JUMP JUMPDEST PUSH0 PUSH1 0x20 DUP3 DUP5 SUB SLT ISZERO PUSH2 0x469 JUMPI PUSH2 0x468 PUSH2 0x295 JUMP JUMPDEST JUMPDEST PUSH0 PUSH2 0x476 DUP5 DUP3 DUP6 ADD PUSH2 0x440 JUMP JUMPDEST SWAP2 POP POP SWAP3 SWAP2 POP POP JUMP INVALID LOG2 PUSH5 0x6970667358 0x22 SLT KECCAK256 OR JUMPDEST 0x2F BASEFEE DUP13 GASPRICE RJUMP 0xAC2C LOG3 0xE2 0xD 0xC2 DUP9 0xF7 NUMBER SLT 0x4E 0x4B OR 0xCF SWAP13 SSTORE DUP11 KECCAK256 SWAP12 0xCB CHAINID 0xB0 0xC6 SWAP1 0x22 PUSH5 0x736F6C6343 STOP ADDMOD 0x1E STOP CALLER "
				},
				"gasEstimates": {
					"creation": {
						"codeDepositCost": "241000",
						"executionCost": "279",
						"totalCost": "241279"
					},
					"external": {
						"getLogic()": "2536",
						"getVal()": "infinite",
						"logic()": "infinite",
						"setLogic(address)": "24714",
						"setVal(uint256)": "infinite"
					}
				},
				"methodIdentifiers": {
					"getLogic()": "ba8c65ae",
					"getVal()": "e1cb0e52",
					"logic()": "d7dfa0dd",
					"setLogic(address)": "71857000",
					"setVal(uint256)": "3d4197f0"
				}
			},
			"storageLayout": {
				"storage": [
					{
						"astId": 61,
						"contract": "@course/meta-node/solidity/mine/solidity_lesson/hardhat-demo2/contracts/test/TestProxy.sol:Proxy",
						"label": "logic",
						"offset": 0,
						"slot": "0",
						"type": "t_contract(ILogic)58"
					}
				],
				"types": {
					"t_contract(ILogic)58": {
						"encoding": "inplace",
						"label": "contract ILogic",
						"numberOfBytes": "20"
					}
				}
			},
			"userdoc": {
				"kind": "user",
				"methods": {},
				"version": 1
			}
		}
	}
}