{
	"@course/meta-node/solidity/mine/solidity_lesson/study_code/2.1数据类型基础/IntegerType.sol": {
		"IntegerType": {
			"abi": [
				{
					"inputs": [],
					"name": "arithmeticOperations",
					"outputs": [
						{
							"internalType": "uint256",
							"name": "",
							"type": "uint256"
						},
						{
							"internalType": "uint256",
							"name": "",
							"type": "uint256"
						},
						{
							"internalType": "uint256",
							"name": "",
							"type": "uint256"
						},
						{
							"internalType": "uint256",
							"name": "",
							"type": "uint256"
						},
						{
							"internalType": "uint256",
							"name": "",
							"type": "uint256"
						},
						{
							"internalType": "uint256",
							"name": "",
							"type": "uint256"
						}
					],
					"stateMutability": "pure",
					"type": "function"
				},
				{
					"inputs": [],
					"name": "compare",
					"outputs": [
						{
							"internalType": "bool",
							"name": "",
							"type": "bool"
						},
						{
							"internalType": "bool",
							"name": "",
							"type": "bool"
						},
						{
							"internalType": "bool",
							"name": "",
							"type": "bool"
						},
						{
							"internalType": "bool",
							"name": "",
							"type": "bool"
						},
						{
							"internalType": "bool",
							"name": "",
							"type": "bool"
						},
						{
							"internalType": "bool",
							"name": "",
							"type": "bool"
						}
					],
					"stateMutability": "pure",
					"type": "function"
				},
				{
					"inputs": [],
					"name": "divideWithPrecision",
					"outputs": [
						{
							"internalType": "uint256",
							"name": "",
							"type": "uint256"
						}
					],
					"stateMutability": "pure",
					"type": "function"
				},
				{
					"inputs": [],
					"name": "division",
					"outputs": [
						{
							"internalType": "uint256",
							"name": "",
							"type": "uint256"
						}
					],
					"stateMutability": "pure",
					"type": "function"
				},
				{
					"inputs": [
						{
							"internalType": "uint8",
							"name": "x",
							"type": "uint8"
						}
					],
					"name": "incrementChecked",
					"outputs": [
						{
							"internalType": "uint256",
							"name": "",
							"type": "uint256"
						}
					],
					"stateMutability": "pure",
					"type": "function"
				},
				{
					"inputs": [
						{
							"internalType": "uint8",
							"name": "x",
							"type": "uint8"
						}
					],
					"name": "incrementUnchecked",
					"outputs": [
						{
							"internalType": "uint256",
							"name": "",
							"type": "uint256"
						}
					],
					"stateMutability": "pure",
					"type": "function"
				},
				{
					"inputs": [],
					"name": "intTypes",
					"outputs": [
						{
							"internalType": "int256",
							"name": "",
							"type": "int256"
						},
						{
							"internalType": "int256",
							"name": "",
							"type": "int256"
						},
						{
							"internalType": "uint256",
							"name": "",
							"type": "uint256"
						},
						{
							"internalType": "uint256",
							"name": "",
							"type": "uint256"
						}
					],
					"stateMutability": "pure",
					"type": "function"
				},
				{
					"inputs": [
						{
							"internalType": "uint256[]",
							"name": "arr",
							"type": "uint256[]"
						}
					],
					"name": "sumArray",
					"outputs": [
						{
							"internalType": "uint256",
							"name": "",
							"type": "uint256"
						}
					],
					"stateMutability": "pure",
					"type": "function"
				},
				{
					"inputs": [],
					"name": "testOverflow",
					"outputs": [
						{
							"internalType": "uint8",
							"name": "",
							"type": "uint8"
						}
					],
					"stateMutability": "pure",
					"type": "function"
				},
				{
					"inputs": [],
					"name": "testUnderflow",
					"outputs": [
						{
							"internalType": "uint8",
							"name": "",
							"type": "uint8"
						}
					],
					"stateMutability": "pure",
					"type": "function"
				}
			],
			"devdoc": {
				"kind": "dev",
				"methods": {},
				"version": 1
			},
			"evm": {
				"assembly": "    /* \"@course/meta-node/solidity/mine/solidity_lesson/study_code/2.1\\xe6\\x95\\xb0\\xe6\\x8d\\xae\\xe7\\xb1\\xbb\\xe5\\x9e\\x8b\\xe5\\x9f\\xba\\xe7\\xa1\\x80/IntegerType.sol\":57:2736  contract IntegerType {... */\n  mstore(0x40, 0x80)\n  callvalue\n  dup1\n  iszero\n  tag_1\n  jumpi\n  revert(0x00, 0x00)\ntag_1:\n  pop\n  dataSize(sub_0)\n  dup1\n  dataOffset(sub_0)\n  0x00\n  codecopy\n  0x00\n  return\nstop\n\nsub_0: assembly {\n        /* \"@course/meta-node/solidity/mine/solidity_lesson/study_code/2.1\\xe6\\x95\\xb0\\xe6\\x8d\\xae\\xe7\\xb1\\xbb\\xe5\\x9e\\x8b\\xe5\\x9f\\xba\\xe7\\xa1\\x80/IntegerType.sol\":57:2736  contract IntegerType {... */\n      mstore(0x40, 0x80)\n      callvalue\n      dup1\n      iszero\n      tag_1\n      jumpi\n      revert(0x00, 0x00)\n    tag_1:\n      pop\n      jumpi(tag_2, lt(calldatasize, 0x04))\n      shr(0xe0, calldataload(0x00))\n      dup1\n      0x66d162d2\n      gt\n      tag_13\n      jumpi\n      dup1\n      0x66d162d2\n      eq\n      tag_8\n      jumpi\n      dup1\n      0x7f3f6a73\n      eq\n      tag_9\n      jumpi\n      dup1\n      0x8040cac4\n      eq\n      tag_10\n      jumpi\n      dup1\n      0x911608b3\n      eq\n      tag_11\n      jumpi\n      dup1\n      0x91515d8f\n      eq\n      tag_12\n      jumpi\n      jump(tag_2)\n    tag_13:\n      dup1\n      0x056ae323\n      eq\n      tag_3\n      jumpi\n      dup1\n      0x1e2aea06\n      eq\n      tag_4\n      jumpi\n      dup1\n      0x3129daba\n      eq\n      tag_5\n      jumpi\n      dup1\n      0x3205f5fc\n      eq\n      tag_6\n      jumpi\n      dup1\n      0x3da0ac79\n      eq\n      tag_7\n      jumpi\n    tag_2:\n      revert(0x00, 0x00)\n        /* \"@course/meta-node/solidity/mine/solidity_lesson/study_code/2.1\\xe6\\x95\\xb0\\xe6\\x8d\\xae\\xe7\\xb1\\xbb\\xe5\\x9e\\x8b\\xe5\\x9f\\xba\\xe7\\xa1\\x80/IntegerType.sol\":1810:1969  function incrementUnchecked(uint8 x) public pure returns (uint) {... */\n    tag_3:\n      tag_14\n      0x04\n      dup1\n      calldatasize\n      sub\n      dup2\n      add\n      swap1\n      tag_15\n      swap2\n      swap1\n      tag_16\n      jump\t// in\n    tag_15:\n      tag_17\n      jump\t// in\n    tag_14:\n      mload(0x40)\n      tag_18\n      swap2\n      swap1\n      tag_19\n      jump\t// in\n    tag_18:\n      mload(0x40)\n      dup1\n      swap2\n      sub\n      swap1\n      return\n        /* \"@course/meta-node/solidity/mine/solidity_lesson/study_code/2.1\\xe6\\x95\\xb0\\xe6\\x8d\\xae\\xe7\\xb1\\xbb\\xe5\\x9e\\x8b\\xe5\\x9f\\xba\\xe7\\xa1\\x80/IntegerType.sol\":2018:2320  function sumArray(uint[] memory arr) public pure returns (uint) {... */\n    tag_4:\n      tag_20\n      0x04\n      dup1\n      calldatasize\n      sub\n      dup2\n      add\n      swap1\n      tag_21\n      swap2\n      swap1\n      tag_22\n      jump\t// in\n    tag_21:\n      tag_23\n      jump\t// in\n    tag_20:\n      mload(0x40)\n      tag_24\n      swap2\n      swap1\n      tag_19\n      jump\t// in\n    tag_24:\n      mload(0x40)\n      dup1\n      swap2\n      sub\n      swap1\n      return\n        /* \"@course/meta-node/solidity/mine/solidity_lesson/study_code/2.1\\xe6\\x95\\xb0\\xe6\\x8d\\xae\\xe7\\xb1\\xbb\\xe5\\x9e\\x8b\\xe5\\x9f\\xba\\xe7\\xa1\\x80/IntegerType.sol\":359:813  function arithmeticOperations()... */\n    tag_5:\n      tag_25\n      tag_26\n      jump\t// in\n    tag_25:\n      mload(0x40)\n      tag_27\n      swap7\n      swap6\n      swap5\n      swap4\n      swap3\n      swap2\n      swap1\n      tag_28\n      jump\t// in\n    tag_27:\n      mload(0x40)\n      dup1\n      swap2\n      sub\n      swap1\n      return\n        /* \"@course/meta-node/solidity/mine/solidity_lesson/study_code/2.1\\xe6\\x95\\xb0\\xe6\\x8d\\xae\\xe7\\xb1\\xbb\\xe5\\x9e\\x8b\\xe5\\x9f\\xba\\xe7\\xa1\\x80/IntegerType.sol\":819:944  function division() public pure returns (uint) {... */\n    tag_6:\n      tag_29\n      tag_30\n      jump\t// in\n    tag_29:\n      mload(0x40)\n      tag_31\n      swap2\n      swap1\n      tag_19\n      jump\t// in\n    tag_31:\n      mload(0x40)\n      dup1\n      swap2\n      sub\n      swap1\n      return\n        /* \"@course/meta-node/solidity/mine/solidity_lesson/study_code/2.1\\xe6\\x95\\xb0\\xe6\\x8d\\xae\\xe7\\xb1\\xbb\\xe5\\x9e\\x8b\\xe5\\x9f\\xba\\xe7\\xa1\\x80/IntegerType.sol\":2327:2734  function compare() public pure returns (bool, bool, bool, bool, bool, bool) {... */\n    tag_7:\n      tag_32\n      tag_33\n      jump\t// in\n    tag_32:\n      mload(0x40)\n      tag_34\n      swap7\n      swap6\n      swap5\n      swap4\n      swap3\n      swap2\n      swap1\n      tag_35\n      jump\t// in\n    tag_34:\n      mload(0x40)\n      dup1\n      swap2\n      sub\n      swap1\n      return\n        /* \"@course/meta-node/solidity/mine/solidity_lesson/study_code/2.1\\xe6\\x95\\xb0\\xe6\\x8d\\xae\\xe7\\xb1\\xbb\\xe5\\x9e\\x8b\\xe5\\x9f\\xba\\xe7\\xa1\\x80/IntegerType.sol\":1627:1761  function incrementChecked(uint8 x) public pure returns (uint) {... */\n    tag_8:\n      tag_36\n      0x04\n      dup1\n      calldatasize\n      sub\n      dup2\n      add\n      swap1\n      tag_37\n      swap2\n      swap1\n      tag_16\n      jump\t// in\n    tag_37:\n      tag_38\n      jump\t// in\n    tag_36:\n      mload(0x40)\n      tag_39\n      swap2\n      swap1\n      tag_19\n      jump\t// in\n    tag_39:\n      mload(0x40)\n      dup1\n      swap2\n      sub\n      swap1\n      return\n        /* \"@course/meta-node/solidity/mine/solidity_lesson/study_code/2.1\\xe6\\x95\\xb0\\xe6\\x8d\\xae\\xe7\\xb1\\xbb\\xe5\\x9e\\x8b\\xe5\\x9f\\xba\\xe7\\xa1\\x80/IntegerType.sol\":1370:1579  function testUnderflow() public pure returns (uint8) {... */\n    tag_9:\n      tag_40\n      tag_41\n      jump\t// in\n    tag_40:\n      mload(0x40)\n      tag_42\n      swap2\n      swap1\n      tag_43\n      jump\t// in\n    tag_42:\n      mload(0x40)\n      dup1\n      swap2\n      sub\n      swap1\n      return\n        /* \"@course/meta-node/solidity/mine/solidity_lesson/study_code/2.1\\xe6\\x95\\xb0\\xe6\\x8d\\xae\\xe7\\xb1\\xbb\\xe5\\x9e\\x8b\\xe5\\x9f\\xba\\xe7\\xa1\\x80/IntegerType.sol\":1154:1364  function testOverflow() public pure returns (uint8) {... */\n    tag_10:\n      tag_44\n      tag_45\n      jump\t// in\n    tag_44:\n      mload(0x40)\n      tag_46\n      swap2\n      swap1\n      tag_43\n      jump\t// in\n    tag_46:\n      mload(0x40)\n      dup1\n      swap2\n      sub\n      swap1\n      return\n        /* \"@course/meta-node/solidity/mine/solidity_lesson/study_code/2.1\\xe6\\x95\\xb0\\xe6\\x8d\\xae\\xe7\\xb1\\xbb\\xe5\\x9e\\x8b\\xe5\\x9f\\xba\\xe7\\xa1\\x80/IntegerType.sol\":84:353  function intTypes() public pure returns (int256, int256, uint256, uint256) {... */\n    tag_11:\n      tag_47\n      tag_48\n      jump\t// in\n    tag_47:\n      mload(0x40)\n      tag_49\n      swap5\n      swap4\n      swap3\n      swap2\n      swap1\n      tag_50\n      jump\t// in\n    tag_49:\n      mload(0x40)\n      dup1\n      swap2\n      sub\n      swap1\n      return\n        /* \"@course/meta-node/solidity/mine/solidity_lesson/study_code/2.1\\xe6\\x95\\xb0\\xe6\\x8d\\xae\\xe7\\xb1\\xbb\\xe5\\x9e\\x8b\\xe5\\x9f\\xba\\xe7\\xa1\\x80/IntegerType.sol\":950:1148  function divideWithPrecision() public pure returns (uint) {... */\n    tag_12:\n      tag_51\n      tag_52\n      jump\t// in\n    tag_51:\n      mload(0x40)\n      tag_53\n      swap2\n      swap1\n      tag_19\n      jump\t// in\n    tag_53:\n      mload(0x40)\n      dup1\n      swap2\n      sub\n      swap1\n      return\n        /* \"@course/meta-node/solidity/mine/solidity_lesson/study_code/2.1\\xe6\\x95\\xb0\\xe6\\x8d\\xae\\xe7\\xb1\\xbb\\xe5\\x9e\\x8b\\xe5\\x9f\\xba\\xe7\\xa1\\x80/IntegerType.sol\":1810:1969  function incrementUnchecked(uint8 x) public pure returns (uint) {... */\n    tag_17:\n        /* \"@course/meta-node/solidity/mine/solidity_lesson/study_code/2.1\\xe6\\x95\\xb0\\xe6\\x8d\\xae\\xe7\\xb1\\xbb\\xe5\\x9e\\x8b\\xe5\\x9f\\xba\\xe7\\xa1\\x80/IntegerType.sol\":1868:1872  uint */\n      0x00\n        /* \"@course/meta-node/solidity/mine/solidity_lesson/study_code/2.1\\xe6\\x95\\xb0\\xe6\\x8d\\xae\\xe7\\xb1\\xbb\\xe5\\x9e\\x8b\\xe5\\x9f\\xba\\xe7\\xa1\\x80/IntegerType.sol\":1919:1920  1 */\n      0x01\n        /* \"@course/meta-node/solidity/mine/solidity_lesson/study_code/2.1\\xe6\\x95\\xb0\\xe6\\x8d\\xae\\xe7\\xb1\\xbb\\xe5\\x9e\\x8b\\xe5\\x9f\\xba\\xe7\\xa1\\x80/IntegerType.sol\":1915:1916  x */\n      dup3\n        /* \"@course/meta-node/solidity/mine/solidity_lesson/study_code/2.1\\xe6\\x95\\xb0\\xe6\\x8d\\xae\\xe7\\xb1\\xbb\\xe5\\x9e\\x8b\\xe5\\x9f\\xba\\xe7\\xa1\\x80/IntegerType.sol\":1915:1920  x + 1 */\n      add\n        /* \"@course/meta-node/solidity/mine/solidity_lesson/study_code/2.1\\xe6\\x95\\xb0\\xe6\\x8d\\xae\\xe7\\xb1\\xbb\\xe5\\x9e\\x8b\\xe5\\x9f\\xba\\xe7\\xa1\\x80/IntegerType.sol\":1908:1920  return x + 1 */\n      0xff\n      and\n      swap1\n      pop\n        /* \"@course/meta-node/solidity/mine/solidity_lesson/study_code/2.1\\xe6\\x95\\xb0\\xe6\\x8d\\xae\\xe7\\xb1\\xbb\\xe5\\x9e\\x8b\\xe5\\x9f\\xba\\xe7\\xa1\\x80/IntegerType.sol\":1810:1969  function incrementUnchecked(uint8 x) public pure returns (uint) {... */\n      swap2\n      swap1\n      pop\n      jump\t// out\n        /* \"@course/meta-node/solidity/mine/solidity_lesson/study_code/2.1\\xe6\\x95\\xb0\\xe6\\x8d\\xae\\xe7\\xb1\\xbb\\xe5\\x9e\\x8b\\xe5\\x9f\\xba\\xe7\\xa1\\x80/IntegerType.sol\":2018:2320  function sumArray(uint[] memory arr) public pure returns (uint) {... */\n    tag_23:\n        /* \"@course/meta-node/solidity/mine/solidity_lesson/study_code/2.1\\xe6\\x95\\xb0\\xe6\\x8d\\xae\\xe7\\xb1\\xbb\\xe5\\x9e\\x8b\\xe5\\x9f\\xba\\xe7\\xa1\\x80/IntegerType.sol\":2076:2080  uint */\n      0x00\n        /* \"@course/meta-node/solidity/mine/solidity_lesson/study_code/2.1\\xe6\\x95\\xb0\\xe6\\x8d\\xae\\xe7\\xb1\\xbb\\xe5\\x9e\\x8b\\xe5\\x9f\\xba\\xe7\\xa1\\x80/IntegerType.sol\":2092:2100  uint sum */\n      0x00\n        /* \"@course/meta-node/solidity/mine/solidity_lesson/study_code/2.1\\xe6\\x95\\xb0\\xe6\\x8d\\xae\\xe7\\xb1\\xbb\\xe5\\x9e\\x8b\\xe5\\x9f\\xba\\xe7\\xa1\\x80/IntegerType.sol\":2103:2104  0 */\n      0x00\n        /* \"@course/meta-node/solidity/mine/solidity_lesson/study_code/2.1\\xe6\\x95\\xb0\\xe6\\x8d\\xae\\xe7\\xb1\\xbb\\xe5\\x9e\\x8b\\xe5\\x9f\\xba\\xe7\\xa1\\x80/IntegerType.sol\":2092:2104  uint sum = 0 */\n      swap1\n      pop\n        /* \"@course/meta-node/solidity/mine/solidity_lesson/study_code/2.1\\xe6\\x95\\xb0\\xe6\\x8d\\xae\\xe7\\xb1\\xbb\\xe5\\x9e\\x8b\\xe5\\x9f\\xba\\xe7\\xa1\\x80/IntegerType.sol\":2119:2125  uint i */\n      0x00\n        /* \"@course/meta-node/solidity/mine/solidity_lesson/study_code/2.1\\xe6\\x95\\xb0\\xe6\\x8d\\xae\\xe7\\xb1\\xbb\\xe5\\x9e\\x8b\\xe5\\x9f\\xba\\xe7\\xa1\\x80/IntegerType.sol\":2128:2129  0 */\n      0x00\n        /* \"@course/meta-node/solidity/mine/solidity_lesson/study_code/2.1\\xe6\\x95\\xb0\\xe6\\x8d\\xae\\xe7\\xb1\\xbb\\xe5\\x9e\\x8b\\xe5\\x9f\\xba\\xe7\\xa1\\x80/IntegerType.sol\":2119:2129  uint i = 0 */\n      swap1\n      pop\n        /* \"@course/meta-node/solidity/mine/solidity_lesson/study_code/2.1\\xe6\\x95\\xb0\\xe6\\x8d\\xae\\xe7\\xb1\\xbb\\xe5\\x9e\\x8b\\xe5\\x9f\\xba\\xe7\\xa1\\x80/IntegerType.sol\":2114:2294  for (uint i = 0; i < arr.length; ) {... */\n    tag_56:\n        /* \"@course/meta-node/solidity/mine/solidity_lesson/study_code/2.1\\xe6\\x95\\xb0\\xe6\\x8d\\xae\\xe7\\xb1\\xbb\\xe5\\x9e\\x8b\\xe5\\x9f\\xba\\xe7\\xa1\\x80/IntegerType.sol\":2135:2138  arr */\n      dup4\n        /* \"@course/meta-node/solidity/mine/solidity_lesson/study_code/2.1\\xe6\\x95\\xb0\\xe6\\x8d\\xae\\xe7\\xb1\\xbb\\xe5\\x9e\\x8b\\xe5\\x9f\\xba\\xe7\\xa1\\x80/IntegerType.sol\":2135:2145  arr.length */\n      mload\n        /* \"@course/meta-node/solidity/mine/solidity_lesson/study_code/2.1\\xe6\\x95\\xb0\\xe6\\x8d\\xae\\xe7\\xb1\\xbb\\xe5\\x9e\\x8b\\xe5\\x9f\\xba\\xe7\\xa1\\x80/IntegerType.sol\":2131:2132  i */\n      dup2\n        /* \"@course/meta-node/solidity/mine/solidity_lesson/study_code/2.1\\xe6\\x95\\xb0\\xe6\\x8d\\xae\\xe7\\xb1\\xbb\\xe5\\x9e\\x8b\\xe5\\x9f\\xba\\xe7\\xa1\\x80/IntegerType.sol\":2131:2145  i < arr.length */\n      lt\n        /* \"@course/meta-node/solidity/mine/solidity_lesson/study_code/2.1\\xe6\\x95\\xb0\\xe6\\x8d\\xae\\xe7\\xb1\\xbb\\xe5\\x9e\\x8b\\xe5\\x9f\\xba\\xe7\\xa1\\x80/IntegerType.sol\":2114:2294  for (uint i = 0; i < arr.length; ) {... */\n      iszero\n      tag_57\n      jumpi\n        /* \"@course/meta-node/solidity/mine/solidity_lesson/study_code/2.1\\xe6\\x95\\xb0\\xe6\\x8d\\xae\\xe7\\xb1\\xbb\\xe5\\x9e\\x8b\\xe5\\x9f\\xba\\xe7\\xa1\\x80/IntegerType.sol\":2170:2173  arr */\n      dup4\n        /* \"@course/meta-node/solidity/mine/solidity_lesson/study_code/2.1\\xe6\\x95\\xb0\\xe6\\x8d\\xae\\xe7\\xb1\\xbb\\xe5\\x9e\\x8b\\xe5\\x9f\\xba\\xe7\\xa1\\x80/IntegerType.sol\":2174:2175  i */\n      dup2\n        /* \"@course/meta-node/solidity/mine/solidity_lesson/study_code/2.1\\xe6\\x95\\xb0\\xe6\\x8d\\xae\\xe7\\xb1\\xbb\\xe5\\x9e\\x8b\\xe5\\x9f\\xba\\xe7\\xa1\\x80/IntegerType.sol\":2170:2176  arr[i] */\n      dup2\n      mload\n      dup2\n      lt\n      tag_59\n      jumpi\n      tag_60\n      tag_61\n      jump\t// in\n    tag_60:\n    tag_59:\n      0x20\n      mul\n      0x20\n      add\n      add\n      mload\n        /* \"@course/meta-node/solidity/mine/solidity_lesson/study_code/2.1\\xe6\\x95\\xb0\\xe6\\x8d\\xae\\xe7\\xb1\\xbb\\xe5\\x9e\\x8b\\xe5\\x9f\\xba\\xe7\\xa1\\x80/IntegerType.sol\":2163:2176  sum += arr[i] */\n      dup3\n      tag_62\n      swap2\n      swap1\n      tag_63\n      jump\t// in\n    tag_62:\n      swap2\n      pop\n        /* \"@course/meta-node/solidity/mine/solidity_lesson/study_code/2.1\\xe6\\x95\\xb0\\xe6\\x8d\\xae\\xe7\\xb1\\xbb\\xe5\\x9e\\x8b\\xe5\\x9f\\xba\\xe7\\xa1\\x80/IntegerType.sol\":2218:2221  i++ */\n      dup1\n      dup1\n      0x01\n      add\n      swap2\n      pop\n      pop\n        /* \"@course/meta-node/solidity/mine/solidity_lesson/study_code/2.1\\xe6\\x95\\xb0\\xe6\\x8d\\xae\\xe7\\xb1\\xbb\\xe5\\x9e\\x8b\\xe5\\x9f\\xba\\xe7\\xa1\\x80/IntegerType.sol\":2114:2294  for (uint i = 0; i < arr.length; ) {... */\n      jump(tag_56)\n    tag_57:\n      pop\n        /* \"@course/meta-node/solidity/mine/solidity_lesson/study_code/2.1\\xe6\\x95\\xb0\\xe6\\x8d\\xae\\xe7\\xb1\\xbb\\xe5\\x9e\\x8b\\xe5\\x9f\\xba\\xe7\\xa1\\x80/IntegerType.sol\":2310:2313  sum */\n      dup1\n        /* \"@course/meta-node/solidity/mine/solidity_lesson/study_code/2.1\\xe6\\x95\\xb0\\xe6\\x8d\\xae\\xe7\\xb1\\xbb\\xe5\\x9e\\x8b\\xe5\\x9f\\xba\\xe7\\xa1\\x80/IntegerType.sol\":2303:2313  return sum */\n      swap2\n      pop\n      pop\n        /* \"@course/meta-node/solidity/mine/solidity_lesson/study_code/2.1\\xe6\\x95\\xb0\\xe6\\x8d\\xae\\xe7\\xb1\\xbb\\xe5\\x9e\\x8b\\xe5\\x9f\\xba\\xe7\\xa1\\x80/IntegerType.sol\":2018:2320  function sumArray(uint[] memory arr) public pure returns (uint) {... */\n      swap2\n      swap1\n      pop\n      jump\t// out\n        /* \"@course/meta-node/solidity/mine/solidity_lesson/study_code/2.1\\xe6\\x95\\xb0\\xe6\\x8d\\xae\\xe7\\xb1\\xbb\\xe5\\x9e\\x8b\\xe5\\x9f\\xba\\xe7\\xa1\\x80/IntegerType.sol\":359:813  function arithmeticOperations()... */\n    tag_26:\n        /* \"@course/meta-node/solidity/mine/solidity_lesson/study_code/2.1\\xe6\\x95\\xb0\\xe6\\x8d\\xae\\xe7\\xb1\\xbb\\xe5\\x9e\\x8b\\xe5\\x9f\\xba\\xe7\\xa1\\x80/IntegerType.sol\":436:440  uint */\n      0x00\n        /* \"@course/meta-node/solidity/mine/solidity_lesson/study_code/2.1\\xe6\\x95\\xb0\\xe6\\x8d\\xae\\xe7\\xb1\\xbb\\xe5\\x9e\\x8b\\xe5\\x9f\\xba\\xe7\\xa1\\x80/IntegerType.sol\":442:446  uint */\n      0x00\n        /* \"@course/meta-node/solidity/mine/solidity_lesson/study_code/2.1\\xe6\\x95\\xb0\\xe6\\x8d\\xae\\xe7\\xb1\\xbb\\xe5\\x9e\\x8b\\xe5\\x9f\\xba\\xe7\\xa1\\x80/IntegerType.sol\":448:452  uint */\n      0x00\n        /* \"@course/meta-node/solidity/mine/solidity_lesson/study_code/2.1\\xe6\\x95\\xb0\\xe6\\x8d\\xae\\xe7\\xb1\\xbb\\xe5\\x9e\\x8b\\xe5\\x9f\\xba\\xe7\\xa1\\x80/IntegerType.sol\":454:458  uint */\n      0x00\n        /* \"@course/meta-node/solidity/mine/solidity_lesson/study_code/2.1\\xe6\\x95\\xb0\\xe6\\x8d\\xae\\xe7\\xb1\\xbb\\xe5\\x9e\\x8b\\xe5\\x9f\\xba\\xe7\\xa1\\x80/IntegerType.sol\":460:464  uint */\n      0x00\n        /* \"@course/meta-node/solidity/mine/solidity_lesson/study_code/2.1\\xe6\\x95\\xb0\\xe6\\x8d\\xae\\xe7\\xb1\\xbb\\xe5\\x9e\\x8b\\xe5\\x9f\\xba\\xe7\\xa1\\x80/IntegerType.sol\":466:470  uint */\n      0x00\n        /* \"@course/meta-node/solidity/mine/solidity_lesson/study_code/2.1\\xe6\\x95\\xb0\\xe6\\x8d\\xae\\xe7\\xb1\\xbb\\xe5\\x9e\\x8b\\xe5\\x9f\\xba\\xe7\\xa1\\x80/IntegerType.sol\":486:492  uint a */\n      0x00\n        /* \"@course/meta-node/solidity/mine/solidity_lesson/study_code/2.1\\xe6\\x95\\xb0\\xe6\\x8d\\xae\\xe7\\xb1\\xbb\\xe5\\x9e\\x8b\\xe5\\x9f\\xba\\xe7\\xa1\\x80/IntegerType.sol\":495:497  10 */\n      0x0a\n        /* \"@course/meta-node/solidity/mine/solidity_lesson/study_code/2.1\\xe6\\x95\\xb0\\xe6\\x8d\\xae\\xe7\\xb1\\xbb\\xe5\\x9e\\x8b\\xe5\\x9f\\xba\\xe7\\xa1\\x80/IntegerType.sol\":486:497  uint a = 10 */\n      swap1\n      pop\n        /* \"@course/meta-node/solidity/mine/solidity_lesson/study_code/2.1\\xe6\\x95\\xb0\\xe6\\x8d\\xae\\xe7\\xb1\\xbb\\xe5\\x9e\\x8b\\xe5\\x9f\\xba\\xe7\\xa1\\x80/IntegerType.sol\":507:513  uint b */\n      0x00\n        /* \"@course/meta-node/solidity/mine/solidity_lesson/study_code/2.1\\xe6\\x95\\xb0\\xe6\\x8d\\xae\\xe7\\xb1\\xbb\\xe5\\x9e\\x8b\\xe5\\x9f\\xba\\xe7\\xa1\\x80/IntegerType.sol\":516:517  3 */\n      0x03\n        /* \"@course/meta-node/solidity/mine/solidity_lesson/study_code/2.1\\xe6\\x95\\xb0\\xe6\\x8d\\xae\\xe7\\xb1\\xbb\\xe5\\x9e\\x8b\\xe5\\x9f\\xba\\xe7\\xa1\\x80/IntegerType.sol\":507:517  uint b = 3 */\n      swap1\n      pop\n        /* \"@course/meta-node/solidity/mine/solidity_lesson/study_code/2.1\\xe6\\x95\\xb0\\xe6\\x8d\\xae\\xe7\\xb1\\xbb\\xe5\\x9e\\x8b\\xe5\\x9f\\xba\\xe7\\xa1\\x80/IntegerType.sol\":553:554  b */\n      dup1\n        /* \"@course/meta-node/solidity/mine/solidity_lesson/study_code/2.1\\xe6\\x95\\xb0\\xe6\\x8d\\xae\\xe7\\xb1\\xbb\\xe5\\x9e\\x8b\\xe5\\x9f\\xba\\xe7\\xa1\\x80/IntegerType.sol\":549:550  a */\n      dup3\n        /* \"@course/meta-node/solidity/mine/solidity_lesson/study_code/2.1\\xe6\\x95\\xb0\\xe6\\x8d\\xae\\xe7\\xb1\\xbb\\xe5\\x9e\\x8b\\xe5\\x9f\\xba\\xe7\\xa1\\x80/IntegerType.sol\":549:554  a + b */\n      tag_65\n      swap2\n      swap1\n      tag_63\n      jump\t// in\n    tag_65:\n        /* \"@course/meta-node/solidity/mine/solidity_lesson/study_code/2.1\\xe6\\x95\\xb0\\xe6\\x8d\\xae\\xe7\\xb1\\xbb\\xe5\\x9e\\x8b\\xe5\\x9f\\xba\\xe7\\xa1\\x80/IntegerType.sol\":587:588  b */\n      dup2\n        /* \"@course/meta-node/solidity/mine/solidity_lesson/study_code/2.1\\xe6\\x95\\xb0\\xe6\\x8d\\xae\\xe7\\xb1\\xbb\\xe5\\x9e\\x8b\\xe5\\x9f\\xba\\xe7\\xa1\\x80/IntegerType.sol\":583:584  a */\n      dup4\n        /* \"@course/meta-node/solidity/mine/solidity_lesson/study_code/2.1\\xe6\\x95\\xb0\\xe6\\x8d\\xae\\xe7\\xb1\\xbb\\xe5\\x9e\\x8b\\xe5\\x9f\\xba\\xe7\\xa1\\x80/IntegerType.sol\":583:588  a - b */\n      tag_66\n      swap2\n      swap1\n      tag_67\n      jump\t// in\n    tag_66:\n        /* \"@course/meta-node/solidity/mine/solidity_lesson/study_code/2.1\\xe6\\x95\\xb0\\xe6\\x8d\\xae\\xe7\\xb1\\xbb\\xe5\\x9e\\x8b\\xe5\\x9f\\xba\\xe7\\xa1\\x80/IntegerType.sol\":620:621  b */\n      dup3\n        /* \"@course/meta-node/solidity/mine/solidity_lesson/study_code/2.1\\xe6\\x95\\xb0\\xe6\\x8d\\xae\\xe7\\xb1\\xbb\\xe5\\x9e\\x8b\\xe5\\x9f\\xba\\xe7\\xa1\\x80/IntegerType.sol\":616:617  a */\n      dup5\n        /* \"@course/meta-node/solidity/mine/solidity_lesson/study_code/2.1\\xe6\\x95\\xb0\\xe6\\x8d\\xae\\xe7\\xb1\\xbb\\xe5\\x9e\\x8b\\xe5\\x9f\\xba\\xe7\\xa1\\x80/IntegerType.sol\":616:621  a * b */\n      tag_68\n      swap2\n      swap1\n      tag_69\n      jump\t// in\n    tag_68:\n        /* \"@course/meta-node/solidity/mine/solidity_lesson/study_code/2.1\\xe6\\x95\\xb0\\xe6\\x8d\\xae\\xe7\\xb1\\xbb\\xe5\\x9e\\x8b\\xe5\\x9f\\xba\\xe7\\xa1\\x80/IntegerType.sol\":654:655  b */\n      dup4\n        /* \"@course/meta-node/solidity/mine/solidity_lesson/study_code/2.1\\xe6\\x95\\xb0\\xe6\\x8d\\xae\\xe7\\xb1\\xbb\\xe5\\x9e\\x8b\\xe5\\x9f\\xba\\xe7\\xa1\\x80/IntegerType.sol\":650:651  a */\n      dup6\n        /* \"@course/meta-node/solidity/mine/solidity_lesson/study_code/2.1\\xe6\\x95\\xb0\\xe6\\x8d\\xae\\xe7\\xb1\\xbb\\xe5\\x9e\\x8b\\xe5\\x9f\\xba\\xe7\\xa1\\x80/IntegerType.sol\":650:655  a / b */\n      tag_70\n      swap2\n      swap1\n      tag_71\n      jump\t// in\n    tag_70:\n        /* \"@course/meta-node/solidity/mine/solidity_lesson/study_code/2.1\\xe6\\x95\\xb0\\xe6\\x8d\\xae\\xe7\\xb1\\xbb\\xe5\\x9e\\x8b\\xe5\\x9f\\xba\\xe7\\xa1\\x80/IntegerType.sol\":717:718  b */\n      dup5\n        /* \"@course/meta-node/solidity/mine/solidity_lesson/study_code/2.1\\xe6\\x95\\xb0\\xe6\\x8d\\xae\\xe7\\xb1\\xbb\\xe5\\x9e\\x8b\\xe5\\x9f\\xba\\xe7\\xa1\\x80/IntegerType.sol\":713:714  a */\n      dup7\n        /* \"@course/meta-node/solidity/mine/solidity_lesson/study_code/2.1\\xe6\\x95\\xb0\\xe6\\x8d\\xae\\xe7\\xb1\\xbb\\xe5\\x9e\\x8b\\xe5\\x9f\\xba\\xe7\\xa1\\x80/IntegerType.sol\":713:718  a % b */\n      tag_72\n      swap2\n      swap1\n      tag_73\n      jump\t// in\n    tag_72:\n        /* \"@course/meta-node/solidity/mine/solidity_lesson/study_code/2.1\\xe6\\x95\\xb0\\xe6\\x8d\\xae\\xe7\\xb1\\xbb\\xe5\\x9e\\x8b\\xe5\\x9f\\xba\\xe7\\xa1\\x80/IntegerType.sol\":760:761  b */\n      dup6\n        /* \"@course/meta-node/solidity/mine/solidity_lesson/study_code/2.1\\xe6\\x95\\xb0\\xe6\\x8d\\xae\\xe7\\xb1\\xbb\\xe5\\x9e\\x8b\\xe5\\x9f\\xba\\xe7\\xa1\\x80/IntegerType.sol\":755:756  a */\n      dup8\n        /* \"@course/meta-node/solidity/mine/solidity_lesson/study_code/2.1\\xe6\\x95\\xb0\\xe6\\x8d\\xae\\xe7\\xb1\\xbb\\xe5\\x9e\\x8b\\xe5\\x9f\\xba\\xe7\\xa1\\x80/IntegerType.sol\":755:761  a ** b */\n      tag_74\n      swap2\n      swap1\n      tag_75\n      jump\t// in\n    tag_74:\n        /* \"@course/meta-node/solidity/mine/solidity_lesson/study_code/2.1\\xe6\\x95\\xb0\\xe6\\x8d\\xae\\xe7\\xb1\\xbb\\xe5\\x9e\\x8b\\xe5\\x9f\\xba\\xe7\\xa1\\x80/IntegerType.sol\":528:806  return (... */\n      swap8\n      pop\n      swap8\n      pop\n      swap8\n      pop\n      swap8\n      pop\n      swap8\n      pop\n      swap8\n      pop\n      pop\n      pop\n        /* \"@course/meta-node/solidity/mine/solidity_lesson/study_code/2.1\\xe6\\x95\\xb0\\xe6\\x8d\\xae\\xe7\\xb1\\xbb\\xe5\\x9e\\x8b\\xe5\\x9f\\xba\\xe7\\xa1\\x80/IntegerType.sol\":359:813  function arithmeticOperations()... */\n      swap1\n      swap2\n      swap3\n      swap4\n      swap5\n      swap6\n      jump\t// out\n        /* \"@course/meta-node/solidity/mine/solidity_lesson/study_code/2.1\\xe6\\x95\\xb0\\xe6\\x8d\\xae\\xe7\\xb1\\xbb\\xe5\\x9e\\x8b\\xe5\\x9f\\xba\\xe7\\xa1\\x80/IntegerType.sol\":819:944  function division() public pure returns (uint) {... */\n    tag_30:\n        /* \"@course/meta-node/solidity/mine/solidity_lesson/study_code/2.1\\xe6\\x95\\xb0\\xe6\\x8d\\xae\\xe7\\xb1\\xbb\\xe5\\x9e\\x8b\\xe5\\x9f\\xba\\xe7\\xa1\\x80/IntegerType.sol\":860:864  uint */\n      0x00\n        /* \"@course/meta-node/solidity/mine/solidity_lesson/study_code/2.1\\xe6\\x95\\xb0\\xe6\\x8d\\xae\\xe7\\xb1\\xbb\\xe5\\x9e\\x8b\\xe5\\x9f\\xba\\xe7\\xa1\\x80/IntegerType.sol\":876:882  uint a */\n      0x00\n        /* \"@course/meta-node/solidity/mine/solidity_lesson/study_code/2.1\\xe6\\x95\\xb0\\xe6\\x8d\\xae\\xe7\\xb1\\xbb\\xe5\\x9e\\x8b\\xe5\\x9f\\xba\\xe7\\xa1\\x80/IntegerType.sol\":885:887  10 */\n      0x0a\n        /* \"@course/meta-node/solidity/mine/solidity_lesson/study_code/2.1\\xe6\\x95\\xb0\\xe6\\x8d\\xae\\xe7\\xb1\\xbb\\xe5\\x9e\\x8b\\xe5\\x9f\\xba\\xe7\\xa1\\x80/IntegerType.sol\":876:887  uint a = 10 */\n      swap1\n      pop\n        /* \"@course/meta-node/solidity/mine/solidity_lesson/study_code/2.1\\xe6\\x95\\xb0\\xe6\\x8d\\xae\\xe7\\xb1\\xbb\\xe5\\x9e\\x8b\\xe5\\x9f\\xba\\xe7\\xa1\\x80/IntegerType.sol\":897:903  uint b */\n      0x00\n        /* \"@course/meta-node/solidity/mine/solidity_lesson/study_code/2.1\\xe6\\x95\\xb0\\xe6\\x8d\\xae\\xe7\\xb1\\xbb\\xe5\\x9e\\x8b\\xe5\\x9f\\xba\\xe7\\xa1\\x80/IntegerType.sol\":906:907  3 */\n      0x03\n        /* \"@course/meta-node/solidity/mine/solidity_lesson/study_code/2.1\\xe6\\x95\\xb0\\xe6\\x8d\\xae\\xe7\\xb1\\xbb\\xe5\\x9e\\x8b\\xe5\\x9f\\xba\\xe7\\xa1\\x80/IntegerType.sol\":897:907  uint b = 3 */\n      swap1\n      pop\n        /* \"@course/meta-node/solidity/mine/solidity_lesson/study_code/2.1\\xe6\\x95\\xb0\\xe6\\x8d\\xae\\xe7\\xb1\\xbb\\xe5\\x9e\\x8b\\xe5\\x9f\\xba\\xe7\\xa1\\x80/IntegerType.sol\":930:931  b */\n      dup1\n        /* \"@course/meta-node/solidity/mine/solidity_lesson/study_code/2.1\\xe6\\x95\\xb0\\xe6\\x8d\\xae\\xe7\\xb1\\xbb\\xe5\\x9e\\x8b\\xe5\\x9f\\xba\\xe7\\xa1\\x80/IntegerType.sol\":926:927  a */\n      dup3\n        /* \"@course/meta-node/solidity/mine/solidity_lesson/study_code/2.1\\xe6\\x95\\xb0\\xe6\\x8d\\xae\\xe7\\xb1\\xbb\\xe5\\x9e\\x8b\\xe5\\x9f\\xba\\xe7\\xa1\\x80/IntegerType.sol\":926:931  a / b */\n      tag_77\n      swap2\n      swap1\n      tag_71\n      jump\t// in\n    tag_77:\n        /* \"@course/meta-node/solidity/mine/solidity_lesson/study_code/2.1\\xe6\\x95\\xb0\\xe6\\x8d\\xae\\xe7\\xb1\\xbb\\xe5\\x9e\\x8b\\xe5\\x9f\\xba\\xe7\\xa1\\x80/IntegerType.sol\":918:932  return (a / b) */\n      swap3\n      pop\n      pop\n      pop\n        /* \"@course/meta-node/solidity/mine/solidity_lesson/study_code/2.1\\xe6\\x95\\xb0\\xe6\\x8d\\xae\\xe7\\xb1\\xbb\\xe5\\x9e\\x8b\\xe5\\x9f\\xba\\xe7\\xa1\\x80/IntegerType.sol\":819:944  function division() public pure returns (uint) {... */\n      swap1\n      jump\t// out\n        /* \"@course/meta-node/solidity/mine/solidity_lesson/study_code/2.1\\xe6\\x95\\xb0\\xe6\\x8d\\xae\\xe7\\xb1\\xbb\\xe5\\x9e\\x8b\\xe5\\x9f\\xba\\xe7\\xa1\\x80/IntegerType.sol\":2327:2734  function compare() public pure returns (bool, bool, bool, bool, bool, bool) {... */\n    tag_33:\n        /* \"@course/meta-node/solidity/mine/solidity_lesson/study_code/2.1\\xe6\\x95\\xb0\\xe6\\x8d\\xae\\xe7\\xb1\\xbb\\xe5\\x9e\\x8b\\xe5\\x9f\\xba\\xe7\\xa1\\x80/IntegerType.sol\":2367:2371  bool */\n      0x00\n        /* \"@course/meta-node/solidity/mine/solidity_lesson/study_code/2.1\\xe6\\x95\\xb0\\xe6\\x8d\\xae\\xe7\\xb1\\xbb\\xe5\\x9e\\x8b\\xe5\\x9f\\xba\\xe7\\xa1\\x80/IntegerType.sol\":2373:2377  bool */\n      0x00\n        /* \"@course/meta-node/solidity/mine/solidity_lesson/study_code/2.1\\xe6\\x95\\xb0\\xe6\\x8d\\xae\\xe7\\xb1\\xbb\\xe5\\x9e\\x8b\\xe5\\x9f\\xba\\xe7\\xa1\\x80/IntegerType.sol\":2379:2383  bool */\n      0x00\n        /* \"@course/meta-node/solidity/mine/solidity_lesson/study_code/2.1\\xe6\\x95\\xb0\\xe6\\x8d\\xae\\xe7\\xb1\\xbb\\xe5\\x9e\\x8b\\xe5\\x9f\\xba\\xe7\\xa1\\x80/IntegerType.sol\":2385:2389  bool */\n      0x00\n        /* \"@course/meta-node/solidity/mine/solidity_lesson/study_code/2.1\\xe6\\x95\\xb0\\xe6\\x8d\\xae\\xe7\\xb1\\xbb\\xe5\\x9e\\x8b\\xe5\\x9f\\xba\\xe7\\xa1\\x80/IntegerType.sol\":2391:2395  bool */\n      0x00\n        /* \"@course/meta-node/solidity/mine/solidity_lesson/study_code/2.1\\xe6\\x95\\xb0\\xe6\\x8d\\xae\\xe7\\xb1\\xbb\\xe5\\x9e\\x8b\\xe5\\x9f\\xba\\xe7\\xa1\\x80/IntegerType.sol\":2397:2401  bool */\n      0x00\n        /* \"@course/meta-node/solidity/mine/solidity_lesson/study_code/2.1\\xe6\\x95\\xb0\\xe6\\x8d\\xae\\xe7\\xb1\\xbb\\xe5\\x9e\\x8b\\xe5\\x9f\\xba\\xe7\\xa1\\x80/IntegerType.sol\":2413:2419  uint a */\n      0x00\n        /* \"@course/meta-node/solidity/mine/solidity_lesson/study_code/2.1\\xe6\\x95\\xb0\\xe6\\x8d\\xae\\xe7\\xb1\\xbb\\xe5\\x9e\\x8b\\xe5\\x9f\\xba\\xe7\\xa1\\x80/IntegerType.sol\":2422:2424  10 */\n      0x0a\n        /* \"@course/meta-node/solidity/mine/solidity_lesson/study_code/2.1\\xe6\\x95\\xb0\\xe6\\x8d\\xae\\xe7\\xb1\\xbb\\xe5\\x9e\\x8b\\xe5\\x9f\\xba\\xe7\\xa1\\x80/IntegerType.sol\":2413:2424  uint a = 10 */\n      swap1\n      pop\n        /* \"@course/meta-node/solidity/mine/solidity_lesson/study_code/2.1\\xe6\\x95\\xb0\\xe6\\x8d\\xae\\xe7\\xb1\\xbb\\xe5\\x9e\\x8b\\xe5\\x9f\\xba\\xe7\\xa1\\x80/IntegerType.sol\":2434:2440  uint b */\n      0x00\n        /* \"@course/meta-node/solidity/mine/solidity_lesson/study_code/2.1\\xe6\\x95\\xb0\\xe6\\x8d\\xae\\xe7\\xb1\\xbb\\xe5\\x9e\\x8b\\xe5\\x9f\\xba\\xe7\\xa1\\x80/IntegerType.sol\":2443:2444  5 */\n      0x05\n        /* \"@course/meta-node/solidity/mine/solidity_lesson/study_code/2.1\\xe6\\x95\\xb0\\xe6\\x8d\\xae\\xe7\\xb1\\xbb\\xe5\\x9e\\x8b\\xe5\\x9f\\xba\\xe7\\xa1\\x80/IntegerType.sol\":2434:2444  uint b = 5 */\n      swap1\n      pop\n        /* \"@course/meta-node/solidity/mine/solidity_lesson/study_code/2.1\\xe6\\x95\\xb0\\xe6\\x8d\\xae\\xe7\\xb1\\xbb\\xe5\\x9e\\x8b\\xe5\\x9f\\xba\\xe7\\xa1\\x80/IntegerType.sol\":2489:2490  b */\n      dup1\n        /* \"@course/meta-node/solidity/mine/solidity_lesson/study_code/2.1\\xe6\\x95\\xb0\\xe6\\x8d\\xae\\xe7\\xb1\\xbb\\xe5\\x9e\\x8b\\xe5\\x9f\\xba\\xe7\\xa1\\x80/IntegerType.sol\":2484:2485  a */\n      dup3\n        /* \"@course/meta-node/solidity/mine/solidity_lesson/study_code/2.1\\xe6\\x95\\xb0\\xe6\\x8d\\xae\\xe7\\xb1\\xbb\\xe5\\x9e\\x8b\\xe5\\x9f\\xba\\xe7\\xa1\\x80/IntegerType.sol\":2484:2490  a == b */\n      eq\n        /* \"@course/meta-node/solidity/mine/solidity_lesson/study_code/2.1\\xe6\\x95\\xb0\\xe6\\x8d\\xae\\xe7\\xb1\\xbb\\xe5\\x9e\\x8b\\xe5\\x9f\\xba\\xe7\\xa1\\x80/IntegerType.sol\":2528:2529  b */\n      dup2\n        /* \"@course/meta-node/solidity/mine/solidity_lesson/study_code/2.1\\xe6\\x95\\xb0\\xe6\\x8d\\xae\\xe7\\xb1\\xbb\\xe5\\x9e\\x8b\\xe5\\x9f\\xba\\xe7\\xa1\\x80/IntegerType.sol\":2523:2524  a */\n      dup4\n        /* \"@course/meta-node/solidity/mine/solidity_lesson/study_code/2.1\\xe6\\x95\\xb0\\xe6\\x8d\\xae\\xe7\\xb1\\xbb\\xe5\\x9e\\x8b\\xe5\\x9f\\xba\\xe7\\xa1\\x80/IntegerType.sol\":2523:2529  a != b */\n      eq\n      iszero\n        /* \"@course/meta-node/solidity/mine/solidity_lesson/study_code/2.1\\xe6\\x95\\xb0\\xe6\\x8d\\xae\\xe7\\xb1\\xbb\\xe5\\x9e\\x8b\\xe5\\x9f\\xba\\xe7\\xa1\\x80/IntegerType.sol\":2568:2569  b */\n      dup3\n        /* \"@course/meta-node/solidity/mine/solidity_lesson/study_code/2.1\\xe6\\x95\\xb0\\xe6\\x8d\\xae\\xe7\\xb1\\xbb\\xe5\\x9e\\x8b\\xe5\\x9f\\xba\\xe7\\xa1\\x80/IntegerType.sol\":2564:2565  a */\n      dup5\n        /* \"@course/meta-node/solidity/mine/solidity_lesson/study_code/2.1\\xe6\\x95\\xb0\\xe6\\x8d\\xae\\xe7\\xb1\\xbb\\xe5\\x9e\\x8b\\xe5\\x9f\\xba\\xe7\\xa1\\x80/IntegerType.sol\":2564:2569  a > b */\n      gt\n        /* \"@course/meta-node/solidity/mine/solidity_lesson/study_code/2.1\\xe6\\x95\\xb0\\xe6\\x8d\\xae\\xe7\\xb1\\xbb\\xe5\\x9e\\x8b\\xe5\\x9f\\xba\\xe7\\xa1\\x80/IntegerType.sol\":2606:2607  b */\n      dup4\n        /* \"@course/meta-node/solidity/mine/solidity_lesson/study_code/2.1\\xe6\\x95\\xb0\\xe6\\x8d\\xae\\xe7\\xb1\\xbb\\xe5\\x9e\\x8b\\xe5\\x9f\\xba\\xe7\\xa1\\x80/IntegerType.sol\":2602:2603  a */\n      dup6\n        /* \"@course/meta-node/solidity/mine/solidity_lesson/study_code/2.1\\xe6\\x95\\xb0\\xe6\\x8d\\xae\\xe7\\xb1\\xbb\\xe5\\x9e\\x8b\\xe5\\x9f\\xba\\xe7\\xa1\\x80/IntegerType.sol\":2602:2607  a < b */\n      lt\n        /* \"@course/meta-node/solidity/mine/solidity_lesson/study_code/2.1\\xe6\\x95\\xb0\\xe6\\x8d\\xae\\xe7\\xb1\\xbb\\xe5\\x9e\\x8b\\xe5\\x9f\\xba\\xe7\\xa1\\x80/IntegerType.sol\":2646:2647  b */\n      dup5\n        /* \"@course/meta-node/solidity/mine/solidity_lesson/study_code/2.1\\xe6\\x95\\xb0\\xe6\\x8d\\xae\\xe7\\xb1\\xbb\\xe5\\x9e\\x8b\\xe5\\x9f\\xba\\xe7\\xa1\\x80/IntegerType.sol\":2641:2642  a */\n      dup7\n        /* \"@course/meta-node/solidity/mine/solidity_lesson/study_code/2.1\\xe6\\x95\\xb0\\xe6\\x8d\\xae\\xe7\\xb1\\xbb\\xe5\\x9e\\x8b\\xe5\\x9f\\xba\\xe7\\xa1\\x80/IntegerType.sol\":2641:2647  a >= b */\n      lt\n      iszero\n        /* \"@course/meta-node/solidity/mine/solidity_lesson/study_code/2.1\\xe6\\x95\\xb0\\xe6\\x8d\\xae\\xe7\\xb1\\xbb\\xe5\\x9e\\x8b\\xe5\\x9f\\xba\\xe7\\xa1\\x80/IntegerType.sol\":2690:2691  b */\n      dup6\n        /* \"@course/meta-node/solidity/mine/solidity_lesson/study_code/2.1\\xe6\\x95\\xb0\\xe6\\x8d\\xae\\xe7\\xb1\\xbb\\xe5\\x9e\\x8b\\xe5\\x9f\\xba\\xe7\\xa1\\x80/IntegerType.sol\":2685:2686  a */\n      dup8\n        /* \"@course/meta-node/solidity/mine/solidity_lesson/study_code/2.1\\xe6\\x95\\xb0\\xe6\\x8d\\xae\\xe7\\xb1\\xbb\\xe5\\x9e\\x8b\\xe5\\x9f\\xba\\xe7\\xa1\\x80/IntegerType.sol\":2685:2691  a <= b */\n      gt\n      iszero\n        /* \"@course/meta-node/solidity/mine/solidity_lesson/study_code/2.1\\xe6\\x95\\xb0\\xe6\\x8d\\xae\\xe7\\xb1\\xbb\\xe5\\x9e\\x8b\\xe5\\x9f\\xba\\xe7\\xa1\\x80/IntegerType.sol\":2463:2727  return (... */\n      swap8\n      pop\n      swap8\n      pop\n      swap8\n      pop\n      swap8\n      pop\n      swap8\n      pop\n      swap8\n      pop\n      pop\n      pop\n        /* \"@course/meta-node/solidity/mine/solidity_lesson/study_code/2.1\\xe6\\x95\\xb0\\xe6\\x8d\\xae\\xe7\\xb1\\xbb\\xe5\\x9e\\x8b\\xe5\\x9f\\xba\\xe7\\xa1\\x80/IntegerType.sol\":2327:2734  function compare() public pure returns (bool, bool, bool, bool, bool, bool) {... */\n      swap1\n      swap2\n      swap3\n      swap4\n      swap5\n      swap6\n      jump\t// out\n        /* \"@course/meta-node/solidity/mine/solidity_lesson/study_code/2.1\\xe6\\x95\\xb0\\xe6\\x8d\\xae\\xe7\\xb1\\xbb\\xe5\\x9e\\x8b\\xe5\\x9f\\xba\\xe7\\xa1\\x80/IntegerType.sol\":1627:1761  function incrementChecked(uint8 x) public pure returns (uint) {... */\n    tag_38:\n        /* \"@course/meta-node/solidity/mine/solidity_lesson/study_code/2.1\\xe6\\x95\\xb0\\xe6\\x8d\\xae\\xe7\\xb1\\xbb\\xe5\\x9e\\x8b\\xe5\\x9f\\xba\\xe7\\xa1\\x80/IntegerType.sol\":1683:1687  uint */\n      0x00\n        /* \"@course/meta-node/solidity/mine/solidity_lesson/study_code/2.1\\xe6\\x95\\xb0\\xe6\\x8d\\xae\\xe7\\xb1\\xbb\\xe5\\x9e\\x8b\\xe5\\x9f\\xba\\xe7\\xa1\\x80/IntegerType.sol\":1710:1711  1 */\n      0x01\n        /* \"@course/meta-node/solidity/mine/solidity_lesson/study_code/2.1\\xe6\\x95\\xb0\\xe6\\x8d\\xae\\xe7\\xb1\\xbb\\xe5\\x9e\\x8b\\xe5\\x9f\\xba\\xe7\\xa1\\x80/IntegerType.sol\":1706:1707  x */\n      dup3\n        /* \"@course/meta-node/solidity/mine/solidity_lesson/study_code/2.1\\xe6\\x95\\xb0\\xe6\\x8d\\xae\\xe7\\xb1\\xbb\\xe5\\x9e\\x8b\\xe5\\x9f\\xba\\xe7\\xa1\\x80/IntegerType.sol\":1706:1711  x + 1 */\n      tag_80\n      swap2\n      swap1\n      tag_81\n      jump\t// in\n    tag_80:\n        /* \"@course/meta-node/solidity/mine/solidity_lesson/study_code/2.1\\xe6\\x95\\xb0\\xe6\\x8d\\xae\\xe7\\xb1\\xbb\\xe5\\x9e\\x8b\\xe5\\x9f\\xba\\xe7\\xa1\\x80/IntegerType.sol\":1699:1711  return x + 1 */\n      0xff\n      and\n      swap1\n      pop\n        /* \"@course/meta-node/solidity/mine/solidity_lesson/study_code/2.1\\xe6\\x95\\xb0\\xe6\\x8d\\xae\\xe7\\xb1\\xbb\\xe5\\x9e\\x8b\\xe5\\x9f\\xba\\xe7\\xa1\\x80/IntegerType.sol\":1627:1761  function incrementChecked(uint8 x) public pure returns (uint) {... */\n      swap2\n      swap1\n      pop\n      jump\t// out\n        /* \"@course/meta-node/solidity/mine/solidity_lesson/study_code/2.1\\xe6\\x95\\xb0\\xe6\\x8d\\xae\\xe7\\xb1\\xbb\\xe5\\x9e\\x8b\\xe5\\x9f\\xba\\xe7\\xa1\\x80/IntegerType.sol\":1370:1579  function testUnderflow() public pure returns (uint8) {... */\n    tag_41:\n        /* \"@course/meta-node/solidity/mine/solidity_lesson/study_code/2.1\\xe6\\x95\\xb0\\xe6\\x8d\\xae\\xe7\\xb1\\xbb\\xe5\\x9e\\x8b\\xe5\\x9f\\xba\\xe7\\xa1\\x80/IntegerType.sol\":1416:1421  uint8 */\n      0x00\n        /* \"@course/meta-node/solidity/mine/solidity_lesson/study_code/2.1\\xe6\\x95\\xb0\\xe6\\x8d\\xae\\xe7\\xb1\\xbb\\xe5\\x9e\\x8b\\xe5\\x9f\\xba\\xe7\\xa1\\x80/IntegerType.sol\":1433:1442  uint8 min */\n      0x00\n        /* \"@course/meta-node/solidity/mine/solidity_lesson/study_code/2.1\\xe6\\x95\\xb0\\xe6\\x8d\\xae\\xe7\\xb1\\xbb\\xe5\\x9e\\x8b\\xe5\\x9f\\xba\\xe7\\xa1\\x80/IntegerType.sol\":1445:1446  0 */\n      0x00\n        /* \"@course/meta-node/solidity/mine/solidity_lesson/study_code/2.1\\xe6\\x95\\xb0\\xe6\\x8d\\xae\\xe7\\xb1\\xbb\\xe5\\x9e\\x8b\\xe5\\x9f\\xba\\xe7\\xa1\\x80/IntegerType.sol\":1433:1446  uint8 min = 0 */\n      swap1\n      pop\n        /* \"@course/meta-node/solidity/mine/solidity_lesson/study_code/2.1\\xe6\\x95\\xb0\\xe6\\x8d\\xae\\xe7\\xb1\\xbb\\xe5\\x9e\\x8b\\xe5\\x9f\\xba\\xe7\\xa1\\x80/IntegerType.sol\":1514:1515  1 */\n      0x01\n        /* \"@course/meta-node/solidity/mine/solidity_lesson/study_code/2.1\\xe6\\x95\\xb0\\xe6\\x8d\\xae\\xe7\\xb1\\xbb\\xe5\\x9e\\x8b\\xe5\\x9f\\xba\\xe7\\xa1\\x80/IntegerType.sol\":1508:1511  min */\n      dup2\n        /* \"@course/meta-node/solidity/mine/solidity_lesson/study_code/2.1\\xe6\\x95\\xb0\\xe6\\x8d\\xae\\xe7\\xb1\\xbb\\xe5\\x9e\\x8b\\xe5\\x9f\\xba\\xe7\\xa1\\x80/IntegerType.sol\":1508:1515  min - 1 */\n      tag_83\n      swap2\n      swap1\n      tag_84\n      jump\t// in\n    tag_83:\n        /* \"@course/meta-node/solidity/mine/solidity_lesson/study_code/2.1\\xe6\\x95\\xb0\\xe6\\x8d\\xae\\xe7\\xb1\\xbb\\xe5\\x9e\\x8b\\xe5\\x9f\\xba\\xe7\\xa1\\x80/IntegerType.sol\":1501:1515  return min - 1 */\n      swap2\n      pop\n      pop\n        /* \"@course/meta-node/solidity/mine/solidity_lesson/study_code/2.1\\xe6\\x95\\xb0\\xe6\\x8d\\xae\\xe7\\xb1\\xbb\\xe5\\x9e\\x8b\\xe5\\x9f\\xba\\xe7\\xa1\\x80/IntegerType.sol\":1370:1579  function testUnderflow() public pure returns (uint8) {... */\n      swap1\n      jump\t// out\n        /* \"@course/meta-node/solidity/mine/solidity_lesson/study_code/2.1\\xe6\\x95\\xb0\\xe6\\x8d\\xae\\xe7\\xb1\\xbb\\xe5\\x9e\\x8b\\xe5\\x9f\\xba\\xe7\\xa1\\x80/IntegerType.sol\":1154:1364  function testOverflow() public pure returns (uint8) {... */\n    tag_45:\n        /* \"@course/meta-node/solidity/mine/solidity_lesson/study_code/2.1\\xe6\\x95\\xb0\\xe6\\x8d\\xae\\xe7\\xb1\\xbb\\xe5\\x9e\\x8b\\xe5\\x9f\\xba\\xe7\\xa1\\x80/IntegerType.sol\":1199:1204  uint8 */\n      0x00\n        /* \"@course/meta-node/solidity/mine/solidity_lesson/study_code/2.1\\xe6\\x95\\xb0\\xe6\\x8d\\xae\\xe7\\xb1\\xbb\\xe5\\x9e\\x8b\\xe5\\x9f\\xba\\xe7\\xa1\\x80/IntegerType.sol\":1216:1225  uint8 max */\n      0x00\n        /* \"@course/meta-node/solidity/mine/solidity_lesson/study_code/2.1\\xe6\\x95\\xb0\\xe6\\x8d\\xae\\xe7\\xb1\\xbb\\xe5\\x9e\\x8b\\xe5\\x9f\\xba\\xe7\\xa1\\x80/IntegerType.sol\":1228:1231  255 */\n      0xff\n        /* \"@course/meta-node/solidity/mine/solidity_lesson/study_code/2.1\\xe6\\x95\\xb0\\xe6\\x8d\\xae\\xe7\\xb1\\xbb\\xe5\\x9e\\x8b\\xe5\\x9f\\xba\\xe7\\xa1\\x80/IntegerType.sol\":1216:1231  uint8 max = 255 */\n      swap1\n      pop\n        /* \"@course/meta-node/solidity/mine/solidity_lesson/study_code/2.1\\xe6\\x95\\xb0\\xe6\\x8d\\xae\\xe7\\xb1\\xbb\\xe5\\x9e\\x8b\\xe5\\x9f\\xba\\xe7\\xa1\\x80/IntegerType.sol\":1299:1300  1 */\n      0x01\n        /* \"@course/meta-node/solidity/mine/solidity_lesson/study_code/2.1\\xe6\\x95\\xb0\\xe6\\x8d\\xae\\xe7\\xb1\\xbb\\xe5\\x9e\\x8b\\xe5\\x9f\\xba\\xe7\\xa1\\x80/IntegerType.sol\":1293:1296  max */\n      dup2\n        /* \"@course/meta-node/solidity/mine/solidity_lesson/study_code/2.1\\xe6\\x95\\xb0\\xe6\\x8d\\xae\\xe7\\xb1\\xbb\\xe5\\x9e\\x8b\\xe5\\x9f\\xba\\xe7\\xa1\\x80/IntegerType.sol\":1293:1300  max + 1 */\n      tag_86\n      swap2\n      swap1\n      tag_81\n      jump\t// in\n    tag_86:\n        /* \"@course/meta-node/solidity/mine/solidity_lesson/study_code/2.1\\xe6\\x95\\xb0\\xe6\\x8d\\xae\\xe7\\xb1\\xbb\\xe5\\x9e\\x8b\\xe5\\x9f\\xba\\xe7\\xa1\\x80/IntegerType.sol\":1286:1300  return max + 1 */\n      swap2\n      pop\n      pop\n        /* \"@course/meta-node/solidity/mine/solidity_lesson/study_code/2.1\\xe6\\x95\\xb0\\xe6\\x8d\\xae\\xe7\\xb1\\xbb\\xe5\\x9e\\x8b\\xe5\\x9f\\xba\\xe7\\xa1\\x80/IntegerType.sol\":1154:1364  function testOverflow() public pure returns (uint8) {... */\n      swap1\n      jump\t// out\n        /* \"@course/meta-node/solidity/mine/solidity_lesson/study_code/2.1\\xe6\\x95\\xb0\\xe6\\x8d\\xae\\xe7\\xb1\\xbb\\xe5\\x9e\\x8b\\xe5\\x9f\\xba\\xe7\\xa1\\x80/IntegerType.sol\":84:353  function intTypes() public pure returns (int256, int256, uint256, uint256) {... */\n    tag_48:\n        /* \"@course/meta-node/solidity/mine/solidity_lesson/study_code/2.1\\xe6\\x95\\xb0\\xe6\\x8d\\xae\\xe7\\xb1\\xbb\\xe5\\x9e\\x8b\\xe5\\x9f\\xba\\xe7\\xa1\\x80/IntegerType.sol\":125:131  int256 */\n      0x00\n        /* \"@course/meta-node/solidity/mine/solidity_lesson/study_code/2.1\\xe6\\x95\\xb0\\xe6\\x8d\\xae\\xe7\\xb1\\xbb\\xe5\\x9e\\x8b\\xe5\\x9f\\xba\\xe7\\xa1\\x80/IntegerType.sol\":133:139  int256 */\n      0x00\n        /* \"@course/meta-node/solidity/mine/solidity_lesson/study_code/2.1\\xe6\\x95\\xb0\\xe6\\x8d\\xae\\xe7\\xb1\\xbb\\xe5\\x9e\\x8b\\xe5\\x9f\\xba\\xe7\\xa1\\x80/IntegerType.sol\":141:148  uint256 */\n      0x00\n        /* \"@course/meta-node/solidity/mine/solidity_lesson/study_code/2.1\\xe6\\x95\\xb0\\xe6\\x8d\\xae\\xe7\\xb1\\xbb\\xe5\\x9e\\x8b\\xe5\\x9f\\xba\\xe7\\xa1\\x80/IntegerType.sol\":150:157  uint256 */\n      0x00\n        /* \"@course/meta-node/solidity/mine/solidity_lesson/study_code/2.1\\xe6\\x95\\xb0\\xe6\\x8d\\xae\\xe7\\xb1\\xbb\\xe5\\x9e\\x8b\\xe5\\x9f\\xba\\xe7\\xa1\\x80/IntegerType.sol\":169:181  int256 i256b */\n      0x00\n        /* \"@course/meta-node/solidity/mine/solidity_lesson/study_code/2.1\\xe6\\x95\\xb0\\xe6\\x8d\\xae\\xe7\\xb1\\xbb\\xe5\\x9e\\x8b\\xe5\\x9f\\xba\\xe7\\xa1\\x80/IntegerType.sol\":184:193  -2 ** 255 */\n      0x8000000000000000000000000000000000000000000000000000000000000000\n        /* \"@course/meta-node/solidity/mine/solidity_lesson/study_code/2.1\\xe6\\x95\\xb0\\xe6\\x8d\\xae\\xe7\\xb1\\xbb\\xe5\\x9e\\x8b\\xe5\\x9f\\xba\\xe7\\xa1\\x80/IntegerType.sol\":169:193  int256 i256b = -2 ** 255 */\n      swap1\n      pop\n        /* \"@course/meta-node/solidity/mine/solidity_lesson/study_code/2.1\\xe6\\x95\\xb0\\xe6\\x8d\\xae\\xe7\\xb1\\xbb\\xe5\\x9e\\x8b\\xe5\\x9f\\xba\\xe7\\xa1\\x80/IntegerType.sol\":203:215  int256 i256e */\n      0x00\n        /* \"@course/meta-node/solidity/mine/solidity_lesson/study_code/2.1\\xe6\\x95\\xb0\\xe6\\x8d\\xae\\xe7\\xb1\\xbb\\xe5\\x9e\\x8b\\xe5\\x9f\\xba\\xe7\\xa1\\x80/IntegerType.sol\":218:230  2 ** 255 - 1 */\n      0x7fffffffffffffffffffffffffffffffffffffffffffffffffffffffffffffff\n        /* \"@course/meta-node/solidity/mine/solidity_lesson/study_code/2.1\\xe6\\x95\\xb0\\xe6\\x8d\\xae\\xe7\\xb1\\xbb\\xe5\\x9e\\x8b\\xe5\\x9f\\xba\\xe7\\xa1\\x80/IntegerType.sol\":203:230  int256 i256e = 2 ** 255 - 1 */\n      swap1\n      pop\n        /* \"@course/meta-node/solidity/mine/solidity_lesson/study_code/2.1\\xe6\\x95\\xb0\\xe6\\x8d\\xae\\xe7\\xb1\\xbb\\xe5\\x9e\\x8b\\xe5\\x9f\\xba\\xe7\\xa1\\x80/IntegerType.sol\":240:254  uint256 ui256b */\n      0x00\n        /* \"@course/meta-node/solidity/mine/solidity_lesson/study_code/2.1\\xe6\\x95\\xb0\\xe6\\x8d\\xae\\xe7\\xb1\\xbb\\xe5\\x9e\\x8b\\xe5\\x9f\\xba\\xe7\\xa1\\x80/IntegerType.sol\":257:258  0 */\n      0x00\n        /* \"@course/meta-node/solidity/mine/solidity_lesson/study_code/2.1\\xe6\\x95\\xb0\\xe6\\x8d\\xae\\xe7\\xb1\\xbb\\xe5\\x9e\\x8b\\xe5\\x9f\\xba\\xe7\\xa1\\x80/IntegerType.sol\":240:258  uint256 ui256b = 0 */\n      swap1\n      pop\n        /* \"@course/meta-node/solidity/mine/solidity_lesson/study_code/2.1\\xe6\\x95\\xb0\\xe6\\x8d\\xae\\xe7\\xb1\\xbb\\xe5\\x9e\\x8b\\xe5\\x9f\\xba\\xe7\\xa1\\x80/IntegerType.sol\":268:282  uint256 ui256e */\n      0x00\n        /* \"@course/meta-node/solidity/mine/solidity_lesson/study_code/2.1\\xe6\\x95\\xb0\\xe6\\x8d\\xae\\xe7\\xb1\\xbb\\xe5\\x9e\\x8b\\xe5\\x9f\\xba\\xe7\\xa1\\x80/IntegerType.sol\":285:299  (2 ** 255) - 1 */\n      0x7fffffffffffffffffffffffffffffffffffffffffffffffffffffffffffffff\n        /* \"@course/meta-node/solidity/mine/solidity_lesson/study_code/2.1\\xe6\\x95\\xb0\\xe6\\x8d\\xae\\xe7\\xb1\\xbb\\xe5\\x9e\\x8b\\xe5\\x9f\\xba\\xe7\\xa1\\x80/IntegerType.sol\":268:299  uint256 ui256e = (2 ** 255) - 1 */\n      swap1\n      pop\n        /* \"@course/meta-node/solidity/mine/solidity_lesson/study_code/2.1\\xe6\\x95\\xb0\\xe6\\x8d\\xae\\xe7\\xb1\\xbb\\xe5\\x9e\\x8b\\xe5\\x9f\\xba\\xe7\\xa1\\x80/IntegerType.sol\":317:322  i256b */\n      dup4\n        /* \"@course/meta-node/solidity/mine/solidity_lesson/study_code/2.1\\xe6\\x95\\xb0\\xe6\\x8d\\xae\\xe7\\xb1\\xbb\\xe5\\x9e\\x8b\\xe5\\x9f\\xba\\xe7\\xa1\\x80/IntegerType.sol\":324:329  i256e */\n      dup4\n        /* \"@course/meta-node/solidity/mine/solidity_lesson/study_code/2.1\\xe6\\x95\\xb0\\xe6\\x8d\\xae\\xe7\\xb1\\xbb\\xe5\\x9e\\x8b\\xe5\\x9f\\xba\\xe7\\xa1\\x80/IntegerType.sol\":331:337  ui256b */\n      dup4\n        /* \"@course/meta-node/solidity/mine/solidity_lesson/study_code/2.1\\xe6\\x95\\xb0\\xe6\\x8d\\xae\\xe7\\xb1\\xbb\\xe5\\x9e\\x8b\\xe5\\x9f\\xba\\xe7\\xa1\\x80/IntegerType.sol\":339:345  ui256e */\n      dup4\n        /* \"@course/meta-node/solidity/mine/solidity_lesson/study_code/2.1\\xe6\\x95\\xb0\\xe6\\x8d\\xae\\xe7\\xb1\\xbb\\xe5\\x9e\\x8b\\xe5\\x9f\\xba\\xe7\\xa1\\x80/IntegerType.sol\":309:346  return (i256b, i256e, ui256b, ui256e) */\n      swap8\n      pop\n      swap8\n      pop\n      swap8\n      pop\n      swap8\n      pop\n      pop\n      pop\n      pop\n      pop\n        /* \"@course/meta-node/solidity/mine/solidity_lesson/study_code/2.1\\xe6\\x95\\xb0\\xe6\\x8d\\xae\\xe7\\xb1\\xbb\\xe5\\x9e\\x8b\\xe5\\x9f\\xba\\xe7\\xa1\\x80/IntegerType.sol\":84:353  function intTypes() public pure returns (int256, int256, uint256, uint256) {... */\n      swap1\n      swap2\n      swap3\n      swap4\n      jump\t// out\n        /* \"@course/meta-node/solidity/mine/solidity_lesson/study_code/2.1\\xe6\\x95\\xb0\\xe6\\x8d\\xae\\xe7\\xb1\\xbb\\xe5\\x9e\\x8b\\xe5\\x9f\\xba\\xe7\\xa1\\x80/IntegerType.sol\":950:1148  function divideWithPrecision() public pure returns (uint) {... */\n    tag_52:\n        /* \"@course/meta-node/solidity/mine/solidity_lesson/study_code/2.1\\xe6\\x95\\xb0\\xe6\\x8d\\xae\\xe7\\xb1\\xbb\\xe5\\x9e\\x8b\\xe5\\x9f\\xba\\xe7\\xa1\\x80/IntegerType.sol\":1002:1006  uint */\n      0x00\n        /* \"@course/meta-node/solidity/mine/solidity_lesson/study_code/2.1\\xe6\\x95\\xb0\\xe6\\x8d\\xae\\xe7\\xb1\\xbb\\xe5\\x9e\\x8b\\xe5\\x9f\\xba\\xe7\\xa1\\x80/IntegerType.sol\":1018:1024  uint a */\n      0x00\n        /* \"@course/meta-node/solidity/mine/solidity_lesson/study_code/2.1\\xe6\\x95\\xb0\\xe6\\x8d\\xae\\xe7\\xb1\\xbb\\xe5\\x9e\\x8b\\xe5\\x9f\\xba\\xe7\\xa1\\x80/IntegerType.sol\":1027:1029  10 */\n      0x0a\n        /* \"@course/meta-node/solidity/mine/solidity_lesson/study_code/2.1\\xe6\\x95\\xb0\\xe6\\x8d\\xae\\xe7\\xb1\\xbb\\xe5\\x9e\\x8b\\xe5\\x9f\\xba\\xe7\\xa1\\x80/IntegerType.sol\":1018:1029  uint a = 10 */\n      swap1\n      pop\n        /* \"@course/meta-node/solidity/mine/solidity_lesson/study_code/2.1\\xe6\\x95\\xb0\\xe6\\x8d\\xae\\xe7\\xb1\\xbb\\xe5\\x9e\\x8b\\xe5\\x9f\\xba\\xe7\\xa1\\x80/IntegerType.sol\":1039:1045  uint b */\n      0x00\n        /* \"@course/meta-node/solidity/mine/solidity_lesson/study_code/2.1\\xe6\\x95\\xb0\\xe6\\x8d\\xae\\xe7\\xb1\\xbb\\xe5\\x9e\\x8b\\xe5\\x9f\\xba\\xe7\\xa1\\x80/IntegerType.sol\":1048:1049  3 */\n      0x03\n        /* \"@course/meta-node/solidity/mine/solidity_lesson/study_code/2.1\\xe6\\x95\\xb0\\xe6\\x8d\\xae\\xe7\\xb1\\xbb\\xe5\\x9e\\x8b\\xe5\\x9f\\xba\\xe7\\xa1\\x80/IntegerType.sol\":1039:1049  uint b = 3 */\n      swap1\n      pop\n        /* \"@course/meta-node/solidity/mine/solidity_lesson/study_code/2.1\\xe6\\x95\\xb0\\xe6\\x8d\\xae\\xe7\\xb1\\xbb\\xe5\\x9e\\x8b\\xe5\\x9f\\xba\\xe7\\xa1\\x80/IntegerType.sol\":1081:1082  b */\n      dup1\n        /* \"@course/meta-node/solidity/mine/solidity_lesson/study_code/2.1\\xe6\\x95\\xb0\\xe6\\x8d\\xae\\xe7\\xb1\\xbb\\xe5\\x9e\\x8b\\xe5\\x9f\\xba\\xe7\\xa1\\x80/IntegerType.sol\":1073:1077  1000 */\n      0x03e8\n        /* \"@course/meta-node/solidity/mine/solidity_lesson/study_code/2.1\\xe6\\x95\\xb0\\xe6\\x8d\\xae\\xe7\\xb1\\xbb\\xe5\\x9e\\x8b\\xe5\\x9f\\xba\\xe7\\xa1\\x80/IntegerType.sol\":1069:1070  a */\n      dup4\n        /* \"@course/meta-node/solidity/mine/solidity_lesson/study_code/2.1\\xe6\\x95\\xb0\\xe6\\x8d\\xae\\xe7\\xb1\\xbb\\xe5\\x9e\\x8b\\xe5\\x9f\\xba\\xe7\\xa1\\x80/IntegerType.sol\":1069:1077  a * 1000 */\n      tag_89\n      swap2\n      swap1\n      tag_69\n      jump\t// in\n    tag_89:\n        /* \"@course/meta-node/solidity/mine/solidity_lesson/study_code/2.1\\xe6\\x95\\xb0\\xe6\\x8d\\xae\\xe7\\xb1\\xbb\\xe5\\x9e\\x8b\\xe5\\x9f\\xba\\xe7\\xa1\\x80/IntegerType.sol\":1068:1082  (a * 1000) / b */\n      tag_90\n      swap2\n      swap1\n      tag_71\n      jump\t// in\n    tag_90:\n        /* \"@course/meta-node/solidity/mine/solidity_lesson/study_code/2.1\\xe6\\x95\\xb0\\xe6\\x8d\\xae\\xe7\\xb1\\xbb\\xe5\\x9e\\x8b\\xe5\\x9f\\xba\\xe7\\xa1\\x80/IntegerType.sol\":1060:1083  return ((a * 1000) / b) */\n      swap3\n      pop\n      pop\n      pop\n        /* \"@course/meta-node/solidity/mine/solidity_lesson/study_code/2.1\\xe6\\x95\\xb0\\xe6\\x8d\\xae\\xe7\\xb1\\xbb\\xe5\\x9e\\x8b\\xe5\\x9f\\xba\\xe7\\xa1\\x80/IntegerType.sol\":950:1148  function divideWithPrecision() public pure returns (uint) {... */\n      swap1\n      jump\t// out\n        /* \"#utility.yul\":7:82   */\n    tag_91:\n        /* \"#utility.yul\":40:46   */\n      0x00\n        /* \"#utility.yul\":73:75   */\n      0x40\n        /* \"#utility.yul\":67:76   */\n      mload\n        /* \"#utility.yul\":57:76   */\n      swap1\n      pop\n        /* \"#utility.yul\":7:82   */\n      swap1\n      jump\t// out\n        /* \"#utility.yul\":88:205   */\n    tag_92:\n        /* \"#utility.yul\":197:198   */\n      0x00\n        /* \"#utility.yul\":194:195   */\n      0x00\n        /* \"#utility.yul\":187:199   */\n      revert\n        /* \"#utility.yul\":211:328   */\n    tag_93:\n        /* \"#utility.yul\":320:321   */\n      0x00\n        /* \"#utility.yul\":317:318   */\n      0x00\n        /* \"#utility.yul\":310:322   */\n      revert\n        /* \"#utility.yul\":334:420   */\n    tag_94:\n        /* \"#utility.yul\":369:376   */\n      0x00\n        /* \"#utility.yul\":409:413   */\n      0xff\n        /* \"#utility.yul\":402:407   */\n      dup3\n        /* \"#utility.yul\":398:414   */\n      and\n        /* \"#utility.yul\":387:414   */\n      swap1\n      pop\n        /* \"#utility.yul\":334:420   */\n      swap2\n      swap1\n      pop\n      jump\t// out\n        /* \"#utility.yul\":426:544   */\n    tag_95:\n        /* \"#utility.yul\":497:519   */\n      tag_126\n        /* \"#utility.yul\":513:518   */\n      dup2\n        /* \"#utility.yul\":497:519   */\n      tag_94\n      jump\t// in\n    tag_126:\n        /* \"#utility.yul\":490:495   */\n      dup2\n        /* \"#utility.yul\":487:520   */\n      eq\n        /* \"#utility.yul\":477:538   */\n      tag_127\n      jumpi\n        /* \"#utility.yul\":534:535   */\n      0x00\n        /* \"#utility.yul\":531:532   */\n      0x00\n        /* \"#utility.yul\":524:536   */\n      revert\n        /* \"#utility.yul\":477:538   */\n    tag_127:\n        /* \"#utility.yul\":426:544   */\n      pop\n      jump\t// out\n        /* \"#utility.yul\":550:685   */\n    tag_96:\n        /* \"#utility.yul\":594:599   */\n      0x00\n        /* \"#utility.yul\":632:638   */\n      dup2\n        /* \"#utility.yul\":619:639   */\n      calldataload\n        /* \"#utility.yul\":610:639   */\n      swap1\n      pop\n        /* \"#utility.yul\":648:679   */\n      tag_129\n        /* \"#utility.yul\":673:678   */\n      dup2\n        /* \"#utility.yul\":648:679   */\n      tag_95\n      jump\t// in\n    tag_129:\n        /* \"#utility.yul\":550:685   */\n      swap3\n      swap2\n      pop\n      pop\n      jump\t// out\n        /* \"#utility.yul\":691:1016   */\n    tag_16:\n        /* \"#utility.yul\":748:754   */\n      0x00\n        /* \"#utility.yul\":797:799   */\n      0x20\n        /* \"#utility.yul\":785:794   */\n      dup3\n        /* \"#utility.yul\":776:783   */\n      dup5\n        /* \"#utility.yul\":772:795   */\n      sub\n        /* \"#utility.yul\":768:800   */\n      slt\n        /* \"#utility.yul\":765:884   */\n      iszero\n      tag_131\n      jumpi\n        /* \"#utility.yul\":803:882   */\n      tag_132\n      tag_92\n      jump\t// in\n    tag_132:\n        /* \"#utility.yul\":765:884   */\n    tag_131:\n        /* \"#utility.yul\":923:924   */\n      0x00\n        /* \"#utility.yul\":948:999   */\n      tag_133\n        /* \"#utility.yul\":991:998   */\n      dup5\n        /* \"#utility.yul\":982:988   */\n      dup3\n        /* \"#utility.yul\":971:980   */\n      dup6\n        /* \"#utility.yul\":967:989   */\n      add\n        /* \"#utility.yul\":948:999   */\n      tag_96\n      jump\t// in\n    tag_133:\n        /* \"#utility.yul\":938:999   */\n      swap2\n      pop\n        /* \"#utility.yul\":894:1009   */\n      pop\n        /* \"#utility.yul\":691:1016   */\n      swap3\n      swap2\n      pop\n      pop\n      jump\t// out\n        /* \"#utility.yul\":1022:1099   */\n    tag_97:\n        /* \"#utility.yul\":1059:1066   */\n      0x00\n        /* \"#utility.yul\":1088:1093   */\n      dup2\n        /* \"#utility.yul\":1077:1093   */\n      swap1\n      pop\n        /* \"#utility.yul\":1022:1099   */\n      swap2\n      swap1\n      pop\n      jump\t// out\n        /* \"#utility.yul\":1105:1223   */\n    tag_98:\n        /* \"#utility.yul\":1192:1216   */\n      tag_136\n        /* \"#utility.yul\":1210:1215   */\n      dup2\n        /* \"#utility.yul\":1192:1216   */\n      tag_97\n      jump\t// in\n    tag_136:\n        /* \"#utility.yul\":1187:1190   */\n      dup3\n        /* \"#utility.yul\":1180:1217   */\n      mstore\n        /* \"#utility.yul\":1105:1223   */\n      pop\n      pop\n      jump\t// out\n        /* \"#utility.yul\":1229:1451   */\n    tag_19:\n        /* \"#utility.yul\":1322:1326   */\n      0x00\n        /* \"#utility.yul\":1360:1362   */\n      0x20\n        /* \"#utility.yul\":1349:1358   */\n      dup3\n        /* \"#utility.yul\":1345:1363   */\n      add\n        /* \"#utility.yul\":1337:1363   */\n      swap1\n      pop\n        /* \"#utility.yul\":1373:1444   */\n      tag_138\n        /* \"#utility.yul\":1441:1442   */\n      0x00\n        /* \"#utility.yul\":1430:1439   */\n      dup4\n        /* \"#utility.yul\":1426:1443   */\n      add\n        /* \"#utility.yul\":1417:1423   */\n      dup5\n        /* \"#utility.yul\":1373:1444   */\n      tag_98\n      jump\t// in\n    tag_138:\n        /* \"#utility.yul\":1229:1451   */\n      swap3\n      swap2\n      pop\n      pop\n      jump\t// out\n        /* \"#utility.yul\":1457:1574   */\n    tag_99:\n        /* \"#utility.yul\":1566:1567   */\n      0x00\n        /* \"#utility.yul\":1563:1564   */\n      0x00\n        /* \"#utility.yul\":1556:1568   */\n      revert\n        /* \"#utility.yul\":1580:1682   */\n    tag_100:\n        /* \"#utility.yul\":1621:1627   */\n      0x00\n        /* \"#utility.yul\":1672:1674   */\n      0x1f\n        /* \"#utility.yul\":1668:1675   */\n      not\n        /* \"#utility.yul\":1663:1665   */\n      0x1f\n        /* \"#utility.yul\":1656:1661   */\n      dup4\n        /* \"#utility.yul\":1652:1666   */\n      add\n        /* \"#utility.yul\":1648:1676   */\n      and\n        /* \"#utility.yul\":1638:1676   */\n      swap1\n      pop\n        /* \"#utility.yul\":1580:1682   */\n      swap2\n      swap1\n      pop\n      jump\t// out\n        /* \"#utility.yul\":1688:1868   */\n    tag_101:\n        /* \"#utility.yul\":1736:1813   */\n      0x4e487b7100000000000000000000000000000000000000000000000000000000\n        /* \"#utility.yul\":1733:1734   */\n      0x00\n        /* \"#utility.yul\":1726:1814   */\n      mstore\n        /* \"#utility.yul\":1833:1837   */\n      0x41\n        /* \"#utility.yul\":1830:1831   */\n      0x04\n        /* \"#utility.yul\":1823:1838   */\n      mstore\n        /* \"#utility.yul\":1857:1861   */\n      0x24\n        /* \"#utility.yul\":1854:1855   */\n      0x00\n        /* \"#utility.yul\":1847:1862   */\n      revert\n        /* \"#utility.yul\":1874:2155   */\n    tag_102:\n        /* \"#utility.yul\":1957:1984   */\n      tag_143\n        /* \"#utility.yul\":1979:1983   */\n      dup3\n        /* \"#utility.yul\":1957:1984   */\n      tag_100\n      jump\t// in\n    tag_143:\n        /* \"#utility.yul\":1949:1955   */\n      dup2\n        /* \"#utility.yul\":1945:1985   */\n      add\n        /* \"#utility.yul\":2087:2093   */\n      dup2\n        /* \"#utility.yul\":2075:2085   */\n      dup2\n        /* \"#utility.yul\":2072:2094   */\n      lt\n        /* \"#utility.yul\":2051:2069   */\n      0xffffffffffffffff\n        /* \"#utility.yul\":2039:2049   */\n      dup3\n        /* \"#utility.yul\":2036:2070   */\n      gt\n        /* \"#utility.yul\":2033:2095   */\n      or\n        /* \"#utility.yul\":2030:2118   */\n      iszero\n      tag_144\n      jumpi\n        /* \"#utility.yul\":2098:2116   */\n      tag_145\n      tag_101\n      jump\t// in\n    tag_145:\n        /* \"#utility.yul\":2030:2118   */\n    tag_144:\n        /* \"#utility.yul\":2138:2148   */\n      dup1\n        /* \"#utility.yul\":2134:2136   */\n      0x40\n        /* \"#utility.yul\":2127:2149   */\n      mstore\n        /* \"#utility.yul\":1917:2155   */\n      pop\n        /* \"#utility.yul\":1874:2155   */\n      pop\n      pop\n      jump\t// out\n        /* \"#utility.yul\":2161:2290   */\n    tag_103:\n        /* \"#utility.yul\":2195:2201   */\n      0x00\n        /* \"#utility.yul\":2222:2242   */\n      tag_147\n      tag_91\n      jump\t// in\n    tag_147:\n        /* \"#utility.yul\":2212:2242   */\n      swap1\n      pop\n        /* \"#utility.yul\":2251:2284   */\n      tag_148\n        /* \"#utility.yul\":2279:2283   */\n      dup3\n        /* \"#utility.yul\":2271:2277   */\n      dup3\n        /* \"#utility.yul\":2251:2284   */\n      tag_102\n      jump\t// in\n    tag_148:\n        /* \"#utility.yul\":2161:2290   */\n      swap2\n      swap1\n      pop\n      jump\t// out\n        /* \"#utility.yul\":2296:2607   */\n    tag_104:\n        /* \"#utility.yul\":2373:2377   */\n      0x00\n        /* \"#utility.yul\":2463:2481   */\n      0xffffffffffffffff\n        /* \"#utility.yul\":2455:2461   */\n      dup3\n        /* \"#utility.yul\":2452:2482   */\n      gt\n        /* \"#utility.yul\":2449:2505   */\n      iszero\n      tag_150\n      jumpi\n        /* \"#utility.yul\":2485:2503   */\n      tag_151\n      tag_101\n      jump\t// in\n    tag_151:\n        /* \"#utility.yul\":2449:2505   */\n    tag_150:\n        /* \"#utility.yul\":2535:2539   */\n      0x20\n        /* \"#utility.yul\":2527:2533   */\n      dup3\n        /* \"#utility.yul\":2523:2540   */\n      mul\n        /* \"#utility.yul\":2515:2540   */\n      swap1\n      pop\n        /* \"#utility.yul\":2595:2599   */\n      0x20\n        /* \"#utility.yul\":2589:2593   */\n      dup2\n        /* \"#utility.yul\":2585:2600   */\n      add\n        /* \"#utility.yul\":2577:2600   */\n      swap1\n      pop\n        /* \"#utility.yul\":2296:2607   */\n      swap2\n      swap1\n      pop\n      jump\t// out\n        /* \"#utility.yul\":2613:2730   */\n    tag_105:\n        /* \"#utility.yul\":2722:2723   */\n      0x00\n        /* \"#utility.yul\":2719:2720   */\n      0x00\n        /* \"#utility.yul\":2712:2724   */\n      revert\n        /* \"#utility.yul\":2736:2858   */\n    tag_106:\n        /* \"#utility.yul\":2809:2833   */\n      tag_154\n        /* \"#utility.yul\":2827:2832   */\n      dup2\n        /* \"#utility.yul\":2809:2833   */\n      tag_97\n      jump\t// in\n    tag_154:\n        /* \"#utility.yul\":2802:2807   */\n      dup2\n        /* \"#utility.yul\":2799:2834   */\n      eq\n        /* \"#utility.yul\":2789:2852   */\n      tag_155\n      jumpi\n        /* \"#utility.yul\":2848:2849   */\n      0x00\n        /* \"#utility.yul\":2845:2846   */\n      0x00\n        /* \"#utility.yul\":2838:2850   */\n      revert\n        /* \"#utility.yul\":2789:2852   */\n    tag_155:\n        /* \"#utility.yul\":2736:2858   */\n      pop\n      jump\t// out\n        /* \"#utility.yul\":2864:3003   */\n    tag_107:\n        /* \"#utility.yul\":2910:2915   */\n      0x00\n        /* \"#utility.yul\":2948:2954   */\n      dup2\n        /* \"#utility.yul\":2935:2955   */\n      calldataload\n        /* \"#utility.yul\":2926:2955   */\n      swap1\n      pop\n        /* \"#utility.yul\":2964:2997   */\n      tag_157\n        /* \"#utility.yul\":2991:2996   */\n      dup2\n        /* \"#utility.yul\":2964:2997   */\n      tag_106\n      jump\t// in\n    tag_157:\n        /* \"#utility.yul\":2864:3003   */\n      swap3\n      swap2\n      pop\n      pop\n      jump\t// out\n        /* \"#utility.yul\":3026:3736   */\n    tag_108:\n        /* \"#utility.yul\":3122:3127   */\n      0x00\n        /* \"#utility.yul\":3147:3228   */\n      tag_159\n        /* \"#utility.yul\":3163:3227   */\n      tag_160\n        /* \"#utility.yul\":3220:3226   */\n      dup5\n        /* \"#utility.yul\":3163:3227   */\n      tag_104\n      jump\t// in\n    tag_160:\n        /* \"#utility.yul\":3147:3228   */\n      tag_103\n      jump\t// in\n    tag_159:\n        /* \"#utility.yul\":3138:3228   */\n      swap1\n      pop\n        /* \"#utility.yul\":3248:3253   */\n      dup1\n        /* \"#utility.yul\":3277:3283   */\n      dup4\n        /* \"#utility.yul\":3270:3275   */\n      dup3\n        /* \"#utility.yul\":3263:3284   */\n      mstore\n        /* \"#utility.yul\":3311:3315   */\n      0x20\n        /* \"#utility.yul\":3304:3309   */\n      dup3\n        /* \"#utility.yul\":3300:3316   */\n      add\n        /* \"#utility.yul\":3293:3316   */\n      swap1\n      pop\n        /* \"#utility.yul\":3364:3368   */\n      0x20\n        /* \"#utility.yul\":3356:3362   */\n      dup5\n        /* \"#utility.yul\":3352:3369   */\n      mul\n        /* \"#utility.yul\":3344:3350   */\n      dup4\n        /* \"#utility.yul\":3340:3370   */\n      add\n        /* \"#utility.yul\":3393:3396   */\n      dup6\n        /* \"#utility.yul\":3385:3391   */\n      dup2\n        /* \"#utility.yul\":3382:3397   */\n      gt\n        /* \"#utility.yul\":3379:3501   */\n      iszero\n      tag_161\n      jumpi\n        /* \"#utility.yul\":3412:3491   */\n      tag_162\n      tag_105\n      jump\t// in\n    tag_162:\n        /* \"#utility.yul\":3379:3501   */\n    tag_161:\n        /* \"#utility.yul\":3527:3533   */\n      dup4\n        /* \"#utility.yul\":3510:3730   */\n    tag_163:\n        /* \"#utility.yul\":3544:3550   */\n      dup2\n        /* \"#utility.yul\":3539:3542   */\n      dup2\n        /* \"#utility.yul\":3536:3551   */\n      lt\n        /* \"#utility.yul\":3510:3730   */\n      iszero\n      tag_165\n      jumpi\n        /* \"#utility.yul\":3619:3622   */\n      dup1\n        /* \"#utility.yul\":3648:3685   */\n      tag_166\n        /* \"#utility.yul\":3681:3684   */\n      dup9\n        /* \"#utility.yul\":3669:3679   */\n      dup3\n        /* \"#utility.yul\":3648:3685   */\n      tag_107\n      jump\t// in\n    tag_166:\n        /* \"#utility.yul\":3643:3646   */\n      dup5\n        /* \"#utility.yul\":3636:3686   */\n      mstore\n        /* \"#utility.yul\":3715:3719   */\n      0x20\n        /* \"#utility.yul\":3710:3713   */\n      dup5\n        /* \"#utility.yul\":3706:3720   */\n      add\n        /* \"#utility.yul\":3699:3720   */\n      swap4\n      pop\n        /* \"#utility.yul\":3586:3730   */\n      pop\n        /* \"#utility.yul\":3570:3574   */\n      0x20\n        /* \"#utility.yul\":3565:3568   */\n      dup2\n        /* \"#utility.yul\":3561:3575   */\n      add\n        /* \"#utility.yul\":3554:3575   */\n      swap1\n      pop\n        /* \"#utility.yul\":3510:3730   */\n      jump(tag_163)\n    tag_165:\n        /* \"#utility.yul\":3514:3535   */\n      pop\n        /* \"#utility.yul\":3128:3736   */\n      pop\n      pop\n        /* \"#utility.yul\":3026:3736   */\n      swap4\n      swap3\n      pop\n      pop\n      pop\n      jump\t// out\n        /* \"#utility.yul\":3759:4129   */\n    tag_109:\n        /* \"#utility.yul\":3830:3835   */\n      0x00\n        /* \"#utility.yul\":3879:3882   */\n      dup3\n        /* \"#utility.yul\":3872:3876   */\n      0x1f\n        /* \"#utility.yul\":3864:3870   */\n      dup4\n        /* \"#utility.yul\":3860:3877   */\n      add\n        /* \"#utility.yul\":3856:3883   */\n      slt\n        /* \"#utility.yul\":3846:3968   */\n      tag_168\n      jumpi\n        /* \"#utility.yul\":3887:3966   */\n      tag_169\n      tag_99\n      jump\t// in\n    tag_169:\n        /* \"#utility.yul\":3846:3968   */\n    tag_168:\n        /* \"#utility.yul\":4004:4010   */\n      dup2\n        /* \"#utility.yul\":3991:4011   */\n      calldataload\n        /* \"#utility.yul\":4029:4123   */\n      tag_170\n        /* \"#utility.yul\":4119:4122   */\n      dup5\n        /* \"#utility.yul\":4111:4117   */\n      dup3\n        /* \"#utility.yul\":4104:4108   */\n      0x20\n        /* \"#utility.yul\":4096:4102   */\n      dup7\n        /* \"#utility.yul\":4092:4109   */\n      add\n        /* \"#utility.yul\":4029:4123   */\n      tag_108\n      jump\t// in\n    tag_170:\n        /* \"#utility.yul\":4020:4123   */\n      swap2\n      pop\n        /* \"#utility.yul\":3836:4129   */\n      pop\n        /* \"#utility.yul\":3759:4129   */\n      swap3\n      swap2\n      pop\n      pop\n      jump\t// out\n        /* \"#utility.yul\":4135:4674   */\n    tag_22:\n        /* \"#utility.yul\":4219:4225   */\n      0x00\n        /* \"#utility.yul\":4268:4270   */\n      0x20\n        /* \"#utility.yul\":4256:4265   */\n      dup3\n        /* \"#utility.yul\":4247:4254   */\n      dup5\n        /* \"#utility.yul\":4243:4266   */\n      sub\n        /* \"#utility.yul\":4239:4271   */\n      slt\n        /* \"#utility.yul\":4236:4355   */\n      iszero\n      tag_172\n      jumpi\n        /* \"#utility.yul\":4274:4353   */\n      tag_173\n      tag_92\n      jump\t// in\n    tag_173:\n        /* \"#utility.yul\":4236:4355   */\n    tag_172:\n        /* \"#utility.yul\":4422:4423   */\n      0x00\n        /* \"#utility.yul\":4411:4420   */\n      dup3\n        /* \"#utility.yul\":4407:4424   */\n      add\n        /* \"#utility.yul\":4394:4425   */\n      calldataload\n        /* \"#utility.yul\":4452:4470   */\n      0xffffffffffffffff\n        /* \"#utility.yul\":4444:4450   */\n      dup2\n        /* \"#utility.yul\":4441:4471   */\n      gt\n        /* \"#utility.yul\":4438:4555   */\n      iszero\n      tag_174\n      jumpi\n        /* \"#utility.yul\":4474:4553   */\n      tag_175\n      tag_93\n      jump\t// in\n    tag_175:\n        /* \"#utility.yul\":4438:4555   */\n    tag_174:\n        /* \"#utility.yul\":4579:4657   */\n      tag_176\n        /* \"#utility.yul\":4649:4656   */\n      dup5\n        /* \"#utility.yul\":4640:4646   */\n      dup3\n        /* \"#utility.yul\":4629:4638   */\n      dup6\n        /* \"#utility.yul\":4625:4647   */\n      add\n        /* \"#utility.yul\":4579:4657   */\n      tag_109\n      jump\t// in\n    tag_176:\n        /* \"#utility.yul\":4569:4657   */\n      swap2\n      pop\n        /* \"#utility.yul\":4365:4667   */\n      pop\n        /* \"#utility.yul\":4135:4674   */\n      swap3\n      swap2\n      pop\n      pop\n      jump\t// out\n        /* \"#utility.yul\":4680:5455   */\n    tag_28:\n        /* \"#utility.yul\":4913:4917   */\n      0x00\n        /* \"#utility.yul\":4951:4954   */\n      0xc0\n        /* \"#utility.yul\":4940:4949   */\n      dup3\n        /* \"#utility.yul\":4936:4955   */\n      add\n        /* \"#utility.yul\":4928:4955   */\n      swap1\n      pop\n        /* \"#utility.yul\":4965:5036   */\n      tag_178\n        /* \"#utility.yul\":5033:5034   */\n      0x00\n        /* \"#utility.yul\":5022:5031   */\n      dup4\n        /* \"#utility.yul\":5018:5035   */\n      add\n        /* \"#utility.yul\":5009:5015   */\n      dup10\n        /* \"#utility.yul\":4965:5036   */\n      tag_98\n      jump\t// in\n    tag_178:\n        /* \"#utility.yul\":5046:5118   */\n      tag_179\n        /* \"#utility.yul\":5114:5116   */\n      0x20\n        /* \"#utility.yul\":5103:5112   */\n      dup4\n        /* \"#utility.yul\":5099:5117   */\n      add\n        /* \"#utility.yul\":5090:5096   */\n      dup9\n        /* \"#utility.yul\":5046:5118   */\n      tag_98\n      jump\t// in\n    tag_179:\n        /* \"#utility.yul\":5128:5200   */\n      tag_180\n        /* \"#utility.yul\":5196:5198   */\n      0x40\n        /* \"#utility.yul\":5185:5194   */\n      dup4\n        /* \"#utility.yul\":5181:5199   */\n      add\n        /* \"#utility.yul\":5172:5178   */\n      dup8\n        /* \"#utility.yul\":5128:5200   */\n      tag_98\n      jump\t// in\n    tag_180:\n        /* \"#utility.yul\":5210:5282   */\n      tag_181\n        /* \"#utility.yul\":5278:5280   */\n      0x60\n        /* \"#utility.yul\":5267:5276   */\n      dup4\n        /* \"#utility.yul\":5263:5281   */\n      add\n        /* \"#utility.yul\":5254:5260   */\n      dup7\n        /* \"#utility.yul\":5210:5282   */\n      tag_98\n      jump\t// in\n    tag_181:\n        /* \"#utility.yul\":5292:5365   */\n      tag_182\n        /* \"#utility.yul\":5360:5363   */\n      0x80\n        /* \"#utility.yul\":5349:5358   */\n      dup4\n        /* \"#utility.yul\":5345:5364   */\n      add\n        /* \"#utility.yul\":5336:5342   */\n      dup6\n        /* \"#utility.yul\":5292:5365   */\n      tag_98\n      jump\t// in\n    tag_182:\n        /* \"#utility.yul\":5375:5448   */\n      tag_183\n        /* \"#utility.yul\":5443:5446   */\n      0xa0\n        /* \"#utility.yul\":5432:5441   */\n      dup4\n        /* \"#utility.yul\":5428:5447   */\n      add\n        /* \"#utility.yul\":5419:5425   */\n      dup5\n        /* \"#utility.yul\":5375:5448   */\n      tag_98\n      jump\t// in\n    tag_183:\n        /* \"#utility.yul\":4680:5455   */\n      swap8\n      swap7\n      pop\n      pop\n      pop\n      pop\n      pop\n      pop\n      pop\n      jump\t// out\n        /* \"#utility.yul\":5461:5551   */\n    tag_110:\n        /* \"#utility.yul\":5495:5502   */\n      0x00\n        /* \"#utility.yul\":5538:5543   */\n      dup2\n        /* \"#utility.yul\":5531:5544   */\n      iszero\n        /* \"#utility.yul\":5524:5545   */\n      iszero\n        /* \"#utility.yul\":5513:5545   */\n      swap1\n      pop\n        /* \"#utility.yul\":5461:5551   */\n      swap2\n      swap1\n      pop\n      jump\t// out\n        /* \"#utility.yul\":5557:5666   */\n    tag_111:\n        /* \"#utility.yul\":5638:5659   */\n      tag_186\n        /* \"#utility.yul\":5653:5658   */\n      dup2\n        /* \"#utility.yul\":5638:5659   */\n      tag_110\n      jump\t// in\n    tag_186:\n        /* \"#utility.yul\":5633:5636   */\n      dup3\n        /* \"#utility.yul\":5626:5660   */\n      mstore\n        /* \"#utility.yul\":5557:5666   */\n      pop\n      pop\n      jump\t// out\n        /* \"#utility.yul\":5672:6375   */\n    tag_35:\n        /* \"#utility.yul\":5869:5873   */\n      0x00\n        /* \"#utility.yul\":5907:5910   */\n      0xc0\n        /* \"#utility.yul\":5896:5905   */\n      dup3\n        /* \"#utility.yul\":5892:5911   */\n      add\n        /* \"#utility.yul\":5884:5911   */\n      swap1\n      pop\n        /* \"#utility.yul\":5921:5986   */\n      tag_188\n        /* \"#utility.yul\":5983:5984   */\n      0x00\n        /* \"#utility.yul\":5972:5981   */\n      dup4\n        /* \"#utility.yul\":5968:5985   */\n      add\n        /* \"#utility.yul\":5959:5965   */\n      dup10\n        /* \"#utility.yul\":5921:5986   */\n      tag_111\n      jump\t// in\n    tag_188:\n        /* \"#utility.yul\":5996:6062   */\n      tag_189\n        /* \"#utility.yul\":6058:6060   */\n      0x20\n        /* \"#utility.yul\":6047:6056   */\n      dup4\n        /* \"#utility.yul\":6043:6061   */\n      add\n        /* \"#utility.yul\":6034:6040   */\n      dup9\n        /* \"#utility.yul\":5996:6062   */\n      tag_111\n      jump\t// in\n    tag_189:\n        /* \"#utility.yul\":6072:6138   */\n      tag_190\n        /* \"#utility.yul\":6134:6136   */\n      0x40\n        /* \"#utility.yul\":6123:6132   */\n      dup4\n        /* \"#utility.yul\":6119:6137   */\n      add\n        /* \"#utility.yul\":6110:6116   */\n      dup8\n        /* \"#utility.yul\":6072:6138   */\n      tag_111\n      jump\t// in\n    tag_190:\n        /* \"#utility.yul\":6148:6214   */\n      tag_191\n        /* \"#utility.yul\":6210:6212   */\n      0x60\n        /* \"#utility.yul\":6199:6208   */\n      dup4\n        /* \"#utility.yul\":6195:6213   */\n      add\n        /* \"#utility.yul\":6186:6192   */\n      dup7\n        /* \"#utility.yul\":6148:6214   */\n      tag_111\n      jump\t// in\n    tag_191:\n        /* \"#utility.yul\":6224:6291   */\n      tag_192\n        /* \"#utility.yul\":6286:6289   */\n      0x80\n        /* \"#utility.yul\":6275:6284   */\n      dup4\n        /* \"#utility.yul\":6271:6290   */\n      add\n        /* \"#utility.yul\":6262:6268   */\n      dup6\n        /* \"#utility.yul\":6224:6291   */\n      tag_111\n      jump\t// in\n    tag_192:\n        /* \"#utility.yul\":6301:6368   */\n      tag_193\n        /* \"#utility.yul\":6363:6366   */\n      0xa0\n        /* \"#utility.yul\":6352:6361   */\n      dup4\n        /* \"#utility.yul\":6348:6367   */\n      add\n        /* \"#utility.yul\":6339:6345   */\n      dup5\n        /* \"#utility.yul\":6301:6368   */\n      tag_111\n      jump\t// in\n    tag_193:\n        /* \"#utility.yul\":5672:6375   */\n      swap8\n      swap7\n      pop\n      pop\n      pop\n      pop\n      pop\n      pop\n      pop\n      jump\t// out\n        /* \"#utility.yul\":6381:6493   */\n    tag_112:\n        /* \"#utility.yul\":6464:6486   */\n      tag_195\n        /* \"#utility.yul\":6480:6485   */\n      dup2\n        /* \"#utility.yul\":6464:6486   */\n      tag_94\n      jump\t// in\n    tag_195:\n        /* \"#utility.yul\":6459:6462   */\n      dup3\n        /* \"#utility.yul\":6452:6487   */\n      mstore\n        /* \"#utility.yul\":6381:6493   */\n      pop\n      pop\n      jump\t// out\n        /* \"#utility.yul\":6499:6713   */\n    tag_43:\n        /* \"#utility.yul\":6588:6592   */\n      0x00\n        /* \"#utility.yul\":6626:6628   */\n      0x20\n        /* \"#utility.yul\":6615:6624   */\n      dup3\n        /* \"#utility.yul\":6611:6629   */\n      add\n        /* \"#utility.yul\":6603:6629   */\n      swap1\n      pop\n        /* \"#utility.yul\":6639:6706   */\n      tag_197\n        /* \"#utility.yul\":6703:6704   */\n      0x00\n        /* \"#utility.yul\":6692:6701   */\n      dup4\n        /* \"#utility.yul\":6688:6705   */\n      add\n        /* \"#utility.yul\":6679:6685   */\n      dup5\n        /* \"#utility.yul\":6639:6706   */\n      tag_112\n      jump\t// in\n    tag_197:\n        /* \"#utility.yul\":6499:6713   */\n      swap3\n      swap2\n      pop\n      pop\n      jump\t// out\n        /* \"#utility.yul\":6719:6795   */\n    tag_113:\n        /* \"#utility.yul\":6755:6762   */\n      0x00\n        /* \"#utility.yul\":6784:6789   */\n      dup2\n        /* \"#utility.yul\":6773:6789   */\n      swap1\n      pop\n        /* \"#utility.yul\":6719:6795   */\n      swap2\n      swap1\n      pop\n      jump\t// out\n        /* \"#utility.yul\":6801:6916   */\n    tag_114:\n        /* \"#utility.yul\":6886:6909   */\n      tag_200\n        /* \"#utility.yul\":6903:6908   */\n      dup2\n        /* \"#utility.yul\":6886:6909   */\n      tag_113\n      jump\t// in\n    tag_200:\n        /* \"#utility.yul\":6881:6884   */\n      dup3\n        /* \"#utility.yul\":6874:6910   */\n      mstore\n        /* \"#utility.yul\":6801:6916   */\n      pop\n      pop\n      jump\t// out\n        /* \"#utility.yul\":6922:7467   */\n    tag_50:\n        /* \"#utility.yul\":7095:7099   */\n      0x00\n        /* \"#utility.yul\":7133:7136   */\n      0x80\n        /* \"#utility.yul\":7122:7131   */\n      dup3\n        /* \"#utility.yul\":7118:7137   */\n      add\n        /* \"#utility.yul\":7110:7137   */\n      swap1\n      pop\n        /* \"#utility.yul\":7147:7216   */\n      tag_202\n        /* \"#utility.yul\":7213:7214   */\n      0x00\n        /* \"#utility.yul\":7202:7211   */\n      dup4\n        /* \"#utility.yul\":7198:7215   */\n      add\n        /* \"#utility.yul\":7189:7195   */\n      dup8\n        /* \"#utility.yul\":7147:7216   */\n      tag_114\n      jump\t// in\n    tag_202:\n        /* \"#utility.yul\":7226:7296   */\n      tag_203\n        /* \"#utility.yul\":7292:7294   */\n      0x20\n        /* \"#utility.yul\":7281:7290   */\n      dup4\n        /* \"#utility.yul\":7277:7295   */\n      add\n        /* \"#utility.yul\":7268:7274   */\n      dup7\n        /* \"#utility.yul\":7226:7296   */\n      tag_114\n      jump\t// in\n    tag_203:\n        /* \"#utility.yul\":7306:7378   */\n      tag_204\n        /* \"#utility.yul\":7374:7376   */\n      0x40\n        /* \"#utility.yul\":7363:7372   */\n      dup4\n        /* \"#utility.yul\":7359:7377   */\n      add\n        /* \"#utility.yul\":7350:7356   */\n      dup6\n        /* \"#utility.yul\":7306:7378   */\n      tag_98\n      jump\t// in\n    tag_204:\n        /* \"#utility.yul\":7388:7460   */\n      tag_205\n        /* \"#utility.yul\":7456:7458   */\n      0x60\n        /* \"#utility.yul\":7445:7454   */\n      dup4\n        /* \"#utility.yul\":7441:7459   */\n      add\n        /* \"#utility.yul\":7432:7438   */\n      dup5\n        /* \"#utility.yul\":7388:7460   */\n      tag_98\n      jump\t// in\n    tag_205:\n        /* \"#utility.yul\":6922:7467   */\n      swap6\n      swap5\n      pop\n      pop\n      pop\n      pop\n      pop\n      jump\t// out\n        /* \"#utility.yul\":7473:7653   */\n    tag_61:\n        /* \"#utility.yul\":7521:7598   */\n      0x4e487b7100000000000000000000000000000000000000000000000000000000\n        /* \"#utility.yul\":7518:7519   */\n      0x00\n        /* \"#utility.yul\":7511:7599   */\n      mstore\n        /* \"#utility.yul\":7618:7622   */\n      0x32\n        /* \"#utility.yul\":7615:7616   */\n      0x04\n        /* \"#utility.yul\":7608:7623   */\n      mstore\n        /* \"#utility.yul\":7642:7646   */\n      0x24\n        /* \"#utility.yul\":7639:7640   */\n      0x00\n        /* \"#utility.yul\":7632:7647   */\n      revert\n        /* \"#utility.yul\":7659:7839   */\n    tag_115:\n        /* \"#utility.yul\":7707:7784   */\n      0x4e487b7100000000000000000000000000000000000000000000000000000000\n        /* \"#utility.yul\":7704:7705   */\n      0x00\n        /* \"#utility.yul\":7697:7785   */\n      mstore\n        /* \"#utility.yul\":7804:7808   */\n      0x11\n        /* \"#utility.yul\":7801:7802   */\n      0x04\n        /* \"#utility.yul\":7794:7809   */\n      mstore\n        /* \"#utility.yul\":7828:7832   */\n      0x24\n        /* \"#utility.yul\":7825:7826   */\n      0x00\n        /* \"#utility.yul\":7818:7833   */\n      revert\n        /* \"#utility.yul\":7845:8036   */\n    tag_63:\n        /* \"#utility.yul\":7885:7888   */\n      0x00\n        /* \"#utility.yul\":7904:7924   */\n      tag_209\n        /* \"#utility.yul\":7922:7923   */\n      dup3\n        /* \"#utility.yul\":7904:7924   */\n      tag_97\n      jump\t// in\n    tag_209:\n        /* \"#utility.yul\":7899:7924   */\n      swap2\n      pop\n        /* \"#utility.yul\":7938:7958   */\n      tag_210\n        /* \"#utility.yul\":7956:7957   */\n      dup4\n        /* \"#utility.yul\":7938:7958   */\n      tag_97\n      jump\t// in\n    tag_210:\n        /* \"#utility.yul\":7933:7958   */\n      swap3\n      pop\n        /* \"#utility.yul\":7981:7982   */\n      dup3\n        /* \"#utility.yul\":7978:7979   */\n      dup3\n        /* \"#utility.yul\":7974:7983   */\n      add\n        /* \"#utility.yul\":7967:7983   */\n      swap1\n      pop\n        /* \"#utility.yul\":8002:8005   */\n      dup1\n        /* \"#utility.yul\":7999:8000   */\n      dup3\n        /* \"#utility.yul\":7996:8006   */\n      gt\n        /* \"#utility.yul\":7993:8029   */\n      iszero\n      tag_211\n      jumpi\n        /* \"#utility.yul\":8009:8027   */\n      tag_212\n      tag_115\n      jump\t// in\n    tag_212:\n        /* \"#utility.yul\":7993:8029   */\n    tag_211:\n        /* \"#utility.yul\":7845:8036   */\n      swap3\n      swap2\n      pop\n      pop\n      jump\t// out\n        /* \"#utility.yul\":8042:8236   */\n    tag_67:\n        /* \"#utility.yul\":8082:8086   */\n      0x00\n        /* \"#utility.yul\":8102:8122   */\n      tag_214\n        /* \"#utility.yul\":8120:8121   */\n      dup3\n        /* \"#utility.yul\":8102:8122   */\n      tag_97\n      jump\t// in\n    tag_214:\n        /* \"#utility.yul\":8097:8122   */\n      swap2\n      pop\n        /* \"#utility.yul\":8136:8156   */\n      tag_215\n        /* \"#utility.yul\":8154:8155   */\n      dup4\n        /* \"#utility.yul\":8136:8156   */\n      tag_97\n      jump\t// in\n    tag_215:\n        /* \"#utility.yul\":8131:8156   */\n      swap3\n      pop\n        /* \"#utility.yul\":8180:8181   */\n      dup3\n        /* \"#utility.yul\":8177:8178   */\n      dup3\n        /* \"#utility.yul\":8173:8182   */\n      sub\n        /* \"#utility.yul\":8165:8182   */\n      swap1\n      pop\n        /* \"#utility.yul\":8204:8205   */\n      dup2\n        /* \"#utility.yul\":8198:8202   */\n      dup2\n        /* \"#utility.yul\":8195:8206   */\n      gt\n        /* \"#utility.yul\":8192:8229   */\n      iszero\n      tag_216\n      jumpi\n        /* \"#utility.yul\":8209:8227   */\n      tag_217\n      tag_115\n      jump\t// in\n    tag_217:\n        /* \"#utility.yul\":8192:8229   */\n    tag_216:\n        /* \"#utility.yul\":8042:8236   */\n      swap3\n      swap2\n      pop\n      pop\n      jump\t// out\n        /* \"#utility.yul\":8242:8652   */\n    tag_69:\n        /* \"#utility.yul\":8282:8289   */\n      0x00\n        /* \"#utility.yul\":8305:8325   */\n      tag_219\n        /* \"#utility.yul\":8323:8324   */\n      dup3\n        /* \"#utility.yul\":8305:8325   */\n      tag_97\n      jump\t// in\n    tag_219:\n        /* \"#utility.yul\":8300:8325   */\n      swap2\n      pop\n        /* \"#utility.yul\":8339:8359   */\n      tag_220\n        /* \"#utility.yul\":8357:8358   */\n      dup4\n        /* \"#utility.yul\":8339:8359   */\n      tag_97\n      jump\t// in\n    tag_220:\n        /* \"#utility.yul\":8334:8359   */\n      swap3\n      pop\n        /* \"#utility.yul\":8394:8395   */\n      dup3\n        /* \"#utility.yul\":8391:8392   */\n      dup3\n        /* \"#utility.yul\":8387:8396   */\n      mul\n        /* \"#utility.yul\":8416:8446   */\n      tag_221\n        /* \"#utility.yul\":8434:8445   */\n      dup2\n        /* \"#utility.yul\":8416:8446   */\n      tag_97\n      jump\t// in\n    tag_221:\n        /* \"#utility.yul\":8405:8446   */\n      swap2\n      pop\n        /* \"#utility.yul\":8595:8596   */\n      dup3\n        /* \"#utility.yul\":8586:8593   */\n      dup3\n        /* \"#utility.yul\":8582:8597   */\n      div\n        /* \"#utility.yul\":8579:8580   */\n      dup5\n        /* \"#utility.yul\":8576:8598   */\n      eq\n        /* \"#utility.yul\":8556:8557   */\n      dup4\n        /* \"#utility.yul\":8549:8558   */\n      iszero\n        /* \"#utility.yul\":8529:8612   */\n      or\n        /* \"#utility.yul\":8506:8645   */\n      tag_222\n      jumpi\n        /* \"#utility.yul\":8625:8643   */\n      tag_223\n      tag_115\n      jump\t// in\n    tag_223:\n        /* \"#utility.yul\":8506:8645   */\n    tag_222:\n        /* \"#utility.yul\":8290:8652   */\n      pop\n        /* \"#utility.yul\":8242:8652   */\n      swap3\n      swap2\n      pop\n      pop\n      jump\t// out\n        /* \"#utility.yul\":8658:8838   */\n    tag_116:\n        /* \"#utility.yul\":8706:8783   */\n      0x4e487b7100000000000000000000000000000000000000000000000000000000\n        /* \"#utility.yul\":8703:8704   */\n      0x00\n        /* \"#utility.yul\":8696:8784   */\n      mstore\n        /* \"#utility.yul\":8803:8807   */\n      0x12\n        /* \"#utility.yul\":8800:8801   */\n      0x04\n        /* \"#utility.yul\":8793:8808   */\n      mstore\n        /* \"#utility.yul\":8827:8831   */\n      0x24\n        /* \"#utility.yul\":8824:8825   */\n      0x00\n        /* \"#utility.yul\":8817:8832   */\n      revert\n        /* \"#utility.yul\":8844:9029   */\n    tag_71:\n        /* \"#utility.yul\":8884:8885   */\n      0x00\n        /* \"#utility.yul\":8901:8921   */\n      tag_226\n        /* \"#utility.yul\":8919:8920   */\n      dup3\n        /* \"#utility.yul\":8901:8921   */\n      tag_97\n      jump\t// in\n    tag_226:\n        /* \"#utility.yul\":8896:8921   */\n      swap2\n      pop\n        /* \"#utility.yul\":8935:8955   */\n      tag_227\n        /* \"#utility.yul\":8953:8954   */\n      dup4\n        /* \"#utility.yul\":8935:8955   */\n      tag_97\n      jump\t// in\n    tag_227:\n        /* \"#utility.yul\":8930:8955   */\n      swap3\n      pop\n        /* \"#utility.yul\":8974:8975   */\n      dup3\n        /* \"#utility.yul\":8964:8999   */\n      tag_228\n      jumpi\n        /* \"#utility.yul\":8979:8997   */\n      tag_229\n      tag_116\n      jump\t// in\n    tag_229:\n        /* \"#utility.yul\":8964:8999   */\n    tag_228:\n        /* \"#utility.yul\":9021:9022   */\n      dup3\n        /* \"#utility.yul\":9018:9019   */\n      dup3\n        /* \"#utility.yul\":9014:9023   */\n      div\n        /* \"#utility.yul\":9009:9023   */\n      swap1\n      pop\n        /* \"#utility.yul\":8844:9029   */\n      swap3\n      swap2\n      pop\n      pop\n      jump\t// out\n        /* \"#utility.yul\":9035:9211   */\n    tag_73:\n        /* \"#utility.yul\":9067:9068   */\n      0x00\n        /* \"#utility.yul\":9084:9104   */\n      tag_231\n        /* \"#utility.yul\":9102:9103   */\n      dup3\n        /* \"#utility.yul\":9084:9104   */\n      tag_97\n      jump\t// in\n    tag_231:\n        /* \"#utility.yul\":9079:9104   */\n      swap2\n      pop\n        /* \"#utility.yul\":9118:9138   */\n      tag_232\n        /* \"#utility.yul\":9136:9137   */\n      dup4\n        /* \"#utility.yul\":9118:9138   */\n      tag_97\n      jump\t// in\n    tag_232:\n        /* \"#utility.yul\":9113:9138   */\n      swap3\n      pop\n        /* \"#utility.yul\":9157:9158   */\n      dup3\n        /* \"#utility.yul\":9147:9182   */\n      tag_233\n      jumpi\n        /* \"#utility.yul\":9162:9180   */\n      tag_234\n      tag_116\n      jump\t// in\n    tag_234:\n        /* \"#utility.yul\":9147:9182   */\n    tag_233:\n        /* \"#utility.yul\":9203:9204   */\n      dup3\n        /* \"#utility.yul\":9200:9201   */\n      dup3\n        /* \"#utility.yul\":9196:9205   */\n      mod\n        /* \"#utility.yul\":9191:9205   */\n      swap1\n      pop\n        /* \"#utility.yul\":9035:9211   */\n      swap3\n      swap2\n      pop\n      pop\n      jump\t// out\n        /* \"#utility.yul\":9217:9319   */\n    tag_117:\n        /* \"#utility.yul\":9259:9267   */\n      0x00\n        /* \"#utility.yul\":9306:9311   */\n      dup2\n        /* \"#utility.yul\":9303:9304   */\n      0x01\n        /* \"#utility.yul\":9299:9312   */\n      shr\n        /* \"#utility.yul\":9278:9312   */\n      swap1\n      pop\n        /* \"#utility.yul\":9217:9319   */\n      swap2\n      swap1\n      pop\n      jump\t// out\n        /* \"#utility.yul\":9325:10173   */\n    tag_118:\n        /* \"#utility.yul\":9386:9391   */\n      0x00\n        /* \"#utility.yul\":9393:9397   */\n      0x00\n        /* \"#utility.yul\":9417:9423   */\n      dup3\n        /* \"#utility.yul\":9408:9423   */\n      swap2\n      pop\n        /* \"#utility.yul\":9441:9446   */\n      dup4\n        /* \"#utility.yul\":9432:9446   */\n      swap1\n      pop\n        /* \"#utility.yul\":9455:10167   */\n    tag_237:\n        /* \"#utility.yul\":9476:9477   */\n      0x01\n        /* \"#utility.yul\":9466:9474   */\n      dup6\n        /* \"#utility.yul\":9463:9478   */\n      gt\n        /* \"#utility.yul\":9455:10167   */\n      iszero\n      tag_239\n      jumpi\n        /* \"#utility.yul\":9571:9575   */\n      dup1\n        /* \"#utility.yul\":9566:9569   */\n      dup7\n        /* \"#utility.yul\":9562:9576   */\n      div\n        /* \"#utility.yul\":9556:9560   */\n      dup2\n        /* \"#utility.yul\":9553:9577   */\n      gt\n        /* \"#utility.yul\":9550:9600   */\n      iszero\n      tag_240\n      jumpi\n        /* \"#utility.yul\":9580:9598   */\n      tag_241\n      tag_115\n      jump\t// in\n    tag_241:\n        /* \"#utility.yul\":9550:9600   */\n    tag_240:\n        /* \"#utility.yul\":9630:9631   */\n      0x01\n        /* \"#utility.yul\":9620:9628   */\n      dup6\n        /* \"#utility.yul\":9616:9632   */\n      and\n        /* \"#utility.yul\":9613:10064   */\n      iszero\n      tag_242\n      jumpi\n        /* \"#utility.yul\":10045:10049   */\n      dup1\n        /* \"#utility.yul\":10038:10043   */\n      dup3\n        /* \"#utility.yul\":10034:10050   */\n      mul\n        /* \"#utility.yul\":10025:10050   */\n      swap2\n      pop\n        /* \"#utility.yul\":9613:10064   */\n    tag_242:\n        /* \"#utility.yul\":10095:10099   */\n      dup1\n        /* \"#utility.yul\":10089:10093   */\n      dup2\n        /* \"#utility.yul\":10085:10100   */\n      mul\n        /* \"#utility.yul\":10077:10100   */\n      swap1\n      pop\n        /* \"#utility.yul\":10125:10157   */\n      tag_243\n        /* \"#utility.yul\":10148:10156   */\n      dup6\n        /* \"#utility.yul\":10125:10157   */\n      tag_117\n      jump\t// in\n    tag_243:\n        /* \"#utility.yul\":10113:10157   */\n      swap5\n      pop\n        /* \"#utility.yul\":9455:10167   */\n      jump(tag_237)\n    tag_239:\n        /* \"#utility.yul\":9325:10173   */\n      swap5\n      pop\n      swap5\n      swap3\n      pop\n      pop\n      pop\n      jump\t// out\n        /* \"#utility.yul\":10179:11252   */\n    tag_119:\n        /* \"#utility.yul\":10233:10238   */\n      0x00\n        /* \"#utility.yul\":10424:10432   */\n      dup3\n        /* \"#utility.yul\":10414:10454   */\n      tag_245\n      jumpi\n        /* \"#utility.yul\":10445:10446   */\n      0x01\n        /* \"#utility.yul\":10436:10446   */\n      swap1\n      pop\n        /* \"#utility.yul\":10447:10452   */\n      jump(tag_244)\n        /* \"#utility.yul\":10414:10454   */\n    tag_245:\n        /* \"#utility.yul\":10473:10477   */\n      dup2\n        /* \"#utility.yul\":10463:10499   */\n      tag_246\n      jumpi\n        /* \"#utility.yul\":10490:10491   */\n      0x00\n        /* \"#utility.yul\":10481:10491   */\n      swap1\n      pop\n        /* \"#utility.yul\":10492:10497   */\n      jump(tag_244)\n        /* \"#utility.yul\":10463:10499   */\n    tag_246:\n        /* \"#utility.yul\":10559:10563   */\n      dup2\n        /* \"#utility.yul\":10607:10608   */\n      0x01\n        /* \"#utility.yul\":10602:10629   */\n      dup2\n      eq\n      tag_248\n      jumpi\n        /* \"#utility.yul\":10643:10644   */\n      0x02\n        /* \"#utility.yul\":10638:10829   */\n      dup2\n      eq\n      tag_249\n      jumpi\n        /* \"#utility.yul\":10552:10829   */\n      jump(tag_247)\n        /* \"#utility.yul\":10602:10629   */\n    tag_248:\n        /* \"#utility.yul\":10620:10621   */\n      0x01\n        /* \"#utility.yul\":10611:10621   */\n      swap2\n      pop\n        /* \"#utility.yul\":10622:10627   */\n      pop\n      jump(tag_244)\n        /* \"#utility.yul\":10638:10829   */\n    tag_249:\n        /* \"#utility.yul\":10683:10686   */\n      0xff\n        /* \"#utility.yul\":10673:10681   */\n      dup5\n        /* \"#utility.yul\":10670:10687   */\n      gt\n        /* \"#utility.yul\":10667:10710   */\n      iszero\n      tag_250\n      jumpi\n        /* \"#utility.yul\":10690:10708   */\n      tag_251\n      tag_115\n      jump\t// in\n    tag_251:\n        /* \"#utility.yul\":10667:10710   */\n    tag_250:\n        /* \"#utility.yul\":10739:10747   */\n      dup4\n        /* \"#utility.yul\":10736:10737   */\n      0x02\n        /* \"#utility.yul\":10732:10748   */\n      exp\n        /* \"#utility.yul\":10723:10748   */\n      swap2\n      pop\n        /* \"#utility.yul\":10774:10777   */\n      dup5\n        /* \"#utility.yul\":10767:10772   */\n      dup3\n        /* \"#utility.yul\":10764:10778   */\n      gt\n        /* \"#utility.yul\":10761:10801   */\n      iszero\n      tag_252\n      jumpi\n        /* \"#utility.yul\":10781:10799   */\n      tag_253\n      tag_115\n      jump\t// in\n    tag_253:\n        /* \"#utility.yul\":10761:10801   */\n    tag_252:\n        /* \"#utility.yul\":10814:10819   */\n      pop\n      jump(tag_244)\n        /* \"#utility.yul\":10552:10829   */\n    tag_247:\n      pop\n        /* \"#utility.yul\":10938:10940   */\n      0x20\n        /* \"#utility.yul\":10928:10936   */\n      dup4\n        /* \"#utility.yul\":10925:10941   */\n      lt\n        /* \"#utility.yul\":10919:10922   */\n      0x0133\n        /* \"#utility.yul\":10913:10917   */\n      dup4\n        /* \"#utility.yul\":10910:10923   */\n      lt\n        /* \"#utility.yul\":10906:10942   */\n      and\n        /* \"#utility.yul\":10888:10890   */\n      0x4e\n        /* \"#utility.yul\":10878:10886   */\n      dup5\n        /* \"#utility.yul\":10875:10891   */\n      lt\n        /* \"#utility.yul\":10870:10872   */\n      0x0b\n        /* \"#utility.yul\":10864:10868   */\n      dup5\n        /* \"#utility.yul\":10861:10873   */\n      lt\n        /* \"#utility.yul\":10857:10892   */\n      and\n        /* \"#utility.yul\":10841:10952   */\n      or\n        /* \"#utility.yul\":10838:11084   */\n      iszero\n      tag_254\n      jumpi\n        /* \"#utility.yul\":10994:11002   */\n      dup3\n        /* \"#utility.yul\":10988:10992   */\n      dup3\n        /* \"#utility.yul\":10984:11003   */\n      exp\n        /* \"#utility.yul\":10975:11003   */\n      swap1\n      pop\n        /* \"#utility.yul\":11029:11032   */\n      dup4\n        /* \"#utility.yul\":11022:11027   */\n      dup2\n        /* \"#utility.yul\":11019:11033   */\n      gt\n        /* \"#utility.yul\":11016:11056   */\n      iszero\n      tag_255\n      jumpi\n        /* \"#utility.yul\":11036:11054   */\n      tag_256\n      tag_115\n      jump\t// in\n    tag_256:\n        /* \"#utility.yul\":11016:11056   */\n    tag_255:\n        /* \"#utility.yul\":11069:11074   */\n      jump(tag_244)\n        /* \"#utility.yul\":10838:11084   */\n    tag_254:\n        /* \"#utility.yul\":11109:11151   */\n      tag_257\n        /* \"#utility.yul\":11147:11150   */\n      dup5\n        /* \"#utility.yul\":11137:11145   */\n      dup5\n        /* \"#utility.yul\":11131:11135   */\n      dup5\n        /* \"#utility.yul\":11128:11129   */\n      0x01\n        /* \"#utility.yul\":11109:11151   */\n      tag_118\n      jump\t// in\n    tag_257:\n        /* \"#utility.yul\":11094:11151   */\n      swap3\n      pop\n      swap1\n      pop\n        /* \"#utility.yul\":11183:11187   */\n      dup2\n        /* \"#utility.yul\":11178:11181   */\n      dup5\n        /* \"#utility.yul\":11174:11188   */\n      div\n        /* \"#utility.yul\":11167:11172   */\n      dup2\n        /* \"#utility.yul\":11164:11189   */\n      gt\n        /* \"#utility.yul\":11161:11212   */\n      iszero\n      tag_258\n      jumpi\n        /* \"#utility.yul\":11192:11210   */\n      tag_259\n      tag_115\n      jump\t// in\n    tag_259:\n        /* \"#utility.yul\":11161:11212   */\n    tag_258:\n        /* \"#utility.yul\":11241:11245   */\n      dup2\n        /* \"#utility.yul\":11234:11239   */\n      dup2\n        /* \"#utility.yul\":11230:11246   */\n      mul\n        /* \"#utility.yul\":11221:11246   */\n      swap1\n      pop\n        /* \"#utility.yul\":10179:11252   */\n    tag_244:\n      swap4\n      swap3\n      pop\n      pop\n      pop\n      jump\t// out\n        /* \"#utility.yul\":11258:11543   */\n    tag_75:\n        /* \"#utility.yul\":11318:11323   */\n      0x00\n        /* \"#utility.yul\":11342:11365   */\n      tag_261\n        /* \"#utility.yul\":11360:11364   */\n      dup3\n        /* \"#utility.yul\":11342:11365   */\n      tag_97\n      jump\t// in\n    tag_261:\n        /* \"#utility.yul\":11334:11365   */\n      swap2\n      pop\n        /* \"#utility.yul\":11386:11413   */\n      tag_262\n        /* \"#utility.yul\":11404:11412   */\n      dup4\n        /* \"#utility.yul\":11386:11413   */\n      tag_97\n      jump\t// in\n    tag_262:\n        /* \"#utility.yul\":11374:11413   */\n      swap3\n      pop\n        /* \"#utility.yul\":11432:11536   */\n      tag_263\n        /* \"#utility.yul\":11469:11535   */\n      0xffffffffffffffffffffffffffffffffffffffffffffffffffffffffffffffff\n        /* \"#utility.yul\":11459:11467   */\n      dup5\n        /* \"#utility.yul\":11453:11457   */\n      dup5\n        /* \"#utility.yul\":11432:11536   */\n      tag_119\n      jump\t// in\n    tag_263:\n        /* \"#utility.yul\":11423:11536   */\n      swap1\n      pop\n        /* \"#utility.yul\":11258:11543   */\n      swap3\n      swap2\n      pop\n      pop\n      jump\t// out\n        /* \"#utility.yul\":11549:11737   */\n    tag_81:\n        /* \"#utility.yul\":11587:11590   */\n      0x00\n        /* \"#utility.yul\":11606:11624   */\n      tag_265\n        /* \"#utility.yul\":11622:11623   */\n      dup3\n        /* \"#utility.yul\":11606:11624   */\n      tag_94\n      jump\t// in\n    tag_265:\n        /* \"#utility.yul\":11601:11624   */\n      swap2\n      pop\n        /* \"#utility.yul\":11638:11656   */\n      tag_266\n        /* \"#utility.yul\":11654:11655   */\n      dup4\n        /* \"#utility.yul\":11638:11656   */\n      tag_94\n      jump\t// in\n    tag_266:\n        /* \"#utility.yul\":11633:11656   */\n      swap3\n      pop\n        /* \"#utility.yul\":11679:11680   */\n      dup3\n        /* \"#utility.yul\":11676:11677   */\n      dup3\n        /* \"#utility.yul\":11672:11681   */\n      add\n        /* \"#utility.yul\":11665:11681   */\n      swap1\n      pop\n        /* \"#utility.yul\":11702:11706   */\n      0xff\n        /* \"#utility.yul\":11697:11700   */\n      dup2\n        /* \"#utility.yul\":11694:11707   */\n      gt\n        /* \"#utility.yul\":11691:11730   */\n      iszero\n      tag_267\n      jumpi\n        /* \"#utility.yul\":11710:11728   */\n      tag_268\n      tag_115\n      jump\t// in\n    tag_268:\n        /* \"#utility.yul\":11691:11730   */\n    tag_267:\n        /* \"#utility.yul\":11549:11737   */\n      swap3\n      swap2\n      pop\n      pop\n      jump\t// out\n        /* \"#utility.yul\":11743:11934   */\n    tag_84:\n        /* \"#utility.yul\":11781:11785   */\n      0x00\n        /* \"#utility.yul\":11801:11819   */\n      tag_270\n        /* \"#utility.yul\":11817:11818   */\n      dup3\n        /* \"#utility.yul\":11801:11819   */\n      tag_94\n      jump\t// in\n    tag_270:\n        /* \"#utility.yul\":11796:11819   */\n      swap2\n      pop\n        /* \"#utility.yul\":11833:11851   */\n      tag_271\n        /* \"#utility.yul\":11849:11850   */\n      dup4\n        /* \"#utility.yul\":11833:11851   */\n      tag_94\n      jump\t// in\n    tag_271:\n        /* \"#utility.yul\":11828:11851   */\n      swap3\n      pop\n        /* \"#utility.yul\":11875:11876   */\n      dup3\n        /* \"#utility.yul\":11872:11873   */\n      dup3\n        /* \"#utility.yul\":11868:11877   */\n      sub\n        /* \"#utility.yul\":11860:11877   */\n      swap1\n      pop\n        /* \"#utility.yul\":11899:11903   */\n      0xff\n        /* \"#utility.yul\":11893:11897   */\n      dup2\n        /* \"#utility.yul\":11890:11904   */\n      gt\n        /* \"#utility.yul\":11887:11927   */\n      iszero\n      tag_272\n      jumpi\n        /* \"#utility.yul\":11907:11925   */\n      tag_273\n      tag_115\n      jump\t// in\n    tag_273:\n        /* \"#utility.yul\":11887:11927   */\n    tag_272:\n        /* \"#utility.yul\":11743:11934   */\n      swap3\n      swap2\n      pop\n      pop\n      jump\t// out\n\n    auxdata: 0xa26469706673582212207c3db91f0cb3fefc433d96ed5188df13768fa7e5aa96298520ad89b6e5bdf79964736f6c634300081e0033\n}\n",
				"bytecode": {
					"linkReferences": {},
					"object": "6080604052348015600e575f5ffd5b50610b998061001c5f395ff3fe608060405234801561000f575f5ffd5b506004361061009c575f3560e01c806366d162d21161006457806366d162d2146101645780637f3f6a73146101945780638040cac4146101b2578063911608b3146101d057806391515d8f146101f15761009c565b8063056ae323146100a05780631e2aea06146100d05780633129daba146101005780633205f5fc146101235780633da0ac7914610141575b5f5ffd5b6100ba60048036038101906100b5919061047c565b61020f565b6040516100c791906104bf565b60405180910390f35b6100ea60048036038101906100e59190610652565b61021e565b6040516100f791906104bf565b60405180910390f35b610108610270565b60405161011a96959493929190610699565b60405180910390f35b61012b6102de565b60405161013891906104bf565b60405180910390f35b6101496102fc565b60405161015b96959493929190610712565b60405180910390f35b61017e6004803603810190610179919061047c565b610337565b60405161018b91906104bf565b60405180910390f35b61019c61034f565b6040516101a99190610780565b60405180910390f35b6101ba610367565b6040516101c79190610780565b60405180910390f35b6101d8610380565b6040516101e894939291906107b1565b60405180910390f35b6101f961040a565b60405161020691906104bf565b60405180910390f35b5f6001820160ff169050919050565b5f5f5f90505f5f90505b835181101561026657838181518110610244576102436107f4565b5b602002602001015182610257919061084e565b91508080600101915050610228565b5080915050919050565b5f5f5f5f5f5f5f600a90505f60039050808261028c919061084e565b81836102989190610881565b82846102a491906108b4565b83856102b09190610922565b84866102bc9190610952565b85876102c89190610ab1565b9750975097509750975097505050909192939495565b5f5f600a90505f6003905080826102f59190610922565b9250505090565b5f5f5f5f5f5f5f600a90505f600590508082148183141582841183851084861015858711159750975097509750975097505050909192939495565b5f6001826103459190610afb565b60ff169050919050565b5f5f5f90506001816103619190610b2f565b91505090565b5f5f60ff905060018161037a9190610afb565b91505090565b5f5f5f5f5f7f800000000000000000000000000000000000000000000000000000000000000090505f7f7fffffffffffffffffffffffffffffffffffffffffffffffffffffffffffffff90505f5f90505f7f7fffffffffffffffffffffffffffffffffffffffffffffffffffffffffffffff90508383838397509750975097505050505090919293565b5f5f600a90505f60039050806103e88361042491906108b4565b61042e9190610922565b9250505090565b5f604051905090565b5f5ffd5b5f5ffd5b5f60ff82169050919050565b61045b81610446565b8114610465575f5ffd5b50565b5f8135905061047681610452565b92915050565b5f602082840312156104915761049061043e565b5b5f61049e84828501610468565b91505092915050565b5f819050919050565b6104b9816104a7565b82525050565b5f6020820190506104d25f8301846104b0565b92915050565b5f5ffd5b5f601f19601f8301169050919050565b7f4e487b71000000000000000000000000000000000000000000000000000000005f52604160045260245ffd5b610522826104dc565b810181811067ffffffffffffffff82111715610541576105406104ec565b5b80604052505050565b5f610553610435565b905061055f8282610519565b919050565b5f67ffffffffffffffff82111561057e5761057d6104ec565b5b602082029050602081019050919050565b5f5ffd5b61059c816104a7565b81146105a6575f5ffd5b50565b5f813590506105b781610593565b92915050565b5f6105cf6105ca84610564565b61054a565b905080838252602082019050602084028301858111156105f2576105f161058f565b5b835b8181101561061b578061060788826105a9565b8452602084019350506020810190506105f4565b5050509392505050565b5f82601f830112610639576106386104d8565b5b81356106498482602086016105bd565b91505092915050565b5f602082840312156106675761066661043e565b5b5f82013567ffffffffffffffff81111561068457610683610442565b5b61069084828501610625565b91505092915050565b5f60c0820190506106ac5f8301896104b0565b6106b960208301886104b0565b6106c660408301876104b0565b6106d360608301866104b0565b6106e060808301856104b0565b6106ed60a08301846104b0565b979650505050505050565b5f8115159050919050565b61070c816106f8565b82525050565b5f60c0820190506107255f830189610703565b6107326020830188610703565b61073f6040830187610703565b61074c6060830186610703565b6107596080830185610703565b61076660a0830184610703565b979650505050505050565b61077a81610446565b82525050565b5f6020820190506107935f830184610771565b92915050565b5f819050919050565b6107ab81610799565b82525050565b5f6080820190506107c45f8301876107a2565b6107d160208301866107a2565b6107de60408301856104b0565b6107eb60608301846104b0565b95945050505050565b7f4e487b71000000000000000000000000000000000000000000000000000000005f52603260045260245ffd5b7f4e487b71000000000000000000000000000000000000000000000000000000005f52601160045260245ffd5b5f610858826104a7565b9150610863836104a7565b925082820190508082111561087b5761087a610821565b5b92915050565b5f61088b826104a7565b9150610896836104a7565b92508282039050818111156108ae576108ad610821565b5b92915050565b5f6108be826104a7565b91506108c9836104a7565b92508282026108d7816104a7565b915082820484148315176108ee576108ed610821565b5b5092915050565b7f4e487b71000000000000000000000000000000000000000000000000000000005f52601260045260245ffd5b5f61092c826104a7565b9150610937836104a7565b925082610947576109466108f5565b5b828204905092915050565b5f61095c826104a7565b9150610967836104a7565b925082610977576109766108f5565b5b828206905092915050565b5f8160011c9050919050565b5f5f8291508390505b60018511156109d7578086048111156109b3576109b2610821565b5b60018516156109c25780820291505b80810290506109d085610982565b9450610997565b94509492505050565b5f826109ef5760019050610aaa565b816109fc575f9050610aaa565b8160018114610a125760028114610a1c57610a4b565b6001915050610aaa565b60ff841115610a2e57610a2d610821565b5b8360020a915084821115610a4557610a44610821565b5b50610aaa565b5060208310610133831016604e8410600b8410161715610a805782820a905083811115610a7b57610a7a610821565b5b610aaa565b610a8d848484600161098e565b92509050818404811115610aa457610aa3610821565b5b81810290505b9392505050565b5f610abb826104a7565b9150610ac6836104a7565b9250610af37fffffffffffffffffffffffffffffffffffffffffffffffffffffffffffffffff84846109e0565b905092915050565b5f610b0582610446565b9150610b1083610446565b9250828201905060ff811115610b2957610b28610821565b5b92915050565b5f610b3982610446565b9150610b4483610446565b9250828203905060ff811115610b5d57610b5c610821565b5b9291505056fea26469706673582212207c3db91f0cb3fefc433d96ed5188df13768fa7e5aa96298520ad89b6e5bdf79964736f6c634300081e0033",
					"opcodes": "PUSH1 0x80 PUSH1 0x40 MSTORE CALLVALUE DUP1 ISZERO PUSH1 0xE JUMPI PUSH0 PUSH0 REVERT JUMPDEST POP PUSH2 0xB99 DUP1 PUSH2 0x1C PUSH0 CODECOPY PUSH0 RETURN INVALID PUSH1 0x80 PUSH1 0x40 MSTORE CALLVALUE DUP1 ISZERO PUSH2 0xF JUMPI PUSH0 PUSH0 REVERT JUMPDEST POP PUSH1 0x4 CALLDATASIZE LT PUSH2 0x9C JUMPI PUSH0 CALLDATALOAD PUSH1 0xE0 SHR DUP1 PUSH4 0x66D162D2 GT PUSH2 0x64 JUMPI DUP1 PUSH4 0x66D162D2 EQ PUSH2 0x164 JUMPI DUP1 PUSH4 0x7F3F6A73 EQ PUSH2 0x194 JUMPI DUP1 PUSH4 0x8040CAC4 EQ PUSH2 0x1B2 JUMPI DUP1 PUSH4 0x911608B3 EQ PUSH2 0x1D0 JUMPI DUP1 PUSH4 0x91515D8F EQ PUSH2 0x1F1 JUMPI PUSH2 0x9C JUMP JUMPDEST DUP1 PUSH4 0x56AE323 EQ PUSH2 0xA0 JUMPI DUP1 PUSH4 0x1E2AEA06 EQ PUSH2 0xD0 JUMPI DUP1 PUSH4 0x3129DABA EQ PUSH2 0x100 JUMPI DUP1 PUSH4 0x3205F5FC EQ PUSH2 0x123 JUMPI DUP1 PUSH4 0x3DA0AC79 EQ PUSH2 0x141 JUMPI JUMPDEST PUSH0 PUSH0 REVERT JUMPDEST PUSH2 0xBA PUSH1 0x4 DUP1 CALLDATASIZE SUB DUP2 ADD SWAP1 PUSH2 0xB5 SWAP2 SWAP1 PUSH2 0x47C JUMP JUMPDEST PUSH2 0x20F JUMP JUMPDEST PUSH1 0x40 MLOAD PUSH2 0xC7 SWAP2 SWAP1 PUSH2 0x4BF JUMP JUMPDEST PUSH1 0x40 MLOAD DUP1 SWAP2 SUB SWAP1 RETURN JUMPDEST PUSH2 0xEA PUSH1 0x4 DUP1 CALLDATASIZE SUB DUP2 ADD SWAP1 PUSH2 0xE5 SWAP2 SWAP1 PUSH2 0x652 JUMP JUMPDEST PUSH2 0x21E JUMP JUMPDEST PUSH1 0x40 MLOAD PUSH2 0xF7 SWAP2 SWAP1 PUSH2 0x4BF JUMP JUMPDEST PUSH1 0x40 MLOAD DUP1 SWAP2 SUB SWAP1 RETURN JUMPDEST PUSH2 0x108 PUSH2 0x270 JUMP JUMPDEST PUSH1 0x40 MLOAD PUSH2 0x11A SWAP7 SWAP6 SWAP5 SWAP4 SWAP3 SWAP2 SWAP1 PUSH2 0x699 JUMP JUMPDEST PUSH1 0x40 MLOAD DUP1 SWAP2 SUB SWAP1 RETURN JUMPDEST PUSH2 0x12B PUSH2 0x2DE JUMP JUMPDEST PUSH1 0x40 MLOAD PUSH2 0x138 SWAP2 SWAP1 PUSH2 0x4BF JUMP JUMPDEST PUSH1 0x40 MLOAD DUP1 SWAP2 SUB SWAP1 RETURN JUMPDEST PUSH2 0x149 PUSH2 0x2FC JUMP JUMPDEST PUSH1 0x40 MLOAD PUSH2 0x15B SWAP7 SWAP6 SWAP5 SWAP4 SWAP3 SWAP2 SWAP1 PUSH2 0x712 JUMP JUMPDEST PUSH1 0x40 MLOAD DUP1 SWAP2 SUB SWAP1 RETURN JUMPDEST PUSH2 0x17E PUSH1 0x4 DUP1 CALLDATASIZE SUB DUP2 ADD SWAP1 PUSH2 0x179 SWAP2 SWAP1 PUSH2 0x47C JUMP JUMPDEST PUSH2 0x337 JUMP JUMPDEST PUSH1 0x40 MLOAD PUSH2 0x18B SWAP2 SWAP1 PUSH2 0x4BF JUMP JUMPDEST PUSH1 0x40 MLOAD DUP1 SWAP2 SUB SWAP1 RETURN JUMPDEST PUSH2 0x19C PUSH2 0x34F JUMP JUMPDEST PUSH1 0x40 MLOAD PUSH2 0x1A9 SWAP2 SWAP1 PUSH2 0x780 JUMP JUMPDEST PUSH1 0x40 MLOAD DUP1 SWAP2 SUB SWAP1 RETURN JUMPDEST PUSH2 0x1BA PUSH2 0x367 JUMP JUMPDEST PUSH1 0x40 MLOAD PUSH2 0x1C7 SWAP2 SWAP1 PUSH2 0x780 JUMP JUMPDEST PUSH1 0x40 MLOAD DUP1 SWAP2 SUB SWAP1 RETURN JUMPDEST PUSH2 0x1D8 PUSH2 0x380 JUMP JUMPDEST PUSH1 0x40 MLOAD PUSH2 0x1E8 SWAP5 SWAP4 SWAP3 SWAP2 SWAP1 PUSH2 0x7B1 JUMP JUMPDEST PUSH1 0x40 MLOAD DUP1 SWAP2 SUB SWAP1 RETURN JUMPDEST PUSH2 0x1F9 PUSH2 0x40A JUMP JUMPDEST PUSH1 0x40 MLOAD PUSH2 0x206 SWAP2 SWAP1 PUSH2 0x4BF JUMP JUMPDEST PUSH1 0x40 MLOAD DUP1 SWAP2 SUB SWAP1 RETURN JUMPDEST PUSH0 PUSH1 0x1 DUP3 ADD PUSH1 0xFF AND SWAP1 POP SWAP2 SWAP1 POP JUMP JUMPDEST PUSH0 PUSH0 PUSH0 SWAP1 POP PUSH0 PUSH0 SWAP1 POP JUMPDEST DUP4 MLOAD DUP2 LT ISZERO PUSH2 0x266 JUMPI DUP4 DUP2 DUP2 MLOAD DUP2 LT PUSH2 0x244 JUMPI PUSH2 0x243 PUSH2 0x7F4 JUMP JUMPDEST JUMPDEST PUSH1 0x20 MUL PUSH1 0x20 ADD ADD MLOAD DUP3 PUSH2 0x257 SWAP2 SWAP1 PUSH2 0x84E JUMP JUMPDEST SWAP2 POP DUP1 DUP1 PUSH1 0x1 ADD SWAP2 POP POP PUSH2 0x228 JUMP JUMPDEST POP DUP1 SWAP2 POP POP SWAP2 SWAP1 POP JUMP JUMPDEST PUSH0 PUSH0 PUSH0 PUSH0 PUSH0 PUSH0 PUSH0 PUSH1 0xA SWAP1 POP PUSH0 PUSH1 0x3 SWAP1 POP DUP1 DUP3 PUSH2 0x28C SWAP2 SWAP1 PUSH2 0x84E JUMP JUMPDEST DUP2 DUP4 PUSH2 0x298 SWAP2 SWAP1 PUSH2 0x881 JUMP JUMPDEST DUP3 DUP5 PUSH2 0x2A4 SWAP2 SWAP1 PUSH2 0x8B4 JUMP JUMPDEST DUP4 DUP6 PUSH2 0x2B0 SWAP2 SWAP1 PUSH2 0x922 JUMP JUMPDEST DUP5 DUP7 PUSH2 0x2BC SWAP2 SWAP1 PUSH2 0x952 JUMP JUMPDEST DUP6 DUP8 PUSH2 0x2C8 SWAP2 SWAP1 PUSH2 0xAB1 JUMP JUMPDEST SWAP8 POP SWAP8 POP SWAP8 POP SWAP8 POP SWAP8 POP SWAP8 POP POP POP SWAP1 SWAP2 SWAP3 SWAP4 SWAP5 SWAP6 JUMP JUMPDEST PUSH0 PUSH0 PUSH1 0xA SWAP1 POP PUSH0 PUSH1 0x3 SWAP1 POP DUP1 DUP3 PUSH2 0x2F5 SWAP2 SWAP1 PUSH2 0x922 JUMP JUMPDEST SWAP3 POP POP POP SWAP1 JUMP JUMPDEST PUSH0 PUSH0 PUSH0 PUSH0 PUSH0 PUSH0 PUSH0 PUSH1 0xA SWAP1 POP PUSH0 PUSH1 0x5 SWAP1 POP DUP1 DUP3 EQ DUP2 DUP4 EQ ISZERO DUP3 DUP5 GT DUP4 DUP6 LT DUP5 DUP7 LT ISZERO DUP6 DUP8 GT ISZERO SWAP8 POP SWAP8 POP SWAP8 POP SWAP8 POP SWAP8 POP SWAP8 POP POP POP SWAP1 SWAP2 SWAP3 SWAP4 SWAP5 SWAP6 JUMP JUMPDEST PUSH0 PUSH1 0x1 DUP3 PUSH2 0x345 SWAP2 SWAP1 PUSH2 0xAFB JUMP JUMPDEST PUSH1 0xFF AND SWAP1 POP SWAP2 SWAP1 POP JUMP JUMPDEST PUSH0 PUSH0 PUSH0 SWAP1 POP PUSH1 0x1 DUP2 PUSH2 0x361 SWAP2 SWAP1 PUSH2 0xB2F JUMP JUMPDEST SWAP2 POP POP SWAP1 JUMP JUMPDEST PUSH0 PUSH0 PUSH1 0xFF SWAP1 POP PUSH1 0x1 DUP2 PUSH2 0x37A SWAP2 SWAP1 PUSH2 0xAFB JUMP JUMPDEST SWAP2 POP POP SWAP1 JUMP JUMPDEST PUSH0 PUSH0 PUSH0 PUSH0 PUSH0 PUSH32 0x8000000000000000000000000000000000000000000000000000000000000000 SWAP1 POP PUSH0 PUSH32 0x7FFFFFFFFFFFFFFFFFFFFFFFFFFFFFFFFFFFFFFFFFFFFFFFFFFFFFFFFFFFFFFF SWAP1 POP PUSH0 PUSH0 SWAP1 POP PUSH0 PUSH32 0x7FFFFFFFFFFFFFFFFFFFFFFFFFFFFFFFFFFFFFFFFFFFFFFFFFFFFFFFFFFFFFFF SWAP1 POP DUP4 DUP4 DUP4 DUP4 SWAP8 POP SWAP8 POP SWAP8 POP SWAP8 POP POP POP POP POP SWAP1 SWAP2 SWAP3 SWAP4 JUMP JUMPDEST PUSH0 PUSH0 PUSH1 0xA SWAP1 POP PUSH0 PUSH1 0x3 SWAP1 POP DUP1 PUSH2 0x3E8 DUP4 PUSH2 0x424 SWAP2 SWAP1 PUSH2 0x8B4 JUMP JUMPDEST PUSH2 0x42E SWAP2 SWAP1 PUSH2 0x922 JUMP JUMPDEST SWAP3 POP POP POP SWAP1 JUMP JUMPDEST PUSH0 PUSH1 0x40 MLOAD SWAP1 POP SWAP1 JUMP JUMPDEST PUSH0 PUSH0 REVERT JUMPDEST PUSH0 PUSH0 REVERT JUMPDEST PUSH0 PUSH1 0xFF DUP3 AND SWAP1 POP SWAP2 SWAP1 POP JUMP JUMPDEST PUSH2 0x45B DUP2 PUSH2 0x446 JUMP JUMPDEST DUP2 EQ PUSH2 0x465 JUMPI PUSH0 PUSH0 REVERT JUMPDEST POP JUMP JUMPDEST PUSH0 DUP2 CALLDATALOAD SWAP1 POP PUSH2 0x476 DUP2 PUSH2 0x452 JUMP JUMPDEST SWAP3 SWAP2 POP POP JUMP JUMPDEST PUSH0 PUSH1 0x20 DUP3 DUP5 SUB SLT ISZERO PUSH2 0x491 JUMPI PUSH2 0x490 PUSH2 0x43E JUMP JUMPDEST JUMPDEST PUSH0 PUSH2 0x49E DUP5 DUP3 DUP6 ADD PUSH2 0x468 JUMP JUMPDEST SWAP2 POP POP SWAP3 SWAP2 POP POP JUMP JUMPDEST PUSH0 DUP2 SWAP1 POP SWAP2 SWAP1 POP JUMP JUMPDEST PUSH2 0x4B9 DUP2 PUSH2 0x4A7 JUMP JUMPDEST DUP3 MSTORE POP POP JUMP JUMPDEST PUSH0 PUSH1 0x20 DUP3 ADD SWAP1 POP PUSH2 0x4D2 PUSH0 DUP4 ADD DUP5 PUSH2 0x4B0 JUMP JUMPDEST SWAP3 SWAP2 POP POP JUMP JUMPDEST PUSH0 PUSH0 REVERT JUMPDEST PUSH0 PUSH1 0x1F NOT PUSH1 0x1F DUP4 ADD AND SWAP1 POP SWAP2 SWAP1 POP JUMP JUMPDEST PUSH32 0x4E487B7100000000000000000000000000000000000000000000000000000000 PUSH0 MSTORE PUSH1 0x41 PUSH1 0x4 MSTORE PUSH1 0x24 PUSH0 REVERT JUMPDEST PUSH2 0x522 DUP3 PUSH2 0x4DC JUMP JUMPDEST DUP2 ADD DUP2 DUP2 LT PUSH8 0xFFFFFFFFFFFFFFFF DUP3 GT OR ISZERO PUSH2 0x541 JUMPI PUSH2 0x540 PUSH2 0x4EC JUMP JUMPDEST JUMPDEST DUP1 PUSH1 0x40 MSTORE POP POP POP JUMP JUMPDEST PUSH0 PUSH2 0x553 PUSH2 0x435 JUMP JUMPDEST SWAP1 POP PUSH2 0x55F DUP3 DUP3 PUSH2 0x519 JUMP JUMPDEST SWAP2 SWAP1 POP JUMP JUMPDEST PUSH0 PUSH8 0xFFFFFFFFFFFFFFFF DUP3 GT ISZERO PUSH2 0x57E JUMPI PUSH2 0x57D PUSH2 0x4EC JUMP JUMPDEST JUMPDEST PUSH1 0x20 DUP3 MUL SWAP1 POP PUSH1 0x20 DUP2 ADD SWAP1 POP SWAP2 SWAP1 POP JUMP JUMPDEST PUSH0 PUSH0 REVERT JUMPDEST PUSH2 0x59C DUP2 PUSH2 0x4A7 JUMP JUMPDEST DUP2 EQ PUSH2 0x5A6 JUMPI PUSH0 PUSH0 REVERT JUMPDEST POP JUMP JUMPDEST PUSH0 DUP2 CALLDATALOAD SWAP1 POP PUSH2 0x5B7 DUP2 PUSH2 0x593 JUMP JUMPDEST SWAP3 SWAP2 POP POP JUMP JUMPDEST PUSH0 PUSH2 0x5CF PUSH2 0x5CA DUP5 PUSH2 0x564 JUMP JUMPDEST PUSH2 0x54A JUMP JUMPDEST SWAP1 POP DUP1 DUP4 DUP3 MSTORE PUSH1 0x20 DUP3 ADD SWAP1 POP PUSH1 0x20 DUP5 MUL DUP4 ADD DUP6 DUP2 GT ISZERO PUSH2 0x5F2 JUMPI PUSH2 0x5F1 PUSH2 0x58F JUMP JUMPDEST JUMPDEST DUP4 JUMPDEST DUP2 DUP2 LT ISZERO PUSH2 0x61B JUMPI DUP1 PUSH2 0x607 DUP9 DUP3 PUSH2 0x5A9 JUMP JUMPDEST DUP5 MSTORE PUSH1 0x20 DUP5 ADD SWAP4 POP POP PUSH1 0x20 DUP2 ADD SWAP1 POP PUSH2 0x5F4 JUMP JUMPDEST POP POP POP SWAP4 SWAP3 POP POP POP JUMP JUMPDEST PUSH0 DUP3 PUSH1 0x1F DUP4 ADD SLT PUSH2 0x639 JUMPI PUSH2 0x638 PUSH2 0x4D8 JUMP JUMPDEST JUMPDEST DUP2 CALLDATALOAD PUSH2 0x649 DUP5 DUP3 PUSH1 0x20 DUP7 ADD PUSH2 0x5BD JUMP JUMPDEST SWAP2 POP POP SWAP3 SWAP2 POP POP JUMP JUMPDEST PUSH0 PUSH1 0x20 DUP3 DUP5 SUB SLT ISZERO PUSH2 0x667 JUMPI PUSH2 0x666 PUSH2 0x43E JUMP JUMPDEST JUMPDEST PUSH0 DUP3 ADD CALLDATALOAD PUSH8 0xFFFFFFFFFFFFFFFF DUP2 GT ISZERO PUSH2 0x684 JUMPI PUSH2 0x683 PUSH2 0x442 JUMP JUMPDEST JUMPDEST PUSH2 0x690 DUP5 DUP3 DUP6 ADD PUSH2 0x625 JUMP JUMPDEST SWAP2 POP POP SWAP3 SWAP2 POP POP JUMP JUMPDEST PUSH0 PUSH1 0xC0 DUP3 ADD SWAP1 POP PUSH2 0x6AC PUSH0 DUP4 ADD DUP10 PUSH2 0x4B0 JUMP JUMPDEST PUSH2 0x6B9 PUSH1 0x20 DUP4 ADD DUP9 PUSH2 0x4B0 JUMP JUMPDEST PUSH2 0x6C6 PUSH1 0x40 DUP4 ADD DUP8 PUSH2 0x4B0 JUMP JUMPDEST PUSH2 0x6D3 PUSH1 0x60 DUP4 ADD DUP7 PUSH2 0x4B0 JUMP JUMPDEST PUSH2 0x6E0 PUSH1 0x80 DUP4 ADD DUP6 PUSH2 0x4B0 JUMP JUMPDEST PUSH2 0x6ED PUSH1 0xA0 DUP4 ADD DUP5 PUSH2 0x4B0 JUMP JUMPDEST SWAP8 SWAP7 POP POP POP POP POP POP POP JUMP JUMPDEST PUSH0 DUP2 ISZERO ISZERO SWAP1 POP SWAP2 SWAP1 POP JUMP JUMPDEST PUSH2 0x70C DUP2 PUSH2 0x6F8 JUMP JUMPDEST DUP3 MSTORE POP POP JUMP JUMPDEST PUSH0 PUSH1 0xC0 DUP3 ADD SWAP1 POP PUSH2 0x725 PUSH0 DUP4 ADD DUP10 PUSH2 0x703 JUMP JUMPDEST PUSH2 0x732 PUSH1 0x20 DUP4 ADD DUP9 PUSH2 0x703 JUMP JUMPDEST PUSH2 0x73F PUSH1 0x40 DUP4 ADD DUP8 PUSH2 0x703 JUMP JUMPDEST PUSH2 0x74C PUSH1 0x60 DUP4 ADD DUP7 PUSH2 0x703 JUMP JUMPDEST PUSH2 0x759 PUSH1 0x80 DUP4 ADD DUP6 PUSH2 0x703 JUMP JUMPDEST PUSH2 0x766 PUSH1 0xA0 DUP4 ADD DUP5 PUSH2 0x703 JUMP JUMPDEST SWAP8 SWAP7 POP POP POP POP POP POP POP JUMP JUMPDEST PUSH2 0x77A DUP2 PUSH2 0x446 JUMP JUMPDEST DUP3 MSTORE POP POP JUMP JUMPDEST PUSH0 PUSH1 0x20 DUP3 ADD SWAP1 POP PUSH2 0x793 PUSH0 DUP4 ADD DUP5 PUSH2 0x771 JUMP JUMPDEST SWAP3 SWAP2 POP POP JUMP JUMPDEST PUSH0 DUP2 SWAP1 POP SWAP2 SWAP1 POP JUMP JUMPDEST PUSH2 0x7AB DUP2 PUSH2 0x799 JUMP JUMPDEST DUP3 MSTORE POP POP JUMP JUMPDEST PUSH0 PUSH1 0x80 DUP3 ADD SWAP1 POP PUSH2 0x7C4 PUSH0 DUP4 ADD DUP8 PUSH2 0x7A2 JUMP JUMPDEST PUSH2 0x7D1 PUSH1 0x20 DUP4 ADD DUP7 PUSH2 0x7A2 JUMP JUMPDEST PUSH2 0x7DE PUSH1 0x40 DUP4 ADD DUP6 PUSH2 0x4B0 JUMP JUMPDEST PUSH2 0x7EB PUSH1 0x60 DUP4 ADD DUP5 PUSH2 0x4B0 JUMP JUMPDEST SWAP6 SWAP5 POP POP POP POP POP JUMP JUMPDEST PUSH32 0x4E487B7100000000000000000000000000000000000000000000000000000000 PUSH0 MSTORE PUSH1 0x32 PUSH1 0x4 MSTORE PUSH1 0x24 PUSH0 REVERT JUMPDEST PUSH32 0x4E487B7100000000000000000000000000000000000000000000000000000000 PUSH0 MSTORE PUSH1 0x11 PUSH1 0x4 MSTORE PUSH1 0x24 PUSH0 REVERT JUMPDEST PUSH0 PUSH2 0x858 DUP3 PUSH2 0x4A7 JUMP JUMPDEST SWAP2 POP PUSH2 0x863 DUP4 PUSH2 0x4A7 JUMP JUMPDEST SWAP3 POP DUP3 DUP3 ADD SWAP1 POP DUP1 DUP3 GT ISZERO PUSH2 0x87B JUMPI PUSH2 0x87A PUSH2 0x821 JUMP JUMPDEST JUMPDEST SWAP3 SWAP2 POP POP JUMP JUMPDEST PUSH0 PUSH2 0x88B DUP3 PUSH2 0x4A7 JUMP JUMPDEST SWAP2 POP PUSH2 0x896 DUP4 PUSH2 0x4A7 JUMP JUMPDEST SWAP3 POP DUP3 DUP3 SUB SWAP1 POP DUP2 DUP2 GT ISZERO PUSH2 0x8AE JUMPI PUSH2 0x8AD PUSH2 0x821 JUMP JUMPDEST JUMPDEST SWAP3 SWAP2 POP POP JUMP JUMPDEST PUSH0 PUSH2 0x8BE DUP3 PUSH2 0x4A7 JUMP JUMPDEST SWAP2 POP PUSH2 0x8C9 DUP4 PUSH2 0x4A7 JUMP JUMPDEST SWAP3 POP DUP3 DUP3 MUL PUSH2 0x8D7 DUP2 PUSH2 0x4A7 JUMP JUMPDEST SWAP2 POP DUP3 DUP3 DIV DUP5 EQ DUP4 ISZERO OR PUSH2 0x8EE JUMPI PUSH2 0x8ED PUSH2 0x821 JUMP JUMPDEST JUMPDEST POP SWAP3 SWAP2 POP POP JUMP JUMPDEST PUSH32 0x4E487B7100000000000000000000000000000000000000000000000000000000 PUSH0 MSTORE PUSH1 0x12 PUSH1 0x4 MSTORE PUSH1 0x24 PUSH0 REVERT JUMPDEST PUSH0 PUSH2 0x92C DUP3 PUSH2 0x4A7 JUMP JUMPDEST SWAP2 POP PUSH2 0x937 DUP4 PUSH2 0x4A7 JUMP JUMPDEST SWAP3 POP DUP3 PUSH2 0x947 JUMPI PUSH2 0x946 PUSH2 0x8F5 JUMP JUMPDEST JUMPDEST DUP3 DUP3 DIV SWAP1 POP SWAP3 SWAP2 POP POP JUMP JUMPDEST PUSH0 PUSH2 0x95C DUP3 PUSH2 0x4A7 JUMP JUMPDEST SWAP2 POP PUSH2 0x967 DUP4 PUSH2 0x4A7 JUMP JUMPDEST SWAP3 POP DUP3 PUSH2 0x977 JUMPI PUSH2 0x976 PUSH2 0x8F5 JUMP JUMPDEST JUMPDEST DUP3 DUP3 MOD SWAP1 POP SWAP3 SWAP2 POP POP JUMP JUMPDEST PUSH0 DUP2 PUSH1 0x1 SHR SWAP1 POP SWAP2 SWAP1 POP JUMP JUMPDEST PUSH0 PUSH0 DUP3 SWAP2 POP DUP4 SWAP1 POP JUMPDEST PUSH1 0x1 DUP6 GT ISZERO PUSH2 0x9D7 JUMPI DUP1 DUP7 DIV DUP2 GT ISZERO PUSH2 0x9B3 JUMPI PUSH2 0x9B2 PUSH2 0x821 JUMP JUMPDEST JUMPDEST PUSH1 0x1 DUP6 AND ISZERO PUSH2 0x9C2 JUMPI DUP1 DUP3 MUL SWAP2 POP JUMPDEST DUP1 DUP2 MUL SWAP1 POP PUSH2 0x9D0 DUP6 PUSH2 0x982 JUMP JUMPDEST SWAP5 POP PUSH2 0x997 JUMP JUMPDEST SWAP5 POP SWAP5 SWAP3 POP POP POP JUMP JUMPDEST PUSH0 DUP3 PUSH2 0x9EF JUMPI PUSH1 0x1 SWAP1 POP PUSH2 0xAAA JUMP JUMPDEST DUP2 PUSH2 0x9FC JUMPI PUSH0 SWAP1 POP PUSH2 0xAAA JUMP JUMPDEST DUP2 PUSH1 0x1 DUP2 EQ PUSH2 0xA12 JUMPI PUSH1 0x2 DUP2 EQ PUSH2 0xA1C JUMPI PUSH2 0xA4B JUMP JUMPDEST PUSH1 0x1 SWAP2 POP POP PUSH2 0xAAA JUMP JUMPDEST PUSH1 0xFF DUP5 GT ISZERO PUSH2 0xA2E JUMPI PUSH2 0xA2D PUSH2 0x821 JUMP JUMPDEST JUMPDEST DUP4 PUSH1 0x2 EXP SWAP2 POP DUP5 DUP3 GT ISZERO PUSH2 0xA45 JUMPI PUSH2 0xA44 PUSH2 0x821 JUMP JUMPDEST JUMPDEST POP PUSH2 0xAAA JUMP JUMPDEST POP PUSH1 0x20 DUP4 LT PUSH2 0x133 DUP4 LT AND PUSH1 0x4E DUP5 LT PUSH1 0xB DUP5 LT AND OR ISZERO PUSH2 0xA80 JUMPI DUP3 DUP3 EXP SWAP1 POP DUP4 DUP2 GT ISZERO PUSH2 0xA7B JUMPI PUSH2 0xA7A PUSH2 0x821 JUMP JUMPDEST JUMPDEST PUSH2 0xAAA JUMP JUMPDEST PUSH2 0xA8D DUP5 DUP5 DUP5 PUSH1 0x1 PUSH2 0x98E JUMP JUMPDEST SWAP3 POP SWAP1 POP DUP2 DUP5 DIV DUP2 GT ISZERO PUSH2 0xAA4 JUMPI PUSH2 0xAA3 PUSH2 0x821 JUMP JUMPDEST JUMPDEST DUP2 DUP2 MUL SWAP1 POP JUMPDEST SWAP4 SWAP3 POP POP POP JUMP JUMPDEST PUSH0 PUSH2 0xABB DUP3 PUSH2 0x4A7 JUMP JUMPDEST SWAP2 POP PUSH2 0xAC6 DUP4 PUSH2 0x4A7 JUMP JUMPDEST SWAP3 POP PUSH2 0xAF3 PUSH32 0xFFFFFFFFFFFFFFFFFFFFFFFFFFFFFFFFFFFFFFFFFFFFFFFFFFFFFFFFFFFFFFFF DUP5 DUP5 PUSH2 0x9E0 JUMP JUMPDEST SWAP1 POP SWAP3 SWAP2 POP POP JUMP JUMPDEST PUSH0 PUSH2 0xB05 DUP3 PUSH2 0x446 JUMP JUMPDEST SWAP2 POP PUSH2 0xB10 DUP4 PUSH2 0x446 JUMP JUMPDEST SWAP3 POP DUP3 DUP3 ADD SWAP1 POP PUSH1 0xFF DUP2 GT ISZERO PUSH2 0xB29 JUMPI PUSH2 0xB28 PUSH2 0x821 JUMP JUMPDEST JUMPDEST SWAP3 SWAP2 POP POP JUMP JUMPDEST PUSH0 PUSH2 0xB39 DUP3 PUSH2 0x446 JUMP JUMPDEST SWAP2 POP PUSH2 0xB44 DUP4 PUSH2 0x446 JUMP JUMPDEST SWAP3 POP DUP3 DUP3 SUB SWAP1 POP PUSH1 0xFF DUP2 GT ISZERO PUSH2 0xB5D JUMPI PUSH2 0xB5C PUSH2 0x821 JUMP JUMPDEST JUMPDEST SWAP3 SWAP2 POP POP JUMP INVALID LOG2 PUSH5 0x6970667358 0x22 SLT KECCAK256 PUSH29 0x3DB91F0CB3FEFC433D96ED5188DF13768FA7E5AA96298520AD89B6E5BD 0xF7 SWAP10 PUSH5 0x736F6C6343 STOP ADDMOD 0x1E STOP CALLER "
				},
				"gasEstimates": {
					"creation": {
						"codeDepositCost": "593800",
						"executionCost": "623",
						"totalCost": "594423"
					},
					"external": {
						"arithmeticOperations()": "infinite",
						"compare()": "infinite",
						"divideWithPrecision()": "infinite",
						"division()": "infinite",
						"incrementChecked(uint8)": "infinite",
						"incrementUnchecked(uint8)": "612",
						"intTypes()": "infinite",
						"sumArray(uint256[])": "infinite",
						"testOverflow()": "infinite",
						"testUnderflow()": "infinite"
					}
				},
				"methodIdentifiers": {
					"arithmeticOperations()": "3129daba",
					"compare()": "3da0ac79",
					"divideWithPrecision()": "91515d8f",
					"division()": "3205f5fc",
					"incrementChecked(uint8)": "66d162d2",
					"incrementUnchecked(uint8)": "056ae323",
					"intTypes()": "911608b3",
					"sumArray(uint256[])": "1e2aea06",
					"testOverflow()": "8040cac4",
					"testUnderflow()": "7f3f6a73"
				}
			},
			"storageLayout": {
				"storage": [],
				"types": null
			},
			"userdoc": {
				"kind": "user",
				"methods": {},
				"version": 1
			}
		}
	}
}