{
	"@course/meta-node/solidity/mine/solidity_lesson/hardhat-demo2/contracts/test/ProxyPattern.sol": {
		"ImplementationV2": {
			"abi": [
				{
					"inputs": [],
					"name": "admin",
					"outputs": [
						{
							"internalType": "address",
							"name": "",
							"type": "address"
						}
					],
					"stateMutability": "view",
					"type": "function"
				},
				{
					"inputs": [],
					"name": "getValue",
					"outputs": [
						{
							"internalType": "uint256",
							"name": "",
							"type": "uint256"
						}
					],
					"stateMutability": "view",
					"type": "function"
				},
				{
					"inputs": [],
					"name": "implementation",
					"outputs": [
						{
							"internalType": "address",
							"name": "",
							"type": "address"
						}
					],
					"stateMutability": "view",
					"type": "function"
				},
				{
					"inputs": [],
					"name": "multiplier",
					"outputs": [
						{
							"internalType": "uint256",
							"name": "",
							"type": "uint256"
						}
					],
					"stateMutability": "view",
					"type": "function"
				},
				{
					"inputs": [
						{
							"internalType": "uint256",
							"name": "_multiplier",
							"type": "uint256"
						}
					],
					"name": "setMultiplier",
					"outputs": [],
					"stateMutability": "nonpayable",
					"type": "function"
				},
				{
					"inputs": [
						{
							"internalType": "uint256",
							"name": "_value",
							"type": "uint256"
						}
					],
					"name": "setValue",
					"outputs": [],
					"stateMutability": "nonpayable",
					"type": "function"
				},
				{
					"inputs": [],
					"name": "value",
					"outputs": [
						{
							"internalType": "uint256",
							"name": "",
							"type": "uint256"
						}
					],
					"stateMutability": "view",
					"type": "function"
				}
			],
			"devdoc": {
				"kind": "dev",
				"methods": {},
				"version": 1
			},
			"evm": {
				"assembly": "    /* \"@course/meta-node/solidity/mine/solidity_lesson/hardhat-demo2/contracts/test/ProxyPattern.sol\":1407:1898  contract ImplementationV2 {... */\n  mstore(0x40, 0x80)\n  callvalue\n  dup1\n  iszero\n  tag_1\n  jumpi\n  revert(0x00, 0x00)\ntag_1:\n  pop\n  dataSize(sub_0)\n  dup1\n  dataOffset(sub_0)\n  0x00\n  codecopy\n  0x00\n  return\nstop\n\nsub_0: assembly {\n        /* \"@course/meta-node/solidity/mine/solidity_lesson/hardhat-demo2/contracts/test/ProxyPattern.sol\":1407:1898  contract ImplementationV2 {... */\n      mstore(0x40, 0x80)\n      callvalue\n      dup1\n      iszero\n      tag_1\n      jumpi\n      revert(0x00, 0x00)\n    tag_1:\n      pop\n      jumpi(tag_2, lt(calldatasize, 0x04))\n      shr(0xe0, calldataload(0x00))\n      dup1\n      0x55241077\n      gt\n      tag_10\n      jumpi\n      dup1\n      0x55241077\n      eq\n      tag_6\n      jumpi\n      dup1\n      0x5c60da1b\n      eq\n      tag_7\n      jumpi\n      dup1\n      0x641579a6\n      eq\n      tag_8\n      jumpi\n      dup1\n      0xf851a440\n      eq\n      tag_9\n      jumpi\n      jump(tag_2)\n    tag_10:\n      dup1\n      0x1b3ed722\n      eq\n      tag_3\n      jumpi\n      dup1\n      0x20965255\n      eq\n      tag_4\n      jumpi\n      dup1\n      0x3fa4f245\n      eq\n      tag_5\n      jumpi\n    tag_2:\n      revert(0x00, 0x00)\n        /* \"@course/meta-node/solidity/mine/solidity_lesson/hardhat-demo2/contracts/test/ProxyPattern.sol\":1530:1555  uint256 public multiplier */\n    tag_3:\n      tag_11\n      tag_12\n      jump\t// in\n    tag_11:\n      mload(0x40)\n      tag_13\n      swap2\n      swap1\n      tag_14\n      jump\t// in\n    tag_13:\n      mload(0x40)\n      dup1\n      swap2\n      sub\n      swap1\n      return\n        /* \"@course/meta-node/solidity/mine/solidity_lesson/hardhat-demo2/contracts/test/ProxyPattern.sol\":1708:1789  function getValue() public view returns (uint256) {... */\n    tag_4:\n      tag_15\n      tag_16\n      jump\t// in\n    tag_15:\n      mload(0x40)\n      tag_17\n      swap2\n      swap1\n      tag_14\n      jump\t// in\n    tag_17:\n      mload(0x40)\n      dup1\n      swap2\n      sub\n      swap1\n      return\n        /* \"@course/meta-node/solidity/mine/solidity_lesson/hardhat-demo2/contracts/test/ProxyPattern.sol\":1503:1523  uint256 public value */\n    tag_5:\n      tag_18\n      tag_19\n      jump\t// in\n    tag_18:\n      mload(0x40)\n      tag_20\n      swap2\n      swap1\n      tag_14\n      jump\t// in\n    tag_20:\n      mload(0x40)\n      dup1\n      swap2\n      sub\n      swap1\n      return\n        /* \"@course/meta-node/solidity/mine/solidity_lesson/hardhat-demo2/contracts/test/ProxyPattern.sol\":1585:1696  function setValue(uint256 _value) public {... */\n    tag_6:\n      tag_21\n      0x04\n      dup1\n      calldatasize\n      sub\n      dup2\n      add\n      swap1\n      tag_22\n      swap2\n      swap1\n      tag_23\n      jump\t// in\n    tag_22:\n      tag_24\n      jump\t// in\n    tag_21:\n      stop\n        /* \"@course/meta-node/solidity/mine/solidity_lesson/hardhat-demo2/contracts/test/ProxyPattern.sol\":1440:1469  address public implementation */\n    tag_7:\n      tag_25\n      tag_26\n      jump\t// in\n    tag_25:\n      mload(0x40)\n      tag_27\n      swap2\n      swap1\n      tag_28\n      jump\t// in\n    tag_27:\n      mload(0x40)\n      dup1\n      swap2\n      sub\n      swap1\n      return\n        /* \"@course/meta-node/solidity/mine/solidity_lesson/hardhat-demo2/contracts/test/ProxyPattern.sol\":1801:1895  function setMultiplier(uint256 _multiplier) public {... */\n    tag_8:\n      tag_29\n      0x04\n      dup1\n      calldatasize\n      sub\n      dup2\n      add\n      swap1\n      tag_30\n      swap2\n      swap1\n      tag_23\n      jump\t// in\n    tag_30:\n      tag_31\n      jump\t// in\n    tag_29:\n      stop\n        /* \"@course/meta-node/solidity/mine/solidity_lesson/hardhat-demo2/contracts/test/ProxyPattern.sol\":1476:1496  address public admin */\n    tag_9:\n      tag_32\n      tag_33\n      jump\t// in\n    tag_32:\n      mload(0x40)\n      tag_34\n      swap2\n      swap1\n      tag_28\n      jump\t// in\n    tag_34:\n      mload(0x40)\n      dup1\n      swap2\n      sub\n      swap1\n      return\n        /* \"@course/meta-node/solidity/mine/solidity_lesson/hardhat-demo2/contracts/test/ProxyPattern.sol\":1530:1555  uint256 public multiplier */\n    tag_12:\n      sload(0x03)\n      dup2\n      jump\t// out\n        /* \"@course/meta-node/solidity/mine/solidity_lesson/hardhat-demo2/contracts/test/ProxyPattern.sol\":1708:1789  function getValue() public view returns (uint256) {... */\n    tag_16:\n        /* \"@course/meta-node/solidity/mine/solidity_lesson/hardhat-demo2/contracts/test/ProxyPattern.sol\":1749:1756  uint256 */\n      0x00\n        /* \"@course/meta-node/solidity/mine/solidity_lesson/hardhat-demo2/contracts/test/ProxyPattern.sol\":1776:1781  value */\n      sload(0x02)\n        /* \"@course/meta-node/solidity/mine/solidity_lesson/hardhat-demo2/contracts/test/ProxyPattern.sol\":1769:1781  return value */\n      swap1\n      pop\n        /* \"@course/meta-node/solidity/mine/solidity_lesson/hardhat-demo2/contracts/test/ProxyPattern.sol\":1708:1789  function getValue() public view returns (uint256) {... */\n      swap1\n      jump\t// out\n        /* \"@course/meta-node/solidity/mine/solidity_lesson/hardhat-demo2/contracts/test/ProxyPattern.sol\":1503:1523  uint256 public value */\n    tag_19:\n      sload(0x02)\n      dup2\n      jump\t// out\n        /* \"@course/meta-node/solidity/mine/solidity_lesson/hardhat-demo2/contracts/test/ProxyPattern.sol\":1585:1696  function setValue(uint256 _value) public {... */\n    tag_24:\n        /* \"@course/meta-node/solidity/mine/solidity_lesson/hardhat-demo2/contracts/test/ProxyPattern.sol\":1669:1670  0 */\n      0x00\n        /* \"@course/meta-node/solidity/mine/solidity_lesson/hardhat-demo2/contracts/test/ProxyPattern.sol\":1655:1665  multiplier */\n      sload(0x03)\n        /* \"@course/meta-node/solidity/mine/solidity_lesson/hardhat-demo2/contracts/test/ProxyPattern.sol\":1655:1670  multiplier == 0 */\n      eq\n        /* \"@course/meta-node/solidity/mine/solidity_lesson/hardhat-demo2/contracts/test/ProxyPattern.sol\":1655:1687  multiplier == 0 ? 1 : multiplier */\n      tag_37\n      jumpi\n        /* \"@course/meta-node/solidity/mine/solidity_lesson/hardhat-demo2/contracts/test/ProxyPattern.sol\":1677:1687  multiplier */\n      sload(0x03)\n        /* \"@course/meta-node/solidity/mine/solidity_lesson/hardhat-demo2/contracts/test/ProxyPattern.sol\":1655:1687  multiplier == 0 ? 1 : multiplier */\n      jump(tag_38)\n    tag_37:\n        /* \"@course/meta-node/solidity/mine/solidity_lesson/hardhat-demo2/contracts/test/ProxyPattern.sol\":1673:1674  1 */\n      0x01\n        /* \"@course/meta-node/solidity/mine/solidity_lesson/hardhat-demo2/contracts/test/ProxyPattern.sol\":1655:1687  multiplier == 0 ? 1 : multiplier */\n    tag_38:\n        /* \"@course/meta-node/solidity/mine/solidity_lesson/hardhat-demo2/contracts/test/ProxyPattern.sol\":1645:1651  _value */\n      dup2\n        /* \"@course/meta-node/solidity/mine/solidity_lesson/hardhat-demo2/contracts/test/ProxyPattern.sol\":1645:1688  _value * (multiplier == 0 ? 1 : multiplier) */\n      tag_39\n      swap2\n      swap1\n      tag_40\n      jump\t// in\n    tag_39:\n        /* \"@course/meta-node/solidity/mine/solidity_lesson/hardhat-demo2/contracts/test/ProxyPattern.sol\":1637:1642  value */\n      0x02\n        /* \"@course/meta-node/solidity/mine/solidity_lesson/hardhat-demo2/contracts/test/ProxyPattern.sol\":1637:1688  value = _value * (multiplier == 0 ? 1 : multiplier) */\n      dup2\n      swap1\n      sstore\n      pop\n        /* \"@course/meta-node/solidity/mine/solidity_lesson/hardhat-demo2/contracts/test/ProxyPattern.sol\":1585:1696  function setValue(uint256 _value) public {... */\n      pop\n      jump\t// out\n        /* \"@course/meta-node/solidity/mine/solidity_lesson/hardhat-demo2/contracts/test/ProxyPattern.sol\":1440:1469  address public implementation */\n    tag_26:\n      0x00\n      0x00\n      swap1\n      sload\n      swap1\n      0x0100\n      exp\n      swap1\n      div\n      0xffffffffffffffffffffffffffffffffffffffff\n      and\n      dup2\n      jump\t// out\n        /* \"@course/meta-node/solidity/mine/solidity_lesson/hardhat-demo2/contracts/test/ProxyPattern.sol\":1801:1895  function setMultiplier(uint256 _multiplier) public {... */\n    tag_31:\n        /* \"@course/meta-node/solidity/mine/solidity_lesson/hardhat-demo2/contracts/test/ProxyPattern.sol\":1876:1887  _multiplier */\n      dup1\n        /* \"@course/meta-node/solidity/mine/solidity_lesson/hardhat-demo2/contracts/test/ProxyPattern.sol\":1863:1873  multiplier */\n      0x03\n        /* \"@course/meta-node/solidity/mine/solidity_lesson/hardhat-demo2/contracts/test/ProxyPattern.sol\":1863:1887  multiplier = _multiplier */\n      dup2\n      swap1\n      sstore\n      pop\n        /* \"@course/meta-node/solidity/mine/solidity_lesson/hardhat-demo2/contracts/test/ProxyPattern.sol\":1801:1895  function setMultiplier(uint256 _multiplier) public {... */\n      pop\n      jump\t// out\n        /* \"@course/meta-node/solidity/mine/solidity_lesson/hardhat-demo2/contracts/test/ProxyPattern.sol\":1476:1496  address public admin */\n    tag_33:\n      0x01\n      0x00\n      swap1\n      sload\n      swap1\n      0x0100\n      exp\n      swap1\n      div\n      0xffffffffffffffffffffffffffffffffffffffff\n      and\n      dup2\n      jump\t// out\n        /* \"#utility.yul\":7:84   */\n    tag_42:\n        /* \"#utility.yul\":44:51   */\n      0x00\n        /* \"#utility.yul\":73:78   */\n      dup2\n        /* \"#utility.yul\":62:78   */\n      swap1\n      pop\n        /* \"#utility.yul\":7:84   */\n      swap2\n      swap1\n      pop\n      jump\t// out\n        /* \"#utility.yul\":90:208   */\n    tag_43:\n        /* \"#utility.yul\":177:201   */\n      tag_56\n        /* \"#utility.yul\":195:200   */\n      dup2\n        /* \"#utility.yul\":177:201   */\n      tag_42\n      jump\t// in\n    tag_56:\n        /* \"#utility.yul\":172:175   */\n      dup3\n        /* \"#utility.yul\":165:202   */\n      mstore\n        /* \"#utility.yul\":90:208   */\n      pop\n      pop\n      jump\t// out\n        /* \"#utility.yul\":214:436   */\n    tag_14:\n        /* \"#utility.yul\":307:311   */\n      0x00\n        /* \"#utility.yul\":345:347   */\n      0x20\n        /* \"#utility.yul\":334:343   */\n      dup3\n        /* \"#utility.yul\":330:348   */\n      add\n        /* \"#utility.yul\":322:348   */\n      swap1\n      pop\n        /* \"#utility.yul\":358:429   */\n      tag_58\n        /* \"#utility.yul\":426:427   */\n      0x00\n        /* \"#utility.yul\":415:424   */\n      dup4\n        /* \"#utility.yul\":411:428   */\n      add\n        /* \"#utility.yul\":402:408   */\n      dup5\n        /* \"#utility.yul\":358:429   */\n      tag_43\n      jump\t// in\n    tag_58:\n        /* \"#utility.yul\":214:436   */\n      swap3\n      swap2\n      pop\n      pop\n      jump\t// out\n        /* \"#utility.yul\":523:640   */\n    tag_45:\n        /* \"#utility.yul\":632:633   */\n      0x00\n        /* \"#utility.yul\":629:630   */\n      0x00\n        /* \"#utility.yul\":622:634   */\n      revert\n        /* \"#utility.yul\":769:891   */\n    tag_47:\n        /* \"#utility.yul\":842:866   */\n      tag_63\n        /* \"#utility.yul\":860:865   */\n      dup2\n        /* \"#utility.yul\":842:866   */\n      tag_42\n      jump\t// in\n    tag_63:\n        /* \"#utility.yul\":835:840   */\n      dup2\n        /* \"#utility.yul\":832:867   */\n      eq\n        /* \"#utility.yul\":822:885   */\n      tag_64\n      jumpi\n        /* \"#utility.yul\":881:882   */\n      0x00\n        /* \"#utility.yul\":878:879   */\n      0x00\n        /* \"#utility.yul\":871:883   */\n      revert\n        /* \"#utility.yul\":822:885   */\n    tag_64:\n        /* \"#utility.yul\":769:891   */\n      pop\n      jump\t// out\n        /* \"#utility.yul\":897:1036   */\n    tag_48:\n        /* \"#utility.yul\":943:948   */\n      0x00\n        /* \"#utility.yul\":981:987   */\n      dup2\n        /* \"#utility.yul\":968:988   */\n      calldataload\n        /* \"#utility.yul\":959:988   */\n      swap1\n      pop\n        /* \"#utility.yul\":997:1030   */\n      tag_66\n        /* \"#utility.yul\":1024:1029   */\n      dup2\n        /* \"#utility.yul\":997:1030   */\n      tag_47\n      jump\t// in\n    tag_66:\n        /* \"#utility.yul\":897:1036   */\n      swap3\n      swap2\n      pop\n      pop\n      jump\t// out\n        /* \"#utility.yul\":1042:1371   */\n    tag_23:\n        /* \"#utility.yul\":1101:1107   */\n      0x00\n        /* \"#utility.yul\":1150:1152   */\n      0x20\n        /* \"#utility.yul\":1138:1147   */\n      dup3\n        /* \"#utility.yul\":1129:1136   */\n      dup5\n        /* \"#utility.yul\":1125:1148   */\n      sub\n        /* \"#utility.yul\":1121:1153   */\n      slt\n        /* \"#utility.yul\":1118:1237   */\n      iszero\n      tag_68\n      jumpi\n        /* \"#utility.yul\":1156:1235   */\n      tag_69\n      tag_45\n      jump\t// in\n    tag_69:\n        /* \"#utility.yul\":1118:1237   */\n    tag_68:\n        /* \"#utility.yul\":1276:1277   */\n      0x00\n        /* \"#utility.yul\":1301:1354   */\n      tag_70\n        /* \"#utility.yul\":1346:1353   */\n      dup5\n        /* \"#utility.yul\":1337:1343   */\n      dup3\n        /* \"#utility.yul\":1326:1335   */\n      dup6\n        /* \"#utility.yul\":1322:1344   */\n      add\n        /* \"#utility.yul\":1301:1354   */\n      tag_48\n      jump\t// in\n    tag_70:\n        /* \"#utility.yul\":1291:1354   */\n      swap2\n      pop\n        /* \"#utility.yul\":1247:1364   */\n      pop\n        /* \"#utility.yul\":1042:1371   */\n      swap3\n      swap2\n      pop\n      pop\n      jump\t// out\n        /* \"#utility.yul\":1377:1503   */\n    tag_49:\n        /* \"#utility.yul\":1414:1421   */\n      0x00\n        /* \"#utility.yul\":1454:1496   */\n      0xffffffffffffffffffffffffffffffffffffffff\n        /* \"#utility.yul\":1447:1452   */\n      dup3\n        /* \"#utility.yul\":1443:1497   */\n      and\n        /* \"#utility.yul\":1432:1497   */\n      swap1\n      pop\n        /* \"#utility.yul\":1377:1503   */\n      swap2\n      swap1\n      pop\n      jump\t// out\n        /* \"#utility.yul\":1509:1605   */\n    tag_50:\n        /* \"#utility.yul\":1546:1553   */\n      0x00\n        /* \"#utility.yul\":1575:1599   */\n      tag_73\n        /* \"#utility.yul\":1593:1598   */\n      dup3\n        /* \"#utility.yul\":1575:1599   */\n      tag_49\n      jump\t// in\n    tag_73:\n        /* \"#utility.yul\":1564:1599   */\n      swap1\n      pop\n        /* \"#utility.yul\":1509:1605   */\n      swap2\n      swap1\n      pop\n      jump\t// out\n        /* \"#utility.yul\":1611:1729   */\n    tag_51:\n        /* \"#utility.yul\":1698:1722   */\n      tag_75\n        /* \"#utility.yul\":1716:1721   */\n      dup2\n        /* \"#utility.yul\":1698:1722   */\n      tag_50\n      jump\t// in\n    tag_75:\n        /* \"#utility.yul\":1693:1696   */\n      dup3\n        /* \"#utility.yul\":1686:1723   */\n      mstore\n        /* \"#utility.yul\":1611:1729   */\n      pop\n      pop\n      jump\t// out\n        /* \"#utility.yul\":1735:1957   */\n    tag_28:\n        /* \"#utility.yul\":1828:1832   */\n      0x00\n        /* \"#utility.yul\":1866:1868   */\n      0x20\n        /* \"#utility.yul\":1855:1864   */\n      dup3\n        /* \"#utility.yul\":1851:1869   */\n      add\n        /* \"#utility.yul\":1843:1869   */\n      swap1\n      pop\n        /* \"#utility.yul\":1879:1950   */\n      tag_77\n        /* \"#utility.yul\":1947:1948   */\n      0x00\n        /* \"#utility.yul\":1936:1945   */\n      dup4\n        /* \"#utility.yul\":1932:1949   */\n      add\n        /* \"#utility.yul\":1923:1929   */\n      dup5\n        /* \"#utility.yul\":1879:1950   */\n      tag_51\n      jump\t// in\n    tag_77:\n        /* \"#utility.yul\":1735:1957   */\n      swap3\n      swap2\n      pop\n      pop\n      jump\t// out\n        /* \"#utility.yul\":1963:2143   */\n    tag_52:\n        /* \"#utility.yul\":2011:2088   */\n      0x4e487b7100000000000000000000000000000000000000000000000000000000\n        /* \"#utility.yul\":2008:2009   */\n      0x00\n        /* \"#utility.yul\":2001:2089   */\n      mstore\n        /* \"#utility.yul\":2108:2112   */\n      0x11\n        /* \"#utility.yul\":2105:2106   */\n      0x04\n        /* \"#utility.yul\":2098:2113   */\n      mstore\n        /* \"#utility.yul\":2132:2136   */\n      0x24\n        /* \"#utility.yul\":2129:2130   */\n      0x00\n        /* \"#utility.yul\":2122:2137   */\n      revert\n        /* \"#utility.yul\":2149:2559   */\n    tag_40:\n        /* \"#utility.yul\":2189:2196   */\n      0x00\n        /* \"#utility.yul\":2212:2232   */\n      tag_80\n        /* \"#utility.yul\":2230:2231   */\n      dup3\n        /* \"#utility.yul\":2212:2232   */\n      tag_42\n      jump\t// in\n    tag_80:\n        /* \"#utility.yul\":2207:2232   */\n      swap2\n      pop\n        /* \"#utility.yul\":2246:2266   */\n      tag_81\n        /* \"#utility.yul\":2264:2265   */\n      dup4\n        /* \"#utility.yul\":2246:2266   */\n      tag_42\n      jump\t// in\n    tag_81:\n        /* \"#utility.yul\":2241:2266   */\n      swap3\n      pop\n        /* \"#utility.yul\":2301:2302   */\n      dup3\n        /* \"#utility.yul\":2298:2299   */\n      dup3\n        /* \"#utility.yul\":2294:2303   */\n      mul\n        /* \"#utility.yul\":2323:2353   */\n      tag_82\n        /* \"#utility.yul\":2341:2352   */\n      dup2\n        /* \"#utility.yul\":2323:2353   */\n      tag_42\n      jump\t// in\n    tag_82:\n        /* \"#utility.yul\":2312:2353   */\n      swap2\n      pop\n        /* \"#utility.yul\":2502:2503   */\n      dup3\n        /* \"#utility.yul\":2493:2500   */\n      dup3\n        /* \"#utility.yul\":2489:2504   */\n      div\n        /* \"#utility.yul\":2486:2487   */\n      dup5\n        /* \"#utility.yul\":2483:2505   */\n      eq\n        /* \"#utility.yul\":2463:2464   */\n      dup4\n        /* \"#utility.yul\":2456:2465   */\n      iszero\n        /* \"#utility.yul\":2436:2519   */\n      or\n        /* \"#utility.yul\":2413:2552   */\n      tag_83\n      jumpi\n        /* \"#utility.yul\":2532:2550   */\n      tag_84\n      tag_52\n      jump\t// in\n    tag_84:\n        /* \"#utility.yul\":2413:2552   */\n    tag_83:\n        /* \"#utility.yul\":2197:2559   */\n      pop\n        /* \"#utility.yul\":2149:2559   */\n      swap3\n      swap2\n      pop\n      pop\n      jump\t// out\n\n    auxdata: 0xa264697066735822122037fd80b794545e4649d366bdf0d349e3d57ec6247f4edb4c26686b2014cf8e0264736f6c634300081e0033\n}\n",
				"bytecode": {
					"linkReferences": {},
					"object": "6080604052348015600e575f5ffd5b506103638061001c5f395ff3fe608060405234801561000f575f5ffd5b506004361061007b575f3560e01c8063552410771161005957806355241077146100d95780635c60da1b146100f5578063641579a614610113578063f851a4401461012f5761007b565b80631b3ed7221461007f578063209652551461009d5780633fa4f245146100bb575b5f5ffd5b61008761014d565b60405161009491906101f5565b60405180910390f35b6100a5610153565b6040516100b291906101f5565b60405180910390f35b6100c361015c565b6040516100d091906101f5565b60405180910390f35b6100f360048036038101906100ee919061023c565b610162565b005b6100fd61018a565b60405161010a91906102a6565b60405180910390f35b61012d6004803603810190610128919061023c565b6101ae565b005b6101376101b8565b60405161014491906102a6565b60405180910390f35b60035481565b5f600254905090565b60025481565b5f6003541461017357600354610176565b60015b8161018191906102ec565b60028190555050565b5f5f9054906101000a900473ffffffffffffffffffffffffffffffffffffffff1681565b8060038190555050565b60015f9054906101000a900473ffffffffffffffffffffffffffffffffffffffff1681565b5f819050919050565b6101ef816101dd565b82525050565b5f6020820190506102085f8301846101e6565b92915050565b5f5ffd5b61021b816101dd565b8114610225575f5ffd5b50565b5f8135905061023681610212565b92915050565b5f602082840312156102515761025061020e565b5b5f61025e84828501610228565b91505092915050565b5f73ffffffffffffffffffffffffffffffffffffffff82169050919050565b5f61029082610267565b9050919050565b6102a081610286565b82525050565b5f6020820190506102b95f830184610297565b92915050565b7f4e487b71000000000000000000000000000000000000000000000000000000005f52601160045260245ffd5b5f6102f6826101dd565b9150610301836101dd565b925082820261030f816101dd565b91508282048414831517610326576103256102bf565b5b509291505056fea264697066735822122037fd80b794545e4649d366bdf0d349e3d57ec6247f4edb4c26686b2014cf8e0264736f6c634300081e0033",
					"opcodes": "PUSH1 0x80 PUSH1 0x40 MSTORE CALLVALUE DUP1 ISZERO PUSH1 0xE JUMPI PUSH0 PUSH0 REVERT JUMPDEST POP PUSH2 0x363 DUP1 PUSH2 0x1C PUSH0 CODECOPY PUSH0 RETURN INVALID PUSH1 0x80 PUSH1 0x40 MSTORE CALLVALUE DUP1 ISZERO PUSH2 0xF JUMPI PUSH0 PUSH0 REVERT JUMPDEST POP PUSH1 0x4 CALLDATASIZE LT PUSH2 0x7B JUMPI PUSH0 CALLDATALOAD PUSH1 0xE0 SHR DUP1 PUSH4 0x55241077 GT PUSH2 0x59 JUMPI DUP1 PUSH4 0x55241077 EQ PUSH2 0xD9 JUMPI DUP1 PUSH4 0x5C60DA1B EQ PUSH2 0xF5 JUMPI DUP1 PUSH4 0x641579A6 EQ PUSH2 0x113 JUMPI DUP1 PUSH4 0xF851A440 EQ PUSH2 0x12F JUMPI PUSH2 0x7B JUMP JUMPDEST DUP1 PUSH4 0x1B3ED722 EQ PUSH2 0x7F JUMPI DUP1 PUSH4 0x20965255 EQ PUSH2 0x9D JUMPI DUP1 PUSH4 0x3FA4F245 EQ PUSH2 0xBB JUMPI JUMPDEST PUSH0 PUSH0 REVERT JUMPDEST PUSH2 0x87 PUSH2 0x14D JUMP JUMPDEST PUSH1 0x40 MLOAD PUSH2 0x94 SWAP2 SWAP1 PUSH2 0x1F5 JUMP JUMPDEST PUSH1 0x40 MLOAD DUP1 SWAP2 SUB SWAP1 RETURN JUMPDEST PUSH2 0xA5 PUSH2 0x153 JUMP JUMPDEST PUSH1 0x40 MLOAD PUSH2 0xB2 SWAP2 SWAP1 PUSH2 0x1F5 JUMP JUMPDEST PUSH1 0x40 MLOAD DUP1 SWAP2 SUB SWAP1 RETURN JUMPDEST PUSH2 0xC3 PUSH2 0x15C JUMP JUMPDEST PUSH1 0x40 MLOAD PUSH2 0xD0 SWAP2 SWAP1 PUSH2 0x1F5 JUMP JUMPDEST PUSH1 0x40 MLOAD DUP1 SWAP2 SUB SWAP1 RETURN JUMPDEST PUSH2 0xF3 PUSH1 0x4 DUP1 CALLDATASIZE SUB DUP2 ADD SWAP1 PUSH2 0xEE SWAP2 SWAP1 PUSH2 0x23C JUMP JUMPDEST PUSH2 0x162 JUMP JUMPDEST STOP JUMPDEST PUSH2 0xFD PUSH2 0x18A JUMP JUMPDEST PUSH1 0x40 MLOAD PUSH2 0x10A SWAP2 SWAP1 PUSH2 0x2A6 JUMP JUMPDEST PUSH1 0x40 MLOAD DUP1 SWAP2 SUB SWAP1 RETURN JUMPDEST PUSH2 0x12D PUSH1 0x4 DUP1 CALLDATASIZE SUB DUP2 ADD SWAP1 PUSH2 0x128 SWAP2 SWAP1 PUSH2 0x23C JUMP JUMPDEST PUSH2 0x1AE JUMP JUMPDEST STOP JUMPDEST PUSH2 0x137 PUSH2 0x1B8 JUMP JUMPDEST PUSH1 0x40 MLOAD PUSH2 0x144 SWAP2 SWAP1 PUSH2 0x2A6 JUMP JUMPDEST PUSH1 0x40 MLOAD DUP1 SWAP2 SUB SWAP1 RETURN JUMPDEST PUSH1 0x3 SLOAD DUP2 JUMP JUMPDEST PUSH0 PUSH1 0x2 SLOAD SWAP1 POP SWAP1 JUMP JUMPDEST PUSH1 0x2 SLOAD DUP2 JUMP JUMPDEST PUSH0 PUSH1 0x3 SLOAD EQ PUSH2 0x173 JUMPI PUSH1 0x3 SLOAD PUSH2 0x176 JUMP JUMPDEST PUSH1 0x1 JUMPDEST DUP2 PUSH2 0x181 SWAP2 SWAP1 PUSH2 0x2EC JUMP JUMPDEST PUSH1 0x2 DUP2 SWAP1 SSTORE POP POP JUMP JUMPDEST PUSH0 PUSH0 SWAP1 SLOAD SWAP1 PUSH2 0x100 EXP SWAP1 DIV PUSH20 0xFFFFFFFFFFFFFFFFFFFFFFFFFFFFFFFFFFFFFFFF AND DUP2 JUMP JUMPDEST DUP1 PUSH1 0x3 DUP2 SWAP1 SSTORE POP POP JUMP JUMPDEST PUSH1 0x1 PUSH0 SWAP1 SLOAD SWAP1 PUSH2 0x100 EXP SWAP1 DIV PUSH20 0xFFFFFFFFFFFFFFFFFFFFFFFFFFFFFFFFFFFFFFFF AND DUP2 JUMP JUMPDEST PUSH0 DUP2 SWAP1 POP SWAP2 SWAP1 POP JUMP JUMPDEST PUSH2 0x1EF DUP2 PUSH2 0x1DD JUMP JUMPDEST DUP3 MSTORE POP POP JUMP JUMPDEST PUSH0 PUSH1 0x20 DUP3 ADD SWAP1 POP PUSH2 0x208 PUSH0 DUP4 ADD DUP5 PUSH2 0x1E6 JUMP JUMPDEST SWAP3 SWAP2 POP POP JUMP JUMPDEST PUSH0 PUSH0 REVERT JUMPDEST PUSH2 0x21B DUP2 PUSH2 0x1DD JUMP JUMPDEST DUP2 EQ PUSH2 0x225 JUMPI PUSH0 PUSH0 REVERT JUMPDEST POP JUMP JUMPDEST PUSH0 DUP2 CALLDATALOAD SWAP1 POP PUSH2 0x236 DUP2 PUSH2 0x212 JUMP JUMPDEST SWAP3 SWAP2 POP POP JUMP JUMPDEST PUSH0 PUSH1 0x20 DUP3 DUP5 SUB SLT ISZERO PUSH2 0x251 JUMPI PUSH2 0x250 PUSH2 0x20E JUMP JUMPDEST JUMPDEST PUSH0 PUSH2 0x25E DUP5 DUP3 DUP6 ADD PUSH2 0x228 JUMP JUMPDEST SWAP2 POP POP SWAP3 SWAP2 POP POP JUMP JUMPDEST PUSH0 PUSH20 0xFFFFFFFFFFFFFFFFFFFFFFFFFFFFFFFFFFFFFFFF DUP3 AND SWAP1 POP SWAP2 SWAP1 POP JUMP JUMPDEST PUSH0 PUSH2 0x290 DUP3 PUSH2 0x267 JUMP JUMPDEST SWAP1 POP SWAP2 SWAP1 POP JUMP JUMPDEST PUSH2 0x2A0 DUP2 PUSH2 0x286 JUMP JUMPDEST DUP3 MSTORE POP POP JUMP JUMPDEST PUSH0 PUSH1 0x20 DUP3 ADD SWAP1 POP PUSH2 0x2B9 PUSH0 DUP4 ADD DUP5 PUSH2 0x297 JUMP JUMPDEST SWAP3 SWAP2 POP POP JUMP JUMPDEST PUSH32 0x4E487B7100000000000000000000000000000000000000000000000000000000 PUSH0 MSTORE PUSH1 0x11 PUSH1 0x4 MSTORE PUSH1 0x24 PUSH0 REVERT JUMPDEST PUSH0 PUSH2 0x2F6 DUP3 PUSH2 0x1DD JUMP JUMPDEST SWAP2 POP PUSH2 0x301 DUP4 PUSH2 0x1DD JUMP JUMPDEST SWAP3 POP DUP3 DUP3 MUL PUSH2 0x30F DUP2 PUSH2 0x1DD JUMP JUMPDEST SWAP2 POP DUP3 DUP3 DIV DUP5 EQ DUP4 ISZERO OR PUSH2 0x326 JUMPI PUSH2 0x325 PUSH2 0x2BF JUMP JUMPDEST JUMPDEST POP SWAP3 SWAP2 POP POP JUMP INVALID LOG2 PUSH5 0x6970667358 0x22 SLT KECCAK256 CALLDATACOPY REVERT DUP1 0xB7 SWAP5 SLOAD MCOPY CHAINID BLOBHASH 0xD3 PUSH7 0xBDF0D349E3D57E 0xC6 0x24 PUSH32 0x4EDB4C26686B2014CF8E0264736F6C634300081E003300000000000000000000 "
				},
				"gasEstimates": {
					"creation": {
						"codeDepositCost": "173400",
						"executionCost": "218",
						"totalCost": "173618"
					},
					"external": {
						"admin()": "2574",
						"getValue()": "2455",
						"implementation()": "2529",
						"multiplier()": "2426",
						"setMultiplier(uint256)": "22559",
						"setValue(uint256)": "infinite",
						"value()": "2470"
					}
				},
				"methodIdentifiers": {
					"admin()": "f851a440",
					"getValue()": "20965255",
					"implementation()": "5c60da1b",
					"multiplier()": "1b3ed722",
					"setMultiplier(uint256)": "641579a6",
					"setValue(uint256)": "55241077",
					"value()": "3fa4f245"
				}
			},
			"storageLayout": {
				"storage": [
					{
						"astId": 87,
						"contract": "@course/meta-node/solidity/mine/solidity_lesson/hardhat-demo2/contracts/test/ProxyPattern.sol:ImplementationV2",
						"label": "implementation",
						"offset": 0,
						"slot": "0",
						"type": "t_address"
					},
					{
						"astId": 89,
						"contract": "@course/meta-node/solidity/mine/solidity_lesson/hardhat-demo2/contracts/test/ProxyPattern.sol:ImplementationV2",
						"label": "admin",
						"offset": 0,
						"slot": "1",
						"type": "t_address"
					},
					{
						"astId": 91,
						"contract": "@course/meta-node/solidity/mine/solidity_lesson/hardhat-demo2/contracts/test/ProxyPattern.sol:ImplementationV2",
						"label": "value",
						"offset": 0,
						"slot": "2",
						"type": "t_uint256"
					},
					{
						"astId": 93,
						"contract": "@course/meta-node/solidity/mine/solidity_lesson/hardhat-demo2/contracts/test/ProxyPattern.sol:ImplementationV2",
						"label": "multiplier",
						"offset": 0,
						"slot": "3",
						"type": "t_uint256"
					}
				],
				"types": {
					"t_address": {
						"encoding": "inplace",
						"label": "address",
						"numberOfBytes": "20"
					},
					"t_uint256": {
						"encoding": "inplace",
						"label": "uint256",
						"numberOfBytes": "32"
					}
				}
			},
			"userdoc": {
				"kind": "user",
				"methods": {},
				"version": 1
			}
		}
	}
}