{
	"data": {
		"bytecode": {
			"linkReferences": {},
			"object": "6080604052348015600e575f5ffd5b50610e2c8061001c5f395ff3fe608060405234801561000f575f5ffd5b5060043610610091575f3560e01c80636c815652116100645780636c815652146101455780637aae569414610163578063a9059cbb14610194578063b2b34f77146101c4578063f435898b146101f657610091565b8063034899bc1461009557806324b108e3146100b3578063447a06f5146100e457806368bc2ad114610115575b5f5ffd5b61009d610214565b6040516100aa9190610521565b60405180910390f35b6100cd60048036038101906100c8919061057e565b61023e565b6040516100db9291906105dd565b60405180910390f35b6100fe60048036038101906100f99190610740565b610270565b60405161010c929190610802565b60405180910390f35b61012f600480360381019061012a91906108ce565b610290565b60405161013c9190610521565b60405180910390f35b61014d6102a0565b60405161015a9190610521565b60405180910390f35b61017d6004803603810190610178919061093f565b6102ca565b60405161018b9291906109eb565b60405180910390f35b6101ae60048036038101906101a99190610a7a565b61031c565b6040516101bb9190610ab8565b60405180910390f35b6101de60048036038101906101d991906108ce565b61036a565b6040516101ed93929190610af0565b60405180910390f35b6101fe61043b565b60405161020b9190610ab8565b60405180910390f35b5f5f357fffffffff0000000000000000000000000000000000000000000000000000000016905090565b5f5f828061024f5761024e610b25565b5b848608838061026157610260610b25565b5b85870991509150935093915050565b60605f828060200190518101906102879190610bd4565b91509150915091565b5f81805190602001209050919050565b5f5f357fffffffff0000000000000000000000000000000000000000000000000000000016905090565b60608083836040516020016102e0929190610802565b6040516020818303038152906040528484604051602001610302929190610c9c565b604051602081830303815290604052915091509250929050565b60605f368080601f0160208091040260200160405190810160405280939291908181526020018383808284375f81840152601f19601f82011690508083019250505050505050905092915050565b5f5f5f5f8460405160200161037f9190610cc3565b604051602081830303815290604052905080805190602001206002826040516103a89190610d13565b602060405180830381855afa1580156103c3573d5f5f3e3d5ffd5b5050506040513d601f19601f820116820180604052508101906103e69190610d53565b6003836040516103f69190610d13565b602060405180830381855afa158015610411573d5f5f3e3d5ffd5b5050506040515160601b806bffffffffffffffffffffffff19169050935093509350509193909250565b6060735b38da6a701c568545dcfcb03fcb875f56beddc46064604051602401610465929190610dcf565b6040516020818303038152906040527f38e926d4000000000000000000000000000000000000000000000000000000007bffffffffffffffffffffffffffffffffffffffffffffffffffffffff19166020820180517bffffffffffffffffffffffffffffffffffffffffffffffffffffffff8381831617835250505050905090565b5f7fffffffff0000000000000000000000000000000000000000000000000000000082169050919050565b61051b816104e7565b82525050565b5f6020820190506105345f830184610512565b92915050565b5f604051905090565b5f5ffd5b5f5ffd5b5f819050919050565b61055d8161054b565b8114610567575f5ffd5b50565b5f8135905061057881610554565b92915050565b5f5f5f6060848603121561059557610594610543565b5b5f6105a28682870161056a565b93505060206105b38682870161056a565b92505060406105c48682870161056a565b9150509250925092565b6105d78161054b565b82525050565b5f6040820190506105f05f8301856105ce565b6105fd60208301846105ce565b9392505050565b5f5ffd5b5f5ffd5b5f601f19601f8301169050919050565b7f4e487b71000000000000000000000000000000000000000000000000000000005f52604160045260245ffd5b6106528261060c565b810181811067ffffffffffffffff821117156106715761067061061c565b5b80604052505050565b5f61068361053a565b905061068f8282610649565b919050565b5f67ffffffffffffffff8211156106ae576106ad61061c565b5b6106b78261060c565b9050602081019050919050565b828183375f83830152505050565b5f6106e46106df84610694565b61067a565b905082815260208101848484011115610700576106ff610608565b5b61070b8482856106c4565b509392505050565b5f82601f83011261072757610726610604565b5b81356107378482602086016106d2565b91505092915050565b5f6020828403121561075557610754610543565b5b5f82013567ffffffffffffffff81111561077257610771610547565b5b61077e84828501610713565b91505092915050565b5f81519050919050565b5f82825260208201905092915050565b8281835e5f83830152505050565b5f6107b982610787565b6107c38185610791565b93506107d38185602086016107a1565b6107dc8161060c565b840191505092915050565b5f60ff82169050919050565b6107fc816107e7565b82525050565b5f6040820190508181035f83015261081a81856107af565b905061082960208301846107f3565b9392505050565b5f67ffffffffffffffff82111561084a5761084961061c565b5b6108538261060c565b9050602081019050919050565b5f61087261086d84610830565b61067a565b90508281526020810184848401111561088e5761088d610608565b5b6108998482856106c4565b509392505050565b5f82601f8301126108b5576108b4610604565b5b81356108c5848260208601610860565b91505092915050565b5f602082840312156108e3576108e2610543565b5b5f82013567ffffffffffffffff811115610900576108ff610547565b5b61090c848285016108a1565b91505092915050565b61091e816107e7565b8114610928575f5ffd5b50565b5f8135905061093981610915565b92915050565b5f5f6040838503121561095557610954610543565b5b5f83013567ffffffffffffffff81111561097257610971610547565b5b61097e858286016108a1565b925050602061098f8582860161092b565b9150509250929050565b5f81519050919050565b5f82825260208201905092915050565b5f6109bd82610999565b6109c781856109a3565b93506109d78185602086016107a1565b6109e08161060c565b840191505092915050565b5f6040820190508181035f830152610a0381856109b3565b90508181036020830152610a1781846109b3565b90509392505050565b5f73ffffffffffffffffffffffffffffffffffffffff82169050919050565b5f610a4982610a20565b9050919050565b610a5981610a3f565b8114610a63575f5ffd5b50565b5f81359050610a7481610a50565b92915050565b5f5f60408385031215610a9057610a8f610543565b5b5f610a9d85828601610a66565b9250506020610aae8582860161056a565b9150509250929050565b5f6020820190508181035f830152610ad081846109b3565b905092915050565b5f819050919050565b610aea81610ad8565b82525050565b5f606082019050610b035f830186610ae1565b610b106020830185610ae1565b610b1d6040830184610ae1565b949350505050565b7f4e487b71000000000000000000000000000000000000000000000000000000005f52601260045260245ffd5b5f610b64610b5f84610830565b61067a565b905082815260208101848484011115610b8057610b7f610608565b5b610b8b8482856107a1565b509392505050565b5f82601f830112610ba757610ba6610604565b5b8151610bb7848260208601610b52565b91505092915050565b5f81519050610bce81610915565b92915050565b5f5f60408385031215610bea57610be9610543565b5b5f83015167ffffffffffffffff811115610c0757610c06610547565b5b610c1385828601610b93565b9250506020610c2485828601610bc0565b9150509250929050565b5f81905092915050565b5f610c4282610787565b610c4c8185610c2e565b9350610c5c8185602086016107a1565b80840191505092915050565b5f8160f81b9050919050565b5f610c7e82610c68565b9050919050565b610c96610c91826107e7565b610c74565b82525050565b5f610ca78285610c38565b9150610cb38284610c85565b6001820191508190509392505050565b5f610cce8284610c38565b915081905092915050565b5f81905092915050565b5f610ced82610999565b610cf78185610cd9565b9350610d078185602086016107a1565b80840191505092915050565b5f610d1e8284610ce3565b915081905092915050565b610d3281610ad8565b8114610d3c575f5ffd5b50565b5f81519050610d4d81610d29565b92915050565b5f60208284031215610d6857610d67610543565b5b5f610d7584828501610d3f565b91505092915050565b610d8781610a3f565b82525050565b5f819050919050565b5f819050919050565b5f610db9610db4610daf84610d8d565b610d96565b6107e7565b9050919050565b610dc981610d9f565b82525050565b5f604082019050610de25f830185610d7e565b610def6020830184610dc0565b939250505056fea2646970667358221220f2c8f80734815c62b1b10e06b5d2c085695761267604fb6707c5bd75f7d5b57964736f6c634300081e0033",
			"opcodes": "PUSH1 0x80 PUSH1 0x40 MSTORE CALLVALUE DUP1 ISZERO PUSH1 0xE JUMPI PUSH0 PUSH0 REVERT JUMPDEST POP PUSH2 0xE2C DUP1 PUSH2 0x1C PUSH0 CODECOPY PUSH0 RETURN INVALID PUSH1 0x80 PUSH1 0x40 MSTORE CALLVALUE DUP1 ISZERO PUSH2 0xF JUMPI PUSH0 PUSH0 REVERT JUMPDEST POP PUSH1 0x4 CALLDATASIZE LT PUSH2 0x91 JUMPI PUSH0 CALLDATALOAD PUSH1 0xE0 SHR DUP1 PUSH4 0x6C815652 GT PUSH2 0x64 JUMPI DUP1 PUSH4 0x6C815652 EQ PUSH2 0x145 JUMPI DUP1 PUSH4 0x7AAE5694 EQ PUSH2 0x163 JUMPI DUP1 PUSH4 0xA9059CBB EQ PUSH2 0x194 JUMPI DUP1 PUSH4 0xB2B34F77 EQ PUSH2 0x1C4 JUMPI DUP1 PUSH4 0xF435898B EQ PUSH2 0x1F6 JUMPI PUSH2 0x91 JUMP JUMPDEST DUP1 PUSH4 0x34899BC EQ PUSH2 0x95 JUMPI DUP1 PUSH4 0x24B108E3 EQ PUSH2 0xB3 JUMPI DUP1 PUSH4 0x447A06F5 EQ PUSH2 0xE4 JUMPI DUP1 PUSH4 0x68BC2AD1 EQ PUSH2 0x115 JUMPI JUMPDEST PUSH0 PUSH0 REVERT JUMPDEST PUSH2 0x9D PUSH2 0x214 JUMP JUMPDEST PUSH1 0x40 MLOAD PUSH2 0xAA SWAP2 SWAP1 PUSH2 0x521 JUMP JUMPDEST PUSH1 0x40 MLOAD DUP1 SWAP2 SUB SWAP1 RETURN JUMPDEST PUSH2 0xCD PUSH1 0x4 DUP1 CALLDATASIZE SUB DUP2 ADD SWAP1 PUSH2 0xC8 SWAP2 SWAP1 PUSH2 0x57E JUMP JUMPDEST PUSH2 0x23E JUMP JUMPDEST PUSH1 0x40 MLOAD PUSH2 0xDB SWAP3 SWAP2 SWAP1 PUSH2 0x5DD JUMP JUMPDEST PUSH1 0x40 MLOAD DUP1 SWAP2 SUB SWAP1 RETURN JUMPDEST PUSH2 0xFE PUSH1 0x4 DUP1 CALLDATASIZE SUB DUP2 ADD SWAP1 PUSH2 0xF9 SWAP2 SWAP1 PUSH2 0x740 JUMP JUMPDEST PUSH2 0x270 JUMP JUMPDEST PUSH1 0x40 MLOAD PUSH2 0x10C SWAP3 SWAP2 SWAP1 PUSH2 0x802 JUMP JUMPDEST PUSH1 0x40 MLOAD DUP1 SWAP2 SUB SWAP1 RETURN JUMPDEST PUSH2 0x12F PUSH1 0x4 DUP1 CALLDATASIZE SUB DUP2 ADD SWAP1 PUSH2 0x12A SWAP2 SWAP1 PUSH2 0x8CE JUMP JUMPDEST PUSH2 0x290 JUMP JUMPDEST PUSH1 0x40 MLOAD PUSH2 0x13C SWAP2 SWAP1 PUSH2 0x521 JUMP JUMPDEST PUSH1 0x40 MLOAD DUP1 SWAP2 SUB SWAP1 RETURN JUMPDEST PUSH2 0x14D PUSH2 0x2A0 JUMP JUMPDEST PUSH1 0x40 MLOAD PUSH2 0x15A SWAP2 SWAP1 PUSH2 0x521 JUMP JUMPDEST PUSH1 0x40 MLOAD DUP1 SWAP2 SUB SWAP1 RETURN JUMPDEST PUSH2 0x17D PUSH1 0x4 DUP1 CALLDATASIZE SUB DUP2 ADD SWAP1 PUSH2 0x178 SWAP2 SWAP1 PUSH2 0x93F JUMP JUMPDEST PUSH2 0x2CA JUMP JUMPDEST PUSH1 0x40 MLOAD PUSH2 0x18B SWAP3 SWAP2 SWAP1 PUSH2 0x9EB JUMP JUMPDEST PUSH1 0x40 MLOAD DUP1 SWAP2 SUB SWAP1 RETURN JUMPDEST PUSH2 0x1AE PUSH1 0x4 DUP1 CALLDATASIZE SUB DUP2 ADD SWAP1 PUSH2 0x1A9 SWAP2 SWAP1 PUSH2 0xA7A JUMP JUMPDEST PUSH2 0x31C JUMP JUMPDEST PUSH1 0x40 MLOAD PUSH2 0x1BB SWAP2 SWAP1 PUSH2 0xAB8 JUMP JUMPDEST PUSH1 0x40 MLOAD DUP1 SWAP2 SUB SWAP1 RETURN JUMPDEST PUSH2 0x1DE PUSH1 0x4 DUP1 CALLDATASIZE SUB DUP2 ADD SWAP1 PUSH2 0x1D9 SWAP2 SWAP1 PUSH2 0x8CE JUMP JUMPDEST PUSH2 0x36A JUMP JUMPDEST PUSH1 0x40 MLOAD PUSH2 0x1ED SWAP4 SWAP3 SWAP2 SWAP1 PUSH2 0xAF0 JUMP JUMPDEST PUSH1 0x40 MLOAD DUP1 SWAP2 SUB SWAP1 RETURN JUMPDEST PUSH2 0x1FE PUSH2 0x43B JUMP JUMPDEST PUSH1 0x40 MLOAD PUSH2 0x20B SWAP2 SWAP1 PUSH2 0xAB8 JUMP JUMPDEST PUSH1 0x40 MLOAD DUP1 SWAP2 SUB SWAP1 RETURN JUMPDEST PUSH0 PUSH0 CALLDATALOAD PUSH32 0xFFFFFFFF00000000000000000000000000000000000000000000000000000000 AND SWAP1 POP SWAP1 JUMP JUMPDEST PUSH0 PUSH0 DUP3 DUP1 PUSH2 0x24F JUMPI PUSH2 0x24E PUSH2 0xB25 JUMP JUMPDEST JUMPDEST DUP5 DUP7 ADDMOD DUP4 DUP1 PUSH2 0x261 JUMPI PUSH2 0x260 PUSH2 0xB25 JUMP JUMPDEST JUMPDEST DUP6 DUP8 MULMOD SWAP2 POP SWAP2 POP SWAP4 POP SWAP4 SWAP2 POP POP JUMP JUMPDEST PUSH1 0x60 PUSH0 DUP3 DUP1 PUSH1 0x20 ADD SWAP1 MLOAD DUP2 ADD SWAP1 PUSH2 0x287 SWAP2 SWAP1 PUSH2 0xBD4 JUMP JUMPDEST SWAP2 POP SWAP2 POP SWAP2 POP SWAP2 JUMP JUMPDEST PUSH0 DUP2 DUP1 MLOAD SWAP1 PUSH1 0x20 ADD KECCAK256 SWAP1 POP SWAP2 SWAP1 POP JUMP JUMPDEST PUSH0 PUSH0 CALLDATALOAD PUSH32 0xFFFFFFFF00000000000000000000000000000000000000000000000000000000 AND SWAP1 POP SWAP1 JUMP JUMPDEST PUSH1 0x60 DUP1 DUP4 DUP4 PUSH1 0x40 MLOAD PUSH1 0x20 ADD PUSH2 0x2E0 SWAP3 SWAP2 SWAP1 PUSH2 0x802 JUMP JUMPDEST PUSH1 0x40 MLOAD PUSH1 0x20 DUP2 DUP4 SUB SUB DUP2 MSTORE SWAP1 PUSH1 0x40 MSTORE DUP5 DUP5 PUSH1 0x40 MLOAD PUSH1 0x20 ADD PUSH2 0x302 SWAP3 SWAP2 SWAP1 PUSH2 0xC9C JUMP JUMPDEST PUSH1 0x40 MLOAD PUSH1 0x20 DUP2 DUP4 SUB SUB DUP2 MSTORE SWAP1 PUSH1 0x40 MSTORE SWAP2 POP SWAP2 POP SWAP3 POP SWAP3 SWAP1 POP JUMP JUMPDEST PUSH1 0x60 PUSH0 CALLDATASIZE DUP1 DUP1 PUSH1 0x1F ADD PUSH1 0x20 DUP1 SWAP2 DIV MUL PUSH1 0x20 ADD PUSH1 0x40 MLOAD SWAP1 DUP2 ADD PUSH1 0x40 MSTORE DUP1 SWAP4 SWAP3 SWAP2 SWAP1 DUP2 DUP2 MSTORE PUSH1 0x20 ADD DUP4 DUP4 DUP1 DUP3 DUP5 CALLDATACOPY PUSH0 DUP2 DUP5 ADD MSTORE PUSH1 0x1F NOT PUSH1 0x1F DUP3 ADD AND SWAP1 POP DUP1 DUP4 ADD SWAP3 POP POP POP POP POP POP POP SWAP1 POP SWAP3 SWAP2 POP POP JUMP JUMPDEST PUSH0 PUSH0 PUSH0 PUSH0 DUP5 PUSH1 0x40 MLOAD PUSH1 0x20 ADD PUSH2 0x37F SWAP2 SWAP1 PUSH2 0xCC3 JUMP JUMPDEST PUSH1 0x40 MLOAD PUSH1 0x20 DUP2 DUP4 SUB SUB DUP2 MSTORE SWAP1 PUSH1 0x40 MSTORE SWAP1 POP DUP1 DUP1 MLOAD SWAP1 PUSH1 0x20 ADD KECCAK256 PUSH1 0x2 DUP3 PUSH1 0x40 MLOAD PUSH2 0x3A8 SWAP2 SWAP1 PUSH2 0xD13 JUMP JUMPDEST PUSH1 0x20 PUSH1 0x40 MLOAD DUP1 DUP4 SUB DUP2 DUP6 GAS STATICCALL ISZERO DUP1 ISZERO PUSH2 0x3C3 JUMPI RETURNDATASIZE PUSH0 PUSH0 RETURNDATACOPY RETURNDATASIZE PUSH0 REVERT JUMPDEST POP POP POP PUSH1 0x40 MLOAD RETURNDATASIZE PUSH1 0x1F NOT PUSH1 0x1F DUP3 ADD AND DUP3 ADD DUP1 PUSH1 0x40 MSTORE POP DUP2 ADD SWAP1 PUSH2 0x3E6 SWAP2 SWAP1 PUSH2 0xD53 JUMP JUMPDEST PUSH1 0x3 DUP4 PUSH1 0x40 MLOAD PUSH2 0x3F6 SWAP2 SWAP1 PUSH2 0xD13 JUMP JUMPDEST PUSH1 0x20 PUSH1 0x40 MLOAD DUP1 DUP4 SUB DUP2 DUP6 GAS STATICCALL ISZERO DUP1 ISZERO PUSH2 0x411 JUMPI RETURNDATASIZE PUSH0 PUSH0 RETURNDATACOPY RETURNDATASIZE PUSH0 REVERT JUMPDEST POP POP POP PUSH1 0x40 MLOAD MLOAD PUSH1 0x60 SHL DUP1 PUSH12 0xFFFFFFFFFFFFFFFFFFFFFFFF NOT AND SWAP1 POP SWAP4 POP SWAP4 POP SWAP4 POP POP SWAP2 SWAP4 SWAP1 SWAP3 POP JUMP JUMPDEST PUSH1 0x60 PUSH20 0x5B38DA6A701C568545DCFCB03FCB875F56BEDDC4 PUSH1 0x64 PUSH1 0x40 MLOAD PUSH1 0x24 ADD PUSH2 0x465 SWAP3 SWAP2 SWAP1 PUSH2 0xDCF JUMP JUMPDEST PUSH1 0x40 MLOAD PUSH1 0x20 DUP2 DUP4 SUB SUB DUP2 MSTORE SWAP1 PUSH1 0x40 MSTORE PUSH32 0x38E926D400000000000000000000000000000000000000000000000000000000 PUSH28 0xFFFFFFFFFFFFFFFFFFFFFFFFFFFFFFFFFFFFFFFFFFFFFFFFFFFFFFFF NOT AND PUSH1 0x20 DUP3 ADD DUP1 MLOAD PUSH28 0xFFFFFFFFFFFFFFFFFFFFFFFFFFFFFFFFFFFFFFFFFFFFFFFFFFFFFFFF DUP4 DUP2 DUP4 AND OR DUP4 MSTORE POP POP POP POP SWAP1 POP SWAP1 JUMP JUMPDEST PUSH0 PUSH32 0xFFFFFFFF00000000000000000000000000000000000000000000000000000000 DUP3 AND SWAP1 POP SWAP2 SWAP1 POP JUMP JUMPDEST PUSH2 0x51B DUP2 PUSH2 0x4E7 JUMP JUMPDEST DUP3 MSTORE POP POP JUMP JUMPDEST PUSH0 PUSH1 0x20 DUP3 ADD SWAP1 POP PUSH2 0x534 PUSH0 DUP4 ADD DUP5 PUSH2 0x512 JUMP JUMPDEST SWAP3 SWAP2 POP POP JUMP JUMPDEST PUSH0 PUSH1 0x40 MLOAD SWAP1 POP SWAP1 JUMP JUMPDEST PUSH0 PUSH0 REVERT JUMPDEST PUSH0 PUSH0 REVERT JUMPDEST PUSH0 DUP2 SWAP1 POP SWAP2 SWAP1 POP JUMP JUMPDEST PUSH2 0x55D DUP2 PUSH2 0x54B JUMP JUMPDEST DUP2 EQ PUSH2 0x567 JUMPI PUSH0 PUSH0 REVERT JUMPDEST POP JUMP JUMPDEST PUSH0 DUP2 CALLDATALOAD SWAP1 POP PUSH2 0x578 DUP2 PUSH2 0x554 JUMP JUMPDEST SWAP3 SWAP2 POP POP JUMP JUMPDEST PUSH0 PUSH0 PUSH0 PUSH1 0x60 DUP5 DUP7 SUB SLT ISZERO PUSH2 0x595 JUMPI PUSH2 0x594 PUSH2 0x543 JUMP JUMPDEST JUMPDEST PUSH0 PUSH2 0x5A2 DUP7 DUP3 DUP8 ADD PUSH2 0x56A JUMP JUMPDEST SWAP4 POP POP PUSH1 0x20 PUSH2 0x5B3 DUP7 DUP3 DUP8 ADD PUSH2 0x56A JUMP JUMPDEST SWAP3 POP POP PUSH1 0x40 PUSH2 0x5C4 DUP7 DUP3 DUP8 ADD PUSH2 0x56A JUMP JUMPDEST SWAP2 POP POP SWAP3 POP SWAP3 POP SWAP3 JUMP JUMPDEST PUSH2 0x5D7 DUP2 PUSH2 0x54B JUMP JUMPDEST DUP3 MSTORE POP POP JUMP JUMPDEST PUSH0 PUSH1 0x40 DUP3 ADD SWAP1 POP PUSH2 0x5F0 PUSH0 DUP4 ADD DUP6 PUSH2 0x5CE JUMP JUMPDEST PUSH2 0x5FD PUSH1 0x20 DUP4 ADD DUP5 PUSH2 0x5CE JUMP JUMPDEST SWAP4 SWAP3 POP POP POP JUMP JUMPDEST PUSH0 PUSH0 REVERT JUMPDEST PUSH0 PUSH0 REVERT JUMPDEST PUSH0 PUSH1 0x1F NOT PUSH1 0x1F DUP4 ADD AND SWAP1 POP SWAP2 SWAP1 POP JUMP JUMPDEST PUSH32 0x4E487B7100000000000000000000000000000000000000000000000000000000 PUSH0 MSTORE PUSH1 0x41 PUSH1 0x4 MSTORE PUSH1 0x24 PUSH0 REVERT JUMPDEST PUSH2 0x652 DUP3 PUSH2 0x60C JUMP JUMPDEST DUP2 ADD DUP2 DUP2 LT PUSH8 0xFFFFFFFFFFFFFFFF DUP3 GT OR ISZERO PUSH2 0x671 JUMPI PUSH2 0x670 PUSH2 0x61C JUMP JUMPDEST JUMPDEST DUP1 PUSH1 0x40 MSTORE POP POP POP JUMP JUMPDEST PUSH0 PUSH2 0x683 PUSH2 0x53A JUMP JUMPDEST SWAP1 POP PUSH2 0x68F DUP3 DUP3 PUSH2 0x649 JUMP JUMPDEST SWAP2 SWAP1 POP JUMP JUMPDEST PUSH0 PUSH8 0xFFFFFFFFFFFFFFFF DUP3 GT ISZERO PUSH2 0x6AE JUMPI PUSH2 0x6AD PUSH2 0x61C JUMP JUMPDEST JUMPDEST PUSH2 0x6B7 DUP3 PUSH2 0x60C JUMP JUMPDEST SWAP1 POP PUSH1 0x20 DUP2 ADD SWAP1 POP SWAP2 SWAP1 POP JUMP JUMPDEST DUP3 DUP2 DUP4 CALLDATACOPY PUSH0 DUP4 DUP4 ADD MSTORE POP POP POP JUMP JUMPDEST PUSH0 PUSH2 0x6E4 PUSH2 0x6DF DUP5 PUSH2 0x694 JUMP JUMPDEST PUSH2 0x67A JUMP JUMPDEST SWAP1 POP DUP3 DUP2 MSTORE PUSH1 0x20 DUP2 ADD DUP5 DUP5 DUP5 ADD GT ISZERO PUSH2 0x700 JUMPI PUSH2 0x6FF PUSH2 0x608 JUMP JUMPDEST JUMPDEST PUSH2 0x70B DUP5 DUP3 DUP6 PUSH2 0x6C4 JUMP JUMPDEST POP SWAP4 SWAP3 POP POP POP JUMP JUMPDEST PUSH0 DUP3 PUSH1 0x1F DUP4 ADD SLT PUSH2 0x727 JUMPI PUSH2 0x726 PUSH2 0x604 JUMP JUMPDEST JUMPDEST DUP2 CALLDATALOAD PUSH2 0x737 DUP5 DUP3 PUSH1 0x20 DUP7 ADD PUSH2 0x6D2 JUMP JUMPDEST SWAP2 POP POP SWAP3 SWAP2 POP POP JUMP JUMPDEST PUSH0 PUSH1 0x20 DUP3 DUP5 SUB SLT ISZERO PUSH2 0x755 JUMPI PUSH2 0x754 PUSH2 0x543 JUMP JUMPDEST JUMPDEST PUSH0 DUP3 ADD CALLDATALOAD PUSH8 0xFFFFFFFFFFFFFFFF DUP2 GT ISZERO PUSH2 0x772 JUMPI PUSH2 0x771 PUSH2 0x547 JUMP JUMPDEST JUMPDEST PUSH2 0x77E DUP5 DUP3 DUP6 ADD PUSH2 0x713 JUMP JUMPDEST SWAP2 POP POP SWAP3 SWAP2 POP POP JUMP JUMPDEST PUSH0 DUP2 MLOAD SWAP1 POP SWAP2 SWAP1 POP JUMP JUMPDEST PUSH0 DUP3 DUP3 MSTORE PUSH1 0x20 DUP3 ADD SWAP1 POP SWAP3 SWAP2 POP POP JUMP JUMPDEST DUP3 DUP2 DUP4 MCOPY PUSH0 DUP4 DUP4 ADD MSTORE POP POP POP JUMP JUMPDEST PUSH0 PUSH2 0x7B9 DUP3 PUSH2 0x787 JUMP JUMPDEST PUSH2 0x7C3 DUP2 DUP6 PUSH2 0x791 JUMP JUMPDEST SWAP4 POP PUSH2 0x7D3 DUP2 DUP6 PUSH1 0x20 DUP7 ADD PUSH2 0x7A1 JUMP JUMPDEST PUSH2 0x7DC DUP2 PUSH2 0x60C JUMP JUMPDEST DUP5 ADD SWAP2 POP POP SWAP3 SWAP2 POP POP JUMP JUMPDEST PUSH0 PUSH1 0xFF DUP3 AND SWAP1 POP SWAP2 SWAP1 POP JUMP JUMPDEST PUSH2 0x7FC DUP2 PUSH2 0x7E7 JUMP JUMPDEST DUP3 MSTORE POP POP JUMP JUMPDEST PUSH0 PUSH1 0x40 DUP3 ADD SWAP1 POP DUP2 DUP2 SUB PUSH0 DUP4 ADD MSTORE PUSH2 0x81A DUP2 DUP6 PUSH2 0x7AF JUMP JUMPDEST SWAP1 POP PUSH2 0x829 PUSH1 0x20 DUP4 ADD DUP5 PUSH2 0x7F3 JUMP JUMPDEST SWAP4 SWAP3 POP POP POP JUMP JUMPDEST PUSH0 PUSH8 0xFFFFFFFFFFFFFFFF DUP3 GT ISZERO PUSH2 0x84A JUMPI PUSH2 0x849 PUSH2 0x61C JUMP JUMPDEST JUMPDEST PUSH2 0x853 DUP3 PUSH2 0x60C JUMP JUMPDEST SWAP1 POP PUSH1 0x20 DUP2 ADD SWAP1 POP SWAP2 SWAP1 POP JUMP JUMPDEST PUSH0 PUSH2 0x872 PUSH2 0x86D DUP5 PUSH2 0x830 JUMP JUMPDEST PUSH2 0x67A JUMP JUMPDEST SWAP1 POP DUP3 DUP2 MSTORE PUSH1 0x20 DUP2 ADD DUP5 DUP5 DUP5 ADD GT ISZERO PUSH2 0x88E JUMPI PUSH2 0x88D PUSH2 0x608 JUMP JUMPDEST JUMPDEST PUSH2 0x899 DUP5 DUP3 DUP6 PUSH2 0x6C4 JUMP JUMPDEST POP SWAP4 SWAP3 POP POP POP JUMP JUMPDEST PUSH0 DUP3 PUSH1 0x1F DUP4 ADD SLT PUSH2 0x8B5 JUMPI PUSH2 0x8B4 PUSH2 0x604 JUMP JUMPDEST JUMPDEST DUP2 CALLDATALOAD PUSH2 0x8C5 DUP5 DUP3 PUSH1 0x20 DUP7 ADD PUSH2 0x860 JUMP JUMPDEST SWAP2 POP POP SWAP3 SWAP2 POP POP JUMP JUMPDEST PUSH0 PUSH1 0x20 DUP3 DUP5 SUB SLT ISZERO PUSH2 0x8E3 JUMPI PUSH2 0x8E2 PUSH2 0x543 JUMP JUMPDEST JUMPDEST PUSH0 DUP3 ADD CALLDATALOAD PUSH8 0xFFFFFFFFFFFFFFFF DUP2 GT ISZERO PUSH2 0x900 JUMPI PUSH2 0x8FF PUSH2 0x547 JUMP JUMPDEST JUMPDEST PUSH2 0x90C DUP5 DUP3 DUP6 ADD PUSH2 0x8A1 JUMP JUMPDEST SWAP2 POP POP SWAP3 SWAP2 POP POP JUMP JUMPDEST PUSH2 0x91E DUP2 PUSH2 0x7E7 JUMP JUMPDEST DUP2 EQ PUSH2 0x928 JUMPI PUSH0 PUSH0 REVERT JUMPDEST POP JUMP JUMPDEST PUSH0 DUP2 CALLDATALOAD SWAP1 POP PUSH2 0x939 DUP2 PUSH2 0x915 JUMP JUMPDEST SWAP3 SWAP2 POP POP JUMP JUMPDEST PUSH0 PUSH0 PUSH1 0x40 DUP4 DUP6 SUB SLT ISZERO PUSH2 0x955 JUMPI PUSH2 0x954 PUSH2 0x543 JUMP JUMPDEST JUMPDEST PUSH0 DUP4 ADD CALLDATALOAD PUSH8 0xFFFFFFFFFFFFFFFF DUP2 GT ISZERO PUSH2 0x972 JUMPI PUSH2 0x971 PUSH2 0x547 JUMP JUMPDEST JUMPDEST PUSH2 0x97E DUP6 DUP3 DUP7 ADD PUSH2 0x8A1 JUMP JUMPDEST SWAP3 POP POP PUSH1 0x20 PUSH2 0x98F DUP6 DUP3 DUP7 ADD PUSH2 0x92B JUMP JUMPDEST SWAP2 POP POP SWAP3 POP SWAP3 SWAP1 POP JUMP JUMPDEST PUSH0 DUP2 MLOAD SWAP1 POP SWAP2 SWAP1 POP JUMP JUMPDEST PUSH0 DUP3 DUP3 MSTORE PUSH1 0x20 DUP3 ADD SWAP1 POP SWAP3 SWAP2 POP POP JUMP JUMPDEST PUSH0 PUSH2 0x9BD DUP3 PUSH2 0x999 JUMP JUMPDEST PUSH2 0x9C7 DUP2 DUP6 PUSH2 0x9A3 JUMP JUMPDEST SWAP4 POP PUSH2 0x9D7 DUP2 DUP6 PUSH1 0x20 DUP7 ADD PUSH2 0x7A1 JUMP JUMPDEST PUSH2 0x9E0 DUP2 PUSH2 0x60C JUMP JUMPDEST DUP5 ADD SWAP2 POP POP SWAP3 SWAP2 POP POP JUMP JUMPDEST PUSH0 PUSH1 0x40 DUP3 ADD SWAP1 POP DUP2 DUP2 SUB PUSH0 DUP4 ADD MSTORE PUSH2 0xA03 DUP2 DUP6 PUSH2 0x9B3 JUMP JUMPDEST SWAP1 POP DUP2 DUP2 SUB PUSH1 0x20 DUP4 ADD MSTORE PUSH2 0xA17 DUP2 DUP5 PUSH2 0x9B3 JUMP JUMPDEST SWAP1 POP SWAP4 SWAP3 POP POP POP JUMP JUMPDEST PUSH0 PUSH20 0xFFFFFFFFFFFFFFFFFFFFFFFFFFFFFFFFFFFFFFFF DUP3 AND SWAP1 POP SWAP2 SWAP1 POP JUMP JUMPDEST PUSH0 PUSH2 0xA49 DUP3 PUSH2 0xA20 JUMP JUMPDEST SWAP1 POP SWAP2 SWAP1 POP JUMP JUMPDEST PUSH2 0xA59 DUP2 PUSH2 0xA3F JUMP JUMPDEST DUP2 EQ PUSH2 0xA63 JUMPI PUSH0 PUSH0 REVERT JUMPDEST POP JUMP JUMPDEST PUSH0 DUP2 CALLDATALOAD SWAP1 POP PUSH2 0xA74 DUP2 PUSH2 0xA50 JUMP JUMPDEST SWAP3 SWAP2 POP POP JUMP JUMPDEST PUSH0 PUSH0 PUSH1 0x40 DUP4 DUP6 SUB SLT ISZERO PUSH2 0xA90 JUMPI PUSH2 0xA8F PUSH2 0x543 JUMP JUMPDEST JUMPDEST PUSH0 PUSH2 0xA9D DUP6 DUP3 DUP7 ADD PUSH2 0xA66 JUMP JUMPDEST SWAP3 POP POP PUSH1 0x20 PUSH2 0xAAE DUP6 DUP3 DUP7 ADD PUSH2 0x56A JUMP JUMPDEST SWAP2 POP POP SWAP3 POP SWAP3 SWAP1 POP JUMP JUMPDEST PUSH0 PUSH1 0x20 DUP3 ADD SWAP1 POP DUP2 DUP2 SUB PUSH0 DUP4 ADD MSTORE PUSH2 0xAD0 DUP2 DUP5 PUSH2 0x9B3 JUMP JUMPDEST SWAP1 POP SWAP3 SWAP2 POP POP JUMP JUMPDEST PUSH0 DUP2 SWAP1 POP SWAP2 SWAP1 POP JUMP JUMPDEST PUSH2 0xAEA DUP2 PUSH2 0xAD8 JUMP JUMPDEST DUP3 MSTORE POP POP JUMP JUMPDEST PUSH0 PUSH1 0x60 DUP3 ADD SWAP1 POP PUSH2 0xB03 PUSH0 DUP4 ADD DUP7 PUSH2 0xAE1 JUMP JUMPDEST PUSH2 0xB10 PUSH1 0x20 DUP4 ADD DUP6 PUSH2 0xAE1 JUMP JUMPDEST PUSH2 0xB1D PUSH1 0x40 DUP4 ADD DUP5 PUSH2 0xAE1 JUMP JUMPDEST SWAP5 SWAP4 POP POP POP POP JUMP JUMPDEST PUSH32 0x4E487B7100000000000000000000000000000000000000000000000000000000 PUSH0 MSTORE PUSH1 0x12 PUSH1 0x4 MSTORE PUSH1 0x24 PUSH0 REVERT JUMPDEST PUSH0 PUSH2 0xB64 PUSH2 0xB5F DUP5 PUSH2 0x830 JUMP JUMPDEST PUSH2 0x67A JUMP JUMPDEST SWAP1 POP DUP3 DUP2 MSTORE PUSH1 0x20 DUP2 ADD DUP5 DUP5 DUP5 ADD GT ISZERO PUSH2 0xB80 JUMPI PUSH2 0xB7F PUSH2 0x608 JUMP JUMPDEST JUMPDEST PUSH2 0xB8B DUP5 DUP3 DUP6 PUSH2 0x7A1 JUMP JUMPDEST POP SWAP4 SWAP3 POP POP POP JUMP JUMPDEST PUSH0 DUP3 PUSH1 0x1F DUP4 ADD SLT PUSH2 0xBA7 JUMPI PUSH2 0xBA6 PUSH2 0x604 JUMP JUMPDEST JUMPDEST DUP2 MLOAD PUSH2 0xBB7 DUP5 DUP3 PUSH1 0x20 DUP7 ADD PUSH2 0xB52 JUMP JUMPDEST SWAP2 POP POP SWAP3 SWAP2 POP POP JUMP JUMPDEST PUSH0 DUP2 MLOAD SWAP1 POP PUSH2 0xBCE DUP2 PUSH2 0x915 JUMP JUMPDEST SWAP3 SWAP2 POP POP JUMP JUMPDEST PUSH0 PUSH0 PUSH1 0x40 DUP4 DUP6 SUB SLT ISZERO PUSH2 0xBEA JUMPI PUSH2 0xBE9 PUSH2 0x543 JUMP JUMPDEST JUMPDEST PUSH0 DUP4 ADD MLOAD PUSH8 0xFFFFFFFFFFFFFFFF DUP2 GT ISZERO PUSH2 0xC07 JUMPI PUSH2 0xC06 PUSH2 0x547 JUMP JUMPDEST JUMPDEST PUSH2 0xC13 DUP6 DUP3 DUP7 ADD PUSH2 0xB93 JUMP JUMPDEST SWAP3 POP POP PUSH1 0x20 PUSH2 0xC24 DUP6 DUP3 DUP7 ADD PUSH2 0xBC0 JUMP JUMPDEST SWAP2 POP POP SWAP3 POP SWAP3 SWAP1 POP JUMP JUMPDEST PUSH0 DUP2 SWAP1 POP SWAP3 SWAP2 POP POP JUMP JUMPDEST PUSH0 PUSH2 0xC42 DUP3 PUSH2 0x787 JUMP JUMPDEST PUSH2 0xC4C DUP2 DUP6 PUSH2 0xC2E JUMP JUMPDEST SWAP4 POP PUSH2 0xC5C DUP2 DUP6 PUSH1 0x20 DUP7 ADD PUSH2 0x7A1 JUMP JUMPDEST DUP1 DUP5 ADD SWAP2 POP POP SWAP3 SWAP2 POP POP JUMP JUMPDEST PUSH0 DUP2 PUSH1 0xF8 SHL SWAP1 POP SWAP2 SWAP1 POP JUMP JUMPDEST PUSH0 PUSH2 0xC7E DUP3 PUSH2 0xC68 JUMP JUMPDEST SWAP1 POP SWAP2 SWAP1 POP JUMP JUMPDEST PUSH2 0xC96 PUSH2 0xC91 DUP3 PUSH2 0x7E7 JUMP JUMPDEST PUSH2 0xC74 JUMP JUMPDEST DUP3 MSTORE POP POP JUMP JUMPDEST PUSH0 PUSH2 0xCA7 DUP3 DUP6 PUSH2 0xC38 JUMP JUMPDEST SWAP2 POP PUSH2 0xCB3 DUP3 DUP5 PUSH2 0xC85 JUMP JUMPDEST PUSH1 0x1 DUP3 ADD SWAP2 POP DUP2 SWAP1 POP SWAP4 SWAP3 POP POP POP JUMP JUMPDEST PUSH0 PUSH2 0xCCE DUP3 DUP5 PUSH2 0xC38 JUMP JUMPDEST SWAP2 POP DUP2 SWAP1 POP SWAP3 SWAP2 POP POP JUMP JUMPDEST PUSH0 DUP2 SWAP1 POP SWAP3 SWAP2 POP POP JUMP JUMPDEST PUSH0 PUSH2 0xCED DUP3 PUSH2 0x999 JUMP JUMPDEST PUSH2 0xCF7 DUP2 DUP6 PUSH2 0xCD9 JUMP JUMPDEST SWAP4 POP PUSH2 0xD07 DUP2 DUP6 PUSH1 0x20 DUP7 ADD PUSH2 0x7A1 JUMP JUMPDEST DUP1 DUP5 ADD SWAP2 POP POP SWAP3 SWAP2 POP POP JUMP JUMPDEST PUSH0 PUSH2 0xD1E DUP3 DUP5 PUSH2 0xCE3 JUMP JUMPDEST SWAP2 POP DUP2 SWAP1 POP SWAP3 SWAP2 POP POP JUMP JUMPDEST PUSH2 0xD32 DUP2 PUSH2 0xAD8 JUMP JUMPDEST DUP2 EQ PUSH2 0xD3C JUMPI PUSH0 PUSH0 REVERT JUMPDEST POP JUMP JUMPDEST PUSH0 DUP2 MLOAD SWAP1 POP PUSH2 0xD4D DUP2 PUSH2 0xD29 JUMP JUMPDEST SWAP3 SWAP2 POP POP JUMP JUMPDEST PUSH0 PUSH1 0x20 DUP3 DUP5 SUB SLT ISZERO PUSH2 0xD68 JUMPI PUSH2 0xD67 PUSH2 0x543 JUMP JUMPDEST JUMPDEST PUSH0 PUSH2 0xD75 DUP5 DUP3 DUP6 ADD PUSH2 0xD3F JUMP JUMPDEST SWAP2 POP POP SWAP3 SWAP2 POP POP JUMP JUMPDEST PUSH2 0xD87 DUP2 PUSH2 0xA3F JUMP JUMPDEST DUP3 MSTORE POP POP JUMP JUMPDEST PUSH0 DUP2 SWAP1 POP SWAP2 SWAP1 POP JUMP JUMPDEST PUSH0 DUP2 SWAP1 POP SWAP2 SWAP1 POP JUMP JUMPDEST PUSH0 PUSH2 0xDB9 PUSH2 0xDB4 PUSH2 0xDAF DUP5 PUSH2 0xD8D JUMP JUMPDEST PUSH2 0xD96 JUMP JUMPDEST PUSH2 0x7E7 JUMP JUMPDEST SWAP1 POP SWAP2 SWAP1 POP JUMP JUMPDEST PUSH2 0xDC9 DUP2 PUSH2 0xD9F JUMP JUMPDEST DUP3 MSTORE POP POP JUMP JUMPDEST PUSH0 PUSH1 0x40 DUP3 ADD SWAP1 POP PUSH2 0xDE2 PUSH0 DUP4 ADD DUP6 PUSH2 0xD7E JUMP JUMPDEST PUSH2 0xDEF PUSH1 0x20 DUP4 ADD DUP5 PUSH2 0xDC0 JUMP JUMPDEST SWAP4 SWAP3 POP POP POP JUMP INVALID LOG2 PUSH5 0x6970667358 0x22 SLT KECCAK256 CALLCODE 0xC8 EXTCALL SMOD CALLVALUE DUP2 TLOAD PUSH3 0xB1B10E MOD 0xB5 0xD2 0xC0 DUP6 PUSH10 0x5761267604FB6707C5BD PUSH22 0xF7D5B57964736F6C634300081E003300000000000000 "
		},
		"gasEstimates": {
			"creation": {
				"codeDepositCost": "725600",
				"executionCost": "758",
				"totalCost": "726358"
			},
			"external": {
				"computeSelector(string)": "infinite",
				"decodeData(bytes)": "infinite",
				"encodeData(string,uint8)": "infinite",
				"encodeFunctionCall()": "infinite",
				"getSelector()": "347",
				"getSelector2()": "346",
				"hashFunctions(string)": "infinite",
				"moduarMath(uint256,uint256,uint256)": "infinite",
				"transfer(address,uint256)": "infinite"
			}
		},
		"methodIdentifiers": {
			"computeSelector(string)": "68bc2ad1",
			"decodeData(bytes)": "447a06f5",
			"encodeData(string,uint8)": "7aae5694",
			"encodeFunctionCall()": "f435898b",
			"getSelector()": "034899bc",
			"getSelector2()": "6c815652",
			"hashFunctions(string)": "b2b34f77",
			"moduarMath(uint256,uint256,uint256)": "24b108e3",
			"transfer(address,uint256)": "a9059cbb"
		}
	},
	"abi": [
		{
			"inputs": [
				{
					"internalType": "string",
					"name": "func",
					"type": "string"
				}
			],
			"name": "computeSelector",
			"outputs": [
				{
					"internalType": "bytes4",
					"name": "",
					"type": "bytes4"
				}
			],
			"stateMutability": "pure",
			"type": "function"
		},
		{
			"inputs": [
				{
					"internalType": "bytes",
					"name": "data",
					"type": "bytes"
				}
			],
			"name": "decodeData",
			"outputs": [
				{
					"internalType": "string",
					"name": "",
					"type": "string"
				},
				{
					"internalType": "uint8",
					"name": "",
					"type": "uint8"
				}
			],
			"stateMutability": "pure",
			"type": "function"
		},
		{
			"inputs": [
				{
					"internalType": "string",
					"name": "name",
					"type": "string"
				},
				{
					"internalType": "uint8",
					"name": "age",
					"type": "uint8"
				}
			],
			"name": "encodeData",
			"outputs": [
				{
					"internalType": "bytes",
					"name": "",
					"type": "bytes"
				},
				{
					"internalType": "bytes",
					"name": "",
					"type": "bytes"
				}
			],
			"stateMutability": "pure",
			"type": "function"
		},
		{
			"inputs": [],
			"name": "encodeFunctionCall",
			"outputs": [
				{
					"internalType": "bytes",
					"name": "",
					"type": "bytes"
				}
			],
			"stateMutability": "pure",
			"type": "function"
		},
		{
			"inputs": [],
			"name": "getSelector",
			"outputs": [
				{
					"internalType": "bytes4",
					"name": "",
					"type": "bytes4"
				}
			],
			"stateMutability": "pure",
			"type": "function"
		},
		{
			"inputs": [],
			"name": "getSelector2",
			"outputs": [
				{
					"internalType": "bytes4",
					"name": "",
					"type": "bytes4"
				}
			],
			"stateMutability": "pure",
			"type": "function"
		},
		{
			"inputs": [
				{
					"internalType": "string",
					"name": "input",
					"type": "string"
				}
			],
			"name": "hashFunctions",
			"outputs": [
				{
					"internalType": "bytes32",
					"name": "",
					"type": "bytes32"
				},
				{
					"internalType": "bytes32",
					"name": "",
					"type": "bytes32"
				},
				{
					"internalType": "bytes32",
					"name": "",
					"type": "bytes32"
				}
			],
			"stateMutability": "pure",
			"type": "function"
		},
		{
			"inputs": [
				{
					"internalType": "uint256",
					"name": "x",
					"type": "uint256"
				},
				{
					"internalType": "uint256",
					"name": "y",
					"type": "uint256"
				},
				{
					"internalType": "uint256",
					"name": "m",
					"type": "uint256"
				}
			],
			"name": "moduarMath",
			"outputs": [
				{
					"internalType": "uint256",
					"name": "",
					"type": "uint256"
				},
				{
					"internalType": "uint256",
					"name": "",
					"type": "uint256"
				}
			],
			"stateMutability": "pure",
			"type": "function"
		},
		{
			"inputs": [
				{
					"internalType": "address",
					"name": "addr",
					"type": "address"
				},
				{
					"internalType": "uint256",
					"name": "amount",
					"type": "uint256"
				}
			],
			"name": "transfer",
			"outputs": [
				{
					"internalType": "bytes",
					"name": "",
					"type": "bytes"
				}
			],
			"stateMutability": "pure",
			"type": "function"
		}
	]
}