{
	"data": {
		"bytecode": {
			"linkReferences": {},
			"object": "6080604052348015600e575f5ffd5b5061015c8061001c5f395ff3fe608060405234801561000f575f5ffd5b5060043610610029575f3560e01c8063aa1037901461002d575b5f5ffd5b610035610050565b604051610047969594939291906100c7565b60405180910390f35b5f5f5f5f5f5f434241444548955095509550955095509550909192939495565b5f819050919050565b61008281610070565b82525050565b5f73ffffffffffffffffffffffffffffffffffffffff82169050919050565b5f6100b182610088565b9050919050565b6100c1816100a7565b82525050565b5f60c0820190506100da5f830189610079565b6100e76020830188610079565b6100f460408301876100b8565b6101016060830186610079565b61010e6080830185610079565b61011b60a0830184610079565b97965050505050505056fea26469706673582212208002c78939e7d26d055d07b837163beb61e3838d2136c9c96de92e6398392e3564736f6c634300081e0033",
			"opcodes": "PUSH1 0x80 PUSH1 0x40 MSTORE CALLVALUE DUP1 ISZERO PUSH1 0xE JUMPI PUSH0 PUSH0 REVERT JUMPDEST POP PUSH2 0x15C DUP1 PUSH2 0x1C PUSH0 CODECOPY PUSH0 RETURN INVALID PUSH1 0x80 PUSH1 0x40 MSTORE CALLVALUE DUP1 ISZERO PUSH2 0xF JUMPI PUSH0 PUSH0 REVERT JUMPDEST POP PUSH1 0x4 CALLDATASIZE LT PUSH2 0x29 JUMPI PUSH0 CALLDATALOAD PUSH1 0xE0 SHR DUP1 PUSH4 0xAA103790 EQ PUSH2 0x2D JUMPI JUMPDEST PUSH0 PUSH0 REVERT JUMPDEST PUSH2 0x35 PUSH2 0x50 JUMP JUMPDEST PUSH1 0x40 MLOAD PUSH2 0x47 SWAP7 SWAP6 SWAP5 SWAP4 SWAP3 SWAP2 SWAP1 PUSH2 0xC7 JUMP JUMPDEST PUSH1 0x40 MLOAD DUP1 SWAP2 SUB SWAP1 RETURN JUMPDEST PUSH0 PUSH0 PUSH0 PUSH0 PUSH0 PUSH0 NUMBER TIMESTAMP COINBASE PREVRANDAO GASLIMIT BASEFEE SWAP6 POP SWAP6 POP SWAP6 POP SWAP6 POP SWAP6 POP SWAP6 POP SWAP1 SWAP2 SWAP3 SWAP4 SWAP5 SWAP6 JUMP JUMPDEST PUSH0 DUP2 SWAP1 POP SWAP2 SWAP1 POP JUMP JUMPDEST PUSH2 0x82 DUP2 PUSH2 0x70 JUMP JUMPDEST DUP3 MSTORE POP POP JUMP JUMPDEST PUSH0 PUSH20 0xFFFFFFFFFFFFFFFFFFFFFFFFFFFFFFFFFFFFFFFF DUP3 AND SWAP1 POP SWAP2 SWAP1 POP JUMP JUMPDEST PUSH0 PUSH2 0xB1 DUP3 PUSH2 0x88 JUMP JUMPDEST SWAP1 POP SWAP2 SWAP1 POP JUMP JUMPDEST PUSH2 0xC1 DUP2 PUSH2 0xA7 JUMP JUMPDEST DUP3 MSTORE POP POP JUMP JUMPDEST PUSH0 PUSH1 0xC0 DUP3 ADD SWAP1 POP PUSH2 0xDA PUSH0 DUP4 ADD DUP10 PUSH2 0x79 JUMP JUMPDEST PUSH2 0xE7 PUSH1 0x20 DUP4 ADD DUP9 PUSH2 0x79 JUMP JUMPDEST PUSH2 0xF4 PUSH1 0x40 DUP4 ADD DUP8 PUSH2 0xB8 JUMP JUMPDEST PUSH2 0x101 PUSH1 0x60 DUP4 ADD DUP7 PUSH2 0x79 JUMP JUMPDEST PUSH2 0x10E PUSH1 0x80 DUP4 ADD DUP6 PUSH2 0x79 JUMP JUMPDEST PUSH2 0x11B PUSH1 0xA0 DUP4 ADD DUP5 PUSH2 0x79 JUMP JUMPDEST SWAP8 SWAP7 POP POP POP POP POP POP POP JUMP INVALID LOG2 PUSH5 0x6970667358 0x22 SLT KECCAK256 DUP1 MUL 0xC7 DUP10 CODECOPY SWAPN 0xD2 PUSH14 0x55D07B837163BEB61E3838D2136 0xC9 0xC9 PUSH14 0xE92E6398392E3564736F6C634300 ADDMOD 0x1E STOP CALLER "
		},
		"gasEstimates": {
			"creation": {
				"codeDepositCost": "69600",
				"executionCost": "115",
				"totalCost": "69715"
			},
			"external": {
				"testBlockInfo()": "infinite"
			}
		},
		"methodIdentifiers": {
			"testBlockInfo()": "aa103790"
		}
	},
	"abi": [
		{
			"inputs": [],
			"name": "testBlockInfo",
			"outputs": [
				{
					"internalType": "uint256",
					"name": "",
					"type": "uint256"
				},
				{
					"internalType": "uint256",
					"name": "",
					"type": "uint256"
				},
				{
					"internalType": "address",
					"name": "",
					"type": "address"
				},
				{
					"internalType": "uint256",
					"name": "",
					"type": "uint256"
				},
				{
					"internalType": "uint256",
					"name": "",
					"type": "uint256"
				},
				{
					"internalType": "uint256",
					"name": "",
					"type": "uint256"
				}
			],
			"stateMutability": "view",
			"type": "function"
		}
	]
}