{
	"data": {
		"bytecode": {
			"linkReferences": {},
			"object": "6080604052348015600e575f5ffd5b506101b98061001c5f395ff3fe608060405234801561000f575f5ffd5b5060043610610034575f3560e01c80635e87850814610038578063bd38216e14610057575b5f5ffd5b61004061007a565b60405161004e9291906100fd565b60405180910390f35b61005f610086565b60405161007196959493929190610124565b60405180910390f35b5f5f3a32915091509091565b5f5f5f5f5f5f434241444548955095509550955095509550909192939495565b5f819050919050565b6100b8816100a6565b82525050565b5f73ffffffffffffffffffffffffffffffffffffffff82169050919050565b5f6100e7826100be565b9050919050565b6100f7816100dd565b82525050565b5f6040820190506101105f8301856100af565b61011d60208301846100ee565b9392505050565b5f60c0820190506101375f8301896100af565b61014460208301886100af565b61015160408301876100ee565b61015e60608301866100af565b61016b60808301856100af565b61017860a08301846100af565b97965050505050505056fea26469706673582212207415638840519a7fdd7741cc22913bf12e3015e9834ffb8d6a9216f6ce5f1e7064736f6c634300081e0033",
			"opcodes": "PUSH1 0x80 PUSH1 0x40 MSTORE CALLVALUE DUP1 ISZERO PUSH1 0xE JUMPI PUSH0 PUSH0 REVERT JUMPDEST POP PUSH2 0x1B9 DUP1 PUSH2 0x1C PUSH0 CODECOPY PUSH0 RETURN INVALID PUSH1 0x80 PUSH1 0x40 MSTORE CALLVALUE DUP1 ISZERO PUSH2 0xF JUMPI PUSH0 PUSH0 REVERT JUMPDEST POP PUSH1 0x4 CALLDATASIZE LT PUSH2 0x34 JUMPI PUSH0 CALLDATALOAD PUSH1 0xE0 SHR DUP1 PUSH4 0x5E878508 EQ PUSH2 0x38 JUMPI DUP1 PUSH4 0xBD38216E EQ PUSH2 0x57 JUMPI JUMPDEST PUSH0 PUSH0 REVERT JUMPDEST PUSH2 0x40 PUSH2 0x7A JUMP JUMPDEST PUSH1 0x40 MLOAD PUSH2 0x4E SWAP3 SWAP2 SWAP1 PUSH2 0xFD JUMP JUMPDEST PUSH1 0x40 MLOAD DUP1 SWAP2 SUB SWAP1 RETURN JUMPDEST PUSH2 0x5F PUSH2 0x86 JUMP JUMPDEST PUSH1 0x40 MLOAD PUSH2 0x71 SWAP7 SWAP6 SWAP5 SWAP4 SWAP3 SWAP2 SWAP1 PUSH2 0x124 JUMP JUMPDEST PUSH1 0x40 MLOAD DUP1 SWAP2 SUB SWAP1 RETURN JUMPDEST PUSH0 PUSH0 GASPRICE ORIGIN SWAP2 POP SWAP2 POP SWAP1 SWAP2 JUMP JUMPDEST PUSH0 PUSH0 PUSH0 PUSH0 PUSH0 PUSH0 NUMBER TIMESTAMP COINBASE PREVRANDAO GASLIMIT BASEFEE SWAP6 POP SWAP6 POP SWAP6 POP SWAP6 POP SWAP6 POP SWAP6 POP SWAP1 SWAP2 SWAP3 SWAP4 SWAP5 SWAP6 JUMP JUMPDEST PUSH0 DUP2 SWAP1 POP SWAP2 SWAP1 POP JUMP JUMPDEST PUSH2 0xB8 DUP2 PUSH2 0xA6 JUMP JUMPDEST DUP3 MSTORE POP POP JUMP JUMPDEST PUSH0 PUSH20 0xFFFFFFFFFFFFFFFFFFFFFFFFFFFFFFFFFFFFFFFF DUP3 AND SWAP1 POP SWAP2 SWAP1 POP JUMP JUMPDEST PUSH0 PUSH2 0xE7 DUP3 PUSH2 0xBE JUMP JUMPDEST SWAP1 POP SWAP2 SWAP1 POP JUMP JUMPDEST PUSH2 0xF7 DUP2 PUSH2 0xDD JUMP JUMPDEST DUP3 MSTORE POP POP JUMP JUMPDEST PUSH0 PUSH1 0x40 DUP3 ADD SWAP1 POP PUSH2 0x110 PUSH0 DUP4 ADD DUP6 PUSH2 0xAF JUMP JUMPDEST PUSH2 0x11D PUSH1 0x20 DUP4 ADD DUP5 PUSH2 0xEE JUMP JUMPDEST SWAP4 SWAP3 POP POP POP JUMP JUMPDEST PUSH0 PUSH1 0xC0 DUP3 ADD SWAP1 POP PUSH2 0x137 PUSH0 DUP4 ADD DUP10 PUSH2 0xAF JUMP JUMPDEST PUSH2 0x144 PUSH1 0x20 DUP4 ADD DUP9 PUSH2 0xAF JUMP JUMPDEST PUSH2 0x151 PUSH1 0x40 DUP4 ADD DUP8 PUSH2 0xEE JUMP JUMPDEST PUSH2 0x15E PUSH1 0x60 DUP4 ADD DUP7 PUSH2 0xAF JUMP JUMPDEST PUSH2 0x16B PUSH1 0x80 DUP4 ADD DUP6 PUSH2 0xAF JUMP JUMPDEST PUSH2 0x178 PUSH1 0xA0 DUP4 ADD DUP5 PUSH2 0xAF JUMP JUMPDEST SWAP8 SWAP7 POP POP POP POP POP POP POP JUMP INVALID LOG2 PUSH5 0x6970667358 0x22 SLT KECCAK256 PUSH21 0x15638840519A7FDD7741CC22913BF12E3015E9834F EXTSTATICCALL DUP14 PUSH11 0x9216F6CE5F1E7064736F6C PUSH4 0x4300081E STOP CALLER "
		},
		"gasEstimates": {
			"creation": {
				"codeDepositCost": "88200",
				"executionCost": "133",
				"totalCost": "88333"
			},
			"external": {
				"getBlockDetails()": "infinite",
				"getTxInfo()": "468"
			}
		},
		"methodIdentifiers": {
			"getBlockDetails()": "bd38216e",
			"getTxInfo()": "5e878508"
		}
	},
	"abi": [
		{
			"inputs": [],
			"name": "getBlockDetails",
			"outputs": [
				{
					"internalType": "uint256",
					"name": "",
					"type": "uint256"
				},
				{
					"internalType": "uint256",
					"name": "",
					"type": "uint256"
				},
				{
					"internalType": "address",
					"name": "",
					"type": "address"
				},
				{
					"internalType": "uint256",
					"name": "",
					"type": "uint256"
				},
				{
					"internalType": "uint256",
					"name": "",
					"type": "uint256"
				},
				{
					"internalType": "uint256",
					"name": "",
					"type": "uint256"
				}
			],
			"stateMutability": "view",
			"type": "function"
		},
		{
			"inputs": [],
			"name": "getTxInfo",
			"outputs": [
				{
					"internalType": "uint256",
					"name": "",
					"type": "uint256"
				},
				{
					"internalType": "address",
					"name": "",
					"type": "address"
				}
			],
			"stateMutability": "view",
			"type": "function"
		}
	]
}