{
	"data": {
		"bytecode": {
			"linkReferences": {},
			"object": "6080604052348015600e575f5ffd5b5061034e8061001c5f395ff3fe60806040526004361061003e575f3560e01c806332a2c5d0146100425780636f9fb98a1461006c5780638d2bafde14610096578063fad5c13c146100b5575b5f5ffd5b34801561004d575f5ffd5b506100566100d6565b60405161006391906101b3565b60405180910390f35b348015610077575f5ffd5b506100806100dd565b60405161008d91906101e4565b60405180910390f35b61009e6100e4565b6040516100ac9291906101fd565b60405180910390f35b6100bd6100f0565b6040516100cd94939291906102ce565b60405180910390f35b5f30905090565b5f47905090565b5f5f3334915091509091565b5f5f60605f33345f365f357fffffffff000000000000000000000000000000000000000000000000000000001682828080601f0160208091040260200160405190810160405280939291908181526020018383808284375f81840152601f19601f820116905080830192505050505050509150909150935093509350935090919293565b5f73ffffffffffffffffffffffffffffffffffffffff82169050919050565b5f61019d82610174565b9050919050565b6101ad81610193565b82525050565b5f6020820190506101c65f8301846101a4565b92915050565b5f819050919050565b6101de816101cc565b82525050565b5f6020820190506101f75f8301846101d5565b92915050565b5f6040820190506102105f8301856101a4565b61021d60208301846101d5565b9392505050565b5f81519050919050565b5f82825260208201905092915050565b8281835e5f83830152505050565b5f601f19601f8301169050919050565b5f61026682610224565b610270818561022e565b935061028081856020860161023e565b6102898161024c565b840191505092915050565b5f7fffffffff0000000000000000000000000000000000000000000000000000000082169050919050565b6102c881610294565b82525050565b5f6080820190506102e15f8301876101a4565b6102ee60208301866101d5565b8181036040830152610300818561025c565b905061030f60608301846102bf565b9594505050505056fea264697066735822122015010e425f3a0a606d58789d876049a395ae99d025db9ea96db29257a5bb02af64736f6c634300081e0033",
			"opcodes": "PUSH1 0x80 PUSH1 0x40 MSTORE CALLVALUE DUP1 ISZERO PUSH1 0xE JUMPI PUSH0 PUSH0 REVERT JUMPDEST POP PUSH2 0x34E DUP1 PUSH2 0x1C PUSH0 CODECOPY PUSH0 RETURN INVALID PUSH1 0x80 PUSH1 0x40 MSTORE PUSH1 0x4 CALLDATASIZE LT PUSH2 0x3E JUMPI PUSH0 CALLDATALOAD PUSH1 0xE0 SHR DUP1 PUSH4 0x32A2C5D0 EQ PUSH2 0x42 JUMPI DUP1 PUSH4 0x6F9FB98A EQ PUSH2 0x6C JUMPI DUP1 PUSH4 0x8D2BAFDE EQ PUSH2 0x96 JUMPI DUP1 PUSH4 0xFAD5C13C EQ PUSH2 0xB5 JUMPI JUMPDEST PUSH0 PUSH0 REVERT JUMPDEST CALLVALUE DUP1 ISZERO PUSH2 0x4D JUMPI PUSH0 PUSH0 REVERT JUMPDEST POP PUSH2 0x56 PUSH2 0xD6 JUMP JUMPDEST PUSH1 0x40 MLOAD PUSH2 0x63 SWAP2 SWAP1 PUSH2 0x1B3 JUMP JUMPDEST PUSH1 0x40 MLOAD DUP1 SWAP2 SUB SWAP1 RETURN JUMPDEST CALLVALUE DUP1 ISZERO PUSH2 0x77 JUMPI PUSH0 PUSH0 REVERT JUMPDEST POP PUSH2 0x80 PUSH2 0xDD JUMP JUMPDEST PUSH1 0x40 MLOAD PUSH2 0x8D SWAP2 SWAP1 PUSH2 0x1E4 JUMP JUMPDEST PUSH1 0x40 MLOAD DUP1 SWAP2 SUB SWAP1 RETURN JUMPDEST PUSH2 0x9E PUSH2 0xE4 JUMP JUMPDEST PUSH1 0x40 MLOAD PUSH2 0xAC SWAP3 SWAP2 SWAP1 PUSH2 0x1FD JUMP JUMPDEST PUSH1 0x40 MLOAD DUP1 SWAP2 SUB SWAP1 RETURN JUMPDEST PUSH2 0xBD PUSH2 0xF0 JUMP JUMPDEST PUSH1 0x40 MLOAD PUSH2 0xCD SWAP5 SWAP4 SWAP3 SWAP2 SWAP1 PUSH2 0x2CE JUMP JUMPDEST PUSH1 0x40 MLOAD DUP1 SWAP2 SUB SWAP1 RETURN JUMPDEST PUSH0 ADDRESS SWAP1 POP SWAP1 JUMP JUMPDEST PUSH0 SELFBALANCE SWAP1 POP SWAP1 JUMP JUMPDEST PUSH0 PUSH0 CALLER CALLVALUE SWAP2 POP SWAP2 POP SWAP1 SWAP2 JUMP JUMPDEST PUSH0 PUSH0 PUSH1 0x60 PUSH0 CALLER CALLVALUE PUSH0 CALLDATASIZE PUSH0 CALLDATALOAD PUSH32 0xFFFFFFFF00000000000000000000000000000000000000000000000000000000 AND DUP3 DUP3 DUP1 DUP1 PUSH1 0x1F ADD PUSH1 0x20 DUP1 SWAP2 DIV MUL PUSH1 0x20 ADD PUSH1 0x40 MLOAD SWAP1 DUP2 ADD PUSH1 0x40 MSTORE DUP1 SWAP4 SWAP3 SWAP2 SWAP1 DUP2 DUP2 MSTORE PUSH1 0x20 ADD DUP4 DUP4 DUP1 DUP3 DUP5 CALLDATACOPY PUSH0 DUP2 DUP5 ADD MSTORE PUSH1 0x1F NOT PUSH1 0x1F DUP3 ADD AND SWAP1 POP DUP1 DUP4 ADD SWAP3 POP POP POP POP POP POP POP SWAP2 POP SWAP1 SWAP2 POP SWAP4 POP SWAP4 POP SWAP4 POP SWAP4 POP SWAP1 SWAP2 SWAP3 SWAP4 JUMP JUMPDEST PUSH0 PUSH20 0xFFFFFFFFFFFFFFFFFFFFFFFFFFFFFFFFFFFFFFFF DUP3 AND SWAP1 POP SWAP2 SWAP1 POP JUMP JUMPDEST PUSH0 PUSH2 0x19D DUP3 PUSH2 0x174 JUMP JUMPDEST SWAP1 POP SWAP2 SWAP1 POP JUMP JUMPDEST PUSH2 0x1AD DUP2 PUSH2 0x193 JUMP JUMPDEST DUP3 MSTORE POP POP JUMP JUMPDEST PUSH0 PUSH1 0x20 DUP3 ADD SWAP1 POP PUSH2 0x1C6 PUSH0 DUP4 ADD DUP5 PUSH2 0x1A4 JUMP JUMPDEST SWAP3 SWAP2 POP POP JUMP JUMPDEST PUSH0 DUP2 SWAP1 POP SWAP2 SWAP1 POP JUMP JUMPDEST PUSH2 0x1DE DUP2 PUSH2 0x1CC JUMP JUMPDEST DUP3 MSTORE POP POP JUMP JUMPDEST PUSH0 PUSH1 0x20 DUP3 ADD SWAP1 POP PUSH2 0x1F7 PUSH0 DUP4 ADD DUP5 PUSH2 0x1D5 JUMP JUMPDEST SWAP3 SWAP2 POP POP JUMP JUMPDEST PUSH0 PUSH1 0x40 DUP3 ADD SWAP1 POP PUSH2 0x210 PUSH0 DUP4 ADD DUP6 PUSH2 0x1A4 JUMP JUMPDEST PUSH2 0x21D PUSH1 0x20 DUP4 ADD DUP5 PUSH2 0x1D5 JUMP JUMPDEST SWAP4 SWAP3 POP POP POP JUMP JUMPDEST PUSH0 DUP2 MLOAD SWAP1 POP SWAP2 SWAP1 POP JUMP JUMPDEST PUSH0 DUP3 DUP3 MSTORE PUSH1 0x20 DUP3 ADD SWAP1 POP SWAP3 SWAP2 POP POP JUMP JUMPDEST DUP3 DUP2 DUP4 MCOPY PUSH0 DUP4 DUP4 ADD MSTORE POP POP POP JUMP JUMPDEST PUSH0 PUSH1 0x1F NOT PUSH1 0x1F DUP4 ADD AND SWAP1 POP SWAP2 SWAP1 POP JUMP JUMPDEST PUSH0 PUSH2 0x266 DUP3 PUSH2 0x224 JUMP JUMPDEST PUSH2 0x270 DUP2 DUP6 PUSH2 0x22E JUMP JUMPDEST SWAP4 POP PUSH2 0x280 DUP2 DUP6 PUSH1 0x20 DUP7 ADD PUSH2 0x23E JUMP JUMPDEST PUSH2 0x289 DUP2 PUSH2 0x24C JUMP JUMPDEST DUP5 ADD SWAP2 POP POP SWAP3 SWAP2 POP POP JUMP JUMPDEST PUSH0 PUSH32 0xFFFFFFFF00000000000000000000000000000000000000000000000000000000 DUP3 AND SWAP1 POP SWAP2 SWAP1 POP JUMP JUMPDEST PUSH2 0x2C8 DUP2 PUSH2 0x294 JUMP JUMPDEST DUP3 MSTORE POP POP JUMP JUMPDEST PUSH0 PUSH1 0x80 DUP3 ADD SWAP1 POP PUSH2 0x2E1 PUSH0 DUP4 ADD DUP8 PUSH2 0x1A4 JUMP JUMPDEST PUSH2 0x2EE PUSH1 0x20 DUP4 ADD DUP7 PUSH2 0x1D5 JUMP JUMPDEST DUP2 DUP2 SUB PUSH1 0x40 DUP4 ADD MSTORE PUSH2 0x300 DUP2 DUP6 PUSH2 0x25C JUMP JUMPDEST SWAP1 POP PUSH2 0x30F PUSH1 0x60 DUP4 ADD DUP5 PUSH2 0x2BF JUMP JUMPDEST SWAP6 SWAP5 POP POP POP POP POP JUMP INVALID LOG2 PUSH5 0x6970667358 0x22 SLT KECCAK256 ISZERO ADD 0xE TIMESTAMP PUSH0 GASPRICE EXP PUSH1 0x6D PC PUSH25 0x9D876049A395AE99D025DB9EA96DB29257A5BB02AF64736F6C PUSH4 0x4300081E STOP CALLER "
		},
		"gasEstimates": {
			"creation": {
				"codeDepositCost": "169200",
				"executionCost": "212",
				"totalCost": "169412"
			},
			"external": {
				"getContractAddress()": "357",
				"getContractBalance()": "334",
				"getMsgDetails()": "488",
				"testMessageDetails()": "infinite"
			}
		},
		"methodIdentifiers": {
			"getContractAddress()": "32a2c5d0",
			"getContractBalance()": "6f9fb98a",
			"getMsgDetails()": "8d2bafde",
			"testMessageDetails()": "fad5c13c"
		}
	},
	"abi": [
		{
			"inputs": [],
			"name": "getContractAddress",
			"outputs": [
				{
					"internalType": "address",
					"name": "",
					"type": "address"
				}
			],
			"stateMutability": "view",
			"type": "function"
		},
		{
			"inputs": [],
			"name": "getContractBalance",
			"outputs": [
				{
					"internalType": "uint256",
					"name": "",
					"type": "uint256"
				}
			],
			"stateMutability": "view",
			"type": "function"
		},
		{
			"inputs": [],
			"name": "getMsgDetails",
			"outputs": [
				{
					"internalType": "address",
					"name": "",
					"type": "address"
				},
				{
					"internalType": "uint256",
					"name": "",
					"type": "uint256"
				}
			],
			"stateMutability": "payable",
			"type": "function"
		},
		{
			"inputs": [],
			"name": "testMessageDetails",
			"outputs": [
				{
					"internalType": "address",
					"name": "",
					"type": "address"
				},
				{
					"internalType": "uint256",
					"name": "",
					"type": "uint256"
				},
				{
					"internalType": "bytes",
					"name": "",
					"type": "bytes"
				},
				{
					"internalType": "bytes4",
					"name": "",
					"type": "bytes4"
				}
			],
			"stateMutability": "payable",
			"type": "function"
		}
	]
}