{
	"contracts/2.5-合约收款、转账与安全问题/code.sol": {
		"MyContract": {
			"abi": [
				{
					"anonymous": false,
					"inputs": [
						{
							"indexed": false,
							"internalType": "address",
							"name": "sender",
							"type": "address"
						},
						{
							"indexed": false,
							"internalType": "uint256",
							"name": "amount",
							"type": "uint256"
						}
					],
					"name": "Received",
					"type": "event"
				},
				{
					"inputs": [],
					"name": "funcName",
					"outputs": [],
					"stateMutability": "payable",
					"type": "function"
				},
				{
					"stateMutability": "payable",
					"type": "receive"
				}
			],
			"devdoc": {
				"kind": "dev",
				"methods": {},
				"version": 1
			},
			"evm": {
				"assembly": "    /* \"contracts/2.5-\\xe5\\x90\\x88\\xe7\\xba\\xa6\\xe6\\x94\\xb6\\xe6\\xac\\xbe\\xe3\\x80\\x81\\xe8\\xbd\\xac\\xe8\\xb4\\xa6\\xe4\\xb8\\x8e\\xe5\\xae\\x89\\xe5\\x85\\xa8\\xe9\\x97\\xae\\xe9\\xa2\\x98/code.sol\":70:289  contract MyContract {... */\n  mstore(0x40, 0x80)\n  callvalue\n  dup1\n  iszero\n  tag_1\n  jumpi\n  revert(0x00, 0x00)\ntag_1:\n  pop\n  dataSize(sub_0)\n  dup1\n  dataOffset(sub_0)\n  0x00\n  codecopy\n  0x00\n  return\nstop\n\nsub_0: assembly {\n        /* \"contracts/2.5-\\xe5\\x90\\x88\\xe7\\xba\\xa6\\xe6\\x94\\xb6\\xe6\\xac\\xbe\\xe3\\x80\\x81\\xe8\\xbd\\xac\\xe8\\xb4\\xa6\\xe4\\xb8\\x8e\\xe5\\xae\\x89\\xe5\\x85\\xa8\\xe9\\x97\\xae\\xe9\\xa2\\x98/code.sol\":70:289  contract MyContract {... */\n      mstore(0x40, 0x80)\n      jumpi(tag_1, lt(calldatasize, 0x04))\n      shr(0xe0, calldataload(0x00))\n      dup1\n      0x53b367ff\n      eq\n      tag_3\n      jumpi\n      jump(tag_2)\n    tag_1:\n      jumpi(tag_2, calldatasize)\n        /* \"contracts/2.5-\\xe5\\x90\\x88\\xe7\\xba\\xa6\\xe6\\x94\\xb6\\xe6\\xac\\xbe\\xe3\\x80\\x81\\xe8\\xbd\\xac\\xe8\\xb4\\xa6\\xe4\\xb8\\x8e\\xe5\\xae\\x89\\xe5\\x85\\xa8\\xe9\\x97\\xae\\xe9\\xa2\\x98/code.sol\":246:277  Received(msg.sender, msg.value) */\n      0x88a5966d370b9919b20f3e2c13ff65706f196a4e32cc2c12bf57088f88525874\n        /* \"contracts/2.5-\\xe5\\x90\\x88\\xe7\\xba\\xa6\\xe6\\x94\\xb6\\xe6\\xac\\xbe\\xe3\\x80\\x81\\xe8\\xbd\\xac\\xe8\\xb4\\xa6\\xe4\\xb8\\x8e\\xe5\\xae\\x89\\xe5\\x85\\xa8\\xe9\\x97\\xae\\xe9\\xa2\\x98/code.sol\":255:265  msg.sender */\n      caller\n        /* \"contracts/2.5-\\xe5\\x90\\x88\\xe7\\xba\\xa6\\xe6\\x94\\xb6\\xe6\\xac\\xbe\\xe3\\x80\\x81\\xe8\\xbd\\xac\\xe8\\xb4\\xa6\\xe4\\xb8\\x8e\\xe5\\xae\\x89\\xe5\\x85\\xa8\\xe9\\x97\\xae\\xe9\\xa2\\x98/code.sol\":267:276  msg.value */\n      callvalue\n        /* \"contracts/2.5-\\xe5\\x90\\x88\\xe7\\xba\\xa6\\xe6\\x94\\xb6\\xe6\\xac\\xbe\\xe3\\x80\\x81\\xe8\\xbd\\xac\\xe8\\xb4\\xa6\\xe4\\xb8\\x8e\\xe5\\xae\\x89\\xe5\\x85\\xa8\\xe9\\x97\\xae\\xe9\\xa2\\x98/code.sol\":246:277  Received(msg.sender, msg.value) */\n      mload(0x40)\n      tag_6\n      swap3\n      swap2\n      swap1\n      tag_7\n      jump\t// in\n    tag_6:\n      mload(0x40)\n      dup1\n      swap2\n      sub\n      swap1\n      log1\n        /* \"contracts/2.5-\\xe5\\x90\\x88\\xe7\\xba\\xa6\\xe6\\x94\\xb6\\xe6\\xac\\xbe\\xe3\\x80\\x81\\xe8\\xbd\\xac\\xe8\\xb4\\xa6\\xe4\\xb8\\x8e\\xe5\\xae\\x89\\xe5\\x85\\xa8\\xe9\\x97\\xae\\xe9\\xa2\\x98/code.sol\":70:289  contract MyContract {... */\n      stop\n    tag_2:\n      revert(0x00, 0x00)\n        /* \"contracts/2.5-\\xe5\\x90\\x88\\xe7\\xba\\xa6\\xe6\\x94\\xb6\\xe6\\xac\\xbe\\xe3\\x80\\x81\\xe8\\xbd\\xac\\xe8\\xb4\\xa6\\xe4\\xb8\\x8e\\xe5\\xae\\x89\\xe5\\x85\\xa8\\xe9\\x97\\xae\\xe9\\xa2\\x98/code.sol\":97:143  function funcName() public payable  {... */\n    tag_3:\n      tag_8\n      tag_9\n      jump\t// in\n    tag_8:\n      stop\n    tag_9:\n      jump\t// out\n        /* \"#utility.yul\":7:133   */\n    tag_11:\n        /* \"#utility.yul\":44:51   */\n      0x00\n        /* \"#utility.yul\":84:126   */\n      0xffffffffffffffffffffffffffffffffffffffff\n        /* \"#utility.yul\":77:82   */\n      dup3\n        /* \"#utility.yul\":73:127   */\n      and\n        /* \"#utility.yul\":62:127   */\n      swap1\n      pop\n        /* \"#utility.yul\":7:133   */\n      swap2\n      swap1\n      pop\n      jump\t// out\n        /* \"#utility.yul\":139:235   */\n    tag_12:\n        /* \"#utility.yul\":176:183   */\n      0x00\n        /* \"#utility.yul\":205:229   */\n      tag_19\n        /* \"#utility.yul\":223:228   */\n      dup3\n        /* \"#utility.yul\":205:229   */\n      tag_11\n      jump\t// in\n    tag_19:\n        /* \"#utility.yul\":194:229   */\n      swap1\n      pop\n        /* \"#utility.yul\":139:235   */\n      swap2\n      swap1\n      pop\n      jump\t// out\n        /* \"#utility.yul\":241:359   */\n    tag_13:\n        /* \"#utility.yul\":328:352   */\n      tag_21\n        /* \"#utility.yul\":346:351   */\n      dup2\n        /* \"#utility.yul\":328:352   */\n      tag_12\n      jump\t// in\n    tag_21:\n        /* \"#utility.yul\":323:326   */\n      dup3\n        /* \"#utility.yul\":316:353   */\n      mstore\n        /* \"#utility.yul\":241:359   */\n      pop\n      pop\n      jump\t// out\n        /* \"#utility.yul\":365:442   */\n    tag_14:\n        /* \"#utility.yul\":402:409   */\n      0x00\n        /* \"#utility.yul\":431:436   */\n      dup2\n        /* \"#utility.yul\":420:436   */\n      swap1\n      pop\n        /* \"#utility.yul\":365:442   */\n      swap2\n      swap1\n      pop\n      jump\t// out\n        /* \"#utility.yul\":448:566   */\n    tag_15:\n        /* \"#utility.yul\":535:559   */\n      tag_24\n        /* \"#utility.yul\":553:558   */\n      dup2\n        /* \"#utility.yul\":535:559   */\n      tag_14\n      jump\t// in\n    tag_24:\n        /* \"#utility.yul\":530:533   */\n      dup3\n        /* \"#utility.yul\":523:560   */\n      mstore\n        /* \"#utility.yul\":448:566   */\n      pop\n      pop\n      jump\t// out\n        /* \"#utility.yul\":572:904   */\n    tag_7:\n        /* \"#utility.yul\":693:697   */\n      0x00\n        /* \"#utility.yul\":731:733   */\n      0x40\n        /* \"#utility.yul\":720:729   */\n      dup3\n        /* \"#utility.yul\":716:734   */\n      add\n        /* \"#utility.yul\":708:734   */\n      swap1\n      pop\n        /* \"#utility.yul\":744:815   */\n      tag_26\n        /* \"#utility.yul\":812:813   */\n      0x00\n        /* \"#utility.yul\":801:810   */\n      dup4\n        /* \"#utility.yul\":797:814   */\n      add\n        /* \"#utility.yul\":788:794   */\n      dup6\n        /* \"#utility.yul\":744:815   */\n      tag_13\n      jump\t// in\n    tag_26:\n        /* \"#utility.yul\":825:897   */\n      tag_27\n        /* \"#utility.yul\":893:895   */\n      0x20\n        /* \"#utility.yul\":882:891   */\n      dup4\n        /* \"#utility.yul\":878:896   */\n      add\n        /* \"#utility.yul\":869:875   */\n      dup5\n        /* \"#utility.yul\":825:897   */\n      tag_15\n      jump\t// in\n    tag_27:\n        /* \"#utility.yul\":572:904   */\n      swap4\n      swap3\n      pop\n      pop\n      pop\n      jump\t// out\n\n    auxdata: 0xa2646970667358221220c8ed28c87b8e1c69ece57282a0846960c1bc50a0ad4c085c03ca34d1473f9cea64736f6c634300081e0033\n}\n",
				"bytecode": {
					"linkReferences": {},
					"object": "6080604052348015600e575f5ffd5b506101138061001c5f395ff3fe608060405260043610601e575f3560e01c806353b367ff14605f57605b565b36605b577f88a5966d370b9919b20f3e2c13ff65706f196a4e32cc2c12bf57088f885258743334604051605192919060ba565b60405180910390a1005b5f5ffd5b60656067565b005b565b5f73ffffffffffffffffffffffffffffffffffffffff82169050919050565b5f6090826069565b9050919050565b609e816088565b82525050565b5f819050919050565b60b48160a4565b82525050565b5f60408201905060cb5f8301856097565b60d6602083018460ad565b939250505056fea2646970667358221220c8ed28c87b8e1c69ece57282a0846960c1bc50a0ad4c085c03ca34d1473f9cea64736f6c634300081e0033",
					"opcodes": "PUSH1 0x80 PUSH1 0x40 MSTORE CALLVALUE DUP1 ISZERO PUSH1 0xE JUMPI PUSH0 PUSH0 REVERT JUMPDEST POP PUSH2 0x113 DUP1 PUSH2 0x1C PUSH0 CODECOPY PUSH0 RETURN INVALID PUSH1 0x80 PUSH1 0x40 MSTORE PUSH1 0x4 CALLDATASIZE LT PUSH1 0x1E JUMPI PUSH0 CALLDATALOAD PUSH1 0xE0 SHR DUP1 PUSH4 0x53B367FF EQ PUSH1 0x5F JUMPI PUSH1 0x5B JUMP JUMPDEST CALLDATASIZE PUSH1 0x5B JUMPI PUSH32 0x88A5966D370B9919B20F3E2C13FF65706F196A4E32CC2C12BF57088F88525874 CALLER CALLVALUE PUSH1 0x40 MLOAD PUSH1 0x51 SWAP3 SWAP2 SWAP1 PUSH1 0xBA JUMP JUMPDEST PUSH1 0x40 MLOAD DUP1 SWAP2 SUB SWAP1 LOG1 STOP JUMPDEST PUSH0 PUSH0 REVERT JUMPDEST PUSH1 0x65 PUSH1 0x67 JUMP JUMPDEST STOP JUMPDEST JUMP JUMPDEST PUSH0 PUSH20 0xFFFFFFFFFFFFFFFFFFFFFFFFFFFFFFFFFFFFFFFF DUP3 AND SWAP1 POP SWAP2 SWAP1 POP JUMP JUMPDEST PUSH0 PUSH1 0x90 DUP3 PUSH1 0x69 JUMP JUMPDEST SWAP1 POP SWAP2 SWAP1 POP JUMP JUMPDEST PUSH1 0x9E DUP2 PUSH1 0x88 JUMP JUMPDEST DUP3 MSTORE POP POP JUMP JUMPDEST PUSH0 DUP2 SWAP1 POP SWAP2 SWAP1 POP JUMP JUMPDEST PUSH1 0xB4 DUP2 PUSH1 0xA4 JUMP JUMPDEST DUP3 MSTORE POP POP JUMP JUMPDEST PUSH0 PUSH1 0x40 DUP3 ADD SWAP1 POP PUSH1 0xCB PUSH0 DUP4 ADD DUP6 PUSH1 0x97 JUMP JUMPDEST PUSH1 0xD6 PUSH1 0x20 DUP4 ADD DUP5 PUSH1 0xAD JUMP JUMPDEST SWAP4 SWAP3 POP POP POP JUMP INVALID LOG2 PUSH5 0x6970667358 0x22 SLT KECCAK256 0xC8 0xED 0x28 0xC8 PUSH28 0x8E1C69ECE57282A0846960C1BC50A0AD4C085C03CA34D1473F9CEA64 PUSH20 0x6F6C634300081E00330000000000000000000000 "
				},
				"gasEstimates": {
					"creation": {
						"codeDepositCost": "55000",
						"executionCost": "103",
						"totalCost": "55103"
					},
					"external": {
						"funcName()": "97"
					}
				},
				"methodIdentifiers": {
					"funcName()": "53b367ff"
				}
			},
			"storageLayout": {
				"storage": [],
				"types": null
			},
			"userdoc": {
				"kind": "user",
				"methods": {},
				"version": 1
			}
		}
	}
}