{
	"contracts/2.5-合约收款、转账与安全问题/code.sol": {
		"GetMsg": {
			"abi": [
				{
					"inputs": [],
					"name": "getSig",
					"outputs": [
						{
							"internalType": "bytes4",
							"name": "",
							"type": "bytes4"
						}
					],
					"stateMutability": "pure",
					"type": "function"
				}
			],
			"devdoc": {
				"kind": "dev",
				"methods": {},
				"version": 1
			},
			"evm": {
				"assembly": "    /* \"contracts/2.5-\\xe5\\x90\\x88\\xe7\\xba\\xa6\\xe6\\x94\\xb6\\xe6\\xac\\xbe\\xe3\\x80\\x81\\xe8\\xbd\\xac\\xe8\\xb4\\xa6\\xe4\\xb8\\x8e\\xe5\\xae\\x89\\xe5\\x85\\xa8\\xe9\\x97\\xae\\xe9\\xa2\\x98/code.sol\":293:401  contract GetMsg {... */\n  mstore(0x40, 0x80)\n  callvalue\n  dup1\n  iszero\n  tag_1\n  jumpi\n  revert(0x00, 0x00)\ntag_1:\n  pop\n  dataSize(sub_0)\n  dup1\n  dataOffset(sub_0)\n  0x00\n  codecopy\n  0x00\n  return\nstop\n\nsub_0: assembly {\n        /* \"contracts/2.5-\\xe5\\x90\\x88\\xe7\\xba\\xa6\\xe6\\x94\\xb6\\xe6\\xac\\xbe\\xe3\\x80\\x81\\xe8\\xbd\\xac\\xe8\\xb4\\xa6\\xe4\\xb8\\x8e\\xe5\\xae\\x89\\xe5\\x85\\xa8\\xe9\\x97\\xae\\xe9\\xa2\\x98/code.sol\":293:401  contract GetMsg {... */\n      mstore(0x40, 0x80)\n      callvalue\n      dup1\n      iszero\n      tag_1\n      jumpi\n      revert(0x00, 0x00)\n    tag_1:\n      pop\n      jumpi(tag_2, lt(calldatasize, 0x04))\n      shr(0xe0, calldataload(0x00))\n      dup1\n      0xd12d9102\n      eq\n      tag_3\n      jumpi\n    tag_2:\n      revert(0x00, 0x00)\n        /* \"contracts/2.5-\\xe5\\x90\\x88\\xe7\\xba\\xa6\\xe6\\x94\\xb6\\xe6\\xac\\xbe\\xe3\\x80\\x81\\xe8\\xbd\\xac\\xe8\\xb4\\xa6\\xe4\\xb8\\x8e\\xe5\\xae\\x89\\xe5\\x85\\xa8\\xe9\\x97\\xae\\xe9\\xa2\\x98/code.sol\":316:398  function getSig() external pure returns (bytes4) {... */\n    tag_3:\n      tag_4\n      tag_5\n      jump\t// in\n    tag_4:\n      mload(0x40)\n      tag_6\n      swap2\n      swap1\n      tag_7\n      jump\t// in\n    tag_6:\n      mload(0x40)\n      dup1\n      swap2\n      sub\n      swap1\n      return\n    tag_5:\n        /* \"contracts/2.5-\\xe5\\x90\\x88\\xe7\\xba\\xa6\\xe6\\x94\\xb6\\xe6\\xac\\xbe\\xe3\\x80\\x81\\xe8\\xbd\\xac\\xe8\\xb4\\xa6\\xe4\\xb8\\x8e\\xe5\\xae\\x89\\xe5\\x85\\xa8\\xe9\\x97\\xae\\xe9\\xa2\\x98/code.sol\":357:363  bytes4 */\n      0x00\n        /* \"contracts/2.5-\\xe5\\x90\\x88\\xe7\\xba\\xa6\\xe6\\x94\\xb6\\xe6\\xac\\xbe\\xe3\\x80\\x81\\xe8\\xbd\\xac\\xe8\\xb4\\xa6\\xe4\\xb8\\x8e\\xe5\\xae\\x89\\xe5\\x85\\xa8\\xe9\\x97\\xae\\xe9\\xa2\\x98/code.sol\":383:390  msg.sig */\n      and(0xffffffff00000000000000000000000000000000000000000000000000000000, calldataload(0x00))\n        /* \"contracts/2.5-\\xe5\\x90\\x88\\xe7\\xba\\xa6\\xe6\\x94\\xb6\\xe6\\xac\\xbe\\xe3\\x80\\x81\\xe8\\xbd\\xac\\xe8\\xb4\\xa6\\xe4\\xb8\\x8e\\xe5\\xae\\x89\\xe5\\x85\\xa8\\xe9\\x97\\xae\\xe9\\xa2\\x98/code.sol\":376:390  return msg.sig */\n      swap1\n      pop\n        /* \"contracts/2.5-\\xe5\\x90\\x88\\xe7\\xba\\xa6\\xe6\\x94\\xb6\\xe6\\xac\\xbe\\xe3\\x80\\x81\\xe8\\xbd\\xac\\xe8\\xb4\\xa6\\xe4\\xb8\\x8e\\xe5\\xae\\x89\\xe5\\x85\\xa8\\xe9\\x97\\xae\\xe9\\xa2\\x98/code.sol\":316:398  function getSig() external pure returns (bytes4) {... */\n      swap1\n      jump\t// out\n        /* \"#utility.yul\":7:156   */\n    tag_9:\n        /* \"#utility.yul\":43:50   */\n      0x00\n        /* \"#utility.yul\":83:149   */\n      0xffffffff00000000000000000000000000000000000000000000000000000000\n        /* \"#utility.yul\":76:81   */\n      dup3\n        /* \"#utility.yul\":72:150   */\n      and\n        /* \"#utility.yul\":61:150   */\n      swap1\n      pop\n        /* \"#utility.yul\":7:156   */\n      swap2\n      swap1\n      pop\n      jump\t// out\n        /* \"#utility.yul\":162:277   */\n    tag_10:\n        /* \"#utility.yul\":247:270   */\n      tag_14\n        /* \"#utility.yul\":264:269   */\n      dup2\n        /* \"#utility.yul\":247:270   */\n      tag_9\n      jump\t// in\n    tag_14:\n        /* \"#utility.yul\":242:245   */\n      dup3\n        /* \"#utility.yul\":235:271   */\n      mstore\n        /* \"#utility.yul\":162:277   */\n      pop\n      pop\n      jump\t// out\n        /* \"#utility.yul\":283:501   */\n    tag_7:\n        /* \"#utility.yul\":374:378   */\n      0x00\n        /* \"#utility.yul\":412:414   */\n      0x20\n        /* \"#utility.yul\":401:410   */\n      dup3\n        /* \"#utility.yul\":397:415   */\n      add\n        /* \"#utility.yul\":389:415   */\n      swap1\n      pop\n        /* \"#utility.yul\":425:494   */\n      tag_16\n        /* \"#utility.yul\":491:492   */\n      0x00\n        /* \"#utility.yul\":480:489   */\n      dup4\n        /* \"#utility.yul\":476:493   */\n      add\n        /* \"#utility.yul\":467:473   */\n      dup5\n        /* \"#utility.yul\":425:494   */\n      tag_10\n      jump\t// in\n    tag_16:\n        /* \"#utility.yul\":283:501   */\n      swap3\n      swap2\n      pop\n      pop\n      jump\t// out\n\n    auxdata: 0xa2646970667358221220a8d2428e5b8452ed058de2d5ed690abac3a844c20adf0ed20474754d1beb51c564736f6c634300081e0033\n}\n",
				"bytecode": {
					"linkReferences": {},
					"object": "6080604052348015600e575f5ffd5b5060f38061001b5f395ff3fe6080604052348015600e575f5ffd5b50600436106026575f3560e01c8063d12d910214602a575b5f5ffd5b60306044565b604051603b919060a6565b60405180910390f35b5f5f357fffffffff0000000000000000000000000000000000000000000000000000000016905090565b5f7fffffffff0000000000000000000000000000000000000000000000000000000082169050919050565b60a081606e565b82525050565b5f60208201905060b75f8301846099565b9291505056fea2646970667358221220a8d2428e5b8452ed058de2d5ed690abac3a844c20adf0ed20474754d1beb51c564736f6c634300081e0033",
					"opcodes": "PUSH1 0x80 PUSH1 0x40 MSTORE CALLVALUE DUP1 ISZERO PUSH1 0xE JUMPI PUSH0 PUSH0 REVERT JUMPDEST POP PUSH1 0xF3 DUP1 PUSH2 0x1B PUSH0 CODECOPY PUSH0 RETURN INVALID PUSH1 0x80 PUSH1 0x40 MSTORE CALLVALUE DUP1 ISZERO PUSH1 0xE JUMPI PUSH0 PUSH0 REVERT JUMPDEST POP PUSH1 0x4 CALLDATASIZE LT PUSH1 0x26 JUMPI PUSH0 CALLDATALOAD PUSH1 0xE0 SHR DUP1 PUSH4 0xD12D9102 EQ PUSH1 0x2A JUMPI JUMPDEST PUSH0 PUSH0 REVERT JUMPDEST PUSH1 0x30 PUSH1 0x44 JUMP JUMPDEST PUSH1 0x40 MLOAD PUSH1 0x3B SWAP2 SWAP1 PUSH1 0xA6 JUMP JUMPDEST PUSH1 0x40 MLOAD DUP1 SWAP2 SUB SWAP1 RETURN JUMPDEST PUSH0 PUSH0 CALLDATALOAD PUSH32 0xFFFFFFFF00000000000000000000000000000000000000000000000000000000 AND SWAP1 POP SWAP1 JUMP JUMPDEST PUSH0 PUSH32 0xFFFFFFFF00000000000000000000000000000000000000000000000000000000 DUP3 AND SWAP1 POP SWAP2 SWAP1 POP JUMP JUMPDEST PUSH1 0xA0 DUP2 PUSH1 0x6E JUMP JUMPDEST DUP3 MSTORE POP POP JUMP JUMPDEST PUSH0 PUSH1 0x20 DUP3 ADD SWAP1 POP PUSH1 0xB7 PUSH0 DUP4 ADD DUP5 PUSH1 0x99 JUMP JUMPDEST SWAP3 SWAP2 POP POP JUMP INVALID LOG2 PUSH5 0x6970667358 0x22 SLT KECCAK256 0xA8 0xD2 TIMESTAMP DUP15 JUMPDEST DUP5 MSTORE 0xED SDIV DUP14 0xE2 0xD5 0xED PUSH10 0xABAC3A844C20ADF0ED2 DIV PUSH21 0x754D1BEB51C564736F6C634300081E003300000000 "
				},
				"gasEstimates": {
					"creation": {
						"codeDepositCost": "48600",
						"executionCost": "97",
						"totalCost": "48697"
					},
					"external": {
						"getSig()": "324"
					}
				},
				"methodIdentifiers": {
					"getSig()": "d12d9102"
				}
			},
			"storageLayout": {
				"storage": [],
				"types": null
			},
			"userdoc": {
				"kind": "user",
				"methods": {},
				"version": 1
			}
		}
	}
}