{
	"contracts/2.1-全局变量/GlobalVar.sol": {
		"TxInfo": {
			"abi": [
				{
					"inputs": [],
					"name": "testTxInfo",
					"outputs": [
						{
							"internalType": "uint256",
							"name": "",
							"type": "uint256"
						},
						{
							"internalType": "address",
							"name": "",
							"type": "address"
						}
					],
					"stateMutability": "view",
					"type": "function"
				}
			],
			"devdoc": {
				"kind": "dev",
				"methods": {},
				"version": 1
			},
			"evm": {
				"assembly": "    /* \"contracts/2.1-\\xe5\\x85\\xa8\\xe5\\xb1\\x80\\xe5\\x8f\\x98\\xe9\\x87\\x8f/GlobalVar.sol\":751:981  contract TxInfo {... */\n  mstore(0x40, 0x80)\n  callvalue\n  dup1\n  iszero\n  tag_1\n  jumpi\n  revert(0x00, 0x00)\ntag_1:\n  pop\n  dataSize(sub_0)\n  dup1\n  dataOffset(sub_0)\n  0x00\n  codecopy\n  0x00\n  return\nstop\n\nsub_0: assembly {\n        /* \"contracts/2.1-\\xe5\\x85\\xa8\\xe5\\xb1\\x80\\xe5\\x8f\\x98\\xe9\\x87\\x8f/GlobalVar.sol\":751:981  contract TxInfo {... */\n      mstore(0x40, 0x80)\n      callvalue\n      dup1\n      iszero\n      tag_1\n      jumpi\n      revert(0x00, 0x00)\n    tag_1:\n      pop\n      jumpi(tag_2, lt(calldatasize, 0x04))\n      shr(0xe0, calldataload(0x00))\n      dup1\n      0x5e859b9c\n      eq\n      tag_3\n      jumpi\n    tag_2:\n      revert(0x00, 0x00)\n        /* \"contracts/2.1-\\xe5\\x85\\xa8\\xe5\\xb1\\x80\\xe5\\x8f\\x98\\xe9\\x87\\x8f/GlobalVar.sol\":773:979  function testTxInfo() public view returns (uint, address) {... */\n    tag_3:\n      tag_4\n      tag_5\n      jump\t// in\n    tag_4:\n      mload(0x40)\n      tag_6\n      swap3\n      swap2\n      swap1\n      tag_7\n      jump\t// in\n    tag_6:\n      mload(0x40)\n      dup1\n      swap2\n      sub\n      swap1\n      return\n    tag_5:\n        /* \"contracts/2.1-\\xe5\\x85\\xa8\\xe5\\xb1\\x80\\xe5\\x8f\\x98\\xe9\\x87\\x8f/GlobalVar.sol\":816:820  uint */\n      0x00\n        /* \"contracts/2.1-\\xe5\\x85\\xa8\\xe5\\xb1\\x80\\xe5\\x8f\\x98\\xe9\\x87\\x8f/GlobalVar.sol\":822:829  address */\n      0x00\n        /* \"contracts/2.1-\\xe5\\x85\\xa8\\xe5\\xb1\\x80\\xe5\\x8f\\x98\\xe9\\x87\\x8f/GlobalVar.sol\":862:873  tx.gasprice */\n      gasprice\n        /* \"contracts/2.1-\\xe5\\x85\\xa8\\xe5\\xb1\\x80\\xe5\\x8f\\x98\\xe9\\x87\\x8f/GlobalVar.sol\":911:920  tx.origin */\n      origin\n        /* \"contracts/2.1-\\xe5\\x85\\xa8\\xe5\\xb1\\x80\\xe5\\x8f\\x98\\xe9\\x87\\x8f/GlobalVar.sol\":841:972  return (... */\n      swap2\n      pop\n      swap2\n      pop\n        /* \"contracts/2.1-\\xe5\\x85\\xa8\\xe5\\xb1\\x80\\xe5\\x8f\\x98\\xe9\\x87\\x8f/GlobalVar.sol\":773:979  function testTxInfo() public view returns (uint, address) {... */\n      swap1\n      swap2\n      jump\t// out\n        /* \"#utility.yul\":7:84   */\n    tag_9:\n        /* \"#utility.yul\":44:51   */\n      0x00\n        /* \"#utility.yul\":73:78   */\n      dup2\n        /* \"#utility.yul\":62:78   */\n      swap1\n      pop\n        /* \"#utility.yul\":7:84   */\n      swap2\n      swap1\n      pop\n      jump\t// out\n        /* \"#utility.yul\":90:208   */\n    tag_10:\n        /* \"#utility.yul\":177:201   */\n      tag_17\n        /* \"#utility.yul\":195:200   */\n      dup2\n        /* \"#utility.yul\":177:201   */\n      tag_9\n      jump\t// in\n    tag_17:\n        /* \"#utility.yul\":172:175   */\n      dup3\n        /* \"#utility.yul\":165:202   */\n      mstore\n        /* \"#utility.yul\":90:208   */\n      pop\n      pop\n      jump\t// out\n        /* \"#utility.yul\":214:340   */\n    tag_11:\n        /* \"#utility.yul\":251:258   */\n      0x00\n        /* \"#utility.yul\":291:333   */\n      0xffffffffffffffffffffffffffffffffffffffff\n        /* \"#utility.yul\":284:289   */\n      dup3\n        /* \"#utility.yul\":280:334   */\n      and\n        /* \"#utility.yul\":269:334   */\n      swap1\n      pop\n        /* \"#utility.yul\":214:340   */\n      swap2\n      swap1\n      pop\n      jump\t// out\n        /* \"#utility.yul\":346:442   */\n    tag_12:\n        /* \"#utility.yul\":383:390   */\n      0x00\n        /* \"#utility.yul\":412:436   */\n      tag_20\n        /* \"#utility.yul\":430:435   */\n      dup3\n        /* \"#utility.yul\":412:436   */\n      tag_11\n      jump\t// in\n    tag_20:\n        /* \"#utility.yul\":401:436   */\n      swap1\n      pop\n        /* \"#utility.yul\":346:442   */\n      swap2\n      swap1\n      pop\n      jump\t// out\n        /* \"#utility.yul\":448:566   */\n    tag_13:\n        /* \"#utility.yul\":535:559   */\n      tag_22\n        /* \"#utility.yul\":553:558   */\n      dup2\n        /* \"#utility.yul\":535:559   */\n      tag_12\n      jump\t// in\n    tag_22:\n        /* \"#utility.yul\":530:533   */\n      dup3\n        /* \"#utility.yul\":523:560   */\n      mstore\n        /* \"#utility.yul\":448:566   */\n      pop\n      pop\n      jump\t// out\n        /* \"#utility.yul\":572:904   */\n    tag_7:\n        /* \"#utility.yul\":693:697   */\n      0x00\n        /* \"#utility.yul\":731:733   */\n      0x40\n        /* \"#utility.yul\":720:729   */\n      dup3\n        /* \"#utility.yul\":716:734   */\n      add\n        /* \"#utility.yul\":708:734   */\n      swap1\n      pop\n        /* \"#utility.yul\":744:815   */\n      tag_24\n        /* \"#utility.yul\":812:813   */\n      0x00\n        /* \"#utility.yul\":801:810   */\n      dup4\n        /* \"#utility.yul\":797:814   */\n      add\n        /* \"#utility.yul\":788:794   */\n      dup6\n        /* \"#utility.yul\":744:815   */\n      tag_10\n      jump\t// in\n    tag_24:\n        /* \"#utility.yul\":825:897   */\n      tag_25\n        /* \"#utility.yul\":893:895   */\n      0x20\n        /* \"#utility.yul\":882:891   */\n      dup4\n        /* \"#utility.yul\":878:896   */\n      add\n        /* \"#utility.yul\":869:875   */\n      dup5\n        /* \"#utility.yul\":825:897   */\n      tag_13\n      jump\t// in\n    tag_25:\n        /* \"#utility.yul\":572:904   */\n      swap4\n      swap3\n      pop\n      pop\n      pop\n      jump\t// out\n\n    auxdata: 0xa2646970667358221220f86a010a61882c9ea7ef95bc1502215808fe351e74d6701c62873299ae19cb0064736f6c634300081e0033\n}\n",
				"bytecode": {
					"linkReferences": {},
					"object": "6080604052348015600e575f5ffd5b5060fb8061001b5f395ff3fe6080604052348015600e575f5ffd5b50600436106026575f3560e01c80635e859b9c14602a575b5f5ffd5b60306045565b604051603c92919060a2565b60405180910390f35b5f5f3a32915091509091565b5f819050919050565b6061816051565b82525050565b5f73ffffffffffffffffffffffffffffffffffffffff82169050919050565b5f608e826067565b9050919050565b609c816086565b82525050565b5f60408201905060b35f830185605a565b60be60208301846095565b939250505056fea2646970667358221220f86a010a61882c9ea7ef95bc1502215808fe351e74d6701c62873299ae19cb0064736f6c634300081e0033",
					"opcodes": "PUSH1 0x80 PUSH1 0x40 MSTORE CALLVALUE DUP1 ISZERO PUSH1 0xE JUMPI PUSH0 PUSH0 REVERT JUMPDEST POP PUSH1 0xFB DUP1 PUSH2 0x1B PUSH0 CODECOPY PUSH0 RETURN INVALID PUSH1 0x80 PUSH1 0x40 MSTORE CALLVALUE DUP1 ISZERO PUSH1 0xE JUMPI PUSH0 PUSH0 REVERT JUMPDEST POP PUSH1 0x4 CALLDATASIZE LT PUSH1 0x26 JUMPI PUSH0 CALLDATALOAD PUSH1 0xE0 SHR DUP1 PUSH4 0x5E859B9C EQ PUSH1 0x2A JUMPI JUMPDEST PUSH0 PUSH0 REVERT JUMPDEST PUSH1 0x30 PUSH1 0x45 JUMP JUMPDEST PUSH1 0x40 MLOAD PUSH1 0x3C SWAP3 SWAP2 SWAP1 PUSH1 0xA2 JUMP JUMPDEST PUSH1 0x40 MLOAD DUP1 SWAP2 SUB SWAP1 RETURN JUMPDEST PUSH0 PUSH0 GASPRICE ORIGIN SWAP2 POP SWAP2 POP SWAP1 SWAP2 JUMP JUMPDEST PUSH0 DUP2 SWAP1 POP SWAP2 SWAP1 POP JUMP JUMPDEST PUSH1 0x61 DUP2 PUSH1 0x51 JUMP JUMPDEST DUP3 MSTORE POP POP JUMP JUMPDEST PUSH0 PUSH20 0xFFFFFFFFFFFFFFFFFFFFFFFFFFFFFFFFFFFFFFFF DUP3 AND SWAP1 POP SWAP2 SWAP1 POP JUMP JUMPDEST PUSH0 PUSH1 0x8E DUP3 PUSH1 0x67 JUMP JUMPDEST SWAP1 POP SWAP2 SWAP1 POP JUMP JUMPDEST PUSH1 0x9C DUP2 PUSH1 0x86 JUMP JUMPDEST DUP3 MSTORE POP POP JUMP JUMPDEST PUSH0 PUSH1 0x40 DUP3 ADD SWAP1 POP PUSH1 0xB3 PUSH0 DUP4 ADD DUP6 PUSH1 0x5A JUMP JUMPDEST PUSH1 0xBE PUSH1 0x20 DUP4 ADD DUP5 PUSH1 0x95 JUMP JUMPDEST SWAP4 SWAP3 POP POP POP JUMP INVALID LOG2 PUSH5 0x6970667358 0x22 SLT KECCAK256 EXTCALL PUSH11 0x10A61882C9EA7EF95BC15 MUL 0x21 PC ADDMOD INVALID CALLDATALOAD 0x1E PUSH21 0xD6701C62873299AE19CB0064736F6C634300081E00 CALLER "
				},
				"gasEstimates": {
					"creation": {
						"codeDepositCost": "50200",
						"executionCost": "97",
						"totalCost": "50297"
					},
					"external": {
						"testTxInfo()": "468"
					}
				},
				"methodIdentifiers": {
					"testTxInfo()": "5e859b9c"
				}
			},
			"storageLayout": {
				"storage": [],
				"types": null
			},
			"userdoc": {
				"kind": "user",
				"methods": {},
				"version": 1
			}
		}
	}
}