{
	"contracts/2.1-全局变量/GlobalVar.sol": {
		"ENVInfo": {
			"abi": [
				{
					"inputs": [],
					"name": "testENVInfo",
					"outputs": [
						{
							"internalType": "uint256",
							"name": "",
							"type": "uint256"
						},
						{
							"internalType": "uint256",
							"name": "",
							"type": "uint256"
						},
						{
							"internalType": "address",
							"name": "",
							"type": "address"
						},
						{
							"internalType": "uint256",
							"name": "",
							"type": "uint256"
						}
					],
					"stateMutability": "view",
					"type": "function"
				}
			],
			"devdoc": {
				"kind": "dev",
				"methods": {},
				"version": 1
			},
			"evm": {
				"assembly": "    /* \"contracts/2.1-\\xe5\\x85\\xa8\\xe5\\xb1\\x80\\xe5\\x8f\\x98\\xe9\\x87\\x8f/GlobalVar.sol\":2157:2503  contract ENVInfo {... */\n  mstore(0x40, 0x80)\n  callvalue\n  dup1\n  iszero\n  tag_1\n  jumpi\n  revert(0x00, 0x00)\ntag_1:\n  pop\n  dataSize(sub_0)\n  dup1\n  dataOffset(sub_0)\n  0x00\n  codecopy\n  0x00\n  return\nstop\n\nsub_0: assembly {\n        /* \"contracts/2.1-\\xe5\\x85\\xa8\\xe5\\xb1\\x80\\xe5\\x8f\\x98\\xe9\\x87\\x8f/GlobalVar.sol\":2157:2503  contract ENVInfo {... */\n      mstore(0x40, 0x80)\n      callvalue\n      dup1\n      iszero\n      tag_1\n      jumpi\n      revert(0x00, 0x00)\n    tag_1:\n      pop\n      jumpi(tag_2, lt(calldatasize, 0x04))\n      shr(0xe0, calldataload(0x00))\n      dup1\n      0xd619f74e\n      eq\n      tag_3\n      jumpi\n    tag_2:\n      revert(0x00, 0x00)\n        /* \"contracts/2.1-\\xe5\\x85\\xa8\\xe5\\xb1\\x80\\xe5\\x8f\\x98\\xe9\\x87\\x8f/GlobalVar.sol\":2180:2501  function testENVInfo () public view returns (uint, uint, address, uint) {... */\n    tag_3:\n      tag_4\n      tag_5\n      jump\t// in\n    tag_4:\n      mload(0x40)\n      tag_6\n      swap5\n      swap4\n      swap3\n      swap2\n      swap1\n      tag_7\n      jump\t// in\n    tag_6:\n      mload(0x40)\n      dup1\n      swap2\n      sub\n      swap1\n      return\n    tag_5:\n        /* \"contracts/2.1-\\xe5\\x85\\xa8\\xe5\\xb1\\x80\\xe5\\x8f\\x98\\xe9\\x87\\x8f/GlobalVar.sol\":2225:2229  uint */\n      0x00\n        /* \"contracts/2.1-\\xe5\\x85\\xa8\\xe5\\xb1\\x80\\xe5\\x8f\\x98\\xe9\\x87\\x8f/GlobalVar.sol\":2231:2235  uint */\n      0x00\n        /* \"contracts/2.1-\\xe5\\x85\\xa8\\xe5\\xb1\\x80\\xe5\\x8f\\x98\\xe9\\x87\\x8f/GlobalVar.sol\":2237:2244  address */\n      0x00\n        /* \"contracts/2.1-\\xe5\\x85\\xa8\\xe5\\xb1\\x80\\xe5\\x8f\\x98\\xe9\\x87\\x8f/GlobalVar.sol\":2246:2250  uint */\n      0x00\n        /* \"contracts/2.1-\\xe5\\x85\\xa8\\xe5\\xb1\\x80\\xe5\\x8f\\x98\\xe9\\x87\\x8f/GlobalVar.sol\":2283:2292  gasleft() */\n      gas\n        /* \"contracts/2.1-\\xe5\\x85\\xa8\\xe5\\xb1\\x80\\xe5\\x8f\\x98\\xe9\\x87\\x8f/GlobalVar.sol\":2328:2341  block.chainid */\n      chainid\n        /* \"contracts/2.1-\\xe5\\x85\\xa8\\xe5\\xb1\\x80\\xe5\\x8f\\x98\\xe9\\x87\\x8f/GlobalVar.sol\":2391:2395  this */\n      address\n        /* \"contracts/2.1-\\xe5\\x85\\xa8\\xe5\\xb1\\x80\\xe5\\x8f\\x98\\xe9\\x87\\x8f/GlobalVar.sol\":2435:2456  address(this).balance */\n      selfbalance\n        /* \"contracts/2.1-\\xe5\\x85\\xa8\\xe5\\xb1\\x80\\xe5\\x8f\\x98\\xe9\\x87\\x8f/GlobalVar.sol\":2262:2494  return (... */\n      swap4\n      pop\n      swap4\n      pop\n      swap4\n      pop\n      swap4\n      pop\n        /* \"contracts/2.1-\\xe5\\x85\\xa8\\xe5\\xb1\\x80\\xe5\\x8f\\x98\\xe9\\x87\\x8f/GlobalVar.sol\":2180:2501  function testENVInfo () public view returns (uint, uint, address, uint) {... */\n      swap1\n      swap2\n      swap3\n      swap4\n      jump\t// out\n        /* \"#utility.yul\":7:84   */\n    tag_9:\n        /* \"#utility.yul\":44:51   */\n      0x00\n        /* \"#utility.yul\":73:78   */\n      dup2\n        /* \"#utility.yul\":62:78   */\n      swap1\n      pop\n        /* \"#utility.yul\":7:84   */\n      swap2\n      swap1\n      pop\n      jump\t// out\n        /* \"#utility.yul\":90:208   */\n    tag_10:\n        /* \"#utility.yul\":177:201   */\n      tag_17\n        /* \"#utility.yul\":195:200   */\n      dup2\n        /* \"#utility.yul\":177:201   */\n      tag_9\n      jump\t// in\n    tag_17:\n        /* \"#utility.yul\":172:175   */\n      dup3\n        /* \"#utility.yul\":165:202   */\n      mstore\n        /* \"#utility.yul\":90:208   */\n      pop\n      pop\n      jump\t// out\n        /* \"#utility.yul\":214:340   */\n    tag_11:\n        /* \"#utility.yul\":251:258   */\n      0x00\n        /* \"#utility.yul\":291:333   */\n      0xffffffffffffffffffffffffffffffffffffffff\n        /* \"#utility.yul\":284:289   */\n      dup3\n        /* \"#utility.yul\":280:334   */\n      and\n        /* \"#utility.yul\":269:334   */\n      swap1\n      pop\n        /* \"#utility.yul\":214:340   */\n      swap2\n      swap1\n      pop\n      jump\t// out\n        /* \"#utility.yul\":346:442   */\n    tag_12:\n        /* \"#utility.yul\":383:390   */\n      0x00\n        /* \"#utility.yul\":412:436   */\n      tag_20\n        /* \"#utility.yul\":430:435   */\n      dup3\n        /* \"#utility.yul\":412:436   */\n      tag_11\n      jump\t// in\n    tag_20:\n        /* \"#utility.yul\":401:436   */\n      swap1\n      pop\n        /* \"#utility.yul\":346:442   */\n      swap2\n      swap1\n      pop\n      jump\t// out\n        /* \"#utility.yul\":448:566   */\n    tag_13:\n        /* \"#utility.yul\":535:559   */\n      tag_22\n        /* \"#utility.yul\":553:558   */\n      dup2\n        /* \"#utility.yul\":535:559   */\n      tag_12\n      jump\t// in\n    tag_22:\n        /* \"#utility.yul\":530:533   */\n      dup3\n        /* \"#utility.yul\":523:560   */\n      mstore\n        /* \"#utility.yul\":448:566   */\n      pop\n      pop\n      jump\t// out\n        /* \"#utility.yul\":572:1125   */\n    tag_7:\n        /* \"#utility.yul\":749:753   */\n      0x00\n        /* \"#utility.yul\":787:790   */\n      0x80\n        /* \"#utility.yul\":776:785   */\n      dup3\n        /* \"#utility.yul\":772:791   */\n      add\n        /* \"#utility.yul\":764:791   */\n      swap1\n      pop\n        /* \"#utility.yul\":801:872   */\n      tag_24\n        /* \"#utility.yul\":869:870   */\n      0x00\n        /* \"#utility.yul\":858:867   */\n      dup4\n        /* \"#utility.yul\":854:871   */\n      add\n        /* \"#utility.yul\":845:851   */\n      dup8\n        /* \"#utility.yul\":801:872   */\n      tag_10\n      jump\t// in\n    tag_24:\n        /* \"#utility.yul\":882:954   */\n      tag_25\n        /* \"#utility.yul\":950:952   */\n      0x20\n        /* \"#utility.yul\":939:948   */\n      dup4\n        /* \"#utility.yul\":935:953   */\n      add\n        /* \"#utility.yul\":926:932   */\n      dup7\n        /* \"#utility.yul\":882:954   */\n      tag_10\n      jump\t// in\n    tag_25:\n        /* \"#utility.yul\":964:1036   */\n      tag_26\n        /* \"#utility.yul\":1032:1034   */\n      0x40\n        /* \"#utility.yul\":1021:1030   */\n      dup4\n        /* \"#utility.yul\":1017:1035   */\n      add\n        /* \"#utility.yul\":1008:1014   */\n      dup6\n        /* \"#utility.yul\":964:1036   */\n      tag_13\n      jump\t// in\n    tag_26:\n        /* \"#utility.yul\":1046:1118   */\n      tag_27\n        /* \"#utility.yul\":1114:1116   */\n      0x60\n        /* \"#utility.yul\":1103:1112   */\n      dup4\n        /* \"#utility.yul\":1099:1117   */\n      add\n        /* \"#utility.yul\":1090:1096   */\n      dup5\n        /* \"#utility.yul\":1046:1118   */\n      tag_10\n      jump\t// in\n    tag_27:\n        /* \"#utility.yul\":572:1125   */\n      swap6\n      swap5\n      pop\n      pop\n      pop\n      pop\n      pop\n      jump\t// out\n\n    auxdata: 0xa2646970667358221220bc227af21dafa75833bc1ce2726dbbf0cb73c211b912ceb34a8216c11f83d0f364736f6c634300081e0033\n}\n",
				"bytecode": {
					"linkReferences": {},
					"object": "6080604052348015600e575f5ffd5b5061011f8061001c5f395ff3fe6080604052348015600e575f5ffd5b50600436106026575f3560e01c8063d619f74e14602a575b5f5ffd5b60306047565b604051603e949392919060ae565b60405180910390f35b5f5f5f5f5a463047935093509350935090919293565b5f819050919050565b606d81605d565b82525050565b5f73ffffffffffffffffffffffffffffffffffffffff82169050919050565b5f609a826073565b9050919050565b60a8816092565b82525050565b5f60808201905060bf5f8301876066565b60ca60208301866066565b60d5604083018560a1565b60e060608301846066565b9594505050505056fea2646970667358221220bc227af21dafa75833bc1ce2726dbbf0cb73c211b912ceb34a8216c11f83d0f364736f6c634300081e0033",
					"opcodes": "PUSH1 0x80 PUSH1 0x40 MSTORE CALLVALUE DUP1 ISZERO PUSH1 0xE JUMPI PUSH0 PUSH0 REVERT JUMPDEST POP PUSH2 0x11F DUP1 PUSH2 0x1C PUSH0 CODECOPY PUSH0 RETURN INVALID PUSH1 0x80 PUSH1 0x40 MSTORE CALLVALUE DUP1 ISZERO PUSH1 0xE JUMPI PUSH0 PUSH0 REVERT JUMPDEST POP PUSH1 0x4 CALLDATASIZE LT PUSH1 0x26 JUMPI PUSH0 CALLDATALOAD PUSH1 0xE0 SHR DUP1 PUSH4 0xD619F74E EQ PUSH1 0x2A JUMPI JUMPDEST PUSH0 PUSH0 REVERT JUMPDEST PUSH1 0x30 PUSH1 0x47 JUMP JUMPDEST PUSH1 0x40 MLOAD PUSH1 0x3E SWAP5 SWAP4 SWAP3 SWAP2 SWAP1 PUSH1 0xAE JUMP JUMPDEST PUSH1 0x40 MLOAD DUP1 SWAP2 SUB SWAP1 RETURN JUMPDEST PUSH0 PUSH0 PUSH0 PUSH0 GAS CHAINID ADDRESS SELFBALANCE SWAP4 POP SWAP4 POP SWAP4 POP SWAP4 POP SWAP1 SWAP2 SWAP3 SWAP4 JUMP JUMPDEST PUSH0 DUP2 SWAP1 POP SWAP2 SWAP1 POP JUMP JUMPDEST PUSH1 0x6D DUP2 PUSH1 0x5D JUMP JUMPDEST DUP3 MSTORE POP POP JUMP JUMPDEST PUSH0 PUSH20 0xFFFFFFFFFFFFFFFFFFFFFFFFFFFFFFFFFFFFFFFF DUP3 AND SWAP1 POP SWAP2 SWAP1 POP JUMP JUMPDEST PUSH0 PUSH1 0x9A DUP3 PUSH1 0x73 JUMP JUMPDEST SWAP1 POP SWAP2 SWAP1 POP JUMP JUMPDEST PUSH1 0xA8 DUP2 PUSH1 0x92 JUMP JUMPDEST DUP3 MSTORE POP POP JUMP JUMPDEST PUSH0 PUSH1 0x80 DUP3 ADD SWAP1 POP PUSH1 0xBF PUSH0 DUP4 ADD DUP8 PUSH1 0x66 JUMP JUMPDEST PUSH1 0xCA PUSH1 0x20 DUP4 ADD DUP7 PUSH1 0x66 JUMP JUMPDEST PUSH1 0xD5 PUSH1 0x40 DUP4 ADD DUP6 PUSH1 0xA1 JUMP JUMPDEST PUSH1 0xE0 PUSH1 0x60 DUP4 ADD DUP5 PUSH1 0x66 JUMP JUMPDEST SWAP6 SWAP5 POP POP POP POP POP JUMP INVALID LOG2 PUSH5 0x6970667358 0x22 SLT KECCAK256 0xBC 0x22 PUSH27 0xF21DAFA75833BC1CE2726DBBF0CB73C211B912CEB34A8216C11F83 0xD0 RETURN PUSH5 0x736F6C6343 STOP ADDMOD 0x1E STOP CALLER "
				},
				"gasEstimates": {
					"creation": {
						"codeDepositCost": "57400",
						"executionCost": "103",
						"totalCost": "57503"
					},
					"external": {
						"testENVInfo()": "infinite"
					}
				},
				"methodIdentifiers": {
					"testENVInfo()": "d619f74e"
				}
			},
			"storageLayout": {
				"storage": [],
				"types": null
			},
			"userdoc": {
				"kind": "user",
				"methods": {},
				"version": 1
			}
		}
	}
}