{
	"1.3.2-数组.sol": {
		"Test": {
			"abi": [
				{
					"inputs": [
						{
							"internalType": "uint256",
							"name": "_element",
							"type": "uint256"
						}
					],
					"name": "addElement",
					"outputs": [
						{
							"internalType": "uint256[]",
							"name": "",
							"type": "uint256[]"
						}
					],
					"stateMutability": "nonpayable",
					"type": "function"
				},
				{
					"inputs": [
						{
							"internalType": "uint256",
							"name": "",
							"type": "uint256"
						}
					],
					"name": "arr1",
					"outputs": [
						{
							"internalType": "uint256",
							"name": "",
							"type": "uint256"
						}
					],
					"stateMutability": "view",
					"type": "function"
				},
				{
					"inputs": [
						{
							"internalType": "uint256",
							"name": "",
							"type": "uint256"
						}
					],
					"name": "arr2",
					"outputs": [
						{
							"internalType": "uint256",
							"name": "",
							"type": "uint256"
						}
					],
					"stateMutability": "view",
					"type": "function"
				},
				{
					"inputs": [
						{
							"internalType": "uint256",
							"name": "",
							"type": "uint256"
						}
					],
					"name": "arr3",
					"outputs": [
						{
							"internalType": "uint256",
							"name": "",
							"type": "uint256"
						}
					],
					"stateMutability": "view",
					"type": "function"
				},
				{
					"inputs": [
						{
							"internalType": "uint256",
							"name": "",
							"type": "uint256"
						}
					],
					"name": "arr4",
					"outputs": [
						{
							"internalType": "uint256",
							"name": "",
							"type": "uint256"
						}
					],
					"stateMutability": "view",
					"type": "function"
				},
				{
					"inputs": [
						{
							"internalType": "uint256",
							"name": "",
							"type": "uint256"
						}
					],
					"name": "arr5",
					"outputs": [
						{
							"internalType": "uint256",
							"name": "",
							"type": "uint256"
						}
					],
					"stateMutability": "view",
					"type": "function"
				},
				{
					"inputs": [],
					"name": "bs",
					"outputs": [
						{
							"internalType": "bytes",
							"name": "",
							"type": "bytes"
						}
					],
					"stateMutability": "view",
					"type": "function"
				},
				{
					"inputs": [],
					"name": "data",
					"outputs": [
						{
							"internalType": "bytes",
							"name": "",
							"type": "bytes"
						}
					],
					"stateMutability": "view",
					"type": "function"
				},
				{
					"inputs": [
						{
							"internalType": "uint256",
							"name": "",
							"type": "uint256"
						}
					],
					"name": "dynamicArray",
					"outputs": [
						{
							"internalType": "uint256",
							"name": "",
							"type": "uint256"
						}
					],
					"stateMutability": "view",
					"type": "function"
				},
				{
					"inputs": [],
					"name": "getLength",
					"outputs": [
						{
							"internalType": "uint256",
							"name": "",
							"type": "uint256"
						}
					],
					"stateMutability": "view",
					"type": "function"
				},
				{
					"inputs": [],
					"name": "readArr",
					"outputs": [
						{
							"internalType": "uint256[]",
							"name": "d1",
							"type": "uint256[]"
						},
						{
							"internalType": "uint256",
							"name": "len1",
							"type": "uint256"
						},
						{
							"internalType": "uint256[]",
							"name": "d2",
							"type": "uint256[]"
						},
						{
							"internalType": "uint256",
							"name": "len2",
							"type": "uint256"
						},
						{
							"internalType": "uint256[]",
							"name": "d3",
							"type": "uint256[]"
						},
						{
							"internalType": "uint256",
							"name": "len3",
							"type": "uint256"
						},
						{
							"internalType": "uint256[4]",
							"name": "d4",
							"type": "uint256[4]"
						},
						{
							"internalType": "uint256",
							"name": "len4",
							"type": "uint256"
						},
						{
							"internalType": "uint256[5]",
							"name": "d5",
							"type": "uint256[5]"
						},
						{
							"internalType": "uint256",
							"name": "len5",
							"type": "uint256"
						}
					],
					"stateMutability": "view",
					"type": "function"
				},
				{
					"inputs": [
						{
							"internalType": "uint256",
							"name": "index",
							"type": "uint256"
						}
					],
					"name": "readBytesByIndex",
					"outputs": [
						{
							"internalType": "int256",
							"name": "",
							"type": "int256"
						}
					],
					"stateMutability": "view",
					"type": "function"
				},
				{
					"inputs": [
						{
							"internalType": "uint256",
							"name": "index",
							"type": "uint256"
						}
					],
					"name": "readBytesByIndexStep1",
					"outputs": [
						{
							"internalType": "bytes1",
							"name": "",
							"type": "bytes1"
						}
					],
					"stateMutability": "view",
					"type": "function"
				},
				{
					"inputs": [
						{
							"internalType": "bytes1",
							"name": "b",
							"type": "bytes1"
						}
					],
					"name": "readBytesByIndexStep2",
					"outputs": [
						{
							"internalType": "int256",
							"name": "",
							"type": "int256"
						}
					],
					"stateMutability": "view",
					"type": "function"
				},
				{
					"inputs": [],
					"name": "removeLastElement",
					"outputs": [
						{
							"internalType": "uint256[]",
							"name": "",
							"type": "uint256[]"
						}
					],
					"stateMutability": "nonpayable",
					"type": "function"
				},
				{
					"inputs": [],
					"name": "str",
					"outputs": [
						{
							"internalType": "string",
							"name": "",
							"type": "string"
						}
					],
					"stateMutability": "view",
					"type": "function"
				},
				{
					"inputs": [],
					"name": "str2",
					"outputs": [
						{
							"internalType": "string",
							"name": "",
							"type": "string"
						}
					],
					"stateMutability": "view",
					"type": "function"
				},
				{
					"inputs": [],
					"name": "testArr1",
					"outputs": [
						{
							"internalType": "uint256[10]",
							"name": "",
							"type": "uint256[10]"
						}
					],
					"stateMutability": "pure",
					"type": "function"
				},
				{
					"inputs": [],
					"name": "testArrFixed",
					"outputs": [
						{
							"internalType": "uint256[]",
							"name": "",
							"type": "uint256[]"
						}
					],
					"stateMutability": "pure",
					"type": "function"
				},
				{
					"inputs": [],
					"name": "testArrFixed2",
					"outputs": [
						{
							"internalType": "uint256[3]",
							"name": "",
							"type": "uint256[3]"
						}
					],
					"stateMutability": "pure",
					"type": "function"
				},
				{
					"inputs": [
						{
							"internalType": "bytes",
							"name": "data2",
							"type": "bytes"
						},
						{
							"internalType": "uint256",
							"name": "start",
							"type": "uint256"
						},
						{
							"internalType": "uint256",
							"name": "end",
							"type": "uint256"
						}
					],
					"name": "testSlice",
					"outputs": [
						{
							"internalType": "bytes",
							"name": "",
							"type": "bytes"
						}
					],
					"stateMutability": "pure",
					"type": "function"
				}
			],
			"devdoc": {
				"kind": "dev",
				"methods": {},
				"version": 1
			},
			"evm": {
				"assembly": "    /* \"1.3.2-\\xe6\\x95\\xb0\\xe7\\xbb\\x84.sol\":65:3378  contract Test {... */\n  mstore(0x40, 0x80)\n    /* \"1.3.2-\\xe6\\x95\\xb0\\xe7\\xbb\\x84.sol\":1025:1058  uint256[] public arr2 = [1, 2, 3] */\n  mload(0x40)\n  dup1\n  0x60\n  add\n  0x40\n  mstore\n  dup1\n    /* \"1.3.2-\\xe6\\x95\\xb0\\xe7\\xbb\\x84.sol\":1050:1051  1 */\n  0x01\n    /* \"1.3.2-\\xe6\\x95\\xb0\\xe7\\xbb\\x84.sol\":1025:1058  uint256[] public arr2 = [1, 2, 3] */\n  0xff\n  and\n  dup2\n  mstore\n  0x20\n  add\n    /* \"1.3.2-\\xe6\\x95\\xb0\\xe7\\xbb\\x84.sol\":1053:1054  2 */\n  0x02\n    /* \"1.3.2-\\xe6\\x95\\xb0\\xe7\\xbb\\x84.sol\":1025:1058  uint256[] public arr2 = [1, 2, 3] */\n  0xff\n  and\n  dup2\n  mstore\n  0x20\n  add\n    /* \"1.3.2-\\xe6\\x95\\xb0\\xe7\\xbb\\x84.sol\":1056:1057  3 */\n  0x03\n    /* \"1.3.2-\\xe6\\x95\\xb0\\xe7\\xbb\\x84.sol\":1025:1058  uint256[] public arr2 = [1, 2, 3] */\n  0xff\n  and\n  dup2\n  mstore\n  pop\n  0x01\n  swap1\n  0x03\n  tag_1\n  swap3\n  swap2\n  swap1\n  tag_2\n  jump\t// in\ntag_1:\n  pop\n    /* \"1.3.2-\\xe6\\x95\\xb0\\xe7\\xbb\\x84.sol\":1102:1103  5 */\n  0x05\n    /* \"1.3.2-\\xe6\\x95\\xb0\\xe7\\xbb\\x84.sol\":1088:1104  new uint256[](5) */\n  0xffffffffffffffff\n  dup2\n  gt\n  iszero\n  tag_3\n  jumpi\n  tag_4\n  tag_5\n  jump\t// in\ntag_4:\ntag_3:\n  mload(0x40)\n  swap1\n  dup1\n  dup3\n  mstore\n  dup1\n  0x20\n  mul\n  0x20\n  add\n  dup3\n  add\n  0x40\n  mstore\n  dup1\n  iszero\n  tag_6\n  jumpi\n  dup2\n  0x20\n  add\n  0x20\n  dup3\n  mul\n  dup1\n  calldatasize\n  dup4\n  calldatacopy\n  dup1\n  dup3\n  add\n  swap2\n  pop\n  pop\n  swap1\n  pop\ntag_6:\n  pop\n    /* \"1.3.2-\\xe6\\x95\\xb0\\xe7\\xbb\\x84.sol\":1064:1104  uint256[] public arr3 = new uint256[](5) */\n  0x02\n  swap1\n  dup1\n  mload\n  swap1\n  0x20\n  add\n  swap1\n  tag_7\n  swap3\n  swap2\n  swap1\n  tag_8\n  jump\t// in\ntag_7:\n  pop\n    /* \"1.3.2-\\xe6\\x95\\xb0\\xe7\\xbb\\x84.sol\":1138:1178  uint256[5] public arr5 = [1, 2, 3, 4, 5] */\n  mload(0x40)\n  dup1\n  0xa0\n  add\n  0x40\n  mstore\n  dup1\n    /* \"1.3.2-\\xe6\\x95\\xb0\\xe7\\xbb\\x84.sol\":1164:1165  1 */\n  0x01\n    /* \"1.3.2-\\xe6\\x95\\xb0\\xe7\\xbb\\x84.sol\":1138:1178  uint256[5] public arr5 = [1, 2, 3, 4, 5] */\n  0xff\n  and\n  dup2\n  mstore\n  0x20\n  add\n    /* \"1.3.2-\\xe6\\x95\\xb0\\xe7\\xbb\\x84.sol\":1167:1168  2 */\n  0x02\n    /* \"1.3.2-\\xe6\\x95\\xb0\\xe7\\xbb\\x84.sol\":1138:1178  uint256[5] public arr5 = [1, 2, 3, 4, 5] */\n  0xff\n  and\n  dup2\n  mstore\n  0x20\n  add\n    /* \"1.3.2-\\xe6\\x95\\xb0\\xe7\\xbb\\x84.sol\":1170:1171  3 */\n  0x03\n    /* \"1.3.2-\\xe6\\x95\\xb0\\xe7\\xbb\\x84.sol\":1138:1178  uint256[5] public arr5 = [1, 2, 3, 4, 5] */\n  0xff\n  and\n  dup2\n  mstore\n  0x20\n  add\n    /* \"1.3.2-\\xe6\\x95\\xb0\\xe7\\xbb\\x84.sol\":1173:1174  4 */\n  0x04\n    /* \"1.3.2-\\xe6\\x95\\xb0\\xe7\\xbb\\x84.sol\":1138:1178  uint256[5] public arr5 = [1, 2, 3, 4, 5] */\n  0xff\n  and\n  dup2\n  mstore\n  0x20\n  add\n    /* \"1.3.2-\\xe6\\x95\\xb0\\xe7\\xbb\\x84.sol\":1176:1177  5 */\n  0x05\n    /* \"1.3.2-\\xe6\\x95\\xb0\\xe7\\xbb\\x84.sol\":1138:1178  uint256[5] public arr5 = [1, 2, 3, 4, 5] */\n  0xff\n  and\n  dup2\n  mstore\n  pop\n  0x07\n  swap1\n  0x05\n  tag_9\n  swap3\n  swap2\n  swap1\n  tag_10\n  jump\t// in\ntag_9:\n  pop\n    /* \"1.3.2-\\xe6\\x95\\xb0\\xe7\\xbb\\x84.sol\":2253:2284  bytes public bs = \"abc\\x22\\x22\" */\n  mload(0x40)\n  dup1\n  0x40\n  add\n  0x40\n  mstore\n  dup1\n  0x05\n  dup2\n  mstore\n  0x20\n  add\n  0x6162632222000000000000000000000000000000000000000000000000000000\n  dup2\n  mstore\n  pop\n  0x0d\n  swap1\n  dup2\n  tag_11\n  swap2\n  swap1\n  tag_12\n  jump\t// in\ntag_11:\n  pop\n    /* \"1.3.2-\\xe6\\x95\\xb0\\xe7\\xbb\\x84.sol\":2320:2322  10 */\n  0x0a\n    /* \"1.3.2-\\xe6\\x95\\xb0\\xe7\\xbb\\x84.sol\":2310:2323  new bytes(10) */\n  0xffffffffffffffff\n  dup2\n  gt\n  iszero\n  tag_13\n  jumpi\n  tag_14\n  tag_5\n  jump\t// in\ntag_14:\ntag_13:\n  mload(0x40)\n  swap1\n  dup1\n  dup3\n  mstore\n  dup1\n  0x1f\n  add\n  not(0x1f)\n  and\n  0x20\n  add\n  dup3\n  add\n  0x40\n  mstore\n  dup1\n  iszero\n  tag_15\n  jumpi\n  dup2\n  0x20\n  add\n  0x01\n  dup3\n  mul\n  dup1\n  calldatasize\n  dup4\n  calldatacopy\n  dup1\n  dup3\n  add\n  swap2\n  pop\n  pop\n  swap1\n  pop\ntag_15:\n  pop\n    /* \"1.3.2-\\xe6\\x95\\xb0\\xe7\\xbb\\x84.sol\":2290:2323  bytes public data = new bytes(10) */\n  0x0e\n  swap1\n  dup2\n  tag_16\n  swap2\n  swap1\n  tag_17\n  jump\t// in\ntag_16:\n  pop\n    /* \"1.3.2-\\xe6\\x95\\xb0\\xe7\\xbb\\x84.sol\":2953:2985  string public str2 = \"abc\\u718A\" */\n  mload(0x40)\n  dup1\n  0x40\n  add\n  0x40\n  mstore\n  dup1\n  0x06\n  dup2\n  mstore\n  0x20\n  add\n  0x616263e7868a0000000000000000000000000000000000000000000000000000\n  dup2\n  mstore\n  pop\n  0x10\n  swap1\n  dup2\n  tag_18\n  swap2\n  swap1\n  tag_19\n  jump\t// in\ntag_18:\n  pop\n    /* \"1.3.2-\\xe6\\x95\\xb0\\xe7\\xbb\\x84.sol\":65:3378  contract Test {... */\n  callvalue\n  dup1\n  iszero\n  tag_20\n  jumpi\n  0x00\n  dup1\n  revert\ntag_20:\n  pop\n  jump(tag_21)\ntag_2:\n  dup3\n  dup1\n  sload\n  dup3\n  dup3\n  sstore\n  swap1\n  0x00\n  mstore\n  keccak256(0x00, 0x20)\n  swap1\n  dup2\n  add\n  swap3\n  dup3\n  iszero\n  tag_22\n  jumpi\n  swap2\n  0x20\n  mul\n  dup3\n  add\ntag_23:\n  dup3\n  dup2\n  gt\n  iszero\n  tag_24\n  jumpi\n  dup3\n  mload\n  dup3\n  swap1\n  0xff\n  and\n  swap1\n  sstore\n  swap2\n  0x20\n  add\n  swap2\n  swap1\n  0x01\n  add\n  swap1\n  jump(tag_23)\ntag_24:\ntag_22:\n  pop\n  swap1\n  pop\n  tag_25\n  swap2\n  swap1\n  tag_26\n  jump\t// in\ntag_25:\n  pop\n  swap1\n  jump\t// out\ntag_8:\n  dup3\n  dup1\n  sload\n  dup3\n  dup3\n  sstore\n  swap1\n  0x00\n  mstore\n  keccak256(0x00, 0x20)\n  swap1\n  dup2\n  add\n  swap3\n  dup3\n  iszero\n  tag_27\n  jumpi\n  swap2\n  0x20\n  mul\n  dup3\n  add\ntag_28:\n  dup3\n  dup2\n  gt\n  iszero\n  tag_29\n  jumpi\n  dup3\n  mload\n  dup3\n  sstore\n  swap2\n  0x20\n  add\n  swap2\n  swap1\n  0x01\n  add\n  swap1\n  jump(tag_28)\ntag_29:\ntag_27:\n  pop\n  swap1\n  pop\n  tag_30\n  swap2\n  swap1\n  tag_26\n  jump\t// in\ntag_30:\n  pop\n  swap1\n  jump\t// out\ntag_10:\n  dup3\n  0x05\n  dup2\n  add\n  swap3\n  dup3\n  iszero\n  tag_31\n  jumpi\n  swap2\n  0x20\n  mul\n  dup3\n  add\ntag_32:\n  dup3\n  dup2\n  gt\n  iszero\n  tag_33\n  jumpi\n  dup3\n  mload\n  dup3\n  swap1\n  0xff\n  and\n  swap1\n  sstore\n  swap2\n  0x20\n  add\n  swap2\n  swap1\n  0x01\n  add\n  swap1\n  jump(tag_32)\ntag_33:\ntag_31:\n  pop\n  swap1\n  pop\n  tag_34\n  swap2\n  swap1\n  tag_26\n  jump\t// in\ntag_34:\n  pop\n  swap1\n  jump\t// out\ntag_26:\ntag_35:\n  dup1\n  dup3\n  gt\n  iszero\n  tag_36\n  jumpi\n  0x00\n  dup2\n  0x00\n  swap1\n  sstore\n  pop\n  0x01\n  add\n  jump(tag_35)\ntag_36:\n  pop\n  swap1\n  jump\t// out\n    /* \"#utility.yul\":7:187   */\ntag_5:\n    /* \"#utility.yul\":55:132   */\n  0x4e487b7100000000000000000000000000000000000000000000000000000000\n    /* \"#utility.yul\":52:53   */\n  0x00\n    /* \"#utility.yul\":45:133   */\n  mstore\n    /* \"#utility.yul\":152:156   */\n  0x41\n    /* \"#utility.yul\":149:150   */\n  0x04\n    /* \"#utility.yul\":142:157   */\n  mstore\n    /* \"#utility.yul\":176:180   */\n  0x24\n    /* \"#utility.yul\":173:174   */\n  0x00\n    /* \"#utility.yul\":166:181   */\n  revert\n    /* \"#utility.yul\":193:292   */\ntag_37:\n    /* \"#utility.yul\":245:251   */\n  0x00\n    /* \"#utility.yul\":279:284   */\n  dup2\n    /* \"#utility.yul\":273:285   */\n  mload\n    /* \"#utility.yul\":263:285   */\n  swap1\n  pop\n    /* \"#utility.yul\":193:292   */\n  swap2\n  swap1\n  pop\n  jump\t// out\n    /* \"#utility.yul\":298:478   */\ntag_38:\n    /* \"#utility.yul\":346:423   */\n  0x4e487b7100000000000000000000000000000000000000000000000000000000\n    /* \"#utility.yul\":343:344   */\n  0x00\n    /* \"#utility.yul\":336:424   */\n  mstore\n    /* \"#utility.yul\":443:447   */\n  0x22\n    /* \"#utility.yul\":440:441   */\n  0x04\n    /* \"#utility.yul\":433:448   */\n  mstore\n    /* \"#utility.yul\":467:471   */\n  0x24\n    /* \"#utility.yul\":464:465   */\n  0x00\n    /* \"#utility.yul\":457:472   */\n  revert\n    /* \"#utility.yul\":484:804   */\ntag_39:\n    /* \"#utility.yul\":528:534   */\n  0x00\n    /* \"#utility.yul\":565:566   */\n  0x02\n    /* \"#utility.yul\":559:563   */\n  dup3\n    /* \"#utility.yul\":555:567   */\n  div\n    /* \"#utility.yul\":545:567   */\n  swap1\n  pop\n    /* \"#utility.yul\":612:613   */\n  0x01\n    /* \"#utility.yul\":606:610   */\n  dup3\n    /* \"#utility.yul\":602:614   */\n  and\n    /* \"#utility.yul\":633:651   */\n  dup1\n    /* \"#utility.yul\":623:704   */\n  tag_64\n  jumpi\n    /* \"#utility.yul\":689:693   */\n  0x7f\n    /* \"#utility.yul\":681:687   */\n  dup3\n    /* \"#utility.yul\":677:694   */\n  and\n    /* \"#utility.yul\":667:694   */\n  swap2\n  pop\n    /* \"#utility.yul\":623:704   */\ntag_64:\n    /* \"#utility.yul\":751:753   */\n  0x20\n    /* \"#utility.yul\":743:749   */\n  dup3\n    /* \"#utility.yul\":740:754   */\n  lt\n    /* \"#utility.yul\":720:738   */\n  dup2\n    /* \"#utility.yul\":717:755   */\n  sub\n    /* \"#utility.yul\":714:798   */\n  tag_65\n  jumpi\n    /* \"#utility.yul\":770:788   */\n  tag_66\n  tag_38\n  jump\t// in\ntag_66:\n    /* \"#utility.yul\":714:798   */\ntag_65:\n    /* \"#utility.yul\":535:804   */\n  pop\n    /* \"#utility.yul\":484:804   */\n  swap2\n  swap1\n  pop\n  jump\t// out\n    /* \"#utility.yul\":810:950   */\ntag_40:\n    /* \"#utility.yul\":858:862   */\n  0x00\n    /* \"#utility.yul\":881:884   */\n  dup2\n    /* \"#utility.yul\":873:884   */\n  swap1\n  pop\n    /* \"#utility.yul\":904:907   */\n  dup2\n    /* \"#utility.yul\":901:902   */\n  0x00\n    /* \"#utility.yul\":894:908   */\n  mstore\n    /* \"#utility.yul\":938:942   */\n  0x20\n    /* \"#utility.yul\":935:936   */\n  0x00\n    /* \"#utility.yul\":925:943   */\n  keccak256\n    /* \"#utility.yul\":917:943   */\n  swap1\n  pop\n    /* \"#utility.yul\":810:950   */\n  swap2\n  swap1\n  pop\n  jump\t// out\n    /* \"#utility.yul\":956:1049   */\ntag_41:\n    /* \"#utility.yul\":993:999   */\n  0x00\n    /* \"#utility.yul\":1040:1042   */\n  0x20\n    /* \"#utility.yul\":1035:1037   */\n  0x1f\n    /* \"#utility.yul\":1028:1033   */\n  dup4\n    /* \"#utility.yul\":1024:1038   */\n  add\n    /* \"#utility.yul\":1020:1043   */\n  div\n    /* \"#utility.yul\":1010:1043   */\n  swap1\n  pop\n    /* \"#utility.yul\":956:1049   */\n  swap2\n  swap1\n  pop\n  jump\t// out\n    /* \"#utility.yul\":1055:1162   */\ntag_42:\n    /* \"#utility.yul\":1099:1107   */\n  0x00\n    /* \"#utility.yul\":1149:1154   */\n  dup3\n    /* \"#utility.yul\":1143:1147   */\n  dup3\n    /* \"#utility.yul\":1139:1155   */\n  shl\n    /* \"#utility.yul\":1118:1155   */\n  swap1\n  pop\n    /* \"#utility.yul\":1055:1162   */\n  swap3\n  swap2\n  pop\n  pop\n  jump\t// out\n    /* \"#utility.yul\":1168:1561   */\ntag_43:\n    /* \"#utility.yul\":1237:1243   */\n  0x00\n    /* \"#utility.yul\":1287:1288   */\n  0x08\n    /* \"#utility.yul\":1275:1285   */\n  dup4\n    /* \"#utility.yul\":1271:1289   */\n  mul\n    /* \"#utility.yul\":1310:1407   */\n  tag_71\n    /* \"#utility.yul\":1340:1406   */\n  0xffffffffffffffffffffffffffffffffffffffffffffffffffffffffffffffff\n    /* \"#utility.yul\":1329:1338   */\n  dup3\n    /* \"#utility.yul\":1310:1407   */\n  tag_42\n  jump\t// in\ntag_71:\n    /* \"#utility.yul\":1428:1467   */\n  tag_72\n    /* \"#utility.yul\":1458:1466   */\n  dup7\n    /* \"#utility.yul\":1447:1456   */\n  dup4\n    /* \"#utility.yul\":1428:1467   */\n  tag_42\n  jump\t// in\ntag_72:\n    /* \"#utility.yul\":1416:1467   */\n  swap6\n  pop\n    /* \"#utility.yul\":1500:1504   */\n  dup1\n    /* \"#utility.yul\":1496:1505   */\n  not\n    /* \"#utility.yul\":1489:1494   */\n  dup5\n    /* \"#utility.yul\":1485:1506   */\n  and\n    /* \"#utility.yul\":1476:1506   */\n  swap4\n  pop\n    /* \"#utility.yul\":1549:1553   */\n  dup1\n    /* \"#utility.yul\":1539:1547   */\n  dup7\n    /* \"#utility.yul\":1535:1554   */\n  and\n    /* \"#utility.yul\":1528:1533   */\n  dup5\n    /* \"#utility.yul\":1525:1555   */\n  or\n    /* \"#utility.yul\":1515:1555   */\n  swap3\n  pop\n    /* \"#utility.yul\":1244:1561   */\n  pop\n  pop\n    /* \"#utility.yul\":1168:1561   */\n  swap4\n  swap3\n  pop\n  pop\n  pop\n  jump\t// out\n    /* \"#utility.yul\":1567:1644   */\ntag_44:\n    /* \"#utility.yul\":1604:1611   */\n  0x00\n    /* \"#utility.yul\":1633:1638   */\n  dup2\n    /* \"#utility.yul\":1622:1638   */\n  swap1\n  pop\n    /* \"#utility.yul\":1567:1644   */\n  swap2\n  swap1\n  pop\n  jump\t// out\n    /* \"#utility.yul\":1650:1710   */\ntag_45:\n    /* \"#utility.yul\":1678:1681   */\n  0x00\n    /* \"#utility.yul\":1699:1704   */\n  dup2\n    /* \"#utility.yul\":1692:1704   */\n  swap1\n  pop\n    /* \"#utility.yul\":1650:1710   */\n  swap2\n  swap1\n  pop\n  jump\t// out\n    /* \"#utility.yul\":1716:1858   */\ntag_46:\n    /* \"#utility.yul\":1766:1775   */\n  0x00\n    /* \"#utility.yul\":1799:1852   */\n  tag_76\n    /* \"#utility.yul\":1817:1851   */\n  tag_77\n    /* \"#utility.yul\":1826:1850   */\n  tag_78\n    /* \"#utility.yul\":1844:1849   */\n  dup5\n    /* \"#utility.yul\":1826:1850   */\n  tag_44\n  jump\t// in\ntag_78:\n    /* \"#utility.yul\":1817:1851   */\n  tag_45\n  jump\t// in\ntag_77:\n    /* \"#utility.yul\":1799:1852   */\n  tag_44\n  jump\t// in\ntag_76:\n    /* \"#utility.yul\":1786:1852   */\n  swap1\n  pop\n    /* \"#utility.yul\":1716:1858   */\n  swap2\n  swap1\n  pop\n  jump\t// out\n    /* \"#utility.yul\":1864:1939   */\ntag_47:\n    /* \"#utility.yul\":1907:1910   */\n  0x00\n    /* \"#utility.yul\":1928:1933   */\n  dup2\n    /* \"#utility.yul\":1921:1933   */\n  swap1\n  pop\n    /* \"#utility.yul\":1864:1939   */\n  swap2\n  swap1\n  pop\n  jump\t// out\n    /* \"#utility.yul\":1945:2214   */\ntag_48:\n    /* \"#utility.yul\":2055:2094   */\n  tag_81\n    /* \"#utility.yul\":2086:2093   */\n  dup4\n    /* \"#utility.yul\":2055:2094   */\n  tag_46\n  jump\t// in\ntag_81:\n    /* \"#utility.yul\":2116:2207   */\n  tag_82\n    /* \"#utility.yul\":2165:2206   */\n  tag_83\n    /* \"#utility.yul\":2189:2205   */\n  dup3\n    /* \"#utility.yul\":2165:2206   */\n  tag_47\n  jump\t// in\ntag_83:\n    /* \"#utility.yul\":2157:2163   */\n  dup5\n    /* \"#utility.yul\":2150:2154   */\n  dup5\n    /* \"#utility.yul\":2144:2155   */\n  sload\n    /* \"#utility.yul\":2116:2207   */\n  tag_43\n  jump\t// in\ntag_82:\n    /* \"#utility.yul\":2110:2114   */\n  dup3\n    /* \"#utility.yul\":2103:2208   */\n  sstore\n    /* \"#utility.yul\":2021:2214   */\n  pop\n    /* \"#utility.yul\":1945:2214   */\n  pop\n  pop\n  pop\n  jump\t// out\n    /* \"#utility.yul\":2220:2293   */\ntag_49:\n    /* \"#utility.yul\":2265:2268   */\n  0x00\n    /* \"#utility.yul\":2220:2293   */\n  swap1\n  jump\t// out\n    /* \"#utility.yul\":2299:2488   */\ntag_50:\n    /* \"#utility.yul\":2376:2408   */\n  tag_86\n  tag_49\n  jump\t// in\ntag_86:\n    /* \"#utility.yul\":2417:2482   */\n  tag_87\n    /* \"#utility.yul\":2475:2481   */\n  dup2\n    /* \"#utility.yul\":2467:2473   */\n  dup5\n    /* \"#utility.yul\":2461:2465   */\n  dup5\n    /* \"#utility.yul\":2417:2482   */\n  tag_48\n  jump\t// in\ntag_87:\n    /* \"#utility.yul\":2352:2488   */\n  pop\n    /* \"#utility.yul\":2299:2488   */\n  pop\n  pop\n  jump\t// out\n    /* \"#utility.yul\":2494:2680   */\ntag_51:\n    /* \"#utility.yul\":2554:2674   */\ntag_89:\n    /* \"#utility.yul\":2571:2574   */\n  dup2\n    /* \"#utility.yul\":2564:2569   */\n  dup2\n    /* \"#utility.yul\":2561:2575   */\n  lt\n    /* \"#utility.yul\":2554:2674   */\n  iszero\n  tag_91\n  jumpi\n    /* \"#utility.yul\":2625:2664   */\n  tag_92\n    /* \"#utility.yul\":2662:2663   */\n  0x00\n    /* \"#utility.yul\":2655:2660   */\n  dup3\n    /* \"#utility.yul\":2625:2664   */\n  tag_50\n  jump\t// in\ntag_92:\n    /* \"#utility.yul\":2598:2599   */\n  0x01\n    /* \"#utility.yul\":2591:2596   */\n  dup2\n    /* \"#utility.yul\":2587:2600   */\n  add\n    /* \"#utility.yul\":2578:2600   */\n  swap1\n  pop\n    /* \"#utility.yul\":2554:2674   */\n  jump(tag_89)\ntag_91:\n    /* \"#utility.yul\":2494:2680   */\n  pop\n  pop\n  jump\t// out\n    /* \"#utility.yul\":2686:3227   */\ntag_52:\n    /* \"#utility.yul\":2786:2788   */\n  0x1f\n    /* \"#utility.yul\":2781:2784   */\n  dup3\n    /* \"#utility.yul\":2778:2789   */\n  gt\n    /* \"#utility.yul\":2775:3220   */\n  iszero\n  tag_94\n  jumpi\n    /* \"#utility.yul\":2820:2857   */\n  tag_95\n    /* \"#utility.yul\":2851:2856   */\n  dup2\n    /* \"#utility.yul\":2820:2857   */\n  tag_40\n  jump\t// in\ntag_95:\n    /* \"#utility.yul\":2903:2932   */\n  tag_96\n    /* \"#utility.yul\":2921:2931   */\n  dup5\n    /* \"#utility.yul\":2903:2932   */\n  tag_41\n  jump\t// in\ntag_96:\n    /* \"#utility.yul\":2893:2901   */\n  dup2\n    /* \"#utility.yul\":2889:2933   */\n  add\n    /* \"#utility.yul\":3086:3088   */\n  0x20\n    /* \"#utility.yul\":3074:3084   */\n  dup6\n    /* \"#utility.yul\":3071:3089   */\n  lt\n    /* \"#utility.yul\":3068:3117   */\n  iszero\n  tag_97\n  jumpi\n    /* \"#utility.yul\":3107:3115   */\n  dup2\n    /* \"#utility.yul\":3092:3115   */\n  swap1\n  pop\n    /* \"#utility.yul\":3068:3117   */\ntag_97:\n    /* \"#utility.yul\":3130:3210   */\n  tag_98\n    /* \"#utility.yul\":3186:3208   */\n  tag_99\n    /* \"#utility.yul\":3204:3207   */\n  dup6\n    /* \"#utility.yul\":3186:3208   */\n  tag_41\n  jump\t// in\ntag_99:\n    /* \"#utility.yul\":3176:3184   */\n  dup4\n    /* \"#utility.yul\":3172:3209   */\n  add\n    /* \"#utility.yul\":3159:3170   */\n  dup3\n    /* \"#utility.yul\":3130:3210   */\n  tag_51\n  jump\t// in\ntag_98:\n    /* \"#utility.yul\":2790:3220   */\n  pop\n  pop\n    /* \"#utility.yul\":2775:3220   */\ntag_94:\n    /* \"#utility.yul\":2686:3227   */\n  pop\n  pop\n  pop\n  jump\t// out\n    /* \"#utility.yul\":3233:3350   */\ntag_53:\n    /* \"#utility.yul\":3287:3295   */\n  0x00\n    /* \"#utility.yul\":3337:3342   */\n  dup3\n    /* \"#utility.yul\":3331:3335   */\n  dup3\n    /* \"#utility.yul\":3327:3343   */\n  shr\n    /* \"#utility.yul\":3306:3343   */\n  swap1\n  pop\n    /* \"#utility.yul\":3233:3350   */\n  swap3\n  swap2\n  pop\n  pop\n  jump\t// out\n    /* \"#utility.yul\":3356:3525   */\ntag_54:\n    /* \"#utility.yul\":3400:3406   */\n  0x00\n    /* \"#utility.yul\":3433:3484   */\n  tag_102\n    /* \"#utility.yul\":3481:3482   */\n  0x00\n    /* \"#utility.yul\":3477:3483   */\n  not\n    /* \"#utility.yul\":3469:3474   */\n  dup5\n    /* \"#utility.yul\":3466:3467   */\n  0x08\n    /* \"#utility.yul\":3462:3475   */\n  mul\n    /* \"#utility.yul\":3433:3484   */\n  tag_53\n  jump\t// in\ntag_102:\n    /* \"#utility.yul\":3429:3485   */\n  not\n    /* \"#utility.yul\":3514:3518   */\n  dup1\n    /* \"#utility.yul\":3508:3512   */\n  dup4\n    /* \"#utility.yul\":3504:3519   */\n  and\n    /* \"#utility.yul\":3494:3519   */\n  swap2\n  pop\n    /* \"#utility.yul\":3407:3525   */\n  pop\n    /* \"#utility.yul\":3356:3525   */\n  swap3\n  swap2\n  pop\n  pop\n  jump\t// out\n    /* \"#utility.yul\":3530:3825   */\ntag_55:\n    /* \"#utility.yul\":3606:3610   */\n  0x00\n    /* \"#utility.yul\":3752:3781   */\n  tag_104\n    /* \"#utility.yul\":3777:3780   */\n  dup4\n    /* \"#utility.yul\":3771:3775   */\n  dup4\n    /* \"#utility.yul\":3752:3781   */\n  tag_54\n  jump\t// in\ntag_104:\n    /* \"#utility.yul\":3744:3781   */\n  swap2\n  pop\n    /* \"#utility.yul\":3814:3817   */\n  dup3\n    /* \"#utility.yul\":3811:3812   */\n  0x02\n    /* \"#utility.yul\":3807:3818   */\n  mul\n    /* \"#utility.yul\":3801:3805   */\n  dup3\n    /* \"#utility.yul\":3798:3819   */\n  or\n    /* \"#utility.yul\":3790:3819   */\n  swap1\n  pop\n    /* \"#utility.yul\":3530:3825   */\n  swap3\n  swap2\n  pop\n  pop\n  jump\t// out\n    /* \"#utility.yul\":3830:5222   */\ntag_12:\n    /* \"#utility.yul\":3946:3983   */\n  tag_106\n    /* \"#utility.yul\":3979:3982   */\n  dup3\n    /* \"#utility.yul\":3946:3983   */\n  tag_37\n  jump\t// in\ntag_106:\n    /* \"#utility.yul\":4048:4066   */\n  0xffffffffffffffff\n    /* \"#utility.yul\":4040:4046   */\n  dup2\n    /* \"#utility.yul\":4037:4067   */\n  gt\n    /* \"#utility.yul\":4034:4090   */\n  iszero\n  tag_107\n  jumpi\n    /* \"#utility.yul\":4070:4088   */\n  tag_108\n  tag_5\n  jump\t// in\ntag_108:\n    /* \"#utility.yul\":4034:4090   */\ntag_107:\n    /* \"#utility.yul\":4114:4152   */\n  tag_109\n    /* \"#utility.yul\":4146:4150   */\n  dup3\n    /* \"#utility.yul\":4140:4151   */\n  sload\n    /* \"#utility.yul\":4114:4152   */\n  tag_39\n  jump\t// in\ntag_109:\n    /* \"#utility.yul\":4199:4265   */\n  tag_110\n    /* \"#utility.yul\":4258:4264   */\n  dup3\n    /* \"#utility.yul\":4250:4256   */\n  dup3\n    /* \"#utility.yul\":4244:4248   */\n  dup6\n    /* \"#utility.yul\":4199:4265   */\n  tag_52\n  jump\t// in\ntag_110:\n    /* \"#utility.yul\":4292:4293   */\n  0x00\n    /* \"#utility.yul\":4316:4320   */\n  0x20\n    /* \"#utility.yul\":4303:4320   */\n  swap1\n  pop\n    /* \"#utility.yul\":4348:4350   */\n  0x1f\n    /* \"#utility.yul\":4340:4346   */\n  dup4\n    /* \"#utility.yul\":4337:4351   */\n  gt\n    /* \"#utility.yul\":4365:4366   */\n  0x01\n    /* \"#utility.yul\":4360:4977   */\n  dup2\n  eq\n  tag_112\n  jumpi\n    /* \"#utility.yul\":5021:5022   */\n  0x00\n    /* \"#utility.yul\":5038:5044   */\n  dup5\n    /* \"#utility.yul\":5035:5112   */\n  iszero\n  tag_113\n  jumpi\n    /* \"#utility.yul\":5087:5096   */\n  dup3\n    /* \"#utility.yul\":5082:5085   */\n  dup8\n    /* \"#utility.yul\":5078:5097   */\n  add\n    /* \"#utility.yul\":5072:5098   */\n  mload\n    /* \"#utility.yul\":5063:5098   */\n  swap1\n  pop\n    /* \"#utility.yul\":5035:5112   */\ntag_113:\n    /* \"#utility.yul\":5138:5205   */\n  tag_114\n    /* \"#utility.yul\":5198:5204   */\n  dup6\n    /* \"#utility.yul\":5191:5196   */\n  dup3\n    /* \"#utility.yul\":5138:5205   */\n  tag_55\n  jump\t// in\ntag_114:\n    /* \"#utility.yul\":5132:5136   */\n  dup7\n    /* \"#utility.yul\":5125:5206   */\n  sstore\n    /* \"#utility.yul\":4994:5216   */\n  pop\n    /* \"#utility.yul\":4330:5216   */\n  jump(tag_111)\n    /* \"#utility.yul\":4360:4977   */\ntag_112:\n    /* \"#utility.yul\":4412:4416   */\n  0x1f\n    /* \"#utility.yul\":4408:4417   */\n  not\n    /* \"#utility.yul\":4400:4406   */\n  dup5\n    /* \"#utility.yul\":4396:4418   */\n  and\n    /* \"#utility.yul\":4446:4482   */\n  tag_115\n    /* \"#utility.yul\":4477:4481   */\n  dup7\n    /* \"#utility.yul\":4446:4482   */\n  tag_40\n  jump\t// in\ntag_115:\n    /* \"#utility.yul\":4504:4505   */\n  0x00\n    /* \"#utility.yul\":4518:4726   */\ntag_116:\n    /* \"#utility.yul\":4532:4539   */\n  dup3\n    /* \"#utility.yul\":4529:4530   */\n  dup2\n    /* \"#utility.yul\":4526:4540   */\n  lt\n    /* \"#utility.yul\":4518:4726   */\n  iszero\n  tag_118\n  jumpi\n    /* \"#utility.yul\":4611:4620   */\n  dup5\n    /* \"#utility.yul\":4606:4609   */\n  dup10\n    /* \"#utility.yul\":4602:4621   */\n  add\n    /* \"#utility.yul\":4596:4622   */\n  mload\n    /* \"#utility.yul\":4588:4594   */\n  dup3\n    /* \"#utility.yul\":4581:4623   */\n  sstore\n    /* \"#utility.yul\":4662:4663   */\n  0x01\n    /* \"#utility.yul\":4654:4660   */\n  dup3\n    /* \"#utility.yul\":4650:4664   */\n  add\n    /* \"#utility.yul\":4640:4664   */\n  swap2\n  pop\n    /* \"#utility.yul\":4709:4711   */\n  0x20\n    /* \"#utility.yul\":4698:4707   */\n  dup6\n    /* \"#utility.yul\":4694:4712   */\n  add\n    /* \"#utility.yul\":4681:4712   */\n  swap5\n  pop\n    /* \"#utility.yul\":4555:4559   */\n  0x20\n    /* \"#utility.yul\":4552:4553   */\n  dup2\n    /* \"#utility.yul\":4548:4560   */\n  add\n    /* \"#utility.yul\":4543:4560   */\n  swap1\n  pop\n    /* \"#utility.yul\":4518:4726   */\n  jump(tag_116)\ntag_118:\n    /* \"#utility.yul\":4754:4760   */\n  dup7\n    /* \"#utility.yul\":4745:4752   */\n  dup4\n    /* \"#utility.yul\":4742:4761   */\n  lt\n    /* \"#utility.yul\":4739:4918   */\n  iszero\n  tag_119\n  jumpi\n    /* \"#utility.yul\":4812:4821   */\n  dup5\n    /* \"#utility.yul\":4807:4810   */\n  dup10\n    /* \"#utility.yul\":4803:4822   */\n  add\n    /* \"#utility.yul\":4797:4823   */\n  mload\n    /* \"#utility.yul\":4855:4903   */\n  tag_120\n    /* \"#utility.yul\":4897:4901   */\n  0x1f\n    /* \"#utility.yul\":4889:4895   */\n  dup10\n    /* \"#utility.yul\":4885:4902   */\n  and\n    /* \"#utility.yul\":4874:4883   */\n  dup3\n    /* \"#utility.yul\":4855:4903   */\n  tag_54\n  jump\t// in\ntag_120:\n    /* \"#utility.yul\":4847:4853   */\n  dup4\n    /* \"#utility.yul\":4840:4904   */\n  sstore\n    /* \"#utility.yul\":4762:4918   */\n  pop\n    /* \"#utility.yul\":4739:4918   */\ntag_119:\n    /* \"#utility.yul\":4964:4965   */\n  0x01\n    /* \"#utility.yul\":4960:4961   */\n  0x02\n    /* \"#utility.yul\":4952:4958   */\n  dup9\n    /* \"#utility.yul\":4948:4962   */\n  mul\n    /* \"#utility.yul\":4944:4966   */\n  add\n    /* \"#utility.yul\":4938:4942   */\n  dup9\n    /* \"#utility.yul\":4931:4967   */\n  sstore\n    /* \"#utility.yul\":4367:4977   */\n  pop\n  pop\n  pop\n    /* \"#utility.yul\":4330:5216   */\ntag_111:\n  pop\n    /* \"#utility.yul\":3921:5222   */\n  pop\n  pop\n  pop\n    /* \"#utility.yul\":3830:5222   */\n  pop\n  pop\n  jump\t// out\n    /* \"#utility.yul\":5228:5326   */\ntag_56:\n    /* \"#utility.yul\":5279:5285   */\n  0x00\n    /* \"#utility.yul\":5313:5318   */\n  dup2\n    /* \"#utility.yul\":5307:5319   */\n  mload\n    /* \"#utility.yul\":5297:5319   */\n  swap1\n  pop\n    /* \"#utility.yul\":5228:5326   */\n  swap2\n  swap1\n  pop\n  jump\t// out\n    /* \"#utility.yul\":5332:6722   */\ntag_17:\n    /* \"#utility.yul\":5447:5483   */\n  tag_123\n    /* \"#utility.yul\":5479:5482   */\n  dup3\n    /* \"#utility.yul\":5447:5483   */\n  tag_56\n  jump\t// in\ntag_123:\n    /* \"#utility.yul\":5548:5566   */\n  0xffffffffffffffff\n    /* \"#utility.yul\":5540:5546   */\n  dup2\n    /* \"#utility.yul\":5537:5567   */\n  gt\n    /* \"#utility.yul\":5534:5590   */\n  iszero\n  tag_124\n  jumpi\n    /* \"#utility.yul\":5570:5588   */\n  tag_125\n  tag_5\n  jump\t// in\ntag_125:\n    /* \"#utility.yul\":5534:5590   */\ntag_124:\n    /* \"#utility.yul\":5614:5652   */\n  tag_126\n    /* \"#utility.yul\":5646:5650   */\n  dup3\n    /* \"#utility.yul\":5640:5651   */\n  sload\n    /* \"#utility.yul\":5614:5652   */\n  tag_39\n  jump\t// in\ntag_126:\n    /* \"#utility.yul\":5699:5765   */\n  tag_127\n    /* \"#utility.yul\":5758:5764   */\n  dup3\n    /* \"#utility.yul\":5750:5756   */\n  dup3\n    /* \"#utility.yul\":5744:5748   */\n  dup6\n    /* \"#utility.yul\":5699:5765   */\n  tag_52\n  jump\t// in\ntag_127:\n    /* \"#utility.yul\":5792:5793   */\n  0x00\n    /* \"#utility.yul\":5816:5820   */\n  0x20\n    /* \"#utility.yul\":5803:5820   */\n  swap1\n  pop\n    /* \"#utility.yul\":5848:5850   */\n  0x1f\n    /* \"#utility.yul\":5840:5846   */\n  dup4\n    /* \"#utility.yul\":5837:5851   */\n  gt\n    /* \"#utility.yul\":5865:5866   */\n  0x01\n    /* \"#utility.yul\":5860:6477   */\n  dup2\n  eq\n  tag_129\n  jumpi\n    /* \"#utility.yul\":6521:6522   */\n  0x00\n    /* \"#utility.yul\":6538:6544   */\n  dup5\n    /* \"#utility.yul\":6535:6612   */\n  iszero\n  tag_130\n  jumpi\n    /* \"#utility.yul\":6587:6596   */\n  dup3\n    /* \"#utility.yul\":6582:6585   */\n  dup8\n    /* \"#utility.yul\":6578:6597   */\n  add\n    /* \"#utility.yul\":6572:6598   */\n  mload\n    /* \"#utility.yul\":6563:6598   */\n  swap1\n  pop\n    /* \"#utility.yul\":6535:6612   */\ntag_130:\n    /* \"#utility.yul\":6638:6705   */\n  tag_131\n    /* \"#utility.yul\":6698:6704   */\n  dup6\n    /* \"#utility.yul\":6691:6696   */\n  dup3\n    /* \"#utility.yul\":6638:6705   */\n  tag_55\n  jump\t// in\ntag_131:\n    /* \"#utility.yul\":6632:6636   */\n  dup7\n    /* \"#utility.yul\":6625:6706   */\n  sstore\n    /* \"#utility.yul\":6494:6716   */\n  pop\n    /* \"#utility.yul\":5830:6716   */\n  jump(tag_128)\n    /* \"#utility.yul\":5860:6477   */\ntag_129:\n    /* \"#utility.yul\":5912:5916   */\n  0x1f\n    /* \"#utility.yul\":5908:5917   */\n  not\n    /* \"#utility.yul\":5900:5906   */\n  dup5\n    /* \"#utility.yul\":5896:5918   */\n  and\n    /* \"#utility.yul\":5946:5982   */\n  tag_132\n    /* \"#utility.yul\":5977:5981   */\n  dup7\n    /* \"#utility.yul\":5946:5982   */\n  tag_40\n  jump\t// in\ntag_132:\n    /* \"#utility.yul\":6004:6005   */\n  0x00\n    /* \"#utility.yul\":6018:6226   */\ntag_133:\n    /* \"#utility.yul\":6032:6039   */\n  dup3\n    /* \"#utility.yul\":6029:6030   */\n  dup2\n    /* \"#utility.yul\":6026:6040   */\n  lt\n    /* \"#utility.yul\":6018:6226   */\n  iszero\n  tag_135\n  jumpi\n    /* \"#utility.yul\":6111:6120   */\n  dup5\n    /* \"#utility.yul\":6106:6109   */\n  dup10\n    /* \"#utility.yul\":6102:6121   */\n  add\n    /* \"#utility.yul\":6096:6122   */\n  mload\n    /* \"#utility.yul\":6088:6094   */\n  dup3\n    /* \"#utility.yul\":6081:6123   */\n  sstore\n    /* \"#utility.yul\":6162:6163   */\n  0x01\n    /* \"#utility.yul\":6154:6160   */\n  dup3\n    /* \"#utility.yul\":6150:6164   */\n  add\n    /* \"#utility.yul\":6140:6164   */\n  swap2\n  pop\n    /* \"#utility.yul\":6209:6211   */\n  0x20\n    /* \"#utility.yul\":6198:6207   */\n  dup6\n    /* \"#utility.yul\":6194:6212   */\n  add\n    /* \"#utility.yul\":6181:6212   */\n  swap5\n  pop\n    /* \"#utility.yul\":6055:6059   */\n  0x20\n    /* \"#utility.yul\":6052:6053   */\n  dup2\n    /* \"#utility.yul\":6048:6060   */\n  add\n    /* \"#utility.yul\":6043:6060   */\n  swap1\n  pop\n    /* \"#utility.yul\":6018:6226   */\n  jump(tag_133)\ntag_135:\n    /* \"#utility.yul\":6254:6260   */\n  dup7\n    /* \"#utility.yul\":6245:6252   */\n  dup4\n    /* \"#utility.yul\":6242:6261   */\n  lt\n    /* \"#utility.yul\":6239:6418   */\n  iszero\n  tag_136\n  jumpi\n    /* \"#utility.yul\":6312:6321   */\n  dup5\n    /* \"#utility.yul\":6307:6310   */\n  dup10\n    /* \"#utility.yul\":6303:6322   */\n  add\n    /* \"#utility.yul\":6297:6323   */\n  mload\n    /* \"#utility.yul\":6355:6403   */\n  tag_137\n    /* \"#utility.yul\":6397:6401   */\n  0x1f\n    /* \"#utility.yul\":6389:6395   */\n  dup10\n    /* \"#utility.yul\":6385:6402   */\n  and\n    /* \"#utility.yul\":6374:6383   */\n  dup3\n    /* \"#utility.yul\":6355:6403   */\n  tag_54\n  jump\t// in\ntag_137:\n    /* \"#utility.yul\":6347:6353   */\n  dup4\n    /* \"#utility.yul\":6340:6404   */\n  sstore\n    /* \"#utility.yul\":6262:6418   */\n  pop\n    /* \"#utility.yul\":6239:6418   */\ntag_136:\n    /* \"#utility.yul\":6464:6465   */\n  0x01\n    /* \"#utility.yul\":6460:6461   */\n  0x02\n    /* \"#utility.yul\":6452:6458   */\n  dup9\n    /* \"#utility.yul\":6448:6462   */\n  mul\n    /* \"#utility.yul\":6444:6466   */\n  add\n    /* \"#utility.yul\":6438:6442   */\n  dup9\n    /* \"#utility.yul\":6431:6467   */\n  sstore\n    /* \"#utility.yul\":5867:6477   */\n  pop\n  pop\n  pop\n    /* \"#utility.yul\":5830:6716   */\ntag_128:\n  pop\n    /* \"#utility.yul\":5422:6722   */\n  pop\n  pop\n  pop\n    /* \"#utility.yul\":5332:6722   */\n  pop\n  pop\n  jump\t// out\n    /* \"#utility.yul\":6728:6869   */\ntag_57:\n    /* \"#utility.yul\":6777:6781   */\n  0x00\n    /* \"#utility.yul\":6800:6803   */\n  dup2\n    /* \"#utility.yul\":6792:6803   */\n  swap1\n  pop\n    /* \"#utility.yul\":6823:6826   */\n  dup2\n    /* \"#utility.yul\":6820:6821   */\n  0x00\n    /* \"#utility.yul\":6813:6827   */\n  mstore\n    /* \"#utility.yul\":6857:6861   */\n  0x20\n    /* \"#utility.yul\":6854:6855   */\n  0x00\n    /* \"#utility.yul\":6844:6862   */\n  keccak256\n    /* \"#utility.yul\":6836:6862   */\n  swap1\n  pop\n    /* \"#utility.yul\":6728:6869   */\n  swap2\n  swap1\n  pop\n  jump\t// out\n    /* \"#utility.yul\":6875:7418   */\ntag_58:\n    /* \"#utility.yul\":6976:6978   */\n  0x1f\n    /* \"#utility.yul\":6971:6974   */\n  dup3\n    /* \"#utility.yul\":6968:6979   */\n  gt\n    /* \"#utility.yul\":6965:7411   */\n  iszero\n  tag_140\n  jumpi\n    /* \"#utility.yul\":7010:7048   */\n  tag_141\n    /* \"#utility.yul\":7042:7047   */\n  dup2\n    /* \"#utility.yul\":7010:7048   */\n  tag_57\n  jump\t// in\ntag_141:\n    /* \"#utility.yul\":7094:7123   */\n  tag_142\n    /* \"#utility.yul\":7112:7122   */\n  dup5\n    /* \"#utility.yul\":7094:7123   */\n  tag_41\n  jump\t// in\ntag_142:\n    /* \"#utility.yul\":7084:7092   */\n  dup2\n    /* \"#utility.yul\":7080:7124   */\n  add\n    /* \"#utility.yul\":7277:7279   */\n  0x20\n    /* \"#utility.yul\":7265:7275   */\n  dup6\n    /* \"#utility.yul\":7262:7280   */\n  lt\n    /* \"#utility.yul\":7259:7308   */\n  iszero\n  tag_143\n  jumpi\n    /* \"#utility.yul\":7298:7306   */\n  dup2\n    /* \"#utility.yul\":7283:7306   */\n  swap1\n  pop\n    /* \"#utility.yul\":7259:7308   */\ntag_143:\n    /* \"#utility.yul\":7321:7401   */\n  tag_144\n    /* \"#utility.yul\":7377:7399   */\n  tag_145\n    /* \"#utility.yul\":7395:7398   */\n  dup6\n    /* \"#utility.yul\":7377:7399   */\n  tag_41\n  jump\t// in\ntag_145:\n    /* \"#utility.yul\":7367:7375   */\n  dup4\n    /* \"#utility.yul\":7363:7400   */\n  add\n    /* \"#utility.yul\":7350:7361   */\n  dup3\n    /* \"#utility.yul\":7321:7401   */\n  tag_51\n  jump\t// in\ntag_144:\n    /* \"#utility.yul\":6980:7411   */\n  pop\n  pop\n    /* \"#utility.yul\":6965:7411   */\ntag_140:\n    /* \"#utility.yul\":6875:7418   */\n  pop\n  pop\n  pop\n  jump\t// out\n    /* \"#utility.yul\":7424:8819   */\ntag_19:\n    /* \"#utility.yul\":7541:7578   */\n  tag_147\n    /* \"#utility.yul\":7574:7577   */\n  dup3\n    /* \"#utility.yul\":7541:7578   */\n  tag_37\n  jump\t// in\ntag_147:\n    /* \"#utility.yul\":7643:7661   */\n  0xffffffffffffffff\n    /* \"#utility.yul\":7635:7641   */\n  dup2\n    /* \"#utility.yul\":7632:7662   */\n  gt\n    /* \"#utility.yul\":7629:7685   */\n  iszero\n  tag_148\n  jumpi\n    /* \"#utility.yul\":7665:7683   */\n  tag_149\n  tag_5\n  jump\t// in\ntag_149:\n    /* \"#utility.yul\":7629:7685   */\ntag_148:\n    /* \"#utility.yul\":7709:7747   */\n  tag_150\n    /* \"#utility.yul\":7741:7745   */\n  dup3\n    /* \"#utility.yul\":7735:7746   */\n  sload\n    /* \"#utility.yul\":7709:7747   */\n  tag_39\n  jump\t// in\ntag_150:\n    /* \"#utility.yul\":7794:7861   */\n  tag_151\n    /* \"#utility.yul\":7854:7860   */\n  dup3\n    /* \"#utility.yul\":7846:7852   */\n  dup3\n    /* \"#utility.yul\":7840:7844   */\n  dup6\n    /* \"#utility.yul\":7794:7861   */\n  tag_58\n  jump\t// in\ntag_151:\n    /* \"#utility.yul\":7888:7889   */\n  0x00\n    /* \"#utility.yul\":7912:7916   */\n  0x20\n    /* \"#utility.yul\":7899:7916   */\n  swap1\n  pop\n    /* \"#utility.yul\":7944:7946   */\n  0x1f\n    /* \"#utility.yul\":7936:7942   */\n  dup4\n    /* \"#utility.yul\":7933:7947   */\n  gt\n    /* \"#utility.yul\":7961:7962   */\n  0x01\n    /* \"#utility.yul\":7956:8574   */\n  dup2\n  eq\n  tag_153\n  jumpi\n    /* \"#utility.yul\":8618:8619   */\n  0x00\n    /* \"#utility.yul\":8635:8641   */\n  dup5\n    /* \"#utility.yul\":8632:8709   */\n  iszero\n  tag_154\n  jumpi\n    /* \"#utility.yul\":8684:8693   */\n  dup3\n    /* \"#utility.yul\":8679:8682   */\n  dup8\n    /* \"#utility.yul\":8675:8694   */\n  add\n    /* \"#utility.yul\":8669:8695   */\n  mload\n    /* \"#utility.yul\":8660:8695   */\n  swap1\n  pop\n    /* \"#utility.yul\":8632:8709   */\ntag_154:\n    /* \"#utility.yul\":8735:8802   */\n  tag_155\n    /* \"#utility.yul\":8795:8801   */\n  dup6\n    /* \"#utility.yul\":8788:8793   */\n  dup3\n    /* \"#utility.yul\":8735:8802   */\n  tag_55\n  jump\t// in\ntag_155:\n    /* \"#utility.yul\":8729:8733   */\n  dup7\n    /* \"#utility.yul\":8722:8803   */\n  sstore\n    /* \"#utility.yul\":8591:8813   */\n  pop\n    /* \"#utility.yul\":7926:8813   */\n  jump(tag_152)\n    /* \"#utility.yul\":7956:8574   */\ntag_153:\n    /* \"#utility.yul\":8008:8012   */\n  0x1f\n    /* \"#utility.yul\":8004:8013   */\n  not\n    /* \"#utility.yul\":7996:8002   */\n  dup5\n    /* \"#utility.yul\":7992:8014   */\n  and\n    /* \"#utility.yul\":8042:8079   */\n  tag_156\n    /* \"#utility.yul\":8074:8078   */\n  dup7\n    /* \"#utility.yul\":8042:8079   */\n  tag_57\n  jump\t// in\ntag_156:\n    /* \"#utility.yul\":8101:8102   */\n  0x00\n    /* \"#utility.yul\":8115:8323   */\ntag_157:\n    /* \"#utility.yul\":8129:8136   */\n  dup3\n    /* \"#utility.yul\":8126:8127   */\n  dup2\n    /* \"#utility.yul\":8123:8137   */\n  lt\n    /* \"#utility.yul\":8115:8323   */\n  iszero\n  tag_159\n  jumpi\n    /* \"#utility.yul\":8208:8217   */\n  dup5\n    /* \"#utility.yul\":8203:8206   */\n  dup10\n    /* \"#utility.yul\":8199:8218   */\n  add\n    /* \"#utility.yul\":8193:8219   */\n  mload\n    /* \"#utility.yul\":8185:8191   */\n  dup3\n    /* \"#utility.yul\":8178:8220   */\n  sstore\n    /* \"#utility.yul\":8259:8260   */\n  0x01\n    /* \"#utility.yul\":8251:8257   */\n  dup3\n    /* \"#utility.yul\":8247:8261   */\n  add\n    /* \"#utility.yul\":8237:8261   */\n  swap2\n  pop\n    /* \"#utility.yul\":8306:8308   */\n  0x20\n    /* \"#utility.yul\":8295:8304   */\n  dup6\n    /* \"#utility.yul\":8291:8309   */\n  add\n    /* \"#utility.yul\":8278:8309   */\n  swap5\n  pop\n    /* \"#utility.yul\":8152:8156   */\n  0x20\n    /* \"#utility.yul\":8149:8150   */\n  dup2\n    /* \"#utility.yul\":8145:8157   */\n  add\n    /* \"#utility.yul\":8140:8157   */\n  swap1\n  pop\n    /* \"#utility.yul\":8115:8323   */\n  jump(tag_157)\ntag_159:\n    /* \"#utility.yul\":8351:8357   */\n  dup7\n    /* \"#utility.yul\":8342:8349   */\n  dup4\n    /* \"#utility.yul\":8339:8358   */\n  lt\n    /* \"#utility.yul\":8336:8515   */\n  iszero\n  tag_160\n  jumpi\n    /* \"#utility.yul\":8409:8418   */\n  dup5\n    /* \"#utility.yul\":8404:8407   */\n  dup10\n    /* \"#utility.yul\":8400:8419   */\n  add\n    /* \"#utility.yul\":8394:8420   */\n  mload\n    /* \"#utility.yul\":8452:8500   */\n  tag_161\n    /* \"#utility.yul\":8494:8498   */\n  0x1f\n    /* \"#utility.yul\":8486:8492   */\n  dup10\n    /* \"#utility.yul\":8482:8499   */\n  and\n    /* \"#utility.yul\":8471:8480   */\n  dup3\n    /* \"#utility.yul\":8452:8500   */\n  tag_54\n  jump\t// in\ntag_161:\n    /* \"#utility.yul\":8444:8450   */\n  dup4\n    /* \"#utility.yul\":8437:8501   */\n  sstore\n    /* \"#utility.yul\":8359:8515   */\n  pop\n    /* \"#utility.yul\":8336:8515   */\ntag_160:\n    /* \"#utility.yul\":8561:8562   */\n  0x01\n    /* \"#utility.yul\":8557:8558   */\n  0x02\n    /* \"#utility.yul\":8549:8555   */\n  dup9\n    /* \"#utility.yul\":8545:8559   */\n  mul\n    /* \"#utility.yul\":8541:8563   */\n  add\n    /* \"#utility.yul\":8535:8539   */\n  dup9\n    /* \"#utility.yul\":8528:8564   */\n  sstore\n    /* \"#utility.yul\":7963:8574   */\n  pop\n  pop\n  pop\n    /* \"#utility.yul\":7926:8813   */\ntag_152:\n  pop\n    /* \"#utility.yul\":7516:8819   */\n  pop\n  pop\n  pop\n    /* \"#utility.yul\":7424:8819   */\n  pop\n  pop\n  jump\t// out\n    /* \"1.3.2-\\xe6\\x95\\xb0\\xe7\\xbb\\x84.sol\":65:3378  contract Test {... */\ntag_21:\n  dataSize(sub_0)\n  dup1\n  dataOffset(sub_0)\n  0x00\n  codecopy\n  0x00\n  return\nstop\n\nsub_0: assembly {\n        /* \"1.3.2-\\xe6\\x95\\xb0\\xe7\\xbb\\x84.sol\":65:3378  contract Test {... */\n      mstore(0x40, 0x80)\n      callvalue\n      dup1\n      iszero\n      tag_1\n      jumpi\n      0x00\n      dup1\n      revert\n    tag_1:\n      pop\n      jumpi(tag_2, lt(calldatasize, 0x04))\n      shr(0xe0, calldataload(0x00))\n      dup1\n      0xa5650466\n      gt\n      tag_24\n      jumpi\n      dup1\n      0xbff688f4\n      gt\n      tag_25\n      jumpi\n      dup1\n      0xbff688f4\n      eq\n      tag_18\n      jumpi\n      dup1\n      0xc15bae84\n      eq\n      tag_19\n      jumpi\n      dup1\n      0xcf814a36\n      eq\n      tag_20\n      jumpi\n      dup1\n      0xedf0099b\n      eq\n      tag_21\n      jumpi\n      dup1\n      0xf5d9612d\n      eq\n      tag_22\n      jumpi\n      dup1\n      0xfcdcfa50\n      eq\n      tag_23\n      jumpi\n      jump(tag_2)\n    tag_25:\n      dup1\n      0xa5650466\n      eq\n      tag_13\n      jumpi\n      dup1\n      0xabd05e67\n      eq\n      tag_14\n      jumpi\n      dup1\n      0xae6f2834\n      eq\n      tag_15\n      jumpi\n      dup1\n      0xb61f14a5\n      eq\n      tag_16\n      jumpi\n      dup1\n      0xbe1c766b\n      eq\n      tag_17\n      jumpi\n      jump(tag_2)\n    tag_24:\n      dup1\n      0x73d4a13a\n      gt\n      tag_26\n      jumpi\n      dup1\n      0x73d4a13a\n      eq\n      tag_8\n      jumpi\n      dup1\n      0x7521ace0\n      eq\n      tag_9\n      jumpi\n      dup1\n      0x8732ded8\n      eq\n      tag_10\n      jumpi\n      dup1\n      0x8af755d5\n      eq\n      tag_11\n      jumpi\n      dup1\n      0x9a9bdca7\n      eq\n      tag_12\n      jumpi\n      jump(tag_2)\n    tag_26:\n      dup1\n      0x2bd63afc\n      eq\n      tag_3\n      jumpi\n      dup1\n      0x4fcdbf98\n      eq\n      tag_4\n      jumpi\n      dup1\n      0x5478a4dc\n      eq\n      tag_5\n      jumpi\n      dup1\n      0x626ba04e\n      eq\n      tag_6\n      jumpi\n      dup1\n      0x6987b1fb\n      eq\n      tag_7\n      jumpi\n    tag_2:\n      0x00\n      dup1\n      revert\n        /* \"1.3.2-\\xe6\\x95\\xb0\\xe7\\xbb\\x84.sol\":2005:2129  function removeLastElement() public returns (uint[] memory) {... */\n    tag_3:\n      tag_27\n      tag_28\n      jump\t// in\n    tag_27:\n      mload(0x40)\n      tag_29\n      swap2\n      swap1\n      tag_30\n      jump\t// in\n    tag_29:\n      mload(0x40)\n      dup1\n      swap2\n      sub\n      swap1\n      return\n        /* \"1.3.2-\\xe6\\x95\\xb0\\xe7\\xbb\\x84.sol\":2690:2924  function readBytesByIndexStep2(bytes1 b) public view returns (int256) {... */\n    tag_4:\n      tag_31\n      0x04\n      dup1\n      calldatasize\n      sub\n      dup2\n      add\n      swap1\n      tag_32\n      swap2\n      swap1\n      tag_33\n      jump\t// in\n    tag_32:\n      tag_34\n      jump\t// in\n    tag_31:\n      mload(0x40)\n      tag_35\n      swap2\n      swap1\n      tag_36\n      jump\t// in\n    tag_35:\n      mload(0x40)\n      dup1\n      swap2\n      sub\n      swap1\n      return\n        /* \"1.3.2-\\xe6\\x95\\xb0\\xe7\\xbb\\x84.sol\":2253:2284  bytes public bs = \"abc\\x22\\x22\" */\n    tag_5:\n      tag_37\n      tag_38\n      jump\t// in\n    tag_37:\n      mload(0x40)\n      tag_39\n      swap2\n      swap1\n      tag_40\n      jump\t// in\n    tag_39:\n      mload(0x40)\n      dup1\n      swap2\n      sub\n      swap1\n      return\n        /* \"1.3.2-\\xe6\\x95\\xb0\\xe7\\xbb\\x84.sol\":2577:2685  function readBytesByIndexStep1(uint256 index) public view returns (bytes1) {... */\n    tag_6:\n      tag_41\n      0x04\n      dup1\n      calldatasize\n      sub\n      dup2\n      add\n      swap1\n      tag_42\n      swap2\n      swap1\n      tag_43\n      jump\t// in\n    tag_42:\n      tag_44\n      jump\t// in\n    tag_41:\n      mload(0x40)\n      tag_45\n      swap2\n      swap1\n      tag_46\n      jump\t// in\n    tag_45:\n      mload(0x40)\n      dup1\n      swap2\n      sub\n      swap1\n      return\n        /* \"1.3.2-\\xe6\\x95\\xb0\\xe7\\xbb\\x84.sol\":998:1019  uint256[] public arr1 */\n    tag_7:\n      tag_47\n      0x04\n      dup1\n      calldatasize\n      sub\n      dup2\n      add\n      swap1\n      tag_48\n      swap2\n      swap1\n      tag_43\n      jump\t// in\n    tag_48:\n      tag_49\n      jump\t// in\n    tag_47:\n      mload(0x40)\n      tag_50\n      swap2\n      swap1\n      tag_51\n      jump\t// in\n    tag_50:\n      mload(0x40)\n      dup1\n      swap2\n      sub\n      swap1\n      return\n        /* \"1.3.2-\\xe6\\x95\\xb0\\xe7\\xbb\\x84.sol\":2290:2323  bytes public data = new bytes(10) */\n    tag_8:\n      tag_52\n      tag_53\n      jump\t// in\n    tag_52:\n      mload(0x40)\n      tag_54\n      swap2\n      swap1\n      tag_40\n      jump\t// in\n    tag_54:\n      mload(0x40)\n      dup1\n      swap2\n      sub\n      swap1\n      return\n        /* \"1.3.2-\\xe6\\x95\\xb0\\xe7\\xbb\\x84.sol\":1184:1803  function readArr()... */\n    tag_9:\n      tag_55\n      tag_56\n      jump\t// in\n    tag_55:\n      mload(0x40)\n      tag_57\n      swap11\n      swap10\n      swap9\n      swap8\n      swap7\n      swap6\n      swap5\n      swap4\n      swap3\n      swap2\n      swap1\n      tag_58\n      jump\t// in\n    tag_57:\n      mload(0x40)\n      dup1\n      swap2\n      sub\n      swap1\n      return\n        /* \"1.3.2-\\xe6\\x95\\xb0\\xe7\\xbb\\x84.sol\":1064:1104  uint256[] public arr3 = new uint256[](5) */\n    tag_10:\n      tag_59\n      0x04\n      dup1\n      calldatasize\n      sub\n      dup2\n      add\n      swap1\n      tag_60\n      swap2\n      swap1\n      tag_43\n      jump\t// in\n    tag_60:\n      tag_61\n      jump\t// in\n    tag_59:\n      mload(0x40)\n      tag_62\n      swap2\n      swap1\n      tag_51\n      jump\t// in\n    tag_62:\n      mload(0x40)\n      dup1\n      swap2\n      sub\n      swap1\n      return\n        /* \"1.3.2-\\xe6\\x95\\xb0\\xe7\\xbb\\x84.sol\":1138:1178  uint256[5] public arr5 = [1, 2, 3, 4, 5] */\n    tag_11:\n      tag_63\n      0x04\n      dup1\n      calldatasize\n      sub\n      dup2\n      add\n      swap1\n      tag_64\n      swap2\n      swap1\n      tag_43\n      jump\t// in\n    tag_64:\n      tag_65\n      jump\t// in\n    tag_63:\n      mload(0x40)\n      tag_66\n      swap2\n      swap1\n      tag_51\n      jump\t// in\n    tag_66:\n      mload(0x40)\n      dup1\n      swap2\n      sub\n      swap1\n      return\n        /* \"1.3.2-\\xe6\\x95\\xb0\\xe7\\xbb\\x84.sol\":1829:1855  uint[] public dynamicArray */\n    tag_12:\n      tag_67\n      0x04\n      dup1\n      calldatasize\n      sub\n      dup2\n      add\n      swap1\n      tag_68\n      swap2\n      swap1\n      tag_43\n      jump\t// in\n    tag_68:\n      tag_69\n      jump\t// in\n    tag_67:\n      mload(0x40)\n      tag_70\n      swap2\n      swap1\n      tag_51\n      jump\t// in\n    tag_70:\n      mload(0x40)\n      dup1\n      swap2\n      sub\n      swap1\n      return\n        /* \"1.3.2-\\xe6\\x95\\xb0\\xe7\\xbb\\x84.sol\":3232:3376  function testSlice(bytes calldata data2, uint256 start, uint256 end) public pure returns (bytes memory) {... */\n    tag_13:\n      tag_71\n      0x04\n      dup1\n      calldatasize\n      sub\n      dup2\n      add\n      swap1\n      tag_72\n      swap2\n      swap1\n      tag_73\n      jump\t// in\n    tag_72:\n      tag_74\n      jump\t// in\n    tag_71:\n      mload(0x40)\n      tag_75\n      swap2\n      swap1\n      tag_40\n      jump\t// in\n    tag_75:\n      mload(0x40)\n      dup1\n      swap2\n      sub\n      swap1\n      return\n        /* \"1.3.2-\\xe6\\x95\\xb0\\xe7\\xbb\\x84.sol\":2330:2572  function readBytesByIndex(uint256 index) public view returns (int256) {... */\n    tag_14:\n      tag_76\n      0x04\n      dup1\n      calldatasize\n      sub\n      dup2\n      add\n      swap1\n      tag_77\n      swap2\n      swap1\n      tag_43\n      jump\t// in\n    tag_77:\n      tag_78\n      jump\t// in\n    tag_76:\n      mload(0x40)\n      tag_79\n      swap2\n      swap1\n      tag_36\n      jump\t// in\n    tag_79:\n      mload(0x40)\n      dup1\n      swap2\n      sub\n      swap1\n      return\n        /* \"1.3.2-\\xe6\\x95\\xb0\\xe7\\xbb\\x84.sol\":584:972  function testArrFixed2() public pure returns (uint256[3] memory) {... */\n    tag_15:\n      tag_80\n      tag_81\n      jump\t// in\n    tag_80:\n      mload(0x40)\n      tag_82\n      swap2\n      swap1\n      tag_83\n      jump\t// in\n    tag_82:\n      mload(0x40)\n      dup1\n      swap2\n      sub\n      swap1\n      return\n        /* \"1.3.2-\\xe6\\x95\\xb0\\xe7\\xbb\\x84.sol\":1110:1132  uint256[4] public arr4 */\n    tag_16:\n      tag_84\n      0x04\n      dup1\n      calldatasize\n      sub\n      dup2\n      add\n      swap1\n      tag_85\n      swap2\n      swap1\n      tag_43\n      jump\t// in\n    tag_85:\n      tag_86\n      jump\t// in\n    tag_84:\n      mload(0x40)\n      tag_87\n      swap2\n      swap1\n      tag_51\n      jump\t// in\n    tag_87:\n      mload(0x40)\n      dup1\n      swap2\n      sub\n      swap1\n      return\n        /* \"1.3.2-\\xe6\\x95\\xb0\\xe7\\xbb\\x84.sol\":2134:2247  function getLength() public view returns (uint) {... */\n    tag_17:\n      tag_88\n      tag_89\n      jump\t// in\n    tag_88:\n      mload(0x40)\n      tag_90\n      swap2\n      swap1\n      tag_51\n      jump\t// in\n    tag_90:\n      mload(0x40)\n      dup1\n      swap2\n      sub\n      swap1\n      return\n        /* \"1.3.2-\\xe6\\x95\\xb0\\xe7\\xbb\\x84.sol\":233:579  function testArrFixed() public pure returns (uint256[] memory) {... */\n    tag_18:\n      tag_91\n      tag_92\n      jump\t// in\n    tag_91:\n      mload(0x40)\n      tag_93\n      swap2\n      swap1\n      tag_30\n      jump\t// in\n    tag_93:\n      mload(0x40)\n      dup1\n      swap2\n      sub\n      swap1\n      return\n        /* \"1.3.2-\\xe6\\x95\\xb0\\xe7\\xbb\\x84.sol\":2930:2947  string public str */\n    tag_19:\n      tag_94\n      tag_95\n      jump\t// in\n    tag_94:\n      mload(0x40)\n      tag_96\n      swap2\n      swap1\n      tag_97\n      jump\t// in\n    tag_96:\n      mload(0x40)\n      dup1\n      swap2\n      sub\n      swap1\n      return\n        /* \"1.3.2-\\xe6\\x95\\xb0\\xe7\\xbb\\x84.sol\":85:201  function testArr1() public pure returns (uint[10] memory) {... */\n    tag_20:\n      tag_98\n      tag_99\n      jump\t// in\n    tag_98:\n      mload(0x40)\n      tag_100\n      swap2\n      swap1\n      tag_101\n      jump\t// in\n    tag_100:\n      mload(0x40)\n      dup1\n      swap2\n      sub\n      swap1\n      return\n        /* \"1.3.2-\\xe6\\x95\\xb0\\xe7\\xbb\\x84.sol\":1025:1058  uint256[] public arr2 = [1, 2, 3] */\n    tag_21:\n      tag_102\n      0x04\n      dup1\n      calldatasize\n      sub\n      dup2\n      add\n      swap1\n      tag_103\n      swap2\n      swap1\n      tag_43\n      jump\t// in\n    tag_103:\n      tag_104\n      jump\t// in\n    tag_102:\n      mload(0x40)\n      tag_105\n      swap2\n      swap1\n      tag_51\n      jump\t// in\n    tag_105:\n      mload(0x40)\n      dup1\n      swap2\n      sub\n      swap1\n      return\n        /* \"1.3.2-\\xe6\\x95\\xb0\\xe7\\xbb\\x84.sol\":1861:2000  function addElement(uint _element) public returns (uint[] memory) {... */\n    tag_22:\n      tag_106\n      0x04\n      dup1\n      calldatasize\n      sub\n      dup2\n      add\n      swap1\n      tag_107\n      swap2\n      swap1\n      tag_43\n      jump\t// in\n    tag_107:\n      tag_108\n      jump\t// in\n    tag_106:\n      mload(0x40)\n      tag_109\n      swap2\n      swap1\n      tag_30\n      jump\t// in\n    tag_109:\n      mload(0x40)\n      dup1\n      swap2\n      sub\n      swap1\n      return\n        /* \"1.3.2-\\xe6\\x95\\xb0\\xe7\\xbb\\x84.sol\":2953:2985  string public str2 = \"abc\\u718A\" */\n    tag_23:\n      tag_110\n      tag_111\n      jump\t// in\n    tag_110:\n      mload(0x40)\n      tag_112\n      swap2\n      swap1\n      tag_97\n      jump\t// in\n    tag_112:\n      mload(0x40)\n      dup1\n      swap2\n      sub\n      swap1\n      return\n        /* \"1.3.2-\\xe6\\x95\\xb0\\xe7\\xbb\\x84.sol\":2005:2129  function removeLastElement() public returns (uint[] memory) {... */\n    tag_28:\n        /* \"1.3.2-\\xe6\\x95\\xb0\\xe7\\xbb\\x84.sol\":2050:2063  uint[] memory */\n      0x60\n        /* \"1.3.2-\\xe6\\x95\\xb0\\xe7\\xbb\\x84.sol\":2075:2087  dynamicArray */\n      0x0c\n        /* \"1.3.2-\\xe6\\x95\\xb0\\xe7\\xbb\\x84.sol\":2075:2093  dynamicArray.pop() */\n      dup1\n      sload\n      dup1\n      tag_114\n      jumpi\n      tag_115\n      tag_116\n      jump\t// in\n    tag_115:\n    tag_114:\n      0x01\n      swap1\n      sub\n      dup2\n      dup2\n      swap1\n      0x00\n      mstore\n      keccak256(0x00, 0x20)\n      add\n      0x00\n      swap1\n      sstore\n      swap1\n      sstore\n        /* \"1.3.2-\\xe6\\x95\\xb0\\xe7\\xbb\\x84.sol\":2110:2122  dynamicArray */\n      0x0c\n        /* \"1.3.2-\\xe6\\x95\\xb0\\xe7\\xbb\\x84.sol\":2103:2122  return dynamicArray */\n      dup1\n      sload\n      dup1\n      0x20\n      mul\n      0x20\n      add\n      mload(0x40)\n      swap1\n      dup2\n      add\n      0x40\n      mstore\n      dup1\n      swap3\n      swap2\n      swap1\n      dup2\n      dup2\n      mstore\n      0x20\n      add\n      dup3\n      dup1\n      sload\n      dup1\n      iszero\n      tag_118\n      jumpi\n      0x20\n      mul\n      dup3\n      add\n      swap2\n      swap1\n      0x00\n      mstore\n      keccak256(0x00, 0x20)\n      swap1\n    tag_119:\n      dup2\n      sload\n      dup2\n      mstore\n      0x20\n      add\n      swap1\n      0x01\n      add\n      swap1\n      dup1\n      dup4\n      gt\n      tag_119\n      jumpi\n    tag_118:\n      pop\n      pop\n      pop\n      pop\n      pop\n      swap1\n      pop\n        /* \"1.3.2-\\xe6\\x95\\xb0\\xe7\\xbb\\x84.sol\":2005:2129  function removeLastElement() public returns (uint[] memory) {... */\n      swap1\n      jump\t// out\n        /* \"1.3.2-\\xe6\\x95\\xb0\\xe7\\xbb\\x84.sol\":2690:2924  function readBytesByIndexStep2(bytes1 b) public view returns (int256) {... */\n    tag_34:\n        /* \"1.3.2-\\xe6\\x95\\xb0\\xe7\\xbb\\x84.sol\":2752:2758  int256 */\n      0x00\n        /* \"1.3.2-\\xe6\\x95\\xb0\\xe7\\xbb\\x84.sol\":2775:2784  uint256 i */\n      dup1\n        /* \"1.3.2-\\xe6\\x95\\xb0\\xe7\\xbb\\x84.sol\":2787:2788  0 */\n      0x00\n        /* \"1.3.2-\\xe6\\x95\\xb0\\xe7\\xbb\\x84.sol\":2775:2788  uint256 i = 0 */\n      swap1\n      pop\n        /* \"1.3.2-\\xe6\\x95\\xb0\\xe7\\xbb\\x84.sol\":2770:2899  for (uint256 i = 0; i < bs.length; i++) {... */\n    tag_121:\n        /* \"1.3.2-\\xe6\\x95\\xb0\\xe7\\xbb\\x84.sol\":2794:2796  bs */\n      0x0d\n        /* \"1.3.2-\\xe6\\x95\\xb0\\xe7\\xbb\\x84.sol\":2794:2803  bs.length */\n      dup1\n      sload\n      tag_124\n      swap1\n      tag_125\n      jump\t// in\n    tag_124:\n      swap1\n      pop\n        /* \"1.3.2-\\xe6\\x95\\xb0\\xe7\\xbb\\x84.sol\":2790:2791  i */\n      dup2\n        /* \"1.3.2-\\xe6\\x95\\xb0\\xe7\\xbb\\x84.sol\":2790:2803  i < bs.length */\n      lt\n        /* \"1.3.2-\\xe6\\x95\\xb0\\xe7\\xbb\\x84.sol\":2770:2899  for (uint256 i = 0; i < bs.length; i++) {... */\n      iszero\n      tag_122\n      jumpi\n        /* \"1.3.2-\\xe6\\x95\\xb0\\xe7\\xbb\\x84.sol\":2837:2838  b */\n      dup3\n        /* \"1.3.2-\\xe6\\x95\\xb0\\xe7\\xbb\\x84.sol\":2828:2838  bs[i] == b */\n      not(0xffffffffffffffffffffffffffffffffffffffffffffffffffffffffffffff)\n      and\n        /* \"1.3.2-\\xe6\\x95\\xb0\\xe7\\xbb\\x84.sol\":2828:2830  bs */\n      0x0d\n        /* \"1.3.2-\\xe6\\x95\\xb0\\xe7\\xbb\\x84.sol\":2831:2832  i */\n      dup3\n        /* \"1.3.2-\\xe6\\x95\\xb0\\xe7\\xbb\\x84.sol\":2828:2833  bs[i] */\n      dup2\n      sload\n      tag_126\n      swap1\n      tag_125\n      jump\t// in\n    tag_126:\n      dup2\n      lt\n      tag_127\n      jumpi\n      tag_128\n      tag_129\n      jump\t// in\n    tag_128:\n    tag_127:\n      dup2\n      sload\n      0x01\n      and\n      iszero\n      tag_130\n      jumpi\n      swap1\n      0x00\n      mstore\n      keccak256(0x00, 0x20)\n      swap1\n      0x20\n      swap2\n      dup3\n      dup3\n      div\n      add\n      swap2\n      swap1\n      mod\n    tag_130:\n      swap1\n      sload\n      swap1\n      byte\n      0x0100000000000000000000000000000000000000000000000000000000000000\n      mul\n        /* \"1.3.2-\\xe6\\x95\\xb0\\xe7\\xbb\\x84.sol\":2828:2838  bs[i] == b */\n      not(0xffffffffffffffffffffffffffffffffffffffffffffffffffffffffffffff)\n      and\n      sub\n        /* \"1.3.2-\\xe6\\x95\\xb0\\xe7\\xbb\\x84.sol\":2824:2889  if (bs[i] == b) {... */\n      tag_131\n      jumpi\n        /* \"1.3.2-\\xe6\\x95\\xb0\\xe7\\xbb\\x84.sol\":2872:2873  i */\n      dup1\n        /* \"1.3.2-\\xe6\\x95\\xb0\\xe7\\xbb\\x84.sol\":2858:2874  return int256(i) */\n      swap2\n      pop\n      pop\n      jump(tag_120)\n        /* \"1.3.2-\\xe6\\x95\\xb0\\xe7\\xbb\\x84.sol\":2824:2889  if (bs[i] == b) {... */\n    tag_131:\n        /* \"1.3.2-\\xe6\\x95\\xb0\\xe7\\xbb\\x84.sol\":2805:2808  i++ */\n      dup1\n      dup1\n      0x01\n      add\n      swap2\n      pop\n      pop\n        /* \"1.3.2-\\xe6\\x95\\xb0\\xe7\\xbb\\x84.sol\":2770:2899  for (uint256 i = 0; i < bs.length; i++) {... */\n      jump(tag_121)\n    tag_122:\n      pop\n        /* \"1.3.2-\\xe6\\x95\\xb0\\xe7\\xbb\\x84.sol\":2915:2917  -1 */\n      0xffffffffffffffffffffffffffffffffffffffffffffffffffffffffffffffff\n        /* \"1.3.2-\\xe6\\x95\\xb0\\xe7\\xbb\\x84.sol\":2908:2917  return -1 */\n      swap1\n      pop\n        /* \"1.3.2-\\xe6\\x95\\xb0\\xe7\\xbb\\x84.sol\":2690:2924  function readBytesByIndexStep2(bytes1 b) public view returns (int256) {... */\n    tag_120:\n      swap2\n      swap1\n      pop\n      jump\t// out\n        /* \"1.3.2-\\xe6\\x95\\xb0\\xe7\\xbb\\x84.sol\":2253:2284  bytes public bs = \"abc\\x22\\x22\" */\n    tag_38:\n      0x0d\n      dup1\n      sload\n      tag_132\n      swap1\n      tag_125\n      jump\t// in\n    tag_132:\n      dup1\n      0x1f\n      add\n      0x20\n      dup1\n      swap2\n      div\n      mul\n      0x20\n      add\n      mload(0x40)\n      swap1\n      dup2\n      add\n      0x40\n      mstore\n      dup1\n      swap3\n      swap2\n      swap1\n      dup2\n      dup2\n      mstore\n      0x20\n      add\n      dup3\n      dup1\n      sload\n      tag_133\n      swap1\n      tag_125\n      jump\t// in\n    tag_133:\n      dup1\n      iszero\n      tag_134\n      jumpi\n      dup1\n      0x1f\n      lt\n      tag_135\n      jumpi\n      0x0100\n      dup1\n      dup4\n      sload\n      div\n      mul\n      dup4\n      mstore\n      swap2\n      0x20\n      add\n      swap2\n      jump(tag_134)\n    tag_135:\n      dup3\n      add\n      swap2\n      swap1\n      0x00\n      mstore\n      keccak256(0x00, 0x20)\n      swap1\n    tag_136:\n      dup2\n      sload\n      dup2\n      mstore\n      swap1\n      0x01\n      add\n      swap1\n      0x20\n      add\n      dup1\n      dup4\n      gt\n      tag_136\n      jumpi\n      dup3\n      swap1\n      sub\n      0x1f\n      and\n      dup3\n      add\n      swap2\n    tag_134:\n      pop\n      pop\n      pop\n      pop\n      pop\n      dup2\n      jump\t// out\n        /* \"1.3.2-\\xe6\\x95\\xb0\\xe7\\xbb\\x84.sol\":2577:2685  function readBytesByIndexStep1(uint256 index) public view returns (bytes1) {... */\n    tag_44:\n        /* \"1.3.2-\\xe6\\x95\\xb0\\xe7\\xbb\\x84.sol\":2644:2650  bytes1 */\n      0x00\n        /* \"1.3.2-\\xe6\\x95\\xb0\\xe7\\xbb\\x84.sol\":2669:2671  bs */\n      0x0d\n        /* \"1.3.2-\\xe6\\x95\\xb0\\xe7\\xbb\\x84.sol\":2672:2677  index */\n      dup3\n        /* \"1.3.2-\\xe6\\x95\\xb0\\xe7\\xbb\\x84.sol\":2669:2678  bs[index] */\n      dup2\n      sload\n      tag_138\n      swap1\n      tag_125\n      jump\t// in\n    tag_138:\n      dup2\n      lt\n      tag_139\n      jumpi\n      tag_140\n      tag_129\n      jump\t// in\n    tag_140:\n    tag_139:\n      dup2\n      sload\n      0x01\n      and\n      iszero\n      tag_141\n      jumpi\n      swap1\n      0x00\n      mstore\n      keccak256(0x00, 0x20)\n      swap1\n      0x20\n      swap2\n      dup3\n      dup3\n      div\n      add\n      swap2\n      swap1\n      mod\n    tag_141:\n      swap1\n      sload\n      swap1\n      byte\n      0x0100000000000000000000000000000000000000000000000000000000000000\n      mul\n        /* \"1.3.2-\\xe6\\x95\\xb0\\xe7\\xbb\\x84.sol\":2662:2678  return bs[index] */\n      swap1\n      pop\n        /* \"1.3.2-\\xe6\\x95\\xb0\\xe7\\xbb\\x84.sol\":2577:2685  function readBytesByIndexStep1(uint256 index) public view returns (bytes1) {... */\n      swap2\n      swap1\n      pop\n      jump\t// out\n        /* \"1.3.2-\\xe6\\x95\\xb0\\xe7\\xbb\\x84.sol\":998:1019  uint256[] public arr1 */\n    tag_49:\n      0x00\n      dup2\n      dup2\n      sload\n      dup2\n      lt\n      tag_142\n      jumpi\n      0x00\n      dup1\n      revert\n    tag_142:\n      swap1\n      0x00\n      mstore\n      keccak256(0x00, 0x20)\n      add\n      0x00\n      swap2\n      pop\n      swap1\n      pop\n      sload\n      dup2\n      jump\t// out\n        /* \"1.3.2-\\xe6\\x95\\xb0\\xe7\\xbb\\x84.sol\":2290:2323  bytes public data = new bytes(10) */\n    tag_53:\n      0x0e\n      dup1\n      sload\n      tag_144\n      swap1\n      tag_125\n      jump\t// in\n    tag_144:\n      dup1\n      0x1f\n      add\n      0x20\n      dup1\n      swap2\n      div\n      mul\n      0x20\n      add\n      mload(0x40)\n      swap1\n      dup2\n      add\n      0x40\n      mstore\n      dup1\n      swap3\n      swap2\n      swap1\n      dup2\n      dup2\n      mstore\n      0x20\n      add\n      dup3\n      dup1\n      sload\n      tag_145\n      swap1\n      tag_125\n      jump\t// in\n    tag_145:\n      dup1\n      iszero\n      tag_146\n      jumpi\n      dup1\n      0x1f\n      lt\n      tag_147\n      jumpi\n      0x0100\n      dup1\n      dup4\n      sload\n      div\n      mul\n      dup4\n      mstore\n      swap2\n      0x20\n      add\n      swap2\n      jump(tag_146)\n    tag_147:\n      dup3\n      add\n      swap2\n      swap1\n      0x00\n      mstore\n      keccak256(0x00, 0x20)\n      swap1\n    tag_148:\n      dup2\n      sload\n      dup2\n      mstore\n      swap1\n      0x01\n      add\n      swap1\n      0x20\n      add\n      dup1\n      dup4\n      gt\n      tag_148\n      jumpi\n      dup3\n      swap1\n      sub\n      0x1f\n      and\n      dup3\n      add\n      swap2\n    tag_146:\n      pop\n      pop\n      pop\n      pop\n      pop\n      dup2\n      jump\t// out\n        /* \"1.3.2-\\xe6\\x95\\xb0\\xe7\\xbb\\x84.sol\":1184:1803  function readArr()... */\n    tag_56:\n        /* \"1.3.2-\\xe6\\x95\\xb0\\xe7\\xbb\\x84.sol\":1263:1282  uint256[] memory d1 */\n      0x60\n        /* \"1.3.2-\\xe6\\x95\\xb0\\xe7\\xbb\\x84.sol\":1296:1308  uint256 len1 */\n      0x00\n        /* \"1.3.2-\\xe6\\x95\\xb0\\xe7\\xbb\\x84.sol\":1322:1341  uint256[] memory d2 */\n      0x60\n        /* \"1.3.2-\\xe6\\x95\\xb0\\xe7\\xbb\\x84.sol\":1355:1367  uint256 len2 */\n      0x00\n        /* \"1.3.2-\\xe6\\x95\\xb0\\xe7\\xbb\\x84.sol\":1381:1400  uint256[] memory d3 */\n      0x60\n        /* \"1.3.2-\\xe6\\x95\\xb0\\xe7\\xbb\\x84.sol\":1414:1426  uint256 len3 */\n      0x00\n        /* \"1.3.2-\\xe6\\x95\\xb0\\xe7\\xbb\\x84.sol\":1440:1460  uint256[4] memory d4 */\n      tag_149\n      tag_150\n      jump\t// in\n    tag_149:\n        /* \"1.3.2-\\xe6\\x95\\xb0\\xe7\\xbb\\x84.sol\":1474:1486  uint256 len4 */\n      0x00\n        /* \"1.3.2-\\xe6\\x95\\xb0\\xe7\\xbb\\x84.sol\":1500:1520  uint256[5] memory d5 */\n      tag_151\n      tag_152\n      jump\t// in\n    tag_151:\n        /* \"1.3.2-\\xe6\\x95\\xb0\\xe7\\xbb\\x84.sol\":1534:1546  uint256 len5 */\n      0x00\n        /* \"1.3.2-\\xe6\\x95\\xb0\\xe7\\xbb\\x84.sol\":1576:1580  arr1 */\n      dup1\n        /* \"1.3.2-\\xe6\\x95\\xb0\\xe7\\xbb\\x84.sol\":1571:1580  d1 = arr1 */\n      dup1\n      sload\n      dup1\n      0x20\n      mul\n      0x20\n      add\n      mload(0x40)\n      swap1\n      dup2\n      add\n      0x40\n      mstore\n      dup1\n      swap3\n      swap2\n      swap1\n      dup2\n      dup2\n      mstore\n      0x20\n      add\n      dup3\n      dup1\n      sload\n      dup1\n      iszero\n      tag_154\n      jumpi\n      0x20\n      mul\n      dup3\n      add\n      swap2\n      swap1\n      0x00\n      mstore\n      keccak256(0x00, 0x20)\n      swap1\n    tag_155:\n      dup2\n      sload\n      dup2\n      mstore\n      0x20\n      add\n      swap1\n      0x01\n      add\n      swap1\n      dup1\n      dup4\n      gt\n      tag_155\n      jumpi\n    tag_154:\n      pop\n      pop\n      pop\n      pop\n      pop\n      swap10\n      pop\n        /* \"1.3.2-\\xe6\\x95\\xb0\\xe7\\xbb\\x84.sol\":1597:1601  arr1 */\n      0x00\n        /* \"1.3.2-\\xe6\\x95\\xb0\\xe7\\xbb\\x84.sol\":1597:1608  arr1.length */\n      dup1\n      sload\n      swap1\n      pop\n        /* \"1.3.2-\\xe6\\x95\\xb0\\xe7\\xbb\\x84.sol\":1590:1608  len1 = arr1.length */\n      swap9\n      pop\n        /* \"1.3.2-\\xe6\\x95\\xb0\\xe7\\xbb\\x84.sol\":1623:1627  arr2 */\n      0x01\n        /* \"1.3.2-\\xe6\\x95\\xb0\\xe7\\xbb\\x84.sol\":1618:1627  d2 = arr2 */\n      dup1\n      sload\n      dup1\n      0x20\n      mul\n      0x20\n      add\n      mload(0x40)\n      swap1\n      dup2\n      add\n      0x40\n      mstore\n      dup1\n      swap3\n      swap2\n      swap1\n      dup2\n      dup2\n      mstore\n      0x20\n      add\n      dup3\n      dup1\n      sload\n      dup1\n      iszero\n      tag_156\n      jumpi\n      0x20\n      mul\n      dup3\n      add\n      swap2\n      swap1\n      0x00\n      mstore\n      keccak256(0x00, 0x20)\n      swap1\n    tag_157:\n      dup2\n      sload\n      dup2\n      mstore\n      0x20\n      add\n      swap1\n      0x01\n      add\n      swap1\n      dup1\n      dup4\n      gt\n      tag_157\n      jumpi\n    tag_156:\n      pop\n      pop\n      pop\n      pop\n      pop\n      swap8\n      pop\n        /* \"1.3.2-\\xe6\\x95\\xb0\\xe7\\xbb\\x84.sol\":1644:1648  arr2 */\n      0x01\n        /* \"1.3.2-\\xe6\\x95\\xb0\\xe7\\xbb\\x84.sol\":1644:1655  arr2.length */\n      dup1\n      sload\n      swap1\n      pop\n        /* \"1.3.2-\\xe6\\x95\\xb0\\xe7\\xbb\\x84.sol\":1637:1655  len2 = arr2.length */\n      swap7\n      pop\n        /* \"1.3.2-\\xe6\\x95\\xb0\\xe7\\xbb\\x84.sol\":1670:1674  arr3 */\n      0x02\n        /* \"1.3.2-\\xe6\\x95\\xb0\\xe7\\xbb\\x84.sol\":1665:1674  d3 = arr3 */\n      dup1\n      sload\n      dup1\n      0x20\n      mul\n      0x20\n      add\n      mload(0x40)\n      swap1\n      dup2\n      add\n      0x40\n      mstore\n      dup1\n      swap3\n      swap2\n      swap1\n      dup2\n      dup2\n      mstore\n      0x20\n      add\n      dup3\n      dup1\n      sload\n      dup1\n      iszero\n      tag_158\n      jumpi\n      0x20\n      mul\n      dup3\n      add\n      swap2\n      swap1\n      0x00\n      mstore\n      keccak256(0x00, 0x20)\n      swap1\n    tag_159:\n      dup2\n      sload\n      dup2\n      mstore\n      0x20\n      add\n      swap1\n      0x01\n      add\n      swap1\n      dup1\n      dup4\n      gt\n      tag_159\n      jumpi\n    tag_158:\n      pop\n      pop\n      pop\n      pop\n      pop\n      swap6\n      pop\n        /* \"1.3.2-\\xe6\\x95\\xb0\\xe7\\xbb\\x84.sol\":1691:1695  arr3 */\n      0x02\n        /* \"1.3.2-\\xe6\\x95\\xb0\\xe7\\xbb\\x84.sol\":1691:1702  arr3.length */\n      dup1\n      sload\n      swap1\n      pop\n        /* \"1.3.2-\\xe6\\x95\\xb0\\xe7\\xbb\\x84.sol\":1684:1702  len3 = arr3.length */\n      swap5\n      pop\n        /* \"1.3.2-\\xe6\\x95\\xb0\\xe7\\xbb\\x84.sol\":1717:1721  arr4 */\n      0x03\n        /* \"1.3.2-\\xe6\\x95\\xb0\\xe7\\xbb\\x84.sol\":1712:1721  d4 = arr4 */\n      0x04\n      dup1\n      0x20\n      mul\n      mload(0x40)\n      swap1\n      dup2\n      add\n      0x40\n      mstore\n      dup1\n      swap3\n      swap2\n      swap1\n      dup3\n      0x04\n      dup1\n      iszero\n      tag_160\n      jumpi\n      0x20\n      mul\n      dup3\n      add\n      swap2\n    tag_161:\n      dup2\n      sload\n      dup2\n      mstore\n      0x20\n      add\n      swap1\n      0x01\n      add\n      swap1\n      dup1\n      dup4\n      gt\n      tag_161\n      jumpi\n    tag_160:\n      pop\n      pop\n      pop\n      pop\n      pop\n      swap4\n      pop\n        /* \"1.3.2-\\xe6\\x95\\xb0\\xe7\\xbb\\x84.sol\":1738:1749  arr4.length */\n      0x04\n        /* \"1.3.2-\\xe6\\x95\\xb0\\xe7\\xbb\\x84.sol\":1731:1749  len4 = arr4.length */\n      swap3\n      pop\n        /* \"1.3.2-\\xe6\\x95\\xb0\\xe7\\xbb\\x84.sol\":1764:1768  arr5 */\n      0x07\n        /* \"1.3.2-\\xe6\\x95\\xb0\\xe7\\xbb\\x84.sol\":1759:1768  d5 = arr5 */\n      0x05\n      dup1\n      0x20\n      mul\n      mload(0x40)\n      swap1\n      dup2\n      add\n      0x40\n      mstore\n      dup1\n      swap3\n      swap2\n      swap1\n      dup3\n      0x05\n      dup1\n      iszero\n      tag_162\n      jumpi\n      0x20\n      mul\n      dup3\n      add\n      swap2\n    tag_163:\n      dup2\n      sload\n      dup2\n      mstore\n      0x20\n      add\n      swap1\n      0x01\n      add\n      swap1\n      dup1\n      dup4\n      gt\n      tag_163\n      jumpi\n    tag_162:\n      pop\n      pop\n      pop\n      pop\n      pop\n      swap2\n      pop\n        /* \"1.3.2-\\xe6\\x95\\xb0\\xe7\\xbb\\x84.sol\":1785:1796  arr5.length */\n      0x05\n        /* \"1.3.2-\\xe6\\x95\\xb0\\xe7\\xbb\\x84.sol\":1778:1796  len5 = arr5.length */\n      swap1\n      pop\n        /* \"1.3.2-\\xe6\\x95\\xb0\\xe7\\xbb\\x84.sol\":1184:1803  function readArr()... */\n      swap1\n      swap2\n      swap3\n      swap4\n      swap5\n      swap6\n      swap7\n      swap8\n      swap9\n      swap10\n      jump\t// out\n        /* \"1.3.2-\\xe6\\x95\\xb0\\xe7\\xbb\\x84.sol\":1064:1104  uint256[] public arr3 = new uint256[](5) */\n    tag_61:\n      0x02\n      dup2\n      dup2\n      sload\n      dup2\n      lt\n      tag_164\n      jumpi\n      0x00\n      dup1\n      revert\n    tag_164:\n      swap1\n      0x00\n      mstore\n      keccak256(0x00, 0x20)\n      add\n      0x00\n      swap2\n      pop\n      swap1\n      pop\n      sload\n      dup2\n      jump\t// out\n        /* \"1.3.2-\\xe6\\x95\\xb0\\xe7\\xbb\\x84.sol\":1138:1178  uint256[5] public arr5 = [1, 2, 3, 4, 5] */\n    tag_65:\n      0x07\n      dup2\n      0x05\n      dup2\n      lt\n      tag_166\n      jumpi\n      0x00\n      dup1\n      revert\n    tag_166:\n      add\n      0x00\n      swap2\n      pop\n      swap1\n      pop\n      sload\n      dup2\n      jump\t// out\n        /* \"1.3.2-\\xe6\\x95\\xb0\\xe7\\xbb\\x84.sol\":1829:1855  uint[] public dynamicArray */\n    tag_69:\n      0x0c\n      dup2\n      dup2\n      sload\n      dup2\n      lt\n      tag_168\n      jumpi\n      0x00\n      dup1\n      revert\n    tag_168:\n      swap1\n      0x00\n      mstore\n      keccak256(0x00, 0x20)\n      add\n      0x00\n      swap2\n      pop\n      swap1\n      pop\n      sload\n      dup2\n      jump\t// out\n        /* \"1.3.2-\\xe6\\x95\\xb0\\xe7\\xbb\\x84.sol\":3232:3376  function testSlice(bytes calldata data2, uint256 start, uint256 end) public pure returns (bytes memory) {... */\n    tag_74:\n        /* \"1.3.2-\\xe6\\x95\\xb0\\xe7\\xbb\\x84.sol\":3322:3334  bytes memory */\n      0x60\n        /* \"1.3.2-\\xe6\\x95\\xb0\\xe7\\xbb\\x84.sol\":3353:3358  data2 */\n      dup5\n      dup5\n        /* \"1.3.2-\\xe6\\x95\\xb0\\xe7\\xbb\\x84.sol\":3359:3364  start */\n      dup5\n        /* \"1.3.2-\\xe6\\x95\\xb0\\xe7\\xbb\\x84.sol\":3353:3369  data2[start:end] */\n      swap1\n        /* \"1.3.2-\\xe6\\x95\\xb0\\xe7\\xbb\\x84.sol\":3365:3368  end */\n      dup5\n        /* \"1.3.2-\\xe6\\x95\\xb0\\xe7\\xbb\\x84.sol\":3353:3369  data2[start:end] */\n      swap3\n      tag_171\n      swap4\n      swap3\n      swap2\n      swap1\n      tag_172\n      jump\t// in\n    tag_171:\n        /* \"1.3.2-\\xe6\\x95\\xb0\\xe7\\xbb\\x84.sol\":3346:3369  return data2[start:end] */\n      dup1\n      dup1\n      0x1f\n      add\n      0x20\n      dup1\n      swap2\n      div\n      mul\n      0x20\n      add\n      mload(0x40)\n      swap1\n      dup2\n      add\n      0x40\n      mstore\n      dup1\n      swap4\n      swap3\n      swap2\n      swap1\n      dup2\n      dup2\n      mstore\n      0x20\n      add\n      dup4\n      dup4\n      dup1\n      dup3\n      dup5\n      calldatacopy\n      0x00\n      dup2\n      dup5\n      add\n      mstore\n      not(0x1f)\n      0x1f\n      dup3\n      add\n      and\n      swap1\n      pop\n      dup1\n      dup4\n      add\n      swap3\n      pop\n      pop\n      pop\n      pop\n      pop\n      pop\n      pop\n      swap1\n      pop\n        /* \"1.3.2-\\xe6\\x95\\xb0\\xe7\\xbb\\x84.sol\":3232:3376  function testSlice(bytes calldata data2, uint256 start, uint256 end) public pure returns (bytes memory) {... */\n      swap5\n      swap4\n      pop\n      pop\n      pop\n      pop\n      jump\t// out\n        /* \"1.3.2-\\xe6\\x95\\xb0\\xe7\\xbb\\x84.sol\":2330:2572  function readBytesByIndex(uint256 index) public view returns (int256) {... */\n    tag_78:\n        /* \"1.3.2-\\xe6\\x95\\xb0\\xe7\\xbb\\x84.sol\":2392:2398  int256 */\n      0x00\n        /* \"1.3.2-\\xe6\\x95\\xb0\\xe7\\xbb\\x84.sol\":2415:2424  uint256 i */\n      dup1\n        /* \"1.3.2-\\xe6\\x95\\xb0\\xe7\\xbb\\x84.sol\":2427:2428  0 */\n      0x00\n        /* \"1.3.2-\\xe6\\x95\\xb0\\xe7\\xbb\\x84.sol\":2415:2428  uint256 i = 0 */\n      swap1\n      pop\n        /* \"1.3.2-\\xe6\\x95\\xb0\\xe7\\xbb\\x84.sol\":2410:2547  for (uint256 i = 0; i < bs.length; i++) {... */\n    tag_174:\n        /* \"1.3.2-\\xe6\\x95\\xb0\\xe7\\xbb\\x84.sol\":2434:2436  bs */\n      0x0d\n        /* \"1.3.2-\\xe6\\x95\\xb0\\xe7\\xbb\\x84.sol\":2434:2443  bs.length */\n      dup1\n      sload\n      tag_177\n      swap1\n      tag_125\n      jump\t// in\n    tag_177:\n      swap1\n      pop\n        /* \"1.3.2-\\xe6\\x95\\xb0\\xe7\\xbb\\x84.sol\":2430:2431  i */\n      dup2\n        /* \"1.3.2-\\xe6\\x95\\xb0\\xe7\\xbb\\x84.sol\":2430:2443  i < bs.length */\n      lt\n        /* \"1.3.2-\\xe6\\x95\\xb0\\xe7\\xbb\\x84.sol\":2410:2547  for (uint256 i = 0; i < bs.length; i++) {... */\n      iszero\n      tag_175\n      jumpi\n        /* \"1.3.2-\\xe6\\x95\\xb0\\xe7\\xbb\\x84.sol\":2477:2479  bs */\n      0x0d\n        /* \"1.3.2-\\xe6\\x95\\xb0\\xe7\\xbb\\x84.sol\":2480:2485  index */\n      dup4\n        /* \"1.3.2-\\xe6\\x95\\xb0\\xe7\\xbb\\x84.sol\":2477:2486  bs[index] */\n      dup2\n      sload\n      tag_178\n      swap1\n      tag_125\n      jump\t// in\n    tag_178:\n      dup2\n      lt\n      tag_179\n      jumpi\n      tag_180\n      tag_129\n      jump\t// in\n    tag_180:\n    tag_179:\n      dup2\n      sload\n      0x01\n      and\n      iszero\n      tag_181\n      jumpi\n      swap1\n      0x00\n      mstore\n      keccak256(0x00, 0x20)\n      swap1\n      0x20\n      swap2\n      dup3\n      dup3\n      div\n      add\n      swap2\n      swap1\n      mod\n    tag_181:\n      swap1\n      sload\n      swap1\n      byte\n      0x0100000000000000000000000000000000000000000000000000000000000000\n      mul\n        /* \"1.3.2-\\xe6\\x95\\xb0\\xe7\\xbb\\x84.sol\":2468:2486  bs[i] == bs[index] */\n      not(0xffffffffffffffffffffffffffffffffffffffffffffffffffffffffffffff)\n      and\n        /* \"1.3.2-\\xe6\\x95\\xb0\\xe7\\xbb\\x84.sol\":2468:2470  bs */\n      0x0d\n        /* \"1.3.2-\\xe6\\x95\\xb0\\xe7\\xbb\\x84.sol\":2471:2472  i */\n      dup3\n        /* \"1.3.2-\\xe6\\x95\\xb0\\xe7\\xbb\\x84.sol\":2468:2473  bs[i] */\n      dup2\n      sload\n      tag_182\n      swap1\n      tag_125\n      jump\t// in\n    tag_182:\n      dup2\n      lt\n      tag_183\n      jumpi\n      tag_184\n      tag_129\n      jump\t// in\n    tag_184:\n    tag_183:\n      dup2\n      sload\n      0x01\n      and\n      iszero\n      tag_185\n      jumpi\n      swap1\n      0x00\n      mstore\n      keccak256(0x00, 0x20)\n      swap1\n      0x20\n      swap2\n      dup3\n      dup3\n      div\n      add\n      swap2\n      swap1\n      mod\n    tag_185:\n      swap1\n      sload\n      swap1\n      byte\n      0x0100000000000000000000000000000000000000000000000000000000000000\n      mul\n        /* \"1.3.2-\\xe6\\x95\\xb0\\xe7\\xbb\\x84.sol\":2468:2486  bs[i] == bs[index] */\n      not(0xffffffffffffffffffffffffffffffffffffffffffffffffffffffffffffff)\n      and\n      sub\n        /* \"1.3.2-\\xe6\\x95\\xb0\\xe7\\xbb\\x84.sol\":2464:2537  if (bs[i] == bs[index]) {... */\n      tag_186\n      jumpi\n        /* \"1.3.2-\\xe6\\x95\\xb0\\xe7\\xbb\\x84.sol\":2520:2521  i */\n      dup1\n        /* \"1.3.2-\\xe6\\x95\\xb0\\xe7\\xbb\\x84.sol\":2506:2522  return int256(i) */\n      swap2\n      pop\n      pop\n      jump(tag_173)\n        /* \"1.3.2-\\xe6\\x95\\xb0\\xe7\\xbb\\x84.sol\":2464:2537  if (bs[i] == bs[index]) {... */\n    tag_186:\n        /* \"1.3.2-\\xe6\\x95\\xb0\\xe7\\xbb\\x84.sol\":2445:2448  i++ */\n      dup1\n      dup1\n      0x01\n      add\n      swap2\n      pop\n      pop\n        /* \"1.3.2-\\xe6\\x95\\xb0\\xe7\\xbb\\x84.sol\":2410:2547  for (uint256 i = 0; i < bs.length; i++) {... */\n      jump(tag_174)\n    tag_175:\n      pop\n        /* \"1.3.2-\\xe6\\x95\\xb0\\xe7\\xbb\\x84.sol\":2563:2565  -1 */\n      0xffffffffffffffffffffffffffffffffffffffffffffffffffffffffffffffff\n        /* \"1.3.2-\\xe6\\x95\\xb0\\xe7\\xbb\\x84.sol\":2556:2565  return -1 */\n      swap1\n      pop\n        /* \"1.3.2-\\xe6\\x95\\xb0\\xe7\\xbb\\x84.sol\":2330:2572  function readBytesByIndex(uint256 index) public view returns (int256) {... */\n    tag_173:\n      swap2\n      swap1\n      pop\n      jump\t// out\n        /* \"1.3.2-\\xe6\\x95\\xb0\\xe7\\xbb\\x84.sol\":584:972  function testArrFixed2() public pure returns (uint256[3] memory) {... */\n    tag_81:\n        /* \"1.3.2-\\xe6\\x95\\xb0\\xe7\\xbb\\x84.sol\":630:647  uint256[3] memory */\n      tag_187\n      tag_188\n      jump\t// in\n    tag_187:\n        /* \"1.3.2-\\xe6\\x95\\xb0\\xe7\\xbb\\x84.sol\":834:856  uint256[3] memory tens */\n      0x00\n        /* \"1.3.2-\\xe6\\x95\\xb0\\xe7\\xbb\\x84.sol\":834:877  uint256[3] memory tens = [uint256(1), 2, 3] */\n      mload(0x40)\n      dup1\n      0x60\n      add\n      0x40\n      mstore\n      dup1\n        /* \"1.3.2-\\xe6\\x95\\xb0\\xe7\\xbb\\x84.sol\":868:869  1 */\n      0x01\n        /* \"1.3.2-\\xe6\\x95\\xb0\\xe7\\xbb\\x84.sol\":834:877  uint256[3] memory tens = [uint256(1), 2, 3] */\n      dup2\n      mstore\n      0x20\n      add\n        /* \"1.3.2-\\xe6\\x95\\xb0\\xe7\\xbb\\x84.sol\":872:873  2 */\n      0x02\n        /* \"1.3.2-\\xe6\\x95\\xb0\\xe7\\xbb\\x84.sol\":834:877  uint256[3] memory tens = [uint256(1), 2, 3] */\n      dup2\n      mstore\n      0x20\n      add\n        /* \"1.3.2-\\xe6\\x95\\xb0\\xe7\\xbb\\x84.sol\":875:876  3 */\n      0x03\n        /* \"1.3.2-\\xe6\\x95\\xb0\\xe7\\xbb\\x84.sol\":834:877  uint256[3] memory tens = [uint256(1), 2, 3] */\n      dup2\n      mstore\n      pop\n      swap1\n      pop\n        /* \"1.3.2-\\xe6\\x95\\xb0\\xe7\\xbb\\x84.sol\":961:965  tens */\n      dup1\n        /* \"1.3.2-\\xe6\\x95\\xb0\\xe7\\xbb\\x84.sol\":954:965  return tens */\n      swap2\n      pop\n      pop\n        /* \"1.3.2-\\xe6\\x95\\xb0\\xe7\\xbb\\x84.sol\":584:972  function testArrFixed2() public pure returns (uint256[3] memory) {... */\n      swap1\n      jump\t// out\n        /* \"1.3.2-\\xe6\\x95\\xb0\\xe7\\xbb\\x84.sol\":1110:1132  uint256[4] public arr4 */\n    tag_86:\n      0x03\n      dup2\n      0x04\n      dup2\n      lt\n      tag_190\n      jumpi\n      0x00\n      dup1\n      revert\n    tag_190:\n      add\n      0x00\n      swap2\n      pop\n      swap1\n      pop\n      sload\n      dup2\n      jump\t// out\n        /* \"1.3.2-\\xe6\\x95\\xb0\\xe7\\xbb\\x84.sol\":2134:2247  function getLength() public view returns (uint) {... */\n    tag_89:\n        /* \"1.3.2-\\xe6\\x95\\xb0\\xe7\\xbb\\x84.sol\":2176:2180  uint */\n      0x00\n        /* \"1.3.2-\\xe6\\x95\\xb0\\xe7\\xbb\\x84.sol\":2199:2211  dynamicArray */\n      0x0c\n        /* \"1.3.2-\\xe6\\x95\\xb0\\xe7\\xbb\\x84.sol\":2199:2218  dynamicArray.length */\n      dup1\n      sload\n      swap1\n      pop\n        /* \"1.3.2-\\xe6\\x95\\xb0\\xe7\\xbb\\x84.sol\":2192:2218  return dynamicArray.length */\n      swap1\n      pop\n        /* \"1.3.2-\\xe6\\x95\\xb0\\xe7\\xbb\\x84.sol\":2134:2247  function getLength() public view returns (uint) {... */\n      swap1\n      jump\t// out\n        /* \"1.3.2-\\xe6\\x95\\xb0\\xe7\\xbb\\x84.sol\":233:579  function testArrFixed() public pure returns (uint256[] memory) {... */\n    tag_92:\n        /* \"1.3.2-\\xe6\\x95\\xb0\\xe7\\xbb\\x84.sol\":278:294  uint256[] memory */\n      0x60\n        /* \"1.3.2-\\xe6\\x95\\xb0\\xe7\\xbb\\x84.sol\":306:327  uint256[] memory tens */\n      0x00\n        /* \"1.3.2-\\xe6\\x95\\xb0\\xe7\\xbb\\x84.sol\":344:346  10 */\n      0x0a\n        /* \"1.3.2-\\xe6\\x95\\xb0\\xe7\\xbb\\x84.sol\":330:347  new uint256[](10) */\n      0xffffffffffffffff\n      dup2\n      gt\n      iszero\n      tag_194\n      jumpi\n      tag_195\n      tag_196\n      jump\t// in\n    tag_195:\n    tag_194:\n      mload(0x40)\n      swap1\n      dup1\n      dup3\n      mstore\n      dup1\n      0x20\n      mul\n      0x20\n      add\n      dup3\n      add\n      0x40\n      mstore\n      dup1\n      iszero\n      tag_197\n      jumpi\n      dup2\n      0x20\n      add\n      0x20\n      dup3\n      mul\n      dup1\n      calldatasize\n      dup4\n      calldatacopy\n      dup1\n      dup3\n      add\n      swap2\n      pop\n      pop\n      swap1\n      pop\n    tag_197:\n      pop\n        /* \"1.3.2-\\xe6\\x95\\xb0\\xe7\\xbb\\x84.sol\":306:347  uint256[] memory tens = new uint256[](10) */\n      swap1\n      pop\n        /* \"1.3.2-\\xe6\\x95\\xb0\\xe7\\xbb\\x84.sol\":362:371  uint256 i */\n      0x00\n        /* \"1.3.2-\\xe6\\x95\\xb0\\xe7\\xbb\\x84.sol\":357:552  for (uint256 i = 0; i < 10; i++) {... */\n    tag_198:\n        /* \"1.3.2-\\xe6\\x95\\xb0\\xe7\\xbb\\x84.sol\":381:383  10 */\n      0x0a\n        /* \"1.3.2-\\xe6\\x95\\xb0\\xe7\\xbb\\x84.sol\":377:378  i */\n      dup2\n        /* \"1.3.2-\\xe6\\x95\\xb0\\xe7\\xbb\\x84.sol\":377:383  i < 10 */\n      lt\n        /* \"1.3.2-\\xe6\\x95\\xb0\\xe7\\xbb\\x84.sol\":357:552  for (uint256 i = 0; i < 10; i++) {... */\n      iszero\n      tag_199\n      jumpi\n        /* \"1.3.2-\\xe6\\x95\\xb0\\xe7\\xbb\\x84.sol\":420:421  i */\n      dup1\n        /* \"1.3.2-\\xe6\\x95\\xb0\\xe7\\xbb\\x84.sol\":414:417  100 */\n      0x64\n        /* \"1.3.2-\\xe6\\x95\\xb0\\xe7\\xbb\\x84.sol\":414:421  100 + i */\n      tag_201\n      swap2\n      swap1\n      tag_202\n      jump\t// in\n    tag_201:\n        /* \"1.3.2-\\xe6\\x95\\xb0\\xe7\\xbb\\x84.sol\":404:408  tens */\n      dup3\n        /* \"1.3.2-\\xe6\\x95\\xb0\\xe7\\xbb\\x84.sol\":409:410  i */\n      dup3\n        /* \"1.3.2-\\xe6\\x95\\xb0\\xe7\\xbb\\x84.sol\":404:411  tens[i] */\n      dup2\n      mload\n      dup2\n      lt\n      tag_203\n      jumpi\n      tag_204\n      tag_129\n      jump\t// in\n    tag_204:\n    tag_203:\n      0x20\n      mul\n      0x20\n      add\n      add\n        /* \"1.3.2-\\xe6\\x95\\xb0\\xe7\\xbb\\x84.sol\":404:421  tens[i] = 100 + i */\n      dup2\n      dup2\n      mstore\n      pop\n      pop\n        /* \"1.3.2-\\xe6\\x95\\xb0\\xe7\\xbb\\x84.sol\":385:388  i++ */\n      dup1\n      dup1\n      0x01\n      add\n      swap2\n      pop\n      pop\n        /* \"1.3.2-\\xe6\\x95\\xb0\\xe7\\xbb\\x84.sol\":357:552  for (uint256 i = 0; i < 10; i++) {... */\n      jump(tag_198)\n    tag_199:\n      pop\n        /* \"1.3.2-\\xe6\\x95\\xb0\\xe7\\xbb\\x84.sol\":568:572  tens */\n      dup1\n        /* \"1.3.2-\\xe6\\x95\\xb0\\xe7\\xbb\\x84.sol\":561:572  return tens */\n      swap2\n      pop\n      pop\n        /* \"1.3.2-\\xe6\\x95\\xb0\\xe7\\xbb\\x84.sol\":233:579  function testArrFixed() public pure returns (uint256[] memory) {... */\n      swap1\n      jump\t// out\n        /* \"1.3.2-\\xe6\\x95\\xb0\\xe7\\xbb\\x84.sol\":2930:2947  string public str */\n    tag_95:\n      0x0f\n      dup1\n      sload\n      tag_205\n      swap1\n      tag_125\n      jump\t// in\n    tag_205:\n      dup1\n      0x1f\n      add\n      0x20\n      dup1\n      swap2\n      div\n      mul\n      0x20\n      add\n      mload(0x40)\n      swap1\n      dup2\n      add\n      0x40\n      mstore\n      dup1\n      swap3\n      swap2\n      swap1\n      dup2\n      dup2\n      mstore\n      0x20\n      add\n      dup3\n      dup1\n      sload\n      tag_206\n      swap1\n      tag_125\n      jump\t// in\n    tag_206:\n      dup1\n      iszero\n      tag_207\n      jumpi\n      dup1\n      0x1f\n      lt\n      tag_208\n      jumpi\n      0x0100\n      dup1\n      dup4\n      sload\n      div\n      mul\n      dup4\n      mstore\n      swap2\n      0x20\n      add\n      swap2\n      jump(tag_207)\n    tag_208:\n      dup3\n      add\n      swap2\n      swap1\n      0x00\n      mstore\n      keccak256(0x00, 0x20)\n      swap1\n    tag_209:\n      dup2\n      sload\n      dup2\n      mstore\n      swap1\n      0x01\n      add\n      swap1\n      0x20\n      add\n      dup1\n      dup4\n      gt\n      tag_209\n      jumpi\n      dup3\n      swap1\n      sub\n      0x1f\n      and\n      dup3\n      add\n      swap2\n    tag_207:\n      pop\n      pop\n      pop\n      pop\n      pop\n      dup2\n      jump\t// out\n        /* \"1.3.2-\\xe6\\x95\\xb0\\xe7\\xbb\\x84.sol\":85:201  function testArr1() public pure returns (uint[10] memory) {... */\n    tag_99:\n        /* \"1.3.2-\\xe6\\x95\\xb0\\xe7\\xbb\\x84.sol\":126:141  uint[10] memory */\n      tag_210\n      tag_211\n      jump\t// in\n    tag_210:\n        /* \"1.3.2-\\xe6\\x95\\xb0\\xe7\\xbb\\x84.sol\":153:173  uint[10] memory tens */\n      tag_213\n      tag_211\n      jump\t// in\n    tag_213:\n        /* \"1.3.2-\\xe6\\x95\\xb0\\xe7\\xbb\\x84.sol\":190:194  tens */\n      dup1\n        /* \"1.3.2-\\xe6\\x95\\xb0\\xe7\\xbb\\x84.sol\":183:194  return tens */\n      swap2\n      pop\n      pop\n        /* \"1.3.2-\\xe6\\x95\\xb0\\xe7\\xbb\\x84.sol\":85:201  function testArr1() public pure returns (uint[10] memory) {... */\n      swap1\n      jump\t// out\n        /* \"1.3.2-\\xe6\\x95\\xb0\\xe7\\xbb\\x84.sol\":1025:1058  uint256[] public arr2 = [1, 2, 3] */\n    tag_104:\n      0x01\n      dup2\n      dup2\n      sload\n      dup2\n      lt\n      tag_214\n      jumpi\n      0x00\n      dup1\n      revert\n    tag_214:\n      swap1\n      0x00\n      mstore\n      keccak256(0x00, 0x20)\n      add\n      0x00\n      swap2\n      pop\n      swap1\n      pop\n      sload\n      dup2\n      jump\t// out\n        /* \"1.3.2-\\xe6\\x95\\xb0\\xe7\\xbb\\x84.sol\":1861:2000  function addElement(uint _element) public returns (uint[] memory) {... */\n    tag_108:\n        /* \"1.3.2-\\xe6\\x95\\xb0\\xe7\\xbb\\x84.sol\":1912:1925  uint[] memory */\n      0x60\n        /* \"1.3.2-\\xe6\\x95\\xb0\\xe7\\xbb\\x84.sol\":1937:1949  dynamicArray */\n      0x0c\n        /* \"1.3.2-\\xe6\\x95\\xb0\\xe7\\xbb\\x84.sol\":1955:1963  _element */\n      dup3\n        /* \"1.3.2-\\xe6\\x95\\xb0\\xe7\\xbb\\x84.sol\":1937:1964  dynamicArray.push(_element) */\n      swap1\n      dup1\n      0x01\n      dup2\n      sload\n      add\n      dup1\n      dup3\n      sstore\n      dup1\n      swap2\n      pop\n      pop\n      0x01\n      swap1\n      sub\n      swap1\n      0x00\n      mstore\n      keccak256(0x00, 0x20)\n      add\n      0x00\n      swap1\n      swap2\n      swap1\n      swap2\n      swap1\n      swap2\n      pop\n      sstore\n        /* \"1.3.2-\\xe6\\x95\\xb0\\xe7\\xbb\\x84.sol\":1981:1993  dynamicArray */\n      0x0c\n        /* \"1.3.2-\\xe6\\x95\\xb0\\xe7\\xbb\\x84.sol\":1974:1993  return dynamicArray */\n      dup1\n      sload\n      dup1\n      0x20\n      mul\n      0x20\n      add\n      mload(0x40)\n      swap1\n      dup2\n      add\n      0x40\n      mstore\n      dup1\n      swap3\n      swap2\n      swap1\n      dup2\n      dup2\n      mstore\n      0x20\n      add\n      dup3\n      dup1\n      sload\n      dup1\n      iszero\n      tag_218\n      jumpi\n      0x20\n      mul\n      dup3\n      add\n      swap2\n      swap1\n      0x00\n      mstore\n      keccak256(0x00, 0x20)\n      swap1\n    tag_219:\n      dup2\n      sload\n      dup2\n      mstore\n      0x20\n      add\n      swap1\n      0x01\n      add\n      swap1\n      dup1\n      dup4\n      gt\n      tag_219\n      jumpi\n    tag_218:\n      pop\n      pop\n      pop\n      pop\n      pop\n      swap1\n      pop\n        /* \"1.3.2-\\xe6\\x95\\xb0\\xe7\\xbb\\x84.sol\":1861:2000  function addElement(uint _element) public returns (uint[] memory) {... */\n      swap2\n      swap1\n      pop\n      jump\t// out\n        /* \"1.3.2-\\xe6\\x95\\xb0\\xe7\\xbb\\x84.sol\":2953:2985  string public str2 = \"abc\\u718A\" */\n    tag_111:\n      0x10\n      dup1\n      sload\n      tag_220\n      swap1\n      tag_125\n      jump\t// in\n    tag_220:\n      dup1\n      0x1f\n      add\n      0x20\n      dup1\n      swap2\n      div\n      mul\n      0x20\n      add\n      mload(0x40)\n      swap1\n      dup2\n      add\n      0x40\n      mstore\n      dup1\n      swap3\n      swap2\n      swap1\n      dup2\n      dup2\n      mstore\n      0x20\n      add\n      dup3\n      dup1\n      sload\n      tag_221\n      swap1\n      tag_125\n      jump\t// in\n    tag_221:\n      dup1\n      iszero\n      tag_222\n      jumpi\n      dup1\n      0x1f\n      lt\n      tag_223\n      jumpi\n      0x0100\n      dup1\n      dup4\n      sload\n      div\n      mul\n      dup4\n      mstore\n      swap2\n      0x20\n      add\n      swap2\n      jump(tag_222)\n    tag_223:\n      dup3\n      add\n      swap2\n      swap1\n      0x00\n      mstore\n      keccak256(0x00, 0x20)\n      swap1\n    tag_224:\n      dup2\n      sload\n      dup2\n      mstore\n      swap1\n      0x01\n      add\n      swap1\n      0x20\n      add\n      dup1\n      dup4\n      gt\n      tag_224\n      jumpi\n      dup3\n      swap1\n      sub\n      0x1f\n      and\n      dup3\n      add\n      swap2\n    tag_222:\n      pop\n      pop\n      pop\n      pop\n      pop\n      dup2\n      jump\t// out\n    tag_150:\n      mload(0x40)\n      dup1\n      0x80\n      add\n      0x40\n      mstore\n      dup1\n      0x04\n      swap1\n      0x20\n      dup3\n      mul\n      dup1\n      calldatasize\n      dup4\n      calldatacopy\n      dup1\n      dup3\n      add\n      swap2\n      pop\n      pop\n      swap1\n      pop\n      pop\n      swap1\n      jump\t// out\n    tag_152:\n      mload(0x40)\n      dup1\n      0xa0\n      add\n      0x40\n      mstore\n      dup1\n      0x05\n      swap1\n      0x20\n      dup3\n      mul\n      dup1\n      calldatasize\n      dup4\n      calldatacopy\n      dup1\n      dup3\n      add\n      swap2\n      pop\n      pop\n      swap1\n      pop\n      pop\n      swap1\n      jump\t// out\n    tag_188:\n      mload(0x40)\n      dup1\n      0x60\n      add\n      0x40\n      mstore\n      dup1\n      0x03\n      swap1\n      0x20\n      dup3\n      mul\n      dup1\n      calldatasize\n      dup4\n      calldatacopy\n      dup1\n      dup3\n      add\n      swap2\n      pop\n      pop\n      swap1\n      pop\n      pop\n      swap1\n      jump\t// out\n    tag_211:\n      mload(0x40)\n      dup1\n      0x0140\n      add\n      0x40\n      mstore\n      dup1\n      0x0a\n      swap1\n      0x20\n      dup3\n      mul\n      dup1\n      calldatasize\n      dup4\n      calldatacopy\n      dup1\n      dup3\n      add\n      swap2\n      pop\n      pop\n      swap1\n      pop\n      pop\n      swap1\n      jump\t// out\n        /* \"#utility.yul\":7:121   */\n    tag_225:\n        /* \"#utility.yul\":74:80   */\n      0x00\n        /* \"#utility.yul\":108:113   */\n      dup2\n        /* \"#utility.yul\":102:114   */\n      mload\n        /* \"#utility.yul\":92:114   */\n      swap1\n      pop\n        /* \"#utility.yul\":7:121   */\n      swap2\n      swap1\n      pop\n      jump\t// out\n        /* \"#utility.yul\":127:311   */\n    tag_226:\n        /* \"#utility.yul\":226:237   */\n      0x00\n        /* \"#utility.yul\":260:266   */\n      dup3\n        /* \"#utility.yul\":255:258   */\n      dup3\n        /* \"#utility.yul\":248:267   */\n      mstore\n        /* \"#utility.yul\":300:304   */\n      0x20\n        /* \"#utility.yul\":295:298   */\n      dup3\n        /* \"#utility.yul\":291:305   */\n      add\n        /* \"#utility.yul\":276:305   */\n      swap1\n      pop\n        /* \"#utility.yul\":127:311   */\n      swap3\n      swap2\n      pop\n      pop\n      jump\t// out\n        /* \"#utility.yul\":317:449   */\n    tag_227:\n        /* \"#utility.yul\":384:388   */\n      0x00\n        /* \"#utility.yul\":407:410   */\n      dup2\n        /* \"#utility.yul\":399:410   */\n      swap1\n      pop\n        /* \"#utility.yul\":437:441   */\n      0x20\n        /* \"#utility.yul\":432:435   */\n      dup3\n        /* \"#utility.yul\":428:442   */\n      add\n        /* \"#utility.yul\":420:442   */\n      swap1\n      pop\n        /* \"#utility.yul\":317:449   */\n      swap2\n      swap1\n      pop\n      jump\t// out\n        /* \"#utility.yul\":455:532   */\n    tag_228:\n        /* \"#utility.yul\":492:499   */\n      0x00\n        /* \"#utility.yul\":521:526   */\n      dup2\n        /* \"#utility.yul\":510:526   */\n      swap1\n      pop\n        /* \"#utility.yul\":455:532   */\n      swap2\n      swap1\n      pop\n      jump\t// out\n        /* \"#utility.yul\":538:646   */\n    tag_229:\n        /* \"#utility.yul\":615:639   */\n      tag_287\n        /* \"#utility.yul\":633:638   */\n      dup2\n        /* \"#utility.yul\":615:639   */\n      tag_228\n      jump\t// in\n    tag_287:\n        /* \"#utility.yul\":610:613   */\n      dup3\n        /* \"#utility.yul\":603:640   */\n      mstore\n        /* \"#utility.yul\":538:646   */\n      pop\n      pop\n      jump\t// out\n        /* \"#utility.yul\":652:831   */\n    tag_230:\n        /* \"#utility.yul\":721:731   */\n      0x00\n        /* \"#utility.yul\":742:788   */\n      tag_289\n        /* \"#utility.yul\":784:787   */\n      dup4\n        /* \"#utility.yul\":776:782   */\n      dup4\n        /* \"#utility.yul\":742:788   */\n      tag_229\n      jump\t// in\n    tag_289:\n        /* \"#utility.yul\":820:824   */\n      0x20\n        /* \"#utility.yul\":815:818   */\n      dup4\n        /* \"#utility.yul\":811:825   */\n      add\n        /* \"#utility.yul\":797:825   */\n      swap1\n      pop\n        /* \"#utility.yul\":652:831   */\n      swap3\n      swap2\n      pop\n      pop\n      jump\t// out\n        /* \"#utility.yul\":837:950   */\n    tag_231:\n        /* \"#utility.yul\":907:911   */\n      0x00\n        /* \"#utility.yul\":939:943   */\n      0x20\n        /* \"#utility.yul\":934:937   */\n      dup3\n        /* \"#utility.yul\":930:944   */\n      add\n        /* \"#utility.yul\":922:944   */\n      swap1\n      pop\n        /* \"#utility.yul\":837:950   */\n      swap2\n      swap1\n      pop\n      jump\t// out\n        /* \"#utility.yul\":986:1718   */\n    tag_232:\n        /* \"#utility.yul\":1105:1108   */\n      0x00\n        /* \"#utility.yul\":1134:1188   */\n      tag_292\n        /* \"#utility.yul\":1182:1187   */\n      dup3\n        /* \"#utility.yul\":1134:1188   */\n      tag_225\n      jump\t// in\n    tag_292:\n        /* \"#utility.yul\":1204:1290   */\n      tag_293\n        /* \"#utility.yul\":1283:1289   */\n      dup2\n        /* \"#utility.yul\":1278:1281   */\n      dup6\n        /* \"#utility.yul\":1204:1290   */\n      tag_226\n      jump\t// in\n    tag_293:\n        /* \"#utility.yul\":1197:1290   */\n      swap4\n      pop\n        /* \"#utility.yul\":1314:1370   */\n      tag_294\n        /* \"#utility.yul\":1364:1369   */\n      dup4\n        /* \"#utility.yul\":1314:1370   */\n      tag_227\n      jump\t// in\n    tag_294:\n        /* \"#utility.yul\":1393:1400   */\n      dup1\n        /* \"#utility.yul\":1424:1425   */\n      0x00\n        /* \"#utility.yul\":1409:1693   */\n    tag_295:\n        /* \"#utility.yul\":1434:1440   */\n      dup4\n        /* \"#utility.yul\":1431:1432   */\n      dup2\n        /* \"#utility.yul\":1428:1441   */\n      lt\n        /* \"#utility.yul\":1409:1693   */\n      iszero\n      tag_297\n      jumpi\n        /* \"#utility.yul\":1510:1516   */\n      dup2\n        /* \"#utility.yul\":1504:1517   */\n      mload\n        /* \"#utility.yul\":1537:1600   */\n      tag_298\n        /* \"#utility.yul\":1596:1599   */\n      dup9\n        /* \"#utility.yul\":1581:1594   */\n      dup3\n        /* \"#utility.yul\":1537:1600   */\n      tag_230\n      jump\t// in\n    tag_298:\n        /* \"#utility.yul\":1530:1600   */\n      swap8\n      pop\n        /* \"#utility.yul\":1623:1683   */\n      tag_299\n        /* \"#utility.yul\":1676:1682   */\n      dup4\n        /* \"#utility.yul\":1623:1683   */\n      tag_231\n      jump\t// in\n    tag_299:\n        /* \"#utility.yul\":1613:1683   */\n      swap3\n      pop\n        /* \"#utility.yul\":1469:1693   */\n      pop\n        /* \"#utility.yul\":1456:1457   */\n      0x01\n        /* \"#utility.yul\":1453:1454   */\n      dup2\n        /* \"#utility.yul\":1449:1458   */\n      add\n        /* \"#utility.yul\":1444:1458   */\n      swap1\n      pop\n        /* \"#utility.yul\":1409:1693   */\n      jump(tag_295)\n    tag_297:\n        /* \"#utility.yul\":1413:1427   */\n      pop\n        /* \"#utility.yul\":1709:1712   */\n      dup6\n        /* \"#utility.yul\":1702:1712   */\n      swap4\n      pop\n        /* \"#utility.yul\":1110:1718   */\n      pop\n      pop\n      pop\n        /* \"#utility.yul\":986:1718   */\n      swap3\n      swap2\n      pop\n      pop\n      jump\t// out\n        /* \"#utility.yul\":1724:2097   */\n    tag_30:\n        /* \"#utility.yul\":1867:1871   */\n      0x00\n        /* \"#utility.yul\":1905:1907   */\n      0x20\n        /* \"#utility.yul\":1894:1903   */\n      dup3\n        /* \"#utility.yul\":1890:1908   */\n      add\n        /* \"#utility.yul\":1882:1908   */\n      swap1\n      pop\n        /* \"#utility.yul\":1954:1963   */\n      dup2\n        /* \"#utility.yul\":1948:1952   */\n      dup2\n        /* \"#utility.yul\":1944:1964   */\n      sub\n        /* \"#utility.yul\":1940:1941   */\n      0x00\n        /* \"#utility.yul\":1929:1938   */\n      dup4\n        /* \"#utility.yul\":1925:1942   */\n      add\n        /* \"#utility.yul\":1918:1965   */\n      mstore\n        /* \"#utility.yul\":1982:2090   */\n      tag_301\n        /* \"#utility.yul\":2085:2089   */\n      dup2\n        /* \"#utility.yul\":2076:2082   */\n      dup5\n        /* \"#utility.yul\":1982:2090   */\n      tag_232\n      jump\t// in\n    tag_301:\n        /* \"#utility.yul\":1974:2090   */\n      swap1\n      pop\n        /* \"#utility.yul\":1724:2097   */\n      swap3\n      swap2\n      pop\n      pop\n      jump\t// out\n        /* \"#utility.yul\":2184:2301   */\n    tag_234:\n        /* \"#utility.yul\":2293:2294   */\n      0x00\n        /* \"#utility.yul\":2290:2291   */\n      dup1\n        /* \"#utility.yul\":2283:2295   */\n      revert\n        /* \"#utility.yul\":2307:2424   */\n    tag_235:\n        /* \"#utility.yul\":2416:2417   */\n      0x00\n        /* \"#utility.yul\":2413:2414   */\n      dup1\n        /* \"#utility.yul\":2406:2418   */\n      revert\n        /* \"#utility.yul\":2430:2579   */\n    tag_236:\n        /* \"#utility.yul\":2466:2473   */\n      0x00\n        /* \"#utility.yul\":2506:2572   */\n      0xff00000000000000000000000000000000000000000000000000000000000000\n        /* \"#utility.yul\":2499:2504   */\n      dup3\n        /* \"#utility.yul\":2495:2573   */\n      and\n        /* \"#utility.yul\":2484:2573   */\n      swap1\n      pop\n        /* \"#utility.yul\":2430:2579   */\n      swap2\n      swap1\n      pop\n      jump\t// out\n        /* \"#utility.yul\":2585:2705   */\n    tag_237:\n        /* \"#utility.yul\":2657:2680   */\n      tag_307\n        /* \"#utility.yul\":2674:2679   */\n      dup2\n        /* \"#utility.yul\":2657:2680   */\n      tag_236\n      jump\t// in\n    tag_307:\n        /* \"#utility.yul\":2650:2655   */\n      dup2\n        /* \"#utility.yul\":2647:2681   */\n      eq\n        /* \"#utility.yul\":2637:2699   */\n      tag_308\n      jumpi\n        /* \"#utility.yul\":2695:2696   */\n      0x00\n        /* \"#utility.yul\":2692:2693   */\n      dup1\n        /* \"#utility.yul\":2685:2697   */\n      revert\n        /* \"#utility.yul\":2637:2699   */\n    tag_308:\n        /* \"#utility.yul\":2585:2705   */\n      pop\n      jump\t// out\n        /* \"#utility.yul\":2711:2848   */\n    tag_238:\n        /* \"#utility.yul\":2756:2761   */\n      0x00\n        /* \"#utility.yul\":2794:2800   */\n      dup2\n        /* \"#utility.yul\":2781:2801   */\n      calldataload\n        /* \"#utility.yul\":2772:2801   */\n      swap1\n      pop\n        /* \"#utility.yul\":2810:2842   */\n      tag_310\n        /* \"#utility.yul\":2836:2841   */\n      dup2\n        /* \"#utility.yul\":2810:2842   */\n      tag_237\n      jump\t// in\n    tag_310:\n        /* \"#utility.yul\":2711:2848   */\n      swap3\n      swap2\n      pop\n      pop\n      jump\t// out\n        /* \"#utility.yul\":2854:3181   */\n    tag_33:\n        /* \"#utility.yul\":2912:2918   */\n      0x00\n        /* \"#utility.yul\":2961:2963   */\n      0x20\n        /* \"#utility.yul\":2949:2958   */\n      dup3\n        /* \"#utility.yul\":2940:2947   */\n      dup5\n        /* \"#utility.yul\":2936:2959   */\n      sub\n        /* \"#utility.yul\":2932:2964   */\n      slt\n        /* \"#utility.yul\":2929:3048   */\n      iszero\n      tag_312\n      jumpi\n        /* \"#utility.yul\":2967:3046   */\n      tag_313\n      tag_234\n      jump\t// in\n    tag_313:\n        /* \"#utility.yul\":2929:3048   */\n    tag_312:\n        /* \"#utility.yul\":3087:3088   */\n      0x00\n        /* \"#utility.yul\":3112:3164   */\n      tag_314\n        /* \"#utility.yul\":3156:3163   */\n      dup5\n        /* \"#utility.yul\":3147:3153   */\n      dup3\n        /* \"#utility.yul\":3136:3145   */\n      dup6\n        /* \"#utility.yul\":3132:3154   */\n      add\n        /* \"#utility.yul\":3112:3164   */\n      tag_238\n      jump\t// in\n    tag_314:\n        /* \"#utility.yul\":3102:3164   */\n      swap2\n      pop\n        /* \"#utility.yul\":3058:3174   */\n      pop\n        /* \"#utility.yul\":2854:3181   */\n      swap3\n      swap2\n      pop\n      pop\n      jump\t// out\n        /* \"#utility.yul\":3187:3263   */\n    tag_239:\n        /* \"#utility.yul\":3223:3230   */\n      0x00\n        /* \"#utility.yul\":3252:3257   */\n      dup2\n        /* \"#utility.yul\":3241:3257   */\n      swap1\n      pop\n        /* \"#utility.yul\":3187:3263   */\n      swap2\n      swap1\n      pop\n      jump\t// out\n        /* \"#utility.yul\":3269:3384   */\n    tag_240:\n        /* \"#utility.yul\":3354:3377   */\n      tag_317\n        /* \"#utility.yul\":3371:3376   */\n      dup2\n        /* \"#utility.yul\":3354:3377   */\n      tag_239\n      jump\t// in\n    tag_317:\n        /* \"#utility.yul\":3349:3352   */\n      dup3\n        /* \"#utility.yul\":3342:3378   */\n      mstore\n        /* \"#utility.yul\":3269:3384   */\n      pop\n      pop\n      jump\t// out\n        /* \"#utility.yul\":3390:3608   */\n    tag_36:\n        /* \"#utility.yul\":3481:3485   */\n      0x00\n        /* \"#utility.yul\":3519:3521   */\n      0x20\n        /* \"#utility.yul\":3508:3517   */\n      dup3\n        /* \"#utility.yul\":3504:3522   */\n      add\n        /* \"#utility.yul\":3496:3522   */\n      swap1\n      pop\n        /* \"#utility.yul\":3532:3601   */\n      tag_319\n        /* \"#utility.yul\":3598:3599   */\n      0x00\n        /* \"#utility.yul\":3587:3596   */\n      dup4\n        /* \"#utility.yul\":3583:3600   */\n      add\n        /* \"#utility.yul\":3574:3580   */\n      dup5\n        /* \"#utility.yul\":3532:3601   */\n      tag_240\n      jump\t// in\n    tag_319:\n        /* \"#utility.yul\":3390:3608   */\n      swap3\n      swap2\n      pop\n      pop\n      jump\t// out\n        /* \"#utility.yul\":3614:3712   */\n    tag_241:\n        /* \"#utility.yul\":3665:3671   */\n      0x00\n        /* \"#utility.yul\":3699:3704   */\n      dup2\n        /* \"#utility.yul\":3693:3705   */\n      mload\n        /* \"#utility.yul\":3683:3705   */\n      swap1\n      pop\n        /* \"#utility.yul\":3614:3712   */\n      swap2\n      swap1\n      pop\n      jump\t// out\n        /* \"#utility.yul\":3718:3886   */\n    tag_242:\n        /* \"#utility.yul\":3801:3812   */\n      0x00\n        /* \"#utility.yul\":3835:3841   */\n      dup3\n        /* \"#utility.yul\":3830:3833   */\n      dup3\n        /* \"#utility.yul\":3823:3842   */\n      mstore\n        /* \"#utility.yul\":3875:3879   */\n      0x20\n        /* \"#utility.yul\":3870:3873   */\n      dup3\n        /* \"#utility.yul\":3866:3880   */\n      add\n        /* \"#utility.yul\":3851:3880   */\n      swap1\n      pop\n        /* \"#utility.yul\":3718:3886   */\n      swap3\n      swap2\n      pop\n      pop\n      jump\t// out\n        /* \"#utility.yul\":3892:4031   */\n    tag_243:\n        /* \"#utility.yul\":3981:3987   */\n      dup3\n        /* \"#utility.yul\":3976:3979   */\n      dup2\n        /* \"#utility.yul\":3971:3974   */\n      dup4\n        /* \"#utility.yul\":3965:3988   */\n      mcopy\n        /* \"#utility.yul\":4022:4023   */\n      0x00\n        /* \"#utility.yul\":4013:4019   */\n      dup4\n        /* \"#utility.yul\":4008:4011   */\n      dup4\n        /* \"#utility.yul\":4004:4020   */\n      add\n        /* \"#utility.yul\":3997:4024   */\n      mstore\n        /* \"#utility.yul\":3892:4031   */\n      pop\n      pop\n      pop\n      jump\t// out\n        /* \"#utility.yul\":4037:4139   */\n    tag_244:\n        /* \"#utility.yul\":4078:4084   */\n      0x00\n        /* \"#utility.yul\":4129:4131   */\n      0x1f\n        /* \"#utility.yul\":4125:4132   */\n      not\n        /* \"#utility.yul\":4120:4122   */\n      0x1f\n        /* \"#utility.yul\":4113:4118   */\n      dup4\n        /* \"#utility.yul\":4109:4123   */\n      add\n        /* \"#utility.yul\":4105:4133   */\n      and\n        /* \"#utility.yul\":4095:4133   */\n      swap1\n      pop\n        /* \"#utility.yul\":4037:4139   */\n      swap2\n      swap1\n      pop\n      jump\t// out\n        /* \"#utility.yul\":4145:4518   */\n    tag_245:\n        /* \"#utility.yul\":4231:4234   */\n      0x00\n        /* \"#utility.yul\":4259:4297   */\n      tag_325\n        /* \"#utility.yul\":4291:4296   */\n      dup3\n        /* \"#utility.yul\":4259:4297   */\n      tag_241\n      jump\t// in\n    tag_325:\n        /* \"#utility.yul\":4313:4383   */\n      tag_326\n        /* \"#utility.yul\":4376:4382   */\n      dup2\n        /* \"#utility.yul\":4371:4374   */\n      dup6\n        /* \"#utility.yul\":4313:4383   */\n      tag_242\n      jump\t// in\n    tag_326:\n        /* \"#utility.yul\":4306:4383   */\n      swap4\n      pop\n        /* \"#utility.yul\":4392:4457   */\n      tag_327\n        /* \"#utility.yul\":4450:4456   */\n      dup2\n        /* \"#utility.yul\":4445:4448   */\n      dup6\n        /* \"#utility.yul\":4438:4442   */\n      0x20\n        /* \"#utility.yul\":4431:4436   */\n      dup7\n        /* \"#utility.yul\":4427:4443   */\n      add\n        /* \"#utility.yul\":4392:4457   */\n      tag_243\n      jump\t// in\n    tag_327:\n        /* \"#utility.yul\":4482:4511   */\n      tag_328\n        /* \"#utility.yul\":4504:4510   */\n      dup2\n        /* \"#utility.yul\":4482:4511   */\n      tag_244\n      jump\t// in\n    tag_328:\n        /* \"#utility.yul\":4477:4480   */\n      dup5\n        /* \"#utility.yul\":4473:4512   */\n      add\n        /* \"#utility.yul\":4466:4512   */\n      swap2\n      pop\n        /* \"#utility.yul\":4235:4518   */\n      pop\n        /* \"#utility.yul\":4145:4518   */\n      swap3\n      swap2\n      pop\n      pop\n      jump\t// out\n        /* \"#utility.yul\":4524:4833   */\n    tag_40:\n        /* \"#utility.yul\":4635:4639   */\n      0x00\n        /* \"#utility.yul\":4673:4675   */\n      0x20\n        /* \"#utility.yul\":4662:4671   */\n      dup3\n        /* \"#utility.yul\":4658:4676   */\n      add\n        /* \"#utility.yul\":4650:4676   */\n      swap1\n      pop\n        /* \"#utility.yul\":4722:4731   */\n      dup2\n        /* \"#utility.yul\":4716:4720   */\n      dup2\n        /* \"#utility.yul\":4712:4732   */\n      sub\n        /* \"#utility.yul\":4708:4709   */\n      0x00\n        /* \"#utility.yul\":4697:4706   */\n      dup4\n        /* \"#utility.yul\":4693:4710   */\n      add\n        /* \"#utility.yul\":4686:4733   */\n      mstore\n        /* \"#utility.yul\":4750:4826   */\n      tag_330\n        /* \"#utility.yul\":4821:4825   */\n      dup2\n        /* \"#utility.yul\":4812:4818   */\n      dup5\n        /* \"#utility.yul\":4750:4826   */\n      tag_245\n      jump\t// in\n    tag_330:\n        /* \"#utility.yul\":4742:4826   */\n      swap1\n      pop\n        /* \"#utility.yul\":4524:4833   */\n      swap3\n      swap2\n      pop\n      pop\n      jump\t// out\n        /* \"#utility.yul\":4839:4961   */\n    tag_246:\n        /* \"#utility.yul\":4912:4936   */\n      tag_332\n        /* \"#utility.yul\":4930:4935   */\n      dup2\n        /* \"#utility.yul\":4912:4936   */\n      tag_228\n      jump\t// in\n    tag_332:\n        /* \"#utility.yul\":4905:4910   */\n      dup2\n        /* \"#utility.yul\":4902:4937   */\n      eq\n        /* \"#utility.yul\":4892:4955   */\n      tag_333\n      jumpi\n        /* \"#utility.yul\":4951:4952   */\n      0x00\n        /* \"#utility.yul\":4948:4949   */\n      dup1\n        /* \"#utility.yul\":4941:4953   */\n      revert\n        /* \"#utility.yul\":4892:4955   */\n    tag_333:\n        /* \"#utility.yul\":4839:4961   */\n      pop\n      jump\t// out\n        /* \"#utility.yul\":4967:5106   */\n    tag_247:\n        /* \"#utility.yul\":5013:5018   */\n      0x00\n        /* \"#utility.yul\":5051:5057   */\n      dup2\n        /* \"#utility.yul\":5038:5058   */\n      calldataload\n        /* \"#utility.yul\":5029:5058   */\n      swap1\n      pop\n        /* \"#utility.yul\":5067:5100   */\n      tag_335\n        /* \"#utility.yul\":5094:5099   */\n      dup2\n        /* \"#utility.yul\":5067:5100   */\n      tag_246\n      jump\t// in\n    tag_335:\n        /* \"#utility.yul\":4967:5106   */\n      swap3\n      swap2\n      pop\n      pop\n      jump\t// out\n        /* \"#utility.yul\":5112:5441   */\n    tag_43:\n        /* \"#utility.yul\":5171:5177   */\n      0x00\n        /* \"#utility.yul\":5220:5222   */\n      0x20\n        /* \"#utility.yul\":5208:5217   */\n      dup3\n        /* \"#utility.yul\":5199:5206   */\n      dup5\n        /* \"#utility.yul\":5195:5218   */\n      sub\n        /* \"#utility.yul\":5191:5223   */\n      slt\n        /* \"#utility.yul\":5188:5307   */\n      iszero\n      tag_337\n      jumpi\n        /* \"#utility.yul\":5226:5305   */\n      tag_338\n      tag_234\n      jump\t// in\n    tag_338:\n        /* \"#utility.yul\":5188:5307   */\n    tag_337:\n        /* \"#utility.yul\":5346:5347   */\n      0x00\n        /* \"#utility.yul\":5371:5424   */\n      tag_339\n        /* \"#utility.yul\":5416:5423   */\n      dup5\n        /* \"#utility.yul\":5407:5413   */\n      dup3\n        /* \"#utility.yul\":5396:5405   */\n      dup6\n        /* \"#utility.yul\":5392:5414   */\n      add\n        /* \"#utility.yul\":5371:5424   */\n      tag_247\n      jump\t// in\n    tag_339:\n        /* \"#utility.yul\":5361:5424   */\n      swap2\n      pop\n        /* \"#utility.yul\":5317:5434   */\n      pop\n        /* \"#utility.yul\":5112:5441   */\n      swap3\n      swap2\n      pop\n      pop\n      jump\t// out\n        /* \"#utility.yul\":5447:5562   */\n    tag_248:\n        /* \"#utility.yul\":5532:5555   */\n      tag_341\n        /* \"#utility.yul\":5549:5554   */\n      dup2\n        /* \"#utility.yul\":5532:5555   */\n      tag_236\n      jump\t// in\n    tag_341:\n        /* \"#utility.yul\":5527:5530   */\n      dup3\n        /* \"#utility.yul\":5520:5556   */\n      mstore\n        /* \"#utility.yul\":5447:5562   */\n      pop\n      pop\n      jump\t// out\n        /* \"#utility.yul\":5568:5786   */\n    tag_46:\n        /* \"#utility.yul\":5659:5663   */\n      0x00\n        /* \"#utility.yul\":5697:5699   */\n      0x20\n        /* \"#utility.yul\":5686:5695   */\n      dup3\n        /* \"#utility.yul\":5682:5700   */\n      add\n        /* \"#utility.yul\":5674:5700   */\n      swap1\n      pop\n        /* \"#utility.yul\":5710:5779   */\n      tag_343\n        /* \"#utility.yul\":5776:5777   */\n      0x00\n        /* \"#utility.yul\":5765:5774   */\n      dup4\n        /* \"#utility.yul\":5761:5778   */\n      add\n        /* \"#utility.yul\":5752:5758   */\n      dup5\n        /* \"#utility.yul\":5710:5779   */\n      tag_248\n      jump\t// in\n    tag_343:\n        /* \"#utility.yul\":5568:5786   */\n      swap3\n      swap2\n      pop\n      pop\n      jump\t// out\n        /* \"#utility.yul\":5792:5910   */\n    tag_249:\n        /* \"#utility.yul\":5879:5903   */\n      tag_345\n        /* \"#utility.yul\":5897:5902   */\n      dup2\n        /* \"#utility.yul\":5879:5903   */\n      tag_228\n      jump\t// in\n    tag_345:\n        /* \"#utility.yul\":5874:5877   */\n      dup3\n        /* \"#utility.yul\":5867:5904   */\n      mstore\n        /* \"#utility.yul\":5792:5910   */\n      pop\n      pop\n      jump\t// out\n        /* \"#utility.yul\":5916:6138   */\n    tag_51:\n        /* \"#utility.yul\":6009:6013   */\n      0x00\n        /* \"#utility.yul\":6047:6049   */\n      0x20\n        /* \"#utility.yul\":6036:6045   */\n      dup3\n        /* \"#utility.yul\":6032:6050   */\n      add\n        /* \"#utility.yul\":6024:6050   */\n      swap1\n      pop\n        /* \"#utility.yul\":6060:6131   */\n      tag_347\n        /* \"#utility.yul\":6128:6129   */\n      0x00\n        /* \"#utility.yul\":6117:6126   */\n      dup4\n        /* \"#utility.yul\":6113:6130   */\n      add\n        /* \"#utility.yul\":6104:6110   */\n      dup5\n        /* \"#utility.yul\":6060:6131   */\n      tag_249\n      jump\t// in\n    tag_347:\n        /* \"#utility.yul\":5916:6138   */\n      swap3\n      swap2\n      pop\n      pop\n      jump\t// out\n        /* \"#utility.yul\":6144:6248   */\n    tag_250:\n        /* \"#utility.yul\":6209:6215   */\n      0x00\n        /* \"#utility.yul\":6237:6241   */\n      0x04\n        /* \"#utility.yul\":6227:6241   */\n      swap1\n      pop\n        /* \"#utility.yul\":6144:6248   */\n      swap2\n      swap1\n      pop\n      jump\t// out\n        /* \"#utility.yul\":6254:6397   */\n    tag_251:\n        /* \"#utility.yul\":6351:6362   */\n      0x00\n        /* \"#utility.yul\":6388:6391   */\n      dup2\n        /* \"#utility.yul\":6373:6391   */\n      swap1\n      pop\n        /* \"#utility.yul\":6254:6397   */\n      swap3\n      swap2\n      pop\n      pop\n      jump\t// out\n        /* \"#utility.yul\":6403:6501   */\n    tag_252:\n        /* \"#utility.yul\":6468:6472   */\n      0x00\n        /* \"#utility.yul\":6491:6494   */\n      dup2\n        /* \"#utility.yul\":6483:6494   */\n      swap1\n      pop\n        /* \"#utility.yul\":6403:6501   */\n      swap2\n      swap1\n      pop\n      jump\t// out\n        /* \"#utility.yul\":6507:6618   */\n    tag_253:\n        /* \"#utility.yul\":6575:6579   */\n      0x00\n        /* \"#utility.yul\":6607:6611   */\n      0x20\n        /* \"#utility.yul\":6602:6605   */\n      dup3\n        /* \"#utility.yul\":6598:6612   */\n      add\n        /* \"#utility.yul\":6590:6612   */\n      swap1\n      pop\n        /* \"#utility.yul\":6507:6618   */\n      swap2\n      swap1\n      pop\n      jump\t// out\n        /* \"#utility.yul\":6656:7350   */\n    tag_254:\n        /* \"#utility.yul\":6792:6844   */\n      tag_353\n        /* \"#utility.yul\":6838:6843   */\n      dup2\n        /* \"#utility.yul\":6792:6844   */\n      tag_250\n      jump\t// in\n    tag_353:\n        /* \"#utility.yul\":6860:6944   */\n      tag_354\n        /* \"#utility.yul\":6937:6943   */\n      dup2\n        /* \"#utility.yul\":6932:6935   */\n      dup5\n        /* \"#utility.yul\":6860:6944   */\n      tag_251\n      jump\t// in\n    tag_354:\n        /* \"#utility.yul\":6853:6944   */\n      swap3\n      pop\n        /* \"#utility.yul\":6968:7022   */\n      tag_355\n        /* \"#utility.yul\":7016:7021   */\n      dup3\n        /* \"#utility.yul\":6968:7022   */\n      tag_252\n      jump\t// in\n    tag_355:\n        /* \"#utility.yul\":7045:7052   */\n      dup1\n        /* \"#utility.yul\":7076:7077   */\n      0x00\n        /* \"#utility.yul\":7061:7343   */\n    tag_356:\n        /* \"#utility.yul\":7086:7092   */\n      dup4\n        /* \"#utility.yul\":7083:7084   */\n      dup2\n        /* \"#utility.yul\":7080:7093   */\n      lt\n        /* \"#utility.yul\":7061:7343   */\n      iszero\n      tag_358\n      jumpi\n        /* \"#utility.yul\":7162:7168   */\n      dup2\n        /* \"#utility.yul\":7156:7169   */\n      mload\n        /* \"#utility.yul\":7189:7252   */\n      tag_359\n        /* \"#utility.yul\":7248:7251   */\n      dup8\n        /* \"#utility.yul\":7233:7246   */\n      dup3\n        /* \"#utility.yul\":7189:7252   */\n      tag_230\n      jump\t// in\n    tag_359:\n        /* \"#utility.yul\":7182:7252   */\n      swap7\n      pop\n        /* \"#utility.yul\":7275:7333   */\n      tag_360\n        /* \"#utility.yul\":7326:7332   */\n      dup4\n        /* \"#utility.yul\":7275:7333   */\n      tag_253\n      jump\t// in\n    tag_360:\n        /* \"#utility.yul\":7265:7333   */\n      swap3\n      pop\n        /* \"#utility.yul\":7121:7343   */\n      pop\n        /* \"#utility.yul\":7108:7109   */\n      0x01\n        /* \"#utility.yul\":7105:7106   */\n      dup2\n        /* \"#utility.yul\":7101:7110   */\n      add\n        /* \"#utility.yul\":7096:7110   */\n      swap1\n      pop\n        /* \"#utility.yul\":7061:7343   */\n      jump(tag_356)\n    tag_358:\n        /* \"#utility.yul\":7065:7079   */\n      pop\n        /* \"#utility.yul\":6768:7350   */\n      pop\n      pop\n      pop\n        /* \"#utility.yul\":6656:7350   */\n      pop\n      pop\n      jump\t// out\n        /* \"#utility.yul\":7356:7460   */\n    tag_255:\n        /* \"#utility.yul\":7421:7427   */\n      0x00\n        /* \"#utility.yul\":7449:7453   */\n      0x05\n        /* \"#utility.yul\":7439:7453   */\n      swap1\n      pop\n        /* \"#utility.yul\":7356:7460   */\n      swap2\n      swap1\n      pop\n      jump\t// out\n        /* \"#utility.yul\":7466:7609   */\n    tag_256:\n        /* \"#utility.yul\":7563:7574   */\n      0x00\n        /* \"#utility.yul\":7600:7603   */\n      dup2\n        /* \"#utility.yul\":7585:7603   */\n      swap1\n      pop\n        /* \"#utility.yul\":7466:7609   */\n      swap3\n      swap2\n      pop\n      pop\n      jump\t// out\n        /* \"#utility.yul\":7615:7713   */\n    tag_257:\n        /* \"#utility.yul\":7680:7684   */\n      0x00\n        /* \"#utility.yul\":7703:7706   */\n      dup2\n        /* \"#utility.yul\":7695:7706   */\n      swap1\n      pop\n        /* \"#utility.yul\":7615:7713   */\n      swap2\n      swap1\n      pop\n      jump\t// out\n        /* \"#utility.yul\":7719:7830   */\n    tag_258:\n        /* \"#utility.yul\":7787:7791   */\n      0x00\n        /* \"#utility.yul\":7819:7823   */\n      0x20\n        /* \"#utility.yul\":7814:7817   */\n      dup3\n        /* \"#utility.yul\":7810:7824   */\n      add\n        /* \"#utility.yul\":7802:7824   */\n      swap1\n      pop\n        /* \"#utility.yul\":7719:7830   */\n      swap2\n      swap1\n      pop\n      jump\t// out\n        /* \"#utility.yul\":7868:8562   */\n    tag_259:\n        /* \"#utility.yul\":8004:8056   */\n      tag_366\n        /* \"#utility.yul\":8050:8055   */\n      dup2\n        /* \"#utility.yul\":8004:8056   */\n      tag_255\n      jump\t// in\n    tag_366:\n        /* \"#utility.yul\":8072:8156   */\n      tag_367\n        /* \"#utility.yul\":8149:8155   */\n      dup2\n        /* \"#utility.yul\":8144:8147   */\n      dup5\n        /* \"#utility.yul\":8072:8156   */\n      tag_256\n      jump\t// in\n    tag_367:\n        /* \"#utility.yul\":8065:8156   */\n      swap3\n      pop\n        /* \"#utility.yul\":8180:8234   */\n      tag_368\n        /* \"#utility.yul\":8228:8233   */\n      dup3\n        /* \"#utility.yul\":8180:8234   */\n      tag_257\n      jump\t// in\n    tag_368:\n        /* \"#utility.yul\":8257:8264   */\n      dup1\n        /* \"#utility.yul\":8288:8289   */\n      0x00\n        /* \"#utility.yul\":8273:8555   */\n    tag_369:\n        /* \"#utility.yul\":8298:8304   */\n      dup4\n        /* \"#utility.yul\":8295:8296   */\n      dup2\n        /* \"#utility.yul\":8292:8305   */\n      lt\n        /* \"#utility.yul\":8273:8555   */\n      iszero\n      tag_371\n      jumpi\n        /* \"#utility.yul\":8374:8380   */\n      dup2\n        /* \"#utility.yul\":8368:8381   */\n      mload\n        /* \"#utility.yul\":8401:8464   */\n      tag_372\n        /* \"#utility.yul\":8460:8463   */\n      dup8\n        /* \"#utility.yul\":8445:8458   */\n      dup3\n        /* \"#utility.yul\":8401:8464   */\n      tag_230\n      jump\t// in\n    tag_372:\n        /* \"#utility.yul\":8394:8464   */\n      swap7\n      pop\n        /* \"#utility.yul\":8487:8545   */\n      tag_373\n        /* \"#utility.yul\":8538:8544   */\n      dup4\n        /* \"#utility.yul\":8487:8545   */\n      tag_258\n      jump\t// in\n    tag_373:\n        /* \"#utility.yul\":8477:8545   */\n      swap3\n      pop\n        /* \"#utility.yul\":8333:8555   */\n      pop\n        /* \"#utility.yul\":8320:8321   */\n      0x01\n        /* \"#utility.yul\":8317:8318   */\n      dup2\n        /* \"#utility.yul\":8313:8322   */\n      add\n        /* \"#utility.yul\":8308:8322   */\n      swap1\n      pop\n        /* \"#utility.yul\":8273:8555   */\n      jump(tag_369)\n    tag_371:\n        /* \"#utility.yul\":8277:8291   */\n      pop\n        /* \"#utility.yul\":7980:8562   */\n      pop\n      pop\n      pop\n        /* \"#utility.yul\":7868:8562   */\n      pop\n      pop\n      jump\t// out\n        /* \"#utility.yul\":8568:10424   */\n    tag_58:\n        /* \"#utility.yul\":9155:9159   */\n      0x00\n        /* \"#utility.yul\":9193:9196   */\n      0x0220\n        /* \"#utility.yul\":9182:9191   */\n      dup3\n        /* \"#utility.yul\":9178:9197   */\n      add\n        /* \"#utility.yul\":9170:9197   */\n      swap1\n      pop\n        /* \"#utility.yul\":9243:9252   */\n      dup2\n        /* \"#utility.yul\":9237:9241   */\n      dup2\n        /* \"#utility.yul\":9233:9253   */\n      sub\n        /* \"#utility.yul\":9229:9230   */\n      0x00\n        /* \"#utility.yul\":9218:9227   */\n      dup4\n        /* \"#utility.yul\":9214:9231   */\n      add\n        /* \"#utility.yul\":9207:9254   */\n      mstore\n        /* \"#utility.yul\":9271:9379   */\n      tag_375\n        /* \"#utility.yul\":9374:9378   */\n      dup2\n        /* \"#utility.yul\":9365:9371   */\n      dup14\n        /* \"#utility.yul\":9271:9379   */\n      tag_232\n      jump\t// in\n    tag_375:\n        /* \"#utility.yul\":9263:9379   */\n      swap1\n      pop\n        /* \"#utility.yul\":9389:9461   */\n      tag_376\n        /* \"#utility.yul\":9457:9459   */\n      0x20\n        /* \"#utility.yul\":9446:9455   */\n      dup4\n        /* \"#utility.yul\":9442:9460   */\n      add\n        /* \"#utility.yul\":9433:9439   */\n      dup13\n        /* \"#utility.yul\":9389:9461   */\n      tag_249\n      jump\t// in\n    tag_376:\n        /* \"#utility.yul\":9508:9517   */\n      dup2\n        /* \"#utility.yul\":9502:9506   */\n      dup2\n        /* \"#utility.yul\":9498:9518   */\n      sub\n        /* \"#utility.yul\":9493:9495   */\n      0x40\n        /* \"#utility.yul\":9482:9491   */\n      dup4\n        /* \"#utility.yul\":9478:9496   */\n      add\n        /* \"#utility.yul\":9471:9519   */\n      mstore\n        /* \"#utility.yul\":9536:9644   */\n      tag_377\n        /* \"#utility.yul\":9639:9643   */\n      dup2\n        /* \"#utility.yul\":9630:9636   */\n      dup12\n        /* \"#utility.yul\":9536:9644   */\n      tag_232\n      jump\t// in\n    tag_377:\n        /* \"#utility.yul\":9528:9644   */\n      swap1\n      pop\n        /* \"#utility.yul\":9654:9726   */\n      tag_378\n        /* \"#utility.yul\":9722:9724   */\n      0x60\n        /* \"#utility.yul\":9711:9720   */\n      dup4\n        /* \"#utility.yul\":9707:9725   */\n      add\n        /* \"#utility.yul\":9698:9704   */\n      dup11\n        /* \"#utility.yul\":9654:9726   */\n      tag_249\n      jump\t// in\n    tag_378:\n        /* \"#utility.yul\":9774:9783   */\n      dup2\n        /* \"#utility.yul\":9768:9772   */\n      dup2\n        /* \"#utility.yul\":9764:9784   */\n      sub\n        /* \"#utility.yul\":9758:9761   */\n      0x80\n        /* \"#utility.yul\":9747:9756   */\n      dup4\n        /* \"#utility.yul\":9743:9762   */\n      add\n        /* \"#utility.yul\":9736:9785   */\n      mstore\n        /* \"#utility.yul\":9802:9910   */\n      tag_379\n        /* \"#utility.yul\":9905:9909   */\n      dup2\n        /* \"#utility.yul\":9896:9902   */\n      dup10\n        /* \"#utility.yul\":9802:9910   */\n      tag_232\n      jump\t// in\n    tag_379:\n        /* \"#utility.yul\":9794:9910   */\n      swap1\n      pop\n        /* \"#utility.yul\":9920:9993   */\n      tag_380\n        /* \"#utility.yul\":9988:9991   */\n      0xa0\n        /* \"#utility.yul\":9977:9986   */\n      dup4\n        /* \"#utility.yul\":9973:9992   */\n      add\n        /* \"#utility.yul\":9964:9970   */\n      dup9\n        /* \"#utility.yul\":9920:9993   */\n      tag_249\n      jump\t// in\n    tag_380:\n        /* \"#utility.yul\":10003:10122   */\n      tag_381\n        /* \"#utility.yul\":10117:10120   */\n      0xc0\n        /* \"#utility.yul\":10106:10115   */\n      dup4\n        /* \"#utility.yul\":10102:10121   */\n      add\n        /* \"#utility.yul\":10093:10099   */\n      dup8\n        /* \"#utility.yul\":10003:10122   */\n      tag_254\n      jump\t// in\n    tag_381:\n        /* \"#utility.yul\":10132:10205   */\n      tag_382\n        /* \"#utility.yul\":10200:10203   */\n      0x0140\n        /* \"#utility.yul\":10189:10198   */\n      dup4\n        /* \"#utility.yul\":10185:10204   */\n      add\n        /* \"#utility.yul\":10176:10182   */\n      dup7\n        /* \"#utility.yul\":10132:10205   */\n      tag_249\n      jump\t// in\n    tag_382:\n        /* \"#utility.yul\":10215:10334   */\n      tag_383\n        /* \"#utility.yul\":10329:10332   */\n      0x0160\n        /* \"#utility.yul\":10318:10327   */\n      dup4\n        /* \"#utility.yul\":10314:10333   */\n      add\n        /* \"#utility.yul\":10305:10311   */\n      dup6\n        /* \"#utility.yul\":10215:10334   */\n      tag_259\n      jump\t// in\n    tag_383:\n        /* \"#utility.yul\":10344:10417   */\n      tag_384\n        /* \"#utility.yul\":10412:10415   */\n      0x0200\n        /* \"#utility.yul\":10401:10410   */\n      dup4\n        /* \"#utility.yul\":10397:10416   */\n      add\n        /* \"#utility.yul\":10388:10394   */\n      dup5\n        /* \"#utility.yul\":10344:10417   */\n      tag_249\n      jump\t// in\n    tag_384:\n        /* \"#utility.yul\":8568:10424   */\n      swap12\n      swap11\n      pop\n      pop\n      pop\n      pop\n      pop\n      pop\n      pop\n      pop\n      pop\n      pop\n      pop\n      jump\t// out\n        /* \"#utility.yul\":10430:10547   */\n    tag_260:\n        /* \"#utility.yul\":10539:10540   */\n      0x00\n        /* \"#utility.yul\":10536:10537   */\n      dup1\n        /* \"#utility.yul\":10529:10541   */\n      revert\n        /* \"#utility.yul\":10553:10670   */\n    tag_261:\n        /* \"#utility.yul\":10662:10663   */\n      0x00\n        /* \"#utility.yul\":10659:10660   */\n      dup1\n        /* \"#utility.yul\":10652:10664   */\n      revert\n        /* \"#utility.yul\":10676:10793   */\n    tag_262:\n        /* \"#utility.yul\":10785:10786   */\n      0x00\n        /* \"#utility.yul\":10782:10783   */\n      dup1\n        /* \"#utility.yul\":10775:10787   */\n      revert\n        /* \"#utility.yul\":10812:11364   */\n    tag_263:\n        /* \"#utility.yul\":10869:10877   */\n      0x00\n        /* \"#utility.yul\":10879:10885   */\n      dup1\n        /* \"#utility.yul\":10929:10932   */\n      dup4\n        /* \"#utility.yul\":10922:10926   */\n      0x1f\n        /* \"#utility.yul\":10914:10920   */\n      dup5\n        /* \"#utility.yul\":10910:10927   */\n      add\n        /* \"#utility.yul\":10906:10933   */\n      slt\n        /* \"#utility.yul\":10896:11018   */\n      tag_389\n      jumpi\n        /* \"#utility.yul\":10937:11016   */\n      tag_390\n      tag_260\n      jump\t// in\n    tag_390:\n        /* \"#utility.yul\":10896:11018   */\n    tag_389:\n        /* \"#utility.yul\":11050:11056   */\n      dup3\n        /* \"#utility.yul\":11037:11057   */\n      calldataload\n        /* \"#utility.yul\":11027:11057   */\n      swap1\n      pop\n        /* \"#utility.yul\":11080:11098   */\n      0xffffffffffffffff\n        /* \"#utility.yul\":11072:11078   */\n      dup2\n        /* \"#utility.yul\":11069:11099   */\n      gt\n        /* \"#utility.yul\":11066:11183   */\n      iszero\n      tag_391\n      jumpi\n        /* \"#utility.yul\":11102:11181   */\n      tag_392\n      tag_261\n      jump\t// in\n    tag_392:\n        /* \"#utility.yul\":11066:11183   */\n    tag_391:\n        /* \"#utility.yul\":11216:11220   */\n      0x20\n        /* \"#utility.yul\":11208:11214   */\n      dup4\n        /* \"#utility.yul\":11204:11221   */\n      add\n        /* \"#utility.yul\":11192:11221   */\n      swap2\n      pop\n        /* \"#utility.yul\":11270:11273   */\n      dup4\n        /* \"#utility.yul\":11262:11266   */\n      0x01\n        /* \"#utility.yul\":11254:11260   */\n      dup3\n        /* \"#utility.yul\":11250:11267   */\n      mul\n        /* \"#utility.yul\":11240:11248   */\n      dup4\n        /* \"#utility.yul\":11236:11268   */\n      add\n        /* \"#utility.yul\":11233:11274   */\n      gt\n        /* \"#utility.yul\":11230:11358   */\n      iszero\n      tag_393\n      jumpi\n        /* \"#utility.yul\":11277:11356   */\n      tag_394\n      tag_262\n      jump\t// in\n    tag_394:\n        /* \"#utility.yul\":11230:11358   */\n    tag_393:\n        /* \"#utility.yul\":10812:11364   */\n      swap3\n      pop\n      swap3\n      swap1\n      pop\n      jump\t// out\n        /* \"#utility.yul\":11370:12187   */\n    tag_73:\n        /* \"#utility.yul\":11458:11464   */\n      0x00\n        /* \"#utility.yul\":11466:11472   */\n      dup1\n        /* \"#utility.yul\":11474:11480   */\n      0x00\n        /* \"#utility.yul\":11482:11488   */\n      dup1\n        /* \"#utility.yul\":11531:11533   */\n      0x60\n        /* \"#utility.yul\":11519:11528   */\n      dup6\n        /* \"#utility.yul\":11510:11517   */\n      dup8\n        /* \"#utility.yul\":11506:11529   */\n      sub\n        /* \"#utility.yul\":11502:11534   */\n      slt\n        /* \"#utility.yul\":11499:11618   */\n      iszero\n      tag_396\n      jumpi\n        /* \"#utility.yul\":11537:11616   */\n      tag_397\n      tag_234\n      jump\t// in\n    tag_397:\n        /* \"#utility.yul\":11499:11618   */\n    tag_396:\n        /* \"#utility.yul\":11685:11686   */\n      0x00\n        /* \"#utility.yul\":11674:11683   */\n      dup6\n        /* \"#utility.yul\":11670:11687   */\n      add\n        /* \"#utility.yul\":11657:11688   */\n      calldataload\n        /* \"#utility.yul\":11715:11733   */\n      0xffffffffffffffff\n        /* \"#utility.yul\":11707:11713   */\n      dup2\n        /* \"#utility.yul\":11704:11734   */\n      gt\n        /* \"#utility.yul\":11701:11818   */\n      iszero\n      tag_398\n      jumpi\n        /* \"#utility.yul\":11737:11816   */\n      tag_399\n      tag_235\n      jump\t// in\n    tag_399:\n        /* \"#utility.yul\":11701:11818   */\n    tag_398:\n        /* \"#utility.yul\":11850:11914   */\n      tag_400\n        /* \"#utility.yul\":11906:11913   */\n      dup8\n        /* \"#utility.yul\":11897:11903   */\n      dup3\n        /* \"#utility.yul\":11886:11895   */\n      dup9\n        /* \"#utility.yul\":11882:11904   */\n      add\n        /* \"#utility.yul\":11850:11914   */\n      tag_263\n      jump\t// in\n    tag_400:\n        /* \"#utility.yul\":11832:11914   */\n      swap5\n      pop\n      swap5\n      pop\n        /* \"#utility.yul\":11628:11924   */\n      pop\n        /* \"#utility.yul\":11963:11965   */\n      0x20\n        /* \"#utility.yul\":11989:12042   */\n      tag_401\n        /* \"#utility.yul\":12034:12041   */\n      dup8\n        /* \"#utility.yul\":12025:12031   */\n      dup3\n        /* \"#utility.yul\":12014:12023   */\n      dup9\n        /* \"#utility.yul\":12010:12032   */\n      add\n        /* \"#utility.yul\":11989:12042   */\n      tag_247\n      jump\t// in\n    tag_401:\n        /* \"#utility.yul\":11979:12042   */\n      swap3\n      pop\n        /* \"#utility.yul\":11934:12052   */\n      pop\n        /* \"#utility.yul\":12091:12093   */\n      0x40\n        /* \"#utility.yul\":12117:12170   */\n      tag_402\n        /* \"#utility.yul\":12162:12169   */\n      dup8\n        /* \"#utility.yul\":12153:12159   */\n      dup3\n        /* \"#utility.yul\":12142:12151   */\n      dup9\n        /* \"#utility.yul\":12138:12160   */\n      add\n        /* \"#utility.yul\":12117:12170   */\n      tag_247\n      jump\t// in\n    tag_402:\n        /* \"#utility.yul\":12107:12170   */\n      swap2\n      pop\n        /* \"#utility.yul\":12062:12180   */\n      pop\n        /* \"#utility.yul\":11370:12187   */\n      swap3\n      swap6\n      swap2\n      swap5\n      pop\n      swap3\n      pop\n      jump\t// out\n        /* \"#utility.yul\":12193:12297   */\n    tag_264:\n        /* \"#utility.yul\":12258:12264   */\n      0x00\n        /* \"#utility.yul\":12286:12290   */\n      0x03\n        /* \"#utility.yul\":12276:12290   */\n      swap1\n      pop\n        /* \"#utility.yul\":12193:12297   */\n      swap2\n      swap1\n      pop\n      jump\t// out\n        /* \"#utility.yul\":12303:12446   */\n    tag_265:\n        /* \"#utility.yul\":12400:12411   */\n      0x00\n        /* \"#utility.yul\":12437:12440   */\n      dup2\n        /* \"#utility.yul\":12422:12440   */\n      swap1\n      pop\n        /* \"#utility.yul\":12303:12446   */\n      swap3\n      swap2\n      pop\n      pop\n      jump\t// out\n        /* \"#utility.yul\":12452:12550   */\n    tag_266:\n        /* \"#utility.yul\":12517:12521   */\n      0x00\n        /* \"#utility.yul\":12540:12543   */\n      dup2\n        /* \"#utility.yul\":12532:12543   */\n      swap1\n      pop\n        /* \"#utility.yul\":12452:12550   */\n      swap2\n      swap1\n      pop\n      jump\t// out\n        /* \"#utility.yul\":12556:12667   */\n    tag_267:\n        /* \"#utility.yul\":12624:12628   */\n      0x00\n        /* \"#utility.yul\":12656:12660   */\n      0x20\n        /* \"#utility.yul\":12651:12654   */\n      dup3\n        /* \"#utility.yul\":12647:12661   */\n      add\n        /* \"#utility.yul\":12639:12661   */\n      swap1\n      pop\n        /* \"#utility.yul\":12556:12667   */\n      swap2\n      swap1\n      pop\n      jump\t// out\n        /* \"#utility.yul\":12705:13399   */\n    tag_268:\n        /* \"#utility.yul\":12841:12893   */\n      tag_408\n        /* \"#utility.yul\":12887:12892   */\n      dup2\n        /* \"#utility.yul\":12841:12893   */\n      tag_264\n      jump\t// in\n    tag_408:\n        /* \"#utility.yul\":12909:12993   */\n      tag_409\n        /* \"#utility.yul\":12986:12992   */\n      dup2\n        /* \"#utility.yul\":12981:12984   */\n      dup5\n        /* \"#utility.yul\":12909:12993   */\n      tag_265\n      jump\t// in\n    tag_409:\n        /* \"#utility.yul\":12902:12993   */\n      swap3\n      pop\n        /* \"#utility.yul\":13017:13071   */\n      tag_410\n        /* \"#utility.yul\":13065:13070   */\n      dup3\n        /* \"#utility.yul\":13017:13071   */\n      tag_266\n      jump\t// in\n    tag_410:\n        /* \"#utility.yul\":13094:13101   */\n      dup1\n        /* \"#utility.yul\":13125:13126   */\n      0x00\n        /* \"#utility.yul\":13110:13392   */\n    tag_411:\n        /* \"#utility.yul\":13135:13141   */\n      dup4\n        /* \"#utility.yul\":13132:13133   */\n      dup2\n        /* \"#utility.yul\":13129:13142   */\n      lt\n        /* \"#utility.yul\":13110:13392   */\n      iszero\n      tag_413\n      jumpi\n        /* \"#utility.yul\":13211:13217   */\n      dup2\n        /* \"#utility.yul\":13205:13218   */\n      mload\n        /* \"#utility.yul\":13238:13301   */\n      tag_414\n        /* \"#utility.yul\":13297:13300   */\n      dup8\n        /* \"#utility.yul\":13282:13295   */\n      dup3\n        /* \"#utility.yul\":13238:13301   */\n      tag_230\n      jump\t// in\n    tag_414:\n        /* \"#utility.yul\":13231:13301   */\n      swap7\n      pop\n        /* \"#utility.yul\":13324:13382   */\n      tag_415\n        /* \"#utility.yul\":13375:13381   */\n      dup4\n        /* \"#utility.yul\":13324:13382   */\n      tag_267\n      jump\t// in\n    tag_415:\n        /* \"#utility.yul\":13314:13382   */\n      swap3\n      pop\n        /* \"#utility.yul\":13170:13392   */\n      pop\n        /* \"#utility.yul\":13157:13158   */\n      0x01\n        /* \"#utility.yul\":13154:13155   */\n      dup2\n        /* \"#utility.yul\":13150:13159   */\n      add\n        /* \"#utility.yul\":13145:13159   */\n      swap1\n      pop\n        /* \"#utility.yul\":13110:13392   */\n      jump(tag_411)\n    tag_413:\n        /* \"#utility.yul\":13114:13128   */\n      pop\n        /* \"#utility.yul\":12817:13399   */\n      pop\n      pop\n      pop\n        /* \"#utility.yul\":12705:13399   */\n      pop\n      pop\n      jump\t// out\n        /* \"#utility.yul\":13405:13719   */\n    tag_83:\n        /* \"#utility.yul\":13544:13548   */\n      0x00\n        /* \"#utility.yul\":13582:13584   */\n      0x60\n        /* \"#utility.yul\":13571:13580   */\n      dup3\n        /* \"#utility.yul\":13567:13585   */\n      add\n        /* \"#utility.yul\":13559:13585   */\n      swap1\n      pop\n        /* \"#utility.yul\":13595:13712   */\n      tag_417\n        /* \"#utility.yul\":13709:13710   */\n      0x00\n        /* \"#utility.yul\":13698:13707   */\n      dup4\n        /* \"#utility.yul\":13694:13711   */\n      add\n        /* \"#utility.yul\":13685:13691   */\n      dup5\n        /* \"#utility.yul\":13595:13712   */\n      tag_268\n      jump\t// in\n    tag_417:\n        /* \"#utility.yul\":13405:13719   */\n      swap3\n      swap2\n      pop\n      pop\n      jump\t// out\n        /* \"#utility.yul\":13725:13824   */\n    tag_269:\n        /* \"#utility.yul\":13777:13783   */\n      0x00\n        /* \"#utility.yul\":13811:13816   */\n      dup2\n        /* \"#utility.yul\":13805:13817   */\n      mload\n        /* \"#utility.yul\":13795:13817   */\n      swap1\n      pop\n        /* \"#utility.yul\":13725:13824   */\n      swap2\n      swap1\n      pop\n      jump\t// out\n        /* \"#utility.yul\":13830:13999   */\n    tag_270:\n        /* \"#utility.yul\":13914:13925   */\n      0x00\n        /* \"#utility.yul\":13948:13954   */\n      dup3\n        /* \"#utility.yul\":13943:13946   */\n      dup3\n        /* \"#utility.yul\":13936:13955   */\n      mstore\n        /* \"#utility.yul\":13988:13992   */\n      0x20\n        /* \"#utility.yul\":13983:13986   */\n      dup3\n        /* \"#utility.yul\":13979:13993   */\n      add\n        /* \"#utility.yul\":13964:13993   */\n      swap1\n      pop\n        /* \"#utility.yul\":13830:13999   */\n      swap3\n      swap2\n      pop\n      pop\n      jump\t// out\n        /* \"#utility.yul\":14005:14382   */\n    tag_271:\n        /* \"#utility.yul\":14093:14096   */\n      0x00\n        /* \"#utility.yul\":14121:14160   */\n      tag_421\n        /* \"#utility.yul\":14154:14159   */\n      dup3\n        /* \"#utility.yul\":14121:14160   */\n      tag_269\n      jump\t// in\n    tag_421:\n        /* \"#utility.yul\":14176:14247   */\n      tag_422\n        /* \"#utility.yul\":14240:14246   */\n      dup2\n        /* \"#utility.yul\":14235:14238   */\n      dup6\n        /* \"#utility.yul\":14176:14247   */\n      tag_270\n      jump\t// in\n    tag_422:\n        /* \"#utility.yul\":14169:14247   */\n      swap4\n      pop\n        /* \"#utility.yul\":14256:14321   */\n      tag_423\n        /* \"#utility.yul\":14314:14320   */\n      dup2\n        /* \"#utility.yul\":14309:14312   */\n      dup6\n        /* \"#utility.yul\":14302:14306   */\n      0x20\n        /* \"#utility.yul\":14295:14300   */\n      dup7\n        /* \"#utility.yul\":14291:14307   */\n      add\n        /* \"#utility.yul\":14256:14321   */\n      tag_243\n      jump\t// in\n    tag_423:\n        /* \"#utility.yul\":14346:14375   */\n      tag_424\n        /* \"#utility.yul\":14368:14374   */\n      dup2\n        /* \"#utility.yul\":14346:14375   */\n      tag_244\n      jump\t// in\n    tag_424:\n        /* \"#utility.yul\":14341:14344   */\n      dup5\n        /* \"#utility.yul\":14337:14376   */\n      add\n        /* \"#utility.yul\":14330:14376   */\n      swap2\n      pop\n        /* \"#utility.yul\":14097:14382   */\n      pop\n        /* \"#utility.yul\":14005:14382   */\n      swap3\n      swap2\n      pop\n      pop\n      jump\t// out\n        /* \"#utility.yul\":14388:14701   */\n    tag_97:\n        /* \"#utility.yul\":14501:14505   */\n      0x00\n        /* \"#utility.yul\":14539:14541   */\n      0x20\n        /* \"#utility.yul\":14528:14537   */\n      dup3\n        /* \"#utility.yul\":14524:14542   */\n      add\n        /* \"#utility.yul\":14516:14542   */\n      swap1\n      pop\n        /* \"#utility.yul\":14588:14597   */\n      dup2\n        /* \"#utility.yul\":14582:14586   */\n      dup2\n        /* \"#utility.yul\":14578:14598   */\n      sub\n        /* \"#utility.yul\":14574:14575   */\n      0x00\n        /* \"#utility.yul\":14563:14572   */\n      dup4\n        /* \"#utility.yul\":14559:14576   */\n      add\n        /* \"#utility.yul\":14552:14599   */\n      mstore\n        /* \"#utility.yul\":14616:14694   */\n      tag_426\n        /* \"#utility.yul\":14689:14693   */\n      dup2\n        /* \"#utility.yul\":14680:14686   */\n      dup5\n        /* \"#utility.yul\":14616:14694   */\n      tag_271\n      jump\t// in\n    tag_426:\n        /* \"#utility.yul\":14608:14694   */\n      swap1\n      pop\n        /* \"#utility.yul\":14388:14701   */\n      swap3\n      swap2\n      pop\n      pop\n      jump\t// out\n        /* \"#utility.yul\":14707:14812   */\n    tag_272:\n        /* \"#utility.yul\":14773:14779   */\n      0x00\n        /* \"#utility.yul\":14801:14805   */\n      0x0a\n        /* \"#utility.yul\":14791:14805   */\n      swap1\n      pop\n        /* \"#utility.yul\":14707:14812   */\n      swap2\n      swap1\n      pop\n      jump\t// out\n        /* \"#utility.yul\":14818:14962   */\n    tag_273:\n        /* \"#utility.yul\":14916:14927   */\n      0x00\n        /* \"#utility.yul\":14953:14956   */\n      dup2\n        /* \"#utility.yul\":14938:14956   */\n      swap1\n      pop\n        /* \"#utility.yul\":14818:14962   */\n      swap3\n      swap2\n      pop\n      pop\n      jump\t// out\n        /* \"#utility.yul\":14968:15067   */\n    tag_274:\n        /* \"#utility.yul\":15034:15038   */\n      0x00\n        /* \"#utility.yul\":15057:15060   */\n      dup2\n        /* \"#utility.yul\":15049:15060   */\n      swap1\n      pop\n        /* \"#utility.yul\":14968:15067   */\n      swap2\n      swap1\n      pop\n      jump\t// out\n        /* \"#utility.yul\":15073:15185   */\n    tag_275:\n        /* \"#utility.yul\":15142:15146   */\n      0x00\n        /* \"#utility.yul\":15174:15178   */\n      0x20\n        /* \"#utility.yul\":15169:15172   */\n      dup3\n        /* \"#utility.yul\":15165:15179   */\n      add\n        /* \"#utility.yul\":15157:15179   */\n      swap1\n      pop\n        /* \"#utility.yul\":15073:15185   */\n      swap2\n      swap1\n      pop\n      jump\t// out\n        /* \"#utility.yul\":15225:15925   */\n    tag_276:\n        /* \"#utility.yul\":15363:15416   */\n      tag_432\n        /* \"#utility.yul\":15410:15415   */\n      dup2\n        /* \"#utility.yul\":15363:15416   */\n      tag_272\n      jump\t// in\n    tag_432:\n        /* \"#utility.yul\":15432:15517   */\n      tag_433\n        /* \"#utility.yul\":15510:15516   */\n      dup2\n        /* \"#utility.yul\":15505:15508   */\n      dup5\n        /* \"#utility.yul\":15432:15517   */\n      tag_273\n      jump\t// in\n    tag_433:\n        /* \"#utility.yul\":15425:15517   */\n      swap3\n      pop\n        /* \"#utility.yul\":15541:15596   */\n      tag_434\n        /* \"#utility.yul\":15590:15595   */\n      dup3\n        /* \"#utility.yul\":15541:15596   */\n      tag_274\n      jump\t// in\n    tag_434:\n        /* \"#utility.yul\":15619:15626   */\n      dup1\n        /* \"#utility.yul\":15650:15651   */\n      0x00\n        /* \"#utility.yul\":15635:15918   */\n    tag_435:\n        /* \"#utility.yul\":15660:15666   */\n      dup4\n        /* \"#utility.yul\":15657:15658   */\n      dup2\n        /* \"#utility.yul\":15654:15667   */\n      lt\n        /* \"#utility.yul\":15635:15918   */\n      iszero\n      tag_437\n      jumpi\n        /* \"#utility.yul\":15736:15742   */\n      dup2\n        /* \"#utility.yul\":15730:15743   */\n      mload\n        /* \"#utility.yul\":15763:15826   */\n      tag_438\n        /* \"#utility.yul\":15822:15825   */\n      dup8\n        /* \"#utility.yul\":15807:15820   */\n      dup3\n        /* \"#utility.yul\":15763:15826   */\n      tag_230\n      jump\t// in\n    tag_438:\n        /* \"#utility.yul\":15756:15826   */\n      swap7\n      pop\n        /* \"#utility.yul\":15849:15908   */\n      tag_439\n        /* \"#utility.yul\":15901:15907   */\n      dup4\n        /* \"#utility.yul\":15849:15908   */\n      tag_275\n      jump\t// in\n    tag_439:\n        /* \"#utility.yul\":15839:15908   */\n      swap3\n      pop\n        /* \"#utility.yul\":15695:15918   */\n      pop\n        /* \"#utility.yul\":15682:15683   */\n      0x01\n        /* \"#utility.yul\":15679:15680   */\n      dup2\n        /* \"#utility.yul\":15675:15684   */\n      add\n        /* \"#utility.yul\":15670:15684   */\n      swap1\n      pop\n        /* \"#utility.yul\":15635:15918   */\n      jump(tag_435)\n    tag_437:\n        /* \"#utility.yul\":15639:15653   */\n      pop\n        /* \"#utility.yul\":15339:15925   */\n      pop\n      pop\n      pop\n        /* \"#utility.yul\":15225:15925   */\n      pop\n      pop\n      jump\t// out\n        /* \"#utility.yul\":15931:16250   */\n    tag_101:\n        /* \"#utility.yul\":16072:16076   */\n      0x00\n        /* \"#utility.yul\":16110:16113   */\n      0x0140\n        /* \"#utility.yul\":16099:16108   */\n      dup3\n        /* \"#utility.yul\":16095:16114   */\n      add\n        /* \"#utility.yul\":16087:16114   */\n      swap1\n      pop\n        /* \"#utility.yul\":16124:16243   */\n      tag_441\n        /* \"#utility.yul\":16240:16241   */\n      0x00\n        /* \"#utility.yul\":16229:16238   */\n      dup4\n        /* \"#utility.yul\":16225:16242   */\n      add\n        /* \"#utility.yul\":16216:16222   */\n      dup5\n        /* \"#utility.yul\":16124:16243   */\n      tag_276\n      jump\t// in\n    tag_441:\n        /* \"#utility.yul\":15931:16250   */\n      swap3\n      swap2\n      pop\n      pop\n      jump\t// out\n        /* \"#utility.yul\":16256:16436   */\n    tag_116:\n        /* \"#utility.yul\":16304:16381   */\n      0x4e487b7100000000000000000000000000000000000000000000000000000000\n        /* \"#utility.yul\":16301:16302   */\n      0x00\n        /* \"#utility.yul\":16294:16382   */\n      mstore\n        /* \"#utility.yul\":16401:16405   */\n      0x31\n        /* \"#utility.yul\":16398:16399   */\n      0x04\n        /* \"#utility.yul\":16391:16406   */\n      mstore\n        /* \"#utility.yul\":16425:16429   */\n      0x24\n        /* \"#utility.yul\":16422:16423   */\n      0x00\n        /* \"#utility.yul\":16415:16430   */\n      revert\n        /* \"#utility.yul\":16442:16622   */\n    tag_277:\n        /* \"#utility.yul\":16490:16567   */\n      0x4e487b7100000000000000000000000000000000000000000000000000000000\n        /* \"#utility.yul\":16487:16488   */\n      0x00\n        /* \"#utility.yul\":16480:16568   */\n      mstore\n        /* \"#utility.yul\":16587:16591   */\n      0x22\n        /* \"#utility.yul\":16584:16585   */\n      0x04\n        /* \"#utility.yul\":16577:16592   */\n      mstore\n        /* \"#utility.yul\":16611:16615   */\n      0x24\n        /* \"#utility.yul\":16608:16609   */\n      0x00\n        /* \"#utility.yul\":16601:16616   */\n      revert\n        /* \"#utility.yul\":16628:16948   */\n    tag_125:\n        /* \"#utility.yul\":16672:16678   */\n      0x00\n        /* \"#utility.yul\":16709:16710   */\n      0x02\n        /* \"#utility.yul\":16703:16707   */\n      dup3\n        /* \"#utility.yul\":16699:16711   */\n      div\n        /* \"#utility.yul\":16689:16711   */\n      swap1\n      pop\n        /* \"#utility.yul\":16756:16757   */\n      0x01\n        /* \"#utility.yul\":16750:16754   */\n      dup3\n        /* \"#utility.yul\":16746:16758   */\n      and\n        /* \"#utility.yul\":16777:16795   */\n      dup1\n        /* \"#utility.yul\":16767:16848   */\n      tag_445\n      jumpi\n        /* \"#utility.yul\":16833:16837   */\n      0x7f\n        /* \"#utility.yul\":16825:16831   */\n      dup3\n        /* \"#utility.yul\":16821:16838   */\n      and\n        /* \"#utility.yul\":16811:16838   */\n      swap2\n      pop\n        /* \"#utility.yul\":16767:16848   */\n    tag_445:\n        /* \"#utility.yul\":16895:16897   */\n      0x20\n        /* \"#utility.yul\":16887:16893   */\n      dup3\n        /* \"#utility.yul\":16884:16898   */\n      lt\n        /* \"#utility.yul\":16864:16882   */\n      dup2\n        /* \"#utility.yul\":16861:16899   */\n      sub\n        /* \"#utility.yul\":16858:16942   */\n      tag_446\n      jumpi\n        /* \"#utility.yul\":16914:16932   */\n      tag_447\n      tag_277\n      jump\t// in\n    tag_447:\n        /* \"#utility.yul\":16858:16942   */\n    tag_446:\n        /* \"#utility.yul\":16679:16948   */\n      pop\n        /* \"#utility.yul\":16628:16948   */\n      swap2\n      swap1\n      pop\n      jump\t// out\n        /* \"#utility.yul\":16954:17134   */\n    tag_129:\n        /* \"#utility.yul\":17002:17079   */\n      0x4e487b7100000000000000000000000000000000000000000000000000000000\n        /* \"#utility.yul\":16999:17000   */\n      0x00\n        /* \"#utility.yul\":16992:17080   */\n      mstore\n        /* \"#utility.yul\":17099:17103   */\n      0x32\n        /* \"#utility.yul\":17096:17097   */\n      0x04\n        /* \"#utility.yul\":17089:17104   */\n      mstore\n        /* \"#utility.yul\":17123:17127   */\n      0x24\n        /* \"#utility.yul\":17120:17121   */\n      0x00\n        /* \"#utility.yul\":17113:17128   */\n      revert\n        /* \"#utility.yul\":17140:17257   */\n    tag_278:\n        /* \"#utility.yul\":17249:17250   */\n      0x00\n        /* \"#utility.yul\":17246:17247   */\n      dup1\n        /* \"#utility.yul\":17239:17251   */\n      revert\n        /* \"#utility.yul\":17263:17380   */\n    tag_279:\n        /* \"#utility.yul\":17372:17373   */\n      0x00\n        /* \"#utility.yul\":17369:17370   */\n      dup1\n        /* \"#utility.yul\":17362:17374   */\n      revert\n        /* \"#utility.yul\":17386:17855   */\n    tag_172:\n        /* \"#utility.yul\":17491:17500   */\n      0x00\n        /* \"#utility.yul\":17502:17511   */\n      dup1\n        /* \"#utility.yul\":17540:17548   */\n      dup6\n        /* \"#utility.yul\":17528:17538   */\n      dup6\n        /* \"#utility.yul\":17525:17549   */\n      gt\n        /* \"#utility.yul\":17522:17633   */\n      iszero\n      tag_452\n      jumpi\n        /* \"#utility.yul\":17552:17631   */\n      tag_453\n      tag_278\n      jump\t// in\n    tag_453:\n        /* \"#utility.yul\":17522:17633   */\n    tag_452:\n        /* \"#utility.yul\":17658:17664   */\n      dup4\n        /* \"#utility.yul\":17648:17656   */\n      dup7\n        /* \"#utility.yul\":17645:17665   */\n      gt\n        /* \"#utility.yul\":17642:17749   */\n      iszero\n      tag_454\n      jumpi\n        /* \"#utility.yul\":17668:17747   */\n      tag_455\n      tag_279\n      jump\t// in\n    tag_455:\n        /* \"#utility.yul\":17642:17749   */\n    tag_454:\n        /* \"#utility.yul\":17799:17800   */\n      0x01\n        /* \"#utility.yul\":17787:17797   */\n      dup6\n        /* \"#utility.yul\":17783:17801   */\n      mul\n        /* \"#utility.yul\":17775:17781   */\n      dup4\n        /* \"#utility.yul\":17771:17802   */\n      add\n        /* \"#utility.yul\":17758:17802   */\n      swap2\n      pop\n        /* \"#utility.yul\":17838:17848   */\n      dup5\n        /* \"#utility.yul\":17828:17836   */\n      dup7\n        /* \"#utility.yul\":17824:17849   */\n      sub\n        /* \"#utility.yul\":17811:17849   */\n      swap1\n      pop\n        /* \"#utility.yul\":17386:17855   */\n      swap5\n      pop\n      swap5\n      swap3\n      pop\n      pop\n      pop\n      jump\t// out\n        /* \"#utility.yul\":17861:18041   */\n    tag_196:\n        /* \"#utility.yul\":17909:17986   */\n      0x4e487b7100000000000000000000000000000000000000000000000000000000\n        /* \"#utility.yul\":17906:17907   */\n      0x00\n        /* \"#utility.yul\":17899:17987   */\n      mstore\n        /* \"#utility.yul\":18006:18010   */\n      0x41\n        /* \"#utility.yul\":18003:18004   */\n      0x04\n        /* \"#utility.yul\":17996:18011   */\n      mstore\n        /* \"#utility.yul\":18030:18034   */\n      0x24\n        /* \"#utility.yul\":18027:18028   */\n      0x00\n        /* \"#utility.yul\":18020:18035   */\n      revert\n        /* \"#utility.yul\":18047:18227   */\n    tag_280:\n        /* \"#utility.yul\":18095:18172   */\n      0x4e487b7100000000000000000000000000000000000000000000000000000000\n        /* \"#utility.yul\":18092:18093   */\n      0x00\n        /* \"#utility.yul\":18085:18173   */\n      mstore\n        /* \"#utility.yul\":18192:18196   */\n      0x11\n        /* \"#utility.yul\":18189:18190   */\n      0x04\n        /* \"#utility.yul\":18182:18197   */\n      mstore\n        /* \"#utility.yul\":18216:18220   */\n      0x24\n        /* \"#utility.yul\":18213:18214   */\n      0x00\n        /* \"#utility.yul\":18206:18221   */\n      revert\n        /* \"#utility.yul\":18233:18424   */\n    tag_202:\n        /* \"#utility.yul\":18273:18276   */\n      0x00\n        /* \"#utility.yul\":18292:18312   */\n      tag_459\n        /* \"#utility.yul\":18310:18311   */\n      dup3\n        /* \"#utility.yul\":18292:18312   */\n      tag_228\n      jump\t// in\n    tag_459:\n        /* \"#utility.yul\":18287:18312   */\n      swap2\n      pop\n        /* \"#utility.yul\":18326:18346   */\n      tag_460\n        /* \"#utility.yul\":18344:18345   */\n      dup4\n        /* \"#utility.yul\":18326:18346   */\n      tag_228\n      jump\t// in\n    tag_460:\n        /* \"#utility.yul\":18321:18346   */\n      swap3\n      pop\n        /* \"#utility.yul\":18369:18370   */\n      dup3\n        /* \"#utility.yul\":18366:18367   */\n      dup3\n        /* \"#utility.yul\":18362:18371   */\n      add\n        /* \"#utility.yul\":18355:18371   */\n      swap1\n      pop\n        /* \"#utility.yul\":18390:18393   */\n      dup1\n        /* \"#utility.yul\":18387:18388   */\n      dup3\n        /* \"#utility.yul\":18384:18394   */\n      gt\n        /* \"#utility.yul\":18381:18417   */\n      iszero\n      tag_461\n      jumpi\n        /* \"#utility.yul\":18397:18415   */\n      tag_462\n      tag_280\n      jump\t// in\n    tag_462:\n        /* \"#utility.yul\":18381:18417   */\n    tag_461:\n        /* \"#utility.yul\":18233:18424   */\n      swap3\n      swap2\n      pop\n      pop\n      jump\t// out\n\n    auxdata: 0xa2646970667358221220bc0fab11e4650e31e5e8ce139495635da945f232180ad10e7b67b353c592626c64736f6c634300081a0033\n}\n",
				"bytecode": {
					"linkReferences": {},
					"object": "60806040526040518060600160405280600160ff168152602001600260ff168152602001600360ff16815250600190600361003b9291906101e0565b50600567ffffffffffffffff811115610057576100566102db565b5b6040519080825280602002602001820160405280156100855781602001602082028036833780820191505090505b506002908051906020019061009b929190610230565b506040518060a00160405280600160ff168152602001600260ff168152602001600360ff168152602001600460ff168152602001600560ff1681525060079060056100e792919061027b565b506040518060400160405280600581526020017f6162632222000000000000000000000000000000000000000000000000000000815250600d908161012c9190610515565b50600a67ffffffffffffffff811115610148576101476102db565b5b6040519080825280601f01601f19166020018201604052801561017a5781602001600182028036833780820191505090505b50600e908161018991906105ee565b506040518060400160405280600681526020017f616263e7868a0000000000000000000000000000000000000000000000000000815250601090816101ce9190610715565b503480156101da575f80fd5b506107e4565b828054828255905f5260205f2090810192821561021f579160200282015b8281111561021e578251829060ff169055916020019190600101906101fe565b5b50905061022c91906102c0565b5090565b828054828255905f5260205f2090810192821561026a579160200282015b8281111561026957825182559160200191906001019061024e565b5b50905061027791906102c0565b5090565b82600581019282156102af579160200282015b828111156102ae578251829060ff1690559160200191906001019061028e565b5b5090506102bc91906102c0565b5090565b5b808211156102d7575f815f9055506001016102c1565b5090565b7f4e487b71000000000000000000000000000000000000000000000000000000005f52604160045260245ffd5b5f81519050919050565b7f4e487b71000000000000000000000000000000000000000000000000000000005f52602260045260245ffd5b5f600282049050600182168061035657607f821691505b60208210810361036957610368610312565b5b50919050565b5f819050815f5260205f209050919050565b5f6020601f8301049050919050565b5f82821b905092915050565b5f600883026103cb7fffffffffffffffffffffffffffffffffffffffffffffffffffffffffffffffff82610390565b6103d58683610390565b95508019841693508086168417925050509392505050565b5f819050919050565b5f819050919050565b5f61041961041461040f846103ed565b6103f6565b6103ed565b9050919050565b5f819050919050565b610432836103ff565b61044661043e82610420565b84845461039c565b825550505050565b5f90565b61045a61044e565b610465818484610429565b505050565b5b818110156104885761047d5f82610452565b60018101905061046b565b5050565b601f8211156104cd5761049e8161036f565b6104a784610381565b810160208510156104b6578190505b6104ca6104c285610381565b83018261046a565b50505b505050565b5f82821c905092915050565b5f6104ed5f19846008026104d2565b1980831691505092915050565b5f61050583836104de565b9150826002028217905092915050565b61051e82610308565b67ffffffffffffffff811115610537576105366102db565b5b610541825461033f565b61054c82828561048c565b5f60209050601f83116001811461057d575f841561056b578287015190505b61057585826104fa565b8655506105dc565b601f19841661058b8661036f565b5f5b828110156105b25784890151825560018201915060208501945060208101905061058d565b868310156105cf57848901516105cb601f8916826104de565b8355505b6001600288020188555050505b505050505050565b5f81519050919050565b6105f7826105e4565b67ffffffffffffffff8111156106105761060f6102db565b5b61061a825461033f565b61062582828561048c565b5f60209050601f831160018114610656575f8415610644578287015190505b61064e85826104fa565b8655506106b5565b601f1984166106648661036f565b5f5b8281101561068b57848901518255600182019150602085019450602081019050610666565b868310156106a857848901516106a4601f8916826104de565b8355505b6001600288020188555050505b505050505050565b5f819050815f5260205f209050919050565b601f821115610710576106e1816106bd565b6106ea84610381565b810160208510156106f9578190505b61070d61070585610381565b83018261046a565b50505b505050565b61071e82610308565b67ffffffffffffffff811115610737576107366102db565b5b610741825461033f565b61074c8282856106cf565b5f60209050601f83116001811461077d575f841561076b578287015190505b61077585826104fa565b8655506107dc565b601f19841661078b866106bd565b5f5b828110156107b25784890151825560018201915060208501945060208101905061078d565b868310156107cf57848901516107cb601f8916826104de565b8355505b6001600288020188555050505b505050505050565b611767806107f15f395ff3fe608060405234801561000f575f80fd5b5060043610610135575f3560e01c8063a5650466116100b6578063bff688f41161007a578063bff688f4146103a6578063c15bae84146103c4578063cf814a36146103e2578063edf0099b14610400578063f5d9612d14610430578063fcdcfa501461046057610135565b8063a5650466146102da578063abd05e671461030a578063ae6f28341461033a578063b61f14a514610358578063be1c766b1461038857610135565b806373d4a13a116100fd57806373d4a13a146102055780637521ace0146102235780638732ded81461024a5780638af755d51461027a5780639a9bdca7146102aa57610135565b80632bd63afc146101395780634fcdbf98146101575780635478a4dc14610187578063626ba04e146101a55780636987b1fb146101d5575b5f80fd5b61014161047e565b60405161014e9190610f7a565b60405180910390f35b610171600480360381019061016c9190610ff7565b6104f9565b60405161017e919061103a565b60405180910390f35b61018f6105ff565b60405161019c91906110c3565b60405180910390f35b6101bf60048036038101906101ba919061110d565b61068b565b6040516101cc9190611147565b60405180910390f35b6101ef60048036038101906101ea919061110d565b6106f3565b6040516101fc919061116f565b60405180910390f35b61020d610712565b60405161021a91906110c3565b60405180910390f35b61022b61079e565b6040516102419a99989796959493929190611286565b60405180910390f35b610264600480360381019061025f919061110d565b610956565b604051610271919061116f565b60405180910390f35b610294600480360381019061028f919061110d565b610976565b6040516102a1919061116f565b60405180910390f35b6102c460048036038101906102bf919061110d565b61098f565b6040516102d1919061116f565b60405180910390f35b6102f460048036038101906102ef9190611397565b6109af565b60405161030191906110c3565b60405180910390f35b610324600480360381019061031f919061110d565b610a0f565b604051610331919061103a565b60405180910390f35b610342610b74565b60405161034f9190611487565b60405180910390f35b610372600480360381019061036d919061110d565b610ba4565b60405161037f919061116f565b60405180910390f35b610390610bbd565b60405161039d919061116f565b60405180910390f35b6103ae610bc9565b6040516103bb9190610f7a565b60405180910390f35b6103cc610c64565b6040516103d991906114f2565b60405180910390f35b6103ea610cf0565b6040516103f79190611591565b60405180910390f35b61041a6004803603810190610415919061110d565b610d07565b604051610427919061116f565b60405180910390f35b61044a6004803603810190610445919061110d565b610d27565b6040516104579190610f7a565b60405180910390f35b610468610da5565b60405161047591906114f2565b60405180910390f35b6060600c805480610492576104916115ab565b5b600190038181905f5260205f20015f90559055600c8054806020026020016040519081016040528092919081815260200182805480156104ef57602002820191905f5260205f20905b8154815260200190600101908083116104db575b5050505050905090565b5f805f90505b600d805461050c90611605565b90508110156105d557827effffffffffffffffffffffffffffffffffffffffffffffffffffffffffffff1916600d82815461054690611605565b811061055557610554611635565b5b81546001161561057257905f5260205f2090602091828204019190065b9054901a7f0100000000000000000000000000000000000000000000000000000000000000027effffffffffffffffffffffffffffffffffffffffffffffffffffffffffffff1916036105c857809150506105fa565b80806001019150506104ff565b507fffffffffffffffffffffffffffffffffffffffffffffffffffffffffffffffff90505b919050565b600d805461060c90611605565b80601f016020809104026020016040519081016040528092919081815260200182805461063890611605565b80156106835780601f1061065a57610100808354040283529160200191610683565b820191905f5260205f20905b81548152906001019060200180831161066657829003601f168201915b505050505081565b5f600d82815461069a90611605565b81106106a9576106a8611635565b5b8154600116156106c657905f5260205f2090602091828204019190065b9054901a7f0100000000000000000000000000000000000000000000000000000000000000029050919050565b5f8181548110610701575f80fd5b905f5260205f20015f915090505481565b600e805461071f90611605565b80601f016020809104026020016040519081016040528092919081815260200182805461074b90611605565b80156107965780601f1061076d57610100808354040283529160200191610796565b820191905f5260205f20905b81548152906001019060200180831161077957829003601f168201915b505050505081565b60605f60605f60605f6107af610e31565b5f6107b8610e53565b5f8080548060200260200160405190810160405280929190818152602001828054801561080257602002820191905f5260205f20905b8154815260200190600101908083116107ee575b505050505099505f805490509850600180548060200260200160405190810160405280929190818152602001828054801561085a57602002820191905f5260205f20905b815481526020019060010190808311610846575b50505050509750600180549050965060028054806020026020016040519081016040528092919081815260200182805480156108b357602002820191905f5260205f20905b81548152602001906001019080831161089f575b50505050509550600280549050945060036004806020026040519081016040528092919082600480156108fb576020028201915b8154815260200190600101908083116108e7575b5050505050935060049250600760058060200260405190810160405280929190826005801561093f576020028201915b81548152602001906001019080831161092b575b505050505091506005905090919293949596979899565b60028181548110610965575f80fd5b905f5260205f20015f915090505481565b60078160058110610985575f80fd5b015f915090505481565b600c818154811061099e575f80fd5b905f5260205f20015f915090505481565b60608484849084926109c39392919061166a565b8080601f0160208091040260200160405190810160405280939291908181526020018383808284375f81840152601f19601f820116905080830192505050505050509050949350505050565b5f805f90505b600d8054610a2290611605565b9050811015610b4a57600d838154610a3990611605565b8110610a4857610a47611635565b5b815460011615610a6557905f5260205f2090602091828204019190065b9054901a7f0100000000000000000000000000000000000000000000000000000000000000027effffffffffffffffffffffffffffffffffffffffffffffffffffffffffffff1916600d828154610abb90611605565b8110610aca57610ac9611635565b5b815460011615610ae757905f5260205f2090602091828204019190065b9054901a7f0100000000000000000000000000000000000000000000000000000000000000027effffffffffffffffffffffffffffffffffffffffffffffffffffffffffffff191603610b3d5780915050610b6f565b8080600101915050610a15565b507fffffffffffffffffffffffffffffffffffffffffffffffffffffffffffffffff90505b919050565b610b7c610e75565b5f60405180606001604052806001815260200160028152602001600381525090508091505090565b60038160048110610bb3575f80fd5b015f915090505481565b5f600c80549050905090565b60605f600a67ffffffffffffffff811115610be757610be66116a4565b5b604051908082528060200260200182016040528015610c155781602001602082028036833780820191505090505b5090505f5b600a811015610c5c57806064610c3091906116fe565b828281518110610c4357610c42611635565b5b6020026020010181815250508080600101915050610c1a565b508091505090565b600f8054610c7190611605565b80601f0160208091040260200160405190810160405280929190818152602001828054610c9d90611605565b8015610ce85780601f10610cbf57610100808354040283529160200191610ce8565b820191905f5260205f20905b815481529060010190602001808311610ccb57829003601f168201915b505050505081565b610cf8610e97565b610d00610e97565b8091505090565b60018181548110610d16575f80fd5b905f5260205f20015f915090505481565b6060600c82908060018154018082558091505060019003905f5260205f20015f9091909190915055600c805480602002602001604051908101604052809291908181526020018280548015610d9957602002820191905f5260205f20905b815481526020019060010190808311610d85575b50505050509050919050565b60108054610db290611605565b80601f0160208091040260200160405190810160405280929190818152602001828054610dde90611605565b8015610e295780601f10610e0057610100808354040283529160200191610e29565b820191905f5260205f20905b815481529060010190602001808311610e0c57829003601f168201915b505050505081565b6040518060800160405280600490602082028036833780820191505090505090565b6040518060a00160405280600590602082028036833780820191505090505090565b6040518060600160405280600390602082028036833780820191505090505090565b604051806101400160405280600a90602082028036833780820191505090505090565b5f81519050919050565b5f82825260208201905092915050565b5f819050602082019050919050565b5f819050919050565b610ef581610ee3565b82525050565b5f610f068383610eec565b60208301905092915050565b5f602082019050919050565b5f610f2882610eba565b610f328185610ec4565b9350610f3d83610ed4565b805f5b83811015610f6d578151610f548882610efb565b9750610f5f83610f12565b925050600181019050610f40565b5085935050505092915050565b5f6020820190508181035f830152610f928184610f1e565b905092915050565b5f80fd5b5f80fd5b5f7fff0000000000000000000000000000000000000000000000000000000000000082169050919050565b610fd681610fa2565b8114610fe0575f80fd5b50565b5f81359050610ff181610fcd565b92915050565b5f6020828403121561100c5761100b610f9a565b5b5f61101984828501610fe3565b91505092915050565b5f819050919050565b61103481611022565b82525050565b5f60208201905061104d5f83018461102b565b92915050565b5f81519050919050565b5f82825260208201905092915050565b8281835e5f83830152505050565b5f601f19601f8301169050919050565b5f61109582611053565b61109f818561105d565b93506110af81856020860161106d565b6110b88161107b565b840191505092915050565b5f6020820190508181035f8301526110db818461108b565b905092915050565b6110ec81610ee3565b81146110f6575f80fd5b50565b5f81359050611107816110e3565b92915050565b5f6020828403121561112257611121610f9a565b5b5f61112f848285016110f9565b91505092915050565b61114181610fa2565b82525050565b5f60208201905061115a5f830184611138565b92915050565b61116981610ee3565b82525050565b5f6020820190506111825f830184611160565b92915050565b5f60049050919050565b5f81905092915050565b5f819050919050565b5f602082019050919050565b6111ba81611188565b6111c48184611192565b92506111cf8261119c565b805f5b838110156111ff5781516111e68782610efb565b96506111f1836111a5565b9250506001810190506111d2565b505050505050565b5f60059050919050565b5f81905092915050565b5f819050919050565b5f602082019050919050565b61123981611207565b6112438184611211565b925061124e8261121b565b805f5b8381101561127e5781516112658782610efb565b965061127083611224565b925050600181019050611251565b505050505050565b5f610220820190508181035f83015261129f818d610f1e565b90506112ae602083018c611160565b81810360408301526112c0818b610f1e565b90506112cf606083018a611160565b81810360808301526112e18189610f1e565b90506112f060a0830188611160565b6112fd60c08301876111b1565b61130b610140830186611160565b611319610160830185611230565b611327610200830184611160565b9b9a5050505050505050505050565b5f80fd5b5f80fd5b5f80fd5b5f8083601f84011261135757611356611336565b5b8235905067ffffffffffffffff8111156113745761137361133a565b5b6020830191508360018202830111156113905761138f61133e565b5b9250929050565b5f805f80606085870312156113af576113ae610f9a565b5b5f85013567ffffffffffffffff8111156113cc576113cb610f9e565b5b6113d887828801611342565b945094505060206113eb878288016110f9565b92505060406113fc878288016110f9565b91505092959194509250565b5f60039050919050565b5f81905092915050565b5f819050919050565b5f602082019050919050565b61143a81611408565b6114448184611412565b925061144f8261141c565b805f5b8381101561147f5781516114668782610efb565b965061147183611425565b925050600181019050611452565b505050505050565b5f60608201905061149a5f830184611431565b92915050565b5f81519050919050565b5f82825260208201905092915050565b5f6114c4826114a0565b6114ce81856114aa565b93506114de81856020860161106d565b6114e78161107b565b840191505092915050565b5f6020820190508181035f83015261150a81846114ba565b905092915050565b5f600a9050919050565b5f81905092915050565b5f819050919050565b5f602082019050919050565b61154481611512565b61154e818461151c565b925061155982611526565b805f5b838110156115895781516115708782610efb565b965061157b8361152f565b92505060018101905061155c565b505050505050565b5f610140820190506115a55f83018461153b565b92915050565b7f4e487b71000000000000000000000000000000000000000000000000000000005f52603160045260245ffd5b7f4e487b71000000000000000000000000000000000000000000000000000000005f52602260045260245ffd5b5f600282049050600182168061161c57607f821691505b60208210810361162f5761162e6115d8565b5b50919050565b7f4e487b71000000000000000000000000000000000000000000000000000000005f52603260045260245ffd5b5f80fd5b5f80fd5b5f808585111561167d5761167c611662565b5b8386111561168e5761168d611666565b5b6001850283019150848603905094509492505050565b7f4e487b71000000000000000000000000000000000000000000000000000000005f52604160045260245ffd5b7f4e487b71000000000000000000000000000000000000000000000000000000005f52601160045260245ffd5b5f61170882610ee3565b915061171383610ee3565b925082820190508082111561172b5761172a6116d1565b5b9291505056fea2646970667358221220bc0fab11e4650e31e5e8ce139495635da945f232180ad10e7b67b353c592626c64736f6c634300081a0033",
					"opcodes": "PUSH1 0x80 PUSH1 0x40 MSTORE PUSH1 0x40 MLOAD DUP1 PUSH1 0x60 ADD PUSH1 0x40 MSTORE DUP1 PUSH1 0x1 PUSH1 0xFF AND DUP2 MSTORE PUSH1 0x20 ADD PUSH1 0x2 PUSH1 0xFF AND DUP2 MSTORE PUSH1 0x20 ADD PUSH1 0x3 PUSH1 0xFF AND DUP2 MSTORE POP PUSH1 0x1 SWAP1 PUSH1 0x3 PUSH2 0x3B SWAP3 SWAP2 SWAP1 PUSH2 0x1E0 JUMP JUMPDEST POP PUSH1 0x5 PUSH8 0xFFFFFFFFFFFFFFFF DUP2 GT ISZERO PUSH2 0x57 JUMPI PUSH2 0x56 PUSH2 0x2DB JUMP JUMPDEST JUMPDEST PUSH1 0x40 MLOAD SWAP1 DUP1 DUP3 MSTORE DUP1 PUSH1 0x20 MUL PUSH1 0x20 ADD DUP3 ADD PUSH1 0x40 MSTORE DUP1 ISZERO PUSH2 0x85 JUMPI DUP2 PUSH1 0x20 ADD PUSH1 0x20 DUP3 MUL DUP1 CALLDATASIZE DUP4 CALLDATACOPY DUP1 DUP3 ADD SWAP2 POP POP SWAP1 POP JUMPDEST POP PUSH1 0x2 SWAP1 DUP1 MLOAD SWAP1 PUSH1 0x20 ADD SWAP1 PUSH2 0x9B SWAP3 SWAP2 SWAP1 PUSH2 0x230 JUMP JUMPDEST POP PUSH1 0x40 MLOAD DUP1 PUSH1 0xA0 ADD PUSH1 0x40 MSTORE DUP1 PUSH1 0x1 PUSH1 0xFF AND DUP2 MSTORE PUSH1 0x20 ADD PUSH1 0x2 PUSH1 0xFF AND DUP2 MSTORE PUSH1 0x20 ADD PUSH1 0x3 PUSH1 0xFF AND DUP2 MSTORE PUSH1 0x20 ADD PUSH1 0x4 PUSH1 0xFF AND DUP2 MSTORE PUSH1 0x20 ADD PUSH1 0x5 PUSH1 0xFF AND DUP2 MSTORE POP PUSH1 0x7 SWAP1 PUSH1 0x5 PUSH2 0xE7 SWAP3 SWAP2 SWAP1 PUSH2 0x27B JUMP JUMPDEST POP PUSH1 0x40 MLOAD DUP1 PUSH1 0x40 ADD PUSH1 0x40 MSTORE DUP1 PUSH1 0x5 DUP2 MSTORE PUSH1 0x20 ADD PUSH32 0x6162632222000000000000000000000000000000000000000000000000000000 DUP2 MSTORE POP PUSH1 0xD SWAP1 DUP2 PUSH2 0x12C SWAP2 SWAP1 PUSH2 0x515 JUMP JUMPDEST POP PUSH1 0xA PUSH8 0xFFFFFFFFFFFFFFFF DUP2 GT ISZERO PUSH2 0x148 JUMPI PUSH2 0x147 PUSH2 0x2DB JUMP JUMPDEST JUMPDEST PUSH1 0x40 MLOAD SWAP1 DUP1 DUP3 MSTORE DUP1 PUSH1 0x1F ADD PUSH1 0x1F NOT AND PUSH1 0x20 ADD DUP3 ADD PUSH1 0x40 MSTORE DUP1 ISZERO PUSH2 0x17A JUMPI DUP2 PUSH1 0x20 ADD PUSH1 0x1 DUP3 MUL DUP1 CALLDATASIZE DUP4 CALLDATACOPY DUP1 DUP3 ADD SWAP2 POP POP SWAP1 POP JUMPDEST POP PUSH1 0xE SWAP1 DUP2 PUSH2 0x189 SWAP2 SWAP1 PUSH2 0x5EE JUMP JUMPDEST POP PUSH1 0x40 MLOAD DUP1 PUSH1 0x40 ADD PUSH1 0x40 MSTORE DUP1 PUSH1 0x6 DUP2 MSTORE PUSH1 0x20 ADD PUSH32 0x616263E7868A0000000000000000000000000000000000000000000000000000 DUP2 MSTORE POP PUSH1 0x10 SWAP1 DUP2 PUSH2 0x1CE SWAP2 SWAP1 PUSH2 0x715 JUMP JUMPDEST POP CALLVALUE DUP1 ISZERO PUSH2 0x1DA JUMPI PUSH0 DUP1 REVERT JUMPDEST POP PUSH2 0x7E4 JUMP JUMPDEST DUP3 DUP1 SLOAD DUP3 DUP3 SSTORE SWAP1 PUSH0 MSTORE PUSH1 0x20 PUSH0 KECCAK256 SWAP1 DUP2 ADD SWAP3 DUP3 ISZERO PUSH2 0x21F JUMPI SWAP2 PUSH1 0x20 MUL DUP3 ADD JUMPDEST DUP3 DUP2 GT ISZERO PUSH2 0x21E JUMPI DUP3 MLOAD DUP3 SWAP1 PUSH1 0xFF AND SWAP1 SSTORE SWAP2 PUSH1 0x20 ADD SWAP2 SWAP1 PUSH1 0x1 ADD SWAP1 PUSH2 0x1FE JUMP JUMPDEST JUMPDEST POP SWAP1 POP PUSH2 0x22C SWAP2 SWAP1 PUSH2 0x2C0 JUMP JUMPDEST POP SWAP1 JUMP JUMPDEST DUP3 DUP1 SLOAD DUP3 DUP3 SSTORE SWAP1 PUSH0 MSTORE PUSH1 0x20 PUSH0 KECCAK256 SWAP1 DUP2 ADD SWAP3 DUP3 ISZERO PUSH2 0x26A JUMPI SWAP2 PUSH1 0x20 MUL DUP3 ADD JUMPDEST DUP3 DUP2 GT ISZERO PUSH2 0x269 JUMPI DUP3 MLOAD DUP3 SSTORE SWAP2 PUSH1 0x20 ADD SWAP2 SWAP1 PUSH1 0x1 ADD SWAP1 PUSH2 0x24E JUMP JUMPDEST JUMPDEST POP SWAP1 POP PUSH2 0x277 SWAP2 SWAP1 PUSH2 0x2C0 JUMP JUMPDEST POP SWAP1 JUMP JUMPDEST DUP3 PUSH1 0x5 DUP2 ADD SWAP3 DUP3 ISZERO PUSH2 0x2AF JUMPI SWAP2 PUSH1 0x20 MUL DUP3 ADD JUMPDEST DUP3 DUP2 GT ISZERO PUSH2 0x2AE JUMPI DUP3 MLOAD DUP3 SWAP1 PUSH1 0xFF AND SWAP1 SSTORE SWAP2 PUSH1 0x20 ADD SWAP2 SWAP1 PUSH1 0x1 ADD SWAP1 PUSH2 0x28E JUMP JUMPDEST JUMPDEST POP SWAP1 POP PUSH2 0x2BC SWAP2 SWAP1 PUSH2 0x2C0 JUMP JUMPDEST POP SWAP1 JUMP JUMPDEST JUMPDEST DUP1 DUP3 GT ISZERO PUSH2 0x2D7 JUMPI PUSH0 DUP2 PUSH0 SWAP1 SSTORE POP PUSH1 0x1 ADD PUSH2 0x2C1 JUMP JUMPDEST POP SWAP1 JUMP JUMPDEST PUSH32 0x4E487B7100000000000000000000000000000000000000000000000000000000 PUSH0 MSTORE PUSH1 0x41 PUSH1 0x4 MSTORE PUSH1 0x24 PUSH0 REVERT JUMPDEST PUSH0 DUP2 MLOAD SWAP1 POP SWAP2 SWAP1 POP JUMP JUMPDEST PUSH32 0x4E487B7100000000000000000000000000000000000000000000000000000000 PUSH0 MSTORE PUSH1 0x22 PUSH1 0x4 MSTORE PUSH1 0x24 PUSH0 REVERT JUMPDEST PUSH0 PUSH1 0x2 DUP3 DIV SWAP1 POP PUSH1 0x1 DUP3 AND DUP1 PUSH2 0x356 JUMPI PUSH1 0x7F DUP3 AND SWAP2 POP JUMPDEST PUSH1 0x20 DUP3 LT DUP2 SUB PUSH2 0x369 JUMPI PUSH2 0x368 PUSH2 0x312 JUMP JUMPDEST JUMPDEST POP SWAP2 SWAP1 POP JUMP JUMPDEST PUSH0 DUP2 SWAP1 POP DUP2 PUSH0 MSTORE PUSH1 0x20 PUSH0 KECCAK256 SWAP1 POP SWAP2 SWAP1 POP JUMP JUMPDEST PUSH0 PUSH1 0x20 PUSH1 0x1F DUP4 ADD DIV SWAP1 POP SWAP2 SWAP1 POP JUMP JUMPDEST PUSH0 DUP3 DUP3 SHL SWAP1 POP SWAP3 SWAP2 POP POP JUMP JUMPDEST PUSH0 PUSH1 0x8 DUP4 MUL PUSH2 0x3CB PUSH32 0xFFFFFFFFFFFFFFFFFFFFFFFFFFFFFFFFFFFFFFFFFFFFFFFFFFFFFFFFFFFFFFFF DUP3 PUSH2 0x390 JUMP JUMPDEST PUSH2 0x3D5 DUP7 DUP4 PUSH2 0x390 JUMP JUMPDEST SWAP6 POP DUP1 NOT DUP5 AND SWAP4 POP DUP1 DUP7 AND DUP5 OR SWAP3 POP POP POP SWAP4 SWAP3 POP POP POP JUMP JUMPDEST PUSH0 DUP2 SWAP1 POP SWAP2 SWAP1 POP JUMP JUMPDEST PUSH0 DUP2 SWAP1 POP SWAP2 SWAP1 POP JUMP JUMPDEST PUSH0 PUSH2 0x419 PUSH2 0x414 PUSH2 0x40F DUP5 PUSH2 0x3ED JUMP JUMPDEST PUSH2 0x3F6 JUMP JUMPDEST PUSH2 0x3ED JUMP JUMPDEST SWAP1 POP SWAP2 SWAP1 POP JUMP JUMPDEST PUSH0 DUP2 SWAP1 POP SWAP2 SWAP1 POP JUMP JUMPDEST PUSH2 0x432 DUP4 PUSH2 0x3FF JUMP JUMPDEST PUSH2 0x446 PUSH2 0x43E DUP3 PUSH2 0x420 JUMP JUMPDEST DUP5 DUP5 SLOAD PUSH2 0x39C JUMP JUMPDEST DUP3 SSTORE POP POP POP POP JUMP JUMPDEST PUSH0 SWAP1 JUMP JUMPDEST PUSH2 0x45A PUSH2 0x44E JUMP JUMPDEST PUSH2 0x465 DUP2 DUP5 DUP5 PUSH2 0x429 JUMP JUMPDEST POP POP POP JUMP JUMPDEST JUMPDEST DUP2 DUP2 LT ISZERO PUSH2 0x488 JUMPI PUSH2 0x47D PUSH0 DUP3 PUSH2 0x452 JUMP JUMPDEST PUSH1 0x1 DUP2 ADD SWAP1 POP PUSH2 0x46B JUMP JUMPDEST POP POP JUMP JUMPDEST PUSH1 0x1F DUP3 GT ISZERO PUSH2 0x4CD JUMPI PUSH2 0x49E DUP2 PUSH2 0x36F JUMP JUMPDEST PUSH2 0x4A7 DUP5 PUSH2 0x381 JUMP JUMPDEST DUP2 ADD PUSH1 0x20 DUP6 LT ISZERO PUSH2 0x4B6 JUMPI DUP2 SWAP1 POP JUMPDEST PUSH2 0x4CA PUSH2 0x4C2 DUP6 PUSH2 0x381 JUMP JUMPDEST DUP4 ADD DUP3 PUSH2 0x46A JUMP JUMPDEST POP POP JUMPDEST POP POP POP JUMP JUMPDEST PUSH0 DUP3 DUP3 SHR SWAP1 POP SWAP3 SWAP2 POP POP JUMP JUMPDEST PUSH0 PUSH2 0x4ED PUSH0 NOT DUP5 PUSH1 0x8 MUL PUSH2 0x4D2 JUMP JUMPDEST NOT DUP1 DUP4 AND SWAP2 POP POP SWAP3 SWAP2 POP POP JUMP JUMPDEST PUSH0 PUSH2 0x505 DUP4 DUP4 PUSH2 0x4DE JUMP JUMPDEST SWAP2 POP DUP3 PUSH1 0x2 MUL DUP3 OR SWAP1 POP SWAP3 SWAP2 POP POP JUMP JUMPDEST PUSH2 0x51E DUP3 PUSH2 0x308 JUMP JUMPDEST PUSH8 0xFFFFFFFFFFFFFFFF DUP2 GT ISZERO PUSH2 0x537 JUMPI PUSH2 0x536 PUSH2 0x2DB JUMP JUMPDEST JUMPDEST PUSH2 0x541 DUP3 SLOAD PUSH2 0x33F JUMP JUMPDEST PUSH2 0x54C DUP3 DUP3 DUP6 PUSH2 0x48C JUMP JUMPDEST PUSH0 PUSH1 0x20 SWAP1 POP PUSH1 0x1F DUP4 GT PUSH1 0x1 DUP2 EQ PUSH2 0x57D JUMPI PUSH0 DUP5 ISZERO PUSH2 0x56B JUMPI DUP3 DUP8 ADD MLOAD SWAP1 POP JUMPDEST PUSH2 0x575 DUP6 DUP3 PUSH2 0x4FA JUMP JUMPDEST DUP7 SSTORE POP PUSH2 0x5DC JUMP JUMPDEST PUSH1 0x1F NOT DUP5 AND PUSH2 0x58B DUP7 PUSH2 0x36F JUMP JUMPDEST PUSH0 JUMPDEST DUP3 DUP2 LT ISZERO PUSH2 0x5B2 JUMPI DUP5 DUP10 ADD MLOAD DUP3 SSTORE PUSH1 0x1 DUP3 ADD SWAP2 POP PUSH1 0x20 DUP6 ADD SWAP5 POP PUSH1 0x20 DUP2 ADD SWAP1 POP PUSH2 0x58D JUMP JUMPDEST DUP7 DUP4 LT ISZERO PUSH2 0x5CF JUMPI DUP5 DUP10 ADD MLOAD PUSH2 0x5CB PUSH1 0x1F DUP10 AND DUP3 PUSH2 0x4DE JUMP JUMPDEST DUP4 SSTORE POP JUMPDEST PUSH1 0x1 PUSH1 0x2 DUP9 MUL ADD DUP9 SSTORE POP POP POP JUMPDEST POP POP POP POP POP POP JUMP JUMPDEST PUSH0 DUP2 MLOAD SWAP1 POP SWAP2 SWAP1 POP JUMP JUMPDEST PUSH2 0x5F7 DUP3 PUSH2 0x5E4 JUMP JUMPDEST PUSH8 0xFFFFFFFFFFFFFFFF DUP2 GT ISZERO PUSH2 0x610 JUMPI PUSH2 0x60F PUSH2 0x2DB JUMP JUMPDEST JUMPDEST PUSH2 0x61A DUP3 SLOAD PUSH2 0x33F JUMP JUMPDEST PUSH2 0x625 DUP3 DUP3 DUP6 PUSH2 0x48C JUMP JUMPDEST PUSH0 PUSH1 0x20 SWAP1 POP PUSH1 0x1F DUP4 GT PUSH1 0x1 DUP2 EQ PUSH2 0x656 JUMPI PUSH0 DUP5 ISZERO PUSH2 0x644 JUMPI DUP3 DUP8 ADD MLOAD SWAP1 POP JUMPDEST PUSH2 0x64E DUP6 DUP3 PUSH2 0x4FA JUMP JUMPDEST DUP7 SSTORE POP PUSH2 0x6B5 JUMP JUMPDEST PUSH1 0x1F NOT DUP5 AND PUSH2 0x664 DUP7 PUSH2 0x36F JUMP JUMPDEST PUSH0 JUMPDEST DUP3 DUP2 LT ISZERO PUSH2 0x68B JUMPI DUP5 DUP10 ADD MLOAD DUP3 SSTORE PUSH1 0x1 DUP3 ADD SWAP2 POP PUSH1 0x20 DUP6 ADD SWAP5 POP PUSH1 0x20 DUP2 ADD SWAP1 POP PUSH2 0x666 JUMP JUMPDEST DUP7 DUP4 LT ISZERO PUSH2 0x6A8 JUMPI DUP5 DUP10 ADD MLOAD PUSH2 0x6A4 PUSH1 0x1F DUP10 AND DUP3 PUSH2 0x4DE JUMP JUMPDEST DUP4 SSTORE POP JUMPDEST PUSH1 0x1 PUSH1 0x2 DUP9 MUL ADD DUP9 SSTORE POP POP POP JUMPDEST POP POP POP POP POP POP JUMP JUMPDEST PUSH0 DUP2 SWAP1 POP DUP2 PUSH0 MSTORE PUSH1 0x20 PUSH0 KECCAK256 SWAP1 POP SWAP2 SWAP1 POP JUMP JUMPDEST PUSH1 0x1F DUP3 GT ISZERO PUSH2 0x710 JUMPI PUSH2 0x6E1 DUP2 PUSH2 0x6BD JUMP JUMPDEST PUSH2 0x6EA DUP5 PUSH2 0x381 JUMP JUMPDEST DUP2 ADD PUSH1 0x20 DUP6 LT ISZERO PUSH2 0x6F9 JUMPI DUP2 SWAP1 POP JUMPDEST PUSH2 0x70D PUSH2 0x705 DUP6 PUSH2 0x381 JUMP JUMPDEST DUP4 ADD DUP3 PUSH2 0x46A JUMP JUMPDEST POP POP JUMPDEST POP POP POP JUMP JUMPDEST PUSH2 0x71E DUP3 PUSH2 0x308 JUMP JUMPDEST PUSH8 0xFFFFFFFFFFFFFFFF DUP2 GT ISZERO PUSH2 0x737 JUMPI PUSH2 0x736 PUSH2 0x2DB JUMP JUMPDEST JUMPDEST PUSH2 0x741 DUP3 SLOAD PUSH2 0x33F JUMP JUMPDEST PUSH2 0x74C DUP3 DUP3 DUP6 PUSH2 0x6CF JUMP JUMPDEST PUSH0 PUSH1 0x20 SWAP1 POP PUSH1 0x1F DUP4 GT PUSH1 0x1 DUP2 EQ PUSH2 0x77D JUMPI PUSH0 DUP5 ISZERO PUSH2 0x76B JUMPI DUP3 DUP8 ADD MLOAD SWAP1 POP JUMPDEST PUSH2 0x775 DUP6 DUP3 PUSH2 0x4FA JUMP JUMPDEST DUP7 SSTORE POP PUSH2 0x7DC JUMP JUMPDEST PUSH1 0x1F NOT DUP5 AND PUSH2 0x78B DUP7 PUSH2 0x6BD JUMP JUMPDEST PUSH0 JUMPDEST DUP3 DUP2 LT ISZERO PUSH2 0x7B2 JUMPI DUP5 DUP10 ADD MLOAD DUP3 SSTORE PUSH1 0x1 DUP3 ADD SWAP2 POP PUSH1 0x20 DUP6 ADD SWAP5 POP PUSH1 0x20 DUP2 ADD SWAP1 POP PUSH2 0x78D JUMP JUMPDEST DUP7 DUP4 LT ISZERO PUSH2 0x7CF JUMPI DUP5 DUP10 ADD MLOAD PUSH2 0x7CB PUSH1 0x1F DUP10 AND DUP3 PUSH2 0x4DE JUMP JUMPDEST DUP4 SSTORE POP JUMPDEST PUSH1 0x1 PUSH1 0x2 DUP9 MUL ADD DUP9 SSTORE POP POP POP JUMPDEST POP POP POP POP POP POP JUMP JUMPDEST PUSH2 0x1767 DUP1 PUSH2 0x7F1 PUSH0 CODECOPY PUSH0 RETURN INVALID PUSH1 0x80 PUSH1 0x40 MSTORE CALLVALUE DUP1 ISZERO PUSH2 0xF JUMPI PUSH0 DUP1 REVERT JUMPDEST POP PUSH1 0x4 CALLDATASIZE LT PUSH2 0x135 JUMPI PUSH0 CALLDATALOAD PUSH1 0xE0 SHR DUP1 PUSH4 0xA5650466 GT PUSH2 0xB6 JUMPI DUP1 PUSH4 0xBFF688F4 GT PUSH2 0x7A JUMPI DUP1 PUSH4 0xBFF688F4 EQ PUSH2 0x3A6 JUMPI DUP1 PUSH4 0xC15BAE84 EQ PUSH2 0x3C4 JUMPI DUP1 PUSH4 0xCF814A36 EQ PUSH2 0x3E2 JUMPI DUP1 PUSH4 0xEDF0099B EQ PUSH2 0x400 JUMPI DUP1 PUSH4 0xF5D9612D EQ PUSH2 0x430 JUMPI DUP1 PUSH4 0xFCDCFA50 EQ PUSH2 0x460 JUMPI PUSH2 0x135 JUMP JUMPDEST DUP1 PUSH4 0xA5650466 EQ PUSH2 0x2DA JUMPI DUP1 PUSH4 0xABD05E67 EQ PUSH2 0x30A JUMPI DUP1 PUSH4 0xAE6F2834 EQ PUSH2 0x33A JUMPI DUP1 PUSH4 0xB61F14A5 EQ PUSH2 0x358 JUMPI DUP1 PUSH4 0xBE1C766B EQ PUSH2 0x388 JUMPI PUSH2 0x135 JUMP JUMPDEST DUP1 PUSH4 0x73D4A13A GT PUSH2 0xFD JUMPI DUP1 PUSH4 0x73D4A13A EQ PUSH2 0x205 JUMPI DUP1 PUSH4 0x7521ACE0 EQ PUSH2 0x223 JUMPI DUP1 PUSH4 0x8732DED8 EQ PUSH2 0x24A JUMPI DUP1 PUSH4 0x8AF755D5 EQ PUSH2 0x27A JUMPI DUP1 PUSH4 0x9A9BDCA7 EQ PUSH2 0x2AA JUMPI PUSH2 0x135 JUMP JUMPDEST DUP1 PUSH4 0x2BD63AFC EQ PUSH2 0x139 JUMPI DUP1 PUSH4 0x4FCDBF98 EQ PUSH2 0x157 JUMPI DUP1 PUSH4 0x5478A4DC EQ PUSH2 0x187 JUMPI DUP1 PUSH4 0x626BA04E EQ PUSH2 0x1A5 JUMPI DUP1 PUSH4 0x6987B1FB EQ PUSH2 0x1D5 JUMPI JUMPDEST PUSH0 DUP1 REVERT JUMPDEST PUSH2 0x141 PUSH2 0x47E JUMP JUMPDEST PUSH1 0x40 MLOAD PUSH2 0x14E SWAP2 SWAP1 PUSH2 0xF7A JUMP JUMPDEST PUSH1 0x40 MLOAD DUP1 SWAP2 SUB SWAP1 RETURN JUMPDEST PUSH2 0x171 PUSH1 0x4 DUP1 CALLDATASIZE SUB DUP2 ADD SWAP1 PUSH2 0x16C SWAP2 SWAP1 PUSH2 0xFF7 JUMP JUMPDEST PUSH2 0x4F9 JUMP JUMPDEST PUSH1 0x40 MLOAD PUSH2 0x17E SWAP2 SWAP1 PUSH2 0x103A JUMP JUMPDEST PUSH1 0x40 MLOAD DUP1 SWAP2 SUB SWAP1 RETURN JUMPDEST PUSH2 0x18F PUSH2 0x5FF JUMP JUMPDEST PUSH1 0x40 MLOAD PUSH2 0x19C SWAP2 SWAP1 PUSH2 0x10C3 JUMP JUMPDEST PUSH1 0x40 MLOAD DUP1 SWAP2 SUB SWAP1 RETURN JUMPDEST PUSH2 0x1BF PUSH1 0x4 DUP1 CALLDATASIZE SUB DUP2 ADD SWAP1 PUSH2 0x1BA SWAP2 SWAP1 PUSH2 0x110D JUMP JUMPDEST PUSH2 0x68B JUMP JUMPDEST PUSH1 0x40 MLOAD PUSH2 0x1CC SWAP2 SWAP1 PUSH2 0x1147 JUMP JUMPDEST PUSH1 0x40 MLOAD DUP1 SWAP2 SUB SWAP1 RETURN JUMPDEST PUSH2 0x1EF PUSH1 0x4 DUP1 CALLDATASIZE SUB DUP2 ADD SWAP1 PUSH2 0x1EA SWAP2 SWAP1 PUSH2 0x110D JUMP JUMPDEST PUSH2 0x6F3 JUMP JUMPDEST PUSH1 0x40 MLOAD PUSH2 0x1FC SWAP2 SWAP1 PUSH2 0x116F JUMP JUMPDEST PUSH1 0x40 MLOAD DUP1 SWAP2 SUB SWAP1 RETURN JUMPDEST PUSH2 0x20D PUSH2 0x712 JUMP JUMPDEST PUSH1 0x40 MLOAD PUSH2 0x21A SWAP2 SWAP1 PUSH2 0x10C3 JUMP JUMPDEST PUSH1 0x40 MLOAD DUP1 SWAP2 SUB SWAP1 RETURN JUMPDEST PUSH2 0x22B PUSH2 0x79E JUMP JUMPDEST PUSH1 0x40 MLOAD PUSH2 0x241 SWAP11 SWAP10 SWAP9 SWAP8 SWAP7 SWAP6 SWAP5 SWAP4 SWAP3 SWAP2 SWAP1 PUSH2 0x1286 JUMP JUMPDEST PUSH1 0x40 MLOAD DUP1 SWAP2 SUB SWAP1 RETURN JUMPDEST PUSH2 0x264 PUSH1 0x4 DUP1 CALLDATASIZE SUB DUP2 ADD SWAP1 PUSH2 0x25F SWAP2 SWAP1 PUSH2 0x110D JUMP JUMPDEST PUSH2 0x956 JUMP JUMPDEST PUSH1 0x40 MLOAD PUSH2 0x271 SWAP2 SWAP1 PUSH2 0x116F JUMP JUMPDEST PUSH1 0x40 MLOAD DUP1 SWAP2 SUB SWAP1 RETURN JUMPDEST PUSH2 0x294 PUSH1 0x4 DUP1 CALLDATASIZE SUB DUP2 ADD SWAP1 PUSH2 0x28F SWAP2 SWAP1 PUSH2 0x110D JUMP JUMPDEST PUSH2 0x976 JUMP JUMPDEST PUSH1 0x40 MLOAD PUSH2 0x2A1 SWAP2 SWAP1 PUSH2 0x116F JUMP JUMPDEST PUSH1 0x40 MLOAD DUP1 SWAP2 SUB SWAP1 RETURN JUMPDEST PUSH2 0x2C4 PUSH1 0x4 DUP1 CALLDATASIZE SUB DUP2 ADD SWAP1 PUSH2 0x2BF SWAP2 SWAP1 PUSH2 0x110D JUMP JUMPDEST PUSH2 0x98F JUMP JUMPDEST PUSH1 0x40 MLOAD PUSH2 0x2D1 SWAP2 SWAP1 PUSH2 0x116F JUMP JUMPDEST PUSH1 0x40 MLOAD DUP1 SWAP2 SUB SWAP1 RETURN JUMPDEST PUSH2 0x2F4 PUSH1 0x4 DUP1 CALLDATASIZE SUB DUP2 ADD SWAP1 PUSH2 0x2EF SWAP2 SWAP1 PUSH2 0x1397 JUMP JUMPDEST PUSH2 0x9AF JUMP JUMPDEST PUSH1 0x40 MLOAD PUSH2 0x301 SWAP2 SWAP1 PUSH2 0x10C3 JUMP JUMPDEST PUSH1 0x40 MLOAD DUP1 SWAP2 SUB SWAP1 RETURN JUMPDEST PUSH2 0x324 PUSH1 0x4 DUP1 CALLDATASIZE SUB DUP2 ADD SWAP1 PUSH2 0x31F SWAP2 SWAP1 PUSH2 0x110D JUMP JUMPDEST PUSH2 0xA0F JUMP JUMPDEST PUSH1 0x40 MLOAD PUSH2 0x331 SWAP2 SWAP1 PUSH2 0x103A JUMP JUMPDEST PUSH1 0x40 MLOAD DUP1 SWAP2 SUB SWAP1 RETURN JUMPDEST PUSH2 0x342 PUSH2 0xB74 JUMP JUMPDEST PUSH1 0x40 MLOAD PUSH2 0x34F SWAP2 SWAP1 PUSH2 0x1487 JUMP JUMPDEST PUSH1 0x40 MLOAD DUP1 SWAP2 SUB SWAP1 RETURN JUMPDEST PUSH2 0x372 PUSH1 0x4 DUP1 CALLDATASIZE SUB DUP2 ADD SWAP1 PUSH2 0x36D SWAP2 SWAP1 PUSH2 0x110D JUMP JUMPDEST PUSH2 0xBA4 JUMP JUMPDEST PUSH1 0x40 MLOAD PUSH2 0x37F SWAP2 SWAP1 PUSH2 0x116F JUMP JUMPDEST PUSH1 0x40 MLOAD DUP1 SWAP2 SUB SWAP1 RETURN JUMPDEST PUSH2 0x390 PUSH2 0xBBD JUMP JUMPDEST PUSH1 0x40 MLOAD PUSH2 0x39D SWAP2 SWAP1 PUSH2 0x116F JUMP JUMPDEST PUSH1 0x40 MLOAD DUP1 SWAP2 SUB SWAP1 RETURN JUMPDEST PUSH2 0x3AE PUSH2 0xBC9 JUMP JUMPDEST PUSH1 0x40 MLOAD PUSH2 0x3BB SWAP2 SWAP1 PUSH2 0xF7A JUMP JUMPDEST PUSH1 0x40 MLOAD DUP1 SWAP2 SUB SWAP1 RETURN JUMPDEST PUSH2 0x3CC PUSH2 0xC64 JUMP JUMPDEST PUSH1 0x40 MLOAD PUSH2 0x3D9 SWAP2 SWAP1 PUSH2 0x14F2 JUMP JUMPDEST PUSH1 0x40 MLOAD DUP1 SWAP2 SUB SWAP1 RETURN JUMPDEST PUSH2 0x3EA PUSH2 0xCF0 JUMP JUMPDEST PUSH1 0x40 MLOAD PUSH2 0x3F7 SWAP2 SWAP1 PUSH2 0x1591 JUMP JUMPDEST PUSH1 0x40 MLOAD DUP1 SWAP2 SUB SWAP1 RETURN JUMPDEST PUSH2 0x41A PUSH1 0x4 DUP1 CALLDATASIZE SUB DUP2 ADD SWAP1 PUSH2 0x415 SWAP2 SWAP1 PUSH2 0x110D JUMP JUMPDEST PUSH2 0xD07 JUMP JUMPDEST PUSH1 0x40 MLOAD PUSH2 0x427 SWAP2 SWAP1 PUSH2 0x116F JUMP JUMPDEST PUSH1 0x40 MLOAD DUP1 SWAP2 SUB SWAP1 RETURN JUMPDEST PUSH2 0x44A PUSH1 0x4 DUP1 CALLDATASIZE SUB DUP2 ADD SWAP1 PUSH2 0x445 SWAP2 SWAP1 PUSH2 0x110D JUMP JUMPDEST PUSH2 0xD27 JUMP JUMPDEST PUSH1 0x40 MLOAD PUSH2 0x457 SWAP2 SWAP1 PUSH2 0xF7A JUMP JUMPDEST PUSH1 0x40 MLOAD DUP1 SWAP2 SUB SWAP1 RETURN JUMPDEST PUSH2 0x468 PUSH2 0xDA5 JUMP JUMPDEST PUSH1 0x40 MLOAD PUSH2 0x475 SWAP2 SWAP1 PUSH2 0x14F2 JUMP JUMPDEST PUSH1 0x40 MLOAD DUP1 SWAP2 SUB SWAP1 RETURN JUMPDEST PUSH1 0x60 PUSH1 0xC DUP1 SLOAD DUP1 PUSH2 0x492 JUMPI PUSH2 0x491 PUSH2 0x15AB JUMP JUMPDEST JUMPDEST PUSH1 0x1 SWAP1 SUB DUP2 DUP2 SWAP1 PUSH0 MSTORE PUSH1 0x20 PUSH0 KECCAK256 ADD PUSH0 SWAP1 SSTORE SWAP1 SSTORE PUSH1 0xC DUP1 SLOAD DUP1 PUSH1 0x20 MUL PUSH1 0x20 ADD PUSH1 0x40 MLOAD SWAP1 DUP2 ADD PUSH1 0x40 MSTORE DUP1 SWAP3 SWAP2 SWAP1 DUP2 DUP2 MSTORE PUSH1 0x20 ADD DUP3 DUP1 SLOAD DUP1 ISZERO PUSH2 0x4EF JUMPI PUSH1 0x20 MUL DUP3 ADD SWAP2 SWAP1 PUSH0 MSTORE PUSH1 0x20 PUSH0 KECCAK256 SWAP1 JUMPDEST DUP2 SLOAD DUP2 MSTORE PUSH1 0x20 ADD SWAP1 PUSH1 0x1 ADD SWAP1 DUP1 DUP4 GT PUSH2 0x4DB JUMPI JUMPDEST POP POP POP POP POP SWAP1 POP SWAP1 JUMP JUMPDEST PUSH0 DUP1 PUSH0 SWAP1 POP JUMPDEST PUSH1 0xD DUP1 SLOAD PUSH2 0x50C SWAP1 PUSH2 0x1605 JUMP JUMPDEST SWAP1 POP DUP2 LT ISZERO PUSH2 0x5D5 JUMPI DUP3 PUSH31 0xFFFFFFFFFFFFFFFFFFFFFFFFFFFFFFFFFFFFFFFFFFFFFFFFFFFFFFFFFFFFFF NOT AND PUSH1 0xD DUP3 DUP2 SLOAD PUSH2 0x546 SWAP1 PUSH2 0x1605 JUMP JUMPDEST DUP2 LT PUSH2 0x555 JUMPI PUSH2 0x554 PUSH2 0x1635 JUMP JUMPDEST JUMPDEST DUP2 SLOAD PUSH1 0x1 AND ISZERO PUSH2 0x572 JUMPI SWAP1 PUSH0 MSTORE PUSH1 0x20 PUSH0 KECCAK256 SWAP1 PUSH1 0x20 SWAP2 DUP3 DUP3 DIV ADD SWAP2 SWAP1 MOD JUMPDEST SWAP1 SLOAD SWAP1 BYTE PUSH32 0x100000000000000000000000000000000000000000000000000000000000000 MUL PUSH31 0xFFFFFFFFFFFFFFFFFFFFFFFFFFFFFFFFFFFFFFFFFFFFFFFFFFFFFFFFFFFFFF NOT AND SUB PUSH2 0x5C8 JUMPI DUP1 SWAP2 POP POP PUSH2 0x5FA JUMP JUMPDEST DUP1 DUP1 PUSH1 0x1 ADD SWAP2 POP POP PUSH2 0x4FF JUMP JUMPDEST POP PUSH32 0xFFFFFFFFFFFFFFFFFFFFFFFFFFFFFFFFFFFFFFFFFFFFFFFFFFFFFFFFFFFFFFFF SWAP1 POP JUMPDEST SWAP2 SWAP1 POP JUMP JUMPDEST PUSH1 0xD DUP1 SLOAD PUSH2 0x60C SWAP1 PUSH2 0x1605 JUMP JUMPDEST DUP1 PUSH1 0x1F ADD PUSH1 0x20 DUP1 SWAP2 DIV MUL PUSH1 0x20 ADD PUSH1 0x40 MLOAD SWAP1 DUP2 ADD PUSH1 0x40 MSTORE DUP1 SWAP3 SWAP2 SWAP1 DUP2 DUP2 MSTORE PUSH1 0x20 ADD DUP3 DUP1 SLOAD PUSH2 0x638 SWAP1 PUSH2 0x1605 JUMP JUMPDEST DUP1 ISZERO PUSH2 0x683 JUMPI DUP1 PUSH1 0x1F LT PUSH2 0x65A JUMPI PUSH2 0x100 DUP1 DUP4 SLOAD DIV MUL DUP4 MSTORE SWAP2 PUSH1 0x20 ADD SWAP2 PUSH2 0x683 JUMP JUMPDEST DUP3 ADD SWAP2 SWAP1 PUSH0 MSTORE PUSH1 0x20 PUSH0 KECCAK256 SWAP1 JUMPDEST DUP2 SLOAD DUP2 MSTORE SWAP1 PUSH1 0x1 ADD SWAP1 PUSH1 0x20 ADD DUP1 DUP4 GT PUSH2 0x666 JUMPI DUP3 SWAP1 SUB PUSH1 0x1F AND DUP3 ADD SWAP2 JUMPDEST POP POP POP POP POP DUP2 JUMP JUMPDEST PUSH0 PUSH1 0xD DUP3 DUP2 SLOAD PUSH2 0x69A SWAP1 PUSH2 0x1605 JUMP JUMPDEST DUP2 LT PUSH2 0x6A9 JUMPI PUSH2 0x6A8 PUSH2 0x1635 JUMP JUMPDEST JUMPDEST DUP2 SLOAD PUSH1 0x1 AND ISZERO PUSH2 0x6C6 JUMPI SWAP1 PUSH0 MSTORE PUSH1 0x20 PUSH0 KECCAK256 SWAP1 PUSH1 0x20 SWAP2 DUP3 DUP3 DIV ADD SWAP2 SWAP1 MOD JUMPDEST SWAP1 SLOAD SWAP1 BYTE PUSH32 0x100000000000000000000000000000000000000000000000000000000000000 MUL SWAP1 POP SWAP2 SWAP1 POP JUMP JUMPDEST PUSH0 DUP2 DUP2 SLOAD DUP2 LT PUSH2 0x701 JUMPI PUSH0 DUP1 REVERT JUMPDEST SWAP1 PUSH0 MSTORE PUSH1 0x20 PUSH0 KECCAK256 ADD PUSH0 SWAP2 POP SWAP1 POP SLOAD DUP2 JUMP JUMPDEST PUSH1 0xE DUP1 SLOAD PUSH2 0x71F SWAP1 PUSH2 0x1605 JUMP JUMPDEST DUP1 PUSH1 0x1F ADD PUSH1 0x20 DUP1 SWAP2 DIV MUL PUSH1 0x20 ADD PUSH1 0x40 MLOAD SWAP1 DUP2 ADD PUSH1 0x40 MSTORE DUP1 SWAP3 SWAP2 SWAP1 DUP2 DUP2 MSTORE PUSH1 0x20 ADD DUP3 DUP1 SLOAD PUSH2 0x74B SWAP1 PUSH2 0x1605 JUMP JUMPDEST DUP1 ISZERO PUSH2 0x796 JUMPI DUP1 PUSH1 0x1F LT PUSH2 0x76D JUMPI PUSH2 0x100 DUP1 DUP4 SLOAD DIV MUL DUP4 MSTORE SWAP2 PUSH1 0x20 ADD SWAP2 PUSH2 0x796 JUMP JUMPDEST DUP3 ADD SWAP2 SWAP1 PUSH0 MSTORE PUSH1 0x20 PUSH0 KECCAK256 SWAP1 JUMPDEST DUP2 SLOAD DUP2 MSTORE SWAP1 PUSH1 0x1 ADD SWAP1 PUSH1 0x20 ADD DUP1 DUP4 GT PUSH2 0x779 JUMPI DUP3 SWAP1 SUB PUSH1 0x1F AND DUP3 ADD SWAP2 JUMPDEST POP POP POP POP POP DUP2 JUMP JUMPDEST PUSH1 0x60 PUSH0 PUSH1 0x60 PUSH0 PUSH1 0x60 PUSH0 PUSH2 0x7AF PUSH2 0xE31 JUMP JUMPDEST PUSH0 PUSH2 0x7B8 PUSH2 0xE53 JUMP JUMPDEST PUSH0 DUP1 DUP1 SLOAD DUP1 PUSH1 0x20 MUL PUSH1 0x20 ADD PUSH1 0x40 MLOAD SWAP1 DUP2 ADD PUSH1 0x40 MSTORE DUP1 SWAP3 SWAP2 SWAP1 DUP2 DUP2 MSTORE PUSH1 0x20 ADD DUP3 DUP1 SLOAD DUP1 ISZERO PUSH2 0x802 JUMPI PUSH1 0x20 MUL DUP3 ADD SWAP2 SWAP1 PUSH0 MSTORE PUSH1 0x20 PUSH0 KECCAK256 SWAP1 JUMPDEST DUP2 SLOAD DUP2 MSTORE PUSH1 0x20 ADD SWAP1 PUSH1 0x1 ADD SWAP1 DUP1 DUP4 GT PUSH2 0x7EE JUMPI JUMPDEST POP POP POP POP POP SWAP10 POP PUSH0 DUP1 SLOAD SWAP1 POP SWAP9 POP PUSH1 0x1 DUP1 SLOAD DUP1 PUSH1 0x20 MUL PUSH1 0x20 ADD PUSH1 0x40 MLOAD SWAP1 DUP2 ADD PUSH1 0x40 MSTORE DUP1 SWAP3 SWAP2 SWAP1 DUP2 DUP2 MSTORE PUSH1 0x20 ADD DUP3 DUP1 SLOAD DUP1 ISZERO PUSH2 0x85A JUMPI PUSH1 0x20 MUL DUP3 ADD SWAP2 SWAP1 PUSH0 MSTORE PUSH1 0x20 PUSH0 KECCAK256 SWAP1 JUMPDEST DUP2 SLOAD DUP2 MSTORE PUSH1 0x20 ADD SWAP1 PUSH1 0x1 ADD SWAP1 DUP1 DUP4 GT PUSH2 0x846 JUMPI JUMPDEST POP POP POP POP POP SWAP8 POP PUSH1 0x1 DUP1 SLOAD SWAP1 POP SWAP7 POP PUSH1 0x2 DUP1 SLOAD DUP1 PUSH1 0x20 MUL PUSH1 0x20 ADD PUSH1 0x40 MLOAD SWAP1 DUP2 ADD PUSH1 0x40 MSTORE DUP1 SWAP3 SWAP2 SWAP1 DUP2 DUP2 MSTORE PUSH1 0x20 ADD DUP3 DUP1 SLOAD DUP1 ISZERO PUSH2 0x8B3 JUMPI PUSH1 0x20 MUL DUP3 ADD SWAP2 SWAP1 PUSH0 MSTORE PUSH1 0x20 PUSH0 KECCAK256 SWAP1 JUMPDEST DUP2 SLOAD DUP2 MSTORE PUSH1 0x20 ADD SWAP1 PUSH1 0x1 ADD SWAP1 DUP1 DUP4 GT PUSH2 0x89F JUMPI JUMPDEST POP POP POP POP POP SWAP6 POP PUSH1 0x2 DUP1 SLOAD SWAP1 POP SWAP5 POP PUSH1 0x3 PUSH1 0x4 DUP1 PUSH1 0x20 MUL PUSH1 0x40 MLOAD SWAP1 DUP2 ADD PUSH1 0x40 MSTORE DUP1 SWAP3 SWAP2 SWAP1 DUP3 PUSH1 0x4 DUP1 ISZERO PUSH2 0x8FB JUMPI PUSH1 0x20 MUL DUP3 ADD SWAP2 JUMPDEST DUP2 SLOAD DUP2 MSTORE PUSH1 0x20 ADD SWAP1 PUSH1 0x1 ADD SWAP1 DUP1 DUP4 GT PUSH2 0x8E7 JUMPI JUMPDEST POP POP POP POP POP SWAP4 POP PUSH1 0x4 SWAP3 POP PUSH1 0x7 PUSH1 0x5 DUP1 PUSH1 0x20 MUL PUSH1 0x40 MLOAD SWAP1 DUP2 ADD PUSH1 0x40 MSTORE DUP1 SWAP3 SWAP2 SWAP1 DUP3 PUSH1 0x5 DUP1 ISZERO PUSH2 0x93F JUMPI PUSH1 0x20 MUL DUP3 ADD SWAP2 JUMPDEST DUP2 SLOAD DUP2 MSTORE PUSH1 0x20 ADD SWAP1 PUSH1 0x1 ADD SWAP1 DUP1 DUP4 GT PUSH2 0x92B JUMPI JUMPDEST POP POP POP POP POP SWAP2 POP PUSH1 0x5 SWAP1 POP SWAP1 SWAP2 SWAP3 SWAP4 SWAP5 SWAP6 SWAP7 SWAP8 SWAP9 SWAP10 JUMP JUMPDEST PUSH1 0x2 DUP2 DUP2 SLOAD DUP2 LT PUSH2 0x965 JUMPI PUSH0 DUP1 REVERT JUMPDEST SWAP1 PUSH0 MSTORE PUSH1 0x20 PUSH0 KECCAK256 ADD PUSH0 SWAP2 POP SWAP1 POP SLOAD DUP2 JUMP JUMPDEST PUSH1 0x7 DUP2 PUSH1 0x5 DUP2 LT PUSH2 0x985 JUMPI PUSH0 DUP1 REVERT JUMPDEST ADD PUSH0 SWAP2 POP SWAP1 POP SLOAD DUP2 JUMP JUMPDEST PUSH1 0xC DUP2 DUP2 SLOAD DUP2 LT PUSH2 0x99E JUMPI PUSH0 DUP1 REVERT JUMPDEST SWAP1 PUSH0 MSTORE PUSH1 0x20 PUSH0 KECCAK256 ADD PUSH0 SWAP2 POP SWAP1 POP SLOAD DUP2 JUMP JUMPDEST PUSH1 0x60 DUP5 DUP5 DUP5 SWAP1 DUP5 SWAP3 PUSH2 0x9C3 SWAP4 SWAP3 SWAP2 SWAP1 PUSH2 0x166A JUMP JUMPDEST DUP1 DUP1 PUSH1 0x1F ADD PUSH1 0x20 DUP1 SWAP2 DIV MUL PUSH1 0x20 ADD PUSH1 0x40 MLOAD SWAP1 DUP2 ADD PUSH1 0x40 MSTORE DUP1 SWAP4 SWAP3 SWAP2 SWAP1 DUP2 DUP2 MSTORE PUSH1 0x20 ADD DUP4 DUP4 DUP1 DUP3 DUP5 CALLDATACOPY PUSH0 DUP2 DUP5 ADD MSTORE PUSH1 0x1F NOT PUSH1 0x1F DUP3 ADD AND SWAP1 POP DUP1 DUP4 ADD SWAP3 POP POP POP POP POP POP POP SWAP1 POP SWAP5 SWAP4 POP POP POP POP JUMP JUMPDEST PUSH0 DUP1 PUSH0 SWAP1 POP JUMPDEST PUSH1 0xD DUP1 SLOAD PUSH2 0xA22 SWAP1 PUSH2 0x1605 JUMP JUMPDEST SWAP1 POP DUP2 LT ISZERO PUSH2 0xB4A JUMPI PUSH1 0xD DUP4 DUP2 SLOAD PUSH2 0xA39 SWAP1 PUSH2 0x1605 JUMP JUMPDEST DUP2 LT PUSH2 0xA48 JUMPI PUSH2 0xA47 PUSH2 0x1635 JUMP JUMPDEST JUMPDEST DUP2 SLOAD PUSH1 0x1 AND ISZERO PUSH2 0xA65 JUMPI SWAP1 PUSH0 MSTORE PUSH1 0x20 PUSH0 KECCAK256 SWAP1 PUSH1 0x20 SWAP2 DUP3 DUP3 DIV ADD SWAP2 SWAP1 MOD JUMPDEST SWAP1 SLOAD SWAP1 BYTE PUSH32 0x100000000000000000000000000000000000000000000000000000000000000 MUL PUSH31 0xFFFFFFFFFFFFFFFFFFFFFFFFFFFFFFFFFFFFFFFFFFFFFFFFFFFFFFFFFFFFFF NOT AND PUSH1 0xD DUP3 DUP2 SLOAD PUSH2 0xABB SWAP1 PUSH2 0x1605 JUMP JUMPDEST DUP2 LT PUSH2 0xACA JUMPI PUSH2 0xAC9 PUSH2 0x1635 JUMP JUMPDEST JUMPDEST DUP2 SLOAD PUSH1 0x1 AND ISZERO PUSH2 0xAE7 JUMPI SWAP1 PUSH0 MSTORE PUSH1 0x20 PUSH0 KECCAK256 SWAP1 PUSH1 0x20 SWAP2 DUP3 DUP3 DIV ADD SWAP2 SWAP1 MOD JUMPDEST SWAP1 SLOAD SWAP1 BYTE PUSH32 0x100000000000000000000000000000000000000000000000000000000000000 MUL PUSH31 0xFFFFFFFFFFFFFFFFFFFFFFFFFFFFFFFFFFFFFFFFFFFFFFFFFFFFFFFFFFFFFF NOT AND SUB PUSH2 0xB3D JUMPI DUP1 SWAP2 POP POP PUSH2 0xB6F JUMP JUMPDEST DUP1 DUP1 PUSH1 0x1 ADD SWAP2 POP POP PUSH2 0xA15 JUMP JUMPDEST POP PUSH32 0xFFFFFFFFFFFFFFFFFFFFFFFFFFFFFFFFFFFFFFFFFFFFFFFFFFFFFFFFFFFFFFFF SWAP1 POP JUMPDEST SWAP2 SWAP1 POP JUMP JUMPDEST PUSH2 0xB7C PUSH2 0xE75 JUMP JUMPDEST PUSH0 PUSH1 0x40 MLOAD DUP1 PUSH1 0x60 ADD PUSH1 0x40 MSTORE DUP1 PUSH1 0x1 DUP2 MSTORE PUSH1 0x20 ADD PUSH1 0x2 DUP2 MSTORE PUSH1 0x20 ADD PUSH1 0x3 DUP2 MSTORE POP SWAP1 POP DUP1 SWAP2 POP POP SWAP1 JUMP JUMPDEST PUSH1 0x3 DUP2 PUSH1 0x4 DUP2 LT PUSH2 0xBB3 JUMPI PUSH0 DUP1 REVERT JUMPDEST ADD PUSH0 SWAP2 POP SWAP1 POP SLOAD DUP2 JUMP JUMPDEST PUSH0 PUSH1 0xC DUP1 SLOAD SWAP1 POP SWAP1 POP SWAP1 JUMP JUMPDEST PUSH1 0x60 PUSH0 PUSH1 0xA PUSH8 0xFFFFFFFFFFFFFFFF DUP2 GT ISZERO PUSH2 0xBE7 JUMPI PUSH2 0xBE6 PUSH2 0x16A4 JUMP JUMPDEST JUMPDEST PUSH1 0x40 MLOAD SWAP1 DUP1 DUP3 MSTORE DUP1 PUSH1 0x20 MUL PUSH1 0x20 ADD DUP3 ADD PUSH1 0x40 MSTORE DUP1 ISZERO PUSH2 0xC15 JUMPI DUP2 PUSH1 0x20 ADD PUSH1 0x20 DUP3 MUL DUP1 CALLDATASIZE DUP4 CALLDATACOPY DUP1 DUP3 ADD SWAP2 POP POP SWAP1 POP JUMPDEST POP SWAP1 POP PUSH0 JUMPDEST PUSH1 0xA DUP2 LT ISZERO PUSH2 0xC5C JUMPI DUP1 PUSH1 0x64 PUSH2 0xC30 SWAP2 SWAP1 PUSH2 0x16FE JUMP JUMPDEST DUP3 DUP3 DUP2 MLOAD DUP2 LT PUSH2 0xC43 JUMPI PUSH2 0xC42 PUSH2 0x1635 JUMP JUMPDEST JUMPDEST PUSH1 0x20 MUL PUSH1 0x20 ADD ADD DUP2 DUP2 MSTORE POP POP DUP1 DUP1 PUSH1 0x1 ADD SWAP2 POP POP PUSH2 0xC1A JUMP JUMPDEST POP DUP1 SWAP2 POP POP SWAP1 JUMP JUMPDEST PUSH1 0xF DUP1 SLOAD PUSH2 0xC71 SWAP1 PUSH2 0x1605 JUMP JUMPDEST DUP1 PUSH1 0x1F ADD PUSH1 0x20 DUP1 SWAP2 DIV MUL PUSH1 0x20 ADD PUSH1 0x40 MLOAD SWAP1 DUP2 ADD PUSH1 0x40 MSTORE DUP1 SWAP3 SWAP2 SWAP1 DUP2 DUP2 MSTORE PUSH1 0x20 ADD DUP3 DUP1 SLOAD PUSH2 0xC9D SWAP1 PUSH2 0x1605 JUMP JUMPDEST DUP1 ISZERO PUSH2 0xCE8 JUMPI DUP1 PUSH1 0x1F LT PUSH2 0xCBF JUMPI PUSH2 0x100 DUP1 DUP4 SLOAD DIV MUL DUP4 MSTORE SWAP2 PUSH1 0x20 ADD SWAP2 PUSH2 0xCE8 JUMP JUMPDEST DUP3 ADD SWAP2 SWAP1 PUSH0 MSTORE PUSH1 0x20 PUSH0 KECCAK256 SWAP1 JUMPDEST DUP2 SLOAD DUP2 MSTORE SWAP1 PUSH1 0x1 ADD SWAP1 PUSH1 0x20 ADD DUP1 DUP4 GT PUSH2 0xCCB JUMPI DUP3 SWAP1 SUB PUSH1 0x1F AND DUP3 ADD SWAP2 JUMPDEST POP POP POP POP POP DUP2 JUMP JUMPDEST PUSH2 0xCF8 PUSH2 0xE97 JUMP JUMPDEST PUSH2 0xD00 PUSH2 0xE97 JUMP JUMPDEST DUP1 SWAP2 POP POP SWAP1 JUMP JUMPDEST PUSH1 0x1 DUP2 DUP2 SLOAD DUP2 LT PUSH2 0xD16 JUMPI PUSH0 DUP1 REVERT JUMPDEST SWAP1 PUSH0 MSTORE PUSH1 0x20 PUSH0 KECCAK256 ADD PUSH0 SWAP2 POP SWAP1 POP SLOAD DUP2 JUMP JUMPDEST PUSH1 0x60 PUSH1 0xC DUP3 SWAP1 DUP1 PUSH1 0x1 DUP2 SLOAD ADD DUP1 DUP3 SSTORE DUP1 SWAP2 POP POP PUSH1 0x1 SWAP1 SUB SWAP1 PUSH0 MSTORE PUSH1 0x20 PUSH0 KECCAK256 ADD PUSH0 SWAP1 SWAP2 SWAP1 SWAP2 SWAP1 SWAP2 POP SSTORE PUSH1 0xC DUP1 SLOAD DUP1 PUSH1 0x20 MUL PUSH1 0x20 ADD PUSH1 0x40 MLOAD SWAP1 DUP2 ADD PUSH1 0x40 MSTORE DUP1 SWAP3 SWAP2 SWAP1 DUP2 DUP2 MSTORE PUSH1 0x20 ADD DUP3 DUP1 SLOAD DUP1 ISZERO PUSH2 0xD99 JUMPI PUSH1 0x20 MUL DUP3 ADD SWAP2 SWAP1 PUSH0 MSTORE PUSH1 0x20 PUSH0 KECCAK256 SWAP1 JUMPDEST DUP2 SLOAD DUP2 MSTORE PUSH1 0x20 ADD SWAP1 PUSH1 0x1 ADD SWAP1 DUP1 DUP4 GT PUSH2 0xD85 JUMPI JUMPDEST POP POP POP POP POP SWAP1 POP SWAP2 SWAP1 POP JUMP JUMPDEST PUSH1 0x10 DUP1 SLOAD PUSH2 0xDB2 SWAP1 PUSH2 0x1605 JUMP JUMPDEST DUP1 PUSH1 0x1F ADD PUSH1 0x20 DUP1 SWAP2 DIV MUL PUSH1 0x20 ADD PUSH1 0x40 MLOAD SWAP1 DUP2 ADD PUSH1 0x40 MSTORE DUP1 SWAP3 SWAP2 SWAP1 DUP2 DUP2 MSTORE PUSH1 0x20 ADD DUP3 DUP1 SLOAD PUSH2 0xDDE SWAP1 PUSH2 0x1605 JUMP JUMPDEST DUP1 ISZERO PUSH2 0xE29 JUMPI DUP1 PUSH1 0x1F LT PUSH2 0xE00 JUMPI PUSH2 0x100 DUP1 DUP4 SLOAD DIV MUL DUP4 MSTORE SWAP2 PUSH1 0x20 ADD SWAP2 PUSH2 0xE29 JUMP JUMPDEST DUP3 ADD SWAP2 SWAP1 PUSH0 MSTORE PUSH1 0x20 PUSH0 KECCAK256 SWAP1 JUMPDEST DUP2 SLOAD DUP2 MSTORE SWAP1 PUSH1 0x1 ADD SWAP1 PUSH1 0x20 ADD DUP1 DUP4 GT PUSH2 0xE0C JUMPI DUP3 SWAP1 SUB PUSH1 0x1F AND DUP3 ADD SWAP2 JUMPDEST POP POP POP POP POP DUP2 JUMP JUMPDEST PUSH1 0x40 MLOAD DUP1 PUSH1 0x80 ADD PUSH1 0x40 MSTORE DUP1 PUSH1 0x4 SWAP1 PUSH1 0x20 DUP3 MUL DUP1 CALLDATASIZE DUP4 CALLDATACOPY DUP1 DUP3 ADD SWAP2 POP POP SWAP1 POP POP SWAP1 JUMP JUMPDEST PUSH1 0x40 MLOAD DUP1 PUSH1 0xA0 ADD PUSH1 0x40 MSTORE DUP1 PUSH1 0x5 SWAP1 PUSH1 0x20 DUP3 MUL DUP1 CALLDATASIZE DUP4 CALLDATACOPY DUP1 DUP3 ADD SWAP2 POP POP SWAP1 POP POP SWAP1 JUMP JUMPDEST PUSH1 0x40 MLOAD DUP1 PUSH1 0x60 ADD PUSH1 0x40 MSTORE DUP1 PUSH1 0x3 SWAP1 PUSH1 0x20 DUP3 MUL DUP1 CALLDATASIZE DUP4 CALLDATACOPY DUP1 DUP3 ADD SWAP2 POP POP SWAP1 POP POP SWAP1 JUMP JUMPDEST PUSH1 0x40 MLOAD DUP1 PUSH2 0x140 ADD PUSH1 0x40 MSTORE DUP1 PUSH1 0xA SWAP1 PUSH1 0x20 DUP3 MUL DUP1 CALLDATASIZE DUP4 CALLDATACOPY DUP1 DUP3 ADD SWAP2 POP POP SWAP1 POP POP SWAP1 JUMP JUMPDEST PUSH0 DUP2 MLOAD SWAP1 POP SWAP2 SWAP1 POP JUMP JUMPDEST PUSH0 DUP3 DUP3 MSTORE PUSH1 0x20 DUP3 ADD SWAP1 POP SWAP3 SWAP2 POP POP JUMP JUMPDEST PUSH0 DUP2 SWAP1 POP PUSH1 0x20 DUP3 ADD SWAP1 POP SWAP2 SWAP1 POP JUMP JUMPDEST PUSH0 DUP2 SWAP1 POP SWAP2 SWAP1 POP JUMP JUMPDEST PUSH2 0xEF5 DUP2 PUSH2 0xEE3 JUMP JUMPDEST DUP3 MSTORE POP POP JUMP JUMPDEST PUSH0 PUSH2 0xF06 DUP4 DUP4 PUSH2 0xEEC JUMP JUMPDEST PUSH1 0x20 DUP4 ADD SWAP1 POP SWAP3 SWAP2 POP POP JUMP JUMPDEST PUSH0 PUSH1 0x20 DUP3 ADD SWAP1 POP SWAP2 SWAP1 POP JUMP JUMPDEST PUSH0 PUSH2 0xF28 DUP3 PUSH2 0xEBA JUMP JUMPDEST PUSH2 0xF32 DUP2 DUP6 PUSH2 0xEC4 JUMP JUMPDEST SWAP4 POP PUSH2 0xF3D DUP4 PUSH2 0xED4 JUMP JUMPDEST DUP1 PUSH0 JUMPDEST DUP4 DUP2 LT ISZERO PUSH2 0xF6D JUMPI DUP2 MLOAD PUSH2 0xF54 DUP9 DUP3 PUSH2 0xEFB JUMP JUMPDEST SWAP8 POP PUSH2 0xF5F DUP4 PUSH2 0xF12 JUMP JUMPDEST SWAP3 POP POP PUSH1 0x1 DUP2 ADD SWAP1 POP PUSH2 0xF40 JUMP JUMPDEST POP DUP6 SWAP4 POP POP POP POP SWAP3 SWAP2 POP POP JUMP JUMPDEST PUSH0 PUSH1 0x20 DUP3 ADD SWAP1 POP DUP2 DUP2 SUB PUSH0 DUP4 ADD MSTORE PUSH2 0xF92 DUP2 DUP5 PUSH2 0xF1E JUMP JUMPDEST SWAP1 POP SWAP3 SWAP2 POP POP JUMP JUMPDEST PUSH0 DUP1 REVERT JUMPDEST PUSH0 DUP1 REVERT JUMPDEST PUSH0 PUSH32 0xFF00000000000000000000000000000000000000000000000000000000000000 DUP3 AND SWAP1 POP SWAP2 SWAP1 POP JUMP JUMPDEST PUSH2 0xFD6 DUP2 PUSH2 0xFA2 JUMP JUMPDEST DUP2 EQ PUSH2 0xFE0 JUMPI PUSH0 DUP1 REVERT JUMPDEST POP JUMP JUMPDEST PUSH0 DUP2 CALLDATALOAD SWAP1 POP PUSH2 0xFF1 DUP2 PUSH2 0xFCD JUMP JUMPDEST SWAP3 SWAP2 POP POP JUMP JUMPDEST PUSH0 PUSH1 0x20 DUP3 DUP5 SUB SLT ISZERO PUSH2 0x100C JUMPI PUSH2 0x100B PUSH2 0xF9A JUMP JUMPDEST JUMPDEST PUSH0 PUSH2 0x1019 DUP5 DUP3 DUP6 ADD PUSH2 0xFE3 JUMP JUMPDEST SWAP2 POP POP SWAP3 SWAP2 POP POP JUMP JUMPDEST PUSH0 DUP2 SWAP1 POP SWAP2 SWAP1 POP JUMP JUMPDEST PUSH2 0x1034 DUP2 PUSH2 0x1022 JUMP JUMPDEST DUP3 MSTORE POP POP JUMP JUMPDEST PUSH0 PUSH1 0x20 DUP3 ADD SWAP1 POP PUSH2 0x104D PUSH0 DUP4 ADD DUP5 PUSH2 0x102B JUMP JUMPDEST SWAP3 SWAP2 POP POP JUMP JUMPDEST PUSH0 DUP2 MLOAD SWAP1 POP SWAP2 SWAP1 POP JUMP JUMPDEST PUSH0 DUP3 DUP3 MSTORE PUSH1 0x20 DUP3 ADD SWAP1 POP SWAP3 SWAP2 POP POP JUMP JUMPDEST DUP3 DUP2 DUP4 MCOPY PUSH0 DUP4 DUP4 ADD MSTORE POP POP POP JUMP JUMPDEST PUSH0 PUSH1 0x1F NOT PUSH1 0x1F DUP4 ADD AND SWAP1 POP SWAP2 SWAP1 POP JUMP JUMPDEST PUSH0 PUSH2 0x1095 DUP3 PUSH2 0x1053 JUMP JUMPDEST PUSH2 0x109F DUP2 DUP6 PUSH2 0x105D JUMP JUMPDEST SWAP4 POP PUSH2 0x10AF DUP2 DUP6 PUSH1 0x20 DUP7 ADD PUSH2 0x106D JUMP JUMPDEST PUSH2 0x10B8 DUP2 PUSH2 0x107B JUMP JUMPDEST DUP5 ADD SWAP2 POP POP SWAP3 SWAP2 POP POP JUMP JUMPDEST PUSH0 PUSH1 0x20 DUP3 ADD SWAP1 POP DUP2 DUP2 SUB PUSH0 DUP4 ADD MSTORE PUSH2 0x10DB DUP2 DUP5 PUSH2 0x108B JUMP JUMPDEST SWAP1 POP SWAP3 SWAP2 POP POP JUMP JUMPDEST PUSH2 0x10EC DUP2 PUSH2 0xEE3 JUMP JUMPDEST DUP2 EQ PUSH2 0x10F6 JUMPI PUSH0 DUP1 REVERT JUMPDEST POP JUMP JUMPDEST PUSH0 DUP2 CALLDATALOAD SWAP1 POP PUSH2 0x1107 DUP2 PUSH2 0x10E3 JUMP JUMPDEST SWAP3 SWAP2 POP POP JUMP JUMPDEST PUSH0 PUSH1 0x20 DUP3 DUP5 SUB SLT ISZERO PUSH2 0x1122 JUMPI PUSH2 0x1121 PUSH2 0xF9A JUMP JUMPDEST JUMPDEST PUSH0 PUSH2 0x112F DUP5 DUP3 DUP6 ADD PUSH2 0x10F9 JUMP JUMPDEST SWAP2 POP POP SWAP3 SWAP2 POP POP JUMP JUMPDEST PUSH2 0x1141 DUP2 PUSH2 0xFA2 JUMP JUMPDEST DUP3 MSTORE POP POP JUMP JUMPDEST PUSH0 PUSH1 0x20 DUP3 ADD SWAP1 POP PUSH2 0x115A PUSH0 DUP4 ADD DUP5 PUSH2 0x1138 JUMP JUMPDEST SWAP3 SWAP2 POP POP JUMP JUMPDEST PUSH2 0x1169 DUP2 PUSH2 0xEE3 JUMP JUMPDEST DUP3 MSTORE POP POP JUMP JUMPDEST PUSH0 PUSH1 0x20 DUP3 ADD SWAP1 POP PUSH2 0x1182 PUSH0 DUP4 ADD DUP5 PUSH2 0x1160 JUMP JUMPDEST SWAP3 SWAP2 POP POP JUMP JUMPDEST PUSH0 PUSH1 0x4 SWAP1 POP SWAP2 SWAP1 POP JUMP JUMPDEST PUSH0 DUP2 SWAP1 POP SWAP3 SWAP2 POP POP JUMP JUMPDEST PUSH0 DUP2 SWAP1 POP SWAP2 SWAP1 POP JUMP JUMPDEST PUSH0 PUSH1 0x20 DUP3 ADD SWAP1 POP SWAP2 SWAP1 POP JUMP JUMPDEST PUSH2 0x11BA DUP2 PUSH2 0x1188 JUMP JUMPDEST PUSH2 0x11C4 DUP2 DUP5 PUSH2 0x1192 JUMP JUMPDEST SWAP3 POP PUSH2 0x11CF DUP3 PUSH2 0x119C JUMP JUMPDEST DUP1 PUSH0 JUMPDEST DUP4 DUP2 LT ISZERO PUSH2 0x11FF JUMPI DUP2 MLOAD PUSH2 0x11E6 DUP8 DUP3 PUSH2 0xEFB JUMP JUMPDEST SWAP7 POP PUSH2 0x11F1 DUP4 PUSH2 0x11A5 JUMP JUMPDEST SWAP3 POP POP PUSH1 0x1 DUP2 ADD SWAP1 POP PUSH2 0x11D2 JUMP JUMPDEST POP POP POP POP POP POP JUMP JUMPDEST PUSH0 PUSH1 0x5 SWAP1 POP SWAP2 SWAP1 POP JUMP JUMPDEST PUSH0 DUP2 SWAP1 POP SWAP3 SWAP2 POP POP JUMP JUMPDEST PUSH0 DUP2 SWAP1 POP SWAP2 SWAP1 POP JUMP JUMPDEST PUSH0 PUSH1 0x20 DUP3 ADD SWAP1 POP SWAP2 SWAP1 POP JUMP JUMPDEST PUSH2 0x1239 DUP2 PUSH2 0x1207 JUMP JUMPDEST PUSH2 0x1243 DUP2 DUP5 PUSH2 0x1211 JUMP JUMPDEST SWAP3 POP PUSH2 0x124E DUP3 PUSH2 0x121B JUMP JUMPDEST DUP1 PUSH0 JUMPDEST DUP4 DUP2 LT ISZERO PUSH2 0x127E JUMPI DUP2 MLOAD PUSH2 0x1265 DUP8 DUP3 PUSH2 0xEFB JUMP JUMPDEST SWAP7 POP PUSH2 0x1270 DUP4 PUSH2 0x1224 JUMP JUMPDEST SWAP3 POP POP PUSH1 0x1 DUP2 ADD SWAP1 POP PUSH2 0x1251 JUMP JUMPDEST POP POP POP POP POP POP JUMP JUMPDEST PUSH0 PUSH2 0x220 DUP3 ADD SWAP1 POP DUP2 DUP2 SUB PUSH0 DUP4 ADD MSTORE PUSH2 0x129F DUP2 DUP14 PUSH2 0xF1E JUMP JUMPDEST SWAP1 POP PUSH2 0x12AE PUSH1 0x20 DUP4 ADD DUP13 PUSH2 0x1160 JUMP JUMPDEST DUP2 DUP2 SUB PUSH1 0x40 DUP4 ADD MSTORE PUSH2 0x12C0 DUP2 DUP12 PUSH2 0xF1E JUMP JUMPDEST SWAP1 POP PUSH2 0x12CF PUSH1 0x60 DUP4 ADD DUP11 PUSH2 0x1160 JUMP JUMPDEST DUP2 DUP2 SUB PUSH1 0x80 DUP4 ADD MSTORE PUSH2 0x12E1 DUP2 DUP10 PUSH2 0xF1E JUMP JUMPDEST SWAP1 POP PUSH2 0x12F0 PUSH1 0xA0 DUP4 ADD DUP9 PUSH2 0x1160 JUMP JUMPDEST PUSH2 0x12FD PUSH1 0xC0 DUP4 ADD DUP8 PUSH2 0x11B1 JUMP JUMPDEST PUSH2 0x130B PUSH2 0x140 DUP4 ADD DUP7 PUSH2 0x1160 JUMP JUMPDEST PUSH2 0x1319 PUSH2 0x160 DUP4 ADD DUP6 PUSH2 0x1230 JUMP JUMPDEST PUSH2 0x1327 PUSH2 0x200 DUP4 ADD DUP5 PUSH2 0x1160 JUMP JUMPDEST SWAP12 SWAP11 POP POP POP POP POP POP POP POP POP POP POP JUMP JUMPDEST PUSH0 DUP1 REVERT JUMPDEST PUSH0 DUP1 REVERT JUMPDEST PUSH0 DUP1 REVERT JUMPDEST PUSH0 DUP1 DUP4 PUSH1 0x1F DUP5 ADD SLT PUSH2 0x1357 JUMPI PUSH2 0x1356 PUSH2 0x1336 JUMP JUMPDEST JUMPDEST DUP3 CALLDATALOAD SWAP1 POP PUSH8 0xFFFFFFFFFFFFFFFF DUP2 GT ISZERO PUSH2 0x1374 JUMPI PUSH2 0x1373 PUSH2 0x133A JUMP JUMPDEST JUMPDEST PUSH1 0x20 DUP4 ADD SWAP2 POP DUP4 PUSH1 0x1 DUP3 MUL DUP4 ADD GT ISZERO PUSH2 0x1390 JUMPI PUSH2 0x138F PUSH2 0x133E JUMP JUMPDEST JUMPDEST SWAP3 POP SWAP3 SWAP1 POP JUMP JUMPDEST PUSH0 DUP1 PUSH0 DUP1 PUSH1 0x60 DUP6 DUP8 SUB SLT ISZERO PUSH2 0x13AF JUMPI PUSH2 0x13AE PUSH2 0xF9A JUMP JUMPDEST JUMPDEST PUSH0 DUP6 ADD CALLDATALOAD PUSH8 0xFFFFFFFFFFFFFFFF DUP2 GT ISZERO PUSH2 0x13CC JUMPI PUSH2 0x13CB PUSH2 0xF9E JUMP JUMPDEST JUMPDEST PUSH2 0x13D8 DUP8 DUP3 DUP9 ADD PUSH2 0x1342 JUMP JUMPDEST SWAP5 POP SWAP5 POP POP PUSH1 0x20 PUSH2 0x13EB DUP8 DUP3 DUP9 ADD PUSH2 0x10F9 JUMP JUMPDEST SWAP3 POP POP PUSH1 0x40 PUSH2 0x13FC DUP8 DUP3 DUP9 ADD PUSH2 0x10F9 JUMP JUMPDEST SWAP2 POP POP SWAP3 SWAP6 SWAP2 SWAP5 POP SWAP3 POP JUMP JUMPDEST PUSH0 PUSH1 0x3 SWAP1 POP SWAP2 SWAP1 POP JUMP JUMPDEST PUSH0 DUP2 SWAP1 POP SWAP3 SWAP2 POP POP JUMP JUMPDEST PUSH0 DUP2 SWAP1 POP SWAP2 SWAP1 POP JUMP JUMPDEST PUSH0 PUSH1 0x20 DUP3 ADD SWAP1 POP SWAP2 SWAP1 POP JUMP JUMPDEST PUSH2 0x143A DUP2 PUSH2 0x1408 JUMP JUMPDEST PUSH2 0x1444 DUP2 DUP5 PUSH2 0x1412 JUMP JUMPDEST SWAP3 POP PUSH2 0x144F DUP3 PUSH2 0x141C JUMP JUMPDEST DUP1 PUSH0 JUMPDEST DUP4 DUP2 LT ISZERO PUSH2 0x147F JUMPI DUP2 MLOAD PUSH2 0x1466 DUP8 DUP3 PUSH2 0xEFB JUMP JUMPDEST SWAP7 POP PUSH2 0x1471 DUP4 PUSH2 0x1425 JUMP JUMPDEST SWAP3 POP POP PUSH1 0x1 DUP2 ADD SWAP1 POP PUSH2 0x1452 JUMP JUMPDEST POP POP POP POP POP POP JUMP JUMPDEST PUSH0 PUSH1 0x60 DUP3 ADD SWAP1 POP PUSH2 0x149A PUSH0 DUP4 ADD DUP5 PUSH2 0x1431 JUMP JUMPDEST SWAP3 SWAP2 POP POP JUMP JUMPDEST PUSH0 DUP2 MLOAD SWAP1 POP SWAP2 SWAP1 POP JUMP JUMPDEST PUSH0 DUP3 DUP3 MSTORE PUSH1 0x20 DUP3 ADD SWAP1 POP SWAP3 SWAP2 POP POP JUMP JUMPDEST PUSH0 PUSH2 0x14C4 DUP3 PUSH2 0x14A0 JUMP JUMPDEST PUSH2 0x14CE DUP2 DUP6 PUSH2 0x14AA JUMP JUMPDEST SWAP4 POP PUSH2 0x14DE DUP2 DUP6 PUSH1 0x20 DUP7 ADD PUSH2 0x106D JUMP JUMPDEST PUSH2 0x14E7 DUP2 PUSH2 0x107B JUMP JUMPDEST DUP5 ADD SWAP2 POP POP SWAP3 SWAP2 POP POP JUMP JUMPDEST PUSH0 PUSH1 0x20 DUP3 ADD SWAP1 POP DUP2 DUP2 SUB PUSH0 DUP4 ADD MSTORE PUSH2 0x150A DUP2 DUP5 PUSH2 0x14BA JUMP JUMPDEST SWAP1 POP SWAP3 SWAP2 POP POP JUMP JUMPDEST PUSH0 PUSH1 0xA SWAP1 POP SWAP2 SWAP1 POP JUMP JUMPDEST PUSH0 DUP2 SWAP1 POP SWAP3 SWAP2 POP POP JUMP JUMPDEST PUSH0 DUP2 SWAP1 POP SWAP2 SWAP1 POP JUMP JUMPDEST PUSH0 PUSH1 0x20 DUP3 ADD SWAP1 POP SWAP2 SWAP1 POP JUMP JUMPDEST PUSH2 0x1544 DUP2 PUSH2 0x1512 JUMP JUMPDEST PUSH2 0x154E DUP2 DUP5 PUSH2 0x151C JUMP JUMPDEST SWAP3 POP PUSH2 0x1559 DUP3 PUSH2 0x1526 JUMP JUMPDEST DUP1 PUSH0 JUMPDEST DUP4 DUP2 LT ISZERO PUSH2 0x1589 JUMPI DUP2 MLOAD PUSH2 0x1570 DUP8 DUP3 PUSH2 0xEFB JUMP JUMPDEST SWAP7 POP PUSH2 0x157B DUP4 PUSH2 0x152F JUMP JUMPDEST SWAP3 POP POP PUSH1 0x1 DUP2 ADD SWAP1 POP PUSH2 0x155C JUMP JUMPDEST POP POP POP POP POP POP JUMP JUMPDEST PUSH0 PUSH2 0x140 DUP3 ADD SWAP1 POP PUSH2 0x15A5 PUSH0 DUP4 ADD DUP5 PUSH2 0x153B JUMP JUMPDEST SWAP3 SWAP2 POP POP JUMP JUMPDEST PUSH32 0x4E487B7100000000000000000000000000000000000000000000000000000000 PUSH0 MSTORE PUSH1 0x31 PUSH1 0x4 MSTORE PUSH1 0x24 PUSH0 REVERT JUMPDEST PUSH32 0x4E487B7100000000000000000000000000000000000000000000000000000000 PUSH0 MSTORE PUSH1 0x22 PUSH1 0x4 MSTORE PUSH1 0x24 PUSH0 REVERT JUMPDEST PUSH0 PUSH1 0x2 DUP3 DIV SWAP1 POP PUSH1 0x1 DUP3 AND DUP1 PUSH2 0x161C JUMPI PUSH1 0x7F DUP3 AND SWAP2 POP JUMPDEST PUSH1 0x20 DUP3 LT DUP2 SUB PUSH2 0x162F JUMPI PUSH2 0x162E PUSH2 0x15D8 JUMP JUMPDEST JUMPDEST POP SWAP2 SWAP1 POP JUMP JUMPDEST PUSH32 0x4E487B7100000000000000000000000000000000000000000000000000000000 PUSH0 MSTORE PUSH1 0x32 PUSH1 0x4 MSTORE PUSH1 0x24 PUSH0 REVERT JUMPDEST PUSH0 DUP1 REVERT JUMPDEST PUSH0 DUP1 REVERT JUMPDEST PUSH0 DUP1 DUP6 DUP6 GT ISZERO PUSH2 0x167D JUMPI PUSH2 0x167C PUSH2 0x1662 JUMP JUMPDEST JUMPDEST DUP4 DUP7 GT ISZERO PUSH2 0x168E JUMPI PUSH2 0x168D PUSH2 0x1666 JUMP JUMPDEST JUMPDEST PUSH1 0x1 DUP6 MUL DUP4 ADD SWAP2 POP DUP5 DUP7 SUB SWAP1 POP SWAP5 POP SWAP5 SWAP3 POP POP POP JUMP JUMPDEST PUSH32 0x4E487B7100000000000000000000000000000000000000000000000000000000 PUSH0 MSTORE PUSH1 0x41 PUSH1 0x4 MSTORE PUSH1 0x24 PUSH0 REVERT JUMPDEST PUSH32 0x4E487B7100000000000000000000000000000000000000000000000000000000 PUSH0 MSTORE PUSH1 0x11 PUSH1 0x4 MSTORE PUSH1 0x24 PUSH0 REVERT JUMPDEST PUSH0 PUSH2 0x1708 DUP3 PUSH2 0xEE3 JUMP JUMPDEST SWAP2 POP PUSH2 0x1713 DUP4 PUSH2 0xEE3 JUMP JUMPDEST SWAP3 POP DUP3 DUP3 ADD SWAP1 POP DUP1 DUP3 GT ISZERO PUSH2 0x172B JUMPI PUSH2 0x172A PUSH2 0x16D1 JUMP JUMPDEST JUMPDEST SWAP3 SWAP2 POP POP JUMP INVALID LOG2 PUSH5 0x6970667358 0x22 SLT KECCAK256 0xBC 0xF 0xAB GT 0xE4 PUSH6 0xE31E5E8CE13 SWAP5 SWAP6 PUSH4 0x5DA945F2 ORIGIN XOR EXP 0xD1 0xE PUSH28 0x67B353C592626C64736F6C634300081A003300000000000000000000 "
				},
				"gasEstimates": {
					"creation": {
						"codeDepositCost": "1198200",
						"executionCost": "infinite",
						"totalCost": "infinite"
					},
					"external": {
						"addElement(uint256)": "infinite",
						"arr1(uint256)": "infinite",
						"arr2(uint256)": "infinite",
						"arr3(uint256)": "infinite",
						"arr4(uint256)": "infinite",
						"arr5(uint256)": "infinite",
						"bs()": "infinite",
						"data()": "infinite",
						"dynamicArray(uint256)": "infinite",
						"getLength()": "2551",
						"readArr()": "infinite",
						"readBytesByIndex(uint256)": "infinite",
						"readBytesByIndexStep1(uint256)": "7265",
						"readBytesByIndexStep2(bytes1)": "infinite",
						"removeLastElement()": "infinite",
						"str()": "infinite",
						"str2()": "infinite",
						"testArr1()": "infinite",
						"testArrFixed()": "infinite",
						"testArrFixed2()": "infinite",
						"testSlice(bytes,uint256,uint256)": "infinite"
					}
				},
				"methodIdentifiers": {
					"addElement(uint256)": "f5d9612d",
					"arr1(uint256)": "6987b1fb",
					"arr2(uint256)": "edf0099b",
					"arr3(uint256)": "8732ded8",
					"arr4(uint256)": "b61f14a5",
					"arr5(uint256)": "8af755d5",
					"bs()": "5478a4dc",
					"data()": "73d4a13a",
					"dynamicArray(uint256)": "9a9bdca7",
					"getLength()": "be1c766b",
					"readArr()": "7521ace0",
					"readBytesByIndex(uint256)": "abd05e67",
					"readBytesByIndexStep1(uint256)": "626ba04e",
					"readBytesByIndexStep2(bytes1)": "4fcdbf98",
					"removeLastElement()": "2bd63afc",
					"str()": "c15bae84",
					"str2()": "fcdcfa50",
					"testArr1()": "cf814a36",
					"testArrFixed()": "bff688f4",
					"testArrFixed2()": "ae6f2834",
					"testSlice(bytes,uint256,uint256)": "a5650466"
				}
			},
			"storageLayout": {
				"storage": [
					{
						"astId": 85,
						"contract": "1.3.2-数组.sol:Test",
						"label": "arr1",
						"offset": 0,
						"slot": "0",
						"type": "t_array(t_uint256)dyn_storage"
					},
					{
						"astId": 92,
						"contract": "1.3.2-数组.sol:Test",
						"label": "arr2",
						"offset": 0,
						"slot": "1",
						"type": "t_array(t_uint256)dyn_storage"
					},
					{
						"astId": 100,
						"contract": "1.3.2-数组.sol:Test",
						"label": "arr3",
						"offset": 0,
						"slot": "2",
						"type": "t_array(t_uint256)dyn_storage"
					},
					{
						"astId": 104,
						"contract": "1.3.2-数组.sol:Test",
						"label": "arr4",
						"offset": 0,
						"slot": "3",
						"type": "t_array(t_uint256)4_storage"
					},
					{
						"astId": 114,
						"contract": "1.3.2-数组.sol:Test",
						"label": "arr5",
						"offset": 0,
						"slot": "7",
						"type": "t_array(t_uint256)5_storage"
					},
					{
						"astId": 193,
						"contract": "1.3.2-数组.sol:Test",
						"label": "dynamicArray",
						"offset": 0,
						"slot": "12",
						"type": "t_array(t_uint256)dyn_storage"
					},
					{
						"astId": 236,
						"contract": "1.3.2-数组.sol:Test",
						"label": "bs",
						"offset": 0,
						"slot": "13",
						"type": "t_bytes_storage"
					},
					{
						"astId": 242,
						"contract": "1.3.2-数组.sol:Test",
						"label": "data",
						"offset": 0,
						"slot": "14",
						"type": "t_bytes_storage"
					},
					{
						"astId": 330,
						"contract": "1.3.2-数组.sol:Test",
						"label": "str",
						"offset": 0,
						"slot": "15",
						"type": "t_string_storage"
					},
					{
						"astId": 333,
						"contract": "1.3.2-数组.sol:Test",
						"label": "str2",
						"offset": 0,
						"slot": "16",
						"type": "t_string_storage"
					}
				],
				"types": {
					"t_array(t_uint256)4_storage": {
						"base": "t_uint256",
						"encoding": "inplace",
						"label": "uint256[4]",
						"numberOfBytes": "128"
					},
					"t_array(t_uint256)5_storage": {
						"base": "t_uint256",
						"encoding": "inplace",
						"label": "uint256[5]",
						"numberOfBytes": "160"
					},
					"t_array(t_uint256)dyn_storage": {
						"base": "t_uint256",
						"encoding": "dynamic_array",
						"label": "uint256[]",
						"numberOfBytes": "32"
					},
					"t_bytes_storage": {
						"encoding": "bytes",
						"label": "bytes",
						"numberOfBytes": "32"
					},
					"t_string_storage": {
						"encoding": "bytes",
						"label": "string",
						"numberOfBytes": "32"
					},
					"t_uint256": {
						"encoding": "inplace",
						"label": "uint256",
						"numberOfBytes": "32"
					}
				}
			},
			"userdoc": {
				"kind": "user",
				"methods": {},
				"version": 1
			}
		}
	}
}