{
	"contracts/1.3.3-映射和结构体/StructTest.sol": {
		"StructTest": {
			"abi": [
				{
					"inputs": [
						{
							"internalType": "uint256",
							"name": "",
							"type": "uint256"
						}
					],
					"name": "persons",
					"outputs": [
						{
							"internalType": "string",
							"name": "name",
							"type": "string"
						},
						{
							"internalType": "uint8",
							"name": "age",
							"type": "uint8"
						}
					],
					"stateMutability": "view",
					"type": "function"
				},
				{
					"inputs": [
						{
							"components": [
								{
									"internalType": "string",
									"name": "name",
									"type": "string"
								},
								{
									"internalType": "uint8",
									"name": "age",
									"type": "uint8"
								},
								{
									"components": [
										{
											"internalType": "string",
											"name": "name",
											"type": "string"
										},
										{
											"internalType": "string",
											"name": "level",
											"type": "string"
										}
									],
									"internalType": "struct StructTest.Hobbit[]",
									"name": "hobbits",
									"type": "tuple[]"
								}
							],
							"internalType": "struct StructTest.Person",
							"name": "p",
							"type": "tuple"
						}
					],
					"name": "setPerson",
					"outputs": [],
					"stateMutability": "nonpayable",
					"type": "function"
				}
			],
			"devdoc": {
				"kind": "dev",
				"methods": {},
				"version": 1
			},
			"evm": {
				"assembly": "    /* \"contracts/1.3.3-\\xe6\\x98\\xa0\\xe5\\xb0\\x84\\xe5\\x92\\x8c\\xe7\\xbb\\x93\\xe6\\x9e\\x84\\xe4\\xbd\\x93/StructTest.sol\":70:471  contract StructTest {... */\n  mstore(0x40, 0x80)\n  callvalue\n  dup1\n  iszero\n  tag_1\n  jumpi\n  revert(0x00, 0x00)\ntag_1:\n  pop\n  dataSize(sub_0)\n  dup1\n  dataOffset(sub_0)\n  0x00\n  codecopy\n  0x00\n  return\nstop\n\nsub_0: assembly {\n        /* \"contracts/1.3.3-\\xe6\\x98\\xa0\\xe5\\xb0\\x84\\xe5\\x92\\x8c\\xe7\\xbb\\x93\\xe6\\x9e\\x84\\xe4\\xbd\\x93/StructTest.sol\":70:471  contract StructTest {... */\n      mstore(0x40, 0x80)\n      callvalue\n      dup1\n      iszero\n      tag_1\n      jumpi\n      revert(0x00, 0x00)\n    tag_1:\n      pop\n      jumpi(tag_2, lt(calldatasize, 0x04))\n      shr(0xe0, calldataload(0x00))\n      dup1\n      0x1aeb6185\n      eq\n      tag_3\n      jumpi\n      dup1\n      0xa2f9eac6\n      eq\n      tag_4\n      jumpi\n    tag_2:\n      revert(0x00, 0x00)\n        /* \"contracts/1.3.3-\\xe6\\x98\\xa0\\xe5\\xb0\\x84\\xe5\\x92\\x8c\\xe7\\xbb\\x93\\xe6\\x9e\\x84\\xe4\\xbd\\x93/StructTest.sol\":388:468  function setPerson (Person calldata p) public {... */\n    tag_3:\n      tag_5\n      0x04\n      dup1\n      calldatasize\n      sub\n      dup2\n      add\n      swap1\n      tag_6\n      swap2\n      swap1\n      tag_7\n      jump\t// in\n    tag_6:\n      tag_8\n      jump\t// in\n    tag_5:\n      stop\n        /* \"contracts/1.3.3-\\xe6\\x98\\xa0\\xe5\\xb0\\x84\\xe5\\x92\\x8c\\xe7\\xbb\\x93\\xe6\\x9e\\x84\\xe4\\xbd\\x93/StructTest.sol\":356:379  Person[] public persons */\n    tag_4:\n      tag_9\n      0x04\n      dup1\n      calldatasize\n      sub\n      dup2\n      add\n      swap1\n      tag_10\n      swap2\n      swap1\n      tag_11\n      jump\t// in\n    tag_10:\n      tag_12\n      jump\t// in\n    tag_9:\n      mload(0x40)\n      tag_13\n      swap3\n      swap2\n      swap1\n      tag_14\n      jump\t// in\n    tag_13:\n      mload(0x40)\n      dup1\n      swap2\n      sub\n      swap1\n      return\n        /* \"contracts/1.3.3-\\xe6\\x98\\xa0\\xe5\\xb0\\x84\\xe5\\x92\\x8c\\xe7\\xbb\\x93\\xe6\\x9e\\x84\\xe4\\xbd\\x93/StructTest.sol\":388:468  function setPerson (Person calldata p) public {... */\n    tag_8:\n        /* \"contracts/1.3.3-\\xe6\\x98\\xa0\\xe5\\xb0\\x84\\xe5\\x92\\x8c\\xe7\\xbb\\x93\\xe6\\x9e\\x84\\xe4\\xbd\\x93/StructTest.sol\":445:452  persons */\n      0x00\n        /* \"contracts/1.3.3-\\xe6\\x98\\xa0\\xe5\\xb0\\x84\\xe5\\x92\\x8c\\xe7\\xbb\\x93\\xe6\\x9e\\x84\\xe4\\xbd\\x93/StructTest.sol\":458:459  p */\n      dup2\n        /* \"contracts/1.3.3-\\xe6\\x98\\xa0\\xe5\\xb0\\x84\\xe5\\x92\\x8c\\xe7\\xbb\\x93\\xe6\\x9e\\x84\\xe4\\xbd\\x93/StructTest.sol\":445:460  persons.push(p) */\n      swap1\n      dup1\n      0x01\n      dup2\n      sload\n      add\n      dup1\n      dup3\n      sstore\n      dup1\n      swap2\n      pop\n      pop\n      0x01\n      swap1\n      sub\n      swap1\n      0x00\n      mstore\n      keccak256(0x00, 0x20)\n      swap1\n      0x03\n      mul\n      add\n      0x00\n      swap1\n      swap2\n      swap1\n      swap2\n      swap1\n      swap2\n      pop\n      dup2\n      dup2\n      tag_17\n      swap2\n      swap1\n      tag_18\n      jump\t// in\n    tag_17:\n      pop\n      pop\n        /* \"contracts/1.3.3-\\xe6\\x98\\xa0\\xe5\\xb0\\x84\\xe5\\x92\\x8c\\xe7\\xbb\\x93\\xe6\\x9e\\x84\\xe4\\xbd\\x93/StructTest.sol\":388:468  function setPerson (Person calldata p) public {... */\n      pop\n      jump\t// out\n        /* \"contracts/1.3.3-\\xe6\\x98\\xa0\\xe5\\xb0\\x84\\xe5\\x92\\x8c\\xe7\\xbb\\x93\\xe6\\x9e\\x84\\xe4\\xbd\\x93/StructTest.sol\":356:379  Person[] public persons */\n    tag_12:\n      0x00\n      dup2\n      dup2\n      sload\n      dup2\n      lt\n      tag_19\n      jumpi\n      0x00\n      dup1\n      revert\n    tag_19:\n      swap1\n      0x00\n      mstore\n      keccak256(0x00, 0x20)\n      swap1\n      0x03\n      mul\n      add\n      0x00\n      swap2\n      pop\n      swap1\n      pop\n      dup1\n      0x00\n      add\n      dup1\n      sload\n      tag_21\n      swap1\n      tag_22\n      jump\t// in\n    tag_21:\n      dup1\n      0x1f\n      add\n      0x20\n      dup1\n      swap2\n      div\n      mul\n      0x20\n      add\n      mload(0x40)\n      swap1\n      dup2\n      add\n      0x40\n      mstore\n      dup1\n      swap3\n      swap2\n      swap1\n      dup2\n      dup2\n      mstore\n      0x20\n      add\n      dup3\n      dup1\n      sload\n      tag_23\n      swap1\n      tag_22\n      jump\t// in\n    tag_23:\n      dup1\n      iszero\n      tag_24\n      jumpi\n      dup1\n      0x1f\n      lt\n      tag_25\n      jumpi\n      0x0100\n      dup1\n      dup4\n      sload\n      div\n      mul\n      dup4\n      mstore\n      swap2\n      0x20\n      add\n      swap2\n      jump(tag_24)\n    tag_25:\n      dup3\n      add\n      swap2\n      swap1\n      0x00\n      mstore\n      keccak256(0x00, 0x20)\n      swap1\n    tag_26:\n      dup2\n      sload\n      dup2\n      mstore\n      swap1\n      0x01\n      add\n      swap1\n      0x20\n      add\n      dup1\n      dup4\n      gt\n      tag_26\n      jumpi\n      dup3\n      swap1\n      sub\n      0x1f\n      and\n      dup3\n      add\n      swap2\n    tag_24:\n      pop\n      pop\n      pop\n      pop\n      pop\n      swap1\n      dup1\n      0x01\n      add\n      0x00\n      swap1\n      sload\n      swap1\n      0x0100\n      exp\n      swap1\n      div\n      0xff\n      and\n      swap1\n      pop\n      dup3\n      jump\t// out\n        /* \"#utility.yul\":88:205   */\n    tag_28:\n        /* \"#utility.yul\":197:198   */\n      0x00\n        /* \"#utility.yul\":194:195   */\n      0x00\n        /* \"#utility.yul\":187:199   */\n      revert\n        /* \"#utility.yul\":211:328   */\n    tag_29:\n        /* \"#utility.yul\":320:321   */\n      0x00\n        /* \"#utility.yul\":317:318   */\n      0x00\n        /* \"#utility.yul\":310:322   */\n      revert\n        /* \"#utility.yul\":334:451   */\n    tag_30:\n        /* \"#utility.yul\":443:444   */\n      0x00\n        /* \"#utility.yul\":440:441   */\n      0x00\n        /* \"#utility.yul\":433:445   */\n      revert\n        /* \"#utility.yul\":489:717   */\n    tag_31:\n        /* \"#utility.yul\":559:564   */\n      0x00\n        /* \"#utility.yul\":600:602   */\n      0x60\n        /* \"#utility.yul\":591:597   */\n      dup3\n        /* \"#utility.yul\":586:589   */\n      dup5\n        /* \"#utility.yul\":582:598   */\n      sub\n        /* \"#utility.yul\":578:603   */\n      slt\n        /* \"#utility.yul\":575:687   */\n      iszero\n      tag_108\n      jumpi\n        /* \"#utility.yul\":606:685   */\n      tag_109\n      tag_30\n      jump\t// in\n    tag_109:\n        /* \"#utility.yul\":575:687   */\n    tag_108:\n        /* \"#utility.yul\":705:711   */\n      dup2\n        /* \"#utility.yul\":696:711   */\n      swap1\n      pop\n        /* \"#utility.yul\":489:717   */\n      swap3\n      swap2\n      pop\n      pop\n      jump\t// out\n        /* \"#utility.yul\":723:1260   */\n    tag_7:\n        /* \"#utility.yul\":806:812   */\n      0x00\n        /* \"#utility.yul\":855:857   */\n      0x20\n        /* \"#utility.yul\":843:852   */\n      dup3\n        /* \"#utility.yul\":834:841   */\n      dup5\n        /* \"#utility.yul\":830:853   */\n      sub\n        /* \"#utility.yul\":826:858   */\n      slt\n        /* \"#utility.yul\":823:942   */\n      iszero\n      tag_111\n      jumpi\n        /* \"#utility.yul\":861:940   */\n      tag_112\n      tag_28\n      jump\t// in\n    tag_112:\n        /* \"#utility.yul\":823:942   */\n    tag_111:\n        /* \"#utility.yul\":1009:1010   */\n      0x00\n        /* \"#utility.yul\":998:1007   */\n      dup3\n        /* \"#utility.yul\":994:1011   */\n      add\n        /* \"#utility.yul\":981:1012   */\n      calldataload\n        /* \"#utility.yul\":1039:1057   */\n      0xffffffffffffffff\n        /* \"#utility.yul\":1031:1037   */\n      dup2\n        /* \"#utility.yul\":1028:1058   */\n      gt\n        /* \"#utility.yul\":1025:1142   */\n      iszero\n      tag_113\n      jumpi\n        /* \"#utility.yul\":1061:1140   */\n      tag_114\n      tag_29\n      jump\t// in\n    tag_114:\n        /* \"#utility.yul\":1025:1142   */\n    tag_113:\n        /* \"#utility.yul\":1166:1243   */\n      tag_115\n        /* \"#utility.yul\":1235:1242   */\n      dup5\n        /* \"#utility.yul\":1226:1232   */\n      dup3\n        /* \"#utility.yul\":1215:1224   */\n      dup6\n        /* \"#utility.yul\":1211:1233   */\n      add\n        /* \"#utility.yul\":1166:1243   */\n      tag_31\n      jump\t// in\n    tag_115:\n        /* \"#utility.yul\":1156:1243   */\n      swap2\n      pop\n        /* \"#utility.yul\":952:1253   */\n      pop\n        /* \"#utility.yul\":723:1260   */\n      swap3\n      swap2\n      pop\n      pop\n      jump\t// out\n        /* \"#utility.yul\":1266:1343   */\n    tag_32:\n        /* \"#utility.yul\":1303:1310   */\n      0x00\n        /* \"#utility.yul\":1332:1337   */\n      dup2\n        /* \"#utility.yul\":1321:1337   */\n      swap1\n      pop\n        /* \"#utility.yul\":1266:1343   */\n      swap2\n      swap1\n      pop\n      jump\t// out\n        /* \"#utility.yul\":1349:1471   */\n    tag_33:\n        /* \"#utility.yul\":1422:1446   */\n      tag_118\n        /* \"#utility.yul\":1440:1445   */\n      dup2\n        /* \"#utility.yul\":1422:1446   */\n      tag_32\n      jump\t// in\n    tag_118:\n        /* \"#utility.yul\":1415:1420   */\n      dup2\n        /* \"#utility.yul\":1412:1447   */\n      eq\n        /* \"#utility.yul\":1402:1465   */\n      tag_119\n      jumpi\n        /* \"#utility.yul\":1461:1462   */\n      0x00\n        /* \"#utility.yul\":1458:1459   */\n      0x00\n        /* \"#utility.yul\":1451:1463   */\n      revert\n        /* \"#utility.yul\":1402:1465   */\n    tag_119:\n        /* \"#utility.yul\":1349:1471   */\n      pop\n      jump\t// out\n        /* \"#utility.yul\":1477:1616   */\n    tag_34:\n        /* \"#utility.yul\":1523:1528   */\n      0x00\n        /* \"#utility.yul\":1561:1567   */\n      dup2\n        /* \"#utility.yul\":1548:1568   */\n      calldataload\n        /* \"#utility.yul\":1539:1568   */\n      swap1\n      pop\n        /* \"#utility.yul\":1577:1610   */\n      tag_121\n        /* \"#utility.yul\":1604:1609   */\n      dup2\n        /* \"#utility.yul\":1577:1610   */\n      tag_33\n      jump\t// in\n    tag_121:\n        /* \"#utility.yul\":1477:1616   */\n      swap3\n      swap2\n      pop\n      pop\n      jump\t// out\n        /* \"#utility.yul\":1622:1951   */\n    tag_11:\n        /* \"#utility.yul\":1681:1687   */\n      0x00\n        /* \"#utility.yul\":1730:1732   */\n      0x20\n        /* \"#utility.yul\":1718:1727   */\n      dup3\n        /* \"#utility.yul\":1709:1716   */\n      dup5\n        /* \"#utility.yul\":1705:1728   */\n      sub\n        /* \"#utility.yul\":1701:1733   */\n      slt\n        /* \"#utility.yul\":1698:1817   */\n      iszero\n      tag_123\n      jumpi\n        /* \"#utility.yul\":1736:1815   */\n      tag_124\n      tag_28\n      jump\t// in\n    tag_124:\n        /* \"#utility.yul\":1698:1817   */\n    tag_123:\n        /* \"#utility.yul\":1856:1857   */\n      0x00\n        /* \"#utility.yul\":1881:1934   */\n      tag_125\n        /* \"#utility.yul\":1926:1933   */\n      dup5\n        /* \"#utility.yul\":1917:1923   */\n      dup3\n        /* \"#utility.yul\":1906:1915   */\n      dup6\n        /* \"#utility.yul\":1902:1924   */\n      add\n        /* \"#utility.yul\":1881:1934   */\n      tag_34\n      jump\t// in\n    tag_125:\n        /* \"#utility.yul\":1871:1934   */\n      swap2\n      pop\n        /* \"#utility.yul\":1827:1944   */\n      pop\n        /* \"#utility.yul\":1622:1951   */\n      swap3\n      swap2\n      pop\n      pop\n      jump\t// out\n        /* \"#utility.yul\":1957:2056   */\n    tag_35:\n        /* \"#utility.yul\":2009:2015   */\n      0x00\n        /* \"#utility.yul\":2043:2048   */\n      dup2\n        /* \"#utility.yul\":2037:2049   */\n      mload\n        /* \"#utility.yul\":2027:2049   */\n      swap1\n      pop\n        /* \"#utility.yul\":1957:2056   */\n      swap2\n      swap1\n      pop\n      jump\t// out\n        /* \"#utility.yul\":2062:2231   */\n    tag_36:\n        /* \"#utility.yul\":2146:2157   */\n      0x00\n        /* \"#utility.yul\":2180:2186   */\n      dup3\n        /* \"#utility.yul\":2175:2178   */\n      dup3\n        /* \"#utility.yul\":2168:2187   */\n      mstore\n        /* \"#utility.yul\":2220:2224   */\n      0x20\n        /* \"#utility.yul\":2215:2218   */\n      dup3\n        /* \"#utility.yul\":2211:2225   */\n      add\n        /* \"#utility.yul\":2196:2225   */\n      swap1\n      pop\n        /* \"#utility.yul\":2062:2231   */\n      swap3\n      swap2\n      pop\n      pop\n      jump\t// out\n        /* \"#utility.yul\":2237:2376   */\n    tag_37:\n        /* \"#utility.yul\":2326:2332   */\n      dup3\n        /* \"#utility.yul\":2321:2324   */\n      dup2\n        /* \"#utility.yul\":2316:2319   */\n      dup4\n        /* \"#utility.yul\":2310:2333   */\n      mcopy\n        /* \"#utility.yul\":2367:2368   */\n      0x00\n        /* \"#utility.yul\":2358:2364   */\n      dup4\n        /* \"#utility.yul\":2353:2356   */\n      dup4\n        /* \"#utility.yul\":2349:2365   */\n      add\n        /* \"#utility.yul\":2342:2369   */\n      mstore\n        /* \"#utility.yul\":2237:2376   */\n      pop\n      pop\n      pop\n      jump\t// out\n        /* \"#utility.yul\":2382:2484   */\n    tag_38:\n        /* \"#utility.yul\":2423:2429   */\n      0x00\n        /* \"#utility.yul\":2474:2476   */\n      0x1f\n        /* \"#utility.yul\":2470:2477   */\n      not\n        /* \"#utility.yul\":2465:2467   */\n      0x1f\n        /* \"#utility.yul\":2458:2463   */\n      dup4\n        /* \"#utility.yul\":2454:2468   */\n      add\n        /* \"#utility.yul\":2450:2478   */\n      and\n        /* \"#utility.yul\":2440:2478   */\n      swap1\n      pop\n        /* \"#utility.yul\":2382:2484   */\n      swap2\n      swap1\n      pop\n      jump\t// out\n        /* \"#utility.yul\":2490:2867   */\n    tag_39:\n        /* \"#utility.yul\":2578:2581   */\n      0x00\n        /* \"#utility.yul\":2606:2645   */\n      tag_131\n        /* \"#utility.yul\":2639:2644   */\n      dup3\n        /* \"#utility.yul\":2606:2645   */\n      tag_35\n      jump\t// in\n    tag_131:\n        /* \"#utility.yul\":2661:2732   */\n      tag_132\n        /* \"#utility.yul\":2725:2731   */\n      dup2\n        /* \"#utility.yul\":2720:2723   */\n      dup6\n        /* \"#utility.yul\":2661:2732   */\n      tag_36\n      jump\t// in\n    tag_132:\n        /* \"#utility.yul\":2654:2732   */\n      swap4\n      pop\n        /* \"#utility.yul\":2741:2806   */\n      tag_133\n        /* \"#utility.yul\":2799:2805   */\n      dup2\n        /* \"#utility.yul\":2794:2797   */\n      dup6\n        /* \"#utility.yul\":2787:2791   */\n      0x20\n        /* \"#utility.yul\":2780:2785   */\n      dup7\n        /* \"#utility.yul\":2776:2792   */\n      add\n        /* \"#utility.yul\":2741:2806   */\n      tag_37\n      jump\t// in\n    tag_133:\n        /* \"#utility.yul\":2831:2860   */\n      tag_134\n        /* \"#utility.yul\":2853:2859   */\n      dup2\n        /* \"#utility.yul\":2831:2860   */\n      tag_38\n      jump\t// in\n    tag_134:\n        /* \"#utility.yul\":2826:2829   */\n      dup5\n        /* \"#utility.yul\":2822:2861   */\n      add\n        /* \"#utility.yul\":2815:2861   */\n      swap2\n      pop\n        /* \"#utility.yul\":2582:2867   */\n      pop\n        /* \"#utility.yul\":2490:2867   */\n      swap3\n      swap2\n      pop\n      pop\n      jump\t// out\n        /* \"#utility.yul\":2873:2959   */\n    tag_40:\n        /* \"#utility.yul\":2908:2915   */\n      0x00\n        /* \"#utility.yul\":2948:2952   */\n      0xff\n        /* \"#utility.yul\":2941:2946   */\n      dup3\n        /* \"#utility.yul\":2937:2953   */\n      and\n        /* \"#utility.yul\":2926:2953   */\n      swap1\n      pop\n        /* \"#utility.yul\":2873:2959   */\n      swap2\n      swap1\n      pop\n      jump\t// out\n        /* \"#utility.yul\":2965:3077   */\n    tag_41:\n        /* \"#utility.yul\":3048:3070   */\n      tag_137\n        /* \"#utility.yul\":3064:3069   */\n      dup2\n        /* \"#utility.yul\":3048:3070   */\n      tag_40\n      jump\t// in\n    tag_137:\n        /* \"#utility.yul\":3043:3046   */\n      dup3\n        /* \"#utility.yul\":3036:3071   */\n      mstore\n        /* \"#utility.yul\":2965:3077   */\n      pop\n      pop\n      jump\t// out\n        /* \"#utility.yul\":3083:3498   */\n    tag_14:\n        /* \"#utility.yul\":3220:3224   */\n      0x00\n        /* \"#utility.yul\":3258:3260   */\n      0x40\n        /* \"#utility.yul\":3247:3256   */\n      dup3\n        /* \"#utility.yul\":3243:3261   */\n      add\n        /* \"#utility.yul\":3235:3261   */\n      swap1\n      pop\n        /* \"#utility.yul\":3307:3316   */\n      dup2\n        /* \"#utility.yul\":3301:3305   */\n      dup2\n        /* \"#utility.yul\":3297:3317   */\n      sub\n        /* \"#utility.yul\":3293:3294   */\n      0x00\n        /* \"#utility.yul\":3282:3291   */\n      dup4\n        /* \"#utility.yul\":3278:3295   */\n      add\n        /* \"#utility.yul\":3271:3318   */\n      mstore\n        /* \"#utility.yul\":3335:3413   */\n      tag_139\n        /* \"#utility.yul\":3408:3412   */\n      dup2\n        /* \"#utility.yul\":3399:3405   */\n      dup6\n        /* \"#utility.yul\":3335:3413   */\n      tag_39\n      jump\t// in\n    tag_139:\n        /* \"#utility.yul\":3327:3413   */\n      swap1\n      pop\n        /* \"#utility.yul\":3423:3491   */\n      tag_140\n        /* \"#utility.yul\":3487:3489   */\n      0x20\n        /* \"#utility.yul\":3476:3485   */\n      dup4\n        /* \"#utility.yul\":3472:3490   */\n      add\n        /* \"#utility.yul\":3463:3469   */\n      dup5\n        /* \"#utility.yul\":3423:3491   */\n      tag_41\n      jump\t// in\n    tag_140:\n        /* \"#utility.yul\":3083:3498   */\n      swap4\n      swap3\n      pop\n      pop\n      pop\n      jump\t// out\n        /* \"#utility.yul\":3504:3684   */\n    tag_42:\n        /* \"#utility.yul\":3552:3629   */\n      0x4e487b7100000000000000000000000000000000000000000000000000000000\n        /* \"#utility.yul\":3549:3550   */\n      0x00\n        /* \"#utility.yul\":3542:3630   */\n      mstore\n        /* \"#utility.yul\":3649:3653   */\n      0x00\n        /* \"#utility.yul\":3646:3647   */\n      0x04\n        /* \"#utility.yul\":3639:3654   */\n      mstore\n        /* \"#utility.yul\":3673:3677   */\n      0x24\n        /* \"#utility.yul\":3670:3671   */\n      0x00\n        /* \"#utility.yul\":3663:3678   */\n      revert\n        /* \"#utility.yul\":3690:3807   */\n    tag_43:\n        /* \"#utility.yul\":3799:3800   */\n      0x00\n        /* \"#utility.yul\":3796:3797   */\n      0x00\n        /* \"#utility.yul\":3789:3801   */\n      revert\n        /* \"#utility.yul\":3813:3930   */\n    tag_44:\n        /* \"#utility.yul\":3922:3923   */\n      0x00\n        /* \"#utility.yul\":3919:3920   */\n      0x00\n        /* \"#utility.yul\":3912:3924   */\n      revert\n        /* \"#utility.yul\":3936:4053   */\n    tag_45:\n        /* \"#utility.yul\":4045:4046   */\n      0x00\n        /* \"#utility.yul\":4042:4043   */\n      0x00\n        /* \"#utility.yul\":4035:4047   */\n      revert\n        /* \"#utility.yul\":4059:4784   */\n    tag_46:\n        /* \"#utility.yul\":4137:4141   */\n      0x00\n        /* \"#utility.yul\":4143:4149   */\n      0x00\n        /* \"#utility.yul\":4199:4210   */\n      dup4\n        /* \"#utility.yul\":4186:4211   */\n      calldataload\n        /* \"#utility.yul\":4299:4300   */\n      0x01\n        /* \"#utility.yul\":4293:4297   */\n      0x20\n        /* \"#utility.yul\":4289:4301   */\n      sub\n        /* \"#utility.yul\":4278:4286   */\n      dup5\n        /* \"#utility.yul\":4262:4276   */\n      calldatasize\n        /* \"#utility.yul\":4258:4287   */\n      sub\n        /* \"#utility.yul\":4254:4302   */\n      sub\n        /* \"#utility.yul\":4234:4252   */\n      dup2\n        /* \"#utility.yul\":4230:4303   */\n      slt\n        /* \"#utility.yul\":4220:4388   */\n      tag_146\n      jumpi\n        /* \"#utility.yul\":4307:4386   */\n      tag_147\n      tag_43\n      jump\t// in\n    tag_147:\n        /* \"#utility.yul\":4220:4388   */\n    tag_146:\n        /* \"#utility.yul\":4419:4437   */\n      dup1\n        /* \"#utility.yul\":4409:4417   */\n      dup5\n        /* \"#utility.yul\":4405:4438   */\n      add\n        /* \"#utility.yul\":4397:4438   */\n      swap3\n      pop\n        /* \"#utility.yul\":4471:4475   */\n      dup3\n        /* \"#utility.yul\":4458:4476   */\n      calldataload\n        /* \"#utility.yul\":4448:4476   */\n      swap2\n      pop\n        /* \"#utility.yul\":4499:4517   */\n      0xffffffffffffffff\n        /* \"#utility.yul\":4491:4497   */\n      dup3\n        /* \"#utility.yul\":4488:4518   */\n      gt\n        /* \"#utility.yul\":4485:4602   */\n      iszero\n      tag_148\n      jumpi\n        /* \"#utility.yul\":4521:4600   */\n      tag_149\n      tag_44\n      jump\t// in\n    tag_149:\n        /* \"#utility.yul\":4485:4602   */\n    tag_148:\n        /* \"#utility.yul\":4629:4631   */\n      0x20\n        /* \"#utility.yul\":4623:4627   */\n      dup4\n        /* \"#utility.yul\":4619:4632   */\n      add\n        /* \"#utility.yul\":4611:4632   */\n      swap3\n      pop\n        /* \"#utility.yul\":4686:4690   */\n      0x01\n        /* \"#utility.yul\":4678:4684   */\n      dup3\n        /* \"#utility.yul\":4674:4691   */\n      mul\n        /* \"#utility.yul\":4658:4672   */\n      calldatasize\n        /* \"#utility.yul\":4654:4692   */\n      sub\n        /* \"#utility.yul\":4648:4652   */\n      dup4\n        /* \"#utility.yul\":4644:4693   */\n      sgt\n        /* \"#utility.yul\":4641:4777   */\n      iszero\n      tag_150\n      jumpi\n        /* \"#utility.yul\":4696:4775   */\n      tag_151\n      tag_45\n      jump\t// in\n    tag_151:\n        /* \"#utility.yul\":4641:4777   */\n    tag_150:\n        /* \"#utility.yul\":4150:4784   */\n      pop\n        /* \"#utility.yul\":4059:4784   */\n      swap3\n      pop\n      swap3\n      swap1\n      pop\n      jump\t// out\n        /* \"#utility.yul\":4790:4887   */\n    tag_47:\n        /* \"#utility.yul\":4849:4855   */\n      0x00\n        /* \"#utility.yul\":4877:4880   */\n      dup3\n        /* \"#utility.yul\":4867:4880   */\n      swap1\n      pop\n        /* \"#utility.yul\":4790:4887   */\n      swap3\n      swap2\n      pop\n      pop\n      jump\t// out\n        /* \"#utility.yul\":4893:5073   */\n    tag_48:\n        /* \"#utility.yul\":4941:5018   */\n      0x4e487b7100000000000000000000000000000000000000000000000000000000\n        /* \"#utility.yul\":4938:4939   */\n      0x00\n        /* \"#utility.yul\":4931:5019   */\n      mstore\n        /* \"#utility.yul\":5038:5042   */\n      0x41\n        /* \"#utility.yul\":5035:5036   */\n      0x04\n        /* \"#utility.yul\":5028:5043   */\n      mstore\n        /* \"#utility.yul\":5062:5066   */\n      0x24\n        /* \"#utility.yul\":5059:5060   */\n      0x00\n        /* \"#utility.yul\":5052:5067   */\n      revert\n        /* \"#utility.yul\":5079:5259   */\n    tag_49:\n        /* \"#utility.yul\":5127:5204   */\n      0x4e487b7100000000000000000000000000000000000000000000000000000000\n        /* \"#utility.yul\":5124:5125   */\n      0x00\n        /* \"#utility.yul\":5117:5205   */\n      mstore\n        /* \"#utility.yul\":5224:5228   */\n      0x22\n        /* \"#utility.yul\":5221:5222   */\n      0x04\n        /* \"#utility.yul\":5214:5229   */\n      mstore\n        /* \"#utility.yul\":5248:5252   */\n      0x24\n        /* \"#utility.yul\":5245:5246   */\n      0x00\n        /* \"#utility.yul\":5238:5253   */\n      revert\n        /* \"#utility.yul\":5265:5585   */\n    tag_22:\n        /* \"#utility.yul\":5309:5315   */\n      0x00\n        /* \"#utility.yul\":5346:5347   */\n      0x02\n        /* \"#utility.yul\":5340:5344   */\n      dup3\n        /* \"#utility.yul\":5336:5348   */\n      div\n        /* \"#utility.yul\":5326:5348   */\n      swap1\n      pop\n        /* \"#utility.yul\":5393:5394   */\n      0x01\n        /* \"#utility.yul\":5387:5391   */\n      dup3\n        /* \"#utility.yul\":5383:5395   */\n      and\n        /* \"#utility.yul\":5414:5432   */\n      dup1\n        /* \"#utility.yul\":5404:5485   */\n      tag_156\n      jumpi\n        /* \"#utility.yul\":5470:5474   */\n      0x7f\n        /* \"#utility.yul\":5462:5468   */\n      dup3\n        /* \"#utility.yul\":5458:5475   */\n      and\n        /* \"#utility.yul\":5448:5475   */\n      swap2\n      pop\n        /* \"#utility.yul\":5404:5485   */\n    tag_156:\n        /* \"#utility.yul\":5532:5534   */\n      0x20\n        /* \"#utility.yul\":5524:5530   */\n      dup3\n        /* \"#utility.yul\":5521:5535   */\n      lt\n        /* \"#utility.yul\":5501:5519   */\n      dup2\n        /* \"#utility.yul\":5498:5536   */\n      sub\n        /* \"#utility.yul\":5495:5579   */\n      tag_157\n      jumpi\n        /* \"#utility.yul\":5551:5569   */\n      tag_158\n      tag_49\n      jump\t// in\n    tag_158:\n        /* \"#utility.yul\":5495:5579   */\n    tag_157:\n        /* \"#utility.yul\":5316:5585   */\n      pop\n        /* \"#utility.yul\":5265:5585   */\n      swap2\n      swap1\n      pop\n      jump\t// out\n        /* \"#utility.yul\":5591:5732   */\n    tag_50:\n        /* \"#utility.yul\":5640:5644   */\n      0x00\n        /* \"#utility.yul\":5663:5666   */\n      dup2\n        /* \"#utility.yul\":5655:5666   */\n      swap1\n      pop\n        /* \"#utility.yul\":5686:5689   */\n      dup2\n        /* \"#utility.yul\":5683:5684   */\n      0x00\n        /* \"#utility.yul\":5676:5690   */\n      mstore\n        /* \"#utility.yul\":5720:5724   */\n      0x20\n        /* \"#utility.yul\":5717:5718   */\n      0x00\n        /* \"#utility.yul\":5707:5725   */\n      keccak256\n        /* \"#utility.yul\":5699:5725   */\n      swap1\n      pop\n        /* \"#utility.yul\":5591:5732   */\n      swap2\n      swap1\n      pop\n      jump\t// out\n        /* \"#utility.yul\":5738:5831   */\n    tag_51:\n        /* \"#utility.yul\":5775:5781   */\n      0x00\n        /* \"#utility.yul\":5822:5824   */\n      0x20\n        /* \"#utility.yul\":5817:5819   */\n      0x1f\n        /* \"#utility.yul\":5810:5815   */\n      dup4\n        /* \"#utility.yul\":5806:5820   */\n      add\n        /* \"#utility.yul\":5802:5825   */\n      div\n        /* \"#utility.yul\":5792:5825   */\n      swap1\n      pop\n        /* \"#utility.yul\":5738:5831   */\n      swap2\n      swap1\n      pop\n      jump\t// out\n        /* \"#utility.yul\":5837:5944   */\n    tag_52:\n        /* \"#utility.yul\":5881:5889   */\n      0x00\n        /* \"#utility.yul\":5931:5936   */\n      dup3\n        /* \"#utility.yul\":5925:5929   */\n      dup3\n        /* \"#utility.yul\":5921:5937   */\n      shl\n        /* \"#utility.yul\":5900:5937   */\n      swap1\n      pop\n        /* \"#utility.yul\":5837:5944   */\n      swap3\n      swap2\n      pop\n      pop\n      jump\t// out\n        /* \"#utility.yul\":5950:6343   */\n    tag_53:\n        /* \"#utility.yul\":6019:6025   */\n      0x00\n        /* \"#utility.yul\":6069:6070   */\n      0x08\n        /* \"#utility.yul\":6057:6067   */\n      dup4\n        /* \"#utility.yul\":6053:6071   */\n      mul\n        /* \"#utility.yul\":6092:6189   */\n      tag_163\n        /* \"#utility.yul\":6122:6188   */\n      0xffffffffffffffffffffffffffffffffffffffffffffffffffffffffffffffff\n        /* \"#utility.yul\":6111:6120   */\n      dup3\n        /* \"#utility.yul\":6092:6189   */\n      tag_52\n      jump\t// in\n    tag_163:\n        /* \"#utility.yul\":6210:6249   */\n      tag_164\n        /* \"#utility.yul\":6240:6248   */\n      dup7\n        /* \"#utility.yul\":6229:6238   */\n      dup4\n        /* \"#utility.yul\":6210:6249   */\n      tag_52\n      jump\t// in\n    tag_164:\n        /* \"#utility.yul\":6198:6249   */\n      swap6\n      pop\n        /* \"#utility.yul\":6282:6286   */\n      dup1\n        /* \"#utility.yul\":6278:6287   */\n      not\n        /* \"#utility.yul\":6271:6276   */\n      dup5\n        /* \"#utility.yul\":6267:6288   */\n      and\n        /* \"#utility.yul\":6258:6288   */\n      swap4\n      pop\n        /* \"#utility.yul\":6331:6335   */\n      dup1\n        /* \"#utility.yul\":6321:6329   */\n      dup7\n        /* \"#utility.yul\":6317:6336   */\n      and\n        /* \"#utility.yul\":6310:6315   */\n      dup5\n        /* \"#utility.yul\":6307:6337   */\n      or\n        /* \"#utility.yul\":6297:6337   */\n      swap3\n      pop\n        /* \"#utility.yul\":6026:6343   */\n      pop\n      pop\n        /* \"#utility.yul\":5950:6343   */\n      swap4\n      swap3\n      pop\n      pop\n      pop\n      jump\t// out\n        /* \"#utility.yul\":6349:6409   */\n    tag_54:\n        /* \"#utility.yul\":6377:6380   */\n      0x00\n        /* \"#utility.yul\":6398:6403   */\n      dup2\n        /* \"#utility.yul\":6391:6403   */\n      swap1\n      pop\n        /* \"#utility.yul\":6349:6409   */\n      swap2\n      swap1\n      pop\n      jump\t// out\n        /* \"#utility.yul\":6415:6557   */\n    tag_55:\n        /* \"#utility.yul\":6465:6474   */\n      0x00\n        /* \"#utility.yul\":6498:6551   */\n      tag_167\n        /* \"#utility.yul\":6516:6550   */\n      tag_168\n        /* \"#utility.yul\":6525:6549   */\n      tag_169\n        /* \"#utility.yul\":6543:6548   */\n      dup5\n        /* \"#utility.yul\":6525:6549   */\n      tag_32\n      jump\t// in\n    tag_169:\n        /* \"#utility.yul\":6516:6550   */\n      tag_54\n      jump\t// in\n    tag_168:\n        /* \"#utility.yul\":6498:6551   */\n      tag_32\n      jump\t// in\n    tag_167:\n        /* \"#utility.yul\":6485:6551   */\n      swap1\n      pop\n        /* \"#utility.yul\":6415:6557   */\n      swap2\n      swap1\n      pop\n      jump\t// out\n        /* \"#utility.yul\":6563:6638   */\n    tag_56:\n        /* \"#utility.yul\":6606:6609   */\n      0x00\n        /* \"#utility.yul\":6627:6632   */\n      dup2\n        /* \"#utility.yul\":6620:6632   */\n      swap1\n      pop\n        /* \"#utility.yul\":6563:6638   */\n      swap2\n      swap1\n      pop\n      jump\t// out\n        /* \"#utility.yul\":6644:6913   */\n    tag_57:\n        /* \"#utility.yul\":6754:6793   */\n      tag_172\n        /* \"#utility.yul\":6785:6792   */\n      dup4\n        /* \"#utility.yul\":6754:6793   */\n      tag_55\n      jump\t// in\n    tag_172:\n        /* \"#utility.yul\":6815:6906   */\n      tag_173\n        /* \"#utility.yul\":6864:6905   */\n      tag_174\n        /* \"#utility.yul\":6888:6904   */\n      dup3\n        /* \"#utility.yul\":6864:6905   */\n      tag_56\n      jump\t// in\n    tag_174:\n        /* \"#utility.yul\":6856:6862   */\n      dup5\n        /* \"#utility.yul\":6849:6853   */\n      dup5\n        /* \"#utility.yul\":6843:6854   */\n      sload\n        /* \"#utility.yul\":6815:6906   */\n      tag_53\n      jump\t// in\n    tag_173:\n        /* \"#utility.yul\":6809:6813   */\n      dup3\n        /* \"#utility.yul\":6802:6907   */\n      sstore\n        /* \"#utility.yul\":6720:6913   */\n      pop\n        /* \"#utility.yul\":6644:6913   */\n      pop\n      pop\n      pop\n      jump\t// out\n        /* \"#utility.yul\":6919:6992   */\n    tag_58:\n        /* \"#utility.yul\":6964:6967   */\n      0x00\n        /* \"#utility.yul\":6985:6986   */\n      0x00\n        /* \"#utility.yul\":6978:6986   */\n      swap1\n      pop\n        /* \"#utility.yul\":6919:6992   */\n      swap1\n      jump\t// out\n        /* \"#utility.yul\":6998:7187   */\n    tag_59:\n        /* \"#utility.yul\":7075:7107   */\n      tag_177\n      tag_58\n      jump\t// in\n    tag_177:\n        /* \"#utility.yul\":7116:7181   */\n      tag_178\n        /* \"#utility.yul\":7174:7180   */\n      dup2\n        /* \"#utility.yul\":7166:7172   */\n      dup5\n        /* \"#utility.yul\":7160:7164   */\n      dup5\n        /* \"#utility.yul\":7116:7181   */\n      tag_57\n      jump\t// in\n    tag_178:\n        /* \"#utility.yul\":7051:7187   */\n      pop\n        /* \"#utility.yul\":6998:7187   */\n      pop\n      pop\n      jump\t// out\n        /* \"#utility.yul\":7193:7379   */\n    tag_60:\n        /* \"#utility.yul\":7253:7373   */\n    tag_180:\n        /* \"#utility.yul\":7270:7273   */\n      dup2\n        /* \"#utility.yul\":7263:7268   */\n      dup2\n        /* \"#utility.yul\":7260:7274   */\n      lt\n        /* \"#utility.yul\":7253:7373   */\n      iszero\n      tag_182\n      jumpi\n        /* \"#utility.yul\":7324:7363   */\n      tag_183\n        /* \"#utility.yul\":7361:7362   */\n      0x00\n        /* \"#utility.yul\":7354:7359   */\n      dup3\n        /* \"#utility.yul\":7324:7363   */\n      tag_59\n      jump\t// in\n    tag_183:\n        /* \"#utility.yul\":7297:7298   */\n      0x01\n        /* \"#utility.yul\":7290:7295   */\n      dup2\n        /* \"#utility.yul\":7286:7299   */\n      add\n        /* \"#utility.yul\":7277:7299   */\n      swap1\n      pop\n        /* \"#utility.yul\":7253:7373   */\n      jump(tag_180)\n    tag_182:\n        /* \"#utility.yul\":7193:7379   */\n      pop\n      pop\n      jump\t// out\n        /* \"#utility.yul\":7385:7928   */\n    tag_61:\n        /* \"#utility.yul\":7486:7488   */\n      0x1f\n        /* \"#utility.yul\":7481:7484   */\n      dup3\n        /* \"#utility.yul\":7478:7489   */\n      gt\n        /* \"#utility.yul\":7475:7921   */\n      iszero\n      tag_185\n      jumpi\n        /* \"#utility.yul\":7520:7558   */\n      tag_186\n        /* \"#utility.yul\":7552:7557   */\n      dup2\n        /* \"#utility.yul\":7520:7558   */\n      tag_50\n      jump\t// in\n    tag_186:\n        /* \"#utility.yul\":7604:7633   */\n      tag_187\n        /* \"#utility.yul\":7622:7632   */\n      dup5\n        /* \"#utility.yul\":7604:7633   */\n      tag_51\n      jump\t// in\n    tag_187:\n        /* \"#utility.yul\":7594:7602   */\n      dup2\n        /* \"#utility.yul\":7590:7634   */\n      add\n        /* \"#utility.yul\":7787:7789   */\n      0x20\n        /* \"#utility.yul\":7775:7785   */\n      dup6\n        /* \"#utility.yul\":7772:7790   */\n      lt\n        /* \"#utility.yul\":7769:7818   */\n      iszero\n      tag_188\n      jumpi\n        /* \"#utility.yul\":7808:7816   */\n      dup2\n        /* \"#utility.yul\":7793:7816   */\n      swap1\n      pop\n        /* \"#utility.yul\":7769:7818   */\n    tag_188:\n        /* \"#utility.yul\":7831:7911   */\n      tag_189\n        /* \"#utility.yul\":7887:7909   */\n      tag_190\n        /* \"#utility.yul\":7905:7908   */\n      dup6\n        /* \"#utility.yul\":7887:7909   */\n      tag_51\n      jump\t// in\n    tag_190:\n        /* \"#utility.yul\":7877:7885   */\n      dup4\n        /* \"#utility.yul\":7873:7910   */\n      add\n        /* \"#utility.yul\":7860:7871   */\n      dup3\n        /* \"#utility.yul\":7831:7911   */\n      tag_60\n      jump\t// in\n    tag_189:\n        /* \"#utility.yul\":7490:7921   */\n      pop\n      pop\n        /* \"#utility.yul\":7475:7921   */\n    tag_185:\n        /* \"#utility.yul\":7385:7928   */\n      pop\n      pop\n      pop\n      jump\t// out\n        /* \"#utility.yul\":7934:8051   */\n    tag_62:\n        /* \"#utility.yul\":7988:7996   */\n      0x00\n        /* \"#utility.yul\":8038:8043   */\n      dup3\n        /* \"#utility.yul\":8032:8036   */\n      dup3\n        /* \"#utility.yul\":8028:8044   */\n      shr\n        /* \"#utility.yul\":8007:8044   */\n      swap1\n      pop\n        /* \"#utility.yul\":7934:8051   */\n      swap3\n      swap2\n      pop\n      pop\n      jump\t// out\n        /* \"#utility.yul\":8057:8226   */\n    tag_63:\n        /* \"#utility.yul\":8101:8107   */\n      0x00\n        /* \"#utility.yul\":8134:8185   */\n      tag_193\n        /* \"#utility.yul\":8182:8183   */\n      0x00\n        /* \"#utility.yul\":8178:8184   */\n      not\n        /* \"#utility.yul\":8170:8175   */\n      dup5\n        /* \"#utility.yul\":8167:8168   */\n      0x08\n        /* \"#utility.yul\":8163:8176   */\n      mul\n        /* \"#utility.yul\":8134:8185   */\n      tag_62\n      jump\t// in\n    tag_193:\n        /* \"#utility.yul\":8130:8186   */\n      not\n        /* \"#utility.yul\":8215:8219   */\n      dup1\n        /* \"#utility.yul\":8209:8213   */\n      dup4\n        /* \"#utility.yul\":8205:8220   */\n      and\n        /* \"#utility.yul\":8195:8220   */\n      swap2\n      pop\n        /* \"#utility.yul\":8108:8226   */\n      pop\n        /* \"#utility.yul\":8057:8226   */\n      swap3\n      swap2\n      pop\n      pop\n      jump\t// out\n        /* \"#utility.yul\":8231:8526   */\n    tag_64:\n        /* \"#utility.yul\":8307:8311   */\n      0x00\n        /* \"#utility.yul\":8453:8482   */\n      tag_195\n        /* \"#utility.yul\":8478:8481   */\n      dup4\n        /* \"#utility.yul\":8472:8476   */\n      dup4\n        /* \"#utility.yul\":8453:8482   */\n      tag_63\n      jump\t// in\n    tag_195:\n        /* \"#utility.yul\":8445:8482   */\n      swap2\n      pop\n        /* \"#utility.yul\":8515:8518   */\n      dup3\n        /* \"#utility.yul\":8512:8513   */\n      0x02\n        /* \"#utility.yul\":8508:8519   */\n      mul\n        /* \"#utility.yul\":8502:8506   */\n      dup3\n        /* \"#utility.yul\":8499:8520   */\n      or\n        /* \"#utility.yul\":8491:8520   */\n      swap1\n      pop\n        /* \"#utility.yul\":8231:8526   */\n      swap3\n      swap2\n      pop\n      pop\n      jump\t// out\n        /* \"#utility.yul\":8531:9934   */\n    tag_65:\n        /* \"#utility.yul\":8655:8699   */\n      tag_197\n        /* \"#utility.yul\":8695:8698   */\n      dup4\n        /* \"#utility.yul\":8690:8693   */\n      dup4\n        /* \"#utility.yul\":8655:8699   */\n      tag_47\n      jump\t// in\n    tag_197:\n        /* \"#utility.yul\":8764:8782   */\n      0xffffffffffffffff\n        /* \"#utility.yul\":8756:8762   */\n      dup2\n        /* \"#utility.yul\":8753:8783   */\n      gt\n        /* \"#utility.yul\":8750:8806   */\n      iszero\n      tag_198\n      jumpi\n        /* \"#utility.yul\":8786:8804   */\n      tag_199\n      tag_48\n      jump\t// in\n    tag_199:\n        /* \"#utility.yul\":8750:8806   */\n    tag_198:\n        /* \"#utility.yul\":8830:8868   */\n      tag_200\n        /* \"#utility.yul\":8862:8866   */\n      dup3\n        /* \"#utility.yul\":8856:8867   */\n      sload\n        /* \"#utility.yul\":8830:8868   */\n      tag_22\n      jump\t// in\n    tag_200:\n        /* \"#utility.yul\":8915:8982   */\n      tag_201\n        /* \"#utility.yul\":8975:8981   */\n      dup3\n        /* \"#utility.yul\":8967:8973   */\n      dup3\n        /* \"#utility.yul\":8961:8965   */\n      dup6\n        /* \"#utility.yul\":8915:8982   */\n      tag_61\n      jump\t// in\n    tag_201:\n        /* \"#utility.yul\":9009:9010   */\n      0x00\n        /* \"#utility.yul\":9038:9040   */\n      0x1f\n        /* \"#utility.yul\":9030:9036   */\n      dup4\n        /* \"#utility.yul\":9027:9041   */\n      gt\n        /* \"#utility.yul\":9055:9056   */\n      0x01\n        /* \"#utility.yul\":9050:9682   */\n      dup2\n      eq\n      tag_203\n      jumpi\n        /* \"#utility.yul\":9726:9727   */\n      0x00\n        /* \"#utility.yul\":9743:9749   */\n      dup5\n        /* \"#utility.yul\":9740:9824   */\n      iszero\n      tag_204\n      jumpi\n        /* \"#utility.yul\":9799:9808   */\n      dup3\n        /* \"#utility.yul\":9794:9797   */\n      dup8\n        /* \"#utility.yul\":9790:9809   */\n      add\n        /* \"#utility.yul\":9777:9810   */\n      calldataload\n        /* \"#utility.yul\":9768:9810   */\n      swap1\n      pop\n        /* \"#utility.yul\":9740:9824   */\n    tag_204:\n        /* \"#utility.yul\":9850:9917   */\n      tag_205\n        /* \"#utility.yul\":9910:9916   */\n      dup6\n        /* \"#utility.yul\":9903:9908   */\n      dup3\n        /* \"#utility.yul\":9850:9917   */\n      tag_64\n      jump\t// in\n    tag_205:\n        /* \"#utility.yul\":9844:9848   */\n      dup7\n        /* \"#utility.yul\":9837:9918   */\n      sstore\n        /* \"#utility.yul\":9699:9928   */\n      pop\n        /* \"#utility.yul\":9020:9928   */\n      jump(tag_202)\n        /* \"#utility.yul\":9050:9682   */\n    tag_203:\n        /* \"#utility.yul\":9102:9106   */\n      0x1f\n        /* \"#utility.yul\":9098:9107   */\n      not\n        /* \"#utility.yul\":9090:9096   */\n      dup5\n        /* \"#utility.yul\":9086:9108   */\n      and\n        /* \"#utility.yul\":9136:9173   */\n      tag_206\n        /* \"#utility.yul\":9168:9172   */\n      dup7\n        /* \"#utility.yul\":9136:9173   */\n      tag_50\n      jump\t// in\n    tag_206:\n        /* \"#utility.yul\":9195:9196   */\n      0x00\n        /* \"#utility.yul\":9209:9424   */\n    tag_207:\n        /* \"#utility.yul\":9223:9230   */\n      dup3\n        /* \"#utility.yul\":9220:9221   */\n      dup2\n        /* \"#utility.yul\":9217:9231   */\n      lt\n        /* \"#utility.yul\":9209:9424   */\n      iszero\n      tag_209\n      jumpi\n        /* \"#utility.yul\":9309:9318   */\n      dup5\n        /* \"#utility.yul\":9304:9307   */\n      dup10\n        /* \"#utility.yul\":9300:9319   */\n      add\n        /* \"#utility.yul\":9287:9320   */\n      calldataload\n        /* \"#utility.yul\":9279:9285   */\n      dup3\n        /* \"#utility.yul\":9272:9321   */\n      sstore\n        /* \"#utility.yul\":9360:9361   */\n      0x01\n        /* \"#utility.yul\":9352:9358   */\n      dup3\n        /* \"#utility.yul\":9348:9362   */\n      add\n        /* \"#utility.yul\":9338:9362   */\n      swap2\n      pop\n        /* \"#utility.yul\":9407:9409   */\n      0x20\n        /* \"#utility.yul\":9396:9405   */\n      dup6\n        /* \"#utility.yul\":9392:9410   */\n      add\n        /* \"#utility.yul\":9379:9410   */\n      swap5\n      pop\n        /* \"#utility.yul\":9246:9250   */\n      0x20\n        /* \"#utility.yul\":9243:9244   */\n      dup2\n        /* \"#utility.yul\":9239:9251   */\n      add\n        /* \"#utility.yul\":9234:9251   */\n      swap1\n      pop\n        /* \"#utility.yul\":9209:9424   */\n      jump(tag_207)\n    tag_209:\n        /* \"#utility.yul\":9452:9458   */\n      dup7\n        /* \"#utility.yul\":9443:9450   */\n      dup4\n        /* \"#utility.yul\":9440:9459   */\n      lt\n        /* \"#utility.yul\":9437:9623   */\n      iszero\n      tag_210\n      jumpi\n        /* \"#utility.yul\":9517:9526   */\n      dup5\n        /* \"#utility.yul\":9512:9515   */\n      dup10\n        /* \"#utility.yul\":9508:9527   */\n      add\n        /* \"#utility.yul\":9495:9528   */\n      calldataload\n        /* \"#utility.yul\":9560:9608   */\n      tag_211\n        /* \"#utility.yul\":9602:9606   */\n      0x1f\n        /* \"#utility.yul\":9594:9600   */\n      dup10\n        /* \"#utility.yul\":9590:9607   */\n      and\n        /* \"#utility.yul\":9579:9588   */\n      dup3\n        /* \"#utility.yul\":9560:9608   */\n      tag_63\n      jump\t// in\n    tag_211:\n        /* \"#utility.yul\":9552:9558   */\n      dup4\n        /* \"#utility.yul\":9545:9609   */\n      sstore\n        /* \"#utility.yul\":9460:9623   */\n      pop\n        /* \"#utility.yul\":9437:9623   */\n    tag_210:\n        /* \"#utility.yul\":9669:9670   */\n      0x01\n        /* \"#utility.yul\":9665:9666   */\n      0x02\n        /* \"#utility.yul\":9657:9663   */\n      dup9\n        /* \"#utility.yul\":9653:9667   */\n      mul\n        /* \"#utility.yul\":9649:9671   */\n      add\n        /* \"#utility.yul\":9643:9647   */\n      dup9\n        /* \"#utility.yul\":9636:9672   */\n      sstore\n        /* \"#utility.yul\":9057:9682   */\n      pop\n      pop\n      pop\n        /* \"#utility.yul\":9020:9928   */\n    tag_202:\n      pop\n        /* \"#utility.yul\":8630:9934   */\n      pop\n      pop\n      pop\n        /* \"#utility.yul\":8531:9934   */\n      pop\n      pop\n      pop\n      jump\t// out\n        /* \"#utility.yul\":9940:10159   */\n    tag_66:\n        /* \"#utility.yul\":10056:10153   */\n      tag_213\n        /* \"#utility.yul\":10145:10152   */\n      dup4\n        /* \"#utility.yul\":10136:10143   */\n      dup4\n        /* \"#utility.yul\":10130:10134   */\n      dup4\n        /* \"#utility.yul\":10056:10153   */\n      tag_65\n      jump\t// in\n    tag_213:\n        /* \"#utility.yul\":9940:10159   */\n      pop\n      pop\n      pop\n      jump\t// out\n        /* \"#utility.yul\":10165:10283   */\n    tag_67:\n        /* \"#utility.yul\":10236:10258   */\n      tag_215\n        /* \"#utility.yul\":10252:10257   */\n      dup2\n        /* \"#utility.yul\":10236:10258   */\n      tag_40\n      jump\t// in\n    tag_215:\n        /* \"#utility.yul\":10229:10234   */\n      dup2\n        /* \"#utility.yul\":10226:10259   */\n      eq\n        /* \"#utility.yul\":10216:10277   */\n      tag_216\n      jumpi\n        /* \"#utility.yul\":10273:10274   */\n      0x00\n        /* \"#utility.yul\":10270:10271   */\n      0x00\n        /* \"#utility.yul\":10263:10275   */\n      revert\n        /* \"#utility.yul\":10216:10277   */\n    tag_216:\n        /* \"#utility.yul\":10165:10283   */\n      pop\n      jump\t// out\n        /* \"#utility.yul\":10289:10471   */\n    tag_68:\n        /* \"#utility.yul\":10332:10343   */\n      0x00\n        /* \"#utility.yul\":10381:10384   */\n      dup2\n        /* \"#utility.yul\":10368:10385   */\n      calldataload\n        /* \"#utility.yul\":10394:10425   */\n      tag_218\n        /* \"#utility.yul\":10419:10424   */\n      dup2\n        /* \"#utility.yul\":10394:10425   */\n      tag_67\n      jump\t// in\n    tag_218:\n        /* \"#utility.yul\":10459:10464   */\n      dup1\n        /* \"#utility.yul\":10435:10464   */\n      swap2\n      pop\n        /* \"#utility.yul\":10344:10471   */\n      pop\n        /* \"#utility.yul\":10289:10471   */\n      swap2\n      swap1\n      pop\n      jump\t// out\n        /* \"#utility.yul\":10477:10569   */\n    tag_69:\n        /* \"#utility.yul\":10509:10517   */\n      0x00\n        /* \"#utility.yul\":10556:10561   */\n      dup2\n        /* \"#utility.yul\":10553:10554   */\n      0x00\n        /* \"#utility.yul\":10549:10562   */\n      shl\n        /* \"#utility.yul\":10528:10562   */\n      swap1\n      pop\n        /* \"#utility.yul\":10477:10569   */\n      swap2\n      swap1\n      pop\n      jump\t// out\n        /* \"#utility.yul\":10575:10801   */\n    tag_70:\n        /* \"#utility.yul\":10632:10638   */\n      0x00\n        /* \"#utility.yul\":10661:10664   */\n      0xff\n        /* \"#utility.yul\":10685:10707   */\n      tag_221\n        /* \"#utility.yul\":10698:10706   */\n      dup5\n        /* \"#utility.yul\":10685:10707   */\n      tag_69\n      jump\t// in\n    tag_221:\n        /* \"#utility.yul\":10673:10707   */\n      swap4\n      pop\n        /* \"#utility.yul\":10740:10744   */\n      dup1\n        /* \"#utility.yul\":10736:10745   */\n      not\n        /* \"#utility.yul\":10729:10734   */\n      dup4\n        /* \"#utility.yul\":10725:10746   */\n      and\n        /* \"#utility.yul\":10716:10746   */\n      swap3\n      pop\n        /* \"#utility.yul\":10789:10793   */\n      dup1\n        /* \"#utility.yul\":10779:10787   */\n      dup5\n        /* \"#utility.yul\":10775:10794   */\n      and\n        /* \"#utility.yul\":10768:10773   */\n      dup4\n        /* \"#utility.yul\":10765:10795   */\n      or\n        /* \"#utility.yul\":10755:10795   */\n      swap2\n      pop\n        /* \"#utility.yul\":10639:10801   */\n      pop\n        /* \"#utility.yul\":10575:10801   */\n      swap3\n      swap2\n      pop\n      pop\n      jump\t// out\n        /* \"#utility.yul\":10807:10941   */\n    tag_71:\n        /* \"#utility.yul\":10853:10862   */\n      0x00\n        /* \"#utility.yul\":10886:10935   */\n      tag_223\n        /* \"#utility.yul\":10902:10934   */\n      tag_224\n        /* \"#utility.yul\":10911:10933   */\n      tag_225\n        /* \"#utility.yul\":10927:10932   */\n      dup5\n        /* \"#utility.yul\":10911:10933   */\n      tag_40\n      jump\t// in\n    tag_225:\n        /* \"#utility.yul\":10902:10934   */\n      tag_54\n      jump\t// in\n    tag_224:\n        /* \"#utility.yul\":10886:10935   */\n      tag_40\n      jump\t// in\n    tag_223:\n        /* \"#utility.yul\":10873:10935   */\n      swap1\n      pop\n        /* \"#utility.yul\":10807:10941   */\n      swap2\n      swap1\n      pop\n      jump\t// out\n        /* \"#utility.yul\":10947:11020   */\n    tag_72:\n        /* \"#utility.yul\":10988:10991   */\n      0x00\n        /* \"#utility.yul\":11009:11014   */\n      dup2\n        /* \"#utility.yul\":11002:11014   */\n      swap1\n      pop\n        /* \"#utility.yul\":10947:11020   */\n      swap2\n      swap1\n      pop\n      jump\t// out\n        /* \"#utility.yul\":11026:11278   */\n    tag_73:\n        /* \"#utility.yul\":11133:11168   */\n      tag_228\n        /* \"#utility.yul\":11160:11167   */\n      dup3\n        /* \"#utility.yul\":11133:11168   */\n      tag_71\n      jump\t// in\n    tag_228:\n        /* \"#utility.yul\":11190:11271   */\n      tag_229\n        /* \"#utility.yul\":11231:11270   */\n      tag_230\n        /* \"#utility.yul\":11253:11269   */\n      dup3\n        /* \"#utility.yul\":11231:11270   */\n      tag_72\n      jump\t// in\n    tag_230:\n        /* \"#utility.yul\":11224:11228   */\n      dup4\n        /* \"#utility.yul\":11218:11229   */\n      sload\n        /* \"#utility.yul\":11190:11271   */\n      tag_70\n      jump\t// in\n    tag_229:\n        /* \"#utility.yul\":11184:11188   */\n      dup3\n        /* \"#utility.yul\":11177:11272   */\n      sstore\n        /* \"#utility.yul\":11099:11278   */\n      pop\n        /* \"#utility.yul\":11026:11278   */\n      pop\n      pop\n      jump\t// out\n        /* \"#utility.yul\":11284:12047   */\n    tag_74:\n        /* \"#utility.yul\":11400:11404   */\n      0x00\n        /* \"#utility.yul\":11406:11412   */\n      0x00\n        /* \"#utility.yul\":11462:11473   */\n      dup4\n        /* \"#utility.yul\":11449:11474   */\n      calldataload\n        /* \"#utility.yul\":11562:11563   */\n      0x01\n        /* \"#utility.yul\":11556:11560   */\n      0x20\n        /* \"#utility.yul\":11552:11564   */\n      sub\n        /* \"#utility.yul\":11541:11549   */\n      dup5\n        /* \"#utility.yul\":11525:11539   */\n      calldatasize\n        /* \"#utility.yul\":11521:11550   */\n      sub\n        /* \"#utility.yul\":11517:11565   */\n      sub\n        /* \"#utility.yul\":11497:11515   */\n      dup2\n        /* \"#utility.yul\":11493:11566   */\n      slt\n        /* \"#utility.yul\":11483:11651   */\n      tag_232\n      jumpi\n        /* \"#utility.yul\":11570:11649   */\n      tag_233\n      tag_43\n      jump\t// in\n    tag_233:\n        /* \"#utility.yul\":11483:11651   */\n    tag_232:\n        /* \"#utility.yul\":11682:11700   */\n      dup1\n        /* \"#utility.yul\":11672:11680   */\n      dup5\n        /* \"#utility.yul\":11668:11701   */\n      add\n        /* \"#utility.yul\":11660:11701   */\n      swap3\n      pop\n        /* \"#utility.yul\":11734:11738   */\n      dup3\n        /* \"#utility.yul\":11721:11739   */\n      calldataload\n        /* \"#utility.yul\":11711:11739   */\n      swap2\n      pop\n        /* \"#utility.yul\":11762:11780   */\n      0xffffffffffffffff\n        /* \"#utility.yul\":11754:11760   */\n      dup3\n        /* \"#utility.yul\":11751:11781   */\n      gt\n        /* \"#utility.yul\":11748:11865   */\n      iszero\n      tag_234\n      jumpi\n        /* \"#utility.yul\":11784:11863   */\n      tag_235\n      tag_44\n      jump\t// in\n    tag_235:\n        /* \"#utility.yul\":11748:11865   */\n    tag_234:\n        /* \"#utility.yul\":11892:11894   */\n      0x20\n        /* \"#utility.yul\":11886:11890   */\n      dup4\n        /* \"#utility.yul\":11882:11895   */\n      add\n        /* \"#utility.yul\":11874:11895   */\n      swap3\n      pop\n        /* \"#utility.yul\":11949:11953   */\n      0x20\n        /* \"#utility.yul\":11941:11947   */\n      dup3\n        /* \"#utility.yul\":11937:11954   */\n      mul\n        /* \"#utility.yul\":11921:11935   */\n      calldatasize\n        /* \"#utility.yul\":11917:11955   */\n      sub\n        /* \"#utility.yul\":11911:11915   */\n      dup4\n        /* \"#utility.yul\":11907:11956   */\n      sgt\n        /* \"#utility.yul\":11904:12040   */\n      iszero\n      tag_236\n      jumpi\n        /* \"#utility.yul\":11959:12038   */\n      tag_237\n      tag_45\n      jump\t// in\n    tag_237:\n        /* \"#utility.yul\":11904:12040   */\n    tag_236:\n        /* \"#utility.yul\":11413:12047   */\n      pop\n        /* \"#utility.yul\":11284:12047   */\n      swap3\n      pop\n      swap3\n      swap1\n      pop\n      jump\t// out\n        /* \"#utility.yul\":12053:12178   */\n    tag_75:\n        /* \"#utility.yul\":12145:12149   */\n      0x00\n        /* \"#utility.yul\":12168:12171   */\n      dup2\n        /* \"#utility.yul\":12160:12171   */\n      swap1\n      pop\n        /* \"#utility.yul\":12053:12178   */\n      swap2\n      swap1\n      pop\n      jump\t// out\n        /* \"#utility.yul\":12184:12573   */\n    tag_76:\n        /* \"#utility.yul\":12273:12277   */\n      0x00\n        /* \"#utility.yul\":12327:12338   */\n      dup3\n        /* \"#utility.yul\":12314:12339   */\n      calldataload\n        /* \"#utility.yul\":12427:12428   */\n      0x01\n        /* \"#utility.yul\":12421:12425   */\n      0x40\n        /* \"#utility.yul\":12417:12429   */\n      sub\n        /* \"#utility.yul\":12406:12414   */\n      dup4\n        /* \"#utility.yul\":12390:12404   */\n      calldatasize\n        /* \"#utility.yul\":12386:12415   */\n      sub\n        /* \"#utility.yul\":12382:12430   */\n      sub\n        /* \"#utility.yul\":12362:12380   */\n      dup2\n        /* \"#utility.yul\":12358:12431   */\n      slt\n        /* \"#utility.yul\":12348:12516   */\n      tag_240\n      jumpi\n        /* \"#utility.yul\":12435:12514   */\n      tag_241\n      tag_43\n      jump\t// in\n    tag_241:\n        /* \"#utility.yul\":12348:12516   */\n    tag_240:\n        /* \"#utility.yul\":12547:12565   */\n      dup1\n        /* \"#utility.yul\":12537:12545   */\n      dup4\n        /* \"#utility.yul\":12533:12566   */\n      add\n        /* \"#utility.yul\":12525:12566   */\n      swap2\n      pop\n        /* \"#utility.yul\":12278:12573   */\n      pop\n        /* \"#utility.yul\":12184:12573   */\n      swap3\n      swap2\n      pop\n      pop\n      jump\t// out\n        /* \"#utility.yul\":12579:12708   */\n    tag_77:\n        /* \"#utility.yul\":12661:12667   */\n      0x00\n        /* \"#utility.yul\":12695:12700   */\n      dup2\n        /* \"#utility.yul\":12689:12701   */\n      sload\n        /* \"#utility.yul\":12679:12701   */\n      swap1\n      pop\n        /* \"#utility.yul\":12579:12708   */\n      swap2\n      swap1\n      pop\n      jump\t// out\n        /* \"#utility.yul\":12714:12894   */\n    tag_78:\n        /* \"#utility.yul\":12762:12839   */\n      0x4e487b7100000000000000000000000000000000000000000000000000000000\n        /* \"#utility.yul\":12759:12760   */\n      0x00\n        /* \"#utility.yul\":12752:12840   */\n      mstore\n        /* \"#utility.yul\":12859:12863   */\n      0x11\n        /* \"#utility.yul\":12856:12857   */\n      0x04\n        /* \"#utility.yul\":12849:12864   */\n      mstore\n        /* \"#utility.yul\":12883:12887   */\n      0x24\n        /* \"#utility.yul\":12880:12881   */\n      0x00\n        /* \"#utility.yul\":12873:12888   */\n      revert\n        /* \"#utility.yul\":12900:13310   */\n    tag_79:\n        /* \"#utility.yul\":12940:12947   */\n      0x00\n        /* \"#utility.yul\":12963:12983   */\n      tag_245\n        /* \"#utility.yul\":12981:12982   */\n      dup3\n        /* \"#utility.yul\":12963:12983   */\n      tag_32\n      jump\t// in\n    tag_245:\n        /* \"#utility.yul\":12958:12983   */\n      swap2\n      pop\n        /* \"#utility.yul\":12997:13017   */\n      tag_246\n        /* \"#utility.yul\":13015:13016   */\n      dup4\n        /* \"#utility.yul\":12997:13017   */\n      tag_32\n      jump\t// in\n    tag_246:\n        /* \"#utility.yul\":12992:13017   */\n      swap3\n      pop\n        /* \"#utility.yul\":13052:13053   */\n      dup3\n        /* \"#utility.yul\":13049:13050   */\n      dup3\n        /* \"#utility.yul\":13045:13054   */\n      mul\n        /* \"#utility.yul\":13074:13104   */\n      tag_247\n        /* \"#utility.yul\":13092:13103   */\n      dup2\n        /* \"#utility.yul\":13074:13104   */\n      tag_32\n      jump\t// in\n    tag_247:\n        /* \"#utility.yul\":13063:13104   */\n      swap2\n      pop\n        /* \"#utility.yul\":13253:13254   */\n      dup3\n        /* \"#utility.yul\":13244:13251   */\n      dup3\n        /* \"#utility.yul\":13240:13255   */\n      div\n        /* \"#utility.yul\":13237:13238   */\n      dup5\n        /* \"#utility.yul\":13234:13256   */\n      eq\n        /* \"#utility.yul\":13214:13215   */\n      dup4\n        /* \"#utility.yul\":13207:13216   */\n      iszero\n        /* \"#utility.yul\":13187:13270   */\n      or\n        /* \"#utility.yul\":13164:13303   */\n      tag_248\n      jumpi\n        /* \"#utility.yul\":13283:13301   */\n      tag_249\n      tag_78\n      jump\t// in\n    tag_249:\n        /* \"#utility.yul\":13164:13303   */\n    tag_248:\n        /* \"#utility.yul\":12948:13310   */\n      pop\n        /* \"#utility.yul\":12900:13310   */\n      swap3\n      swap2\n      pop\n      pop\n      jump\t// out\n        /* \"#utility.yul\":13316:13501   */\n    tag_80:\n        /* \"#utility.yul\":13415:13419   */\n      0x00\n        /* \"#utility.yul\":13438:13444   */\n      dup2\n        /* \"#utility.yul\":13430:13444   */\n      swap1\n      pop\n        /* \"#utility.yul\":13462:13494   */\n      tag_251\n        /* \"#utility.yul\":13487:13493   */\n      dup3\n        /* \"#utility.yul\":13484:13485   */\n      0x02\n        /* \"#utility.yul\":13462:13494   */\n      tag_79\n      jump\t// in\n    tag_251:\n        /* \"#utility.yul\":13454:13494   */\n      swap1\n      pop\n        /* \"#utility.yul\":13316:13501   */\n      swap2\n      swap1\n      pop\n      jump\t// out\n        /* \"#utility.yul\":13506:13680   */\n    tag_81:\n        /* \"#utility.yul\":13588:13592   */\n      0x00\n        /* \"#utility.yul\":13611:13614   */\n      dup2\n        /* \"#utility.yul\":13603:13614   */\n      swap1\n      pop\n        /* \"#utility.yul\":13634:13637   */\n      dup2\n        /* \"#utility.yul\":13631:13632   */\n      0x00\n        /* \"#utility.yul\":13624:13638   */\n      mstore\n        /* \"#utility.yul\":13668:13672   */\n      0x20\n        /* \"#utility.yul\":13665:13666   */\n      0x00\n        /* \"#utility.yul\":13655:13673   */\n      keccak256\n        /* \"#utility.yul\":13647:13673   */\n      swap1\n      pop\n        /* \"#utility.yul\":13506:13680   */\n      swap2\n      swap1\n      pop\n      jump\t// out\n        /* \"#utility.yul\":13686:13930   */\n    tag_82:\n        /* \"#utility.yul\":13758:13879   */\n      tag_254\n        /* \"#utility.yul\":13812:13878   */\n      0xffffffffffffffffffffffffffffffffffffffffffffffffffffffffffffffff\n        /* \"#utility.yul\":13802:13808   */\n      dup4\n        /* \"#utility.yul\":13798:13800   */\n      0x20\n        /* \"#utility.yul\":13794:13809   */\n      sub\n        /* \"#utility.yul\":13791:13792   */\n      0x08\n        /* \"#utility.yul\":13787:13810   */\n      mul\n        /* \"#utility.yul\":13758:13879   */\n      tag_62\n      jump\t// in\n    tag_254:\n        /* \"#utility.yul\":13917:13921   */\n      dup2\n        /* \"#utility.yul\":13911:13922   */\n      sload\n        /* \"#utility.yul\":13905:13909   */\n      dup2\n        /* \"#utility.yul\":13901:13923   */\n      and\n        /* \"#utility.yul\":13895:13899   */\n      dup3\n        /* \"#utility.yul\":13888:13924   */\n      sstore\n        /* \"#utility.yul\":13736:13930   */\n      pop\n        /* \"#utility.yul\":13686:13930   */\n      pop\n      pop\n      jump\t// out\n        /* \"#utility.yul\":13936:14366   */\n    tag_83:\n        /* \"#utility.yul\":14173:14211   */\n      tag_256\n        /* \"#utility.yul\":14205:14210   */\n      dup2\n        /* \"#utility.yul\":14173:14211   */\n      tag_50\n      jump\t// in\n    tag_256:\n        /* \"#utility.yul\":14232:14305   */\n      tag_257\n        /* \"#utility.yul\":14301:14304   */\n      dup4\n        /* \"#utility.yul\":14291:14298   */\n      dup3\n        /* \"#utility.yul\":14285:14299   */\n      sload\n        /* \"#utility.yul\":14232:14305   */\n      tag_64\n      jump\t// in\n    tag_257:\n        /* \"#utility.yul\":14328:14332   */\n      dup1\n        /* \"#utility.yul\":14321:14326   */\n      dup4\n        /* \"#utility.yul\":14314:14333   */\n      sstore\n        /* \"#utility.yul\":14358:14359   */\n      0x00\n        /* \"#utility.yul\":14349:14356   */\n      dup3\n        /* \"#utility.yul\":14342:14360   */\n      sstore\n        /* \"#utility.yul\":14007:14366   */\n      pop\n      pop\n        /* \"#utility.yul\":13936:14366   */\n      pop\n      pop\n      jump\t// out\n        /* \"#utility.yul\":14371:15610   */\n    tag_84:\n        /* \"#utility.yul\":14479:14481   */\n      0x20\n        /* \"#utility.yul\":14471:14477   */\n      dup5\n        /* \"#utility.yul\":14468:14482   */\n      lt\n        /* \"#utility.yul\":14497:14498   */\n      0x00\n        /* \"#utility.yul\":14491:15012   */\n      dup2\n      eq\n      tag_260\n      jumpi\n        /* \"#utility.yul\":15061:15063   */\n      0x1f\n        /* \"#utility.yul\":15053:15059   */\n      dup5\n        /* \"#utility.yul\":15050:15064   */\n      gt\n        /* \"#utility.yul\":15082:15083   */\n      0x01\n        /* \"#utility.yul\":15077:15460   */\n      dup2\n      eq\n      tag_262\n      jumpi\n        /* \"#utility.yul\":15513:15579   */\n      tag_263\n        /* \"#utility.yul\":15572:15578   */\n      dup7\n        /* \"#utility.yul\":15566:15570   */\n      dup6\n        /* \"#utility.yul\":15513:15579   */\n      tag_64\n      jump\t// in\n    tag_263:\n        /* \"#utility.yul\":15506:15511   */\n      dup4\n        /* \"#utility.yul\":15499:15580   */\n      sstore\n        /* \"#utility.yul\":15043:15594   */\n      jump(tag_261)\n        /* \"#utility.yul\":15077:15460   */\n    tag_262:\n        /* \"#utility.yul\":15124:15162   */\n      tag_264\n        /* \"#utility.yul\":15156:15161   */\n      dup4\n        /* \"#utility.yul\":15124:15162   */\n      tag_50\n      jump\t// in\n    tag_264:\n        /* \"#utility.yul\":15265:15365   */\n      tag_265\n        /* \"#utility.yul\":15338:15363   */\n      tag_266\n        /* \"#utility.yul\":15356:15362   */\n      dup8\n        /* \"#utility.yul\":15338:15363   */\n      tag_51\n      jump\t// in\n    tag_266:\n        /* \"#utility.yul\":15322:15336   */\n      dup3\n        /* \"#utility.yul\":15318:15364   */\n      add\n        /* \"#utility.yul\":15314:15315   */\n      0x01\n        /* \"#utility.yul\":15298:15312   */\n      dup4\n        /* \"#utility.yul\":15294:15316   */\n      add\n        /* \"#utility.yul\":15265:15365   */\n      tag_60\n      jump\t// in\n    tag_265:\n        /* \"#utility.yul\":15382:15446   */\n      tag_267\n        /* \"#utility.yul\":15439:15445   */\n      dup8\n        /* \"#utility.yul\":15432:15437   */\n      dup6\n        /* \"#utility.yul\":15382:15446   */\n      tag_83\n      jump\t// in\n    tag_267:\n        /* \"#utility.yul\":15084:15460   */\n      pop\n        /* \"#utility.yul\":15043:15594   */\n    tag_261:\n      pop\n        /* \"#utility.yul\":14461:15604   */\n      jump(tag_259)\n        /* \"#utility.yul\":14491:15012   */\n    tag_260:\n        /* \"#utility.yul\":14535:14573   */\n      tag_268\n        /* \"#utility.yul\":14567:14572   */\n      dup3\n        /* \"#utility.yul\":14535:14573   */\n      tag_50\n      jump\t// in\n    tag_268:\n        /* \"#utility.yul\":14625:14650   */\n      tag_269\n        /* \"#utility.yul\":14643:14649   */\n      dup7\n        /* \"#utility.yul\":14625:14650   */\n      tag_51\n      jump\t// in\n    tag_269:\n        /* \"#utility.yul\":14609:14623   */\n      dup2\n        /* \"#utility.yul\":14605:14651   */\n      add\n        /* \"#utility.yul\":14762:14766   */\n      0x1f\n        /* \"#utility.yul\":14754:14760   */\n      dup8\n        /* \"#utility.yul\":14750:14767   */\n      and\n        /* \"#utility.yul\":14783:14789   */\n      dup1\n        /* \"#utility.yul\":14780:14849   */\n      iszero\n      tag_270\n      jumpi\n        /* \"#utility.yul\":14792:14847   */\n      tag_271\n        /* \"#utility.yul\":14840:14846   */\n      dup2\n        /* \"#utility.yul\":14836:14837   */\n      0x01\n        /* \"#utility.yul\":14823:14834   */\n      dup5\n        /* \"#utility.yul\":14819:14838   */\n      sub\n        /* \"#utility.yul\":14792:14847   */\n      tag_82\n      jump\t// in\n    tag_271:\n        /* \"#utility.yul\":14780:14849   */\n    tag_270:\n        /* \"#utility.yul\":14863:14952   */\n      tag_272\n        /* \"#utility.yul\":14925:14950   */\n      tag_273\n        /* \"#utility.yul\":14943:14949   */\n      dup9\n        /* \"#utility.yul\":14925:14950   */\n      tag_51\n      jump\t// in\n    tag_273:\n        /* \"#utility.yul\":14909:14923   */\n      dup5\n        /* \"#utility.yul\":14905:14951   */\n      add\n        /* \"#utility.yul\":14892:14903   */\n      dup4\n        /* \"#utility.yul\":14863:14952   */\n      tag_60\n      jump\t// in\n    tag_272:\n        /* \"#utility.yul\":14999:15000   */\n      0x01\n        /* \"#utility.yul\":14990:14996   */\n      dup9\n        /* \"#utility.yul\":14987:14988   */\n      0x02\n        /* \"#utility.yul\":14983:14997   */\n      mul\n        /* \"#utility.yul\":14980:15001   */\n      or\n        /* \"#utility.yul\":14973:14978   */\n      dup6\n        /* \"#utility.yul\":14966:15002   */\n      sstore\n        /* \"#utility.yul\":14499:15012   */\n      pop\n      pop\n      pop\n        /* \"#utility.yul\":14461:15604   */\n    tag_259:\n      pop\n        /* \"#utility.yul\":14371:15610   */\n      pop\n      pop\n      pop\n      pop\n      jump\t// out\n        /* \"#utility.yul\":15615:16531   */\n    tag_85:\n        /* \"#utility.yul\":15720:15740   */\n      0x010000000000000000\n        /* \"#utility.yul\":15712:15718   */\n      dup5\n        /* \"#utility.yul\":15709:15741   */\n      gt\n        /* \"#utility.yul\":15706:15764   */\n      iszero\n      tag_275\n      jumpi\n        /* \"#utility.yul\":15744:15762   */\n      tag_276\n      tag_48\n      jump\t// in\n    tag_276:\n        /* \"#utility.yul\":15706:15764   */\n    tag_275:\n        /* \"#utility.yul\":15792:15794   */\n      0x20\n        /* \"#utility.yul\":15784:15790   */\n      dup4\n        /* \"#utility.yul\":15781:15795   */\n      lt\n        /* \"#utility.yul\":15809:15810   */\n      0x00\n        /* \"#utility.yul\":15804:15948   */\n      dup2\n      eq\n      tag_278\n      jumpi\n        /* \"#utility.yul\":15997:15999   */\n      0x20\n        /* \"#utility.yul\":15989:15995   */\n      dup6\n        /* \"#utility.yul\":15986:16000   */\n      lt\n        /* \"#utility.yul\":16018:16019   */\n      0x00\n        /* \"#utility.yul\":16013:16304   */\n      dup2\n      eq\n      tag_280\n      jumpi\n        /* \"#utility.yul\":16433:16499   */\n      tag_281\n        /* \"#utility.yul\":16492:16498   */\n      dup7\n        /* \"#utility.yul\":16486:16490   */\n      dup6\n        /* \"#utility.yul\":16433:16499   */\n      tag_64\n      jump\t// in\n    tag_281:\n        /* \"#utility.yul\":16426:16431   */\n      dup4\n        /* \"#utility.yul\":16419:16500   */\n      sstore\n        /* \"#utility.yul\":15979:16514   */\n      jump(tag_279)\n        /* \"#utility.yul\":16013:16304   */\n    tag_280:\n        /* \"#utility.yul\":16162:16166   */\n      dup4\n        /* \"#utility.yul\":16155:16159   */\n      0xff\n        /* \"#utility.yul\":16151:16160   */\n      not\n        /* \"#utility.yul\":16147:16167   */\n      and\n        /* \"#utility.yul\":16139:16167   */\n      swap4\n      pop\n        /* \"#utility.yul\":16231:16235   */\n      dup4\n        /* \"#utility.yul\":16191:16229   */\n      tag_282\n        /* \"#utility.yul\":16223:16228   */\n      dup5\n        /* \"#utility.yul\":16191:16229   */\n      tag_50\n      jump\t// in\n    tag_282:\n        /* \"#utility.yul\":16184:16236   */\n      sstore\n        /* \"#utility.yul\":16287:16288   */\n      0x01\n        /* \"#utility.yul\":16278:16284   */\n      dup7\n        /* \"#utility.yul\":16275:16276   */\n      0x02\n        /* \"#utility.yul\":16271:16285   */\n      mul\n        /* \"#utility.yul\":16267:16289   */\n      add\n        /* \"#utility.yul\":16260:16265   */\n      dup4\n        /* \"#utility.yul\":16253:16290   */\n      sstore\n        /* \"#utility.yul\":15979:16514   */\n    tag_279:\n      pop\n        /* \"#utility.yul\":15774:16524   */\n      jump(tag_277)\n        /* \"#utility.yul\":15804:15948   */\n    tag_278:\n        /* \"#utility.yul\":15935:15936   */\n      0x01\n        /* \"#utility.yul\":15926:15932   */\n      dup6\n        /* \"#utility.yul\":15923:15924   */\n      0x02\n        /* \"#utility.yul\":15919:15933   */\n      mul\n        /* \"#utility.yul\":15915:15937   */\n      add\n        /* \"#utility.yul\":15908:15913   */\n      dup3\n        /* \"#utility.yul\":15901:15938   */\n      sstore\n        /* \"#utility.yul\":15774:16524   */\n    tag_277:\n      pop\n        /* \"#utility.yul\":15615:16531   */\n      pop\n      pop\n      pop\n      pop\n      jump\t// out\n        /* \"#utility.yul\":16537:16939   */\n    tag_86:\n        /* \"#utility.yul\":16620:16625   */\n      dup1\n        /* \"#utility.yul\":16614:16626   */\n      sload\n        /* \"#utility.yul\":16649:16680   */\n      tag_284\n        /* \"#utility.yul\":16675:16679   */\n      dup2\n        /* \"#utility.yul\":16649:16680   */\n      tag_22\n      jump\t// in\n    tag_284:\n        /* \"#utility.yul\":16704:16710   */\n      dup1\n        /* \"#utility.yul\":16696:16702   */\n      dup5\n        /* \"#utility.yul\":16693:16711   */\n      gt\n        /* \"#utility.yul\":16690:16806   */\n      iszero\n      tag_285\n      jumpi\n        /* \"#utility.yul\":16726:16796   */\n      tag_286\n        /* \"#utility.yul\":16789:16795   */\n      dup5\n        /* \"#utility.yul\":16781:16787   */\n      dup3\n        /* \"#utility.yul\":16775:16779   */\n      dup5\n        /* \"#utility.yul\":16768:16773   */\n      dup7\n        /* \"#utility.yul\":16726:16796   */\n      tag_85\n      jump\t// in\n    tag_286:\n        /* \"#utility.yul\":16690:16806   */\n    tag_285:\n        /* \"#utility.yul\":16830:16836   */\n      dup1\n        /* \"#utility.yul\":16822:16828   */\n      dup5\n        /* \"#utility.yul\":16819:16837   */\n      lt\n        /* \"#utility.yul\":16816:16932   */\n      iszero\n      tag_287\n      jumpi\n        /* \"#utility.yul\":16852:16922   */\n      tag_288\n        /* \"#utility.yul\":16915:16921   */\n      dup5\n        /* \"#utility.yul\":16907:16913   */\n      dup3\n        /* \"#utility.yul\":16901:16905   */\n      dup5\n        /* \"#utility.yul\":16894:16899   */\n      dup7\n        /* \"#utility.yul\":16852:16922   */\n      tag_84\n      jump\t// in\n    tag_288:\n        /* \"#utility.yul\":16816:16932   */\n    tag_287:\n        /* \"#utility.yul\":16591:16939   */\n      pop\n      pop\n        /* \"#utility.yul\":16537:16939   */\n      pop\n      pop\n      jump\t// out\n        /* \"#utility.yul\":17006:17126   */\n    tag_290:\n        /* \"#utility.yul\":17023:17026   */\n      dup2\n        /* \"#utility.yul\":17016:17021   */\n      dup2\n        /* \"#utility.yul\":17013:17027   */\n      lt\n        /* \"#utility.yul\":17006:17126   */\n      iszero\n      tag_292\n      jumpi\n        /* \"#utility.yul\":17077:17116   */\n      tag_293\n        /* \"#utility.yul\":17114:17115   */\n      0x00\n        /* \"#utility.yul\":17107:17112   */\n      dup3\n        /* \"#utility.yul\":17077:17116   */\n      tag_59\n      jump\t// in\n    tag_293:\n        /* \"#utility.yul\":17050:17051   */\n      0x01\n        /* \"#utility.yul\":17043:17048   */\n      dup2\n        /* \"#utility.yul\":17039:17052   */\n      add\n        /* \"#utility.yul\":17030:17052   */\n      swap1\n      pop\n        /* \"#utility.yul\":17006:17126   */\n      jump(tag_290)\n    tag_292:\n        /* \"#utility.yul\":16945:17132   */\n      pop\n      pop\n      jump\t// out\n        /* \"#utility.yul\":17333:17441   */\n    tag_89:\n        /* \"#utility.yul\":17396:17434   */\n      tag_296\n        /* \"#utility.yul\":17432:17433   */\n      0x00\n        /* \"#utility.yul\":17426:17430   */\n      dup3\n        /* \"#utility.yul\":17396:17434   */\n      tag_86\n      jump\t// in\n    tag_296:\n        /* \"#utility.yul\":17333:17441   */\n      pop\n      jump\t// out\n        /* \"#utility.yul\":17447:17621   */\n    tag_90:\n        /* \"#utility.yul\":17538:17539   */\n      0x00\n        /* \"#utility.yul\":17530:17536   */\n      dup3\n        /* \"#utility.yul\":17527:17540   */\n      eq\n        /* \"#utility.yul\":17517:17564   */\n      tag_298\n      jumpi\n        /* \"#utility.yul\":17544:17562   */\n      tag_299\n      tag_42\n      jump\t// in\n    tag_299:\n        /* \"#utility.yul\":17517:17564   */\n    tag_298:\n        /* \"#utility.yul\":17573:17615   */\n      tag_300\n        /* \"#utility.yul\":17610:17614   */\n      dup2\n        /* \"#utility.yul\":17573:17615   */\n      tag_89\n      jump\t// in\n    tag_300:\n        /* \"#utility.yul\":17447:17621   */\n      pop\n      pop\n      jump\t// out\n        /* \"#utility.yul\":17627:17825   */\n    tag_91:\n        /* \"#utility.yul\":17702:17755   */\n      tag_302\n        /* \"#utility.yul\":17753:17754   */\n      0x00\n        /* \"#utility.yul\":17749:17750   */\n      0x00\n        /* \"#utility.yul\":17743:17747   */\n      dup4\n        /* \"#utility.yul\":17739:17751   */\n      add\n        /* \"#utility.yul\":17702:17755   */\n      tag_90\n      jump\t// in\n    tag_302:\n        /* \"#utility.yul\":17765:17818   */\n      tag_303\n        /* \"#utility.yul\":17816:17817   */\n      0x00\n        /* \"#utility.yul\":17812:17813   */\n      0x01\n        /* \"#utility.yul\":17806:17810   */\n      dup4\n        /* \"#utility.yul\":17802:17814   */\n      add\n        /* \"#utility.yul\":17765:17818   */\n      tag_90\n      jump\t// in\n    tag_303:\n        /* \"#utility.yul\":17627:17825   */\n      pop\n      jump\t// out\n        /* \"#utility.yul\":17831:18028   */\n    tag_92:\n        /* \"#utility.yul\":17933:17934   */\n      0x00\n        /* \"#utility.yul\":17925:17931   */\n      dup3\n        /* \"#utility.yul\":17922:17935   */\n      eq\n        /* \"#utility.yul\":17912:17959   */\n      tag_305\n      jumpi\n        /* \"#utility.yul\":17939:17957   */\n      tag_306\n      tag_42\n      jump\t// in\n    tag_306:\n        /* \"#utility.yul\":17912:17959   */\n    tag_305:\n        /* \"#utility.yul\":17968:18022   */\n      tag_307\n        /* \"#utility.yul\":18017:18021   */\n      dup2\n        /* \"#utility.yul\":17968:18022   */\n      tag_91\n      jump\t// in\n    tag_307:\n        /* \"#utility.yul\":17831:18028   */\n      pop\n      pop\n      jump\t// out\n        /* \"#utility.yul\":18034:18257   */\n    tag_93:\n        /* \"#utility.yul\":18113:18251   */\n    tag_309:\n        /* \"#utility.yul\":18130:18133   */\n      dup2\n        /* \"#utility.yul\":18123:18128   */\n      dup2\n        /* \"#utility.yul\":18120:18134   */\n      lt\n        /* \"#utility.yul\":18113:18251   */\n      iszero\n      tag_311\n      jumpi\n        /* \"#utility.yul\":18184:18241   */\n      tag_312\n        /* \"#utility.yul\":18239:18240   */\n      0x00\n        /* \"#utility.yul\":18232:18237   */\n      dup3\n        /* \"#utility.yul\":18184:18241   */\n      tag_92\n      jump\t// in\n    tag_312:\n        /* \"#utility.yul\":18157:18158   */\n      0x02\n        /* \"#utility.yul\":18150:18155   */\n      dup2\n        /* \"#utility.yul\":18146:18159   */\n      add\n        /* \"#utility.yul\":18137:18159   */\n      swap1\n      pop\n        /* \"#utility.yul\":18113:18251   */\n      jump(tag_309)\n    tag_311:\n        /* \"#utility.yul\":18034:18257   */\n      pop\n      pop\n      jump\t// out\n        /* \"#utility.yul\":18263:19034   */\n    tag_94:\n        /* \"#utility.yul\":18401:18404   */\n      dup2\n        /* \"#utility.yul\":18389:18399   */\n      dup4\n        /* \"#utility.yul\":18386:18405   */\n      lt\n        /* \"#utility.yul\":18383:19027   */\n      iszero\n      tag_314\n      jumpi\n        /* \"#utility.yul\":18492:18575   */\n      tag_315\n        /* \"#utility.yul\":18571:18574   */\n      dup3\n        /* \"#utility.yul\":18492:18575   */\n      tag_80\n      jump\t// in\n    tag_315:\n        /* \"#utility.yul\":18608:18698   */\n      tag_316\n        /* \"#utility.yul\":18687:18697   */\n      dup5\n        /* \"#utility.yul\":18608:18698   */\n      tag_80\n      jump\t// in\n    tag_316:\n        /* \"#utility.yul\":18733:18804   */\n      tag_317\n        /* \"#utility.yul\":18798:18803   */\n      dup4\n        /* \"#utility.yul\":18733:18804   */\n      tag_81\n      jump\t// in\n    tag_317:\n        /* \"#utility.yul\":18856:18868   */\n      dup2\n        /* \"#utility.yul\":18840:18854   */\n      dup2\n        /* \"#utility.yul\":18836:18869   */\n      add\n        /* \"#utility.yul\":18919:18931   */\n      dup4\n        /* \"#utility.yul\":18903:18917   */\n      dup3\n        /* \"#utility.yul\":18899:18932   */\n      add\n        /* \"#utility.yul\":18946:19017   */\n      tag_318\n        /* \"#utility.yul\":19007:19016   */\n      dup2\n        /* \"#utility.yul\":18994:19005   */\n      dup4\n        /* \"#utility.yul\":18946:19017   */\n      tag_93\n      jump\t// in\n    tag_318:\n        /* \"#utility.yul\":18406:19027   */\n      pop\n      pop\n      pop\n      pop\n      pop\n        /* \"#utility.yul\":18383:19027   */\n    tag_314:\n        /* \"#utility.yul\":18263:19034   */\n      pop\n      pop\n      pop\n      jump\t// out\n        /* \"#utility.yul\":19040:19482   */\n    tag_95:\n        /* \"#utility.yul\":19151:19171   */\n      0x010000000000000000\n        /* \"#utility.yul\":19143:19149   */\n      dup3\n        /* \"#utility.yul\":19140:19172   */\n      gt\n        /* \"#utility.yul\":19137:19215   */\n      iszero\n      tag_320\n      jumpi\n        /* \"#utility.yul\":19187:19205   */\n      tag_321\n      tag_48\n      jump\t// in\n    tag_321:\n        /* \"#utility.yul\":19137:19215   */\n    tag_320:\n        /* \"#utility.yul\":19239:19308   */\n      tag_322\n        /* \"#utility.yul\":19302:19307   */\n      dup2\n        /* \"#utility.yul\":19239:19308   */\n      tag_77\n      jump\t// in\n    tag_322:\n        /* \"#utility.yul\":19360:19366   */\n      dup3\n        /* \"#utility.yul\":19353:19358   */\n      dup3\n        /* \"#utility.yul\":19346:19367   */\n      sstore\n        /* \"#utility.yul\":19377:19475   */\n      tag_323\n        /* \"#utility.yul\":19468:19474   */\n      dup4\n        /* \"#utility.yul\":19460:19466   */\n      dup3\n        /* \"#utility.yul\":19453:19458   */\n      dup5\n        /* \"#utility.yul\":19377:19475   */\n      tag_94\n      jump\t// in\n    tag_323:\n        /* \"#utility.yul\":19127:19482   */\n      pop\n        /* \"#utility.yul\":19040:19482   */\n      pop\n      pop\n      jump\t// out\n        /* \"#utility.yul\":19487:19622   */\n    tag_96:\n        /* \"#utility.yul\":19584:19590   */\n      0x00\n        /* \"#utility.yul\":19612:19615   */\n      dup3\n        /* \"#utility.yul\":19602:19615   */\n      swap1\n      pop\n        /* \"#utility.yul\":19487:19622   */\n      swap3\n      swap2\n      pop\n      pop\n      jump\t// out\n        /* \"#utility.yul\":19628:20481   */\n    tag_97:\n        /* \"#utility.yul\":19796:19797   */\n      0x00\n        /* \"#utility.yul\":19790:19794   */\n      dup2\n        /* \"#utility.yul\":19786:19798   */\n      add\n        /* \"#utility.yul\":19842:19843   */\n      0x00\n        /* \"#utility.yul\":19835:19840   */\n      dup4\n        /* \"#utility.yul\":19831:19844   */\n      add\n        /* \"#utility.yul\":19907:19970   */\n      tag_326\n        /* \"#utility.yul\":19957:19969   */\n      dup2\n        /* \"#utility.yul\":19950:19955   */\n      dup6\n        /* \"#utility.yul\":19907:19970   */\n      tag_46\n      jump\t// in\n    tag_326:\n        /* \"#utility.yul\":19984:20097   */\n      tag_327\n        /* \"#utility.yul\":20083:20096   */\n      dup2\n        /* \"#utility.yul\":20068:20081   */\n      dup4\n        /* \"#utility.yul\":20056:20066   */\n      dup7\n        /* \"#utility.yul\":19984:20097   */\n      tag_66\n      jump\t// in\n    tag_327:\n        /* \"#utility.yul\":19753:20108   */\n      pop\n      pop\n      pop\n      pop\n        /* \"#utility.yul\":20161:20162   */\n      0x01\n        /* \"#utility.yul\":20155:20159   */\n      dup2\n        /* \"#utility.yul\":20151:20163   */\n      add\n        /* \"#utility.yul\":20207:20209   */\n      0x20\n        /* \"#utility.yul\":20200:20205   */\n      dup4\n        /* \"#utility.yul\":20196:20210   */\n      add\n        /* \"#utility.yul\":20273:20336   */\n      tag_328\n        /* \"#utility.yul\":20323:20335   */\n      dup2\n        /* \"#utility.yul\":20316:20321   */\n      dup6\n        /* \"#utility.yul\":20273:20336   */\n      tag_46\n      jump\t// in\n    tag_328:\n        /* \"#utility.yul\":20350:20463   */\n      tag_329\n        /* \"#utility.yul\":20449:20462   */\n      dup2\n        /* \"#utility.yul\":20434:20447   */\n      dup4\n        /* \"#utility.yul\":20422:20432   */\n      dup7\n        /* \"#utility.yul\":20350:20463   */\n      tag_66\n      jump\t// in\n    tag_329:\n        /* \"#utility.yul\":20118:20474   */\n      pop\n      pop\n      pop\n      pop\n        /* \"#utility.yul\":19628:20481   */\n      pop\n      pop\n      jump\t// out\n        /* \"#utility.yul\":20487:20728   */\n    tag_98:\n        /* \"#utility.yul\":20616:20722   */\n      tag_331\n        /* \"#utility.yul\":20714:20721   */\n      dup3\n        /* \"#utility.yul\":20708:20712   */\n      dup3\n        /* \"#utility.yul\":20616:20722   */\n      tag_97\n      jump\t// in\n    tag_331:\n        /* \"#utility.yul\":20487:20728   */\n      pop\n      pop\n      jump\t// out\n        /* \"#utility.yul\":20734:21711   */\n    tag_99:\n        /* \"#utility.yul\":20926:21010   */\n      tag_333\n        /* \"#utility.yul\":21006:21009   */\n      dup4\n        /* \"#utility.yul\":20999:21004   */\n      dup4\n        /* \"#utility.yul\":20926:21010   */\n      tag_96\n      jump\t// in\n    tag_333:\n        /* \"#utility.yul\":21020:21096   */\n      tag_334\n        /* \"#utility.yul\":21089:21095   */\n      dup2\n        /* \"#utility.yul\":21083:21087   */\n      dup4\n        /* \"#utility.yul\":21020:21096   */\n      tag_95\n      jump\t// in\n    tag_334:\n        /* \"#utility.yul\":21120:21201   */\n      tag_335\n        /* \"#utility.yul\":21195:21200   */\n      dup4\n        /* \"#utility.yul\":21120:21201   */\n      tag_75\n      jump\t// in\n    tag_335:\n        /* \"#utility.yul\":21230:21300   */\n      tag_336\n        /* \"#utility.yul\":21295:21299   */\n      dup4\n        /* \"#utility.yul\":21230:21300   */\n      tag_81\n      jump\t// in\n    tag_336:\n        /* \"#utility.yul\":21325:21326   */\n      0x00\n        /* \"#utility.yul\":21310:21705   */\n    tag_337:\n        /* \"#utility.yul\":21335:21341   */\n      dup4\n        /* \"#utility.yul\":21332:21333   */\n      dup2\n        /* \"#utility.yul\":21329:21342   */\n      lt\n        /* \"#utility.yul\":21310:21705   */\n      iszero\n      tag_339\n      jumpi\n        /* \"#utility.yul\":21407:21475   */\n      tag_340\n        /* \"#utility.yul\":21468:21474   */\n      dup4\n        /* \"#utility.yul\":21461:21466   */\n      dup8\n        /* \"#utility.yul\":21407:21475   */\n      tag_76\n      jump\t// in\n    tag_340:\n        /* \"#utility.yul\":21489:21608   */\n      tag_341\n        /* \"#utility.yul\":21596:21607   */\n      dup2\n        /* \"#utility.yul\":21583:21594   */\n      dup5\n        /* \"#utility.yul\":21489:21608   */\n      tag_98\n      jump\t// in\n    tag_341:\n        /* \"#utility.yul\":21644:21646   */\n      0x20\n        /* \"#utility.yul\":21636:21642   */\n      dup5\n        /* \"#utility.yul\":21632:21647   */\n      add\n        /* \"#utility.yul\":21622:21647   */\n      swap4\n      pop\n        /* \"#utility.yul\":21693:21694   */\n      0x02\n        /* \"#utility.yul\":21680:21691   */\n      dup4\n        /* \"#utility.yul\":21676:21695   */\n      add\n        /* \"#utility.yul\":21661:21695   */\n      swap3\n      pop\n        /* \"#utility.yul\":21360:21705   */\n      pop\n        /* \"#utility.yul\":21356:21357   */\n      0x01\n        /* \"#utility.yul\":21353:21354   */\n      dup2\n        /* \"#utility.yul\":21349:21358   */\n      add\n        /* \"#utility.yul\":21344:21358   */\n      swap1\n      pop\n        /* \"#utility.yul\":21310:21705   */\n      jump(tag_337)\n    tag_339:\n        /* \"#utility.yul\":21314:21328   */\n      pop\n        /* \"#utility.yul\":20901:21711   */\n      pop\n      pop\n      pop\n        /* \"#utility.yul\":20734:21711   */\n      pop\n      pop\n      pop\n      jump\t// out\n        /* \"#utility.yul\":21717:22073   */\n    tag_100:\n        /* \"#utility.yul\":21904:22067   */\n      tag_343\n        /* \"#utility.yul\":22059:22066   */\n      dup4\n        /* \"#utility.yul\":22050:22057   */\n      dup4\n        /* \"#utility.yul\":22044:22048   */\n      dup4\n        /* \"#utility.yul\":21904:22067   */\n      tag_99\n      jump\t// in\n    tag_343:\n        /* \"#utility.yul\":21717:22073   */\n      pop\n      pop\n      pop\n      jump\t// out\n        /* \"#utility.yul\":22079:23376   */\n    tag_101:\n        /* \"#utility.yul\":22249:22250   */\n      0x00\n        /* \"#utility.yul\":22243:22247   */\n      dup2\n        /* \"#utility.yul\":22239:22251   */\n      add\n        /* \"#utility.yul\":22295:22296   */\n      0x00\n        /* \"#utility.yul\":22288:22293   */\n      dup4\n        /* \"#utility.yul\":22284:22297   */\n      add\n        /* \"#utility.yul\":22360:22423   */\n      tag_345\n        /* \"#utility.yul\":22410:22422   */\n      dup2\n        /* \"#utility.yul\":22403:22408   */\n      dup6\n        /* \"#utility.yul\":22360:22423   */\n      tag_46\n      jump\t// in\n    tag_345:\n        /* \"#utility.yul\":22437:22550   */\n      tag_346\n        /* \"#utility.yul\":22536:22549   */\n      dup2\n        /* \"#utility.yul\":22521:22534   */\n      dup4\n        /* \"#utility.yul\":22509:22519   */\n      dup7\n        /* \"#utility.yul\":22437:22550   */\n      tag_66\n      jump\t// in\n    tag_346:\n        /* \"#utility.yul\":22206:22561   */\n      pop\n      pop\n      pop\n      pop\n        /* \"#utility.yul\":22614:22615   */\n      0x01\n        /* \"#utility.yul\":22608:22612   */\n      dup2\n        /* \"#utility.yul\":22604:22616   */\n      add\n        /* \"#utility.yul\":22660:22662   */\n      0x20\n        /* \"#utility.yul\":22653:22658   */\n      dup4\n        /* \"#utility.yul\":22649:22663   */\n      add\n        /* \"#utility.yul\":22711:22723   */\n      dup1\n        /* \"#utility.yul\":22754:22794   */\n      tag_347\n        /* \"#utility.yul\":22780:22793   */\n      dup2\n        /* \"#utility.yul\":22754:22794   */\n      tag_68\n      jump\t// in\n    tag_347:\n        /* \"#utility.yul\":22737:22794   */\n      swap1\n      pop\n        /* \"#utility.yul\":22808:22883   */\n      tag_348\n        /* \"#utility.yul\":22869:22882   */\n      dup2\n        /* \"#utility.yul\":22857:22867   */\n      dup5\n        /* \"#utility.yul\":22808:22883   */\n      tag_73\n      jump\t// in\n    tag_348:\n        /* \"#utility.yul\":22571:22894   */\n      pop\n      pop\n      pop\n        /* \"#utility.yul\":22947:22948   */\n      0x02\n        /* \"#utility.yul\":22941:22945   */\n      dup2\n        /* \"#utility.yul\":22937:22949   */\n      add\n        /* \"#utility.yul\":22993:22995   */\n      0x40\n        /* \"#utility.yul\":22986:22991   */\n      dup4\n        /* \"#utility.yul\":22982:22996   */\n      add\n        /* \"#utility.yul\":23059:23160   */\n      tag_349\n        /* \"#utility.yul\":23147:23159   */\n      dup2\n        /* \"#utility.yul\":23140:23145   */\n      dup6\n        /* \"#utility.yul\":23059:23160   */\n      tag_74\n      jump\t// in\n    tag_349:\n        /* \"#utility.yul\":23174:23358   */\n      tag_350\n        /* \"#utility.yul\":23344:23357   */\n      dup2\n        /* \"#utility.yul\":23329:23342   */\n      dup4\n        /* \"#utility.yul\":23317:23327   */\n      dup7\n        /* \"#utility.yul\":23174:23358   */\n      tag_100\n      jump\t// in\n    tag_350:\n        /* \"#utility.yul\":22904:23369   */\n      pop\n      pop\n      pop\n      pop\n        /* \"#utility.yul\":22079:23376   */\n      pop\n      pop\n      jump\t// out\n        /* \"#utility.yul\":23382:23627   */\n    tag_18:\n        /* \"#utility.yul\":23513:23621   */\n      tag_352\n        /* \"#utility.yul\":23613:23620   */\n      dup3\n        /* \"#utility.yul\":23607:23611   */\n      dup3\n        /* \"#utility.yul\":23513:23621   */\n      tag_101\n      jump\t// in\n    tag_352:\n        /* \"#utility.yul\":23382:23627   */\n      pop\n      pop\n      jump\t// out\n\n    auxdata: 0xa2646970667358221220b1eeb8d4001bb5e544971b94d67b686f3378aa7b540a3c2efa99bcad5022d5bf64736f6c634300081e0033\n}\n",
				"bytecode": {
					"linkReferences": {},
					"object": "6080604052348015600e575f5ffd5b50610cd48061001c5f395ff3fe608060405234801561000f575f5ffd5b5060043610610034575f3560e01c80631aeb618514610038578063a2f9eac614610054575b5f5ffd5b610052600480360381019061004d91906101a8565b610085565b005b61006e60048036038101906100699190610222565b6100be565b60405161007c9291906102d8565b60405180910390f35b5f81908060018154018082558091505060019003905f5260205f2090600302015f9091909190915081816100b99190610c90565b505050565b5f81815481106100cc575f80fd5b905f5260205f2090600302015f91509050805f0180546100eb90610404565b80601f016020809104026020016040519081016040528092919081815260200182805461011790610404565b80156101625780601f1061013957610100808354040283529160200191610162565b820191905f5260205f20905b81548152906001019060200180831161014557829003601f168201915b505050505090806001015f9054906101000a900460ff16905082565b5f5ffd5b5f5ffd5b5f5ffd5b5f6060828403121561019f5761019e610186565b5b81905092915050565b5f602082840312156101bd576101bc61017e565b5b5f82013567ffffffffffffffff8111156101da576101d9610182565b5b6101e68482850161018a565b91505092915050565b5f819050919050565b610201816101ef565b811461020b575f5ffd5b50565b5f8135905061021c816101f8565b92915050565b5f602082840312156102375761023661017e565b5b5f6102448482850161020e565b91505092915050565b5f81519050919050565b5f82825260208201905092915050565b8281835e5f83830152505050565b5f601f19601f8301169050919050565b5f61028f8261024d565b6102998185610257565b93506102a9818560208601610267565b6102b281610275565b840191505092915050565b5f60ff82169050919050565b6102d2816102bd565b82525050565b5f6040820190508181035f8301526102f08185610285565b90506102ff60208301846102c9565b9392505050565b7f4e487b71000000000000000000000000000000000000000000000000000000005f525f60045260245ffd5b5f5ffd5b5f5ffd5b5f5ffd5b5f5f8335600160200384360303811261035a57610359610332565b5b80840192508235915067ffffffffffffffff82111561037c5761037b610336565b5b6020830192506001820236038313156103985761039761033a565b5b509250929050565b5f82905092915050565b7f4e487b71000000000000000000000000000000000000000000000000000000005f52604160045260245ffd5b7f4e487b71000000000000000000000000000000000000000000000000000000005f52602260045260245ffd5b5f600282049050600182168061041b57607f821691505b60208210810361042e5761042d6103d7565b5b50919050565b5f819050815f5260205f209050919050565b5f6020601f8301049050919050565b5f82821b905092915050565b5f600883026104907fffffffffffffffffffffffffffffffffffffffffffffffffffffffffffffffff82610455565b61049a8683610455565b95508019841693508086168417925050509392505050565b5f819050919050565b5f6104d56104d06104cb846101ef565b6104b2565b6101ef565b9050919050565b5f819050919050565b6104ee836104bb565b6105026104fa826104dc565b848454610461565b825550505050565b5f5f905090565b61051961050a565b6105248184846104e5565b505050565b5b818110156105475761053c5f82610511565b60018101905061052a565b5050565b601f82111561058c5761055d81610434565b61056684610446565b81016020851015610575578190505b61058961058185610446565b830182610529565b50505b505050565b5f82821c905092915050565b5f6105ac5f1984600802610591565b1980831691505092915050565b5f6105c4838361059d565b9150826002028217905092915050565b6105de83836103a0565b67ffffffffffffffff8111156105f7576105f66103aa565b5b6106018254610404565b61060c82828561054b565b5f601f831160018114610639575f8415610627578287013590505b61063185826105b9565b865550610698565b601f19841661064786610434565b5f5b8281101561066e57848901358255600182019150602085019450602081019050610649565b8683101561068b5784890135610687601f89168261059d565b8355505b6001600288020188555050505b50505050505050565b6106ac8383836105d4565b505050565b6106ba816102bd565b81146106c4575f5ffd5b50565b5f81356106d3816106b1565b80915050919050565b5f815f1b9050919050565b5f60ff6106f3846106dc565b9350801983169250808416831791505092915050565b5f61072361071e610719846102bd565b6104b2565b6102bd565b9050919050565b5f819050919050565b61073c82610709565b61074f6107488261072a565b83546106e7565b8255505050565b5f5f8335600160200384360303811261077257610771610332565b5b80840192508235915067ffffffffffffffff82111561079457610793610336565b5b6020830192506020820236038313156107b0576107af61033a565b5b509250929050565b5f819050919050565b5f823560016040038336030381126107dc576107db610332565b5b80830191505092915050565b5f81549050919050565b7f4e487b71000000000000000000000000000000000000000000000000000000005f52601160045260245ffd5b5f610829826101ef565b9150610834836101ef565b9250828202610842816101ef565b91508282048414831517610859576108586107f2565b5b5092915050565b5f81905061086f82600261081f565b9050919050565b5f819050815f5260205f209050919050565b6108b87fffffffffffffffffffffffffffffffffffffffffffffffffffffffffffffffff83602003600802610591565b815481168255505050565b6108cc81610434565b6108d78382546105b9565b8083555f825550505050565b602084105f811461093d57601f84116001811461090b5761090486856105b9565b8355610937565b61091483610434565b61092b61092087610446565b820160018301610529565b61093587856108c3565b505b5061098a565b61094682610434565b61094f86610446565b8101601f87168015610969576109688160018403610888565b5b61097d61097588610446565b840183610529565b6001886002021785555050505b5050505050565b680100000000000000008411156109ab576109aa6103aa565b5b602083105f81146109f457602085105f81146109d2576109cb86856105b9565b83556109ee565b8360ff19169350836109e384610434565b556001866002020183555b506109fe565b6001856002020182555b5050505050565b8054610a1081610404565b80841115610a2557610a2484828486610991565b5b80841015610a3a57610a39848284866108e3565b5b50505050565b81811015610a5d57610a525f82610511565b600181019050610a40565b5050565b610a6b5f82610a05565b50565b5f8214610a7e57610a7d610306565b5b610a8781610a61565b5050565b610a975f5f8301610a6e565b610aa45f60018301610a6e565b50565b5f8214610ab757610ab6610306565b5b610ac081610a8b565b5050565b5b81811015610ae257610ad75f82610aa7565b600281019050610ac5565b5050565b81831015610b1f57610af782610860565b610b0084610860565b610b0983610876565b818101838201610b198183610ac4565b50505050505b505050565b68010000000000000000821115610b3e57610b3d6103aa565b5b610b47816107e8565b828255610b55838284610ae6565b505050565b5f82905092915050565b5f81015f8301610b74818561033e565b610b7f8183866106a1565b505050506001810160208301610b95818561033e565b610ba08183866106a1565b505050505050565b610bb28282610b64565b5050565b610bc08383610b5a565b610bca8183610b24565b610bd3836107b8565b610bdc83610876565b5f5b83811015610c1257610bf083876107c1565b610bfa8184610ba8565b60208401935060028301925050600181019050610bde565b50505050505050565b610c26838383610bb6565b505050565b5f81015f8301610c3b818561033e565b610c468183866106a1565b50505050600181016020830180610c5c816106c7565b9050610c688184610733565b5050506002810160408301610c7d8185610756565b610c88818386610c1b565b505050505050565b610c9a8282610c2b565b505056fea2646970667358221220b1eeb8d4001bb5e544971b94d67b686f3378aa7b540a3c2efa99bcad5022d5bf64736f6c634300081e0033",
					"opcodes": "PUSH1 0x80 PUSH1 0x40 MSTORE CALLVALUE DUP1 ISZERO PUSH1 0xE JUMPI PUSH0 PUSH0 REVERT JUMPDEST POP PUSH2 0xCD4 DUP1 PUSH2 0x1C PUSH0 CODECOPY PUSH0 RETURN INVALID PUSH1 0x80 PUSH1 0x40 MSTORE CALLVALUE DUP1 ISZERO PUSH2 0xF JUMPI PUSH0 PUSH0 REVERT JUMPDEST POP PUSH1 0x4 CALLDATASIZE LT PUSH2 0x34 JUMPI PUSH0 CALLDATALOAD PUSH1 0xE0 SHR DUP1 PUSH4 0x1AEB6185 EQ PUSH2 0x38 JUMPI DUP1 PUSH4 0xA2F9EAC6 EQ PUSH2 0x54 JUMPI JUMPDEST PUSH0 PUSH0 REVERT JUMPDEST PUSH2 0x52 PUSH1 0x4 DUP1 CALLDATASIZE SUB DUP2 ADD SWAP1 PUSH2 0x4D SWAP2 SWAP1 PUSH2 0x1A8 JUMP JUMPDEST PUSH2 0x85 JUMP JUMPDEST STOP JUMPDEST PUSH2 0x6E PUSH1 0x4 DUP1 CALLDATASIZE SUB DUP2 ADD SWAP1 PUSH2 0x69 SWAP2 SWAP1 PUSH2 0x222 JUMP JUMPDEST PUSH2 0xBE JUMP JUMPDEST PUSH1 0x40 MLOAD PUSH2 0x7C SWAP3 SWAP2 SWAP1 PUSH2 0x2D8 JUMP JUMPDEST PUSH1 0x40 MLOAD DUP1 SWAP2 SUB SWAP1 RETURN JUMPDEST PUSH0 DUP2 SWAP1 DUP1 PUSH1 0x1 DUP2 SLOAD ADD DUP1 DUP3 SSTORE DUP1 SWAP2 POP POP PUSH1 0x1 SWAP1 SUB SWAP1 PUSH0 MSTORE PUSH1 0x20 PUSH0 KECCAK256 SWAP1 PUSH1 0x3 MUL ADD PUSH0 SWAP1 SWAP2 SWAP1 SWAP2 SWAP1 SWAP2 POP DUP2 DUP2 PUSH2 0xB9 SWAP2 SWAP1 PUSH2 0xC90 JUMP JUMPDEST POP POP POP JUMP JUMPDEST PUSH0 DUP2 DUP2 SLOAD DUP2 LT PUSH2 0xCC JUMPI PUSH0 DUP1 REVERT JUMPDEST SWAP1 PUSH0 MSTORE PUSH1 0x20 PUSH0 KECCAK256 SWAP1 PUSH1 0x3 MUL ADD PUSH0 SWAP2 POP SWAP1 POP DUP1 PUSH0 ADD DUP1 SLOAD PUSH2 0xEB SWAP1 PUSH2 0x404 JUMP JUMPDEST DUP1 PUSH1 0x1F ADD PUSH1 0x20 DUP1 SWAP2 DIV MUL PUSH1 0x20 ADD PUSH1 0x40 MLOAD SWAP1 DUP2 ADD PUSH1 0x40 MSTORE DUP1 SWAP3 SWAP2 SWAP1 DUP2 DUP2 MSTORE PUSH1 0x20 ADD DUP3 DUP1 SLOAD PUSH2 0x117 SWAP1 PUSH2 0x404 JUMP JUMPDEST DUP1 ISZERO PUSH2 0x162 JUMPI DUP1 PUSH1 0x1F LT PUSH2 0x139 JUMPI PUSH2 0x100 DUP1 DUP4 SLOAD DIV MUL DUP4 MSTORE SWAP2 PUSH1 0x20 ADD SWAP2 PUSH2 0x162 JUMP JUMPDEST DUP3 ADD SWAP2 SWAP1 PUSH0 MSTORE PUSH1 0x20 PUSH0 KECCAK256 SWAP1 JUMPDEST DUP2 SLOAD DUP2 MSTORE SWAP1 PUSH1 0x1 ADD SWAP1 PUSH1 0x20 ADD DUP1 DUP4 GT PUSH2 0x145 JUMPI DUP3 SWAP1 SUB PUSH1 0x1F AND DUP3 ADD SWAP2 JUMPDEST POP POP POP POP POP SWAP1 DUP1 PUSH1 0x1 ADD PUSH0 SWAP1 SLOAD SWAP1 PUSH2 0x100 EXP SWAP1 DIV PUSH1 0xFF AND SWAP1 POP DUP3 JUMP JUMPDEST PUSH0 PUSH0 REVERT JUMPDEST PUSH0 PUSH0 REVERT JUMPDEST PUSH0 PUSH0 REVERT JUMPDEST PUSH0 PUSH1 0x60 DUP3 DUP5 SUB SLT ISZERO PUSH2 0x19F JUMPI PUSH2 0x19E PUSH2 0x186 JUMP JUMPDEST JUMPDEST DUP2 SWAP1 POP SWAP3 SWAP2 POP POP JUMP JUMPDEST PUSH0 PUSH1 0x20 DUP3 DUP5 SUB SLT ISZERO PUSH2 0x1BD JUMPI PUSH2 0x1BC PUSH2 0x17E JUMP JUMPDEST JUMPDEST PUSH0 DUP3 ADD CALLDATALOAD PUSH8 0xFFFFFFFFFFFFFFFF DUP2 GT ISZERO PUSH2 0x1DA JUMPI PUSH2 0x1D9 PUSH2 0x182 JUMP JUMPDEST JUMPDEST PUSH2 0x1E6 DUP5 DUP3 DUP6 ADD PUSH2 0x18A JUMP JUMPDEST SWAP2 POP POP SWAP3 SWAP2 POP POP JUMP JUMPDEST PUSH0 DUP2 SWAP1 POP SWAP2 SWAP1 POP JUMP JUMPDEST PUSH2 0x201 DUP2 PUSH2 0x1EF JUMP JUMPDEST DUP2 EQ PUSH2 0x20B JUMPI PUSH0 PUSH0 REVERT JUMPDEST POP JUMP JUMPDEST PUSH0 DUP2 CALLDATALOAD SWAP1 POP PUSH2 0x21C DUP2 PUSH2 0x1F8 JUMP JUMPDEST SWAP3 SWAP2 POP POP JUMP JUMPDEST PUSH0 PUSH1 0x20 DUP3 DUP5 SUB SLT ISZERO PUSH2 0x237 JUMPI PUSH2 0x236 PUSH2 0x17E JUMP JUMPDEST JUMPDEST PUSH0 PUSH2 0x244 DUP5 DUP3 DUP6 ADD PUSH2 0x20E JUMP JUMPDEST SWAP2 POP POP SWAP3 SWAP2 POP POP JUMP JUMPDEST PUSH0 DUP2 MLOAD SWAP1 POP SWAP2 SWAP1 POP JUMP JUMPDEST PUSH0 DUP3 DUP3 MSTORE PUSH1 0x20 DUP3 ADD SWAP1 POP SWAP3 SWAP2 POP POP JUMP JUMPDEST DUP3 DUP2 DUP4 MCOPY PUSH0 DUP4 DUP4 ADD MSTORE POP POP POP JUMP JUMPDEST PUSH0 PUSH1 0x1F NOT PUSH1 0x1F DUP4 ADD AND SWAP1 POP SWAP2 SWAP1 POP JUMP JUMPDEST PUSH0 PUSH2 0x28F DUP3 PUSH2 0x24D JUMP JUMPDEST PUSH2 0x299 DUP2 DUP6 PUSH2 0x257 JUMP JUMPDEST SWAP4 POP PUSH2 0x2A9 DUP2 DUP6 PUSH1 0x20 DUP7 ADD PUSH2 0x267 JUMP JUMPDEST PUSH2 0x2B2 DUP2 PUSH2 0x275 JUMP JUMPDEST DUP5 ADD SWAP2 POP POP SWAP3 SWAP2 POP POP JUMP JUMPDEST PUSH0 PUSH1 0xFF DUP3 AND SWAP1 POP SWAP2 SWAP1 POP JUMP JUMPDEST PUSH2 0x2D2 DUP2 PUSH2 0x2BD JUMP JUMPDEST DUP3 MSTORE POP POP JUMP JUMPDEST PUSH0 PUSH1 0x40 DUP3 ADD SWAP1 POP DUP2 DUP2 SUB PUSH0 DUP4 ADD MSTORE PUSH2 0x2F0 DUP2 DUP6 PUSH2 0x285 JUMP JUMPDEST SWAP1 POP PUSH2 0x2FF PUSH1 0x20 DUP4 ADD DUP5 PUSH2 0x2C9 JUMP JUMPDEST SWAP4 SWAP3 POP POP POP JUMP JUMPDEST PUSH32 0x4E487B7100000000000000000000000000000000000000000000000000000000 PUSH0 MSTORE PUSH0 PUSH1 0x4 MSTORE PUSH1 0x24 PUSH0 REVERT JUMPDEST PUSH0 PUSH0 REVERT JUMPDEST PUSH0 PUSH0 REVERT JUMPDEST PUSH0 PUSH0 REVERT JUMPDEST PUSH0 PUSH0 DUP4 CALLDATALOAD PUSH1 0x1 PUSH1 0x20 SUB DUP5 CALLDATASIZE SUB SUB DUP2 SLT PUSH2 0x35A JUMPI PUSH2 0x359 PUSH2 0x332 JUMP JUMPDEST JUMPDEST DUP1 DUP5 ADD SWAP3 POP DUP3 CALLDATALOAD SWAP2 POP PUSH8 0xFFFFFFFFFFFFFFFF DUP3 GT ISZERO PUSH2 0x37C JUMPI PUSH2 0x37B PUSH2 0x336 JUMP JUMPDEST JUMPDEST PUSH1 0x20 DUP4 ADD SWAP3 POP PUSH1 0x1 DUP3 MUL CALLDATASIZE SUB DUP4 SGT ISZERO PUSH2 0x398 JUMPI PUSH2 0x397 PUSH2 0x33A JUMP JUMPDEST JUMPDEST POP SWAP3 POP SWAP3 SWAP1 POP JUMP JUMPDEST PUSH0 DUP3 SWAP1 POP SWAP3 SWAP2 POP POP JUMP JUMPDEST PUSH32 0x4E487B7100000000000000000000000000000000000000000000000000000000 PUSH0 MSTORE PUSH1 0x41 PUSH1 0x4 MSTORE PUSH1 0x24 PUSH0 REVERT JUMPDEST PUSH32 0x4E487B7100000000000000000000000000000000000000000000000000000000 PUSH0 MSTORE PUSH1 0x22 PUSH1 0x4 MSTORE PUSH1 0x24 PUSH0 REVERT JUMPDEST PUSH0 PUSH1 0x2 DUP3 DIV SWAP1 POP PUSH1 0x1 DUP3 AND DUP1 PUSH2 0x41B JUMPI PUSH1 0x7F DUP3 AND SWAP2 POP JUMPDEST PUSH1 0x20 DUP3 LT DUP2 SUB PUSH2 0x42E JUMPI PUSH2 0x42D PUSH2 0x3D7 JUMP JUMPDEST JUMPDEST POP SWAP2 SWAP1 POP JUMP JUMPDEST PUSH0 DUP2 SWAP1 POP DUP2 PUSH0 MSTORE PUSH1 0x20 PUSH0 KECCAK256 SWAP1 POP SWAP2 SWAP1 POP JUMP JUMPDEST PUSH0 PUSH1 0x20 PUSH1 0x1F DUP4 ADD DIV SWAP1 POP SWAP2 SWAP1 POP JUMP JUMPDEST PUSH0 DUP3 DUP3 SHL SWAP1 POP SWAP3 SWAP2 POP POP JUMP JUMPDEST PUSH0 PUSH1 0x8 DUP4 MUL PUSH2 0x490 PUSH32 0xFFFFFFFFFFFFFFFFFFFFFFFFFFFFFFFFFFFFFFFFFFFFFFFFFFFFFFFFFFFFFFFF DUP3 PUSH2 0x455 JUMP JUMPDEST PUSH2 0x49A DUP7 DUP4 PUSH2 0x455 JUMP JUMPDEST SWAP6 POP DUP1 NOT DUP5 AND SWAP4 POP DUP1 DUP7 AND DUP5 OR SWAP3 POP POP POP SWAP4 SWAP3 POP POP POP JUMP JUMPDEST PUSH0 DUP2 SWAP1 POP SWAP2 SWAP1 POP JUMP JUMPDEST PUSH0 PUSH2 0x4D5 PUSH2 0x4D0 PUSH2 0x4CB DUP5 PUSH2 0x1EF JUMP JUMPDEST PUSH2 0x4B2 JUMP JUMPDEST PUSH2 0x1EF JUMP JUMPDEST SWAP1 POP SWAP2 SWAP1 POP JUMP JUMPDEST PUSH0 DUP2 SWAP1 POP SWAP2 SWAP1 POP JUMP JUMPDEST PUSH2 0x4EE DUP4 PUSH2 0x4BB JUMP JUMPDEST PUSH2 0x502 PUSH2 0x4FA DUP3 PUSH2 0x4DC JUMP JUMPDEST DUP5 DUP5 SLOAD PUSH2 0x461 JUMP JUMPDEST DUP3 SSTORE POP POP POP POP JUMP JUMPDEST PUSH0 PUSH0 SWAP1 POP SWAP1 JUMP JUMPDEST PUSH2 0x519 PUSH2 0x50A JUMP JUMPDEST PUSH2 0x524 DUP2 DUP5 DUP5 PUSH2 0x4E5 JUMP JUMPDEST POP POP POP JUMP JUMPDEST JUMPDEST DUP2 DUP2 LT ISZERO PUSH2 0x547 JUMPI PUSH2 0x53C PUSH0 DUP3 PUSH2 0x511 JUMP JUMPDEST PUSH1 0x1 DUP2 ADD SWAP1 POP PUSH2 0x52A JUMP JUMPDEST POP POP JUMP JUMPDEST PUSH1 0x1F DUP3 GT ISZERO PUSH2 0x58C JUMPI PUSH2 0x55D DUP2 PUSH2 0x434 JUMP JUMPDEST PUSH2 0x566 DUP5 PUSH2 0x446 JUMP JUMPDEST DUP2 ADD PUSH1 0x20 DUP6 LT ISZERO PUSH2 0x575 JUMPI DUP2 SWAP1 POP JUMPDEST PUSH2 0x589 PUSH2 0x581 DUP6 PUSH2 0x446 JUMP JUMPDEST DUP4 ADD DUP3 PUSH2 0x529 JUMP JUMPDEST POP POP JUMPDEST POP POP POP JUMP JUMPDEST PUSH0 DUP3 DUP3 SHR SWAP1 POP SWAP3 SWAP2 POP POP JUMP JUMPDEST PUSH0 PUSH2 0x5AC PUSH0 NOT DUP5 PUSH1 0x8 MUL PUSH2 0x591 JUMP JUMPDEST NOT DUP1 DUP4 AND SWAP2 POP POP SWAP3 SWAP2 POP POP JUMP JUMPDEST PUSH0 PUSH2 0x5C4 DUP4 DUP4 PUSH2 0x59D JUMP JUMPDEST SWAP2 POP DUP3 PUSH1 0x2 MUL DUP3 OR SWAP1 POP SWAP3 SWAP2 POP POP JUMP JUMPDEST PUSH2 0x5DE DUP4 DUP4 PUSH2 0x3A0 JUMP JUMPDEST PUSH8 0xFFFFFFFFFFFFFFFF DUP2 GT ISZERO PUSH2 0x5F7 JUMPI PUSH2 0x5F6 PUSH2 0x3AA JUMP JUMPDEST JUMPDEST PUSH2 0x601 DUP3 SLOAD PUSH2 0x404 JUMP JUMPDEST PUSH2 0x60C DUP3 DUP3 DUP6 PUSH2 0x54B JUMP JUMPDEST PUSH0 PUSH1 0x1F DUP4 GT PUSH1 0x1 DUP2 EQ PUSH2 0x639 JUMPI PUSH0 DUP5 ISZERO PUSH2 0x627 JUMPI DUP3 DUP8 ADD CALLDATALOAD SWAP1 POP JUMPDEST PUSH2 0x631 DUP6 DUP3 PUSH2 0x5B9 JUMP JUMPDEST DUP7 SSTORE POP PUSH2 0x698 JUMP JUMPDEST PUSH1 0x1F NOT DUP5 AND PUSH2 0x647 DUP7 PUSH2 0x434 JUMP JUMPDEST PUSH0 JUMPDEST DUP3 DUP2 LT ISZERO PUSH2 0x66E JUMPI DUP5 DUP10 ADD CALLDATALOAD DUP3 SSTORE PUSH1 0x1 DUP3 ADD SWAP2 POP PUSH1 0x20 DUP6 ADD SWAP5 POP PUSH1 0x20 DUP2 ADD SWAP1 POP PUSH2 0x649 JUMP JUMPDEST DUP7 DUP4 LT ISZERO PUSH2 0x68B JUMPI DUP5 DUP10 ADD CALLDATALOAD PUSH2 0x687 PUSH1 0x1F DUP10 AND DUP3 PUSH2 0x59D JUMP JUMPDEST DUP4 SSTORE POP JUMPDEST PUSH1 0x1 PUSH1 0x2 DUP9 MUL ADD DUP9 SSTORE POP POP POP JUMPDEST POP POP POP POP POP POP POP JUMP JUMPDEST PUSH2 0x6AC DUP4 DUP4 DUP4 PUSH2 0x5D4 JUMP JUMPDEST POP POP POP JUMP JUMPDEST PUSH2 0x6BA DUP2 PUSH2 0x2BD JUMP JUMPDEST DUP2 EQ PUSH2 0x6C4 JUMPI PUSH0 PUSH0 REVERT JUMPDEST POP JUMP JUMPDEST PUSH0 DUP2 CALLDATALOAD PUSH2 0x6D3 DUP2 PUSH2 0x6B1 JUMP JUMPDEST DUP1 SWAP2 POP POP SWAP2 SWAP1 POP JUMP JUMPDEST PUSH0 DUP2 PUSH0 SHL SWAP1 POP SWAP2 SWAP1 POP JUMP JUMPDEST PUSH0 PUSH1 0xFF PUSH2 0x6F3 DUP5 PUSH2 0x6DC JUMP JUMPDEST SWAP4 POP DUP1 NOT DUP4 AND SWAP3 POP DUP1 DUP5 AND DUP4 OR SWAP2 POP POP SWAP3 SWAP2 POP POP JUMP JUMPDEST PUSH0 PUSH2 0x723 PUSH2 0x71E PUSH2 0x719 DUP5 PUSH2 0x2BD JUMP JUMPDEST PUSH2 0x4B2 JUMP JUMPDEST PUSH2 0x2BD JUMP JUMPDEST SWAP1 POP SWAP2 SWAP1 POP JUMP JUMPDEST PUSH0 DUP2 SWAP1 POP SWAP2 SWAP1 POP JUMP JUMPDEST PUSH2 0x73C DUP3 PUSH2 0x709 JUMP JUMPDEST PUSH2 0x74F PUSH2 0x748 DUP3 PUSH2 0x72A JUMP JUMPDEST DUP4 SLOAD PUSH2 0x6E7 JUMP JUMPDEST DUP3 SSTORE POP POP POP JUMP JUMPDEST PUSH0 PUSH0 DUP4 CALLDATALOAD PUSH1 0x1 PUSH1 0x20 SUB DUP5 CALLDATASIZE SUB SUB DUP2 SLT PUSH2 0x772 JUMPI PUSH2 0x771 PUSH2 0x332 JUMP JUMPDEST JUMPDEST DUP1 DUP5 ADD SWAP3 POP DUP3 CALLDATALOAD SWAP2 POP PUSH8 0xFFFFFFFFFFFFFFFF DUP3 GT ISZERO PUSH2 0x794 JUMPI PUSH2 0x793 PUSH2 0x336 JUMP JUMPDEST JUMPDEST PUSH1 0x20 DUP4 ADD SWAP3 POP PUSH1 0x20 DUP3 MUL CALLDATASIZE SUB DUP4 SGT ISZERO PUSH2 0x7B0 JUMPI PUSH2 0x7AF PUSH2 0x33A JUMP JUMPDEST JUMPDEST POP SWAP3 POP SWAP3 SWAP1 POP JUMP JUMPDEST PUSH0 DUP2 SWAP1 POP SWAP2 SWAP1 POP JUMP JUMPDEST PUSH0 DUP3 CALLDATALOAD PUSH1 0x1 PUSH1 0x40 SUB DUP4 CALLDATASIZE SUB SUB DUP2 SLT PUSH2 0x7DC JUMPI PUSH2 0x7DB PUSH2 0x332 JUMP JUMPDEST JUMPDEST DUP1 DUP4 ADD SWAP2 POP POP SWAP3 SWAP2 POP POP JUMP JUMPDEST PUSH0 DUP2 SLOAD SWAP1 POP SWAP2 SWAP1 POP JUMP JUMPDEST PUSH32 0x4E487B7100000000000000000000000000000000000000000000000000000000 PUSH0 MSTORE PUSH1 0x11 PUSH1 0x4 MSTORE PUSH1 0x24 PUSH0 REVERT JUMPDEST PUSH0 PUSH2 0x829 DUP3 PUSH2 0x1EF JUMP JUMPDEST SWAP2 POP PUSH2 0x834 DUP4 PUSH2 0x1EF JUMP JUMPDEST SWAP3 POP DUP3 DUP3 MUL PUSH2 0x842 DUP2 PUSH2 0x1EF JUMP JUMPDEST SWAP2 POP DUP3 DUP3 DIV DUP5 EQ DUP4 ISZERO OR PUSH2 0x859 JUMPI PUSH2 0x858 PUSH2 0x7F2 JUMP JUMPDEST JUMPDEST POP SWAP3 SWAP2 POP POP JUMP JUMPDEST PUSH0 DUP2 SWAP1 POP PUSH2 0x86F DUP3 PUSH1 0x2 PUSH2 0x81F JUMP JUMPDEST SWAP1 POP SWAP2 SWAP1 POP JUMP JUMPDEST PUSH0 DUP2 SWAP1 POP DUP2 PUSH0 MSTORE PUSH1 0x20 PUSH0 KECCAK256 SWAP1 POP SWAP2 SWAP1 POP JUMP JUMPDEST PUSH2 0x8B8 PUSH32 0xFFFFFFFFFFFFFFFFFFFFFFFFFFFFFFFFFFFFFFFFFFFFFFFFFFFFFFFFFFFFFFFF DUP4 PUSH1 0x20 SUB PUSH1 0x8 MUL PUSH2 0x591 JUMP JUMPDEST DUP2 SLOAD DUP2 AND DUP3 SSTORE POP POP POP JUMP JUMPDEST PUSH2 0x8CC DUP2 PUSH2 0x434 JUMP JUMPDEST PUSH2 0x8D7 DUP4 DUP3 SLOAD PUSH2 0x5B9 JUMP JUMPDEST DUP1 DUP4 SSTORE PUSH0 DUP3 SSTORE POP POP POP POP JUMP JUMPDEST PUSH1 0x20 DUP5 LT PUSH0 DUP2 EQ PUSH2 0x93D JUMPI PUSH1 0x1F DUP5 GT PUSH1 0x1 DUP2 EQ PUSH2 0x90B JUMPI PUSH2 0x904 DUP7 DUP6 PUSH2 0x5B9 JUMP JUMPDEST DUP4 SSTORE PUSH2 0x937 JUMP JUMPDEST PUSH2 0x914 DUP4 PUSH2 0x434 JUMP JUMPDEST PUSH2 0x92B PUSH2 0x920 DUP8 PUSH2 0x446 JUMP JUMPDEST DUP3 ADD PUSH1 0x1 DUP4 ADD PUSH2 0x529 JUMP JUMPDEST PUSH2 0x935 DUP8 DUP6 PUSH2 0x8C3 JUMP JUMPDEST POP JUMPDEST POP PUSH2 0x98A JUMP JUMPDEST PUSH2 0x946 DUP3 PUSH2 0x434 JUMP JUMPDEST PUSH2 0x94F DUP7 PUSH2 0x446 JUMP JUMPDEST DUP2 ADD PUSH1 0x1F DUP8 AND DUP1 ISZERO PUSH2 0x969 JUMPI PUSH2 0x968 DUP2 PUSH1 0x1 DUP5 SUB PUSH2 0x888 JUMP JUMPDEST JUMPDEST PUSH2 0x97D PUSH2 0x975 DUP9 PUSH2 0x446 JUMP JUMPDEST DUP5 ADD DUP4 PUSH2 0x529 JUMP JUMPDEST PUSH1 0x1 DUP9 PUSH1 0x2 MUL OR DUP6 SSTORE POP POP POP JUMPDEST POP POP POP POP POP JUMP JUMPDEST PUSH9 0x10000000000000000 DUP5 GT ISZERO PUSH2 0x9AB JUMPI PUSH2 0x9AA PUSH2 0x3AA JUMP JUMPDEST JUMPDEST PUSH1 0x20 DUP4 LT PUSH0 DUP2 EQ PUSH2 0x9F4 JUMPI PUSH1 0x20 DUP6 LT PUSH0 DUP2 EQ PUSH2 0x9D2 JUMPI PUSH2 0x9CB DUP7 DUP6 PUSH2 0x5B9 JUMP JUMPDEST DUP4 SSTORE PUSH2 0x9EE JUMP JUMPDEST DUP4 PUSH1 0xFF NOT AND SWAP4 POP DUP4 PUSH2 0x9E3 DUP5 PUSH2 0x434 JUMP JUMPDEST SSTORE PUSH1 0x1 DUP7 PUSH1 0x2 MUL ADD DUP4 SSTORE JUMPDEST POP PUSH2 0x9FE JUMP JUMPDEST PUSH1 0x1 DUP6 PUSH1 0x2 MUL ADD DUP3 SSTORE JUMPDEST POP POP POP POP POP JUMP JUMPDEST DUP1 SLOAD PUSH2 0xA10 DUP2 PUSH2 0x404 JUMP JUMPDEST DUP1 DUP5 GT ISZERO PUSH2 0xA25 JUMPI PUSH2 0xA24 DUP5 DUP3 DUP5 DUP7 PUSH2 0x991 JUMP JUMPDEST JUMPDEST DUP1 DUP5 LT ISZERO PUSH2 0xA3A JUMPI PUSH2 0xA39 DUP5 DUP3 DUP5 DUP7 PUSH2 0x8E3 JUMP JUMPDEST JUMPDEST POP POP POP POP JUMP JUMPDEST DUP2 DUP2 LT ISZERO PUSH2 0xA5D JUMPI PUSH2 0xA52 PUSH0 DUP3 PUSH2 0x511 JUMP JUMPDEST PUSH1 0x1 DUP2 ADD SWAP1 POP PUSH2 0xA40 JUMP JUMPDEST POP POP JUMP JUMPDEST PUSH2 0xA6B PUSH0 DUP3 PUSH2 0xA05 JUMP JUMPDEST POP JUMP JUMPDEST PUSH0 DUP3 EQ PUSH2 0xA7E JUMPI PUSH2 0xA7D PUSH2 0x306 JUMP JUMPDEST JUMPDEST PUSH2 0xA87 DUP2 PUSH2 0xA61 JUMP JUMPDEST POP POP JUMP JUMPDEST PUSH2 0xA97 PUSH0 PUSH0 DUP4 ADD PUSH2 0xA6E JUMP JUMPDEST PUSH2 0xAA4 PUSH0 PUSH1 0x1 DUP4 ADD PUSH2 0xA6E JUMP JUMPDEST POP JUMP JUMPDEST PUSH0 DUP3 EQ PUSH2 0xAB7 JUMPI PUSH2 0xAB6 PUSH2 0x306 JUMP JUMPDEST JUMPDEST PUSH2 0xAC0 DUP2 PUSH2 0xA8B JUMP JUMPDEST POP POP JUMP JUMPDEST JUMPDEST DUP2 DUP2 LT ISZERO PUSH2 0xAE2 JUMPI PUSH2 0xAD7 PUSH0 DUP3 PUSH2 0xAA7 JUMP JUMPDEST PUSH1 0x2 DUP2 ADD SWAP1 POP PUSH2 0xAC5 JUMP JUMPDEST POP POP JUMP JUMPDEST DUP2 DUP4 LT ISZERO PUSH2 0xB1F JUMPI PUSH2 0xAF7 DUP3 PUSH2 0x860 JUMP JUMPDEST PUSH2 0xB00 DUP5 PUSH2 0x860 JUMP JUMPDEST PUSH2 0xB09 DUP4 PUSH2 0x876 JUMP JUMPDEST DUP2 DUP2 ADD DUP4 DUP3 ADD PUSH2 0xB19 DUP2 DUP4 PUSH2 0xAC4 JUMP JUMPDEST POP POP POP POP POP JUMPDEST POP POP POP JUMP JUMPDEST PUSH9 0x10000000000000000 DUP3 GT ISZERO PUSH2 0xB3E JUMPI PUSH2 0xB3D PUSH2 0x3AA JUMP JUMPDEST JUMPDEST PUSH2 0xB47 DUP2 PUSH2 0x7E8 JUMP JUMPDEST DUP3 DUP3 SSTORE PUSH2 0xB55 DUP4 DUP3 DUP5 PUSH2 0xAE6 JUMP JUMPDEST POP POP POP JUMP JUMPDEST PUSH0 DUP3 SWAP1 POP SWAP3 SWAP2 POP POP JUMP JUMPDEST PUSH0 DUP2 ADD PUSH0 DUP4 ADD PUSH2 0xB74 DUP2 DUP6 PUSH2 0x33E JUMP JUMPDEST PUSH2 0xB7F DUP2 DUP4 DUP7 PUSH2 0x6A1 JUMP JUMPDEST POP POP POP POP PUSH1 0x1 DUP2 ADD PUSH1 0x20 DUP4 ADD PUSH2 0xB95 DUP2 DUP6 PUSH2 0x33E JUMP JUMPDEST PUSH2 0xBA0 DUP2 DUP4 DUP7 PUSH2 0x6A1 JUMP JUMPDEST POP POP POP POP POP POP JUMP JUMPDEST PUSH2 0xBB2 DUP3 DUP3 PUSH2 0xB64 JUMP JUMPDEST POP POP JUMP JUMPDEST PUSH2 0xBC0 DUP4 DUP4 PUSH2 0xB5A JUMP JUMPDEST PUSH2 0xBCA DUP2 DUP4 PUSH2 0xB24 JUMP JUMPDEST PUSH2 0xBD3 DUP4 PUSH2 0x7B8 JUMP JUMPDEST PUSH2 0xBDC DUP4 PUSH2 0x876 JUMP JUMPDEST PUSH0 JUMPDEST DUP4 DUP2 LT ISZERO PUSH2 0xC12 JUMPI PUSH2 0xBF0 DUP4 DUP8 PUSH2 0x7C1 JUMP JUMPDEST PUSH2 0xBFA DUP2 DUP5 PUSH2 0xBA8 JUMP JUMPDEST PUSH1 0x20 DUP5 ADD SWAP4 POP PUSH1 0x2 DUP4 ADD SWAP3 POP POP PUSH1 0x1 DUP2 ADD SWAP1 POP PUSH2 0xBDE JUMP JUMPDEST POP POP POP POP POP POP POP JUMP JUMPDEST PUSH2 0xC26 DUP4 DUP4 DUP4 PUSH2 0xBB6 JUMP JUMPDEST POP POP POP JUMP JUMPDEST PUSH0 DUP2 ADD PUSH0 DUP4 ADD PUSH2 0xC3B DUP2 DUP6 PUSH2 0x33E JUMP JUMPDEST PUSH2 0xC46 DUP2 DUP4 DUP7 PUSH2 0x6A1 JUMP JUMPDEST POP POP POP POP PUSH1 0x1 DUP2 ADD PUSH1 0x20 DUP4 ADD DUP1 PUSH2 0xC5C DUP2 PUSH2 0x6C7 JUMP JUMPDEST SWAP1 POP PUSH2 0xC68 DUP2 DUP5 PUSH2 0x733 JUMP JUMPDEST POP POP POP PUSH1 0x2 DUP2 ADD PUSH1 0x40 DUP4 ADD PUSH2 0xC7D DUP2 DUP6 PUSH2 0x756 JUMP JUMPDEST PUSH2 0xC88 DUP2 DUP4 DUP7 PUSH2 0xC1B JUMP JUMPDEST POP POP POP POP POP POP JUMP JUMPDEST PUSH2 0xC9A DUP3 DUP3 PUSH2 0xC2B JUMP JUMPDEST POP POP JUMP INVALID LOG2 PUSH5 0x6970667358 0x22 SLT KECCAK256 0xB1 RETURNCONTRACT 0xB8 0xD4 STOP SHL 0xB5 JUMPF 0x4497 SHL SWAP5 0xD6 PUSH28 0x686F3378AA7B540A3C2EFA99BCAD5022D5BF64736F6C634300081E00 CALLER "
				},
				"gasEstimates": {
					"creation": {
						"codeDepositCost": "656800",
						"executionCost": "687",
						"totalCost": "657487"
					},
					"external": {
						"persons(uint256)": "infinite",
						"setPerson((string,uint8,(string,string)[]))": "infinite"
					}
				},
				"methodIdentifiers": {
					"persons(uint256)": "a2f9eac6",
					"setPerson((string,uint8,(string,string)[]))": "1aeb6185"
				}
			},
			"storageLayout": {
				"storage": [
					{
						"astId": 19,
						"contract": "contracts/1.3.3-映射和结构体/StructTest.sol:StructTest",
						"label": "persons",
						"offset": 0,
						"slot": "0",
						"type": "t_array(t_struct(Person)15_storage)dyn_storage"
					}
				],
				"types": {
					"t_array(t_struct(Hobbit)6_storage)dyn_storage": {
						"base": "t_struct(Hobbit)6_storage",
						"encoding": "dynamic_array",
						"label": "struct StructTest.Hobbit[]",
						"numberOfBytes": "32"
					},
					"t_array(t_struct(Person)15_storage)dyn_storage": {
						"base": "t_struct(Person)15_storage",
						"encoding": "dynamic_array",
						"label": "struct StructTest.Person[]",
						"numberOfBytes": "32"
					},
					"t_string_storage": {
						"encoding": "bytes",
						"label": "string",
						"numberOfBytes": "32"
					},
					"t_struct(Hobbit)6_storage": {
						"encoding": "inplace",
						"label": "struct StructTest.Hobbit",
						"members": [
							{
								"astId": 3,
								"contract": "contracts/1.3.3-映射和结构体/StructTest.sol:StructTest",
								"label": "name",
								"offset": 0,
								"slot": "0",
								"type": "t_string_storage"
							},
							{
								"astId": 5,
								"contract": "contracts/1.3.3-映射和结构体/StructTest.sol:StructTest",
								"label": "level",
								"offset": 0,
								"slot": "1",
								"type": "t_string_storage"
							}
						],
						"numberOfBytes": "64"
					},
					"t_struct(Person)15_storage": {
						"encoding": "inplace",
						"label": "struct StructTest.Person",
						"members": [
							{
								"astId": 8,
								"contract": "contracts/1.3.3-映射和结构体/StructTest.sol:StructTest",
								"label": "name",
								"offset": 0,
								"slot": "0",
								"type": "t_string_storage"
							},
							{
								"astId": 10,
								"contract": "contracts/1.3.3-映射和结构体/StructTest.sol:StructTest",
								"label": "age",
								"offset": 0,
								"slot": "1",
								"type": "t_uint8"
							},
							{
								"astId": 14,
								"contract": "contracts/1.3.3-映射和结构体/StructTest.sol:StructTest",
								"label": "hobbits",
								"offset": 0,
								"slot": "2",
								"type": "t_array(t_struct(Hobbit)6_storage)dyn_storage"
							}
						],
						"numberOfBytes": "96"
					},
					"t_uint8": {
						"encoding": "inplace",
						"label": "uint8",
						"numberOfBytes": "1"
					}
				}
			},
			"userdoc": {
				"kind": "user",
				"methods": {},
				"version": 1
			}
		}
	}
}