{
	"1.3.2-循环.sol": {
		"Test": {
			"abi": [
				{
					"inputs": [],
					"name": "testDoWhile",
					"outputs": [
						{
							"internalType": "uint256[10]",
							"name": "retArr",
							"type": "uint256[10]"
						}
					],
					"stateMutability": "pure",
					"type": "function"
				},
				{
					"inputs": [],
					"name": "testFor",
					"outputs": [
						{
							"internalType": "uint256[10]",
							"name": "retArr",
							"type": "uint256[10]"
						}
					],
					"stateMutability": "pure",
					"type": "function"
				},
				{
					"inputs": [],
					"name": "testWhile",
					"outputs": [
						{
							"internalType": "uint256[10]",
							"name": "retArr",
							"type": "uint256[10]"
						}
					],
					"stateMutability": "pure",
					"type": "function"
				}
			],
			"devdoc": {
				"kind": "dev",
				"methods": {},
				"version": 1
			},
			"evm": {
				"assembly": "    /* \"1.3.2-\\xe5\\xbe\\xaa\\xe7\\x8e\\xaf.sol\":65:831  contract Test {... */\n  mstore(0x40, 0x80)\n  callvalue\n  dup1\n  iszero\n  tag_1\n  jumpi\n  0x00\n  dup1\n  revert\ntag_1:\n  pop\n  dataSize(sub_0)\n  dup1\n  dataOffset(sub_0)\n  0x00\n  codecopy\n  0x00\n  return\nstop\n\nsub_0: assembly {\n        /* \"1.3.2-\\xe5\\xbe\\xaa\\xe7\\x8e\\xaf.sol\":65:831  contract Test {... */\n      mstore(0x40, 0x80)\n      callvalue\n      dup1\n      iszero\n      tag_1\n      jumpi\n      0x00\n      dup1\n      revert\n    tag_1:\n      pop\n      jumpi(tag_2, lt(calldatasize, 0x04))\n      shr(0xe0, calldataload(0x00))\n      dup1\n      0xcb93d736\n      eq\n      tag_3\n      jumpi\n      dup1\n      0xd65d8b16\n      eq\n      tag_4\n      jumpi\n      dup1\n      0xf01ff72d\n      eq\n      tag_5\n      jumpi\n    tag_2:\n      0x00\n      dup1\n      revert\n        /* \"1.3.2-\\xe5\\xbe\\xaa\\xe7\\x8e\\xaf.sol\":616:829  function testDoWhile() public pure returns (uint256[10] memory retArr) {... */\n    tag_3:\n      tag_6\n      tag_7\n      jump\t// in\n    tag_6:\n      mload(0x40)\n      tag_8\n      swap2\n      swap1\n      tag_9\n      jump\t// in\n    tag_8:\n      mload(0x40)\n      dup1\n      swap2\n      sub\n      swap1\n      return\n        /* \"1.3.2-\\xe5\\xbe\\xaa\\xe7\\x8e\\xaf.sol\":85:397  function testFor() public pure returns (uint256[10] memory retArr) {... */\n    tag_4:\n      tag_10\n      tag_11\n      jump\t// in\n    tag_10:\n      mload(0x40)\n      tag_12\n      swap2\n      swap1\n      tag_9\n      jump\t// in\n    tag_12:\n      mload(0x40)\n      dup1\n      swap2\n      sub\n      swap1\n      return\n        /* \"1.3.2-\\xe5\\xbe\\xaa\\xe7\\x8e\\xaf.sol\":403:610  function testWhile() public pure returns (uint256[10] memory retArr) {... */\n    tag_5:\n      tag_13\n      tag_14\n      jump\t// in\n    tag_13:\n      mload(0x40)\n      tag_15\n      swap2\n      swap1\n      tag_9\n      jump\t// in\n    tag_15:\n      mload(0x40)\n      dup1\n      swap2\n      sub\n      swap1\n      return\n        /* \"1.3.2-\\xe5\\xbe\\xaa\\xe7\\x8e\\xaf.sol\":616:829  function testDoWhile() public pure returns (uint256[10] memory retArr) {... */\n    tag_7:\n        /* \"1.3.2-\\xe5\\xbe\\xaa\\xe7\\x8e\\xaf.sol\":660:685  uint256[10] memory retArr */\n      tag_16\n      tag_17\n      jump\t// in\n    tag_16:\n        /* \"1.3.2-\\xe5\\xbe\\xaa\\xe7\\x8e\\xaf.sol\":697:706  uint256 i */\n      0x00\n        /* \"1.3.2-\\xe5\\xbe\\xaa\\xe7\\x8e\\xaf.sol\":720:800  do {... */\n    tag_19:\n        /* \"1.3.2-\\xe5\\xbe\\xaa\\xe7\\x8e\\xaf.sol\":755:756  i */\n      dup1\n        /* \"1.3.2-\\xe5\\xbe\\xaa\\xe7\\x8e\\xaf.sol\":749:752  100 */\n      0x64\n        /* \"1.3.2-\\xe5\\xbe\\xaa\\xe7\\x8e\\xaf.sol\":749:756  100 + i */\n      tag_22\n      swap2\n      swap1\n      tag_23\n      jump\t// in\n    tag_22:\n        /* \"1.3.2-\\xe5\\xbe\\xaa\\xe7\\x8e\\xaf.sol\":737:743  retArr */\n      dup3\n        /* \"1.3.2-\\xe5\\xbe\\xaa\\xe7\\x8e\\xaf.sol\":744:745  i */\n      dup3\n        /* \"1.3.2-\\xe5\\xbe\\xaa\\xe7\\x8e\\xaf.sol\":737:746  retArr[i] */\n      0x0a\n      dup2\n      lt\n      tag_24\n      jumpi\n      tag_25\n      tag_26\n      jump\t// in\n    tag_25:\n    tag_24:\n      0x20\n      mul\n      add\n        /* \"1.3.2-\\xe5\\xbe\\xaa\\xe7\\x8e\\xaf.sol\":737:756  retArr[i] = 100 + i */\n      dup2\n      dup2\n      mstore\n      pop\n      pop\n        /* \"1.3.2-\\xe5\\xbe\\xaa\\xe7\\x8e\\xaf.sol\":770:773  i++ */\n      dup1\n      dup1\n      tag_27\n      swap1\n      tag_28\n      jump\t// in\n    tag_27:\n      swap2\n      pop\n      pop\n        /* \"1.3.2-\\xe5\\xbe\\xaa\\xe7\\x8e\\xaf.sol\":796:798  10 */\n      0x0a\n        /* \"1.3.2-\\xe5\\xbe\\xaa\\xe7\\x8e\\xaf.sol\":792:793  i */\n      dup2\n        /* \"1.3.2-\\xe5\\xbe\\xaa\\xe7\\x8e\\xaf.sol\":792:798  i < 10 */\n      lt\n        /* \"1.3.2-\\xe5\\xbe\\xaa\\xe7\\x8e\\xaf.sol\":720:800  do {... */\n      tag_19\n      jumpi\n        /* \"1.3.2-\\xe5\\xbe\\xaa\\xe7\\x8e\\xaf.sol\":809:822  return retArr */\n      pop\n        /* \"1.3.2-\\xe5\\xbe\\xaa\\xe7\\x8e\\xaf.sol\":616:829  function testDoWhile() public pure returns (uint256[10] memory retArr) {... */\n      swap1\n      jump\t// out\n        /* \"1.3.2-\\xe5\\xbe\\xaa\\xe7\\x8e\\xaf.sol\":85:397  function testFor() public pure returns (uint256[10] memory retArr) {... */\n    tag_11:\n        /* \"1.3.2-\\xe5\\xbe\\xaa\\xe7\\x8e\\xaf.sol\":125:150  uint256[10] memory retArr */\n      tag_29\n      tag_17\n      jump\t// in\n    tag_29:\n        /* \"1.3.2-\\xe5\\xbe\\xaa\\xe7\\x8e\\xaf.sol\":167:176  uint256 i */\n      0x00\n        /* \"1.3.2-\\xe5\\xbe\\xaa\\xe7\\x8e\\xaf.sol\":162:368  for (uint256 i = 0; i < 10; i++) {... */\n    tag_31:\n        /* \"1.3.2-\\xe5\\xbe\\xaa\\xe7\\x8e\\xaf.sol\":186:188  10 */\n      0x0a\n        /* \"1.3.2-\\xe5\\xbe\\xaa\\xe7\\x8e\\xaf.sol\":182:183  i */\n      dup2\n        /* \"1.3.2-\\xe5\\xbe\\xaa\\xe7\\x8e\\xaf.sol\":182:188  i < 10 */\n      lt\n        /* \"1.3.2-\\xe5\\xbe\\xaa\\xe7\\x8e\\xaf.sol\":162:368  for (uint256 i = 0; i < 10; i++) {... */\n      iszero\n      tag_32\n      jumpi\n        /* \"1.3.2-\\xe5\\xbe\\xaa\\xe7\\x8e\\xaf.sol\":218:219  3 */\n      0x03\n        /* \"1.3.2-\\xe5\\xbe\\xaa\\xe7\\x8e\\xaf.sol\":213:214  i */\n      dup2\n        /* \"1.3.2-\\xe5\\xbe\\xaa\\xe7\\x8e\\xaf.sol\":213:219  i == 3 */\n      sub\n        /* \"1.3.2-\\xe5\\xbe\\xaa\\xe7\\x8e\\xaf.sol\":209:262  if (i == 3) {... */\n      iszero\n        /* \"1.3.2-\\xe5\\xbe\\xaa\\xe7\\x8e\\xaf.sol\":239:247  continue */\n      tag_33\n        /* \"1.3.2-\\xe5\\xbe\\xaa\\xe7\\x8e\\xaf.sol\":209:262  if (i == 3) {... */\n      jumpi\n        /* \"1.3.2-\\xe5\\xbe\\xaa\\xe7\\x8e\\xaf.sol\":284:285  6 */\n      0x06\n        /* \"1.3.2-\\xe5\\xbe\\xaa\\xe7\\x8e\\xaf.sol\":279:280  i */\n      dup2\n        /* \"1.3.2-\\xe5\\xbe\\xaa\\xe7\\x8e\\xaf.sol\":279:285  i == 6 */\n      sub\n        /* \"1.3.2-\\xe5\\xbe\\xaa\\xe7\\x8e\\xaf.sol\":275:325  if (i == 6) {... */\n      iszero\n        /* \"1.3.2-\\xe5\\xbe\\xaa\\xe7\\x8e\\xaf.sol\":305:310  break */\n      tag_32\n        /* \"1.3.2-\\xe5\\xbe\\xaa\\xe7\\x8e\\xaf.sol\":275:325  if (i == 6) {... */\n      jumpi\n        /* \"1.3.2-\\xe5\\xbe\\xaa\\xe7\\x8e\\xaf.sol\":356:357  i */\n      dup1\n        /* \"1.3.2-\\xe5\\xbe\\xaa\\xe7\\x8e\\xaf.sol\":350:353  100 */\n      0x64\n        /* \"1.3.2-\\xe5\\xbe\\xaa\\xe7\\x8e\\xaf.sol\":350:357  100 + i */\n      tag_36\n      swap2\n      swap1\n      tag_23\n      jump\t// in\n    tag_36:\n        /* \"1.3.2-\\xe5\\xbe\\xaa\\xe7\\x8e\\xaf.sol\":338:344  retArr */\n      dup3\n        /* \"1.3.2-\\xe5\\xbe\\xaa\\xe7\\x8e\\xaf.sol\":345:346  i */\n      dup3\n        /* \"1.3.2-\\xe5\\xbe\\xaa\\xe7\\x8e\\xaf.sol\":338:347  retArr[i] */\n      0x0a\n      dup2\n      lt\n      tag_37\n      jumpi\n      tag_38\n      tag_26\n      jump\t// in\n    tag_38:\n    tag_37:\n      0x20\n      mul\n      add\n        /* \"1.3.2-\\xe5\\xbe\\xaa\\xe7\\x8e\\xaf.sol\":338:357  retArr[i] = 100 + i */\n      dup2\n      dup2\n      mstore\n      pop\n      pop\n        /* \"1.3.2-\\xe5\\xbe\\xaa\\xe7\\x8e\\xaf.sol\":162:368  for (uint256 i = 0; i < 10; i++) {... */\n    tag_33:\n        /* \"1.3.2-\\xe5\\xbe\\xaa\\xe7\\x8e\\xaf.sol\":190:193  i++ */\n      dup1\n      dup1\n      0x01\n      add\n      swap2\n      pop\n      pop\n        /* \"1.3.2-\\xe5\\xbe\\xaa\\xe7\\x8e\\xaf.sol\":162:368  for (uint256 i = 0; i < 10; i++) {... */\n      jump(tag_31)\n    tag_32:\n      pop\n        /* \"1.3.2-\\xe5\\xbe\\xaa\\xe7\\x8e\\xaf.sol\":85:397  function testFor() public pure returns (uint256[10] memory retArr) {... */\n      swap1\n      jump\t// out\n        /* \"1.3.2-\\xe5\\xbe\\xaa\\xe7\\x8e\\xaf.sol\":403:610  function testWhile() public pure returns (uint256[10] memory retArr) {... */\n    tag_14:\n        /* \"1.3.2-\\xe5\\xbe\\xaa\\xe7\\x8e\\xaf.sol\":445:470  uint256[10] memory retArr */\n      tag_39\n      tag_17\n      jump\t// in\n    tag_39:\n        /* \"1.3.2-\\xe5\\xbe\\xaa\\xe7\\x8e\\xaf.sol\":482:491  uint256 i */\n      0x00\n        /* \"1.3.2-\\xe5\\xbe\\xaa\\xe7\\x8e\\xaf.sol\":505:581  while (i < 10) {... */\n    tag_41:\n        /* \"1.3.2-\\xe5\\xbe\\xaa\\xe7\\x8e\\xaf.sol\":516:518  10 */\n      0x0a\n        /* \"1.3.2-\\xe5\\xbe\\xaa\\xe7\\x8e\\xaf.sol\":512:513  i */\n      dup2\n        /* \"1.3.2-\\xe5\\xbe\\xaa\\xe7\\x8e\\xaf.sol\":512:518  i < 10 */\n      lt\n        /* \"1.3.2-\\xe5\\xbe\\xaa\\xe7\\x8e\\xaf.sol\":505:581  while (i < 10) {... */\n      iszero\n      tag_42\n      jumpi\n        /* \"1.3.2-\\xe5\\xbe\\xaa\\xe7\\x8e\\xaf.sol\":552:553  i */\n      dup1\n        /* \"1.3.2-\\xe5\\xbe\\xaa\\xe7\\x8e\\xaf.sol\":546:549  100 */\n      0x64\n        /* \"1.3.2-\\xe5\\xbe\\xaa\\xe7\\x8e\\xaf.sol\":546:553  100 + i */\n      tag_43\n      swap2\n      swap1\n      tag_23\n      jump\t// in\n    tag_43:\n        /* \"1.3.2-\\xe5\\xbe\\xaa\\xe7\\x8e\\xaf.sol\":534:540  retArr */\n      dup3\n        /* \"1.3.2-\\xe5\\xbe\\xaa\\xe7\\x8e\\xaf.sol\":541:542  i */\n      dup3\n        /* \"1.3.2-\\xe5\\xbe\\xaa\\xe7\\x8e\\xaf.sol\":534:543  retArr[i] */\n      0x0a\n      dup2\n      lt\n      tag_44\n      jumpi\n      tag_45\n      tag_26\n      jump\t// in\n    tag_45:\n    tag_44:\n      0x20\n      mul\n      add\n        /* \"1.3.2-\\xe5\\xbe\\xaa\\xe7\\x8e\\xaf.sol\":534:553  retArr[i] = 100 + i */\n      dup2\n      dup2\n      mstore\n      pop\n      pop\n        /* \"1.3.2-\\xe5\\xbe\\xaa\\xe7\\x8e\\xaf.sol\":567:570  i++ */\n      dup1\n      dup1\n      tag_46\n      swap1\n      tag_28\n      jump\t// in\n    tag_46:\n      swap2\n      pop\n      pop\n        /* \"1.3.2-\\xe5\\xbe\\xaa\\xe7\\x8e\\xaf.sol\":505:581  while (i < 10) {... */\n      jump(tag_41)\n    tag_42:\n        /* \"1.3.2-\\xe5\\xbe\\xaa\\xe7\\x8e\\xaf.sol\":590:603  return retArr */\n      pop\n        /* \"1.3.2-\\xe5\\xbe\\xaa\\xe7\\x8e\\xaf.sol\":403:610  function testWhile() public pure returns (uint256[10] memory retArr) {... */\n      swap1\n      jump\t// out\n    tag_17:\n      mload(0x40)\n      dup1\n      0x0140\n      add\n      0x40\n      mstore\n      dup1\n      0x0a\n      swap1\n      0x20\n      dup3\n      mul\n      dup1\n      calldatasize\n      dup4\n      calldatacopy\n      dup1\n      dup3\n      add\n      swap2\n      pop\n      pop\n      swap1\n      pop\n      pop\n      swap1\n      jump\t// out\n        /* \"#utility.yul\":7:112   */\n    tag_47:\n        /* \"#utility.yul\":73:79   */\n      0x00\n        /* \"#utility.yul\":101:105   */\n      0x0a\n        /* \"#utility.yul\":91:105   */\n      swap1\n      pop\n        /* \"#utility.yul\":7:112   */\n      swap2\n      swap1\n      pop\n      jump\t// out\n        /* \"#utility.yul\":118:262   */\n    tag_48:\n        /* \"#utility.yul\":216:227   */\n      0x00\n        /* \"#utility.yul\":253:256   */\n      dup2\n        /* \"#utility.yul\":238:256   */\n      swap1\n      pop\n        /* \"#utility.yul\":118:262   */\n      swap3\n      swap2\n      pop\n      pop\n      jump\t// out\n        /* \"#utility.yul\":268:367   */\n    tag_49:\n        /* \"#utility.yul\":334:338   */\n      0x00\n        /* \"#utility.yul\":357:360   */\n      dup2\n        /* \"#utility.yul\":349:360   */\n      swap1\n      pop\n        /* \"#utility.yul\":268:367   */\n      swap2\n      swap1\n      pop\n      jump\t// out\n        /* \"#utility.yul\":373:450   */\n    tag_50:\n        /* \"#utility.yul\":410:417   */\n      0x00\n        /* \"#utility.yul\":439:444   */\n      dup2\n        /* \"#utility.yul\":428:444   */\n      swap1\n      pop\n        /* \"#utility.yul\":373:450   */\n      swap2\n      swap1\n      pop\n      jump\t// out\n        /* \"#utility.yul\":456:564   */\n    tag_51:\n        /* \"#utility.yul\":533:557   */\n      tag_62\n        /* \"#utility.yul\":551:556   */\n      dup2\n        /* \"#utility.yul\":533:557   */\n      tag_50\n      jump\t// in\n    tag_62:\n        /* \"#utility.yul\":528:531   */\n      dup3\n        /* \"#utility.yul\":521:558   */\n      mstore\n        /* \"#utility.yul\":456:564   */\n      pop\n      pop\n      jump\t// out\n        /* \"#utility.yul\":570:749   */\n    tag_52:\n        /* \"#utility.yul\":639:649   */\n      0x00\n        /* \"#utility.yul\":660:706   */\n      tag_64\n        /* \"#utility.yul\":702:705   */\n      dup4\n        /* \"#utility.yul\":694:700   */\n      dup4\n        /* \"#utility.yul\":660:706   */\n      tag_51\n      jump\t// in\n    tag_64:\n        /* \"#utility.yul\":738:742   */\n      0x20\n        /* \"#utility.yul\":733:736   */\n      dup4\n        /* \"#utility.yul\":729:743   */\n      add\n        /* \"#utility.yul\":715:743   */\n      swap1\n      pop\n        /* \"#utility.yul\":570:749   */\n      swap3\n      swap2\n      pop\n      pop\n      jump\t// out\n        /* \"#utility.yul\":755:867   */\n    tag_53:\n        /* \"#utility.yul\":824:828   */\n      0x00\n        /* \"#utility.yul\":856:860   */\n      0x20\n        /* \"#utility.yul\":851:854   */\n      dup3\n        /* \"#utility.yul\":847:861   */\n      add\n        /* \"#utility.yul\":839:861   */\n      swap1\n      pop\n        /* \"#utility.yul\":755:867   */\n      swap2\n      swap1\n      pop\n      jump\t// out\n        /* \"#utility.yul\":907:1607   */\n    tag_54:\n        /* \"#utility.yul\":1045:1098   */\n      tag_67\n        /* \"#utility.yul\":1092:1097   */\n      dup2\n        /* \"#utility.yul\":1045:1098   */\n      tag_47\n      jump\t// in\n    tag_67:\n        /* \"#utility.yul\":1114:1199   */\n      tag_68\n        /* \"#utility.yul\":1192:1198   */\n      dup2\n        /* \"#utility.yul\":1187:1190   */\n      dup5\n        /* \"#utility.yul\":1114:1199   */\n      tag_48\n      jump\t// in\n    tag_68:\n        /* \"#utility.yul\":1107:1199   */\n      swap3\n      pop\n        /* \"#utility.yul\":1223:1278   */\n      tag_69\n        /* \"#utility.yul\":1272:1277   */\n      dup3\n        /* \"#utility.yul\":1223:1278   */\n      tag_49\n      jump\t// in\n    tag_69:\n        /* \"#utility.yul\":1301:1308   */\n      dup1\n        /* \"#utility.yul\":1332:1333   */\n      0x00\n        /* \"#utility.yul\":1317:1600   */\n    tag_70:\n        /* \"#utility.yul\":1342:1348   */\n      dup4\n        /* \"#utility.yul\":1339:1340   */\n      dup2\n        /* \"#utility.yul\":1336:1349   */\n      lt\n        /* \"#utility.yul\":1317:1600   */\n      iszero\n      tag_72\n      jumpi\n        /* \"#utility.yul\":1418:1424   */\n      dup2\n        /* \"#utility.yul\":1412:1425   */\n      mload\n        /* \"#utility.yul\":1445:1508   */\n      tag_73\n        /* \"#utility.yul\":1504:1507   */\n      dup8\n        /* \"#utility.yul\":1489:1502   */\n      dup3\n        /* \"#utility.yul\":1445:1508   */\n      tag_52\n      jump\t// in\n    tag_73:\n        /* \"#utility.yul\":1438:1508   */\n      swap7\n      pop\n        /* \"#utility.yul\":1531:1590   */\n      tag_74\n        /* \"#utility.yul\":1583:1589   */\n      dup4\n        /* \"#utility.yul\":1531:1590   */\n      tag_53\n      jump\t// in\n    tag_74:\n        /* \"#utility.yul\":1521:1590   */\n      swap3\n      pop\n        /* \"#utility.yul\":1377:1600   */\n      pop\n        /* \"#utility.yul\":1364:1365   */\n      0x01\n        /* \"#utility.yul\":1361:1362   */\n      dup2\n        /* \"#utility.yul\":1357:1366   */\n      add\n        /* \"#utility.yul\":1352:1366   */\n      swap1\n      pop\n        /* \"#utility.yul\":1317:1600   */\n      jump(tag_70)\n    tag_72:\n        /* \"#utility.yul\":1321:1335   */\n      pop\n        /* \"#utility.yul\":1021:1607   */\n      pop\n      pop\n      pop\n        /* \"#utility.yul\":907:1607   */\n      pop\n      pop\n      jump\t// out\n        /* \"#utility.yul\":1613:1932   */\n    tag_9:\n        /* \"#utility.yul\":1754:1758   */\n      0x00\n        /* \"#utility.yul\":1792:1795   */\n      0x0140\n        /* \"#utility.yul\":1781:1790   */\n      dup3\n        /* \"#utility.yul\":1777:1796   */\n      add\n        /* \"#utility.yul\":1769:1796   */\n      swap1\n      pop\n        /* \"#utility.yul\":1806:1925   */\n      tag_76\n        /* \"#utility.yul\":1922:1923   */\n      0x00\n        /* \"#utility.yul\":1911:1920   */\n      dup4\n        /* \"#utility.yul\":1907:1924   */\n      add\n        /* \"#utility.yul\":1898:1904   */\n      dup5\n        /* \"#utility.yul\":1806:1925   */\n      tag_54\n      jump\t// in\n    tag_76:\n        /* \"#utility.yul\":1613:1932   */\n      swap3\n      swap2\n      pop\n      pop\n      jump\t// out\n        /* \"#utility.yul\":1938:2118   */\n    tag_55:\n        /* \"#utility.yul\":1986:2063   */\n      0x4e487b7100000000000000000000000000000000000000000000000000000000\n        /* \"#utility.yul\":1983:1984   */\n      0x00\n        /* \"#utility.yul\":1976:2064   */\n      mstore\n        /* \"#utility.yul\":2083:2087   */\n      0x11\n        /* \"#utility.yul\":2080:2081   */\n      0x04\n        /* \"#utility.yul\":2073:2088   */\n      mstore\n        /* \"#utility.yul\":2107:2111   */\n      0x24\n        /* \"#utility.yul\":2104:2105   */\n      0x00\n        /* \"#utility.yul\":2097:2112   */\n      revert\n        /* \"#utility.yul\":2124:2315   */\n    tag_23:\n        /* \"#utility.yul\":2164:2167   */\n      0x00\n        /* \"#utility.yul\":2183:2203   */\n      tag_79\n        /* \"#utility.yul\":2201:2202   */\n      dup3\n        /* \"#utility.yul\":2183:2203   */\n      tag_50\n      jump\t// in\n    tag_79:\n        /* \"#utility.yul\":2178:2203   */\n      swap2\n      pop\n        /* \"#utility.yul\":2217:2237   */\n      tag_80\n        /* \"#utility.yul\":2235:2236   */\n      dup4\n        /* \"#utility.yul\":2217:2237   */\n      tag_50\n      jump\t// in\n    tag_80:\n        /* \"#utility.yul\":2212:2237   */\n      swap3\n      pop\n        /* \"#utility.yul\":2260:2261   */\n      dup3\n        /* \"#utility.yul\":2257:2258   */\n      dup3\n        /* \"#utility.yul\":2253:2262   */\n      add\n        /* \"#utility.yul\":2246:2262   */\n      swap1\n      pop\n        /* \"#utility.yul\":2281:2284   */\n      dup1\n        /* \"#utility.yul\":2278:2279   */\n      dup3\n        /* \"#utility.yul\":2275:2285   */\n      gt\n        /* \"#utility.yul\":2272:2308   */\n      iszero\n      tag_81\n      jumpi\n        /* \"#utility.yul\":2288:2306   */\n      tag_82\n      tag_55\n      jump\t// in\n    tag_82:\n        /* \"#utility.yul\":2272:2308   */\n    tag_81:\n        /* \"#utility.yul\":2124:2315   */\n      swap3\n      swap2\n      pop\n      pop\n      jump\t// out\n        /* \"#utility.yul\":2321:2501   */\n    tag_26:\n        /* \"#utility.yul\":2369:2446   */\n      0x4e487b7100000000000000000000000000000000000000000000000000000000\n        /* \"#utility.yul\":2366:2367   */\n      0x00\n        /* \"#utility.yul\":2359:2447   */\n      mstore\n        /* \"#utility.yul\":2466:2470   */\n      0x32\n        /* \"#utility.yul\":2463:2464   */\n      0x04\n        /* \"#utility.yul\":2456:2471   */\n      mstore\n        /* \"#utility.yul\":2490:2494   */\n      0x24\n        /* \"#utility.yul\":2487:2488   */\n      0x00\n        /* \"#utility.yul\":2480:2495   */\n      revert\n        /* \"#utility.yul\":2507:2740   */\n    tag_28:\n        /* \"#utility.yul\":2546:2549   */\n      0x00\n        /* \"#utility.yul\":2569:2593   */\n      tag_85\n        /* \"#utility.yul\":2587:2592   */\n      dup3\n        /* \"#utility.yul\":2569:2593   */\n      tag_50\n      jump\t// in\n    tag_85:\n        /* \"#utility.yul\":2560:2593   */\n      swap2\n      pop\n        /* \"#utility.yul\":2615:2681   */\n      0xffffffffffffffffffffffffffffffffffffffffffffffffffffffffffffffff\n        /* \"#utility.yul\":2608:2613   */\n      dup3\n        /* \"#utility.yul\":2605:2682   */\n      sub\n        /* \"#utility.yul\":2602:2705   */\n      tag_86\n      jumpi\n        /* \"#utility.yul\":2685:2703   */\n      tag_87\n      tag_55\n      jump\t// in\n    tag_87:\n        /* \"#utility.yul\":2602:2705   */\n    tag_86:\n        /* \"#utility.yul\":2732:2733   */\n      0x01\n        /* \"#utility.yul\":2725:2730   */\n      dup3\n        /* \"#utility.yul\":2721:2734   */\n      add\n        /* \"#utility.yul\":2714:2734   */\n      swap1\n      pop\n        /* \"#utility.yul\":2507:2740   */\n      swap2\n      swap1\n      pop\n      jump\t// out\n\n    auxdata: 0xa26469706673582212201eeedb48ac78048bfbf47b8ec27e81f3b954951f9f93c89ab75330f8c2e3c52a64736f6c634300081a0033\n}\n",
				"bytecode": {
					"linkReferences": {},
					"object": "6080604052348015600e575f80fd5b506103928061001c5f395ff3fe608060405234801561000f575f80fd5b506004361061003f575f3560e01c8063cb93d73614610043578063d65d8b1614610061578063f01ff72d1461007f575b5f80fd5b61004b61009d565b604051610058919061026e565b60405180910390f35b6100696100ea565b604051610076919061026e565b60405180910390f35b61008761014a565b604051610094919061026e565b60405180910390f35b6100a561019d565b5f5b8060646100b491906102b5565b8282600a81106100c7576100c66102e8565b5b60200201818152505080806100db90610315565b915050600a81106100a7575090565b6100f261019d565b5f5b600a8110156101465760038103156101395760068103156101465780606461011c91906102b5565b8282600a811061012f5761012e6102e8565b5b6020020181815250505b80806001019150506100f4565b5090565b61015261019d565b5f5b600a8110156101995780606461016a91906102b5565b8282600a811061017d5761017c6102e8565b5b602002018181525050808061019190610315565b915050610154565b5090565b604051806101400160405280600a90602082028036833780820191505090505090565b5f600a9050919050565b5f81905092915050565b5f819050919050565b5f819050919050565b6101ef816101dd565b82525050565b5f61020083836101e6565b60208301905092915050565b5f602082019050919050565b610221816101c0565b61022b81846101ca565b9250610236826101d4565b805f5b8381101561026657815161024d87826101f5565b96506102588361020c565b925050600181019050610239565b505050505050565b5f610140820190506102825f830184610218565b92915050565b7f4e487b71000000000000000000000000000000000000000000000000000000005f52601160045260245ffd5b5f6102bf826101dd565b91506102ca836101dd565b92508282019050808211156102e2576102e1610288565b5b92915050565b7f4e487b71000000000000000000000000000000000000000000000000000000005f52603260045260245ffd5b5f61031f826101dd565b91507fffffffffffffffffffffffffffffffffffffffffffffffffffffffffffffffff820361035157610350610288565b5b60018201905091905056fea26469706673582212201eeedb48ac78048bfbf47b8ec27e81f3b954951f9f93c89ab75330f8c2e3c52a64736f6c634300081a0033",
					"opcodes": "PUSH1 0x80 PUSH1 0x40 MSTORE CALLVALUE DUP1 ISZERO PUSH1 0xE JUMPI PUSH0 DUP1 REVERT JUMPDEST POP PUSH2 0x392 DUP1 PUSH2 0x1C PUSH0 CODECOPY PUSH0 RETURN INVALID PUSH1 0x80 PUSH1 0x40 MSTORE CALLVALUE DUP1 ISZERO PUSH2 0xF JUMPI PUSH0 DUP1 REVERT JUMPDEST POP PUSH1 0x4 CALLDATASIZE LT PUSH2 0x3F JUMPI PUSH0 CALLDATALOAD PUSH1 0xE0 SHR DUP1 PUSH4 0xCB93D736 EQ PUSH2 0x43 JUMPI DUP1 PUSH4 0xD65D8B16 EQ PUSH2 0x61 JUMPI DUP1 PUSH4 0xF01FF72D EQ PUSH2 0x7F JUMPI JUMPDEST PUSH0 DUP1 REVERT JUMPDEST PUSH2 0x4B PUSH2 0x9D JUMP JUMPDEST PUSH1 0x40 MLOAD PUSH2 0x58 SWAP2 SWAP1 PUSH2 0x26E JUMP JUMPDEST PUSH1 0x40 MLOAD DUP1 SWAP2 SUB SWAP1 RETURN JUMPDEST PUSH2 0x69 PUSH2 0xEA JUMP JUMPDEST PUSH1 0x40 MLOAD PUSH2 0x76 SWAP2 SWAP1 PUSH2 0x26E JUMP JUMPDEST PUSH1 0x40 MLOAD DUP1 SWAP2 SUB SWAP1 RETURN JUMPDEST PUSH2 0x87 PUSH2 0x14A JUMP JUMPDEST PUSH1 0x40 MLOAD PUSH2 0x94 SWAP2 SWAP1 PUSH2 0x26E JUMP JUMPDEST PUSH1 0x40 MLOAD DUP1 SWAP2 SUB SWAP1 RETURN JUMPDEST PUSH2 0xA5 PUSH2 0x19D JUMP JUMPDEST PUSH0 JUMPDEST DUP1 PUSH1 0x64 PUSH2 0xB4 SWAP2 SWAP1 PUSH2 0x2B5 JUMP JUMPDEST DUP3 DUP3 PUSH1 0xA DUP2 LT PUSH2 0xC7 JUMPI PUSH2 0xC6 PUSH2 0x2E8 JUMP JUMPDEST JUMPDEST PUSH1 0x20 MUL ADD DUP2 DUP2 MSTORE POP POP DUP1 DUP1 PUSH2 0xDB SWAP1 PUSH2 0x315 JUMP JUMPDEST SWAP2 POP POP PUSH1 0xA DUP2 LT PUSH2 0xA7 JUMPI POP SWAP1 JUMP JUMPDEST PUSH2 0xF2 PUSH2 0x19D JUMP JUMPDEST PUSH0 JUMPDEST PUSH1 0xA DUP2 LT ISZERO PUSH2 0x146 JUMPI PUSH1 0x3 DUP2 SUB ISZERO PUSH2 0x139 JUMPI PUSH1 0x6 DUP2 SUB ISZERO PUSH2 0x146 JUMPI DUP1 PUSH1 0x64 PUSH2 0x11C SWAP2 SWAP1 PUSH2 0x2B5 JUMP JUMPDEST DUP3 DUP3 PUSH1 0xA DUP2 LT PUSH2 0x12F JUMPI PUSH2 0x12E PUSH2 0x2E8 JUMP JUMPDEST JUMPDEST PUSH1 0x20 MUL ADD DUP2 DUP2 MSTORE POP POP JUMPDEST DUP1 DUP1 PUSH1 0x1 ADD SWAP2 POP POP PUSH2 0xF4 JUMP JUMPDEST POP SWAP1 JUMP JUMPDEST PUSH2 0x152 PUSH2 0x19D JUMP JUMPDEST PUSH0 JUMPDEST PUSH1 0xA DUP2 LT ISZERO PUSH2 0x199 JUMPI DUP1 PUSH1 0x64 PUSH2 0x16A SWAP2 SWAP1 PUSH2 0x2B5 JUMP JUMPDEST DUP3 DUP3 PUSH1 0xA DUP2 LT PUSH2 0x17D JUMPI PUSH2 0x17C PUSH2 0x2E8 JUMP JUMPDEST JUMPDEST PUSH1 0x20 MUL ADD DUP2 DUP2 MSTORE POP POP DUP1 DUP1 PUSH2 0x191 SWAP1 PUSH2 0x315 JUMP JUMPDEST SWAP2 POP POP PUSH2 0x154 JUMP JUMPDEST POP SWAP1 JUMP JUMPDEST PUSH1 0x40 MLOAD DUP1 PUSH2 0x140 ADD PUSH1 0x40 MSTORE DUP1 PUSH1 0xA SWAP1 PUSH1 0x20 DUP3 MUL DUP1 CALLDATASIZE DUP4 CALLDATACOPY DUP1 DUP3 ADD SWAP2 POP POP SWAP1 POP POP SWAP1 JUMP JUMPDEST PUSH0 PUSH1 0xA SWAP1 POP SWAP2 SWAP1 POP JUMP JUMPDEST PUSH0 DUP2 SWAP1 POP SWAP3 SWAP2 POP POP JUMP JUMPDEST PUSH0 DUP2 SWAP1 POP SWAP2 SWAP1 POP JUMP JUMPDEST PUSH0 DUP2 SWAP1 POP SWAP2 SWAP1 POP JUMP JUMPDEST PUSH2 0x1EF DUP2 PUSH2 0x1DD JUMP JUMPDEST DUP3 MSTORE POP POP JUMP JUMPDEST PUSH0 PUSH2 0x200 DUP4 DUP4 PUSH2 0x1E6 JUMP JUMPDEST PUSH1 0x20 DUP4 ADD SWAP1 POP SWAP3 SWAP2 POP POP JUMP JUMPDEST PUSH0 PUSH1 0x20 DUP3 ADD SWAP1 POP SWAP2 SWAP1 POP JUMP JUMPDEST PUSH2 0x221 DUP2 PUSH2 0x1C0 JUMP JUMPDEST PUSH2 0x22B DUP2 DUP5 PUSH2 0x1CA JUMP JUMPDEST SWAP3 POP PUSH2 0x236 DUP3 PUSH2 0x1D4 JUMP JUMPDEST DUP1 PUSH0 JUMPDEST DUP4 DUP2 LT ISZERO PUSH2 0x266 JUMPI DUP2 MLOAD PUSH2 0x24D DUP8 DUP3 PUSH2 0x1F5 JUMP JUMPDEST SWAP7 POP PUSH2 0x258 DUP4 PUSH2 0x20C JUMP JUMPDEST SWAP3 POP POP PUSH1 0x1 DUP2 ADD SWAP1 POP PUSH2 0x239 JUMP JUMPDEST POP POP POP POP POP POP JUMP JUMPDEST PUSH0 PUSH2 0x140 DUP3 ADD SWAP1 POP PUSH2 0x282 PUSH0 DUP4 ADD DUP5 PUSH2 0x218 JUMP JUMPDEST SWAP3 SWAP2 POP POP JUMP JUMPDEST PUSH32 0x4E487B7100000000000000000000000000000000000000000000000000000000 PUSH0 MSTORE PUSH1 0x11 PUSH1 0x4 MSTORE PUSH1 0x24 PUSH0 REVERT JUMPDEST PUSH0 PUSH2 0x2BF DUP3 PUSH2 0x1DD JUMP JUMPDEST SWAP2 POP PUSH2 0x2CA DUP4 PUSH2 0x1DD JUMP JUMPDEST SWAP3 POP DUP3 DUP3 ADD SWAP1 POP DUP1 DUP3 GT ISZERO PUSH2 0x2E2 JUMPI PUSH2 0x2E1 PUSH2 0x288 JUMP JUMPDEST JUMPDEST SWAP3 SWAP2 POP POP JUMP JUMPDEST PUSH32 0x4E487B7100000000000000000000000000000000000000000000000000000000 PUSH0 MSTORE PUSH1 0x32 PUSH1 0x4 MSTORE PUSH1 0x24 PUSH0 REVERT JUMPDEST PUSH0 PUSH2 0x31F DUP3 PUSH2 0x1DD JUMP JUMPDEST SWAP2 POP PUSH32 0xFFFFFFFFFFFFFFFFFFFFFFFFFFFFFFFFFFFFFFFFFFFFFFFFFFFFFFFFFFFFFFFF DUP3 SUB PUSH2 0x351 JUMPI PUSH2 0x350 PUSH2 0x288 JUMP JUMPDEST JUMPDEST PUSH1 0x1 DUP3 ADD SWAP1 POP SWAP2 SWAP1 POP JUMP INVALID LOG2 PUSH5 0x6970667358 0x22 SLT KECCAK256 0x1E 0xEE 0xDB BASEFEE 0xAC PUSH25 0x48BFBF47B8EC27E81F3B954951F9F93C89AB75330F8C2E3C5 0x2A PUSH5 0x736F6C6343 STOP ADDMOD BYTE STOP CALLER "
				},
				"gasEstimates": {
					"creation": {
						"codeDepositCost": "182800",
						"executionCost": "224",
						"totalCost": "183024"
					},
					"external": {
						"testDoWhile()": "infinite",
						"testFor()": "infinite",
						"testWhile()": "infinite"
					}
				},
				"methodIdentifiers": {
					"testDoWhile()": "cb93d736",
					"testFor()": "d65d8b16",
					"testWhile()": "f01ff72d"
				}
			},
			"storageLayout": {
				"storage": [],
				"types": null
			},
			"userdoc": {
				"kind": "user",
				"methods": {},
				"version": 1
			}
		}
	}
}