{
	"1.3.1-整型.sol": {
		"Test": {
			"abi": [
				{
					"inputs": [
						{
							"internalType": "uint8",
							"name": "x",
							"type": "uint8"
						},
						{
							"internalType": "uint8",
							"name": "y",
							"type": "uint8"
						}
					],
					"name": "add",
					"outputs": [
						{
							"internalType": "uint8",
							"name": "",
							"type": "uint8"
						}
					],
					"stateMutability": "pure",
					"type": "function"
				},
				{
					"inputs": [
						{
							"internalType": "uint8",
							"name": "x",
							"type": "uint8"
						},
						{
							"internalType": "uint8",
							"name": "y",
							"type": "uint8"
						}
					],
					"name": "add2",
					"outputs": [
						{
							"internalType": "uint8",
							"name": "",
							"type": "uint8"
						}
					],
					"stateMutability": "pure",
					"type": "function"
				},
				{
					"inputs": [
						{
							"internalType": "int8",
							"name": "x",
							"type": "int8"
						},
						{
							"internalType": "uint8",
							"name": "y",
							"type": "uint8"
						}
					],
					"name": "add3",
					"outputs": [
						{
							"internalType": "uint8",
							"name": "",
							"type": "uint8"
						}
					],
					"stateMutability": "pure",
					"type": "function"
				},
				{
					"inputs": [
						{
							"internalType": "uint8",
							"name": "x",
							"type": "uint8"
						},
						{
							"internalType": "uint8",
							"name": "y",
							"type": "uint8"
						}
					],
					"name": "div",
					"outputs": [
						{
							"internalType": "uint8",
							"name": "",
							"type": "uint8"
						}
					],
					"stateMutability": "pure",
					"type": "function"
				},
				{
					"inputs": [
						{
							"internalType": "uint8",
							"name": "x",
							"type": "uint8"
						},
						{
							"internalType": "uint8",
							"name": "y",
							"type": "uint8"
						}
					],
					"name": "exp",
					"outputs": [
						{
							"internalType": "uint8",
							"name": "",
							"type": "uint8"
						}
					],
					"stateMutability": "pure",
					"type": "function"
				},
				{
					"inputs": [
						{
							"internalType": "uint8",
							"name": "x",
							"type": "uint8"
						},
						{
							"internalType": "uint8",
							"name": "y",
							"type": "uint8"
						}
					],
					"name": "gtFunc",
					"outputs": [
						{
							"internalType": "bool",
							"name": "",
							"type": "bool"
						}
					],
					"stateMutability": "pure",
					"type": "function"
				},
				{
					"inputs": [
						{
							"internalType": "uint8",
							"name": "x",
							"type": "uint8"
						},
						{
							"internalType": "uint8",
							"name": "y",
							"type": "uint8"
						}
					],
					"name": "gteFunc",
					"outputs": [
						{
							"internalType": "bool",
							"name": "",
							"type": "bool"
						}
					],
					"stateMutability": "pure",
					"type": "function"
				},
				{
					"inputs": [
						{
							"internalType": "uint8",
							"name": "x",
							"type": "uint8"
						},
						{
							"internalType": "uint8",
							"name": "y",
							"type": "uint8"
						}
					],
					"name": "ltFunc",
					"outputs": [
						{
							"internalType": "bool",
							"name": "",
							"type": "bool"
						}
					],
					"stateMutability": "pure",
					"type": "function"
				},
				{
					"inputs": [
						{
							"internalType": "uint8",
							"name": "x",
							"type": "uint8"
						},
						{
							"internalType": "uint8",
							"name": "y",
							"type": "uint8"
						}
					],
					"name": "lteFunc",
					"outputs": [
						{
							"internalType": "bool",
							"name": "",
							"type": "bool"
						}
					],
					"stateMutability": "pure",
					"type": "function"
				},
				{
					"inputs": [
						{
							"internalType": "uint8",
							"name": "x",
							"type": "uint8"
						},
						{
							"internalType": "uint8",
							"name": "y",
							"type": "uint8"
						}
					],
					"name": "mol",
					"outputs": [
						{
							"internalType": "uint8",
							"name": "",
							"type": "uint8"
						}
					],
					"stateMutability": "pure",
					"type": "function"
				},
				{
					"inputs": [
						{
							"internalType": "uint8",
							"name": "x",
							"type": "uint8"
						},
						{
							"internalType": "uint8",
							"name": "y",
							"type": "uint8"
						}
					],
					"name": "mul",
					"outputs": [
						{
							"internalType": "uint8",
							"name": "",
							"type": "uint8"
						}
					],
					"stateMutability": "pure",
					"type": "function"
				},
				{
					"inputs": [
						{
							"internalType": "uint8",
							"name": "x",
							"type": "uint8"
						},
						{
							"internalType": "uint8",
							"name": "y",
							"type": "uint8"
						}
					],
					"name": "sub",
					"outputs": [
						{
							"internalType": "uint8",
							"name": "",
							"type": "uint8"
						}
					],
					"stateMutability": "pure",
					"type": "function"
				}
			],
			"devdoc": {
				"kind": "dev",
				"methods": {},
				"version": 1
			},
			"evm": {
				"assembly": "    /* \"1.3.1-\\xe6\\x95\\xb4\\xe5\\x9e\\x8b.sol\":68:1422  contract Test {... */\n  mstore(0x40, 0x80)\n  callvalue\n  dup1\n  iszero\n  tag_1\n  jumpi\n  0x00\n  dup1\n  revert\ntag_1:\n  pop\n  dataSize(sub_0)\n  dup1\n  dataOffset(sub_0)\n  0x00\n  codecopy\n  0x00\n  return\nstop\n\nsub_0: assembly {\n        /* \"1.3.1-\\xe6\\x95\\xb4\\xe5\\x9e\\x8b.sol\":68:1422  contract Test {... */\n      mstore(0x40, 0x80)\n      callvalue\n      dup1\n      iszero\n      tag_1\n      jumpi\n      0x00\n      dup1\n      revert\n    tag_1:\n      pop\n      jumpi(tag_2, lt(calldatasize, 0x04))\n      shr(0xe0, calldataload(0x00))\n      dup1\n      0xbb4e3f4d\n      gt\n      tag_15\n      jumpi\n      dup1\n      0xbb4e3f4d\n      eq\n      tag_9\n      jumpi\n      dup1\n      0xbcd8a60f\n      eq\n      tag_10\n      jumpi\n      dup1\n      0xc6fce1d4\n      eq\n      tag_11\n      jumpi\n      dup1\n      0xcb14f5cb\n      eq\n      tag_12\n      jumpi\n      dup1\n      0xd7145d31\n      eq\n      tag_13\n      jumpi\n      dup1\n      0xe51a3b40\n      eq\n      tag_14\n      jumpi\n      jump(tag_2)\n    tag_15:\n      dup1\n      0x1e5f34af\n      eq\n      tag_3\n      jumpi\n      dup1\n      0x21c60ac6\n      eq\n      tag_4\n      jumpi\n      dup1\n      0x2d8dc44b\n      eq\n      tag_5\n      jumpi\n      dup1\n      0x45700383\n      eq\n      tag_6\n      jumpi\n      dup1\n      0x54d492c1\n      eq\n      tag_7\n      jumpi\n      dup1\n      0xb27220fb\n      eq\n      tag_8\n      jumpi\n    tag_2:\n      0x00\n      dup1\n      revert\n        /* \"1.3.1-\\xe6\\x95\\xb4\\xe5\\x9e\\x8b.sol\":585:675  function sub(uint8 x, uint8 y) public pure returns (uint8) {... */\n    tag_3:\n      tag_16\n      0x04\n      dup1\n      calldatasize\n      sub\n      dup2\n      add\n      swap1\n      tag_17\n      swap2\n      swap1\n      tag_18\n      jump\t// in\n    tag_17:\n      tag_19\n      jump\t// in\n    tag_16:\n      mload(0x40)\n      tag_20\n      swap2\n      swap1\n      tag_21\n      jump\t// in\n    tag_20:\n      mload(0x40)\n      dup1\n      swap2\n      sub\n      swap1\n      return\n        /* \"1.3.1-\\xe6\\x95\\xb4\\xe5\\x9e\\x8b.sol\":777:867  function div(uint8 x, uint8 y) public pure returns (uint8) {... */\n    tag_4:\n      tag_22\n      0x04\n      dup1\n      calldatasize\n      sub\n      dup2\n      add\n      swap1\n      tag_23\n      swap2\n      swap1\n      tag_18\n      jump\t// in\n    tag_23:\n      tag_24\n      jump\t// in\n    tag_22:\n      mload(0x40)\n      tag_25\n      swap2\n      swap1\n      tag_21\n      jump\t// in\n    tag_25:\n      mload(0x40)\n      dup1\n      swap2\n      sub\n      swap1\n      return\n        /* \"1.3.1-\\xe6\\x95\\xb4\\xe5\\x9e\\x8b.sol\":287:381  function lteFunc(uint8 x, uint8 y) public pure returns (bool) {... */\n    tag_5:\n      tag_26\n      0x04\n      dup1\n      calldatasize\n      sub\n      dup2\n      add\n      swap1\n      tag_27\n      swap2\n      swap1\n      tag_18\n      jump\t// in\n    tag_27:\n      tag_28\n      jump\t// in\n    tag_26:\n      mload(0x40)\n      tag_29\n      swap2\n      swap1\n      tag_30\n      jump\t// in\n    tag_29:\n      mload(0x40)\n      dup1\n      swap2\n      sub\n      swap1\n      return\n        /* \"1.3.1-\\xe6\\x95\\xb4\\xe5\\x9e\\x8b.sol\":187:281  function gteFunc(uint8 x, uint8 y) public pure returns (bool) {... */\n    tag_6:\n      tag_31\n      0x04\n      dup1\n      calldatasize\n      sub\n      dup2\n      add\n      swap1\n      tag_32\n      swap2\n      swap1\n      tag_18\n      jump\t// in\n    tag_32:\n      tag_33\n      jump\t// in\n    tag_31:\n      mload(0x40)\n      tag_34\n      swap2\n      swap1\n      tag_30\n      jump\t// in\n    tag_34:\n      mload(0x40)\n      dup1\n      swap2\n      sub\n      swap1\n      return\n        /* \"1.3.1-\\xe6\\x95\\xb4\\xe5\\x9e\\x8b.sol\":1182:1273  function add2(uint8 x, uint8 y) public pure returns (uint8) {... */\n    tag_7:\n      tag_35\n      0x04\n      dup1\n      calldatasize\n      sub\n      dup2\n      add\n      swap1\n      tag_36\n      swap2\n      swap1\n      tag_18\n      jump\t// in\n    tag_36:\n      tag_37\n      jump\t// in\n    tag_35:\n      mload(0x40)\n      tag_38\n      swap2\n      swap1\n      tag_21\n      jump\t// in\n    tag_38:\n      mload(0x40)\n      dup1\n      swap2\n      sub\n      swap1\n      return\n        /* \"1.3.1-\\xe6\\x95\\xb4\\xe5\\x9e\\x8b.sol\":89:181  function gtFunc(uint8 x, uint8 y) public pure returns (bool) {... */\n    tag_8:\n      tag_39\n      0x04\n      dup1\n      calldatasize\n      sub\n      dup2\n      add\n      swap1\n      tag_40\n      swap2\n      swap1\n      tag_18\n      jump\t// in\n    tag_40:\n      tag_41\n      jump\t// in\n    tag_39:\n      mload(0x40)\n      tag_42\n      swap2\n      swap1\n      tag_30\n      jump\t// in\n    tag_42:\n      mload(0x40)\n      dup1\n      swap2\n      sub\n      swap1\n      return\n        /* \"1.3.1-\\xe6\\x95\\xb4\\xe5\\x9e\\x8b.sol\":487:577  function add(uint8 x, uint8 y) public pure returns (uint8) {... */\n    tag_9:\n      tag_43\n      0x04\n      dup1\n      calldatasize\n      sub\n      dup2\n      add\n      swap1\n      tag_44\n      swap2\n      swap1\n      tag_18\n      jump\t// in\n    tag_44:\n      tag_45\n      jump\t// in\n    tag_43:\n      mload(0x40)\n      tag_46\n      swap2\n      swap1\n      tag_21\n      jump\t// in\n    tag_46:\n      mload(0x40)\n      dup1\n      swap2\n      sub\n      swap1\n      return\n        /* \"1.3.1-\\xe6\\x95\\xb4\\xe5\\x9e\\x8b.sol\":1296:1419  function add3(int8 x, uint8 y) public pure returns (uint8) {... */\n    tag_10:\n      tag_47\n      0x04\n      dup1\n      calldatasize\n      sub\n      dup2\n      add\n      swap1\n      tag_48\n      swap2\n      swap1\n      tag_49\n      jump\t// in\n    tag_48:\n      tag_50\n      jump\t// in\n    tag_47:\n      mload(0x40)\n      tag_51\n      swap2\n      swap1\n      tag_21\n      jump\t// in\n    tag_51:\n      mload(0x40)\n      dup1\n      swap2\n      sub\n      swap1\n      return\n        /* \"1.3.1-\\xe6\\x95\\xb4\\xe5\\x9e\\x8b.sol\":873:963  function mol(uint8 x, uint8 y) public pure returns (uint8) {... */\n    tag_11:\n      tag_52\n      0x04\n      dup1\n      calldatasize\n      sub\n      dup2\n      add\n      swap1\n      tag_53\n      swap2\n      swap1\n      tag_18\n      jump\t// in\n    tag_53:\n      tag_54\n      jump\t// in\n    tag_52:\n      mload(0x40)\n      tag_55\n      swap2\n      swap1\n      tag_21\n      jump\t// in\n    tag_55:\n      mload(0x40)\n      dup1\n      swap2\n      sub\n      swap1\n      return\n        /* \"1.3.1-\\xe6\\x95\\xb4\\xe5\\x9e\\x8b.sol\":387:479  function ltFunc(uint8 x, uint8 y) public pure returns (bool) {... */\n    tag_12:\n      tag_56\n      0x04\n      dup1\n      calldatasize\n      sub\n      dup2\n      add\n      swap1\n      tag_57\n      swap2\n      swap1\n      tag_18\n      jump\t// in\n    tag_57:\n      tag_58\n      jump\t// in\n    tag_56:\n      mload(0x40)\n      tag_59\n      swap2\n      swap1\n      tag_30\n      jump\t// in\n    tag_59:\n      mload(0x40)\n      dup1\n      swap2\n      sub\n      swap1\n      return\n        /* \"1.3.1-\\xe6\\x95\\xb4\\xe5\\x9e\\x8b.sol\":993:1084  function exp(uint8 x, uint8 y) public pure returns (uint8) {... */\n    tag_13:\n      tag_60\n      0x04\n      dup1\n      calldatasize\n      sub\n      dup2\n      add\n      swap1\n      tag_61\n      swap2\n      swap1\n      tag_18\n      jump\t// in\n    tag_61:\n      tag_62\n      jump\t// in\n    tag_60:\n      mload(0x40)\n      tag_63\n      swap2\n      swap1\n      tag_21\n      jump\t// in\n    tag_63:\n      mload(0x40)\n      dup1\n      swap2\n      sub\n      swap1\n      return\n        /* \"1.3.1-\\xe6\\x95\\xb4\\xe5\\x9e\\x8b.sol\":681:771  function mul(uint8 x, uint8 y) public pure returns (uint8) {... */\n    tag_14:\n      tag_64\n      0x04\n      dup1\n      calldatasize\n      sub\n      dup2\n      add\n      swap1\n      tag_65\n      swap2\n      swap1\n      tag_18\n      jump\t// in\n    tag_65:\n      tag_66\n      jump\t// in\n    tag_64:\n      mload(0x40)\n      tag_67\n      swap2\n      swap1\n      tag_21\n      jump\t// in\n    tag_67:\n      mload(0x40)\n      dup1\n      swap2\n      sub\n      swap1\n      return\n        /* \"1.3.1-\\xe6\\x95\\xb4\\xe5\\x9e\\x8b.sol\":585:675  function sub(uint8 x, uint8 y) public pure returns (uint8) {... */\n    tag_19:\n        /* \"1.3.1-\\xe6\\x95\\xb4\\xe5\\x9e\\x8b.sol\":637:642  uint8 */\n      0x00\n        /* \"1.3.1-\\xe6\\x95\\xb4\\xe5\\x9e\\x8b.sol\":666:667  y */\n      dup2\n        /* \"1.3.1-\\xe6\\x95\\xb4\\xe5\\x9e\\x8b.sol\":662:663  x */\n      dup4\n        /* \"1.3.1-\\xe6\\x95\\xb4\\xe5\\x9e\\x8b.sol\":662:667  x - y */\n      tag_69\n      swap2\n      swap1\n      tag_70\n      jump\t// in\n    tag_69:\n        /* \"1.3.1-\\xe6\\x95\\xb4\\xe5\\x9e\\x8b.sol\":655:667  return x - y */\n      swap1\n      pop\n        /* \"1.3.1-\\xe6\\x95\\xb4\\xe5\\x9e\\x8b.sol\":585:675  function sub(uint8 x, uint8 y) public pure returns (uint8) {... */\n      swap3\n      swap2\n      pop\n      pop\n      jump\t// out\n        /* \"1.3.1-\\xe6\\x95\\xb4\\xe5\\x9e\\x8b.sol\":777:867  function div(uint8 x, uint8 y) public pure returns (uint8) {... */\n    tag_24:\n        /* \"1.3.1-\\xe6\\x95\\xb4\\xe5\\x9e\\x8b.sol\":829:834  uint8 */\n      0x00\n        /* \"1.3.1-\\xe6\\x95\\xb4\\xe5\\x9e\\x8b.sol\":858:859  y */\n      dup2\n        /* \"1.3.1-\\xe6\\x95\\xb4\\xe5\\x9e\\x8b.sol\":854:855  x */\n      dup4\n        /* \"1.3.1-\\xe6\\x95\\xb4\\xe5\\x9e\\x8b.sol\":854:859  x / y */\n      tag_72\n      swap2\n      swap1\n      tag_73\n      jump\t// in\n    tag_72:\n        /* \"1.3.1-\\xe6\\x95\\xb4\\xe5\\x9e\\x8b.sol\":847:859  return x / y */\n      swap1\n      pop\n        /* \"1.3.1-\\xe6\\x95\\xb4\\xe5\\x9e\\x8b.sol\":777:867  function div(uint8 x, uint8 y) public pure returns (uint8) {... */\n      swap3\n      swap2\n      pop\n      pop\n      jump\t// out\n        /* \"1.3.1-\\xe6\\x95\\xb4\\xe5\\x9e\\x8b.sol\":287:381  function lteFunc(uint8 x, uint8 y) public pure returns (bool) {... */\n    tag_28:\n        /* \"1.3.1-\\xe6\\x95\\xb4\\xe5\\x9e\\x8b.sol\":343:347  bool */\n      0x00\n        /* \"1.3.1-\\xe6\\x95\\xb4\\xe5\\x9e\\x8b.sol\":372:373  y */\n      dup2\n        /* \"1.3.1-\\xe6\\x95\\xb4\\xe5\\x9e\\x8b.sol\":367:373  x <= y */\n      0xff\n      and\n        /* \"1.3.1-\\xe6\\x95\\xb4\\xe5\\x9e\\x8b.sol\":367:368  x */\n      dup4\n        /* \"1.3.1-\\xe6\\x95\\xb4\\xe5\\x9e\\x8b.sol\":367:373  x <= y */\n      0xff\n      and\n      gt\n      iszero\n        /* \"1.3.1-\\xe6\\x95\\xb4\\xe5\\x9e\\x8b.sol\":360:373  return x <= y */\n      swap1\n      pop\n        /* \"1.3.1-\\xe6\\x95\\xb4\\xe5\\x9e\\x8b.sol\":287:381  function lteFunc(uint8 x, uint8 y) public pure returns (bool) {... */\n      swap3\n      swap2\n      pop\n      pop\n      jump\t// out\n        /* \"1.3.1-\\xe6\\x95\\xb4\\xe5\\x9e\\x8b.sol\":187:281  function gteFunc(uint8 x, uint8 y) public pure returns (bool) {... */\n    tag_33:\n        /* \"1.3.1-\\xe6\\x95\\xb4\\xe5\\x9e\\x8b.sol\":243:247  bool */\n      0x00\n        /* \"1.3.1-\\xe6\\x95\\xb4\\xe5\\x9e\\x8b.sol\":272:273  y */\n      dup2\n        /* \"1.3.1-\\xe6\\x95\\xb4\\xe5\\x9e\\x8b.sol\":267:273  x >= y */\n      0xff\n      and\n        /* \"1.3.1-\\xe6\\x95\\xb4\\xe5\\x9e\\x8b.sol\":267:268  x */\n      dup4\n        /* \"1.3.1-\\xe6\\x95\\xb4\\xe5\\x9e\\x8b.sol\":267:273  x >= y */\n      0xff\n      and\n      lt\n      iszero\n        /* \"1.3.1-\\xe6\\x95\\xb4\\xe5\\x9e\\x8b.sol\":260:273  return x >= y */\n      swap1\n      pop\n        /* \"1.3.1-\\xe6\\x95\\xb4\\xe5\\x9e\\x8b.sol\":187:281  function gteFunc(uint8 x, uint8 y) public pure returns (bool) {... */\n      swap3\n      swap2\n      pop\n      pop\n      jump\t// out\n        /* \"1.3.1-\\xe6\\x95\\xb4\\xe5\\x9e\\x8b.sol\":1182:1273  function add2(uint8 x, uint8 y) public pure returns (uint8) {... */\n    tag_37:\n        /* \"1.3.1-\\xe6\\x95\\xb4\\xe5\\x9e\\x8b.sol\":1235:1240  uint8 */\n      0x00\n        /* \"1.3.1-\\xe6\\x95\\xb4\\xe5\\x9e\\x8b.sol\":1264:1265  y */\n      dup2\n        /* \"1.3.1-\\xe6\\x95\\xb4\\xe5\\x9e\\x8b.sol\":1260:1261  x */\n      dup4\n        /* \"1.3.1-\\xe6\\x95\\xb4\\xe5\\x9e\\x8b.sol\":1260:1265  x + y */\n      tag_77\n      swap2\n      swap1\n      tag_78\n      jump\t// in\n    tag_77:\n        /* \"1.3.1-\\xe6\\x95\\xb4\\xe5\\x9e\\x8b.sol\":1253:1265  return x + y */\n      swap1\n      pop\n        /* \"1.3.1-\\xe6\\x95\\xb4\\xe5\\x9e\\x8b.sol\":1182:1273  function add2(uint8 x, uint8 y) public pure returns (uint8) {... */\n      swap3\n      swap2\n      pop\n      pop\n      jump\t// out\n        /* \"1.3.1-\\xe6\\x95\\xb4\\xe5\\x9e\\x8b.sol\":89:181  function gtFunc(uint8 x, uint8 y) public pure returns (bool) {... */\n    tag_41:\n        /* \"1.3.1-\\xe6\\x95\\xb4\\xe5\\x9e\\x8b.sol\":144:148  bool */\n      0x00\n        /* \"1.3.1-\\xe6\\x95\\xb4\\xe5\\x9e\\x8b.sol\":172:173  y */\n      dup2\n        /* \"1.3.1-\\xe6\\x95\\xb4\\xe5\\x9e\\x8b.sol\":168:173  x > y */\n      0xff\n      and\n        /* \"1.3.1-\\xe6\\x95\\xb4\\xe5\\x9e\\x8b.sol\":168:169  x */\n      dup4\n        /* \"1.3.1-\\xe6\\x95\\xb4\\xe5\\x9e\\x8b.sol\":168:173  x > y */\n      0xff\n      and\n      gt\n        /* \"1.3.1-\\xe6\\x95\\xb4\\xe5\\x9e\\x8b.sol\":161:173  return x > y */\n      swap1\n      pop\n        /* \"1.3.1-\\xe6\\x95\\xb4\\xe5\\x9e\\x8b.sol\":89:181  function gtFunc(uint8 x, uint8 y) public pure returns (bool) {... */\n      swap3\n      swap2\n      pop\n      pop\n      jump\t// out\n        /* \"1.3.1-\\xe6\\x95\\xb4\\xe5\\x9e\\x8b.sol\":487:577  function add(uint8 x, uint8 y) public pure returns (uint8) {... */\n    tag_45:\n        /* \"1.3.1-\\xe6\\x95\\xb4\\xe5\\x9e\\x8b.sol\":539:544  uint8 */\n      0x00\n        /* \"1.3.1-\\xe6\\x95\\xb4\\xe5\\x9e\\x8b.sol\":568:569  y */\n      dup2\n        /* \"1.3.1-\\xe6\\x95\\xb4\\xe5\\x9e\\x8b.sol\":564:565  x */\n      dup4\n        /* \"1.3.1-\\xe6\\x95\\xb4\\xe5\\x9e\\x8b.sol\":564:569  x + y */\n      tag_81\n      swap2\n      swap1\n      tag_78\n      jump\t// in\n    tag_81:\n        /* \"1.3.1-\\xe6\\x95\\xb4\\xe5\\x9e\\x8b.sol\":557:569  return x + y */\n      swap1\n      pop\n        /* \"1.3.1-\\xe6\\x95\\xb4\\xe5\\x9e\\x8b.sol\":487:577  function add(uint8 x, uint8 y) public pure returns (uint8) {... */\n      swap3\n      swap2\n      pop\n      pop\n      jump\t// out\n        /* \"1.3.1-\\xe6\\x95\\xb4\\xe5\\x9e\\x8b.sol\":1296:1419  function add3(int8 x, uint8 y) public pure returns (uint8) {... */\n    tag_50:\n        /* \"1.3.1-\\xe6\\x95\\xb4\\xe5\\x9e\\x8b.sol\":1348:1353  uint8 */\n      0x00\n        /* \"1.3.1-\\xe6\\x95\\xb4\\xe5\\x9e\\x8b.sol\":1410:1411  y */\n      dup2\n        /* \"1.3.1-\\xe6\\x95\\xb4\\xe5\\x9e\\x8b.sol\":1405:1406  x */\n      dup4\n        /* \"1.3.1-\\xe6\\x95\\xb4\\xe5\\x9e\\x8b.sol\":1399:1411  uint8(x) + y */\n      tag_83\n      swap2\n      swap1\n      tag_78\n      jump\t// in\n    tag_83:\n        /* \"1.3.1-\\xe6\\x95\\xb4\\xe5\\x9e\\x8b.sol\":1392:1411  return uint8(x) + y */\n      swap1\n      pop\n        /* \"1.3.1-\\xe6\\x95\\xb4\\xe5\\x9e\\x8b.sol\":1296:1419  function add3(int8 x, uint8 y) public pure returns (uint8) {... */\n      swap3\n      swap2\n      pop\n      pop\n      jump\t// out\n        /* \"1.3.1-\\xe6\\x95\\xb4\\xe5\\x9e\\x8b.sol\":873:963  function mol(uint8 x, uint8 y) public pure returns (uint8) {... */\n    tag_54:\n        /* \"1.3.1-\\xe6\\x95\\xb4\\xe5\\x9e\\x8b.sol\":925:930  uint8 */\n      0x00\n        /* \"1.3.1-\\xe6\\x95\\xb4\\xe5\\x9e\\x8b.sol\":954:955  y */\n      dup2\n        /* \"1.3.1-\\xe6\\x95\\xb4\\xe5\\x9e\\x8b.sol\":950:951  x */\n      dup4\n        /* \"1.3.1-\\xe6\\x95\\xb4\\xe5\\x9e\\x8b.sol\":950:955  x % y */\n      tag_85\n      swap2\n      swap1\n      tag_86\n      jump\t// in\n    tag_85:\n        /* \"1.3.1-\\xe6\\x95\\xb4\\xe5\\x9e\\x8b.sol\":943:955  return x % y */\n      swap1\n      pop\n        /* \"1.3.1-\\xe6\\x95\\xb4\\xe5\\x9e\\x8b.sol\":873:963  function mol(uint8 x, uint8 y) public pure returns (uint8) {... */\n      swap3\n      swap2\n      pop\n      pop\n      jump\t// out\n        /* \"1.3.1-\\xe6\\x95\\xb4\\xe5\\x9e\\x8b.sol\":387:479  function ltFunc(uint8 x, uint8 y) public pure returns (bool) {... */\n    tag_58:\n        /* \"1.3.1-\\xe6\\x95\\xb4\\xe5\\x9e\\x8b.sol\":442:446  bool */\n      0x00\n        /* \"1.3.1-\\xe6\\x95\\xb4\\xe5\\x9e\\x8b.sol\":470:471  y */\n      dup2\n        /* \"1.3.1-\\xe6\\x95\\xb4\\xe5\\x9e\\x8b.sol\":466:471  x < y */\n      0xff\n      and\n        /* \"1.3.1-\\xe6\\x95\\xb4\\xe5\\x9e\\x8b.sol\":466:467  x */\n      dup4\n        /* \"1.3.1-\\xe6\\x95\\xb4\\xe5\\x9e\\x8b.sol\":466:471  x < y */\n      0xff\n      and\n      lt\n        /* \"1.3.1-\\xe6\\x95\\xb4\\xe5\\x9e\\x8b.sol\":459:471  return x < y */\n      swap1\n      pop\n        /* \"1.3.1-\\xe6\\x95\\xb4\\xe5\\x9e\\x8b.sol\":387:479  function ltFunc(uint8 x, uint8 y) public pure returns (bool) {... */\n      swap3\n      swap2\n      pop\n      pop\n      jump\t// out\n        /* \"1.3.1-\\xe6\\x95\\xb4\\xe5\\x9e\\x8b.sol\":993:1084  function exp(uint8 x, uint8 y) public pure returns (uint8) {... */\n    tag_62:\n        /* \"1.3.1-\\xe6\\x95\\xb4\\xe5\\x9e\\x8b.sol\":1045:1050  uint8 */\n      0x00\n        /* \"1.3.1-\\xe6\\x95\\xb4\\xe5\\x9e\\x8b.sol\":1075:1076  y */\n      dup2\n        /* \"1.3.1-\\xe6\\x95\\xb4\\xe5\\x9e\\x8b.sol\":1070:1071  x */\n      dup4\n        /* \"1.3.1-\\xe6\\x95\\xb4\\xe5\\x9e\\x8b.sol\":1070:1076  x ** y */\n      tag_89\n      swap2\n      swap1\n      tag_90\n      jump\t// in\n    tag_89:\n        /* \"1.3.1-\\xe6\\x95\\xb4\\xe5\\x9e\\x8b.sol\":1063:1076  return x ** y */\n      swap1\n      pop\n        /* \"1.3.1-\\xe6\\x95\\xb4\\xe5\\x9e\\x8b.sol\":993:1084  function exp(uint8 x, uint8 y) public pure returns (uint8) {... */\n      swap3\n      swap2\n      pop\n      pop\n      jump\t// out\n        /* \"1.3.1-\\xe6\\x95\\xb4\\xe5\\x9e\\x8b.sol\":681:771  function mul(uint8 x, uint8 y) public pure returns (uint8) {... */\n    tag_66:\n        /* \"1.3.1-\\xe6\\x95\\xb4\\xe5\\x9e\\x8b.sol\":733:738  uint8 */\n      0x00\n        /* \"1.3.1-\\xe6\\x95\\xb4\\xe5\\x9e\\x8b.sol\":762:763  y */\n      dup2\n        /* \"1.3.1-\\xe6\\x95\\xb4\\xe5\\x9e\\x8b.sol\":758:759  x */\n      dup4\n        /* \"1.3.1-\\xe6\\x95\\xb4\\xe5\\x9e\\x8b.sol\":758:763  x * y */\n      tag_92\n      swap2\n      swap1\n      tag_93\n      jump\t// in\n    tag_92:\n        /* \"1.3.1-\\xe6\\x95\\xb4\\xe5\\x9e\\x8b.sol\":751:763  return x * y */\n      swap1\n      pop\n        /* \"1.3.1-\\xe6\\x95\\xb4\\xe5\\x9e\\x8b.sol\":681:771  function mul(uint8 x, uint8 y) public pure returns (uint8) {... */\n      swap3\n      swap2\n      pop\n      pop\n      jump\t// out\n        /* \"#utility.yul\":88:205   */\n    tag_95:\n        /* \"#utility.yul\":197:198   */\n      0x00\n        /* \"#utility.yul\":194:195   */\n      dup1\n        /* \"#utility.yul\":187:199   */\n      revert\n        /* \"#utility.yul\":334:420   */\n    tag_97:\n        /* \"#utility.yul\":369:376   */\n      0x00\n        /* \"#utility.yul\":409:413   */\n      0xff\n        /* \"#utility.yul\":402:407   */\n      dup3\n        /* \"#utility.yul\":398:414   */\n      and\n        /* \"#utility.yul\":387:414   */\n      swap1\n      pop\n        /* \"#utility.yul\":334:420   */\n      swap2\n      swap1\n      pop\n      jump\t// out\n        /* \"#utility.yul\":426:544   */\n    tag_98:\n        /* \"#utility.yul\":497:519   */\n      tag_117\n        /* \"#utility.yul\":513:518   */\n      dup2\n        /* \"#utility.yul\":497:519   */\n      tag_97\n      jump\t// in\n    tag_117:\n        /* \"#utility.yul\":490:495   */\n      dup2\n        /* \"#utility.yul\":487:520   */\n      eq\n        /* \"#utility.yul\":477:538   */\n      tag_118\n      jumpi\n        /* \"#utility.yul\":534:535   */\n      0x00\n        /* \"#utility.yul\":531:532   */\n      dup1\n        /* \"#utility.yul\":524:536   */\n      revert\n        /* \"#utility.yul\":477:538   */\n    tag_118:\n        /* \"#utility.yul\":426:544   */\n      pop\n      jump\t// out\n        /* \"#utility.yul\":550:685   */\n    tag_99:\n        /* \"#utility.yul\":594:599   */\n      0x00\n        /* \"#utility.yul\":632:638   */\n      dup2\n        /* \"#utility.yul\":619:639   */\n      calldataload\n        /* \"#utility.yul\":610:639   */\n      swap1\n      pop\n        /* \"#utility.yul\":648:679   */\n      tag_120\n        /* \"#utility.yul\":673:678   */\n      dup2\n        /* \"#utility.yul\":648:679   */\n      tag_98\n      jump\t// in\n    tag_120:\n        /* \"#utility.yul\":550:685   */\n      swap3\n      swap2\n      pop\n      pop\n      jump\t// out\n        /* \"#utility.yul\":691:1157   */\n    tag_18:\n        /* \"#utility.yul\":755:761   */\n      0x00\n        /* \"#utility.yul\":763:769   */\n      dup1\n        /* \"#utility.yul\":812:814   */\n      0x40\n        /* \"#utility.yul\":800:809   */\n      dup4\n        /* \"#utility.yul\":791:798   */\n      dup6\n        /* \"#utility.yul\":787:810   */\n      sub\n        /* \"#utility.yul\":783:815   */\n      slt\n        /* \"#utility.yul\":780:899   */\n      iszero\n      tag_122\n      jumpi\n        /* \"#utility.yul\":818:897   */\n      tag_123\n      tag_95\n      jump\t// in\n    tag_123:\n        /* \"#utility.yul\":780:899   */\n    tag_122:\n        /* \"#utility.yul\":938:939   */\n      0x00\n        /* \"#utility.yul\":963:1014   */\n      tag_124\n        /* \"#utility.yul\":1006:1013   */\n      dup6\n        /* \"#utility.yul\":997:1003   */\n      dup3\n        /* \"#utility.yul\":986:995   */\n      dup7\n        /* \"#utility.yul\":982:1004   */\n      add\n        /* \"#utility.yul\":963:1014   */\n      tag_99\n      jump\t// in\n    tag_124:\n        /* \"#utility.yul\":953:1014   */\n      swap3\n      pop\n        /* \"#utility.yul\":909:1024   */\n      pop\n        /* \"#utility.yul\":1063:1065   */\n      0x20\n        /* \"#utility.yul\":1089:1140   */\n      tag_125\n        /* \"#utility.yul\":1132:1139   */\n      dup6\n        /* \"#utility.yul\":1123:1129   */\n      dup3\n        /* \"#utility.yul\":1112:1121   */\n      dup7\n        /* \"#utility.yul\":1108:1130   */\n      add\n        /* \"#utility.yul\":1089:1140   */\n      tag_99\n      jump\t// in\n    tag_125:\n        /* \"#utility.yul\":1079:1140   */\n      swap2\n      pop\n        /* \"#utility.yul\":1034:1150   */\n      pop\n        /* \"#utility.yul\":691:1157   */\n      swap3\n      pop\n      swap3\n      swap1\n      pop\n      jump\t// out\n        /* \"#utility.yul\":1163:1275   */\n    tag_100:\n        /* \"#utility.yul\":1246:1268   */\n      tag_127\n        /* \"#utility.yul\":1262:1267   */\n      dup2\n        /* \"#utility.yul\":1246:1268   */\n      tag_97\n      jump\t// in\n    tag_127:\n        /* \"#utility.yul\":1241:1244   */\n      dup3\n        /* \"#utility.yul\":1234:1269   */\n      mstore\n        /* \"#utility.yul\":1163:1275   */\n      pop\n      pop\n      jump\t// out\n        /* \"#utility.yul\":1281:1495   */\n    tag_21:\n        /* \"#utility.yul\":1370:1374   */\n      0x00\n        /* \"#utility.yul\":1408:1410   */\n      0x20\n        /* \"#utility.yul\":1397:1406   */\n      dup3\n        /* \"#utility.yul\":1393:1411   */\n      add\n        /* \"#utility.yul\":1385:1411   */\n      swap1\n      pop\n        /* \"#utility.yul\":1421:1488   */\n      tag_129\n        /* \"#utility.yul\":1485:1486   */\n      0x00\n        /* \"#utility.yul\":1474:1483   */\n      dup4\n        /* \"#utility.yul\":1470:1487   */\n      add\n        /* \"#utility.yul\":1461:1467   */\n      dup5\n        /* \"#utility.yul\":1421:1488   */\n      tag_100\n      jump\t// in\n    tag_129:\n        /* \"#utility.yul\":1281:1495   */\n      swap3\n      swap2\n      pop\n      pop\n      jump\t// out\n        /* \"#utility.yul\":1501:1591   */\n    tag_101:\n        /* \"#utility.yul\":1535:1542   */\n      0x00\n        /* \"#utility.yul\":1578:1583   */\n      dup2\n        /* \"#utility.yul\":1571:1584   */\n      iszero\n        /* \"#utility.yul\":1564:1585   */\n      iszero\n        /* \"#utility.yul\":1553:1585   */\n      swap1\n      pop\n        /* \"#utility.yul\":1501:1591   */\n      swap2\n      swap1\n      pop\n      jump\t// out\n        /* \"#utility.yul\":1597:1706   */\n    tag_102:\n        /* \"#utility.yul\":1678:1699   */\n      tag_132\n        /* \"#utility.yul\":1693:1698   */\n      dup2\n        /* \"#utility.yul\":1678:1699   */\n      tag_101\n      jump\t// in\n    tag_132:\n        /* \"#utility.yul\":1673:1676   */\n      dup3\n        /* \"#utility.yul\":1666:1700   */\n      mstore\n        /* \"#utility.yul\":1597:1706   */\n      pop\n      pop\n      jump\t// out\n        /* \"#utility.yul\":1712:1922   */\n    tag_30:\n        /* \"#utility.yul\":1799:1803   */\n      0x00\n        /* \"#utility.yul\":1837:1839   */\n      0x20\n        /* \"#utility.yul\":1826:1835   */\n      dup3\n        /* \"#utility.yul\":1822:1840   */\n      add\n        /* \"#utility.yul\":1814:1840   */\n      swap1\n      pop\n        /* \"#utility.yul\":1850:1915   */\n      tag_134\n        /* \"#utility.yul\":1912:1913   */\n      0x00\n        /* \"#utility.yul\":1901:1910   */\n      dup4\n        /* \"#utility.yul\":1897:1914   */\n      add\n        /* \"#utility.yul\":1888:1894   */\n      dup5\n        /* \"#utility.yul\":1850:1915   */\n      tag_102\n      jump\t// in\n    tag_134:\n        /* \"#utility.yul\":1712:1922   */\n      swap3\n      swap2\n      pop\n      pop\n      jump\t// out\n        /* \"#utility.yul\":1928:2017   */\n    tag_103:\n        /* \"#utility.yul\":1962:1969   */\n      0x00\n        /* \"#utility.yul\":2005:2010   */\n      dup2\n        /* \"#utility.yul\":2002:2003   */\n      0x00\n        /* \"#utility.yul\":1991:2011   */\n      signextend\n        /* \"#utility.yul\":1980:2011   */\n      swap1\n      pop\n        /* \"#utility.yul\":1928:2017   */\n      swap2\n      swap1\n      pop\n      jump\t// out\n        /* \"#utility.yul\":2023:2139   */\n    tag_104:\n        /* \"#utility.yul\":2093:2114   */\n      tag_137\n        /* \"#utility.yul\":2108:2113   */\n      dup2\n        /* \"#utility.yul\":2093:2114   */\n      tag_103\n      jump\t// in\n    tag_137:\n        /* \"#utility.yul\":2086:2091   */\n      dup2\n        /* \"#utility.yul\":2083:2115   */\n      eq\n        /* \"#utility.yul\":2073:2133   */\n      tag_138\n      jumpi\n        /* \"#utility.yul\":2129:2130   */\n      0x00\n        /* \"#utility.yul\":2126:2127   */\n      dup1\n        /* \"#utility.yul\":2119:2131   */\n      revert\n        /* \"#utility.yul\":2073:2133   */\n    tag_138:\n        /* \"#utility.yul\":2023:2139   */\n      pop\n      jump\t// out\n        /* \"#utility.yul\":2145:2278   */\n    tag_105:\n        /* \"#utility.yul\":2188:2193   */\n      0x00\n        /* \"#utility.yul\":2226:2232   */\n      dup2\n        /* \"#utility.yul\":2213:2233   */\n      calldataload\n        /* \"#utility.yul\":2204:2233   */\n      swap1\n      pop\n        /* \"#utility.yul\":2242:2272   */\n      tag_140\n        /* \"#utility.yul\":2266:2271   */\n      dup2\n        /* \"#utility.yul\":2242:2272   */\n      tag_104\n      jump\t// in\n    tag_140:\n        /* \"#utility.yul\":2145:2278   */\n      swap3\n      swap2\n      pop\n      pop\n      jump\t// out\n        /* \"#utility.yul\":2284:2748   */\n    tag_49:\n        /* \"#utility.yul\":2347:2353   */\n      0x00\n        /* \"#utility.yul\":2355:2361   */\n      dup1\n        /* \"#utility.yul\":2404:2406   */\n      0x40\n        /* \"#utility.yul\":2392:2401   */\n      dup4\n        /* \"#utility.yul\":2383:2390   */\n      dup6\n        /* \"#utility.yul\":2379:2402   */\n      sub\n        /* \"#utility.yul\":2375:2407   */\n      slt\n        /* \"#utility.yul\":2372:2491   */\n      iszero\n      tag_142\n      jumpi\n        /* \"#utility.yul\":2410:2489   */\n      tag_143\n      tag_95\n      jump\t// in\n    tag_143:\n        /* \"#utility.yul\":2372:2491   */\n    tag_142:\n        /* \"#utility.yul\":2530:2531   */\n      0x00\n        /* \"#utility.yul\":2555:2605   */\n      tag_144\n        /* \"#utility.yul\":2597:2604   */\n      dup6\n        /* \"#utility.yul\":2588:2594   */\n      dup3\n        /* \"#utility.yul\":2577:2586   */\n      dup7\n        /* \"#utility.yul\":2573:2595   */\n      add\n        /* \"#utility.yul\":2555:2605   */\n      tag_105\n      jump\t// in\n    tag_144:\n        /* \"#utility.yul\":2545:2605   */\n      swap3\n      pop\n        /* \"#utility.yul\":2501:2615   */\n      pop\n        /* \"#utility.yul\":2654:2656   */\n      0x20\n        /* \"#utility.yul\":2680:2731   */\n      tag_145\n        /* \"#utility.yul\":2723:2730   */\n      dup6\n        /* \"#utility.yul\":2714:2720   */\n      dup3\n        /* \"#utility.yul\":2703:2712   */\n      dup7\n        /* \"#utility.yul\":2699:2721   */\n      add\n        /* \"#utility.yul\":2680:2731   */\n      tag_99\n      jump\t// in\n    tag_145:\n        /* \"#utility.yul\":2670:2731   */\n      swap2\n      pop\n        /* \"#utility.yul\":2625:2741   */\n      pop\n        /* \"#utility.yul\":2284:2748   */\n      swap3\n      pop\n      swap3\n      swap1\n      pop\n      jump\t// out\n        /* \"#utility.yul\":2754:2934   */\n    tag_106:\n        /* \"#utility.yul\":2802:2879   */\n      0x4e487b7100000000000000000000000000000000000000000000000000000000\n        /* \"#utility.yul\":2799:2800   */\n      0x00\n        /* \"#utility.yul\":2792:2880   */\n      mstore\n        /* \"#utility.yul\":2899:2903   */\n      0x11\n        /* \"#utility.yul\":2896:2897   */\n      0x04\n        /* \"#utility.yul\":2889:2904   */\n      mstore\n        /* \"#utility.yul\":2923:2927   */\n      0x24\n        /* \"#utility.yul\":2920:2921   */\n      0x00\n        /* \"#utility.yul\":2913:2928   */\n      revert\n        /* \"#utility.yul\":2940:3131   */\n    tag_70:\n        /* \"#utility.yul\":2978:2982   */\n      0x00\n        /* \"#utility.yul\":2998:3016   */\n      tag_148\n        /* \"#utility.yul\":3014:3015   */\n      dup3\n        /* \"#utility.yul\":2998:3016   */\n      tag_97\n      jump\t// in\n    tag_148:\n        /* \"#utility.yul\":2993:3016   */\n      swap2\n      pop\n        /* \"#utility.yul\":3030:3048   */\n      tag_149\n        /* \"#utility.yul\":3046:3047   */\n      dup4\n        /* \"#utility.yul\":3030:3048   */\n      tag_97\n      jump\t// in\n    tag_149:\n        /* \"#utility.yul\":3025:3048   */\n      swap3\n      pop\n        /* \"#utility.yul\":3072:3073   */\n      dup3\n        /* \"#utility.yul\":3069:3070   */\n      dup3\n        /* \"#utility.yul\":3065:3074   */\n      sub\n        /* \"#utility.yul\":3057:3074   */\n      swap1\n      pop\n        /* \"#utility.yul\":3096:3100   */\n      0xff\n        /* \"#utility.yul\":3090:3094   */\n      dup2\n        /* \"#utility.yul\":3087:3101   */\n      gt\n        /* \"#utility.yul\":3084:3124   */\n      iszero\n      tag_150\n      jumpi\n        /* \"#utility.yul\":3104:3122   */\n      tag_151\n      tag_106\n      jump\t// in\n    tag_151:\n        /* \"#utility.yul\":3084:3124   */\n    tag_150:\n        /* \"#utility.yul\":2940:3131   */\n      swap3\n      swap2\n      pop\n      pop\n      jump\t// out\n        /* \"#utility.yul\":3137:3317   */\n    tag_107:\n        /* \"#utility.yul\":3185:3262   */\n      0x4e487b7100000000000000000000000000000000000000000000000000000000\n        /* \"#utility.yul\":3182:3183   */\n      0x00\n        /* \"#utility.yul\":3175:3263   */\n      mstore\n        /* \"#utility.yul\":3282:3286   */\n      0x12\n        /* \"#utility.yul\":3279:3280   */\n      0x04\n        /* \"#utility.yul\":3272:3287   */\n      mstore\n        /* \"#utility.yul\":3306:3310   */\n      0x24\n        /* \"#utility.yul\":3303:3304   */\n      0x00\n        /* \"#utility.yul\":3296:3311   */\n      revert\n        /* \"#utility.yul\":3323:3502   */\n    tag_73:\n        /* \"#utility.yul\":3361:3362   */\n      0x00\n        /* \"#utility.yul\":3378:3396   */\n      tag_154\n        /* \"#utility.yul\":3394:3395   */\n      dup3\n        /* \"#utility.yul\":3378:3396   */\n      tag_97\n      jump\t// in\n    tag_154:\n        /* \"#utility.yul\":3373:3396   */\n      swap2\n      pop\n        /* \"#utility.yul\":3410:3428   */\n      tag_155\n        /* \"#utility.yul\":3426:3427   */\n      dup4\n        /* \"#utility.yul\":3410:3428   */\n      tag_97\n      jump\t// in\n    tag_155:\n        /* \"#utility.yul\":3405:3428   */\n      swap3\n      pop\n        /* \"#utility.yul\":3447:3448   */\n      dup3\n        /* \"#utility.yul\":3437:3472   */\n      tag_156\n      jumpi\n        /* \"#utility.yul\":3452:3470   */\n      tag_157\n      tag_107\n      jump\t// in\n    tag_157:\n        /* \"#utility.yul\":3437:3472   */\n    tag_156:\n        /* \"#utility.yul\":3494:3495   */\n      dup3\n        /* \"#utility.yul\":3491:3492   */\n      dup3\n        /* \"#utility.yul\":3487:3496   */\n      div\n        /* \"#utility.yul\":3482:3496   */\n      swap1\n      pop\n        /* \"#utility.yul\":3323:3502   */\n      swap3\n      swap2\n      pop\n      pop\n      jump\t// out\n        /* \"#utility.yul\":3508:3696   */\n    tag_78:\n        /* \"#utility.yul\":3546:3549   */\n      0x00\n        /* \"#utility.yul\":3565:3583   */\n      tag_159\n        /* \"#utility.yul\":3581:3582   */\n      dup3\n        /* \"#utility.yul\":3565:3583   */\n      tag_97\n      jump\t// in\n    tag_159:\n        /* \"#utility.yul\":3560:3583   */\n      swap2\n      pop\n        /* \"#utility.yul\":3597:3615   */\n      tag_160\n        /* \"#utility.yul\":3613:3614   */\n      dup4\n        /* \"#utility.yul\":3597:3615   */\n      tag_97\n      jump\t// in\n    tag_160:\n        /* \"#utility.yul\":3592:3615   */\n      swap3\n      pop\n        /* \"#utility.yul\":3638:3639   */\n      dup3\n        /* \"#utility.yul\":3635:3636   */\n      dup3\n        /* \"#utility.yul\":3631:3640   */\n      add\n        /* \"#utility.yul\":3624:3640   */\n      swap1\n      pop\n        /* \"#utility.yul\":3661:3665   */\n      0xff\n        /* \"#utility.yul\":3656:3659   */\n      dup2\n        /* \"#utility.yul\":3653:3666   */\n      gt\n        /* \"#utility.yul\":3650:3689   */\n      iszero\n      tag_161\n      jumpi\n        /* \"#utility.yul\":3669:3687   */\n      tag_162\n      tag_106\n      jump\t// in\n    tag_162:\n        /* \"#utility.yul\":3650:3689   */\n    tag_161:\n        /* \"#utility.yul\":3508:3696   */\n      swap3\n      swap2\n      pop\n      pop\n      jump\t// out\n        /* \"#utility.yul\":3702:3872   */\n    tag_86:\n        /* \"#utility.yul\":3732:3733   */\n      0x00\n        /* \"#utility.yul\":3749:3767   */\n      tag_164\n        /* \"#utility.yul\":3765:3766   */\n      dup3\n        /* \"#utility.yul\":3749:3767   */\n      tag_97\n      jump\t// in\n    tag_164:\n        /* \"#utility.yul\":3744:3767   */\n      swap2\n      pop\n        /* \"#utility.yul\":3781:3799   */\n      tag_165\n        /* \"#utility.yul\":3797:3798   */\n      dup4\n        /* \"#utility.yul\":3781:3799   */\n      tag_97\n      jump\t// in\n    tag_165:\n        /* \"#utility.yul\":3776:3799   */\n      swap3\n      pop\n        /* \"#utility.yul\":3818:3819   */\n      dup3\n        /* \"#utility.yul\":3808:3843   */\n      tag_166\n      jumpi\n        /* \"#utility.yul\":3823:3841   */\n      tag_167\n      tag_107\n      jump\t// in\n    tag_167:\n        /* \"#utility.yul\":3808:3843   */\n    tag_166:\n        /* \"#utility.yul\":3864:3865   */\n      dup3\n        /* \"#utility.yul\":3861:3862   */\n      dup3\n        /* \"#utility.yul\":3857:3866   */\n      mod\n        /* \"#utility.yul\":3852:3866   */\n      swap1\n      pop\n        /* \"#utility.yul\":3702:3872   */\n      swap3\n      swap2\n      pop\n      pop\n      jump\t// out\n        /* \"#utility.yul\":3878:3980   */\n    tag_108:\n        /* \"#utility.yul\":3920:3928   */\n      0x00\n        /* \"#utility.yul\":3967:3972   */\n      dup2\n        /* \"#utility.yul\":3964:3965   */\n      0x01\n        /* \"#utility.yul\":3960:3973   */\n      shr\n        /* \"#utility.yul\":3939:3973   */\n      swap1\n      pop\n        /* \"#utility.yul\":3878:3980   */\n      swap2\n      swap1\n      pop\n      jump\t// out\n        /* \"#utility.yul\":3986:4834   */\n    tag_109:\n        /* \"#utility.yul\":4047:4052   */\n      0x00\n        /* \"#utility.yul\":4054:4058   */\n      dup1\n        /* \"#utility.yul\":4078:4084   */\n      dup3\n        /* \"#utility.yul\":4069:4084   */\n      swap2\n      pop\n        /* \"#utility.yul\":4102:4107   */\n      dup4\n        /* \"#utility.yul\":4093:4107   */\n      swap1\n      pop\n        /* \"#utility.yul\":4116:4828   */\n    tag_170:\n        /* \"#utility.yul\":4137:4138   */\n      0x01\n        /* \"#utility.yul\":4127:4135   */\n      dup6\n        /* \"#utility.yul\":4124:4139   */\n      gt\n        /* \"#utility.yul\":4116:4828   */\n      iszero\n      tag_172\n      jumpi\n        /* \"#utility.yul\":4232:4236   */\n      dup1\n        /* \"#utility.yul\":4227:4230   */\n      dup7\n        /* \"#utility.yul\":4223:4237   */\n      div\n        /* \"#utility.yul\":4217:4221   */\n      dup2\n        /* \"#utility.yul\":4214:4238   */\n      gt\n        /* \"#utility.yul\":4211:4261   */\n      iszero\n      tag_173\n      jumpi\n        /* \"#utility.yul\":4241:4259   */\n      tag_174\n      tag_106\n      jump\t// in\n    tag_174:\n        /* \"#utility.yul\":4211:4261   */\n    tag_173:\n        /* \"#utility.yul\":4291:4292   */\n      0x01\n        /* \"#utility.yul\":4281:4289   */\n      dup6\n        /* \"#utility.yul\":4277:4293   */\n      and\n        /* \"#utility.yul\":4274:4725   */\n      iszero\n      tag_175\n      jumpi\n        /* \"#utility.yul\":4706:4710   */\n      dup1\n        /* \"#utility.yul\":4699:4704   */\n      dup3\n        /* \"#utility.yul\":4695:4711   */\n      mul\n        /* \"#utility.yul\":4686:4711   */\n      swap2\n      pop\n        /* \"#utility.yul\":4274:4725   */\n    tag_175:\n        /* \"#utility.yul\":4756:4760   */\n      dup1\n        /* \"#utility.yul\":4750:4754   */\n      dup2\n        /* \"#utility.yul\":4746:4761   */\n      mul\n        /* \"#utility.yul\":4738:4761   */\n      swap1\n      pop\n        /* \"#utility.yul\":4786:4818   */\n      tag_176\n        /* \"#utility.yul\":4809:4817   */\n      dup6\n        /* \"#utility.yul\":4786:4818   */\n      tag_108\n      jump\t// in\n    tag_176:\n        /* \"#utility.yul\":4774:4818   */\n      swap5\n      pop\n        /* \"#utility.yul\":4116:4828   */\n      jump(tag_170)\n    tag_172:\n        /* \"#utility.yul\":3986:4834   */\n      swap5\n      pop\n      swap5\n      swap3\n      pop\n      pop\n      pop\n      jump\t// out\n        /* \"#utility.yul\":4840:5913   */\n    tag_110:\n        /* \"#utility.yul\":4894:4899   */\n      0x00\n        /* \"#utility.yul\":5085:5093   */\n      dup3\n        /* \"#utility.yul\":5075:5115   */\n      tag_178\n      jumpi\n        /* \"#utility.yul\":5106:5107   */\n      0x01\n        /* \"#utility.yul\":5097:5107   */\n      swap1\n      pop\n        /* \"#utility.yul\":5108:5113   */\n      jump(tag_177)\n        /* \"#utility.yul\":5075:5115   */\n    tag_178:\n        /* \"#utility.yul\":5134:5138   */\n      dup2\n        /* \"#utility.yul\":5124:5160   */\n      tag_179\n      jumpi\n        /* \"#utility.yul\":5151:5152   */\n      0x00\n        /* \"#utility.yul\":5142:5152   */\n      swap1\n      pop\n        /* \"#utility.yul\":5153:5158   */\n      jump(tag_177)\n        /* \"#utility.yul\":5124:5160   */\n    tag_179:\n        /* \"#utility.yul\":5220:5224   */\n      dup2\n        /* \"#utility.yul\":5268:5269   */\n      0x01\n        /* \"#utility.yul\":5263:5290   */\n      dup2\n      eq\n      tag_181\n      jumpi\n        /* \"#utility.yul\":5304:5305   */\n      0x02\n        /* \"#utility.yul\":5299:5490   */\n      dup2\n      eq\n      tag_182\n      jumpi\n        /* \"#utility.yul\":5213:5490   */\n      jump(tag_180)\n        /* \"#utility.yul\":5263:5290   */\n    tag_181:\n        /* \"#utility.yul\":5281:5282   */\n      0x01\n        /* \"#utility.yul\":5272:5282   */\n      swap2\n      pop\n        /* \"#utility.yul\":5283:5288   */\n      pop\n      jump(tag_177)\n        /* \"#utility.yul\":5299:5490   */\n    tag_182:\n        /* \"#utility.yul\":5344:5347   */\n      0xff\n        /* \"#utility.yul\":5334:5342   */\n      dup5\n        /* \"#utility.yul\":5331:5348   */\n      gt\n        /* \"#utility.yul\":5328:5371   */\n      iszero\n      tag_183\n      jumpi\n        /* \"#utility.yul\":5351:5369   */\n      tag_184\n      tag_106\n      jump\t// in\n    tag_184:\n        /* \"#utility.yul\":5328:5371   */\n    tag_183:\n        /* \"#utility.yul\":5400:5408   */\n      dup4\n        /* \"#utility.yul\":5397:5398   */\n      0x02\n        /* \"#utility.yul\":5393:5409   */\n      exp\n        /* \"#utility.yul\":5384:5409   */\n      swap2\n      pop\n        /* \"#utility.yul\":5435:5438   */\n      dup5\n        /* \"#utility.yul\":5428:5433   */\n      dup3\n        /* \"#utility.yul\":5425:5439   */\n      gt\n        /* \"#utility.yul\":5422:5462   */\n      iszero\n      tag_185\n      jumpi\n        /* \"#utility.yul\":5442:5460   */\n      tag_186\n      tag_106\n      jump\t// in\n    tag_186:\n        /* \"#utility.yul\":5422:5462   */\n    tag_185:\n        /* \"#utility.yul\":5475:5480   */\n      pop\n      jump(tag_177)\n        /* \"#utility.yul\":5213:5490   */\n    tag_180:\n      pop\n        /* \"#utility.yul\":5599:5601   */\n      0x20\n        /* \"#utility.yul\":5589:5597   */\n      dup4\n        /* \"#utility.yul\":5586:5602   */\n      lt\n        /* \"#utility.yul\":5580:5583   */\n      0x0133\n        /* \"#utility.yul\":5574:5578   */\n      dup4\n        /* \"#utility.yul\":5571:5584   */\n      lt\n        /* \"#utility.yul\":5567:5603   */\n      and\n        /* \"#utility.yul\":5549:5551   */\n      0x4e\n        /* \"#utility.yul\":5539:5547   */\n      dup5\n        /* \"#utility.yul\":5536:5552   */\n      lt\n        /* \"#utility.yul\":5531:5533   */\n      0x0b\n        /* \"#utility.yul\":5525:5529   */\n      dup5\n        /* \"#utility.yul\":5522:5534   */\n      lt\n        /* \"#utility.yul\":5518:5553   */\n      and\n        /* \"#utility.yul\":5502:5613   */\n      or\n        /* \"#utility.yul\":5499:5745   */\n      iszero\n      tag_187\n      jumpi\n        /* \"#utility.yul\":5655:5663   */\n      dup3\n        /* \"#utility.yul\":5649:5653   */\n      dup3\n        /* \"#utility.yul\":5645:5664   */\n      exp\n        /* \"#utility.yul\":5636:5664   */\n      swap1\n      pop\n        /* \"#utility.yul\":5690:5693   */\n      dup4\n        /* \"#utility.yul\":5683:5688   */\n      dup2\n        /* \"#utility.yul\":5680:5694   */\n      gt\n        /* \"#utility.yul\":5677:5717   */\n      iszero\n      tag_188\n      jumpi\n        /* \"#utility.yul\":5697:5715   */\n      tag_189\n      tag_106\n      jump\t// in\n    tag_189:\n        /* \"#utility.yul\":5677:5717   */\n    tag_188:\n        /* \"#utility.yul\":5730:5735   */\n      jump(tag_177)\n        /* \"#utility.yul\":5499:5745   */\n    tag_187:\n        /* \"#utility.yul\":5770:5812   */\n      tag_190\n        /* \"#utility.yul\":5808:5811   */\n      dup5\n        /* \"#utility.yul\":5798:5806   */\n      dup5\n        /* \"#utility.yul\":5792:5796   */\n      dup5\n        /* \"#utility.yul\":5789:5790   */\n      0x01\n        /* \"#utility.yul\":5770:5812   */\n      tag_109\n      jump\t// in\n    tag_190:\n        /* \"#utility.yul\":5755:5812   */\n      swap3\n      pop\n      swap1\n      pop\n        /* \"#utility.yul\":5844:5848   */\n      dup2\n        /* \"#utility.yul\":5839:5842   */\n      dup5\n        /* \"#utility.yul\":5835:5849   */\n      div\n        /* \"#utility.yul\":5828:5833   */\n      dup2\n        /* \"#utility.yul\":5825:5850   */\n      gt\n        /* \"#utility.yul\":5822:5873   */\n      iszero\n      tag_191\n      jumpi\n        /* \"#utility.yul\":5853:5871   */\n      tag_192\n      tag_106\n      jump\t// in\n    tag_192:\n        /* \"#utility.yul\":5822:5873   */\n    tag_191:\n        /* \"#utility.yul\":5902:5906   */\n      dup2\n        /* \"#utility.yul\":5895:5900   */\n      dup2\n        /* \"#utility.yul\":5891:5907   */\n      mul\n        /* \"#utility.yul\":5882:5907   */\n      swap1\n      pop\n        /* \"#utility.yul\":4840:5913   */\n    tag_177:\n      swap4\n      swap3\n      pop\n      pop\n      pop\n      jump\t// out\n        /* \"#utility.yul\":5919:6134   */\n    tag_90:\n        /* \"#utility.yul\":5975:5980   */\n      0x00\n        /* \"#utility.yul\":5999:6020   */\n      tag_194\n        /* \"#utility.yul\":6015:6019   */\n      dup3\n        /* \"#utility.yul\":5999:6020   */\n      tag_97\n      jump\t// in\n    tag_194:\n        /* \"#utility.yul\":5991:6020   */\n      swap2\n      pop\n        /* \"#utility.yul\":6041:6066   */\n      tag_195\n        /* \"#utility.yul\":6057:6065   */\n      dup4\n        /* \"#utility.yul\":6041:6066   */\n      tag_97\n      jump\t// in\n    tag_195:\n        /* \"#utility.yul\":6029:6066   */\n      swap3\n      pop\n        /* \"#utility.yul\":6085:6127   */\n      tag_196\n        /* \"#utility.yul\":6122:6126   */\n      0xff\n        /* \"#utility.yul\":6112:6120   */\n      dup5\n        /* \"#utility.yul\":6106:6110   */\n      dup5\n        /* \"#utility.yul\":6085:6127   */\n      tag_110\n      jump\t// in\n    tag_196:\n        /* \"#utility.yul\":6076:6127   */\n      swap1\n      pop\n        /* \"#utility.yul\":5919:6134   */\n      swap3\n      swap2\n      pop\n      pop\n      jump\t// out\n        /* \"#utility.yul\":6140:6411   */\n    tag_93:\n        /* \"#utility.yul\":6178:6185   */\n      0x00\n        /* \"#utility.yul\":6201:6219   */\n      tag_198\n        /* \"#utility.yul\":6217:6218   */\n      dup3\n        /* \"#utility.yul\":6201:6219   */\n      tag_97\n      jump\t// in\n    tag_198:\n        /* \"#utility.yul\":6196:6219   */\n      swap2\n      pop\n        /* \"#utility.yul\":6233:6251   */\n      tag_199\n        /* \"#utility.yul\":6249:6250   */\n      dup4\n        /* \"#utility.yul\":6233:6251   */\n      tag_97\n      jump\t// in\n    tag_199:\n        /* \"#utility.yul\":6228:6251   */\n      swap3\n      pop\n        /* \"#utility.yul\":6286:6287   */\n      dup3\n        /* \"#utility.yul\":6283:6284   */\n      dup3\n        /* \"#utility.yul\":6279:6288   */\n      mul\n        /* \"#utility.yul\":6308:6336   */\n      tag_200\n        /* \"#utility.yul\":6324:6335   */\n      dup2\n        /* \"#utility.yul\":6308:6336   */\n      tag_97\n      jump\t// in\n    tag_200:\n        /* \"#utility.yul\":6297:6336   */\n      swap2\n      pop\n        /* \"#utility.yul\":6368:6379   */\n      dup1\n        /* \"#utility.yul\":6359:6366   */\n      dup3\n        /* \"#utility.yul\":6356:6380   */\n      eq\n        /* \"#utility.yul\":6346:6404   */\n      tag_201\n      jumpi\n        /* \"#utility.yul\":6384:6402   */\n      tag_202\n      tag_106\n      jump\t// in\n    tag_202:\n        /* \"#utility.yul\":6346:6404   */\n    tag_201:\n        /* \"#utility.yul\":6186:6411   */\n      pop\n        /* \"#utility.yul\":6140:6411   */\n      swap3\n      swap2\n      pop\n      pop\n      jump\t// out\n\n    auxdata: 0xa264697066735822122043f74ad2f360bf08f9ad2867664d45c268d23fbd6194518ec9cd634379fa70ea64736f6c634300081a0033\n}\n",
				"bytecode": {
					"linkReferences": {},
					"object": "6080604052348015600e575f80fd5b5061081c8061001c5f395ff3fe608060405234801561000f575f80fd5b50600436106100b2575f3560e01c8063bb4e3f4d1161006f578063bb4e3f4d146101d6578063bcd8a60f14610206578063c6fce1d414610236578063cb14f5cb14610266578063d7145d3114610296578063e51a3b40146102c6576100b2565b80631e5f34af146100b657806321c60ac6146100e65780632d8dc44b14610116578063457003831461014657806354d492c114610176578063b27220fb146101a6575b5f80fd5b6100d060048036038101906100cb9190610422565b6102f6565b6040516100dd919061046f565b60405180910390f35b61010060048036038101906100fb9190610422565b61030b565b60405161010d919061046f565b60405180910390f35b610130600480360381019061012b9190610422565b610320565b60405161013d91906104a2565b60405180910390f35b610160600480360381019061015b9190610422565b610333565b60405161016d91906104a2565b60405180910390f35b610190600480360381019061018b9190610422565b610346565b60405161019d919061046f565b60405180910390f35b6101c060048036038101906101bb9190610422565b61035b565b6040516101cd91906104a2565b60405180910390f35b6101f060048036038101906101eb9190610422565b61036d565b6040516101fd919061046f565b60405180910390f35b610220600480360381019061021b91906104f0565b610382565b60405161022d919061046f565b60405180910390f35b610250600480360381019061024b9190610422565b610397565b60405161025d919061046f565b60405180910390f35b610280600480360381019061027b9190610422565b6103ac565b60405161028d91906104a2565b60405180910390f35b6102b060048036038101906102ab9190610422565b6103be565b6040516102bd919061046f565b60405180910390f35b6102e060048036038101906102db9190610422565b6103d3565b6040516102ed919061046f565b60405180910390f35b5f8183610303919061055b565b905092915050565b5f818361031891906105bc565b905092915050565b5f8160ff168360ff161115905092915050565b5f8160ff168360ff161015905092915050565b5f818361035391906105ec565b905092915050565b5f8160ff168360ff1611905092915050565b5f818361037a91906105ec565b905092915050565b5f818361038f91906105ec565b905092915050565b5f81836103a49190610620565b905092915050565b5f8160ff168360ff1610905092915050565b5f81836103cb919061077f565b905092915050565b5f81836103e091906107aa565b905092915050565b5f80fd5b5f60ff82169050919050565b610401816103ec565b811461040b575f80fd5b50565b5f8135905061041c816103f8565b92915050565b5f8060408385031215610438576104376103e8565b5b5f6104458582860161040e565b92505060206104568582860161040e565b9150509250929050565b610469816103ec565b82525050565b5f6020820190506104825f830184610460565b92915050565b5f8115159050919050565b61049c81610488565b82525050565b5f6020820190506104b55f830184610493565b92915050565b5f815f0b9050919050565b6104cf816104bb565b81146104d9575f80fd5b50565b5f813590506104ea816104c6565b92915050565b5f8060408385031215610506576105056103e8565b5b5f610513858286016104dc565b92505060206105248582860161040e565b9150509250929050565b7f4e487b71000000000000000000000000000000000000000000000000000000005f52601160045260245ffd5b5f610565826103ec565b9150610570836103ec565b9250828203905060ff8111156105895761058861052e565b5b92915050565b7f4e487b71000000000000000000000000000000000000000000000000000000005f52601260045260245ffd5b5f6105c6826103ec565b91506105d1836103ec565b9250826105e1576105e061058f565b5b828204905092915050565b5f6105f6826103ec565b9150610601836103ec565b9250828201905060ff81111561061a5761061961052e565b5b92915050565b5f61062a826103ec565b9150610635836103ec565b9250826106455761064461058f565b5b828206905092915050565b5f8160011c9050919050565b5f808291508390505b60018511156106a5578086048111156106815761068061052e565b5b60018516156106905780820291505b808102905061069e85610650565b9450610665565b94509492505050565b5f826106bd5760019050610778565b816106ca575f9050610778565b81600181146106e057600281146106ea57610719565b6001915050610778565b60ff8411156106fc576106fb61052e565b5b8360020a9150848211156107135761071261052e565b5b50610778565b5060208310610133831016604e8410600b841016171561074e5782820a9050838111156107495761074861052e565b5b610778565b61075b848484600161065c565b925090508184048111156107725761077161052e565b5b81810290505b9392505050565b5f610789826103ec565b9150610794836103ec565b92506107a260ff84846106ae565b905092915050565b5f6107b4826103ec565b91506107bf836103ec565b92508282026107cd816103ec565b91508082146107df576107de61052e565b5b509291505056fea264697066735822122043f74ad2f360bf08f9ad2867664d45c268d23fbd6194518ec9cd634379fa70ea64736f6c634300081a0033",
					"opcodes": "PUSH1 0x80 PUSH1 0x40 MSTORE CALLVALUE DUP1 ISZERO PUSH1 0xE JUMPI PUSH0 DUP1 REVERT JUMPDEST POP PUSH2 0x81C DUP1 PUSH2 0x1C PUSH0 CODECOPY PUSH0 RETURN INVALID PUSH1 0x80 PUSH1 0x40 MSTORE CALLVALUE DUP1 ISZERO PUSH2 0xF JUMPI PUSH0 DUP1 REVERT JUMPDEST POP PUSH1 0x4 CALLDATASIZE LT PUSH2 0xB2 JUMPI PUSH0 CALLDATALOAD PUSH1 0xE0 SHR DUP1 PUSH4 0xBB4E3F4D GT PUSH2 0x6F JUMPI DUP1 PUSH4 0xBB4E3F4D EQ PUSH2 0x1D6 JUMPI DUP1 PUSH4 0xBCD8A60F EQ PUSH2 0x206 JUMPI DUP1 PUSH4 0xC6FCE1D4 EQ PUSH2 0x236 JUMPI DUP1 PUSH4 0xCB14F5CB EQ PUSH2 0x266 JUMPI DUP1 PUSH4 0xD7145D31 EQ PUSH2 0x296 JUMPI DUP1 PUSH4 0xE51A3B40 EQ PUSH2 0x2C6 JUMPI PUSH2 0xB2 JUMP JUMPDEST DUP1 PUSH4 0x1E5F34AF EQ PUSH2 0xB6 JUMPI DUP1 PUSH4 0x21C60AC6 EQ PUSH2 0xE6 JUMPI DUP1 PUSH4 0x2D8DC44B EQ PUSH2 0x116 JUMPI DUP1 PUSH4 0x45700383 EQ PUSH2 0x146 JUMPI DUP1 PUSH4 0x54D492C1 EQ PUSH2 0x176 JUMPI DUP1 PUSH4 0xB27220FB EQ PUSH2 0x1A6 JUMPI JUMPDEST PUSH0 DUP1 REVERT JUMPDEST PUSH2 0xD0 PUSH1 0x4 DUP1 CALLDATASIZE SUB DUP2 ADD SWAP1 PUSH2 0xCB SWAP2 SWAP1 PUSH2 0x422 JUMP JUMPDEST PUSH2 0x2F6 JUMP JUMPDEST PUSH1 0x40 MLOAD PUSH2 0xDD SWAP2 SWAP1 PUSH2 0x46F JUMP JUMPDEST PUSH1 0x40 MLOAD DUP1 SWAP2 SUB SWAP1 RETURN JUMPDEST PUSH2 0x100 PUSH1 0x4 DUP1 CALLDATASIZE SUB DUP2 ADD SWAP1 PUSH2 0xFB SWAP2 SWAP1 PUSH2 0x422 JUMP JUMPDEST PUSH2 0x30B JUMP JUMPDEST PUSH1 0x40 MLOAD PUSH2 0x10D SWAP2 SWAP1 PUSH2 0x46F JUMP JUMPDEST PUSH1 0x40 MLOAD DUP1 SWAP2 SUB SWAP1 RETURN JUMPDEST PUSH2 0x130 PUSH1 0x4 DUP1 CALLDATASIZE SUB DUP2 ADD SWAP1 PUSH2 0x12B SWAP2 SWAP1 PUSH2 0x422 JUMP JUMPDEST PUSH2 0x320 JUMP JUMPDEST PUSH1 0x40 MLOAD PUSH2 0x13D SWAP2 SWAP1 PUSH2 0x4A2 JUMP JUMPDEST PUSH1 0x40 MLOAD DUP1 SWAP2 SUB SWAP1 RETURN JUMPDEST PUSH2 0x160 PUSH1 0x4 DUP1 CALLDATASIZE SUB DUP2 ADD SWAP1 PUSH2 0x15B SWAP2 SWAP1 PUSH2 0x422 JUMP JUMPDEST PUSH2 0x333 JUMP JUMPDEST PUSH1 0x40 MLOAD PUSH2 0x16D SWAP2 SWAP1 PUSH2 0x4A2 JUMP JUMPDEST PUSH1 0x40 MLOAD DUP1 SWAP2 SUB SWAP1 RETURN JUMPDEST PUSH2 0x190 PUSH1 0x4 DUP1 CALLDATASIZE SUB DUP2 ADD SWAP1 PUSH2 0x18B SWAP2 SWAP1 PUSH2 0x422 JUMP JUMPDEST PUSH2 0x346 JUMP JUMPDEST PUSH1 0x40 MLOAD PUSH2 0x19D SWAP2 SWAP1 PUSH2 0x46F JUMP JUMPDEST PUSH1 0x40 MLOAD DUP1 SWAP2 SUB SWAP1 RETURN JUMPDEST PUSH2 0x1C0 PUSH1 0x4 DUP1 CALLDATASIZE SUB DUP2 ADD SWAP1 PUSH2 0x1BB SWAP2 SWAP1 PUSH2 0x422 JUMP JUMPDEST PUSH2 0x35B JUMP JUMPDEST PUSH1 0x40 MLOAD PUSH2 0x1CD SWAP2 SWAP1 PUSH2 0x4A2 JUMP JUMPDEST PUSH1 0x40 MLOAD DUP1 SWAP2 SUB SWAP1 RETURN JUMPDEST PUSH2 0x1F0 PUSH1 0x4 DUP1 CALLDATASIZE SUB DUP2 ADD SWAP1 PUSH2 0x1EB SWAP2 SWAP1 PUSH2 0x422 JUMP JUMPDEST PUSH2 0x36D JUMP JUMPDEST PUSH1 0x40 MLOAD PUSH2 0x1FD SWAP2 SWAP1 PUSH2 0x46F JUMP JUMPDEST PUSH1 0x40 MLOAD DUP1 SWAP2 SUB SWAP1 RETURN JUMPDEST PUSH2 0x220 PUSH1 0x4 DUP1 CALLDATASIZE SUB DUP2 ADD SWAP1 PUSH2 0x21B SWAP2 SWAP1 PUSH2 0x4F0 JUMP JUMPDEST PUSH2 0x382 JUMP JUMPDEST PUSH1 0x40 MLOAD PUSH2 0x22D SWAP2 SWAP1 PUSH2 0x46F JUMP JUMPDEST PUSH1 0x40 MLOAD DUP1 SWAP2 SUB SWAP1 RETURN JUMPDEST PUSH2 0x250 PUSH1 0x4 DUP1 CALLDATASIZE SUB DUP2 ADD SWAP1 PUSH2 0x24B SWAP2 SWAP1 PUSH2 0x422 JUMP JUMPDEST PUSH2 0x397 JUMP JUMPDEST PUSH1 0x40 MLOAD PUSH2 0x25D SWAP2 SWAP1 PUSH2 0x46F JUMP JUMPDEST PUSH1 0x40 MLOAD DUP1 SWAP2 SUB SWAP1 RETURN JUMPDEST PUSH2 0x280 PUSH1 0x4 DUP1 CALLDATASIZE SUB DUP2 ADD SWAP1 PUSH2 0x27B SWAP2 SWAP1 PUSH2 0x422 JUMP JUMPDEST PUSH2 0x3AC JUMP JUMPDEST PUSH1 0x40 MLOAD PUSH2 0x28D SWAP2 SWAP1 PUSH2 0x4A2 JUMP JUMPDEST PUSH1 0x40 MLOAD DUP1 SWAP2 SUB SWAP1 RETURN JUMPDEST PUSH2 0x2B0 PUSH1 0x4 DUP1 CALLDATASIZE SUB DUP2 ADD SWAP1 PUSH2 0x2AB SWAP2 SWAP1 PUSH2 0x422 JUMP JUMPDEST PUSH2 0x3BE JUMP JUMPDEST PUSH1 0x40 MLOAD PUSH2 0x2BD SWAP2 SWAP1 PUSH2 0x46F JUMP JUMPDEST PUSH1 0x40 MLOAD DUP1 SWAP2 SUB SWAP1 RETURN JUMPDEST PUSH2 0x2E0 PUSH1 0x4 DUP1 CALLDATASIZE SUB DUP2 ADD SWAP1 PUSH2 0x2DB SWAP2 SWAP1 PUSH2 0x422 JUMP JUMPDEST PUSH2 0x3D3 JUMP JUMPDEST PUSH1 0x40 MLOAD PUSH2 0x2ED SWAP2 SWAP1 PUSH2 0x46F JUMP JUMPDEST PUSH1 0x40 MLOAD DUP1 SWAP2 SUB SWAP1 RETURN JUMPDEST PUSH0 DUP2 DUP4 PUSH2 0x303 SWAP2 SWAP1 PUSH2 0x55B JUMP JUMPDEST SWAP1 POP SWAP3 SWAP2 POP POP JUMP JUMPDEST PUSH0 DUP2 DUP4 PUSH2 0x318 SWAP2 SWAP1 PUSH2 0x5BC JUMP JUMPDEST SWAP1 POP SWAP3 SWAP2 POP POP JUMP JUMPDEST PUSH0 DUP2 PUSH1 0xFF AND DUP4 PUSH1 0xFF AND GT ISZERO SWAP1 POP SWAP3 SWAP2 POP POP JUMP JUMPDEST PUSH0 DUP2 PUSH1 0xFF AND DUP4 PUSH1 0xFF AND LT ISZERO SWAP1 POP SWAP3 SWAP2 POP POP JUMP JUMPDEST PUSH0 DUP2 DUP4 PUSH2 0x353 SWAP2 SWAP1 PUSH2 0x5EC JUMP JUMPDEST SWAP1 POP SWAP3 SWAP2 POP POP JUMP JUMPDEST PUSH0 DUP2 PUSH1 0xFF AND DUP4 PUSH1 0xFF AND GT SWAP1 POP SWAP3 SWAP2 POP POP JUMP JUMPDEST PUSH0 DUP2 DUP4 PUSH2 0x37A SWAP2 SWAP1 PUSH2 0x5EC JUMP JUMPDEST SWAP1 POP SWAP3 SWAP2 POP POP JUMP JUMPDEST PUSH0 DUP2 DUP4 PUSH2 0x38F SWAP2 SWAP1 PUSH2 0x5EC JUMP JUMPDEST SWAP1 POP SWAP3 SWAP2 POP POP JUMP JUMPDEST PUSH0 DUP2 DUP4 PUSH2 0x3A4 SWAP2 SWAP1 PUSH2 0x620 JUMP JUMPDEST SWAP1 POP SWAP3 SWAP2 POP POP JUMP JUMPDEST PUSH0 DUP2 PUSH1 0xFF AND DUP4 PUSH1 0xFF AND LT SWAP1 POP SWAP3 SWAP2 POP POP JUMP JUMPDEST PUSH0 DUP2 DUP4 PUSH2 0x3CB SWAP2 SWAP1 PUSH2 0x77F JUMP JUMPDEST SWAP1 POP SWAP3 SWAP2 POP POP JUMP JUMPDEST PUSH0 DUP2 DUP4 PUSH2 0x3E0 SWAP2 SWAP1 PUSH2 0x7AA JUMP JUMPDEST SWAP1 POP SWAP3 SWAP2 POP POP JUMP JUMPDEST PUSH0 DUP1 REVERT JUMPDEST PUSH0 PUSH1 0xFF DUP3 AND SWAP1 POP SWAP2 SWAP1 POP JUMP JUMPDEST PUSH2 0x401 DUP2 PUSH2 0x3EC JUMP JUMPDEST DUP2 EQ PUSH2 0x40B JUMPI PUSH0 DUP1 REVERT JUMPDEST POP JUMP JUMPDEST PUSH0 DUP2 CALLDATALOAD SWAP1 POP PUSH2 0x41C DUP2 PUSH2 0x3F8 JUMP JUMPDEST SWAP3 SWAP2 POP POP JUMP JUMPDEST PUSH0 DUP1 PUSH1 0x40 DUP4 DUP6 SUB SLT ISZERO PUSH2 0x438 JUMPI PUSH2 0x437 PUSH2 0x3E8 JUMP JUMPDEST JUMPDEST PUSH0 PUSH2 0x445 DUP6 DUP3 DUP7 ADD PUSH2 0x40E JUMP JUMPDEST SWAP3 POP POP PUSH1 0x20 PUSH2 0x456 DUP6 DUP3 DUP7 ADD PUSH2 0x40E JUMP JUMPDEST SWAP2 POP POP SWAP3 POP SWAP3 SWAP1 POP JUMP JUMPDEST PUSH2 0x469 DUP2 PUSH2 0x3EC JUMP JUMPDEST DUP3 MSTORE POP POP JUMP JUMPDEST PUSH0 PUSH1 0x20 DUP3 ADD SWAP1 POP PUSH2 0x482 PUSH0 DUP4 ADD DUP5 PUSH2 0x460 JUMP JUMPDEST SWAP3 SWAP2 POP POP JUMP JUMPDEST PUSH0 DUP2 ISZERO ISZERO SWAP1 POP SWAP2 SWAP1 POP JUMP JUMPDEST PUSH2 0x49C DUP2 PUSH2 0x488 JUMP JUMPDEST DUP3 MSTORE POP POP JUMP JUMPDEST PUSH0 PUSH1 0x20 DUP3 ADD SWAP1 POP PUSH2 0x4B5 PUSH0 DUP4 ADD DUP5 PUSH2 0x493 JUMP JUMPDEST SWAP3 SWAP2 POP POP JUMP JUMPDEST PUSH0 DUP2 PUSH0 SIGNEXTEND SWAP1 POP SWAP2 SWAP1 POP JUMP JUMPDEST PUSH2 0x4CF DUP2 PUSH2 0x4BB JUMP JUMPDEST DUP2 EQ PUSH2 0x4D9 JUMPI PUSH0 DUP1 REVERT JUMPDEST POP JUMP JUMPDEST PUSH0 DUP2 CALLDATALOAD SWAP1 POP PUSH2 0x4EA DUP2 PUSH2 0x4C6 JUMP JUMPDEST SWAP3 SWAP2 POP POP JUMP JUMPDEST PUSH0 DUP1 PUSH1 0x40 DUP4 DUP6 SUB SLT ISZERO PUSH2 0x506 JUMPI PUSH2 0x505 PUSH2 0x3E8 JUMP JUMPDEST JUMPDEST PUSH0 PUSH2 0x513 DUP6 DUP3 DUP7 ADD PUSH2 0x4DC JUMP JUMPDEST SWAP3 POP POP PUSH1 0x20 PUSH2 0x524 DUP6 DUP3 DUP7 ADD PUSH2 0x40E JUMP JUMPDEST SWAP2 POP POP SWAP3 POP SWAP3 SWAP1 POP JUMP JUMPDEST PUSH32 0x4E487B7100000000000000000000000000000000000000000000000000000000 PUSH0 MSTORE PUSH1 0x11 PUSH1 0x4 MSTORE PUSH1 0x24 PUSH0 REVERT JUMPDEST PUSH0 PUSH2 0x565 DUP3 PUSH2 0x3EC JUMP JUMPDEST SWAP2 POP PUSH2 0x570 DUP4 PUSH2 0x3EC JUMP JUMPDEST SWAP3 POP DUP3 DUP3 SUB SWAP1 POP PUSH1 0xFF DUP2 GT ISZERO PUSH2 0x589 JUMPI PUSH2 0x588 PUSH2 0x52E JUMP JUMPDEST JUMPDEST SWAP3 SWAP2 POP POP JUMP JUMPDEST PUSH32 0x4E487B7100000000000000000000000000000000000000000000000000000000 PUSH0 MSTORE PUSH1 0x12 PUSH1 0x4 MSTORE PUSH1 0x24 PUSH0 REVERT JUMPDEST PUSH0 PUSH2 0x5C6 DUP3 PUSH2 0x3EC JUMP JUMPDEST SWAP2 POP PUSH2 0x5D1 DUP4 PUSH2 0x3EC JUMP JUMPDEST SWAP3 POP DUP3 PUSH2 0x5E1 JUMPI PUSH2 0x5E0 PUSH2 0x58F JUMP JUMPDEST JUMPDEST DUP3 DUP3 DIV SWAP1 POP SWAP3 SWAP2 POP POP JUMP JUMPDEST PUSH0 PUSH2 0x5F6 DUP3 PUSH2 0x3EC JUMP JUMPDEST SWAP2 POP PUSH2 0x601 DUP4 PUSH2 0x3EC JUMP JUMPDEST SWAP3 POP DUP3 DUP3 ADD SWAP1 POP PUSH1 0xFF DUP2 GT ISZERO PUSH2 0x61A JUMPI PUSH2 0x619 PUSH2 0x52E JUMP JUMPDEST JUMPDEST SWAP3 SWAP2 POP POP JUMP JUMPDEST PUSH0 PUSH2 0x62A DUP3 PUSH2 0x3EC JUMP JUMPDEST SWAP2 POP PUSH2 0x635 DUP4 PUSH2 0x3EC JUMP JUMPDEST SWAP3 POP DUP3 PUSH2 0x645 JUMPI PUSH2 0x644 PUSH2 0x58F JUMP JUMPDEST JUMPDEST DUP3 DUP3 MOD SWAP1 POP SWAP3 SWAP2 POP POP JUMP JUMPDEST PUSH0 DUP2 PUSH1 0x1 SHR SWAP1 POP SWAP2 SWAP1 POP JUMP JUMPDEST PUSH0 DUP1 DUP3 SWAP2 POP DUP4 SWAP1 POP JUMPDEST PUSH1 0x1 DUP6 GT ISZERO PUSH2 0x6A5 JUMPI DUP1 DUP7 DIV DUP2 GT ISZERO PUSH2 0x681 JUMPI PUSH2 0x680 PUSH2 0x52E JUMP JUMPDEST JUMPDEST PUSH1 0x1 DUP6 AND ISZERO PUSH2 0x690 JUMPI DUP1 DUP3 MUL SWAP2 POP JUMPDEST DUP1 DUP2 MUL SWAP1 POP PUSH2 0x69E DUP6 PUSH2 0x650 JUMP JUMPDEST SWAP5 POP PUSH2 0x665 JUMP JUMPDEST SWAP5 POP SWAP5 SWAP3 POP POP POP JUMP JUMPDEST PUSH0 DUP3 PUSH2 0x6BD JUMPI PUSH1 0x1 SWAP1 POP PUSH2 0x778 JUMP JUMPDEST DUP2 PUSH2 0x6CA JUMPI PUSH0 SWAP1 POP PUSH2 0x778 JUMP JUMPDEST DUP2 PUSH1 0x1 DUP2 EQ PUSH2 0x6E0 JUMPI PUSH1 0x2 DUP2 EQ PUSH2 0x6EA JUMPI PUSH2 0x719 JUMP JUMPDEST PUSH1 0x1 SWAP2 POP POP PUSH2 0x778 JUMP JUMPDEST PUSH1 0xFF DUP5 GT ISZERO PUSH2 0x6FC JUMPI PUSH2 0x6FB PUSH2 0x52E JUMP JUMPDEST JUMPDEST DUP4 PUSH1 0x2 EXP SWAP2 POP DUP5 DUP3 GT ISZERO PUSH2 0x713 JUMPI PUSH2 0x712 PUSH2 0x52E JUMP JUMPDEST JUMPDEST POP PUSH2 0x778 JUMP JUMPDEST POP PUSH1 0x20 DUP4 LT PUSH2 0x133 DUP4 LT AND PUSH1 0x4E DUP5 LT PUSH1 0xB DUP5 LT AND OR ISZERO PUSH2 0x74E JUMPI DUP3 DUP3 EXP SWAP1 POP DUP4 DUP2 GT ISZERO PUSH2 0x749 JUMPI PUSH2 0x748 PUSH2 0x52E JUMP JUMPDEST JUMPDEST PUSH2 0x778 JUMP JUMPDEST PUSH2 0x75B DUP5 DUP5 DUP5 PUSH1 0x1 PUSH2 0x65C JUMP JUMPDEST SWAP3 POP SWAP1 POP DUP2 DUP5 DIV DUP2 GT ISZERO PUSH2 0x772 JUMPI PUSH2 0x771 PUSH2 0x52E JUMP JUMPDEST JUMPDEST DUP2 DUP2 MUL SWAP1 POP JUMPDEST SWAP4 SWAP3 POP POP POP JUMP JUMPDEST PUSH0 PUSH2 0x789 DUP3 PUSH2 0x3EC JUMP JUMPDEST SWAP2 POP PUSH2 0x794 DUP4 PUSH2 0x3EC JUMP JUMPDEST SWAP3 POP PUSH2 0x7A2 PUSH1 0xFF DUP5 DUP5 PUSH2 0x6AE JUMP JUMPDEST SWAP1 POP SWAP3 SWAP2 POP POP JUMP JUMPDEST PUSH0 PUSH2 0x7B4 DUP3 PUSH2 0x3EC JUMP JUMPDEST SWAP2 POP PUSH2 0x7BF DUP4 PUSH2 0x3EC JUMP JUMPDEST SWAP3 POP DUP3 DUP3 MUL PUSH2 0x7CD DUP2 PUSH2 0x3EC JUMP JUMPDEST SWAP2 POP DUP1 DUP3 EQ PUSH2 0x7DF JUMPI PUSH2 0x7DE PUSH2 0x52E JUMP JUMPDEST JUMPDEST POP SWAP3 SWAP2 POP POP JUMP INVALID LOG2 PUSH5 0x6970667358 0x22 SLT KECCAK256 NUMBER 0xF7 BLOBBASEFEE 0xD2 RETURN PUSH1 0xBF ADDMOD 0xF9 0xAD 0x28 PUSH8 0x664D45C268D23FBD PUSH2 0x9451 DUP15 0xC9 0xCD PUSH4 0x4379FA70 0xEA PUSH5 0x736F6C6343 STOP ADDMOD BYTE STOP CALLER "
				},
				"gasEstimates": {
					"creation": {
						"codeDepositCost": "415200",
						"executionCost": "447",
						"totalCost": "415647"
					},
					"external": {
						"add(uint8,uint8)": "infinite",
						"add2(uint8,uint8)": "infinite",
						"add3(int8,uint8)": "infinite",
						"div(uint8,uint8)": "infinite",
						"exp(uint8,uint8)": "infinite",
						"gtFunc(uint8,uint8)": "infinite",
						"gteFunc(uint8,uint8)": "infinite",
						"ltFunc(uint8,uint8)": "infinite",
						"lteFunc(uint8,uint8)": "infinite",
						"mol(uint8,uint8)": "infinite",
						"mul(uint8,uint8)": "infinite",
						"sub(uint8,uint8)": "infinite"
					}
				},
				"methodIdentifiers": {
					"add(uint8,uint8)": "bb4e3f4d",
					"add2(uint8,uint8)": "54d492c1",
					"add3(int8,uint8)": "bcd8a60f",
					"div(uint8,uint8)": "21c60ac6",
					"exp(uint8,uint8)": "d7145d31",
					"gtFunc(uint8,uint8)": "b27220fb",
					"gteFunc(uint8,uint8)": "45700383",
					"ltFunc(uint8,uint8)": "cb14f5cb",
					"lteFunc(uint8,uint8)": "2d8dc44b",
					"mol(uint8,uint8)": "c6fce1d4",
					"mul(uint8,uint8)": "e51a3b40",
					"sub(uint8,uint8)": "1e5f34af"
				}
			},
			"storageLayout": {
				"storage": [],
				"types": null
			},
			"userdoc": {
				"kind": "user",
				"methods": {},
				"version": 1
			}
		}
	}
}