{
	"data": {
		"bytecode": {
			"linkReferences": {},
			"object": "6080604052348015600e575f5ffd5b506107628061001c5f395ff3fe608060405234801561000f575f5ffd5b5060043610610086575f3560e01c8063db88e53911610059578063db88e53914610110578063e30443bc1461012c578063e8827cec14610148578063f8b2cb4f1461017857610086565b806309e896481461008a57806312bd4d74146100a657806327e235e3146100d6578063561f5f8914610106575b5f5ffd5b6100a4600480360381019061009f9190610525565b6101a8565b005b6100c060048036038101906100bb91906105d9565b61020a565b6040516100cd9190610642565b60405180910390f35b6100f060048036038101906100eb919061065b565b610242565b6040516100fd9190610642565b60405180910390f35b61010e610256565b005b61012a600480360381019061012591906105d9565b610258565b005b61014660048036038101906101419190610686565b6102b8565b005b610162600480360381019061015d91906105d9565b6102fd565b60405161016f9190610642565b60405180910390f35b610192600480360381019061018d919061065b565b610360565b60405161019f9190610642565b60405180910390f35b8060015f3373ffffffffffffffffffffffffffffffffffffffff1673ffffffffffffffffffffffffffffffffffffffff1681526020019081526020015f20836040516101f49190610716565b9081526020016040518091039020819055505050565b6001602052815f5260405f20818051602081018201805184825260208301602085012081835280955050505050505f91509150505481565b5f602052805f5260405f205f915090505481565b565b60015f8373ffffffffffffffffffffffffffffffffffffffff1673ffffffffffffffffffffffffffffffffffffffff1681526020019081526020015f20816040516102a39190610716565b90815260200160405180910390205f90555050565b805f5f8473ffffffffffffffffffffffffffffffffffffffff1673ffffffffffffffffffffffffffffffffffffffff1681526020019081526020015f20819055505050565b5f60015f8473ffffffffffffffffffffffffffffffffffffffff1673ffffffffffffffffffffffffffffffffffffffff1681526020019081526020015f20826040516103499190610716565b908152602001604051809103902054905092915050565b5f5f5f8373ffffffffffffffffffffffffffffffffffffffff1673ffffffffffffffffffffffffffffffffffffffff1681526020019081526020015f20549050919050565b5f604051905090565b5f5ffd5b5f5ffd5b5f5ffd5b5f5ffd5b5f601f19601f8301169050919050565b7f4e487b71000000000000000000000000000000000000000000000000000000005f52604160045260245ffd5b610404826103be565b810181811067ffffffffffffffff82111715610423576104226103ce565b5b80604052505050565b5f6104356103a5565b905061044182826103fb565b919050565b5f67ffffffffffffffff8211156104605761045f6103ce565b5b610469826103be565b9050602081019050919050565b828183375f83830152505050565b5f61049661049184610446565b61042c565b9050828152602081018484840111156104b2576104b16103ba565b5b6104bd848285610476565b509392505050565b5f82601f8301126104d9576104d86103b6565b5b81356104e9848260208601610484565b91505092915050565b5f819050919050565b610504816104f2565b811461050e575f5ffd5b50565b5f8135905061051f816104fb565b92915050565b5f5f6040838503121561053b5761053a6103ae565b5b5f83013567ffffffffffffffff811115610558576105576103b2565b5b610564858286016104c5565b925050602061057585828601610511565b9150509250929050565b5f73ffffffffffffffffffffffffffffffffffffffff82169050919050565b5f6105a88261057f565b9050919050565b6105b88161059e565b81146105c2575f5ffd5b50565b5f813590506105d3816105af565b92915050565b5f5f604083850312156105ef576105ee6103ae565b5b5f6105fc858286016105c5565b925050602083013567ffffffffffffffff81111561061d5761061c6103b2565b5b610629858286016104c5565b9150509250929050565b61063c816104f2565b82525050565b5f6020820190506106555f830184610633565b92915050565b5f602082840312156106705761066f6103ae565b5b5f61067d848285016105c5565b91505092915050565b5f5f6040838503121561069c5761069b6103ae565b5b5f6106a9858286016105c5565b92505060206106ba85828601610511565b9150509250929050565b5f81519050919050565b5f81905092915050565b8281835e5f83830152505050565b5f6106f0826106c4565b6106fa81856106ce565b935061070a8185602086016106d8565b80840191505092915050565b5f61072182846106e6565b91508190509291505056fea264697066735822122007073286dc6ae406ca635b1f64046e34962aa3beeabdb275084af96711a82eb764736f6c634300081e0033",
			"opcodes": "PUSH1 0x80 PUSH1 0x40 MSTORE CALLVALUE DUP1 ISZERO PUSH1 0xE JUMPI PUSH0 PUSH0 REVERT JUMPDEST POP PUSH2 0x762 DUP1 PUSH2 0x1C PUSH0 CODECOPY PUSH0 RETURN INVALID PUSH1 0x80 PUSH1 0x40 MSTORE CALLVALUE DUP1 ISZERO PUSH2 0xF JUMPI PUSH0 PUSH0 REVERT JUMPDEST POP PUSH1 0x4 CALLDATASIZE LT PUSH2 0x86 JUMPI PUSH0 CALLDATALOAD PUSH1 0xE0 SHR DUP1 PUSH4 0xDB88E539 GT PUSH2 0x59 JUMPI DUP1 PUSH4 0xDB88E539 EQ PUSH2 0x110 JUMPI DUP1 PUSH4 0xE30443BC EQ PUSH2 0x12C JUMPI DUP1 PUSH4 0xE8827CEC EQ PUSH2 0x148 JUMPI DUP1 PUSH4 0xF8B2CB4F EQ PUSH2 0x178 JUMPI PUSH2 0x86 JUMP JUMPDEST DUP1 PUSH4 0x9E89648 EQ PUSH2 0x8A JUMPI DUP1 PUSH4 0x12BD4D74 EQ PUSH2 0xA6 JUMPI DUP1 PUSH4 0x27E235E3 EQ PUSH2 0xD6 JUMPI DUP1 PUSH4 0x561F5F89 EQ PUSH2 0x106 JUMPI JUMPDEST PUSH0 PUSH0 REVERT JUMPDEST PUSH2 0xA4 PUSH1 0x4 DUP1 CALLDATASIZE SUB DUP2 ADD SWAP1 PUSH2 0x9F SWAP2 SWAP1 PUSH2 0x525 JUMP JUMPDEST PUSH2 0x1A8 JUMP JUMPDEST STOP JUMPDEST PUSH2 0xC0 PUSH1 0x4 DUP1 CALLDATASIZE SUB DUP2 ADD SWAP1 PUSH2 0xBB SWAP2 SWAP1 PUSH2 0x5D9 JUMP JUMPDEST PUSH2 0x20A JUMP JUMPDEST PUSH1 0x40 MLOAD PUSH2 0xCD SWAP2 SWAP1 PUSH2 0x642 JUMP JUMPDEST PUSH1 0x40 MLOAD DUP1 SWAP2 SUB SWAP1 RETURN JUMPDEST PUSH2 0xF0 PUSH1 0x4 DUP1 CALLDATASIZE SUB DUP2 ADD SWAP1 PUSH2 0xEB SWAP2 SWAP1 PUSH2 0x65B JUMP JUMPDEST PUSH2 0x242 JUMP JUMPDEST PUSH1 0x40 MLOAD PUSH2 0xFD SWAP2 SWAP1 PUSH2 0x642 JUMP JUMPDEST PUSH1 0x40 MLOAD DUP1 SWAP2 SUB SWAP1 RETURN JUMPDEST PUSH2 0x10E PUSH2 0x256 JUMP JUMPDEST STOP JUMPDEST PUSH2 0x12A PUSH1 0x4 DUP1 CALLDATASIZE SUB DUP2 ADD SWAP1 PUSH2 0x125 SWAP2 SWAP1 PUSH2 0x5D9 JUMP JUMPDEST PUSH2 0x258 JUMP JUMPDEST STOP JUMPDEST PUSH2 0x146 PUSH1 0x4 DUP1 CALLDATASIZE SUB DUP2 ADD SWAP1 PUSH2 0x141 SWAP2 SWAP1 PUSH2 0x686 JUMP JUMPDEST PUSH2 0x2B8 JUMP JUMPDEST STOP JUMPDEST PUSH2 0x162 PUSH1 0x4 DUP1 CALLDATASIZE SUB DUP2 ADD SWAP1 PUSH2 0x15D SWAP2 SWAP1 PUSH2 0x5D9 JUMP JUMPDEST PUSH2 0x2FD JUMP JUMPDEST PUSH1 0x40 MLOAD PUSH2 0x16F SWAP2 SWAP1 PUSH2 0x642 JUMP JUMPDEST PUSH1 0x40 MLOAD DUP1 SWAP2 SUB SWAP1 RETURN JUMPDEST PUSH2 0x192 PUSH1 0x4 DUP1 CALLDATASIZE SUB DUP2 ADD SWAP1 PUSH2 0x18D SWAP2 SWAP1 PUSH2 0x65B JUMP JUMPDEST PUSH2 0x360 JUMP JUMPDEST PUSH1 0x40 MLOAD PUSH2 0x19F SWAP2 SWAP1 PUSH2 0x642 JUMP JUMPDEST PUSH1 0x40 MLOAD DUP1 SWAP2 SUB SWAP1 RETURN JUMPDEST DUP1 PUSH1 0x1 PUSH0 CALLER PUSH20 0xFFFFFFFFFFFFFFFFFFFFFFFFFFFFFFFFFFFFFFFF AND PUSH20 0xFFFFFFFFFFFFFFFFFFFFFFFFFFFFFFFFFFFFFFFF AND DUP2 MSTORE PUSH1 0x20 ADD SWAP1 DUP2 MSTORE PUSH1 0x20 ADD PUSH0 KECCAK256 DUP4 PUSH1 0x40 MLOAD PUSH2 0x1F4 SWAP2 SWAP1 PUSH2 0x716 JUMP JUMPDEST SWAP1 DUP2 MSTORE PUSH1 0x20 ADD PUSH1 0x40 MLOAD DUP1 SWAP2 SUB SWAP1 KECCAK256 DUP2 SWAP1 SSTORE POP POP POP JUMP JUMPDEST PUSH1 0x1 PUSH1 0x20 MSTORE DUP2 PUSH0 MSTORE PUSH1 0x40 PUSH0 KECCAK256 DUP2 DUP1 MLOAD PUSH1 0x20 DUP2 ADD DUP3 ADD DUP1 MLOAD DUP5 DUP3 MSTORE PUSH1 0x20 DUP4 ADD PUSH1 0x20 DUP6 ADD KECCAK256 DUP2 DUP4 MSTORE DUP1 SWAP6 POP POP POP POP POP POP PUSH0 SWAP2 POP SWAP2 POP POP SLOAD DUP2 JUMP JUMPDEST PUSH0 PUSH1 0x20 MSTORE DUP1 PUSH0 MSTORE PUSH1 0x40 PUSH0 KECCAK256 PUSH0 SWAP2 POP SWAP1 POP SLOAD DUP2 JUMP JUMPDEST JUMP JUMPDEST PUSH1 0x1 PUSH0 DUP4 PUSH20 0xFFFFFFFFFFFFFFFFFFFFFFFFFFFFFFFFFFFFFFFF AND PUSH20 0xFFFFFFFFFFFFFFFFFFFFFFFFFFFFFFFFFFFFFFFF AND DUP2 MSTORE PUSH1 0x20 ADD SWAP1 DUP2 MSTORE PUSH1 0x20 ADD PUSH0 KECCAK256 DUP2 PUSH1 0x40 MLOAD PUSH2 0x2A3 SWAP2 SWAP1 PUSH2 0x716 JUMP JUMPDEST SWAP1 DUP2 MSTORE PUSH1 0x20 ADD PUSH1 0x40 MLOAD DUP1 SWAP2 SUB SWAP1 KECCAK256 PUSH0 SWAP1 SSTORE POP POP JUMP JUMPDEST DUP1 PUSH0 PUSH0 DUP5 PUSH20 0xFFFFFFFFFFFFFFFFFFFFFFFFFFFFFFFFFFFFFFFF AND PUSH20 0xFFFFFFFFFFFFFFFFFFFFFFFFFFFFFFFFFFFFFFFF AND DUP2 MSTORE PUSH1 0x20 ADD SWAP1 DUP2 MSTORE PUSH1 0x20 ADD PUSH0 KECCAK256 DUP2 SWAP1 SSTORE POP POP POP JUMP JUMPDEST PUSH0 PUSH1 0x1 PUSH0 DUP5 PUSH20 0xFFFFFFFFFFFFFFFFFFFFFFFFFFFFFFFFFFFFFFFF AND PUSH20 0xFFFFFFFFFFFFFFFFFFFFFFFFFFFFFFFFFFFFFFFF AND DUP2 MSTORE PUSH1 0x20 ADD SWAP1 DUP2 MSTORE PUSH1 0x20 ADD PUSH0 KECCAK256 DUP3 PUSH1 0x40 MLOAD PUSH2 0x349 SWAP2 SWAP1 PUSH2 0x716 JUMP JUMPDEST SWAP1 DUP2 MSTORE PUSH1 0x20 ADD PUSH1 0x40 MLOAD DUP1 SWAP2 SUB SWAP1 KECCAK256 SLOAD SWAP1 POP SWAP3 SWAP2 POP POP JUMP JUMPDEST PUSH0 PUSH0 PUSH0 DUP4 PUSH20 0xFFFFFFFFFFFFFFFFFFFFFFFFFFFFFFFFFFFFFFFF AND PUSH20 0xFFFFFFFFFFFFFFFFFFFFFFFFFFFFFFFFFFFFFFFF AND DUP2 MSTORE PUSH1 0x20 ADD SWAP1 DUP2 MSTORE PUSH1 0x20 ADD PUSH0 KECCAK256 SLOAD SWAP1 POP SWAP2 SWAP1 POP JUMP JUMPDEST PUSH0 PUSH1 0x40 MLOAD SWAP1 POP SWAP1 JUMP JUMPDEST PUSH0 PUSH0 REVERT JUMPDEST PUSH0 PUSH0 REVERT JUMPDEST PUSH0 PUSH0 REVERT JUMPDEST PUSH0 PUSH0 REVERT JUMPDEST PUSH0 PUSH1 0x1F NOT PUSH1 0x1F DUP4 ADD AND SWAP1 POP SWAP2 SWAP1 POP JUMP JUMPDEST PUSH32 0x4E487B7100000000000000000000000000000000000000000000000000000000 PUSH0 MSTORE PUSH1 0x41 PUSH1 0x4 MSTORE PUSH1 0x24 PUSH0 REVERT JUMPDEST PUSH2 0x404 DUP3 PUSH2 0x3BE JUMP JUMPDEST DUP2 ADD DUP2 DUP2 LT PUSH8 0xFFFFFFFFFFFFFFFF DUP3 GT OR ISZERO PUSH2 0x423 JUMPI PUSH2 0x422 PUSH2 0x3CE JUMP JUMPDEST JUMPDEST DUP1 PUSH1 0x40 MSTORE POP POP POP JUMP JUMPDEST PUSH0 PUSH2 0x435 PUSH2 0x3A5 JUMP JUMPDEST SWAP1 POP PUSH2 0x441 DUP3 DUP3 PUSH2 0x3FB JUMP JUMPDEST SWAP2 SWAP1 POP JUMP JUMPDEST PUSH0 PUSH8 0xFFFFFFFFFFFFFFFF DUP3 GT ISZERO PUSH2 0x460 JUMPI PUSH2 0x45F PUSH2 0x3CE JUMP JUMPDEST JUMPDEST PUSH2 0x469 DUP3 PUSH2 0x3BE JUMP JUMPDEST SWAP1 POP PUSH1 0x20 DUP2 ADD SWAP1 POP SWAP2 SWAP1 POP JUMP JUMPDEST DUP3 DUP2 DUP4 CALLDATACOPY PUSH0 DUP4 DUP4 ADD MSTORE POP POP POP JUMP JUMPDEST PUSH0 PUSH2 0x496 PUSH2 0x491 DUP5 PUSH2 0x446 JUMP JUMPDEST PUSH2 0x42C JUMP JUMPDEST SWAP1 POP DUP3 DUP2 MSTORE PUSH1 0x20 DUP2 ADD DUP5 DUP5 DUP5 ADD GT ISZERO PUSH2 0x4B2 JUMPI PUSH2 0x4B1 PUSH2 0x3BA JUMP JUMPDEST JUMPDEST PUSH2 0x4BD DUP5 DUP3 DUP6 PUSH2 0x476 JUMP JUMPDEST POP SWAP4 SWAP3 POP POP POP JUMP JUMPDEST PUSH0 DUP3 PUSH1 0x1F DUP4 ADD SLT PUSH2 0x4D9 JUMPI PUSH2 0x4D8 PUSH2 0x3B6 JUMP JUMPDEST JUMPDEST DUP2 CALLDATALOAD PUSH2 0x4E9 DUP5 DUP3 PUSH1 0x20 DUP7 ADD PUSH2 0x484 JUMP JUMPDEST SWAP2 POP POP SWAP3 SWAP2 POP POP JUMP JUMPDEST PUSH0 DUP2 SWAP1 POP SWAP2 SWAP1 POP JUMP JUMPDEST PUSH2 0x504 DUP2 PUSH2 0x4F2 JUMP JUMPDEST DUP2 EQ PUSH2 0x50E JUMPI PUSH0 PUSH0 REVERT JUMPDEST POP JUMP JUMPDEST PUSH0 DUP2 CALLDATALOAD SWAP1 POP PUSH2 0x51F DUP2 PUSH2 0x4FB JUMP JUMPDEST SWAP3 SWAP2 POP POP JUMP JUMPDEST PUSH0 PUSH0 PUSH1 0x40 DUP4 DUP6 SUB SLT ISZERO PUSH2 0x53B JUMPI PUSH2 0x53A PUSH2 0x3AE JUMP JUMPDEST JUMPDEST PUSH0 DUP4 ADD CALLDATALOAD PUSH8 0xFFFFFFFFFFFFFFFF DUP2 GT ISZERO PUSH2 0x558 JUMPI PUSH2 0x557 PUSH2 0x3B2 JUMP JUMPDEST JUMPDEST PUSH2 0x564 DUP6 DUP3 DUP7 ADD PUSH2 0x4C5 JUMP JUMPDEST SWAP3 POP POP PUSH1 0x20 PUSH2 0x575 DUP6 DUP3 DUP7 ADD PUSH2 0x511 JUMP JUMPDEST SWAP2 POP POP SWAP3 POP SWAP3 SWAP1 POP JUMP JUMPDEST PUSH0 PUSH20 0xFFFFFFFFFFFFFFFFFFFFFFFFFFFFFFFFFFFFFFFF DUP3 AND SWAP1 POP SWAP2 SWAP1 POP JUMP JUMPDEST PUSH0 PUSH2 0x5A8 DUP3 PUSH2 0x57F JUMP JUMPDEST SWAP1 POP SWAP2 SWAP1 POP JUMP JUMPDEST PUSH2 0x5B8 DUP2 PUSH2 0x59E JUMP JUMPDEST DUP2 EQ PUSH2 0x5C2 JUMPI PUSH0 PUSH0 REVERT JUMPDEST POP JUMP JUMPDEST PUSH0 DUP2 CALLDATALOAD SWAP1 POP PUSH2 0x5D3 DUP2 PUSH2 0x5AF JUMP JUMPDEST SWAP3 SWAP2 POP POP JUMP JUMPDEST PUSH0 PUSH0 PUSH1 0x40 DUP4 DUP6 SUB SLT ISZERO PUSH2 0x5EF JUMPI PUSH2 0x5EE PUSH2 0x3AE JUMP JUMPDEST JUMPDEST PUSH0 PUSH2 0x5FC DUP6 DUP3 DUP7 ADD PUSH2 0x5C5 JUMP JUMPDEST SWAP3 POP POP PUSH1 0x20 DUP4 ADD CALLDATALOAD PUSH8 0xFFFFFFFFFFFFFFFF DUP2 GT ISZERO PUSH2 0x61D JUMPI PUSH2 0x61C PUSH2 0x3B2 JUMP JUMPDEST JUMPDEST PUSH2 0x629 DUP6 DUP3 DUP7 ADD PUSH2 0x4C5 JUMP JUMPDEST SWAP2 POP POP SWAP3 POP SWAP3 SWAP1 POP JUMP JUMPDEST PUSH2 0x63C DUP2 PUSH2 0x4F2 JUMP JUMPDEST DUP3 MSTORE POP POP JUMP JUMPDEST PUSH0 PUSH1 0x20 DUP3 ADD SWAP1 POP PUSH2 0x655 PUSH0 DUP4 ADD DUP5 PUSH2 0x633 JUMP JUMPDEST SWAP3 SWAP2 POP POP JUMP JUMPDEST PUSH0 PUSH1 0x20 DUP3 DUP5 SUB SLT ISZERO PUSH2 0x670 JUMPI PUSH2 0x66F PUSH2 0x3AE JUMP JUMPDEST JUMPDEST PUSH0 PUSH2 0x67D DUP5 DUP3 DUP6 ADD PUSH2 0x5C5 JUMP JUMPDEST SWAP2 POP POP SWAP3 SWAP2 POP POP JUMP JUMPDEST PUSH0 PUSH0 PUSH1 0x40 DUP4 DUP6 SUB SLT ISZERO PUSH2 0x69C JUMPI PUSH2 0x69B PUSH2 0x3AE JUMP JUMPDEST JUMPDEST PUSH0 PUSH2 0x6A9 DUP6 DUP3 DUP7 ADD PUSH2 0x5C5 JUMP JUMPDEST SWAP3 POP POP PUSH1 0x20 PUSH2 0x6BA DUP6 DUP3 DUP7 ADD PUSH2 0x511 JUMP JUMPDEST SWAP2 POP POP SWAP3 POP SWAP3 SWAP1 POP JUMP JUMPDEST PUSH0 DUP2 MLOAD SWAP1 POP SWAP2 SWAP1 POP JUMP JUMPDEST PUSH0 DUP2 SWAP1 POP SWAP3 SWAP2 POP POP JUMP JUMPDEST DUP3 DUP2 DUP4 MCOPY PUSH0 DUP4 DUP4 ADD MSTORE POP POP POP JUMP JUMPDEST PUSH0 PUSH2 0x6F0 DUP3 PUSH2 0x6C4 JUMP JUMPDEST PUSH2 0x6FA DUP2 DUP6 PUSH2 0x6CE JUMP JUMPDEST SWAP4 POP PUSH2 0x70A DUP2 DUP6 PUSH1 0x20 DUP7 ADD PUSH2 0x6D8 JUMP JUMPDEST DUP1 DUP5 ADD SWAP2 POP POP SWAP3 SWAP2 POP POP JUMP JUMPDEST PUSH0 PUSH2 0x721 DUP3 DUP5 PUSH2 0x6E6 JUMP JUMPDEST SWAP2 POP DUP2 SWAP1 POP SWAP3 SWAP2 POP POP JUMP INVALID LOG2 PUSH5 0x6970667358 0x22 SLT KECCAK256 SMOD SMOD ORIGIN DUP7 0xDC PUSH11 0xE406CA635B1F64046E3496 0x2A LOG3 0xBE 0xEA 0xBD 0xB2 PUSH22 0x84AF96711A82EB764736F6C634300081E0033000000 "
		},
		"gasEstimates": {
			"creation": {
				"codeDepositCost": "378000",
				"executionCost": "416",
				"totalCost": "378416"
			},
			"external": {
				"balances(address)": "2846",
				"delUserBalance(address,string)": "infinite",
				"getBalance(address)": "2894",
				"getUserBalance(address,string)": "infinite",
				"setBalance(address,uint256)": "22842",
				"setUserBalance(string,uint256)": "infinite",
				"testFunc1()": "210",
				"userBalances(address,string)": "infinite"
			}
		},
		"methodIdentifiers": {
			"balances(address)": "27e235e3",
			"delUserBalance(address,string)": "db88e539",
			"getBalance(address)": "f8b2cb4f",
			"getUserBalance(address,string)": "e8827cec",
			"setBalance(address,uint256)": "e30443bc",
			"setUserBalance(string,uint256)": "09e89648",
			"testFunc1()": "561f5f89",
			"userBalances(address,string)": "12bd4d74"
		}
	},
	"abi": [
		{
			"inputs": [
				{
					"internalType": "address",
					"name": "account",
					"type": "address"
				}
			],
			"name": "balances",
			"outputs": [
				{
					"internalType": "uint256",
					"name": "amount",
					"type": "uint256"
				}
			],
			"stateMutability": "view",
			"type": "function"
		},
		{
			"inputs": [
				{
					"internalType": "address",
					"name": "user",
					"type": "address"
				},
				{
					"internalType": "string",
					"name": "currency",
					"type": "string"
				}
			],
			"name": "delUserBalance",
			"outputs": [],
			"stateMutability": "nonpayable",
			"type": "function"
		},
		{
			"inputs": [
				{
					"internalType": "address",
					"name": "_key",
					"type": "address"
				}
			],
			"name": "getBalance",
			"outputs": [
				{
					"internalType": "uint256",
					"name": "",
					"type": "uint256"
				}
			],
			"stateMutability": "view",
			"type": "function"
		},
		{
			"inputs": [
				{
					"internalType": "address",
					"name": "user",
					"type": "address"
				},
				{
					"internalType": "string",
					"name": "currency",
					"type": "string"
				}
			],
			"name": "getUserBalance",
			"outputs": [
				{
					"internalType": "uint256",
					"name": "",
					"type": "uint256"
				}
			],
			"stateMutability": "view",
			"type": "function"
		},
		{
			"inputs": [
				{
					"internalType": "address",
					"name": "_key",
					"type": "address"
				},
				{
					"internalType": "uint256",
					"name": "_value",
					"type": "uint256"
				}
			],
			"name": "setBalance",
			"outputs": [],
			"stateMutability": "nonpayable",
			"type": "function"
		},
		{
			"inputs": [
				{
					"internalType": "string",
					"name": "currency",
					"type": "string"
				},
				{
					"internalType": "uint256",
					"name": "amount",
					"type": "uint256"
				}
			],
			"name": "setUserBalance",
			"outputs": [],
			"stateMutability": "nonpayable",
			"type": "function"
		},
		{
			"inputs": [],
			"name": "testFunc1",
			"outputs": [],
			"stateMutability": "nonpayable",
			"type": "function"
		},
		{
			"inputs": [
				{
					"internalType": "address",
					"name": "",
					"type": "address"
				},
				{
					"internalType": "string",
					"name": "currency",
					"type": "string"
				}
			],
			"name": "userBalances",
			"outputs": [
				{
					"internalType": "uint256",
					"name": "amount",
					"type": "uint256"
				}
			],
			"stateMutability": "view",
			"type": "function"
		}
	]
}