{
	"data": {
		"bytecode": {
			"linkReferences": {},
			"object": "6080604052348015600e575f5ffd5b50610ad48061001c5f395ff3fe608060405234801561000f575f5ffd5b506004361061003f575f3560e01c80636f77926b14610043578063a87430ba14610073578063d3bddc2b146100a5575b5f5ffd5b61005d60048036038101906100589190610451565b6100c1565b60405161006a9190610560565b60405180910390f35b61008d60048036038101906100889190610451565b610205565b60405161009c939291906105e6565b60405180910390f35b6100bf60048036038101906100ba9190610778565b6102cf565b005b6100c96103b1565b5f5f8373ffffffffffffffffffffffffffffffffffffffff1673ffffffffffffffffffffffffffffffffffffffff1681526020019081526020015f206040518060600160405290815f8201805461011f906107ff565b80601f016020809104026020016040519081016040528092919081815260200182805461014b906107ff565b80156101965780601f1061016d57610100808354040283529160200191610196565b820191905f5260205f20905b81548152906001019060200180831161017957829003601f168201915b5050505050815260200160018201548152602001600282015f9054906101000a900473ffffffffffffffffffffffffffffffffffffffff1673ffffffffffffffffffffffffffffffffffffffff1673ffffffffffffffffffffffffffffffffffffffff16815250509050919050565b5f602052805f5260405f205f91509050805f018054610223906107ff565b80601f016020809104026020016040519081016040528092919081815260200182805461024f906107ff565b801561029a5780601f106102715761010080835404028352916020019161029a565b820191905f5260205f20905b81548152906001019060200180831161027d57829003601f168201915b505050505090806001015490806002015f9054906101000a900473ffffffffffffffffffffffffffffffffffffffff16905083565b5f3390505f60405180606001604052808581526020018481526020018373ffffffffffffffffffffffffffffffffffffffff168152509050805f5f8473ffffffffffffffffffffffffffffffffffffffff1673ffffffffffffffffffffffffffffffffffffffff1681526020019081526020015f205f820151815f01908161035791906109cf565b50602082015181600101556040820151816002015f6101000a81548173ffffffffffffffffffffffffffffffffffffffff021916908373ffffffffffffffffffffffffffffffffffffffff16021790555090505050505050565b6040518060600160405280606081526020015f81526020015f73ffffffffffffffffffffffffffffffffffffffff1681525090565b5f604051905090565b5f5ffd5b5f5ffd5b5f73ffffffffffffffffffffffffffffffffffffffff82169050919050565b5f610420826103f7565b9050919050565b61043081610416565b811461043a575f5ffd5b50565b5f8135905061044b81610427565b92915050565b5f60208284031215610466576104656103ef565b5b5f6104738482850161043d565b91505092915050565b5f81519050919050565b5f82825260208201905092915050565b8281835e5f83830152505050565b5f601f19601f8301169050919050565b5f6104be8261047c565b6104c88185610486565b93506104d8818560208601610496565b6104e1816104a4565b840191505092915050565b5f819050919050565b6104fe816104ec565b82525050565b61050d81610416565b82525050565b5f606083015f8301518482035f86015261052d82826104b4565b915050602083015161054260208601826104f5565b5060408301516105556040860182610504565b508091505092915050565b5f6020820190508181035f8301526105788184610513565b905092915050565b5f82825260208201905092915050565b5f61059a8261047c565b6105a48185610580565b93506105b4818560208601610496565b6105bd816104a4565b840191505092915050565b6105d1816104ec565b82525050565b6105e081610416565b82525050565b5f6060820190508181035f8301526105fe8186610590565b905061060d60208301856105c8565b61061a60408301846105d7565b949350505050565b5f5ffd5b5f5ffd5b7f4e487b71000000000000000000000000000000000000000000000000000000005f52604160045260245ffd5b610660826104a4565b810181811067ffffffffffffffff8211171561067f5761067e61062a565b5b80604052505050565b5f6106916103e6565b905061069d8282610657565b919050565b5f67ffffffffffffffff8211156106bc576106bb61062a565b5b6106c5826104a4565b9050602081019050919050565b828183375f83830152505050565b5f6106f26106ed846106a2565b610688565b90508281526020810184848401111561070e5761070d610626565b5b6107198482856106d2565b509392505050565b5f82601f83011261073557610734610622565b5b81356107458482602086016106e0565b91505092915050565b610757816104ec565b8114610761575f5ffd5b50565b5f813590506107728161074e565b92915050565b5f5f6040838503121561078e5761078d6103ef565b5b5f83013567ffffffffffffffff8111156107ab576107aa6103f3565b5b6107b785828601610721565b92505060206107c885828601610764565b9150509250929050565b7f4e487b71000000000000000000000000000000000000000000000000000000005f52602260045260245ffd5b5f600282049050600182168061081657607f821691505b602082108103610829576108286107d2565b5b50919050565b5f819050815f5260205f209050919050565b5f6020601f8301049050919050565b5f82821b905092915050565b5f6008830261088b7fffffffffffffffffffffffffffffffffffffffffffffffffffffffffffffffff82610850565b6108958683610850565b95508019841693508086168417925050509392505050565b5f819050919050565b5f6108d06108cb6108c6846104ec565b6108ad565b6104ec565b9050919050565b5f819050919050565b6108e9836108b6565b6108fd6108f5826108d7565b84845461085c565b825550505050565b5f5f905090565b610914610905565b61091f8184846108e0565b505050565b5b81811015610942576109375f8261090c565b600181019050610925565b5050565b601f821115610987576109588161082f565b61096184610841565b81016020851015610970578190505b61098461097c85610841565b830182610924565b50505b505050565b5f82821c905092915050565b5f6109a75f198460080261098c565b1980831691505092915050565b5f6109bf8383610998565b9150826002028217905092915050565b6109d88261047c565b67ffffffffffffffff8111156109f1576109f061062a565b5b6109fb82546107ff565b610a06828285610946565b5f60209050601f831160018114610a37575f8415610a25578287015190505b610a2f85826109b4565b865550610a96565b601f198416610a458661082f565b5f5b82811015610a6c57848901518255600182019150602085019450602081019050610a47565b86831015610a895784890151610a85601f891682610998565b8355505b6001600288020188555050505b50505050505056fea26469706673582212204ea065714d82a1bdc48c73ba1989f0f7500430dc1ee42d41cbdea1ffbf3479ef64736f6c634300081e0033",
			"opcodes": "PUSH1 0x80 PUSH1 0x40 MSTORE CALLVALUE DUP1 ISZERO PUSH1 0xE JUMPI PUSH0 PUSH0 REVERT JUMPDEST POP PUSH2 0xAD4 DUP1 PUSH2 0x1C PUSH0 CODECOPY PUSH0 RETURN INVALID PUSH1 0x80 PUSH1 0x40 MSTORE CALLVALUE DUP1 ISZERO PUSH2 0xF JUMPI PUSH0 PUSH0 REVERT JUMPDEST POP PUSH1 0x4 CALLDATASIZE LT PUSH2 0x3F JUMPI PUSH0 CALLDATALOAD PUSH1 0xE0 SHR DUP1 PUSH4 0x6F77926B EQ PUSH2 0x43 JUMPI DUP1 PUSH4 0xA87430BA EQ PUSH2 0x73 JUMPI DUP1 PUSH4 0xD3BDDC2B EQ PUSH2 0xA5 JUMPI JUMPDEST PUSH0 PUSH0 REVERT JUMPDEST PUSH2 0x5D PUSH1 0x4 DUP1 CALLDATASIZE SUB DUP2 ADD SWAP1 PUSH2 0x58 SWAP2 SWAP1 PUSH2 0x451 JUMP JUMPDEST PUSH2 0xC1 JUMP JUMPDEST PUSH1 0x40 MLOAD PUSH2 0x6A SWAP2 SWAP1 PUSH2 0x560 JUMP JUMPDEST PUSH1 0x40 MLOAD DUP1 SWAP2 SUB SWAP1 RETURN JUMPDEST PUSH2 0x8D PUSH1 0x4 DUP1 CALLDATASIZE SUB DUP2 ADD SWAP1 PUSH2 0x88 SWAP2 SWAP1 PUSH2 0x451 JUMP JUMPDEST PUSH2 0x205 JUMP JUMPDEST PUSH1 0x40 MLOAD PUSH2 0x9C SWAP4 SWAP3 SWAP2 SWAP1 PUSH2 0x5E6 JUMP JUMPDEST PUSH1 0x40 MLOAD DUP1 SWAP2 SUB SWAP1 RETURN JUMPDEST PUSH2 0xBF PUSH1 0x4 DUP1 CALLDATASIZE SUB DUP2 ADD SWAP1 PUSH2 0xBA SWAP2 SWAP1 PUSH2 0x778 JUMP JUMPDEST PUSH2 0x2CF JUMP JUMPDEST STOP JUMPDEST PUSH2 0xC9 PUSH2 0x3B1 JUMP JUMPDEST PUSH0 PUSH0 DUP4 PUSH20 0xFFFFFFFFFFFFFFFFFFFFFFFFFFFFFFFFFFFFFFFF AND PUSH20 0xFFFFFFFFFFFFFFFFFFFFFFFFFFFFFFFFFFFFFFFF AND DUP2 MSTORE PUSH1 0x20 ADD SWAP1 DUP2 MSTORE PUSH1 0x20 ADD PUSH0 KECCAK256 PUSH1 0x40 MLOAD DUP1 PUSH1 0x60 ADD PUSH1 0x40 MSTORE SWAP1 DUP2 PUSH0 DUP3 ADD DUP1 SLOAD PUSH2 0x11F SWAP1 PUSH2 0x7FF JUMP JUMPDEST DUP1 PUSH1 0x1F ADD PUSH1 0x20 DUP1 SWAP2 DIV MUL PUSH1 0x20 ADD PUSH1 0x40 MLOAD SWAP1 DUP2 ADD PUSH1 0x40 MSTORE DUP1 SWAP3 SWAP2 SWAP1 DUP2 DUP2 MSTORE PUSH1 0x20 ADD DUP3 DUP1 SLOAD PUSH2 0x14B SWAP1 PUSH2 0x7FF JUMP JUMPDEST DUP1 ISZERO PUSH2 0x196 JUMPI DUP1 PUSH1 0x1F LT PUSH2 0x16D JUMPI PUSH2 0x100 DUP1 DUP4 SLOAD DIV MUL DUP4 MSTORE SWAP2 PUSH1 0x20 ADD SWAP2 PUSH2 0x196 JUMP JUMPDEST DUP3 ADD SWAP2 SWAP1 PUSH0 MSTORE PUSH1 0x20 PUSH0 KECCAK256 SWAP1 JUMPDEST DUP2 SLOAD DUP2 MSTORE SWAP1 PUSH1 0x1 ADD SWAP1 PUSH1 0x20 ADD DUP1 DUP4 GT PUSH2 0x179 JUMPI DUP3 SWAP1 SUB PUSH1 0x1F AND DUP3 ADD SWAP2 JUMPDEST POP POP POP POP POP DUP2 MSTORE PUSH1 0x20 ADD PUSH1 0x1 DUP3 ADD SLOAD DUP2 MSTORE PUSH1 0x20 ADD PUSH1 0x2 DUP3 ADD PUSH0 SWAP1 SLOAD SWAP1 PUSH2 0x100 EXP SWAP1 DIV PUSH20 0xFFFFFFFFFFFFFFFFFFFFFFFFFFFFFFFFFFFFFFFF AND PUSH20 0xFFFFFFFFFFFFFFFFFFFFFFFFFFFFFFFFFFFFFFFF AND PUSH20 0xFFFFFFFFFFFFFFFFFFFFFFFFFFFFFFFFFFFFFFFF AND DUP2 MSTORE POP POP SWAP1 POP SWAP2 SWAP1 POP JUMP JUMPDEST PUSH0 PUSH1 0x20 MSTORE DUP1 PUSH0 MSTORE PUSH1 0x40 PUSH0 KECCAK256 PUSH0 SWAP2 POP SWAP1 POP DUP1 PUSH0 ADD DUP1 SLOAD PUSH2 0x223 SWAP1 PUSH2 0x7FF JUMP JUMPDEST DUP1 PUSH1 0x1F ADD PUSH1 0x20 DUP1 SWAP2 DIV MUL PUSH1 0x20 ADD PUSH1 0x40 MLOAD SWAP1 DUP2 ADD PUSH1 0x40 MSTORE DUP1 SWAP3 SWAP2 SWAP1 DUP2 DUP2 MSTORE PUSH1 0x20 ADD DUP3 DUP1 SLOAD PUSH2 0x24F SWAP1 PUSH2 0x7FF JUMP JUMPDEST DUP1 ISZERO PUSH2 0x29A JUMPI DUP1 PUSH1 0x1F LT PUSH2 0x271 JUMPI PUSH2 0x100 DUP1 DUP4 SLOAD DIV MUL DUP4 MSTORE SWAP2 PUSH1 0x20 ADD SWAP2 PUSH2 0x29A JUMP JUMPDEST DUP3 ADD SWAP2 SWAP1 PUSH0 MSTORE PUSH1 0x20 PUSH0 KECCAK256 SWAP1 JUMPDEST DUP2 SLOAD DUP2 MSTORE SWAP1 PUSH1 0x1 ADD SWAP1 PUSH1 0x20 ADD DUP1 DUP4 GT PUSH2 0x27D JUMPI DUP3 SWAP1 SUB PUSH1 0x1F AND DUP3 ADD SWAP2 JUMPDEST POP POP POP POP POP SWAP1 DUP1 PUSH1 0x1 ADD SLOAD SWAP1 DUP1 PUSH1 0x2 ADD PUSH0 SWAP1 SLOAD SWAP1 PUSH2 0x100 EXP SWAP1 DIV PUSH20 0xFFFFFFFFFFFFFFFFFFFFFFFFFFFFFFFFFFFFFFFF AND SWAP1 POP DUP4 JUMP JUMPDEST PUSH0 CALLER SWAP1 POP PUSH0 PUSH1 0x40 MLOAD DUP1 PUSH1 0x60 ADD PUSH1 0x40 MSTORE DUP1 DUP6 DUP2 MSTORE PUSH1 0x20 ADD DUP5 DUP2 MSTORE PUSH1 0x20 ADD DUP4 PUSH20 0xFFFFFFFFFFFFFFFFFFFFFFFFFFFFFFFFFFFFFFFF AND DUP2 MSTORE POP SWAP1 POP DUP1 PUSH0 PUSH0 DUP5 PUSH20 0xFFFFFFFFFFFFFFFFFFFFFFFFFFFFFFFFFFFFFFFF AND PUSH20 0xFFFFFFFFFFFFFFFFFFFFFFFFFFFFFFFFFFFFFFFF AND DUP2 MSTORE PUSH1 0x20 ADD SWAP1 DUP2 MSTORE PUSH1 0x20 ADD PUSH0 KECCAK256 PUSH0 DUP3 ADD MLOAD DUP2 PUSH0 ADD SWAP1 DUP2 PUSH2 0x357 SWAP2 SWAP1 PUSH2 0x9CF JUMP JUMPDEST POP PUSH1 0x20 DUP3 ADD MLOAD DUP2 PUSH1 0x1 ADD SSTORE PUSH1 0x40 DUP3 ADD MLOAD DUP2 PUSH1 0x2 ADD PUSH0 PUSH2 0x100 EXP DUP2 SLOAD DUP2 PUSH20 0xFFFFFFFFFFFFFFFFFFFFFFFFFFFFFFFFFFFFFFFF MUL NOT AND SWAP1 DUP4 PUSH20 0xFFFFFFFFFFFFFFFFFFFFFFFFFFFFFFFFFFFFFFFF AND MUL OR SWAP1 SSTORE POP SWAP1 POP POP POP POP POP POP JUMP JUMPDEST PUSH1 0x40 MLOAD DUP1 PUSH1 0x60 ADD PUSH1 0x40 MSTORE DUP1 PUSH1 0x60 DUP2 MSTORE PUSH1 0x20 ADD PUSH0 DUP2 MSTORE PUSH1 0x20 ADD PUSH0 PUSH20 0xFFFFFFFFFFFFFFFFFFFFFFFFFFFFFFFFFFFFFFFF AND DUP2 MSTORE POP SWAP1 JUMP JUMPDEST PUSH0 PUSH1 0x40 MLOAD SWAP1 POP SWAP1 JUMP JUMPDEST PUSH0 PUSH0 REVERT JUMPDEST PUSH0 PUSH0 REVERT JUMPDEST PUSH0 PUSH20 0xFFFFFFFFFFFFFFFFFFFFFFFFFFFFFFFFFFFFFFFF DUP3 AND SWAP1 POP SWAP2 SWAP1 POP JUMP JUMPDEST PUSH0 PUSH2 0x420 DUP3 PUSH2 0x3F7 JUMP JUMPDEST SWAP1 POP SWAP2 SWAP1 POP JUMP JUMPDEST PUSH2 0x430 DUP2 PUSH2 0x416 JUMP JUMPDEST DUP2 EQ PUSH2 0x43A JUMPI PUSH0 PUSH0 REVERT JUMPDEST POP JUMP JUMPDEST PUSH0 DUP2 CALLDATALOAD SWAP1 POP PUSH2 0x44B DUP2 PUSH2 0x427 JUMP JUMPDEST SWAP3 SWAP2 POP POP JUMP JUMPDEST PUSH0 PUSH1 0x20 DUP3 DUP5 SUB SLT ISZERO PUSH2 0x466 JUMPI PUSH2 0x465 PUSH2 0x3EF JUMP JUMPDEST JUMPDEST PUSH0 PUSH2 0x473 DUP5 DUP3 DUP6 ADD PUSH2 0x43D JUMP JUMPDEST SWAP2 POP POP SWAP3 SWAP2 POP POP JUMP JUMPDEST PUSH0 DUP2 MLOAD SWAP1 POP SWAP2 SWAP1 POP JUMP JUMPDEST PUSH0 DUP3 DUP3 MSTORE PUSH1 0x20 DUP3 ADD SWAP1 POP SWAP3 SWAP2 POP POP JUMP JUMPDEST DUP3 DUP2 DUP4 MCOPY PUSH0 DUP4 DUP4 ADD MSTORE POP POP POP JUMP JUMPDEST PUSH0 PUSH1 0x1F NOT PUSH1 0x1F DUP4 ADD AND SWAP1 POP SWAP2 SWAP1 POP JUMP JUMPDEST PUSH0 PUSH2 0x4BE DUP3 PUSH2 0x47C JUMP JUMPDEST PUSH2 0x4C8 DUP2 DUP6 PUSH2 0x486 JUMP JUMPDEST SWAP4 POP PUSH2 0x4D8 DUP2 DUP6 PUSH1 0x20 DUP7 ADD PUSH2 0x496 JUMP JUMPDEST PUSH2 0x4E1 DUP2 PUSH2 0x4A4 JUMP JUMPDEST DUP5 ADD SWAP2 POP POP SWAP3 SWAP2 POP POP JUMP JUMPDEST PUSH0 DUP2 SWAP1 POP SWAP2 SWAP1 POP JUMP JUMPDEST PUSH2 0x4FE DUP2 PUSH2 0x4EC JUMP JUMPDEST DUP3 MSTORE POP POP JUMP JUMPDEST PUSH2 0x50D DUP2 PUSH2 0x416 JUMP JUMPDEST DUP3 MSTORE POP POP JUMP JUMPDEST PUSH0 PUSH1 0x60 DUP4 ADD PUSH0 DUP4 ADD MLOAD DUP5 DUP3 SUB PUSH0 DUP7 ADD MSTORE PUSH2 0x52D DUP3 DUP3 PUSH2 0x4B4 JUMP JUMPDEST SWAP2 POP POP PUSH1 0x20 DUP4 ADD MLOAD PUSH2 0x542 PUSH1 0x20 DUP7 ADD DUP3 PUSH2 0x4F5 JUMP JUMPDEST POP PUSH1 0x40 DUP4 ADD MLOAD PUSH2 0x555 PUSH1 0x40 DUP7 ADD DUP3 PUSH2 0x504 JUMP JUMPDEST POP DUP1 SWAP2 POP POP SWAP3 SWAP2 POP POP JUMP JUMPDEST PUSH0 PUSH1 0x20 DUP3 ADD SWAP1 POP DUP2 DUP2 SUB PUSH0 DUP4 ADD MSTORE PUSH2 0x578 DUP2 DUP5 PUSH2 0x513 JUMP JUMPDEST SWAP1 POP SWAP3 SWAP2 POP POP JUMP JUMPDEST PUSH0 DUP3 DUP3 MSTORE PUSH1 0x20 DUP3 ADD SWAP1 POP SWAP3 SWAP2 POP POP JUMP JUMPDEST PUSH0 PUSH2 0x59A DUP3 PUSH2 0x47C JUMP JUMPDEST PUSH2 0x5A4 DUP2 DUP6 PUSH2 0x580 JUMP JUMPDEST SWAP4 POP PUSH2 0x5B4 DUP2 DUP6 PUSH1 0x20 DUP7 ADD PUSH2 0x496 JUMP JUMPDEST PUSH2 0x5BD DUP2 PUSH2 0x4A4 JUMP JUMPDEST DUP5 ADD SWAP2 POP POP SWAP3 SWAP2 POP POP JUMP JUMPDEST PUSH2 0x5D1 DUP2 PUSH2 0x4EC JUMP JUMPDEST DUP3 MSTORE POP POP JUMP JUMPDEST PUSH2 0x5E0 DUP2 PUSH2 0x416 JUMP JUMPDEST DUP3 MSTORE POP POP JUMP JUMPDEST PUSH0 PUSH1 0x60 DUP3 ADD SWAP1 POP DUP2 DUP2 SUB PUSH0 DUP4 ADD MSTORE PUSH2 0x5FE DUP2 DUP7 PUSH2 0x590 JUMP JUMPDEST SWAP1 POP PUSH2 0x60D PUSH1 0x20 DUP4 ADD DUP6 PUSH2 0x5C8 JUMP JUMPDEST PUSH2 0x61A PUSH1 0x40 DUP4 ADD DUP5 PUSH2 0x5D7 JUMP JUMPDEST SWAP5 SWAP4 POP POP POP POP JUMP JUMPDEST PUSH0 PUSH0 REVERT JUMPDEST PUSH0 PUSH0 REVERT JUMPDEST PUSH32 0x4E487B7100000000000000000000000000000000000000000000000000000000 PUSH0 MSTORE PUSH1 0x41 PUSH1 0x4 MSTORE PUSH1 0x24 PUSH0 REVERT JUMPDEST PUSH2 0x660 DUP3 PUSH2 0x4A4 JUMP JUMPDEST DUP2 ADD DUP2 DUP2 LT PUSH8 0xFFFFFFFFFFFFFFFF DUP3 GT OR ISZERO PUSH2 0x67F JUMPI PUSH2 0x67E PUSH2 0x62A JUMP JUMPDEST JUMPDEST DUP1 PUSH1 0x40 MSTORE POP POP POP JUMP JUMPDEST PUSH0 PUSH2 0x691 PUSH2 0x3E6 JUMP JUMPDEST SWAP1 POP PUSH2 0x69D DUP3 DUP3 PUSH2 0x657 JUMP JUMPDEST SWAP2 SWAP1 POP JUMP JUMPDEST PUSH0 PUSH8 0xFFFFFFFFFFFFFFFF DUP3 GT ISZERO PUSH2 0x6BC JUMPI PUSH2 0x6BB PUSH2 0x62A JUMP JUMPDEST JUMPDEST PUSH2 0x6C5 DUP3 PUSH2 0x4A4 JUMP JUMPDEST SWAP1 POP PUSH1 0x20 DUP2 ADD SWAP1 POP SWAP2 SWAP1 POP JUMP JUMPDEST DUP3 DUP2 DUP4 CALLDATACOPY PUSH0 DUP4 DUP4 ADD MSTORE POP POP POP JUMP JUMPDEST PUSH0 PUSH2 0x6F2 PUSH2 0x6ED DUP5 PUSH2 0x6A2 JUMP JUMPDEST PUSH2 0x688 JUMP JUMPDEST SWAP1 POP DUP3 DUP2 MSTORE PUSH1 0x20 DUP2 ADD DUP5 DUP5 DUP5 ADD GT ISZERO PUSH2 0x70E JUMPI PUSH2 0x70D PUSH2 0x626 JUMP JUMPDEST JUMPDEST PUSH2 0x719 DUP5 DUP3 DUP6 PUSH2 0x6D2 JUMP JUMPDEST POP SWAP4 SWAP3 POP POP POP JUMP JUMPDEST PUSH0 DUP3 PUSH1 0x1F DUP4 ADD SLT PUSH2 0x735 JUMPI PUSH2 0x734 PUSH2 0x622 JUMP JUMPDEST JUMPDEST DUP2 CALLDATALOAD PUSH2 0x745 DUP5 DUP3 PUSH1 0x20 DUP7 ADD PUSH2 0x6E0 JUMP JUMPDEST SWAP2 POP POP SWAP3 SWAP2 POP POP JUMP JUMPDEST PUSH2 0x757 DUP2 PUSH2 0x4EC JUMP JUMPDEST DUP2 EQ PUSH2 0x761 JUMPI PUSH0 PUSH0 REVERT JUMPDEST POP JUMP JUMPDEST PUSH0 DUP2 CALLDATALOAD SWAP1 POP PUSH2 0x772 DUP2 PUSH2 0x74E JUMP JUMPDEST SWAP3 SWAP2 POP POP JUMP JUMPDEST PUSH0 PUSH0 PUSH1 0x40 DUP4 DUP6 SUB SLT ISZERO PUSH2 0x78E JUMPI PUSH2 0x78D PUSH2 0x3EF JUMP JUMPDEST JUMPDEST PUSH0 DUP4 ADD CALLDATALOAD PUSH8 0xFFFFFFFFFFFFFFFF DUP2 GT ISZERO PUSH2 0x7AB JUMPI PUSH2 0x7AA PUSH2 0x3F3 JUMP JUMPDEST JUMPDEST PUSH2 0x7B7 DUP6 DUP3 DUP7 ADD PUSH2 0x721 JUMP JUMPDEST SWAP3 POP POP PUSH1 0x20 PUSH2 0x7C8 DUP6 DUP3 DUP7 ADD PUSH2 0x764 JUMP JUMPDEST SWAP2 POP POP SWAP3 POP SWAP3 SWAP1 POP JUMP JUMPDEST PUSH32 0x4E487B7100000000000000000000000000000000000000000000000000000000 PUSH0 MSTORE PUSH1 0x22 PUSH1 0x4 MSTORE PUSH1 0x24 PUSH0 REVERT JUMPDEST PUSH0 PUSH1 0x2 DUP3 DIV SWAP1 POP PUSH1 0x1 DUP3 AND DUP1 PUSH2 0x816 JUMPI PUSH1 0x7F DUP3 AND SWAP2 POP JUMPDEST PUSH1 0x20 DUP3 LT DUP2 SUB PUSH2 0x829 JUMPI PUSH2 0x828 PUSH2 0x7D2 JUMP JUMPDEST JUMPDEST POP SWAP2 SWAP1 POP JUMP JUMPDEST PUSH0 DUP2 SWAP1 POP DUP2 PUSH0 MSTORE PUSH1 0x20 PUSH0 KECCAK256 SWAP1 POP SWAP2 SWAP1 POP JUMP JUMPDEST PUSH0 PUSH1 0x20 PUSH1 0x1F DUP4 ADD DIV SWAP1 POP SWAP2 SWAP1 POP JUMP JUMPDEST PUSH0 DUP3 DUP3 SHL SWAP1 POP SWAP3 SWAP2 POP POP JUMP JUMPDEST PUSH0 PUSH1 0x8 DUP4 MUL PUSH2 0x88B PUSH32 0xFFFFFFFFFFFFFFFFFFFFFFFFFFFFFFFFFFFFFFFFFFFFFFFFFFFFFFFFFFFFFFFF DUP3 PUSH2 0x850 JUMP JUMPDEST PUSH2 0x895 DUP7 DUP4 PUSH2 0x850 JUMP JUMPDEST SWAP6 POP DUP1 NOT DUP5 AND SWAP4 POP DUP1 DUP7 AND DUP5 OR SWAP3 POP POP POP SWAP4 SWAP3 POP POP POP JUMP JUMPDEST PUSH0 DUP2 SWAP1 POP SWAP2 SWAP1 POP JUMP JUMPDEST PUSH0 PUSH2 0x8D0 PUSH2 0x8CB PUSH2 0x8C6 DUP5 PUSH2 0x4EC JUMP JUMPDEST PUSH2 0x8AD JUMP JUMPDEST PUSH2 0x4EC JUMP JUMPDEST SWAP1 POP SWAP2 SWAP1 POP JUMP JUMPDEST PUSH0 DUP2 SWAP1 POP SWAP2 SWAP1 POP JUMP JUMPDEST PUSH2 0x8E9 DUP4 PUSH2 0x8B6 JUMP JUMPDEST PUSH2 0x8FD PUSH2 0x8F5 DUP3 PUSH2 0x8D7 JUMP JUMPDEST DUP5 DUP5 SLOAD PUSH2 0x85C JUMP JUMPDEST DUP3 SSTORE POP POP POP POP JUMP JUMPDEST PUSH0 PUSH0 SWAP1 POP SWAP1 JUMP JUMPDEST PUSH2 0x914 PUSH2 0x905 JUMP JUMPDEST PUSH2 0x91F DUP2 DUP5 DUP5 PUSH2 0x8E0 JUMP JUMPDEST POP POP POP JUMP JUMPDEST JUMPDEST DUP2 DUP2 LT ISZERO PUSH2 0x942 JUMPI PUSH2 0x937 PUSH0 DUP3 PUSH2 0x90C JUMP JUMPDEST PUSH1 0x1 DUP2 ADD SWAP1 POP PUSH2 0x925 JUMP JUMPDEST POP POP JUMP JUMPDEST PUSH1 0x1F DUP3 GT ISZERO PUSH2 0x987 JUMPI PUSH2 0x958 DUP2 PUSH2 0x82F JUMP JUMPDEST PUSH2 0x961 DUP5 PUSH2 0x841 JUMP JUMPDEST DUP2 ADD PUSH1 0x20 DUP6 LT ISZERO PUSH2 0x970 JUMPI DUP2 SWAP1 POP JUMPDEST PUSH2 0x984 PUSH2 0x97C DUP6 PUSH2 0x841 JUMP JUMPDEST DUP4 ADD DUP3 PUSH2 0x924 JUMP JUMPDEST POP POP JUMPDEST POP POP POP JUMP JUMPDEST PUSH0 DUP3 DUP3 SHR SWAP1 POP SWAP3 SWAP2 POP POP JUMP JUMPDEST PUSH0 PUSH2 0x9A7 PUSH0 NOT DUP5 PUSH1 0x8 MUL PUSH2 0x98C JUMP JUMPDEST NOT DUP1 DUP4 AND SWAP2 POP POP SWAP3 SWAP2 POP POP JUMP JUMPDEST PUSH0 PUSH2 0x9BF DUP4 DUP4 PUSH2 0x998 JUMP JUMPDEST SWAP2 POP DUP3 PUSH1 0x2 MUL DUP3 OR SWAP1 POP SWAP3 SWAP2 POP POP JUMP JUMPDEST PUSH2 0x9D8 DUP3 PUSH2 0x47C JUMP JUMPDEST PUSH8 0xFFFFFFFFFFFFFFFF DUP2 GT ISZERO PUSH2 0x9F1 JUMPI PUSH2 0x9F0 PUSH2 0x62A JUMP JUMPDEST JUMPDEST PUSH2 0x9FB DUP3 SLOAD PUSH2 0x7FF JUMP JUMPDEST PUSH2 0xA06 DUP3 DUP3 DUP6 PUSH2 0x946 JUMP JUMPDEST PUSH0 PUSH1 0x20 SWAP1 POP PUSH1 0x1F DUP4 GT PUSH1 0x1 DUP2 EQ PUSH2 0xA37 JUMPI PUSH0 DUP5 ISZERO PUSH2 0xA25 JUMPI DUP3 DUP8 ADD MLOAD SWAP1 POP JUMPDEST PUSH2 0xA2F DUP6 DUP3 PUSH2 0x9B4 JUMP JUMPDEST DUP7 SSTORE POP PUSH2 0xA96 JUMP JUMPDEST PUSH1 0x1F NOT DUP5 AND PUSH2 0xA45 DUP7 PUSH2 0x82F JUMP JUMPDEST PUSH0 JUMPDEST DUP3 DUP2 LT ISZERO PUSH2 0xA6C JUMPI DUP5 DUP10 ADD MLOAD DUP3 SSTORE PUSH1 0x1 DUP3 ADD SWAP2 POP PUSH1 0x20 DUP6 ADD SWAP5 POP PUSH1 0x20 DUP2 ADD SWAP1 POP PUSH2 0xA47 JUMP JUMPDEST DUP7 DUP4 LT ISZERO PUSH2 0xA89 JUMPI DUP5 DUP10 ADD MLOAD PUSH2 0xA85 PUSH1 0x1F DUP10 AND DUP3 PUSH2 0x998 JUMP JUMPDEST DUP4 SSTORE POP JUMPDEST PUSH1 0x1 PUSH1 0x2 DUP9 MUL ADD DUP9 SSTORE POP POP POP JUMPDEST POP POP POP POP POP POP JUMP INVALID LOG2 PUSH5 0x6970667358 0x22 SLT KECCAK256 0x4E LOG0 PUSH6 0x714D82A1BDC4 DUP13 PUSH20 0xBA1989F0F7500430DC1EE42D41CBDEA1FFBF3479 0xEF PUSH5 0x736F6C6343 STOP ADDMOD 0x1E STOP CALLER "
		},
		"gasEstimates": {
			"creation": {
				"codeDepositCost": "554400",
				"executionCost": "585",
				"totalCost": "554985"
			},
			"external": {
				"getUser(address)": "infinite",
				"setUser(string,uint256)": "infinite",
				"users(address)": "infinite"
			}
		},
		"methodIdentifiers": {
			"getUser(address)": "6f77926b",
			"setUser(string,uint256)": "d3bddc2b",
			"users(address)": "a87430ba"
		}
	},
	"abi": [
		{
			"inputs": [
				{
					"internalType": "address",
					"name": "addr",
					"type": "address"
				}
			],
			"name": "getUser",
			"outputs": [
				{
					"components": [
						{
							"internalType": "string",
							"name": "name",
							"type": "string"
						},
						{
							"internalType": "uint256",
							"name": "age",
							"type": "uint256"
						},
						{
							"internalType": "address",
							"name": "wallet",
							"type": "address"
						}
					],
					"internalType": "struct UserManager.User",
					"name": "",
					"type": "tuple"
				}
			],
			"stateMutability": "view",
			"type": "function"
		},
		{
			"inputs": [
				{
					"internalType": "string",
					"name": "name",
					"type": "string"
				},
				{
					"internalType": "uint256",
					"name": "age",
					"type": "uint256"
				}
			],
			"name": "setUser",
			"outputs": [],
			"stateMutability": "nonpayable",
			"type": "function"
		},
		{
			"inputs": [
				{
					"internalType": "address",
					"name": "wallet",
					"type": "address"
				}
			],
			"name": "users",
			"outputs": [
				{
					"internalType": "string",
					"name": "name",
					"type": "string"
				},
				{
					"internalType": "uint256",
					"name": "age",
					"type": "uint256"
				},
				{
					"internalType": "address",
					"name": "wallet",
					"type": "address"
				}
			],
			"stateMutability": "view",
			"type": "function"
		}
	]
}