{
	"data": {
		"bytecode": {
			"linkReferences": {},
			"object": "60a06040523073ffffffffffffffffffffffffffffffffffffffff1660809073ffffffffffffffffffffffffffffffffffffffff168152503480156041575f5ffd5b50608051615c2c6100685f395f8181613563015281816135b801526137f20152615c2c5ff3fe608060405260043610610292575f3560e01c80638dbb1e3a11610159578063d22f1d80116100c0578063ea5c219d11610079578063ea5c219d1461096c578063f35e4a6e146109a8578063f6326fb3146109d0578063fad07ece146109da578063fe31311214610a02578063ff42335714610a4457610292565b8063d22f1d801461088c578063d547741f146108b6578063d7bc1769146108de578063d86c044414610906578063de065caa1461092e578063e2bbb1581461094457610292565b8063ab5e124a11610112578063ab5e124a14610794578063ad3cb1cc146107be578063b6d9d919146107e8578063b908afa814610810578063bfc3ebba1461083a578063c713aa941461086457610292565b80638dbb1e3a1461068a5780638ff095f9146106c657806391d14854146106dc5780639e2c8a5b146107185780639ea96e6614610740578063a217fddf1461076a57610292565b806348cd4cb1116101fd5780635c975abb116101b65780635c975abb146105a65780636155e3de146105d057806361a9a03d146105e6578063630b5ba11461060e5780636325d5bc1461062457806375b238fc1461066057610292565b806348cd4cb1146104d05780634ec81af1146104fa5780634f1ef2861461052257806351eb05a61461053e57806352d1902d146105665780635bb6d0071461059057610292565b80632e1a7d4d1161024f5780632e1a7d4d146103c85780632f2ff15d146103f05780632f3ffb9f1461041857806336568abe1461044257806337849b3c1461046a578063379607f5146104a857610292565b806301ffc9a71461029657806302559004146102d2578063081e3eda146102fc578063083c6323146103265780631154823414610350578063248a9ca31461038c575b5f5ffd5b3480156102a1575f5ffd5b506102bc60048036038101906102b79190614260565b610a81565b6040516102c991906142a5565b60405180910390f35b3480156102dd575f5ffd5b506102e6610afa565b6040516102f391906142d6565b60405180910390f35b348015610307575f5ffd5b50610310610b00565b60405161031d91906142d6565b60405180910390f35b348015610331575f5ffd5b5061033a610b0c565b60405161034791906142d6565b60405180910390f35b34801561035b575f5ffd5b5061037660048036038101906103719190614373565b610b12565b60405161038391906142d6565b60405180910390f35b348015610397575f5ffd5b506103b260048036038101906103ad91906143e4565b610bb3565b6040516103bf919061441e565b60405180910390f35b3480156103d3575f5ffd5b506103ee60048036038101906103e99190614437565b610bdd565b005b3480156103fb575f5ffd5b5061041660048036038101906104119190614462565b610f75565b005b348015610423575f5ffd5b5061042c610f97565b60405161043991906142a5565b60405180910390f35b34801561044d575f5ffd5b5061046860048036038101906104639190614462565b610fa9565b005b348015610475575f5ffd5b50610490600480360381019061048b9190614373565b611024565b60405161049f939291906144a0565b60405180910390f35b3480156104b3575f5ffd5b506104ce60048036038101906104c99190614437565b611055565b005b3480156104db575f5ffd5b506104e4611257565b6040516104f191906142d6565b60405180910390f35b348015610505575f5ffd5b50610520600480360381019061051b9190614510565b61125c565b005b61053c600480360381019061053791906146b0565b6114b5565b005b348015610549575f5ffd5b50610564600480360381019061055f9190614437565b6114d4565b005b348015610571575f5ffd5b5061057a61179d565b604051610587919061441e565b60405180910390f35b34801561059b575f5ffd5b506105a46117ce565b005b3480156105b1575f5ffd5b506105ba61188e565b6040516105c791906142a5565b60405180910390f35b3480156105db575f5ffd5b506105e46118b0565b005b3480156105f1575f5ffd5b5061060c6004803603810190610607919061470a565b611972565b005b348015610619575f5ffd5b50610622611a46565b005b34801561062f575f5ffd5b5061064a60048036038101906106459190614735565b611a76565b60405161065791906142d6565b60405180910390f35b34801561066b575f5ffd5b50610674611c07565b604051610681919061441e565b60405180910390f35b348015610695575f5ffd5b506106b060048036038101906106ab9190614785565b611c2b565b6040516106bd91906142d6565b60405180910390f35b3480156106d1575f5ffd5b506106da611d40565b005b3480156106e7575f5ffd5b5061070260048036038101906106fd9190614462565b611e04565b60405161070f91906142a5565b60405180910390f35b348015610723575f5ffd5b5061073e60048036038101906107399190614785565b611e75565b005b34801561074b575f5ffd5b5061075461214c565b60405161076191906142d6565b60405180910390f35b348015610775575f5ffd5b5061077e612152565b60405161078b919061441e565b60405180910390f35b34801561079f575f5ffd5b506107a8612158565b6040516107b591906142a5565b60405180910390f35b3480156107c9575f5ffd5b506107d261216b565b6040516107df9190614823565b60405180910390f35b3480156107f3575f5ffd5b5061080e6004803603810190610809919061486d565b6121a4565b005b34801561081b575f5ffd5b506108246124c8565b604051610831919061441e565b60405180910390f35b348015610845575f5ffd5b5061084e6124ec565b60405161085b91906142d6565b60405180910390f35b34801561086f575f5ffd5b5061088a60048036038101906108859190614437565b6124f0565b005b348015610897575f5ffd5b506108a0612596565b6040516108ad919061493f565b60405180910390f35b3480156108c1575f5ffd5b506108dc60048036038101906108d79190614462565b6125bc565b005b3480156108e9575f5ffd5b5061090460048036038101906108ff9190614437565b6125de565b005b348015610911575f5ffd5b5061092c60048036038101906109279190614958565b612682565b005b348015610939575f5ffd5b5061094261277a565b005b34801561094f575f5ffd5b5061096a60048036038101906109659190614785565b61283c565b005b348015610977575f5ffd5b50610992600480360381019061098d9190614373565b61299f565b60405161099f91906142d6565b60405180910390f35b3480156109b3575f5ffd5b506109ce60048036038101906109c99190614437565b6129fc565b005b6109d8612aa2565b005b3480156109e5575f5ffd5b50610a0060048036038101906109fb91906149a8565b612bb6565b005b348015610a0d575f5ffd5b50610a286004803603810190610a239190614437565b612d25565b604051610a3b9796959493929190614a07565b60405180910390f35b348015610a4f575f5ffd5b50610a6a6004803603810190610a659190614373565b612d91565b604051610a78929190614a74565b60405180910390f35b5f7f7965db0b000000000000000000000000000000000000000000000000000000007bffffffffffffffffffffffffffffffffffffffffffffffffffffffff1916827bffffffffffffffffffffffffffffffffffffffffffffffffffffffff19161480610af35750610af282612ee6565b5b9050919050565b60045481565b5f600580549050905090565b60015481565b5f826005805490508110610b5b576040517f08c379a0000000000000000000000000000000000000000000000000000000008152600401610b5290614ae5565b60405180910390fd5b60065f8581526020019081526020015f205f8473ffffffffffffffffffffffffffffffffffffffff1673ffffffffffffffffffffffffffffffffffffffff1681526020019081526020015f205f015491505092915050565b5f5f610bbd612f4f565b9050805f015f8481526020019081526020015f2060010154915050919050565b610be5612f76565b806005805490508110610c2d576040517f08c379a0000000000000000000000000000000000000000000000000000000008152600401610c2490614ae5565b60405180910390fd5b60035f9054906101000a900460ff1615610c7c576040517f08c379a0000000000000000000000000000000000000000000000000000000008152600401610c7390614b4d565b60405180910390fd5b5f60058381548110610c9157610c90614b6b565b5b905f5260205f20906007020190505f60065f8581526020019081526020015f205f3373ffffffffffffffffffffffffffffffffffffffff1673ffffffffffffffffffffffffffffffffffffffff1681526020019081526020015f2090505f5f5f5f90505b8360030180549050811015610d7d5743846003018281548110610d1b57610d1a614b6b565b5b905f5260205f2090600202016001015411610d7d57836003018181548110610d4657610d45614b6b565b5b905f5260205f2090600202015f015483610d609190614bc5565b92508180610d6d90614bf8565b9250508080600101915050610cf5565b505f5f90505b818460030180549050610d969190614c3f565b811015610e0e57836003018282610dad9190614bc5565b81548110610dbe57610dbd614b6b565b5b905f5260205f209060020201846003018281548110610de057610ddf614b6b565b5b905f5260205f2090600202015f820154815f0155600182015481600101559050508080600101915050610d83565b505f5f90505b81811015610e615783600301805480610e3057610e2f614c72565b5b600190038181905f5260205f2090600202015f5f82015f9055600182015f9055505090558080600101915050610e14565b505f821115610f1d575f73ffffffffffffffffffffffffffffffffffffffff16845f015f9054906101000a900473ffffffffffffffffffffffffffffffffffffffff1673ffffffffffffffffffffffffffffffffffffffff1603610ece57610ec93383612fb7565b610f1c565b610f1b3383865f015f9054906101000a900473ffffffffffffffffffffffffffffffffffffffff1673ffffffffffffffffffffffffffffffffffffffff166130c49092919063ffffffff16565b5b5b43863373ffffffffffffffffffffffffffffffffffffffff167f02f25270a4d87bea75db541cdfe559334a275b4a233520ed6c0a2429667cca9485604051610f6591906142d6565b60405180910390a4505050505050565b610f7e82610bb3565b610f8781613143565b610f918383613157565b50505050565b60035f9054906101000a900460ff1681565b610fb161324f565b73ffffffffffffffffffffffffffffffffffffffff168173ffffffffffffffffffffffffffffffffffffffff1614611015576040517f6697b23200000000000000000000000000000000000000000000000000000000815260040160405180910390fd5b61101f8282613256565b505050565b6006602052815f5260405f20602052805f5260405f205f9150915050805f0154908060010154908060020154905083565b61105d612f76565b8060058054905081106110a5576040517f08c379a000000000000000000000000000000000000000000000000000000000815260040161109c90614ae5565b60405180910390fd5b600360019054906101000a900460ff16156110f5576040517f08c379a00000000000000000000000000000000000000000000000000000000081526004016110ec90614ce9565b60405180910390fd5b5f6005838154811061110a57611109614b6b565b5b905f5260205f20906007020190505f60065f8581526020019081526020015f205f3373ffffffffffffffffffffffffffffffffffffffff1673ffffffffffffffffffffffffffffffffffffffff1681526020019081526020015f209050611170846114d4565b5f81600201548260010154670de0b6b3a76400008560030154855f01546111979190614d07565b6111a19190614d75565b6111ab9190614c3f565b6111b59190614bc5565b90505f8111156111d3575f82600201819055506111d2338261334e565b5b670de0b6b3a76400008360030154835f01546111ef9190614d07565b6111f99190614d75565b8260010181905550843373ffffffffffffffffffffffffffffffffffffffff167f34fcbac0073d7c3d388e51312faf357774904998eeb8fca628b9e6f65ee1cbf78360405161124891906142d6565b60405180910390a35050505050565b5f5481565b5f61126561353a565b90505f815f0160089054906101000a900460ff161590505f825f015f9054906101000a900467ffffffffffffffff1690505f5f8267ffffffffffffffff161480156112ad5750825b90505f60018367ffffffffffffffff161480156112e057505f3073ffffffffffffffffffffffffffffffffffffffff163b145b9050811580156112ee575080155b15611325576040517ff92ee8a900000000000000000000000000000000000000000000000000000000815260040160405180910390fd5b6001855f015f6101000a81548167ffffffffffffffff021916908367ffffffffffffffff1602179055508315611372576001855f0160086101000a81548160ff0219169083151502179055505b86881115801561138157505f86115b6113c0576040517f08c379a00000000000000000000000000000000000000000000000000000000081526004016113b790614def565b60405180910390fd5b6113c861354d565b6113d0613557565b6113dc5f5f1b33613157565b506114077fcab03bc4dbcc648cd59d6bbe9f848d1e9092f914016aa290ee92e18700d1e6f933613157565b506114327f589d473ba17c0f47d494622893831497bad25919b9afb8e33e9521b8963fccde33613157565b5061143c89611972565b875f81905550866001819055508560028190555083156114aa575f855f0160086101000a81548160ff0219169083151502179055507fc7f505b2f371ae2175ee4913f4499e1f2633a7b5936321eed1cdaeb6115181d260016040516114a19190614e59565b60405180910390a15b505050505050505050565b6114bd613561565b6114c682613647565b6114d08282613675565b5050565b80600580549050811061151c576040517f08c379a000000000000000000000000000000000000000000000000000000000815260040161151390614ae5565b60405180910390fd5b5f6005838154811061153157611530614b6b565b5b905f5260205f2090600702019050806002015443116115505750611799565b5f5f6115768360010154611568856002015443611c2b565b61379390919063ffffffff16565b91509150816115ba576040517f08c379a00000000000000000000000000000000000000000000000000000000081526004016115b190614ebc565b60405180910390fd5b6115cf600454826137ba90919063ffffffff16565b809250819350505081611617576040517f08c379a000000000000000000000000000000000000000000000000000000000815260040161160e90614ebc565b60405180910390fd5b5f836004015490505f81111561174e575f5f611644670de0b6b3a76400008561379390919063ffffffff16565b9150915081611688576040517f08c379a000000000000000000000000000000000000000000000000000000000815260040161167f90614ebc565b60405180910390fd5b61169b83826137ba90919063ffffffff16565b8092508193505050816116e3576040517f08c379a00000000000000000000000000000000000000000000000000000000081526004016116da90614ebc565b60405180910390fd5b5f5f6116fc8389600301546137cd90919063ffffffff16565b9150915081611740576040517f08c379a000000000000000000000000000000000000000000000000000000000815260040161173790614ebc565b60405180910390fd5b808860030181905550505050505b4384600201819055508360020154867ff5d2d72d9b25d6853afd7d0554a113b705234b6a68bb36b7f1436629946324118460405161178c91906142d6565b60405180910390a3505050505b5050565b5f6117a66137f0565b7f360894a13ba1a3210667c828492db98dca3e2076cc3735a920a3ca505d382bbc5f1b905090565b7f589d473ba17c0f47d494622893831497bad25919b9afb8e33e9521b8963fccde6117f881613143565b60035f9054906101000a900460ff16611846576040517f08c379a000000000000000000000000000000000000000000000000000000000815260040161183d90614f4a565b60405180910390fd5b5f60035f6101000a81548160ff0219169083151502179055507f1c84bcaead48b692cc46b9b12e9a068951a59c99a2e2bf10b00b60b403cf12e260405160405180910390a150565b5f5f611898613877565b9050805f015f9054906101000a900460ff1691505090565b7f589d473ba17c0f47d494622893831497bad25919b9afb8e33e9521b8963fccde6118da81613143565b60035f9054906101000a900460ff1615611929576040517f08c379a000000000000000000000000000000000000000000000000000000000815260040161192090614fb2565b60405180910390fd5b600160035f6101000a81548160ff0219169083151502179055507f8099f593a6aaecd68b6494933cd71f703376ac3975be83692e1b7d800abf683760405160405180910390a150565b7f589d473ba17c0f47d494622893831497bad25919b9afb8e33e9521b8963fccde61199c81613143565b81600360026101000a81548173ffffffffffffffffffffffffffffffffffffffff021916908373ffffffffffffffffffffffffffffffffffffffff160217905550600360029054906101000a900473ffffffffffffffffffffffffffffffffffffffff1673ffffffffffffffffffffffffffffffffffffffff167fafef10ff40345dd21fc1cac02d8ec620a709c9b0983e9c6454d2bef77f077df360405160405180910390a25050565b5f60058054905090505f5f90505b81811015611a7257611a65816114d4565b8080600101915050611a54565b5050565b5f836005805490508110611abf576040517f08c379a0000000000000000000000000000000000000000000000000000000008152600401611ab690614ae5565b60405180910390fd5b5f60058681548110611ad457611ad3614b6b565b5b905f5260205f20906007020190505f60065f8881526020019081526020015f205f8773ffffffffffffffffffffffffffffffffffffffff1673ffffffffffffffffffffffffffffffffffffffff1681526020019081526020015f2090505f826003015490505f83600401549050836002015487118015611b5457505f8114155b15611bb9575f611b68856002015489611c2b565b90505f600454866001015483611b7e9190614d07565b611b889190614d75565b905082670de0b6b3a764000082611b9f9190614d07565b611ba99190614d75565b84611bb49190614bc5565b935050505b82600201548360010154670de0b6b3a764000084865f0154611bdb9190614d07565b611be59190614d75565b611bef9190614c3f565b611bf99190614bc5565b955050505050509392505050565b7f589d473ba17c0f47d494622893831497bad25919b9afb8e33e9521b8963fccde81565b5f81831115611c6f576040517f08c379a0000000000000000000000000000000000000000000000000000000008152600401611c669061501a565b60405180910390fd5b5f54831015611c7d575f5492505b600154821115611c8d5760015491505b81831115611cd0576040517f08c379a0000000000000000000000000000000000000000000000000000000008152600401611cc7906150a8565b60405180910390fd5b5f611cf16002548585611ce39190614c3f565b61379390919063ffffffff16565b809350819250505080611d39576040517f08c379a0000000000000000000000000000000000000000000000000000000008152600401611d3090615110565b60405180910390fd5b5092915050565b7f589d473ba17c0f47d494622893831497bad25919b9afb8e33e9521b8963fccde611d6a81613143565b600360019054906101000a900460ff1615611dba576040517f08c379a0000000000000000000000000000000000000000000000000000000008152600401611db190615178565b60405180910390fd5b6001600360016101000a81548160ff0219169083151502179055507f6d73d6b34c378ab3bf6630206d60b7882801b91d03ee20d016ff0d5054db81e160405160405180910390a150565b5f5f611e0e612f4f565b9050805f015f8581526020019081526020015f205f015f8473ffffffffffffffffffffffffffffffffffffffff1673ffffffffffffffffffffffffffffffffffffffff1681526020019081526020015f205f9054906101000a900460ff1691505092915050565b611e7d612f76565b816005805490508110611ec5576040517f08c379a0000000000000000000000000000000000000000000000000000000008152600401611ebc90614ae5565b60405180910390fd5b60035f9054906101000a900460ff1615611f14576040517f08c379a0000000000000000000000000000000000000000000000000000000008152600401611f0b90614b4d565b60405180910390fd5b5f60058481548110611f2957611f28614b6b565b5b905f5260205f20906007020190505f60065f8681526020019081526020015f205f3373ffffffffffffffffffffffffffffffffffffffff1673ffffffffffffffffffffffffffffffffffffffff1681526020019081526020015f20905083815f01541015611fcc576040517f08c379a0000000000000000000000000000000000000000000000000000000008152600401611fc3906151e0565b60405180910390fd5b611fd5856114d4565b5f8160010154670de0b6b3a76400008460030154845f0154611ff79190614d07565b6120019190614d75565b61200b9190614c3f565b90505f81111561202e578082600201546120259190614bc5565b82600201819055505b5f8511156120af5784825f01546120459190614c3f565b825f01819055508160030160405180604001604052808781526020018560060154436120719190614bc5565b815250908060018154018082558091505060019003905f5260205f2090600202015f909190919091505f820151815f01556020820151816001015550505b8483600401546120bf9190614c3f565b8360040181905550670de0b6b3a76400008360030154835f01546120e39190614d07565b6120ed9190614d75565b8260010181905550853373ffffffffffffffffffffffffffffffffffffffff167fc80277265097707f6f12a4ac4c09d46c9926e2eea2536f63616cb04d9fcad7d68760405161213c91906142d6565b60405180910390a3505050505050565b60025481565b5f5f1b81565b600360019054906101000a900460ff1681565b6040518060400160405280600581526020017f352e302e3000000000000000000000000000000000000000000000000000000081525081565b7f589d473ba17c0f47d494622893831497bad25919b9afb8e33e9521b8963fccde6121ce81613143565b5f600580549050111561224e575f73ffffffffffffffffffffffffffffffffffffffff168673ffffffffffffffffffffffffffffffffffffffff1603612249576040517f08c379a000000000000000000000000000000000000000000000000000000000815260040161224090615248565b60405180910390fd5b6122bd565b5f73ffffffffffffffffffffffffffffffffffffffff168673ffffffffffffffffffffffffffffffffffffffff16146122bc576040517f08c379a00000000000000000000000000000000000000000000000000000000081526004016122b390615248565b60405180910390fd5b5b5f83116122ff576040517f08c379a00000000000000000000000000000000000000000000000000000000081526004016122f6906152b0565b60405180910390fd5b6001544310612343576040517f08c379a000000000000000000000000000000000000000000000000000000000815260040161233a90615318565b60405180910390fd5b811561235257612351611a46565b5b5f5f544311612362575f54612364565b435b9050856004546123749190614bc5565b60048190555060056040518060e001604052808973ffffffffffffffffffffffffffffffffffffffff1681526020018881526020018381526020015f81526020015f815260200187815260200186815250908060018154018082558091505060019003905f5260205f2090600702015f909190919091505f820151815f015f6101000a81548173ffffffffffffffffffffffffffffffffffffffff021916908373ffffffffffffffffffffffffffffffffffffffff1602179055506020820151816001015560408201518160020155606082015181600301556080820151816004015560a0820151816005015560c08201518160060155505080868873ffffffffffffffffffffffffffffffffffffffff167f0fa296fce13e7a0e622b3a892e66220c248337289483a3cfa4130cde0caa134688886040516124b7929190614a74565b60405180910390a450505050505050565b7fcab03bc4dbcc648cd59d6bbe9f848d1e9092f914016aa290ee92e18700d1e6f981565b5f81565b7f589d473ba17c0f47d494622893831497bad25919b9afb8e33e9521b8963fccde61251a81613143565b815f54111561255e576040517f08c379a0000000000000000000000000000000000000000000000000000000008152600401612555906153a6565b60405180910390fd5b81600181905550817f1132c5baccb51da3d049fabc819697dc845fa224ad59d9b555507d6446b4085060405160405180910390a25050565b600360029054906101000a900473ffffffffffffffffffffffffffffffffffffffff1681565b6125c582610bb3565b6125ce81613143565b6125d88383613256565b50505050565b7f589d473ba17c0f47d494622893831497bad25919b9afb8e33e9521b8963fccde61260881613143565b5f821161264a576040517f08c379a00000000000000000000000000000000000000000000000000000000081526004016126419061540e565b60405180910390fd5b81600281905550817fa0b1720fac15ab5b6e184fa4d22f43e0e2594ae0373a61a3fc48aefb84ab92f760405160405180910390a25050565b7f589d473ba17c0f47d494622893831497bad25919b9afb8e33e9521b8963fccde6126ac81613143565b8360058054905081106126f4576040517f08c379a00000000000000000000000000000000000000000000000000000000081526004016126eb90614ae5565b60405180910390fd5b836005868154811061270957612708614b6b565b5b905f5260205f20906007020160050181905550826005868154811061273157612730614b6b565b5b905f5260205f209060070201600601819055508284867f30dffdedaa3e3b4849298233f7cd71d229956e875ab09270498c96b7cf9181fd60405160405180910390a45050505050565b7f589d473ba17c0f47d494622893831497bad25919b9afb8e33e9521b8963fccde6127a481613143565b600360019054906101000a900460ff166127f3576040517f08c379a00000000000000000000000000000000000000000000000000000000081526004016127ea90615476565b60405180910390fd5b5f600360016101000a81548160ff0219169083151502179055507fe72cb12952f056e3e7496019725f20a13108ca420f67f1ee9c9cdab73fb8ce8560405160405180910390a150565b612844612f76565b81600580549050811061288c576040517f08c379a000000000000000000000000000000000000000000000000000000000815260040161288390614ae5565b60405180910390fd5b5f83036128ce576040517f08c379a00000000000000000000000000000000000000000000000000000000081526004016128c5906154de565b60405180910390fd5b5f600584815481106128e3576128e2614b6b565b5b905f5260205f209060070201905080600501548311612937576040517f08c379a000000000000000000000000000000000000000000000000000000000815260040161292e90615546565b60405180910390fd5b5f83111561298f5761298e333085845f015f9054906101000a900473ffffffffffffffffffffffffffffffffffffffff1673ffffffffffffffffffffffffffffffffffffffff1661389e909392919063ffffffff16565b5b6129998484613920565b50505050565b5f8260058054905081106129e8576040517f08c379a00000000000000000000000000000000000000000000000000000000081526004016129df90614ae5565b60405180910390fd5b6129f3848443611a76565b91505092915050565b7f589d473ba17c0f47d494622893831497bad25919b9afb8e33e9521b8963fccde612a2681613143565b600154821115612a6b576040517f08c379a0000000000000000000000000000000000000000000000000000000008152600401612a62906153a6565b60405180910390fd5b815f81905550817f63b90b79f11a0f132bcb2c4a4ddd44abda45c1308a83b2919318df7f5f8b7be460405160405180910390a25050565b612aaa612f76565b5f60055f81548110612abf57612abe614b6b565b5b905f5260205f20906007020190505f73ffffffffffffffffffffffffffffffffffffffff16815f015f9054906101000a900473ffffffffffffffffffffffffffffffffffffffff1673ffffffffffffffffffffffffffffffffffffffff1614612b5d576040517f08c379a0000000000000000000000000000000000000000000000000000000008152600401612b5490615248565b60405180910390fd5b5f3490508160050154811015612ba8576040517f08c379a0000000000000000000000000000000000000000000000000000000008152600401612b9f90615546565b60405180910390fd5b612bb25f82613920565b5050565b7f589d473ba17c0f47d494622893831497bad25919b9afb8e33e9521b8963fccde612be081613143565b836005805490508110612c28576040517f08c379a0000000000000000000000000000000000000000000000000000000008152600401612c1f90614ae5565b60405180910390fd5b5f8411612c6a576040517f08c379a0000000000000000000000000000000000000000000000000000000008152600401612c61906155ae565b60405180910390fd5b8215612c7957612c78611a46565b5b8360058681548110612c8e57612c8d614b6b565b5b905f5260205f20906007020160010154600454612cab9190614c3f565b612cb59190614bc5565b6004819055508360058681548110612cd057612ccf614b6b565b5b905f5260205f2090600702016001018190555083857f4b8fa3d6a87cb21d1bf4978bf60628ae358a28ac7f39de1751a481c6dd957617600454604051612d1691906142d6565b60405180910390a35050505050565b60058181548110612d34575f80fd5b905f5260205f2090600702015f91509050805f015f9054906101000a900473ffffffffffffffffffffffffffffffffffffffff16908060010154908060020154908060030154908060040154908060050154908060060154905087565b5f5f836005805490508110612ddb576040517f08c379a0000000000000000000000000000000000000000000000000000000008152600401612dd290614ae5565b60405180910390fd5b5f60065f8781526020019081526020015f205f8673ffffffffffffffffffffffffffffffffffffffff1673ffffffffffffffffffffffffffffffffffffffff1681526020019081526020015f2090505f5f90505b8160030180549050811015612edc5743826003018281548110612e5557612e54614b6b565b5b905f5260205f2090600202016001015411612e9d57816003018181548110612e8057612e7f614b6b565b5b905f5260205f2090600202015f015484612e9a9190614bc5565b93505b816003018181548110612eb357612eb2614b6b565b5b905f5260205f2090600202015f015485612ecd9190614bc5565b94508080600101915050612e2f565b5050509250929050565b5f7f01ffc9a7000000000000000000000000000000000000000000000000000000007bffffffffffffffffffffffffffffffffffffffffffffffffffffffff1916827bffffffffffffffffffffffffffffffffffffffffffffffffffffffff1916149050919050565b5f7f02dd7bc7dec4dceedda775e58dd541e08a116c6c53815c0bd028192f7b626800905090565b612f7e61188e565b15612fb5576040517fd93c066500000000000000000000000000000000000000000000000000000000815260040160405180910390fd5b565b5f5f8373ffffffffffffffffffffffffffffffffffffffff1683604051612fdd906155f9565b5f6040518083038185875af1925050503d805f8114613017576040519150601f19603f3d011682016040523d82523d5f602084013e61301c565b606091505b509150915081613061576040517f08c379a000000000000000000000000000000000000000000000000000000000815260040161305890615657565b60405180910390fd5b5f815111156130be578080602001905181019061307e9190615689565b6130bd576040517f08c379a00000000000000000000000000000000000000000000000000000000081526004016130b490615724565b60405180910390fd5b5b50505050565b61313e838473ffffffffffffffffffffffffffffffffffffffff1663a9059cbb85856040516024016130f7929190615742565b604051602081830303815290604052915060e01b6020820180517bffffffffffffffffffffffffffffffffffffffffffffffffffffffff8381831617835250505050613d36565b505050565b6131548161314f61324f565b613dd1565b50565b5f5f613161612f4f565b905061316d8484611e04565b613244576001815f015f8681526020019081526020015f205f015f8573ffffffffffffffffffffffffffffffffffffffff1673ffffffffffffffffffffffffffffffffffffffff1681526020019081526020015f205f6101000a81548160ff0219169083151502179055506131e061324f565b73ffffffffffffffffffffffffffffffffffffffff168373ffffffffffffffffffffffffffffffffffffffff16857f2f8788117e7eff1d82e926ec794901d17c78024a50270940304540a733656f0d60405160405180910390a46001915050613249565b5f9150505b92915050565b5f33905090565b5f5f613260612f4f565b905061326c8484611e04565b15613343575f815f015f8681526020019081526020015f205f015f8573ffffffffffffffffffffffffffffffffffffffff1673ffffffffffffffffffffffffffffffffffffffff1681526020019081526020015f205f6101000a81548160ff0219169083151502179055506132df61324f565b73ffffffffffffffffffffffffffffffffffffffff168373ffffffffffffffffffffffffffffffffffffffff16857ff6391f5c32d9c69d2a47ea670b442974b53935d1edc7fd64eb21e047a839171b60405160405180910390a46001915050613348565b5f9150505b92915050565b5f600360029054906101000a900473ffffffffffffffffffffffffffffffffffffffff1673ffffffffffffffffffffffffffffffffffffffff166370a08231306040518263ffffffff1660e01b81526004016133aa9190615769565b602060405180830381865afa1580156133c5573d5f5f3e3d5ffd5b505050506040513d601f19601f820116820180604052508101906133e99190615796565b90508082111561349657600360029054906101000a900473ffffffffffffffffffffffffffffffffffffffff1673ffffffffffffffffffffffffffffffffffffffff1663a9059cbb84836040518363ffffffff1660e01b8152600401613450929190615742565b6020604051808303815f875af115801561346c573d5f5f3e3d5ffd5b505050506040513d601f19601f820116820180604052508101906134909190615689565b50613535565b600360029054906101000a900473ffffffffffffffffffffffffffffffffffffffff1673ffffffffffffffffffffffffffffffffffffffff1663a9059cbb84846040518363ffffffff1660e01b81526004016134f3929190615742565b6020604051808303815f875af115801561350f573d5f5f3e3d5ffd5b505050506040513d601f19601f820116820180604052508101906135339190615689565b505b505050565b5f5f613544613e22565b90508091505090565b613555613e4b565b565b61355f613e4b565b565b7f000000000000000000000000000000000000000000000000000000000000000073ffffffffffffffffffffffffffffffffffffffff163073ffffffffffffffffffffffffffffffffffffffff16148061360e57507f000000000000000000000000000000000000000000000000000000000000000073ffffffffffffffffffffffffffffffffffffffff166135f5613e8b565b73ffffffffffffffffffffffffffffffffffffffff1614155b15613645576040517fe07c8dba00000000000000000000000000000000000000000000000000000000815260040160405180910390fd5b565b7fcab03bc4dbcc648cd59d6bbe9f848d1e9092f914016aa290ee92e18700d1e6f961367181613143565b5050565b8173ffffffffffffffffffffffffffffffffffffffff166352d1902d6040518163ffffffff1660e01b8152600401602060405180830381865afa9250505080156136dd57506040513d601f19601f820116820180604052508101906136da91906157d5565b60015b61371e57816040517f4c9c8ce30000000000000000000000000000000000000000000000000000000081526004016137159190615769565b60405180910390fd5b7f360894a13ba1a3210667c828492db98dca3e2076cc3735a920a3ca505d382bbc5f1b811461378457806040517faa1d49a400000000000000000000000000000000000000000000000000000000815260040161377b919061441e565b60405180910390fd5b61378e8383613ede565b505050565b5f5f5f8385029050841584868304141792506137ae83613f50565b81029150509250929050565b5f5f5f8311915082840490509250929050565b5f5f5f83850190508481101592506137e483613f50565b81029150509250929050565b7f000000000000000000000000000000000000000000000000000000000000000073ffffffffffffffffffffffffffffffffffffffff163073ffffffffffffffffffffffffffffffffffffffff1614613875576040517fe07c8dba00000000000000000000000000000000000000000000000000000000815260040160405180910390fd5b565b5f7fcd5ed15c6e187e77e9aee88184c21f4f2182ab5827cb3b7e07fbedcd63f03300905090565b61391a848573ffffffffffffffffffffffffffffffffffffffff166323b872dd8686866040516024016138d393929190615800565b604051602081830303815290604052915060e01b6020820180517bffffffffffffffffffffffffffffffffffffffffffffffffffffffff8381831617835250505050613d36565b50505050565b5f6005838154811061393557613934614b6b565b5b905f5260205f20906007020190505f60065f8581526020019081526020015f205f3373ffffffffffffffffffffffffffffffffffffffff1673ffffffffffffffffffffffffffffffffffffffff1681526020019081526020015f20905061399b846114d4565b5f815f01541115613b3c575f5f6139c28460030154845f015461379390919063ffffffff16565b9150915081613a06576040517f08c379a00000000000000000000000000000000000000000000000000000000081526004016139fd906158a5565b60405180910390fd5b613a21670de0b6b3a7640000826137ba90919063ffffffff16565b809250819350505081613a69576040517f08c379a0000000000000000000000000000000000000000000000000000000008152600401613a609061590d565b60405180910390fd5b5f5f613a82856001015484613f5b90919063ffffffff16565b9150915081613ac6576040517f08c379a0000000000000000000000000000000000000000000000000000000008152600401613abd9061599b565b60405180910390fd5b5f811115613b37575f5f613ae78388600201546137cd90919063ffffffff16565b9150915081613b2b576040517f08c379a0000000000000000000000000000000000000000000000000000000008152600401613b2290615a03565b60405180910390fd5b80876002018190555050505b505050505b5f831115613bab575f5f613b5c85845f01546137cd90919063ffffffff16565b9150915081613ba0576040517f08c379a0000000000000000000000000000000000000000000000000000000008152600401613b9790615a6b565b60405180910390fd5b80835f018190555050505b5f5f613bc48585600401546137cd90919063ffffffff16565b9150915081613c08576040517f08c379a0000000000000000000000000000000000000000000000000000000008152600401613bff90615ad3565b60405180910390fd5b8084600401819055505f5f613c2d8660030154865f015461379390919063ffffffff16565b9150915081613c71576040517f08c379a0000000000000000000000000000000000000000000000000000000008152600401613c68906158a5565b60405180910390fd5b613c8c670de0b6b3a7640000826137ba90919063ffffffff16565b809250819350505081613cd4576040517f08c379a0000000000000000000000000000000000000000000000000000000008152600401613ccb90615b61565b60405180910390fd5b808560010181905550873373ffffffffffffffffffffffffffffffffffffffff167f90890809c654f11d6e72a28fa60149770a0d11ec6c92319d6ceb2bb0a4ea1a1589604051613d2491906142d6565b60405180910390a35050505050505050565b5f5f60205f8451602086015f885af180613d55576040513d5f823e3d81fd5b3d92505f519150505f8214613d6e576001811415613d89565b5f8473ffffffffffffffffffffffffffffffffffffffff163b145b15613dcb57836040517f5274afe7000000000000000000000000000000000000000000000000000000008152600401613dc29190615769565b60405180910390fd5b50505050565b613ddb8282611e04565b613e1e5780826040517fe2517d3f000000000000000000000000000000000000000000000000000000008152600401613e15929190615b7f565b60405180910390fd5b5050565b5f7ff0c57e16840df040f15088dc2f81fe391c3923bec73e23a9662efc9c229c6a005f1b905090565b613e53613f7e565b613e89576040517fd7e6bcf800000000000000000000000000000000000000000000000000000000815260040160405180910390fd5b565b5f613eb77f360894a13ba1a3210667c828492db98dca3e2076cc3735a920a3ca505d382bbc5f1b613f9c565b5f015f9054906101000a900473ffffffffffffffffffffffffffffffffffffffff16905090565b613ee782613fa5565b8173ffffffffffffffffffffffffffffffffffffffff167fbc7cd75a20ee27fd9adebab32041f755214dbc6bffa90cc0225b39da2e5c2d3b60405160405180910390a25f81511115613f4357613f3d828261406e565b50613f4c565b613f4b6140ee565b5b5050565b5f8115159050919050565b5f5f5f8385039050848111159250613f7283613f50565b81029150509250929050565b5f613f8761353a565b5f0160089054906101000a900460ff16905090565b5f819050919050565b5f8173ffffffffffffffffffffffffffffffffffffffff163b0361400057806040517f4c9c8ce3000000000000000000000000000000000000000000000000000000008152600401613ff79190615769565b60405180910390fd5b8061402c7f360894a13ba1a3210667c828492db98dca3e2076cc3735a920a3ca505d382bbc5f1b613f9c565b5f015f6101000a81548173ffffffffffffffffffffffffffffffffffffffff021916908373ffffffffffffffffffffffffffffffffffffffff16021790555050565b60605f5f8473ffffffffffffffffffffffffffffffffffffffff16846040516140979190615be0565b5f60405180830381855af49150503d805f81146140cf576040519150601f19603f3d011682016040523d82523d5f602084013e6140d4565b606091505b50915091506140e485838361412a565b9250505092915050565b5f341115614128576040517fb398979f00000000000000000000000000000000000000000000000000000000815260040160405180910390fd5b565b60608261413f5761413a826141b7565b6141af565b5f825114801561416557505f8473ffffffffffffffffffffffffffffffffffffffff163b145b156141a757836040517f9996b31500000000000000000000000000000000000000000000000000000000815260040161419e9190615769565b60405180910390fd5b8190506141b0565b5b9392505050565b5f815111156141c857805160208201fd5b6040517fd6bda27500000000000000000000000000000000000000000000000000000000815260040160405180910390fd5b5f604051905090565b5f5ffd5b5f5ffd5b5f7fffffffff0000000000000000000000000000000000000000000000000000000082169050919050565b61423f8161420b565b8114614249575f5ffd5b50565b5f8135905061425a81614236565b92915050565b5f6020828403121561427557614274614203565b5b5f6142828482850161424c565b91505092915050565b5f8115159050919050565b61429f8161428b565b82525050565b5f6020820190506142b85f830184614296565b92915050565b5f819050919050565b6142d0816142be565b82525050565b5f6020820190506142e95f8301846142c7565b92915050565b6142f8816142be565b8114614302575f5ffd5b50565b5f81359050614313816142ef565b92915050565b5f73ffffffffffffffffffffffffffffffffffffffff82169050919050565b5f61434282614319565b9050919050565b61435281614338565b811461435c575f5ffd5b50565b5f8135905061436d81614349565b92915050565b5f5f6040838503121561438957614388614203565b5b5f61439685828601614305565b92505060206143a78582860161435f565b9150509250929050565b5f819050919050565b6143c3816143b1565b81146143cd575f5ffd5b50565b5f813590506143de816143ba565b92915050565b5f602082840312156143f9576143f8614203565b5b5f614406848285016143d0565b91505092915050565b614418816143b1565b82525050565b5f6020820190506144315f83018461440f565b92915050565b5f6020828403121561444c5761444b614203565b5b5f61445984828501614305565b91505092915050565b5f5f6040838503121561447857614477614203565b5b5f614485858286016143d0565b92505060206144968582860161435f565b9150509250929050565b5f6060820190506144b35f8301866142c7565b6144c060208301856142c7565b6144cd60408301846142c7565b949350505050565b5f6144df82614338565b9050919050565b6144ef816144d5565b81146144f9575f5ffd5b50565b5f8135905061450a816144e6565b92915050565b5f5f5f5f6080858703121561452857614527614203565b5b5f614535878288016144fc565b945050602061454687828801614305565b935050604061455787828801614305565b925050606061456887828801614305565b91505092959194509250565b5f5ffd5b5f5ffd5b5f601f19601f8301169050919050565b7f4e487b71000000000000000000000000000000000000000000000000000000005f52604160045260245ffd5b6145c28261457c565b810181811067ffffffffffffffff821117156145e1576145e061458c565b5b80604052505050565b5f6145f36141fa565b90506145ff82826145b9565b919050565b5f67ffffffffffffffff82111561461e5761461d61458c565b5b6146278261457c565b9050602081019050919050565b828183375f83830152505050565b5f61465461464f84614604565b6145ea565b9050828152602081018484840111156146705761466f614578565b5b61467b848285614634565b509392505050565b5f82601f83011261469757614696614574565b5b81356146a7848260208601614642565b91505092915050565b5f5f604083850312156146c6576146c5614203565b5b5f6146d38582860161435f565b925050602083013567ffffffffffffffff8111156146f4576146f3614207565b5b61470085828601614683565b9150509250929050565b5f6020828403121561471f5761471e614203565b5b5f61472c848285016144fc565b91505092915050565b5f5f5f6060848603121561474c5761474b614203565b5b5f61475986828701614305565b935050602061476a8682870161435f565b925050604061477b86828701614305565b9150509250925092565b5f5f6040838503121561479b5761479a614203565b5b5f6147a885828601614305565b92505060206147b985828601614305565b9150509250929050565b5f81519050919050565b5f82825260208201905092915050565b8281835e5f83830152505050565b5f6147f5826147c3565b6147ff81856147cd565b935061480f8185602086016147dd565b6148188161457c565b840191505092915050565b5f6020820190508181035f83015261483b81846147eb565b905092915050565b61484c8161428b565b8114614856575f5ffd5b50565b5f8135905061486781614843565b92915050565b5f5f5f5f5f60a0868803121561488657614885614203565b5b5f6148938882890161435f565b95505060206148a488828901614305565b94505060406148b588828901614305565b93505060606148c688828901614305565b92505060806148d788828901614859565b9150509295509295909350565b5f819050919050565b5f6149076149026148fd84614319565b6148e4565b614319565b9050919050565b5f614918826148ed565b9050919050565b5f6149298261490e565b9050919050565b6149398161491f565b82525050565b5f6020820190506149525f830184614930565b92915050565b5f5f5f6060848603121561496f5761496e614203565b5b5f61497c86828701614305565b935050602061498d86828701614305565b925050604061499e86828701614305565b9150509250925092565b5f5f5f606084860312156149bf576149be614203565b5b5f6149cc86828701614305565b93505060206149dd86828701614305565b92505060406149ee86828701614859565b9150509250925092565b614a0181614338565b82525050565b5f60e082019050614a1a5f83018a6149f8565b614a2760208301896142c7565b614a3460408301886142c7565b614a4160608301876142c7565b614a4e60808301866142c7565b614a5b60a08301856142c7565b614a6860c08301846142c7565b98975050505050505050565b5f604082019050614a875f8301856142c7565b614a9460208301846142c7565b9392505050565b7f696e76616c6964207069640000000000000000000000000000000000000000005f82015250565b5f614acf600b836147cd565b9150614ada82614a9b565b602082019050919050565b5f6020820190508181035f830152614afc81614ac3565b9050919050565b7f77697468647261772069732070617573656400000000000000000000000000005f82015250565b5f614b376012836147cd565b9150614b4282614b03565b602082019050919050565b5f6020820190508181035f830152614b6481614b2b565b9050919050565b7f4e487b71000000000000000000000000000000000000000000000000000000005f52603260045260245ffd5b7f4e487b71000000000000000000000000000000000000000000000000000000005f52601160045260245ffd5b5f614bcf826142be565b9150614bda836142be565b9250828201905080821115614bf257614bf1614b98565b5b92915050565b5f614c02826142be565b91507fffffffffffffffffffffffffffffffffffffffffffffffffffffffffffffffff8203614c3457614c33614b98565b5b600182019050919050565b5f614c49826142be565b9150614c54836142be565b9250828203905081811115614c6c57614c6b614b98565b5b92915050565b7f4e487b71000000000000000000000000000000000000000000000000000000005f52603160045260245ffd5b7f636c61696d2069732070617573656400000000000000000000000000000000005f82015250565b5f614cd3600f836147cd565b9150614cde82614c9f565b602082019050919050565b5f6020820190508181035f830152614d0081614cc7565b9050919050565b5f614d11826142be565b9150614d1c836142be565b9250828202614d2a816142be565b91508282048414831517614d4157614d40614b98565b5b5092915050565b7f4e487b71000000000000000000000000000000000000000000000000000000005f52601260045260245ffd5b5f614d7f826142be565b9150614d8a836142be565b925082614d9a57614d99614d48565b5b828204905092915050565b7f696e76616c696420706172616d657465727300000000000000000000000000005f82015250565b5f614dd96012836147cd565b9150614de482614da5565b602082019050919050565b5f6020820190508181035f830152614e0681614dcd565b9050919050565b5f819050919050565b5f67ffffffffffffffff82169050919050565b5f614e43614e3e614e3984614e0d565b6148e4565b614e16565b9050919050565b614e5381614e29565b82525050565b5f602082019050614e6c5f830184614e4a565b92915050565b7f6f766572666c6f770000000000000000000000000000000000000000000000005f82015250565b5f614ea66008836147cd565b9150614eb182614e72565b602082019050919050565b5f6020820190508181035f830152614ed381614e9a565b9050919050565b7f776974686472617720686173206265656e20616c726561647920756e706175735f8201527f6564000000000000000000000000000000000000000000000000000000000000602082015250565b5f614f346022836147cd565b9150614f3f82614eda565b604082019050919050565b5f6020820190508181035f830152614f6181614f28565b9050919050565b7f776974686472617720686173206265656e20616c7265616479207061757365645f82015250565b5f614f9c6020836147cd565b9150614fa782614f68565b602082019050919050565b5f6020820190508181035f830152614fc981614f90565b9050919050565b7f696e76616c696420626c6f636b000000000000000000000000000000000000005f82015250565b5f615004600d836147cd565b915061500f82614fd0565b602082019050919050565b5f6020820190508181035f83015261503181614ff8565b9050919050565b7f656e6420626c6f636b206d7573742062652067726561746572207468616e20735f8201527f7461727420626c6f636b00000000000000000000000000000000000000000000602082015250565b5f615092602a836147cd565b915061509d82615038565b604082019050919050565b5f6020820190508181035f8301526150bf81615086565b9050919050565b7f6d756c7469706c696572206f766572666c6f77000000000000000000000000005f82015250565b5f6150fa6013836147cd565b9150615105826150c6565b602082019050919050565b5f6020820190508181035f830152615127816150ee565b9050919050565b7f636c61696d20686173206265656e20616c7265616479207061757365640000005f82015250565b5f615162601d836147cd565b915061516d8261512e565b602082019050919050565b5f6020820190508181035f83015261518f81615156565b9050919050565b7f4e6f7420656e6f756768207374616b696e6720746f6b656e2062616c616e63655f82015250565b5f6151ca6020836147cd565b91506151d582615196565b602082019050919050565b5f6020820190508181035f8301526151f7816151be565b9050919050565b7f696e76616c6964207374616b696e6720746f6b656e20616464726573730000005f82015250565b5f615232601d836147cd565b915061523d826151fe565b602082019050919050565b5f6020820190508181035f83015261525f81615226565b9050919050565b7f696e76616c6964207769746864726177206c6f636b656420626c6f636b7300005f82015250565b5f61529a601e836147cd565b91506152a582615266565b602082019050919050565b5f6020820190508181035f8301526152c78161528e565b9050919050565b7f416c726561647920656e646564000000000000000000000000000000000000005f82015250565b5f615302600d836147cd565b915061530d826152ce565b602082019050919050565b5f6020820190508181035f83015261532f816152f6565b9050919050565b7f737461727420626c6f636b206d75737420626520736d616c6c6572207468616e5f8201527f20656e6420626c6f636b00000000000000000000000000000000000000000000602082015250565b5f615390602a836147cd565b915061539b82615336565b604082019050919050565b5f6020820190508181035f8301526153bd81615384565b9050919050565b7f696e76616c696420706172616d657465720000000000000000000000000000005f82015250565b5f6153f86011836147cd565b9150615403826153c4565b602082019050919050565b5f6020820190508181035f830152615425816153ec565b9050919050565b7f636c61696d20686173206265656e20616c726561647920756e706175736564005f82015250565b5f615460601f836147cd565b915061546b8261542c565b602082019050919050565b5f6020820190508181035f83015261548d81615454565b9050919050565b7f6465706f736974206e6f7420737570706f727420455448207374616b696e67005f82015250565b5f6154c8601f836147cd565b91506154d382615494565b602082019050919050565b5f6020820190508181035f8301526154f5816154bc565b9050919050565b7f6465706f73697420616d6f756e7420697320746f6f20736d616c6c00000000005f82015250565b5f615530601b836147cd565b915061553b826154fc565b602082019050919050565b5f6020820190508181035f83015261555d81615524565b9050919050565b7f696e76616c696420706f6f6c20776569676874000000000000000000000000005f82015250565b5f6155986013836147cd565b91506155a382615564565b602082019050919050565b5f6020820190508181035f8301526155c58161558c565b9050919050565b5f81905092915050565b50565b5f6155e45f836155cc565b91506155ef826155d6565b5f82019050919050565b5f615603826155d9565b9150819050919050565b7f455448207472616e736665722063616c6c206661696c656400000000000000005f82015250565b5f6156416018836147cd565b915061564c8261560d565b602082019050919050565b5f6020820190508181035f83015261566e81615635565b9050919050565b5f8151905061568381614843565b92915050565b5f6020828403121561569e5761569d614203565b5b5f6156ab84828501615675565b91505092915050565b7f455448207472616e73666572206f7065726174696f6e20646964206e6f7420735f8201527f7563636565640000000000000000000000000000000000000000000000000000602082015250565b5f61570e6026836147cd565b9150615719826156b4565b604082019050919050565b5f6020820190508181035f83015261573b81615702565b9050919050565b5f6040820190506157555f8301856149f8565b61576260208301846142c7565b9392505050565b5f60208201905061577c5f8301846149f8565b92915050565b5f81519050615790816142ef565b92915050565b5f602082840312156157ab576157aa614203565b5b5f6157b884828501615782565b91505092915050565b5f815190506157cf816143ba565b92915050565b5f602082840312156157ea576157e9614203565b5b5f6157f7848285016157c1565b91505092915050565b5f6060820190506158135f8301866149f8565b61582060208301856149f8565b61582d60408301846142c7565b949350505050565b7f75736572207374416d6f756e74206d756c206163634d6574614e6f64655065725f8201527f5354206f766572666c6f77000000000000000000000000000000000000000000602082015250565b5f61588f602b836147cd565b915061589a82615835565b604082019050919050565b5f6020820190508181035f8301526158bc81615883565b9050919050565b7f6163635354206469762031206574686572206f766572666c6f770000000000005f82015250565b5f6158f7601a836147cd565b9150615902826158c3565b602082019050919050565b5f6020820190508181035f830152615924816158eb565b9050919050565b7f6163635354207375622066696e69736865644d6574614e6f6465206f766572665f8201527f6c6f770000000000000000000000000000000000000000000000000000000000602082015250565b5f6159856023836147cd565b91506159908261592b565b604082019050919050565b5f6020820190508181035f8301526159b281615979565b9050919050565b7f757365722070656e64696e674d6574614e6f6465206f766572666c6f770000005f82015250565b5f6159ed601d836147cd565b91506159f8826159b9565b602082019050919050565b5f6020820190508181035f830152615a1a816159e1565b9050919050565b7f75736572207374416d6f756e74206f766572666c6f77000000000000000000005f82015250565b5f615a556016836147cd565b9150615a6082615a21565b602082019050919050565b5f6020820190508181035f830152615a8281615a49565b9050919050565b7f706f6f6c207374546f6b656e416d6f756e74206f766572666c6f7700000000005f82015250565b5f615abd601b836147cd565b9150615ac882615a89565b602082019050919050565b5f6020820190508181035f830152615aea81615ab1565b9050919050565b7f66696e69736865644d6574614e6f6465206469762031206574686572206f76655f8201527f72666c6f77000000000000000000000000000000000000000000000000000000602082015250565b5f615b4b6025836147cd565b9150615b5682615af1565b604082019050919050565b5f6020820190508181035f830152615b7881615b3f565b9050919050565b5f604082019050615b925f8301856149f8565b615b9f602083018461440f565b9392505050565b5f81519050919050565b5f615bba82615ba6565b615bc481856155cc565b9350615bd48185602086016147dd565b80840191505092915050565b5f615beb8284615bb0565b91508190509291505056fea2646970667358221220e7d47270162e9cc092d031d61d4ca4bf83acfb41f71a951c5595eca17eac980f64736f6c634300081e0033",
			"opcodes": "PUSH1 0xA0 PUSH1 0x40 MSTORE ADDRESS PUSH20 0xFFFFFFFFFFFFFFFFFFFFFFFFFFFFFFFFFFFFFFFF AND PUSH1 0x80 SWAP1 PUSH20 0xFFFFFFFFFFFFFFFFFFFFFFFFFFFFFFFFFFFFFFFF AND DUP2 MSTORE POP CALLVALUE DUP1 ISZERO PUSH1 0x41 JUMPI PUSH0 PUSH0 REVERT JUMPDEST POP PUSH1 0x80 MLOAD PUSH2 0x5C2C PUSH2 0x68 PUSH0 CODECOPY PUSH0 DUP2 DUP2 PUSH2 0x3563 ADD MSTORE DUP2 DUP2 PUSH2 0x35B8 ADD MSTORE PUSH2 0x37F2 ADD MSTORE PUSH2 0x5C2C PUSH0 RETURN INVALID PUSH1 0x80 PUSH1 0x40 MSTORE PUSH1 0x4 CALLDATASIZE LT PUSH2 0x292 JUMPI PUSH0 CALLDATALOAD PUSH1 0xE0 SHR DUP1 PUSH4 0x8DBB1E3A GT PUSH2 0x159 JUMPI DUP1 PUSH4 0xD22F1D80 GT PUSH2 0xC0 JUMPI DUP1 PUSH4 0xEA5C219D GT PUSH2 0x79 JUMPI DUP1 PUSH4 0xEA5C219D EQ PUSH2 0x96C JUMPI DUP1 PUSH4 0xF35E4A6E EQ PUSH2 0x9A8 JUMPI DUP1 PUSH4 0xF6326FB3 EQ PUSH2 0x9D0 JUMPI DUP1 PUSH4 0xFAD07ECE EQ PUSH2 0x9DA JUMPI DUP1 PUSH4 0xFE313112 EQ PUSH2 0xA02 JUMPI DUP1 PUSH4 0xFF423357 EQ PUSH2 0xA44 JUMPI PUSH2 0x292 JUMP JUMPDEST DUP1 PUSH4 0xD22F1D80 EQ PUSH2 0x88C JUMPI DUP1 PUSH4 0xD547741F EQ PUSH2 0x8B6 JUMPI DUP1 PUSH4 0xD7BC1769 EQ PUSH2 0x8DE JUMPI DUP1 PUSH4 0xD86C0444 EQ PUSH2 0x906 JUMPI DUP1 PUSH4 0xDE065CAA EQ PUSH2 0x92E JUMPI DUP1 PUSH4 0xE2BBB158 EQ PUSH2 0x944 JUMPI PUSH2 0x292 JUMP JUMPDEST DUP1 PUSH4 0xAB5E124A GT PUSH2 0x112 JUMPI DUP1 PUSH4 0xAB5E124A EQ PUSH2 0x794 JUMPI DUP1 PUSH4 0xAD3CB1CC EQ PUSH2 0x7BE JUMPI DUP1 PUSH4 0xB6D9D919 EQ PUSH2 0x7E8 JUMPI DUP1 PUSH4 0xB908AFA8 EQ PUSH2 0x810 JUMPI DUP1 PUSH4 0xBFC3EBBA EQ PUSH2 0x83A JUMPI DUP1 PUSH4 0xC713AA94 EQ PUSH2 0x864 JUMPI PUSH2 0x292 JUMP JUMPDEST DUP1 PUSH4 0x8DBB1E3A EQ PUSH2 0x68A JUMPI DUP1 PUSH4 0x8FF095F9 EQ PUSH2 0x6C6 JUMPI DUP1 PUSH4 0x91D14854 EQ PUSH2 0x6DC JUMPI DUP1 PUSH4 0x9E2C8A5B EQ PUSH2 0x718 JUMPI DUP1 PUSH4 0x9EA96E66 EQ PUSH2 0x740 JUMPI DUP1 PUSH4 0xA217FDDF EQ PUSH2 0x76A JUMPI PUSH2 0x292 JUMP JUMPDEST DUP1 PUSH4 0x48CD4CB1 GT PUSH2 0x1FD JUMPI DUP1 PUSH4 0x5C975ABB GT PUSH2 0x1B6 JUMPI DUP1 PUSH4 0x5C975ABB EQ PUSH2 0x5A6 JUMPI DUP1 PUSH4 0x6155E3DE EQ PUSH2 0x5D0 JUMPI DUP1 PUSH4 0x61A9A03D EQ PUSH2 0x5E6 JUMPI DUP1 PUSH4 0x630B5BA1 EQ PUSH2 0x60E JUMPI DUP1 PUSH4 0x6325D5BC EQ PUSH2 0x624 JUMPI DUP1 PUSH4 0x75B238FC EQ PUSH2 0x660 JUMPI PUSH2 0x292 JUMP JUMPDEST DUP1 PUSH4 0x48CD4CB1 EQ PUSH2 0x4D0 JUMPI DUP1 PUSH4 0x4EC81AF1 EQ PUSH2 0x4FA JUMPI DUP1 PUSH4 0x4F1EF286 EQ PUSH2 0x522 JUMPI DUP1 PUSH4 0x51EB05A6 EQ PUSH2 0x53E JUMPI DUP1 PUSH4 0x52D1902D EQ PUSH2 0x566 JUMPI DUP1 PUSH4 0x5BB6D007 EQ PUSH2 0x590 JUMPI PUSH2 0x292 JUMP JUMPDEST DUP1 PUSH4 0x2E1A7D4D GT PUSH2 0x24F JUMPI DUP1 PUSH4 0x2E1A7D4D EQ PUSH2 0x3C8 JUMPI DUP1 PUSH4 0x2F2FF15D EQ PUSH2 0x3F0 JUMPI DUP1 PUSH4 0x2F3FFB9F EQ PUSH2 0x418 JUMPI DUP1 PUSH4 0x36568ABE EQ PUSH2 0x442 JUMPI DUP1 PUSH4 0x37849B3C EQ PUSH2 0x46A JUMPI DUP1 PUSH4 0x379607F5 EQ PUSH2 0x4A8 JUMPI PUSH2 0x292 JUMP JUMPDEST DUP1 PUSH4 0x1FFC9A7 EQ PUSH2 0x296 JUMPI DUP1 PUSH4 0x2559004 EQ PUSH2 0x2D2 JUMPI DUP1 PUSH4 0x81E3EDA EQ PUSH2 0x2FC JUMPI DUP1 PUSH4 0x83C6323 EQ PUSH2 0x326 JUMPI DUP1 PUSH4 0x11548234 EQ PUSH2 0x350 JUMPI DUP1 PUSH4 0x248A9CA3 EQ PUSH2 0x38C JUMPI JUMPDEST PUSH0 PUSH0 REVERT JUMPDEST CALLVALUE DUP1 ISZERO PUSH2 0x2A1 JUMPI PUSH0 PUSH0 REVERT JUMPDEST POP PUSH2 0x2BC PUSH1 0x4 DUP1 CALLDATASIZE SUB DUP2 ADD SWAP1 PUSH2 0x2B7 SWAP2 SWAP1 PUSH2 0x4260 JUMP JUMPDEST PUSH2 0xA81 JUMP JUMPDEST PUSH1 0x40 MLOAD PUSH2 0x2C9 SWAP2 SWAP1 PUSH2 0x42A5 JUMP JUMPDEST PUSH1 0x40 MLOAD DUP1 SWAP2 SUB SWAP1 RETURN JUMPDEST CALLVALUE DUP1 ISZERO PUSH2 0x2DD JUMPI PUSH0 PUSH0 REVERT JUMPDEST POP PUSH2 0x2E6 PUSH2 0xAFA JUMP JUMPDEST PUSH1 0x40 MLOAD PUSH2 0x2F3 SWAP2 SWAP1 PUSH2 0x42D6 JUMP JUMPDEST PUSH1 0x40 MLOAD DUP1 SWAP2 SUB SWAP1 RETURN JUMPDEST CALLVALUE DUP1 ISZERO PUSH2 0x307 JUMPI PUSH0 PUSH0 REVERT JUMPDEST POP PUSH2 0x310 PUSH2 0xB00 JUMP JUMPDEST PUSH1 0x40 MLOAD PUSH2 0x31D SWAP2 SWAP1 PUSH2 0x42D6 JUMP JUMPDEST PUSH1 0x40 MLOAD DUP1 SWAP2 SUB SWAP1 RETURN JUMPDEST CALLVALUE DUP1 ISZERO PUSH2 0x331 JUMPI PUSH0 PUSH0 REVERT JUMPDEST POP PUSH2 0x33A PUSH2 0xB0C JUMP JUMPDEST PUSH1 0x40 MLOAD PUSH2 0x347 SWAP2 SWAP1 PUSH2 0x42D6 JUMP JUMPDEST PUSH1 0x40 MLOAD DUP1 SWAP2 SUB SWAP1 RETURN JUMPDEST CALLVALUE DUP1 ISZERO PUSH2 0x35B JUMPI PUSH0 PUSH0 REVERT JUMPDEST POP PUSH2 0x376 PUSH1 0x4 DUP1 CALLDATASIZE SUB DUP2 ADD SWAP1 PUSH2 0x371 SWAP2 SWAP1 PUSH2 0x4373 JUMP JUMPDEST PUSH2 0xB12 JUMP JUMPDEST PUSH1 0x40 MLOAD PUSH2 0x383 SWAP2 SWAP1 PUSH2 0x42D6 JUMP JUMPDEST PUSH1 0x40 MLOAD DUP1 SWAP2 SUB SWAP1 RETURN JUMPDEST CALLVALUE DUP1 ISZERO PUSH2 0x397 JUMPI PUSH0 PUSH0 REVERT JUMPDEST POP PUSH2 0x3B2 PUSH1 0x4 DUP1 CALLDATASIZE SUB DUP2 ADD SWAP1 PUSH2 0x3AD SWAP2 SWAP1 PUSH2 0x43E4 JUMP JUMPDEST PUSH2 0xBB3 JUMP JUMPDEST PUSH1 0x40 MLOAD PUSH2 0x3BF SWAP2 SWAP1 PUSH2 0x441E JUMP JUMPDEST PUSH1 0x40 MLOAD DUP1 SWAP2 SUB SWAP1 RETURN JUMPDEST CALLVALUE DUP1 ISZERO PUSH2 0x3D3 JUMPI PUSH0 PUSH0 REVERT JUMPDEST POP PUSH2 0x3EE PUSH1 0x4 DUP1 CALLDATASIZE SUB DUP2 ADD SWAP1 PUSH2 0x3E9 SWAP2 SWAP1 PUSH2 0x4437 JUMP JUMPDEST PUSH2 0xBDD JUMP JUMPDEST STOP JUMPDEST CALLVALUE DUP1 ISZERO PUSH2 0x3FB JUMPI PUSH0 PUSH0 REVERT JUMPDEST POP PUSH2 0x416 PUSH1 0x4 DUP1 CALLDATASIZE SUB DUP2 ADD SWAP1 PUSH2 0x411 SWAP2 SWAP1 PUSH2 0x4462 JUMP JUMPDEST PUSH2 0xF75 JUMP JUMPDEST STOP JUMPDEST CALLVALUE DUP1 ISZERO PUSH2 0x423 JUMPI PUSH0 PUSH0 REVERT JUMPDEST POP PUSH2 0x42C PUSH2 0xF97 JUMP JUMPDEST PUSH1 0x40 MLOAD PUSH2 0x439 SWAP2 SWAP1 PUSH2 0x42A5 JUMP JUMPDEST PUSH1 0x40 MLOAD DUP1 SWAP2 SUB SWAP1 RETURN JUMPDEST CALLVALUE DUP1 ISZERO PUSH2 0x44D JUMPI PUSH0 PUSH0 REVERT JUMPDEST POP PUSH2 0x468 PUSH1 0x4 DUP1 CALLDATASIZE SUB DUP2 ADD SWAP1 PUSH2 0x463 SWAP2 SWAP1 PUSH2 0x4462 JUMP JUMPDEST PUSH2 0xFA9 JUMP JUMPDEST STOP JUMPDEST CALLVALUE DUP1 ISZERO PUSH2 0x475 JUMPI PUSH0 PUSH0 REVERT JUMPDEST POP PUSH2 0x490 PUSH1 0x4 DUP1 CALLDATASIZE SUB DUP2 ADD SWAP1 PUSH2 0x48B SWAP2 SWAP1 PUSH2 0x4373 JUMP JUMPDEST PUSH2 0x1024 JUMP JUMPDEST PUSH1 0x40 MLOAD PUSH2 0x49F SWAP4 SWAP3 SWAP2 SWAP1 PUSH2 0x44A0 JUMP JUMPDEST PUSH1 0x40 MLOAD DUP1 SWAP2 SUB SWAP1 RETURN JUMPDEST CALLVALUE DUP1 ISZERO PUSH2 0x4B3 JUMPI PUSH0 PUSH0 REVERT JUMPDEST POP PUSH2 0x4CE PUSH1 0x4 DUP1 CALLDATASIZE SUB DUP2 ADD SWAP1 PUSH2 0x4C9 SWAP2 SWAP1 PUSH2 0x4437 JUMP JUMPDEST PUSH2 0x1055 JUMP JUMPDEST STOP JUMPDEST CALLVALUE DUP1 ISZERO PUSH2 0x4DB JUMPI PUSH0 PUSH0 REVERT JUMPDEST POP PUSH2 0x4E4 PUSH2 0x1257 JUMP JUMPDEST PUSH1 0x40 MLOAD PUSH2 0x4F1 SWAP2 SWAP1 PUSH2 0x42D6 JUMP JUMPDEST PUSH1 0x40 MLOAD DUP1 SWAP2 SUB SWAP1 RETURN JUMPDEST CALLVALUE DUP1 ISZERO PUSH2 0x505 JUMPI PUSH0 PUSH0 REVERT JUMPDEST POP PUSH2 0x520 PUSH1 0x4 DUP1 CALLDATASIZE SUB DUP2 ADD SWAP1 PUSH2 0x51B SWAP2 SWAP1 PUSH2 0x4510 JUMP JUMPDEST PUSH2 0x125C JUMP JUMPDEST STOP JUMPDEST PUSH2 0x53C PUSH1 0x4 DUP1 CALLDATASIZE SUB DUP2 ADD SWAP1 PUSH2 0x537 SWAP2 SWAP1 PUSH2 0x46B0 JUMP JUMPDEST PUSH2 0x14B5 JUMP JUMPDEST STOP JUMPDEST CALLVALUE DUP1 ISZERO PUSH2 0x549 JUMPI PUSH0 PUSH0 REVERT JUMPDEST POP PUSH2 0x564 PUSH1 0x4 DUP1 CALLDATASIZE SUB DUP2 ADD SWAP1 PUSH2 0x55F SWAP2 SWAP1 PUSH2 0x4437 JUMP JUMPDEST PUSH2 0x14D4 JUMP JUMPDEST STOP JUMPDEST CALLVALUE DUP1 ISZERO PUSH2 0x571 JUMPI PUSH0 PUSH0 REVERT JUMPDEST POP PUSH2 0x57A PUSH2 0x179D JUMP JUMPDEST PUSH1 0x40 MLOAD PUSH2 0x587 SWAP2 SWAP1 PUSH2 0x441E JUMP JUMPDEST PUSH1 0x40 MLOAD DUP1 SWAP2 SUB SWAP1 RETURN JUMPDEST CALLVALUE DUP1 ISZERO PUSH2 0x59B JUMPI PUSH0 PUSH0 REVERT JUMPDEST POP PUSH2 0x5A4 PUSH2 0x17CE JUMP JUMPDEST STOP JUMPDEST CALLVALUE DUP1 ISZERO PUSH2 0x5B1 JUMPI PUSH0 PUSH0 REVERT JUMPDEST POP PUSH2 0x5BA PUSH2 0x188E JUMP JUMPDEST PUSH1 0x40 MLOAD PUSH2 0x5C7 SWAP2 SWAP1 PUSH2 0x42A5 JUMP JUMPDEST PUSH1 0x40 MLOAD DUP1 SWAP2 SUB SWAP1 RETURN JUMPDEST CALLVALUE DUP1 ISZERO PUSH2 0x5DB JUMPI PUSH0 PUSH0 REVERT JUMPDEST POP PUSH2 0x5E4 PUSH2 0x18B0 JUMP JUMPDEST STOP JUMPDEST CALLVALUE DUP1 ISZERO PUSH2 0x5F1 JUMPI PUSH0 PUSH0 REVERT JUMPDEST POP PUSH2 0x60C PUSH1 0x4 DUP1 CALLDATASIZE SUB DUP2 ADD SWAP1 PUSH2 0x607 SWAP2 SWAP1 PUSH2 0x470A JUMP JUMPDEST PUSH2 0x1972 JUMP JUMPDEST STOP JUMPDEST CALLVALUE DUP1 ISZERO PUSH2 0x619 JUMPI PUSH0 PUSH0 REVERT JUMPDEST POP PUSH2 0x622 PUSH2 0x1A46 JUMP JUMPDEST STOP JUMPDEST CALLVALUE DUP1 ISZERO PUSH2 0x62F JUMPI PUSH0 PUSH0 REVERT JUMPDEST POP PUSH2 0x64A PUSH1 0x4 DUP1 CALLDATASIZE SUB DUP2 ADD SWAP1 PUSH2 0x645 SWAP2 SWAP1 PUSH2 0x4735 JUMP JUMPDEST PUSH2 0x1A76 JUMP JUMPDEST PUSH1 0x40 MLOAD PUSH2 0x657 SWAP2 SWAP1 PUSH2 0x42D6 JUMP JUMPDEST PUSH1 0x40 MLOAD DUP1 SWAP2 SUB SWAP1 RETURN JUMPDEST CALLVALUE DUP1 ISZERO PUSH2 0x66B JUMPI PUSH0 PUSH0 REVERT JUMPDEST POP PUSH2 0x674 PUSH2 0x1C07 JUMP JUMPDEST PUSH1 0x40 MLOAD PUSH2 0x681 SWAP2 SWAP1 PUSH2 0x441E JUMP JUMPDEST PUSH1 0x40 MLOAD DUP1 SWAP2 SUB SWAP1 RETURN JUMPDEST CALLVALUE DUP1 ISZERO PUSH2 0x695 JUMPI PUSH0 PUSH0 REVERT JUMPDEST POP PUSH2 0x6B0 PUSH1 0x4 DUP1 CALLDATASIZE SUB DUP2 ADD SWAP1 PUSH2 0x6AB SWAP2 SWAP1 PUSH2 0x4785 JUMP JUMPDEST PUSH2 0x1C2B JUMP JUMPDEST PUSH1 0x40 MLOAD PUSH2 0x6BD SWAP2 SWAP1 PUSH2 0x42D6 JUMP JUMPDEST PUSH1 0x40 MLOAD DUP1 SWAP2 SUB SWAP1 RETURN JUMPDEST CALLVALUE DUP1 ISZERO PUSH2 0x6D1 JUMPI PUSH0 PUSH0 REVERT JUMPDEST POP PUSH2 0x6DA PUSH2 0x1D40 JUMP JUMPDEST STOP JUMPDEST CALLVALUE DUP1 ISZERO PUSH2 0x6E7 JUMPI PUSH0 PUSH0 REVERT JUMPDEST POP PUSH2 0x702 PUSH1 0x4 DUP1 CALLDATASIZE SUB DUP2 ADD SWAP1 PUSH2 0x6FD SWAP2 SWAP1 PUSH2 0x4462 JUMP JUMPDEST PUSH2 0x1E04 JUMP JUMPDEST PUSH1 0x40 MLOAD PUSH2 0x70F SWAP2 SWAP1 PUSH2 0x42A5 JUMP JUMPDEST PUSH1 0x40 MLOAD DUP1 SWAP2 SUB SWAP1 RETURN JUMPDEST CALLVALUE DUP1 ISZERO PUSH2 0x723 JUMPI PUSH0 PUSH0 REVERT JUMPDEST POP PUSH2 0x73E PUSH1 0x4 DUP1 CALLDATASIZE SUB DUP2 ADD SWAP1 PUSH2 0x739 SWAP2 SWAP1 PUSH2 0x4785 JUMP JUMPDEST PUSH2 0x1E75 JUMP JUMPDEST STOP JUMPDEST CALLVALUE DUP1 ISZERO PUSH2 0x74B JUMPI PUSH0 PUSH0 REVERT JUMPDEST POP PUSH2 0x754 PUSH2 0x214C JUMP JUMPDEST PUSH1 0x40 MLOAD PUSH2 0x761 SWAP2 SWAP1 PUSH2 0x42D6 JUMP JUMPDEST PUSH1 0x40 MLOAD DUP1 SWAP2 SUB SWAP1 RETURN JUMPDEST CALLVALUE DUP1 ISZERO PUSH2 0x775 JUMPI PUSH0 PUSH0 REVERT JUMPDEST POP PUSH2 0x77E PUSH2 0x2152 JUMP JUMPDEST PUSH1 0x40 MLOAD PUSH2 0x78B SWAP2 SWAP1 PUSH2 0x441E JUMP JUMPDEST PUSH1 0x40 MLOAD DUP1 SWAP2 SUB SWAP1 RETURN JUMPDEST CALLVALUE DUP1 ISZERO PUSH2 0x79F JUMPI PUSH0 PUSH0 REVERT JUMPDEST POP PUSH2 0x7A8 PUSH2 0x2158 JUMP JUMPDEST PUSH1 0x40 MLOAD PUSH2 0x7B5 SWAP2 SWAP1 PUSH2 0x42A5 JUMP JUMPDEST PUSH1 0x40 MLOAD DUP1 SWAP2 SUB SWAP1 RETURN JUMPDEST CALLVALUE DUP1 ISZERO PUSH2 0x7C9 JUMPI PUSH0 PUSH0 REVERT JUMPDEST POP PUSH2 0x7D2 PUSH2 0x216B JUMP JUMPDEST PUSH1 0x40 MLOAD PUSH2 0x7DF SWAP2 SWAP1 PUSH2 0x4823 JUMP JUMPDEST PUSH1 0x40 MLOAD DUP1 SWAP2 SUB SWAP1 RETURN JUMPDEST CALLVALUE DUP1 ISZERO PUSH2 0x7F3 JUMPI PUSH0 PUSH0 REVERT JUMPDEST POP PUSH2 0x80E PUSH1 0x4 DUP1 CALLDATASIZE SUB DUP2 ADD SWAP1 PUSH2 0x809 SWAP2 SWAP1 PUSH2 0x486D JUMP JUMPDEST PUSH2 0x21A4 JUMP JUMPDEST STOP JUMPDEST CALLVALUE DUP1 ISZERO PUSH2 0x81B JUMPI PUSH0 PUSH0 REVERT JUMPDEST POP PUSH2 0x824 PUSH2 0x24C8 JUMP JUMPDEST PUSH1 0x40 MLOAD PUSH2 0x831 SWAP2 SWAP1 PUSH2 0x441E JUMP JUMPDEST PUSH1 0x40 MLOAD DUP1 SWAP2 SUB SWAP1 RETURN JUMPDEST CALLVALUE DUP1 ISZERO PUSH2 0x845 JUMPI PUSH0 PUSH0 REVERT JUMPDEST POP PUSH2 0x84E PUSH2 0x24EC JUMP JUMPDEST PUSH1 0x40 MLOAD PUSH2 0x85B SWAP2 SWAP1 PUSH2 0x42D6 JUMP JUMPDEST PUSH1 0x40 MLOAD DUP1 SWAP2 SUB SWAP1 RETURN JUMPDEST CALLVALUE DUP1 ISZERO PUSH2 0x86F JUMPI PUSH0 PUSH0 REVERT JUMPDEST POP PUSH2 0x88A PUSH1 0x4 DUP1 CALLDATASIZE SUB DUP2 ADD SWAP1 PUSH2 0x885 SWAP2 SWAP1 PUSH2 0x4437 JUMP JUMPDEST PUSH2 0x24F0 JUMP JUMPDEST STOP JUMPDEST CALLVALUE DUP1 ISZERO PUSH2 0x897 JUMPI PUSH0 PUSH0 REVERT JUMPDEST POP PUSH2 0x8A0 PUSH2 0x2596 JUMP JUMPDEST PUSH1 0x40 MLOAD PUSH2 0x8AD SWAP2 SWAP1 PUSH2 0x493F JUMP JUMPDEST PUSH1 0x40 MLOAD DUP1 SWAP2 SUB SWAP1 RETURN JUMPDEST CALLVALUE DUP1 ISZERO PUSH2 0x8C1 JUMPI PUSH0 PUSH0 REVERT JUMPDEST POP PUSH2 0x8DC PUSH1 0x4 DUP1 CALLDATASIZE SUB DUP2 ADD SWAP1 PUSH2 0x8D7 SWAP2 SWAP1 PUSH2 0x4462 JUMP JUMPDEST PUSH2 0x25BC JUMP JUMPDEST STOP JUMPDEST CALLVALUE DUP1 ISZERO PUSH2 0x8E9 JUMPI PUSH0 PUSH0 REVERT JUMPDEST POP PUSH2 0x904 PUSH1 0x4 DUP1 CALLDATASIZE SUB DUP2 ADD SWAP1 PUSH2 0x8FF SWAP2 SWAP1 PUSH2 0x4437 JUMP JUMPDEST PUSH2 0x25DE JUMP JUMPDEST STOP JUMPDEST CALLVALUE DUP1 ISZERO PUSH2 0x911 JUMPI PUSH0 PUSH0 REVERT JUMPDEST POP PUSH2 0x92C PUSH1 0x4 DUP1 CALLDATASIZE SUB DUP2 ADD SWAP1 PUSH2 0x927 SWAP2 SWAP1 PUSH2 0x4958 JUMP JUMPDEST PUSH2 0x2682 JUMP JUMPDEST STOP JUMPDEST CALLVALUE DUP1 ISZERO PUSH2 0x939 JUMPI PUSH0 PUSH0 REVERT JUMPDEST POP PUSH2 0x942 PUSH2 0x277A JUMP JUMPDEST STOP JUMPDEST CALLVALUE DUP1 ISZERO PUSH2 0x94F JUMPI PUSH0 PUSH0 REVERT JUMPDEST POP PUSH2 0x96A PUSH1 0x4 DUP1 CALLDATASIZE SUB DUP2 ADD SWAP1 PUSH2 0x965 SWAP2 SWAP1 PUSH2 0x4785 JUMP JUMPDEST PUSH2 0x283C JUMP JUMPDEST STOP JUMPDEST CALLVALUE DUP1 ISZERO PUSH2 0x977 JUMPI PUSH0 PUSH0 REVERT JUMPDEST POP PUSH2 0x992 PUSH1 0x4 DUP1 CALLDATASIZE SUB DUP2 ADD SWAP1 PUSH2 0x98D SWAP2 SWAP1 PUSH2 0x4373 JUMP JUMPDEST PUSH2 0x299F JUMP JUMPDEST PUSH1 0x40 MLOAD PUSH2 0x99F SWAP2 SWAP1 PUSH2 0x42D6 JUMP JUMPDEST PUSH1 0x40 MLOAD DUP1 SWAP2 SUB SWAP1 RETURN JUMPDEST CALLVALUE DUP1 ISZERO PUSH2 0x9B3 JUMPI PUSH0 PUSH0 REVERT JUMPDEST POP PUSH2 0x9CE PUSH1 0x4 DUP1 CALLDATASIZE SUB DUP2 ADD SWAP1 PUSH2 0x9C9 SWAP2 SWAP1 PUSH2 0x4437 JUMP JUMPDEST PUSH2 0x29FC JUMP JUMPDEST STOP JUMPDEST PUSH2 0x9D8 PUSH2 0x2AA2 JUMP JUMPDEST STOP JUMPDEST CALLVALUE DUP1 ISZERO PUSH2 0x9E5 JUMPI PUSH0 PUSH0 REVERT JUMPDEST POP PUSH2 0xA00 PUSH1 0x4 DUP1 CALLDATASIZE SUB DUP2 ADD SWAP1 PUSH2 0x9FB SWAP2 SWAP1 PUSH2 0x49A8 JUMP JUMPDEST PUSH2 0x2BB6 JUMP JUMPDEST STOP JUMPDEST CALLVALUE DUP1 ISZERO PUSH2 0xA0D JUMPI PUSH0 PUSH0 REVERT JUMPDEST POP PUSH2 0xA28 PUSH1 0x4 DUP1 CALLDATASIZE SUB DUP2 ADD SWAP1 PUSH2 0xA23 SWAP2 SWAP1 PUSH2 0x4437 JUMP JUMPDEST PUSH2 0x2D25 JUMP JUMPDEST PUSH1 0x40 MLOAD PUSH2 0xA3B SWAP8 SWAP7 SWAP6 SWAP5 SWAP4 SWAP3 SWAP2 SWAP1 PUSH2 0x4A07 JUMP JUMPDEST PUSH1 0x40 MLOAD DUP1 SWAP2 SUB SWAP1 RETURN JUMPDEST CALLVALUE DUP1 ISZERO PUSH2 0xA4F JUMPI PUSH0 PUSH0 REVERT JUMPDEST POP PUSH2 0xA6A PUSH1 0x4 DUP1 CALLDATASIZE SUB DUP2 ADD SWAP1 PUSH2 0xA65 SWAP2 SWAP1 PUSH2 0x4373 JUMP JUMPDEST PUSH2 0x2D91 JUMP JUMPDEST PUSH1 0x40 MLOAD PUSH2 0xA78 SWAP3 SWAP2 SWAP1 PUSH2 0x4A74 JUMP JUMPDEST PUSH1 0x40 MLOAD DUP1 SWAP2 SUB SWAP1 RETURN JUMPDEST PUSH0 PUSH32 0x7965DB0B00000000000000000000000000000000000000000000000000000000 PUSH28 0xFFFFFFFFFFFFFFFFFFFFFFFFFFFFFFFFFFFFFFFFFFFFFFFFFFFFFFFF NOT AND DUP3 PUSH28 0xFFFFFFFFFFFFFFFFFFFFFFFFFFFFFFFFFFFFFFFFFFFFFFFFFFFFFFFF NOT AND EQ DUP1 PUSH2 0xAF3 JUMPI POP PUSH2 0xAF2 DUP3 PUSH2 0x2EE6 JUMP JUMPDEST JUMPDEST SWAP1 POP SWAP2 SWAP1 POP JUMP JUMPDEST PUSH1 0x4 SLOAD DUP2 JUMP JUMPDEST PUSH0 PUSH1 0x5 DUP1 SLOAD SWAP1 POP SWAP1 POP SWAP1 JUMP JUMPDEST PUSH1 0x1 SLOAD DUP2 JUMP JUMPDEST PUSH0 DUP3 PUSH1 0x5 DUP1 SLOAD SWAP1 POP DUP2 LT PUSH2 0xB5B JUMPI PUSH1 0x40 MLOAD PUSH32 0x8C379A000000000000000000000000000000000000000000000000000000000 DUP2 MSTORE PUSH1 0x4 ADD PUSH2 0xB52 SWAP1 PUSH2 0x4AE5 JUMP JUMPDEST PUSH1 0x40 MLOAD DUP1 SWAP2 SUB SWAP1 REVERT JUMPDEST PUSH1 0x6 PUSH0 DUP6 DUP2 MSTORE PUSH1 0x20 ADD SWAP1 DUP2 MSTORE PUSH1 0x20 ADD PUSH0 KECCAK256 PUSH0 DUP5 PUSH20 0xFFFFFFFFFFFFFFFFFFFFFFFFFFFFFFFFFFFFFFFF AND PUSH20 0xFFFFFFFFFFFFFFFFFFFFFFFFFFFFFFFFFFFFFFFF AND DUP2 MSTORE PUSH1 0x20 ADD SWAP1 DUP2 MSTORE PUSH1 0x20 ADD PUSH0 KECCAK256 PUSH0 ADD SLOAD SWAP2 POP POP SWAP3 SWAP2 POP POP JUMP JUMPDEST PUSH0 PUSH0 PUSH2 0xBBD PUSH2 0x2F4F JUMP JUMPDEST SWAP1 POP DUP1 PUSH0 ADD PUSH0 DUP5 DUP2 MSTORE PUSH1 0x20 ADD SWAP1 DUP2 MSTORE PUSH1 0x20 ADD PUSH0 KECCAK256 PUSH1 0x1 ADD SLOAD SWAP2 POP POP SWAP2 SWAP1 POP JUMP JUMPDEST PUSH2 0xBE5 PUSH2 0x2F76 JUMP JUMPDEST DUP1 PUSH1 0x5 DUP1 SLOAD SWAP1 POP DUP2 LT PUSH2 0xC2D JUMPI PUSH1 0x40 MLOAD PUSH32 0x8C379A000000000000000000000000000000000000000000000000000000000 DUP2 MSTORE PUSH1 0x4 ADD PUSH2 0xC24 SWAP1 PUSH2 0x4AE5 JUMP JUMPDEST PUSH1 0x40 MLOAD DUP1 SWAP2 SUB SWAP1 REVERT JUMPDEST PUSH1 0x3 PUSH0 SWAP1 SLOAD SWAP1 PUSH2 0x100 EXP SWAP1 DIV PUSH1 0xFF AND ISZERO PUSH2 0xC7C JUMPI PUSH1 0x40 MLOAD PUSH32 0x8C379A000000000000000000000000000000000000000000000000000000000 DUP2 MSTORE PUSH1 0x4 ADD PUSH2 0xC73 SWAP1 PUSH2 0x4B4D JUMP JUMPDEST PUSH1 0x40 MLOAD DUP1 SWAP2 SUB SWAP1 REVERT JUMPDEST PUSH0 PUSH1 0x5 DUP4 DUP2 SLOAD DUP2 LT PUSH2 0xC91 JUMPI PUSH2 0xC90 PUSH2 0x4B6B JUMP JUMPDEST JUMPDEST SWAP1 PUSH0 MSTORE PUSH1 0x20 PUSH0 KECCAK256 SWAP1 PUSH1 0x7 MUL ADD SWAP1 POP PUSH0 PUSH1 0x6 PUSH0 DUP6 DUP2 MSTORE PUSH1 0x20 ADD SWAP1 DUP2 MSTORE PUSH1 0x20 ADD PUSH0 KECCAK256 PUSH0 CALLER PUSH20 0xFFFFFFFFFFFFFFFFFFFFFFFFFFFFFFFFFFFFFFFF AND PUSH20 0xFFFFFFFFFFFFFFFFFFFFFFFFFFFFFFFFFFFFFFFF AND DUP2 MSTORE PUSH1 0x20 ADD SWAP1 DUP2 MSTORE PUSH1 0x20 ADD PUSH0 KECCAK256 SWAP1 POP PUSH0 PUSH0 PUSH0 PUSH0 SWAP1 POP JUMPDEST DUP4 PUSH1 0x3 ADD DUP1 SLOAD SWAP1 POP DUP2 LT ISZERO PUSH2 0xD7D JUMPI NUMBER DUP5 PUSH1 0x3 ADD DUP3 DUP2 SLOAD DUP2 LT PUSH2 0xD1B JUMPI PUSH2 0xD1A PUSH2 0x4B6B JUMP JUMPDEST JUMPDEST SWAP1 PUSH0 MSTORE PUSH1 0x20 PUSH0 KECCAK256 SWAP1 PUSH1 0x2 MUL ADD PUSH1 0x1 ADD SLOAD GT PUSH2 0xD7D JUMPI DUP4 PUSH1 0x3 ADD DUP2 DUP2 SLOAD DUP2 LT PUSH2 0xD46 JUMPI PUSH2 0xD45 PUSH2 0x4B6B JUMP JUMPDEST JUMPDEST SWAP1 PUSH0 MSTORE PUSH1 0x20 PUSH0 KECCAK256 SWAP1 PUSH1 0x2 MUL ADD PUSH0 ADD SLOAD DUP4 PUSH2 0xD60 SWAP2 SWAP1 PUSH2 0x4BC5 JUMP JUMPDEST SWAP3 POP DUP2 DUP1 PUSH2 0xD6D SWAP1 PUSH2 0x4BF8 JUMP JUMPDEST SWAP3 POP POP DUP1 DUP1 PUSH1 0x1 ADD SWAP2 POP POP PUSH2 0xCF5 JUMP JUMPDEST POP PUSH0 PUSH0 SWAP1 POP JUMPDEST DUP2 DUP5 PUSH1 0x3 ADD DUP1 SLOAD SWAP1 POP PUSH2 0xD96 SWAP2 SWAP1 PUSH2 0x4C3F JUMP JUMPDEST DUP2 LT ISZERO PUSH2 0xE0E JUMPI DUP4 PUSH1 0x3 ADD DUP3 DUP3 PUSH2 0xDAD SWAP2 SWAP1 PUSH2 0x4BC5 JUMP JUMPDEST DUP2 SLOAD DUP2 LT PUSH2 0xDBE JUMPI PUSH2 0xDBD PUSH2 0x4B6B JUMP JUMPDEST JUMPDEST SWAP1 PUSH0 MSTORE PUSH1 0x20 PUSH0 KECCAK256 SWAP1 PUSH1 0x2 MUL ADD DUP5 PUSH1 0x3 ADD DUP3 DUP2 SLOAD DUP2 LT PUSH2 0xDE0 JUMPI PUSH2 0xDDF PUSH2 0x4B6B JUMP JUMPDEST JUMPDEST SWAP1 PUSH0 MSTORE PUSH1 0x20 PUSH0 KECCAK256 SWAP1 PUSH1 0x2 MUL ADD PUSH0 DUP3 ADD SLOAD DUP2 PUSH0 ADD SSTORE PUSH1 0x1 DUP3 ADD SLOAD DUP2 PUSH1 0x1 ADD SSTORE SWAP1 POP POP DUP1 DUP1 PUSH1 0x1 ADD SWAP2 POP POP PUSH2 0xD83 JUMP JUMPDEST POP PUSH0 PUSH0 SWAP1 POP JUMPDEST DUP2 DUP2 LT ISZERO PUSH2 0xE61 JUMPI DUP4 PUSH1 0x3 ADD DUP1 SLOAD DUP1 PUSH2 0xE30 JUMPI PUSH2 0xE2F PUSH2 0x4C72 JUMP JUMPDEST JUMPDEST PUSH1 0x1 SWAP1 SUB DUP2 DUP2 SWAP1 PUSH0 MSTORE PUSH1 0x20 PUSH0 KECCAK256 SWAP1 PUSH1 0x2 MUL ADD PUSH0 PUSH0 DUP3 ADD PUSH0 SWAP1 SSTORE PUSH1 0x1 DUP3 ADD PUSH0 SWAP1 SSTORE POP POP SWAP1 SSTORE DUP1 DUP1 PUSH1 0x1 ADD SWAP2 POP POP PUSH2 0xE14 JUMP JUMPDEST POP PUSH0 DUP3 GT ISZERO PUSH2 0xF1D JUMPI PUSH0 PUSH20 0xFFFFFFFFFFFFFFFFFFFFFFFFFFFFFFFFFFFFFFFF AND DUP5 PUSH0 ADD PUSH0 SWAP1 SLOAD SWAP1 PUSH2 0x100 EXP SWAP1 DIV PUSH20 0xFFFFFFFFFFFFFFFFFFFFFFFFFFFFFFFFFFFFFFFF AND PUSH20 0xFFFFFFFFFFFFFFFFFFFFFFFFFFFFFFFFFFFFFFFF AND SUB PUSH2 0xECE JUMPI PUSH2 0xEC9 CALLER DUP4 PUSH2 0x2FB7 JUMP JUMPDEST PUSH2 0xF1C JUMP JUMPDEST PUSH2 0xF1B CALLER DUP4 DUP7 PUSH0 ADD PUSH0 SWAP1 SLOAD SWAP1 PUSH2 0x100 EXP SWAP1 DIV PUSH20 0xFFFFFFFFFFFFFFFFFFFFFFFFFFFFFFFFFFFFFFFF AND PUSH20 0xFFFFFFFFFFFFFFFFFFFFFFFFFFFFFFFFFFFFFFFF AND PUSH2 0x30C4 SWAP1 SWAP3 SWAP2 SWAP1 PUSH4 0xFFFFFFFF AND JUMP JUMPDEST JUMPDEST JUMPDEST NUMBER DUP7 CALLER PUSH20 0xFFFFFFFFFFFFFFFFFFFFFFFFFFFFFFFFFFFFFFFF AND PUSH32 0x2F25270A4D87BEA75DB541CDFE559334A275B4A233520ED6C0A2429667CCA94 DUP6 PUSH1 0x40 MLOAD PUSH2 0xF65 SWAP2 SWAP1 PUSH2 0x42D6 JUMP JUMPDEST PUSH1 0x40 MLOAD DUP1 SWAP2 SUB SWAP1 LOG4 POP POP POP POP POP POP JUMP JUMPDEST PUSH2 0xF7E DUP3 PUSH2 0xBB3 JUMP JUMPDEST PUSH2 0xF87 DUP2 PUSH2 0x3143 JUMP JUMPDEST PUSH2 0xF91 DUP4 DUP4 PUSH2 0x3157 JUMP JUMPDEST POP POP POP POP JUMP JUMPDEST PUSH1 0x3 PUSH0 SWAP1 SLOAD SWAP1 PUSH2 0x100 EXP SWAP1 DIV PUSH1 0xFF AND DUP2 JUMP JUMPDEST PUSH2 0xFB1 PUSH2 0x324F JUMP JUMPDEST PUSH20 0xFFFFFFFFFFFFFFFFFFFFFFFFFFFFFFFFFFFFFFFF AND DUP2 PUSH20 0xFFFFFFFFFFFFFFFFFFFFFFFFFFFFFFFFFFFFFFFF AND EQ PUSH2 0x1015 JUMPI PUSH1 0x40 MLOAD PUSH32 0x6697B23200000000000000000000000000000000000000000000000000000000 DUP2 MSTORE PUSH1 0x4 ADD PUSH1 0x40 MLOAD DUP1 SWAP2 SUB SWAP1 REVERT JUMPDEST PUSH2 0x101F DUP3 DUP3 PUSH2 0x3256 JUMP JUMPDEST POP POP POP JUMP JUMPDEST PUSH1 0x6 PUSH1 0x20 MSTORE DUP2 PUSH0 MSTORE PUSH1 0x40 PUSH0 KECCAK256 PUSH1 0x20 MSTORE DUP1 PUSH0 MSTORE PUSH1 0x40 PUSH0 KECCAK256 PUSH0 SWAP2 POP SWAP2 POP POP DUP1 PUSH0 ADD SLOAD SWAP1 DUP1 PUSH1 0x1 ADD SLOAD SWAP1 DUP1 PUSH1 0x2 ADD SLOAD SWAP1 POP DUP4 JUMP JUMPDEST PUSH2 0x105D PUSH2 0x2F76 JUMP JUMPDEST DUP1 PUSH1 0x5 DUP1 SLOAD SWAP1 POP DUP2 LT PUSH2 0x10A5 JUMPI PUSH1 0x40 MLOAD PUSH32 0x8C379A000000000000000000000000000000000000000000000000000000000 DUP2 MSTORE PUSH1 0x4 ADD PUSH2 0x109C SWAP1 PUSH2 0x4AE5 JUMP JUMPDEST PUSH1 0x40 MLOAD DUP1 SWAP2 SUB SWAP1 REVERT JUMPDEST PUSH1 0x3 PUSH1 0x1 SWAP1 SLOAD SWAP1 PUSH2 0x100 EXP SWAP1 DIV PUSH1 0xFF AND ISZERO PUSH2 0x10F5 JUMPI PUSH1 0x40 MLOAD PUSH32 0x8C379A000000000000000000000000000000000000000000000000000000000 DUP2 MSTORE PUSH1 0x4 ADD PUSH2 0x10EC SWAP1 PUSH2 0x4CE9 JUMP JUMPDEST PUSH1 0x40 MLOAD DUP1 SWAP2 SUB SWAP1 REVERT JUMPDEST PUSH0 PUSH1 0x5 DUP4 DUP2 SLOAD DUP2 LT PUSH2 0x110A JUMPI PUSH2 0x1109 PUSH2 0x4B6B JUMP JUMPDEST JUMPDEST SWAP1 PUSH0 MSTORE PUSH1 0x20 PUSH0 KECCAK256 SWAP1 PUSH1 0x7 MUL ADD SWAP1 POP PUSH0 PUSH1 0x6 PUSH0 DUP6 DUP2 MSTORE PUSH1 0x20 ADD SWAP1 DUP2 MSTORE PUSH1 0x20 ADD PUSH0 KECCAK256 PUSH0 CALLER PUSH20 0xFFFFFFFFFFFFFFFFFFFFFFFFFFFFFFFFFFFFFFFF AND PUSH20 0xFFFFFFFFFFFFFFFFFFFFFFFFFFFFFFFFFFFFFFFF AND DUP2 MSTORE PUSH1 0x20 ADD SWAP1 DUP2 MSTORE PUSH1 0x20 ADD PUSH0 KECCAK256 SWAP1 POP PUSH2 0x1170 DUP5 PUSH2 0x14D4 JUMP JUMPDEST PUSH0 DUP2 PUSH1 0x2 ADD SLOAD DUP3 PUSH1 0x1 ADD SLOAD PUSH8 0xDE0B6B3A7640000 DUP6 PUSH1 0x3 ADD SLOAD DUP6 PUSH0 ADD SLOAD PUSH2 0x1197 SWAP2 SWAP1 PUSH2 0x4D07 JUMP JUMPDEST PUSH2 0x11A1 SWAP2 SWAP1 PUSH2 0x4D75 JUMP JUMPDEST PUSH2 0x11AB SWAP2 SWAP1 PUSH2 0x4C3F JUMP JUMPDEST PUSH2 0x11B5 SWAP2 SWAP1 PUSH2 0x4BC5 JUMP JUMPDEST SWAP1 POP PUSH0 DUP2 GT ISZERO PUSH2 0x11D3 JUMPI PUSH0 DUP3 PUSH1 0x2 ADD DUP2 SWAP1 SSTORE POP PUSH2 0x11D2 CALLER DUP3 PUSH2 0x334E JUMP JUMPDEST JUMPDEST PUSH8 0xDE0B6B3A7640000 DUP4 PUSH1 0x3 ADD SLOAD DUP4 PUSH0 ADD SLOAD PUSH2 0x11EF SWAP2 SWAP1 PUSH2 0x4D07 JUMP JUMPDEST PUSH2 0x11F9 SWAP2 SWAP1 PUSH2 0x4D75 JUMP JUMPDEST DUP3 PUSH1 0x1 ADD DUP2 SWAP1 SSTORE POP DUP5 CALLER PUSH20 0xFFFFFFFFFFFFFFFFFFFFFFFFFFFFFFFFFFFFFFFF AND PUSH32 0x34FCBAC0073D7C3D388E51312FAF357774904998EEB8FCA628B9E6F65EE1CBF7 DUP4 PUSH1 0x40 MLOAD PUSH2 0x1248 SWAP2 SWAP1 PUSH2 0x42D6 JUMP JUMPDEST PUSH1 0x40 MLOAD DUP1 SWAP2 SUB SWAP1 LOG3 POP POP POP POP POP JUMP JUMPDEST PUSH0 SLOAD DUP2 JUMP JUMPDEST PUSH0 PUSH2 0x1265 PUSH2 0x353A JUMP JUMPDEST SWAP1 POP PUSH0 DUP2 PUSH0 ADD PUSH1 0x8 SWAP1 SLOAD SWAP1 PUSH2 0x100 EXP SWAP1 DIV PUSH1 0xFF AND ISZERO SWAP1 POP PUSH0 DUP3 PUSH0 ADD PUSH0 SWAP1 SLOAD SWAP1 PUSH2 0x100 EXP SWAP1 DIV PUSH8 0xFFFFFFFFFFFFFFFF AND SWAP1 POP PUSH0 PUSH0 DUP3 PUSH8 0xFFFFFFFFFFFFFFFF AND EQ DUP1 ISZERO PUSH2 0x12AD JUMPI POP DUP3 JUMPDEST SWAP1 POP PUSH0 PUSH1 0x1 DUP4 PUSH8 0xFFFFFFFFFFFFFFFF AND EQ DUP1 ISZERO PUSH2 0x12E0 JUMPI POP PUSH0 ADDRESS PUSH20 0xFFFFFFFFFFFFFFFFFFFFFFFFFFFFFFFFFFFFFFFF AND EXTCODESIZE EQ JUMPDEST SWAP1 POP DUP2 ISZERO DUP1 ISZERO PUSH2 0x12EE JUMPI POP DUP1 ISZERO JUMPDEST ISZERO PUSH2 0x1325 JUMPI PUSH1 0x40 MLOAD PUSH32 0xF92EE8A900000000000000000000000000000000000000000000000000000000 DUP2 MSTORE PUSH1 0x4 ADD PUSH1 0x40 MLOAD DUP1 SWAP2 SUB SWAP1 REVERT JUMPDEST PUSH1 0x1 DUP6 PUSH0 ADD PUSH0 PUSH2 0x100 EXP DUP2 SLOAD DUP2 PUSH8 0xFFFFFFFFFFFFFFFF MUL NOT AND SWAP1 DUP4 PUSH8 0xFFFFFFFFFFFFFFFF AND MUL OR SWAP1 SSTORE POP DUP4 ISZERO PUSH2 0x1372 JUMPI PUSH1 0x1 DUP6 PUSH0 ADD PUSH1 0x8 PUSH2 0x100 EXP DUP2 SLOAD DUP2 PUSH1 0xFF MUL NOT AND SWAP1 DUP4 ISZERO ISZERO MUL OR SWAP1 SSTORE POP JUMPDEST DUP7 DUP9 GT ISZERO DUP1 ISZERO PUSH2 0x1381 JUMPI POP PUSH0 DUP7 GT JUMPDEST PUSH2 0x13C0 JUMPI PUSH1 0x40 MLOAD PUSH32 0x8C379A000000000000000000000000000000000000000000000000000000000 DUP2 MSTORE PUSH1 0x4 ADD PUSH2 0x13B7 SWAP1 PUSH2 0x4DEF JUMP JUMPDEST PUSH1 0x40 MLOAD DUP1 SWAP2 SUB SWAP1 REVERT JUMPDEST PUSH2 0x13C8 PUSH2 0x354D JUMP JUMPDEST PUSH2 0x13D0 PUSH2 0x3557 JUMP JUMPDEST PUSH2 0x13DC PUSH0 PUSH0 SHL CALLER PUSH2 0x3157 JUMP JUMPDEST POP PUSH2 0x1407 PUSH32 0xCAB03BC4DBCC648CD59D6BBE9F848D1E9092F914016AA290EE92E18700D1E6F9 CALLER PUSH2 0x3157 JUMP JUMPDEST POP PUSH2 0x1432 PUSH32 0x589D473BA17C0F47D494622893831497BAD25919B9AFB8E33E9521B8963FCCDE CALLER PUSH2 0x3157 JUMP JUMPDEST POP PUSH2 0x143C DUP10 PUSH2 0x1972 JUMP JUMPDEST DUP8 PUSH0 DUP2 SWAP1 SSTORE POP DUP7 PUSH1 0x1 DUP2 SWAP1 SSTORE POP DUP6 PUSH1 0x2 DUP2 SWAP1 SSTORE POP DUP4 ISZERO PUSH2 0x14AA JUMPI PUSH0 DUP6 PUSH0 ADD PUSH1 0x8 PUSH2 0x100 EXP DUP2 SLOAD DUP2 PUSH1 0xFF MUL NOT AND SWAP1 DUP4 ISZERO ISZERO MUL OR SWAP1 SSTORE POP PUSH32 0xC7F505B2F371AE2175EE4913F4499E1F2633A7B5936321EED1CDAEB6115181D2 PUSH1 0x1 PUSH1 0x40 MLOAD PUSH2 0x14A1 SWAP2 SWAP1 PUSH2 0x4E59 JUMP JUMPDEST PUSH1 0x40 MLOAD DUP1 SWAP2 SUB SWAP1 LOG1 JUMPDEST POP POP POP POP POP POP POP POP POP JUMP JUMPDEST PUSH2 0x14BD PUSH2 0x3561 JUMP JUMPDEST PUSH2 0x14C6 DUP3 PUSH2 0x3647 JUMP JUMPDEST PUSH2 0x14D0 DUP3 DUP3 PUSH2 0x3675 JUMP JUMPDEST POP POP JUMP JUMPDEST DUP1 PUSH1 0x5 DUP1 SLOAD SWAP1 POP DUP2 LT PUSH2 0x151C JUMPI PUSH1 0x40 MLOAD PUSH32 0x8C379A000000000000000000000000000000000000000000000000000000000 DUP2 MSTORE PUSH1 0x4 ADD PUSH2 0x1513 SWAP1 PUSH2 0x4AE5 JUMP JUMPDEST PUSH1 0x40 MLOAD DUP1 SWAP2 SUB SWAP1 REVERT JUMPDEST PUSH0 PUSH1 0x5 DUP4 DUP2 SLOAD DUP2 LT PUSH2 0x1531 JUMPI PUSH2 0x1530 PUSH2 0x4B6B JUMP JUMPDEST JUMPDEST SWAP1 PUSH0 MSTORE PUSH1 0x20 PUSH0 KECCAK256 SWAP1 PUSH1 0x7 MUL ADD SWAP1 POP DUP1 PUSH1 0x2 ADD SLOAD NUMBER GT PUSH2 0x1550 JUMPI POP PUSH2 0x1799 JUMP JUMPDEST PUSH0 PUSH0 PUSH2 0x1576 DUP4 PUSH1 0x1 ADD SLOAD PUSH2 0x1568 DUP6 PUSH1 0x2 ADD SLOAD NUMBER PUSH2 0x1C2B JUMP JUMPDEST PUSH2 0x3793 SWAP1 SWAP2 SWAP1 PUSH4 0xFFFFFFFF AND JUMP JUMPDEST SWAP2 POP SWAP2 POP DUP2 PUSH2 0x15BA JUMPI PUSH1 0x40 MLOAD PUSH32 0x8C379A000000000000000000000000000000000000000000000000000000000 DUP2 MSTORE PUSH1 0x4 ADD PUSH2 0x15B1 SWAP1 PUSH2 0x4EBC JUMP JUMPDEST PUSH1 0x40 MLOAD DUP1 SWAP2 SUB SWAP1 REVERT JUMPDEST PUSH2 0x15CF PUSH1 0x4 SLOAD DUP3 PUSH2 0x37BA SWAP1 SWAP2 SWAP1 PUSH4 0xFFFFFFFF AND JUMP JUMPDEST DUP1 SWAP3 POP DUP2 SWAP4 POP POP POP DUP2 PUSH2 0x1617 JUMPI PUSH1 0x40 MLOAD PUSH32 0x8C379A000000000000000000000000000000000000000000000000000000000 DUP2 MSTORE PUSH1 0x4 ADD PUSH2 0x160E SWAP1 PUSH2 0x4EBC JUMP JUMPDEST PUSH1 0x40 MLOAD DUP1 SWAP2 SUB SWAP1 REVERT JUMPDEST PUSH0 DUP4 PUSH1 0x4 ADD SLOAD SWAP1 POP PUSH0 DUP2 GT ISZERO PUSH2 0x174E JUMPI PUSH0 PUSH0 PUSH2 0x1644 PUSH8 0xDE0B6B3A7640000 DUP6 PUSH2 0x3793 SWAP1 SWAP2 SWAP1 PUSH4 0xFFFFFFFF AND JUMP JUMPDEST SWAP2 POP SWAP2 POP DUP2 PUSH2 0x1688 JUMPI PUSH1 0x40 MLOAD PUSH32 0x8C379A000000000000000000000000000000000000000000000000000000000 DUP2 MSTORE PUSH1 0x4 ADD PUSH2 0x167F SWAP1 PUSH2 0x4EBC JUMP JUMPDEST PUSH1 0x40 MLOAD DUP1 SWAP2 SUB SWAP1 REVERT JUMPDEST PUSH2 0x169B DUP4 DUP3 PUSH2 0x37BA SWAP1 SWAP2 SWAP1 PUSH4 0xFFFFFFFF AND JUMP JUMPDEST DUP1 SWAP3 POP DUP2 SWAP4 POP POP POP DUP2 PUSH2 0x16E3 JUMPI PUSH1 0x40 MLOAD PUSH32 0x8C379A000000000000000000000000000000000000000000000000000000000 DUP2 MSTORE PUSH1 0x4 ADD PUSH2 0x16DA SWAP1 PUSH2 0x4EBC JUMP JUMPDEST PUSH1 0x40 MLOAD DUP1 SWAP2 SUB SWAP1 REVERT JUMPDEST PUSH0 PUSH0 PUSH2 0x16FC DUP4 DUP10 PUSH1 0x3 ADD SLOAD PUSH2 0x37CD SWAP1 SWAP2 SWAP1 PUSH4 0xFFFFFFFF AND JUMP JUMPDEST SWAP2 POP SWAP2 POP DUP2 PUSH2 0x1740 JUMPI PUSH1 0x40 MLOAD PUSH32 0x8C379A000000000000000000000000000000000000000000000000000000000 DUP2 MSTORE PUSH1 0x4 ADD PUSH2 0x1737 SWAP1 PUSH2 0x4EBC JUMP JUMPDEST PUSH1 0x40 MLOAD DUP1 SWAP2 SUB SWAP1 REVERT JUMPDEST DUP1 DUP9 PUSH1 0x3 ADD DUP2 SWAP1 SSTORE POP POP POP POP POP JUMPDEST NUMBER DUP5 PUSH1 0x2 ADD DUP2 SWAP1 SSTORE POP DUP4 PUSH1 0x2 ADD SLOAD DUP7 PUSH32 0xF5D2D72D9B25D6853AFD7D0554A113B705234B6A68BB36B7F143662994632411 DUP5 PUSH1 0x40 MLOAD PUSH2 0x178C SWAP2 SWAP1 PUSH2 0x42D6 JUMP JUMPDEST PUSH1 0x40 MLOAD DUP1 SWAP2 SUB SWAP1 LOG3 POP POP POP POP JUMPDEST POP POP JUMP JUMPDEST PUSH0 PUSH2 0x17A6 PUSH2 0x37F0 JUMP JUMPDEST PUSH32 0x360894A13BA1A3210667C828492DB98DCA3E2076CC3735A920A3CA505D382BBC PUSH0 SHL SWAP1 POP SWAP1 JUMP JUMPDEST PUSH32 0x589D473BA17C0F47D494622893831497BAD25919B9AFB8E33E9521B8963FCCDE PUSH2 0x17F8 DUP2 PUSH2 0x3143 JUMP JUMPDEST PUSH1 0x3 PUSH0 SWAP1 SLOAD SWAP1 PUSH2 0x100 EXP SWAP1 DIV PUSH1 0xFF AND PUSH2 0x1846 JUMPI PUSH1 0x40 MLOAD PUSH32 0x8C379A000000000000000000000000000000000000000000000000000000000 DUP2 MSTORE PUSH1 0x4 ADD PUSH2 0x183D SWAP1 PUSH2 0x4F4A JUMP JUMPDEST PUSH1 0x40 MLOAD DUP1 SWAP2 SUB SWAP1 REVERT JUMPDEST PUSH0 PUSH1 0x3 PUSH0 PUSH2 0x100 EXP DUP2 SLOAD DUP2 PUSH1 0xFF MUL NOT AND SWAP1 DUP4 ISZERO ISZERO MUL OR SWAP1 SSTORE POP PUSH32 0x1C84BCAEAD48B692CC46B9B12E9A068951A59C99A2E2BF10B00B60B403CF12E2 PUSH1 0x40 MLOAD PUSH1 0x40 MLOAD DUP1 SWAP2 SUB SWAP1 LOG1 POP JUMP JUMPDEST PUSH0 PUSH0 PUSH2 0x1898 PUSH2 0x3877 JUMP JUMPDEST SWAP1 POP DUP1 PUSH0 ADD PUSH0 SWAP1 SLOAD SWAP1 PUSH2 0x100 EXP SWAP1 DIV PUSH1 0xFF AND SWAP2 POP POP SWAP1 JUMP JUMPDEST PUSH32 0x589D473BA17C0F47D494622893831497BAD25919B9AFB8E33E9521B8963FCCDE PUSH2 0x18DA DUP2 PUSH2 0x3143 JUMP JUMPDEST PUSH1 0x3 PUSH0 SWAP1 SLOAD SWAP1 PUSH2 0x100 EXP SWAP1 DIV PUSH1 0xFF AND ISZERO PUSH2 0x1929 JUMPI PUSH1 0x40 MLOAD PUSH32 0x8C379A000000000000000000000000000000000000000000000000000000000 DUP2 MSTORE PUSH1 0x4 ADD PUSH2 0x1920 SWAP1 PUSH2 0x4FB2 JUMP JUMPDEST PUSH1 0x40 MLOAD DUP1 SWAP2 SUB SWAP1 REVERT JUMPDEST PUSH1 0x1 PUSH1 0x3 PUSH0 PUSH2 0x100 EXP DUP2 SLOAD DUP2 PUSH1 0xFF MUL NOT AND SWAP1 DUP4 ISZERO ISZERO MUL OR SWAP1 SSTORE POP PUSH32 0x8099F593A6AAECD68B6494933CD71F703376AC3975BE83692E1B7D800ABF6837 PUSH1 0x40 MLOAD PUSH1 0x40 MLOAD DUP1 SWAP2 SUB SWAP1 LOG1 POP JUMP JUMPDEST PUSH32 0x589D473BA17C0F47D494622893831497BAD25919B9AFB8E33E9521B8963FCCDE PUSH2 0x199C DUP2 PUSH2 0x3143 JUMP JUMPDEST DUP2 PUSH1 0x3 PUSH1 0x2 PUSH2 0x100 EXP DUP2 SLOAD DUP2 PUSH20 0xFFFFFFFFFFFFFFFFFFFFFFFFFFFFFFFFFFFFFFFF MUL NOT AND SWAP1 DUP4 PUSH20 0xFFFFFFFFFFFFFFFFFFFFFFFFFFFFFFFFFFFFFFFF AND MUL OR SWAP1 SSTORE POP PUSH1 0x3 PUSH1 0x2 SWAP1 SLOAD SWAP1 PUSH2 0x100 EXP SWAP1 DIV PUSH20 0xFFFFFFFFFFFFFFFFFFFFFFFFFFFFFFFFFFFFFFFF AND PUSH20 0xFFFFFFFFFFFFFFFFFFFFFFFFFFFFFFFFFFFFFFFF AND PUSH32 0xAFEF10FF40345DD21FC1CAC02D8EC620A709C9B0983E9C6454D2BEF77F077DF3 PUSH1 0x40 MLOAD PUSH1 0x40 MLOAD DUP1 SWAP2 SUB SWAP1 LOG2 POP POP JUMP JUMPDEST PUSH0 PUSH1 0x5 DUP1 SLOAD SWAP1 POP SWAP1 POP PUSH0 PUSH0 SWAP1 POP JUMPDEST DUP2 DUP2 LT ISZERO PUSH2 0x1A72 JUMPI PUSH2 0x1A65 DUP2 PUSH2 0x14D4 JUMP JUMPDEST DUP1 DUP1 PUSH1 0x1 ADD SWAP2 POP POP PUSH2 0x1A54 JUMP JUMPDEST POP POP JUMP JUMPDEST PUSH0 DUP4 PUSH1 0x5 DUP1 SLOAD SWAP1 POP DUP2 LT PUSH2 0x1ABF JUMPI PUSH1 0x40 MLOAD PUSH32 0x8C379A000000000000000000000000000000000000000000000000000000000 DUP2 MSTORE PUSH1 0x4 ADD PUSH2 0x1AB6 SWAP1 PUSH2 0x4AE5 JUMP JUMPDEST PUSH1 0x40 MLOAD DUP1 SWAP2 SUB SWAP1 REVERT JUMPDEST PUSH0 PUSH1 0x5 DUP7 DUP2 SLOAD DUP2 LT PUSH2 0x1AD4 JUMPI PUSH2 0x1AD3 PUSH2 0x4B6B JUMP JUMPDEST JUMPDEST SWAP1 PUSH0 MSTORE PUSH1 0x20 PUSH0 KECCAK256 SWAP1 PUSH1 0x7 MUL ADD SWAP1 POP PUSH0 PUSH1 0x6 PUSH0 DUP9 DUP2 MSTORE PUSH1 0x20 ADD SWAP1 DUP2 MSTORE PUSH1 0x20 ADD PUSH0 KECCAK256 PUSH0 DUP8 PUSH20 0xFFFFFFFFFFFFFFFFFFFFFFFFFFFFFFFFFFFFFFFF AND PUSH20 0xFFFFFFFFFFFFFFFFFFFFFFFFFFFFFFFFFFFFFFFF AND DUP2 MSTORE PUSH1 0x20 ADD SWAP1 DUP2 MSTORE PUSH1 0x20 ADD PUSH0 KECCAK256 SWAP1 POP PUSH0 DUP3 PUSH1 0x3 ADD SLOAD SWAP1 POP PUSH0 DUP4 PUSH1 0x4 ADD SLOAD SWAP1 POP DUP4 PUSH1 0x2 ADD SLOAD DUP8 GT DUP1 ISZERO PUSH2 0x1B54 JUMPI POP PUSH0 DUP2 EQ ISZERO JUMPDEST ISZERO PUSH2 0x1BB9 JUMPI PUSH0 PUSH2 0x1B68 DUP6 PUSH1 0x2 ADD SLOAD DUP10 PUSH2 0x1C2B JUMP JUMPDEST SWAP1 POP PUSH0 PUSH1 0x4 SLOAD DUP7 PUSH1 0x1 ADD SLOAD DUP4 PUSH2 0x1B7E SWAP2 SWAP1 PUSH2 0x4D07 JUMP JUMPDEST PUSH2 0x1B88 SWAP2 SWAP1 PUSH2 0x4D75 JUMP JUMPDEST SWAP1 POP DUP3 PUSH8 0xDE0B6B3A7640000 DUP3 PUSH2 0x1B9F SWAP2 SWAP1 PUSH2 0x4D07 JUMP JUMPDEST PUSH2 0x1BA9 SWAP2 SWAP1 PUSH2 0x4D75 JUMP JUMPDEST DUP5 PUSH2 0x1BB4 SWAP2 SWAP1 PUSH2 0x4BC5 JUMP JUMPDEST SWAP4 POP POP POP JUMPDEST DUP3 PUSH1 0x2 ADD SLOAD DUP4 PUSH1 0x1 ADD SLOAD PUSH8 0xDE0B6B3A7640000 DUP5 DUP7 PUSH0 ADD SLOAD PUSH2 0x1BDB SWAP2 SWAP1 PUSH2 0x4D07 JUMP JUMPDEST PUSH2 0x1BE5 SWAP2 SWAP1 PUSH2 0x4D75 JUMP JUMPDEST PUSH2 0x1BEF SWAP2 SWAP1 PUSH2 0x4C3F JUMP JUMPDEST PUSH2 0x1BF9 SWAP2 SWAP1 PUSH2 0x4BC5 JUMP JUMPDEST SWAP6 POP POP POP POP POP POP SWAP4 SWAP3 POP POP POP JUMP JUMPDEST PUSH32 0x589D473BA17C0F47D494622893831497BAD25919B9AFB8E33E9521B8963FCCDE DUP2 JUMP JUMPDEST PUSH0 DUP2 DUP4 GT ISZERO PUSH2 0x1C6F JUMPI PUSH1 0x40 MLOAD PUSH32 0x8C379A000000000000000000000000000000000000000000000000000000000 DUP2 MSTORE PUSH1 0x4 ADD PUSH2 0x1C66 SWAP1 PUSH2 0x501A JUMP JUMPDEST PUSH1 0x40 MLOAD DUP1 SWAP2 SUB SWAP1 REVERT JUMPDEST PUSH0 SLOAD DUP4 LT ISZERO PUSH2 0x1C7D JUMPI PUSH0 SLOAD SWAP3 POP JUMPDEST PUSH1 0x1 SLOAD DUP3 GT ISZERO PUSH2 0x1C8D JUMPI PUSH1 0x1 SLOAD SWAP2 POP JUMPDEST DUP2 DUP4 GT ISZERO PUSH2 0x1CD0 JUMPI PUSH1 0x40 MLOAD PUSH32 0x8C379A000000000000000000000000000000000000000000000000000000000 DUP2 MSTORE PUSH1 0x4 ADD PUSH2 0x1CC7 SWAP1 PUSH2 0x50A8 JUMP JUMPDEST PUSH1 0x40 MLOAD DUP1 SWAP2 SUB SWAP1 REVERT JUMPDEST PUSH0 PUSH2 0x1CF1 PUSH1 0x2 SLOAD DUP6 DUP6 PUSH2 0x1CE3 SWAP2 SWAP1 PUSH2 0x4C3F JUMP JUMPDEST PUSH2 0x3793 SWAP1 SWAP2 SWAP1 PUSH4 0xFFFFFFFF AND JUMP JUMPDEST DUP1 SWAP4 POP DUP2 SWAP3 POP POP POP DUP1 PUSH2 0x1D39 JUMPI PUSH1 0x40 MLOAD PUSH32 0x8C379A000000000000000000000000000000000000000000000000000000000 DUP2 MSTORE PUSH1 0x4 ADD PUSH2 0x1D30 SWAP1 PUSH2 0x5110 JUMP JUMPDEST PUSH1 0x40 MLOAD DUP1 SWAP2 SUB SWAP1 REVERT JUMPDEST POP SWAP3 SWAP2 POP POP JUMP JUMPDEST PUSH32 0x589D473BA17C0F47D494622893831497BAD25919B9AFB8E33E9521B8963FCCDE PUSH2 0x1D6A DUP2 PUSH2 0x3143 JUMP JUMPDEST PUSH1 0x3 PUSH1 0x1 SWAP1 SLOAD SWAP1 PUSH2 0x100 EXP SWAP1 DIV PUSH1 0xFF AND ISZERO PUSH2 0x1DBA JUMPI PUSH1 0x40 MLOAD PUSH32 0x8C379A000000000000000000000000000000000000000000000000000000000 DUP2 MSTORE PUSH1 0x4 ADD PUSH2 0x1DB1 SWAP1 PUSH2 0x5178 JUMP JUMPDEST PUSH1 0x40 MLOAD DUP1 SWAP2 SUB SWAP1 REVERT JUMPDEST PUSH1 0x1 PUSH1 0x3 PUSH1 0x1 PUSH2 0x100 EXP DUP2 SLOAD DUP2 PUSH1 0xFF MUL NOT AND SWAP1 DUP4 ISZERO ISZERO MUL OR SWAP1 SSTORE POP PUSH32 0x6D73D6B34C378AB3BF6630206D60B7882801B91D03EE20D016FF0D5054DB81E1 PUSH1 0x40 MLOAD PUSH1 0x40 MLOAD DUP1 SWAP2 SUB SWAP1 LOG1 POP JUMP JUMPDEST PUSH0 PUSH0 PUSH2 0x1E0E PUSH2 0x2F4F JUMP JUMPDEST SWAP1 POP DUP1 PUSH0 ADD PUSH0 DUP6 DUP2 MSTORE PUSH1 0x20 ADD SWAP1 DUP2 MSTORE PUSH1 0x20 ADD PUSH0 KECCAK256 PUSH0 ADD PUSH0 DUP5 PUSH20 0xFFFFFFFFFFFFFFFFFFFFFFFFFFFFFFFFFFFFFFFF AND PUSH20 0xFFFFFFFFFFFFFFFFFFFFFFFFFFFFFFFFFFFFFFFF AND DUP2 MSTORE PUSH1 0x20 ADD SWAP1 DUP2 MSTORE PUSH1 0x20 ADD PUSH0 KECCAK256 PUSH0 SWAP1 SLOAD SWAP1 PUSH2 0x100 EXP SWAP1 DIV PUSH1 0xFF AND SWAP2 POP POP SWAP3 SWAP2 POP POP JUMP JUMPDEST PUSH2 0x1E7D PUSH2 0x2F76 JUMP JUMPDEST DUP2 PUSH1 0x5 DUP1 SLOAD SWAP1 POP DUP2 LT PUSH2 0x1EC5 JUMPI PUSH1 0x40 MLOAD PUSH32 0x8C379A000000000000000000000000000000000000000000000000000000000 DUP2 MSTORE PUSH1 0x4 ADD PUSH2 0x1EBC SWAP1 PUSH2 0x4AE5 JUMP JUMPDEST PUSH1 0x40 MLOAD DUP1 SWAP2 SUB SWAP1 REVERT JUMPDEST PUSH1 0x3 PUSH0 SWAP1 SLOAD SWAP1 PUSH2 0x100 EXP SWAP1 DIV PUSH1 0xFF AND ISZERO PUSH2 0x1F14 JUMPI PUSH1 0x40 MLOAD PUSH32 0x8C379A000000000000000000000000000000000000000000000000000000000 DUP2 MSTORE PUSH1 0x4 ADD PUSH2 0x1F0B SWAP1 PUSH2 0x4B4D JUMP JUMPDEST PUSH1 0x40 MLOAD DUP1 SWAP2 SUB SWAP1 REVERT JUMPDEST PUSH0 PUSH1 0x5 DUP5 DUP2 SLOAD DUP2 LT PUSH2 0x1F29 JUMPI PUSH2 0x1F28 PUSH2 0x4B6B JUMP JUMPDEST JUMPDEST SWAP1 PUSH0 MSTORE PUSH1 0x20 PUSH0 KECCAK256 SWAP1 PUSH1 0x7 MUL ADD SWAP1 POP PUSH0 PUSH1 0x6 PUSH0 DUP7 DUP2 MSTORE PUSH1 0x20 ADD SWAP1 DUP2 MSTORE PUSH1 0x20 ADD PUSH0 KECCAK256 PUSH0 CALLER PUSH20 0xFFFFFFFFFFFFFFFFFFFFFFFFFFFFFFFFFFFFFFFF AND PUSH20 0xFFFFFFFFFFFFFFFFFFFFFFFFFFFFFFFFFFFFFFFF AND DUP2 MSTORE PUSH1 0x20 ADD SWAP1 DUP2 MSTORE PUSH1 0x20 ADD PUSH0 KECCAK256 SWAP1 POP DUP4 DUP2 PUSH0 ADD SLOAD LT ISZERO PUSH2 0x1FCC JUMPI PUSH1 0x40 MLOAD PUSH32 0x8C379A000000000000000000000000000000000000000000000000000000000 DUP2 MSTORE PUSH1 0x4 ADD PUSH2 0x1FC3 SWAP1 PUSH2 0x51E0 JUMP JUMPDEST PUSH1 0x40 MLOAD DUP1 SWAP2 SUB SWAP1 REVERT JUMPDEST PUSH2 0x1FD5 DUP6 PUSH2 0x14D4 JUMP JUMPDEST PUSH0 DUP2 PUSH1 0x1 ADD SLOAD PUSH8 0xDE0B6B3A7640000 DUP5 PUSH1 0x3 ADD SLOAD DUP5 PUSH0 ADD SLOAD PUSH2 0x1FF7 SWAP2 SWAP1 PUSH2 0x4D07 JUMP JUMPDEST PUSH2 0x2001 SWAP2 SWAP1 PUSH2 0x4D75 JUMP JUMPDEST PUSH2 0x200B SWAP2 SWAP1 PUSH2 0x4C3F JUMP JUMPDEST SWAP1 POP PUSH0 DUP2 GT ISZERO PUSH2 0x202E JUMPI DUP1 DUP3 PUSH1 0x2 ADD SLOAD PUSH2 0x2025 SWAP2 SWAP1 PUSH2 0x4BC5 JUMP JUMPDEST DUP3 PUSH1 0x2 ADD DUP2 SWAP1 SSTORE POP JUMPDEST PUSH0 DUP6 GT ISZERO PUSH2 0x20AF JUMPI DUP5 DUP3 PUSH0 ADD SLOAD PUSH2 0x2045 SWAP2 SWAP1 PUSH2 0x4C3F JUMP JUMPDEST DUP3 PUSH0 ADD DUP2 SWAP1 SSTORE POP DUP2 PUSH1 0x3 ADD PUSH1 0x40 MLOAD DUP1 PUSH1 0x40 ADD PUSH1 0x40 MSTORE DUP1 DUP8 DUP2 MSTORE PUSH1 0x20 ADD DUP6 PUSH1 0x6 ADD SLOAD NUMBER PUSH2 0x2071 SWAP2 SWAP1 PUSH2 0x4BC5 JUMP JUMPDEST DUP2 MSTORE POP SWAP1 DUP1 PUSH1 0x1 DUP2 SLOAD ADD DUP1 DUP3 SSTORE DUP1 SWAP2 POP POP PUSH1 0x1 SWAP1 SUB SWAP1 PUSH0 MSTORE PUSH1 0x20 PUSH0 KECCAK256 SWAP1 PUSH1 0x2 MUL ADD PUSH0 SWAP1 SWAP2 SWAP1 SWAP2 SWAP1 SWAP2 POP PUSH0 DUP3 ADD MLOAD DUP2 PUSH0 ADD SSTORE PUSH1 0x20 DUP3 ADD MLOAD DUP2 PUSH1 0x1 ADD SSTORE POP POP JUMPDEST DUP5 DUP4 PUSH1 0x4 ADD SLOAD PUSH2 0x20BF SWAP2 SWAP1 PUSH2 0x4C3F JUMP JUMPDEST DUP4 PUSH1 0x4 ADD DUP2 SWAP1 SSTORE POP PUSH8 0xDE0B6B3A7640000 DUP4 PUSH1 0x3 ADD SLOAD DUP4 PUSH0 ADD SLOAD PUSH2 0x20E3 SWAP2 SWAP1 PUSH2 0x4D07 JUMP JUMPDEST PUSH2 0x20ED SWAP2 SWAP1 PUSH2 0x4D75 JUMP JUMPDEST DUP3 PUSH1 0x1 ADD DUP2 SWAP1 SSTORE POP DUP6 CALLER PUSH20 0xFFFFFFFFFFFFFFFFFFFFFFFFFFFFFFFFFFFFFFFF AND PUSH32 0xC80277265097707F6F12A4AC4C09D46C9926E2EEA2536F63616CB04D9FCAD7D6 DUP8 PUSH1 0x40 MLOAD PUSH2 0x213C SWAP2 SWAP1 PUSH2 0x42D6 JUMP JUMPDEST PUSH1 0x40 MLOAD DUP1 SWAP2 SUB SWAP1 LOG3 POP POP POP POP POP POP JUMP JUMPDEST PUSH1 0x2 SLOAD DUP2 JUMP JUMPDEST PUSH0 PUSH0 SHL DUP2 JUMP JUMPDEST PUSH1 0x3 PUSH1 0x1 SWAP1 SLOAD SWAP1 PUSH2 0x100 EXP SWAP1 DIV PUSH1 0xFF AND DUP2 JUMP JUMPDEST PUSH1 0x40 MLOAD DUP1 PUSH1 0x40 ADD PUSH1 0x40 MSTORE DUP1 PUSH1 0x5 DUP2 MSTORE PUSH1 0x20 ADD PUSH32 0x352E302E30000000000000000000000000000000000000000000000000000000 DUP2 MSTORE POP DUP2 JUMP JUMPDEST PUSH32 0x589D473BA17C0F47D494622893831497BAD25919B9AFB8E33E9521B8963FCCDE PUSH2 0x21CE DUP2 PUSH2 0x3143 JUMP JUMPDEST PUSH0 PUSH1 0x5 DUP1 SLOAD SWAP1 POP GT ISZERO PUSH2 0x224E JUMPI PUSH0 PUSH20 0xFFFFFFFFFFFFFFFFFFFFFFFFFFFFFFFFFFFFFFFF AND DUP7 PUSH20 0xFFFFFFFFFFFFFFFFFFFFFFFFFFFFFFFFFFFFFFFF AND SUB PUSH2 0x2249 JUMPI PUSH1 0x40 MLOAD PUSH32 0x8C379A000000000000000000000000000000000000000000000000000000000 DUP2 MSTORE PUSH1 0x4 ADD PUSH2 0x2240 SWAP1 PUSH2 0x5248 JUMP JUMPDEST PUSH1 0x40 MLOAD DUP1 SWAP2 SUB SWAP1 REVERT JUMPDEST PUSH2 0x22BD JUMP JUMPDEST PUSH0 PUSH20 0xFFFFFFFFFFFFFFFFFFFFFFFFFFFFFFFFFFFFFFFF AND DUP7 PUSH20 0xFFFFFFFFFFFFFFFFFFFFFFFFFFFFFFFFFFFFFFFF AND EQ PUSH2 0x22BC JUMPI PUSH1 0x40 MLOAD PUSH32 0x8C379A000000000000000000000000000000000000000000000000000000000 DUP2 MSTORE PUSH1 0x4 ADD PUSH2 0x22B3 SWAP1 PUSH2 0x5248 JUMP JUMPDEST PUSH1 0x40 MLOAD DUP1 SWAP2 SUB SWAP1 REVERT JUMPDEST JUMPDEST PUSH0 DUP4 GT PUSH2 0x22FF JUMPI PUSH1 0x40 MLOAD PUSH32 0x8C379A000000000000000000000000000000000000000000000000000000000 DUP2 MSTORE PUSH1 0x4 ADD PUSH2 0x22F6 SWAP1 PUSH2 0x52B0 JUMP JUMPDEST PUSH1 0x40 MLOAD DUP1 SWAP2 SUB SWAP1 REVERT JUMPDEST PUSH1 0x1 SLOAD NUMBER LT PUSH2 0x2343 JUMPI PUSH1 0x40 MLOAD PUSH32 0x8C379A000000000000000000000000000000000000000000000000000000000 DUP2 MSTORE PUSH1 0x4 ADD PUSH2 0x233A SWAP1 PUSH2 0x5318 JUMP JUMPDEST PUSH1 0x40 MLOAD DUP1 SWAP2 SUB SWAP1 REVERT JUMPDEST DUP2 ISZERO PUSH2 0x2352 JUMPI PUSH2 0x2351 PUSH2 0x1A46 JUMP JUMPDEST JUMPDEST PUSH0 PUSH0 SLOAD NUMBER GT PUSH2 0x2362 JUMPI PUSH0 SLOAD PUSH2 0x2364 JUMP JUMPDEST NUMBER JUMPDEST SWAP1 POP DUP6 PUSH1 0x4 SLOAD PUSH2 0x2374 SWAP2 SWAP1 PUSH2 0x4BC5 JUMP JUMPDEST PUSH1 0x4 DUP2 SWAP1 SSTORE POP PUSH1 0x5 PUSH1 0x40 MLOAD DUP1 PUSH1 0xE0 ADD PUSH1 0x40 MSTORE DUP1 DUP10 PUSH20 0xFFFFFFFFFFFFFFFFFFFFFFFFFFFFFFFFFFFFFFFF AND DUP2 MSTORE PUSH1 0x20 ADD DUP9 DUP2 MSTORE PUSH1 0x20 ADD DUP4 DUP2 MSTORE PUSH1 0x20 ADD PUSH0 DUP2 MSTORE PUSH1 0x20 ADD PUSH0 DUP2 MSTORE PUSH1 0x20 ADD DUP8 DUP2 MSTORE PUSH1 0x20 ADD DUP7 DUP2 MSTORE POP SWAP1 DUP1 PUSH1 0x1 DUP2 SLOAD ADD DUP1 DUP3 SSTORE DUP1 SWAP2 POP POP PUSH1 0x1 SWAP1 SUB SWAP1 PUSH0 MSTORE PUSH1 0x20 PUSH0 KECCAK256 SWAP1 PUSH1 0x7 MUL ADD PUSH0 SWAP1 SWAP2 SWAP1 SWAP2 SWAP1 SWAP2 POP PUSH0 DUP3 ADD MLOAD DUP2 PUSH0 ADD PUSH0 PUSH2 0x100 EXP DUP2 SLOAD DUP2 PUSH20 0xFFFFFFFFFFFFFFFFFFFFFFFFFFFFFFFFFFFFFFFF MUL NOT AND SWAP1 DUP4 PUSH20 0xFFFFFFFFFFFFFFFFFFFFFFFFFFFFFFFFFFFFFFFF AND MUL OR SWAP1 SSTORE POP PUSH1 0x20 DUP3 ADD MLOAD DUP2 PUSH1 0x1 ADD SSTORE PUSH1 0x40 DUP3 ADD MLOAD DUP2 PUSH1 0x2 ADD SSTORE PUSH1 0x60 DUP3 ADD MLOAD DUP2 PUSH1 0x3 ADD SSTORE PUSH1 0x80 DUP3 ADD MLOAD DUP2 PUSH1 0x4 ADD SSTORE PUSH1 0xA0 DUP3 ADD MLOAD DUP2 PUSH1 0x5 ADD SSTORE PUSH1 0xC0 DUP3 ADD MLOAD DUP2 PUSH1 0x6 ADD SSTORE POP POP DUP1 DUP7 DUP9 PUSH20 0xFFFFFFFFFFFFFFFFFFFFFFFFFFFFFFFFFFFFFFFF AND PUSH32 0xFA296FCE13E7A0E622B3A892E66220C248337289483A3CFA4130CDE0CAA1346 DUP9 DUP9 PUSH1 0x40 MLOAD PUSH2 0x24B7 SWAP3 SWAP2 SWAP1 PUSH2 0x4A74 JUMP JUMPDEST PUSH1 0x40 MLOAD DUP1 SWAP2 SUB SWAP1 LOG4 POP POP POP POP POP POP POP JUMP JUMPDEST PUSH32 0xCAB03BC4DBCC648CD59D6BBE9F848D1E9092F914016AA290EE92E18700D1E6F9 DUP2 JUMP JUMPDEST PUSH0 DUP2 JUMP JUMPDEST PUSH32 0x589D473BA17C0F47D494622893831497BAD25919B9AFB8E33E9521B8963FCCDE PUSH2 0x251A DUP2 PUSH2 0x3143 JUMP JUMPDEST DUP2 PUSH0 SLOAD GT ISZERO PUSH2 0x255E JUMPI PUSH1 0x40 MLOAD PUSH32 0x8C379A000000000000000000000000000000000000000000000000000000000 DUP2 MSTORE PUSH1 0x4 ADD PUSH2 0x2555 SWAP1 PUSH2 0x53A6 JUMP JUMPDEST PUSH1 0x40 MLOAD DUP1 SWAP2 SUB SWAP1 REVERT JUMPDEST DUP2 PUSH1 0x1 DUP2 SWAP1 SSTORE POP DUP2 PUSH32 0x1132C5BACCB51DA3D049FABC819697DC845FA224AD59D9B555507D6446B40850 PUSH1 0x40 MLOAD PUSH1 0x40 MLOAD DUP1 SWAP2 SUB SWAP1 LOG2 POP POP JUMP JUMPDEST PUSH1 0x3 PUSH1 0x2 SWAP1 SLOAD SWAP1 PUSH2 0x100 EXP SWAP1 DIV PUSH20 0xFFFFFFFFFFFFFFFFFFFFFFFFFFFFFFFFFFFFFFFF AND DUP2 JUMP JUMPDEST PUSH2 0x25C5 DUP3 PUSH2 0xBB3 JUMP JUMPDEST PUSH2 0x25CE DUP2 PUSH2 0x3143 JUMP JUMPDEST PUSH2 0x25D8 DUP4 DUP4 PUSH2 0x3256 JUMP JUMPDEST POP POP POP POP JUMP JUMPDEST PUSH32 0x589D473BA17C0F47D494622893831497BAD25919B9AFB8E33E9521B8963FCCDE PUSH2 0x2608 DUP2 PUSH2 0x3143 JUMP JUMPDEST PUSH0 DUP3 GT PUSH2 0x264A JUMPI PUSH1 0x40 MLOAD PUSH32 0x8C379A000000000000000000000000000000000000000000000000000000000 DUP2 MSTORE PUSH1 0x4 ADD PUSH2 0x2641 SWAP1 PUSH2 0x540E JUMP JUMPDEST PUSH1 0x40 MLOAD DUP1 SWAP2 SUB SWAP1 REVERT JUMPDEST DUP2 PUSH1 0x2 DUP2 SWAP1 SSTORE POP DUP2 PUSH32 0xA0B1720FAC15AB5B6E184FA4D22F43E0E2594AE0373A61A3FC48AEFB84AB92F7 PUSH1 0x40 MLOAD PUSH1 0x40 MLOAD DUP1 SWAP2 SUB SWAP1 LOG2 POP POP JUMP JUMPDEST PUSH32 0x589D473BA17C0F47D494622893831497BAD25919B9AFB8E33E9521B8963FCCDE PUSH2 0x26AC DUP2 PUSH2 0x3143 JUMP JUMPDEST DUP4 PUSH1 0x5 DUP1 SLOAD SWAP1 POP DUP2 LT PUSH2 0x26F4 JUMPI PUSH1 0x40 MLOAD PUSH32 0x8C379A000000000000000000000000000000000000000000000000000000000 DUP2 MSTORE PUSH1 0x4 ADD PUSH2 0x26EB SWAP1 PUSH2 0x4AE5 JUMP JUMPDEST PUSH1 0x40 MLOAD DUP1 SWAP2 SUB SWAP1 REVERT JUMPDEST DUP4 PUSH1 0x5 DUP7 DUP2 SLOAD DUP2 LT PUSH2 0x2709 JUMPI PUSH2 0x2708 PUSH2 0x4B6B JUMP JUMPDEST JUMPDEST SWAP1 PUSH0 MSTORE PUSH1 0x20 PUSH0 KECCAK256 SWAP1 PUSH1 0x7 MUL ADD PUSH1 0x5 ADD DUP2 SWAP1 SSTORE POP DUP3 PUSH1 0x5 DUP7 DUP2 SLOAD DUP2 LT PUSH2 0x2731 JUMPI PUSH2 0x2730 PUSH2 0x4B6B JUMP JUMPDEST JUMPDEST SWAP1 PUSH0 MSTORE PUSH1 0x20 PUSH0 KECCAK256 SWAP1 PUSH1 0x7 MUL ADD PUSH1 0x6 ADD DUP2 SWAP1 SSTORE POP DUP3 DUP5 DUP7 PUSH32 0x30DFFDEDAA3E3B4849298233F7CD71D229956E875AB09270498C96B7CF9181FD PUSH1 0x40 MLOAD PUSH1 0x40 MLOAD DUP1 SWAP2 SUB SWAP1 LOG4 POP POP POP POP POP JUMP JUMPDEST PUSH32 0x589D473BA17C0F47D494622893831497BAD25919B9AFB8E33E9521B8963FCCDE PUSH2 0x27A4 DUP2 PUSH2 0x3143 JUMP JUMPDEST PUSH1 0x3 PUSH1 0x1 SWAP1 SLOAD SWAP1 PUSH2 0x100 EXP SWAP1 DIV PUSH1 0xFF AND PUSH2 0x27F3 JUMPI PUSH1 0x40 MLOAD PUSH32 0x8C379A000000000000000000000000000000000000000000000000000000000 DUP2 MSTORE PUSH1 0x4 ADD PUSH2 0x27EA SWAP1 PUSH2 0x5476 JUMP JUMPDEST PUSH1 0x40 MLOAD DUP1 SWAP2 SUB SWAP1 REVERT JUMPDEST PUSH0 PUSH1 0x3 PUSH1 0x1 PUSH2 0x100 EXP DUP2 SLOAD DUP2 PUSH1 0xFF MUL NOT AND SWAP1 DUP4 ISZERO ISZERO MUL OR SWAP1 SSTORE POP PUSH32 0xE72CB12952F056E3E7496019725F20A13108CA420F67F1EE9C9CDAB73FB8CE85 PUSH1 0x40 MLOAD PUSH1 0x40 MLOAD DUP1 SWAP2 SUB SWAP1 LOG1 POP JUMP JUMPDEST PUSH2 0x2844 PUSH2 0x2F76 JUMP JUMPDEST DUP2 PUSH1 0x5 DUP1 SLOAD SWAP1 POP DUP2 LT PUSH2 0x288C JUMPI PUSH1 0x40 MLOAD PUSH32 0x8C379A000000000000000000000000000000000000000000000000000000000 DUP2 MSTORE PUSH1 0x4 ADD PUSH2 0x2883 SWAP1 PUSH2 0x4AE5 JUMP JUMPDEST PUSH1 0x40 MLOAD DUP1 SWAP2 SUB SWAP1 REVERT JUMPDEST PUSH0 DUP4 SUB PUSH2 0x28CE JUMPI PUSH1 0x40 MLOAD PUSH32 0x8C379A000000000000000000000000000000000000000000000000000000000 DUP2 MSTORE PUSH1 0x4 ADD PUSH2 0x28C5 SWAP1 PUSH2 0x54DE JUMP JUMPDEST PUSH1 0x40 MLOAD DUP1 SWAP2 SUB SWAP1 REVERT JUMPDEST PUSH0 PUSH1 0x5 DUP5 DUP2 SLOAD DUP2 LT PUSH2 0x28E3 JUMPI PUSH2 0x28E2 PUSH2 0x4B6B JUMP JUMPDEST JUMPDEST SWAP1 PUSH0 MSTORE PUSH1 0x20 PUSH0 KECCAK256 SWAP1 PUSH1 0x7 MUL ADD SWAP1 POP DUP1 PUSH1 0x5 ADD SLOAD DUP4 GT PUSH2 0x2937 JUMPI PUSH1 0x40 MLOAD PUSH32 0x8C379A000000000000000000000000000000000000000000000000000000000 DUP2 MSTORE PUSH1 0x4 ADD PUSH2 0x292E SWAP1 PUSH2 0x5546 JUMP JUMPDEST PUSH1 0x40 MLOAD DUP1 SWAP2 SUB SWAP1 REVERT JUMPDEST PUSH0 DUP4 GT ISZERO PUSH2 0x298F JUMPI PUSH2 0x298E CALLER ADDRESS DUP6 DUP5 PUSH0 ADD PUSH0 SWAP1 SLOAD SWAP1 PUSH2 0x100 EXP SWAP1 DIV PUSH20 0xFFFFFFFFFFFFFFFFFFFFFFFFFFFFFFFFFFFFFFFF AND PUSH20 0xFFFFFFFFFFFFFFFFFFFFFFFFFFFFFFFFFFFFFFFF AND PUSH2 0x389E SWAP1 SWAP4 SWAP3 SWAP2 SWAP1 PUSH4 0xFFFFFFFF AND JUMP JUMPDEST JUMPDEST PUSH2 0x2999 DUP5 DUP5 PUSH2 0x3920 JUMP JUMPDEST POP POP POP POP JUMP JUMPDEST PUSH0 DUP3 PUSH1 0x5 DUP1 SLOAD SWAP1 POP DUP2 LT PUSH2 0x29E8 JUMPI PUSH1 0x40 MLOAD PUSH32 0x8C379A000000000000000000000000000000000000000000000000000000000 DUP2 MSTORE PUSH1 0x4 ADD PUSH2 0x29DF SWAP1 PUSH2 0x4AE5 JUMP JUMPDEST PUSH1 0x40 MLOAD DUP1 SWAP2 SUB SWAP1 REVERT JUMPDEST PUSH2 0x29F3 DUP5 DUP5 NUMBER PUSH2 0x1A76 JUMP JUMPDEST SWAP2 POP POP SWAP3 SWAP2 POP POP JUMP JUMPDEST PUSH32 0x589D473BA17C0F47D494622893831497BAD25919B9AFB8E33E9521B8963FCCDE PUSH2 0x2A26 DUP2 PUSH2 0x3143 JUMP JUMPDEST PUSH1 0x1 SLOAD DUP3 GT ISZERO PUSH2 0x2A6B JUMPI PUSH1 0x40 MLOAD PUSH32 0x8C379A000000000000000000000000000000000000000000000000000000000 DUP2 MSTORE PUSH1 0x4 ADD PUSH2 0x2A62 SWAP1 PUSH2 0x53A6 JUMP JUMPDEST PUSH1 0x40 MLOAD DUP1 SWAP2 SUB SWAP1 REVERT JUMPDEST DUP2 PUSH0 DUP2 SWAP1 SSTORE POP DUP2 PUSH32 0x63B90B79F11A0F132BCB2C4A4DDD44ABDA45C1308A83B2919318DF7F5F8B7BE4 PUSH1 0x40 MLOAD PUSH1 0x40 MLOAD DUP1 SWAP2 SUB SWAP1 LOG2 POP POP JUMP JUMPDEST PUSH2 0x2AAA PUSH2 0x2F76 JUMP JUMPDEST PUSH0 PUSH1 0x5 PUSH0 DUP2 SLOAD DUP2 LT PUSH2 0x2ABF JUMPI PUSH2 0x2ABE PUSH2 0x4B6B JUMP JUMPDEST JUMPDEST SWAP1 PUSH0 MSTORE PUSH1 0x20 PUSH0 KECCAK256 SWAP1 PUSH1 0x7 MUL ADD SWAP1 POP PUSH0 PUSH20 0xFFFFFFFFFFFFFFFFFFFFFFFFFFFFFFFFFFFFFFFF AND DUP2 PUSH0 ADD PUSH0 SWAP1 SLOAD SWAP1 PUSH2 0x100 EXP SWAP1 DIV PUSH20 0xFFFFFFFFFFFFFFFFFFFFFFFFFFFFFFFFFFFFFFFF AND PUSH20 0xFFFFFFFFFFFFFFFFFFFFFFFFFFFFFFFFFFFFFFFF AND EQ PUSH2 0x2B5D JUMPI PUSH1 0x40 MLOAD PUSH32 0x8C379A000000000000000000000000000000000000000000000000000000000 DUP2 MSTORE PUSH1 0x4 ADD PUSH2 0x2B54 SWAP1 PUSH2 0x5248 JUMP JUMPDEST PUSH1 0x40 MLOAD DUP1 SWAP2 SUB SWAP1 REVERT JUMPDEST PUSH0 CALLVALUE SWAP1 POP DUP2 PUSH1 0x5 ADD SLOAD DUP2 LT ISZERO PUSH2 0x2BA8 JUMPI PUSH1 0x40 MLOAD PUSH32 0x8C379A000000000000000000000000000000000000000000000000000000000 DUP2 MSTORE PUSH1 0x4 ADD PUSH2 0x2B9F SWAP1 PUSH2 0x5546 JUMP JUMPDEST PUSH1 0x40 MLOAD DUP1 SWAP2 SUB SWAP1 REVERT JUMPDEST PUSH2 0x2BB2 PUSH0 DUP3 PUSH2 0x3920 JUMP JUMPDEST POP POP JUMP JUMPDEST PUSH32 0x589D473BA17C0F47D494622893831497BAD25919B9AFB8E33E9521B8963FCCDE PUSH2 0x2BE0 DUP2 PUSH2 0x3143 JUMP JUMPDEST DUP4 PUSH1 0x5 DUP1 SLOAD SWAP1 POP DUP2 LT PUSH2 0x2C28 JUMPI PUSH1 0x40 MLOAD PUSH32 0x8C379A000000000000000000000000000000000000000000000000000000000 DUP2 MSTORE PUSH1 0x4 ADD PUSH2 0x2C1F SWAP1 PUSH2 0x4AE5 JUMP JUMPDEST PUSH1 0x40 MLOAD DUP1 SWAP2 SUB SWAP1 REVERT JUMPDEST PUSH0 DUP5 GT PUSH2 0x2C6A JUMPI PUSH1 0x40 MLOAD PUSH32 0x8C379A000000000000000000000000000000000000000000000000000000000 DUP2 MSTORE PUSH1 0x4 ADD PUSH2 0x2C61 SWAP1 PUSH2 0x55AE JUMP JUMPDEST PUSH1 0x40 MLOAD DUP1 SWAP2 SUB SWAP1 REVERT JUMPDEST DUP3 ISZERO PUSH2 0x2C79 JUMPI PUSH2 0x2C78 PUSH2 0x1A46 JUMP JUMPDEST JUMPDEST DUP4 PUSH1 0x5 DUP7 DUP2 SLOAD DUP2 LT PUSH2 0x2C8E JUMPI PUSH2 0x2C8D PUSH2 0x4B6B JUMP JUMPDEST JUMPDEST SWAP1 PUSH0 MSTORE PUSH1 0x20 PUSH0 KECCAK256 SWAP1 PUSH1 0x7 MUL ADD PUSH1 0x1 ADD SLOAD PUSH1 0x4 SLOAD PUSH2 0x2CAB SWAP2 SWAP1 PUSH2 0x4C3F JUMP JUMPDEST PUSH2 0x2CB5 SWAP2 SWAP1 PUSH2 0x4BC5 JUMP JUMPDEST PUSH1 0x4 DUP2 SWAP1 SSTORE POP DUP4 PUSH1 0x5 DUP7 DUP2 SLOAD DUP2 LT PUSH2 0x2CD0 JUMPI PUSH2 0x2CCF PUSH2 0x4B6B JUMP JUMPDEST JUMPDEST SWAP1 PUSH0 MSTORE PUSH1 0x20 PUSH0 KECCAK256 SWAP1 PUSH1 0x7 MUL ADD PUSH1 0x1 ADD DUP2 SWAP1 SSTORE POP DUP4 DUP6 PUSH32 0x4B8FA3D6A87CB21D1BF4978BF60628AE358A28AC7F39DE1751A481C6DD957617 PUSH1 0x4 SLOAD PUSH1 0x40 MLOAD PUSH2 0x2D16 SWAP2 SWAP1 PUSH2 0x42D6 JUMP JUMPDEST PUSH1 0x40 MLOAD DUP1 SWAP2 SUB SWAP1 LOG3 POP POP POP POP POP JUMP JUMPDEST PUSH1 0x5 DUP2 DUP2 SLOAD DUP2 LT PUSH2 0x2D34 JUMPI PUSH0 DUP1 REVERT JUMPDEST SWAP1 PUSH0 MSTORE PUSH1 0x20 PUSH0 KECCAK256 SWAP1 PUSH1 0x7 MUL ADD PUSH0 SWAP2 POP SWAP1 POP DUP1 PUSH0 ADD PUSH0 SWAP1 SLOAD SWAP1 PUSH2 0x100 EXP SWAP1 DIV PUSH20 0xFFFFFFFFFFFFFFFFFFFFFFFFFFFFFFFFFFFFFFFF AND SWAP1 DUP1 PUSH1 0x1 ADD SLOAD SWAP1 DUP1 PUSH1 0x2 ADD SLOAD SWAP1 DUP1 PUSH1 0x3 ADD SLOAD SWAP1 DUP1 PUSH1 0x4 ADD SLOAD SWAP1 DUP1 PUSH1 0x5 ADD SLOAD SWAP1 DUP1 PUSH1 0x6 ADD SLOAD SWAP1 POP DUP8 JUMP JUMPDEST PUSH0 PUSH0 DUP4 PUSH1 0x5 DUP1 SLOAD SWAP1 POP DUP2 LT PUSH2 0x2DDB JUMPI PUSH1 0x40 MLOAD PUSH32 0x8C379A000000000000000000000000000000000000000000000000000000000 DUP2 MSTORE PUSH1 0x4 ADD PUSH2 0x2DD2 SWAP1 PUSH2 0x4AE5 JUMP JUMPDEST PUSH1 0x40 MLOAD DUP1 SWAP2 SUB SWAP1 REVERT JUMPDEST PUSH0 PUSH1 0x6 PUSH0 DUP8 DUP2 MSTORE PUSH1 0x20 ADD SWAP1 DUP2 MSTORE PUSH1 0x20 ADD PUSH0 KECCAK256 PUSH0 DUP7 PUSH20 0xFFFFFFFFFFFFFFFFFFFFFFFFFFFFFFFFFFFFFFFF AND PUSH20 0xFFFFFFFFFFFFFFFFFFFFFFFFFFFFFFFFFFFFFFFF AND DUP2 MSTORE PUSH1 0x20 ADD SWAP1 DUP2 MSTORE PUSH1 0x20 ADD PUSH0 KECCAK256 SWAP1 POP PUSH0 PUSH0 SWAP1 POP JUMPDEST DUP2 PUSH1 0x3 ADD DUP1 SLOAD SWAP1 POP DUP2 LT ISZERO PUSH2 0x2EDC JUMPI NUMBER DUP3 PUSH1 0x3 ADD DUP3 DUP2 SLOAD DUP2 LT PUSH2 0x2E55 JUMPI PUSH2 0x2E54 PUSH2 0x4B6B JUMP JUMPDEST JUMPDEST SWAP1 PUSH0 MSTORE PUSH1 0x20 PUSH0 KECCAK256 SWAP1 PUSH1 0x2 MUL ADD PUSH1 0x1 ADD SLOAD GT PUSH2 0x2E9D JUMPI DUP2 PUSH1 0x3 ADD DUP2 DUP2 SLOAD DUP2 LT PUSH2 0x2E80 JUMPI PUSH2 0x2E7F PUSH2 0x4B6B JUMP JUMPDEST JUMPDEST SWAP1 PUSH0 MSTORE PUSH1 0x20 PUSH0 KECCAK256 SWAP1 PUSH1 0x2 MUL ADD PUSH0 ADD SLOAD DUP5 PUSH2 0x2E9A SWAP2 SWAP1 PUSH2 0x4BC5 JUMP JUMPDEST SWAP4 POP JUMPDEST DUP2 PUSH1 0x3 ADD DUP2 DUP2 SLOAD DUP2 LT PUSH2 0x2EB3 JUMPI PUSH2 0x2EB2 PUSH2 0x4B6B JUMP JUMPDEST JUMPDEST SWAP1 PUSH0 MSTORE PUSH1 0x20 PUSH0 KECCAK256 SWAP1 PUSH1 0x2 MUL ADD PUSH0 ADD SLOAD DUP6 PUSH2 0x2ECD SWAP2 SWAP1 PUSH2 0x4BC5 JUMP JUMPDEST SWAP5 POP DUP1 DUP1 PUSH1 0x1 ADD SWAP2 POP POP PUSH2 0x2E2F JUMP JUMPDEST POP POP POP SWAP3 POP SWAP3 SWAP1 POP JUMP JUMPDEST PUSH0 PUSH32 0x1FFC9A700000000000000000000000000000000000000000000000000000000 PUSH28 0xFFFFFFFFFFFFFFFFFFFFFFFFFFFFFFFFFFFFFFFFFFFFFFFFFFFFFFFF NOT AND DUP3 PUSH28 0xFFFFFFFFFFFFFFFFFFFFFFFFFFFFFFFFFFFFFFFFFFFFFFFFFFFFFFFF NOT AND EQ SWAP1 POP SWAP2 SWAP1 POP JUMP JUMPDEST PUSH0 PUSH32 0x2DD7BC7DEC4DCEEDDA775E58DD541E08A116C6C53815C0BD028192F7B626800 SWAP1 POP SWAP1 JUMP JUMPDEST PUSH2 0x2F7E PUSH2 0x188E JUMP JUMPDEST ISZERO PUSH2 0x2FB5 JUMPI PUSH1 0x40 MLOAD PUSH32 0xD93C066500000000000000000000000000000000000000000000000000000000 DUP2 MSTORE PUSH1 0x4 ADD PUSH1 0x40 MLOAD DUP1 SWAP2 SUB SWAP1 REVERT JUMPDEST JUMP JUMPDEST PUSH0 PUSH0 DUP4 PUSH20 0xFFFFFFFFFFFFFFFFFFFFFFFFFFFFFFFFFFFFFFFF AND DUP4 PUSH1 0x40 MLOAD PUSH2 0x2FDD SWAP1 PUSH2 0x55F9 JUMP JUMPDEST PUSH0 PUSH1 0x40 MLOAD DUP1 DUP4 SUB DUP2 DUP6 DUP8 GAS CALL SWAP3 POP POP POP RETURNDATASIZE DUP1 PUSH0 DUP2 EQ PUSH2 0x3017 JUMPI PUSH1 0x40 MLOAD SWAP2 POP PUSH1 0x1F NOT PUSH1 0x3F RETURNDATASIZE ADD AND DUP3 ADD PUSH1 0x40 MSTORE RETURNDATASIZE DUP3 MSTORE RETURNDATASIZE PUSH0 PUSH1 0x20 DUP5 ADD RETURNDATACOPY PUSH2 0x301C JUMP JUMPDEST PUSH1 0x60 SWAP2 POP JUMPDEST POP SWAP2 POP SWAP2 POP DUP2 PUSH2 0x3061 JUMPI PUSH1 0x40 MLOAD PUSH32 0x8C379A000000000000000000000000000000000000000000000000000000000 DUP2 MSTORE PUSH1 0x4 ADD PUSH2 0x3058 SWAP1 PUSH2 0x5657 JUMP JUMPDEST PUSH1 0x40 MLOAD DUP1 SWAP2 SUB SWAP1 REVERT JUMPDEST PUSH0 DUP2 MLOAD GT ISZERO PUSH2 0x30BE JUMPI DUP1 DUP1 PUSH1 0x20 ADD SWAP1 MLOAD DUP2 ADD SWAP1 PUSH2 0x307E SWAP2 SWAP1 PUSH2 0x5689 JUMP JUMPDEST PUSH2 0x30BD JUMPI PUSH1 0x40 MLOAD PUSH32 0x8C379A000000000000000000000000000000000000000000000000000000000 DUP2 MSTORE PUSH1 0x4 ADD PUSH2 0x30B4 SWAP1 PUSH2 0x5724 JUMP JUMPDEST PUSH1 0x40 MLOAD DUP1 SWAP2 SUB SWAP1 REVERT JUMPDEST JUMPDEST POP POP POP POP JUMP JUMPDEST PUSH2 0x313E DUP4 DUP5 PUSH20 0xFFFFFFFFFFFFFFFFFFFFFFFFFFFFFFFFFFFFFFFF AND PUSH4 0xA9059CBB DUP6 DUP6 PUSH1 0x40 MLOAD PUSH1 0x24 ADD PUSH2 0x30F7 SWAP3 SWAP2 SWAP1 PUSH2 0x5742 JUMP JUMPDEST PUSH1 0x40 MLOAD PUSH1 0x20 DUP2 DUP4 SUB SUB DUP2 MSTORE SWAP1 PUSH1 0x40 MSTORE SWAP2 POP PUSH1 0xE0 SHL PUSH1 0x20 DUP3 ADD DUP1 MLOAD PUSH28 0xFFFFFFFFFFFFFFFFFFFFFFFFFFFFFFFFFFFFFFFFFFFFFFFFFFFFFFFF DUP4 DUP2 DUP4 AND OR DUP4 MSTORE POP POP POP POP PUSH2 0x3D36 JUMP JUMPDEST POP POP POP JUMP JUMPDEST PUSH2 0x3154 DUP2 PUSH2 0x314F PUSH2 0x324F JUMP JUMPDEST PUSH2 0x3DD1 JUMP JUMPDEST POP JUMP JUMPDEST PUSH0 PUSH0 PUSH2 0x3161 PUSH2 0x2F4F JUMP JUMPDEST SWAP1 POP PUSH2 0x316D DUP5 DUP5 PUSH2 0x1E04 JUMP JUMPDEST PUSH2 0x3244 JUMPI PUSH1 0x1 DUP2 PUSH0 ADD PUSH0 DUP7 DUP2 MSTORE PUSH1 0x20 ADD SWAP1 DUP2 MSTORE PUSH1 0x20 ADD PUSH0 KECCAK256 PUSH0 ADD PUSH0 DUP6 PUSH20 0xFFFFFFFFFFFFFFFFFFFFFFFFFFFFFFFFFFFFFFFF AND PUSH20 0xFFFFFFFFFFFFFFFFFFFFFFFFFFFFFFFFFFFFFFFF AND DUP2 MSTORE PUSH1 0x20 ADD SWAP1 DUP2 MSTORE PUSH1 0x20 ADD PUSH0 KECCAK256 PUSH0 PUSH2 0x100 EXP DUP2 SLOAD DUP2 PUSH1 0xFF MUL NOT AND SWAP1 DUP4 ISZERO ISZERO MUL OR SWAP1 SSTORE POP PUSH2 0x31E0 PUSH2 0x324F JUMP JUMPDEST PUSH20 0xFFFFFFFFFFFFFFFFFFFFFFFFFFFFFFFFFFFFFFFF AND DUP4 PUSH20 0xFFFFFFFFFFFFFFFFFFFFFFFFFFFFFFFFFFFFFFFF AND DUP6 PUSH32 0x2F8788117E7EFF1D82E926EC794901D17C78024A50270940304540A733656F0D PUSH1 0x40 MLOAD PUSH1 0x40 MLOAD DUP1 SWAP2 SUB SWAP1 LOG4 PUSH1 0x1 SWAP2 POP POP PUSH2 0x3249 JUMP JUMPDEST PUSH0 SWAP2 POP POP JUMPDEST SWAP3 SWAP2 POP POP JUMP JUMPDEST PUSH0 CALLER SWAP1 POP SWAP1 JUMP JUMPDEST PUSH0 PUSH0 PUSH2 0x3260 PUSH2 0x2F4F JUMP JUMPDEST SWAP1 POP PUSH2 0x326C DUP5 DUP5 PUSH2 0x1E04 JUMP JUMPDEST ISZERO PUSH2 0x3343 JUMPI PUSH0 DUP2 PUSH0 ADD PUSH0 DUP7 DUP2 MSTORE PUSH1 0x20 ADD SWAP1 DUP2 MSTORE PUSH1 0x20 ADD PUSH0 KECCAK256 PUSH0 ADD PUSH0 DUP6 PUSH20 0xFFFFFFFFFFFFFFFFFFFFFFFFFFFFFFFFFFFFFFFF AND PUSH20 0xFFFFFFFFFFFFFFFFFFFFFFFFFFFFFFFFFFFFFFFF AND DUP2 MSTORE PUSH1 0x20 ADD SWAP1 DUP2 MSTORE PUSH1 0x20 ADD PUSH0 KECCAK256 PUSH0 PUSH2 0x100 EXP DUP2 SLOAD DUP2 PUSH1 0xFF MUL NOT AND SWAP1 DUP4 ISZERO ISZERO MUL OR SWAP1 SSTORE POP PUSH2 0x32DF PUSH2 0x324F JUMP JUMPDEST PUSH20 0xFFFFFFFFFFFFFFFFFFFFFFFFFFFFFFFFFFFFFFFF AND DUP4 PUSH20 0xFFFFFFFFFFFFFFFFFFFFFFFFFFFFFFFFFFFFFFFF AND DUP6 PUSH32 0xF6391F5C32D9C69D2A47EA670B442974B53935D1EDC7FD64EB21E047A839171B PUSH1 0x40 MLOAD PUSH1 0x40 MLOAD DUP1 SWAP2 SUB SWAP1 LOG4 PUSH1 0x1 SWAP2 POP POP PUSH2 0x3348 JUMP JUMPDEST PUSH0 SWAP2 POP POP JUMPDEST SWAP3 SWAP2 POP POP JUMP JUMPDEST PUSH0 PUSH1 0x3 PUSH1 0x2 SWAP1 SLOAD SWAP1 PUSH2 0x100 EXP SWAP1 DIV PUSH20 0xFFFFFFFFFFFFFFFFFFFFFFFFFFFFFFFFFFFFFFFF AND PUSH20 0xFFFFFFFFFFFFFFFFFFFFFFFFFFFFFFFFFFFFFFFF AND PUSH4 0x70A08231 ADDRESS PUSH1 0x40 MLOAD DUP3 PUSH4 0xFFFFFFFF AND PUSH1 0xE0 SHL DUP2 MSTORE PUSH1 0x4 ADD PUSH2 0x33AA SWAP2 SWAP1 PUSH2 0x5769 JUMP JUMPDEST PUSH1 0x20 PUSH1 0x40 MLOAD DUP1 DUP4 SUB DUP2 DUP7 GAS STATICCALL ISZERO DUP1 ISZERO PUSH2 0x33C5 JUMPI RETURNDATASIZE PUSH0 PUSH0 RETURNDATACOPY RETURNDATASIZE PUSH0 REVERT JUMPDEST POP POP POP POP PUSH1 0x40 MLOAD RETURNDATASIZE PUSH1 0x1F NOT PUSH1 0x1F DUP3 ADD AND DUP3 ADD DUP1 PUSH1 0x40 MSTORE POP DUP2 ADD SWAP1 PUSH2 0x33E9 SWAP2 SWAP1 PUSH2 0x5796 JUMP JUMPDEST SWAP1 POP DUP1 DUP3 GT ISZERO PUSH2 0x3496 JUMPI PUSH1 0x3 PUSH1 0x2 SWAP1 SLOAD SWAP1 PUSH2 0x100 EXP SWAP1 DIV PUSH20 0xFFFFFFFFFFFFFFFFFFFFFFFFFFFFFFFFFFFFFFFF AND PUSH20 0xFFFFFFFFFFFFFFFFFFFFFFFFFFFFFFFFFFFFFFFF AND PUSH4 0xA9059CBB DUP5 DUP4 PUSH1 0x40 MLOAD DUP4 PUSH4 0xFFFFFFFF AND PUSH1 0xE0 SHL DUP2 MSTORE PUSH1 0x4 ADD PUSH2 0x3450 SWAP3 SWAP2 SWAP1 PUSH2 0x5742 JUMP JUMPDEST PUSH1 0x20 PUSH1 0x40 MLOAD DUP1 DUP4 SUB DUP2 PUSH0 DUP8 GAS CALL ISZERO DUP1 ISZERO PUSH2 0x346C JUMPI RETURNDATASIZE PUSH0 PUSH0 RETURNDATACOPY RETURNDATASIZE PUSH0 REVERT JUMPDEST POP POP POP POP PUSH1 0x40 MLOAD RETURNDATASIZE PUSH1 0x1F NOT PUSH1 0x1F DUP3 ADD AND DUP3 ADD DUP1 PUSH1 0x40 MSTORE POP DUP2 ADD SWAP1 PUSH2 0x3490 SWAP2 SWAP1 PUSH2 0x5689 JUMP JUMPDEST POP PUSH2 0x3535 JUMP JUMPDEST PUSH1 0x3 PUSH1 0x2 SWAP1 SLOAD SWAP1 PUSH2 0x100 EXP SWAP1 DIV PUSH20 0xFFFFFFFFFFFFFFFFFFFFFFFFFFFFFFFFFFFFFFFF AND PUSH20 0xFFFFFFFFFFFFFFFFFFFFFFFFFFFFFFFFFFFFFFFF AND PUSH4 0xA9059CBB DUP5 DUP5 PUSH1 0x40 MLOAD DUP4 PUSH4 0xFFFFFFFF AND PUSH1 0xE0 SHL DUP2 MSTORE PUSH1 0x4 ADD PUSH2 0x34F3 SWAP3 SWAP2 SWAP1 PUSH2 0x5742 JUMP JUMPDEST PUSH1 0x20 PUSH1 0x40 MLOAD DUP1 DUP4 SUB DUP2 PUSH0 DUP8 GAS CALL ISZERO DUP1 ISZERO PUSH2 0x350F JUMPI RETURNDATASIZE PUSH0 PUSH0 RETURNDATACOPY RETURNDATASIZE PUSH0 REVERT JUMPDEST POP POP POP POP PUSH1 0x40 MLOAD RETURNDATASIZE PUSH1 0x1F NOT PUSH1 0x1F DUP3 ADD AND DUP3 ADD DUP1 PUSH1 0x40 MSTORE POP DUP2 ADD SWAP1 PUSH2 0x3533 SWAP2 SWAP1 PUSH2 0x5689 JUMP JUMPDEST POP JUMPDEST POP POP POP JUMP JUMPDEST PUSH0 PUSH0 PUSH2 0x3544 PUSH2 0x3E22 JUMP JUMPDEST SWAP1 POP DUP1 SWAP2 POP POP SWAP1 JUMP JUMPDEST PUSH2 0x3555 PUSH2 0x3E4B JUMP JUMPDEST JUMP JUMPDEST PUSH2 0x355F PUSH2 0x3E4B JUMP JUMPDEST JUMP JUMPDEST PUSH32 0x0 PUSH20 0xFFFFFFFFFFFFFFFFFFFFFFFFFFFFFFFFFFFFFFFF AND ADDRESS PUSH20 0xFFFFFFFFFFFFFFFFFFFFFFFFFFFFFFFFFFFFFFFF AND EQ DUP1 PUSH2 0x360E JUMPI POP PUSH32 0x0 PUSH20 0xFFFFFFFFFFFFFFFFFFFFFFFFFFFFFFFFFFFFFFFF AND PUSH2 0x35F5 PUSH2 0x3E8B JUMP JUMPDEST PUSH20 0xFFFFFFFFFFFFFFFFFFFFFFFFFFFFFFFFFFFFFFFF AND EQ ISZERO JUMPDEST ISZERO PUSH2 0x3645 JUMPI PUSH1 0x40 MLOAD PUSH32 0xE07C8DBA00000000000000000000000000000000000000000000000000000000 DUP2 MSTORE PUSH1 0x4 ADD PUSH1 0x40 MLOAD DUP1 SWAP2 SUB SWAP1 REVERT JUMPDEST JUMP JUMPDEST PUSH32 0xCAB03BC4DBCC648CD59D6BBE9F848D1E9092F914016AA290EE92E18700D1E6F9 PUSH2 0x3671 DUP2 PUSH2 0x3143 JUMP JUMPDEST POP POP JUMP JUMPDEST DUP2 PUSH20 0xFFFFFFFFFFFFFFFFFFFFFFFFFFFFFFFFFFFFFFFF AND PUSH4 0x52D1902D PUSH1 0x40 MLOAD DUP2 PUSH4 0xFFFFFFFF AND PUSH1 0xE0 SHL DUP2 MSTORE PUSH1 0x4 ADD PUSH1 0x20 PUSH1 0x40 MLOAD DUP1 DUP4 SUB DUP2 DUP7 GAS STATICCALL SWAP3 POP POP POP DUP1 ISZERO PUSH2 0x36DD JUMPI POP PUSH1 0x40 MLOAD RETURNDATASIZE PUSH1 0x1F NOT PUSH1 0x1F DUP3 ADD AND DUP3 ADD DUP1 PUSH1 0x40 MSTORE POP DUP2 ADD SWAP1 PUSH2 0x36DA SWAP2 SWAP1 PUSH2 0x57D5 JUMP JUMPDEST PUSH1 0x1 JUMPDEST PUSH2 0x371E JUMPI DUP2 PUSH1 0x40 MLOAD PUSH32 0x4C9C8CE300000000000000000000000000000000000000000000000000000000 DUP2 MSTORE PUSH1 0x4 ADD PUSH2 0x3715 SWAP2 SWAP1 PUSH2 0x5769 JUMP JUMPDEST PUSH1 0x40 MLOAD DUP1 SWAP2 SUB SWAP1 REVERT JUMPDEST PUSH32 0x360894A13BA1A3210667C828492DB98DCA3E2076CC3735A920A3CA505D382BBC PUSH0 SHL DUP2 EQ PUSH2 0x3784 JUMPI DUP1 PUSH1 0x40 MLOAD PUSH32 0xAA1D49A400000000000000000000000000000000000000000000000000000000 DUP2 MSTORE PUSH1 0x4 ADD PUSH2 0x377B SWAP2 SWAP1 PUSH2 0x441E JUMP JUMPDEST PUSH1 0x40 MLOAD DUP1 SWAP2 SUB SWAP1 REVERT JUMPDEST PUSH2 0x378E DUP4 DUP4 PUSH2 0x3EDE JUMP JUMPDEST POP POP POP JUMP JUMPDEST PUSH0 PUSH0 PUSH0 DUP4 DUP6 MUL SWAP1 POP DUP5 ISZERO DUP5 DUP7 DUP4 DIV EQ OR SWAP3 POP PUSH2 0x37AE DUP4 PUSH2 0x3F50 JUMP JUMPDEST DUP2 MUL SWAP2 POP POP SWAP3 POP SWAP3 SWAP1 POP JUMP JUMPDEST PUSH0 PUSH0 PUSH0 DUP4 GT SWAP2 POP DUP3 DUP5 DIV SWAP1 POP SWAP3 POP SWAP3 SWAP1 POP JUMP JUMPDEST PUSH0 PUSH0 PUSH0 DUP4 DUP6 ADD SWAP1 POP DUP5 DUP2 LT ISZERO SWAP3 POP PUSH2 0x37E4 DUP4 PUSH2 0x3F50 JUMP JUMPDEST DUP2 MUL SWAP2 POP POP SWAP3 POP SWAP3 SWAP1 POP JUMP JUMPDEST PUSH32 0x0 PUSH20 0xFFFFFFFFFFFFFFFFFFFFFFFFFFFFFFFFFFFFFFFF AND ADDRESS PUSH20 0xFFFFFFFFFFFFFFFFFFFFFFFFFFFFFFFFFFFFFFFF AND EQ PUSH2 0x3875 JUMPI PUSH1 0x40 MLOAD PUSH32 0xE07C8DBA00000000000000000000000000000000000000000000000000000000 DUP2 MSTORE PUSH1 0x4 ADD PUSH1 0x40 MLOAD DUP1 SWAP2 SUB SWAP1 REVERT JUMPDEST JUMP JUMPDEST PUSH0 PUSH32 0xCD5ED15C6E187E77E9AEE88184C21F4F2182AB5827CB3B7E07FBEDCD63F03300 SWAP1 POP SWAP1 JUMP JUMPDEST PUSH2 0x391A DUP5 DUP6 PUSH20 0xFFFFFFFFFFFFFFFFFFFFFFFFFFFFFFFFFFFFFFFF AND PUSH4 0x23B872DD DUP7 DUP7 DUP7 PUSH1 0x40 MLOAD PUSH1 0x24 ADD PUSH2 0x38D3 SWAP4 SWAP3 SWAP2 SWAP1 PUSH2 0x5800 JUMP JUMPDEST PUSH1 0x40 MLOAD PUSH1 0x20 DUP2 DUP4 SUB SUB DUP2 MSTORE SWAP1 PUSH1 0x40 MSTORE SWAP2 POP PUSH1 0xE0 SHL PUSH1 0x20 DUP3 ADD DUP1 MLOAD PUSH28 0xFFFFFFFFFFFFFFFFFFFFFFFFFFFFFFFFFFFFFFFFFFFFFFFFFFFFFFFF DUP4 DUP2 DUP4 AND OR DUP4 MSTORE POP POP POP POP PUSH2 0x3D36 JUMP JUMPDEST POP POP POP POP JUMP JUMPDEST PUSH0 PUSH1 0x5 DUP4 DUP2 SLOAD DUP2 LT PUSH2 0x3935 JUMPI PUSH2 0x3934 PUSH2 0x4B6B JUMP JUMPDEST JUMPDEST SWAP1 PUSH0 MSTORE PUSH1 0x20 PUSH0 KECCAK256 SWAP1 PUSH1 0x7 MUL ADD SWAP1 POP PUSH0 PUSH1 0x6 PUSH0 DUP6 DUP2 MSTORE PUSH1 0x20 ADD SWAP1 DUP2 MSTORE PUSH1 0x20 ADD PUSH0 KECCAK256 PUSH0 CALLER PUSH20 0xFFFFFFFFFFFFFFFFFFFFFFFFFFFFFFFFFFFFFFFF AND PUSH20 0xFFFFFFFFFFFFFFFFFFFFFFFFFFFFFFFFFFFFFFFF AND DUP2 MSTORE PUSH1 0x20 ADD SWAP1 DUP2 MSTORE PUSH1 0x20 ADD PUSH0 KECCAK256 SWAP1 POP PUSH2 0x399B DUP5 PUSH2 0x14D4 JUMP JUMPDEST PUSH0 DUP2 PUSH0 ADD SLOAD GT ISZERO PUSH2 0x3B3C JUMPI PUSH0 PUSH0 PUSH2 0x39C2 DUP5 PUSH1 0x3 ADD SLOAD DUP5 PUSH0 ADD SLOAD PUSH2 0x3793 SWAP1 SWAP2 SWAP1 PUSH4 0xFFFFFFFF AND JUMP JUMPDEST SWAP2 POP SWAP2 POP DUP2 PUSH2 0x3A06 JUMPI PUSH1 0x40 MLOAD PUSH32 0x8C379A000000000000000000000000000000000000000000000000000000000 DUP2 MSTORE PUSH1 0x4 ADD PUSH2 0x39FD SWAP1 PUSH2 0x58A5 JUMP JUMPDEST PUSH1 0x40 MLOAD DUP1 SWAP2 SUB SWAP1 REVERT JUMPDEST PUSH2 0x3A21 PUSH8 0xDE0B6B3A7640000 DUP3 PUSH2 0x37BA SWAP1 SWAP2 SWAP1 PUSH4 0xFFFFFFFF AND JUMP JUMPDEST DUP1 SWAP3 POP DUP2 SWAP4 POP POP POP DUP2 PUSH2 0x3A69 JUMPI PUSH1 0x40 MLOAD PUSH32 0x8C379A000000000000000000000000000000000000000000000000000000000 DUP2 MSTORE PUSH1 0x4 ADD PUSH2 0x3A60 SWAP1 PUSH2 0x590D JUMP JUMPDEST PUSH1 0x40 MLOAD DUP1 SWAP2 SUB SWAP1 REVERT JUMPDEST PUSH0 PUSH0 PUSH2 0x3A82 DUP6 PUSH1 0x1 ADD SLOAD DUP5 PUSH2 0x3F5B SWAP1 SWAP2 SWAP1 PUSH4 0xFFFFFFFF AND JUMP JUMPDEST SWAP2 POP SWAP2 POP DUP2 PUSH2 0x3AC6 JUMPI PUSH1 0x40 MLOAD PUSH32 0x8C379A000000000000000000000000000000000000000000000000000000000 DUP2 MSTORE PUSH1 0x4 ADD PUSH2 0x3ABD SWAP1 PUSH2 0x599B JUMP JUMPDEST PUSH1 0x40 MLOAD DUP1 SWAP2 SUB SWAP1 REVERT JUMPDEST PUSH0 DUP2 GT ISZERO PUSH2 0x3B37 JUMPI PUSH0 PUSH0 PUSH2 0x3AE7 DUP4 DUP9 PUSH1 0x2 ADD SLOAD PUSH2 0x37CD SWAP1 SWAP2 SWAP1 PUSH4 0xFFFFFFFF AND JUMP JUMPDEST SWAP2 POP SWAP2 POP DUP2 PUSH2 0x3B2B JUMPI PUSH1 0x40 MLOAD PUSH32 0x8C379A000000000000000000000000000000000000000000000000000000000 DUP2 MSTORE PUSH1 0x4 ADD PUSH2 0x3B22 SWAP1 PUSH2 0x5A03 JUMP JUMPDEST PUSH1 0x40 MLOAD DUP1 SWAP2 SUB SWAP1 REVERT JUMPDEST DUP1 DUP8 PUSH1 0x2 ADD DUP2 SWAP1 SSTORE POP POP POP JUMPDEST POP POP POP POP JUMPDEST PUSH0 DUP4 GT ISZERO PUSH2 0x3BAB JUMPI PUSH0 PUSH0 PUSH2 0x3B5C DUP6 DUP5 PUSH0 ADD SLOAD PUSH2 0x37CD SWAP1 SWAP2 SWAP1 PUSH4 0xFFFFFFFF AND JUMP JUMPDEST SWAP2 POP SWAP2 POP DUP2 PUSH2 0x3BA0 JUMPI PUSH1 0x40 MLOAD PUSH32 0x8C379A000000000000000000000000000000000000000000000000000000000 DUP2 MSTORE PUSH1 0x4 ADD PUSH2 0x3B97 SWAP1 PUSH2 0x5A6B JUMP JUMPDEST PUSH1 0x40 MLOAD DUP1 SWAP2 SUB SWAP1 REVERT JUMPDEST DUP1 DUP4 PUSH0 ADD DUP2 SWAP1 SSTORE POP POP POP JUMPDEST PUSH0 PUSH0 PUSH2 0x3BC4 DUP6 DUP6 PUSH1 0x4 ADD SLOAD PUSH2 0x37CD SWAP1 SWAP2 SWAP1 PUSH4 0xFFFFFFFF AND JUMP JUMPDEST SWAP2 POP SWAP2 POP DUP2 PUSH2 0x3C08 JUMPI PUSH1 0x40 MLOAD PUSH32 0x8C379A000000000000000000000000000000000000000000000000000000000 DUP2 MSTORE PUSH1 0x4 ADD PUSH2 0x3BFF SWAP1 PUSH2 0x5AD3 JUMP JUMPDEST PUSH1 0x40 MLOAD DUP1 SWAP2 SUB SWAP1 REVERT JUMPDEST DUP1 DUP5 PUSH1 0x4 ADD DUP2 SWAP1 SSTORE POP PUSH0 PUSH0 PUSH2 0x3C2D DUP7 PUSH1 0x3 ADD SLOAD DUP7 PUSH0 ADD SLOAD PUSH2 0x3793 SWAP1 SWAP2 SWAP1 PUSH4 0xFFFFFFFF AND JUMP JUMPDEST SWAP2 POP SWAP2 POP DUP2 PUSH2 0x3C71 JUMPI PUSH1 0x40 MLOAD PUSH32 0x8C379A000000000000000000000000000000000000000000000000000000000 DUP2 MSTORE PUSH1 0x4 ADD PUSH2 0x3C68 SWAP1 PUSH2 0x58A5 JUMP JUMPDEST PUSH1 0x40 MLOAD DUP1 SWAP2 SUB SWAP1 REVERT JUMPDEST PUSH2 0x3C8C PUSH8 0xDE0B6B3A7640000 DUP3 PUSH2 0x37BA SWAP1 SWAP2 SWAP1 PUSH4 0xFFFFFFFF AND JUMP JUMPDEST DUP1 SWAP3 POP DUP2 SWAP4 POP POP POP DUP2 PUSH2 0x3CD4 JUMPI PUSH1 0x40 MLOAD PUSH32 0x8C379A000000000000000000000000000000000000000000000000000000000 DUP2 MSTORE PUSH1 0x4 ADD PUSH2 0x3CCB SWAP1 PUSH2 0x5B61 JUMP JUMPDEST PUSH1 0x40 MLOAD DUP1 SWAP2 SUB SWAP1 REVERT JUMPDEST DUP1 DUP6 PUSH1 0x1 ADD DUP2 SWAP1 SSTORE POP DUP8 CALLER PUSH20 0xFFFFFFFFFFFFFFFFFFFFFFFFFFFFFFFFFFFFFFFF AND PUSH32 0x90890809C654F11D6E72A28FA60149770A0D11EC6C92319D6CEB2BB0A4EA1A15 DUP10 PUSH1 0x40 MLOAD PUSH2 0x3D24 SWAP2 SWAP1 PUSH2 0x42D6 JUMP JUMPDEST PUSH1 0x40 MLOAD DUP1 SWAP2 SUB SWAP1 LOG3 POP POP POP POP POP POP POP POP JUMP JUMPDEST PUSH0 PUSH0 PUSH1 0x20 PUSH0 DUP5 MLOAD PUSH1 0x20 DUP7 ADD PUSH0 DUP9 GAS CALL DUP1 PUSH2 0x3D55 JUMPI PUSH1 0x40 MLOAD RETURNDATASIZE PUSH0 DUP3 RETURNDATACOPY RETURNDATASIZE DUP2 REVERT JUMPDEST RETURNDATASIZE SWAP3 POP PUSH0 MLOAD SWAP2 POP POP PUSH0 DUP3 EQ PUSH2 0x3D6E JUMPI PUSH1 0x1 DUP2 EQ ISZERO PUSH2 0x3D89 JUMP JUMPDEST PUSH0 DUP5 PUSH20 0xFFFFFFFFFFFFFFFFFFFFFFFFFFFFFFFFFFFFFFFF AND EXTCODESIZE EQ JUMPDEST ISZERO PUSH2 0x3DCB JUMPI DUP4 PUSH1 0x40 MLOAD PUSH32 0x5274AFE700000000000000000000000000000000000000000000000000000000 DUP2 MSTORE PUSH1 0x4 ADD PUSH2 0x3DC2 SWAP2 SWAP1 PUSH2 0x5769 JUMP JUMPDEST PUSH1 0x40 MLOAD DUP1 SWAP2 SUB SWAP1 REVERT JUMPDEST POP POP POP POP JUMP JUMPDEST PUSH2 0x3DDB DUP3 DUP3 PUSH2 0x1E04 JUMP JUMPDEST PUSH2 0x3E1E JUMPI DUP1 DUP3 PUSH1 0x40 MLOAD PUSH32 0xE2517D3F00000000000000000000000000000000000000000000000000000000 DUP2 MSTORE PUSH1 0x4 ADD PUSH2 0x3E15 SWAP3 SWAP2 SWAP1 PUSH2 0x5B7F JUMP JUMPDEST PUSH1 0x40 MLOAD DUP1 SWAP2 SUB SWAP1 REVERT JUMPDEST POP POP JUMP JUMPDEST PUSH0 PUSH32 0xF0C57E16840DF040F15088DC2F81FE391C3923BEC73E23A9662EFC9C229C6A00 PUSH0 SHL SWAP1 POP SWAP1 JUMP JUMPDEST PUSH2 0x3E53 PUSH2 0x3F7E JUMP JUMPDEST PUSH2 0x3E89 JUMPI PUSH1 0x40 MLOAD PUSH32 0xD7E6BCF800000000000000000000000000000000000000000000000000000000 DUP2 MSTORE PUSH1 0x4 ADD PUSH1 0x40 MLOAD DUP1 SWAP2 SUB SWAP1 REVERT JUMPDEST JUMP JUMPDEST PUSH0 PUSH2 0x3EB7 PUSH32 0x360894A13BA1A3210667C828492DB98DCA3E2076CC3735A920A3CA505D382BBC PUSH0 SHL PUSH2 0x3F9C JUMP JUMPDEST PUSH0 ADD PUSH0 SWAP1 SLOAD SWAP1 PUSH2 0x100 EXP SWAP1 DIV PUSH20 0xFFFFFFFFFFFFFFFFFFFFFFFFFFFFFFFFFFFFFFFF AND SWAP1 POP SWAP1 JUMP JUMPDEST PUSH2 0x3EE7 DUP3 PUSH2 0x3FA5 JUMP JUMPDEST DUP2 PUSH20 0xFFFFFFFFFFFFFFFFFFFFFFFFFFFFFFFFFFFFFFFF AND PUSH32 0xBC7CD75A20EE27FD9ADEBAB32041F755214DBC6BFFA90CC0225B39DA2E5C2D3B PUSH1 0x40 MLOAD PUSH1 0x40 MLOAD DUP1 SWAP2 SUB SWAP1 LOG2 PUSH0 DUP2 MLOAD GT ISZERO PUSH2 0x3F43 JUMPI PUSH2 0x3F3D DUP3 DUP3 PUSH2 0x406E JUMP JUMPDEST POP PUSH2 0x3F4C JUMP JUMPDEST PUSH2 0x3F4B PUSH2 0x40EE JUMP JUMPDEST JUMPDEST POP POP JUMP JUMPDEST PUSH0 DUP2 ISZERO ISZERO SWAP1 POP SWAP2 SWAP1 POP JUMP JUMPDEST PUSH0 PUSH0 PUSH0 DUP4 DUP6 SUB SWAP1 POP DUP5 DUP2 GT ISZERO SWAP3 POP PUSH2 0x3F72 DUP4 PUSH2 0x3F50 JUMP JUMPDEST DUP2 MUL SWAP2 POP POP SWAP3 POP SWAP3 SWAP1 POP JUMP JUMPDEST PUSH0 PUSH2 0x3F87 PUSH2 0x353A JUMP JUMPDEST PUSH0 ADD PUSH1 0x8 SWAP1 SLOAD SWAP1 PUSH2 0x100 EXP SWAP1 DIV PUSH1 0xFF AND SWAP1 POP SWAP1 JUMP JUMPDEST PUSH0 DUP2 SWAP1 POP SWAP2 SWAP1 POP JUMP JUMPDEST PUSH0 DUP2 PUSH20 0xFFFFFFFFFFFFFFFFFFFFFFFFFFFFFFFFFFFFFFFF AND EXTCODESIZE SUB PUSH2 0x4000 JUMPI DUP1 PUSH1 0x40 MLOAD PUSH32 0x4C9C8CE300000000000000000000000000000000000000000000000000000000 DUP2 MSTORE PUSH1 0x4 ADD PUSH2 0x3FF7 SWAP2 SWAP1 PUSH2 0x5769 JUMP JUMPDEST PUSH1 0x40 MLOAD DUP1 SWAP2 SUB SWAP1 REVERT JUMPDEST DUP1 PUSH2 0x402C PUSH32 0x360894A13BA1A3210667C828492DB98DCA3E2076CC3735A920A3CA505D382BBC PUSH0 SHL PUSH2 0x3F9C JUMP JUMPDEST PUSH0 ADD PUSH0 PUSH2 0x100 EXP DUP2 SLOAD DUP2 PUSH20 0xFFFFFFFFFFFFFFFFFFFFFFFFFFFFFFFFFFFFFFFF MUL NOT AND SWAP1 DUP4 PUSH20 0xFFFFFFFFFFFFFFFFFFFFFFFFFFFFFFFFFFFFFFFF AND MUL OR SWAP1 SSTORE POP POP JUMP JUMPDEST PUSH1 0x60 PUSH0 PUSH0 DUP5 PUSH20 0xFFFFFFFFFFFFFFFFFFFFFFFFFFFFFFFFFFFFFFFF AND DUP5 PUSH1 0x40 MLOAD PUSH2 0x4097 SWAP2 SWAP1 PUSH2 0x5BE0 JUMP JUMPDEST PUSH0 PUSH1 0x40 MLOAD DUP1 DUP4 SUB DUP2 DUP6 GAS DELEGATECALL SWAP2 POP POP RETURNDATASIZE DUP1 PUSH0 DUP2 EQ PUSH2 0x40CF JUMPI PUSH1 0x40 MLOAD SWAP2 POP PUSH1 0x1F NOT PUSH1 0x3F RETURNDATASIZE ADD AND DUP3 ADD PUSH1 0x40 MSTORE RETURNDATASIZE DUP3 MSTORE RETURNDATASIZE PUSH0 PUSH1 0x20 DUP5 ADD RETURNDATACOPY PUSH2 0x40D4 JUMP JUMPDEST PUSH1 0x60 SWAP2 POP JUMPDEST POP SWAP2 POP SWAP2 POP PUSH2 0x40E4 DUP6 DUP4 DUP4 PUSH2 0x412A JUMP JUMPDEST SWAP3 POP POP POP SWAP3 SWAP2 POP POP JUMP JUMPDEST PUSH0 CALLVALUE GT ISZERO PUSH2 0x4128 JUMPI PUSH1 0x40 MLOAD PUSH32 0xB398979F00000000000000000000000000000000000000000000000000000000 DUP2 MSTORE PUSH1 0x4 ADD PUSH1 0x40 MLOAD DUP1 SWAP2 SUB SWAP1 REVERT JUMPDEST JUMP JUMPDEST PUSH1 0x60 DUP3 PUSH2 0x413F JUMPI PUSH2 0x413A DUP3 PUSH2 0x41B7 JUMP JUMPDEST PUSH2 0x41AF JUMP JUMPDEST PUSH0 DUP3 MLOAD EQ DUP1 ISZERO PUSH2 0x4165 JUMPI POP PUSH0 DUP5 PUSH20 0xFFFFFFFFFFFFFFFFFFFFFFFFFFFFFFFFFFFFFFFF AND EXTCODESIZE EQ JUMPDEST ISZERO PUSH2 0x41A7 JUMPI DUP4 PUSH1 0x40 MLOAD PUSH32 0x9996B31500000000000000000000000000000000000000000000000000000000 DUP2 MSTORE PUSH1 0x4 ADD PUSH2 0x419E SWAP2 SWAP1 PUSH2 0x5769 JUMP JUMPDEST PUSH1 0x40 MLOAD DUP1 SWAP2 SUB SWAP1 REVERT JUMPDEST DUP2 SWAP1 POP PUSH2 0x41B0 JUMP JUMPDEST JUMPDEST SWAP4 SWAP3 POP POP POP JUMP JUMPDEST PUSH0 DUP2 MLOAD GT ISZERO PUSH2 0x41C8 JUMPI DUP1 MLOAD PUSH1 0x20 DUP3 ADD REVERT JUMPDEST PUSH1 0x40 MLOAD PUSH32 0xD6BDA27500000000000000000000000000000000000000000000000000000000 DUP2 MSTORE PUSH1 0x4 ADD PUSH1 0x40 MLOAD DUP1 SWAP2 SUB SWAP1 REVERT JUMPDEST PUSH0 PUSH1 0x40 MLOAD SWAP1 POP SWAP1 JUMP JUMPDEST PUSH0 PUSH0 REVERT JUMPDEST PUSH0 PUSH0 REVERT JUMPDEST PUSH0 PUSH32 0xFFFFFFFF00000000000000000000000000000000000000000000000000000000 DUP3 AND SWAP1 POP SWAP2 SWAP1 POP JUMP JUMPDEST PUSH2 0x423F DUP2 PUSH2 0x420B JUMP JUMPDEST DUP2 EQ PUSH2 0x4249 JUMPI PUSH0 PUSH0 REVERT JUMPDEST POP JUMP JUMPDEST PUSH0 DUP2 CALLDATALOAD SWAP1 POP PUSH2 0x425A DUP2 PUSH2 0x4236 JUMP JUMPDEST SWAP3 SWAP2 POP POP JUMP JUMPDEST PUSH0 PUSH1 0x20 DUP3 DUP5 SUB SLT ISZERO PUSH2 0x4275 JUMPI PUSH2 0x4274 PUSH2 0x4203 JUMP JUMPDEST JUMPDEST PUSH0 PUSH2 0x4282 DUP5 DUP3 DUP6 ADD PUSH2 0x424C JUMP JUMPDEST SWAP2 POP POP SWAP3 SWAP2 POP POP JUMP JUMPDEST PUSH0 DUP2 ISZERO ISZERO SWAP1 POP SWAP2 SWAP1 POP JUMP JUMPDEST PUSH2 0x429F DUP2 PUSH2 0x428B JUMP JUMPDEST DUP3 MSTORE POP POP JUMP JUMPDEST PUSH0 PUSH1 0x20 DUP3 ADD SWAP1 POP PUSH2 0x42B8 PUSH0 DUP4 ADD DUP5 PUSH2 0x4296 JUMP JUMPDEST SWAP3 SWAP2 POP POP JUMP JUMPDEST PUSH0 DUP2 SWAP1 POP SWAP2 SWAP1 POP JUMP JUMPDEST PUSH2 0x42D0 DUP2 PUSH2 0x42BE JUMP JUMPDEST DUP3 MSTORE POP POP JUMP JUMPDEST PUSH0 PUSH1 0x20 DUP3 ADD SWAP1 POP PUSH2 0x42E9 PUSH0 DUP4 ADD DUP5 PUSH2 0x42C7 JUMP JUMPDEST SWAP3 SWAP2 POP POP JUMP JUMPDEST PUSH2 0x42F8 DUP2 PUSH2 0x42BE JUMP JUMPDEST DUP2 EQ PUSH2 0x4302 JUMPI PUSH0 PUSH0 REVERT JUMPDEST POP JUMP JUMPDEST PUSH0 DUP2 CALLDATALOAD SWAP1 POP PUSH2 0x4313 DUP2 PUSH2 0x42EF JUMP JUMPDEST SWAP3 SWAP2 POP POP JUMP JUMPDEST PUSH0 PUSH20 0xFFFFFFFFFFFFFFFFFFFFFFFFFFFFFFFFFFFFFFFF DUP3 AND SWAP1 POP SWAP2 SWAP1 POP JUMP JUMPDEST PUSH0 PUSH2 0x4342 DUP3 PUSH2 0x4319 JUMP JUMPDEST SWAP1 POP SWAP2 SWAP1 POP JUMP JUMPDEST PUSH2 0x4352 DUP2 PUSH2 0x4338 JUMP JUMPDEST DUP2 EQ PUSH2 0x435C JUMPI PUSH0 PUSH0 REVERT JUMPDEST POP JUMP JUMPDEST PUSH0 DUP2 CALLDATALOAD SWAP1 POP PUSH2 0x436D DUP2 PUSH2 0x4349 JUMP JUMPDEST SWAP3 SWAP2 POP POP JUMP JUMPDEST PUSH0 PUSH0 PUSH1 0x40 DUP4 DUP6 SUB SLT ISZERO PUSH2 0x4389 JUMPI PUSH2 0x4388 PUSH2 0x4203 JUMP JUMPDEST JUMPDEST PUSH0 PUSH2 0x4396 DUP6 DUP3 DUP7 ADD PUSH2 0x4305 JUMP JUMPDEST SWAP3 POP POP PUSH1 0x20 PUSH2 0x43A7 DUP6 DUP3 DUP7 ADD PUSH2 0x435F JUMP JUMPDEST SWAP2 POP POP SWAP3 POP SWAP3 SWAP1 POP JUMP JUMPDEST PUSH0 DUP2 SWAP1 POP SWAP2 SWAP1 POP JUMP JUMPDEST PUSH2 0x43C3 DUP2 PUSH2 0x43B1 JUMP JUMPDEST DUP2 EQ PUSH2 0x43CD JUMPI PUSH0 PUSH0 REVERT JUMPDEST POP JUMP JUMPDEST PUSH0 DUP2 CALLDATALOAD SWAP1 POP PUSH2 0x43DE DUP2 PUSH2 0x43BA JUMP JUMPDEST SWAP3 SWAP2 POP POP JUMP JUMPDEST PUSH0 PUSH1 0x20 DUP3 DUP5 SUB SLT ISZERO PUSH2 0x43F9 JUMPI PUSH2 0x43F8 PUSH2 0x4203 JUMP JUMPDEST JUMPDEST PUSH0 PUSH2 0x4406 DUP5 DUP3 DUP6 ADD PUSH2 0x43D0 JUMP JUMPDEST SWAP2 POP POP SWAP3 SWAP2 POP POP JUMP JUMPDEST PUSH2 0x4418 DUP2 PUSH2 0x43B1 JUMP JUMPDEST DUP3 MSTORE POP POP JUMP JUMPDEST PUSH0 PUSH1 0x20 DUP3 ADD SWAP1 POP PUSH2 0x4431 PUSH0 DUP4 ADD DUP5 PUSH2 0x440F JUMP JUMPDEST SWAP3 SWAP2 POP POP JUMP JUMPDEST PUSH0 PUSH1 0x20 DUP3 DUP5 SUB SLT ISZERO PUSH2 0x444C JUMPI PUSH2 0x444B PUSH2 0x4203 JUMP JUMPDEST JUMPDEST PUSH0 PUSH2 0x4459 DUP5 DUP3 DUP6 ADD PUSH2 0x4305 JUMP JUMPDEST SWAP2 POP POP SWAP3 SWAP2 POP POP JUMP JUMPDEST PUSH0 PUSH0 PUSH1 0x40 DUP4 DUP6 SUB SLT ISZERO PUSH2 0x4478 JUMPI PUSH2 0x4477 PUSH2 0x4203 JUMP JUMPDEST JUMPDEST PUSH0 PUSH2 0x4485 DUP6 DUP3 DUP7 ADD PUSH2 0x43D0 JUMP JUMPDEST SWAP3 POP POP PUSH1 0x20 PUSH2 0x4496 DUP6 DUP3 DUP7 ADD PUSH2 0x435F JUMP JUMPDEST SWAP2 POP POP SWAP3 POP SWAP3 SWAP1 POP JUMP JUMPDEST PUSH0 PUSH1 0x60 DUP3 ADD SWAP1 POP PUSH2 0x44B3 PUSH0 DUP4 ADD DUP7 PUSH2 0x42C7 JUMP JUMPDEST PUSH2 0x44C0 PUSH1 0x20 DUP4 ADD DUP6 PUSH2 0x42C7 JUMP JUMPDEST PUSH2 0x44CD PUSH1 0x40 DUP4 ADD DUP5 PUSH2 0x42C7 JUMP JUMPDEST SWAP5 SWAP4 POP POP POP POP JUMP JUMPDEST PUSH0 PUSH2 0x44DF DUP3 PUSH2 0x4338 JUMP JUMPDEST SWAP1 POP SWAP2 SWAP1 POP JUMP JUMPDEST PUSH2 0x44EF DUP2 PUSH2 0x44D5 JUMP JUMPDEST DUP2 EQ PUSH2 0x44F9 JUMPI PUSH0 PUSH0 REVERT JUMPDEST POP JUMP JUMPDEST PUSH0 DUP2 CALLDATALOAD SWAP1 POP PUSH2 0x450A DUP2 PUSH2 0x44E6 JUMP JUMPDEST SWAP3 SWAP2 POP POP JUMP JUMPDEST PUSH0 PUSH0 PUSH0 PUSH0 PUSH1 0x80 DUP6 DUP8 SUB SLT ISZERO PUSH2 0x4528 JUMPI PUSH2 0x4527 PUSH2 0x4203 JUMP JUMPDEST JUMPDEST PUSH0 PUSH2 0x4535 DUP8 DUP3 DUP9 ADD PUSH2 0x44FC JUMP JUMPDEST SWAP5 POP POP PUSH1 0x20 PUSH2 0x4546 DUP8 DUP3 DUP9 ADD PUSH2 0x4305 JUMP JUMPDEST SWAP4 POP POP PUSH1 0x40 PUSH2 0x4557 DUP8 DUP3 DUP9 ADD PUSH2 0x4305 JUMP JUMPDEST SWAP3 POP POP PUSH1 0x60 PUSH2 0x4568 DUP8 DUP3 DUP9 ADD PUSH2 0x4305 JUMP JUMPDEST SWAP2 POP POP SWAP3 SWAP6 SWAP2 SWAP5 POP SWAP3 POP JUMP JUMPDEST PUSH0 PUSH0 REVERT JUMPDEST PUSH0 PUSH0 REVERT JUMPDEST PUSH0 PUSH1 0x1F NOT PUSH1 0x1F DUP4 ADD AND SWAP1 POP SWAP2 SWAP1 POP JUMP JUMPDEST PUSH32 0x4E487B7100000000000000000000000000000000000000000000000000000000 PUSH0 MSTORE PUSH1 0x41 PUSH1 0x4 MSTORE PUSH1 0x24 PUSH0 REVERT JUMPDEST PUSH2 0x45C2 DUP3 PUSH2 0x457C JUMP JUMPDEST DUP2 ADD DUP2 DUP2 LT PUSH8 0xFFFFFFFFFFFFFFFF DUP3 GT OR ISZERO PUSH2 0x45E1 JUMPI PUSH2 0x45E0 PUSH2 0x458C JUMP JUMPDEST JUMPDEST DUP1 PUSH1 0x40 MSTORE POP POP POP JUMP JUMPDEST PUSH0 PUSH2 0x45F3 PUSH2 0x41FA JUMP JUMPDEST SWAP1 POP PUSH2 0x45FF DUP3 DUP3 PUSH2 0x45B9 JUMP JUMPDEST SWAP2 SWAP1 POP JUMP JUMPDEST PUSH0 PUSH8 0xFFFFFFFFFFFFFFFF DUP3 GT ISZERO PUSH2 0x461E JUMPI PUSH2 0x461D PUSH2 0x458C JUMP JUMPDEST JUMPDEST PUSH2 0x4627 DUP3 PUSH2 0x457C JUMP JUMPDEST SWAP1 POP PUSH1 0x20 DUP2 ADD SWAP1 POP SWAP2 SWAP1 POP JUMP JUMPDEST DUP3 DUP2 DUP4 CALLDATACOPY PUSH0 DUP4 DUP4 ADD MSTORE POP POP POP JUMP JUMPDEST PUSH0 PUSH2 0x4654 PUSH2 0x464F DUP5 PUSH2 0x4604 JUMP JUMPDEST PUSH2 0x45EA JUMP JUMPDEST SWAP1 POP DUP3 DUP2 MSTORE PUSH1 0x20 DUP2 ADD DUP5 DUP5 DUP5 ADD GT ISZERO PUSH2 0x4670 JUMPI PUSH2 0x466F PUSH2 0x4578 JUMP JUMPDEST JUMPDEST PUSH2 0x467B DUP5 DUP3 DUP6 PUSH2 0x4634 JUMP JUMPDEST POP SWAP4 SWAP3 POP POP POP JUMP JUMPDEST PUSH0 DUP3 PUSH1 0x1F DUP4 ADD SLT PUSH2 0x4697 JUMPI PUSH2 0x4696 PUSH2 0x4574 JUMP JUMPDEST JUMPDEST DUP2 CALLDATALOAD PUSH2 0x46A7 DUP5 DUP3 PUSH1 0x20 DUP7 ADD PUSH2 0x4642 JUMP JUMPDEST SWAP2 POP POP SWAP3 SWAP2 POP POP JUMP JUMPDEST PUSH0 PUSH0 PUSH1 0x40 DUP4 DUP6 SUB SLT ISZERO PUSH2 0x46C6 JUMPI PUSH2 0x46C5 PUSH2 0x4203 JUMP JUMPDEST JUMPDEST PUSH0 PUSH2 0x46D3 DUP6 DUP3 DUP7 ADD PUSH2 0x435F JUMP JUMPDEST SWAP3 POP POP PUSH1 0x20 DUP4 ADD CALLDATALOAD PUSH8 0xFFFFFFFFFFFFFFFF DUP2 GT ISZERO PUSH2 0x46F4 JUMPI PUSH2 0x46F3 PUSH2 0x4207 JUMP JUMPDEST JUMPDEST PUSH2 0x4700 DUP6 DUP3 DUP7 ADD PUSH2 0x4683 JUMP JUMPDEST SWAP2 POP POP SWAP3 POP SWAP3 SWAP1 POP JUMP JUMPDEST PUSH0 PUSH1 0x20 DUP3 DUP5 SUB SLT ISZERO PUSH2 0x471F JUMPI PUSH2 0x471E PUSH2 0x4203 JUMP JUMPDEST JUMPDEST PUSH0 PUSH2 0x472C DUP5 DUP3 DUP6 ADD PUSH2 0x44FC JUMP JUMPDEST SWAP2 POP POP SWAP3 SWAP2 POP POP JUMP JUMPDEST PUSH0 PUSH0 PUSH0 PUSH1 0x60 DUP5 DUP7 SUB SLT ISZERO PUSH2 0x474C JUMPI PUSH2 0x474B PUSH2 0x4203 JUMP JUMPDEST JUMPDEST PUSH0 PUSH2 0x4759 DUP7 DUP3 DUP8 ADD PUSH2 0x4305 JUMP JUMPDEST SWAP4 POP POP PUSH1 0x20 PUSH2 0x476A DUP7 DUP3 DUP8 ADD PUSH2 0x435F JUMP JUMPDEST SWAP3 POP POP PUSH1 0x40 PUSH2 0x477B DUP7 DUP3 DUP8 ADD PUSH2 0x4305 JUMP JUMPDEST SWAP2 POP POP SWAP3 POP SWAP3 POP SWAP3 JUMP JUMPDEST PUSH0 PUSH0 PUSH1 0x40 DUP4 DUP6 SUB SLT ISZERO PUSH2 0x479B JUMPI PUSH2 0x479A PUSH2 0x4203 JUMP JUMPDEST JUMPDEST PUSH0 PUSH2 0x47A8 DUP6 DUP3 DUP7 ADD PUSH2 0x4305 JUMP JUMPDEST SWAP3 POP POP PUSH1 0x20 PUSH2 0x47B9 DUP6 DUP3 DUP7 ADD PUSH2 0x4305 JUMP JUMPDEST SWAP2 POP POP SWAP3 POP SWAP3 SWAP1 POP JUMP JUMPDEST PUSH0 DUP2 MLOAD SWAP1 POP SWAP2 SWAP1 POP JUMP JUMPDEST PUSH0 DUP3 DUP3 MSTORE PUSH1 0x20 DUP3 ADD SWAP1 POP SWAP3 SWAP2 POP POP JUMP JUMPDEST DUP3 DUP2 DUP4 MCOPY PUSH0 DUP4 DUP4 ADD MSTORE POP POP POP JUMP JUMPDEST PUSH0 PUSH2 0x47F5 DUP3 PUSH2 0x47C3 JUMP JUMPDEST PUSH2 0x47FF DUP2 DUP6 PUSH2 0x47CD JUMP JUMPDEST SWAP4 POP PUSH2 0x480F DUP2 DUP6 PUSH1 0x20 DUP7 ADD PUSH2 0x47DD JUMP JUMPDEST PUSH2 0x4818 DUP2 PUSH2 0x457C JUMP JUMPDEST DUP5 ADD SWAP2 POP POP SWAP3 SWAP2 POP POP JUMP JUMPDEST PUSH0 PUSH1 0x20 DUP3 ADD SWAP1 POP DUP2 DUP2 SUB PUSH0 DUP4 ADD MSTORE PUSH2 0x483B DUP2 DUP5 PUSH2 0x47EB JUMP JUMPDEST SWAP1 POP SWAP3 SWAP2 POP POP JUMP JUMPDEST PUSH2 0x484C DUP2 PUSH2 0x428B JUMP JUMPDEST DUP2 EQ PUSH2 0x4856 JUMPI PUSH0 PUSH0 REVERT JUMPDEST POP JUMP JUMPDEST PUSH0 DUP2 CALLDATALOAD SWAP1 POP PUSH2 0x4867 DUP2 PUSH2 0x4843 JUMP JUMPDEST SWAP3 SWAP2 POP POP JUMP JUMPDEST PUSH0 PUSH0 PUSH0 PUSH0 PUSH0 PUSH1 0xA0 DUP7 DUP9 SUB SLT ISZERO PUSH2 0x4886 JUMPI PUSH2 0x4885 PUSH2 0x4203 JUMP JUMPDEST JUMPDEST PUSH0 PUSH2 0x4893 DUP9 DUP3 DUP10 ADD PUSH2 0x435F JUMP JUMPDEST SWAP6 POP POP PUSH1 0x20 PUSH2 0x48A4 DUP9 DUP3 DUP10 ADD PUSH2 0x4305 JUMP JUMPDEST SWAP5 POP POP PUSH1 0x40 PUSH2 0x48B5 DUP9 DUP3 DUP10 ADD PUSH2 0x4305 JUMP JUMPDEST SWAP4 POP POP PUSH1 0x60 PUSH2 0x48C6 DUP9 DUP3 DUP10 ADD PUSH2 0x4305 JUMP JUMPDEST SWAP3 POP POP PUSH1 0x80 PUSH2 0x48D7 DUP9 DUP3 DUP10 ADD PUSH2 0x4859 JUMP JUMPDEST SWAP2 POP POP SWAP3 SWAP6 POP SWAP3 SWAP6 SWAP1 SWAP4 POP JUMP JUMPDEST PUSH0 DUP2 SWAP1 POP SWAP2 SWAP1 POP JUMP JUMPDEST PUSH0 PUSH2 0x4907 PUSH2 0x4902 PUSH2 0x48FD DUP5 PUSH2 0x4319 JUMP JUMPDEST PUSH2 0x48E4 JUMP JUMPDEST PUSH2 0x4319 JUMP JUMPDEST SWAP1 POP SWAP2 SWAP1 POP JUMP JUMPDEST PUSH0 PUSH2 0x4918 DUP3 PUSH2 0x48ED JUMP JUMPDEST SWAP1 POP SWAP2 SWAP1 POP JUMP JUMPDEST PUSH0 PUSH2 0x4929 DUP3 PUSH2 0x490E JUMP JUMPDEST SWAP1 POP SWAP2 SWAP1 POP JUMP JUMPDEST PUSH2 0x4939 DUP2 PUSH2 0x491F JUMP JUMPDEST DUP3 MSTORE POP POP JUMP JUMPDEST PUSH0 PUSH1 0x20 DUP3 ADD SWAP1 POP PUSH2 0x4952 PUSH0 DUP4 ADD DUP5 PUSH2 0x4930 JUMP JUMPDEST SWAP3 SWAP2 POP POP JUMP JUMPDEST PUSH0 PUSH0 PUSH0 PUSH1 0x60 DUP5 DUP7 SUB SLT ISZERO PUSH2 0x496F JUMPI PUSH2 0x496E PUSH2 0x4203 JUMP JUMPDEST JUMPDEST PUSH0 PUSH2 0x497C DUP7 DUP3 DUP8 ADD PUSH2 0x4305 JUMP JUMPDEST SWAP4 POP POP PUSH1 0x20 PUSH2 0x498D DUP7 DUP3 DUP8 ADD PUSH2 0x4305 JUMP JUMPDEST SWAP3 POP POP PUSH1 0x40 PUSH2 0x499E DUP7 DUP3 DUP8 ADD PUSH2 0x4305 JUMP JUMPDEST SWAP2 POP POP SWAP3 POP SWAP3 POP SWAP3 JUMP JUMPDEST PUSH0 PUSH0 PUSH0 PUSH1 0x60 DUP5 DUP7 SUB SLT ISZERO PUSH2 0x49BF JUMPI PUSH2 0x49BE PUSH2 0x4203 JUMP JUMPDEST JUMPDEST PUSH0 PUSH2 0x49CC DUP7 DUP3 DUP8 ADD PUSH2 0x4305 JUMP JUMPDEST SWAP4 POP POP PUSH1 0x20 PUSH2 0x49DD DUP7 DUP3 DUP8 ADD PUSH2 0x4305 JUMP JUMPDEST SWAP3 POP POP PUSH1 0x40 PUSH2 0x49EE DUP7 DUP3 DUP8 ADD PUSH2 0x4859 JUMP JUMPDEST SWAP2 POP POP SWAP3 POP SWAP3 POP SWAP3 JUMP JUMPDEST PUSH2 0x4A01 DUP2 PUSH2 0x4338 JUMP JUMPDEST DUP3 MSTORE POP POP JUMP JUMPDEST PUSH0 PUSH1 0xE0 DUP3 ADD SWAP1 POP PUSH2 0x4A1A PUSH0 DUP4 ADD DUP11 PUSH2 0x49F8 JUMP JUMPDEST PUSH2 0x4A27 PUSH1 0x20 DUP4 ADD DUP10 PUSH2 0x42C7 JUMP JUMPDEST PUSH2 0x4A34 PUSH1 0x40 DUP4 ADD DUP9 PUSH2 0x42C7 JUMP JUMPDEST PUSH2 0x4A41 PUSH1 0x60 DUP4 ADD DUP8 PUSH2 0x42C7 JUMP JUMPDEST PUSH2 0x4A4E PUSH1 0x80 DUP4 ADD DUP7 PUSH2 0x42C7 JUMP JUMPDEST PUSH2 0x4A5B PUSH1 0xA0 DUP4 ADD DUP6 PUSH2 0x42C7 JUMP JUMPDEST PUSH2 0x4A68 PUSH1 0xC0 DUP4 ADD DUP5 PUSH2 0x42C7 JUMP JUMPDEST SWAP9 SWAP8 POP POP POP POP POP POP POP POP JUMP JUMPDEST PUSH0 PUSH1 0x40 DUP3 ADD SWAP1 POP PUSH2 0x4A87 PUSH0 DUP4 ADD DUP6 PUSH2 0x42C7 JUMP JUMPDEST PUSH2 0x4A94 PUSH1 0x20 DUP4 ADD DUP5 PUSH2 0x42C7 JUMP JUMPDEST SWAP4 SWAP3 POP POP POP JUMP JUMPDEST PUSH32 0x696E76616C696420706964000000000000000000000000000000000000000000 PUSH0 DUP3 ADD MSTORE POP JUMP JUMPDEST PUSH0 PUSH2 0x4ACF PUSH1 0xB DUP4 PUSH2 0x47CD JUMP JUMPDEST SWAP2 POP PUSH2 0x4ADA DUP3 PUSH2 0x4A9B JUMP JUMPDEST PUSH1 0x20 DUP3 ADD SWAP1 POP SWAP2 SWAP1 POP JUMP JUMPDEST PUSH0 PUSH1 0x20 DUP3 ADD SWAP1 POP DUP2 DUP2 SUB PUSH0 DUP4 ADD MSTORE PUSH2 0x4AFC DUP2 PUSH2 0x4AC3 JUMP JUMPDEST SWAP1 POP SWAP2 SWAP1 POP JUMP JUMPDEST PUSH32 0x7769746864726177206973207061757365640000000000000000000000000000 PUSH0 DUP3 ADD MSTORE POP JUMP JUMPDEST PUSH0 PUSH2 0x4B37 PUSH1 0x12 DUP4 PUSH2 0x47CD JUMP JUMPDEST SWAP2 POP PUSH2 0x4B42 DUP3 PUSH2 0x4B03 JUMP JUMPDEST PUSH1 0x20 DUP3 ADD SWAP1 POP SWAP2 SWAP1 POP JUMP JUMPDEST PUSH0 PUSH1 0x20 DUP3 ADD SWAP1 POP DUP2 DUP2 SUB PUSH0 DUP4 ADD MSTORE PUSH2 0x4B64 DUP2 PUSH2 0x4B2B JUMP JUMPDEST SWAP1 POP SWAP2 SWAP1 POP JUMP JUMPDEST PUSH32 0x4E487B7100000000000000000000000000000000000000000000000000000000 PUSH0 MSTORE PUSH1 0x32 PUSH1 0x4 MSTORE PUSH1 0x24 PUSH0 REVERT JUMPDEST PUSH32 0x4E487B7100000000000000000000000000000000000000000000000000000000 PUSH0 MSTORE PUSH1 0x11 PUSH1 0x4 MSTORE PUSH1 0x24 PUSH0 REVERT JUMPDEST PUSH0 PUSH2 0x4BCF DUP3 PUSH2 0x42BE JUMP JUMPDEST SWAP2 POP PUSH2 0x4BDA DUP4 PUSH2 0x42BE JUMP JUMPDEST SWAP3 POP DUP3 DUP3 ADD SWAP1 POP DUP1 DUP3 GT ISZERO PUSH2 0x4BF2 JUMPI PUSH2 0x4BF1 PUSH2 0x4B98 JUMP JUMPDEST JUMPDEST SWAP3 SWAP2 POP POP JUMP JUMPDEST PUSH0 PUSH2 0x4C02 DUP3 PUSH2 0x42BE JUMP JUMPDEST SWAP2 POP PUSH32 0xFFFFFFFFFFFFFFFFFFFFFFFFFFFFFFFFFFFFFFFFFFFFFFFFFFFFFFFFFFFFFFFF DUP3 SUB PUSH2 0x4C34 JUMPI PUSH2 0x4C33 PUSH2 0x4B98 JUMP JUMPDEST JUMPDEST PUSH1 0x1 DUP3 ADD SWAP1 POP SWAP2 SWAP1 POP JUMP JUMPDEST PUSH0 PUSH2 0x4C49 DUP3 PUSH2 0x42BE JUMP JUMPDEST SWAP2 POP PUSH2 0x4C54 DUP4 PUSH2 0x42BE JUMP JUMPDEST SWAP3 POP DUP3 DUP3 SUB SWAP1 POP DUP2 DUP2 GT ISZERO PUSH2 0x4C6C JUMPI PUSH2 0x4C6B PUSH2 0x4B98 JUMP JUMPDEST JUMPDEST SWAP3 SWAP2 POP POP JUMP JUMPDEST PUSH32 0x4E487B7100000000000000000000000000000000000000000000000000000000 PUSH0 MSTORE PUSH1 0x31 PUSH1 0x4 MSTORE PUSH1 0x24 PUSH0 REVERT JUMPDEST PUSH32 0x636C61696D206973207061757365640000000000000000000000000000000000 PUSH0 DUP3 ADD MSTORE POP JUMP JUMPDEST PUSH0 PUSH2 0x4CD3 PUSH1 0xF DUP4 PUSH2 0x47CD JUMP JUMPDEST SWAP2 POP PUSH2 0x4CDE DUP3 PUSH2 0x4C9F JUMP JUMPDEST PUSH1 0x20 DUP3 ADD SWAP1 POP SWAP2 SWAP1 POP JUMP JUMPDEST PUSH0 PUSH1 0x20 DUP3 ADD SWAP1 POP DUP2 DUP2 SUB PUSH0 DUP4 ADD MSTORE PUSH2 0x4D00 DUP2 PUSH2 0x4CC7 JUMP JUMPDEST SWAP1 POP SWAP2 SWAP1 POP JUMP JUMPDEST PUSH0 PUSH2 0x4D11 DUP3 PUSH2 0x42BE JUMP JUMPDEST SWAP2 POP PUSH2 0x4D1C DUP4 PUSH2 0x42BE JUMP JUMPDEST SWAP3 POP DUP3 DUP3 MUL PUSH2 0x4D2A DUP2 PUSH2 0x42BE JUMP JUMPDEST SWAP2 POP DUP3 DUP3 DIV DUP5 EQ DUP4 ISZERO OR PUSH2 0x4D41 JUMPI PUSH2 0x4D40 PUSH2 0x4B98 JUMP JUMPDEST JUMPDEST POP SWAP3 SWAP2 POP POP JUMP JUMPDEST PUSH32 0x4E487B7100000000000000000000000000000000000000000000000000000000 PUSH0 MSTORE PUSH1 0x12 PUSH1 0x4 MSTORE PUSH1 0x24 PUSH0 REVERT JUMPDEST PUSH0 PUSH2 0x4D7F DUP3 PUSH2 0x42BE JUMP JUMPDEST SWAP2 POP PUSH2 0x4D8A DUP4 PUSH2 0x42BE JUMP JUMPDEST SWAP3 POP DUP3 PUSH2 0x4D9A JUMPI PUSH2 0x4D99 PUSH2 0x4D48 JUMP JUMPDEST JUMPDEST DUP3 DUP3 DIV SWAP1 POP SWAP3 SWAP2 POP POP JUMP JUMPDEST PUSH32 0x696E76616C696420706172616D65746572730000000000000000000000000000 PUSH0 DUP3 ADD MSTORE POP JUMP JUMPDEST PUSH0 PUSH2 0x4DD9 PUSH1 0x12 DUP4 PUSH2 0x47CD JUMP JUMPDEST SWAP2 POP PUSH2 0x4DE4 DUP3 PUSH2 0x4DA5 JUMP JUMPDEST PUSH1 0x20 DUP3 ADD SWAP1 POP SWAP2 SWAP1 POP JUMP JUMPDEST PUSH0 PUSH1 0x20 DUP3 ADD SWAP1 POP DUP2 DUP2 SUB PUSH0 DUP4 ADD MSTORE PUSH2 0x4E06 DUP2 PUSH2 0x4DCD JUMP JUMPDEST SWAP1 POP SWAP2 SWAP1 POP JUMP JUMPDEST PUSH0 DUP2 SWAP1 POP SWAP2 SWAP1 POP JUMP JUMPDEST PUSH0 PUSH8 0xFFFFFFFFFFFFFFFF DUP3 AND SWAP1 POP SWAP2 SWAP1 POP JUMP JUMPDEST PUSH0 PUSH2 0x4E43 PUSH2 0x4E3E PUSH2 0x4E39 DUP5 PUSH2 0x4E0D JUMP JUMPDEST PUSH2 0x48E4 JUMP JUMPDEST PUSH2 0x4E16 JUMP JUMPDEST SWAP1 POP SWAP2 SWAP1 POP JUMP JUMPDEST PUSH2 0x4E53 DUP2 PUSH2 0x4E29 JUMP JUMPDEST DUP3 MSTORE POP POP JUMP JUMPDEST PUSH0 PUSH1 0x20 DUP3 ADD SWAP1 POP PUSH2 0x4E6C PUSH0 DUP4 ADD DUP5 PUSH2 0x4E4A JUMP JUMPDEST SWAP3 SWAP2 POP POP JUMP JUMPDEST PUSH32 0x6F766572666C6F77000000000000000000000000000000000000000000000000 PUSH0 DUP3 ADD MSTORE POP JUMP JUMPDEST PUSH0 PUSH2 0x4EA6 PUSH1 0x8 DUP4 PUSH2 0x47CD JUMP JUMPDEST SWAP2 POP PUSH2 0x4EB1 DUP3 PUSH2 0x4E72 JUMP JUMPDEST PUSH1 0x20 DUP3 ADD SWAP1 POP SWAP2 SWAP1 POP JUMP JUMPDEST PUSH0 PUSH1 0x20 DUP3 ADD SWAP1 POP DUP2 DUP2 SUB PUSH0 DUP4 ADD MSTORE PUSH2 0x4ED3 DUP2 PUSH2 0x4E9A JUMP JUMPDEST SWAP1 POP SWAP2 SWAP1 POP JUMP JUMPDEST PUSH32 0x776974686472617720686173206265656E20616C726561647920756E70617573 PUSH0 DUP3 ADD MSTORE PUSH32 0x6564000000000000000000000000000000000000000000000000000000000000 PUSH1 0x20 DUP3 ADD MSTORE POP JUMP JUMPDEST PUSH0 PUSH2 0x4F34 PUSH1 0x22 DUP4 PUSH2 0x47CD JUMP JUMPDEST SWAP2 POP PUSH2 0x4F3F DUP3 PUSH2 0x4EDA JUMP JUMPDEST PUSH1 0x40 DUP3 ADD SWAP1 POP SWAP2 SWAP1 POP JUMP JUMPDEST PUSH0 PUSH1 0x20 DUP3 ADD SWAP1 POP DUP2 DUP2 SUB PUSH0 DUP4 ADD MSTORE PUSH2 0x4F61 DUP2 PUSH2 0x4F28 JUMP JUMPDEST SWAP1 POP SWAP2 SWAP1 POP JUMP JUMPDEST PUSH32 0x776974686472617720686173206265656E20616C726561647920706175736564 PUSH0 DUP3 ADD MSTORE POP JUMP JUMPDEST PUSH0 PUSH2 0x4F9C PUSH1 0x20 DUP4 PUSH2 0x47CD JUMP JUMPDEST SWAP2 POP PUSH2 0x4FA7 DUP3 PUSH2 0x4F68 JUMP JUMPDEST PUSH1 0x20 DUP3 ADD SWAP1 POP SWAP2 SWAP1 POP JUMP JUMPDEST PUSH0 PUSH1 0x20 DUP3 ADD SWAP1 POP DUP2 DUP2 SUB PUSH0 DUP4 ADD MSTORE PUSH2 0x4FC9 DUP2 PUSH2 0x4F90 JUMP JUMPDEST SWAP1 POP SWAP2 SWAP1 POP JUMP JUMPDEST PUSH32 0x696E76616C696420626C6F636B00000000000000000000000000000000000000 PUSH0 DUP3 ADD MSTORE POP JUMP JUMPDEST PUSH0 PUSH2 0x5004 PUSH1 0xD DUP4 PUSH2 0x47CD JUMP JUMPDEST SWAP2 POP PUSH2 0x500F DUP3 PUSH2 0x4FD0 JUMP JUMPDEST PUSH1 0x20 DUP3 ADD SWAP1 POP SWAP2 SWAP1 POP JUMP JUMPDEST PUSH0 PUSH1 0x20 DUP3 ADD SWAP1 POP DUP2 DUP2 SUB PUSH0 DUP4 ADD MSTORE PUSH2 0x5031 DUP2 PUSH2 0x4FF8 JUMP JUMPDEST SWAP1 POP SWAP2 SWAP1 POP JUMP JUMPDEST PUSH32 0x656E6420626C6F636B206D7573742062652067726561746572207468616E2073 PUSH0 DUP3 ADD MSTORE PUSH32 0x7461727420626C6F636B00000000000000000000000000000000000000000000 PUSH1 0x20 DUP3 ADD MSTORE POP JUMP JUMPDEST PUSH0 PUSH2 0x5092 PUSH1 0x2A DUP4 PUSH2 0x47CD JUMP JUMPDEST SWAP2 POP PUSH2 0x509D DUP3 PUSH2 0x5038 JUMP JUMPDEST PUSH1 0x40 DUP3 ADD SWAP1 POP SWAP2 SWAP1 POP JUMP JUMPDEST PUSH0 PUSH1 0x20 DUP3 ADD SWAP1 POP DUP2 DUP2 SUB PUSH0 DUP4 ADD MSTORE PUSH2 0x50BF DUP2 PUSH2 0x5086 JUMP JUMPDEST SWAP1 POP SWAP2 SWAP1 POP JUMP JUMPDEST PUSH32 0x6D756C7469706C696572206F766572666C6F7700000000000000000000000000 PUSH0 DUP3 ADD MSTORE POP JUMP JUMPDEST PUSH0 PUSH2 0x50FA PUSH1 0x13 DUP4 PUSH2 0x47CD JUMP JUMPDEST SWAP2 POP PUSH2 0x5105 DUP3 PUSH2 0x50C6 JUMP JUMPDEST PUSH1 0x20 DUP3 ADD SWAP1 POP SWAP2 SWAP1 POP JUMP JUMPDEST PUSH0 PUSH1 0x20 DUP3 ADD SWAP1 POP DUP2 DUP2 SUB PUSH0 DUP4 ADD MSTORE PUSH2 0x5127 DUP2 PUSH2 0x50EE JUMP JUMPDEST SWAP1 POP SWAP2 SWAP1 POP JUMP JUMPDEST PUSH32 0x636C61696D20686173206265656E20616C726561647920706175736564000000 PUSH0 DUP3 ADD MSTORE POP JUMP JUMPDEST PUSH0 PUSH2 0x5162 PUSH1 0x1D DUP4 PUSH2 0x47CD JUMP JUMPDEST SWAP2 POP PUSH2 0x516D DUP3 PUSH2 0x512E JUMP JUMPDEST PUSH1 0x20 DUP3 ADD SWAP1 POP SWAP2 SWAP1 POP JUMP JUMPDEST PUSH0 PUSH1 0x20 DUP3 ADD SWAP1 POP DUP2 DUP2 SUB PUSH0 DUP4 ADD MSTORE PUSH2 0x518F DUP2 PUSH2 0x5156 JUMP JUMPDEST SWAP1 POP SWAP2 SWAP1 POP JUMP JUMPDEST PUSH32 0x4E6F7420656E6F756768207374616B696E6720746F6B656E2062616C616E6365 PUSH0 DUP3 ADD MSTORE POP JUMP JUMPDEST PUSH0 PUSH2 0x51CA PUSH1 0x20 DUP4 PUSH2 0x47CD JUMP JUMPDEST SWAP2 POP PUSH2 0x51D5 DUP3 PUSH2 0x5196 JUMP JUMPDEST PUSH1 0x20 DUP3 ADD SWAP1 POP SWAP2 SWAP1 POP JUMP JUMPDEST PUSH0 PUSH1 0x20 DUP3 ADD SWAP1 POP DUP2 DUP2 SUB PUSH0 DUP4 ADD MSTORE PUSH2 0x51F7 DUP2 PUSH2 0x51BE JUMP JUMPDEST SWAP1 POP SWAP2 SWAP1 POP JUMP JUMPDEST PUSH32 0x696E76616C6964207374616B696E6720746F6B656E2061646472657373000000 PUSH0 DUP3 ADD MSTORE POP JUMP JUMPDEST PUSH0 PUSH2 0x5232 PUSH1 0x1D DUP4 PUSH2 0x47CD JUMP JUMPDEST SWAP2 POP PUSH2 0x523D DUP3 PUSH2 0x51FE JUMP JUMPDEST PUSH1 0x20 DUP3 ADD SWAP1 POP SWAP2 SWAP1 POP JUMP JUMPDEST PUSH0 PUSH1 0x20 DUP3 ADD SWAP1 POP DUP2 DUP2 SUB PUSH0 DUP4 ADD MSTORE PUSH2 0x525F DUP2 PUSH2 0x5226 JUMP JUMPDEST SWAP1 POP SWAP2 SWAP1 POP JUMP JUMPDEST PUSH32 0x696E76616C6964207769746864726177206C6F636B656420626C6F636B730000 PUSH0 DUP3 ADD MSTORE POP JUMP JUMPDEST PUSH0 PUSH2 0x529A PUSH1 0x1E DUP4 PUSH2 0x47CD JUMP JUMPDEST SWAP2 POP PUSH2 0x52A5 DUP3 PUSH2 0x5266 JUMP JUMPDEST PUSH1 0x20 DUP3 ADD SWAP1 POP SWAP2 SWAP1 POP JUMP JUMPDEST PUSH0 PUSH1 0x20 DUP3 ADD SWAP1 POP DUP2 DUP2 SUB PUSH0 DUP4 ADD MSTORE PUSH2 0x52C7 DUP2 PUSH2 0x528E JUMP JUMPDEST SWAP1 POP SWAP2 SWAP1 POP JUMP JUMPDEST PUSH32 0x416C726561647920656E64656400000000000000000000000000000000000000 PUSH0 DUP3 ADD MSTORE POP JUMP JUMPDEST PUSH0 PUSH2 0x5302 PUSH1 0xD DUP4 PUSH2 0x47CD JUMP JUMPDEST SWAP2 POP PUSH2 0x530D DUP3 PUSH2 0x52CE JUMP JUMPDEST PUSH1 0x20 DUP3 ADD SWAP1 POP SWAP2 SWAP1 POP JUMP JUMPDEST PUSH0 PUSH1 0x20 DUP3 ADD SWAP1 POP DUP2 DUP2 SUB PUSH0 DUP4 ADD MSTORE PUSH2 0x532F DUP2 PUSH2 0x52F6 JUMP JUMPDEST SWAP1 POP SWAP2 SWAP1 POP JUMP JUMPDEST PUSH32 0x737461727420626C6F636B206D75737420626520736D616C6C6572207468616E PUSH0 DUP3 ADD MSTORE PUSH32 0x20656E6420626C6F636B00000000000000000000000000000000000000000000 PUSH1 0x20 DUP3 ADD MSTORE POP JUMP JUMPDEST PUSH0 PUSH2 0x5390 PUSH1 0x2A DUP4 PUSH2 0x47CD JUMP JUMPDEST SWAP2 POP PUSH2 0x539B DUP3 PUSH2 0x5336 JUMP JUMPDEST PUSH1 0x40 DUP3 ADD SWAP1 POP SWAP2 SWAP1 POP JUMP JUMPDEST PUSH0 PUSH1 0x20 DUP3 ADD SWAP1 POP DUP2 DUP2 SUB PUSH0 DUP4 ADD MSTORE PUSH2 0x53BD DUP2 PUSH2 0x5384 JUMP JUMPDEST SWAP1 POP SWAP2 SWAP1 POP JUMP JUMPDEST PUSH32 0x696E76616C696420706172616D65746572000000000000000000000000000000 PUSH0 DUP3 ADD MSTORE POP JUMP JUMPDEST PUSH0 PUSH2 0x53F8 PUSH1 0x11 DUP4 PUSH2 0x47CD JUMP JUMPDEST SWAP2 POP PUSH2 0x5403 DUP3 PUSH2 0x53C4 JUMP JUMPDEST PUSH1 0x20 DUP3 ADD SWAP1 POP SWAP2 SWAP1 POP JUMP JUMPDEST PUSH0 PUSH1 0x20 DUP3 ADD SWAP1 POP DUP2 DUP2 SUB PUSH0 DUP4 ADD MSTORE PUSH2 0x5425 DUP2 PUSH2 0x53EC JUMP JUMPDEST SWAP1 POP SWAP2 SWAP1 POP JUMP JUMPDEST PUSH32 0x636C61696D20686173206265656E20616C726561647920756E70617573656400 PUSH0 DUP3 ADD MSTORE POP JUMP JUMPDEST PUSH0 PUSH2 0x5460 PUSH1 0x1F DUP4 PUSH2 0x47CD JUMP JUMPDEST SWAP2 POP PUSH2 0x546B DUP3 PUSH2 0x542C JUMP JUMPDEST PUSH1 0x20 DUP3 ADD SWAP1 POP SWAP2 SWAP1 POP JUMP JUMPDEST PUSH0 PUSH1 0x20 DUP3 ADD SWAP1 POP DUP2 DUP2 SUB PUSH0 DUP4 ADD MSTORE PUSH2 0x548D DUP2 PUSH2 0x5454 JUMP JUMPDEST SWAP1 POP SWAP2 SWAP1 POP JUMP JUMPDEST PUSH32 0x6465706F736974206E6F7420737570706F727420455448207374616B696E6700 PUSH0 DUP3 ADD MSTORE POP JUMP JUMPDEST PUSH0 PUSH2 0x54C8 PUSH1 0x1F DUP4 PUSH2 0x47CD JUMP JUMPDEST SWAP2 POP PUSH2 0x54D3 DUP3 PUSH2 0x5494 JUMP JUMPDEST PUSH1 0x20 DUP3 ADD SWAP1 POP SWAP2 SWAP1 POP JUMP JUMPDEST PUSH0 PUSH1 0x20 DUP3 ADD SWAP1 POP DUP2 DUP2 SUB PUSH0 DUP4 ADD MSTORE PUSH2 0x54F5 DUP2 PUSH2 0x54BC JUMP JUMPDEST SWAP1 POP SWAP2 SWAP1 POP JUMP JUMPDEST PUSH32 0x6465706F73697420616D6F756E7420697320746F6F20736D616C6C0000000000 PUSH0 DUP3 ADD MSTORE POP JUMP JUMPDEST PUSH0 PUSH2 0x5530 PUSH1 0x1B DUP4 PUSH2 0x47CD JUMP JUMPDEST SWAP2 POP PUSH2 0x553B DUP3 PUSH2 0x54FC JUMP JUMPDEST PUSH1 0x20 DUP3 ADD SWAP1 POP SWAP2 SWAP1 POP JUMP JUMPDEST PUSH0 PUSH1 0x20 DUP3 ADD SWAP1 POP DUP2 DUP2 SUB PUSH0 DUP4 ADD MSTORE PUSH2 0x555D DUP2 PUSH2 0x5524 JUMP JUMPDEST SWAP1 POP SWAP2 SWAP1 POP JUMP JUMPDEST PUSH32 0x696E76616C696420706F6F6C2077656967687400000000000000000000000000 PUSH0 DUP3 ADD MSTORE POP JUMP JUMPDEST PUSH0 PUSH2 0x5598 PUSH1 0x13 DUP4 PUSH2 0x47CD JUMP JUMPDEST SWAP2 POP PUSH2 0x55A3 DUP3 PUSH2 0x5564 JUMP JUMPDEST PUSH1 0x20 DUP3 ADD SWAP1 POP SWAP2 SWAP1 POP JUMP JUMPDEST PUSH0 PUSH1 0x20 DUP3 ADD SWAP1 POP DUP2 DUP2 SUB PUSH0 DUP4 ADD MSTORE PUSH2 0x55C5 DUP2 PUSH2 0x558C JUMP JUMPDEST SWAP1 POP SWAP2 SWAP1 POP JUMP JUMPDEST PUSH0 DUP2 SWAP1 POP SWAP3 SWAP2 POP POP JUMP JUMPDEST POP JUMP JUMPDEST PUSH0 PUSH2 0x55E4 PUSH0 DUP4 PUSH2 0x55CC JUMP JUMPDEST SWAP2 POP PUSH2 0x55EF DUP3 PUSH2 0x55D6 JUMP JUMPDEST PUSH0 DUP3 ADD SWAP1 POP SWAP2 SWAP1 POP JUMP JUMPDEST PUSH0 PUSH2 0x5603 DUP3 PUSH2 0x55D9 JUMP JUMPDEST SWAP2 POP DUP2 SWAP1 POP SWAP2 SWAP1 POP JUMP JUMPDEST PUSH32 0x455448207472616E736665722063616C6C206661696C65640000000000000000 PUSH0 DUP3 ADD MSTORE POP JUMP JUMPDEST PUSH0 PUSH2 0x5641 PUSH1 0x18 DUP4 PUSH2 0x47CD JUMP JUMPDEST SWAP2 POP PUSH2 0x564C DUP3 PUSH2 0x560D JUMP JUMPDEST PUSH1 0x20 DUP3 ADD SWAP1 POP SWAP2 SWAP1 POP JUMP JUMPDEST PUSH0 PUSH1 0x20 DUP3 ADD SWAP1 POP DUP2 DUP2 SUB PUSH0 DUP4 ADD MSTORE PUSH2 0x566E DUP2 PUSH2 0x5635 JUMP JUMPDEST SWAP1 POP SWAP2 SWAP1 POP JUMP JUMPDEST PUSH0 DUP2 MLOAD SWAP1 POP PUSH2 0x5683 DUP2 PUSH2 0x4843 JUMP JUMPDEST SWAP3 SWAP2 POP POP JUMP JUMPDEST PUSH0 PUSH1 0x20 DUP3 DUP5 SUB SLT ISZERO PUSH2 0x569E JUMPI PUSH2 0x569D PUSH2 0x4203 JUMP JUMPDEST JUMPDEST PUSH0 PUSH2 0x56AB DUP5 DUP3 DUP6 ADD PUSH2 0x5675 JUMP JUMPDEST SWAP2 POP POP SWAP3 SWAP2 POP POP JUMP JUMPDEST PUSH32 0x455448207472616E73666572206F7065726174696F6E20646964206E6F742073 PUSH0 DUP3 ADD MSTORE PUSH32 0x7563636565640000000000000000000000000000000000000000000000000000 PUSH1 0x20 DUP3 ADD MSTORE POP JUMP JUMPDEST PUSH0 PUSH2 0x570E PUSH1 0x26 DUP4 PUSH2 0x47CD JUMP JUMPDEST SWAP2 POP PUSH2 0x5719 DUP3 PUSH2 0x56B4 JUMP JUMPDEST PUSH1 0x40 DUP3 ADD SWAP1 POP SWAP2 SWAP1 POP JUMP JUMPDEST PUSH0 PUSH1 0x20 DUP3 ADD SWAP1 POP DUP2 DUP2 SUB PUSH0 DUP4 ADD MSTORE PUSH2 0x573B DUP2 PUSH2 0x5702 JUMP JUMPDEST SWAP1 POP SWAP2 SWAP1 POP JUMP JUMPDEST PUSH0 PUSH1 0x40 DUP3 ADD SWAP1 POP PUSH2 0x5755 PUSH0 DUP4 ADD DUP6 PUSH2 0x49F8 JUMP JUMPDEST PUSH2 0x5762 PUSH1 0x20 DUP4 ADD DUP5 PUSH2 0x42C7 JUMP JUMPDEST SWAP4 SWAP3 POP POP POP JUMP JUMPDEST PUSH0 PUSH1 0x20 DUP3 ADD SWAP1 POP PUSH2 0x577C PUSH0 DUP4 ADD DUP5 PUSH2 0x49F8 JUMP JUMPDEST SWAP3 SWAP2 POP POP JUMP JUMPDEST PUSH0 DUP2 MLOAD SWAP1 POP PUSH2 0x5790 DUP2 PUSH2 0x42EF JUMP JUMPDEST SWAP3 SWAP2 POP POP JUMP JUMPDEST PUSH0 PUSH1 0x20 DUP3 DUP5 SUB SLT ISZERO PUSH2 0x57AB JUMPI PUSH2 0x57AA PUSH2 0x4203 JUMP JUMPDEST JUMPDEST PUSH0 PUSH2 0x57B8 DUP5 DUP3 DUP6 ADD PUSH2 0x5782 JUMP JUMPDEST SWAP2 POP POP SWAP3 SWAP2 POP POP JUMP JUMPDEST PUSH0 DUP2 MLOAD SWAP1 POP PUSH2 0x57CF DUP2 PUSH2 0x43BA JUMP JUMPDEST SWAP3 SWAP2 POP POP JUMP JUMPDEST PUSH0 PUSH1 0x20 DUP3 DUP5 SUB SLT ISZERO PUSH2 0x57EA JUMPI PUSH2 0x57E9 PUSH2 0x4203 JUMP JUMPDEST JUMPDEST PUSH0 PUSH2 0x57F7 DUP5 DUP3 DUP6 ADD PUSH2 0x57C1 JUMP JUMPDEST SWAP2 POP POP SWAP3 SWAP2 POP POP JUMP JUMPDEST PUSH0 PUSH1 0x60 DUP3 ADD SWAP1 POP PUSH2 0x5813 PUSH0 DUP4 ADD DUP7 PUSH2 0x49F8 JUMP JUMPDEST PUSH2 0x5820 PUSH1 0x20 DUP4 ADD DUP6 PUSH2 0x49F8 JUMP JUMPDEST PUSH2 0x582D PUSH1 0x40 DUP4 ADD DUP5 PUSH2 0x42C7 JUMP JUMPDEST SWAP5 SWAP4 POP POP POP POP JUMP JUMPDEST PUSH32 0x75736572207374416D6F756E74206D756C206163634D6574614E6F6465506572 PUSH0 DUP3 ADD MSTORE PUSH32 0x5354206F766572666C6F77000000000000000000000000000000000000000000 PUSH1 0x20 DUP3 ADD MSTORE POP JUMP JUMPDEST PUSH0 PUSH2 0x588F PUSH1 0x2B DUP4 PUSH2 0x47CD JUMP JUMPDEST SWAP2 POP PUSH2 0x589A DUP3 PUSH2 0x5835 JUMP JUMPDEST PUSH1 0x40 DUP3 ADD SWAP1 POP SWAP2 SWAP1 POP JUMP JUMPDEST PUSH0 PUSH1 0x20 DUP3 ADD SWAP1 POP DUP2 DUP2 SUB PUSH0 DUP4 ADD MSTORE PUSH2 0x58BC DUP2 PUSH2 0x5883 JUMP JUMPDEST SWAP1 POP SWAP2 SWAP1 POP JUMP JUMPDEST PUSH32 0x6163635354206469762031206574686572206F766572666C6F77000000000000 PUSH0 DUP3 ADD MSTORE POP JUMP JUMPDEST PUSH0 PUSH2 0x58F7 PUSH1 0x1A DUP4 PUSH2 0x47CD JUMP JUMPDEST SWAP2 POP PUSH2 0x5902 DUP3 PUSH2 0x58C3 JUMP JUMPDEST PUSH1 0x20 DUP3 ADD SWAP1 POP SWAP2 SWAP1 POP JUMP JUMPDEST PUSH0 PUSH1 0x20 DUP3 ADD SWAP1 POP DUP2 DUP2 SUB PUSH0 DUP4 ADD MSTORE PUSH2 0x5924 DUP2 PUSH2 0x58EB JUMP JUMPDEST SWAP1 POP SWAP2 SWAP1 POP JUMP JUMPDEST PUSH32 0x6163635354207375622066696E69736865644D6574614E6F6465206F76657266 PUSH0 DUP3 ADD MSTORE PUSH32 0x6C6F770000000000000000000000000000000000000000000000000000000000 PUSH1 0x20 DUP3 ADD MSTORE POP JUMP JUMPDEST PUSH0 PUSH2 0x5985 PUSH1 0x23 DUP4 PUSH2 0x47CD JUMP JUMPDEST SWAP2 POP PUSH2 0x5990 DUP3 PUSH2 0x592B JUMP JUMPDEST PUSH1 0x40 DUP3 ADD SWAP1 POP SWAP2 SWAP1 POP JUMP JUMPDEST PUSH0 PUSH1 0x20 DUP3 ADD SWAP1 POP DUP2 DUP2 SUB PUSH0 DUP4 ADD MSTORE PUSH2 0x59B2 DUP2 PUSH2 0x5979 JUMP JUMPDEST SWAP1 POP SWAP2 SWAP1 POP JUMP JUMPDEST PUSH32 0x757365722070656E64696E674D6574614E6F6465206F766572666C6F77000000 PUSH0 DUP3 ADD MSTORE POP JUMP JUMPDEST PUSH0 PUSH2 0x59ED PUSH1 0x1D DUP4 PUSH2 0x47CD JUMP JUMPDEST SWAP2 POP PUSH2 0x59F8 DUP3 PUSH2 0x59B9 JUMP JUMPDEST PUSH1 0x20 DUP3 ADD SWAP1 POP SWAP2 SWAP1 POP JUMP JUMPDEST PUSH0 PUSH1 0x20 DUP3 ADD SWAP1 POP DUP2 DUP2 SUB PUSH0 DUP4 ADD MSTORE PUSH2 0x5A1A DUP2 PUSH2 0x59E1 JUMP JUMPDEST SWAP1 POP SWAP2 SWAP1 POP JUMP JUMPDEST PUSH32 0x75736572207374416D6F756E74206F766572666C6F7700000000000000000000 PUSH0 DUP3 ADD MSTORE POP JUMP JUMPDEST PUSH0 PUSH2 0x5A55 PUSH1 0x16 DUP4 PUSH2 0x47CD JUMP JUMPDEST SWAP2 POP PUSH2 0x5A60 DUP3 PUSH2 0x5A21 JUMP JUMPDEST PUSH1 0x20 DUP3 ADD SWAP1 POP SWAP2 SWAP1 POP JUMP JUMPDEST PUSH0 PUSH1 0x20 DUP3 ADD SWAP1 POP DUP2 DUP2 SUB PUSH0 DUP4 ADD MSTORE PUSH2 0x5A82 DUP2 PUSH2 0x5A49 JUMP JUMPDEST SWAP1 POP SWAP2 SWAP1 POP JUMP JUMPDEST PUSH32 0x706F6F6C207374546F6B656E416D6F756E74206F766572666C6F770000000000 PUSH0 DUP3 ADD MSTORE POP JUMP JUMPDEST PUSH0 PUSH2 0x5ABD PUSH1 0x1B DUP4 PUSH2 0x47CD JUMP JUMPDEST SWAP2 POP PUSH2 0x5AC8 DUP3 PUSH2 0x5A89 JUMP JUMPDEST PUSH1 0x20 DUP3 ADD SWAP1 POP SWAP2 SWAP1 POP JUMP JUMPDEST PUSH0 PUSH1 0x20 DUP3 ADD SWAP1 POP DUP2 DUP2 SUB PUSH0 DUP4 ADD MSTORE PUSH2 0x5AEA DUP2 PUSH2 0x5AB1 JUMP JUMPDEST SWAP1 POP SWAP2 SWAP1 POP JUMP JUMPDEST PUSH32 0x66696E69736865644D6574614E6F6465206469762031206574686572206F7665 PUSH0 DUP3 ADD MSTORE PUSH32 0x72666C6F77000000000000000000000000000000000000000000000000000000 PUSH1 0x20 DUP3 ADD MSTORE POP JUMP JUMPDEST PUSH0 PUSH2 0x5B4B PUSH1 0x25 DUP4 PUSH2 0x47CD JUMP JUMPDEST SWAP2 POP PUSH2 0x5B56 DUP3 PUSH2 0x5AF1 JUMP JUMPDEST PUSH1 0x40 DUP3 ADD SWAP1 POP SWAP2 SWAP1 POP JUMP JUMPDEST PUSH0 PUSH1 0x20 DUP3 ADD SWAP1 POP DUP2 DUP2 SUB PUSH0 DUP4 ADD MSTORE PUSH2 0x5B78 DUP2 PUSH2 0x5B3F JUMP JUMPDEST SWAP1 POP SWAP2 SWAP1 POP JUMP JUMPDEST PUSH0 PUSH1 0x40 DUP3 ADD SWAP1 POP PUSH2 0x5B92 PUSH0 DUP4 ADD DUP6 PUSH2 0x49F8 JUMP JUMPDEST PUSH2 0x5B9F PUSH1 0x20 DUP4 ADD DUP5 PUSH2 0x440F JUMP JUMPDEST SWAP4 SWAP3 POP POP POP JUMP JUMPDEST PUSH0 DUP2 MLOAD SWAP1 POP SWAP2 SWAP1 POP JUMP JUMPDEST PUSH0 PUSH2 0x5BBA DUP3 PUSH2 0x5BA6 JUMP JUMPDEST PUSH2 0x5BC4 DUP2 DUP6 PUSH2 0x55CC JUMP JUMPDEST SWAP4 POP PUSH2 0x5BD4 DUP2 DUP6 PUSH1 0x20 DUP7 ADD PUSH2 0x47DD JUMP JUMPDEST DUP1 DUP5 ADD SWAP2 POP POP SWAP3 SWAP2 POP POP JUMP JUMPDEST PUSH0 PUSH2 0x5BEB DUP3 DUP5 PUSH2 0x5BB0 JUMP JUMPDEST SWAP2 POP DUP2 SWAP1 POP SWAP3 SWAP2 POP POP JUMP INVALID LOG2 PUSH5 0x6970667358 0x22 SLT KECCAK256 SWAPN 0xD4 PUSH19 0x70162E9CC092D031D61D4CA4BF83ACFB41F71A SWAP6 SHR SSTORE SWAP6 EOFCREATE 0xA1 PUSH31 0xAC980F64736F6C634300081E00330000000000000000000000000000000000 "
		},
		"gasEstimates": {
			"creation": {
				"codeDepositCost": "4719200",
				"executionCost": "infinite",
				"totalCost": "infinite"
			},
			"external": {
				"ADMIN_ROLE()": "480",
				"DEFAULT_ADMIN_ROLE()": "485",
				"ETH_PID()": "457",
				"MetaNode()": "infinite",
				"MetaNodePerBlock()": "2559",
				"UPGRADE_INTERFACE_VERSION()": "infinite",
				"UPGRADE_ROLE()": "436",
				"addPool(address,uint256,uint256,uint256,bool)": "infinite",
				"claim(uint256)": "infinite",
				"claimPaused()": "2562",
				"deposit(uint256,uint256)": "infinite",
				"depositETH()": "infinite",
				"endBlock()": "2538",
				"getMultiplier(uint256,uint256)": "infinite",
				"getRoleAdmin(bytes32)": "infinite",
				"grantRole(bytes32,address)": "infinite",
				"hasRole(bytes32,address)": "3262",
				"initialize(address,uint256,uint256,uint256)": "infinite",
				"massUpdatePools()": "infinite",
				"pauseClaim()": "30031",
				"pauseWithdraw()": "29928",
				"paused()": "2569",
				"pendingMetaNode(uint256,address)": "infinite",
				"pendingMetaNodeByBlockNumber(uint256,address,uint256)": "infinite",
				"pool(uint256)": "infinite",
				"poolLength()": "2531",
				"proxiableUUID()": "infinite",
				"renounceRole(bytes32,address)": "infinite",
				"revokeRole(bytes32,address)": "infinite",
				"setEndBlock(uint256)": "28470",
				"setMetaNode(address)": "infinite",
				"setMetaNodePerBlock(uint256)": "26301",
				"setPoolWeight(uint256,uint256,bool)": "infinite",
				"setStartBlock(uint256)": "28381",
				"stakingBalance(uint256,address)": "infinite",
				"startBlock()": "2470",
				"supportsInterface(bytes4)": "764",
				"totalPoolWeight()": "2494",
				"unpauseClaim()": "30092",
				"unpauseWithdraw()": "30013",
				"unstake(uint256,uint256)": "infinite",
				"updatePool(uint256)": "infinite",
				"updatePool(uint256,uint256,uint256)": "infinite",
				"upgradeToAndCall(address,bytes)": "infinite",
				"user(uint256,address)": "infinite",
				"withdraw(uint256)": "infinite",
				"withdrawAmount(uint256,address)": "infinite",
				"withdrawPaused()": "2556"
			},
			"internal": {
				"_authorizeUpgrade(address)": "infinite",
				"_deposit(uint256,uint256)": "infinite",
				"_safeETHTransfer(address,uint256)": "infinite",
				"_safeMetaNodeTransfer(address,uint256)": "infinite"
			}
		},
		"methodIdentifiers": {
			"ADMIN_ROLE()": "75b238fc",
			"DEFAULT_ADMIN_ROLE()": "a217fddf",
			"ETH_PID()": "bfc3ebba",
			"MetaNode()": "d22f1d80",
			"MetaNodePerBlock()": "9ea96e66",
			"UPGRADE_INTERFACE_VERSION()": "ad3cb1cc",
			"UPGRADE_ROLE()": "b908afa8",
			"addPool(address,uint256,uint256,uint256,bool)": "b6d9d919",
			"claim(uint256)": "379607f5",
			"claimPaused()": "ab5e124a",
			"deposit(uint256,uint256)": "e2bbb158",
			"depositETH()": "f6326fb3",
			"endBlock()": "083c6323",
			"getMultiplier(uint256,uint256)": "8dbb1e3a",
			"getRoleAdmin(bytes32)": "248a9ca3",
			"grantRole(bytes32,address)": "2f2ff15d",
			"hasRole(bytes32,address)": "91d14854",
			"initialize(address,uint256,uint256,uint256)": "4ec81af1",
			"massUpdatePools()": "630b5ba1",
			"pauseClaim()": "8ff095f9",
			"pauseWithdraw()": "6155e3de",
			"paused()": "5c975abb",
			"pendingMetaNode(uint256,address)": "ea5c219d",
			"pendingMetaNodeByBlockNumber(uint256,address,uint256)": "6325d5bc",
			"pool(uint256)": "fe313112",
			"poolLength()": "081e3eda",
			"proxiableUUID()": "52d1902d",
			"renounceRole(bytes32,address)": "36568abe",
			"revokeRole(bytes32,address)": "d547741f",
			"setEndBlock(uint256)": "c713aa94",
			"setMetaNode(address)": "61a9a03d",
			"setMetaNodePerBlock(uint256)": "d7bc1769",
			"setPoolWeight(uint256,uint256,bool)": "fad07ece",
			"setStartBlock(uint256)": "f35e4a6e",
			"stakingBalance(uint256,address)": "11548234",
			"startBlock()": "48cd4cb1",
			"supportsInterface(bytes4)": "01ffc9a7",
			"totalPoolWeight()": "02559004",
			"unpauseClaim()": "de065caa",
			"unpauseWithdraw()": "5bb6d007",
			"unstake(uint256,uint256)": "9e2c8a5b",
			"updatePool(uint256)": "51eb05a6",
			"updatePool(uint256,uint256,uint256)": "d86c0444",
			"upgradeToAndCall(address,bytes)": "4f1ef286",
			"user(uint256,address)": "37849b3c",
			"withdraw(uint256)": "2e1a7d4d",
			"withdrawAmount(uint256,address)": "ff423357",
			"withdrawPaused()": "2f3ffb9f"
		}
	},
	"abi": [
		{
			"inputs": [],
			"name": "AccessControlBadConfirmation",
			"type": "error"
		},
		{
			"inputs": [
				{
					"internalType": "address",
					"name": "account",
					"type": "address"
				},
				{
					"internalType": "bytes32",
					"name": "neededRole",
					"type": "bytes32"
				}
			],
			"name": "AccessControlUnauthorizedAccount",
			"type": "error"
		},
		{
			"inputs": [
				{
					"internalType": "address",
					"name": "target",
					"type": "address"
				}
			],
			"name": "AddressEmptyCode",
			"type": "error"
		},
		{
			"inputs": [
				{
					"internalType": "address",
					"name": "implementation",
					"type": "address"
				}
			],
			"name": "ERC1967InvalidImplementation",
			"type": "error"
		},
		{
			"inputs": [],
			"name": "ERC1967NonPayable",
			"type": "error"
		},
		{
			"inputs": [],
			"name": "EnforcedPause",
			"type": "error"
		},
		{
			"inputs": [],
			"name": "ExpectedPause",
			"type": "error"
		},
		{
			"inputs": [],
			"name": "FailedCall",
			"type": "error"
		},
		{
			"inputs": [],
			"name": "InvalidInitialization",
			"type": "error"
		},
		{
			"inputs": [],
			"name": "NotInitializing",
			"type": "error"
		},
		{
			"inputs": [
				{
					"internalType": "address",
					"name": "token",
					"type": "address"
				}
			],
			"name": "SafeERC20FailedOperation",
			"type": "error"
		},
		{
			"inputs": [],
			"name": "UUPSUnauthorizedCallContext",
			"type": "error"
		},
		{
			"inputs": [
				{
					"internalType": "bytes32",
					"name": "slot",
					"type": "bytes32"
				}
			],
			"name": "UUPSUnsupportedProxiableUUID",
			"type": "error"
		},
		{
			"anonymous": false,
			"inputs": [
				{
					"indexed": true,
					"internalType": "address",
					"name": "stTokenAddress",
					"type": "address"
				},
				{
					"indexed": true,
					"internalType": "uint256",
					"name": "poolWeight",
					"type": "uint256"
				},
				{
					"indexed": true,
					"internalType": "uint256",
					"name": "lastRewardBlock",
					"type": "uint256"
				},
				{
					"indexed": false,
					"internalType": "uint256",
					"name": "minDepositAmount",
					"type": "uint256"
				},
				{
					"indexed": false,
					"internalType": "uint256",
					"name": "unstakeLockedBlocks",
					"type": "uint256"
				}
			],
			"name": "AddPool",
			"type": "event"
		},
		{
			"anonymous": false,
			"inputs": [
				{
					"indexed": true,
					"internalType": "address",
					"name": "user",
					"type": "address"
				},
				{
					"indexed": true,
					"internalType": "uint256",
					"name": "poolId",
					"type": "uint256"
				},
				{
					"indexed": false,
					"internalType": "uint256",
					"name": "MetaNodeReward",
					"type": "uint256"
				}
			],
			"name": "Claim",
			"type": "event"
		},
		{
			"anonymous": false,
			"inputs": [
				{
					"indexed": true,
					"internalType": "address",
					"name": "user",
					"type": "address"
				},
				{
					"indexed": true,
					"internalType": "uint256",
					"name": "poolId",
					"type": "uint256"
				},
				{
					"indexed": false,
					"internalType": "uint256",
					"name": "amount",
					"type": "uint256"
				}
			],
			"name": "Deposit",
			"type": "event"
		},
		{
			"anonymous": false,
			"inputs": [
				{
					"indexed": false,
					"internalType": "uint64",
					"name": "version",
					"type": "uint64"
				}
			],
			"name": "Initialized",
			"type": "event"
		},
		{
			"anonymous": false,
			"inputs": [],
			"name": "PauseClaim",
			"type": "event"
		},
		{
			"anonymous": false,
			"inputs": [],
			"name": "PauseWithdraw",
			"type": "event"
		},
		{
			"anonymous": false,
			"inputs": [
				{
					"indexed": false,
					"internalType": "address",
					"name": "account",
					"type": "address"
				}
			],
			"name": "Paused",
			"type": "event"
		},
		{
			"anonymous": false,
			"inputs": [
				{
					"indexed": true,
					"internalType": "address",
					"name": "user",
					"type": "address"
				},
				{
					"indexed": true,
					"internalType": "uint256",
					"name": "poolId",
					"type": "uint256"
				},
				{
					"indexed": false,
					"internalType": "uint256",
					"name": "amount",
					"type": "uint256"
				}
			],
			"name": "RequestUnstake",
			"type": "event"
		},
		{
			"anonymous": false,
			"inputs": [
				{
					"indexed": true,
					"internalType": "bytes32",
					"name": "role",
					"type": "bytes32"
				},
				{
					"indexed": true,
					"internalType": "bytes32",
					"name": "previousAdminRole",
					"type": "bytes32"
				},
				{
					"indexed": true,
					"internalType": "bytes32",
					"name": "newAdminRole",
					"type": "bytes32"
				}
			],
			"name": "RoleAdminChanged",
			"type": "event"
		},
		{
			"anonymous": false,
			"inputs": [
				{
					"indexed": true,
					"internalType": "bytes32",
					"name": "role",
					"type": "bytes32"
				},
				{
					"indexed": true,
					"internalType": "address",
					"name": "account",
					"type": "address"
				},
				{
					"indexed": true,
					"internalType": "address",
					"name": "sender",
					"type": "address"
				}
			],
			"name": "RoleGranted",
			"type": "event"
		},
		{
			"anonymous": false,
			"inputs": [
				{
					"indexed": true,
					"internalType": "bytes32",
					"name": "role",
					"type": "bytes32"
				},
				{
					"indexed": true,
					"internalType": "address",
					"name": "account",
					"type": "address"
				},
				{
					"indexed": true,
					"internalType": "address",
					"name": "sender",
					"type": "address"
				}
			],
			"name": "RoleRevoked",
			"type": "event"
		},
		{
			"anonymous": false,
			"inputs": [
				{
					"indexed": true,
					"internalType": "uint256",
					"name": "endBlock",
					"type": "uint256"
				}
			],
			"name": "SetEndBlock",
			"type": "event"
		},
		{
			"anonymous": false,
			"inputs": [
				{
					"indexed": true,
					"internalType": "contract IERC20",
					"name": "MetaNode",
					"type": "address"
				}
			],
			"name": "SetMetaNode",
			"type": "event"
		},
		{
			"anonymous": false,
			"inputs": [
				{
					"indexed": true,
					"internalType": "uint256",
					"name": "MetaNodePerBlock",
					"type": "uint256"
				}
			],
			"name": "SetMetaNodePerBlock",
			"type": "event"
		},
		{
			"anonymous": false,
			"inputs": [
				{
					"indexed": true,
					"internalType": "uint256",
					"name": "poolId",
					"type": "uint256"
				},
				{
					"indexed": true,
					"internalType": "uint256",
					"name": "poolWeight",
					"type": "uint256"
				},
				{
					"indexed": false,
					"internalType": "uint256",
					"name": "totalPoolWeight",
					"type": "uint256"
				}
			],
			"name": "SetPoolWeight",
			"type": "event"
		},
		{
			"anonymous": false,
			"inputs": [
				{
					"indexed": true,
					"internalType": "uint256",
					"name": "startBlock",
					"type": "uint256"
				}
			],
			"name": "SetStartBlock",
			"type": "event"
		},
		{
			"anonymous": false,
			"inputs": [],
			"name": "UnpauseClaim",
			"type": "event"
		},
		{
			"anonymous": false,
			"inputs": [],
			"name": "UnpauseWithdraw",
			"type": "event"
		},
		{
			"anonymous": false,
			"inputs": [
				{
					"indexed": false,
					"internalType": "address",
					"name": "account",
					"type": "address"
				}
			],
			"name": "Unpaused",
			"type": "event"
		},
		{
			"anonymous": false,
			"inputs": [
				{
					"indexed": true,
					"internalType": "uint256",
					"name": "poolId",
					"type": "uint256"
				},
				{
					"indexed": true,
					"internalType": "uint256",
					"name": "lastRewardBlock",
					"type": "uint256"
				},
				{
					"indexed": false,
					"internalType": "uint256",
					"name": "totalMetaNode",
					"type": "uint256"
				}
			],
			"name": "UpdatePool",
			"type": "event"
		},
		{
			"anonymous": false,
			"inputs": [
				{
					"indexed": true,
					"internalType": "uint256",
					"name": "poolId",
					"type": "uint256"
				},
				{
					"indexed": true,
					"internalType": "uint256",
					"name": "minDepositAmount",
					"type": "uint256"
				},
				{
					"indexed": true,
					"internalType": "uint256",
					"name": "unstakeLockedBlocks",
					"type": "uint256"
				}
			],
			"name": "UpdatePoolInfo",
			"type": "event"
		},
		{
			"anonymous": false,
			"inputs": [
				{
					"indexed": true,
					"internalType": "address",
					"name": "implementation",
					"type": "address"
				}
			],
			"name": "Upgraded",
			"type": "event"
		},
		{
			"anonymous": false,
			"inputs": [
				{
					"indexed": true,
					"internalType": "address",
					"name": "user",
					"type": "address"
				},
				{
					"indexed": true,
					"internalType": "uint256",
					"name": "poolId",
					"type": "uint256"
				},
				{
					"indexed": false,
					"internalType": "uint256",
					"name": "amount",
					"type": "uint256"
				},
				{
					"indexed": true,
					"internalType": "uint256",
					"name": "blockNumber",
					"type": "uint256"
				}
			],
			"name": "Withdraw",
			"type": "event"
		},
		{
			"inputs": [],
			"name": "ADMIN_ROLE",
			"outputs": [
				{
					"internalType": "bytes32",
					"name": "",
					"type": "bytes32"
				}
			],
			"stateMutability": "view",
			"type": "function"
		},
		{
			"inputs": [],
			"name": "DEFAULT_ADMIN_ROLE",
			"outputs": [
				{
					"internalType": "bytes32",
					"name": "",
					"type": "bytes32"
				}
			],
			"stateMutability": "view",
			"type": "function"
		},
		{
			"inputs": [],
			"name": "ETH_PID",
			"outputs": [
				{
					"internalType": "uint256",
					"name": "",
					"type": "uint256"
				}
			],
			"stateMutability": "view",
			"type": "function"
		},
		{
			"inputs": [],
			"name": "MetaNode",
			"outputs": [
				{
					"internalType": "contract IERC20",
					"name": "",
					"type": "address"
				}
			],
			"stateMutability": "view",
			"type": "function"
		},
		{
			"inputs": [],
			"name": "MetaNodePerBlock",
			"outputs": [
				{
					"internalType": "uint256",
					"name": "",
					"type": "uint256"
				}
			],
			"stateMutability": "view",
			"type": "function"
		},
		{
			"inputs": [],
			"name": "UPGRADE_INTERFACE_VERSION",
			"outputs": [
				{
					"internalType": "string",
					"name": "",
					"type": "string"
				}
			],
			"stateMutability": "view",
			"type": "function"
		},
		{
			"inputs": [],
			"name": "UPGRADE_ROLE",
			"outputs": [
				{
					"internalType": "bytes32",
					"name": "",
					"type": "bytes32"
				}
			],
			"stateMutability": "view",
			"type": "function"
		},
		{
			"inputs": [
				{
					"internalType": "address",
					"name": "_stTokenAddress",
					"type": "address"
				},
				{
					"internalType": "uint256",
					"name": "_poolWeight",
					"type": "uint256"
				},
				{
					"internalType": "uint256",
					"name": "_minDepositAmount",
					"type": "uint256"
				},
				{
					"internalType": "uint256",
					"name": "_unstakeLockedBlocks",
					"type": "uint256"
				},
				{
					"internalType": "bool",
					"name": "_withUpdate",
					"type": "bool"
				}
			],
			"name": "addPool",
			"outputs": [],
			"stateMutability": "nonpayable",
			"type": "function"
		},
		{
			"inputs": [
				{
					"internalType": "uint256",
					"name": "_pid",
					"type": "uint256"
				}
			],
			"name": "claim",
			"outputs": [],
			"stateMutability": "nonpayable",
			"type": "function"
		},
		{
			"inputs": [],
			"name": "claimPaused",
			"outputs": [
				{
					"internalType": "bool",
					"name": "",
					"type": "bool"
				}
			],
			"stateMutability": "view",
			"type": "function"
		},
		{
			"inputs": [
				{
					"internalType": "uint256",
					"name": "_pid",
					"type": "uint256"
				},
				{
					"internalType": "uint256",
					"name": "_amount",
					"type": "uint256"
				}
			],
			"name": "deposit",
			"outputs": [],
			"stateMutability": "nonpayable",
			"type": "function"
		},
		{
			"inputs": [],
			"name": "depositETH",
			"outputs": [],
			"stateMutability": "payable",
			"type": "function"
		},
		{
			"inputs": [],
			"name": "endBlock",
			"outputs": [
				{
					"internalType": "uint256",
					"name": "",
					"type": "uint256"
				}
			],
			"stateMutability": "view",
			"type": "function"
		},
		{
			"inputs": [
				{
					"internalType": "uint256",
					"name": "_from",
					"type": "uint256"
				},
				{
					"internalType": "uint256",
					"name": "_to",
					"type": "uint256"
				}
			],
			"name": "getMultiplier",
			"outputs": [
				{
					"internalType": "uint256",
					"name": "multiplier",
					"type": "uint256"
				}
			],
			"stateMutability": "view",
			"type": "function"
		},
		{
			"inputs": [
				{
					"internalType": "bytes32",
					"name": "role",
					"type": "bytes32"
				}
			],
			"name": "getRoleAdmin",
			"outputs": [
				{
					"internalType": "bytes32",
					"name": "",
					"type": "bytes32"
				}
			],
			"stateMutability": "view",
			"type": "function"
		},
		{
			"inputs": [
				{
					"internalType": "bytes32",
					"name": "role",
					"type": "bytes32"
				},
				{
					"internalType": "address",
					"name": "account",
					"type": "address"
				}
			],
			"name": "grantRole",
			"outputs": [],
			"stateMutability": "nonpayable",
			"type": "function"
		},
		{
			"inputs": [
				{
					"internalType": "bytes32",
					"name": "role",
					"type": "bytes32"
				},
				{
					"internalType": "address",
					"name": "account",
					"type": "address"
				}
			],
			"name": "hasRole",
			"outputs": [
				{
					"internalType": "bool",
					"name": "",
					"type": "bool"
				}
			],
			"stateMutability": "view",
			"type": "function"
		},
		{
			"inputs": [
				{
					"internalType": "contract IERC20",
					"name": "_MetaNode",
					"type": "address"
				},
				{
					"internalType": "uint256",
					"name": "_startBlock",
					"type": "uint256"
				},
				{
					"internalType": "uint256",
					"name": "_endBlock",
					"type": "uint256"
				},
				{
					"internalType": "uint256",
					"name": "_MetaNodePerBlock",
					"type": "uint256"
				}
			],
			"name": "initialize",
			"outputs": [],
			"stateMutability": "nonpayable",
			"type": "function"
		},
		{
			"inputs": [],
			"name": "massUpdatePools",
			"outputs": [],
			"stateMutability": "nonpayable",
			"type": "function"
		},
		{
			"inputs": [],
			"name": "pauseClaim",
			"outputs": [],
			"stateMutability": "nonpayable",
			"type": "function"
		},
		{
			"inputs": [],
			"name": "pauseWithdraw",
			"outputs": [],
			"stateMutability": "nonpayable",
			"type": "function"
		},
		{
			"inputs": [],
			"name": "paused",
			"outputs": [
				{
					"internalType": "bool",
					"name": "",
					"type": "bool"
				}
			],
			"stateMutability": "view",
			"type": "function"
		},
		{
			"inputs": [
				{
					"internalType": "uint256",
					"name": "_pid",
					"type": "uint256"
				},
				{
					"internalType": "address",
					"name": "_user",
					"type": "address"
				}
			],
			"name": "pendingMetaNode",
			"outputs": [
				{
					"internalType": "uint256",
					"name": "",
					"type": "uint256"
				}
			],
			"stateMutability": "view",
			"type": "function"
		},
		{
			"inputs": [
				{
					"internalType": "uint256",
					"name": "_pid",
					"type": "uint256"
				},
				{
					"internalType": "address",
					"name": "_user",
					"type": "address"
				},
				{
					"internalType": "uint256",
					"name": "_blockNumber",
					"type": "uint256"
				}
			],
			"name": "pendingMetaNodeByBlockNumber",
			"outputs": [
				{
					"internalType": "uint256",
					"name": "",
					"type": "uint256"
				}
			],
			"stateMutability": "view",
			"type": "function"
		},
		{
			"inputs": [
				{
					"internalType": "uint256",
					"name": "",
					"type": "uint256"
				}
			],
			"name": "pool",
			"outputs": [
				{
					"internalType": "address",
					"name": "stTokenAddress",
					"type": "address"
				},
				{
					"internalType": "uint256",
					"name": "poolWeight",
					"type": "uint256"
				},
				{
					"internalType": "uint256",
					"name": "lastRewardBlock",
					"type": "uint256"
				},
				{
					"internalType": "uint256",
					"name": "accMetaNodePerST",
					"type": "uint256"
				},
				{
					"internalType": "uint256",
					"name": "stTokenAmount",
					"type": "uint256"
				},
				{
					"internalType": "uint256",
					"name": "minDepositAmount",
					"type": "uint256"
				},
				{
					"internalType": "uint256",
					"name": "unstakeLockedBlocks",
					"type": "uint256"
				}
			],
			"stateMutability": "view",
			"type": "function"
		},
		{
			"inputs": [],
			"name": "poolLength",
			"outputs": [
				{
					"internalType": "uint256",
					"name": "",
					"type": "uint256"
				}
			],
			"stateMutability": "view",
			"type": "function"
		},
		{
			"inputs": [],
			"name": "proxiableUUID",
			"outputs": [
				{
					"internalType": "bytes32",
					"name": "",
					"type": "bytes32"
				}
			],
			"stateMutability": "view",
			"type": "function"
		},
		{
			"inputs": [
				{
					"internalType": "bytes32",
					"name": "role",
					"type": "bytes32"
				},
				{
					"internalType": "address",
					"name": "callerConfirmation",
					"type": "address"
				}
			],
			"name": "renounceRole",
			"outputs": [],
			"stateMutability": "nonpayable",
			"type": "function"
		},
		{
			"inputs": [
				{
					"internalType": "bytes32",
					"name": "role",
					"type": "bytes32"
				},
				{
					"internalType": "address",
					"name": "account",
					"type": "address"
				}
			],
			"name": "revokeRole",
			"outputs": [],
			"stateMutability": "nonpayable",
			"type": "function"
		},
		{
			"inputs": [
				{
					"internalType": "uint256",
					"name": "_endBlock",
					"type": "uint256"
				}
			],
			"name": "setEndBlock",
			"outputs": [],
			"stateMutability": "nonpayable",
			"type": "function"
		},
		{
			"inputs": [
				{
					"internalType": "contract IERC20",
					"name": "_MetaNode",
					"type": "address"
				}
			],
			"name": "setMetaNode",
			"outputs": [],
			"stateMutability": "nonpayable",
			"type": "function"
		},
		{
			"inputs": [
				{
					"internalType": "uint256",
					"name": "_MetaNodePerBlock",
					"type": "uint256"
				}
			],
			"name": "setMetaNodePerBlock",
			"outputs": [],
			"stateMutability": "nonpayable",
			"type": "function"
		},
		{
			"inputs": [
				{
					"internalType": "uint256",
					"name": "_pid",
					"type": "uint256"
				},
				{
					"internalType": "uint256",
					"name": "_poolWeight",
					"type": "uint256"
				},
				{
					"internalType": "bool",
					"name": "_withUpdate",
					"type": "bool"
				}
			],
			"name": "setPoolWeight",
			"outputs": [],
			"stateMutability": "nonpayable",
			"type": "function"
		},
		{
			"inputs": [
				{
					"internalType": "uint256",
					"name": "_startBlock",
					"type": "uint256"
				}
			],
			"name": "setStartBlock",
			"outputs": [],
			"stateMutability": "nonpayable",
			"type": "function"
		},
		{
			"inputs": [
				{
					"internalType": "uint256",
					"name": "_pid",
					"type": "uint256"
				},
				{
					"internalType": "address",
					"name": "_user",
					"type": "address"
				}
			],
			"name": "stakingBalance",
			"outputs": [
				{
					"internalType": "uint256",
					"name": "",
					"type": "uint256"
				}
			],
			"stateMutability": "view",
			"type": "function"
		},
		{
			"inputs": [],
			"name": "startBlock",
			"outputs": [
				{
					"internalType": "uint256",
					"name": "",
					"type": "uint256"
				}
			],
			"stateMutability": "view",
			"type": "function"
		},
		{
			"inputs": [
				{
					"internalType": "bytes4",
					"name": "interfaceId",
					"type": "bytes4"
				}
			],
			"name": "supportsInterface",
			"outputs": [
				{
					"internalType": "bool",
					"name": "",
					"type": "bool"
				}
			],
			"stateMutability": "view",
			"type": "function"
		},
		{
			"inputs": [],
			"name": "totalPoolWeight",
			"outputs": [
				{
					"internalType": "uint256",
					"name": "",
					"type": "uint256"
				}
			],
			"stateMutability": "view",
			"type": "function"
		},
		{
			"inputs": [],
			"name": "unpauseClaim",
			"outputs": [],
			"stateMutability": "nonpayable",
			"type": "function"
		},
		{
			"inputs": [],
			"name": "unpauseWithdraw",
			"outputs": [],
			"stateMutability": "nonpayable",
			"type": "function"
		},
		{
			"inputs": [
				{
					"internalType": "uint256",
					"name": "_pid",
					"type": "uint256"
				},
				{
					"internalType": "uint256",
					"name": "_amount",
					"type": "uint256"
				}
			],
			"name": "unstake",
			"outputs": [],
			"stateMutability": "nonpayable",
			"type": "function"
		},
		{
			"inputs": [
				{
					"internalType": "uint256",
					"name": "_pid",
					"type": "uint256"
				}
			],
			"name": "updatePool",
			"outputs": [],
			"stateMutability": "nonpayable",
			"type": "function"
		},
		{
			"inputs": [
				{
					"internalType": "uint256",
					"name": "_pid",
					"type": "uint256"
				},
				{
					"internalType": "uint256",
					"name": "_minDepositAmount",
					"type": "uint256"
				},
				{
					"internalType": "uint256",
					"name": "_unstakeLockedBlocks",
					"type": "uint256"
				}
			],
			"name": "updatePool",
			"outputs": [],
			"stateMutability": "nonpayable",
			"type": "function"
		},
		{
			"inputs": [
				{
					"internalType": "address",
					"name": "newImplementation",
					"type": "address"
				},
				{
					"internalType": "bytes",
					"name": "data",
					"type": "bytes"
				}
			],
			"name": "upgradeToAndCall",
			"outputs": [],
			"stateMutability": "payable",
			"type": "function"
		},
		{
			"inputs": [
				{
					"internalType": "uint256",
					"name": "",
					"type": "uint256"
				},
				{
					"internalType": "address",
					"name": "",
					"type": "address"
				}
			],
			"name": "user",
			"outputs": [
				{
					"internalType": "uint256",
					"name": "stAmount",
					"type": "uint256"
				},
				{
					"internalType": "uint256",
					"name": "finishedMetaNode",
					"type": "uint256"
				},
				{
					"internalType": "uint256",
					"name": "pendingMetaNode",
					"type": "uint256"
				}
			],
			"stateMutability": "view",
			"type": "function"
		},
		{
			"inputs": [
				{
					"internalType": "uint256",
					"name": "_pid",
					"type": "uint256"
				}
			],
			"name": "withdraw",
			"outputs": [],
			"stateMutability": "nonpayable",
			"type": "function"
		},
		{
			"inputs": [
				{
					"internalType": "uint256",
					"name": "_pid",
					"type": "uint256"
				},
				{
					"internalType": "address",
					"name": "_user",
					"type": "address"
				}
			],
			"name": "withdrawAmount",
			"outputs": [
				{
					"internalType": "uint256",
					"name": "requestAmount",
					"type": "uint256"
				},
				{
					"internalType": "uint256",
					"name": "pendingWithdrawAmount",
					"type": "uint256"
				}
			],
			"stateMutability": "view",
			"type": "function"
		},
		{
			"inputs": [],
			"name": "withdrawPaused",
			"outputs": [
				{
					"internalType": "bool",
					"name": "",
					"type": "bool"
				}
			],
			"stateMutability": "view",
			"type": "function"
		}
	]
}