{
	"data": {
		"bytecode": {
			"linkReferences": {},
			"object": "6080604052348015600e575f5ffd5b5060f78061001b5f395ff3fe6080604052348015600e575f5ffd5b50600436106026575f3560e01c8063a7ecd0ad14602a575b5f5ffd5b60306046565b604051603d939291906092565b60405180910390f35b5f5f5f303332925092509250909192565b5f73ffffffffffffffffffffffffffffffffffffffff82169050919050565b5f607e826057565b9050919050565b608c816076565b82525050565b5f60608201905060a35f8301866085565b60ae60208301856085565b60b960408301846085565b94935050505056fea26469706673582212205812a22e3da17231dd1b885db6fc505d235c74ceac6c684ad039769ab410237064736f6c634300081e0033",
			"opcodes": "PUSH1 0x80 PUSH1 0x40 MSTORE CALLVALUE DUP1 ISZERO PUSH1 0xE JUMPI PUSH0 PUSH0 REVERT JUMPDEST POP PUSH1 0xF7 DUP1 PUSH2 0x1B PUSH0 CODECOPY PUSH0 RETURN INVALID PUSH1 0x80 PUSH1 0x40 MSTORE CALLVALUE DUP1 ISZERO PUSH1 0xE JUMPI PUSH0 PUSH0 REVERT JUMPDEST POP PUSH1 0x4 CALLDATASIZE LT PUSH1 0x26 JUMPI PUSH0 CALLDATALOAD PUSH1 0xE0 SHR DUP1 PUSH4 0xA7ECD0AD EQ PUSH1 0x2A JUMPI JUMPDEST PUSH0 PUSH0 REVERT JUMPDEST PUSH1 0x30 PUSH1 0x46 JUMP JUMPDEST PUSH1 0x40 MLOAD PUSH1 0x3D SWAP4 SWAP3 SWAP2 SWAP1 PUSH1 0x92 JUMP JUMPDEST PUSH1 0x40 MLOAD DUP1 SWAP2 SUB SWAP1 RETURN JUMPDEST PUSH0 PUSH0 PUSH0 ADDRESS CALLER ORIGIN SWAP3 POP SWAP3 POP SWAP3 POP SWAP1 SWAP2 SWAP3 JUMP JUMPDEST PUSH0 PUSH20 0xFFFFFFFFFFFFFFFFFFFFFFFFFFFFFFFFFFFFFFFF DUP3 AND SWAP1 POP SWAP2 SWAP1 POP JUMP JUMPDEST PUSH0 PUSH1 0x7E DUP3 PUSH1 0x57 JUMP JUMPDEST SWAP1 POP SWAP2 SWAP1 POP JUMP JUMPDEST PUSH1 0x8C DUP2 PUSH1 0x76 JUMP JUMPDEST DUP3 MSTORE POP POP JUMP JUMPDEST PUSH0 PUSH1 0x60 DUP3 ADD SWAP1 POP PUSH1 0xA3 PUSH0 DUP4 ADD DUP7 PUSH1 0x85 JUMP JUMPDEST PUSH1 0xAE PUSH1 0x20 DUP4 ADD DUP6 PUSH1 0x85 JUMP JUMPDEST PUSH1 0xB9 PUSH1 0x40 DUP4 ADD DUP5 PUSH1 0x85 JUMP JUMPDEST SWAP5 SWAP4 POP POP POP POP JUMP INVALID LOG2 PUSH5 0x6970667358 0x22 SLT KECCAK256 PC SLT LOG2 0x2E RETURNDATASIZE LOG1 PUSH19 0x31DD1B885DB6FC505D235C74CEAC6C684AD039 PUSH23 0x9AB410237064736F6C634300081E003300000000000000 "
		},
		"gasEstimates": {
			"creation": {
				"codeDepositCost": "49400",
				"executionCost": "97",
				"totalCost": "49497"
			},
			"external": {
				"getSpecialAddresses()": "infinite"
			}
		},
		"methodIdentifiers": {
			"getSpecialAddresses()": "a7ecd0ad"
		}
	},
	"abi": [
		{
			"inputs": [],
			"name": "getSpecialAddresses",
			"outputs": [
				{
					"internalType": "address",
					"name": "",
					"type": "address"
				},
				{
					"internalType": "address",
					"name": "",
					"type": "address"
				},
				{
					"internalType": "address",
					"name": "",
					"type": "address"
				}
			],
			"stateMutability": "view",
			"type": "function"
		}
	]
}