{
	"data": {
		"bytecode": {
			"linkReferences": {},
			"object": "60a0604052348015600e575f5ffd5b503373ffffffffffffffffffffffffffffffffffffffff1660808173ffffffffffffffffffffffffffffffffffffffff16815250506080516106736100695f395f818161010601528181610272015261038e01526106735ff3fe608060405234801561000f575f5ffd5b5060043610610055575f3560e01c80631b3ed72214610059578063540c101814610077578063569c5f6d14610093578063d39fa233146100b1578063f851a440146100e1575b5f5ffd5b6100616100ff565b60405161006e91906103c8565b60405180910390f35b610091600480360381019061008c919061044a565b610104565b005b61009b61026f565b6040516100a891906103c8565b60405180910390f35b6100cb60048036038101906100c691906104bf565b61036d565b6040516100d891906103c8565b60405180910390f35b6100e961038c565b6040516100f69190610529565b60405180910390f35b600281565b7f000000000000000000000000000000000000000000000000000000000000000073ffffffffffffffffffffffffffffffffffffffff163373ffffffffffffffffffffffffffffffffffffffff161461015b575f5ffd5b5f8282905090505f8167ffffffffffffffff81111561017d5761017c610542565b5b6040519080825280602002602001820160405280156101ab5781602001602082028036833780820191505090505b5090505f5f90505b8281101561020d5760028585838181106101d0576101cf61056f565b5b905060200201356101e191906105c9565b8282815181106101f4576101f361056f565b5b60200260200101818152505080806001019150506101b3565b505f5f90505b8151811015610268575f8282815181106102305761022f61056f565b5b6020026020010151908060018154018082558091505060019003905f5260205f20015f90919091909150558080600101915050610213565b5050505050565b5f7f000000000000000000000000000000000000000000000000000000000000000073ffffffffffffffffffffffffffffffffffffffff163373ffffffffffffffffffffffffffffffffffffffff16146102c7575f5ffd5b5f5f90505f5f80548060200260200160405190810160405280929190818152602001828054801561031557602002820191905f5260205f20905b815481526020019060010190808311610301575b505050505090505f815190505f5f90505b81811015610363578281815181106103415761034061056f565b5b602002602001015184610354919061060a565b93508080600101915050610326565b5082935050505090565b5f818154811061037b575f80fd5b905f5260205f20015f915090505481565b7f000000000000000000000000000000000000000000000000000000000000000081565b5f819050919050565b6103c2816103b0565b82525050565b5f6020820190506103db5f8301846103b9565b92915050565b5f5ffd5b5f5ffd5b5f5ffd5b5f5ffd5b5f5ffd5b5f5f83601f84011261040a576104096103e9565b5b8235905067ffffffffffffffff811115610427576104266103ed565b5b602083019150836020820283011115610443576104426103f1565b5b9250929050565b5f5f602083850312156104605761045f6103e1565b5b5f83013567ffffffffffffffff81111561047d5761047c6103e5565b5b610489858286016103f5565b92509250509250929050565b61049e816103b0565b81146104a8575f5ffd5b50565b5f813590506104b981610495565b92915050565b5f602082840312156104d4576104d36103e1565b5b5f6104e1848285016104ab565b91505092915050565b5f73ffffffffffffffffffffffffffffffffffffffff82169050919050565b5f610513826104ea565b9050919050565b61052381610509565b82525050565b5f60208201905061053c5f83018461051a565b92915050565b7f4e487b71000000000000000000000000000000000000000000000000000000005f52604160045260245ffd5b7f4e487b71000000000000000000000000000000000000000000000000000000005f52603260045260245ffd5b7f4e487b71000000000000000000000000000000000000000000000000000000005f52601160045260245ffd5b5f6105d3826103b0565b91506105de836103b0565b92508282026105ec816103b0565b915082820484148315176106035761060261059c565b5b5092915050565b5f610614826103b0565b915061061f836103b0565b92508282019050808211156106375761063661059c565b5b9291505056fea2646970667358221220e3c2092415a5ae5bb201c1f4ad8d9a5ec53b9e69d0081693c27907be3650388e64736f6c634300081e0033",
			"opcodes": "PUSH1 0xA0 PUSH1 0x40 MSTORE CALLVALUE DUP1 ISZERO PUSH1 0xE JUMPI PUSH0 PUSH0 REVERT JUMPDEST POP CALLER PUSH20 0xFFFFFFFFFFFFFFFFFFFFFFFFFFFFFFFFFFFFFFFF AND PUSH1 0x80 DUP2 PUSH20 0xFFFFFFFFFFFFFFFFFFFFFFFFFFFFFFFFFFFFFFFF AND DUP2 MSTORE POP POP PUSH1 0x80 MLOAD PUSH2 0x673 PUSH2 0x69 PUSH0 CODECOPY PUSH0 DUP2 DUP2 PUSH2 0x106 ADD MSTORE DUP2 DUP2 PUSH2 0x272 ADD MSTORE PUSH2 0x38E ADD MSTORE PUSH2 0x673 PUSH0 RETURN INVALID PUSH1 0x80 PUSH1 0x40 MSTORE CALLVALUE DUP1 ISZERO PUSH2 0xF JUMPI PUSH0 PUSH0 REVERT JUMPDEST POP PUSH1 0x4 CALLDATASIZE LT PUSH2 0x55 JUMPI PUSH0 CALLDATALOAD PUSH1 0xE0 SHR DUP1 PUSH4 0x1B3ED722 EQ PUSH2 0x59 JUMPI DUP1 PUSH4 0x540C1018 EQ PUSH2 0x77 JUMPI DUP1 PUSH4 0x569C5F6D EQ PUSH2 0x93 JUMPI DUP1 PUSH4 0xD39FA233 EQ PUSH2 0xB1 JUMPI DUP1 PUSH4 0xF851A440 EQ PUSH2 0xE1 JUMPI JUMPDEST PUSH0 PUSH0 REVERT JUMPDEST PUSH2 0x61 PUSH2 0xFF JUMP JUMPDEST PUSH1 0x40 MLOAD PUSH2 0x6E SWAP2 SWAP1 PUSH2 0x3C8 JUMP JUMPDEST PUSH1 0x40 MLOAD DUP1 SWAP2 SUB SWAP1 RETURN JUMPDEST PUSH2 0x91 PUSH1 0x4 DUP1 CALLDATASIZE SUB DUP2 ADD SWAP1 PUSH2 0x8C SWAP2 SWAP1 PUSH2 0x44A JUMP JUMPDEST PUSH2 0x104 JUMP JUMPDEST STOP JUMPDEST PUSH2 0x9B PUSH2 0x26F JUMP JUMPDEST PUSH1 0x40 MLOAD PUSH2 0xA8 SWAP2 SWAP1 PUSH2 0x3C8 JUMP JUMPDEST PUSH1 0x40 MLOAD DUP1 SWAP2 SUB SWAP1 RETURN JUMPDEST PUSH2 0xCB PUSH1 0x4 DUP1 CALLDATASIZE SUB DUP2 ADD SWAP1 PUSH2 0xC6 SWAP2 SWAP1 PUSH2 0x4BF JUMP JUMPDEST PUSH2 0x36D JUMP JUMPDEST PUSH1 0x40 MLOAD PUSH2 0xD8 SWAP2 SWAP1 PUSH2 0x3C8 JUMP JUMPDEST PUSH1 0x40 MLOAD DUP1 SWAP2 SUB SWAP1 RETURN JUMPDEST PUSH2 0xE9 PUSH2 0x38C JUMP JUMPDEST PUSH1 0x40 MLOAD PUSH2 0xF6 SWAP2 SWAP1 PUSH2 0x529 JUMP JUMPDEST PUSH1 0x40 MLOAD DUP1 SWAP2 SUB SWAP1 RETURN JUMPDEST PUSH1 0x2 DUP2 JUMP JUMPDEST PUSH32 0x0 PUSH20 0xFFFFFFFFFFFFFFFFFFFFFFFFFFFFFFFFFFFFFFFF AND CALLER PUSH20 0xFFFFFFFFFFFFFFFFFFFFFFFFFFFFFFFFFFFFFFFF AND EQ PUSH2 0x15B JUMPI PUSH0 PUSH0 REVERT JUMPDEST PUSH0 DUP3 DUP3 SWAP1 POP SWAP1 POP PUSH0 DUP2 PUSH8 0xFFFFFFFFFFFFFFFF DUP2 GT ISZERO PUSH2 0x17D JUMPI PUSH2 0x17C PUSH2 0x542 JUMP JUMPDEST JUMPDEST PUSH1 0x40 MLOAD SWAP1 DUP1 DUP3 MSTORE DUP1 PUSH1 0x20 MUL PUSH1 0x20 ADD DUP3 ADD PUSH1 0x40 MSTORE DUP1 ISZERO PUSH2 0x1AB JUMPI DUP2 PUSH1 0x20 ADD PUSH1 0x20 DUP3 MUL DUP1 CALLDATASIZE DUP4 CALLDATACOPY DUP1 DUP3 ADD SWAP2 POP POP SWAP1 POP JUMPDEST POP SWAP1 POP PUSH0 PUSH0 SWAP1 POP JUMPDEST DUP3 DUP2 LT ISZERO PUSH2 0x20D JUMPI PUSH1 0x2 DUP6 DUP6 DUP4 DUP2 DUP2 LT PUSH2 0x1D0 JUMPI PUSH2 0x1CF PUSH2 0x56F JUMP JUMPDEST JUMPDEST SWAP1 POP PUSH1 0x20 MUL ADD CALLDATALOAD PUSH2 0x1E1 SWAP2 SWAP1 PUSH2 0x5C9 JUMP JUMPDEST DUP3 DUP3 DUP2 MLOAD DUP2 LT PUSH2 0x1F4 JUMPI PUSH2 0x1F3 PUSH2 0x56F JUMP JUMPDEST JUMPDEST PUSH1 0x20 MUL PUSH1 0x20 ADD ADD DUP2 DUP2 MSTORE POP POP DUP1 DUP1 PUSH1 0x1 ADD SWAP2 POP POP PUSH2 0x1B3 JUMP JUMPDEST POP PUSH0 PUSH0 SWAP1 POP JUMPDEST DUP2 MLOAD DUP2 LT ISZERO PUSH2 0x268 JUMPI PUSH0 DUP3 DUP3 DUP2 MLOAD DUP2 LT PUSH2 0x230 JUMPI PUSH2 0x22F PUSH2 0x56F JUMP JUMPDEST JUMPDEST PUSH1 0x20 MUL PUSH1 0x20 ADD ADD MLOAD SWAP1 DUP1 PUSH1 0x1 DUP2 SLOAD ADD DUP1 DUP3 SSTORE DUP1 SWAP2 POP POP PUSH1 0x1 SWAP1 SUB SWAP1 PUSH0 MSTORE PUSH1 0x20 PUSH0 KECCAK256 ADD PUSH0 SWAP1 SWAP2 SWAP1 SWAP2 SWAP1 SWAP2 POP SSTORE DUP1 DUP1 PUSH1 0x1 ADD SWAP2 POP POP PUSH2 0x213 JUMP JUMPDEST POP POP POP POP POP JUMP JUMPDEST PUSH0 PUSH32 0x0 PUSH20 0xFFFFFFFFFFFFFFFFFFFFFFFFFFFFFFFFFFFFFFFF AND CALLER PUSH20 0xFFFFFFFFFFFFFFFFFFFFFFFFFFFFFFFFFFFFFFFF AND EQ PUSH2 0x2C7 JUMPI PUSH0 PUSH0 REVERT JUMPDEST PUSH0 PUSH0 SWAP1 POP PUSH0 PUSH0 DUP1 SLOAD DUP1 PUSH1 0x20 MUL PUSH1 0x20 ADD PUSH1 0x40 MLOAD SWAP1 DUP2 ADD PUSH1 0x40 MSTORE DUP1 SWAP3 SWAP2 SWAP1 DUP2 DUP2 MSTORE PUSH1 0x20 ADD DUP3 DUP1 SLOAD DUP1 ISZERO PUSH2 0x315 JUMPI PUSH1 0x20 MUL DUP3 ADD SWAP2 SWAP1 PUSH0 MSTORE PUSH1 0x20 PUSH0 KECCAK256 SWAP1 JUMPDEST DUP2 SLOAD DUP2 MSTORE PUSH1 0x20 ADD SWAP1 PUSH1 0x1 ADD SWAP1 DUP1 DUP4 GT PUSH2 0x301 JUMPI JUMPDEST POP POP POP POP POP SWAP1 POP PUSH0 DUP2 MLOAD SWAP1 POP PUSH0 PUSH0 SWAP1 POP JUMPDEST DUP2 DUP2 LT ISZERO PUSH2 0x363 JUMPI DUP3 DUP2 DUP2 MLOAD DUP2 LT PUSH2 0x341 JUMPI PUSH2 0x340 PUSH2 0x56F JUMP JUMPDEST JUMPDEST PUSH1 0x20 MUL PUSH1 0x20 ADD ADD MLOAD DUP5 PUSH2 0x354 SWAP2 SWAP1 PUSH2 0x60A JUMP JUMPDEST SWAP4 POP DUP1 DUP1 PUSH1 0x1 ADD SWAP2 POP POP PUSH2 0x326 JUMP JUMPDEST POP DUP3 SWAP4 POP POP POP POP SWAP1 JUMP JUMPDEST PUSH0 DUP2 DUP2 SLOAD DUP2 LT PUSH2 0x37B JUMPI PUSH0 DUP1 REVERT JUMPDEST SWAP1 PUSH0 MSTORE PUSH1 0x20 PUSH0 KECCAK256 ADD PUSH0 SWAP2 POP SWAP1 POP SLOAD DUP2 JUMP JUMPDEST PUSH32 0x0 DUP2 JUMP JUMPDEST PUSH0 DUP2 SWAP1 POP SWAP2 SWAP1 POP JUMP JUMPDEST PUSH2 0x3C2 DUP2 PUSH2 0x3B0 JUMP JUMPDEST DUP3 MSTORE POP POP JUMP JUMPDEST PUSH0 PUSH1 0x20 DUP3 ADD SWAP1 POP PUSH2 0x3DB PUSH0 DUP4 ADD DUP5 PUSH2 0x3B9 JUMP JUMPDEST SWAP3 SWAP2 POP POP JUMP JUMPDEST PUSH0 PUSH0 REVERT JUMPDEST PUSH0 PUSH0 REVERT JUMPDEST PUSH0 PUSH0 REVERT JUMPDEST PUSH0 PUSH0 REVERT JUMPDEST PUSH0 PUSH0 REVERT JUMPDEST PUSH0 PUSH0 DUP4 PUSH1 0x1F DUP5 ADD SLT PUSH2 0x40A JUMPI PUSH2 0x409 PUSH2 0x3E9 JUMP JUMPDEST JUMPDEST DUP3 CALLDATALOAD SWAP1 POP PUSH8 0xFFFFFFFFFFFFFFFF DUP2 GT ISZERO PUSH2 0x427 JUMPI PUSH2 0x426 PUSH2 0x3ED JUMP JUMPDEST JUMPDEST PUSH1 0x20 DUP4 ADD SWAP2 POP DUP4 PUSH1 0x20 DUP3 MUL DUP4 ADD GT ISZERO PUSH2 0x443 JUMPI PUSH2 0x442 PUSH2 0x3F1 JUMP JUMPDEST JUMPDEST SWAP3 POP SWAP3 SWAP1 POP JUMP JUMPDEST PUSH0 PUSH0 PUSH1 0x20 DUP4 DUP6 SUB SLT ISZERO PUSH2 0x460 JUMPI PUSH2 0x45F PUSH2 0x3E1 JUMP JUMPDEST JUMPDEST PUSH0 DUP4 ADD CALLDATALOAD PUSH8 0xFFFFFFFFFFFFFFFF DUP2 GT ISZERO PUSH2 0x47D JUMPI PUSH2 0x47C PUSH2 0x3E5 JUMP JUMPDEST JUMPDEST PUSH2 0x489 DUP6 DUP3 DUP7 ADD PUSH2 0x3F5 JUMP JUMPDEST SWAP3 POP SWAP3 POP POP SWAP3 POP SWAP3 SWAP1 POP JUMP JUMPDEST PUSH2 0x49E DUP2 PUSH2 0x3B0 JUMP JUMPDEST DUP2 EQ PUSH2 0x4A8 JUMPI PUSH0 PUSH0 REVERT JUMPDEST POP JUMP JUMPDEST PUSH0 DUP2 CALLDATALOAD SWAP1 POP PUSH2 0x4B9 DUP2 PUSH2 0x495 JUMP JUMPDEST SWAP3 SWAP2 POP POP JUMP JUMPDEST PUSH0 PUSH1 0x20 DUP3 DUP5 SUB SLT ISZERO PUSH2 0x4D4 JUMPI PUSH2 0x4D3 PUSH2 0x3E1 JUMP JUMPDEST JUMPDEST PUSH0 PUSH2 0x4E1 DUP5 DUP3 DUP6 ADD PUSH2 0x4AB JUMP JUMPDEST SWAP2 POP POP SWAP3 SWAP2 POP POP JUMP JUMPDEST PUSH0 PUSH20 0xFFFFFFFFFFFFFFFFFFFFFFFFFFFFFFFFFFFFFFFF DUP3 AND SWAP1 POP SWAP2 SWAP1 POP JUMP JUMPDEST PUSH0 PUSH2 0x513 DUP3 PUSH2 0x4EA JUMP JUMPDEST SWAP1 POP SWAP2 SWAP1 POP JUMP JUMPDEST PUSH2 0x523 DUP2 PUSH2 0x509 JUMP JUMPDEST DUP3 MSTORE POP POP JUMP JUMPDEST PUSH0 PUSH1 0x20 DUP3 ADD SWAP1 POP PUSH2 0x53C PUSH0 DUP4 ADD DUP5 PUSH2 0x51A JUMP JUMPDEST SWAP3 SWAP2 POP POP JUMP JUMPDEST PUSH32 0x4E487B7100000000000000000000000000000000000000000000000000000000 PUSH0 MSTORE PUSH1 0x41 PUSH1 0x4 MSTORE PUSH1 0x24 PUSH0 REVERT JUMPDEST PUSH32 0x4E487B7100000000000000000000000000000000000000000000000000000000 PUSH0 MSTORE PUSH1 0x32 PUSH1 0x4 MSTORE PUSH1 0x24 PUSH0 REVERT JUMPDEST PUSH32 0x4E487B7100000000000000000000000000000000000000000000000000000000 PUSH0 MSTORE PUSH1 0x11 PUSH1 0x4 MSTORE PUSH1 0x24 PUSH0 REVERT JUMPDEST PUSH0 PUSH2 0x5D3 DUP3 PUSH2 0x3B0 JUMP JUMPDEST SWAP2 POP PUSH2 0x5DE DUP4 PUSH2 0x3B0 JUMP JUMPDEST SWAP3 POP DUP3 DUP3 MUL PUSH2 0x5EC DUP2 PUSH2 0x3B0 JUMP JUMPDEST SWAP2 POP DUP3 DUP3 DIV DUP5 EQ DUP4 ISZERO OR PUSH2 0x603 JUMPI PUSH2 0x602 PUSH2 0x59C JUMP JUMPDEST JUMPDEST POP SWAP3 SWAP2 POP POP JUMP JUMPDEST PUSH0 PUSH2 0x614 DUP3 PUSH2 0x3B0 JUMP JUMPDEST SWAP2 POP PUSH2 0x61F DUP4 PUSH2 0x3B0 JUMP JUMPDEST SWAP3 POP DUP3 DUP3 ADD SWAP1 POP DUP1 DUP3 GT ISZERO PUSH2 0x637 JUMPI PUSH2 0x636 PUSH2 0x59C JUMP JUMPDEST JUMPDEST SWAP3 SWAP2 POP POP JUMP INVALID LOG2 PUSH5 0x6970667358 0x22 SLT KECCAK256 CALLF 0xC209 0x24 ISZERO 0xA5 0xAE JUMPDEST 0xB2 ADD 0xC1 DELEGATECALL 0xAD DUP14 SWAP11 MCOPY 0xC5 EXTCODESIZE SWAP15 PUSH10 0xD0081693C27907BE3650 CODESIZE DUP15 PUSH5 0x736F6C6343 STOP ADDMOD 0x1E STOP CALLER "
		},
		"gasEstimates": {
			"creation": {
				"codeDepositCost": "330200",
				"executionCost": "infinite",
				"totalCost": "infinite"
			},
			"external": {
				"admin()": "infinite",
				"batchProcess(uint256[])": "infinite",
				"getSum()": "infinite",
				"multiplier()": "303",
				"numbers(uint256)": "infinite"
			}
		},
		"methodIdentifiers": {
			"admin()": "f851a440",
			"batchProcess(uint256[])": "540c1018",
			"getSum()": "569c5f6d",
			"multiplier()": "1b3ed722",
			"numbers(uint256)": "d39fa233"
		}
	},
	"abi": [
		{
			"inputs": [],
			"stateMutability": "nonpayable",
			"type": "constructor"
		},
		{
			"inputs": [],
			"name": "admin",
			"outputs": [
				{
					"internalType": "address",
					"name": "",
					"type": "address"
				}
			],
			"stateMutability": "view",
			"type": "function"
		},
		{
			"inputs": [
				{
					"internalType": "uint256[]",
					"name": "inputs",
					"type": "uint256[]"
				}
			],
			"name": "batchProcess",
			"outputs": [],
			"stateMutability": "nonpayable",
			"type": "function"
		},
		{
			"inputs": [],
			"name": "getSum",
			"outputs": [
				{
					"internalType": "uint256",
					"name": "",
					"type": "uint256"
				}
			],
			"stateMutability": "view",
			"type": "function"
		},
		{
			"inputs": [],
			"name": "multiplier",
			"outputs": [
				{
					"internalType": "uint256",
					"name": "",
					"type": "uint256"
				}
			],
			"stateMutability": "view",
			"type": "function"
		},
		{
			"inputs": [
				{
					"internalType": "uint256",
					"name": "",
					"type": "uint256"
				}
			],
			"name": "numbers",
			"outputs": [
				{
					"internalType": "uint256",
					"name": "",
					"type": "uint256"
				}
			],
			"stateMutability": "view",
			"type": "function"
		}
	]
}