{
	"data": {
		"bytecode": {
			"linkReferences": {},
			"object": "60a06040523073ffffffffffffffffffffffffffffffffffffffff1660809073ffffffffffffffffffffffffffffffffffffffff168152503480156041575f5ffd5b506080516117fb6100685f395f81816106a2015281816106f701526108b101526117fb5ff3fe6080604052600436106100a6575f3560e01c80636e9d13ab116100635780636e9d13ab14610194578063715018a6146101bc5780638da5cb5b146101d2578063ad3cb1cc146101fc578063e21f37ce14610226578063f2fde38b14610250576100a6565b806302d05d3f146100aa578063368b8772146100d45780633fa4f245146100fc5780634f1ef2861461012657806352d1902d14610142578063552410771461016c575b5f5ffd5b3480156100b5575f5ffd5b506100be610278565b6040516100cb9190610f5a565b60405180910390f35b3480156100df575f5ffd5b506100fa60048036038101906100f591906110c0565b61029d565b005b348015610107575f5ffd5b506101106102b0565b60405161011d919061111f565b60405180910390f35b610140600480360381019061013b9190611200565b6102b5565b005b34801561014d575f5ffd5b506101566102d4565b6040516101639190611272565b60405180910390f35b348015610177575f5ffd5b50610192600480360381019061018d91906112b5565b610305565b005b34801561019f575f5ffd5b506101ba60048036038101906101b591906112e0565b61030e565b005b3480156101c7575f5ffd5b506101d061050f565b005b3480156101dd575f5ffd5b506101e6610522565b6040516101f39190610f5a565b60405180910390f35b348015610207575f5ffd5b50610210610557565b60405161021d919061139a565b60405180910390f35b348015610231575f5ffd5b5061023a610590565b604051610247919061139a565b60405180910390f35b34801561025b575f5ffd5b50610276600480360381019061027191906113ba565b61061c565b005b60025f9054906101000a900473ffffffffffffffffffffffffffffffffffffffff1681565b80600190816102ac91906115e2565b5050565b5f5481565b6102bd6106a0565b6102c682610786565b6102d08282610791565b5050565b5f6102dd6108af565b7f360894a13ba1a3210667c828492db98dca3e2076cc3735a920a3ca505d382bbc5f1b905090565b805f8190555050565b5f610317610936565b90505f815f0160089054906101000a900460ff161590505f825f015f9054906101000a900467ffffffffffffffff1690505f5f8267ffffffffffffffff1614801561035f5750825b90505f60018367ffffffffffffffff1614801561039257505f3073ffffffffffffffffffffffffffffffffffffffff163b145b9050811580156103a0575080155b156103d7576040517ff92ee8a900000000000000000000000000000000000000000000000000000000815260040160405180910390fd5b6001855f015f6101000a81548167ffffffffffffffff021916908367ffffffffffffffff1602179055508315610424576001855f0160086101000a81548160ff0219169083151502179055505b61044e60025f9054906101000a900473ffffffffffffffffffffffffffffffffffffffff16610949565b61045661095d565b865f81905550856001908161046b91906115e2565b503360025f6101000a81548173ffffffffffffffffffffffffffffffffffffffff021916908373ffffffffffffffffffffffffffffffffffffffff1602179055508315610506575f855f0160086101000a81548160ff0219169083151502179055507fc7f505b2f371ae2175ee4913f4499e1f2633a7b5936321eed1cdaeb6115181d260016040516104fd91906116fd565b60405180910390a15b50505050505050565b610517610967565b6105205f6109ee565b565b5f5f61052c610abf565b9050805f015f9054906101000a900473ffffffffffffffffffffffffffffffffffffffff1691505090565b6040518060400160405280600581526020017f352e302e3000000000000000000000000000000000000000000000000000000081525081565b6001805461059d90611412565b80601f01602080910402602001604051908101604052809291908181526020018280546105c990611412565b80156106145780601f106105eb57610100808354040283529160200191610614565b820191905f5260205f20905b8154815290600101906020018083116105f757829003601f168201915b505050505081565b610624610967565b5f73ffffffffffffffffffffffffffffffffffffffff168173ffffffffffffffffffffffffffffffffffffffff1603610694575f6040517f1e4fbdf700000000000000000000000000000000000000000000000000000000815260040161068b9190610f5a565b60405180910390fd5b61069d816109ee565b50565b7f000000000000000000000000000000000000000000000000000000000000000073ffffffffffffffffffffffffffffffffffffffff163073ffffffffffffffffffffffffffffffffffffffff16148061074d57507f000000000000000000000000000000000000000000000000000000000000000073ffffffffffffffffffffffffffffffffffffffff16610734610ae6565b73ffffffffffffffffffffffffffffffffffffffff1614155b15610784576040517fe07c8dba00000000000000000000000000000000000000000000000000000000815260040160405180910390fd5b565b61078e610967565b50565b8173ffffffffffffffffffffffffffffffffffffffff166352d1902d6040518163ffffffff1660e01b8152600401602060405180830381865afa9250505080156107f957506040513d601f19601f820116820180604052508101906107f69190611740565b60015b61083a57816040517f4c9c8ce30000000000000000000000000000000000000000000000000000000081526004016108319190610f5a565b60405180910390fd5b7f360894a13ba1a3210667c828492db98dca3e2076cc3735a920a3ca505d382bbc5f1b81146108a057806040517faa1d49a40000000000000000000000000000000000000000000000000000000081526004016108979190611272565b60405180910390fd5b6108aa8383610b39565b505050565b7f000000000000000000000000000000000000000000000000000000000000000073ffffffffffffffffffffffffffffffffffffffff163073ffffffffffffffffffffffffffffffffffffffff1614610934576040517fe07c8dba00000000000000000000000000000000000000000000000000000000815260040160405180910390fd5b565b5f5f610940610bab565b90508091505090565b610951610bd4565b61095a81610c14565b50565b610965610bd4565b565b61096f610c98565b73ffffffffffffffffffffffffffffffffffffffff1661098d610522565b73ffffffffffffffffffffffffffffffffffffffff16146109ec576109b0610c98565b6040517f118cdaa70000000000000000000000000000000000000000000000000000000081526004016109e39190610f5a565b60405180910390fd5b565b5f6109f7610abf565b90505f815f015f9054906101000a900473ffffffffffffffffffffffffffffffffffffffff16905082825f015f6101000a81548173ffffffffffffffffffffffffffffffffffffffff021916908373ffffffffffffffffffffffffffffffffffffffff1602179055508273ffffffffffffffffffffffffffffffffffffffff168173ffffffffffffffffffffffffffffffffffffffff167f8be0079c531659141344cd1fd0a4f28419497f9722a3daafe3b4186f6b6457e060405160405180910390a3505050565b5f7f9016d09d72d40fdae2fd8ceac6b6234c7706214fd39c1cd1e609a0528c199300905090565b5f610b127f360894a13ba1a3210667c828492db98dca3e2076cc3735a920a3ca505d382bbc5f1b610c9f565b5f015f9054906101000a900473ffffffffffffffffffffffffffffffffffffffff16905090565b610b4282610ca8565b8173ffffffffffffffffffffffffffffffffffffffff167fbc7cd75a20ee27fd9adebab32041f755214dbc6bffa90cc0225b39da2e5c2d3b60405160405180910390a25f81511115610b9e57610b988282610d71565b50610ba7565b610ba6610df1565b5b5050565b5f7ff0c57e16840df040f15088dc2f81fe391c3923bec73e23a9662efc9c229c6a005f1b905090565b610bdc610e2d565b610c12576040517fd7e6bcf800000000000000000000000000000000000000000000000000000000815260040160405180910390fd5b565b610c1c610bd4565b5f73ffffffffffffffffffffffffffffffffffffffff168173ffffffffffffffffffffffffffffffffffffffff1603610c8c575f6040517f1e4fbdf7000000000000000000000000000000000000000000000000000000008152600401610c839190610f5a565b60405180910390fd5b610c95816109ee565b50565b5f33905090565b5f819050919050565b5f8173ffffffffffffffffffffffffffffffffffffffff163b03610d0357806040517f4c9c8ce3000000000000000000000000000000000000000000000000000000008152600401610cfa9190610f5a565b60405180910390fd5b80610d2f7f360894a13ba1a3210667c828492db98dca3e2076cc3735a920a3ca505d382bbc5f1b610c9f565b5f015f6101000a81548173ffffffffffffffffffffffffffffffffffffffff021916908373ffffffffffffffffffffffffffffffffffffffff16021790555050565b60605f5f8473ffffffffffffffffffffffffffffffffffffffff1684604051610d9a91906117af565b5f60405180830381855af49150503d805f8114610dd2576040519150601f19603f3d011682016040523d82523d5f602084013e610dd7565b606091505b5091509150610de7858383610e4b565b9250505092915050565b5f341115610e2b576040517fb398979f00000000000000000000000000000000000000000000000000000000815260040160405180910390fd5b565b5f610e36610936565b5f0160089054906101000a900460ff16905090565b606082610e6057610e5b82610ed8565b610ed0565b5f8251148015610e8657505f8473ffffffffffffffffffffffffffffffffffffffff163b145b15610ec857836040517f9996b315000000000000000000000000000000000000000000000000000000008152600401610ebf9190610f5a565b60405180910390fd5b819050610ed1565b5b9392505050565b5f81511115610ee957805160208201fd5b6040517fd6bda27500000000000000000000000000000000000000000000000000000000815260040160405180910390fd5b5f73ffffffffffffffffffffffffffffffffffffffff82169050919050565b5f610f4482610f1b565b9050919050565b610f5481610f3a565b82525050565b5f602082019050610f6d5f830184610f4b565b92915050565b5f604051905090565b5f5ffd5b5f5ffd5b5f5ffd5b5f5ffd5b5f601f19601f8301169050919050565b7f4e487b71000000000000000000000000000000000000000000000000000000005f52604160045260245ffd5b610fd282610f8c565b810181811067ffffffffffffffff82111715610ff157610ff0610f9c565b5b80604052505050565b5f611003610f73565b905061100f8282610fc9565b919050565b5f67ffffffffffffffff82111561102e5761102d610f9c565b5b61103782610f8c565b9050602081019050919050565b828183375f83830152505050565b5f61106461105f84611014565b610ffa565b9050828152602081018484840111156110805761107f610f88565b5b61108b848285611044565b509392505050565b5f82601f8301126110a7576110a6610f84565b5b81356110b7848260208601611052565b91505092915050565b5f602082840312156110d5576110d4610f7c565b5b5f82013567ffffffffffffffff8111156110f2576110f1610f80565b5b6110fe84828501611093565b91505092915050565b5f819050919050565b61111981611107565b82525050565b5f6020820190506111325f830184611110565b92915050565b61114181610f3a565b811461114b575f5ffd5b50565b5f8135905061115c81611138565b92915050565b5f67ffffffffffffffff82111561117c5761117b610f9c565b5b61118582610f8c565b9050602081019050919050565b5f6111a461119f84611162565b610ffa565b9050828152602081018484840111156111c0576111bf610f88565b5b6111cb848285611044565b509392505050565b5f82601f8301126111e7576111e6610f84565b5b81356111f7848260208601611192565b91505092915050565b5f5f6040838503121561121657611215610f7c565b5b5f6112238582860161114e565b925050602083013567ffffffffffffffff81111561124457611243610f80565b5b611250858286016111d3565b9150509250929050565b5f819050919050565b61126c8161125a565b82525050565b5f6020820190506112855f830184611263565b92915050565b61129481611107565b811461129e575f5ffd5b50565b5f813590506112af8161128b565b92915050565b5f602082840312156112ca576112c9610f7c565b5b5f6112d7848285016112a1565b91505092915050565b5f5f604083850312156112f6576112f5610f7c565b5b5f611303858286016112a1565b925050602083013567ffffffffffffffff81111561132457611323610f80565b5b61133085828601611093565b9150509250929050565b5f81519050919050565b5f82825260208201905092915050565b8281835e5f83830152505050565b5f61136c8261133a565b6113768185611344565b9350611386818560208601611354565b61138f81610f8c565b840191505092915050565b5f6020820190508181035f8301526113b28184611362565b905092915050565b5f602082840312156113cf576113ce610f7c565b5b5f6113dc8482850161114e565b91505092915050565b7f4e487b71000000000000000000000000000000000000000000000000000000005f52602260045260245ffd5b5f600282049050600182168061142957607f821691505b60208210810361143c5761143b6113e5565b5b50919050565b5f819050815f5260205f209050919050565b5f6020601f8301049050919050565b5f82821b905092915050565b5f6008830261149e7fffffffffffffffffffffffffffffffffffffffffffffffffffffffffffffffff82611463565b6114a88683611463565b95508019841693508086168417925050509392505050565b5f819050919050565b5f6114e36114de6114d984611107565b6114c0565b611107565b9050919050565b5f819050919050565b6114fc836114c9565b611510611508826114ea565b84845461146f565b825550505050565b5f5f905090565b611527611518565b6115328184846114f3565b505050565b5b818110156115555761154a5f8261151f565b600181019050611538565b5050565b601f82111561159a5761156b81611442565b61157484611454565b81016020851015611583578190505b61159761158f85611454565b830182611537565b50505b505050565b5f82821c905092915050565b5f6115ba5f198460080261159f565b1980831691505092915050565b5f6115d283836115ab565b9150826002028217905092915050565b6115eb8261133a565b67ffffffffffffffff81111561160457611603610f9c565b5b61160e8254611412565b611619828285611559565b5f60209050601f83116001811461164a575f8415611638578287015190505b61164285826115c7565b8655506116a9565b601f19841661165886611442565b5f5b8281101561167f5784890151825560018201915060208501945060208101905061165a565b8683101561169c5784890151611698601f8916826115ab565b8355505b6001600288020188555050505b505050505050565b5f819050919050565b5f67ffffffffffffffff82169050919050565b5f6116e76116e26116dd846116b1565b6114c0565b6116ba565b9050919050565b6116f7816116cd565b82525050565b5f6020820190506117105f8301846116ee565b92915050565b61171f8161125a565b8114611729575f5ffd5b50565b5f8151905061173a81611716565b92915050565b5f6020828403121561175557611754610f7c565b5b5f6117628482850161172c565b91505092915050565b5f81519050919050565b5f81905092915050565b5f6117898261176b565b6117938185611775565b93506117a3818560208601611354565b80840191505092915050565b5f6117ba828461177f565b91508190509291505056fea2646970667358221220569c3b8ff219b46bf8c53453511cd4f7917ff9d18baff88e7b588c38e9279d9764736f6c634300081e0033",
			"opcodes": "PUSH1 0xA0 PUSH1 0x40 MSTORE ADDRESS PUSH20 0xFFFFFFFFFFFFFFFFFFFFFFFFFFFFFFFFFFFFFFFF AND PUSH1 0x80 SWAP1 PUSH20 0xFFFFFFFFFFFFFFFFFFFFFFFFFFFFFFFFFFFFFFFF AND DUP2 MSTORE POP CALLVALUE DUP1 ISZERO PUSH1 0x41 JUMPI PUSH0 PUSH0 REVERT JUMPDEST POP PUSH1 0x80 MLOAD PUSH2 0x17FB PUSH2 0x68 PUSH0 CODECOPY PUSH0 DUP2 DUP2 PUSH2 0x6A2 ADD MSTORE DUP2 DUP2 PUSH2 0x6F7 ADD MSTORE PUSH2 0x8B1 ADD MSTORE PUSH2 0x17FB PUSH0 RETURN INVALID PUSH1 0x80 PUSH1 0x40 MSTORE PUSH1 0x4 CALLDATASIZE LT PUSH2 0xA6 JUMPI PUSH0 CALLDATALOAD PUSH1 0xE0 SHR DUP1 PUSH4 0x6E9D13AB GT PUSH2 0x63 JUMPI DUP1 PUSH4 0x6E9D13AB EQ PUSH2 0x194 JUMPI DUP1 PUSH4 0x715018A6 EQ PUSH2 0x1BC JUMPI DUP1 PUSH4 0x8DA5CB5B EQ PUSH2 0x1D2 JUMPI DUP1 PUSH4 0xAD3CB1CC EQ PUSH2 0x1FC JUMPI DUP1 PUSH4 0xE21F37CE EQ PUSH2 0x226 JUMPI DUP1 PUSH4 0xF2FDE38B EQ PUSH2 0x250 JUMPI PUSH2 0xA6 JUMP JUMPDEST DUP1 PUSH4 0x2D05D3F EQ PUSH2 0xAA JUMPI DUP1 PUSH4 0x368B8772 EQ PUSH2 0xD4 JUMPI DUP1 PUSH4 0x3FA4F245 EQ PUSH2 0xFC JUMPI DUP1 PUSH4 0x4F1EF286 EQ PUSH2 0x126 JUMPI DUP1 PUSH4 0x52D1902D EQ PUSH2 0x142 JUMPI DUP1 PUSH4 0x55241077 EQ PUSH2 0x16C JUMPI JUMPDEST PUSH0 PUSH0 REVERT JUMPDEST CALLVALUE DUP1 ISZERO PUSH2 0xB5 JUMPI PUSH0 PUSH0 REVERT JUMPDEST POP PUSH2 0xBE PUSH2 0x278 JUMP JUMPDEST PUSH1 0x40 MLOAD PUSH2 0xCB SWAP2 SWAP1 PUSH2 0xF5A JUMP JUMPDEST PUSH1 0x40 MLOAD DUP1 SWAP2 SUB SWAP1 RETURN JUMPDEST CALLVALUE DUP1 ISZERO PUSH2 0xDF JUMPI PUSH0 PUSH0 REVERT JUMPDEST POP PUSH2 0xFA PUSH1 0x4 DUP1 CALLDATASIZE SUB DUP2 ADD SWAP1 PUSH2 0xF5 SWAP2 SWAP1 PUSH2 0x10C0 JUMP JUMPDEST PUSH2 0x29D JUMP JUMPDEST STOP JUMPDEST CALLVALUE DUP1 ISZERO PUSH2 0x107 JUMPI PUSH0 PUSH0 REVERT JUMPDEST POP PUSH2 0x110 PUSH2 0x2B0 JUMP JUMPDEST PUSH1 0x40 MLOAD PUSH2 0x11D SWAP2 SWAP1 PUSH2 0x111F JUMP JUMPDEST PUSH1 0x40 MLOAD DUP1 SWAP2 SUB SWAP1 RETURN JUMPDEST PUSH2 0x140 PUSH1 0x4 DUP1 CALLDATASIZE SUB DUP2 ADD SWAP1 PUSH2 0x13B SWAP2 SWAP1 PUSH2 0x1200 JUMP JUMPDEST PUSH2 0x2B5 JUMP JUMPDEST STOP JUMPDEST CALLVALUE DUP1 ISZERO PUSH2 0x14D JUMPI PUSH0 PUSH0 REVERT JUMPDEST POP PUSH2 0x156 PUSH2 0x2D4 JUMP JUMPDEST PUSH1 0x40 MLOAD PUSH2 0x163 SWAP2 SWAP1 PUSH2 0x1272 JUMP JUMPDEST PUSH1 0x40 MLOAD DUP1 SWAP2 SUB SWAP1 RETURN JUMPDEST CALLVALUE DUP1 ISZERO PUSH2 0x177 JUMPI PUSH0 PUSH0 REVERT JUMPDEST POP PUSH2 0x192 PUSH1 0x4 DUP1 CALLDATASIZE SUB DUP2 ADD SWAP1 PUSH2 0x18D SWAP2 SWAP1 PUSH2 0x12B5 JUMP JUMPDEST PUSH2 0x305 JUMP JUMPDEST STOP JUMPDEST CALLVALUE DUP1 ISZERO PUSH2 0x19F JUMPI PUSH0 PUSH0 REVERT JUMPDEST POP PUSH2 0x1BA PUSH1 0x4 DUP1 CALLDATASIZE SUB DUP2 ADD SWAP1 PUSH2 0x1B5 SWAP2 SWAP1 PUSH2 0x12E0 JUMP JUMPDEST PUSH2 0x30E JUMP JUMPDEST STOP JUMPDEST CALLVALUE DUP1 ISZERO PUSH2 0x1C7 JUMPI PUSH0 PUSH0 REVERT JUMPDEST POP PUSH2 0x1D0 PUSH2 0x50F JUMP JUMPDEST STOP JUMPDEST CALLVALUE DUP1 ISZERO PUSH2 0x1DD JUMPI PUSH0 PUSH0 REVERT JUMPDEST POP PUSH2 0x1E6 PUSH2 0x522 JUMP JUMPDEST PUSH1 0x40 MLOAD PUSH2 0x1F3 SWAP2 SWAP1 PUSH2 0xF5A JUMP JUMPDEST PUSH1 0x40 MLOAD DUP1 SWAP2 SUB SWAP1 RETURN JUMPDEST CALLVALUE DUP1 ISZERO PUSH2 0x207 JUMPI PUSH0 PUSH0 REVERT JUMPDEST POP PUSH2 0x210 PUSH2 0x557 JUMP JUMPDEST PUSH1 0x40 MLOAD PUSH2 0x21D SWAP2 SWAP1 PUSH2 0x139A JUMP JUMPDEST PUSH1 0x40 MLOAD DUP1 SWAP2 SUB SWAP1 RETURN JUMPDEST CALLVALUE DUP1 ISZERO PUSH2 0x231 JUMPI PUSH0 PUSH0 REVERT JUMPDEST POP PUSH2 0x23A PUSH2 0x590 JUMP JUMPDEST PUSH1 0x40 MLOAD PUSH2 0x247 SWAP2 SWAP1 PUSH2 0x139A JUMP JUMPDEST PUSH1 0x40 MLOAD DUP1 SWAP2 SUB SWAP1 RETURN JUMPDEST CALLVALUE DUP1 ISZERO PUSH2 0x25B JUMPI PUSH0 PUSH0 REVERT JUMPDEST POP PUSH2 0x276 PUSH1 0x4 DUP1 CALLDATASIZE SUB DUP2 ADD SWAP1 PUSH2 0x271 SWAP2 SWAP1 PUSH2 0x13BA JUMP JUMPDEST PUSH2 0x61C JUMP JUMPDEST STOP JUMPDEST PUSH1 0x2 PUSH0 SWAP1 SLOAD SWAP1 PUSH2 0x100 EXP SWAP1 DIV PUSH20 0xFFFFFFFFFFFFFFFFFFFFFFFFFFFFFFFFFFFFFFFF AND DUP2 JUMP JUMPDEST DUP1 PUSH1 0x1 SWAP1 DUP2 PUSH2 0x2AC SWAP2 SWAP1 PUSH2 0x15E2 JUMP JUMPDEST POP POP JUMP JUMPDEST PUSH0 SLOAD DUP2 JUMP JUMPDEST PUSH2 0x2BD PUSH2 0x6A0 JUMP JUMPDEST PUSH2 0x2C6 DUP3 PUSH2 0x786 JUMP JUMPDEST PUSH2 0x2D0 DUP3 DUP3 PUSH2 0x791 JUMP JUMPDEST POP POP JUMP JUMPDEST PUSH0 PUSH2 0x2DD PUSH2 0x8AF JUMP JUMPDEST PUSH32 0x360894A13BA1A3210667C828492DB98DCA3E2076CC3735A920A3CA505D382BBC PUSH0 SHL SWAP1 POP SWAP1 JUMP JUMPDEST DUP1 PUSH0 DUP2 SWAP1 SSTORE POP POP JUMP JUMPDEST PUSH0 PUSH2 0x317 PUSH2 0x936 JUMP JUMPDEST SWAP1 POP PUSH0 DUP2 PUSH0 ADD PUSH1 0x8 SWAP1 SLOAD SWAP1 PUSH2 0x100 EXP SWAP1 DIV PUSH1 0xFF AND ISZERO SWAP1 POP PUSH0 DUP3 PUSH0 ADD PUSH0 SWAP1 SLOAD SWAP1 PUSH2 0x100 EXP SWAP1 DIV PUSH8 0xFFFFFFFFFFFFFFFF AND SWAP1 POP PUSH0 PUSH0 DUP3 PUSH8 0xFFFFFFFFFFFFFFFF AND EQ DUP1 ISZERO PUSH2 0x35F JUMPI POP DUP3 JUMPDEST SWAP1 POP PUSH0 PUSH1 0x1 DUP4 PUSH8 0xFFFFFFFFFFFFFFFF AND EQ DUP1 ISZERO PUSH2 0x392 JUMPI POP PUSH0 ADDRESS PUSH20 0xFFFFFFFFFFFFFFFFFFFFFFFFFFFFFFFFFFFFFFFF AND EXTCODESIZE EQ JUMPDEST SWAP1 POP DUP2 ISZERO DUP1 ISZERO PUSH2 0x3A0 JUMPI POP DUP1 ISZERO JUMPDEST ISZERO PUSH2 0x3D7 JUMPI PUSH1 0x40 MLOAD PUSH32 0xF92EE8A900000000000000000000000000000000000000000000000000000000 DUP2 MSTORE PUSH1 0x4 ADD PUSH1 0x40 MLOAD DUP1 SWAP2 SUB SWAP1 REVERT JUMPDEST PUSH1 0x1 DUP6 PUSH0 ADD PUSH0 PUSH2 0x100 EXP DUP2 SLOAD DUP2 PUSH8 0xFFFFFFFFFFFFFFFF MUL NOT AND SWAP1 DUP4 PUSH8 0xFFFFFFFFFFFFFFFF AND MUL OR SWAP1 SSTORE POP DUP4 ISZERO PUSH2 0x424 JUMPI PUSH1 0x1 DUP6 PUSH0 ADD PUSH1 0x8 PUSH2 0x100 EXP DUP2 SLOAD DUP2 PUSH1 0xFF MUL NOT AND SWAP1 DUP4 ISZERO ISZERO MUL OR SWAP1 SSTORE POP JUMPDEST PUSH2 0x44E PUSH1 0x2 PUSH0 SWAP1 SLOAD SWAP1 PUSH2 0x100 EXP SWAP1 DIV PUSH20 0xFFFFFFFFFFFFFFFFFFFFFFFFFFFFFFFFFFFFFFFF AND PUSH2 0x949 JUMP JUMPDEST PUSH2 0x456 PUSH2 0x95D JUMP JUMPDEST DUP7 PUSH0 DUP2 SWAP1 SSTORE POP DUP6 PUSH1 0x1 SWAP1 DUP2 PUSH2 0x46B SWAP2 SWAP1 PUSH2 0x15E2 JUMP JUMPDEST POP CALLER PUSH1 0x2 PUSH0 PUSH2 0x100 EXP DUP2 SLOAD DUP2 PUSH20 0xFFFFFFFFFFFFFFFFFFFFFFFFFFFFFFFFFFFFFFFF MUL NOT AND SWAP1 DUP4 PUSH20 0xFFFFFFFFFFFFFFFFFFFFFFFFFFFFFFFFFFFFFFFF AND MUL OR SWAP1 SSTORE POP DUP4 ISZERO PUSH2 0x506 JUMPI PUSH0 DUP6 PUSH0 ADD PUSH1 0x8 PUSH2 0x100 EXP DUP2 SLOAD DUP2 PUSH1 0xFF MUL NOT AND SWAP1 DUP4 ISZERO ISZERO MUL OR SWAP1 SSTORE POP PUSH32 0xC7F505B2F371AE2175EE4913F4499E1F2633A7B5936321EED1CDAEB6115181D2 PUSH1 0x1 PUSH1 0x40 MLOAD PUSH2 0x4FD SWAP2 SWAP1 PUSH2 0x16FD JUMP JUMPDEST PUSH1 0x40 MLOAD DUP1 SWAP2 SUB SWAP1 LOG1 JUMPDEST POP POP POP POP POP POP POP JUMP JUMPDEST PUSH2 0x517 PUSH2 0x967 JUMP JUMPDEST PUSH2 0x520 PUSH0 PUSH2 0x9EE JUMP JUMPDEST JUMP JUMPDEST PUSH0 PUSH0 PUSH2 0x52C PUSH2 0xABF JUMP JUMPDEST SWAP1 POP DUP1 PUSH0 ADD PUSH0 SWAP1 SLOAD SWAP1 PUSH2 0x100 EXP SWAP1 DIV PUSH20 0xFFFFFFFFFFFFFFFFFFFFFFFFFFFFFFFFFFFFFFFF AND SWAP2 POP POP SWAP1 JUMP JUMPDEST PUSH1 0x40 MLOAD DUP1 PUSH1 0x40 ADD PUSH1 0x40 MSTORE DUP1 PUSH1 0x5 DUP2 MSTORE PUSH1 0x20 ADD PUSH32 0x352E302E30000000000000000000000000000000000000000000000000000000 DUP2 MSTORE POP DUP2 JUMP JUMPDEST PUSH1 0x1 DUP1 SLOAD PUSH2 0x59D SWAP1 PUSH2 0x1412 JUMP JUMPDEST DUP1 PUSH1 0x1F ADD PUSH1 0x20 DUP1 SWAP2 DIV MUL PUSH1 0x20 ADD PUSH1 0x40 MLOAD SWAP1 DUP2 ADD PUSH1 0x40 MSTORE DUP1 SWAP3 SWAP2 SWAP1 DUP2 DUP2 MSTORE PUSH1 0x20 ADD DUP3 DUP1 SLOAD PUSH2 0x5C9 SWAP1 PUSH2 0x1412 JUMP JUMPDEST DUP1 ISZERO PUSH2 0x614 JUMPI DUP1 PUSH1 0x1F LT PUSH2 0x5EB JUMPI PUSH2 0x100 DUP1 DUP4 SLOAD DIV MUL DUP4 MSTORE SWAP2 PUSH1 0x20 ADD SWAP2 PUSH2 0x614 JUMP JUMPDEST DUP3 ADD SWAP2 SWAP1 PUSH0 MSTORE PUSH1 0x20 PUSH0 KECCAK256 SWAP1 JUMPDEST DUP2 SLOAD DUP2 MSTORE SWAP1 PUSH1 0x1 ADD SWAP1 PUSH1 0x20 ADD DUP1 DUP4 GT PUSH2 0x5F7 JUMPI DUP3 SWAP1 SUB PUSH1 0x1F AND DUP3 ADD SWAP2 JUMPDEST POP POP POP POP POP DUP2 JUMP JUMPDEST PUSH2 0x624 PUSH2 0x967 JUMP JUMPDEST PUSH0 PUSH20 0xFFFFFFFFFFFFFFFFFFFFFFFFFFFFFFFFFFFFFFFF AND DUP2 PUSH20 0xFFFFFFFFFFFFFFFFFFFFFFFFFFFFFFFFFFFFFFFF AND SUB PUSH2 0x694 JUMPI PUSH0 PUSH1 0x40 MLOAD PUSH32 0x1E4FBDF700000000000000000000000000000000000000000000000000000000 DUP2 MSTORE PUSH1 0x4 ADD PUSH2 0x68B SWAP2 SWAP1 PUSH2 0xF5A JUMP JUMPDEST PUSH1 0x40 MLOAD DUP1 SWAP2 SUB SWAP1 REVERT JUMPDEST PUSH2 0x69D DUP2 PUSH2 0x9EE JUMP JUMPDEST POP JUMP JUMPDEST PUSH32 0x0 PUSH20 0xFFFFFFFFFFFFFFFFFFFFFFFFFFFFFFFFFFFFFFFF AND ADDRESS PUSH20 0xFFFFFFFFFFFFFFFFFFFFFFFFFFFFFFFFFFFFFFFF AND EQ DUP1 PUSH2 0x74D JUMPI POP PUSH32 0x0 PUSH20 0xFFFFFFFFFFFFFFFFFFFFFFFFFFFFFFFFFFFFFFFF AND PUSH2 0x734 PUSH2 0xAE6 JUMP JUMPDEST PUSH20 0xFFFFFFFFFFFFFFFFFFFFFFFFFFFFFFFFFFFFFFFF AND EQ ISZERO JUMPDEST ISZERO PUSH2 0x784 JUMPI PUSH1 0x40 MLOAD PUSH32 0xE07C8DBA00000000000000000000000000000000000000000000000000000000 DUP2 MSTORE PUSH1 0x4 ADD PUSH1 0x40 MLOAD DUP1 SWAP2 SUB SWAP1 REVERT JUMPDEST JUMP JUMPDEST PUSH2 0x78E PUSH2 0x967 JUMP JUMPDEST POP JUMP JUMPDEST DUP2 PUSH20 0xFFFFFFFFFFFFFFFFFFFFFFFFFFFFFFFFFFFFFFFF AND PUSH4 0x52D1902D PUSH1 0x40 MLOAD DUP2 PUSH4 0xFFFFFFFF AND PUSH1 0xE0 SHL DUP2 MSTORE PUSH1 0x4 ADD PUSH1 0x20 PUSH1 0x40 MLOAD DUP1 DUP4 SUB DUP2 DUP7 GAS STATICCALL SWAP3 POP POP POP DUP1 ISZERO PUSH2 0x7F9 JUMPI POP PUSH1 0x40 MLOAD RETURNDATASIZE PUSH1 0x1F NOT PUSH1 0x1F DUP3 ADD AND DUP3 ADD DUP1 PUSH1 0x40 MSTORE POP DUP2 ADD SWAP1 PUSH2 0x7F6 SWAP2 SWAP1 PUSH2 0x1740 JUMP JUMPDEST PUSH1 0x1 JUMPDEST PUSH2 0x83A JUMPI DUP2 PUSH1 0x40 MLOAD PUSH32 0x4C9C8CE300000000000000000000000000000000000000000000000000000000 DUP2 MSTORE PUSH1 0x4 ADD PUSH2 0x831 SWAP2 SWAP1 PUSH2 0xF5A JUMP JUMPDEST PUSH1 0x40 MLOAD DUP1 SWAP2 SUB SWAP1 REVERT JUMPDEST PUSH32 0x360894A13BA1A3210667C828492DB98DCA3E2076CC3735A920A3CA505D382BBC PUSH0 SHL DUP2 EQ PUSH2 0x8A0 JUMPI DUP1 PUSH1 0x40 MLOAD PUSH32 0xAA1D49A400000000000000000000000000000000000000000000000000000000 DUP2 MSTORE PUSH1 0x4 ADD PUSH2 0x897 SWAP2 SWAP1 PUSH2 0x1272 JUMP JUMPDEST PUSH1 0x40 MLOAD DUP1 SWAP2 SUB SWAP1 REVERT JUMPDEST PUSH2 0x8AA DUP4 DUP4 PUSH2 0xB39 JUMP JUMPDEST POP POP POP JUMP JUMPDEST PUSH32 0x0 PUSH20 0xFFFFFFFFFFFFFFFFFFFFFFFFFFFFFFFFFFFFFFFF AND ADDRESS PUSH20 0xFFFFFFFFFFFFFFFFFFFFFFFFFFFFFFFFFFFFFFFF AND EQ PUSH2 0x934 JUMPI PUSH1 0x40 MLOAD PUSH32 0xE07C8DBA00000000000000000000000000000000000000000000000000000000 DUP2 MSTORE PUSH1 0x4 ADD PUSH1 0x40 MLOAD DUP1 SWAP2 SUB SWAP1 REVERT JUMPDEST JUMP JUMPDEST PUSH0 PUSH0 PUSH2 0x940 PUSH2 0xBAB JUMP JUMPDEST SWAP1 POP DUP1 SWAP2 POP POP SWAP1 JUMP JUMPDEST PUSH2 0x951 PUSH2 0xBD4 JUMP JUMPDEST PUSH2 0x95A DUP2 PUSH2 0xC14 JUMP JUMPDEST POP JUMP JUMPDEST PUSH2 0x965 PUSH2 0xBD4 JUMP JUMPDEST JUMP JUMPDEST PUSH2 0x96F PUSH2 0xC98 JUMP JUMPDEST PUSH20 0xFFFFFFFFFFFFFFFFFFFFFFFFFFFFFFFFFFFFFFFF AND PUSH2 0x98D PUSH2 0x522 JUMP JUMPDEST PUSH20 0xFFFFFFFFFFFFFFFFFFFFFFFFFFFFFFFFFFFFFFFF AND EQ PUSH2 0x9EC JUMPI PUSH2 0x9B0 PUSH2 0xC98 JUMP JUMPDEST PUSH1 0x40 MLOAD PUSH32 0x118CDAA700000000000000000000000000000000000000000000000000000000 DUP2 MSTORE PUSH1 0x4 ADD PUSH2 0x9E3 SWAP2 SWAP1 PUSH2 0xF5A JUMP JUMPDEST PUSH1 0x40 MLOAD DUP1 SWAP2 SUB SWAP1 REVERT JUMPDEST JUMP JUMPDEST PUSH0 PUSH2 0x9F7 PUSH2 0xABF JUMP JUMPDEST SWAP1 POP PUSH0 DUP2 PUSH0 ADD PUSH0 SWAP1 SLOAD SWAP1 PUSH2 0x100 EXP SWAP1 DIV PUSH20 0xFFFFFFFFFFFFFFFFFFFFFFFFFFFFFFFFFFFFFFFF AND SWAP1 POP DUP3 DUP3 PUSH0 ADD PUSH0 PUSH2 0x100 EXP DUP2 SLOAD DUP2 PUSH20 0xFFFFFFFFFFFFFFFFFFFFFFFFFFFFFFFFFFFFFFFF MUL NOT AND SWAP1 DUP4 PUSH20 0xFFFFFFFFFFFFFFFFFFFFFFFFFFFFFFFFFFFFFFFF AND MUL OR SWAP1 SSTORE POP DUP3 PUSH20 0xFFFFFFFFFFFFFFFFFFFFFFFFFFFFFFFFFFFFFFFF AND DUP2 PUSH20 0xFFFFFFFFFFFFFFFFFFFFFFFFFFFFFFFFFFFFFFFF AND PUSH32 0x8BE0079C531659141344CD1FD0A4F28419497F9722A3DAAFE3B4186F6B6457E0 PUSH1 0x40 MLOAD PUSH1 0x40 MLOAD DUP1 SWAP2 SUB SWAP1 LOG3 POP POP POP JUMP JUMPDEST PUSH0 PUSH32 0x9016D09D72D40FDAE2FD8CEAC6B6234C7706214FD39C1CD1E609A0528C199300 SWAP1 POP SWAP1 JUMP JUMPDEST PUSH0 PUSH2 0xB12 PUSH32 0x360894A13BA1A3210667C828492DB98DCA3E2076CC3735A920A3CA505D382BBC PUSH0 SHL PUSH2 0xC9F JUMP JUMPDEST PUSH0 ADD PUSH0 SWAP1 SLOAD SWAP1 PUSH2 0x100 EXP SWAP1 DIV PUSH20 0xFFFFFFFFFFFFFFFFFFFFFFFFFFFFFFFFFFFFFFFF AND SWAP1 POP SWAP1 JUMP JUMPDEST PUSH2 0xB42 DUP3 PUSH2 0xCA8 JUMP JUMPDEST DUP2 PUSH20 0xFFFFFFFFFFFFFFFFFFFFFFFFFFFFFFFFFFFFFFFF AND PUSH32 0xBC7CD75A20EE27FD9ADEBAB32041F755214DBC6BFFA90CC0225B39DA2E5C2D3B PUSH1 0x40 MLOAD PUSH1 0x40 MLOAD DUP1 SWAP2 SUB SWAP1 LOG2 PUSH0 DUP2 MLOAD GT ISZERO PUSH2 0xB9E JUMPI PUSH2 0xB98 DUP3 DUP3 PUSH2 0xD71 JUMP JUMPDEST POP PUSH2 0xBA7 JUMP JUMPDEST PUSH2 0xBA6 PUSH2 0xDF1 JUMP JUMPDEST JUMPDEST POP POP JUMP JUMPDEST PUSH0 PUSH32 0xF0C57E16840DF040F15088DC2F81FE391C3923BEC73E23A9662EFC9C229C6A00 PUSH0 SHL SWAP1 POP SWAP1 JUMP JUMPDEST PUSH2 0xBDC PUSH2 0xE2D JUMP JUMPDEST PUSH2 0xC12 JUMPI PUSH1 0x40 MLOAD PUSH32 0xD7E6BCF800000000000000000000000000000000000000000000000000000000 DUP2 MSTORE PUSH1 0x4 ADD PUSH1 0x40 MLOAD DUP1 SWAP2 SUB SWAP1 REVERT JUMPDEST JUMP JUMPDEST PUSH2 0xC1C PUSH2 0xBD4 JUMP JUMPDEST PUSH0 PUSH20 0xFFFFFFFFFFFFFFFFFFFFFFFFFFFFFFFFFFFFFFFF AND DUP2 PUSH20 0xFFFFFFFFFFFFFFFFFFFFFFFFFFFFFFFFFFFFFFFF AND SUB PUSH2 0xC8C JUMPI PUSH0 PUSH1 0x40 MLOAD PUSH32 0x1E4FBDF700000000000000000000000000000000000000000000000000000000 DUP2 MSTORE PUSH1 0x4 ADD PUSH2 0xC83 SWAP2 SWAP1 PUSH2 0xF5A JUMP JUMPDEST PUSH1 0x40 MLOAD DUP1 SWAP2 SUB SWAP1 REVERT JUMPDEST PUSH2 0xC95 DUP2 PUSH2 0x9EE JUMP JUMPDEST POP JUMP JUMPDEST PUSH0 CALLER SWAP1 POP SWAP1 JUMP JUMPDEST PUSH0 DUP2 SWAP1 POP SWAP2 SWAP1 POP JUMP JUMPDEST PUSH0 DUP2 PUSH20 0xFFFFFFFFFFFFFFFFFFFFFFFFFFFFFFFFFFFFFFFF AND EXTCODESIZE SUB PUSH2 0xD03 JUMPI DUP1 PUSH1 0x40 MLOAD PUSH32 0x4C9C8CE300000000000000000000000000000000000000000000000000000000 DUP2 MSTORE PUSH1 0x4 ADD PUSH2 0xCFA SWAP2 SWAP1 PUSH2 0xF5A JUMP JUMPDEST PUSH1 0x40 MLOAD DUP1 SWAP2 SUB SWAP1 REVERT JUMPDEST DUP1 PUSH2 0xD2F PUSH32 0x360894A13BA1A3210667C828492DB98DCA3E2076CC3735A920A3CA505D382BBC PUSH0 SHL PUSH2 0xC9F JUMP JUMPDEST PUSH0 ADD PUSH0 PUSH2 0x100 EXP DUP2 SLOAD DUP2 PUSH20 0xFFFFFFFFFFFFFFFFFFFFFFFFFFFFFFFFFFFFFFFF MUL NOT AND SWAP1 DUP4 PUSH20 0xFFFFFFFFFFFFFFFFFFFFFFFFFFFFFFFFFFFFFFFF AND MUL OR SWAP1 SSTORE POP POP JUMP JUMPDEST PUSH1 0x60 PUSH0 PUSH0 DUP5 PUSH20 0xFFFFFFFFFFFFFFFFFFFFFFFFFFFFFFFFFFFFFFFF AND DUP5 PUSH1 0x40 MLOAD PUSH2 0xD9A SWAP2 SWAP1 PUSH2 0x17AF JUMP JUMPDEST PUSH0 PUSH1 0x40 MLOAD DUP1 DUP4 SUB DUP2 DUP6 GAS DELEGATECALL SWAP2 POP POP RETURNDATASIZE DUP1 PUSH0 DUP2 EQ PUSH2 0xDD2 JUMPI PUSH1 0x40 MLOAD SWAP2 POP PUSH1 0x1F NOT PUSH1 0x3F RETURNDATASIZE ADD AND DUP3 ADD PUSH1 0x40 MSTORE RETURNDATASIZE DUP3 MSTORE RETURNDATASIZE PUSH0 PUSH1 0x20 DUP5 ADD RETURNDATACOPY PUSH2 0xDD7 JUMP JUMPDEST PUSH1 0x60 SWAP2 POP JUMPDEST POP SWAP2 POP SWAP2 POP PUSH2 0xDE7 DUP6 DUP4 DUP4 PUSH2 0xE4B JUMP JUMPDEST SWAP3 POP POP POP SWAP3 SWAP2 POP POP JUMP JUMPDEST PUSH0 CALLVALUE GT ISZERO PUSH2 0xE2B JUMPI PUSH1 0x40 MLOAD PUSH32 0xB398979F00000000000000000000000000000000000000000000000000000000 DUP2 MSTORE PUSH1 0x4 ADD PUSH1 0x40 MLOAD DUP1 SWAP2 SUB SWAP1 REVERT JUMPDEST JUMP JUMPDEST PUSH0 PUSH2 0xE36 PUSH2 0x936 JUMP JUMPDEST PUSH0 ADD PUSH1 0x8 SWAP1 SLOAD SWAP1 PUSH2 0x100 EXP SWAP1 DIV PUSH1 0xFF AND SWAP1 POP SWAP1 JUMP JUMPDEST PUSH1 0x60 DUP3 PUSH2 0xE60 JUMPI PUSH2 0xE5B DUP3 PUSH2 0xED8 JUMP JUMPDEST PUSH2 0xED0 JUMP JUMPDEST PUSH0 DUP3 MLOAD EQ DUP1 ISZERO PUSH2 0xE86 JUMPI POP PUSH0 DUP5 PUSH20 0xFFFFFFFFFFFFFFFFFFFFFFFFFFFFFFFFFFFFFFFF AND EXTCODESIZE EQ JUMPDEST ISZERO PUSH2 0xEC8 JUMPI DUP4 PUSH1 0x40 MLOAD PUSH32 0x9996B31500000000000000000000000000000000000000000000000000000000 DUP2 MSTORE PUSH1 0x4 ADD PUSH2 0xEBF SWAP2 SWAP1 PUSH2 0xF5A JUMP JUMPDEST PUSH1 0x40 MLOAD DUP1 SWAP2 SUB SWAP1 REVERT JUMPDEST DUP2 SWAP1 POP PUSH2 0xED1 JUMP JUMPDEST JUMPDEST SWAP4 SWAP3 POP POP POP JUMP JUMPDEST PUSH0 DUP2 MLOAD GT ISZERO PUSH2 0xEE9 JUMPI DUP1 MLOAD PUSH1 0x20 DUP3 ADD REVERT JUMPDEST PUSH1 0x40 MLOAD PUSH32 0xD6BDA27500000000000000000000000000000000000000000000000000000000 DUP2 MSTORE PUSH1 0x4 ADD PUSH1 0x40 MLOAD DUP1 SWAP2 SUB SWAP1 REVERT JUMPDEST PUSH0 PUSH20 0xFFFFFFFFFFFFFFFFFFFFFFFFFFFFFFFFFFFFFFFF DUP3 AND SWAP1 POP SWAP2 SWAP1 POP JUMP JUMPDEST PUSH0 PUSH2 0xF44 DUP3 PUSH2 0xF1B JUMP JUMPDEST SWAP1 POP SWAP2 SWAP1 POP JUMP JUMPDEST PUSH2 0xF54 DUP2 PUSH2 0xF3A JUMP JUMPDEST DUP3 MSTORE POP POP JUMP JUMPDEST PUSH0 PUSH1 0x20 DUP3 ADD SWAP1 POP PUSH2 0xF6D PUSH0 DUP4 ADD DUP5 PUSH2 0xF4B JUMP JUMPDEST SWAP3 SWAP2 POP POP JUMP JUMPDEST PUSH0 PUSH1 0x40 MLOAD SWAP1 POP SWAP1 JUMP JUMPDEST PUSH0 PUSH0 REVERT JUMPDEST PUSH0 PUSH0 REVERT JUMPDEST PUSH0 PUSH0 REVERT JUMPDEST PUSH0 PUSH0 REVERT JUMPDEST PUSH0 PUSH1 0x1F NOT PUSH1 0x1F DUP4 ADD AND SWAP1 POP SWAP2 SWAP1 POP JUMP JUMPDEST PUSH32 0x4E487B7100000000000000000000000000000000000000000000000000000000 PUSH0 MSTORE PUSH1 0x41 PUSH1 0x4 MSTORE PUSH1 0x24 PUSH0 REVERT JUMPDEST PUSH2 0xFD2 DUP3 PUSH2 0xF8C JUMP JUMPDEST DUP2 ADD DUP2 DUP2 LT PUSH8 0xFFFFFFFFFFFFFFFF DUP3 GT OR ISZERO PUSH2 0xFF1 JUMPI PUSH2 0xFF0 PUSH2 0xF9C JUMP JUMPDEST JUMPDEST DUP1 PUSH1 0x40 MSTORE POP POP POP JUMP JUMPDEST PUSH0 PUSH2 0x1003 PUSH2 0xF73 JUMP JUMPDEST SWAP1 POP PUSH2 0x100F DUP3 DUP3 PUSH2 0xFC9 JUMP JUMPDEST SWAP2 SWAP1 POP JUMP JUMPDEST PUSH0 PUSH8 0xFFFFFFFFFFFFFFFF DUP3 GT ISZERO PUSH2 0x102E JUMPI PUSH2 0x102D PUSH2 0xF9C JUMP JUMPDEST JUMPDEST PUSH2 0x1037 DUP3 PUSH2 0xF8C JUMP JUMPDEST SWAP1 POP PUSH1 0x20 DUP2 ADD SWAP1 POP SWAP2 SWAP1 POP JUMP JUMPDEST DUP3 DUP2 DUP4 CALLDATACOPY PUSH0 DUP4 DUP4 ADD MSTORE POP POP POP JUMP JUMPDEST PUSH0 PUSH2 0x1064 PUSH2 0x105F DUP5 PUSH2 0x1014 JUMP JUMPDEST PUSH2 0xFFA JUMP JUMPDEST SWAP1 POP DUP3 DUP2 MSTORE PUSH1 0x20 DUP2 ADD DUP5 DUP5 DUP5 ADD GT ISZERO PUSH2 0x1080 JUMPI PUSH2 0x107F PUSH2 0xF88 JUMP JUMPDEST JUMPDEST PUSH2 0x108B DUP5 DUP3 DUP6 PUSH2 0x1044 JUMP JUMPDEST POP SWAP4 SWAP3 POP POP POP JUMP JUMPDEST PUSH0 DUP3 PUSH1 0x1F DUP4 ADD SLT PUSH2 0x10A7 JUMPI PUSH2 0x10A6 PUSH2 0xF84 JUMP JUMPDEST JUMPDEST DUP2 CALLDATALOAD PUSH2 0x10B7 DUP5 DUP3 PUSH1 0x20 DUP7 ADD PUSH2 0x1052 JUMP JUMPDEST SWAP2 POP POP SWAP3 SWAP2 POP POP JUMP JUMPDEST PUSH0 PUSH1 0x20 DUP3 DUP5 SUB SLT ISZERO PUSH2 0x10D5 JUMPI PUSH2 0x10D4 PUSH2 0xF7C JUMP JUMPDEST JUMPDEST PUSH0 DUP3 ADD CALLDATALOAD PUSH8 0xFFFFFFFFFFFFFFFF DUP2 GT ISZERO PUSH2 0x10F2 JUMPI PUSH2 0x10F1 PUSH2 0xF80 JUMP JUMPDEST JUMPDEST PUSH2 0x10FE DUP5 DUP3 DUP6 ADD PUSH2 0x1093 JUMP JUMPDEST SWAP2 POP POP SWAP3 SWAP2 POP POP JUMP JUMPDEST PUSH0 DUP2 SWAP1 POP SWAP2 SWAP1 POP JUMP JUMPDEST PUSH2 0x1119 DUP2 PUSH2 0x1107 JUMP JUMPDEST DUP3 MSTORE POP POP JUMP JUMPDEST PUSH0 PUSH1 0x20 DUP3 ADD SWAP1 POP PUSH2 0x1132 PUSH0 DUP4 ADD DUP5 PUSH2 0x1110 JUMP JUMPDEST SWAP3 SWAP2 POP POP JUMP JUMPDEST PUSH2 0x1141 DUP2 PUSH2 0xF3A JUMP JUMPDEST DUP2 EQ PUSH2 0x114B JUMPI PUSH0 PUSH0 REVERT JUMPDEST POP JUMP JUMPDEST PUSH0 DUP2 CALLDATALOAD SWAP1 POP PUSH2 0x115C DUP2 PUSH2 0x1138 JUMP JUMPDEST SWAP3 SWAP2 POP POP JUMP JUMPDEST PUSH0 PUSH8 0xFFFFFFFFFFFFFFFF DUP3 GT ISZERO PUSH2 0x117C JUMPI PUSH2 0x117B PUSH2 0xF9C JUMP JUMPDEST JUMPDEST PUSH2 0x1185 DUP3 PUSH2 0xF8C JUMP JUMPDEST SWAP1 POP PUSH1 0x20 DUP2 ADD SWAP1 POP SWAP2 SWAP1 POP JUMP JUMPDEST PUSH0 PUSH2 0x11A4 PUSH2 0x119F DUP5 PUSH2 0x1162 JUMP JUMPDEST PUSH2 0xFFA JUMP JUMPDEST SWAP1 POP DUP3 DUP2 MSTORE PUSH1 0x20 DUP2 ADD DUP5 DUP5 DUP5 ADD GT ISZERO PUSH2 0x11C0 JUMPI PUSH2 0x11BF PUSH2 0xF88 JUMP JUMPDEST JUMPDEST PUSH2 0x11CB DUP5 DUP3 DUP6 PUSH2 0x1044 JUMP JUMPDEST POP SWAP4 SWAP3 POP POP POP JUMP JUMPDEST PUSH0 DUP3 PUSH1 0x1F DUP4 ADD SLT PUSH2 0x11E7 JUMPI PUSH2 0x11E6 PUSH2 0xF84 JUMP JUMPDEST JUMPDEST DUP2 CALLDATALOAD PUSH2 0x11F7 DUP5 DUP3 PUSH1 0x20 DUP7 ADD PUSH2 0x1192 JUMP JUMPDEST SWAP2 POP POP SWAP3 SWAP2 POP POP JUMP JUMPDEST PUSH0 PUSH0 PUSH1 0x40 DUP4 DUP6 SUB SLT ISZERO PUSH2 0x1216 JUMPI PUSH2 0x1215 PUSH2 0xF7C JUMP JUMPDEST JUMPDEST PUSH0 PUSH2 0x1223 DUP6 DUP3 DUP7 ADD PUSH2 0x114E JUMP JUMPDEST SWAP3 POP POP PUSH1 0x20 DUP4 ADD CALLDATALOAD PUSH8 0xFFFFFFFFFFFFFFFF DUP2 GT ISZERO PUSH2 0x1244 JUMPI PUSH2 0x1243 PUSH2 0xF80 JUMP JUMPDEST JUMPDEST PUSH2 0x1250 DUP6 DUP3 DUP7 ADD PUSH2 0x11D3 JUMP JUMPDEST SWAP2 POP POP SWAP3 POP SWAP3 SWAP1 POP JUMP JUMPDEST PUSH0 DUP2 SWAP1 POP SWAP2 SWAP1 POP JUMP JUMPDEST PUSH2 0x126C DUP2 PUSH2 0x125A JUMP JUMPDEST DUP3 MSTORE POP POP JUMP JUMPDEST PUSH0 PUSH1 0x20 DUP3 ADD SWAP1 POP PUSH2 0x1285 PUSH0 DUP4 ADD DUP5 PUSH2 0x1263 JUMP JUMPDEST SWAP3 SWAP2 POP POP JUMP JUMPDEST PUSH2 0x1294 DUP2 PUSH2 0x1107 JUMP JUMPDEST DUP2 EQ PUSH2 0x129E JUMPI PUSH0 PUSH0 REVERT JUMPDEST POP JUMP JUMPDEST PUSH0 DUP2 CALLDATALOAD SWAP1 POP PUSH2 0x12AF DUP2 PUSH2 0x128B JUMP JUMPDEST SWAP3 SWAP2 POP POP JUMP JUMPDEST PUSH0 PUSH1 0x20 DUP3 DUP5 SUB SLT ISZERO PUSH2 0x12CA JUMPI PUSH2 0x12C9 PUSH2 0xF7C JUMP JUMPDEST JUMPDEST PUSH0 PUSH2 0x12D7 DUP5 DUP3 DUP6 ADD PUSH2 0x12A1 JUMP JUMPDEST SWAP2 POP POP SWAP3 SWAP2 POP POP JUMP JUMPDEST PUSH0 PUSH0 PUSH1 0x40 DUP4 DUP6 SUB SLT ISZERO PUSH2 0x12F6 JUMPI PUSH2 0x12F5 PUSH2 0xF7C JUMP JUMPDEST JUMPDEST PUSH0 PUSH2 0x1303 DUP6 DUP3 DUP7 ADD PUSH2 0x12A1 JUMP JUMPDEST SWAP3 POP POP PUSH1 0x20 DUP4 ADD CALLDATALOAD PUSH8 0xFFFFFFFFFFFFFFFF DUP2 GT ISZERO PUSH2 0x1324 JUMPI PUSH2 0x1323 PUSH2 0xF80 JUMP JUMPDEST JUMPDEST PUSH2 0x1330 DUP6 DUP3 DUP7 ADD PUSH2 0x1093 JUMP JUMPDEST SWAP2 POP POP SWAP3 POP SWAP3 SWAP1 POP JUMP JUMPDEST PUSH0 DUP2 MLOAD SWAP1 POP SWAP2 SWAP1 POP JUMP JUMPDEST PUSH0 DUP3 DUP3 MSTORE PUSH1 0x20 DUP3 ADD SWAP1 POP SWAP3 SWAP2 POP POP JUMP JUMPDEST DUP3 DUP2 DUP4 MCOPY PUSH0 DUP4 DUP4 ADD MSTORE POP POP POP JUMP JUMPDEST PUSH0 PUSH2 0x136C DUP3 PUSH2 0x133A JUMP JUMPDEST PUSH2 0x1376 DUP2 DUP6 PUSH2 0x1344 JUMP JUMPDEST SWAP4 POP PUSH2 0x1386 DUP2 DUP6 PUSH1 0x20 DUP7 ADD PUSH2 0x1354 JUMP JUMPDEST PUSH2 0x138F DUP2 PUSH2 0xF8C JUMP JUMPDEST DUP5 ADD SWAP2 POP POP SWAP3 SWAP2 POP POP JUMP JUMPDEST PUSH0 PUSH1 0x20 DUP3 ADD SWAP1 POP DUP2 DUP2 SUB PUSH0 DUP4 ADD MSTORE PUSH2 0x13B2 DUP2 DUP5 PUSH2 0x1362 JUMP JUMPDEST SWAP1 POP SWAP3 SWAP2 POP POP JUMP JUMPDEST PUSH0 PUSH1 0x20 DUP3 DUP5 SUB SLT ISZERO PUSH2 0x13CF JUMPI PUSH2 0x13CE PUSH2 0xF7C JUMP JUMPDEST JUMPDEST PUSH0 PUSH2 0x13DC DUP5 DUP3 DUP6 ADD PUSH2 0x114E JUMP JUMPDEST SWAP2 POP POP SWAP3 SWAP2 POP POP JUMP JUMPDEST PUSH32 0x4E487B7100000000000000000000000000000000000000000000000000000000 PUSH0 MSTORE PUSH1 0x22 PUSH1 0x4 MSTORE PUSH1 0x24 PUSH0 REVERT JUMPDEST PUSH0 PUSH1 0x2 DUP3 DIV SWAP1 POP PUSH1 0x1 DUP3 AND DUP1 PUSH2 0x1429 JUMPI PUSH1 0x7F DUP3 AND SWAP2 POP JUMPDEST PUSH1 0x20 DUP3 LT DUP2 SUB PUSH2 0x143C JUMPI PUSH2 0x143B PUSH2 0x13E5 JUMP JUMPDEST JUMPDEST POP SWAP2 SWAP1 POP JUMP JUMPDEST PUSH0 DUP2 SWAP1 POP DUP2 PUSH0 MSTORE PUSH1 0x20 PUSH0 KECCAK256 SWAP1 POP SWAP2 SWAP1 POP JUMP JUMPDEST PUSH0 PUSH1 0x20 PUSH1 0x1F DUP4 ADD DIV SWAP1 POP SWAP2 SWAP1 POP JUMP JUMPDEST PUSH0 DUP3 DUP3 SHL SWAP1 POP SWAP3 SWAP2 POP POP JUMP JUMPDEST PUSH0 PUSH1 0x8 DUP4 MUL PUSH2 0x149E PUSH32 0xFFFFFFFFFFFFFFFFFFFFFFFFFFFFFFFFFFFFFFFFFFFFFFFFFFFFFFFFFFFFFFFF DUP3 PUSH2 0x1463 JUMP JUMPDEST PUSH2 0x14A8 DUP7 DUP4 PUSH2 0x1463 JUMP JUMPDEST SWAP6 POP DUP1 NOT DUP5 AND SWAP4 POP DUP1 DUP7 AND DUP5 OR SWAP3 POP POP POP SWAP4 SWAP3 POP POP POP JUMP JUMPDEST PUSH0 DUP2 SWAP1 POP SWAP2 SWAP1 POP JUMP JUMPDEST PUSH0 PUSH2 0x14E3 PUSH2 0x14DE PUSH2 0x14D9 DUP5 PUSH2 0x1107 JUMP JUMPDEST PUSH2 0x14C0 JUMP JUMPDEST PUSH2 0x1107 JUMP JUMPDEST SWAP1 POP SWAP2 SWAP1 POP JUMP JUMPDEST PUSH0 DUP2 SWAP1 POP SWAP2 SWAP1 POP JUMP JUMPDEST PUSH2 0x14FC DUP4 PUSH2 0x14C9 JUMP JUMPDEST PUSH2 0x1510 PUSH2 0x1508 DUP3 PUSH2 0x14EA JUMP JUMPDEST DUP5 DUP5 SLOAD PUSH2 0x146F JUMP JUMPDEST DUP3 SSTORE POP POP POP POP JUMP JUMPDEST PUSH0 PUSH0 SWAP1 POP SWAP1 JUMP JUMPDEST PUSH2 0x1527 PUSH2 0x1518 JUMP JUMPDEST PUSH2 0x1532 DUP2 DUP5 DUP5 PUSH2 0x14F3 JUMP JUMPDEST POP POP POP JUMP JUMPDEST JUMPDEST DUP2 DUP2 LT ISZERO PUSH2 0x1555 JUMPI PUSH2 0x154A PUSH0 DUP3 PUSH2 0x151F JUMP JUMPDEST PUSH1 0x1 DUP2 ADD SWAP1 POP PUSH2 0x1538 JUMP JUMPDEST POP POP JUMP JUMPDEST PUSH1 0x1F DUP3 GT ISZERO PUSH2 0x159A JUMPI PUSH2 0x156B DUP2 PUSH2 0x1442 JUMP JUMPDEST PUSH2 0x1574 DUP5 PUSH2 0x1454 JUMP JUMPDEST DUP2 ADD PUSH1 0x20 DUP6 LT ISZERO PUSH2 0x1583 JUMPI DUP2 SWAP1 POP JUMPDEST PUSH2 0x1597 PUSH2 0x158F DUP6 PUSH2 0x1454 JUMP JUMPDEST DUP4 ADD DUP3 PUSH2 0x1537 JUMP JUMPDEST POP POP JUMPDEST POP POP POP JUMP JUMPDEST PUSH0 DUP3 DUP3 SHR SWAP1 POP SWAP3 SWAP2 POP POP JUMP JUMPDEST PUSH0 PUSH2 0x15BA PUSH0 NOT DUP5 PUSH1 0x8 MUL PUSH2 0x159F JUMP JUMPDEST NOT DUP1 DUP4 AND SWAP2 POP POP SWAP3 SWAP2 POP POP JUMP JUMPDEST PUSH0 PUSH2 0x15D2 DUP4 DUP4 PUSH2 0x15AB JUMP JUMPDEST SWAP2 POP DUP3 PUSH1 0x2 MUL DUP3 OR SWAP1 POP SWAP3 SWAP2 POP POP JUMP JUMPDEST PUSH2 0x15EB DUP3 PUSH2 0x133A JUMP JUMPDEST PUSH8 0xFFFFFFFFFFFFFFFF DUP2 GT ISZERO PUSH2 0x1604 JUMPI PUSH2 0x1603 PUSH2 0xF9C JUMP JUMPDEST JUMPDEST PUSH2 0x160E DUP3 SLOAD PUSH2 0x1412 JUMP JUMPDEST PUSH2 0x1619 DUP3 DUP3 DUP6 PUSH2 0x1559 JUMP JUMPDEST PUSH0 PUSH1 0x20 SWAP1 POP PUSH1 0x1F DUP4 GT PUSH1 0x1 DUP2 EQ PUSH2 0x164A JUMPI PUSH0 DUP5 ISZERO PUSH2 0x1638 JUMPI DUP3 DUP8 ADD MLOAD SWAP1 POP JUMPDEST PUSH2 0x1642 DUP6 DUP3 PUSH2 0x15C7 JUMP JUMPDEST DUP7 SSTORE POP PUSH2 0x16A9 JUMP JUMPDEST PUSH1 0x1F NOT DUP5 AND PUSH2 0x1658 DUP7 PUSH2 0x1442 JUMP JUMPDEST PUSH0 JUMPDEST DUP3 DUP2 LT ISZERO PUSH2 0x167F JUMPI DUP5 DUP10 ADD MLOAD DUP3 SSTORE PUSH1 0x1 DUP3 ADD SWAP2 POP PUSH1 0x20 DUP6 ADD SWAP5 POP PUSH1 0x20 DUP2 ADD SWAP1 POP PUSH2 0x165A JUMP JUMPDEST DUP7 DUP4 LT ISZERO PUSH2 0x169C JUMPI DUP5 DUP10 ADD MLOAD PUSH2 0x1698 PUSH1 0x1F DUP10 AND DUP3 PUSH2 0x15AB JUMP JUMPDEST DUP4 SSTORE POP JUMPDEST PUSH1 0x1 PUSH1 0x2 DUP9 MUL ADD DUP9 SSTORE POP POP POP JUMPDEST POP POP POP POP POP POP JUMP JUMPDEST PUSH0 DUP2 SWAP1 POP SWAP2 SWAP1 POP JUMP JUMPDEST PUSH0 PUSH8 0xFFFFFFFFFFFFFFFF DUP3 AND SWAP1 POP SWAP2 SWAP1 POP JUMP JUMPDEST PUSH0 PUSH2 0x16E7 PUSH2 0x16E2 PUSH2 0x16DD DUP5 PUSH2 0x16B1 JUMP JUMPDEST PUSH2 0x14C0 JUMP JUMPDEST PUSH2 0x16BA JUMP JUMPDEST SWAP1 POP SWAP2 SWAP1 POP JUMP JUMPDEST PUSH2 0x16F7 DUP2 PUSH2 0x16CD JUMP JUMPDEST DUP3 MSTORE POP POP JUMP JUMPDEST PUSH0 PUSH1 0x20 DUP3 ADD SWAP1 POP PUSH2 0x1710 PUSH0 DUP4 ADD DUP5 PUSH2 0x16EE JUMP JUMPDEST SWAP3 SWAP2 POP POP JUMP JUMPDEST PUSH2 0x171F DUP2 PUSH2 0x125A JUMP JUMPDEST DUP2 EQ PUSH2 0x1729 JUMPI PUSH0 PUSH0 REVERT JUMPDEST POP JUMP JUMPDEST PUSH0 DUP2 MLOAD SWAP1 POP PUSH2 0x173A DUP2 PUSH2 0x1716 JUMP JUMPDEST SWAP3 SWAP2 POP POP JUMP JUMPDEST PUSH0 PUSH1 0x20 DUP3 DUP5 SUB SLT ISZERO PUSH2 0x1755 JUMPI PUSH2 0x1754 PUSH2 0xF7C JUMP JUMPDEST JUMPDEST PUSH0 PUSH2 0x1762 DUP5 DUP3 DUP6 ADD PUSH2 0x172C JUMP JUMPDEST SWAP2 POP POP SWAP3 SWAP2 POP POP JUMP JUMPDEST PUSH0 DUP2 MLOAD SWAP1 POP SWAP2 SWAP1 POP JUMP JUMPDEST PUSH0 DUP2 SWAP1 POP SWAP3 SWAP2 POP POP JUMP JUMPDEST PUSH0 PUSH2 0x1789 DUP3 PUSH2 0x176B JUMP JUMPDEST PUSH2 0x1793 DUP2 DUP6 PUSH2 0x1775 JUMP JUMPDEST SWAP4 POP PUSH2 0x17A3 DUP2 DUP6 PUSH1 0x20 DUP7 ADD PUSH2 0x1354 JUMP JUMPDEST DUP1 DUP5 ADD SWAP2 POP POP SWAP3 SWAP2 POP POP JUMP JUMPDEST PUSH0 PUSH2 0x17BA DUP3 DUP5 PUSH2 0x177F JUMP JUMPDEST SWAP2 POP DUP2 SWAP1 POP SWAP3 SWAP2 POP POP JUMP INVALID LOG2 PUSH5 0x6970667358 0x22 SLT KECCAK256 JUMP SWAP13 EXTCODESIZE DUP16 CALLCODE NOT 0xB4 PUSH12 0xF8C53453511CD4F7917FF9D1 DUP12 0xAF EXTCALL DUP15 PUSH28 0x588C38E9279D9764736F6C634300081E003300000000000000000000 "
		},
		"gasEstimates": {
			"creation": {
				"codeDepositCost": "1227800",
				"executionCost": "infinite",
				"totalCost": "infinite"
			},
			"external": {
				"UPGRADE_INTERFACE_VERSION()": "infinite",
				"creator()": "2509",
				"initialize(uint256,string)": "infinite",
				"message()": "infinite",
				"owner()": "2610",
				"proxiableUUID()": "infinite",
				"renounceOwnership()": "infinite",
				"setMessage(string)": "infinite",
				"setValue(uint256)": "22625",
				"transferOwnership(address)": "infinite",
				"upgradeToAndCall(address,bytes)": "infinite",
				"value()": "2469"
			},
			"internal": {
				"_authorizeUpgrade(address)": "infinite"
			}
		},
		"methodIdentifiers": {
			"UPGRADE_INTERFACE_VERSION()": "ad3cb1cc",
			"creator()": "02d05d3f",
			"initialize(uint256,string)": "6e9d13ab",
			"message()": "e21f37ce",
			"owner()": "8da5cb5b",
			"proxiableUUID()": "52d1902d",
			"renounceOwnership()": "715018a6",
			"setMessage(string)": "368b8772",
			"setValue(uint256)": "55241077",
			"transferOwnership(address)": "f2fde38b",
			"upgradeToAndCall(address,bytes)": "4f1ef286",
			"value()": "3fa4f245"
		}
	},
	"abi": [
		{
			"inputs": [
				{
					"internalType": "address",
					"name": "target",
					"type": "address"
				}
			],
			"name": "AddressEmptyCode",
			"type": "error"
		},
		{
			"inputs": [
				{
					"internalType": "address",
					"name": "implementation",
					"type": "address"
				}
			],
			"name": "ERC1967InvalidImplementation",
			"type": "error"
		},
		{
			"inputs": [],
			"name": "ERC1967NonPayable",
			"type": "error"
		},
		{
			"inputs": [],
			"name": "FailedCall",
			"type": "error"
		},
		{
			"inputs": [],
			"name": "InvalidInitialization",
			"type": "error"
		},
		{
			"inputs": [],
			"name": "NotInitializing",
			"type": "error"
		},
		{
			"inputs": [
				{
					"internalType": "address",
					"name": "owner",
					"type": "address"
				}
			],
			"name": "OwnableInvalidOwner",
			"type": "error"
		},
		{
			"inputs": [
				{
					"internalType": "address",
					"name": "account",
					"type": "address"
				}
			],
			"name": "OwnableUnauthorizedAccount",
			"type": "error"
		},
		{
			"inputs": [],
			"name": "UUPSUnauthorizedCallContext",
			"type": "error"
		},
		{
			"inputs": [
				{
					"internalType": "bytes32",
					"name": "slot",
					"type": "bytes32"
				}
			],
			"name": "UUPSUnsupportedProxiableUUID",
			"type": "error"
		},
		{
			"anonymous": false,
			"inputs": [
				{
					"indexed": false,
					"internalType": "uint64",
					"name": "version",
					"type": "uint64"
				}
			],
			"name": "Initialized",
			"type": "event"
		},
		{
			"anonymous": false,
			"inputs": [
				{
					"indexed": true,
					"internalType": "address",
					"name": "previousOwner",
					"type": "address"
				},
				{
					"indexed": true,
					"internalType": "address",
					"name": "newOwner",
					"type": "address"
				}
			],
			"name": "OwnershipTransferred",
			"type": "event"
		},
		{
			"anonymous": false,
			"inputs": [
				{
					"indexed": true,
					"internalType": "address",
					"name": "implementation",
					"type": "address"
				}
			],
			"name": "Upgraded",
			"type": "event"
		},
		{
			"inputs": [],
			"name": "UPGRADE_INTERFACE_VERSION",
			"outputs": [
				{
					"internalType": "string",
					"name": "",
					"type": "string"
				}
			],
			"stateMutability": "view",
			"type": "function"
		},
		{
			"inputs": [],
			"name": "creator",
			"outputs": [
				{
					"internalType": "address",
					"name": "",
					"type": "address"
				}
			],
			"stateMutability": "view",
			"type": "function"
		},
		{
			"inputs": [
				{
					"internalType": "uint256",
					"name": "_initialValue",
					"type": "uint256"
				},
				{
					"internalType": "string",
					"name": "_initialMessage",
					"type": "string"
				}
			],
			"name": "initialize",
			"outputs": [],
			"stateMutability": "nonpayable",
			"type": "function"
		},
		{
			"inputs": [],
			"name": "message",
			"outputs": [
				{
					"internalType": "string",
					"name": "",
					"type": "string"
				}
			],
			"stateMutability": "view",
			"type": "function"
		},
		{
			"inputs": [],
			"name": "owner",
			"outputs": [
				{
					"internalType": "address",
					"name": "",
					"type": "address"
				}
			],
			"stateMutability": "view",
			"type": "function"
		},
		{
			"inputs": [],
			"name": "proxiableUUID",
			"outputs": [
				{
					"internalType": "bytes32",
					"name": "",
					"type": "bytes32"
				}
			],
			"stateMutability": "view",
			"type": "function"
		},
		{
			"inputs": [],
			"name": "renounceOwnership",
			"outputs": [],
			"stateMutability": "nonpayable",
			"type": "function"
		},
		{
			"inputs": [
				{
					"internalType": "string",
					"name": "_newMessage",
					"type": "string"
				}
			],
			"name": "setMessage",
			"outputs": [],
			"stateMutability": "nonpayable",
			"type": "function"
		},
		{
			"inputs": [
				{
					"internalType": "uint256",
					"name": "_newValue",
					"type": "uint256"
				}
			],
			"name": "setValue",
			"outputs": [],
			"stateMutability": "nonpayable",
			"type": "function"
		},
		{
			"inputs": [
				{
					"internalType": "address",
					"name": "newOwner",
					"type": "address"
				}
			],
			"name": "transferOwnership",
			"outputs": [],
			"stateMutability": "nonpayable",
			"type": "function"
		},
		{
			"inputs": [
				{
					"internalType": "address",
					"name": "newImplementation",
					"type": "address"
				},
				{
					"internalType": "bytes",
					"name": "data",
					"type": "bytes"
				}
			],
			"name": "upgradeToAndCall",
			"outputs": [],
			"stateMutability": "payable",
			"type": "function"
		},
		{
			"inputs": [],
			"name": "value",
			"outputs": [
				{
					"internalType": "uint256",
					"name": "",
					"type": "uint256"
				}
			],
			"stateMutability": "view",
			"type": "function"
		}
	]
}