{
	"data": {
		"bytecode": {
			"linkReferences": {},
			"object": "6080604052348015600e575f5ffd5b506102df8061001c5f395ff3fe608060405234801561000f575f5ffd5b5060043610610034575f3560e01c806330165abf14610038578063b4579d6014610059575b5f5ffd5b61004061007c565b60405161005094939291906101b8565b60405180910390f35b610061610106565b6040516100739695949392919061024a565b60405180910390f35b5f5f5f5f5f7f800000000000000000000000000000000000000000000000000000000000000090505f7f7fffffffffffffffffffffffffffffffffffffffffffffffffffffffffffffff90505f5f90505f7f7fffffffffffffffffffffffffffffffffffffffffffffffffffffffffffffff90508383838397509750975097505050505090919293565b5f5f5f5f5f5f5f5f90505f600190505f7fffffffffffffffffffffffffffffffffffffffffffffffffffffffffffffff8090505f607f90505f7fffffffffffffffffffffffffffffffffffffffffffffffffffffffffffff800090505f617fff90508585858585859b509b509b509b509b509b50505050505050909192939495565b5f819050919050565b61019a81610188565b82525050565b5f819050919050565b6101b2816101a0565b82525050565b5f6080820190506101cb5f830187610191565b6101d86020830186610191565b6101e560408301856101a9565b6101f260608301846101a9565b95945050505050565b5f8115159050919050565b61020f816101fb565b82525050565b5f815f0b9050919050565b61022981610215565b82525050565b5f8160010b9050919050565b6102448161022f565b82525050565b5f60c08201905061025d5f830189610206565b61026a6020830188610191565b6102776040830187610220565b6102846060830186610220565b610291608083018561023b565b61029e60a083018461023b565b97965050505050505056fea2646970667358221220079deb9b0ba0539694f23291d5bc18ae934647dd76793b34eea2b44ed85938eb64736f6c634300081e0033",
			"opcodes": "PUSH1 0x80 PUSH1 0x40 MSTORE CALLVALUE DUP1 ISZERO PUSH1 0xE JUMPI PUSH0 PUSH0 REVERT JUMPDEST POP PUSH2 0x2DF DUP1 PUSH2 0x1C PUSH0 CODECOPY PUSH0 RETURN INVALID PUSH1 0x80 PUSH1 0x40 MSTORE CALLVALUE DUP1 ISZERO PUSH2 0xF JUMPI PUSH0 PUSH0 REVERT JUMPDEST POP PUSH1 0x4 CALLDATASIZE LT PUSH2 0x34 JUMPI PUSH0 CALLDATALOAD PUSH1 0xE0 SHR DUP1 PUSH4 0x30165ABF EQ PUSH2 0x38 JUMPI DUP1 PUSH4 0xB4579D60 EQ PUSH2 0x59 JUMPI JUMPDEST PUSH0 PUSH0 REVERT JUMPDEST PUSH2 0x40 PUSH2 0x7C JUMP JUMPDEST PUSH1 0x40 MLOAD PUSH2 0x50 SWAP5 SWAP4 SWAP3 SWAP2 SWAP1 PUSH2 0x1B8 JUMP JUMPDEST PUSH1 0x40 MLOAD DUP1 SWAP2 SUB SWAP1 RETURN JUMPDEST PUSH2 0x61 PUSH2 0x106 JUMP JUMPDEST PUSH1 0x40 MLOAD PUSH2 0x73 SWAP7 SWAP6 SWAP5 SWAP4 SWAP3 SWAP2 SWAP1 PUSH2 0x24A JUMP JUMPDEST PUSH1 0x40 MLOAD DUP1 SWAP2 SUB SWAP1 RETURN JUMPDEST PUSH0 PUSH0 PUSH0 PUSH0 PUSH0 PUSH32 0x8000000000000000000000000000000000000000000000000000000000000000 SWAP1 POP PUSH0 PUSH32 0x7FFFFFFFFFFFFFFFFFFFFFFFFFFFFFFFFFFFFFFFFFFFFFFFFFFFFFFFFFFFFFFF SWAP1 POP PUSH0 PUSH0 SWAP1 POP PUSH0 PUSH32 0x7FFFFFFFFFFFFFFFFFFFFFFFFFFFFFFFFFFFFFFFFFFFFFFFFFFFFFFFFFFFFFFF SWAP1 POP DUP4 DUP4 DUP4 DUP4 SWAP8 POP SWAP8 POP SWAP8 POP SWAP8 POP POP POP POP POP SWAP1 SWAP2 SWAP3 SWAP4 JUMP JUMPDEST PUSH0 PUSH0 PUSH0 PUSH0 PUSH0 PUSH0 PUSH0 PUSH0 SWAP1 POP PUSH0 PUSH1 0x1 SWAP1 POP PUSH0 PUSH32 0xFFFFFFFFFFFFFFFFFFFFFFFFFFFFFFFFFFFFFFFFFFFFFFFFFFFFFFFFFFFFFF80 SWAP1 POP PUSH0 PUSH1 0x7F SWAP1 POP PUSH0 PUSH32 0xFFFFFFFFFFFFFFFFFFFFFFFFFFFFFFFFFFFFFFFFFFFFFFFFFFFFFFFFFFFF8000 SWAP1 POP PUSH0 PUSH2 0x7FFF SWAP1 POP DUP6 DUP6 DUP6 DUP6 DUP6 DUP6 SWAP12 POP SWAP12 POP SWAP12 POP SWAP12 POP SWAP12 POP SWAP12 POP POP POP POP POP POP POP SWAP1 SWAP2 SWAP3 SWAP4 SWAP5 SWAP6 JUMP JUMPDEST PUSH0 DUP2 SWAP1 POP SWAP2 SWAP1 POP JUMP JUMPDEST PUSH2 0x19A DUP2 PUSH2 0x188 JUMP JUMPDEST DUP3 MSTORE POP POP JUMP JUMPDEST PUSH0 DUP2 SWAP1 POP SWAP2 SWAP1 POP JUMP JUMPDEST PUSH2 0x1B2 DUP2 PUSH2 0x1A0 JUMP JUMPDEST DUP3 MSTORE POP POP JUMP JUMPDEST PUSH0 PUSH1 0x80 DUP3 ADD SWAP1 POP PUSH2 0x1CB PUSH0 DUP4 ADD DUP8 PUSH2 0x191 JUMP JUMPDEST PUSH2 0x1D8 PUSH1 0x20 DUP4 ADD DUP7 PUSH2 0x191 JUMP JUMPDEST PUSH2 0x1E5 PUSH1 0x40 DUP4 ADD DUP6 PUSH2 0x1A9 JUMP JUMPDEST PUSH2 0x1F2 PUSH1 0x60 DUP4 ADD DUP5 PUSH2 0x1A9 JUMP JUMPDEST SWAP6 SWAP5 POP POP POP POP POP JUMP JUMPDEST PUSH0 DUP2 ISZERO ISZERO SWAP1 POP SWAP2 SWAP1 POP JUMP JUMPDEST PUSH2 0x20F DUP2 PUSH2 0x1FB JUMP JUMPDEST DUP3 MSTORE POP POP JUMP JUMPDEST PUSH0 DUP2 PUSH0 SIGNEXTEND SWAP1 POP SWAP2 SWAP1 POP JUMP JUMPDEST PUSH2 0x229 DUP2 PUSH2 0x215 JUMP JUMPDEST DUP3 MSTORE POP POP JUMP JUMPDEST PUSH0 DUP2 PUSH1 0x1 SIGNEXTEND SWAP1 POP SWAP2 SWAP1 POP JUMP JUMPDEST PUSH2 0x244 DUP2 PUSH2 0x22F JUMP JUMPDEST DUP3 MSTORE POP POP JUMP JUMPDEST PUSH0 PUSH1 0xC0 DUP3 ADD SWAP1 POP PUSH2 0x25D PUSH0 DUP4 ADD DUP10 PUSH2 0x206 JUMP JUMPDEST PUSH2 0x26A PUSH1 0x20 DUP4 ADD DUP9 PUSH2 0x191 JUMP JUMPDEST PUSH2 0x277 PUSH1 0x40 DUP4 ADD DUP8 PUSH2 0x220 JUMP JUMPDEST PUSH2 0x284 PUSH1 0x60 DUP4 ADD DUP7 PUSH2 0x220 JUMP JUMPDEST PUSH2 0x291 PUSH1 0x80 DUP4 ADD DUP6 PUSH2 0x23B JUMP JUMPDEST PUSH2 0x29E PUSH1 0xA0 DUP4 ADD DUP5 PUSH2 0x23B JUMP JUMPDEST SWAP8 SWAP7 POP POP POP POP POP POP POP JUMP INVALID LOG2 PUSH5 0x6970667358 0x22 SLT KECCAK256 SMOD SWAP14 0xEB SWAP12 SIGNEXTEND LOG0 MSTORE8 SWAP7 SWAP5 CALLCODE ORIGIN SWAP2 0xD5 0xBC XOR 0xAE SWAP4 CHAINID SELFBALANCE 0xDD PUSH23 0x793B34EEA2B44ED85938EB64736F6C634300081E003300 "
		},
		"gasEstimates": {
			"creation": {
				"codeDepositCost": "147000",
				"executionCost": "188",
				"totalCost": "147188"
			},
			"external": {
				"getTypes()": "infinite",
				"getUintTypes()": "infinite"
			}
		},
		"methodIdentifiers": {
			"getTypes()": "b4579d60",
			"getUintTypes()": "30165abf"
		}
	},
	"abi": [
		{
			"inputs": [],
			"name": "getTypes",
			"outputs": [
				{
					"internalType": "bool",
					"name": "",
					"type": "bool"
				},
				{
					"internalType": "int256",
					"name": "",
					"type": "int256"
				},
				{
					"internalType": "int8",
					"name": "",
					"type": "int8"
				},
				{
					"internalType": "int8",
					"name": "",
					"type": "int8"
				},
				{
					"internalType": "int16",
					"name": "",
					"type": "int16"
				},
				{
					"internalType": "int16",
					"name": "",
					"type": "int16"
				}
			],
			"stateMutability": "pure",
			"type": "function"
		},
		{
			"inputs": [],
			"name": "getUintTypes",
			"outputs": [
				{
					"internalType": "int256",
					"name": "",
					"type": "int256"
				},
				{
					"internalType": "int256",
					"name": "",
					"type": "int256"
				},
				{
					"internalType": "uint256",
					"name": "",
					"type": "uint256"
				},
				{
					"internalType": "uint256",
					"name": "",
					"type": "uint256"
				}
			],
			"stateMutability": "pure",
			"type": "function"
		}
	]
}